{
	"data": {
		"bytecode": {
			"linkReferences": {},
			"object": "608060405234801561001057600080fd5b506101d5806100206000396000f3fe60806040526004361061001e5760003560e01c8063a97f40d614610023575b600080fd5b61002b61002d565b005b60003073ffffffffffffffffffffffffffffffffffffffff16346040516100539061010d565b60006040518083038185875af1925050503d8060008114610090576040519150601f19603f3d011682016040523d82523d6000602084013e610095565b606091505b50509050806100d9576040517f08c379a00000000000000000000000000000000000000000000000000000000081526004016100d09061017f565b60405180910390fd5b50565b600081905092915050565b50565b60006100f76000836100dc565b9150610102826100e7565b600082019050919050565b6000610118826100ea565b9150819050919050565b600082825260208201905092915050565b7f4661696c656420746f2073656e64206574686572000000000000000000000000600082015250565b6000610169601483610122565b915061017482610133565b602082019050919050565b600060208201905081810360008301526101988161015c565b905091905056fea26469706673582212205d51905155f400f95a940922ebfb7378bb78e2ee9112229bccd49a4e5642949a64736f6c63430008120033",
			"opcodes": "PUSH1 0x80 PUSH1 0x40 MSTORE CALLVALUE DUP1 ISZERO PUSH2 0x10 JUMPI PUSH1 0x0 DUP1 REVERT JUMPDEST POP PUSH2 0x1D5 DUP1 PUSH2 0x20 PUSH1 0x0 CODECOPY PUSH1 0x0 RETURN INVALID PUSH1 0x80 PUSH1 0x40 MSTORE PUSH1 0x4 CALLDATASIZE LT PUSH2 0x1E JUMPI PUSH1 0x0 CALLDATALOAD PUSH1 0xE0 SHR DUP1 PUSH4 0xA97F40D6 EQ PUSH2 0x23 JUMPI JUMPDEST PUSH1 0x0 DUP1 REVERT JUMPDEST PUSH2 0x2B PUSH2 0x2D JUMP JUMPDEST STOP JUMPDEST PUSH1 0x0 ADDRESS PUSH20 0xFFFFFFFFFFFFFFFFFFFFFFFFFFFFFFFFFFFFFFFF AND CALLVALUE PUSH1 0x40 MLOAD PUSH2 0x53 SWAP1 PUSH2 0x10D JUMP JUMPDEST PUSH1 0x0 PUSH1 0x40 MLOAD DUP1 DUP4 SUB DUP2 DUP6 DUP8 GAS CALL SWAP3 POP POP POP RETURNDATASIZE DUP1 PUSH1 0x0 DUP2 EQ PUSH2 0x90 JUMPI PUSH1 0x40 MLOAD SWAP2 POP PUSH1 0x1F NOT PUSH1 0x3F RETURNDATASIZE ADD AND DUP3 ADD PUSH1 0x40 MSTORE RETURNDATASIZE DUP3 MSTORE RETURNDATASIZE PUSH1 0x0 PUSH1 0x20 DUP5 ADD RETURNDATACOPY PUSH2 0x95 JUMP JUMPDEST PUSH1 0x60 SWAP2 POP JUMPDEST POP POP SWAP1 POP DUP1 PUSH2 0xD9 JUMPI PUSH1 0x40 MLOAD PUSH32 0x8C379A000000000000000000000000000000000000000000000000000000000 DUP2 MSTORE PUSH1 0x4 ADD PUSH2 0xD0 SWAP1 PUSH2 0x17F JUMP JUMPDEST PUSH1 0x40 MLOAD DUP1 SWAP2 SUB SWAP1 REVERT JUMPDEST POP JUMP JUMPDEST PUSH1 0x0 DUP2 SWAP1 POP SWAP3 SWAP2 POP POP JUMP JUMPDEST POP JUMP JUMPDEST PUSH1 0x0 PUSH2 0xF7 PUSH1 0x0 DUP4 PUSH2 0xDC JUMP JUMPDEST SWAP2 POP PUSH2 0x102 DUP3 PUSH2 0xE7 JUMP JUMPDEST PUSH1 0x0 DUP3 ADD SWAP1 POP SWAP2 SWAP1 POP JUMP JUMPDEST PUSH1 0x0 PUSH2 0x118 DUP3 PUSH2 0xEA JUMP JUMPDEST SWAP2 POP DUP2 SWAP1 POP SWAP2 SWAP1 POP JUMP JUMPDEST PUSH1 0x0 DUP3 DUP3 MSTORE PUSH1 0x20 DUP3 ADD SWAP1 POP SWAP3 SWAP2 POP POP JUMP JUMPDEST PUSH32 0x4661696C656420746F2073656E64206574686572000000000000000000000000 PUSH1 0x0 DUP3 ADD MSTORE POP JUMP JUMPDEST PUSH1 0x0 PUSH2 0x169 PUSH1 0x14 DUP4 PUSH2 0x122 JUMP JUMPDEST SWAP2 POP PUSH2 0x174 DUP3 PUSH2 0x133 JUMP JUMPDEST PUSH1 0x20 DUP3 ADD SWAP1 POP SWAP2 SWAP1 POP JUMP JUMPDEST PUSH1 0x0 PUSH1 0x20 DUP3 ADD SWAP1 POP DUP2 DUP2 SUB PUSH1 0x0 DUP4 ADD MSTORE PUSH2 0x198 DUP2 PUSH2 0x15C JUMP JUMPDEST SWAP1 POP SWAP2 SWAP1 POP JUMP INVALID LOG2 PUSH5 0x6970667358 0x22 SLT KECCAK256 0x5D MLOAD SWAP1 MLOAD SSTORE DELEGATECALL STOP 0xF9 GAS SWAP5 MULMOD 0x22 0xEB 0xFB PUSH20 0x78BB78E2EE9112229BCCD49A4E5642949A64736F PUSH13 0x63430008120033000000000000 "
		},
		"gasEstimates": {
			"creation": {
				"codeDepositCost": "93800",
				"executionCost": "141",
				"totalCost": "93941"
			},
			"external": {
				"transferETh()": "infinite"
			}
		},
		"methodIdentifiers": {
			"transferETh()": "a97f40d6"
		}
	},
	"abi": [
		{
			"inputs": [],
			"name": "transferETh",
			"outputs": [],
			"stateMutability": "payable",
			"type": "function"
		}
	]
}