{
	"nested-mapping.sol": {
		"Test": {
			"abi": [
				{
					"inputs": [
						{
							"internalType": "string",
							"name": "name",
							"type": "string"
						}
					],
					"name": "addToken",
					"outputs": [],
					"stateMutability": "nonpayable",
					"type": "function"
				},
				{
					"inputs": [
						{
							"internalType": "address",
							"name": "",
							"type": "address"
						}
					],
					"name": "token",
					"outputs": [
						{
							"internalType": "string",
							"name": "",
							"type": "string"
						}
					],
					"stateMutability": "view",
					"type": "function"
				}
			],
			"devdoc": {
				"kind": "dev",
				"methods": {},
				"version": 1
			},
			"evm": {
				"assembly": "    /* \"nested-mapping.sol\":58:443  contract Test {\r... */\n  mstore(0x40, 0x80)\n  callvalue\n  dup1\n  iszero\n  tag_1\n  jumpi\n  0x00\n  dup1\n  revert\ntag_1:\n  pop\n  dataSize(sub_0)\n  dup1\n  dataOffset(sub_0)\n  0x00\n  codecopy\n  0x00\n  return\nstop\n\nsub_0: assembly {\n        /* \"nested-mapping.sol\":58:443  contract Test {\r... */\n      mstore(0x40, 0x80)\n      callvalue\n      dup1\n      iszero\n      tag_1\n      jumpi\n      0x00\n      dup1\n      revert\n    tag_1:\n      pop\n      jumpi(tag_2, lt(calldatasize, 0x04))\n      shr(0xe0, calldataload(0x00))\n      dup1\n      0x6d46a1db\n      eq\n      tag_3\n      jumpi\n      dup1\n      0x8ce26108\n      eq\n      tag_4\n      jumpi\n    tag_2:\n      0x00\n      dup1\n      revert\n        /* \"nested-mapping.sol\":298:337  mapping(address => string) public token */\n    tag_3:\n      tag_5\n      0x04\n      dup1\n      calldatasize\n      sub\n      dup2\n      add\n      swap1\n      tag_6\n      swap2\n      swap1\n      tag_7\n      jump\t// in\n    tag_6:\n      tag_8\n      jump\t// in\n    tag_5:\n      mload(0x40)\n      tag_9\n      swap2\n      swap1\n      tag_10\n      jump\t// in\n    tag_9:\n      mload(0x40)\n      dup1\n      swap2\n      sub\n      swap1\n      return\n        /* \"nested-mapping.sol\":346:434  function addToken(string memory name) public {\r... */\n    tag_4:\n      tag_11\n      0x04\n      dup1\n      calldatasize\n      sub\n      dup2\n      add\n      swap1\n      tag_12\n      swap2\n      swap1\n      tag_13\n      jump\t// in\n    tag_12:\n      tag_14\n      jump\t// in\n    tag_11:\n      stop\n        /* \"nested-mapping.sol\":298:337  mapping(address => string) public token */\n    tag_8:\n      mstore(0x20, 0x00)\n      dup1\n      0x00\n      mstore\n      keccak256(0x00, 0x40)\n      0x00\n      swap2\n      pop\n      swap1\n      pop\n      dup1\n      sload\n      tag_15\n      swap1\n      tag_16\n      jump\t// in\n    tag_15:\n      dup1\n      0x1f\n      add\n      0x20\n      dup1\n      swap2\n      div\n      mul\n      0x20\n      add\n      mload(0x40)\n      swap1\n      dup2\n      add\n      0x40\n      mstore\n      dup1\n      swap3\n      swap2\n      swap1\n      dup2\n      dup2\n      mstore\n      0x20\n      add\n      dup3\n      dup1\n      sload\n      tag_17\n      swap1\n      tag_16\n      jump\t// in\n    tag_17:\n      dup1\n      iszero\n      tag_18\n      jumpi\n      dup1\n      0x1f\n      lt\n      tag_19\n      jumpi\n      0x0100\n      dup1\n      dup4\n      sload\n      div\n      mul\n      dup4\n      mstore\n      swap2\n      0x20\n      add\n      swap2\n      jump(tag_18)\n    tag_19:\n      dup3\n      add\n      swap2\n      swap1\n      0x00\n      mstore\n      keccak256(0x00, 0x20)\n      swap1\n    tag_20:\n      dup2\n      sload\n      dup2\n      mstore\n      swap1\n      0x01\n      add\n      swap1\n      0x20\n      add\n      dup1\n      dup4\n      gt\n      tag_20\n      jumpi\n      dup3\n      swap1\n      sub\n      0x1f\n      and\n      dup3\n      add\n      swap2\n    tag_18:\n      pop\n      pop\n      pop\n      pop\n      pop\n      dup2\n      jump\t// out\n        /* \"nested-mapping.sol\":346:434  function addToken(string memory name) public {\r... */\n    tag_14:\n        /* \"nested-mapping.sol\":422:426  name */\n      dup1\n        /* \"nested-mapping.sol\":402:407  token */\n      0x00\n        /* \"nested-mapping.sol\":402:419  token[msg.sender] */\n      dup1\n        /* \"nested-mapping.sol\":408:418  msg.sender */\n      caller\n        /* \"nested-mapping.sol\":402:419  token[msg.sender] */\n      0xffffffffffffffffffffffffffffffffffffffff\n      and\n      0xffffffffffffffffffffffffffffffffffffffff\n      and\n      dup2\n      mstore\n      0x20\n      add\n      swap1\n      dup2\n      mstore\n      0x20\n      add\n      0x00\n      keccak256\n        /* \"nested-mapping.sol\":402:426  token[msg.sender] = name */\n      swap1\n      dup1\n      mload\n      swap1\n      0x20\n      add\n      swap1\n      tag_22\n      swap3\n      swap2\n      swap1\n      tag_23\n      jump\t// in\n    tag_22:\n      pop\n        /* \"nested-mapping.sol\":346:434  function addToken(string memory name) public {\r... */\n      pop\n      jump\t// out\n    tag_23:\n      dup3\n      dup1\n      sload\n      tag_24\n      swap1\n      tag_16\n      jump\t// in\n    tag_24:\n      swap1\n      0x00\n      mstore\n      keccak256(0x00, 0x20)\n      swap1\n      0x1f\n      add\n      0x20\n      swap1\n      div\n      dup2\n      add\n      swap3\n      dup3\n      tag_26\n      jumpi\n      0x00\n      dup6\n      sstore\n      jump(tag_25)\n    tag_26:\n      dup3\n      0x1f\n      lt\n      tag_27\n      jumpi\n      dup1\n      mload\n      not(0xff)\n      and\n      dup4\n      dup1\n      add\n      or\n      dup6\n      sstore\n      jump(tag_25)\n    tag_27:\n      dup3\n      dup1\n      add\n      0x01\n      add\n      dup6\n      sstore\n      dup3\n      iszero\n      tag_25\n      jumpi\n      swap2\n      dup3\n      add\n    tag_28:\n      dup3\n      dup2\n      gt\n      iszero\n      tag_29\n      jumpi\n      dup3\n      mload\n      dup3\n      sstore\n      swap2\n      0x20\n      add\n      swap2\n      swap1\n      0x01\n      add\n      swap1\n      jump(tag_28)\n    tag_29:\n    tag_25:\n      pop\n      swap1\n      pop\n      tag_30\n      swap2\n      swap1\n      tag_31\n      jump\t// in\n    tag_30:\n      pop\n      swap1\n      jump\t// out\n    tag_31:\n    tag_32:\n      dup1\n      dup3\n      gt\n      iszero\n      tag_33\n      jumpi\n      0x00\n      dup2\n      0x00\n      swap1\n      sstore\n      pop\n      0x01\n      add\n      jump(tag_32)\n    tag_33:\n      pop\n      swap1\n      jump\t// out\n        /* \"#utility.yul\":7:419   */\n    tag_35:\n        /* \"#utility.yul\":85:90   */\n      0x00\n        /* \"#utility.yul\":110:176   */\n      tag_37\n        /* \"#utility.yul\":126:175   */\n      tag_38\n        /* \"#utility.yul\":168:174   */\n      dup5\n        /* \"#utility.yul\":126:175   */\n      tag_39\n      jump\t// in\n    tag_38:\n        /* \"#utility.yul\":110:176   */\n      tag_40\n      jump\t// in\n    tag_37:\n        /* \"#utility.yul\":101:176   */\n      swap1\n      pop\n        /* \"#utility.yul\":199:205   */\n      dup3\n        /* \"#utility.yul\":192:197   */\n      dup2\n        /* \"#utility.yul\":185:206   */\n      mstore\n        /* \"#utility.yul\":237:241   */\n      0x20\n        /* \"#utility.yul\":230:235   */\n      dup2\n        /* \"#utility.yul\":226:242   */\n      add\n        /* \"#utility.yul\":275:278   */\n      dup5\n        /* \"#utility.yul\":266:272   */\n      dup5\n        /* \"#utility.yul\":261:264   */\n      dup5\n        /* \"#utility.yul\":257:273   */\n      add\n        /* \"#utility.yul\":254:279   */\n      gt\n        /* \"#utility.yul\":251:253   */\n      iszero\n      tag_41\n      jumpi\n        /* \"#utility.yul\":282:361   */\n      tag_42\n      tag_43\n      jump\t// in\n    tag_42:\n        /* \"#utility.yul\":251:253   */\n    tag_41:\n        /* \"#utility.yul\":372:413   */\n      tag_44\n        /* \"#utility.yul\":406:412   */\n      dup5\n        /* \"#utility.yul\":401:404   */\n      dup3\n        /* \"#utility.yul\":396:399   */\n      dup6\n        /* \"#utility.yul\":372:413   */\n      tag_45\n      jump\t// in\n    tag_44:\n        /* \"#utility.yul\":91:419   */\n      pop\n      swap4\n      swap3\n      pop\n      pop\n      pop\n      jump\t// out\n        /* \"#utility.yul\":425:564   */\n    tag_46:\n        /* \"#utility.yul\":471:476   */\n      0x00\n        /* \"#utility.yul\":509:515   */\n      dup2\n        /* \"#utility.yul\":496:516   */\n      calldataload\n        /* \"#utility.yul\":487:516   */\n      swap1\n      pop\n        /* \"#utility.yul\":525:558   */\n      tag_48\n        /* \"#utility.yul\":552:557   */\n      dup2\n        /* \"#utility.yul\":525:558   */\n      tag_49\n      jump\t// in\n    tag_48:\n        /* \"#utility.yul\":477:564   */\n      swap3\n      swap2\n      pop\n      pop\n      jump\t// out\n        /* \"#utility.yul\":584:924   */\n    tag_50:\n        /* \"#utility.yul\":640:645   */\n      0x00\n        /* \"#utility.yul\":689:692   */\n      dup3\n        /* \"#utility.yul\":682:686   */\n      0x1f\n        /* \"#utility.yul\":674:680   */\n      dup4\n        /* \"#utility.yul\":670:687   */\n      add\n        /* \"#utility.yul\":666:693   */\n      slt\n        /* \"#utility.yul\":656:658   */\n      tag_52\n      jumpi\n        /* \"#utility.yul\":697:776   */\n      tag_53\n      tag_54\n      jump\t// in\n    tag_53:\n        /* \"#utility.yul\":656:658   */\n    tag_52:\n        /* \"#utility.yul\":814:820   */\n      dup2\n        /* \"#utility.yul\":801:821   */\n      calldataload\n        /* \"#utility.yul\":839:918   */\n      tag_55\n        /* \"#utility.yul\":914:917   */\n      dup5\n        /* \"#utility.yul\":906:912   */\n      dup3\n        /* \"#utility.yul\":899:903   */\n      0x20\n        /* \"#utility.yul\":891:897   */\n      dup7\n        /* \"#utility.yul\":887:904   */\n      add\n        /* \"#utility.yul\":839:918   */\n      tag_35\n      jump\t// in\n    tag_55:\n        /* \"#utility.yul\":830:918   */\n      swap2\n      pop\n        /* \"#utility.yul\":646:924   */\n      pop\n      swap3\n      swap2\n      pop\n      pop\n      jump\t// out\n        /* \"#utility.yul\":930:1259   */\n    tag_7:\n        /* \"#utility.yul\":989:995   */\n      0x00\n        /* \"#utility.yul\":1038:1040   */\n      0x20\n        /* \"#utility.yul\":1026:1035   */\n      dup3\n        /* \"#utility.yul\":1017:1024   */\n      dup5\n        /* \"#utility.yul\":1013:1036   */\n      sub\n        /* \"#utility.yul\":1009:1041   */\n      slt\n        /* \"#utility.yul\":1006:1008   */\n      iszero\n      tag_57\n      jumpi\n        /* \"#utility.yul\":1044:1123   */\n      tag_58\n      tag_59\n      jump\t// in\n    tag_58:\n        /* \"#utility.yul\":1006:1008   */\n    tag_57:\n        /* \"#utility.yul\":1164:1165   */\n      0x00\n        /* \"#utility.yul\":1189:1242   */\n      tag_60\n        /* \"#utility.yul\":1234:1241   */\n      dup5\n        /* \"#utility.yul\":1225:1231   */\n      dup3\n        /* \"#utility.yul\":1214:1223   */\n      dup6\n        /* \"#utility.yul\":1210:1232   */\n      add\n        /* \"#utility.yul\":1189:1242   */\n      tag_46\n      jump\t// in\n    tag_60:\n        /* \"#utility.yul\":1179:1242   */\n      swap2\n      pop\n        /* \"#utility.yul\":1135:1252   */\n      pop\n        /* \"#utility.yul\":996:1259   */\n      swap3\n      swap2\n      pop\n      pop\n      jump\t// out\n        /* \"#utility.yul\":1265:1774   */\n    tag_13:\n        /* \"#utility.yul\":1334:1340   */\n      0x00\n        /* \"#utility.yul\":1383:1385   */\n      0x20\n        /* \"#utility.yul\":1371:1380   */\n      dup3\n        /* \"#utility.yul\":1362:1369   */\n      dup5\n        /* \"#utility.yul\":1358:1381   */\n      sub\n        /* \"#utility.yul\":1354:1386   */\n      slt\n        /* \"#utility.yul\":1351:1353   */\n      iszero\n      tag_62\n      jumpi\n        /* \"#utility.yul\":1389:1468   */\n      tag_63\n      tag_59\n      jump\t// in\n    tag_63:\n        /* \"#utility.yul\":1351:1353   */\n    tag_62:\n        /* \"#utility.yul\":1537:1538   */\n      0x00\n        /* \"#utility.yul\":1526:1535   */\n      dup3\n        /* \"#utility.yul\":1522:1539   */\n      add\n        /* \"#utility.yul\":1509:1540   */\n      calldataload\n        /* \"#utility.yul\":1567:1585   */\n      0xffffffffffffffff\n        /* \"#utility.yul\":1559:1565   */\n      dup2\n        /* \"#utility.yul\":1556:1586   */\n      gt\n        /* \"#utility.yul\":1553:1555   */\n      iszero\n      tag_64\n      jumpi\n        /* \"#utility.yul\":1589:1668   */\n      tag_65\n      tag_66\n      jump\t// in\n    tag_65:\n        /* \"#utility.yul\":1553:1555   */\n    tag_64:\n        /* \"#utility.yul\":1694:1757   */\n      tag_67\n        /* \"#utility.yul\":1749:1756   */\n      dup5\n        /* \"#utility.yul\":1740:1746   */\n      dup3\n        /* \"#utility.yul\":1729:1738   */\n      dup6\n        /* \"#utility.yul\":1725:1747   */\n      add\n        /* \"#utility.yul\":1694:1757   */\n      tag_50\n      jump\t// in\n    tag_67:\n        /* \"#utility.yul\":1684:1757   */\n      swap2\n      pop\n        /* \"#utility.yul\":1480:1767   */\n      pop\n        /* \"#utility.yul\":1341:1774   */\n      swap3\n      swap2\n      pop\n      pop\n      jump\t// out\n        /* \"#utility.yul\":1780:2144   */\n    tag_68:\n        /* \"#utility.yul\":1868:1871   */\n      0x00\n        /* \"#utility.yul\":1896:1935   */\n      tag_70\n        /* \"#utility.yul\":1929:1934   */\n      dup3\n        /* \"#utility.yul\":1896:1935   */\n      tag_71\n      jump\t// in\n    tag_70:\n        /* \"#utility.yul\":1951:2022   */\n      tag_72\n        /* \"#utility.yul\":2015:2021   */\n      dup2\n        /* \"#utility.yul\":2010:2013   */\n      dup6\n        /* \"#utility.yul\":1951:2022   */\n      tag_73\n      jump\t// in\n    tag_72:\n        /* \"#utility.yul\":1944:2022   */\n      swap4\n      pop\n        /* \"#utility.yul\":2031:2083   */\n      tag_74\n        /* \"#utility.yul\":2076:2082   */\n      dup2\n        /* \"#utility.yul\":2071:2074   */\n      dup6\n        /* \"#utility.yul\":2064:2068   */\n      0x20\n        /* \"#utility.yul\":2057:2062   */\n      dup7\n        /* \"#utility.yul\":2053:2069   */\n      add\n        /* \"#utility.yul\":2031:2083   */\n      tag_75\n      jump\t// in\n    tag_74:\n        /* \"#utility.yul\":2108:2137   */\n      tag_76\n        /* \"#utility.yul\":2130:2136   */\n      dup2\n        /* \"#utility.yul\":2108:2137   */\n      tag_77\n      jump\t// in\n    tag_76:\n        /* \"#utility.yul\":2103:2106   */\n      dup5\n        /* \"#utility.yul\":2099:2138   */\n      add\n        /* \"#utility.yul\":2092:2138   */\n      swap2\n      pop\n        /* \"#utility.yul\":1872:2144   */\n      pop\n      swap3\n      swap2\n      pop\n      pop\n      jump\t// out\n        /* \"#utility.yul\":2150:2463   */\n    tag_10:\n        /* \"#utility.yul\":2263:2267   */\n      0x00\n        /* \"#utility.yul\":2301:2303   */\n      0x20\n        /* \"#utility.yul\":2290:2299   */\n      dup3\n        /* \"#utility.yul\":2286:2304   */\n      add\n        /* \"#utility.yul\":2278:2304   */\n      swap1\n      pop\n        /* \"#utility.yul\":2350:2359   */\n      dup2\n        /* \"#utility.yul\":2344:2348   */\n      dup2\n        /* \"#utility.yul\":2340:2360   */\n      sub\n        /* \"#utility.yul\":2336:2337   */\n      0x00\n        /* \"#utility.yul\":2325:2334   */\n      dup4\n        /* \"#utility.yul\":2321:2338   */\n      add\n        /* \"#utility.yul\":2314:2361   */\n      mstore\n        /* \"#utility.yul\":2378:2456   */\n      tag_79\n        /* \"#utility.yul\":2451:2455   */\n      dup2\n        /* \"#utility.yul\":2442:2448   */\n      dup5\n        /* \"#utility.yul\":2378:2456   */\n      tag_68\n      jump\t// in\n    tag_79:\n        /* \"#utility.yul\":2370:2456   */\n      swap1\n      pop\n        /* \"#utility.yul\":2268:2463   */\n      swap3\n      swap2\n      pop\n      pop\n      jump\t// out\n        /* \"#utility.yul\":2469:2598   */\n    tag_40:\n        /* \"#utility.yul\":2503:2509   */\n      0x00\n        /* \"#utility.yul\":2530:2550   */\n      tag_81\n      tag_82\n      jump\t// in\n    tag_81:\n        /* \"#utility.yul\":2520:2550   */\n      swap1\n      pop\n        /* \"#utility.yul\":2559:2592   */\n      tag_83\n        /* \"#utility.yul\":2587:2591   */\n      dup3\n        /* \"#utility.yul\":2579:2585   */\n      dup3\n        /* \"#utility.yul\":2559:2592   */\n      tag_84\n      jump\t// in\n    tag_83:\n        /* \"#utility.yul\":2510:2598   */\n      swap2\n      swap1\n      pop\n      jump\t// out\n        /* \"#utility.yul\":2604:2679   */\n    tag_82:\n        /* \"#utility.yul\":2637:2643   */\n      0x00\n        /* \"#utility.yul\":2670:2672   */\n      0x40\n        /* \"#utility.yul\":2664:2673   */\n      mload\n        /* \"#utility.yul\":2654:2673   */\n      swap1\n      pop\n        /* \"#utility.yul\":2644:2679   */\n      swap1\n      jump\t// out\n        /* \"#utility.yul\":2685:2993   */\n    tag_39:\n        /* \"#utility.yul\":2747:2751   */\n      0x00\n        /* \"#utility.yul\":2837:2855   */\n      0xffffffffffffffff\n        /* \"#utility.yul\":2829:2835   */\n      dup3\n        /* \"#utility.yul\":2826:2856   */\n      gt\n        /* \"#utility.yul\":2823:2825   */\n      iszero\n      tag_87\n      jumpi\n        /* \"#utility.yul\":2859:2877   */\n      tag_88\n      tag_89\n      jump\t// in\n    tag_88:\n        /* \"#utility.yul\":2823:2825   */\n    tag_87:\n        /* \"#utility.yul\":2897:2926   */\n      tag_90\n        /* \"#utility.yul\":2919:2925   */\n      dup3\n        /* \"#utility.yul\":2897:2926   */\n      tag_77\n      jump\t// in\n    tag_90:\n        /* \"#utility.yul\":2889:2926   */\n      swap1\n      pop\n        /* \"#utility.yul\":2981:2985   */\n      0x20\n        /* \"#utility.yul\":2975:2979   */\n      dup2\n        /* \"#utility.yul\":2971:2986   */\n      add\n        /* \"#utility.yul\":2963:2986   */\n      swap1\n      pop\n        /* \"#utility.yul\":2752:2993   */\n      swap2\n      swap1\n      pop\n      jump\t// out\n        /* \"#utility.yul\":2999:3098   */\n    tag_71:\n        /* \"#utility.yul\":3051:3057   */\n      0x00\n        /* \"#utility.yul\":3085:3090   */\n      dup2\n        /* \"#utility.yul\":3079:3091   */\n      mload\n        /* \"#utility.yul\":3069:3091   */\n      swap1\n      pop\n        /* \"#utility.yul\":3058:3098   */\n      swap2\n      swap1\n      pop\n      jump\t// out\n        /* \"#utility.yul\":3104:3273   */\n    tag_73:\n        /* \"#utility.yul\":3188:3199   */\n      0x00\n        /* \"#utility.yul\":3222:3228   */\n      dup3\n        /* \"#utility.yul\":3217:3220   */\n      dup3\n        /* \"#utility.yul\":3210:3229   */\n      mstore\n        /* \"#utility.yul\":3262:3266   */\n      0x20\n        /* \"#utility.yul\":3257:3260   */\n      dup3\n        /* \"#utility.yul\":3253:3267   */\n      add\n        /* \"#utility.yul\":3238:3267   */\n      swap1\n      pop\n        /* \"#utility.yul\":3200:3273   */\n      swap3\n      swap2\n      pop\n      pop\n      jump\t// out\n        /* \"#utility.yul\":3279:3375   */\n    tag_93:\n        /* \"#utility.yul\":3316:3323   */\n      0x00\n        /* \"#utility.yul\":3345:3369   */\n      tag_95\n        /* \"#utility.yul\":3363:3368   */\n      dup3\n        /* \"#utility.yul\":3345:3369   */\n      tag_96\n      jump\t// in\n    tag_95:\n        /* \"#utility.yul\":3334:3369   */\n      swap1\n      pop\n        /* \"#utility.yul\":3324:3375   */\n      swap2\n      swap1\n      pop\n      jump\t// out\n        /* \"#utility.yul\":3381:3507   */\n    tag_96:\n        /* \"#utility.yul\":3418:3425   */\n      0x00\n        /* \"#utility.yul\":3458:3500   */\n      0xffffffffffffffffffffffffffffffffffffffff\n        /* \"#utility.yul\":3451:3456   */\n      dup3\n        /* \"#utility.yul\":3447:3501   */\n      and\n        /* \"#utility.yul\":3436:3501   */\n      swap1\n      pop\n        /* \"#utility.yul\":3426:3507   */\n      swap2\n      swap1\n      pop\n      jump\t// out\n        /* \"#utility.yul\":3513:3667   */\n    tag_45:\n        /* \"#utility.yul\":3597:3603   */\n      dup3\n        /* \"#utility.yul\":3592:3595   */\n      dup2\n        /* \"#utility.yul\":3587:3590   */\n      dup4\n        /* \"#utility.yul\":3574:3604   */\n      calldatacopy\n        /* \"#utility.yul\":3659:3660   */\n      0x00\n        /* \"#utility.yul\":3650:3656   */\n      dup4\n        /* \"#utility.yul\":3645:3648   */\n      dup4\n        /* \"#utility.yul\":3641:3657   */\n      add\n        /* \"#utility.yul\":3634:3661   */\n      mstore\n        /* \"#utility.yul\":3564:3667   */\n      pop\n      pop\n      pop\n      jump\t// out\n        /* \"#utility.yul\":3673:3980   */\n    tag_75:\n        /* \"#utility.yul\":3741:3742   */\n      0x00\n        /* \"#utility.yul\":3751:3864   */\n    tag_100:\n        /* \"#utility.yul\":3765:3771   */\n      dup4\n        /* \"#utility.yul\":3762:3763   */\n      dup2\n        /* \"#utility.yul\":3759:3772   */\n      lt\n        /* \"#utility.yul\":3751:3864   */\n      iszero\n      tag_102\n      jumpi\n        /* \"#utility.yul\":3850:3851   */\n      dup1\n        /* \"#utility.yul\":3845:3848   */\n      dup3\n        /* \"#utility.yul\":3841:3852   */\n      add\n        /* \"#utility.yul\":3835:3853   */\n      mload\n        /* \"#utility.yul\":3831:3832   */\n      dup2\n        /* \"#utility.yul\":3826:3829   */\n      dup5\n        /* \"#utility.yul\":3822:3833   */\n      add\n        /* \"#utility.yul\":3815:3854   */\n      mstore\n        /* \"#utility.yul\":3787:3789   */\n      0x20\n        /* \"#utility.yul\":3784:3785   */\n      dup2\n        /* \"#utility.yul\":3780:3790   */\n      add\n        /* \"#utility.yul\":3775:3790   */\n      swap1\n      pop\n        /* \"#utility.yul\":3751:3864   */\n      jump(tag_100)\n    tag_102:\n        /* \"#utility.yul\":3882:3888   */\n      dup4\n        /* \"#utility.yul\":3879:3880   */\n      dup2\n        /* \"#utility.yul\":3876:3889   */\n      gt\n        /* \"#utility.yul\":3873:3875   */\n      iszero\n      tag_103\n      jumpi\n        /* \"#utility.yul\":3962:3963   */\n      0x00\n        /* \"#utility.yul\":3953:3959   */\n      dup5\n        /* \"#utility.yul\":3948:3951   */\n      dup5\n        /* \"#utility.yul\":3944:3960   */\n      add\n        /* \"#utility.yul\":3937:3964   */\n      mstore\n        /* \"#utility.yul\":3873:3875   */\n    tag_103:\n        /* \"#utility.yul\":3722:3980   */\n      pop\n      pop\n      pop\n      pop\n      jump\t// out\n        /* \"#utility.yul\":3986:4306   */\n    tag_16:\n        /* \"#utility.yul\":4030:4036   */\n      0x00\n        /* \"#utility.yul\":4067:4068   */\n      0x02\n        /* \"#utility.yul\":4061:4065   */\n      dup3\n        /* \"#utility.yul\":4057:4069   */\n      div\n        /* \"#utility.yul\":4047:4069   */\n      swap1\n      pop\n        /* \"#utility.yul\":4114:4115   */\n      0x01\n        /* \"#utility.yul\":4108:4112   */\n      dup3\n        /* \"#utility.yul\":4104:4116   */\n      and\n        /* \"#utility.yul\":4135:4153   */\n      dup1\n        /* \"#utility.yul\":4125:4127   */\n      tag_105\n      jumpi\n        /* \"#utility.yul\":4191:4195   */\n      0x7f\n        /* \"#utility.yul\":4183:4189   */\n      dup3\n        /* \"#utility.yul\":4179:4196   */\n      and\n        /* \"#utility.yul\":4169:4196   */\n      swap2\n      pop\n        /* \"#utility.yul\":4125:4127   */\n    tag_105:\n        /* \"#utility.yul\":4253:4255   */\n      0x20\n        /* \"#utility.yul\":4245:4251   */\n      dup3\n        /* \"#utility.yul\":4242:4256   */\n      lt\n        /* \"#utility.yul\":4222:4240   */\n      dup2\n        /* \"#utility.yul\":4219:4257   */\n      eq\n        /* \"#utility.yul\":4216:4218   */\n      iszero\n      tag_106\n      jumpi\n        /* \"#utility.yul\":4272:4290   */\n      tag_107\n      tag_108\n      jump\t// in\n    tag_107:\n        /* \"#utility.yul\":4216:4218   */\n    tag_106:\n        /* \"#utility.yul\":4037:4306   */\n      pop\n      swap2\n      swap1\n      pop\n      jump\t// out\n        /* \"#utility.yul\":4312:4593   */\n    tag_84:\n        /* \"#utility.yul\":4395:4422   */\n      tag_110\n        /* \"#utility.yul\":4417:4421   */\n      dup3\n        /* \"#utility.yul\":4395:4422   */\n      tag_77\n      jump\t// in\n    tag_110:\n        /* \"#utility.yul\":4387:4393   */\n      dup2\n        /* \"#utility.yul\":4383:4423   */\n      add\n        /* \"#utility.yul\":4525:4531   */\n      dup2\n        /* \"#utility.yul\":4513:4523   */\n      dup2\n        /* \"#utility.yul\":4510:4532   */\n      lt\n        /* \"#utility.yul\":4489:4507   */\n      0xffffffffffffffff\n        /* \"#utility.yul\":4477:4487   */\n      dup3\n        /* \"#utility.yul\":4474:4508   */\n      gt\n        /* \"#utility.yul\":4471:4533   */\n      or\n        /* \"#utility.yul\":4468:4470   */\n      iszero\n      tag_111\n      jumpi\n        /* \"#utility.yul\":4536:4554   */\n      tag_112\n      tag_89\n      jump\t// in\n    tag_112:\n        /* \"#utility.yul\":4468:4470   */\n    tag_111:\n        /* \"#utility.yul\":4576:4586   */\n      dup1\n        /* \"#utility.yul\":4572:4574   */\n      0x40\n        /* \"#utility.yul\":4565:4587   */\n      mstore\n        /* \"#utility.yul\":4355:4593   */\n      pop\n      pop\n      pop\n      jump\t// out\n        /* \"#utility.yul\":4599:4779   */\n    tag_108:\n        /* \"#utility.yul\":4647:4724   */\n      0x4e487b7100000000000000000000000000000000000000000000000000000000\n        /* \"#utility.yul\":4644:4645   */\n      0x00\n        /* \"#utility.yul\":4637:4725   */\n      mstore\n        /* \"#utility.yul\":4744:4748   */\n      0x22\n        /* \"#utility.yul\":4741:4742   */\n      0x04\n        /* \"#utility.yul\":4734:4749   */\n      mstore\n        /* \"#utility.yul\":4768:4772   */\n      0x24\n        /* \"#utility.yul\":4765:4766   */\n      0x00\n        /* \"#utility.yul\":4758:4773   */\n      revert\n        /* \"#utility.yul\":4785:4965   */\n    tag_89:\n        /* \"#utility.yul\":4833:4910   */\n      0x4e487b7100000000000000000000000000000000000000000000000000000000\n        /* \"#utility.yul\":4830:4831   */\n      0x00\n        /* \"#utility.yul\":4823:4911   */\n      mstore\n        /* \"#utility.yul\":4930:4934   */\n      0x41\n        /* \"#utility.yul\":4927:4928   */\n      0x04\n        /* \"#utility.yul\":4920:4935   */\n      mstore\n        /* \"#utility.yul\":4954:4958   */\n      0x24\n        /* \"#utility.yul\":4951:4952   */\n      0x00\n        /* \"#utility.yul\":4944:4959   */\n      revert\n        /* \"#utility.yul\":4971:5088   */\n    tag_54:\n        /* \"#utility.yul\":5080:5081   */\n      0x00\n        /* \"#utility.yul\":5077:5078   */\n      dup1\n        /* \"#utility.yul\":5070:5082   */\n      revert\n        /* \"#utility.yul\":5094:5211   */\n    tag_43:\n        /* \"#utility.yul\":5203:5204   */\n      0x00\n        /* \"#utility.yul\":5200:5201   */\n      dup1\n        /* \"#utility.yul\":5193:5205   */\n      revert\n        /* \"#utility.yul\":5217:5334   */\n    tag_66:\n        /* \"#utility.yul\":5326:5327   */\n      0x00\n        /* \"#utility.yul\":5323:5324   */\n      dup1\n        /* \"#utility.yul\":5316:5328   */\n      revert\n        /* \"#utility.yul\":5340:5457   */\n    tag_59:\n        /* \"#utility.yul\":5449:5450   */\n      0x00\n        /* \"#utility.yul\":5446:5447   */\n      dup1\n        /* \"#utility.yul\":5439:5451   */\n      revert\n        /* \"#utility.yul\":5463:5565   */\n    tag_77:\n        /* \"#utility.yul\":5504:5510   */\n      0x00\n        /* \"#utility.yul\":5555:5557   */\n      0x1f\n        /* \"#utility.yul\":5551:5558   */\n      not\n        /* \"#utility.yul\":5546:5548   */\n      0x1f\n        /* \"#utility.yul\":5539:5544   */\n      dup4\n        /* \"#utility.yul\":5535:5549   */\n      add\n        /* \"#utility.yul\":5531:5559   */\n      and\n        /* \"#utility.yul\":5521:5559   */\n      swap1\n      pop\n        /* \"#utility.yul\":5511:5565   */\n      swap2\n      swap1\n      pop\n      jump\t// out\n        /* \"#utility.yul\":5571:5693   */\n    tag_49:\n        /* \"#utility.yul\":5644:5668   */\n      tag_121\n        /* \"#utility.yul\":5662:5667   */\n      dup2\n        /* \"#utility.yul\":5644:5668   */\n      tag_93\n      jump\t// in\n    tag_121:\n        /* \"#utility.yul\":5637:5642   */\n      dup2\n        /* \"#utility.yul\":5634:5669   */\n      eq\n        /* \"#utility.yul\":5624:5626   */\n      tag_122\n      jumpi\n        /* \"#utility.yul\":5683:5684   */\n      0x00\n        /* \"#utility.yul\":5680:5681   */\n      dup1\n        /* \"#utility.yul\":5673:5685   */\n      revert\n        /* \"#utility.yul\":5624:5626   */\n    tag_122:\n        /* \"#utility.yul\":5614:5693   */\n      pop\n      jump\t// out\n\n    auxdata: 0xa2646970667358221220395383ca7fd33fe2fb8fba284720b23ec6351a124b28dac7f19d31fe4fb97d6164736f6c63430008060033\n}\n",
				"bytecode": {
					"linkReferences": {},
					"object": "608060405234801561001057600080fd5b5061058f806100206000396000f3fe608060405234801561001057600080fd5b50600436106100365760003560e01c80636d46a1db1461003b5780638ce261081461006b575b600080fd5b610055600480360381019061005091906102a5565b610087565b6040516100629190610354565b60405180910390f35b610085600480360381019061008091906102d2565b610127565b005b600060205280600052604060002060009150905080546100a69061045c565b80601f01602080910402602001604051908101604052809291908181526020018280546100d29061045c565b801561011f5780601f106100f45761010080835404028352916020019161011f565b820191906000526020600020905b81548152906001019060200180831161010257829003601f168201915b505050505081565b806000803373ffffffffffffffffffffffffffffffffffffffff1673ffffffffffffffffffffffffffffffffffffffff168152602001908152602001600020908051906020019061017992919061017d565b5050565b8280546101899061045c565b90600052602060002090601f0160209004810192826101ab57600085556101f2565b82601f106101c457805160ff19168380011785556101f2565b828001600101855582156101f2579182015b828111156101f15782518255916020019190600101906101d6565b5b5090506101ff9190610203565b5090565b5b8082111561021c576000816000905550600101610204565b5090565b600061023361022e8461039b565b610376565b90508281526020810184848401111561024f5761024e610522565b5b61025a84828561041a565b509392505050565b60008135905061027181610542565b92915050565b600082601f83011261028c5761028b61051d565b5b813561029c848260208601610220565b91505092915050565b6000602082840312156102bb576102ba61052c565b5b60006102c984828501610262565b91505092915050565b6000602082840312156102e8576102e761052c565b5b600082013567ffffffffffffffff81111561030657610305610527565b5b61031284828501610277565b91505092915050565b6000610326826103cc565b61033081856103d7565b9350610340818560208601610429565b61034981610531565b840191505092915050565b6000602082019050818103600083015261036e818461031b565b905092915050565b6000610380610391565b905061038c828261048e565b919050565b6000604051905090565b600067ffffffffffffffff8211156103b6576103b56104ee565b5b6103bf82610531565b9050602081019050919050565b600081519050919050565b600082825260208201905092915050565b60006103f3826103fa565b9050919050565b600073ffffffffffffffffffffffffffffffffffffffff82169050919050565b82818337600083830152505050565b60005b8381101561044757808201518184015260208101905061042c565b83811115610456576000848401525b50505050565b6000600282049050600182168061047457607f821691505b60208210811415610488576104876104bf565b5b50919050565b61049782610531565b810181811067ffffffffffffffff821117156104b6576104b56104ee565b5b80604052505050565b7f4e487b7100000000000000000000000000000000000000000000000000000000600052602260045260246000fd5b7f4e487b7100000000000000000000000000000000000000000000000000000000600052604160045260246000fd5b600080fd5b600080fd5b600080fd5b600080fd5b6000601f19601f8301169050919050565b61054b816103e8565b811461055657600080fd5b5056fea2646970667358221220395383ca7fd33fe2fb8fba284720b23ec6351a124b28dac7f19d31fe4fb97d6164736f6c63430008060033",
					"opcodes": "PUSH1 0x80 PUSH1 0x40 MSTORE CALLVALUE DUP1 ISZERO PUSH2 0x10 JUMPI PUSH1 0x0 DUP1 REVERT JUMPDEST POP PUSH2 0x58F DUP1 PUSH2 0x20 PUSH1 0x0 CODECOPY PUSH1 0x0 RETURN INVALID PUSH1 0x80 PUSH1 0x40 MSTORE CALLVALUE DUP1 ISZERO PUSH2 0x10 JUMPI PUSH1 0x0 DUP1 REVERT JUMPDEST POP PUSH1 0x4 CALLDATASIZE LT PUSH2 0x36 JUMPI PUSH1 0x0 CALLDATALOAD PUSH1 0xE0 SHR DUP1 PUSH4 0x6D46A1DB EQ PUSH2 0x3B JUMPI DUP1 PUSH4 0x8CE26108 EQ PUSH2 0x6B JUMPI JUMPDEST PUSH1 0x0 DUP1 REVERT JUMPDEST PUSH2 0x55 PUSH1 0x4 DUP1 CALLDATASIZE SUB DUP2 ADD SWAP1 PUSH2 0x50 SWAP2 SWAP1 PUSH2 0x2A5 JUMP JUMPDEST PUSH2 0x87 JUMP JUMPDEST PUSH1 0x40 MLOAD PUSH2 0x62 SWAP2 SWAP1 PUSH2 0x354 JUMP JUMPDEST PUSH1 0x40 MLOAD DUP1 SWAP2 SUB SWAP1 RETURN JUMPDEST PUSH2 0x85 PUSH1 0x4 DUP1 CALLDATASIZE SUB DUP2 ADD SWAP1 PUSH2 0x80 SWAP2 SWAP1 PUSH2 0x2D2 JUMP JUMPDEST PUSH2 0x127 JUMP JUMPDEST STOP JUMPDEST PUSH1 0x0 PUSH1 0x20 MSTORE DUP1 PUSH1 0x0 MSTORE PUSH1 0x40 PUSH1 0x0 KECCAK256 PUSH1 0x0 SWAP2 POP SWAP1 POP DUP1 SLOAD PUSH2 0xA6 SWAP1 PUSH2 0x45C JUMP JUMPDEST DUP1 PUSH1 0x1F ADD PUSH1 0x20 DUP1 SWAP2 DIV MUL PUSH1 0x20 ADD PUSH1 0x40 MLOAD SWAP1 DUP2 ADD PUSH1 0x40 MSTORE DUP1 SWAP3 SWAP2 SWAP1 DUP2 DUP2 MSTORE PUSH1 0x20 ADD DUP3 DUP1 SLOAD PUSH2 0xD2 SWAP1 PUSH2 0x45C JUMP JUMPDEST DUP1 ISZERO PUSH2 0x11F JUMPI DUP1 PUSH1 0x1F LT PUSH2 0xF4 JUMPI PUSH2 0x100 DUP1 DUP4 SLOAD DIV MUL DUP4 MSTORE SWAP2 PUSH1 0x20 ADD SWAP2 PUSH2 0x11F JUMP JUMPDEST DUP3 ADD SWAP2 SWAP1 PUSH1 0x0 MSTORE PUSH1 0x20 PUSH1 0x0 KECCAK256 SWAP1 JUMPDEST DUP2 SLOAD DUP2 MSTORE SWAP1 PUSH1 0x1 ADD SWAP1 PUSH1 0x20 ADD DUP1 DUP4 GT PUSH2 0x102 JUMPI DUP3 SWAP1 SUB PUSH1 0x1F AND DUP3 ADD SWAP2 JUMPDEST POP POP POP POP POP DUP2 JUMP JUMPDEST DUP1 PUSH1 0x0 DUP1 CALLER PUSH20 0xFFFFFFFFFFFFFFFFFFFFFFFFFFFFFFFFFFFFFFFF AND PUSH20 0xFFFFFFFFFFFFFFFFFFFFFFFFFFFFFFFFFFFFFFFF AND DUP2 MSTORE PUSH1 0x20 ADD SWAP1 DUP2 MSTORE PUSH1 0x20 ADD PUSH1 0x0 KECCAK256 SWAP1 DUP1 MLOAD SWAP1 PUSH1 0x20 ADD SWAP1 PUSH2 0x179 SWAP3 SWAP2 SWAP1 PUSH2 0x17D JUMP JUMPDEST POP POP JUMP JUMPDEST DUP3 DUP1 SLOAD PUSH2 0x189 SWAP1 PUSH2 0x45C JUMP JUMPDEST SWAP1 PUSH1 0x0 MSTORE PUSH1 0x20 PUSH1 0x0 KECCAK256 SWAP1 PUSH1 0x1F ADD PUSH1 0x20 SWAP1 DIV DUP2 ADD SWAP3 DUP3 PUSH2 0x1AB JUMPI PUSH1 0x0 DUP6 SSTORE PUSH2 0x1F2 JUMP JUMPDEST DUP3 PUSH1 0x1F LT PUSH2 0x1C4 JUMPI DUP1 MLOAD PUSH1 0xFF NOT AND DUP4 DUP1 ADD OR DUP6 SSTORE PUSH2 0x1F2 JUMP JUMPDEST DUP3 DUP1 ADD PUSH1 0x1 ADD DUP6 SSTORE DUP3 ISZERO PUSH2 0x1F2 JUMPI SWAP2 DUP3 ADD JUMPDEST DUP3 DUP2 GT ISZERO PUSH2 0x1F1 JUMPI DUP3 MLOAD DUP3 SSTORE SWAP2 PUSH1 0x20 ADD SWAP2 SWAP1 PUSH1 0x1 ADD SWAP1 PUSH2 0x1D6 JUMP JUMPDEST JUMPDEST POP SWAP1 POP PUSH2 0x1FF SWAP2 SWAP1 PUSH2 0x203 JUMP JUMPDEST POP SWAP1 JUMP JUMPDEST JUMPDEST DUP1 DUP3 GT ISZERO PUSH2 0x21C JUMPI PUSH1 0x0 DUP2 PUSH1 0x0 SWAP1 SSTORE POP PUSH1 0x1 ADD PUSH2 0x204 JUMP JUMPDEST POP SWAP1 JUMP JUMPDEST PUSH1 0x0 PUSH2 0x233 PUSH2 0x22E DUP5 PUSH2 0x39B JUMP JUMPDEST PUSH2 0x376 JUMP JUMPDEST SWAP1 POP DUP3 DUP2 MSTORE PUSH1 0x20 DUP2 ADD DUP5 DUP5 DUP5 ADD GT ISZERO PUSH2 0x24F JUMPI PUSH2 0x24E PUSH2 0x522 JUMP JUMPDEST JUMPDEST PUSH2 0x25A DUP5 DUP3 DUP6 PUSH2 0x41A JUMP JUMPDEST POP SWAP4 SWAP3 POP POP POP JUMP JUMPDEST PUSH1 0x0 DUP2 CALLDATALOAD SWAP1 POP PUSH2 0x271 DUP2 PUSH2 0x542 JUMP JUMPDEST SWAP3 SWAP2 POP POP JUMP JUMPDEST PUSH1 0x0 DUP3 PUSH1 0x1F DUP4 ADD SLT PUSH2 0x28C JUMPI PUSH2 0x28B PUSH2 0x51D JUMP JUMPDEST JUMPDEST DUP2 CALLDATALOAD PUSH2 0x29C DUP5 DUP3 PUSH1 0x20 DUP7 ADD PUSH2 0x220 JUMP JUMPDEST SWAP2 POP POP SWAP3 SWAP2 POP POP JUMP JUMPDEST PUSH1 0x0 PUSH1 0x20 DUP3 DUP5 SUB SLT ISZERO PUSH2 0x2BB JUMPI PUSH2 0x2BA PUSH2 0x52C JUMP JUMPDEST JUMPDEST PUSH1 0x0 PUSH2 0x2C9 DUP5 DUP3 DUP6 ADD PUSH2 0x262 JUMP JUMPDEST SWAP2 POP POP SWAP3 SWAP2 POP POP JUMP JUMPDEST PUSH1 0x0 PUSH1 0x20 DUP3 DUP5 SUB SLT ISZERO PUSH2 0x2E8 JUMPI PUSH2 0x2E7 PUSH2 0x52C JUMP JUMPDEST JUMPDEST PUSH1 0x0 DUP3 ADD CALLDATALOAD PUSH8 0xFFFFFFFFFFFFFFFF DUP2 GT ISZERO PUSH2 0x306 JUMPI PUSH2 0x305 PUSH2 0x527 JUMP JUMPDEST JUMPDEST PUSH2 0x312 DUP5 DUP3 DUP6 ADD PUSH2 0x277 JUMP JUMPDEST SWAP2 POP POP SWAP3 SWAP2 POP POP JUMP JUMPDEST PUSH1 0x0 PUSH2 0x326 DUP3 PUSH2 0x3CC JUMP JUMPDEST PUSH2 0x330 DUP2 DUP6 PUSH2 0x3D7 JUMP JUMPDEST SWAP4 POP PUSH2 0x340 DUP2 DUP6 PUSH1 0x20 DUP7 ADD PUSH2 0x429 JUMP JUMPDEST PUSH2 0x349 DUP2 PUSH2 0x531 JUMP JUMPDEST DUP5 ADD SWAP2 POP POP SWAP3 SWAP2 POP POP JUMP JUMPDEST PUSH1 0x0 PUSH1 0x20 DUP3 ADD SWAP1 POP DUP2 DUP2 SUB PUSH1 0x0 DUP4 ADD MSTORE PUSH2 0x36E DUP2 DUP5 PUSH2 0x31B JUMP JUMPDEST SWAP1 POP SWAP3 SWAP2 POP POP JUMP JUMPDEST PUSH1 0x0 PUSH2 0x380 PUSH2 0x391 JUMP JUMPDEST SWAP1 POP PUSH2 0x38C DUP3 DUP3 PUSH2 0x48E JUMP JUMPDEST SWAP2 SWAP1 POP JUMP JUMPDEST PUSH1 0x0 PUSH1 0x40 MLOAD SWAP1 POP SWAP1 JUMP JUMPDEST PUSH1 0x0 PUSH8 0xFFFFFFFFFFFFFFFF DUP3 GT ISZERO PUSH2 0x3B6 JUMPI PUSH2 0x3B5 PUSH2 0x4EE JUMP JUMPDEST JUMPDEST PUSH2 0x3BF DUP3 PUSH2 0x531 JUMP JUMPDEST SWAP1 POP PUSH1 0x20 DUP2 ADD SWAP1 POP SWAP2 SWAP1 POP JUMP JUMPDEST PUSH1 0x0 DUP2 MLOAD SWAP1 POP SWAP2 SWAP1 POP JUMP JUMPDEST PUSH1 0x0 DUP3 DUP3 MSTORE PUSH1 0x20 DUP3 ADD SWAP1 POP SWAP3 SWAP2 POP POP JUMP JUMPDEST PUSH1 0x0 PUSH2 0x3F3 DUP3 PUSH2 0x3FA JUMP JUMPDEST SWAP1 POP SWAP2 SWAP1 POP JUMP JUMPDEST PUSH1 0x0 PUSH20 0xFFFFFFFFFFFFFFFFFFFFFFFFFFFFFFFFFFFFFFFF DUP3 AND SWAP1 POP SWAP2 SWAP1 POP JUMP JUMPDEST DUP3 DUP2 DUP4 CALLDATACOPY PUSH1 0x0 DUP4 DUP4 ADD MSTORE POP POP POP JUMP JUMPDEST PUSH1 0x0 JUMPDEST DUP4 DUP2 LT ISZERO PUSH2 0x447 JUMPI DUP1 DUP3 ADD MLOAD DUP2 DUP5 ADD MSTORE PUSH1 0x20 DUP2 ADD SWAP1 POP PUSH2 0x42C JUMP JUMPDEST DUP4 DUP2 GT ISZERO PUSH2 0x456 JUMPI PUSH1 0x0 DUP5 DUP5 ADD MSTORE JUMPDEST POP POP POP POP JUMP JUMPDEST PUSH1 0x0 PUSH1 0x2 DUP3 DIV SWAP1 POP PUSH1 0x1 DUP3 AND DUP1 PUSH2 0x474 JUMPI PUSH1 0x7F DUP3 AND SWAP2 POP JUMPDEST PUSH1 0x20 DUP3 LT DUP2 EQ ISZERO PUSH2 0x488 JUMPI PUSH2 0x487 PUSH2 0x4BF JUMP JUMPDEST JUMPDEST POP SWAP2 SWAP1 POP JUMP JUMPDEST PUSH2 0x497 DUP3 PUSH2 0x531 JUMP JUMPDEST DUP2 ADD DUP2 DUP2 LT PUSH8 0xFFFFFFFFFFFFFFFF DUP3 GT OR ISZERO PUSH2 0x4B6 JUMPI PUSH2 0x4B5 PUSH2 0x4EE JUMP JUMPDEST JUMPDEST DUP1 PUSH1 0x40 MSTORE POP POP POP JUMP JUMPDEST PUSH32 0x4E487B7100000000000000000000000000000000000000000000000000000000 PUSH1 0x0 MSTORE PUSH1 0x22 PUSH1 0x4 MSTORE PUSH1 0x24 PUSH1 0x0 REVERT JUMPDEST PUSH32 0x4E487B7100000000000000000000000000000000000000000000000000000000 PUSH1 0x0 MSTORE PUSH1 0x41 PUSH1 0x4 MSTORE PUSH1 0x24 PUSH1 0x0 REVERT JUMPDEST PUSH1 0x0 DUP1 REVERT JUMPDEST PUSH1 0x0 DUP1 REVERT JUMPDEST PUSH1 0x0 DUP1 REVERT JUMPDEST PUSH1 0x0 DUP1 REVERT JUMPDEST PUSH1 0x0 PUSH1 0x1F NOT PUSH1 0x1F DUP4 ADD AND SWAP1 POP SWAP2 SWAP1 POP JUMP JUMPDEST PUSH2 0x54B DUP2 PUSH2 0x3E8 JUMP JUMPDEST DUP2 EQ PUSH2 0x556 JUMPI PUSH1 0x0 DUP1 REVERT JUMPDEST POP JUMP INVALID LOG2 PUSH5 0x6970667358 0x22 SLT KECCAK256 CODECOPY MSTORE8 DUP4 0xCA PUSH32 0xD33FE2FB8FBA284720B23EC6351A124B28DAC7F19D31FE4FB97D6164736F6C63 NUMBER STOP ADDMOD MOD STOP CALLER "
				},
				"gasEstimates": {
					"creation": {
						"codeDepositCost": "284600",
						"executionCost": "324",
						"totalCost": "284924"
					},
					"external": {
						"addToken(string)": "infinite",
						"token(address)": "infinite"
					}
				},
				"methodIdentifiers": {
					"addToken(string)": "8ce26108",
					"token(address)": "6d46a1db"
				}
			},
			"storageLayout": {
				"storage": [
					{
						"astId": 5,
						"contract": "nested-mapping.sol:Test",
						"label": "token",
						"offset": 0,
						"slot": "0",
						"type": "t_mapping(t_address,t_string_storage)"
					}
				],
				"types": {
					"t_address": {
						"encoding": "inplace",
						"label": "address",
						"numberOfBytes": "20"
					},
					"t_mapping(t_address,t_string_storage)": {
						"encoding": "mapping",
						"key": "t_address",
						"label": "mapping(address => string)",
						"numberOfBytes": "32",
						"value": "t_string_storage"
					},
					"t_string_storage": {
						"encoding": "bytes",
						"label": "string",
						"numberOfBytes": "32"
					}
				}
			},
			"userdoc": {
				"kind": "user",
				"methods": {},
				"version": 1
			}
		}
	}
}