{
	"callContactFunctionFromAnotherContract.sol": {
		"contractA": {
			"abi": [
				{
					"anonymous": false,
					"inputs": [
						{
							"indexed": false,
							"internalType": "address",
							"name": "sender",
							"type": "address"
						},
						{
							"indexed": false,
							"internalType": "address",
							"name": "origin",
							"type": "address"
						},
						{
							"indexed": false,
							"internalType": "address",
							"name": "from",
							"type": "address"
						}
					],
					"name": "callEvent",
					"type": "event"
				},
				{
					"inputs": [],
					"name": "callThis",
					"outputs": [],
					"stateMutability": "nonpayable",
					"type": "function"
				}
			],
			"devdoc": {
				"kind": "dev",
				"methods": {},
				"version": 1
			},
			"evm": {
				"assembly": "    /* \"callContactFunctionFromAnotherContract.sol\":140:394  contract contractA {... */\n  mstore(0x40, 0x80)\n  callvalue\n  dup1\n  iszero\n  tag_1\n  jumpi\n  0x00\n  dup1\n  revert\ntag_1:\n  pop\n  dataSize(sub_0)\n  dup1\n  dataOffset(sub_0)\n  0x00\n  codecopy\n  0x00\n  return\nstop\n\nsub_0: assembly {\n        /* \"callContactFunctionFromAnotherContract.sol\":140:394  contract contractA {... */\n      mstore(0x40, 0x80)\n      callvalue\n      dup1\n      iszero\n      tag_1\n      jumpi\n      0x00\n      dup1\n      revert\n    tag_1:\n      pop\n      jumpi(tag_2, lt(calldatasize, 0x04))\n      shr(0xe0, calldataload(0x00))\n      dup1\n      0x243da18c\n      eq\n      tag_3\n      jumpi\n    tag_2:\n      0x00\n      dup1\n      revert\n        /* \"callContactFunctionFromAnotherContract.sol\":234:391  function callThis() public {... */\n    tag_3:\n      tag_4\n      tag_5\n      jump\t// in\n    tag_4:\n      stop\n    tag_5:\n        /* \"callContactFunctionFromAnotherContract.sol\":277:324  callEvent(msg.sender, tx.origin, address(this)) */\n      0x40\n      dup1\n      mload\n        /* \"callContactFunctionFromAnotherContract.sol\":287:297  msg.sender */\n      caller\n        /* \"#utility.yul\":277:311   */\n      dup2\n      mstore\n        /* \"callContactFunctionFromAnotherContract.sol\":299:308  tx.origin */\n      origin\n        /* \"#utility.yul\":342:344   */\n      0x20\n        /* \"#utility.yul\":327:345   */\n      dup3\n      add\n        /* \"#utility.yul\":320:363   */\n      mstore\n        /* \"callContactFunctionFromAnotherContract.sol\":318:322  this */\n      address\n        /* \"#utility.yul\":379:397   */\n      dup2\n      dup4\n      add\n        /* \"#utility.yul\":372:415   */\n      mstore\n        /* \"callContactFunctionFromAnotherContract.sol\":277:324  callEvent(msg.sender, tx.origin, address(this)) */\n      swap1\n      mload\n      0xc90ed2a0abbce0ddd0cfd1fd303f15bf1a3860b32002dc1ed37873ea88948830\n      swap2\n      dup2\n      swap1\n      sub\n        /* \"#utility.yul\":204:206   */\n      0x60\n        /* \"callContactFunctionFromAnotherContract.sol\":277:324  callEvent(msg.sender, tx.origin, address(this)) */\n      add\n      swap1\n      log1\n        /* \"callContactFunctionFromAnotherContract.sol\":234:391  function callThis() public {... */\n      jump\t// out\n\n    auxdata: 0xa264697066735822122079f9b0184accf1399638dbc0f0045ea811e7a3d7c46e14d2581c66caa2f21aa064736f6c63430008080033\n}\n",
				"bytecode": {
					"linkReferences": {},
					"object": "6080604052348015600f57600080fd5b5060ab8061001e6000396000f3fe6080604052348015600f57600080fd5b506004361060285760003560e01c8063243da18c14602d575b600080fd5b60336035565b005b60408051338152326020820152308183015290517fc90ed2a0abbce0ddd0cfd1fd303f15bf1a3860b32002dc1ed37873ea889488309181900360600190a156fea264697066735822122079f9b0184accf1399638dbc0f0045ea811e7a3d7c46e14d2581c66caa2f21aa064736f6c63430008080033",
					"opcodes": "PUSH1 0x80 PUSH1 0x40 MSTORE CALLVALUE DUP1 ISZERO PUSH1 0xF JUMPI PUSH1 0x0 DUP1 REVERT JUMPDEST POP PUSH1 0xAB DUP1 PUSH2 0x1E PUSH1 0x0 CODECOPY PUSH1 0x0 RETURN INVALID PUSH1 0x80 PUSH1 0x40 MSTORE CALLVALUE DUP1 ISZERO PUSH1 0xF JUMPI PUSH1 0x0 DUP1 REVERT JUMPDEST POP PUSH1 0x4 CALLDATASIZE LT PUSH1 0x28 JUMPI PUSH1 0x0 CALLDATALOAD PUSH1 0xE0 SHR DUP1 PUSH4 0x243DA18C EQ PUSH1 0x2D JUMPI JUMPDEST PUSH1 0x0 DUP1 REVERT JUMPDEST PUSH1 0x33 PUSH1 0x35 JUMP JUMPDEST STOP JUMPDEST PUSH1 0x40 DUP1 MLOAD CALLER DUP2 MSTORE ORIGIN PUSH1 0x20 DUP3 ADD MSTORE ADDRESS DUP2 DUP4 ADD MSTORE SWAP1 MLOAD PUSH32 0xC90ED2A0ABBCE0DDD0CFD1FD303F15BF1A3860B32002DC1ED37873EA88948830 SWAP2 DUP2 SWAP1 SUB PUSH1 0x60 ADD SWAP1 LOG1 JUMP INVALID LOG2 PUSH5 0x6970667358 0x22 SLT KECCAK256 PUSH26 0xF9B0184ACCF1399638DBC0F0045EA811E7A3D7C46E14D2581C66 0xCA LOG2 CALLCODE BYTE LOG0 PUSH5 0x736F6C6343 STOP ADDMOD ADDMOD STOP CALLER "
				},
				"gasEstimates": {
					"creation": {
						"codeDepositCost": "34200",
						"executionCost": "87",
						"totalCost": "34287"
					},
					"external": {
						"callThis()": "1727"
					}
				},
				"methodIdentifiers": {
					"callThis()": "243da18c"
				}
			},
			"storageLayout": {
				"storage": [],
				"types": null
			},
			"userdoc": {
				"kind": "user",
				"methods": {},
				"version": 1
			}
		}
	}
}