{
	"array_explained.sol": {
		"ArrayDemo": {
			"abi": [
				{
					"inputs": [
						{
							"internalType": "uint256",
							"name": "",
							"type": "uint256"
						}
					],
					"name": "arr",
					"outputs": [
						{
							"internalType": "uint256",
							"name": "",
							"type": "uint256"
						}
					],
					"stateMutability": "view",
					"type": "function"
				},
				{
					"inputs": [
						{
							"internalType": "uint256",
							"name": "",
							"type": "uint256"
						}
					],
					"name": "arr2",
					"outputs": [
						{
							"internalType": "uint256",
							"name": "",
							"type": "uint256"
						}
					],
					"stateMutability": "view",
					"type": "function"
				},
				{
					"inputs": [
						{
							"internalType": "uint256",
							"name": "_index",
							"type": "uint256"
						}
					],
					"name": "deleteSpecificElement",
					"outputs": [],
					"stateMutability": "nonpayable",
					"type": "function"
				},
				{
					"inputs": [],
					"name": "getArr",
					"outputs": [
						{
							"internalType": "uint256[]",
							"name": "",
							"type": "uint256[]"
						}
					],
					"stateMutability": "view",
					"type": "function"
				},
				{
					"inputs": [],
					"name": "getArr2",
					"outputs": [
						{
							"internalType": "uint256[]",
							"name": "",
							"type": "uint256[]"
						}
					],
					"stateMutability": "view",
					"type": "function"
				},
				{
					"inputs": [],
					"name": "getLength",
					"outputs": [
						{
							"internalType": "uint256",
							"name": "",
							"type": "uint256"
						}
					],
					"stateMutability": "view",
					"type": "function"
				},
				{
					"inputs": [
						{
							"internalType": "uint256",
							"name": "i",
							"type": "uint256"
						}
					],
					"name": "gettingSpecificArrayElement",
					"outputs": [
						{
							"internalType": "uint256",
							"name": "",
							"type": "uint256"
						}
					],
					"stateMutability": "view",
					"type": "function"
				},
				{
					"inputs": [
						{
							"internalType": "uint256",
							"name": "",
							"type": "uint256"
						}
					],
					"name": "myFiedArray",
					"outputs": [
						{
							"internalType": "uint256",
							"name": "",
							"type": "uint256"
						}
					],
					"stateMutability": "view",
					"type": "function"
				},
				{
					"inputs": [],
					"name": "popElement",
					"outputs": [],
					"stateMutability": "nonpayable",
					"type": "function"
				},
				{
					"inputs": [
						{
							"internalType": "uint256",
							"name": "_i",
							"type": "uint256"
						}
					],
					"name": "pushElement",
					"outputs": [],
					"stateMutability": "nonpayable",
					"type": "function"
				}
			],
			"devdoc": {
				"kind": "dev",
				"methods": {},
				"version": 1
			},
			"evm": {
				"assembly": "    /* \"array_explained.sol\":160:191  uint[] public arr = [1,2,3,4,5] */\n  0x0120\n    /* \"array_explained.sol\":60:1320  contract ArrayDemo {... */\n  0x40\n    /* \"array_explained.sol\":160:191  uint[] public arr = [1,2,3,4,5] */\n  mstore\n    /* \"array_explained.sol\":181:182  1 */\n  0x01\n    /* \"array_explained.sol\":60:1320  contract ArrayDemo {... */\n  0x80\n    /* \"array_explained.sol\":160:191  uint[] public arr = [1,2,3,4,5] */\n  dup2\n  dup2\n  mstore\n    /* \"array_explained.sol\":183:184  2 */\n  0x02\n    /* \"array_explained.sol\":160:191  uint[] public arr = [1,2,3,4,5] */\n  0xa0\n  mstore\n    /* \"array_explained.sol\":185:186  3 */\n  0x03\n    /* \"array_explained.sol\":160:191  uint[] public arr = [1,2,3,4,5] */\n  0xc0\n  mstore\n    /* \"array_explained.sol\":187:188  4 */\n  0x04\n    /* \"array_explained.sol\":160:191  uint[] public arr = [1,2,3,4,5] */\n  0xe0\n  mstore\n    /* \"array_explained.sol\":189:190  5 */\n  0x05\n    /* \"array_explained.sol\":160:191  uint[] public arr = [1,2,3,4,5] */\n  0x0100\n  dup2\n  swap1\n  mstore\n  tag_1\n  swap3\n    /* \"array_explained.sol\":181:182  1 */\n  swap2\n    /* \"array_explained.sol\":60:1320  contract ArrayDemo {... */\n  swap1\n    /* \"array_explained.sol\":160:191  uint[] public arr = [1,2,3,4,5] */\n  tag_2\n  jump\t// in\ntag_1:\n  pop\n    /* \"array_explained.sol\":60:1320  contract ArrayDemo {... */\n  callvalue\n  dup1\n  iszero\n  tag_3\n  jumpi\n  0x00\n  dup1\n  revert\ntag_3:\n  pop\n  jump(tag_4)\ntag_2:\n  dup3\n  dup1\n  sload\n  dup3\n  dup3\n  sstore\n  swap1\n  0x00\n  mstore\n  keccak256(0x00, 0x20)\n  swap1\n  dup2\n  add\n  swap3\n  dup3\n  iszero\n  tag_7\n  jumpi\n  swap2\n  0x20\n  mul\n  dup3\n  add\ntag_6:\n  dup3\n  dup2\n  gt\n  iszero\n  tag_7\n  jumpi\n  dup3\n  mload\n  dup3\n  swap1\n  0xff\n  and\n  swap1\n  sstore\n  swap2\n  0x20\n  add\n  swap2\n  swap1\n  0x01\n  add\n  swap1\n  jump(tag_6)\ntag_7:\n  pop\n  tag_8\n  swap3\n  swap2\n  pop\n  tag_9\n  jump\t// in\ntag_8:\n  pop\n  swap1\n  jump\t// out\ntag_9:\ntag_10:\n  dup1\n  dup3\n  gt\n  iszero\n  tag_8\n  jumpi\n  0x00\n  dup2\n  sstore\n  0x01\n  add\n  jump(tag_10)\ntag_4:\n  dataSize(sub_0)\n  dup1\n  dataOffset(sub_0)\n  0x00\n  codecopy\n  0x00\n  return\nstop\n\nsub_0: assembly {\n        /* \"array_explained.sol\":60:1320  contract ArrayDemo {... */\n      mstore(0x40, 0x80)\n      callvalue\n      dup1\n      iszero\n      tag_1\n      jumpi\n      0x00\n      dup1\n      revert\n    tag_1:\n      pop\n      jumpi(tag_2, lt(calldatasize, 0x04))\n      shr(0xe0, calldataload(0x00))\n      dup1\n      0xbe1c766b\n      gt\n      tag_13\n      jumpi\n      dup1\n      0xbe1c766b\n      eq\n      tag_8\n      jumpi\n      dup1\n      0xc60d4528\n      eq\n      tag_9\n      jumpi\n      dup1\n      0xcdc26532\n      eq\n      tag_10\n      jumpi\n      dup1\n      0xedf0099b\n      eq\n      tag_11\n      jumpi\n      dup1\n      0xfb8cbced\n      eq\n      tag_12\n      jumpi\n      0x00\n      dup1\n      revert\n    tag_13:\n      dup1\n      0x71e5ee5f\n      eq\n      tag_3\n      jumpi\n      dup1\n      0x733cf5db\n      eq\n      tag_4\n      jumpi\n      dup1\n      0x78321efb\n      eq\n      tag_5\n      jumpi\n      dup1\n      0x9a30c48f\n      eq\n      tag_6\n      jumpi\n      dup1\n      0x9a6fcbdd\n      eq\n      tag_7\n      jumpi\n    tag_2:\n      0x00\n      dup1\n      revert\n        /* \"array_explained.sol\":160:191  uint[] public arr = [1,2,3,4,5] */\n    tag_3:\n      tag_14\n      tag_15\n      calldatasize\n      0x04\n      tag_16\n      jump\t// in\n    tag_15:\n      tag_17\n      jump\t// in\n    tag_14:\n      mload(0x40)\n        /* \"#utility.yul\":345:370   */\n      swap1\n      dup2\n      mstore\n        /* \"#utility.yul\":333:335   */\n      0x20\n        /* \"#utility.yul\":318:336   */\n      add\n        /* \"array_explained.sol\":160:191  uint[] public arr = [1,2,3,4,5] */\n    tag_18:\n      mload(0x40)\n      dup1\n      swap2\n      sub\n      swap1\n      return\n        /* \"array_explained.sol\":336:439  function gettingSpecificArrayElement(uint i) public view returns(uint) {... */\n    tag_4:\n      tag_14\n      tag_21\n      calldatasize\n      0x04\n      tag_16\n      jump\t// in\n    tag_21:\n      tag_22\n      jump\t// in\n        /* \"array_explained.sol\":724:793  function pushElement(uint _i) public {... */\n    tag_5:\n      tag_24\n      tag_25\n      calldatasize\n      0x04\n      tag_16\n      jump\t// in\n    tag_25:\n        /* \"array_explained.sol\":772:776  arr2 */\n      0x00\n        /* \"array_explained.sol\":772:785  arr2.push(_i) */\n      dup1\n      sload\n      0x01\n      dup2\n      add\n      dup3\n      sstore\n      swap1\n      dup1\n      mstore\n      0x290decd9548b62a8d60345a988386fc84ba6bc95484008f6362f93160ef3e563\n      add\n      sstore\n        /* \"array_explained.sol\":724:793  function pushElement(uint _i) public {... */\n      jump\n    tag_24:\n      stop\n        /* \"array_explained.sol\":1093:1299  function deleteSpecificElement(uint _index) public {... */\n    tag_6:\n      tag_24\n      tag_28\n      calldatasize\n      0x04\n      tag_16\n      jump\t// in\n    tag_28:\n      tag_29\n      jump\t// in\n        /* \"array_explained.sol\":848:906  function popElement() public {... */\n    tag_7:\n      tag_24\n      tag_31\n      jump\t// in\n        /* \"array_explained.sol\":603:686  function getLength() public view returns(uint) {... */\n    tag_8:\n        /* \"array_explained.sol\":668:671  arr */\n      0x01\n        /* \"array_explained.sol\":668:678  arr.length */\n      sload\n        /* \"array_explained.sol\":603:686  function getLength() public view returns(uint) {... */\n      jump(tag_14)\n        /* \"array_explained.sol\":954:1038  function getArr2() public view returns(uint[] memory) {... */\n    tag_9:\n      tag_35\n      tag_36\n      jump\t// in\n    tag_35:\n      mload(0x40)\n      tag_18\n      swap2\n      swap1\n      tag_38\n      jump\t// in\n        /* \"array_explained.sol\":256:283  uint[10] public myFiedArray */\n    tag_10:\n      tag_14\n      tag_40\n      calldatasize\n      0x04\n      tag_16\n      jump\t// in\n    tag_40:\n      tag_41\n      jump\t// in\n        /* \"array_explained.sol\":135:153  uint[] public arr2 */\n    tag_11:\n      tag_14\n      tag_44\n      calldatasize\n      0x04\n      tag_16\n      jump\t// in\n    tag_44:\n      tag_45\n      jump\t// in\n        /* \"array_explained.sol\":481:563  function getArr() public view returns(uint[] memory) {... */\n    tag_12:\n      tag_35\n      tag_48\n      jump\t// in\n        /* \"array_explained.sol\":160:191  uint[] public arr = [1,2,3,4,5] */\n    tag_17:\n      0x01\n      dup2\n      dup2\n      sload\n      dup2\n      lt\n      tag_50\n      jumpi\n      0x00\n      dup1\n      revert\n    tag_50:\n      0x00\n      swap2\n      dup3\n      mstore\n      0x20\n      swap1\n      swap2\n      keccak256\n      add\n      sload\n      swap1\n      pop\n      dup2\n      jump\t// out\n        /* \"array_explained.sol\":336:439  function gettingSpecificArrayElement(uint i) public view returns(uint) {... */\n    tag_22:\n        /* \"array_explained.sol\":401:405  uint */\n      0x00\n        /* \"array_explained.sol\":425:428  arr */\n      0x01\n        /* \"array_explained.sol\":429:430  i */\n      dup3\n        /* \"array_explained.sol\":425:431  arr[i] */\n      dup2\n      sload\n      dup2\n      lt\n      tag_54\n      jumpi\n      tag_54\n      tag_55\n      jump\t// in\n    tag_54:\n      swap1\n      0x00\n      mstore\n      keccak256(0x00, 0x20)\n      add\n      sload\n        /* \"array_explained.sol\":418:431  return arr[i] */\n      swap1\n      pop\n        /* \"array_explained.sol\":336:439  function gettingSpecificArrayElement(uint i) public view returns(uint) {... */\n      swap2\n      swap1\n      pop\n      jump\t// out\n        /* \"array_explained.sol\":1093:1299  function deleteSpecificElement(uint _index) public {... */\n    tag_29:\n        /* \"array_explained.sol\":1162:1166  arr2 */\n      0x00\n        /* \"array_explained.sol\":1167:1173  _index */\n      dup2\n        /* \"array_explained.sol\":1162:1174  arr2[_index] */\n      dup2\n      sload\n      dup2\n      lt\n      tag_61\n      jumpi\n      tag_61\n      tag_55\n      jump\t// in\n    tag_61:\n      0x00\n      swap2\n      dup3\n      mstore\n      0x20\n      dup3\n      keccak256\n      add\n        /* \"array_explained.sol\":1155:1174  delete arr2[_index] */\n      sstore\n      pop\n        /* \"array_explained.sol\":1093:1299  function deleteSpecificElement(uint _index) public {... */\n      jump\t// out\n        /* \"array_explained.sol\":848:906  function popElement() public {... */\n    tag_31:\n        /* \"array_explained.sol\":888:892  arr2 */\n      0x00\n        /* \"array_explained.sol\":888:898  arr2.pop() */\n      dup1\n      sload\n      dup1\n      tag_65\n      jumpi\n      tag_65\n      tag_66\n      jump\t// in\n    tag_65:\n      0x01\n      swap1\n      sub\n      dup2\n      dup2\n      swap1\n      0x00\n      mstore\n      keccak256(0x00, 0x20)\n      add\n      0x00\n      swap1\n      sstore\n      swap1\n      sstore\n        /* \"array_explained.sol\":848:906  function popElement() public {... */\n      jump\t// out\n        /* \"array_explained.sol\":954:1038  function getArr2() public view returns(uint[] memory) {... */\n    tag_36:\n        /* \"array_explained.sol\":993:1006  uint[] memory */\n      0x60\n        /* \"array_explained.sol\":1026:1030  arr2 */\n      0x00\n        /* \"array_explained.sol\":1019:1030  return arr2 */\n      dup1\n      sload\n      dup1\n      0x20\n      mul\n      0x20\n      add\n      mload(0x40)\n      swap1\n      dup2\n      add\n      0x40\n      mstore\n      dup1\n      swap3\n      swap2\n      swap1\n      dup2\n      dup2\n      mstore\n      0x20\n      add\n      dup3\n      dup1\n      sload\n      dup1\n      iszero\n      tag_70\n      jumpi\n      0x20\n      mul\n      dup3\n      add\n      swap2\n      swap1\n      0x00\n      mstore\n      keccak256(0x00, 0x20)\n      swap1\n    tag_71:\n      dup2\n      sload\n      dup2\n      mstore\n      0x20\n      add\n      swap1\n      0x01\n      add\n      swap1\n      dup1\n      dup4\n      gt\n      tag_71\n      jumpi\n    tag_70:\n      pop\n      pop\n      pop\n      pop\n      pop\n      swap1\n      pop\n        /* \"array_explained.sol\":954:1038  function getArr2() public view returns(uint[] memory) {... */\n      swap1\n      jump\t// out\n        /* \"array_explained.sol\":256:283  uint[10] public myFiedArray */\n    tag_41:\n      0x02\n      dup2\n      0x0a\n      dup2\n      lt\n      tag_72\n      jumpi\n      0x00\n      dup1\n      revert\n    tag_72:\n      add\n      sload\n      swap1\n      pop\n      dup2\n      jump\t// out\n        /* \"array_explained.sol\":135:153  uint[] public arr2 */\n    tag_45:\n      0x00\n      dup2\n      dup2\n      sload\n      dup2\n      lt\n      tag_50\n      jumpi\n      0x00\n      dup1\n      revert\n        /* \"array_explained.sol\":481:563  function getArr() public view returns(uint[] memory) {... */\n    tag_48:\n        /* \"array_explained.sol\":519:532  uint[] memory */\n      0x60\n        /* \"array_explained.sol\":552:555  arr */\n      0x01\n        /* \"array_explained.sol\":545:555  return arr */\n      dup1\n      sload\n      dup1\n      0x20\n      mul\n      0x20\n      add\n      mload(0x40)\n      swap1\n      dup2\n      add\n      0x40\n      mstore\n      dup1\n      swap3\n      swap2\n      swap1\n      dup2\n      dup2\n      mstore\n      0x20\n      add\n      dup3\n      dup1\n      sload\n      dup1\n      iszero\n      tag_70\n      jumpi\n      0x20\n      mul\n      dup3\n      add\n      swap2\n      swap1\n      0x00\n      mstore\n      keccak256(0x00, 0x20)\n      swap1\n      dup2\n      sload\n      dup2\n      mstore\n      0x20\n      add\n      swap1\n      0x01\n      add\n      swap1\n      dup1\n      dup4\n      gt\n      tag_71\n      jumpi\n      pop\n      pop\n      pop\n      pop\n      pop\n      swap1\n      pop\n        /* \"array_explained.sol\":481:563  function getArr() public view returns(uint[] memory) {... */\n      swap1\n      jump\t// out\n        /* \"#utility.yul\":14:194   */\n    tag_16:\n        /* \"#utility.yul\":73:79   */\n      0x00\n        /* \"#utility.yul\":126:128   */\n      0x20\n        /* \"#utility.yul\":114:123   */\n      dup3\n        /* \"#utility.yul\":105:112   */\n      dup5\n        /* \"#utility.yul\":101:124   */\n      sub\n        /* \"#utility.yul\":97:129   */\n      slt\n        /* \"#utility.yul\":94:146   */\n      iszero\n      tag_81\n      jumpi\n        /* \"#utility.yul\":142:143   */\n      0x00\n        /* \"#utility.yul\":139:140   */\n      dup1\n        /* \"#utility.yul\":132:144   */\n      revert\n        /* \"#utility.yul\":94:146   */\n    tag_81:\n      pop\n        /* \"#utility.yul\":165:188   */\n      calldataload\n      swap2\n        /* \"#utility.yul\":14:194   */\n      swap1\n      pop\n      jump\t// out\n        /* \"#utility.yul\":381:1013   */\n    tag_38:\n        /* \"#utility.yul\":552:554   */\n      0x20\n        /* \"#utility.yul\":604:625   */\n      dup1\n      dup3\n      mstore\n        /* \"#utility.yul\":674:687   */\n      dup3\n      mload\n        /* \"#utility.yul\":577:595   */\n      dup3\n      dup3\n      add\n        /* \"#utility.yul\":696:718   */\n      dup2\n      swap1\n      mstore\n        /* \"#utility.yul\":523:527   */\n      0x00\n      swap2\n        /* \"#utility.yul\":552:554   */\n      swap1\n        /* \"#utility.yul\":775:790   */\n      dup5\n      dup3\n      add\n      swap1\n        /* \"#utility.yul\":749:751   */\n      0x40\n        /* \"#utility.yul\":734:752   */\n      dup6\n      add\n      swap1\n        /* \"#utility.yul\":523:527   */\n      dup5\n        /* \"#utility.yul\":818:987   */\n    tag_84:\n        /* \"#utility.yul\":832:838   */\n      dup2\n        /* \"#utility.yul\":829:830   */\n      dup2\n        /* \"#utility.yul\":826:839   */\n      lt\n        /* \"#utility.yul\":818:987   */\n      iszero\n      tag_86\n      jumpi\n        /* \"#utility.yul\":893:906   */\n      dup4\n      mload\n        /* \"#utility.yul\":881:907   */\n      dup4\n      mstore\n        /* \"#utility.yul\":962:977   */\n      swap3\n      dup5\n      add\n      swap3\n        /* \"#utility.yul\":927:939   */\n      swap2\n      dup5\n      add\n      swap2\n        /* \"#utility.yul\":854:855   */\n      0x01\n        /* \"#utility.yul\":847:856   */\n      add\n        /* \"#utility.yul\":818:987   */\n      jump(tag_84)\n    tag_86:\n      pop\n        /* \"#utility.yul\":1004:1007   */\n      swap1\n      swap7\n        /* \"#utility.yul\":381:1013   */\n      swap6\n      pop\n      pop\n      pop\n      pop\n      pop\n      pop\n      jump\t// out\n        /* \"#utility.yul\":1018:1145   */\n    tag_55:\n        /* \"#utility.yul\":1079:1089   */\n      0x4e487b71\n        /* \"#utility.yul\":1074:1077   */\n      0xe0\n        /* \"#utility.yul\":1070:1090   */\n      shl\n        /* \"#utility.yul\":1067:1068   */\n      0x00\n        /* \"#utility.yul\":1060:1091   */\n      mstore\n        /* \"#utility.yul\":1110:1114   */\n      0x32\n        /* \"#utility.yul\":1107:1108   */\n      0x04\n        /* \"#utility.yul\":1100:1115   */\n      mstore\n        /* \"#utility.yul\":1134:1138   */\n      0x24\n        /* \"#utility.yul\":1131:1132   */\n      0x00\n        /* \"#utility.yul\":1124:1139   */\n      revert\n        /* \"#utility.yul\":1150:1277   */\n    tag_66:\n        /* \"#utility.yul\":1211:1221   */\n      0x4e487b71\n        /* \"#utility.yul\":1206:1209   */\n      0xe0\n        /* \"#utility.yul\":1202:1222   */\n      shl\n        /* \"#utility.yul\":1199:1200   */\n      0x00\n        /* \"#utility.yul\":1192:1223   */\n      mstore\n        /* \"#utility.yul\":1242:1246   */\n      0x31\n        /* \"#utility.yul\":1239:1240   */\n      0x04\n        /* \"#utility.yul\":1232:1247   */\n      mstore\n        /* \"#utility.yul\":1266:1270   */\n      0x24\n        /* \"#utility.yul\":1263:1264   */\n      0x00\n        /* \"#utility.yul\":1256:1271   */\n      revert\n\n    auxdata: 0xa26469706673582212203ff675476682b3970e0dfc9603594b5672ae396216217b181de2de90dd2ab2ef64736f6c63430008080033\n}\n",
				"bytecode": {
					"linkReferences": {},
					"object": "61012060405260016080818152600260a052600360c052600460e052600561010081905261002e929190610041565b5034801561003b57600080fd5b506100a6565b828054828255906000526020600020908101928215610081579160200282015b82811115610081578251829060ff16905591602001919060010190610061565b5061008d929150610091565b5090565b5b8082111561008d5760008155600101610092565b6103aa806100b56000396000f3fe608060405234801561001057600080fd5b506004361061009e5760003560e01c8063be1c766b11610066578063be1c766b14610139578063c60d452814610141578063cdc2653214610156578063edf0099b14610169578063fb8cbced1461017c57600080fd5b806371e5ee5f146100a3578063733cf5db146100c957806378321efb146100dc5780639a30c48f1461011e5780639a6fcbdd14610131575b600080fd5b6100b66100b13660046102eb565b610184565b6040519081526020015b60405180910390f35b6100b66100d73660046102eb565b6101a5565b61011c6100ea3660046102eb565b600080546001810182559080527f290decd9548b62a8d60345a988386fc84ba6bc95484008f6362f93160ef3e5630155565b005b61011c61012c3660046102eb565b6101cc565b61011c6101ed565b6001546100b6565b610149610216565b6040516100c09190610304565b6100b66101643660046102eb565b61026e565b6100b66101773660046102eb565b610285565b610149610295565b6001818154811061019457600080fd5b600091825260209091200154905081565b6000600182815481106101ba576101ba610348565b90600052602060002001549050919050565b600081815481106101df576101df610348565b600091825260208220015550565b60008054806101fe576101fe61035e565b60019003818190600052602060002001600090559055565b6060600080548060200260200160405190810160405280929190818152602001828054801561026457602002820191906000526020600020905b815481526020019060010190808311610250575b5050505050905090565b600281600a811061027e57600080fd5b0154905081565b6000818154811061019457600080fd5b606060018054806020026020016040519081016040528092919081815260200182805480156102645760200282019190600052602060002090815481526020019060010190808311610250575050505050905090565b6000602082840312156102fd57600080fd5b5035919050565b6020808252825182820181905260009190848201906040850190845b8181101561033c57835183529284019291840191600101610320565b50909695505050505050565b634e487b7160e01b600052603260045260246000fd5b634e487b7160e01b600052603160045260246000fdfea26469706673582212203ff675476682b3970e0dfc9603594b5672ae396216217b181de2de90dd2ab2ef64736f6c63430008080033",
					"opcodes": "PUSH2 0x120 PUSH1 0x40 MSTORE PUSH1 0x1 PUSH1 0x80 DUP2 DUP2 MSTORE PUSH1 0x2 PUSH1 0xA0 MSTORE PUSH1 0x3 PUSH1 0xC0 MSTORE PUSH1 0x4 PUSH1 0xE0 MSTORE PUSH1 0x5 PUSH2 0x100 DUP2 SWAP1 MSTORE PUSH2 0x2E SWAP3 SWAP2 SWAP1 PUSH2 0x41 JUMP JUMPDEST POP CALLVALUE DUP1 ISZERO PUSH2 0x3B JUMPI PUSH1 0x0 DUP1 REVERT JUMPDEST POP PUSH2 0xA6 JUMP JUMPDEST DUP3 DUP1 SLOAD DUP3 DUP3 SSTORE SWAP1 PUSH1 0x0 MSTORE PUSH1 0x20 PUSH1 0x0 KECCAK256 SWAP1 DUP2 ADD SWAP3 DUP3 ISZERO PUSH2 0x81 JUMPI SWAP2 PUSH1 0x20 MUL DUP3 ADD JUMPDEST DUP3 DUP2 GT ISZERO PUSH2 0x81 JUMPI DUP3 MLOAD DUP3 SWAP1 PUSH1 0xFF AND SWAP1 SSTORE SWAP2 PUSH1 0x20 ADD SWAP2 SWAP1 PUSH1 0x1 ADD SWAP1 PUSH2 0x61 JUMP JUMPDEST POP PUSH2 0x8D SWAP3 SWAP2 POP PUSH2 0x91 JUMP JUMPDEST POP SWAP1 JUMP JUMPDEST JUMPDEST DUP1 DUP3 GT ISZERO PUSH2 0x8D JUMPI PUSH1 0x0 DUP2 SSTORE PUSH1 0x1 ADD PUSH2 0x92 JUMP JUMPDEST PUSH2 0x3AA DUP1 PUSH2 0xB5 PUSH1 0x0 CODECOPY PUSH1 0x0 RETURN INVALID PUSH1 0x80 PUSH1 0x40 MSTORE CALLVALUE DUP1 ISZERO PUSH2 0x10 JUMPI PUSH1 0x0 DUP1 REVERT JUMPDEST POP PUSH1 0x4 CALLDATASIZE LT PUSH2 0x9E JUMPI PUSH1 0x0 CALLDATALOAD PUSH1 0xE0 SHR DUP1 PUSH4 0xBE1C766B GT PUSH2 0x66 JUMPI DUP1 PUSH4 0xBE1C766B EQ PUSH2 0x139 JUMPI DUP1 PUSH4 0xC60D4528 EQ PUSH2 0x141 JUMPI DUP1 PUSH4 0xCDC26532 EQ PUSH2 0x156 JUMPI DUP1 PUSH4 0xEDF0099B EQ PUSH2 0x169 JUMPI DUP1 PUSH4 0xFB8CBCED EQ PUSH2 0x17C JUMPI PUSH1 0x0 DUP1 REVERT JUMPDEST DUP1 PUSH4 0x71E5EE5F EQ PUSH2 0xA3 JUMPI DUP1 PUSH4 0x733CF5DB EQ PUSH2 0xC9 JUMPI DUP1 PUSH4 0x78321EFB EQ PUSH2 0xDC JUMPI DUP1 PUSH4 0x9A30C48F EQ PUSH2 0x11E JUMPI DUP1 PUSH4 0x9A6FCBDD EQ PUSH2 0x131 JUMPI JUMPDEST PUSH1 0x0 DUP1 REVERT JUMPDEST PUSH2 0xB6 PUSH2 0xB1 CALLDATASIZE PUSH1 0x4 PUSH2 0x2EB JUMP JUMPDEST PUSH2 0x184 JUMP JUMPDEST PUSH1 0x40 MLOAD SWAP1 DUP2 MSTORE PUSH1 0x20 ADD JUMPDEST PUSH1 0x40 MLOAD DUP1 SWAP2 SUB SWAP1 RETURN JUMPDEST PUSH2 0xB6 PUSH2 0xD7 CALLDATASIZE PUSH1 0x4 PUSH2 0x2EB JUMP JUMPDEST PUSH2 0x1A5 JUMP JUMPDEST PUSH2 0x11C PUSH2 0xEA CALLDATASIZE PUSH1 0x4 PUSH2 0x2EB JUMP JUMPDEST PUSH1 0x0 DUP1 SLOAD PUSH1 0x1 DUP2 ADD DUP3 SSTORE SWAP1 DUP1 MSTORE PUSH32 0x290DECD9548B62A8D60345A988386FC84BA6BC95484008F6362F93160EF3E563 ADD SSTORE JUMP JUMPDEST STOP JUMPDEST PUSH2 0x11C PUSH2 0x12C CALLDATASIZE PUSH1 0x4 PUSH2 0x2EB JUMP JUMPDEST PUSH2 0x1CC JUMP JUMPDEST PUSH2 0x11C PUSH2 0x1ED JUMP JUMPDEST PUSH1 0x1 SLOAD PUSH2 0xB6 JUMP JUMPDEST PUSH2 0x149 PUSH2 0x216 JUMP JUMPDEST PUSH1 0x40 MLOAD PUSH2 0xC0 SWAP2 SWAP1 PUSH2 0x304 JUMP JUMPDEST PUSH2 0xB6 PUSH2 0x164 CALLDATASIZE PUSH1 0x4 PUSH2 0x2EB JUMP JUMPDEST PUSH2 0x26E JUMP JUMPDEST PUSH2 0xB6 PUSH2 0x177 CALLDATASIZE PUSH1 0x4 PUSH2 0x2EB JUMP JUMPDEST PUSH2 0x285 JUMP JUMPDEST PUSH2 0x149 PUSH2 0x295 JUMP JUMPDEST PUSH1 0x1 DUP2 DUP2 SLOAD DUP2 LT PUSH2 0x194 JUMPI PUSH1 0x0 DUP1 REVERT JUMPDEST PUSH1 0x0 SWAP2 DUP3 MSTORE PUSH1 0x20 SWAP1 SWAP2 KECCAK256 ADD SLOAD SWAP1 POP DUP2 JUMP JUMPDEST PUSH1 0x0 PUSH1 0x1 DUP3 DUP2 SLOAD DUP2 LT PUSH2 0x1BA JUMPI PUSH2 0x1BA PUSH2 0x348 JUMP JUMPDEST SWAP1 PUSH1 0x0 MSTORE PUSH1 0x20 PUSH1 0x0 KECCAK256 ADD SLOAD SWAP1 POP SWAP2 SWAP1 POP JUMP JUMPDEST PUSH1 0x0 DUP2 DUP2 SLOAD DUP2 LT PUSH2 0x1DF JUMPI PUSH2 0x1DF PUSH2 0x348 JUMP JUMPDEST PUSH1 0x0 SWAP2 DUP3 MSTORE PUSH1 0x20 DUP3 KECCAK256 ADD SSTORE POP JUMP JUMPDEST PUSH1 0x0 DUP1 SLOAD DUP1 PUSH2 0x1FE JUMPI PUSH2 0x1FE PUSH2 0x35E JUMP JUMPDEST PUSH1 0x1 SWAP1 SUB DUP2 DUP2 SWAP1 PUSH1 0x0 MSTORE PUSH1 0x20 PUSH1 0x0 KECCAK256 ADD PUSH1 0x0 SWAP1 SSTORE SWAP1 SSTORE JUMP JUMPDEST PUSH1 0x60 PUSH1 0x0 DUP1 SLOAD DUP1 PUSH1 0x20 MUL PUSH1 0x20 ADD PUSH1 0x40 MLOAD SWAP1 DUP2 ADD PUSH1 0x40 MSTORE DUP1 SWAP3 SWAP2 SWAP1 DUP2 DUP2 MSTORE PUSH1 0x20 ADD DUP3 DUP1 SLOAD DUP1 ISZERO PUSH2 0x264 JUMPI PUSH1 0x20 MUL DUP3 ADD SWAP2 SWAP1 PUSH1 0x0 MSTORE PUSH1 0x20 PUSH1 0x0 KECCAK256 SWAP1 JUMPDEST DUP2 SLOAD DUP2 MSTORE PUSH1 0x20 ADD SWAP1 PUSH1 0x1 ADD SWAP1 DUP1 DUP4 GT PUSH2 0x250 JUMPI JUMPDEST POP POP POP POP POP SWAP1 POP SWAP1 JUMP JUMPDEST PUSH1 0x2 DUP2 PUSH1 0xA DUP2 LT PUSH2 0x27E JUMPI PUSH1 0x0 DUP1 REVERT JUMPDEST ADD SLOAD SWAP1 POP DUP2 JUMP JUMPDEST PUSH1 0x0 DUP2 DUP2 SLOAD DUP2 LT PUSH2 0x194 JUMPI PUSH1 0x0 DUP1 REVERT JUMPDEST PUSH1 0x60 PUSH1 0x1 DUP1 SLOAD DUP1 PUSH1 0x20 MUL PUSH1 0x20 ADD PUSH1 0x40 MLOAD SWAP1 DUP2 ADD PUSH1 0x40 MSTORE DUP1 SWAP3 SWAP2 SWAP1 DUP2 DUP2 MSTORE PUSH1 0x20 ADD DUP3 DUP1 SLOAD DUP1 ISZERO PUSH2 0x264 JUMPI PUSH1 0x20 MUL DUP3 ADD SWAP2 SWAP1 PUSH1 0x0 MSTORE PUSH1 0x20 PUSH1 0x0 KECCAK256 SWAP1 DUP2 SLOAD DUP2 MSTORE PUSH1 0x20 ADD SWAP1 PUSH1 0x1 ADD SWAP1 DUP1 DUP4 GT PUSH2 0x250 JUMPI POP POP POP POP POP SWAP1 POP SWAP1 JUMP JUMPDEST PUSH1 0x0 PUSH1 0x20 DUP3 DUP5 SUB SLT ISZERO PUSH2 0x2FD JUMPI PUSH1 0x0 DUP1 REVERT JUMPDEST POP CALLDATALOAD SWAP2 SWAP1 POP JUMP JUMPDEST PUSH1 0x20 DUP1 DUP3 MSTORE DUP3 MLOAD DUP3 DUP3 ADD DUP2 SWAP1 MSTORE PUSH1 0x0 SWAP2 SWAP1 DUP5 DUP3 ADD SWAP1 PUSH1 0x40 DUP6 ADD SWAP1 DUP5 JUMPDEST DUP2 DUP2 LT ISZERO PUSH2 0x33C JUMPI DUP4 MLOAD DUP4 MSTORE SWAP3 DUP5 ADD SWAP3 SWAP2 DUP5 ADD SWAP2 PUSH1 0x1 ADD PUSH2 0x320 JUMP JUMPDEST POP SWAP1 SWAP7 SWAP6 POP POP POP POP POP POP JUMP JUMPDEST PUSH4 0x4E487B71 PUSH1 0xE0 SHL PUSH1 0x0 MSTORE PUSH1 0x32 PUSH1 0x4 MSTORE PUSH1 0x24 PUSH1 0x0 REVERT JUMPDEST PUSH4 0x4E487B71 PUSH1 0xE0 SHL PUSH1 0x0 MSTORE PUSH1 0x31 PUSH1 0x4 MSTORE PUSH1 0x24 PUSH1 0x0 REVERT INVALID LOG2 PUSH5 0x6970667358 0x22 SLT KECCAK256 EXTCODEHASH 0xF6 PUSH22 0x476682B3970E0DFC9603594B5672AE396216217B181D 0xE2 0xDE SWAP1 0xDD 0x2A 0xB2 0xEF PUSH5 0x736F6C6343 STOP ADDMOD ADDMOD STOP CALLER "
				},
				"gasEstimates": {
					"creation": {
						"codeDepositCost": "187600",
						"executionCost": "infinite",
						"totalCost": "infinite"
					},
					"external": {
						"arr(uint256)": "4565",
						"arr2(uint256)": "4630",
						"deleteSpecificElement(uint256)": "7476",
						"getArr()": "infinite",
						"getArr2()": "infinite",
						"getLength()": "2281",
						"gettingSpecificArrayElement(uint256)": "4589",
						"myFiedArray(uint256)": "2451",
						"popElement()": "29534",
						"pushElement(uint256)": "46587"
					}
				},
				"methodIdentifiers": {
					"arr(uint256)": "71e5ee5f",
					"arr2(uint256)": "edf0099b",
					"deleteSpecificElement(uint256)": "9a30c48f",
					"getArr()": "fb8cbced",
					"getArr2()": "c60d4528",
					"getLength()": "be1c766b",
					"gettingSpecificArrayElement(uint256)": "733cf5db",
					"myFiedArray(uint256)": "cdc26532",
					"popElement()": "9a6fcbdd",
					"pushElement(uint256)": "78321efb"
				}
			},
			"storageLayout": {
				"storage": [
					{
						"astId": 4,
						"contract": "array_explained.sol:ArrayDemo",
						"label": "arr2",
						"offset": 0,
						"slot": "0",
						"type": "t_array(t_uint256)dyn_storage"
					},
					{
						"astId": 13,
						"contract": "array_explained.sol:ArrayDemo",
						"label": "arr",
						"offset": 0,
						"slot": "1",
						"type": "t_array(t_uint256)dyn_storage"
					},
					{
						"astId": 17,
						"contract": "array_explained.sol:ArrayDemo",
						"label": "myFiedArray",
						"offset": 0,
						"slot": "2",
						"type": "t_array(t_uint256)10_storage"
					}
				],
				"types": {
					"t_array(t_uint256)10_storage": {
						"base": "t_uint256",
						"encoding": "inplace",
						"label": "uint256[10]",
						"numberOfBytes": "320"
					},
					"t_array(t_uint256)dyn_storage": {
						"base": "t_uint256",
						"encoding": "dynamic_array",
						"label": "uint256[]",
						"numberOfBytes": "32"
					},
					"t_uint256": {
						"encoding": "inplace",
						"label": "uint256",
						"numberOfBytes": "32"
					}
				}
			},
			"userdoc": {
				"kind": "user",
				"methods": {},
				"version": 1
			}
		}
	}
}