{
	"ABIEncodeDecode.sol": {
		"EncodeDecode": {
			"abi": [
				{
					"inputs": [
						{
							"internalType": "bytes",
							"name": "data",
							"type": "bytes"
						}
					],
					"name": "decode1",
					"outputs": [
						{
							"internalType": "string",
							"name": "_str1",
							"type": "string"
						},
						{
							"internalType": "uint256",
							"name": "_int",
							"type": "uint256"
						},
						{
							"internalType": "string",
							"name": "_str2",
							"type": "string"
						}
					],
					"stateMutability": "pure",
					"type": "function"
				},
				{
					"inputs": [
						{
							"internalType": "string",
							"name": "_str1",
							"type": "string"
						},
						{
							"internalType": "uint256",
							"name": "_int",
							"type": "uint256"
						},
						{
							"internalType": "string",
							"name": "_str2",
							"type": "string"
						}
					],
					"name": "encode1",
					"outputs": [
						{
							"internalType": "bytes",
							"name": "",
							"type": "bytes"
						}
					],
					"stateMutability": "pure",
					"type": "function"
				}
			],
			"devdoc": {
				"kind": "dev",
				"methods": {},
				"version": 1
			},
			"evm": {
				"assembly": "    /* \"ABIEncodeDecode.sol\":60:457  contract EncodeDecode {\r... */\n  mstore(0x40, 0x80)\n  callvalue\n  dup1\n  iszero\n  tag_1\n  jumpi\n  0x00\n  dup1\n  revert\ntag_1:\n  pop\n  dataSize(sub_0)\n  dup1\n  dataOffset(sub_0)\n  0x00\n  codecopy\n  0x00\n  return\nstop\n\nsub_0: assembly {\n        /* \"ABIEncodeDecode.sol\":60:457  contract EncodeDecode {\r... */\n      mstore(0x40, 0x80)\n      callvalue\n      dup1\n      iszero\n      tag_1\n      jumpi\n      0x00\n      dup1\n      revert\n    tag_1:\n      pop\n      jumpi(tag_2, lt(calldatasize, 0x04))\n      shr(0xe0, calldataload(0x00))\n      dup1\n      0x5cd6c549\n      eq\n      tag_3\n      jumpi\n      dup1\n      0xbac1d572\n      eq\n      tag_4\n      jumpi\n    tag_2:\n      0x00\n      dup1\n      revert\n        /* \"ABIEncodeDecode.sol\":89:250  function encode1(string memory _str1, uint _int, string memory _str2) public pure returns(bytes memory) {\r... */\n    tag_3:\n      tag_5\n      tag_6\n      calldatasize\n      0x04\n      tag_7\n      jump\t// in\n    tag_6:\n      tag_8\n      jump\t// in\n    tag_5:\n      mload(0x40)\n      tag_9\n      swap2\n      swap1\n      tag_10\n      jump\t// in\n    tag_9:\n      mload(0x40)\n      dup1\n      swap2\n      sub\n      swap1\n      return\n        /* \"ABIEncodeDecode.sol\":258:452  function  decode1(bytes memory data) public pure returns(string memory _str1, uint _int, string memory _str2) {\r... */\n    tag_4:\n      tag_11\n      tag_12\n      calldatasize\n      0x04\n      tag_13\n      jump\t// in\n    tag_12:\n      tag_14\n      jump\t// in\n    tag_11:\n      mload(0x40)\n      tag_9\n      swap4\n      swap3\n      swap2\n      swap1\n      tag_16\n      jump\t// in\n        /* \"ABIEncodeDecode.sol\":89:250  function encode1(string memory _str1, uint _int, string memory _str2) public pure returns(bytes memory) {\r... */\n    tag_8:\n        /* \"ABIEncodeDecode.sol\":179:191  bytes memory */\n      0x60\n        /* \"ABIEncodeDecode.sol\":222:227  _str1 */\n      dup4\n        /* \"ABIEncodeDecode.sol\":229:233  _int */\n      dup4\n        /* \"ABIEncodeDecode.sol\":235:240  _str2 */\n      dup4\n        /* \"ABIEncodeDecode.sol\":211:241  abi.encode(_str1, _int, _str2) */\n      add(0x20, mload(0x40))\n      tag_18\n      swap4\n      swap3\n      swap2\n      swap1\n      tag_16\n      jump\t// in\n    tag_18:\n      mload(0x40)\n      0x20\n      dup2\n      dup4\n      sub\n      sub\n      dup2\n      mstore\n      swap1\n      0x40\n      mstore\n        /* \"ABIEncodeDecode.sol\":204:242  return(abi.encode(_str1, _int, _str2)) */\n      swap1\n      pop\n        /* \"ABIEncodeDecode.sol\":89:250  function encode1(string memory _str1, uint _int, string memory _str2) public pure returns(bytes memory) {\r... */\n      swap4\n      swap3\n      pop\n      pop\n      pop\n      jump\t// out\n        /* \"ABIEncodeDecode.sol\":258:452  function  decode1(bytes memory data) public pure returns(string memory _str1, uint _int, string memory _str2) {\r... */\n    tag_14:\n        /* \"ABIEncodeDecode.sol\":315:334  string memory _str1 */\n      0x60\n        /* \"ABIEncodeDecode.sol\":336:345  uint _int */\n      0x00\n        /* \"ABIEncodeDecode.sol\":347:366  string memory _str2 */\n      0x60\n        /* \"ABIEncodeDecode.sol\":413:417  data */\n      dup4\n        /* \"ABIEncodeDecode.sol\":402:442  abi.decode(data, (string, uint, string)) */\n      dup1\n      0x20\n      add\n      swap1\n      mload\n      dup2\n      add\n      swap1\n      tag_20\n      swap2\n      swap1\n      tag_21\n      jump\t// in\n    tag_20:\n        /* \"ABIEncodeDecode.sol\":379:442  (_str1, _int, _str2) = abi.decode(data, (string, uint, string)) */\n      swap2\n      swap7\n      swap1\n      swap6\n      pop\n      swap1\n      swap4\n      pop\n        /* \"ABIEncodeDecode.sol\":258:452  function  decode1(bytes memory data) public pure returns(string memory _str1, uint _int, string memory _str2) {\r... */\n      swap2\n      pop\n      pop\n      jump\t// out\n        /* \"#utility.yul\":14:350   */\n    tag_23:\n        /* \"#utility.yul\":78:83   */\n      0x00\n        /* \"#utility.yul\":107:159   */\n      tag_25\n        /* \"#utility.yul\":123:158   */\n      tag_26\n        /* \"#utility.yul\":151:157   */\n      dup5\n        /* \"#utility.yul\":123:158   */\n      tag_27\n      jump\t// in\n    tag_26:\n        /* \"#utility.yul\":107:159   */\n      tag_28\n      jump\t// in\n    tag_25:\n        /* \"#utility.yul\":98:159   */\n      swap1\n      pop\n        /* \"#utility.yul\":182:188   */\n      dup3\n        /* \"#utility.yul\":175:180   */\n      dup2\n        /* \"#utility.yul\":168:189   */\n      mstore\n        /* \"#utility.yul\":222:225   */\n      dup4\n        /* \"#utility.yul\":213:219   */\n      dup4\n        /* \"#utility.yul\":208:211   */\n      dup4\n        /* \"#utility.yul\":204:220   */\n      add\n        /* \"#utility.yul\":201:226   */\n      gt\n        /* \"#utility.yul\":198:243   */\n      iszero\n      tag_29\n      jumpi\n        /* \"#utility.yul\":239:240   */\n      0x00\n        /* \"#utility.yul\":236:237   */\n      dup1\n        /* \"#utility.yul\":229:241   */\n      revert\n        /* \"#utility.yul\":198:243   */\n    tag_29:\n        /* \"#utility.yul\":288:294   */\n      dup3\n        /* \"#utility.yul\":283:286   */\n      dup3\n        /* \"#utility.yul\":276:280   */\n      0x20\n        /* \"#utility.yul\":269:274   */\n      dup4\n        /* \"#utility.yul\":265:281   */\n      add\n        /* \"#utility.yul\":252:295   */\n      calldatacopy\n        /* \"#utility.yul\":342:343   */\n      0x00\n        /* \"#utility.yul\":335:339   */\n      0x20\n        /* \"#utility.yul\":326:332   */\n      dup5\n        /* \"#utility.yul\":319:324   */\n      dup4\n        /* \"#utility.yul\":315:333   */\n      add\n        /* \"#utility.yul\":311:340   */\n      add\n        /* \"#utility.yul\":304:344   */\n      mstore\n        /* \"#utility.yul\":14:350   */\n      swap4\n      swap3\n      pop\n      pop\n      pop\n      jump\t// out\n        /* \"#utility.yul\":355:576   */\n    tag_30:\n        /* \"#utility.yul\":398:403   */\n      0x00\n        /* \"#utility.yul\":451:454   */\n      dup3\n        /* \"#utility.yul\":444:448   */\n      0x1f\n        /* \"#utility.yul\":436:442   */\n      dup4\n        /* \"#utility.yul\":432:449   */\n      add\n        /* \"#utility.yul\":428:455   */\n      slt\n        /* \"#utility.yul\":418:473   */\n      tag_32\n      jumpi\n        /* \"#utility.yul\":469:470   */\n      0x00\n        /* \"#utility.yul\":466:467   */\n      dup1\n        /* \"#utility.yul\":459:471   */\n      revert\n        /* \"#utility.yul\":418:473   */\n    tag_32:\n        /* \"#utility.yul\":491:570   */\n      tag_33\n        /* \"#utility.yul\":566:569   */\n      dup4\n        /* \"#utility.yul\":557:563   */\n      dup4\n        /* \"#utility.yul\":544:564   */\n      calldataload\n        /* \"#utility.yul\":537:541   */\n      0x20\n        /* \"#utility.yul\":529:535   */\n      dup6\n        /* \"#utility.yul\":525:542   */\n      add\n        /* \"#utility.yul\":491:570   */\n      tag_23\n      jump\t// in\n    tag_33:\n        /* \"#utility.yul\":482:570   */\n      swap4\n        /* \"#utility.yul\":355:576   */\n      swap3\n      pop\n      pop\n      pop\n      jump\t// out\n        /* \"#utility.yul\":581:1010   */\n    tag_34:\n        /* \"#utility.yul\":635:640   */\n      0x00\n        /* \"#utility.yul\":688:691   */\n      dup3\n        /* \"#utility.yul\":681:685   */\n      0x1f\n        /* \"#utility.yul\":673:679   */\n      dup4\n        /* \"#utility.yul\":669:686   */\n      add\n        /* \"#utility.yul\":665:692   */\n      slt\n        /* \"#utility.yul\":655:710   */\n      tag_36\n      jumpi\n        /* \"#utility.yul\":706:707   */\n      0x00\n        /* \"#utility.yul\":703:704   */\n      dup1\n        /* \"#utility.yul\":696:708   */\n      revert\n        /* \"#utility.yul\":655:710   */\n    tag_36:\n        /* \"#utility.yul\":735:741   */\n      dup2\n        /* \"#utility.yul\":729:742   */\n      mload\n        /* \"#utility.yul\":766:814   */\n      tag_37\n        /* \"#utility.yul\":782:813   */\n      tag_26\n        /* \"#utility.yul\":810:812   */\n      dup3\n        /* \"#utility.yul\":782:813   */\n      tag_27\n      jump\t// in\n        /* \"#utility.yul\":766:814   */\n    tag_37:\n        /* \"#utility.yul\":839:841   */\n      dup2\n        /* \"#utility.yul\":830:837   */\n      dup2\n        /* \"#utility.yul\":823:842   */\n      mstore\n        /* \"#utility.yul\":885:888   */\n      dup5\n        /* \"#utility.yul\":878:882   */\n      0x20\n        /* \"#utility.yul\":873:875   */\n      dup4\n        /* \"#utility.yul\":865:871   */\n      dup7\n        /* \"#utility.yul\":861:876   */\n      add\n        /* \"#utility.yul\":857:883   */\n      add\n        /* \"#utility.yul\":854:889   */\n      gt\n        /* \"#utility.yul\":851:906   */\n      iszero\n      tag_39\n      jumpi\n        /* \"#utility.yul\":902:903   */\n      0x00\n        /* \"#utility.yul\":899:900   */\n      dup1\n        /* \"#utility.yul\":892:904   */\n      revert\n        /* \"#utility.yul\":851:906   */\n    tag_39:\n        /* \"#utility.yul\":915:979   */\n      tag_40\n        /* \"#utility.yul\":976:978   */\n      dup3\n        /* \"#utility.yul\":969:973   */\n      0x20\n        /* \"#utility.yul\":960:967   */\n      dup4\n        /* \"#utility.yul\":956:974   */\n      add\n        /* \"#utility.yul\":949:953   */\n      0x20\n        /* \"#utility.yul\":941:947   */\n      dup8\n        /* \"#utility.yul\":937:954   */\n      add\n        /* \"#utility.yul\":915:979   */\n      tag_41\n      jump\t// in\n    tag_40:\n        /* \"#utility.yul\":997:1004   */\n      swap5\n        /* \"#utility.yul\":581:1010   */\n      swap4\n      pop\n      pop\n      pop\n      pop\n      jump\t// out\n        /* \"#utility.yul\":1015:1464   */\n    tag_13:\n        /* \"#utility.yul\":1083:1089   */\n      0x00\n        /* \"#utility.yul\":1136:1138   */\n      0x20\n        /* \"#utility.yul\":1124:1133   */\n      dup3\n        /* \"#utility.yul\":1115:1122   */\n      dup5\n        /* \"#utility.yul\":1111:1134   */\n      sub\n        /* \"#utility.yul\":1107:1139   */\n      slt\n        /* \"#utility.yul\":1104:1156   */\n      iszero\n      tag_43\n      jumpi\n        /* \"#utility.yul\":1152:1153   */\n      0x00\n        /* \"#utility.yul\":1149:1150   */\n      dup1\n        /* \"#utility.yul\":1142:1154   */\n      revert\n        /* \"#utility.yul\":1104:1156   */\n    tag_43:\n        /* \"#utility.yul\":1192:1201   */\n      dup2\n        /* \"#utility.yul\":1179:1202   */\n      calldataload\n        /* \"#utility.yul\":1225:1243   */\n      0xffffffffffffffff\n        /* \"#utility.yul\":1217:1223   */\n      dup2\n        /* \"#utility.yul\":1214:1244   */\n      gt\n        /* \"#utility.yul\":1211:1261   */\n      iszero\n      tag_44\n      jumpi\n        /* \"#utility.yul\":1257:1258   */\n      0x00\n        /* \"#utility.yul\":1254:1255   */\n      dup1\n        /* \"#utility.yul\":1247:1259   */\n      revert\n        /* \"#utility.yul\":1211:1261   */\n    tag_44:\n        /* \"#utility.yul\":1280:1302   */\n      dup3\n      add\n        /* \"#utility.yul\":1333:1337   */\n      0x1f\n        /* \"#utility.yul\":1325:1338   */\n      dup2\n      add\n        /* \"#utility.yul\":1321:1348   */\n      dup5\n      sgt\n        /* \"#utility.yul\":1311:1366   */\n      tag_45\n      jumpi\n        /* \"#utility.yul\":1362:1363   */\n      0x00\n        /* \"#utility.yul\":1359:1360   */\n      dup1\n        /* \"#utility.yul\":1352:1364   */\n      revert\n        /* \"#utility.yul\":1311:1366   */\n    tag_45:\n        /* \"#utility.yul\":1385:1458   */\n      tag_40\n        /* \"#utility.yul\":1450:1457   */\n      dup5\n        /* \"#utility.yul\":1445:1447   */\n      dup3\n        /* \"#utility.yul\":1432:1448   */\n      calldataload\n        /* \"#utility.yul\":1427:1429   */\n      0x20\n        /* \"#utility.yul\":1423:1425   */\n      dup5\n        /* \"#utility.yul\":1419:1430   */\n      add\n        /* \"#utility.yul\":1385:1458   */\n      tag_23\n      jump\t// in\n        /* \"#utility.yul\":1469:2080   */\n    tag_7:\n        /* \"#utility.yul\":1566:1572   */\n      0x00\n        /* \"#utility.yul\":1574:1580   */\n      dup1\n        /* \"#utility.yul\":1582:1588   */\n      0x00\n        /* \"#utility.yul\":1635:1637   */\n      0x60\n        /* \"#utility.yul\":1623:1632   */\n      dup5\n        /* \"#utility.yul\":1614:1621   */\n      dup7\n        /* \"#utility.yul\":1610:1633   */\n      sub\n        /* \"#utility.yul\":1606:1638   */\n      slt\n        /* \"#utility.yul\":1603:1655   */\n      iszero\n      tag_48\n      jumpi\n        /* \"#utility.yul\":1651:1652   */\n      0x00\n        /* \"#utility.yul\":1648:1649   */\n      dup1\n        /* \"#utility.yul\":1641:1653   */\n      revert\n        /* \"#utility.yul\":1603:1655   */\n    tag_48:\n        /* \"#utility.yul\":1691:1700   */\n      dup4\n        /* \"#utility.yul\":1678:1701   */\n      calldataload\n        /* \"#utility.yul\":1720:1738   */\n      0xffffffffffffffff\n        /* \"#utility.yul\":1761:1763   */\n      dup1\n        /* \"#utility.yul\":1753:1759   */\n      dup3\n        /* \"#utility.yul\":1750:1764   */\n      gt\n        /* \"#utility.yul\":1747:1781   */\n      iszero\n      tag_49\n      jumpi\n        /* \"#utility.yul\":1777:1778   */\n      0x00\n        /* \"#utility.yul\":1774:1775   */\n      dup1\n        /* \"#utility.yul\":1767:1779   */\n      revert\n        /* \"#utility.yul\":1747:1781   */\n    tag_49:\n        /* \"#utility.yul\":1800:1850   */\n      tag_50\n        /* \"#utility.yul\":1842:1849   */\n      dup8\n        /* \"#utility.yul\":1833:1839   */\n      dup4\n        /* \"#utility.yul\":1822:1831   */\n      dup9\n        /* \"#utility.yul\":1818:1840   */\n      add\n        /* \"#utility.yul\":1800:1850   */\n      tag_30\n      jump\t// in\n    tag_50:\n        /* \"#utility.yul\":1790:1850   */\n      swap5\n      pop\n        /* \"#utility.yul\":1897:1899   */\n      0x20\n        /* \"#utility.yul\":1886:1895   */\n      dup7\n        /* \"#utility.yul\":1882:1900   */\n      add\n        /* \"#utility.yul\":1869:1901   */\n      calldataload\n        /* \"#utility.yul\":1859:1901   */\n      swap4\n      pop\n        /* \"#utility.yul\":1954:1956   */\n      0x40\n        /* \"#utility.yul\":1943:1952   */\n      dup7\n        /* \"#utility.yul\":1939:1957   */\n      add\n        /* \"#utility.yul\":1926:1958   */\n      calldataload\n        /* \"#utility.yul\":1910:1958   */\n      swap2\n      pop\n        /* \"#utility.yul\":1983:1985   */\n      dup1\n        /* \"#utility.yul\":1973:1981   */\n      dup3\n        /* \"#utility.yul\":1970:1986   */\n      gt\n        /* \"#utility.yul\":1967:2003   */\n      iszero\n      tag_51\n      jumpi\n        /* \"#utility.yul\":1999:2000   */\n      0x00\n        /* \"#utility.yul\":1996:1997   */\n      dup1\n        /* \"#utility.yul\":1989:2001   */\n      revert\n        /* \"#utility.yul\":1967:2003   */\n    tag_51:\n      pop\n        /* \"#utility.yul\":2022:2074   */\n      tag_52\n        /* \"#utility.yul\":2066:2073   */\n      dup7\n        /* \"#utility.yul\":2055:2063   */\n      dup3\n        /* \"#utility.yul\":2044:2053   */\n      dup8\n        /* \"#utility.yul\":2040:2064   */\n      add\n        /* \"#utility.yul\":2022:2074   */\n      tag_30\n      jump\t// in\n    tag_52:\n        /* \"#utility.yul\":2012:2074   */\n      swap2\n      pop\n      pop\n        /* \"#utility.yul\":1469:2080   */\n      swap3\n      pop\n      swap3\n      pop\n      swap3\n      jump\t// out\n        /* \"#utility.yul\":2085:2708   */\n    tag_21:\n        /* \"#utility.yul\":2193:2199   */\n      0x00\n        /* \"#utility.yul\":2201:2207   */\n      dup1\n        /* \"#utility.yul\":2209:2215   */\n      0x00\n        /* \"#utility.yul\":2262:2264   */\n      0x60\n        /* \"#utility.yul\":2250:2259   */\n      dup5\n        /* \"#utility.yul\":2241:2248   */\n      dup7\n        /* \"#utility.yul\":2237:2260   */\n      sub\n        /* \"#utility.yul\":2233:2265   */\n      slt\n        /* \"#utility.yul\":2230:2282   */\n      iszero\n      tag_54\n      jumpi\n        /* \"#utility.yul\":2278:2279   */\n      0x00\n        /* \"#utility.yul\":2275:2276   */\n      dup1\n        /* \"#utility.yul\":2268:2280   */\n      revert\n        /* \"#utility.yul\":2230:2282   */\n    tag_54:\n        /* \"#utility.yul\":2311:2320   */\n      dup4\n        /* \"#utility.yul\":2305:2321   */\n      mload\n        /* \"#utility.yul\":2340:2358   */\n      0xffffffffffffffff\n        /* \"#utility.yul\":2381:2383   */\n      dup1\n        /* \"#utility.yul\":2373:2379   */\n      dup3\n        /* \"#utility.yul\":2370:2384   */\n      gt\n        /* \"#utility.yul\":2367:2401   */\n      iszero\n      tag_55\n      jumpi\n        /* \"#utility.yul\":2397:2398   */\n      0x00\n        /* \"#utility.yul\":2394:2395   */\n      dup1\n        /* \"#utility.yul\":2387:2399   */\n      revert\n        /* \"#utility.yul\":2367:2401   */\n    tag_55:\n        /* \"#utility.yul\":2420:2481   */\n      tag_56\n        /* \"#utility.yul\":2473:2480   */\n      dup8\n        /* \"#utility.yul\":2464:2470   */\n      dup4\n        /* \"#utility.yul\":2453:2462   */\n      dup9\n        /* \"#utility.yul\":2449:2471   */\n      add\n        /* \"#utility.yul\":2420:2481   */\n      tag_34\n      jump\t// in\n    tag_56:\n        /* \"#utility.yul\":2410:2481   */\n      swap5\n      pop\n        /* \"#utility.yul\":2521:2523   */\n      0x20\n        /* \"#utility.yul\":2510:2519   */\n      dup7\n        /* \"#utility.yul\":2506:2524   */\n      add\n        /* \"#utility.yul\":2500:2525   */\n      mload\n        /* \"#utility.yul\":2490:2525   */\n      swap4\n      pop\n        /* \"#utility.yul\":2571:2573   */\n      0x40\n        /* \"#utility.yul\":2560:2569   */\n      dup7\n        /* \"#utility.yul\":2556:2574   */\n      add\n        /* \"#utility.yul\":2550:2575   */\n      mload\n        /* \"#utility.yul\":2534:2575   */\n      swap2\n      pop\n        /* \"#utility.yul\":2600:2602   */\n      dup1\n        /* \"#utility.yul\":2590:2598   */\n      dup3\n        /* \"#utility.yul\":2587:2603   */\n      gt\n        /* \"#utility.yul\":2584:2620   */\n      iszero\n      tag_57\n      jumpi\n        /* \"#utility.yul\":2616:2617   */\n      0x00\n        /* \"#utility.yul\":2613:2614   */\n      dup1\n        /* \"#utility.yul\":2606:2618   */\n      revert\n        /* \"#utility.yul\":2584:2620   */\n    tag_57:\n      pop\n        /* \"#utility.yul\":2639:2702   */\n      tag_52\n        /* \"#utility.yul\":2694:2701   */\n      dup7\n        /* \"#utility.yul\":2683:2691   */\n      dup3\n        /* \"#utility.yul\":2672:2681   */\n      dup8\n        /* \"#utility.yul\":2668:2692   */\n      add\n        /* \"#utility.yul\":2639:2702   */\n      tag_34\n      jump\t// in\n        /* \"#utility.yul\":2713:2970   */\n    tag_59:\n        /* \"#utility.yul\":2754:2757   */\n      0x00\n        /* \"#utility.yul\":2792:2797   */\n      dup2\n        /* \"#utility.yul\":2786:2798   */\n      mload\n        /* \"#utility.yul\":2819:2825   */\n      dup1\n        /* \"#utility.yul\":2814:2817   */\n      dup5\n        /* \"#utility.yul\":2807:2826   */\n      mstore\n        /* \"#utility.yul\":2835:2898   */\n      tag_61\n        /* \"#utility.yul\":2891:2897   */\n      dup2\n        /* \"#utility.yul\":2884:2888   */\n      0x20\n        /* \"#utility.yul\":2879:2882   */\n      dup7\n        /* \"#utility.yul\":2875:2889   */\n      add\n        /* \"#utility.yul\":2868:2872   */\n      0x20\n        /* \"#utility.yul\":2861:2866   */\n      dup7\n        /* \"#utility.yul\":2857:2873   */\n      add\n        /* \"#utility.yul\":2835:2898   */\n      tag_41\n      jump\t// in\n    tag_61:\n        /* \"#utility.yul\":2952:2954   */\n      0x1f\n        /* \"#utility.yul\":2931:2946   */\n      add\n      not(0x1f)\n        /* \"#utility.yul\":2927:2956   */\n      and\n        /* \"#utility.yul\":2918:2957   */\n      swap3\n      swap1\n      swap3\n      add\n        /* \"#utility.yul\":2959:2963   */\n      0x20\n        /* \"#utility.yul\":2914:2964   */\n      add\n      swap3\n        /* \"#utility.yul\":2713:2970   */\n      swap2\n      pop\n      pop\n      jump\t// out\n        /* \"#utility.yul\":2975:3192   */\n    tag_10:\n        /* \"#utility.yul\":3122:3124   */\n      0x20\n        /* \"#utility.yul\":3111:3120   */\n      dup2\n        /* \"#utility.yul\":3104:3125   */\n      mstore\n        /* \"#utility.yul\":3085:3089   */\n      0x00\n        /* \"#utility.yul\":3142:3186   */\n      tag_33\n        /* \"#utility.yul\":3182:3184   */\n      0x20\n        /* \"#utility.yul\":3171:3180   */\n      dup4\n        /* \"#utility.yul\":3167:3185   */\n      add\n        /* \"#utility.yul\":3159:3165   */\n      dup5\n        /* \"#utility.yul\":3142:3186   */\n      tag_59\n      jump\t// in\n        /* \"#utility.yul\":3197:3649   */\n    tag_16:\n        /* \"#utility.yul\":3422:3424   */\n      0x60\n        /* \"#utility.yul\":3411:3420   */\n      dup2\n        /* \"#utility.yul\":3404:3425   */\n      mstore\n        /* \"#utility.yul\":3385:3389   */\n      0x00\n        /* \"#utility.yul\":3448:3492   */\n      tag_65\n        /* \"#utility.yul\":3488:3490   */\n      0x60\n        /* \"#utility.yul\":3477:3486   */\n      dup4\n        /* \"#utility.yul\":3473:3491   */\n      add\n        /* \"#utility.yul\":3465:3471   */\n      dup7\n        /* \"#utility.yul\":3448:3492   */\n      tag_59\n      jump\t// in\n    tag_65:\n        /* \"#utility.yul\":3528:3534   */\n      dup5\n        /* \"#utility.yul\":3523:3525   */\n      0x20\n        /* \"#utility.yul\":3512:3521   */\n      dup5\n        /* \"#utility.yul\":3508:3526   */\n      add\n        /* \"#utility.yul\":3501:3535   */\n      mstore\n        /* \"#utility.yul\":3583:3592   */\n      dup3\n        /* \"#utility.yul\":3575:3581   */\n      dup2\n        /* \"#utility.yul\":3571:3593   */\n      sub\n        /* \"#utility.yul\":3566:3568   */\n      0x40\n        /* \"#utility.yul\":3555:3564   */\n      dup5\n        /* \"#utility.yul\":3551:3569   */\n      add\n        /* \"#utility.yul\":3544:3594   */\n      mstore\n        /* \"#utility.yul\":3611:3643   */\n      tag_66\n        /* \"#utility.yul\":3636:3642   */\n      dup2\n        /* \"#utility.yul\":3628:3634   */\n      dup6\n        /* \"#utility.yul\":3611:3643   */\n      tag_59\n      jump\t// in\n    tag_66:\n        /* \"#utility.yul\":3603:3643   */\n      swap7\n        /* \"#utility.yul\":3197:3649   */\n      swap6\n      pop\n      pop\n      pop\n      pop\n      pop\n      pop\n      jump\t// out\n        /* \"#utility.yul\":3654:3929   */\n    tag_28:\n        /* \"#utility.yul\":3725:3727   */\n      0x40\n        /* \"#utility.yul\":3719:3728   */\n      mload\n        /* \"#utility.yul\":3790:3792   */\n      0x1f\n        /* \"#utility.yul\":3771:3784   */\n      dup3\n      add\n      not(0x1f)\n        /* \"#utility.yul\":3767:3794   */\n      and\n        /* \"#utility.yul\":3755:3795   */\n      dup2\n      add\n        /* \"#utility.yul\":3825:3843   */\n      0xffffffffffffffff\n        /* \"#utility.yul\":3810:3844   */\n      dup2\n      gt\n        /* \"#utility.yul\":3846:3868   */\n      dup3\n      dup3\n      lt\n        /* \"#utility.yul\":3807:3869   */\n      or\n        /* \"#utility.yul\":3804:3892   */\n      iszero\n      tag_69\n      jumpi\n        /* \"#utility.yul\":3872:3890   */\n      tag_69\n      tag_70\n      jump\t// in\n    tag_69:\n        /* \"#utility.yul\":3908:3910   */\n      0x40\n        /* \"#utility.yul\":3901:3923   */\n      mstore\n        /* \"#utility.yul\":3654:3929   */\n      swap2\n      swap1\n      pop\n      jump\t// out\n        /* \"#utility.yul\":3934:4120   */\n    tag_27:\n        /* \"#utility.yul\":3982:3986   */\n      0x00\n        /* \"#utility.yul\":4015:4033   */\n      0xffffffffffffffff\n        /* \"#utility.yul\":4007:4013   */\n      dup3\n        /* \"#utility.yul\":4004:4034   */\n      gt\n        /* \"#utility.yul\":4001:4057   */\n      iszero\n      tag_73\n      jumpi\n        /* \"#utility.yul\":4037:4055   */\n      tag_73\n      tag_70\n      jump\t// in\n    tag_73:\n      pop\n        /* \"#utility.yul\":4103:4105   */\n      0x1f\n        /* \"#utility.yul\":4082:4097   */\n      add\n      not(0x1f)\n        /* \"#utility.yul\":4078:4107   */\n      and\n        /* \"#utility.yul\":4109:4113   */\n      0x20\n        /* \"#utility.yul\":4074:4114   */\n      add\n      swap1\n        /* \"#utility.yul\":3934:4120   */\n      jump\t// out\n        /* \"#utility.yul\":4125:4383   */\n    tag_41:\n        /* \"#utility.yul\":4197:4198   */\n      0x00\n        /* \"#utility.yul\":4207:4320   */\n    tag_75:\n        /* \"#utility.yul\":4221:4227   */\n      dup4\n        /* \"#utility.yul\":4218:4219   */\n      dup2\n        /* \"#utility.yul\":4215:4228   */\n      lt\n        /* \"#utility.yul\":4207:4320   */\n      iszero\n      tag_77\n      jumpi\n        /* \"#utility.yul\":4297:4308   */\n      dup2\n      dup2\n      add\n        /* \"#utility.yul\":4291:4309   */\n      mload\n        /* \"#utility.yul\":4278:4289   */\n      dup4\n      dup3\n      add\n        /* \"#utility.yul\":4271:4310   */\n      mstore\n        /* \"#utility.yul\":4243:4245   */\n      0x20\n        /* \"#utility.yul\":4236:4246   */\n      add\n        /* \"#utility.yul\":4207:4320   */\n      jump(tag_75)\n    tag_77:\n        /* \"#utility.yul\":4338:4344   */\n      dup4\n        /* \"#utility.yul\":4335:4336   */\n      dup2\n        /* \"#utility.yul\":4332:4345   */\n      gt\n        /* \"#utility.yul\":4329:4377   */\n      iszero\n      tag_78\n      jumpi\n        /* \"#utility.yul\":4373:4374   */\n      0x00\n        /* \"#utility.yul\":4364:4370   */\n      dup5\n        /* \"#utility.yul\":4359:4362   */\n      dup5\n        /* \"#utility.yul\":4355:4371   */\n      add\n        /* \"#utility.yul\":4348:4375   */\n      mstore\n        /* \"#utility.yul\":4329:4377   */\n    tag_78:\n      pop\n        /* \"#utility.yul\":4125:4383   */\n      pop\n      pop\n      pop\n      jump\t// out\n        /* \"#utility.yul\":4388:4515   */\n    tag_70:\n        /* \"#utility.yul\":4449:4459   */\n      0x4e487b71\n        /* \"#utility.yul\":4444:4447   */\n      0xe0\n        /* \"#utility.yul\":4440:4460   */\n      shl\n        /* \"#utility.yul\":4437:4438   */\n      0x00\n        /* \"#utility.yul\":4430:4461   */\n      mstore\n        /* \"#utility.yul\":4480:4484   */\n      0x41\n        /* \"#utility.yul\":4477:4478   */\n      0x04\n        /* \"#utility.yul\":4470:4485   */\n      mstore\n        /* \"#utility.yul\":4504:4508   */\n      0x24\n        /* \"#utility.yul\":4501:4502   */\n      0x00\n        /* \"#utility.yul\":4494:4509   */\n      revert\n\n    auxdata: 0xa2646970667358221220bc24060fa1e7945ddd42eb3850cf2b568756fd4c1c29f7408004277979302f8764736f6c63430008070033\n}\n",
				"bytecode": {
					"linkReferences": {},
					"object": "608060405234801561001057600080fd5b506103f0806100206000396000f3fe608060405234801561001057600080fd5b50600436106100365760003560e01c80635cd6c5491461003b578063bac1d57214610064575b600080fd5b61004e6100493660046101d7565b610086565b60405161005b91906102d3565b60405180910390f35b61007761007236600461018e565b6100b5565b60405161005b939291906102e6565b606083838360405160200161009d939291906102e6565b60405160208183030381529060405290509392505050565b606060006060838060200190518101906100cf9190610244565b9196909550909350915050565b60006100ef6100ea8461034c565b61031b565b905082815283838301111561010357600080fd5b828260208301376000602084830101529392505050565b600082601f83011261012b57600080fd5b61013a838335602085016100dc565b9392505050565b600082601f83011261015257600080fd5b81516101606100ea8261034c565b81815284602083860101111561017557600080fd5b610186826020830160208701610374565b949350505050565b6000602082840312156101a057600080fd5b813567ffffffffffffffff8111156101b757600080fd5b8201601f810184136101c857600080fd5b610186848235602084016100dc565b6000806000606084860312156101ec57600080fd5b833567ffffffffffffffff8082111561020457600080fd5b6102108783880161011a565b945060208601359350604086013591508082111561022d57600080fd5b5061023a8682870161011a565b9150509250925092565b60008060006060848603121561025957600080fd5b835167ffffffffffffffff8082111561027157600080fd5b61027d87838801610141565b945060208601519350604086015191508082111561029a57600080fd5b5061023a86828701610141565b600081518084526102bf816020860160208601610374565b601f01601f19169290920160200192915050565b60208152600061013a60208301846102a7565b6060815260006102f960608301866102a7565b846020840152828103604084015261031181856102a7565b9695505050505050565b604051601f8201601f1916810167ffffffffffffffff81118282101715610344576103446103a4565b604052919050565b600067ffffffffffffffff821115610366576103666103a4565b50601f01601f191660200190565b60005b8381101561038f578181015183820152602001610377565b8381111561039e576000848401525b50505050565b634e487b7160e01b600052604160045260246000fdfea2646970667358221220bc24060fa1e7945ddd42eb3850cf2b568756fd4c1c29f7408004277979302f8764736f6c63430008070033",
					"opcodes": "PUSH1 0x80 PUSH1 0x40 MSTORE CALLVALUE DUP1 ISZERO PUSH2 0x10 JUMPI PUSH1 0x0 DUP1 REVERT JUMPDEST POP PUSH2 0x3F0 DUP1 PUSH2 0x20 PUSH1 0x0 CODECOPY PUSH1 0x0 RETURN INVALID PUSH1 0x80 PUSH1 0x40 MSTORE CALLVALUE DUP1 ISZERO PUSH2 0x10 JUMPI PUSH1 0x0 DUP1 REVERT JUMPDEST POP PUSH1 0x4 CALLDATASIZE LT PUSH2 0x36 JUMPI PUSH1 0x0 CALLDATALOAD PUSH1 0xE0 SHR DUP1 PUSH4 0x5CD6C549 EQ PUSH2 0x3B JUMPI DUP1 PUSH4 0xBAC1D572 EQ PUSH2 0x64 JUMPI JUMPDEST PUSH1 0x0 DUP1 REVERT JUMPDEST PUSH2 0x4E PUSH2 0x49 CALLDATASIZE PUSH1 0x4 PUSH2 0x1D7 JUMP JUMPDEST PUSH2 0x86 JUMP JUMPDEST PUSH1 0x40 MLOAD PUSH2 0x5B SWAP2 SWAP1 PUSH2 0x2D3 JUMP JUMPDEST PUSH1 0x40 MLOAD DUP1 SWAP2 SUB SWAP1 RETURN JUMPDEST PUSH2 0x77 PUSH2 0x72 CALLDATASIZE PUSH1 0x4 PUSH2 0x18E JUMP JUMPDEST PUSH2 0xB5 JUMP JUMPDEST PUSH1 0x40 MLOAD PUSH2 0x5B SWAP4 SWAP3 SWAP2 SWAP1 PUSH2 0x2E6 JUMP JUMPDEST PUSH1 0x60 DUP4 DUP4 DUP4 PUSH1 0x40 MLOAD PUSH1 0x20 ADD PUSH2 0x9D SWAP4 SWAP3 SWAP2 SWAP1 PUSH2 0x2E6 JUMP JUMPDEST PUSH1 0x40 MLOAD PUSH1 0x20 DUP2 DUP4 SUB SUB DUP2 MSTORE SWAP1 PUSH1 0x40 MSTORE SWAP1 POP SWAP4 SWAP3 POP POP POP JUMP JUMPDEST PUSH1 0x60 PUSH1 0x0 PUSH1 0x60 DUP4 DUP1 PUSH1 0x20 ADD SWAP1 MLOAD DUP2 ADD SWAP1 PUSH2 0xCF SWAP2 SWAP1 PUSH2 0x244 JUMP JUMPDEST SWAP2 SWAP7 SWAP1 SWAP6 POP SWAP1 SWAP4 POP SWAP2 POP POP JUMP JUMPDEST PUSH1 0x0 PUSH2 0xEF PUSH2 0xEA DUP5 PUSH2 0x34C JUMP JUMPDEST PUSH2 0x31B JUMP JUMPDEST SWAP1 POP DUP3 DUP2 MSTORE DUP4 DUP4 DUP4 ADD GT ISZERO PUSH2 0x103 JUMPI PUSH1 0x0 DUP1 REVERT JUMPDEST DUP3 DUP3 PUSH1 0x20 DUP4 ADD CALLDATACOPY PUSH1 0x0 PUSH1 0x20 DUP5 DUP4 ADD ADD MSTORE SWAP4 SWAP3 POP POP POP JUMP JUMPDEST PUSH1 0x0 DUP3 PUSH1 0x1F DUP4 ADD SLT PUSH2 0x12B JUMPI PUSH1 0x0 DUP1 REVERT JUMPDEST PUSH2 0x13A DUP4 DUP4 CALLDATALOAD PUSH1 0x20 DUP6 ADD PUSH2 0xDC JUMP JUMPDEST SWAP4 SWAP3 POP POP POP JUMP JUMPDEST PUSH1 0x0 DUP3 PUSH1 0x1F DUP4 ADD SLT PUSH2 0x152 JUMPI PUSH1 0x0 DUP1 REVERT JUMPDEST DUP2 MLOAD PUSH2 0x160 PUSH2 0xEA DUP3 PUSH2 0x34C JUMP JUMPDEST DUP2 DUP2 MSTORE DUP5 PUSH1 0x20 DUP4 DUP7 ADD ADD GT ISZERO PUSH2 0x175 JUMPI PUSH1 0x0 DUP1 REVERT JUMPDEST PUSH2 0x186 DUP3 PUSH1 0x20 DUP4 ADD PUSH1 0x20 DUP8 ADD PUSH2 0x374 JUMP JUMPDEST SWAP5 SWAP4 POP POP POP POP JUMP JUMPDEST PUSH1 0x0 PUSH1 0x20 DUP3 DUP5 SUB SLT ISZERO PUSH2 0x1A0 JUMPI PUSH1 0x0 DUP1 REVERT JUMPDEST DUP2 CALLDATALOAD PUSH8 0xFFFFFFFFFFFFFFFF DUP2 GT ISZERO PUSH2 0x1B7 JUMPI PUSH1 0x0 DUP1 REVERT JUMPDEST DUP3 ADD PUSH1 0x1F DUP2 ADD DUP5 SGT PUSH2 0x1C8 JUMPI PUSH1 0x0 DUP1 REVERT JUMPDEST PUSH2 0x186 DUP5 DUP3 CALLDATALOAD PUSH1 0x20 DUP5 ADD PUSH2 0xDC JUMP JUMPDEST PUSH1 0x0 DUP1 PUSH1 0x0 PUSH1 0x60 DUP5 DUP7 SUB SLT ISZERO PUSH2 0x1EC JUMPI PUSH1 0x0 DUP1 REVERT JUMPDEST DUP4 CALLDATALOAD PUSH8 0xFFFFFFFFFFFFFFFF DUP1 DUP3 GT ISZERO PUSH2 0x204 JUMPI PUSH1 0x0 DUP1 REVERT JUMPDEST PUSH2 0x210 DUP8 DUP4 DUP9 ADD PUSH2 0x11A JUMP JUMPDEST SWAP5 POP PUSH1 0x20 DUP7 ADD CALLDATALOAD SWAP4 POP PUSH1 0x40 DUP7 ADD CALLDATALOAD SWAP2 POP DUP1 DUP3 GT ISZERO PUSH2 0x22D JUMPI PUSH1 0x0 DUP1 REVERT JUMPDEST POP PUSH2 0x23A DUP7 DUP3 DUP8 ADD PUSH2 0x11A JUMP JUMPDEST SWAP2 POP POP SWAP3 POP SWAP3 POP SWAP3 JUMP JUMPDEST PUSH1 0x0 DUP1 PUSH1 0x0 PUSH1 0x60 DUP5 DUP7 SUB SLT ISZERO PUSH2 0x259 JUMPI PUSH1 0x0 DUP1 REVERT JUMPDEST DUP4 MLOAD PUSH8 0xFFFFFFFFFFFFFFFF DUP1 DUP3 GT ISZERO PUSH2 0x271 JUMPI PUSH1 0x0 DUP1 REVERT JUMPDEST PUSH2 0x27D DUP8 DUP4 DUP9 ADD PUSH2 0x141 JUMP JUMPDEST SWAP5 POP PUSH1 0x20 DUP7 ADD MLOAD SWAP4 POP PUSH1 0x40 DUP7 ADD MLOAD SWAP2 POP DUP1 DUP3 GT ISZERO PUSH2 0x29A JUMPI PUSH1 0x0 DUP1 REVERT JUMPDEST POP PUSH2 0x23A DUP7 DUP3 DUP8 ADD PUSH2 0x141 JUMP JUMPDEST PUSH1 0x0 DUP2 MLOAD DUP1 DUP5 MSTORE PUSH2 0x2BF DUP2 PUSH1 0x20 DUP7 ADD PUSH1 0x20 DUP7 ADD PUSH2 0x374 JUMP JUMPDEST PUSH1 0x1F ADD PUSH1 0x1F NOT AND SWAP3 SWAP1 SWAP3 ADD PUSH1 0x20 ADD SWAP3 SWAP2 POP POP JUMP JUMPDEST PUSH1 0x20 DUP2 MSTORE PUSH1 0x0 PUSH2 0x13A PUSH1 0x20 DUP4 ADD DUP5 PUSH2 0x2A7 JUMP JUMPDEST PUSH1 0x60 DUP2 MSTORE PUSH1 0x0 PUSH2 0x2F9 PUSH1 0x60 DUP4 ADD DUP7 PUSH2 0x2A7 JUMP JUMPDEST DUP5 PUSH1 0x20 DUP5 ADD MSTORE DUP3 DUP2 SUB PUSH1 0x40 DUP5 ADD MSTORE PUSH2 0x311 DUP2 DUP6 PUSH2 0x2A7 JUMP JUMPDEST SWAP7 SWAP6 POP POP POP POP POP POP JUMP JUMPDEST PUSH1 0x40 MLOAD PUSH1 0x1F DUP3 ADD PUSH1 0x1F NOT AND DUP2 ADD PUSH8 0xFFFFFFFFFFFFFFFF DUP2 GT DUP3 DUP3 LT OR ISZERO PUSH2 0x344 JUMPI PUSH2 0x344 PUSH2 0x3A4 JUMP JUMPDEST PUSH1 0x40 MSTORE SWAP2 SWAP1 POP JUMP JUMPDEST PUSH1 0x0 PUSH8 0xFFFFFFFFFFFFFFFF DUP3 GT ISZERO PUSH2 0x366 JUMPI PUSH2 0x366 PUSH2 0x3A4 JUMP JUMPDEST POP PUSH1 0x1F ADD PUSH1 0x1F NOT AND PUSH1 0x20 ADD SWAP1 JUMP JUMPDEST PUSH1 0x0 JUMPDEST DUP4 DUP2 LT ISZERO PUSH2 0x38F JUMPI DUP2 DUP2 ADD MLOAD DUP4 DUP3 ADD MSTORE PUSH1 0x20 ADD PUSH2 0x377 JUMP JUMPDEST DUP4 DUP2 GT ISZERO PUSH2 0x39E JUMPI PUSH1 0x0 DUP5 DUP5 ADD MSTORE JUMPDEST POP POP POP POP JUMP JUMPDEST PUSH4 0x4E487B71 PUSH1 0xE0 SHL PUSH1 0x0 MSTORE PUSH1 0x41 PUSH1 0x4 MSTORE PUSH1 0x24 PUSH1 0x0 REVERT INVALID LOG2 PUSH5 0x6970667358 0x22 SLT KECCAK256 0xBC 0x24 MOD 0xF LOG1 0xE7 SWAP5 0x5D 0xDD TIMESTAMP 0xEB CODESIZE POP 0xCF 0x2B JUMP DUP8 JUMP REVERT 0x4C SHR 0x29 0xF7 BLOCKHASH DUP1 DIV 0x27 PUSH26 0x79302F8764736F6C634300080700330000000000000000000000 "
				},
				"gasEstimates": {
					"creation": {
						"codeDepositCost": "201600",
						"executionCost": "245",
						"totalCost": "201845"
					},
					"external": {
						"decode1(bytes)": "infinite",
						"encode1(string,uint256,string)": "infinite"
					}
				},
				"methodIdentifiers": {
					"decode1(bytes)": "bac1d572",
					"encode1(string,uint256,string)": "5cd6c549"
				}
			},
			"storageLayout": {
				"storage": [],
				"types": null
			},
			"userdoc": {
				"kind": "user",
				"methods": {},
				"version": 1
			}
		}
	}
}