{
	"array_index_remove_by_shifting.sol": {
		"ArrayIndexRemoveByShifting": {
			"abi": [
				{
					"inputs": [
						{
							"internalType": "uint256",
							"name": "",
							"type": "uint256"
						}
					],
					"name": "arr",
					"outputs": [
						{
							"internalType": "uint256",
							"name": "",
							"type": "uint256"
						}
					],
					"stateMutability": "view",
					"type": "function"
				},
				{
					"inputs": [],
					"name": "getArr",
					"outputs": [
						{
							"internalType": "uint256[]",
							"name": "",
							"type": "uint256[]"
						}
					],
					"stateMutability": "view",
					"type": "function"
				},
				{
					"inputs": [
						{
							"internalType": "uint256",
							"name": "_index",
							"type": "uint256"
						}
					],
					"name": "remove",
					"outputs": [],
					"stateMutability": "nonpayable",
					"type": "function"
				}
			],
			"devdoc": {
				"kind": "dev",
				"methods": {},
				"version": 1
			},
			"evm": {
				"assembly": "    /* \"array_index_remove_by_shifting.sol\":62:703  contract ArrayIndexRemoveByShifting {... */\n  mstore(0x40, 0x80)\n    /* \"array_index_remove_by_shifting.sol\":105:128  uint[] public arr = [1] */\n  mload(0x40)\n  dup1\n  0x20\n  add\n  0x40\n  mstore\n  dup1\n    /* \"array_index_remove_by_shifting.sol\":126:127  1 */\n  0x01\n    /* \"array_index_remove_by_shifting.sol\":105:128  uint[] public arr = [1] */\n  0xff\n  and\n  dup2\n  mstore\n  pop\n  0x00\n  swap1\n  0x01\n  tag_1\n  swap3\n  swap2\n  swap1\n  tag_2\n  jump\t// in\ntag_1:\n  pop\n    /* \"array_index_remove_by_shifting.sol\":62:703  contract ArrayIndexRemoveByShifting {... */\n  callvalue\n  dup1\n  iszero\n  tag_3\n  jumpi\n  0x00\n  dup1\n  revert\ntag_3:\n  pop\n  jump(tag_4)\ntag_2:\n  dup3\n  dup1\n  sload\n  dup3\n  dup3\n  sstore\n  swap1\n  0x00\n  mstore\n  keccak256(0x00, 0x20)\n  swap1\n  dup2\n  add\n  swap3\n  dup3\n  iszero\n  tag_5\n  jumpi\n  swap2\n  0x20\n  mul\n  dup3\n  add\ntag_6:\n  dup3\n  dup2\n  gt\n  iszero\n  tag_7\n  jumpi\n  dup3\n  mload\n  dup3\n  swap1\n  0xff\n  and\n  swap1\n  sstore\n  swap2\n  0x20\n  add\n  swap2\n  swap1\n  0x01\n  add\n  swap1\n  jump(tag_6)\ntag_7:\ntag_5:\n  pop\n  swap1\n  pop\n  tag_8\n  swap2\n  swap1\n  tag_9\n  jump\t// in\ntag_8:\n  pop\n  swap1\n  jump\t// out\ntag_9:\ntag_10:\n  dup1\n  dup3\n  gt\n  iszero\n  tag_11\n  jumpi\n  0x00\n  dup2\n  0x00\n  swap1\n  sstore\n  pop\n  0x01\n  add\n  jump(tag_10)\ntag_11:\n  pop\n  swap1\n  jump\t// out\ntag_4:\n  dataSize(sub_0)\n  dup1\n  dataOffset(sub_0)\n  0x00\n  codecopy\n  0x00\n  return\nstop\n\nsub_0: assembly {\n        /* \"array_index_remove_by_shifting.sol\":62:703  contract ArrayIndexRemoveByShifting {... */\n      mstore(0x40, 0x80)\n      callvalue\n      dup1\n      iszero\n      tag_1\n      jumpi\n      0x00\n      dup1\n      revert\n    tag_1:\n      pop\n      jumpi(tag_2, lt(calldatasize, 0x04))\n      shr(0xe0, calldataload(0x00))\n      dup1\n      0x4cc82215\n      eq\n      tag_3\n      jumpi\n      dup1\n      0x71e5ee5f\n      eq\n      tag_4\n      jumpi\n      dup1\n      0xfb8cbced\n      eq\n      tag_5\n      jumpi\n    tag_2:\n      0x00\n      dup1\n      revert\n        /* \"array_index_remove_by_shifting.sol\":135:610  function remove(uint _index) public {... */\n    tag_3:\n      tag_6\n      0x04\n      dup1\n      calldatasize\n      sub\n      dup2\n      add\n      swap1\n      tag_7\n      swap2\n      swap1\n      tag_8\n      jump\t// in\n    tag_7:\n      tag_9\n      jump\t// in\n    tag_6:\n      stop\n        /* \"array_index_remove_by_shifting.sol\":105:128  uint[] public arr = [1] */\n    tag_4:\n      tag_10\n      0x04\n      dup1\n      calldatasize\n      sub\n      dup2\n      add\n      swap1\n      tag_11\n      swap2\n      swap1\n      tag_8\n      jump\t// in\n    tag_11:\n      tag_12\n      jump\t// in\n    tag_10:\n      mload(0x40)\n      tag_13\n      swap2\n      swap1\n      tag_14\n      jump\t// in\n    tag_13:\n      mload(0x40)\n      dup1\n      swap2\n      sub\n      swap1\n      return\n        /* \"array_index_remove_by_shifting.sol\":618:700  function getArr() public view returns(uint[] memory) {... */\n    tag_5:\n      tag_15\n      tag_16\n      jump\t// in\n    tag_15:\n      mload(0x40)\n      tag_17\n      swap2\n      swap1\n      tag_18\n      jump\t// in\n    tag_17:\n      mload(0x40)\n      dup1\n      swap2\n      sub\n      swap1\n      return\n        /* \"array_index_remove_by_shifting.sol\":135:610  function remove(uint _index) public {... */\n    tag_9:\n        /* \"array_index_remove_by_shifting.sol\":238:239  0 */\n      0x00\n        /* \"array_index_remove_by_shifting.sol\":225:228  arr */\n      dup1\n        /* \"array_index_remove_by_shifting.sol\":225:235  arr.length */\n      dup1\n      sload\n      swap1\n      pop\n        /* \"array_index_remove_by_shifting.sol\":225:239  arr.length > 0 */\n      gt\n        /* \"array_index_remove_by_shifting.sol\":217:264  require(arr.length > 0, \"Array can't be empty\") */\n      tag_20\n      jumpi\n      mload(0x40)\n      0x08c379a000000000000000000000000000000000000000000000000000000000\n      dup2\n      mstore\n      0x04\n      add\n      tag_21\n      swap1\n      tag_22\n      jump\t// in\n    tag_21:\n      mload(0x40)\n      dup1\n      swap2\n      sub\n      swap1\n      revert\n    tag_20:\n        /* \"array_index_remove_by_shifting.sol\":342:343  1 */\n      0x01\n        /* \"array_index_remove_by_shifting.sol\":329:332  arr */\n      0x00\n        /* \"array_index_remove_by_shifting.sol\":329:339  arr.length */\n      dup1\n      sload\n      swap1\n      pop\n        /* \"array_index_remove_by_shifting.sol\":329:343  arr.length - 1 */\n      tag_23\n      swap2\n      swap1\n      tag_24\n      jump\t// in\n    tag_23:\n        /* \"array_index_remove_by_shifting.sol\":318:324  _index */\n      dup2\n        /* \"array_index_remove_by_shifting.sol\":318:344  _index <= (arr.length - 1) */\n      gt\n      iszero\n        /* \"array_index_remove_by_shifting.sol\":310:362  require(_index <= (arr.length - 1), \"Invalid Index\") */\n      tag_25\n      jumpi\n      mload(0x40)\n      0x08c379a000000000000000000000000000000000000000000000000000000000\n      dup2\n      mstore\n      0x04\n      add\n      tag_26\n      swap1\n      tag_27\n      jump\t// in\n    tag_26:\n      mload(0x40)\n      dup1\n      swap2\n      sub\n      swap1\n      revert\n    tag_25:\n        /* \"array_index_remove_by_shifting.sol\":460:466  uint i */\n      0x00\n        /* \"array_index_remove_by_shifting.sol\":468:474  _index */\n      dup2\n        /* \"array_index_remove_by_shifting.sol\":460:474  uint i= _index */\n      swap1\n      pop\n        /* \"array_index_remove_by_shifting.sol\":456:545  for(uint i= _index; i < arr.length -1 ; i++) {... */\n    tag_28:\n        /* \"array_index_remove_by_shifting.sol\":492:493  1 */\n      0x01\n        /* \"array_index_remove_by_shifting.sol\":480:483  arr */\n      0x00\n        /* \"array_index_remove_by_shifting.sol\":480:490  arr.length */\n      dup1\n      sload\n      swap1\n      pop\n        /* \"array_index_remove_by_shifting.sol\":480:493  arr.length -1 */\n      tag_31\n      swap2\n      swap1\n      tag_24\n      jump\t// in\n    tag_31:\n        /* \"array_index_remove_by_shifting.sol\":476:477  i */\n      dup2\n        /* \"array_index_remove_by_shifting.sol\":476:493  i < arr.length -1 */\n      lt\n        /* \"array_index_remove_by_shifting.sol\":456:545  for(uint i= _index; i < arr.length -1 ; i++) {... */\n      iszero\n      tag_29\n      jumpi\n        /* \"array_index_remove_by_shifting.sol\":525:528  arr */\n      0x00\n        /* \"array_index_remove_by_shifting.sol\":531:532  1 */\n      0x01\n        /* \"array_index_remove_by_shifting.sol\":529:530  i */\n      dup3\n        /* \"array_index_remove_by_shifting.sol\":529:532  i+1 */\n      tag_32\n      swap2\n      swap1\n      tag_33\n      jump\t// in\n    tag_32:\n        /* \"array_index_remove_by_shifting.sol\":525:533  arr[i+1] */\n      dup2\n      sload\n      dup2\n      lt\n      tag_34\n      jumpi\n      tag_35\n      tag_36\n      jump\t// in\n    tag_35:\n    tag_34:\n      swap1\n      0x00\n      mstore\n      keccak256(0x00, 0x20)\n      add\n      sload\n        /* \"array_index_remove_by_shifting.sol\":516:519  arr */\n      0x00\n        /* \"array_index_remove_by_shifting.sol\":520:521  i */\n      dup3\n        /* \"array_index_remove_by_shifting.sol\":516:522  arr[i] */\n      dup2\n      sload\n      dup2\n      lt\n      tag_38\n      jumpi\n      tag_39\n      tag_36\n      jump\t// in\n    tag_39:\n    tag_38:\n      swap1\n      0x00\n      mstore\n      keccak256(0x00, 0x20)\n      add\n        /* \"array_index_remove_by_shifting.sol\":516:533  arr[i] = arr[i+1] */\n      dup2\n      swap1\n      sstore\n      pop\n        /* \"array_index_remove_by_shifting.sol\":496:499  i++ */\n      dup1\n      dup1\n      tag_41\n      swap1\n      tag_42\n      jump\t// in\n    tag_41:\n      swap2\n      pop\n      pop\n        /* \"array_index_remove_by_shifting.sol\":456:545  for(uint i= _index; i < arr.length -1 ; i++) {... */\n      jump(tag_28)\n    tag_29:\n      pop\n        /* \"array_index_remove_by_shifting.sol\":593:596  arr */\n      0x00\n        /* \"array_index_remove_by_shifting.sol\":593:602  arr.pop() */\n      dup1\n      sload\n      dup1\n      tag_43\n      jumpi\n      tag_44\n      tag_45\n      jump\t// in\n    tag_44:\n    tag_43:\n      0x01\n      swap1\n      sub\n      dup2\n      dup2\n      swap1\n      0x00\n      mstore\n      keccak256(0x00, 0x20)\n      add\n      0x00\n      swap1\n      sstore\n      swap1\n      sstore\n        /* \"array_index_remove_by_shifting.sol\":135:610  function remove(uint _index) public {... */\n      pop\n      jump\t// out\n        /* \"array_index_remove_by_shifting.sol\":105:128  uint[] public arr = [1] */\n    tag_12:\n      0x00\n      dup2\n      dup2\n      sload\n      dup2\n      lt\n      tag_47\n      jumpi\n      0x00\n      dup1\n      revert\n    tag_47:\n      swap1\n      0x00\n      mstore\n      keccak256(0x00, 0x20)\n      add\n      0x00\n      swap2\n      pop\n      swap1\n      pop\n      sload\n      dup2\n      jump\t// out\n        /* \"array_index_remove_by_shifting.sol\":618:700  function getArr() public view returns(uint[] memory) {... */\n    tag_16:\n        /* \"array_index_remove_by_shifting.sol\":656:669  uint[] memory */\n      0x60\n        /* \"array_index_remove_by_shifting.sol\":689:692  arr */\n      0x00\n        /* \"array_index_remove_by_shifting.sol\":682:692  return arr */\n      dup1\n      sload\n      dup1\n      0x20\n      mul\n      0x20\n      add\n      mload(0x40)\n      swap1\n      dup2\n      add\n      0x40\n      mstore\n      dup1\n      swap3\n      swap2\n      swap1\n      dup2\n      dup2\n      mstore\n      0x20\n      add\n      dup3\n      dup1\n      sload\n      dup1\n      iszero\n      tag_50\n      jumpi\n      0x20\n      mul\n      dup3\n      add\n      swap2\n      swap1\n      0x00\n      mstore\n      keccak256(0x00, 0x20)\n      swap1\n    tag_51:\n      dup2\n      sload\n      dup2\n      mstore\n      0x20\n      add\n      swap1\n      0x01\n      add\n      swap1\n      dup1\n      dup4\n      gt\n      tag_51\n      jumpi\n    tag_50:\n      pop\n      pop\n      pop\n      pop\n      pop\n      swap1\n      pop\n        /* \"array_index_remove_by_shifting.sol\":618:700  function getArr() public view returns(uint[] memory) {... */\n      swap1\n      jump\t// out\n        /* \"#utility.yul\":88:205   */\n    tag_53:\n        /* \"#utility.yul\":197:198   */\n      0x00\n        /* \"#utility.yul\":194:195   */\n      dup1\n        /* \"#utility.yul\":187:199   */\n      revert\n        /* \"#utility.yul\":334:411   */\n    tag_55:\n        /* \"#utility.yul\":371:378   */\n      0x00\n        /* \"#utility.yul\":400:405   */\n      dup2\n        /* \"#utility.yul\":389:405   */\n      swap1\n      pop\n        /* \"#utility.yul\":334:411   */\n      swap2\n      swap1\n      pop\n      jump\t// out\n        /* \"#utility.yul\":417:539   */\n    tag_56:\n        /* \"#utility.yul\":490:514   */\n      tag_78\n        /* \"#utility.yul\":508:513   */\n      dup2\n        /* \"#utility.yul\":490:514   */\n      tag_55\n      jump\t// in\n    tag_78:\n        /* \"#utility.yul\":483:488   */\n      dup2\n        /* \"#utility.yul\":480:515   */\n      eq\n        /* \"#utility.yul\":470:533   */\n      tag_79\n      jumpi\n        /* \"#utility.yul\":529:530   */\n      0x00\n        /* \"#utility.yul\":526:527   */\n      dup1\n        /* \"#utility.yul\":519:531   */\n      revert\n        /* \"#utility.yul\":470:533   */\n    tag_79:\n        /* \"#utility.yul\":417:539   */\n      pop\n      jump\t// out\n        /* \"#utility.yul\":545:684   */\n    tag_57:\n        /* \"#utility.yul\":591:596   */\n      0x00\n        /* \"#utility.yul\":629:635   */\n      dup2\n        /* \"#utility.yul\":616:636   */\n      calldataload\n        /* \"#utility.yul\":607:636   */\n      swap1\n      pop\n        /* \"#utility.yul\":645:678   */\n      tag_81\n        /* \"#utility.yul\":672:677   */\n      dup2\n        /* \"#utility.yul\":645:678   */\n      tag_56\n      jump\t// in\n    tag_81:\n        /* \"#utility.yul\":545:684   */\n      swap3\n      swap2\n      pop\n      pop\n      jump\t// out\n        /* \"#utility.yul\":690:1019   */\n    tag_8:\n        /* \"#utility.yul\":749:755   */\n      0x00\n        /* \"#utility.yul\":798:800   */\n      0x20\n        /* \"#utility.yul\":786:795   */\n      dup3\n        /* \"#utility.yul\":777:784   */\n      dup5\n        /* \"#utility.yul\":773:796   */\n      sub\n        /* \"#utility.yul\":769:801   */\n      slt\n        /* \"#utility.yul\":766:885   */\n      iszero\n      tag_83\n      jumpi\n        /* \"#utility.yul\":804:883   */\n      tag_84\n      tag_53\n      jump\t// in\n    tag_84:\n        /* \"#utility.yul\":766:885   */\n    tag_83:\n        /* \"#utility.yul\":924:925   */\n      0x00\n        /* \"#utility.yul\":949:1002   */\n      tag_85\n        /* \"#utility.yul\":994:1001   */\n      dup5\n        /* \"#utility.yul\":985:991   */\n      dup3\n        /* \"#utility.yul\":974:983   */\n      dup6\n        /* \"#utility.yul\":970:992   */\n      add\n        /* \"#utility.yul\":949:1002   */\n      tag_57\n      jump\t// in\n    tag_85:\n        /* \"#utility.yul\":939:1002   */\n      swap2\n      pop\n        /* \"#utility.yul\":895:1012   */\n      pop\n        /* \"#utility.yul\":690:1019   */\n      swap3\n      swap2\n      pop\n      pop\n      jump\t// out\n        /* \"#utility.yul\":1025:1143   */\n    tag_58:\n        /* \"#utility.yul\":1112:1136   */\n      tag_87\n        /* \"#utility.yul\":1130:1135   */\n      dup2\n        /* \"#utility.yul\":1112:1136   */\n      tag_55\n      jump\t// in\n    tag_87:\n        /* \"#utility.yul\":1107:1110   */\n      dup3\n        /* \"#utility.yul\":1100:1137   */\n      mstore\n        /* \"#utility.yul\":1025:1143   */\n      pop\n      pop\n      jump\t// out\n        /* \"#utility.yul\":1149:1371   */\n    tag_14:\n        /* \"#utility.yul\":1242:1246   */\n      0x00\n        /* \"#utility.yul\":1280:1282   */\n      0x20\n        /* \"#utility.yul\":1269:1278   */\n      dup3\n        /* \"#utility.yul\":1265:1283   */\n      add\n        /* \"#utility.yul\":1257:1283   */\n      swap1\n      pop\n        /* \"#utility.yul\":1293:1364   */\n      tag_89\n        /* \"#utility.yul\":1361:1362   */\n      0x00\n        /* \"#utility.yul\":1350:1359   */\n      dup4\n        /* \"#utility.yul\":1346:1363   */\n      add\n        /* \"#utility.yul\":1337:1343   */\n      dup5\n        /* \"#utility.yul\":1293:1364   */\n      tag_58\n      jump\t// in\n    tag_89:\n        /* \"#utility.yul\":1149:1371   */\n      swap3\n      swap2\n      pop\n      pop\n      jump\t// out\n        /* \"#utility.yul\":1377:1491   */\n    tag_59:\n        /* \"#utility.yul\":1444:1450   */\n      0x00\n        /* \"#utility.yul\":1478:1483   */\n      dup2\n        /* \"#utility.yul\":1472:1484   */\n      mload\n        /* \"#utility.yul\":1462:1484   */\n      swap1\n      pop\n        /* \"#utility.yul\":1377:1491   */\n      swap2\n      swap1\n      pop\n      jump\t// out\n        /* \"#utility.yul\":1497:1681   */\n    tag_60:\n        /* \"#utility.yul\":1596:1607   */\n      0x00\n        /* \"#utility.yul\":1630:1636   */\n      dup3\n        /* \"#utility.yul\":1625:1628   */\n      dup3\n        /* \"#utility.yul\":1618:1637   */\n      mstore\n        /* \"#utility.yul\":1670:1674   */\n      0x20\n        /* \"#utility.yul\":1665:1668   */\n      dup3\n        /* \"#utility.yul\":1661:1675   */\n      add\n        /* \"#utility.yul\":1646:1675   */\n      swap1\n      pop\n        /* \"#utility.yul\":1497:1681   */\n      swap3\n      swap2\n      pop\n      pop\n      jump\t// out\n        /* \"#utility.yul\":1687:1819   */\n    tag_61:\n        /* \"#utility.yul\":1754:1758   */\n      0x00\n        /* \"#utility.yul\":1777:1780   */\n      dup2\n        /* \"#utility.yul\":1769:1780   */\n      swap1\n      pop\n        /* \"#utility.yul\":1807:1811   */\n      0x20\n        /* \"#utility.yul\":1802:1805   */\n      dup3\n        /* \"#utility.yul\":1798:1812   */\n      add\n        /* \"#utility.yul\":1790:1812   */\n      swap1\n      pop\n        /* \"#utility.yul\":1687:1819   */\n      swap2\n      swap1\n      pop\n      jump\t// out\n        /* \"#utility.yul\":1825:1933   */\n    tag_62:\n        /* \"#utility.yul\":1902:1926   */\n      tag_94\n        /* \"#utility.yul\":1920:1925   */\n      dup2\n        /* \"#utility.yul\":1902:1926   */\n      tag_55\n      jump\t// in\n    tag_94:\n        /* \"#utility.yul\":1897:1900   */\n      dup3\n        /* \"#utility.yul\":1890:1927   */\n      mstore\n        /* \"#utility.yul\":1825:1933   */\n      pop\n      pop\n      jump\t// out\n        /* \"#utility.yul\":1939:2118   */\n    tag_63:\n        /* \"#utility.yul\":2008:2018   */\n      0x00\n        /* \"#utility.yul\":2029:2075   */\n      tag_96\n        /* \"#utility.yul\":2071:2074   */\n      dup4\n        /* \"#utility.yul\":2063:2069   */\n      dup4\n        /* \"#utility.yul\":2029:2075   */\n      tag_62\n      jump\t// in\n    tag_96:\n        /* \"#utility.yul\":2107:2111   */\n      0x20\n        /* \"#utility.yul\":2102:2105   */\n      dup4\n        /* \"#utility.yul\":2098:2112   */\n      add\n        /* \"#utility.yul\":2084:2112   */\n      swap1\n      pop\n        /* \"#utility.yul\":1939:2118   */\n      swap3\n      swap2\n      pop\n      pop\n      jump\t// out\n        /* \"#utility.yul\":2124:2237   */\n    tag_64:\n        /* \"#utility.yul\":2194:2198   */\n      0x00\n        /* \"#utility.yul\":2226:2230   */\n      0x20\n        /* \"#utility.yul\":2221:2224   */\n      dup3\n        /* \"#utility.yul\":2217:2231   */\n      add\n        /* \"#utility.yul\":2209:2231   */\n      swap1\n      pop\n        /* \"#utility.yul\":2124:2237   */\n      swap2\n      swap1\n      pop\n      jump\t// out\n        /* \"#utility.yul\":2273:3005   */\n    tag_65:\n        /* \"#utility.yul\":2392:2395   */\n      0x00\n        /* \"#utility.yul\":2421:2475   */\n      tag_99\n        /* \"#utility.yul\":2469:2474   */\n      dup3\n        /* \"#utility.yul\":2421:2475   */\n      tag_59\n      jump\t// in\n    tag_99:\n        /* \"#utility.yul\":2491:2577   */\n      tag_100\n        /* \"#utility.yul\":2570:2576   */\n      dup2\n        /* \"#utility.yul\":2565:2568   */\n      dup6\n        /* \"#utility.yul\":2491:2577   */\n      tag_60\n      jump\t// in\n    tag_100:\n        /* \"#utility.yul\":2484:2577   */\n      swap4\n      pop\n        /* \"#utility.yul\":2601:2657   */\n      tag_101\n        /* \"#utility.yul\":2651:2656   */\n      dup4\n        /* \"#utility.yul\":2601:2657   */\n      tag_61\n      jump\t// in\n    tag_101:\n        /* \"#utility.yul\":2680:2687   */\n      dup1\n        /* \"#utility.yul\":2711:2712   */\n      0x00\n        /* \"#utility.yul\":2696:2980   */\n    tag_102:\n        /* \"#utility.yul\":2721:2727   */\n      dup4\n        /* \"#utility.yul\":2718:2719   */\n      dup2\n        /* \"#utility.yul\":2715:2728   */\n      lt\n        /* \"#utility.yul\":2696:2980   */\n      iszero\n      tag_104\n      jumpi\n        /* \"#utility.yul\":2797:2803   */\n      dup2\n        /* \"#utility.yul\":2791:2804   */\n      mload\n        /* \"#utility.yul\":2824:2887   */\n      tag_105\n        /* \"#utility.yul\":2883:2886   */\n      dup9\n        /* \"#utility.yul\":2868:2881   */\n      dup3\n        /* \"#utility.yul\":2824:2887   */\n      tag_63\n      jump\t// in\n    tag_105:\n        /* \"#utility.yul\":2817:2887   */\n      swap8\n      pop\n        /* \"#utility.yul\":2910:2970   */\n      tag_106\n        /* \"#utility.yul\":2963:2969   */\n      dup4\n        /* \"#utility.yul\":2910:2970   */\n      tag_64\n      jump\t// in\n    tag_106:\n        /* \"#utility.yul\":2900:2970   */\n      swap3\n      pop\n        /* \"#utility.yul\":2756:2980   */\n      pop\n        /* \"#utility.yul\":2743:2744   */\n      0x01\n        /* \"#utility.yul\":2740:2741   */\n      dup2\n        /* \"#utility.yul\":2736:2745   */\n      add\n        /* \"#utility.yul\":2731:2745   */\n      swap1\n      pop\n        /* \"#utility.yul\":2696:2980   */\n      jump(tag_102)\n    tag_104:\n        /* \"#utility.yul\":2700:2714   */\n      pop\n        /* \"#utility.yul\":2996:2999   */\n      dup6\n        /* \"#utility.yul\":2989:2999   */\n      swap4\n      pop\n        /* \"#utility.yul\":2397:3005   */\n      pop\n      pop\n      pop\n        /* \"#utility.yul\":2273:3005   */\n      swap3\n      swap2\n      pop\n      pop\n      jump\t// out\n        /* \"#utility.yul\":3011:3384   */\n    tag_18:\n        /* \"#utility.yul\":3154:3158   */\n      0x00\n        /* \"#utility.yul\":3192:3194   */\n      0x20\n        /* \"#utility.yul\":3181:3190   */\n      dup3\n        /* \"#utility.yul\":3177:3195   */\n      add\n        /* \"#utility.yul\":3169:3195   */\n      swap1\n      pop\n        /* \"#utility.yul\":3241:3250   */\n      dup2\n        /* \"#utility.yul\":3235:3239   */\n      dup2\n        /* \"#utility.yul\":3231:3251   */\n      sub\n        /* \"#utility.yul\":3227:3228   */\n      0x00\n        /* \"#utility.yul\":3216:3225   */\n      dup4\n        /* \"#utility.yul\":3212:3229   */\n      add\n        /* \"#utility.yul\":3205:3252   */\n      mstore\n        /* \"#utility.yul\":3269:3377   */\n      tag_108\n        /* \"#utility.yul\":3372:3376   */\n      dup2\n        /* \"#utility.yul\":3363:3369   */\n      dup5\n        /* \"#utility.yul\":3269:3377   */\n      tag_65\n      jump\t// in\n    tag_108:\n        /* \"#utility.yul\":3261:3377   */\n      swap1\n      pop\n        /* \"#utility.yul\":3011:3384   */\n      swap3\n      swap2\n      pop\n      pop\n      jump\t// out\n        /* \"#utility.yul\":3390:3559   */\n    tag_66:\n        /* \"#utility.yul\":3474:3485   */\n      0x00\n        /* \"#utility.yul\":3508:3514   */\n      dup3\n        /* \"#utility.yul\":3503:3506   */\n      dup3\n        /* \"#utility.yul\":3496:3515   */\n      mstore\n        /* \"#utility.yul\":3548:3552   */\n      0x20\n        /* \"#utility.yul\":3543:3546   */\n      dup3\n        /* \"#utility.yul\":3539:3553   */\n      add\n        /* \"#utility.yul\":3524:3553   */\n      swap1\n      pop\n        /* \"#utility.yul\":3390:3559   */\n      swap3\n      swap2\n      pop\n      pop\n      jump\t// out\n        /* \"#utility.yul\":3565:3735   */\n    tag_67:\n        /* \"#utility.yul\":3705:3727   */\n      0x41727261792063616e277420626520656d707479000000000000000000000000\n        /* \"#utility.yul\":3701:3702   */\n      0x00\n        /* \"#utility.yul\":3693:3699   */\n      dup3\n        /* \"#utility.yul\":3689:3703   */\n      add\n        /* \"#utility.yul\":3682:3728   */\n      mstore\n        /* \"#utility.yul\":3565:3735   */\n      pop\n      jump\t// out\n        /* \"#utility.yul\":3741:4107   */\n    tag_68:\n        /* \"#utility.yul\":3883:3886   */\n      0x00\n        /* \"#utility.yul\":3904:3971   */\n      tag_112\n        /* \"#utility.yul\":3968:3970   */\n      0x14\n        /* \"#utility.yul\":3963:3966   */\n      dup4\n        /* \"#utility.yul\":3904:3971   */\n      tag_66\n      jump\t// in\n    tag_112:\n        /* \"#utility.yul\":3897:3971   */\n      swap2\n      pop\n        /* \"#utility.yul\":3980:4073   */\n      tag_113\n        /* \"#utility.yul\":4069:4072   */\n      dup3\n        /* \"#utility.yul\":3980:4073   */\n      tag_67\n      jump\t// in\n    tag_113:\n        /* \"#utility.yul\":4098:4100   */\n      0x20\n        /* \"#utility.yul\":4093:4096   */\n      dup3\n        /* \"#utility.yul\":4089:4101   */\n      add\n        /* \"#utility.yul\":4082:4101   */\n      swap1\n      pop\n        /* \"#utility.yul\":3741:4107   */\n      swap2\n      swap1\n      pop\n      jump\t// out\n        /* \"#utility.yul\":4113:4532   */\n    tag_22:\n        /* \"#utility.yul\":4279:4283   */\n      0x00\n        /* \"#utility.yul\":4317:4319   */\n      0x20\n        /* \"#utility.yul\":4306:4315   */\n      dup3\n        /* \"#utility.yul\":4302:4320   */\n      add\n        /* \"#utility.yul\":4294:4320   */\n      swap1\n      pop\n        /* \"#utility.yul\":4366:4375   */\n      dup2\n        /* \"#utility.yul\":4360:4364   */\n      dup2\n        /* \"#utility.yul\":4356:4376   */\n      sub\n        /* \"#utility.yul\":4352:4353   */\n      0x00\n        /* \"#utility.yul\":4341:4350   */\n      dup4\n        /* \"#utility.yul\":4337:4354   */\n      add\n        /* \"#utility.yul\":4330:4377   */\n      mstore\n        /* \"#utility.yul\":4394:4525   */\n      tag_115\n        /* \"#utility.yul\":4520:4524   */\n      dup2\n        /* \"#utility.yul\":4394:4525   */\n      tag_68\n      jump\t// in\n    tag_115:\n        /* \"#utility.yul\":4386:4525   */\n      swap1\n      pop\n        /* \"#utility.yul\":4113:4532   */\n      swap2\n      swap1\n      pop\n      jump\t// out\n        /* \"#utility.yul\":4538:4718   */\n    tag_69:\n        /* \"#utility.yul\":4586:4663   */\n      0x4e487b7100000000000000000000000000000000000000000000000000000000\n        /* \"#utility.yul\":4583:4584   */\n      0x00\n        /* \"#utility.yul\":4576:4664   */\n      mstore\n        /* \"#utility.yul\":4683:4687   */\n      0x11\n        /* \"#utility.yul\":4680:4681   */\n      0x04\n        /* \"#utility.yul\":4673:4688   */\n      mstore\n        /* \"#utility.yul\":4707:4711   */\n      0x24\n        /* \"#utility.yul\":4704:4705   */\n      0x00\n        /* \"#utility.yul\":4697:4712   */\n      revert\n        /* \"#utility.yul\":4724:4915   */\n    tag_24:\n        /* \"#utility.yul\":4764:4768   */\n      0x00\n        /* \"#utility.yul\":4784:4804   */\n      tag_118\n        /* \"#utility.yul\":4802:4803   */\n      dup3\n        /* \"#utility.yul\":4784:4804   */\n      tag_55\n      jump\t// in\n    tag_118:\n        /* \"#utility.yul\":4779:4804   */\n      swap2\n      pop\n        /* \"#utility.yul\":4818:4838   */\n      tag_119\n        /* \"#utility.yul\":4836:4837   */\n      dup4\n        /* \"#utility.yul\":4818:4838   */\n      tag_55\n      jump\t// in\n    tag_119:\n        /* \"#utility.yul\":4813:4838   */\n      swap3\n      pop\n        /* \"#utility.yul\":4857:4858   */\n      dup3\n        /* \"#utility.yul\":4854:4855   */\n      dup3\n        /* \"#utility.yul\":4851:4859   */\n      lt\n        /* \"#utility.yul\":4848:4882   */\n      iszero\n      tag_120\n      jumpi\n        /* \"#utility.yul\":4862:4880   */\n      tag_121\n      tag_69\n      jump\t// in\n    tag_121:\n        /* \"#utility.yul\":4848:4882   */\n    tag_120:\n        /* \"#utility.yul\":4907:4908   */\n      dup3\n        /* \"#utility.yul\":4904:4905   */\n      dup3\n        /* \"#utility.yul\":4900:4909   */\n      sub\n        /* \"#utility.yul\":4892:4909   */\n      swap1\n      pop\n        /* \"#utility.yul\":4724:4915   */\n      swap3\n      swap2\n      pop\n      pop\n      jump\t// out\n        /* \"#utility.yul\":4921:5084   */\n    tag_70:\n        /* \"#utility.yul\":5061:5076   */\n      0x496e76616c696420496e64657800000000000000000000000000000000000000\n        /* \"#utility.yul\":5057:5058   */\n      0x00\n        /* \"#utility.yul\":5049:5055   */\n      dup3\n        /* \"#utility.yul\":5045:5059   */\n      add\n        /* \"#utility.yul\":5038:5077   */\n      mstore\n        /* \"#utility.yul\":4921:5084   */\n      pop\n      jump\t// out\n        /* \"#utility.yul\":5090:5456   */\n    tag_71:\n        /* \"#utility.yul\":5232:5235   */\n      0x00\n        /* \"#utility.yul\":5253:5320   */\n      tag_124\n        /* \"#utility.yul\":5317:5319   */\n      0x0d\n        /* \"#utility.yul\":5312:5315   */\n      dup4\n        /* \"#utility.yul\":5253:5320   */\n      tag_66\n      jump\t// in\n    tag_124:\n        /* \"#utility.yul\":5246:5320   */\n      swap2\n      pop\n        /* \"#utility.yul\":5329:5422   */\n      tag_125\n        /* \"#utility.yul\":5418:5421   */\n      dup3\n        /* \"#utility.yul\":5329:5422   */\n      tag_70\n      jump\t// in\n    tag_125:\n        /* \"#utility.yul\":5447:5449   */\n      0x20\n        /* \"#utility.yul\":5442:5445   */\n      dup3\n        /* \"#utility.yul\":5438:5450   */\n      add\n        /* \"#utility.yul\":5431:5450   */\n      swap1\n      pop\n        /* \"#utility.yul\":5090:5456   */\n      swap2\n      swap1\n      pop\n      jump\t// out\n        /* \"#utility.yul\":5462:5881   */\n    tag_27:\n        /* \"#utility.yul\":5628:5632   */\n      0x00\n        /* \"#utility.yul\":5666:5668   */\n      0x20\n        /* \"#utility.yul\":5655:5664   */\n      dup3\n        /* \"#utility.yul\":5651:5669   */\n      add\n        /* \"#utility.yul\":5643:5669   */\n      swap1\n      pop\n        /* \"#utility.yul\":5715:5724   */\n      dup2\n        /* \"#utility.yul\":5709:5713   */\n      dup2\n        /* \"#utility.yul\":5705:5725   */\n      sub\n        /* \"#utility.yul\":5701:5702   */\n      0x00\n        /* \"#utility.yul\":5690:5699   */\n      dup4\n        /* \"#utility.yul\":5686:5703   */\n      add\n        /* \"#utility.yul\":5679:5726   */\n      mstore\n        /* \"#utility.yul\":5743:5874   */\n      tag_127\n        /* \"#utility.yul\":5869:5873   */\n      dup2\n        /* \"#utility.yul\":5743:5874   */\n      tag_71\n      jump\t// in\n    tag_127:\n        /* \"#utility.yul\":5735:5874   */\n      swap1\n      pop\n        /* \"#utility.yul\":5462:5881   */\n      swap2\n      swap1\n      pop\n      jump\t// out\n        /* \"#utility.yul\":5887:6192   */\n    tag_33:\n        /* \"#utility.yul\":5927:5930   */\n      0x00\n        /* \"#utility.yul\":5946:5966   */\n      tag_129\n        /* \"#utility.yul\":5964:5965   */\n      dup3\n        /* \"#utility.yul\":5946:5966   */\n      tag_55\n      jump\t// in\n    tag_129:\n        /* \"#utility.yul\":5941:5966   */\n      swap2\n      pop\n        /* \"#utility.yul\":5980:6000   */\n      tag_130\n        /* \"#utility.yul\":5998:5999   */\n      dup4\n        /* \"#utility.yul\":5980:6000   */\n      tag_55\n      jump\t// in\n    tag_130:\n        /* \"#utility.yul\":5975:6000   */\n      swap3\n      pop\n        /* \"#utility.yul\":6134:6135   */\n      dup3\n        /* \"#utility.yul\":6066:6132   */\n      0xffffffffffffffffffffffffffffffffffffffffffffffffffffffffffffffff\n        /* \"#utility.yul\":6062:6136   */\n      sub\n        /* \"#utility.yul\":6059:6060   */\n      dup3\n        /* \"#utility.yul\":6056:6137   */\n      gt\n        /* \"#utility.yul\":6053:6160   */\n      iszero\n      tag_131\n      jumpi\n        /* \"#utility.yul\":6140:6158   */\n      tag_132\n      tag_69\n      jump\t// in\n    tag_132:\n        /* \"#utility.yul\":6053:6160   */\n    tag_131:\n        /* \"#utility.yul\":6184:6185   */\n      dup3\n        /* \"#utility.yul\":6181:6182   */\n      dup3\n        /* \"#utility.yul\":6177:6186   */\n      add\n        /* \"#utility.yul\":6170:6186   */\n      swap1\n      pop\n        /* \"#utility.yul\":5887:6192   */\n      swap3\n      swap2\n      pop\n      pop\n      jump\t// out\n        /* \"#utility.yul\":6198:6378   */\n    tag_36:\n        /* \"#utility.yul\":6246:6323   */\n      0x4e487b7100000000000000000000000000000000000000000000000000000000\n        /* \"#utility.yul\":6243:6244   */\n      0x00\n        /* \"#utility.yul\":6236:6324   */\n      mstore\n        /* \"#utility.yul\":6343:6347   */\n      0x32\n        /* \"#utility.yul\":6340:6341   */\n      0x04\n        /* \"#utility.yul\":6333:6348   */\n      mstore\n        /* \"#utility.yul\":6367:6371   */\n      0x24\n        /* \"#utility.yul\":6364:6365   */\n      0x00\n        /* \"#utility.yul\":6357:6372   */\n      revert\n        /* \"#utility.yul\":6384:6617   */\n    tag_42:\n        /* \"#utility.yul\":6423:6426   */\n      0x00\n        /* \"#utility.yul\":6446:6470   */\n      tag_135\n        /* \"#utility.yul\":6464:6469   */\n      dup3\n        /* \"#utility.yul\":6446:6470   */\n      tag_55\n      jump\t// in\n    tag_135:\n        /* \"#utility.yul\":6437:6470   */\n      swap2\n      pop\n        /* \"#utility.yul\":6492:6558   */\n      0xffffffffffffffffffffffffffffffffffffffffffffffffffffffffffffffff\n        /* \"#utility.yul\":6485:6490   */\n      dup3\n        /* \"#utility.yul\":6482:6559   */\n      eq\n        /* \"#utility.yul\":6479:6582   */\n      iszero\n      tag_136\n      jumpi\n        /* \"#utility.yul\":6562:6580   */\n      tag_137\n      tag_69\n      jump\t// in\n    tag_137:\n        /* \"#utility.yul\":6479:6582   */\n    tag_136:\n        /* \"#utility.yul\":6609:6610   */\n      0x01\n        /* \"#utility.yul\":6602:6607   */\n      dup3\n        /* \"#utility.yul\":6598:6611   */\n      add\n        /* \"#utility.yul\":6591:6611   */\n      swap1\n      pop\n        /* \"#utility.yul\":6384:6617   */\n      swap2\n      swap1\n      pop\n      jump\t// out\n        /* \"#utility.yul\":6623:6803   */\n    tag_45:\n        /* \"#utility.yul\":6671:6748   */\n      0x4e487b7100000000000000000000000000000000000000000000000000000000\n        /* \"#utility.yul\":6668:6669   */\n      0x00\n        /* \"#utility.yul\":6661:6749   */\n      mstore\n        /* \"#utility.yul\":6768:6772   */\n      0x31\n        /* \"#utility.yul\":6765:6766   */\n      0x04\n        /* \"#utility.yul\":6758:6773   */\n      mstore\n        /* \"#utility.yul\":6792:6796   */\n      0x24\n        /* \"#utility.yul\":6789:6790   */\n      0x00\n        /* \"#utility.yul\":6782:6797   */\n      revert\n\n    auxdata: 0xa2646970667358221220d4d8d40a3353b19622127443dd0bdbcb3eeeb4379c269da52db4c7ed1f659b1b64736f6c63430008080033\n}\n",
				"bytecode": {
					"linkReferences": {},
					"object": "60806040526040518060200160405280600160ff16815250600090600161002792919061003a565b5034801561003457600080fd5b506100a9565b82805482825590600052602060002090810192821561007b579160200282015b8281111561007a578251829060ff1690559160200191906001019061005a565b5b509050610088919061008c565b5090565b5b808211156100a557600081600090555060010161008d565b5090565b610663806100b86000396000f3fe608060405234801561001057600080fd5b50600436106100415760003560e01c80634cc822151461004657806371e5ee5f14610062578063fb8cbced14610092575b600080fd5b610060600480360381019061005b91906102ad565b6100b0565b005b61007c600480360381019061007791906102ad565b6101f6565b60405161008991906102e9565b60405180910390f35b61009a61021a565b6040516100a791906103c2565b60405180910390f35b60008080549050116100f7576040517f08c379a00000000000000000000000000000000000000000000000000000000081526004016100ee90610441565b60405180910390fd5b60016000805490506101099190610490565b81111561014b576040517f08c379a000000000000000000000000000000000000000000000000000000000815260040161014290610510565b60405180910390fd5b60008190505b60016000805490506101639190610490565b8110156101ca5760006001826101799190610530565b8154811061018a57610189610586565b5b9060005260206000200154600082815481106101a9576101a8610586565b5b906000526020600020018190555080806101c2906105b5565b915050610151565b5060008054806101dd576101dc6105fe565b5b6001900381819060005260206000200160009055905550565b6000818154811061020657600080fd5b906000526020600020016000915090505481565b6060600080548060200260200160405190810160405280929190818152602001828054801561026857602002820191906000526020600020905b815481526020019060010190808311610254575b5050505050905090565b600080fd5b6000819050919050565b61028a81610277565b811461029557600080fd5b50565b6000813590506102a781610281565b92915050565b6000602082840312156102c3576102c2610272565b5b60006102d184828501610298565b91505092915050565b6102e381610277565b82525050565b60006020820190506102fe60008301846102da565b92915050565b600081519050919050565b600082825260208201905092915050565b6000819050602082019050919050565b61033981610277565b82525050565b600061034b8383610330565b60208301905092915050565b6000602082019050919050565b600061036f82610304565b610379818561030f565b935061038483610320565b8060005b838110156103b557815161039c888261033f565b97506103a783610357565b925050600181019050610388565b5085935050505092915050565b600060208201905081810360008301526103dc8184610364565b905092915050565b600082825260208201905092915050565b7f41727261792063616e277420626520656d707479000000000000000000000000600082015250565b600061042b6014836103e4565b9150610436826103f5565b602082019050919050565b6000602082019050818103600083015261045a8161041e565b9050919050565b7f4e487b7100000000000000000000000000000000000000000000000000000000600052601160045260246000fd5b600061049b82610277565b91506104a683610277565b9250828210156104b9576104b8610461565b5b828203905092915050565b7f496e76616c696420496e64657800000000000000000000000000000000000000600082015250565b60006104fa600d836103e4565b9150610505826104c4565b602082019050919050565b60006020820190508181036000830152610529816104ed565b9050919050565b600061053b82610277565b915061054683610277565b9250827fffffffffffffffffffffffffffffffffffffffffffffffffffffffffffffffff0382111561057b5761057a610461565b5b828201905092915050565b7f4e487b7100000000000000000000000000000000000000000000000000000000600052603260045260246000fd5b60006105c082610277565b91507fffffffffffffffffffffffffffffffffffffffffffffffffffffffffffffffff8214156105f3576105f2610461565b5b600182019050919050565b7f4e487b7100000000000000000000000000000000000000000000000000000000600052603160045260246000fdfea2646970667358221220d4d8d40a3353b19622127443dd0bdbcb3eeeb4379c269da52db4c7ed1f659b1b64736f6c63430008080033",
					"opcodes": "PUSH1 0x80 PUSH1 0x40 MSTORE PUSH1 0x40 MLOAD DUP1 PUSH1 0x20 ADD PUSH1 0x40 MSTORE DUP1 PUSH1 0x1 PUSH1 0xFF AND DUP2 MSTORE POP PUSH1 0x0 SWAP1 PUSH1 0x1 PUSH2 0x27 SWAP3 SWAP2 SWAP1 PUSH2 0x3A JUMP JUMPDEST POP CALLVALUE DUP1 ISZERO PUSH2 0x34 JUMPI PUSH1 0x0 DUP1 REVERT JUMPDEST POP PUSH2 0xA9 JUMP JUMPDEST DUP3 DUP1 SLOAD DUP3 DUP3 SSTORE SWAP1 PUSH1 0x0 MSTORE PUSH1 0x20 PUSH1 0x0 KECCAK256 SWAP1 DUP2 ADD SWAP3 DUP3 ISZERO PUSH2 0x7B JUMPI SWAP2 PUSH1 0x20 MUL DUP3 ADD JUMPDEST DUP3 DUP2 GT ISZERO PUSH2 0x7A JUMPI DUP3 MLOAD DUP3 SWAP1 PUSH1 0xFF AND SWAP1 SSTORE SWAP2 PUSH1 0x20 ADD SWAP2 SWAP1 PUSH1 0x1 ADD SWAP1 PUSH2 0x5A JUMP JUMPDEST JUMPDEST POP SWAP1 POP PUSH2 0x88 SWAP2 SWAP1 PUSH2 0x8C JUMP JUMPDEST POP SWAP1 JUMP JUMPDEST JUMPDEST DUP1 DUP3 GT ISZERO PUSH2 0xA5 JUMPI PUSH1 0x0 DUP2 PUSH1 0x0 SWAP1 SSTORE POP PUSH1 0x1 ADD PUSH2 0x8D JUMP JUMPDEST POP SWAP1 JUMP JUMPDEST PUSH2 0x663 DUP1 PUSH2 0xB8 PUSH1 0x0 CODECOPY PUSH1 0x0 RETURN INVALID PUSH1 0x80 PUSH1 0x40 MSTORE CALLVALUE DUP1 ISZERO PUSH2 0x10 JUMPI PUSH1 0x0 DUP1 REVERT JUMPDEST POP PUSH1 0x4 CALLDATASIZE LT PUSH2 0x41 JUMPI PUSH1 0x0 CALLDATALOAD PUSH1 0xE0 SHR DUP1 PUSH4 0x4CC82215 EQ PUSH2 0x46 JUMPI DUP1 PUSH4 0x71E5EE5F EQ PUSH2 0x62 JUMPI DUP1 PUSH4 0xFB8CBCED EQ PUSH2 0x92 JUMPI JUMPDEST PUSH1 0x0 DUP1 REVERT JUMPDEST PUSH2 0x60 PUSH1 0x4 DUP1 CALLDATASIZE SUB DUP2 ADD SWAP1 PUSH2 0x5B SWAP2 SWAP1 PUSH2 0x2AD JUMP JUMPDEST PUSH2 0xB0 JUMP JUMPDEST STOP JUMPDEST PUSH2 0x7C PUSH1 0x4 DUP1 CALLDATASIZE SUB DUP2 ADD SWAP1 PUSH2 0x77 SWAP2 SWAP1 PUSH2 0x2AD JUMP JUMPDEST PUSH2 0x1F6 JUMP JUMPDEST PUSH1 0x40 MLOAD PUSH2 0x89 SWAP2 SWAP1 PUSH2 0x2E9 JUMP JUMPDEST PUSH1 0x40 MLOAD DUP1 SWAP2 SUB SWAP1 RETURN JUMPDEST PUSH2 0x9A PUSH2 0x21A JUMP JUMPDEST PUSH1 0x40 MLOAD PUSH2 0xA7 SWAP2 SWAP1 PUSH2 0x3C2 JUMP JUMPDEST PUSH1 0x40 MLOAD DUP1 SWAP2 SUB SWAP1 RETURN JUMPDEST PUSH1 0x0 DUP1 DUP1 SLOAD SWAP1 POP GT PUSH2 0xF7 JUMPI PUSH1 0x40 MLOAD PUSH32 0x8C379A000000000000000000000000000000000000000000000000000000000 DUP2 MSTORE PUSH1 0x4 ADD PUSH2 0xEE SWAP1 PUSH2 0x441 JUMP JUMPDEST PUSH1 0x40 MLOAD DUP1 SWAP2 SUB SWAP1 REVERT JUMPDEST PUSH1 0x1 PUSH1 0x0 DUP1 SLOAD SWAP1 POP PUSH2 0x109 SWAP2 SWAP1 PUSH2 0x490 JUMP JUMPDEST DUP2 GT ISZERO PUSH2 0x14B JUMPI PUSH1 0x40 MLOAD PUSH32 0x8C379A000000000000000000000000000000000000000000000000000000000 DUP2 MSTORE PUSH1 0x4 ADD PUSH2 0x142 SWAP1 PUSH2 0x510 JUMP JUMPDEST PUSH1 0x40 MLOAD DUP1 SWAP2 SUB SWAP1 REVERT JUMPDEST PUSH1 0x0 DUP2 SWAP1 POP JUMPDEST PUSH1 0x1 PUSH1 0x0 DUP1 SLOAD SWAP1 POP PUSH2 0x163 SWAP2 SWAP1 PUSH2 0x490 JUMP JUMPDEST DUP2 LT ISZERO PUSH2 0x1CA JUMPI PUSH1 0x0 PUSH1 0x1 DUP3 PUSH2 0x179 SWAP2 SWAP1 PUSH2 0x530 JUMP JUMPDEST DUP2 SLOAD DUP2 LT PUSH2 0x18A JUMPI PUSH2 0x189 PUSH2 0x586 JUMP JUMPDEST JUMPDEST SWAP1 PUSH1 0x0 MSTORE PUSH1 0x20 PUSH1 0x0 KECCAK256 ADD SLOAD PUSH1 0x0 DUP3 DUP2 SLOAD DUP2 LT PUSH2 0x1A9 JUMPI PUSH2 0x1A8 PUSH2 0x586 JUMP JUMPDEST JUMPDEST SWAP1 PUSH1 0x0 MSTORE PUSH1 0x20 PUSH1 0x0 KECCAK256 ADD DUP2 SWAP1 SSTORE POP DUP1 DUP1 PUSH2 0x1C2 SWAP1 PUSH2 0x5B5 JUMP JUMPDEST SWAP2 POP POP PUSH2 0x151 JUMP JUMPDEST POP PUSH1 0x0 DUP1 SLOAD DUP1 PUSH2 0x1DD JUMPI PUSH2 0x1DC PUSH2 0x5FE JUMP JUMPDEST JUMPDEST PUSH1 0x1 SWAP1 SUB DUP2 DUP2 SWAP1 PUSH1 0x0 MSTORE PUSH1 0x20 PUSH1 0x0 KECCAK256 ADD PUSH1 0x0 SWAP1 SSTORE SWAP1 SSTORE POP JUMP JUMPDEST PUSH1 0x0 DUP2 DUP2 SLOAD DUP2 LT PUSH2 0x206 JUMPI PUSH1 0x0 DUP1 REVERT JUMPDEST SWAP1 PUSH1 0x0 MSTORE PUSH1 0x20 PUSH1 0x0 KECCAK256 ADD PUSH1 0x0 SWAP2 POP SWAP1 POP SLOAD DUP2 JUMP JUMPDEST PUSH1 0x60 PUSH1 0x0 DUP1 SLOAD DUP1 PUSH1 0x20 MUL PUSH1 0x20 ADD PUSH1 0x40 MLOAD SWAP1 DUP2 ADD PUSH1 0x40 MSTORE DUP1 SWAP3 SWAP2 SWAP1 DUP2 DUP2 MSTORE PUSH1 0x20 ADD DUP3 DUP1 SLOAD DUP1 ISZERO PUSH2 0x268 JUMPI PUSH1 0x20 MUL DUP3 ADD SWAP2 SWAP1 PUSH1 0x0 MSTORE PUSH1 0x20 PUSH1 0x0 KECCAK256 SWAP1 JUMPDEST DUP2 SLOAD DUP2 MSTORE PUSH1 0x20 ADD SWAP1 PUSH1 0x1 ADD SWAP1 DUP1 DUP4 GT PUSH2 0x254 JUMPI JUMPDEST POP POP POP POP POP SWAP1 POP SWAP1 JUMP JUMPDEST PUSH1 0x0 DUP1 REVERT JUMPDEST PUSH1 0x0 DUP2 SWAP1 POP SWAP2 SWAP1 POP JUMP JUMPDEST PUSH2 0x28A DUP2 PUSH2 0x277 JUMP JUMPDEST DUP2 EQ PUSH2 0x295 JUMPI PUSH1 0x0 DUP1 REVERT JUMPDEST POP JUMP JUMPDEST PUSH1 0x0 DUP2 CALLDATALOAD SWAP1 POP PUSH2 0x2A7 DUP2 PUSH2 0x281 JUMP JUMPDEST SWAP3 SWAP2 POP POP JUMP JUMPDEST PUSH1 0x0 PUSH1 0x20 DUP3 DUP5 SUB SLT ISZERO PUSH2 0x2C3 JUMPI PUSH2 0x2C2 PUSH2 0x272 JUMP JUMPDEST JUMPDEST PUSH1 0x0 PUSH2 0x2D1 DUP5 DUP3 DUP6 ADD PUSH2 0x298 JUMP JUMPDEST SWAP2 POP POP SWAP3 SWAP2 POP POP JUMP JUMPDEST PUSH2 0x2E3 DUP2 PUSH2 0x277 JUMP JUMPDEST DUP3 MSTORE POP POP JUMP JUMPDEST PUSH1 0x0 PUSH1 0x20 DUP3 ADD SWAP1 POP PUSH2 0x2FE PUSH1 0x0 DUP4 ADD DUP5 PUSH2 0x2DA JUMP JUMPDEST SWAP3 SWAP2 POP POP JUMP JUMPDEST PUSH1 0x0 DUP2 MLOAD SWAP1 POP SWAP2 SWAP1 POP JUMP JUMPDEST PUSH1 0x0 DUP3 DUP3 MSTORE PUSH1 0x20 DUP3 ADD SWAP1 POP SWAP3 SWAP2 POP POP JUMP JUMPDEST PUSH1 0x0 DUP2 SWAP1 POP PUSH1 0x20 DUP3 ADD SWAP1 POP SWAP2 SWAP1 POP JUMP JUMPDEST PUSH2 0x339 DUP2 PUSH2 0x277 JUMP JUMPDEST DUP3 MSTORE POP POP JUMP JUMPDEST PUSH1 0x0 PUSH2 0x34B DUP4 DUP4 PUSH2 0x330 JUMP JUMPDEST PUSH1 0x20 DUP4 ADD SWAP1 POP SWAP3 SWAP2 POP POP JUMP JUMPDEST PUSH1 0x0 PUSH1 0x20 DUP3 ADD SWAP1 POP SWAP2 SWAP1 POP JUMP JUMPDEST PUSH1 0x0 PUSH2 0x36F DUP3 PUSH2 0x304 JUMP JUMPDEST PUSH2 0x379 DUP2 DUP6 PUSH2 0x30F JUMP JUMPDEST SWAP4 POP PUSH2 0x384 DUP4 PUSH2 0x320 JUMP JUMPDEST DUP1 PUSH1 0x0 JUMPDEST DUP4 DUP2 LT ISZERO PUSH2 0x3B5 JUMPI DUP2 MLOAD PUSH2 0x39C DUP9 DUP3 PUSH2 0x33F JUMP JUMPDEST SWAP8 POP PUSH2 0x3A7 DUP4 PUSH2 0x357 JUMP JUMPDEST SWAP3 POP POP PUSH1 0x1 DUP2 ADD SWAP1 POP PUSH2 0x388 JUMP JUMPDEST POP DUP6 SWAP4 POP POP POP POP SWAP3 SWAP2 POP POP JUMP JUMPDEST PUSH1 0x0 PUSH1 0x20 DUP3 ADD SWAP1 POP DUP2 DUP2 SUB PUSH1 0x0 DUP4 ADD MSTORE PUSH2 0x3DC DUP2 DUP5 PUSH2 0x364 JUMP JUMPDEST SWAP1 POP SWAP3 SWAP2 POP POP JUMP JUMPDEST PUSH1 0x0 DUP3 DUP3 MSTORE PUSH1 0x20 DUP3 ADD SWAP1 POP SWAP3 SWAP2 POP POP JUMP JUMPDEST PUSH32 0x41727261792063616E277420626520656D707479000000000000000000000000 PUSH1 0x0 DUP3 ADD MSTORE POP JUMP JUMPDEST PUSH1 0x0 PUSH2 0x42B PUSH1 0x14 DUP4 PUSH2 0x3E4 JUMP JUMPDEST SWAP2 POP PUSH2 0x436 DUP3 PUSH2 0x3F5 JUMP JUMPDEST PUSH1 0x20 DUP3 ADD SWAP1 POP SWAP2 SWAP1 POP JUMP JUMPDEST PUSH1 0x0 PUSH1 0x20 DUP3 ADD SWAP1 POP DUP2 DUP2 SUB PUSH1 0x0 DUP4 ADD MSTORE PUSH2 0x45A DUP2 PUSH2 0x41E JUMP JUMPDEST SWAP1 POP SWAP2 SWAP1 POP JUMP JUMPDEST PUSH32 0x4E487B7100000000000000000000000000000000000000000000000000000000 PUSH1 0x0 MSTORE PUSH1 0x11 PUSH1 0x4 MSTORE PUSH1 0x24 PUSH1 0x0 REVERT JUMPDEST PUSH1 0x0 PUSH2 0x49B DUP3 PUSH2 0x277 JUMP JUMPDEST SWAP2 POP PUSH2 0x4A6 DUP4 PUSH2 0x277 JUMP JUMPDEST SWAP3 POP DUP3 DUP3 LT ISZERO PUSH2 0x4B9 JUMPI PUSH2 0x4B8 PUSH2 0x461 JUMP JUMPDEST JUMPDEST DUP3 DUP3 SUB SWAP1 POP SWAP3 SWAP2 POP POP JUMP JUMPDEST PUSH32 0x496E76616C696420496E64657800000000000000000000000000000000000000 PUSH1 0x0 DUP3 ADD MSTORE POP JUMP JUMPDEST PUSH1 0x0 PUSH2 0x4FA PUSH1 0xD DUP4 PUSH2 0x3E4 JUMP JUMPDEST SWAP2 POP PUSH2 0x505 DUP3 PUSH2 0x4C4 JUMP JUMPDEST PUSH1 0x20 DUP3 ADD SWAP1 POP SWAP2 SWAP1 POP JUMP JUMPDEST PUSH1 0x0 PUSH1 0x20 DUP3 ADD SWAP1 POP DUP2 DUP2 SUB PUSH1 0x0 DUP4 ADD MSTORE PUSH2 0x529 DUP2 PUSH2 0x4ED JUMP JUMPDEST SWAP1 POP SWAP2 SWAP1 POP JUMP JUMPDEST PUSH1 0x0 PUSH2 0x53B DUP3 PUSH2 0x277 JUMP JUMPDEST SWAP2 POP PUSH2 0x546 DUP4 PUSH2 0x277 JUMP JUMPDEST SWAP3 POP DUP3 PUSH32 0xFFFFFFFFFFFFFFFFFFFFFFFFFFFFFFFFFFFFFFFFFFFFFFFFFFFFFFFFFFFFFFFF SUB DUP3 GT ISZERO PUSH2 0x57B JUMPI PUSH2 0x57A PUSH2 0x461 JUMP JUMPDEST JUMPDEST DUP3 DUP3 ADD SWAP1 POP SWAP3 SWAP2 POP POP JUMP JUMPDEST PUSH32 0x4E487B7100000000000000000000000000000000000000000000000000000000 PUSH1 0x0 MSTORE PUSH1 0x32 PUSH1 0x4 MSTORE PUSH1 0x24 PUSH1 0x0 REVERT JUMPDEST PUSH1 0x0 PUSH2 0x5C0 DUP3 PUSH2 0x277 JUMP JUMPDEST SWAP2 POP PUSH32 0xFFFFFFFFFFFFFFFFFFFFFFFFFFFFFFFFFFFFFFFFFFFFFFFFFFFFFFFFFFFFFFFF DUP3 EQ ISZERO PUSH2 0x5F3 JUMPI PUSH2 0x5F2 PUSH2 0x461 JUMP JUMPDEST JUMPDEST PUSH1 0x1 DUP3 ADD SWAP1 POP SWAP2 SWAP1 POP JUMP JUMPDEST PUSH32 0x4E487B7100000000000000000000000000000000000000000000000000000000 PUSH1 0x0 MSTORE PUSH1 0x31 PUSH1 0x4 MSTORE PUSH1 0x24 PUSH1 0x0 REVERT INVALID LOG2 PUSH5 0x6970667358 0x22 SLT KECCAK256 0xD4 0xD8 0xD4 EXP CALLER MSTORE8 0xB1 SWAP7 0x22 SLT PUSH21 0x43DD0BDBCB3EEEB4379C269DA52DB4C7ED1F659B1B PUSH5 0x736F6C6343 STOP ADDMOD ADDMOD STOP CALLER "
				},
				"gasEstimates": {
					"creation": {
						"codeDepositCost": "327000",
						"executionCost": "infinite",
						"totalCost": "infinite"
					},
					"external": {
						"arr(uint256)": "infinite",
						"getArr()": "infinite",
						"remove(uint256)": "infinite"
					}
				},
				"methodIdentifiers": {
					"arr(uint256)": "71e5ee5f",
					"getArr()": "fb8cbced",
					"remove(uint256)": "4cc82215"
				}
			},
			"storageLayout": {
				"storage": [
					{
						"astId": 6,
						"contract": "array_index_remove_by_shifting.sol:ArrayIndexRemoveByShifting",
						"label": "arr",
						"offset": 0,
						"slot": "0",
						"type": "t_array(t_uint256)dyn_storage"
					}
				],
				"types": {
					"t_array(t_uint256)dyn_storage": {
						"base": "t_uint256",
						"encoding": "dynamic_array",
						"label": "uint256[]",
						"numberOfBytes": "32"
					},
					"t_uint256": {
						"encoding": "inplace",
						"label": "uint256",
						"numberOfBytes": "32"
					}
				}
			},
			"userdoc": {
				"kind": "user",
				"methods": {},
				"version": 1
			}
		}
	}
}