{
	"tutorials/eventDemo.sol": {
		"EventDemo": {
			"abi": [
				{
					"anonymous": false,
					"inputs": [],
					"name": "Event2",
					"type": "event"
				},
				{
					"anonymous": false,
					"inputs": [
						{
							"indexed": true,
							"internalType": "address",
							"name": "sender",
							"type": "address"
						},
						{
							"indexed": false,
							"internalType": "string",
							"name": "message",
							"type": "string"
						}
					],
					"name": "Log",
					"type": "event"
				},
				{
					"inputs": [],
					"name": "testEventWorking",
					"outputs": [],
					"stateMutability": "nonpayable",
					"type": "function"
				}
			],
			"devdoc": {
				"kind": "dev",
				"methods": {},
				"version": 1
			},
			"evm": {
				"assembly": "    /* \"tutorials/eventDemo.sol\":60:409  contract EventDemo {... */\n  mstore(0x40, 0x80)\n  callvalue\n  dup1\n  iszero\n  tag_1\n  jumpi\n  0x00\n  dup1\n  revert\ntag_1:\n  pop\n  dataSize(sub_0)\n  dup1\n  dataOffset(sub_0)\n  0x00\n  codecopy\n  0x00\n  return\nstop\n\nsub_0: assembly {\n        /* \"tutorials/eventDemo.sol\":60:409  contract EventDemo {... */\n      mstore(0x40, 0x80)\n      callvalue\n      dup1\n      iszero\n      tag_1\n      jumpi\n      0x00\n      dup1\n      revert\n    tag_1:\n      pop\n      jumpi(tag_2, lt(calldatasize, 0x04))\n      shr(0xe0, calldataload(0x00))\n      dup1\n      0x8a173ce9\n      eq\n      tag_3\n      jumpi\n    tag_2:\n      0x00\n      dup1\n      revert\n        /* \"tutorials/eventDemo.sol\":216:406  function testEventWorking() public {... */\n    tag_3:\n      tag_4\n      tag_5\n      jump\t// in\n    tag_4:\n      stop\n    tag_5:\n        /* \"tutorials/eventDemo.sol\":272:282  msg.sender */\n      caller\n        /* \"tutorials/eventDemo.sol\":268:308  Log(msg.sender, \"Blockchain is awesome\") */\n      0xffffffffffffffffffffffffffffffffffffffff\n      and\n      0x0738f4da267a110d810e6e89fc59e46be6de0c37b1d5cd559b267dc3688e74e0\n      mload(0x40)\n      tag_7\n      swap1\n      tag_8\n      jump\t// in\n    tag_7:\n      mload(0x40)\n      dup1\n      swap2\n      sub\n      swap1\n      log2\n        /* \"tutorials/eventDemo.sol\":329:339  msg.sender */\n      caller\n        /* \"tutorials/eventDemo.sol\":325:371  Log(msg.sender, \"User created successfully !\") */\n      0xffffffffffffffffffffffffffffffffffffffff\n      and\n      0x0738f4da267a110d810e6e89fc59e46be6de0c37b1d5cd559b267dc3688e74e0\n      mload(0x40)\n      tag_9\n      swap1\n      tag_10\n      jump\t// in\n    tag_9:\n      mload(0x40)\n      dup1\n      swap2\n      sub\n      swap1\n      log2\n        /* \"tutorials/eventDemo.sol\":390:398  Event2() */\n      0xf8eb641b4da774cab432e72f24b258ec539677496d7f9ec48fcbb16fda0e4425\n      mload(0x40)\n      mload(0x40)\n      dup1\n      swap2\n      sub\n      swap1\n      log1\n        /* \"tutorials/eventDemo.sol\":216:406  function testEventWorking() public {... */\n      jump\t// out\n        /* \"#utility.yul\":7:176   */\n    tag_11:\n        /* \"#utility.yul\":91:102   */\n      0x00\n        /* \"#utility.yul\":125:131   */\n      dup3\n        /* \"#utility.yul\":120:123   */\n      dup3\n        /* \"#utility.yul\":113:132   */\n      mstore\n        /* \"#utility.yul\":165:169   */\n      0x20\n        /* \"#utility.yul\":160:163   */\n      dup3\n        /* \"#utility.yul\":156:170   */\n      add\n        /* \"#utility.yul\":141:170   */\n      swap1\n      pop\n        /* \"#utility.yul\":7:176   */\n      swap3\n      swap2\n      pop\n      pop\n      jump\t// out\n        /* \"#utility.yul\":182:353   */\n    tag_12:\n        /* \"#utility.yul\":322:345   */\n      0x426c6f636b636861696e20697320617765736f6d650000000000000000000000\n        /* \"#utility.yul\":318:319   */\n      0x00\n        /* \"#utility.yul\":310:316   */\n      dup3\n        /* \"#utility.yul\":306:320   */\n      add\n        /* \"#utility.yul\":299:346   */\n      mstore\n        /* \"#utility.yul\":182:353   */\n      pop\n      jump\t// out\n        /* \"#utility.yul\":359:725   */\n    tag_13:\n        /* \"#utility.yul\":501:504   */\n      0x00\n        /* \"#utility.yul\":522:589   */\n      tag_20\n        /* \"#utility.yul\":586:588   */\n      0x15\n        /* \"#utility.yul\":581:584   */\n      dup4\n        /* \"#utility.yul\":522:589   */\n      tag_11\n      jump\t// in\n    tag_20:\n        /* \"#utility.yul\":515:589   */\n      swap2\n      pop\n        /* \"#utility.yul\":598:691   */\n      tag_21\n        /* \"#utility.yul\":687:690   */\n      dup3\n        /* \"#utility.yul\":598:691   */\n      tag_12\n      jump\t// in\n    tag_21:\n        /* \"#utility.yul\":716:718   */\n      0x20\n        /* \"#utility.yul\":711:714   */\n      dup3\n        /* \"#utility.yul\":707:719   */\n      add\n        /* \"#utility.yul\":700:719   */\n      swap1\n      pop\n        /* \"#utility.yul\":359:725   */\n      swap2\n      swap1\n      pop\n      jump\t// out\n        /* \"#utility.yul\":731:1150   */\n    tag_8:\n        /* \"#utility.yul\":897:901   */\n      0x00\n        /* \"#utility.yul\":935:937   */\n      0x20\n        /* \"#utility.yul\":924:933   */\n      dup3\n        /* \"#utility.yul\":920:938   */\n      add\n        /* \"#utility.yul\":912:938   */\n      swap1\n      pop\n        /* \"#utility.yul\":984:993   */\n      dup2\n        /* \"#utility.yul\":978:982   */\n      dup2\n        /* \"#utility.yul\":974:994   */\n      sub\n        /* \"#utility.yul\":970:971   */\n      0x00\n        /* \"#utility.yul\":959:968   */\n      dup4\n        /* \"#utility.yul\":955:972   */\n      add\n        /* \"#utility.yul\":948:995   */\n      mstore\n        /* \"#utility.yul\":1012:1143   */\n      tag_23\n        /* \"#utility.yul\":1138:1142   */\n      dup2\n        /* \"#utility.yul\":1012:1143   */\n      tag_13\n      jump\t// in\n    tag_23:\n        /* \"#utility.yul\":1004:1143   */\n      swap1\n      pop\n        /* \"#utility.yul\":731:1150   */\n      swap2\n      swap1\n      pop\n      jump\t// out\n        /* \"#utility.yul\":1156:1333   */\n    tag_14:\n        /* \"#utility.yul\":1296:1325   */\n      0x557365722063726561746564207375636365737366756c6c7920210000000000\n        /* \"#utility.yul\":1292:1293   */\n      0x00\n        /* \"#utility.yul\":1284:1290   */\n      dup3\n        /* \"#utility.yul\":1280:1294   */\n      add\n        /* \"#utility.yul\":1273:1326   */\n      mstore\n        /* \"#utility.yul\":1156:1333   */\n      pop\n      jump\t// out\n        /* \"#utility.yul\":1339:1705   */\n    tag_15:\n        /* \"#utility.yul\":1481:1484   */\n      0x00\n        /* \"#utility.yul\":1502:1569   */\n      tag_26\n        /* \"#utility.yul\":1566:1568   */\n      0x1b\n        /* \"#utility.yul\":1561:1564   */\n      dup4\n        /* \"#utility.yul\":1502:1569   */\n      tag_11\n      jump\t// in\n    tag_26:\n        /* \"#utility.yul\":1495:1569   */\n      swap2\n      pop\n        /* \"#utility.yul\":1578:1671   */\n      tag_27\n        /* \"#utility.yul\":1667:1670   */\n      dup3\n        /* \"#utility.yul\":1578:1671   */\n      tag_14\n      jump\t// in\n    tag_27:\n        /* \"#utility.yul\":1696:1698   */\n      0x20\n        /* \"#utility.yul\":1691:1694   */\n      dup3\n        /* \"#utility.yul\":1687:1699   */\n      add\n        /* \"#utility.yul\":1680:1699   */\n      swap1\n      pop\n        /* \"#utility.yul\":1339:1705   */\n      swap2\n      swap1\n      pop\n      jump\t// out\n        /* \"#utility.yul\":1711:2130   */\n    tag_10:\n        /* \"#utility.yul\":1877:1881   */\n      0x00\n        /* \"#utility.yul\":1915:1917   */\n      0x20\n        /* \"#utility.yul\":1904:1913   */\n      dup3\n        /* \"#utility.yul\":1900:1918   */\n      add\n        /* \"#utility.yul\":1892:1918   */\n      swap1\n      pop\n        /* \"#utility.yul\":1964:1973   */\n      dup2\n        /* \"#utility.yul\":1958:1962   */\n      dup2\n        /* \"#utility.yul\":1954:1974   */\n      sub\n        /* \"#utility.yul\":1950:1951   */\n      0x00\n        /* \"#utility.yul\":1939:1948   */\n      dup4\n        /* \"#utility.yul\":1935:1952   */\n      add\n        /* \"#utility.yul\":1928:1975   */\n      mstore\n        /* \"#utility.yul\":1992:2123   */\n      tag_29\n        /* \"#utility.yul\":2118:2122   */\n      dup2\n        /* \"#utility.yul\":1992:2123   */\n      tag_15\n      jump\t// in\n    tag_29:\n        /* \"#utility.yul\":1984:2123   */\n      swap1\n      pop\n        /* \"#utility.yul\":1711:2130   */\n      swap2\n      swap1\n      pop\n      jump\t// out\n\n    auxdata: 0xa2646970667358221220af2940423b12a1add36ea6d4f1356c14cf9661be6bc2e108a28988b1de639e4664736f6c63430008110033\n}\n",
				"bytecode": {
					"linkReferences": {},
					"object": "608060405234801561001057600080fd5b5061021f806100206000396000f3fe608060405234801561001057600080fd5b506004361061002b5760003560e01c80638a173ce914610030575b600080fd5b61003861003a565b005b3373ffffffffffffffffffffffffffffffffffffffff167f0738f4da267a110d810e6e89fc59e46be6de0c37b1d5cd559b267dc3688e74e060405161007e9061015d565b60405180910390a23373ffffffffffffffffffffffffffffffffffffffff167f0738f4da267a110d810e6e89fc59e46be6de0c37b1d5cd559b267dc3688e74e06040516100ca906101c9565b60405180910390a27ff8eb641b4da774cab432e72f24b258ec539677496d7f9ec48fcbb16fda0e442560405160405180910390a1565b600082825260208201905092915050565b7f426c6f636b636861696e20697320617765736f6d650000000000000000000000600082015250565b6000610147601583610100565b915061015282610111565b602082019050919050565b600060208201905081810360008301526101768161013a565b9050919050565b7f557365722063726561746564207375636365737366756c6c7920210000000000600082015250565b60006101b3601b83610100565b91506101be8261017d565b602082019050919050565b600060208201905081810360008301526101e2816101a6565b905091905056fea2646970667358221220af2940423b12a1add36ea6d4f1356c14cf9661be6bc2e108a28988b1de639e4664736f6c63430008110033",
					"opcodes": "PUSH1 0x80 PUSH1 0x40 MSTORE CALLVALUE DUP1 ISZERO PUSH2 0x10 JUMPI PUSH1 0x0 DUP1 REVERT JUMPDEST POP PUSH2 0x21F DUP1 PUSH2 0x20 PUSH1 0x0 CODECOPY PUSH1 0x0 RETURN INVALID PUSH1 0x80 PUSH1 0x40 MSTORE CALLVALUE DUP1 ISZERO PUSH2 0x10 JUMPI PUSH1 0x0 DUP1 REVERT JUMPDEST POP PUSH1 0x4 CALLDATASIZE LT PUSH2 0x2B JUMPI PUSH1 0x0 CALLDATALOAD PUSH1 0xE0 SHR DUP1 PUSH4 0x8A173CE9 EQ PUSH2 0x30 JUMPI JUMPDEST PUSH1 0x0 DUP1 REVERT JUMPDEST PUSH2 0x38 PUSH2 0x3A JUMP JUMPDEST STOP JUMPDEST CALLER PUSH20 0xFFFFFFFFFFFFFFFFFFFFFFFFFFFFFFFFFFFFFFFF AND PUSH32 0x738F4DA267A110D810E6E89FC59E46BE6DE0C37B1D5CD559B267DC3688E74E0 PUSH1 0x40 MLOAD PUSH2 0x7E SWAP1 PUSH2 0x15D JUMP JUMPDEST PUSH1 0x40 MLOAD DUP1 SWAP2 SUB SWAP1 LOG2 CALLER PUSH20 0xFFFFFFFFFFFFFFFFFFFFFFFFFFFFFFFFFFFFFFFF AND PUSH32 0x738F4DA267A110D810E6E89FC59E46BE6DE0C37B1D5CD559B267DC3688E74E0 PUSH1 0x40 MLOAD PUSH2 0xCA SWAP1 PUSH2 0x1C9 JUMP JUMPDEST PUSH1 0x40 MLOAD DUP1 SWAP2 SUB SWAP1 LOG2 PUSH32 0xF8EB641B4DA774CAB432E72F24B258EC539677496D7F9EC48FCBB16FDA0E4425 PUSH1 0x40 MLOAD PUSH1 0x40 MLOAD DUP1 SWAP2 SUB SWAP1 LOG1 JUMP JUMPDEST PUSH1 0x0 DUP3 DUP3 MSTORE PUSH1 0x20 DUP3 ADD SWAP1 POP SWAP3 SWAP2 POP POP JUMP JUMPDEST PUSH32 0x426C6F636B636861696E20697320617765736F6D650000000000000000000000 PUSH1 0x0 DUP3 ADD MSTORE POP JUMP JUMPDEST PUSH1 0x0 PUSH2 0x147 PUSH1 0x15 DUP4 PUSH2 0x100 JUMP JUMPDEST SWAP2 POP PUSH2 0x152 DUP3 PUSH2 0x111 JUMP JUMPDEST PUSH1 0x20 DUP3 ADD SWAP1 POP SWAP2 SWAP1 POP JUMP JUMPDEST PUSH1 0x0 PUSH1 0x20 DUP3 ADD SWAP1 POP DUP2 DUP2 SUB PUSH1 0x0 DUP4 ADD MSTORE PUSH2 0x176 DUP2 PUSH2 0x13A JUMP JUMPDEST SWAP1 POP SWAP2 SWAP1 POP JUMP JUMPDEST PUSH32 0x557365722063726561746564207375636365737366756C6C7920210000000000 PUSH1 0x0 DUP3 ADD MSTORE POP JUMP JUMPDEST PUSH1 0x0 PUSH2 0x1B3 PUSH1 0x1B DUP4 PUSH2 0x100 JUMP JUMPDEST SWAP2 POP PUSH2 0x1BE DUP3 PUSH2 0x17D JUMP JUMPDEST PUSH1 0x20 DUP3 ADD SWAP1 POP SWAP2 SWAP1 POP JUMP JUMPDEST PUSH1 0x0 PUSH1 0x20 DUP3 ADD SWAP1 POP DUP2 DUP2 SUB PUSH1 0x0 DUP4 ADD MSTORE PUSH2 0x1E2 DUP2 PUSH2 0x1A6 JUMP JUMPDEST SWAP1 POP SWAP2 SWAP1 POP JUMP INVALID LOG2 PUSH5 0x6970667358 0x22 SLT KECCAK256 0xAF 0x29 BLOCKHASH TIMESTAMP EXTCODESIZE SLT LOG1 0xAD 0xD3 PUSH15 0xA6D4F1356C14CF9661BE6BC2E108A2 DUP10 DUP9 0xB1 0xDE PUSH4 0x9E466473 PUSH16 0x6C634300081100330000000000000000 "
				},
				"gasEstimates": {
					"creation": {
						"codeDepositCost": "108600",
						"executionCost": "153",
						"totalCost": "108753"
					},
					"external": {
						"testEventWorking()": "infinite"
					}
				},
				"methodIdentifiers": {
					"testEventWorking()": "8a173ce9"
				}
			},
			"storageLayout": {
				"storage": [],
				"types": null
			},
			"userdoc": {
				"kind": "user",
				"methods": {},
				"version": 1
			}
		}
	}
}