{
	"tutorials/funtionDemo.sol": {
		"SecondContract": {
			"abi": [
				{
					"inputs": [
						{
							"internalType": "uint256",
							"name": "i",
							"type": "uint256"
						},
						{
							"internalType": "string",
							"name": "j",
							"type": "string"
						},
						{
							"internalType": "bool",
							"name": "k",
							"type": "bool"
						},
						{
							"internalType": "address",
							"name": "l",
							"type": "address"
						}
					],
					"name": "A",
					"outputs": [
						{
							"internalType": "uint256",
							"name": "",
							"type": "uint256"
						}
					],
					"stateMutability": "pure",
					"type": "function"
				},
				{
					"inputs": [],
					"name": "callingA",
					"outputs": [
						{
							"internalType": "uint256",
							"name": "",
							"type": "uint256"
						}
					],
					"stateMutability": "view",
					"type": "function"
				}
			],
			"devdoc": {
				"kind": "dev",
				"methods": {},
				"version": 1
			},
			"evm": {
				"assembly": "    /* \"tutorials/funtionDemo.sol\":877:1142  contract SecondContract {... */\n  mstore(0x40, 0x80)\n  callvalue\n  dup1\n  iszero\n  tag_1\n  jumpi\n  0x00\n  dup1\n  revert\ntag_1:\n  pop\n  dataSize(sub_0)\n  dup1\n  dataOffset(sub_0)\n  0x00\n  codecopy\n  0x00\n  return\nstop\n\nsub_0: assembly {\n        /* \"tutorials/funtionDemo.sol\":877:1142  contract SecondContract {... */\n      mstore(0x40, 0x80)\n      callvalue\n      dup1\n      iszero\n      tag_1\n      jumpi\n      0x00\n      dup1\n      revert\n    tag_1:\n      pop\n      jumpi(tag_2, lt(calldatasize, 0x04))\n      shr(0xe0, calldataload(0x00))\n      dup1\n      0x6ea866ad\n      eq\n      tag_3\n      jumpi\n      dup1\n      0xf26253f1\n      eq\n      tag_4\n      jumpi\n    tag_2:\n      0x00\n      dup1\n      revert\n        /* \"tutorials/funtionDemo.sol\":910:1021  function A(uint i, string memory j , bool k, address l) public pure returns(uint) {... */\n    tag_3:\n      tag_5\n      0x04\n      dup1\n      calldatasize\n      sub\n      dup2\n      add\n      swap1\n      tag_6\n      swap2\n      swap1\n      tag_7\n      jump\t// in\n    tag_6:\n      tag_8\n      jump\t// in\n    tag_5:\n      mload(0x40)\n      tag_9\n      swap2\n      swap1\n      tag_10\n      jump\t// in\n    tag_9:\n      mload(0x40)\n      dup1\n      swap2\n      sub\n      swap1\n      return\n        /* \"tutorials/funtionDemo.sol\":1029:1135  function callingA() public view returns(uint) {... */\n    tag_4:\n      tag_11\n      tag_12\n      jump\t// in\n    tag_11:\n      mload(0x40)\n      tag_13\n      swap2\n      swap1\n      tag_10\n      jump\t// in\n    tag_13:\n      mload(0x40)\n      dup1\n      swap2\n      sub\n      swap1\n      return\n        /* \"tutorials/funtionDemo.sol\":910:1021  function A(uint i, string memory j , bool k, address l) public pure returns(uint) {... */\n    tag_8:\n        /* \"tutorials/funtionDemo.sol\":986:990  uint */\n      0x00\n        /* \"tutorials/funtionDemo.sol\":1010:1012  10 */\n      0x0a\n        /* \"tutorials/funtionDemo.sol\":1003:1013  return(10) */\n      swap1\n      pop\n        /* \"tutorials/funtionDemo.sol\":910:1021  function A(uint i, string memory j , bool k, address l) public pure returns(uint) {... */\n      swap5\n      swap4\n      pop\n      pop\n      pop\n      pop\n      jump\t// out\n        /* \"tutorials/funtionDemo.sol\":1029:1135  function callingA() public view returns(uint) {... */\n    tag_12:\n        /* \"tutorials/funtionDemo.sol\":1069:1073  uint */\n      0x00\n        /* \"tutorials/funtionDemo.sol\":1093:1127  A(10, \"Shubham\", true, msg.sender) */\n      tag_16\n        /* \"tutorials/funtionDemo.sol\":1095:1097  10 */\n      0x0a\n        /* \"tutorials/funtionDemo.sol\":1093:1127  A(10, \"Shubham\", true, msg.sender) */\n      mload(0x40)\n      dup1\n      0x40\n      add\n      0x40\n      mstore\n      dup1\n      0x07\n      dup2\n      mstore\n      0x20\n      add\n      0x5368756268616d00000000000000000000000000000000000000000000000000\n      dup2\n      mstore\n      pop\n        /* \"tutorials/funtionDemo.sol\":1110:1114  true */\n      0x01\n        /* \"tutorials/funtionDemo.sol\":1116:1126  msg.sender */\n      caller\n        /* \"tutorials/funtionDemo.sol\":1093:1094  A */\n      tag_8\n        /* \"tutorials/funtionDemo.sol\":1093:1127  A(10, \"Shubham\", true, msg.sender) */\n      jump\t// in\n    tag_16:\n        /* \"tutorials/funtionDemo.sol\":1086:1127  return A(10, \"Shubham\", true, msg.sender) */\n      swap1\n      pop\n        /* \"tutorials/funtionDemo.sol\":1029:1135  function callingA() public view returns(uint) {... */\n      swap1\n      jump\t// out\n        /* \"#utility.yul\":7:82   */\n    tag_17:\n        /* \"#utility.yul\":40:46   */\n      0x00\n        /* \"#utility.yul\":73:75   */\n      0x40\n        /* \"#utility.yul\":67:76   */\n      mload\n        /* \"#utility.yul\":57:76   */\n      swap1\n      pop\n        /* \"#utility.yul\":7:82   */\n      swap1\n      jump\t// out\n        /* \"#utility.yul\":88:205   */\n    tag_18:\n        /* \"#utility.yul\":197:198   */\n      0x00\n        /* \"#utility.yul\":194:195   */\n      dup1\n        /* \"#utility.yul\":187:199   */\n      revert\n        /* \"#utility.yul\":211:328   */\n    tag_19:\n        /* \"#utility.yul\":320:321   */\n      0x00\n        /* \"#utility.yul\":317:318   */\n      dup1\n        /* \"#utility.yul\":310:322   */\n      revert\n        /* \"#utility.yul\":334:411   */\n    tag_20:\n        /* \"#utility.yul\":371:378   */\n      0x00\n        /* \"#utility.yul\":400:405   */\n      dup2\n        /* \"#utility.yul\":389:405   */\n      swap1\n      pop\n        /* \"#utility.yul\":334:411   */\n      swap2\n      swap1\n      pop\n      jump\t// out\n        /* \"#utility.yul\":417:539   */\n    tag_21:\n        /* \"#utility.yul\":490:514   */\n      tag_47\n        /* \"#utility.yul\":508:513   */\n      dup2\n        /* \"#utility.yul\":490:514   */\n      tag_20\n      jump\t// in\n    tag_47:\n        /* \"#utility.yul\":483:488   */\n      dup2\n        /* \"#utility.yul\":480:515   */\n      eq\n        /* \"#utility.yul\":470:533   */\n      tag_48\n      jumpi\n        /* \"#utility.yul\":529:530   */\n      0x00\n        /* \"#utility.yul\":526:527   */\n      dup1\n        /* \"#utility.yul\":519:531   */\n      revert\n        /* \"#utility.yul\":470:533   */\n    tag_48:\n        /* \"#utility.yul\":417:539   */\n      pop\n      jump\t// out\n        /* \"#utility.yul\":545:684   */\n    tag_22:\n        /* \"#utility.yul\":591:596   */\n      0x00\n        /* \"#utility.yul\":629:635   */\n      dup2\n        /* \"#utility.yul\":616:636   */\n      calldataload\n        /* \"#utility.yul\":607:636   */\n      swap1\n      pop\n        /* \"#utility.yul\":645:678   */\n      tag_50\n        /* \"#utility.yul\":672:677   */\n      dup2\n        /* \"#utility.yul\":645:678   */\n      tag_21\n      jump\t// in\n    tag_50:\n        /* \"#utility.yul\":545:684   */\n      swap3\n      swap2\n      pop\n      pop\n      jump\t// out\n        /* \"#utility.yul\":690:807   */\n    tag_23:\n        /* \"#utility.yul\":799:800   */\n      0x00\n        /* \"#utility.yul\":796:797   */\n      dup1\n        /* \"#utility.yul\":789:801   */\n      revert\n        /* \"#utility.yul\":813:930   */\n    tag_24:\n        /* \"#utility.yul\":922:923   */\n      0x00\n        /* \"#utility.yul\":919:920   */\n      dup1\n        /* \"#utility.yul\":912:924   */\n      revert\n        /* \"#utility.yul\":936:1038   */\n    tag_25:\n        /* \"#utility.yul\":977:983   */\n      0x00\n        /* \"#utility.yul\":1028:1030   */\n      0x1f\n        /* \"#utility.yul\":1024:1031   */\n      not\n        /* \"#utility.yul\":1019:1021   */\n      0x1f\n        /* \"#utility.yul\":1012:1017   */\n      dup4\n        /* \"#utility.yul\":1008:1022   */\n      add\n        /* \"#utility.yul\":1004:1032   */\n      and\n        /* \"#utility.yul\":994:1032   */\n      swap1\n      pop\n        /* \"#utility.yul\":936:1038   */\n      swap2\n      swap1\n      pop\n      jump\t// out\n        /* \"#utility.yul\":1044:1224   */\n    tag_26:\n        /* \"#utility.yul\":1092:1169   */\n      0x4e487b7100000000000000000000000000000000000000000000000000000000\n        /* \"#utility.yul\":1089:1090   */\n      0x00\n        /* \"#utility.yul\":1082:1170   */\n      mstore\n        /* \"#utility.yul\":1189:1193   */\n      0x41\n        /* \"#utility.yul\":1186:1187   */\n      0x04\n        /* \"#utility.yul\":1179:1194   */\n      mstore\n        /* \"#utility.yul\":1213:1217   */\n      0x24\n        /* \"#utility.yul\":1210:1211   */\n      0x00\n        /* \"#utility.yul\":1203:1218   */\n      revert\n        /* \"#utility.yul\":1230:1511   */\n    tag_27:\n        /* \"#utility.yul\":1313:1340   */\n      tag_56\n        /* \"#utility.yul\":1335:1339   */\n      dup3\n        /* \"#utility.yul\":1313:1340   */\n      tag_25\n      jump\t// in\n    tag_56:\n        /* \"#utility.yul\":1305:1311   */\n      dup2\n        /* \"#utility.yul\":1301:1341   */\n      add\n        /* \"#utility.yul\":1443:1449   */\n      dup2\n        /* \"#utility.yul\":1431:1441   */\n      dup2\n        /* \"#utility.yul\":1428:1450   */\n      lt\n        /* \"#utility.yul\":1407:1425   */\n      0xffffffffffffffff\n        /* \"#utility.yul\":1395:1405   */\n      dup3\n        /* \"#utility.yul\":1392:1426   */\n      gt\n        /* \"#utility.yul\":1389:1451   */\n      or\n        /* \"#utility.yul\":1386:1474   */\n      iszero\n      tag_57\n      jumpi\n        /* \"#utility.yul\":1454:1472   */\n      tag_58\n      tag_26\n      jump\t// in\n    tag_58:\n        /* \"#utility.yul\":1386:1474   */\n    tag_57:\n        /* \"#utility.yul\":1494:1504   */\n      dup1\n        /* \"#utility.yul\":1490:1492   */\n      0x40\n        /* \"#utility.yul\":1483:1505   */\n      mstore\n        /* \"#utility.yul\":1273:1511   */\n      pop\n        /* \"#utility.yul\":1230:1511   */\n      pop\n      pop\n      jump\t// out\n        /* \"#utility.yul\":1517:1646   */\n    tag_28:\n        /* \"#utility.yul\":1551:1557   */\n      0x00\n        /* \"#utility.yul\":1578:1598   */\n      tag_60\n      tag_17\n      jump\t// in\n    tag_60:\n        /* \"#utility.yul\":1568:1598   */\n      swap1\n      pop\n        /* \"#utility.yul\":1607:1640   */\n      tag_61\n        /* \"#utility.yul\":1635:1639   */\n      dup3\n        /* \"#utility.yul\":1627:1633   */\n      dup3\n        /* \"#utility.yul\":1607:1640   */\n      tag_27\n      jump\t// in\n    tag_61:\n        /* \"#utility.yul\":1517:1646   */\n      swap2\n      swap1\n      pop\n      jump\t// out\n        /* \"#utility.yul\":1652:1960   */\n    tag_29:\n        /* \"#utility.yul\":1714:1718   */\n      0x00\n        /* \"#utility.yul\":1804:1822   */\n      0xffffffffffffffff\n        /* \"#utility.yul\":1796:1802   */\n      dup3\n        /* \"#utility.yul\":1793:1823   */\n      gt\n        /* \"#utility.yul\":1790:1846   */\n      iszero\n      tag_63\n      jumpi\n        /* \"#utility.yul\":1826:1844   */\n      tag_64\n      tag_26\n      jump\t// in\n    tag_64:\n        /* \"#utility.yul\":1790:1846   */\n    tag_63:\n        /* \"#utility.yul\":1864:1893   */\n      tag_65\n        /* \"#utility.yul\":1886:1892   */\n      dup3\n        /* \"#utility.yul\":1864:1893   */\n      tag_25\n      jump\t// in\n    tag_65:\n        /* \"#utility.yul\":1856:1893   */\n      swap1\n      pop\n        /* \"#utility.yul\":1948:1952   */\n      0x20\n        /* \"#utility.yul\":1942:1946   */\n      dup2\n        /* \"#utility.yul\":1938:1953   */\n      add\n        /* \"#utility.yul\":1930:1953   */\n      swap1\n      pop\n        /* \"#utility.yul\":1652:1960   */\n      swap2\n      swap1\n      pop\n      jump\t// out\n        /* \"#utility.yul\":1966:2112   */\n    tag_30:\n        /* \"#utility.yul\":2063:2069   */\n      dup3\n        /* \"#utility.yul\":2058:2061   */\n      dup2\n        /* \"#utility.yul\":2053:2056   */\n      dup4\n        /* \"#utility.yul\":2040:2070   */\n      calldatacopy\n        /* \"#utility.yul\":2104:2105   */\n      0x00\n        /* \"#utility.yul\":2095:2101   */\n      dup4\n        /* \"#utility.yul\":2090:2093   */\n      dup4\n        /* \"#utility.yul\":2086:2102   */\n      add\n        /* \"#utility.yul\":2079:2106   */\n      mstore\n        /* \"#utility.yul\":1966:2112   */\n      pop\n      pop\n      pop\n      jump\t// out\n        /* \"#utility.yul\":2118:2543   */\n    tag_31:\n        /* \"#utility.yul\":2196:2201   */\n      0x00\n        /* \"#utility.yul\":2221:2287   */\n      tag_68\n        /* \"#utility.yul\":2237:2286   */\n      tag_69\n        /* \"#utility.yul\":2279:2285   */\n      dup5\n        /* \"#utility.yul\":2237:2286   */\n      tag_29\n      jump\t// in\n    tag_69:\n        /* \"#utility.yul\":2221:2287   */\n      tag_28\n      jump\t// in\n    tag_68:\n        /* \"#utility.yul\":2212:2287   */\n      swap1\n      pop\n        /* \"#utility.yul\":2310:2316   */\n      dup3\n        /* \"#utility.yul\":2303:2308   */\n      dup2\n        /* \"#utility.yul\":2296:2317   */\n      mstore\n        /* \"#utility.yul\":2348:2352   */\n      0x20\n        /* \"#utility.yul\":2341:2346   */\n      dup2\n        /* \"#utility.yul\":2337:2353   */\n      add\n        /* \"#utility.yul\":2386:2389   */\n      dup5\n        /* \"#utility.yul\":2377:2383   */\n      dup5\n        /* \"#utility.yul\":2372:2375   */\n      dup5\n        /* \"#utility.yul\":2368:2384   */\n      add\n        /* \"#utility.yul\":2365:2390   */\n      gt\n        /* \"#utility.yul\":2362:2474   */\n      iszero\n      tag_70\n      jumpi\n        /* \"#utility.yul\":2393:2472   */\n      tag_71\n      tag_24\n      jump\t// in\n    tag_71:\n        /* \"#utility.yul\":2362:2474   */\n    tag_70:\n        /* \"#utility.yul\":2483:2537   */\n      tag_72\n        /* \"#utility.yul\":2530:2536   */\n      dup5\n        /* \"#utility.yul\":2525:2528   */\n      dup3\n        /* \"#utility.yul\":2520:2523   */\n      dup6\n        /* \"#utility.yul\":2483:2537   */\n      tag_30\n      jump\t// in\n    tag_72:\n        /* \"#utility.yul\":2202:2543   */\n      pop\n        /* \"#utility.yul\":2118:2543   */\n      swap4\n      swap3\n      pop\n      pop\n      pop\n      jump\t// out\n        /* \"#utility.yul\":2563:2903   */\n    tag_32:\n        /* \"#utility.yul\":2619:2624   */\n      0x00\n        /* \"#utility.yul\":2668:2671   */\n      dup3\n        /* \"#utility.yul\":2661:2665   */\n      0x1f\n        /* \"#utility.yul\":2653:2659   */\n      dup4\n        /* \"#utility.yul\":2649:2666   */\n      add\n        /* \"#utility.yul\":2645:2672   */\n      slt\n        /* \"#utility.yul\":2635:2757   */\n      tag_74\n      jumpi\n        /* \"#utility.yul\":2676:2755   */\n      tag_75\n      tag_23\n      jump\t// in\n    tag_75:\n        /* \"#utility.yul\":2635:2757   */\n    tag_74:\n        /* \"#utility.yul\":2793:2799   */\n      dup2\n        /* \"#utility.yul\":2780:2800   */\n      calldataload\n        /* \"#utility.yul\":2818:2897   */\n      tag_76\n        /* \"#utility.yul\":2893:2896   */\n      dup5\n        /* \"#utility.yul\":2885:2891   */\n      dup3\n        /* \"#utility.yul\":2878:2882   */\n      0x20\n        /* \"#utility.yul\":2870:2876   */\n      dup7\n        /* \"#utility.yul\":2866:2883   */\n      add\n        /* \"#utility.yul\":2818:2897   */\n      tag_31\n      jump\t// in\n    tag_76:\n        /* \"#utility.yul\":2809:2897   */\n      swap2\n      pop\n        /* \"#utility.yul\":2625:2903   */\n      pop\n        /* \"#utility.yul\":2563:2903   */\n      swap3\n      swap2\n      pop\n      pop\n      jump\t// out\n        /* \"#utility.yul\":2909:2999   */\n    tag_33:\n        /* \"#utility.yul\":2943:2950   */\n      0x00\n        /* \"#utility.yul\":2986:2991   */\n      dup2\n        /* \"#utility.yul\":2979:2992   */\n      iszero\n        /* \"#utility.yul\":2972:2993   */\n      iszero\n        /* \"#utility.yul\":2961:2993   */\n      swap1\n      pop\n        /* \"#utility.yul\":2909:2999   */\n      swap2\n      swap1\n      pop\n      jump\t// out\n        /* \"#utility.yul\":3005:3121   */\n    tag_34:\n        /* \"#utility.yul\":3075:3096   */\n      tag_79\n        /* \"#utility.yul\":3090:3095   */\n      dup2\n        /* \"#utility.yul\":3075:3096   */\n      tag_33\n      jump\t// in\n    tag_79:\n        /* \"#utility.yul\":3068:3073   */\n      dup2\n        /* \"#utility.yul\":3065:3097   */\n      eq\n        /* \"#utility.yul\":3055:3115   */\n      tag_80\n      jumpi\n        /* \"#utility.yul\":3111:3112   */\n      0x00\n        /* \"#utility.yul\":3108:3109   */\n      dup1\n        /* \"#utility.yul\":3101:3113   */\n      revert\n        /* \"#utility.yul\":3055:3115   */\n    tag_80:\n        /* \"#utility.yul\":3005:3121   */\n      pop\n      jump\t// out\n        /* \"#utility.yul\":3127:3260   */\n    tag_35:\n        /* \"#utility.yul\":3170:3175   */\n      0x00\n        /* \"#utility.yul\":3208:3214   */\n      dup2\n        /* \"#utility.yul\":3195:3215   */\n      calldataload\n        /* \"#utility.yul\":3186:3215   */\n      swap1\n      pop\n        /* \"#utility.yul\":3224:3254   */\n      tag_82\n        /* \"#utility.yul\":3248:3253   */\n      dup2\n        /* \"#utility.yul\":3224:3254   */\n      tag_34\n      jump\t// in\n    tag_82:\n        /* \"#utility.yul\":3127:3260   */\n      swap3\n      swap2\n      pop\n      pop\n      jump\t// out\n        /* \"#utility.yul\":3266:3392   */\n    tag_36:\n        /* \"#utility.yul\":3303:3310   */\n      0x00\n        /* \"#utility.yul\":3343:3385   */\n      0xffffffffffffffffffffffffffffffffffffffff\n        /* \"#utility.yul\":3336:3341   */\n      dup3\n        /* \"#utility.yul\":3332:3386   */\n      and\n        /* \"#utility.yul\":3321:3386   */\n      swap1\n      pop\n        /* \"#utility.yul\":3266:3392   */\n      swap2\n      swap1\n      pop\n      jump\t// out\n        /* \"#utility.yul\":3398:3494   */\n    tag_37:\n        /* \"#utility.yul\":3435:3442   */\n      0x00\n        /* \"#utility.yul\":3464:3488   */\n      tag_85\n        /* \"#utility.yul\":3482:3487   */\n      dup3\n        /* \"#utility.yul\":3464:3488   */\n      tag_36\n      jump\t// in\n    tag_85:\n        /* \"#utility.yul\":3453:3488   */\n      swap1\n      pop\n        /* \"#utility.yul\":3398:3494   */\n      swap2\n      swap1\n      pop\n      jump\t// out\n        /* \"#utility.yul\":3500:3622   */\n    tag_38:\n        /* \"#utility.yul\":3573:3597   */\n      tag_87\n        /* \"#utility.yul\":3591:3596   */\n      dup2\n        /* \"#utility.yul\":3573:3597   */\n      tag_37\n      jump\t// in\n    tag_87:\n        /* \"#utility.yul\":3566:3571   */\n      dup2\n        /* \"#utility.yul\":3563:3598   */\n      eq\n        /* \"#utility.yul\":3553:3616   */\n      tag_88\n      jumpi\n        /* \"#utility.yul\":3612:3613   */\n      0x00\n        /* \"#utility.yul\":3609:3610   */\n      dup1\n        /* \"#utility.yul\":3602:3614   */\n      revert\n        /* \"#utility.yul\":3553:3616   */\n    tag_88:\n        /* \"#utility.yul\":3500:3622   */\n      pop\n      jump\t// out\n        /* \"#utility.yul\":3628:3767   */\n    tag_39:\n        /* \"#utility.yul\":3674:3679   */\n      0x00\n        /* \"#utility.yul\":3712:3718   */\n      dup2\n        /* \"#utility.yul\":3699:3719   */\n      calldataload\n        /* \"#utility.yul\":3690:3719   */\n      swap1\n      pop\n        /* \"#utility.yul\":3728:3761   */\n      tag_90\n        /* \"#utility.yul\":3755:3760   */\n      dup2\n        /* \"#utility.yul\":3728:3761   */\n      tag_38\n      jump\t// in\n    tag_90:\n        /* \"#utility.yul\":3628:3767   */\n      swap3\n      swap2\n      pop\n      pop\n      jump\t// out\n        /* \"#utility.yul\":3773:4712   */\n    tag_7:\n        /* \"#utility.yul\":3866:3872   */\n      0x00\n        /* \"#utility.yul\":3874:3880   */\n      dup1\n        /* \"#utility.yul\":3882:3888   */\n      0x00\n        /* \"#utility.yul\":3890:3896   */\n      dup1\n        /* \"#utility.yul\":3939:3942   */\n      0x80\n        /* \"#utility.yul\":3927:3936   */\n      dup6\n        /* \"#utility.yul\":3918:3925   */\n      dup8\n        /* \"#utility.yul\":3914:3937   */\n      sub\n        /* \"#utility.yul\":3910:3943   */\n      slt\n        /* \"#utility.yul\":3907:4027   */\n      iszero\n      tag_92\n      jumpi\n        /* \"#utility.yul\":3946:4025   */\n      tag_93\n      tag_18\n      jump\t// in\n    tag_93:\n        /* \"#utility.yul\":3907:4027   */\n    tag_92:\n        /* \"#utility.yul\":4066:4067   */\n      0x00\n        /* \"#utility.yul\":4091:4144   */\n      tag_94\n        /* \"#utility.yul\":4136:4143   */\n      dup8\n        /* \"#utility.yul\":4127:4133   */\n      dup3\n        /* \"#utility.yul\":4116:4125   */\n      dup9\n        /* \"#utility.yul\":4112:4134   */\n      add\n        /* \"#utility.yul\":4091:4144   */\n      tag_22\n      jump\t// in\n    tag_94:\n        /* \"#utility.yul\":4081:4144   */\n      swap5\n      pop\n        /* \"#utility.yul\":4037:4154   */\n      pop\n        /* \"#utility.yul\":4221:4223   */\n      0x20\n        /* \"#utility.yul\":4210:4219   */\n      dup6\n        /* \"#utility.yul\":4206:4224   */\n      add\n        /* \"#utility.yul\":4193:4225   */\n      calldataload\n        /* \"#utility.yul\":4252:4270   */\n      0xffffffffffffffff\n        /* \"#utility.yul\":4244:4250   */\n      dup2\n        /* \"#utility.yul\":4241:4271   */\n      gt\n        /* \"#utility.yul\":4238:4355   */\n      iszero\n      tag_95\n      jumpi\n        /* \"#utility.yul\":4274:4353   */\n      tag_96\n      tag_19\n      jump\t// in\n    tag_96:\n        /* \"#utility.yul\":4238:4355   */\n    tag_95:\n        /* \"#utility.yul\":4379:4442   */\n      tag_97\n        /* \"#utility.yul\":4434:4441   */\n      dup8\n        /* \"#utility.yul\":4425:4431   */\n      dup3\n        /* \"#utility.yul\":4414:4423   */\n      dup9\n        /* \"#utility.yul\":4410:4432   */\n      add\n        /* \"#utility.yul\":4379:4442   */\n      tag_32\n      jump\t// in\n    tag_97:\n        /* \"#utility.yul\":4369:4442   */\n      swap4\n      pop\n        /* \"#utility.yul\":4164:4452   */\n      pop\n        /* \"#utility.yul\":4491:4493   */\n      0x40\n        /* \"#utility.yul\":4517:4567   */\n      tag_98\n        /* \"#utility.yul\":4559:4566   */\n      dup8\n        /* \"#utility.yul\":4550:4556   */\n      dup3\n        /* \"#utility.yul\":4539:4548   */\n      dup9\n        /* \"#utility.yul\":4535:4557   */\n      add\n        /* \"#utility.yul\":4517:4567   */\n      tag_35\n      jump\t// in\n    tag_98:\n        /* \"#utility.yul\":4507:4567   */\n      swap3\n      pop\n        /* \"#utility.yul\":4462:4577   */\n      pop\n        /* \"#utility.yul\":4616:4618   */\n      0x60\n        /* \"#utility.yul\":4642:4695   */\n      tag_99\n        /* \"#utility.yul\":4687:4694   */\n      dup8\n        /* \"#utility.yul\":4678:4684   */\n      dup3\n        /* \"#utility.yul\":4667:4676   */\n      dup9\n        /* \"#utility.yul\":4663:4685   */\n      add\n        /* \"#utility.yul\":4642:4695   */\n      tag_39\n      jump\t// in\n    tag_99:\n        /* \"#utility.yul\":4632:4695   */\n      swap2\n      pop\n        /* \"#utility.yul\":4587:4705   */\n      pop\n        /* \"#utility.yul\":3773:4712   */\n      swap3\n      swap6\n      swap2\n      swap5\n      pop\n      swap3\n      pop\n      jump\t// out\n        /* \"#utility.yul\":4718:4836   */\n    tag_40:\n        /* \"#utility.yul\":4805:4829   */\n      tag_101\n        /* \"#utility.yul\":4823:4828   */\n      dup2\n        /* \"#utility.yul\":4805:4829   */\n      tag_20\n      jump\t// in\n    tag_101:\n        /* \"#utility.yul\":4800:4803   */\n      dup3\n        /* \"#utility.yul\":4793:4830   */\n      mstore\n        /* \"#utility.yul\":4718:4836   */\n      pop\n      pop\n      jump\t// out\n        /* \"#utility.yul\":4842:5064   */\n    tag_10:\n        /* \"#utility.yul\":4935:4939   */\n      0x00\n        /* \"#utility.yul\":4973:4975   */\n      0x20\n        /* \"#utility.yul\":4962:4971   */\n      dup3\n        /* \"#utility.yul\":4958:4976   */\n      add\n        /* \"#utility.yul\":4950:4976   */\n      swap1\n      pop\n        /* \"#utility.yul\":4986:5057   */\n      tag_103\n        /* \"#utility.yul\":5054:5055   */\n      0x00\n        /* \"#utility.yul\":5043:5052   */\n      dup4\n        /* \"#utility.yul\":5039:5056   */\n      add\n        /* \"#utility.yul\":5030:5036   */\n      dup5\n        /* \"#utility.yul\":4986:5057   */\n      tag_40\n      jump\t// in\n    tag_103:\n        /* \"#utility.yul\":4842:5064   */\n      swap3\n      swap2\n      pop\n      pop\n      jump\t// out\n\n    auxdata: 0xa2646970667358221220d8209f05dddd4563ef550d84403ba0cd9783cf6976a26ffa08104d9a9162061c64736f6c63430008110033\n}\n",
				"bytecode": {
					"linkReferences": {},
					"object": "608060405234801561001057600080fd5b506103ea806100206000396000f3fe608060405234801561001057600080fd5b50600436106100365760003560e01c80636ea866ad1461003b578063f26253f11461006b575b600080fd5b61005560048036038101906100509190610307565b610089565b6040516100629190610399565b60405180910390f35b610073610097565b6040516100809190610399565b60405180910390f35b6000600a9050949350505050565b60006100dc600a6040518060400160405280600781526020017f5368756268616d00000000000000000000000000000000000000000000000000815250600133610089565b905090565b6000604051905090565b600080fd5b600080fd5b6000819050919050565b610108816100f5565b811461011357600080fd5b50565b600081359050610125816100ff565b92915050565b600080fd5b600080fd5b6000601f19601f8301169050919050565b7f4e487b7100000000000000000000000000000000000000000000000000000000600052604160045260246000fd5b61017e82610135565b810181811067ffffffffffffffff8211171561019d5761019c610146565b5b80604052505050565b60006101b06100e1565b90506101bc8282610175565b919050565b600067ffffffffffffffff8211156101dc576101db610146565b5b6101e582610135565b9050602081019050919050565b82818337600083830152505050565b600061021461020f846101c1565b6101a6565b9050828152602081018484840111156102305761022f610130565b5b61023b8482856101f2565b509392505050565b600082601f8301126102585761025761012b565b5b8135610268848260208601610201565b91505092915050565b60008115159050919050565b61028681610271565b811461029157600080fd5b50565b6000813590506102a38161027d565b92915050565b600073ffffffffffffffffffffffffffffffffffffffff82169050919050565b60006102d4826102a9565b9050919050565b6102e4816102c9565b81146102ef57600080fd5b50565b600081359050610301816102db565b92915050565b60008060008060808587031215610321576103206100eb565b5b600061032f87828801610116565b945050602085013567ffffffffffffffff8111156103505761034f6100f0565b5b61035c87828801610243565b935050604061036d87828801610294565b925050606061037e878288016102f2565b91505092959194509250565b610393816100f5565b82525050565b60006020820190506103ae600083018461038a565b9291505056fea2646970667358221220d8209f05dddd4563ef550d84403ba0cd9783cf6976a26ffa08104d9a9162061c64736f6c63430008110033",
					"opcodes": "PUSH1 0x80 PUSH1 0x40 MSTORE CALLVALUE DUP1 ISZERO PUSH2 0x10 JUMPI PUSH1 0x0 DUP1 REVERT JUMPDEST POP PUSH2 0x3EA DUP1 PUSH2 0x20 PUSH1 0x0 CODECOPY PUSH1 0x0 RETURN INVALID PUSH1 0x80 PUSH1 0x40 MSTORE CALLVALUE DUP1 ISZERO PUSH2 0x10 JUMPI PUSH1 0x0 DUP1 REVERT JUMPDEST POP PUSH1 0x4 CALLDATASIZE LT PUSH2 0x36 JUMPI PUSH1 0x0 CALLDATALOAD PUSH1 0xE0 SHR DUP1 PUSH4 0x6EA866AD EQ PUSH2 0x3B JUMPI DUP1 PUSH4 0xF26253F1 EQ PUSH2 0x6B JUMPI JUMPDEST PUSH1 0x0 DUP1 REVERT JUMPDEST PUSH2 0x55 PUSH1 0x4 DUP1 CALLDATASIZE SUB DUP2 ADD SWAP1 PUSH2 0x50 SWAP2 SWAP1 PUSH2 0x307 JUMP JUMPDEST PUSH2 0x89 JUMP JUMPDEST PUSH1 0x40 MLOAD PUSH2 0x62 SWAP2 SWAP1 PUSH2 0x399 JUMP JUMPDEST PUSH1 0x40 MLOAD DUP1 SWAP2 SUB SWAP1 RETURN JUMPDEST PUSH2 0x73 PUSH2 0x97 JUMP JUMPDEST PUSH1 0x40 MLOAD PUSH2 0x80 SWAP2 SWAP1 PUSH2 0x399 JUMP JUMPDEST PUSH1 0x40 MLOAD DUP1 SWAP2 SUB SWAP1 RETURN JUMPDEST PUSH1 0x0 PUSH1 0xA SWAP1 POP SWAP5 SWAP4 POP POP POP POP JUMP JUMPDEST PUSH1 0x0 PUSH2 0xDC PUSH1 0xA PUSH1 0x40 MLOAD DUP1 PUSH1 0x40 ADD PUSH1 0x40 MSTORE DUP1 PUSH1 0x7 DUP2 MSTORE PUSH1 0x20 ADD PUSH32 0x5368756268616D00000000000000000000000000000000000000000000000000 DUP2 MSTORE POP PUSH1 0x1 CALLER PUSH2 0x89 JUMP JUMPDEST SWAP1 POP SWAP1 JUMP JUMPDEST PUSH1 0x0 PUSH1 0x40 MLOAD SWAP1 POP SWAP1 JUMP JUMPDEST PUSH1 0x0 DUP1 REVERT JUMPDEST PUSH1 0x0 DUP1 REVERT JUMPDEST PUSH1 0x0 DUP2 SWAP1 POP SWAP2 SWAP1 POP JUMP JUMPDEST PUSH2 0x108 DUP2 PUSH2 0xF5 JUMP JUMPDEST DUP2 EQ PUSH2 0x113 JUMPI PUSH1 0x0 DUP1 REVERT JUMPDEST POP JUMP JUMPDEST PUSH1 0x0 DUP2 CALLDATALOAD SWAP1 POP PUSH2 0x125 DUP2 PUSH2 0xFF JUMP JUMPDEST SWAP3 SWAP2 POP POP JUMP JUMPDEST PUSH1 0x0 DUP1 REVERT JUMPDEST PUSH1 0x0 DUP1 REVERT JUMPDEST PUSH1 0x0 PUSH1 0x1F NOT PUSH1 0x1F DUP4 ADD AND SWAP1 POP SWAP2 SWAP1 POP JUMP JUMPDEST PUSH32 0x4E487B7100000000000000000000000000000000000000000000000000000000 PUSH1 0x0 MSTORE PUSH1 0x41 PUSH1 0x4 MSTORE PUSH1 0x24 PUSH1 0x0 REVERT JUMPDEST PUSH2 0x17E DUP3 PUSH2 0x135 JUMP JUMPDEST DUP2 ADD DUP2 DUP2 LT PUSH8 0xFFFFFFFFFFFFFFFF DUP3 GT OR ISZERO PUSH2 0x19D JUMPI PUSH2 0x19C PUSH2 0x146 JUMP JUMPDEST JUMPDEST DUP1 PUSH1 0x40 MSTORE POP POP POP JUMP JUMPDEST PUSH1 0x0 PUSH2 0x1B0 PUSH2 0xE1 JUMP JUMPDEST SWAP1 POP PUSH2 0x1BC DUP3 DUP3 PUSH2 0x175 JUMP JUMPDEST SWAP2 SWAP1 POP JUMP JUMPDEST PUSH1 0x0 PUSH8 0xFFFFFFFFFFFFFFFF DUP3 GT ISZERO PUSH2 0x1DC JUMPI PUSH2 0x1DB PUSH2 0x146 JUMP JUMPDEST JUMPDEST PUSH2 0x1E5 DUP3 PUSH2 0x135 JUMP JUMPDEST SWAP1 POP PUSH1 0x20 DUP2 ADD SWAP1 POP SWAP2 SWAP1 POP JUMP JUMPDEST DUP3 DUP2 DUP4 CALLDATACOPY PUSH1 0x0 DUP4 DUP4 ADD MSTORE POP POP POP JUMP JUMPDEST PUSH1 0x0 PUSH2 0x214 PUSH2 0x20F DUP5 PUSH2 0x1C1 JUMP JUMPDEST PUSH2 0x1A6 JUMP JUMPDEST SWAP1 POP DUP3 DUP2 MSTORE PUSH1 0x20 DUP2 ADD DUP5 DUP5 DUP5 ADD GT ISZERO PUSH2 0x230 JUMPI PUSH2 0x22F PUSH2 0x130 JUMP JUMPDEST JUMPDEST PUSH2 0x23B DUP5 DUP3 DUP6 PUSH2 0x1F2 JUMP JUMPDEST POP SWAP4 SWAP3 POP POP POP JUMP JUMPDEST PUSH1 0x0 DUP3 PUSH1 0x1F DUP4 ADD SLT PUSH2 0x258 JUMPI PUSH2 0x257 PUSH2 0x12B JUMP JUMPDEST JUMPDEST DUP2 CALLDATALOAD PUSH2 0x268 DUP5 DUP3 PUSH1 0x20 DUP7 ADD PUSH2 0x201 JUMP JUMPDEST SWAP2 POP POP SWAP3 SWAP2 POP POP JUMP JUMPDEST PUSH1 0x0 DUP2 ISZERO ISZERO SWAP1 POP SWAP2 SWAP1 POP JUMP JUMPDEST PUSH2 0x286 DUP2 PUSH2 0x271 JUMP JUMPDEST DUP2 EQ PUSH2 0x291 JUMPI PUSH1 0x0 DUP1 REVERT JUMPDEST POP JUMP JUMPDEST PUSH1 0x0 DUP2 CALLDATALOAD SWAP1 POP PUSH2 0x2A3 DUP2 PUSH2 0x27D JUMP JUMPDEST SWAP3 SWAP2 POP POP JUMP JUMPDEST PUSH1 0x0 PUSH20 0xFFFFFFFFFFFFFFFFFFFFFFFFFFFFFFFFFFFFFFFF DUP3 AND SWAP1 POP SWAP2 SWAP1 POP JUMP JUMPDEST PUSH1 0x0 PUSH2 0x2D4 DUP3 PUSH2 0x2A9 JUMP JUMPDEST SWAP1 POP SWAP2 SWAP1 POP JUMP JUMPDEST PUSH2 0x2E4 DUP2 PUSH2 0x2C9 JUMP JUMPDEST DUP2 EQ PUSH2 0x2EF JUMPI PUSH1 0x0 DUP1 REVERT JUMPDEST POP JUMP JUMPDEST PUSH1 0x0 DUP2 CALLDATALOAD SWAP1 POP PUSH2 0x301 DUP2 PUSH2 0x2DB JUMP JUMPDEST SWAP3 SWAP2 POP POP JUMP JUMPDEST PUSH1 0x0 DUP1 PUSH1 0x0 DUP1 PUSH1 0x80 DUP6 DUP8 SUB SLT ISZERO PUSH2 0x321 JUMPI PUSH2 0x320 PUSH2 0xEB JUMP JUMPDEST JUMPDEST PUSH1 0x0 PUSH2 0x32F DUP8 DUP3 DUP9 ADD PUSH2 0x116 JUMP JUMPDEST SWAP5 POP POP PUSH1 0x20 DUP6 ADD CALLDATALOAD PUSH8 0xFFFFFFFFFFFFFFFF DUP2 GT ISZERO PUSH2 0x350 JUMPI PUSH2 0x34F PUSH2 0xF0 JUMP JUMPDEST JUMPDEST PUSH2 0x35C DUP8 DUP3 DUP9 ADD PUSH2 0x243 JUMP JUMPDEST SWAP4 POP POP PUSH1 0x40 PUSH2 0x36D DUP8 DUP3 DUP9 ADD PUSH2 0x294 JUMP JUMPDEST SWAP3 POP POP PUSH1 0x60 PUSH2 0x37E DUP8 DUP3 DUP9 ADD PUSH2 0x2F2 JUMP JUMPDEST SWAP2 POP POP SWAP3 SWAP6 SWAP2 SWAP5 POP SWAP3 POP JUMP JUMPDEST PUSH2 0x393 DUP2 PUSH2 0xF5 JUMP JUMPDEST DUP3 MSTORE POP POP JUMP JUMPDEST PUSH1 0x0 PUSH1 0x20 DUP3 ADD SWAP1 POP PUSH2 0x3AE PUSH1 0x0 DUP4 ADD DUP5 PUSH2 0x38A JUMP JUMPDEST SWAP3 SWAP2 POP POP JUMP INVALID LOG2 PUSH5 0x6970667358 0x22 SLT KECCAK256 0xD8 KECCAK256 SWAP16 SDIV 0xDD 0xDD GASLIMIT PUSH4 0xEF550D84 BLOCKHASH EXTCODESIZE LOG0 0xCD SWAP8 DUP4 0xCF PUSH10 0x76A26FFA08104D9A9162 MOD SHR PUSH5 0x736F6C6343 STOP ADDMOD GT STOP CALLER "
				},
				"gasEstimates": {
					"creation": {
						"codeDepositCost": "200400",
						"executionCost": "245",
						"totalCost": "200645"
					},
					"external": {
						"A(uint256,string,bool,address)": "infinite",
						"callingA()": "447"
					}
				},
				"methodIdentifiers": {
					"A(uint256,string,bool,address)": "6ea866ad",
					"callingA()": "f26253f1"
				}
			},
			"storageLayout": {
				"storage": [],
				"types": null
			},
			"userdoc": {
				"kind": "user",
				"methods": {},
				"version": 1
			}
		}
	}
}