{
	"tutorials/array_index_remove.sol": {
		"ArrayIndexRemove": {
			"abi": [
				{
					"inputs": [
						{
							"internalType": "uint256",
							"name": "",
							"type": "uint256"
						}
					],
					"name": "arr",
					"outputs": [
						{
							"internalType": "uint256",
							"name": "",
							"type": "uint256"
						}
					],
					"stateMutability": "view",
					"type": "function"
				},
				{
					"inputs": [],
					"name": "getArr",
					"outputs": [
						{
							"internalType": "uint256[]",
							"name": "",
							"type": "uint256[]"
						}
					],
					"stateMutability": "view",
					"type": "function"
				},
				{
					"inputs": [
						{
							"internalType": "uint256",
							"name": "_index",
							"type": "uint256"
						}
					],
					"name": "removeIndex",
					"outputs": [],
					"stateMutability": "nonpayable",
					"type": "function"
				}
			],
			"devdoc": {
				"kind": "dev",
				"methods": {},
				"version": 1
			},
			"evm": {
				"assembly": "    /* \"tutorials/array_index_remove.sol\":99:130  uint[] public arr = [1,2,3,4,5] */\n  0x0120\n    /* \"tutorials/array_index_remove.sol\":60:506  contract ArrayIndexRemove {... */\n  0x40\n    /* \"tutorials/array_index_remove.sol\":99:130  uint[] public arr = [1,2,3,4,5] */\n  mstore\n    /* \"tutorials/array_index_remove.sol\":120:121  1 */\n  0x01\n    /* \"tutorials/array_index_remove.sol\":60:506  contract ArrayIndexRemove {... */\n  0x80\n    /* \"tutorials/array_index_remove.sol\":99:130  uint[] public arr = [1,2,3,4,5] */\n  swap1\n  dup2\n  mstore\n    /* \"tutorials/array_index_remove.sol\":122:123  2 */\n  0x02\n    /* \"tutorials/array_index_remove.sol\":99:130  uint[] public arr = [1,2,3,4,5] */\n  0xa0\n  mstore\n    /* \"tutorials/array_index_remove.sol\":124:125  3 */\n  0x03\n    /* \"tutorials/array_index_remove.sol\":99:130  uint[] public arr = [1,2,3,4,5] */\n  0xc0\n  mstore\n    /* \"tutorials/array_index_remove.sol\":126:127  4 */\n  0x04\n    /* \"tutorials/array_index_remove.sol\":99:130  uint[] public arr = [1,2,3,4,5] */\n  0xe0\n  mstore\n    /* \"tutorials/array_index_remove.sol\":128:129  5 */\n  0x05\n    /* \"tutorials/array_index_remove.sol\":99:130  uint[] public arr = [1,2,3,4,5] */\n  0x0100\n  dup2\n  swap1\n  mstore\n  tag_1\n  swap2\n  0x00\n  swap2\n  tag_2\n  jump\t// in\ntag_1:\n  pop\n    /* \"tutorials/array_index_remove.sol\":60:506  contract ArrayIndexRemove {... */\n  callvalue\n  dup1\n  iszero\n  tag_3\n  jumpi\n  0x00\n  dup1\n  revert\ntag_3:\n  pop\n  jump(tag_4)\ntag_2:\n  dup3\n  dup1\n  sload\n  dup3\n  dup3\n  sstore\n  swap1\n  0x00\n  mstore\n  keccak256(0x00, 0x20)\n  swap1\n  dup2\n  add\n  swap3\n  dup3\n  iszero\n  tag_7\n  jumpi\n  swap2\n  0x20\n  mul\n  dup3\n  add\ntag_6:\n  dup3\n  dup2\n  gt\n  iszero\n  tag_7\n  jumpi\n  dup3\n  mload\n  dup3\n  swap1\n  0xff\n  and\n  swap1\n  sstore\n  swap2\n  0x20\n  add\n  swap2\n  swap1\n  0x01\n  add\n  swap1\n  jump(tag_6)\ntag_7:\n  pop\n  tag_8\n  swap3\n  swap2\n  pop\n  tag_9\n  jump\t// in\ntag_8:\n  pop\n  swap1\n  jump\t// out\ntag_9:\ntag_10:\n  dup1\n  dup3\n  gt\n  iszero\n  tag_8\n  jumpi\n  0x00\n  dup2\n  sstore\n  0x01\n  add\n  jump(tag_10)\ntag_4:\n  dataSize(sub_0)\n  dup1\n  dataOffset(sub_0)\n  0x00\n  codecopy\n  0x00\n  return\nstop\n\nsub_0: assembly {\n        /* \"tutorials/array_index_remove.sol\":60:506  contract ArrayIndexRemove {... */\n      mstore(0x40, 0x80)\n      callvalue\n      dup1\n      iszero\n      tag_1\n      jumpi\n      0x00\n      dup1\n      revert\n    tag_1:\n      pop\n      jumpi(tag_2, lt(calldatasize, 0x04))\n      shr(0xe0, calldataload(0x00))\n      dup1\n      0x71e5ee5f\n      eq\n      tag_3\n      jumpi\n      dup1\n      0xf53d9ec1\n      eq\n      tag_4\n      jumpi\n      dup1\n      0xfb8cbced\n      eq\n      tag_5\n      jumpi\n    tag_2:\n      0x00\n      dup1\n      revert\n        /* \"tutorials/array_index_remove.sol\":99:130  uint[] public arr = [1,2,3,4,5] */\n    tag_3:\n      tag_6\n      tag_7\n      calldatasize\n      0x04\n      tag_8\n      jump\t// in\n    tag_7:\n      tag_9\n      jump\t// in\n    tag_6:\n      mload(0x40)\n        /* \"#utility.yul\":345:370   */\n      swap1\n      dup2\n      mstore\n        /* \"#utility.yul\":333:335   */\n      0x20\n        /* \"#utility.yul\":318:336   */\n      add\n        /* \"tutorials/array_index_remove.sol\":99:130  uint[] public arr = [1,2,3,4,5] */\n    tag_10:\n      mload(0x40)\n      dup1\n      swap2\n      sub\n      swap1\n      return\n        /* \"tutorials/array_index_remove.sol\":139:409  function removeIndex(uint _index) public {... */\n    tag_4:\n      tag_12\n      tag_13\n      calldatasize\n      0x04\n      tag_8\n      jump\t// in\n    tag_13:\n      tag_14\n      jump\t// in\n    tag_12:\n      stop\n        /* \"tutorials/array_index_remove.sol\":417:499  function getArr() public view returns(uint[] memory) {... */\n    tag_5:\n      tag_15\n      tag_16\n      jump\t// in\n    tag_15:\n      mload(0x40)\n      tag_10\n      swap2\n      swap1\n      tag_18\n      jump\t// in\n        /* \"tutorials/array_index_remove.sol\":99:130  uint[] public arr = [1,2,3,4,5] */\n    tag_9:\n      0x00\n      dup2\n      dup2\n      sload\n      dup2\n      lt\n      tag_19\n      jumpi\n      0x00\n      dup1\n      revert\n    tag_19:\n      0x00\n      swap2\n      dup3\n      mstore\n      0x20\n      swap1\n      swap2\n      keccak256\n      add\n      sload\n      swap1\n      pop\n      dup2\n      jump\t// out\n        /* \"tutorials/array_index_remove.sol\":139:409  function removeIndex(uint _index) public {... */\n    tag_14:\n        /* \"tutorials/array_index_remove.sol\":249:250  0 */\n      0x00\n        /* \"tutorials/array_index_remove.sol\":236:246  arr.length */\n      sload\n        /* \"tutorials/array_index_remove.sol\":228:277  require(arr.length > 0, \"Array can't be empty !\") */\n      tag_22\n      jumpi\n      mload(0x40)\n      shl(0xe5, 0x461bcd)\n      dup2\n      mstore\n        /* \"#utility.yul\":1220:1222   */\n      0x20\n        /* \"tutorials/array_index_remove.sol\":228:277  require(arr.length > 0, \"Array can't be empty !\") */\n      0x04\n      dup3\n      add\n        /* \"#utility.yul\":1202:1223   */\n      mstore\n        /* \"#utility.yul\":1259:1261   */\n      0x16\n        /* \"#utility.yul\":1239:1257   */\n      0x24\n      dup3\n      add\n        /* \"#utility.yul\":1232:1262   */\n      mstore\n      shl(0x50, 0x41727261792063616e277420626520656d7074792021)\n        /* \"#utility.yul\":1278:1296   */\n      0x44\n      dup3\n      add\n        /* \"#utility.yul\":1271:1323   */\n      mstore\n        /* \"#utility.yul\":1340:1358   */\n      0x64\n      add\n        /* \"tutorials/array_index_remove.sol\":228:277  require(arr.length > 0, \"Array can't be empty !\") */\n    tag_23:\n      mload(0x40)\n      dup1\n      swap2\n      sub\n      swap1\n      revert\n    tag_22:\n        /* \"tutorials/array_index_remove.sol\":306:309  arr */\n      0x00\n        /* \"tutorials/array_index_remove.sol\":306:316  arr.length */\n      sload\n        /* \"tutorials/array_index_remove.sol\":306:320  arr.length - 1 */\n      tag_25\n      swap1\n        /* \"tutorials/array_index_remove.sol\":319:320  1 */\n      0x01\n      swap1\n        /* \"tutorials/array_index_remove.sol\":306:320  arr.length - 1 */\n      tag_26\n      jump\t// in\n    tag_25:\n        /* \"tutorials/array_index_remove.sol\":296:302  _index */\n      dup2\n        /* \"tutorials/array_index_remove.sol\":296:321  _index < (arr.length - 1) */\n      lt\n        /* \"tutorials/array_index_remove.sol\":288:339  require(_index < (arr.length - 1), \"Invalid Index\") */\n      tag_27\n      jumpi\n      mload(0x40)\n      shl(0xe5, 0x461bcd)\n      dup2\n      mstore\n        /* \"#utility.yul\":1798:1800   */\n      0x20\n        /* \"tutorials/array_index_remove.sol\":288:339  require(_index < (arr.length - 1), \"Invalid Index\") */\n      0x04\n      dup3\n      add\n        /* \"#utility.yul\":1780:1801   */\n      mstore\n        /* \"#utility.yul\":1837:1839   */\n      0x0d\n        /* \"#utility.yul\":1817:1835   */\n      0x24\n      dup3\n      add\n        /* \"#utility.yul\":1810:1840   */\n      mstore\n      shl(0x9b, 0x092dcecc2d8d2c84092dcc8caf)\n        /* \"#utility.yul\":1856:1874   */\n      0x44\n      dup3\n      add\n        /* \"#utility.yul\":1849:1892   */\n      mstore\n        /* \"#utility.yul\":1909:1927   */\n      0x64\n      add\n        /* \"tutorials/array_index_remove.sol\":288:339  require(_index < (arr.length - 1), \"Invalid Index\") */\n      tag_23\n        /* \"#utility.yul\":1596:1933   */\n      jump\n        /* \"tutorials/array_index_remove.sol\":288:339  require(_index < (arr.length - 1), \"Invalid Index\") */\n    tag_27:\n        /* \"tutorials/array_index_remove.sol\":364:367  arr */\n      0x00\n        /* \"tutorials/array_index_remove.sol\":368:378  arr.length */\n      dup1\n      sload\n        /* \"tutorials/array_index_remove.sol\":368:380  arr.length-1 */\n      tag_30\n      swap1\n        /* \"tutorials/array_index_remove.sol\":379:380  1 */\n      0x01\n      swap1\n        /* \"tutorials/array_index_remove.sol\":368:380  arr.length-1 */\n      tag_26\n      jump\t// in\n    tag_30:\n        /* \"tutorials/array_index_remove.sol\":364:381  arr[arr.length-1] */\n      dup2\n      sload\n      dup2\n      lt\n      tag_32\n      jumpi\n      tag_32\n      tag_33\n      jump\t// in\n    tag_32:\n      swap1\n      0x00\n      mstore\n      keccak256(0x00, 0x20)\n      add\n      sload\n        /* \"tutorials/array_index_remove.sol\":350:353  arr */\n      0x00\n        /* \"tutorials/array_index_remove.sol\":354:360  _index */\n      dup3\n        /* \"tutorials/array_index_remove.sol\":350:361  arr[_index] */\n      dup2\n      sload\n      dup2\n      lt\n      tag_36\n      jumpi\n      tag_36\n      tag_33\n      jump\t// in\n    tag_36:\n      swap1\n      0x00\n      mstore\n      keccak256(0x00, 0x20)\n      add\n        /* \"tutorials/array_index_remove.sol\":350:381  arr[_index] = arr[arr.length-1] */\n      dup2\n      swap1\n      sstore\n      pop\n        /* \"tutorials/array_index_remove.sol\":392:395  arr */\n      0x00\n        /* \"tutorials/array_index_remove.sol\":392:401  arr.pop() */\n      dup1\n      sload\n      dup1\n      tag_39\n      jumpi\n      tag_39\n      tag_40\n      jump\t// in\n    tag_39:\n      0x01\n      swap1\n      sub\n      dup2\n      dup2\n      swap1\n      0x00\n      mstore\n      keccak256(0x00, 0x20)\n      add\n      0x00\n      swap1\n      sstore\n      swap1\n      sstore\n        /* \"tutorials/array_index_remove.sol\":139:409  function removeIndex(uint _index) public {... */\n      pop\n      jump\t// out\n        /* \"tutorials/array_index_remove.sol\":417:499  function getArr() public view returns(uint[] memory) {... */\n    tag_16:\n        /* \"tutorials/array_index_remove.sol\":455:468  uint[] memory */\n      0x60\n        /* \"tutorials/array_index_remove.sol\":488:491  arr */\n      0x00\n        /* \"tutorials/array_index_remove.sol\":481:491  return arr */\n      dup1\n      sload\n      dup1\n      0x20\n      mul\n      0x20\n      add\n      mload(0x40)\n      swap1\n      dup2\n      add\n      0x40\n      mstore\n      dup1\n      swap3\n      swap2\n      swap1\n      dup2\n      dup2\n      mstore\n      0x20\n      add\n      dup3\n      dup1\n      sload\n      dup1\n      iszero\n      tag_43\n      jumpi\n      0x20\n      mul\n      dup3\n      add\n      swap2\n      swap1\n      0x00\n      mstore\n      keccak256(0x00, 0x20)\n      swap1\n    tag_44:\n      dup2\n      sload\n      dup2\n      mstore\n      0x20\n      add\n      swap1\n      0x01\n      add\n      swap1\n      dup1\n      dup4\n      gt\n      tag_44\n      jumpi\n    tag_43:\n      pop\n      pop\n      pop\n      pop\n      pop\n      swap1\n      pop\n        /* \"tutorials/array_index_remove.sol\":417:499  function getArr() public view returns(uint[] memory) {... */\n      swap1\n      jump\t// out\n        /* \"#utility.yul\":14:194   */\n    tag_8:\n        /* \"#utility.yul\":73:79   */\n      0x00\n        /* \"#utility.yul\":126:128   */\n      0x20\n        /* \"#utility.yul\":114:123   */\n      dup3\n        /* \"#utility.yul\":105:112   */\n      dup5\n        /* \"#utility.yul\":101:124   */\n      sub\n        /* \"#utility.yul\":97:129   */\n      slt\n        /* \"#utility.yul\":94:146   */\n      iszero\n      tag_47\n      jumpi\n        /* \"#utility.yul\":142:143   */\n      0x00\n        /* \"#utility.yul\":139:140   */\n      dup1\n        /* \"#utility.yul\":132:144   */\n      revert\n        /* \"#utility.yul\":94:146   */\n    tag_47:\n      pop\n        /* \"#utility.yul\":165:188   */\n      calldataload\n      swap2\n        /* \"#utility.yul\":14:194   */\n      swap1\n      pop\n      jump\t// out\n        /* \"#utility.yul\":381:1013   */\n    tag_18:\n        /* \"#utility.yul\":552:554   */\n      0x20\n        /* \"#utility.yul\":604:625   */\n      dup1\n      dup3\n      mstore\n        /* \"#utility.yul\":674:687   */\n      dup3\n      mload\n        /* \"#utility.yul\":577:595   */\n      dup3\n      dup3\n      add\n        /* \"#utility.yul\":696:718   */\n      dup2\n      swap1\n      mstore\n        /* \"#utility.yul\":523:527   */\n      0x00\n      swap2\n        /* \"#utility.yul\":552:554   */\n      swap1\n        /* \"#utility.yul\":775:790   */\n      dup5\n      dup3\n      add\n      swap1\n        /* \"#utility.yul\":749:751   */\n      0x40\n        /* \"#utility.yul\":734:752   */\n      dup6\n      add\n      swap1\n        /* \"#utility.yul\":523:527   */\n      dup5\n        /* \"#utility.yul\":818:987   */\n    tag_50:\n        /* \"#utility.yul\":832:838   */\n      dup2\n        /* \"#utility.yul\":829:830   */\n      dup2\n        /* \"#utility.yul\":826:839   */\n      lt\n        /* \"#utility.yul\":818:987   */\n      iszero\n      tag_52\n      jumpi\n        /* \"#utility.yul\":893:906   */\n      dup4\n      mload\n        /* \"#utility.yul\":881:907   */\n      dup4\n      mstore\n        /* \"#utility.yul\":962:977   */\n      swap3\n      dup5\n      add\n      swap3\n        /* \"#utility.yul\":927:939   */\n      swap2\n      dup5\n      add\n      swap2\n        /* \"#utility.yul\":854:855   */\n      0x01\n        /* \"#utility.yul\":847:856   */\n      add\n        /* \"#utility.yul\":818:987   */\n      jump(tag_50)\n    tag_52:\n      pop\n        /* \"#utility.yul\":1004:1007   */\n      swap1\n      swap7\n        /* \"#utility.yul\":381:1013   */\n      swap6\n      pop\n      pop\n      pop\n      pop\n      pop\n      pop\n      jump\t// out\n        /* \"#utility.yul\":1369:1591   */\n    tag_26:\n        /* \"#utility.yul\":1409:1413   */\n      0x00\n        /* \"#utility.yul\":1437:1438   */\n      dup3\n        /* \"#utility.yul\":1434:1435   */\n      dup3\n        /* \"#utility.yul\":1431:1439   */\n      lt\n        /* \"#utility.yul\":1428:1559   */\n      iszero\n      tag_55\n      jumpi\n        /* \"#utility.yul\":1481:1491   */\n      0x4e487b71\n        /* \"#utility.yul\":1476:1479   */\n      0xe0\n        /* \"#utility.yul\":1472:1492   */\n      shl\n        /* \"#utility.yul\":1469:1470   */\n      0x00\n        /* \"#utility.yul\":1462:1493   */\n      mstore\n        /* \"#utility.yul\":1516:1520   */\n      0x11\n        /* \"#utility.yul\":1513:1514   */\n      0x04\n        /* \"#utility.yul\":1506:1521   */\n      mstore\n        /* \"#utility.yul\":1544:1548   */\n      0x24\n        /* \"#utility.yul\":1541:1542   */\n      0x00\n        /* \"#utility.yul\":1534:1549   */\n      revert\n        /* \"#utility.yul\":1428:1559   */\n    tag_55:\n      pop\n        /* \"#utility.yul\":1576:1585   */\n      sub\n      swap1\n        /* \"#utility.yul\":1369:1591   */\n      jump\t// out\n        /* \"#utility.yul\":1938:2065   */\n    tag_33:\n        /* \"#utility.yul\":1999:2009   */\n      0x4e487b71\n        /* \"#utility.yul\":1994:1997   */\n      0xe0\n        /* \"#utility.yul\":1990:2010   */\n      shl\n        /* \"#utility.yul\":1987:1988   */\n      0x00\n        /* \"#utility.yul\":1980:2011   */\n      mstore\n        /* \"#utility.yul\":2030:2034   */\n      0x32\n        /* \"#utility.yul\":2027:2028   */\n      0x04\n        /* \"#utility.yul\":2020:2035   */\n      mstore\n        /* \"#utility.yul\":2054:2058   */\n      0x24\n        /* \"#utility.yul\":2051:2052   */\n      0x00\n        /* \"#utility.yul\":2044:2059   */\n      revert\n        /* \"#utility.yul\":2070:2197   */\n    tag_40:\n        /* \"#utility.yul\":2131:2141   */\n      0x4e487b71\n        /* \"#utility.yul\":2126:2129   */\n      0xe0\n        /* \"#utility.yul\":2122:2142   */\n      shl\n        /* \"#utility.yul\":2119:2120   */\n      0x00\n        /* \"#utility.yul\":2112:2143   */\n      mstore\n        /* \"#utility.yul\":2162:2166   */\n      0x31\n        /* \"#utility.yul\":2159:2160   */\n      0x04\n        /* \"#utility.yul\":2152:2167   */\n      mstore\n        /* \"#utility.yul\":2186:2190   */\n      0x24\n        /* \"#utility.yul\":2183:2184   */\n      0x00\n        /* \"#utility.yul\":2176:2191   */\n      revert\n\n    auxdata: 0xa26469706673582212208f290d1ebe7d3c7c708a00ca4214379cddef89d2fb9b2af3dd46a184c7d8b5a264736f6c63430008080033\n}\n",
				"bytecode": {
					"linkReferences": {},
					"object": "61012060405260016080908152600260a052600360c052600460e052600561010081905261002f91600091610042565b5034801561003c57600080fd5b506100a7565b828054828255906000526020600020908101928215610082579160200282015b82811115610082578251829060ff16905591602001919060010190610062565b5061008e929150610092565b5090565b5b8082111561008e5760008155600101610093565b610303806100b66000396000f3fe608060405234801561001057600080fd5b50600436106100415760003560e01c806371e5ee5f14610046578063f53d9ec11461006c578063fb8cbced14610081575b600080fd5b61005961005436600461021f565b610096565b6040519081526020015b60405180910390f35b61007f61007a36600461021f565b6100b7565b005b6100896101c7565b6040516100639190610238565b600081815481106100a657600080fd5b600091825260209091200154905081565b6000546101045760405162461bcd60e51b815260206004820152601660248201527541727261792063616e277420626520656d707479202160501b60448201526064015b60405180910390fd5b6000546101139060019061027c565b81106101515760405162461bcd60e51b815260206004820152600d60248201526c092dcecc2d8d2c84092dcc8caf609b1b60448201526064016100fb565b600080546101619060019061027c565b81548110610171576101716102a1565b90600052602060002001546000828154811061018f5761018f6102a1565b906000526020600020018190555060008054806101ae576101ae6102b7565b6001900381819060005260206000200160009055905550565b6060600080548060200260200160405190810160405280929190818152602001828054801561021557602002820191906000526020600020905b815481526020019060010190808311610201575b5050505050905090565b60006020828403121561023157600080fd5b5035919050565b6020808252825182820181905260009190848201906040850190845b8181101561027057835183529284019291840191600101610254565b50909695505050505050565b60008282101561029c57634e487b7160e01b600052601160045260246000fd5b500390565b634e487b7160e01b600052603260045260246000fd5b634e487b7160e01b600052603160045260246000fdfea26469706673582212208f290d1ebe7d3c7c708a00ca4214379cddef89d2fb9b2af3dd46a184c7d8b5a264736f6c63430008080033",
					"opcodes": "PUSH2 0x120 PUSH1 0x40 MSTORE PUSH1 0x1 PUSH1 0x80 SWAP1 DUP2 MSTORE PUSH1 0x2 PUSH1 0xA0 MSTORE PUSH1 0x3 PUSH1 0xC0 MSTORE PUSH1 0x4 PUSH1 0xE0 MSTORE PUSH1 0x5 PUSH2 0x100 DUP2 SWAP1 MSTORE PUSH2 0x2F SWAP2 PUSH1 0x0 SWAP2 PUSH2 0x42 JUMP JUMPDEST POP CALLVALUE DUP1 ISZERO PUSH2 0x3C JUMPI PUSH1 0x0 DUP1 REVERT JUMPDEST POP PUSH2 0xA7 JUMP JUMPDEST DUP3 DUP1 SLOAD DUP3 DUP3 SSTORE SWAP1 PUSH1 0x0 MSTORE PUSH1 0x20 PUSH1 0x0 KECCAK256 SWAP1 DUP2 ADD SWAP3 DUP3 ISZERO PUSH2 0x82 JUMPI SWAP2 PUSH1 0x20 MUL DUP3 ADD JUMPDEST DUP3 DUP2 GT ISZERO PUSH2 0x82 JUMPI DUP3 MLOAD DUP3 SWAP1 PUSH1 0xFF AND SWAP1 SSTORE SWAP2 PUSH1 0x20 ADD SWAP2 SWAP1 PUSH1 0x1 ADD SWAP1 PUSH2 0x62 JUMP JUMPDEST POP PUSH2 0x8E SWAP3 SWAP2 POP PUSH2 0x92 JUMP JUMPDEST POP SWAP1 JUMP JUMPDEST JUMPDEST DUP1 DUP3 GT ISZERO PUSH2 0x8E JUMPI PUSH1 0x0 DUP2 SSTORE PUSH1 0x1 ADD PUSH2 0x93 JUMP JUMPDEST PUSH2 0x303 DUP1 PUSH2 0xB6 PUSH1 0x0 CODECOPY PUSH1 0x0 RETURN INVALID PUSH1 0x80 PUSH1 0x40 MSTORE CALLVALUE DUP1 ISZERO PUSH2 0x10 JUMPI PUSH1 0x0 DUP1 REVERT JUMPDEST POP PUSH1 0x4 CALLDATASIZE LT PUSH2 0x41 JUMPI PUSH1 0x0 CALLDATALOAD PUSH1 0xE0 SHR DUP1 PUSH4 0x71E5EE5F EQ PUSH2 0x46 JUMPI DUP1 PUSH4 0xF53D9EC1 EQ PUSH2 0x6C JUMPI DUP1 PUSH4 0xFB8CBCED EQ PUSH2 0x81 JUMPI JUMPDEST PUSH1 0x0 DUP1 REVERT JUMPDEST PUSH2 0x59 PUSH2 0x54 CALLDATASIZE PUSH1 0x4 PUSH2 0x21F JUMP JUMPDEST PUSH2 0x96 JUMP JUMPDEST PUSH1 0x40 MLOAD SWAP1 DUP2 MSTORE PUSH1 0x20 ADD JUMPDEST PUSH1 0x40 MLOAD DUP1 SWAP2 SUB SWAP1 RETURN JUMPDEST PUSH2 0x7F PUSH2 0x7A CALLDATASIZE PUSH1 0x4 PUSH2 0x21F JUMP JUMPDEST PUSH2 0xB7 JUMP JUMPDEST STOP JUMPDEST PUSH2 0x89 PUSH2 0x1C7 JUMP JUMPDEST PUSH1 0x40 MLOAD PUSH2 0x63 SWAP2 SWAP1 PUSH2 0x238 JUMP JUMPDEST PUSH1 0x0 DUP2 DUP2 SLOAD DUP2 LT PUSH2 0xA6 JUMPI PUSH1 0x0 DUP1 REVERT JUMPDEST PUSH1 0x0 SWAP2 DUP3 MSTORE PUSH1 0x20 SWAP1 SWAP2 KECCAK256 ADD SLOAD SWAP1 POP DUP2 JUMP JUMPDEST PUSH1 0x0 SLOAD PUSH2 0x104 JUMPI PUSH1 0x40 MLOAD PUSH3 0x461BCD PUSH1 0xE5 SHL DUP2 MSTORE PUSH1 0x20 PUSH1 0x4 DUP3 ADD MSTORE PUSH1 0x16 PUSH1 0x24 DUP3 ADD MSTORE PUSH22 0x41727261792063616E277420626520656D7074792021 PUSH1 0x50 SHL PUSH1 0x44 DUP3 ADD MSTORE PUSH1 0x64 ADD JUMPDEST PUSH1 0x40 MLOAD DUP1 SWAP2 SUB SWAP1 REVERT JUMPDEST PUSH1 0x0 SLOAD PUSH2 0x113 SWAP1 PUSH1 0x1 SWAP1 PUSH2 0x27C JUMP JUMPDEST DUP2 LT PUSH2 0x151 JUMPI PUSH1 0x40 MLOAD PUSH3 0x461BCD PUSH1 0xE5 SHL DUP2 MSTORE PUSH1 0x20 PUSH1 0x4 DUP3 ADD MSTORE PUSH1 0xD PUSH1 0x24 DUP3 ADD MSTORE PUSH13 0x92DCECC2D8D2C84092DCC8CAF PUSH1 0x9B SHL PUSH1 0x44 DUP3 ADD MSTORE PUSH1 0x64 ADD PUSH2 0xFB JUMP JUMPDEST PUSH1 0x0 DUP1 SLOAD PUSH2 0x161 SWAP1 PUSH1 0x1 SWAP1 PUSH2 0x27C JUMP JUMPDEST DUP2 SLOAD DUP2 LT PUSH2 0x171 JUMPI PUSH2 0x171 PUSH2 0x2A1 JUMP JUMPDEST SWAP1 PUSH1 0x0 MSTORE PUSH1 0x20 PUSH1 0x0 KECCAK256 ADD SLOAD PUSH1 0x0 DUP3 DUP2 SLOAD DUP2 LT PUSH2 0x18F JUMPI PUSH2 0x18F PUSH2 0x2A1 JUMP JUMPDEST SWAP1 PUSH1 0x0 MSTORE PUSH1 0x20 PUSH1 0x0 KECCAK256 ADD DUP2 SWAP1 SSTORE POP PUSH1 0x0 DUP1 SLOAD DUP1 PUSH2 0x1AE JUMPI PUSH2 0x1AE PUSH2 0x2B7 JUMP JUMPDEST PUSH1 0x1 SWAP1 SUB DUP2 DUP2 SWAP1 PUSH1 0x0 MSTORE PUSH1 0x20 PUSH1 0x0 KECCAK256 ADD PUSH1 0x0 SWAP1 SSTORE SWAP1 SSTORE POP JUMP JUMPDEST PUSH1 0x60 PUSH1 0x0 DUP1 SLOAD DUP1 PUSH1 0x20 MUL PUSH1 0x20 ADD PUSH1 0x40 MLOAD SWAP1 DUP2 ADD PUSH1 0x40 MSTORE DUP1 SWAP3 SWAP2 SWAP1 DUP2 DUP2 MSTORE PUSH1 0x20 ADD DUP3 DUP1 SLOAD DUP1 ISZERO PUSH2 0x215 JUMPI PUSH1 0x20 MUL DUP3 ADD SWAP2 SWAP1 PUSH1 0x0 MSTORE PUSH1 0x20 PUSH1 0x0 KECCAK256 SWAP1 JUMPDEST DUP2 SLOAD DUP2 MSTORE PUSH1 0x20 ADD SWAP1 PUSH1 0x1 ADD SWAP1 DUP1 DUP4 GT PUSH2 0x201 JUMPI JUMPDEST POP POP POP POP POP SWAP1 POP SWAP1 JUMP JUMPDEST PUSH1 0x0 PUSH1 0x20 DUP3 DUP5 SUB SLT ISZERO PUSH2 0x231 JUMPI PUSH1 0x0 DUP1 REVERT JUMPDEST POP CALLDATALOAD SWAP2 SWAP1 POP JUMP JUMPDEST PUSH1 0x20 DUP1 DUP3 MSTORE DUP3 MLOAD DUP3 DUP3 ADD DUP2 SWAP1 MSTORE PUSH1 0x0 SWAP2 SWAP1 DUP5 DUP3 ADD SWAP1 PUSH1 0x40 DUP6 ADD SWAP1 DUP5 JUMPDEST DUP2 DUP2 LT ISZERO PUSH2 0x270 JUMPI DUP4 MLOAD DUP4 MSTORE SWAP3 DUP5 ADD SWAP3 SWAP2 DUP5 ADD SWAP2 PUSH1 0x1 ADD PUSH2 0x254 JUMP JUMPDEST POP SWAP1 SWAP7 SWAP6 POP POP POP POP POP POP JUMP JUMPDEST PUSH1 0x0 DUP3 DUP3 LT ISZERO PUSH2 0x29C JUMPI PUSH4 0x4E487B71 PUSH1 0xE0 SHL PUSH1 0x0 MSTORE PUSH1 0x11 PUSH1 0x4 MSTORE PUSH1 0x24 PUSH1 0x0 REVERT JUMPDEST POP SUB SWAP1 JUMP JUMPDEST PUSH4 0x4E487B71 PUSH1 0xE0 SHL PUSH1 0x0 MSTORE PUSH1 0x32 PUSH1 0x4 MSTORE PUSH1 0x24 PUSH1 0x0 REVERT JUMPDEST PUSH4 0x4E487B71 PUSH1 0xE0 SHL PUSH1 0x0 MSTORE PUSH1 0x31 PUSH1 0x4 MSTORE PUSH1 0x24 PUSH1 0x0 REVERT INVALID LOG2 PUSH5 0x6970667358 0x22 SLT KECCAK256 DUP16 0x29 0xD 0x1E 0xBE PUSH30 0x3C7C708A00CA4214379CDDEF89D2FB9B2AF3DD46A184C7D8B5A264736F6C PUSH4 0x43000808 STOP CALLER "
				},
				"gasEstimates": {
					"creation": {
						"codeDepositCost": "154200",
						"executionCost": "infinite",
						"totalCost": "infinite"
					},
					"external": {
						"arr(uint256)": "4542",
						"getArr()": "infinite",
						"removeIndex(uint256)": "infinite"
					}
				},
				"methodIdentifiers": {
					"arr(uint256)": "71e5ee5f",
					"getArr()": "fb8cbced",
					"removeIndex(uint256)": "f53d9ec1"
				}
			},
			"storageLayout": {
				"storage": [
					{
						"astId": 10,
						"contract": "tutorials/array_index_remove.sol:ArrayIndexRemove",
						"label": "arr",
						"offset": 0,
						"slot": "0",
						"type": "t_array(t_uint256)dyn_storage"
					}
				],
				"types": {
					"t_array(t_uint256)dyn_storage": {
						"base": "t_uint256",
						"encoding": "dynamic_array",
						"label": "uint256[]",
						"numberOfBytes": "32"
					},
					"t_uint256": {
						"encoding": "inplace",
						"label": "uint256",
						"numberOfBytes": "32"
					}
				}
			},
			"userdoc": {
				"kind": "user",
				"methods": {},
				"version": 1
			}
		}
	}
}