{
	"tutorials/assignment_detail_gas_analysis.sol": {
		"structure": {
			"abi": [
				{
					"inputs": [],
					"name": "getAuthor",
					"outputs": [
						{
							"internalType": "string",
							"name": "",
							"type": "string"
						}
					],
					"stateMutability": "view",
					"type": "function"
				},
				{
					"inputs": [],
					"name": "getBookId",
					"outputs": [
						{
							"internalType": "uint256",
							"name": "",
							"type": "uint256"
						}
					],
					"stateMutability": "view",
					"type": "function"
				},
				{
					"inputs": [],
					"name": "getTitle",
					"outputs": [
						{
							"internalType": "string",
							"name": "",
							"type": "string"
						}
					],
					"stateMutability": "view",
					"type": "function"
				},
				{
					"inputs": [],
					"name": "getprice",
					"outputs": [
						{
							"internalType": "uint256",
							"name": "",
							"type": "uint256"
						}
					],
					"stateMutability": "view",
					"type": "function"
				},
				{
					"inputs": [],
					"name": "setBook",
					"outputs": [],
					"stateMutability": "nonpayable",
					"type": "function"
				}
			],
			"devdoc": {
				"kind": "dev",
				"methods": {},
				"version": 1
			},
			"evm": {
				"assembly": "    /* \"tutorials/assignment_detail_gas_analysis.sol\":57:864  contract structure{\r... */\n  mstore(0x40, 0x80)\n  callvalue\n  dup1\n  iszero\n  tag_1\n  jumpi\n  0x00\n  dup1\n  revert\ntag_1:\n  pop\n  dataSize(sub_0)\n  dup1\n  dataOffset(sub_0)\n  0x00\n  codecopy\n  0x00\n  return\nstop\n\nsub_0: assembly {\n        /* \"tutorials/assignment_detail_gas_analysis.sol\":57:864  contract structure{\r... */\n      mstore(0x40, 0x80)\n      callvalue\n      dup1\n      iszero\n      tag_1\n      jumpi\n      0x00\n      dup1\n      revert\n    tag_1:\n      pop\n      jumpi(tag_2, lt(calldatasize, 0x04))\n      shr(0xe0, calldataload(0x00))\n      dup1\n      0x0fcb5984\n      eq\n      tag_3\n      jumpi\n      dup1\n      0x7310d33c\n      eq\n      tag_4\n      jumpi\n      dup1\n      0xa5faa125\n      eq\n      tag_5\n      jumpi\n      dup1\n      0xd629546c\n      eq\n      tag_6\n      jumpi\n      dup1\n      0xff3c1a8f\n      eq\n      tag_7\n      jumpi\n    tag_2:\n      0x00\n      dup1\n      revert\n        /* \"tutorials/assignment_detail_gas_analysis.sol\":571:654  function getprice() external view returns(uint){\r... */\n    tag_3:\n        /* \"tutorials/assignment_detail_gas_analysis.sol\":636:646  book.price */\n      sload(0x03)\n        /* \"tutorials/assignment_detail_gas_analysis.sol\":571:654  function getprice() external view returns(uint){\r... */\n    tag_8:\n      mload(0x40)\n        /* \"#utility.yul\":762:787   */\n      swap1\n      dup2\n      mstore\n        /* \"#utility.yul\":750:752   */\n      0x20\n        /* \"#utility.yul\":735:753   */\n      add\n        /* \"tutorials/assignment_detail_gas_analysis.sol\":571:654  function getprice() external view returns(uint){\r... */\n    tag_10:\n      mload(0x40)\n      dup1\n      swap2\n      sub\n      swap1\n      return\n        /* \"tutorials/assignment_detail_gas_analysis.sol\":477:563  function getBookId() external view returns(uint) {\r... */\n    tag_4:\n        /* \"tutorials/assignment_detail_gas_analysis.sol\":544:555  book.bookID */\n      sload(0x02)\n        /* \"tutorials/assignment_detail_gas_analysis.sol\":477:563  function getBookId() external view returns(uint) {\r... */\n      jump(tag_8)\n        /* \"tutorials/assignment_detail_gas_analysis.sol\":765:859  function getAuthor() external view returns(string memory){\r... */\n    tag_5:\n      tag_15\n      tag_16\n      jump\t// in\n    tag_15:\n      mload(0x40)\n      tag_10\n      swap2\n      swap1\n      tag_18\n      jump\t// in\n        /* \"tutorials/assignment_detail_gas_analysis.sol\":328:469  function setBook() external {\r... */\n    tag_6:\n      tag_19\n      tag_20\n      jump\t// in\n    tag_19:\n      stop\n        /* \"tutorials/assignment_detail_gas_analysis.sol\":665:757  function getTitle() external view returns(string memory){\r... */\n    tag_7:\n      tag_15\n      tag_22\n      jump\t// in\n        /* \"tutorials/assignment_detail_gas_analysis.sol\":765:859  function getAuthor() external view returns(string memory){\r... */\n    tag_16:\n        /* \"tutorials/assignment_detail_gas_analysis.sol\":808:821  string memory */\n      0x60\n        /* \"tutorials/assignment_detail_gas_analysis.sol\":840:844  book */\n      0x00\n        /* \"tutorials/assignment_detail_gas_analysis.sol\":840:851  book.author */\n      0x01\n      add\n        /* \"tutorials/assignment_detail_gas_analysis.sol\":833:851  return book.author */\n      dup1\n      sload\n      tag_27\n      swap1\n      tag_28\n      jump\t// in\n    tag_27:\n      dup1\n      0x1f\n      add\n      0x20\n      dup1\n      swap2\n      div\n      mul\n      0x20\n      add\n      mload(0x40)\n      swap1\n      dup2\n      add\n      0x40\n      mstore\n      dup1\n      swap3\n      swap2\n      swap1\n      dup2\n      dup2\n      mstore\n      0x20\n      add\n      dup3\n      dup1\n      sload\n      tag_29\n      swap1\n      tag_28\n      jump\t// in\n    tag_29:\n      dup1\n      iszero\n      tag_30\n      jumpi\n      dup1\n      0x1f\n      lt\n      tag_31\n      jumpi\n      0x0100\n      dup1\n      dup4\n      sload\n      div\n      mul\n      dup4\n      mstore\n      swap2\n      0x20\n      add\n      swap2\n      jump(tag_30)\n    tag_31:\n      dup3\n      add\n      swap2\n      swap1\n      0x00\n      mstore\n      keccak256(0x00, 0x20)\n      swap1\n    tag_32:\n      dup2\n      sload\n      dup2\n      mstore\n      swap1\n      0x01\n      add\n      swap1\n      0x20\n      add\n      dup1\n      dup4\n      gt\n      tag_32\n      jumpi\n      dup3\n      swap1\n      sub\n      0x1f\n      and\n      dup3\n      add\n      swap2\n    tag_30:\n      pop\n      pop\n      pop\n      pop\n      pop\n      swap1\n      pop\n        /* \"tutorials/assignment_detail_gas_analysis.sol\":765:859  function getAuthor() external view returns(string memory){\r... */\n      swap1\n      jump\t// out\n        /* \"tutorials/assignment_detail_gas_analysis.sol\":328:469  function setBook() external {\r... */\n    tag_20:\n        /* \"tutorials/assignment_detail_gas_analysis.sol\":388:436  Book(\"Blokchain for beginners\",\"Ineuron\",4,1000) */\n      0x40\n      dup1\n      mload\n      0xc0\n      dup2\n      add\n      dup3\n      mstore\n      0x17\n      0x80\n      dup3\n      add\n      swap1\n      dup2\n      mstore\n      0x426c6f6b636861696e20666f7220626567696e6e657273000000000000000000\n      0xa0\n      dup4\n      add\n      mstore\n      dup2\n      mstore\n      dup2\n      mload\n      dup1\n      dup4\n      add\n      dup4\n      mstore\n      0x07\n      dup2\n      mstore\n      shl(0xc9, 0x24b732bab937b7)\n      0x20\n      dup3\n      dup2\n      add\n      swap2\n      swap1\n      swap2\n      mstore\n      dup1\n      dup4\n      add\n      swap2\n      swap1\n      swap2\n      mstore\n        /* \"tutorials/assignment_detail_gas_analysis.sol\":429:430  4 */\n      0x04\n      swap3\n      dup3\n      add\n        /* \"tutorials/assignment_detail_gas_analysis.sol\":388:436  Book(\"Blokchain for beginners\",\"Ineuron\",4,1000) */\n      swap3\n      swap1\n      swap3\n      mstore\n        /* \"tutorials/assignment_detail_gas_analysis.sol\":431:435  1000 */\n      0x03e8\n      0x60\n      dup3\n      add\n        /* \"tutorials/assignment_detail_gas_analysis.sol\":388:436  Book(\"Blokchain for beginners\",\"Ineuron\",4,1000) */\n      mstore\n        /* \"tutorials/assignment_detail_gas_analysis.sol\":447:461  book = addBook */\n      dup1\n      mload\n      dup1\n      mload\n        /* \"tutorials/assignment_detail_gas_analysis.sol\":388:436  Book(\"Blokchain for beginners\",\"Ineuron\",4,1000) */\n      swap2\n      swap3\n      dup4\n      swap3\n        /* \"tutorials/assignment_detail_gas_analysis.sol\":367:386  Book memory addBook */\n      0x00\n      swap3\n        /* \"tutorials/assignment_detail_gas_analysis.sol\":447:461  book = addBook */\n      tag_34\n      swap3\n        /* \"tutorials/assignment_detail_gas_analysis.sol\":367:386  Book memory addBook */\n      dup5\n      swap3\n        /* \"tutorials/assignment_detail_gas_analysis.sol\":447:461  book = addBook */\n      swap2\n      add\n      swap1\n      tag_35\n      jump\t// in\n    tag_34:\n      pop\n      0x20\n      dup3\n      dup2\n      add\n      mload\n      dup1\n      mload\n      tag_36\n      swap3\n      0x01\n      dup6\n      add\n      swap3\n      add\n      swap1\n      tag_35\n      jump\t// in\n    tag_36:\n      pop\n      0x40\n      dup3\n      add\n      mload\n      0x02\n      dup3\n      add\n      sstore\n      0x60\n      swap1\n      swap2\n      add\n      mload\n      0x03\n      swap1\n      swap2\n      add\n      sstore\n      pop\n        /* \"tutorials/assignment_detail_gas_analysis.sol\":328:469  function setBook() external {\r... */\n      jump\t// out\n        /* \"tutorials/assignment_detail_gas_analysis.sol\":665:757  function getTitle() external view returns(string memory){\r... */\n    tag_22:\n        /* \"tutorials/assignment_detail_gas_analysis.sol\":707:720  string memory */\n      0x60\n        /* \"tutorials/assignment_detail_gas_analysis.sol\":739:743  book */\n      0x00\n        /* \"tutorials/assignment_detail_gas_analysis.sol\":739:749  book.title */\n      dup1\n      add\n        /* \"tutorials/assignment_detail_gas_analysis.sol\":732:749  return book.title */\n      dup1\n      sload\n      tag_27\n      swap1\n      tag_28\n      jump\t// in\n    tag_35:\n      dup3\n      dup1\n      sload\n      tag_43\n      swap1\n      tag_28\n      jump\t// in\n    tag_43:\n      swap1\n      0x00\n      mstore\n      keccak256(0x00, 0x20)\n      swap1\n      0x1f\n      add\n      0x20\n      swap1\n      div\n      dup2\n      add\n      swap3\n      dup3\n      tag_45\n      jumpi\n      0x00\n      dup6\n      sstore\n      jump(tag_48)\n    tag_45:\n      dup3\n      0x1f\n      lt\n      tag_46\n      jumpi\n      dup1\n      mload\n      not(0xff)\n      and\n      dup4\n      dup1\n      add\n      or\n      dup6\n      sstore\n      jump(tag_48)\n    tag_46:\n      dup3\n      dup1\n      add\n      0x01\n      add\n      dup6\n      sstore\n      dup3\n      iszero\n      tag_48\n      jumpi\n      swap2\n      dup3\n      add\n    tag_47:\n      dup3\n      dup2\n      gt\n      iszero\n      tag_48\n      jumpi\n      dup3\n      mload\n      dup3\n      sstore\n      swap2\n      0x20\n      add\n      swap2\n      swap1\n      0x01\n      add\n      swap1\n      jump(tag_47)\n    tag_48:\n      pop\n      tag_49\n      swap3\n      swap2\n      pop\n      tag_50\n      jump\t// in\n    tag_49:\n      pop\n      swap1\n      jump\t// out\n    tag_50:\n    tag_51:\n      dup1\n      dup3\n      gt\n      iszero\n      tag_49\n      jumpi\n      0x00\n      dup2\n      sstore\n      0x01\n      add\n      jump(tag_51)\n        /* \"#utility.yul\":14:611   */\n    tag_18:\n        /* \"#utility.yul\":126:130   */\n      0x00\n        /* \"#utility.yul\":155:157   */\n      0x20\n        /* \"#utility.yul\":184:186   */\n      dup1\n        /* \"#utility.yul\":173:182   */\n      dup4\n        /* \"#utility.yul\":166:187   */\n      mstore\n        /* \"#utility.yul\":216:222   */\n      dup4\n        /* \"#utility.yul\":210:223   */\n      mload\n        /* \"#utility.yul\":259:265   */\n      dup1\n        /* \"#utility.yul\":254:256   */\n      dup3\n        /* \"#utility.yul\":243:252   */\n      dup6\n        /* \"#utility.yul\":239:257   */\n      add\n        /* \"#utility.yul\":232:266   */\n      mstore\n        /* \"#utility.yul\":284:285   */\n      0x00\n        /* \"#utility.yul\":294:434   */\n    tag_55:\n        /* \"#utility.yul\":308:314   */\n      dup2\n        /* \"#utility.yul\":305:306   */\n      dup2\n        /* \"#utility.yul\":302:315   */\n      lt\n        /* \"#utility.yul\":294:434   */\n      iszero\n      tag_57\n      jumpi\n        /* \"#utility.yul\":403:417   */\n      dup6\n      dup2\n      add\n        /* \"#utility.yul\":399:422   */\n      dup4\n      add\n        /* \"#utility.yul\":393:423   */\n      mload\n        /* \"#utility.yul\":369:386   */\n      dup6\n      dup3\n      add\n        /* \"#utility.yul\":388:390   */\n      0x40\n        /* \"#utility.yul\":365:391   */\n      add\n        /* \"#utility.yul\":358:424   */\n      mstore\n        /* \"#utility.yul\":323:333   */\n      dup3\n      add\n        /* \"#utility.yul\":294:434   */\n      jump(tag_55)\n    tag_57:\n        /* \"#utility.yul\":452:458   */\n      dup2\n        /* \"#utility.yul\":449:450   */\n      dup2\n        /* \"#utility.yul\":446:459   */\n      gt\n        /* \"#utility.yul\":443:534   */\n      iszero\n      tag_58\n      jumpi\n        /* \"#utility.yul\":522:523   */\n      0x00\n        /* \"#utility.yul\":517:519   */\n      0x40\n        /* \"#utility.yul\":508:514   */\n      dup4\n        /* \"#utility.yul\":497:506   */\n      dup8\n        /* \"#utility.yul\":493:515   */\n      add\n        /* \"#utility.yul\":489:520   */\n      add\n        /* \"#utility.yul\":482:524   */\n      mstore\n        /* \"#utility.yul\":443:534   */\n    tag_58:\n      pop\n        /* \"#utility.yul\":595:597   */\n      0x1f\n        /* \"#utility.yul\":574:589   */\n      add\n      not(0x1f)\n        /* \"#utility.yul\":570:599   */\n      and\n        /* \"#utility.yul\":555:600   */\n      swap3\n      swap1\n      swap3\n      add\n        /* \"#utility.yul\":602:604   */\n      0x40\n        /* \"#utility.yul\":551:605   */\n      add\n      swap4\n        /* \"#utility.yul\":14:611   */\n      swap3\n      pop\n      pop\n      pop\n      jump\t// out\n        /* \"#utility.yul\":798:1178   */\n    tag_28:\n        /* \"#utility.yul\":877:878   */\n      0x01\n        /* \"#utility.yul\":873:885   */\n      dup2\n      dup2\n      shr\n      swap1\n        /* \"#utility.yul\":920:932   */\n      dup3\n      and\n      dup1\n        /* \"#utility.yul\":941:1002   */\n      tag_61\n      jumpi\n        /* \"#utility.yul\":995:999   */\n      0x7f\n        /* \"#utility.yul\":987:993   */\n      dup3\n        /* \"#utility.yul\":983:1000   */\n      and\n        /* \"#utility.yul\":973:1000   */\n      swap2\n      pop\n        /* \"#utility.yul\":941:1002   */\n    tag_61:\n        /* \"#utility.yul\":1048:1050   */\n      0x20\n        /* \"#utility.yul\":1040:1046   */\n      dup3\n        /* \"#utility.yul\":1037:1051   */\n      lt\n        /* \"#utility.yul\":1017:1035   */\n      dup2\n        /* \"#utility.yul\":1014:1052   */\n      eq\n        /* \"#utility.yul\":1011:1172   */\n      iszero\n      tag_62\n      jumpi\n        /* \"#utility.yul\":1094:1104   */\n      0x4e487b71\n        /* \"#utility.yul\":1089:1092   */\n      0xe0\n        /* \"#utility.yul\":1085:1105   */\n      shl\n        /* \"#utility.yul\":1082:1083   */\n      0x00\n        /* \"#utility.yul\":1075:1106   */\n      mstore\n        /* \"#utility.yul\":1129:1133   */\n      0x22\n        /* \"#utility.yul\":1126:1127   */\n      0x04\n        /* \"#utility.yul\":1119:1134   */\n      mstore\n        /* \"#utility.yul\":1157:1161   */\n      0x24\n        /* \"#utility.yul\":1154:1155   */\n      0x00\n        /* \"#utility.yul\":1147:1162   */\n      revert\n        /* \"#utility.yul\":1011:1172   */\n    tag_62:\n      pop\n        /* \"#utility.yul\":798:1178   */\n      swap2\n      swap1\n      pop\n      jump\t// out\n\n    auxdata: 0xa26469706673582212201cbeddafb936e6d4f595f9ac68ef071a5ae5d4d3e46380ad79962223d57691b964736f6c63430008070033\n}\n",
				"bytecode": {
					"linkReferences": {},
					"object": "608060405234801561001057600080fd5b50610365806100206000396000f3fe608060405234801561001057600080fd5b50600436106100575760003560e01c80630fcb59841461005c5780637310d33c14610073578063a5faa1251461007b578063d629546c14610090578063ff3c1a8f1461009a575b600080fd5b6003545b6040519081526020015b60405180910390f35b600254610060565b6100836100a2565b60405161006a919061029f565b610098610137565b005b6100836101f5565b6060600060010180546100b4906102f4565b80601f01602080910402602001604051908101604052809291908181526020018280546100e0906102f4565b801561012d5780601f106101025761010080835404028352916020019161012d565b820191906000526020600020905b81548152906001019060200180831161011057829003601f168201915b5050505050905090565b6040805160c0810182526017608082019081527f426c6f6b636861696e20666f7220626567696e6e65727300000000000000000060a0830152815281518083018352600781526624b732bab937b760c91b602082810191909152808301919091526004928201929092526103e8606082015280518051919283926000926101c2928492910190610206565b5060208281015180516101db9260018501920190610206565b506040820151600282015560609091015160039091015550565b60606000800180546100b4906102f4565b828054610212906102f4565b90600052602060002090601f016020900481019282610234576000855561027a565b82601f1061024d57805160ff191683800117855561027a565b8280016001018555821561027a579182015b8281111561027a57825182559160200191906001019061025f565b5061028692915061028a565b5090565b5b80821115610286576000815560010161028b565b600060208083528351808285015260005b818110156102cc578581018301518582016040015282016102b0565b818111156102de576000604083870101525b50601f01601f1916929092016040019392505050565b600181811c9082168061030857607f821691505b6020821081141561032957634e487b7160e01b600052602260045260246000fd5b5091905056fea26469706673582212201cbeddafb936e6d4f595f9ac68ef071a5ae5d4d3e46380ad79962223d57691b964736f6c63430008070033",
					"opcodes": "PUSH1 0x80 PUSH1 0x40 MSTORE CALLVALUE DUP1 ISZERO PUSH2 0x10 JUMPI PUSH1 0x0 DUP1 REVERT JUMPDEST POP PUSH2 0x365 DUP1 PUSH2 0x20 PUSH1 0x0 CODECOPY PUSH1 0x0 RETURN INVALID PUSH1 0x80 PUSH1 0x40 MSTORE CALLVALUE DUP1 ISZERO PUSH2 0x10 JUMPI PUSH1 0x0 DUP1 REVERT JUMPDEST POP PUSH1 0x4 CALLDATASIZE LT PUSH2 0x57 JUMPI PUSH1 0x0 CALLDATALOAD PUSH1 0xE0 SHR DUP1 PUSH4 0xFCB5984 EQ PUSH2 0x5C JUMPI DUP1 PUSH4 0x7310D33C EQ PUSH2 0x73 JUMPI DUP1 PUSH4 0xA5FAA125 EQ PUSH2 0x7B JUMPI DUP1 PUSH4 0xD629546C EQ PUSH2 0x90 JUMPI DUP1 PUSH4 0xFF3C1A8F EQ PUSH2 0x9A JUMPI JUMPDEST PUSH1 0x0 DUP1 REVERT JUMPDEST PUSH1 0x3 SLOAD JUMPDEST PUSH1 0x40 MLOAD SWAP1 DUP2 MSTORE PUSH1 0x20 ADD JUMPDEST PUSH1 0x40 MLOAD DUP1 SWAP2 SUB SWAP1 RETURN JUMPDEST PUSH1 0x2 SLOAD PUSH2 0x60 JUMP JUMPDEST PUSH2 0x83 PUSH2 0xA2 JUMP JUMPDEST PUSH1 0x40 MLOAD PUSH2 0x6A SWAP2 SWAP1 PUSH2 0x29F JUMP JUMPDEST PUSH2 0x98 PUSH2 0x137 JUMP JUMPDEST STOP JUMPDEST PUSH2 0x83 PUSH2 0x1F5 JUMP JUMPDEST PUSH1 0x60 PUSH1 0x0 PUSH1 0x1 ADD DUP1 SLOAD PUSH2 0xB4 SWAP1 PUSH2 0x2F4 JUMP JUMPDEST DUP1 PUSH1 0x1F ADD PUSH1 0x20 DUP1 SWAP2 DIV MUL PUSH1 0x20 ADD PUSH1 0x40 MLOAD SWAP1 DUP2 ADD PUSH1 0x40 MSTORE DUP1 SWAP3 SWAP2 SWAP1 DUP2 DUP2 MSTORE PUSH1 0x20 ADD DUP3 DUP1 SLOAD PUSH2 0xE0 SWAP1 PUSH2 0x2F4 JUMP JUMPDEST DUP1 ISZERO PUSH2 0x12D JUMPI DUP1 PUSH1 0x1F LT PUSH2 0x102 JUMPI PUSH2 0x100 DUP1 DUP4 SLOAD DIV MUL DUP4 MSTORE SWAP2 PUSH1 0x20 ADD SWAP2 PUSH2 0x12D JUMP JUMPDEST DUP3 ADD SWAP2 SWAP1 PUSH1 0x0 MSTORE PUSH1 0x20 PUSH1 0x0 KECCAK256 SWAP1 JUMPDEST DUP2 SLOAD DUP2 MSTORE SWAP1 PUSH1 0x1 ADD SWAP1 PUSH1 0x20 ADD DUP1 DUP4 GT PUSH2 0x110 JUMPI DUP3 SWAP1 SUB PUSH1 0x1F AND DUP3 ADD SWAP2 JUMPDEST POP POP POP POP POP SWAP1 POP SWAP1 JUMP JUMPDEST PUSH1 0x40 DUP1 MLOAD PUSH1 0xC0 DUP2 ADD DUP3 MSTORE PUSH1 0x17 PUSH1 0x80 DUP3 ADD SWAP1 DUP2 MSTORE PUSH32 0x426C6F6B636861696E20666F7220626567696E6E657273000000000000000000 PUSH1 0xA0 DUP4 ADD MSTORE DUP2 MSTORE DUP2 MLOAD DUP1 DUP4 ADD DUP4 MSTORE PUSH1 0x7 DUP2 MSTORE PUSH7 0x24B732BAB937B7 PUSH1 0xC9 SHL PUSH1 0x20 DUP3 DUP2 ADD SWAP2 SWAP1 SWAP2 MSTORE DUP1 DUP4 ADD SWAP2 SWAP1 SWAP2 MSTORE PUSH1 0x4 SWAP3 DUP3 ADD SWAP3 SWAP1 SWAP3 MSTORE PUSH2 0x3E8 PUSH1 0x60 DUP3 ADD MSTORE DUP1 MLOAD DUP1 MLOAD SWAP2 SWAP3 DUP4 SWAP3 PUSH1 0x0 SWAP3 PUSH2 0x1C2 SWAP3 DUP5 SWAP3 SWAP2 ADD SWAP1 PUSH2 0x206 JUMP JUMPDEST POP PUSH1 0x20 DUP3 DUP2 ADD MLOAD DUP1 MLOAD PUSH2 0x1DB SWAP3 PUSH1 0x1 DUP6 ADD SWAP3 ADD SWAP1 PUSH2 0x206 JUMP JUMPDEST POP PUSH1 0x40 DUP3 ADD MLOAD PUSH1 0x2 DUP3 ADD SSTORE PUSH1 0x60 SWAP1 SWAP2 ADD MLOAD PUSH1 0x3 SWAP1 SWAP2 ADD SSTORE POP JUMP JUMPDEST PUSH1 0x60 PUSH1 0x0 DUP1 ADD DUP1 SLOAD PUSH2 0xB4 SWAP1 PUSH2 0x2F4 JUMP JUMPDEST DUP3 DUP1 SLOAD PUSH2 0x212 SWAP1 PUSH2 0x2F4 JUMP JUMPDEST SWAP1 PUSH1 0x0 MSTORE PUSH1 0x20 PUSH1 0x0 KECCAK256 SWAP1 PUSH1 0x1F ADD PUSH1 0x20 SWAP1 DIV DUP2 ADD SWAP3 DUP3 PUSH2 0x234 JUMPI PUSH1 0x0 DUP6 SSTORE PUSH2 0x27A JUMP JUMPDEST DUP3 PUSH1 0x1F LT PUSH2 0x24D JUMPI DUP1 MLOAD PUSH1 0xFF NOT AND DUP4 DUP1 ADD OR DUP6 SSTORE PUSH2 0x27A JUMP JUMPDEST DUP3 DUP1 ADD PUSH1 0x1 ADD DUP6 SSTORE DUP3 ISZERO PUSH2 0x27A JUMPI SWAP2 DUP3 ADD JUMPDEST DUP3 DUP2 GT ISZERO PUSH2 0x27A JUMPI DUP3 MLOAD DUP3 SSTORE SWAP2 PUSH1 0x20 ADD SWAP2 SWAP1 PUSH1 0x1 ADD SWAP1 PUSH2 0x25F JUMP JUMPDEST POP PUSH2 0x286 SWAP3 SWAP2 POP PUSH2 0x28A JUMP JUMPDEST POP SWAP1 JUMP JUMPDEST JUMPDEST DUP1 DUP3 GT ISZERO PUSH2 0x286 JUMPI PUSH1 0x0 DUP2 SSTORE PUSH1 0x1 ADD PUSH2 0x28B JUMP JUMPDEST PUSH1 0x0 PUSH1 0x20 DUP1 DUP4 MSTORE DUP4 MLOAD DUP1 DUP3 DUP6 ADD MSTORE PUSH1 0x0 JUMPDEST DUP2 DUP2 LT ISZERO PUSH2 0x2CC JUMPI DUP6 DUP2 ADD DUP4 ADD MLOAD DUP6 DUP3 ADD PUSH1 0x40 ADD MSTORE DUP3 ADD PUSH2 0x2B0 JUMP JUMPDEST DUP2 DUP2 GT ISZERO PUSH2 0x2DE JUMPI PUSH1 0x0 PUSH1 0x40 DUP4 DUP8 ADD ADD MSTORE JUMPDEST POP PUSH1 0x1F ADD PUSH1 0x1F NOT AND SWAP3 SWAP1 SWAP3 ADD PUSH1 0x40 ADD SWAP4 SWAP3 POP POP POP JUMP JUMPDEST PUSH1 0x1 DUP2 DUP2 SHR SWAP1 DUP3 AND DUP1 PUSH2 0x308 JUMPI PUSH1 0x7F DUP3 AND SWAP2 POP JUMPDEST PUSH1 0x20 DUP3 LT DUP2 EQ ISZERO PUSH2 0x329 JUMPI PUSH4 0x4E487B71 PUSH1 0xE0 SHL PUSH1 0x0 MSTORE PUSH1 0x22 PUSH1 0x4 MSTORE PUSH1 0x24 PUSH1 0x0 REVERT JUMPDEST POP SWAP2 SWAP1 POP JUMP INVALID LOG2 PUSH5 0x6970667358 0x22 SLT KECCAK256 SHR 0xBE 0xDD 0xAF 0xB9 CALLDATASIZE 0xE6 0xD4 CREATE2 SWAP6 0xF9 0xAC PUSH9 0xEF071A5AE5D4D3E463 DUP1 0xAD PUSH26 0x962223D57691B964736F6C634300080700330000000000000000 "
				},
				"gasEstimates": {
					"creation": {
						"codeDepositCost": "173800",
						"executionCost": "220",
						"totalCost": "174020"
					},
					"external": {
						"getAuthor()": "infinite",
						"getBookId()": "2281",
						"getTitle()": "infinite",
						"getprice()": "2248",
						"setBook()": "infinite"
					}
				},
				"methodIdentifiers": {
					"getAuthor()": "a5faa125",
					"getBookId()": "7310d33c",
					"getTitle()": "ff3c1a8f",
					"getprice()": "0fcb5984",
					"setBook()": "d629546c"
				}
			},
			"storageLayout": {
				"storage": [
					{
						"astId": 13,
						"contract": "tutorials/assignment_detail_gas_analysis.sol:structure",
						"label": "book",
						"offset": 0,
						"slot": "0",
						"type": "t_struct(Book)10_storage"
					}
				],
				"types": {
					"t_string_storage": {
						"encoding": "bytes",
						"label": "string",
						"numberOfBytes": "32"
					},
					"t_struct(Book)10_storage": {
						"encoding": "inplace",
						"label": "struct structure.Book",
						"members": [
							{
								"astId": 3,
								"contract": "tutorials/assignment_detail_gas_analysis.sol:structure",
								"label": "title",
								"offset": 0,
								"slot": "0",
								"type": "t_string_storage"
							},
							{
								"astId": 5,
								"contract": "tutorials/assignment_detail_gas_analysis.sol:structure",
								"label": "author",
								"offset": 0,
								"slot": "1",
								"type": "t_string_storage"
							},
							{
								"astId": 7,
								"contract": "tutorials/assignment_detail_gas_analysis.sol:structure",
								"label": "bookID",
								"offset": 0,
								"slot": "2",
								"type": "t_uint256"
							},
							{
								"astId": 9,
								"contract": "tutorials/assignment_detail_gas_analysis.sol:structure",
								"label": "price",
								"offset": 0,
								"slot": "3",
								"type": "t_uint256"
							}
						],
						"numberOfBytes": "128"
					},
					"t_uint256": {
						"encoding": "inplace",
						"label": "uint256",
						"numberOfBytes": "32"
					}
				}
			},
			"userdoc": {
				"kind": "user",
				"methods": {},
				"version": 1
			}
		}
	}
}