{
	"tutorials/callSendTransfer.sol": {
		"CallSendTransfer": {
			"abi": [
				{
					"inputs": [
						{
							"internalType": "address payable",
							"name": "_to",
							"type": "address"
						}
					],
					"name": "sendEtherCall",
					"outputs": [],
					"stateMutability": "payable",
					"type": "function"
				},
				{
					"inputs": [
						{
							"internalType": "address payable",
							"name": "_to",
							"type": "address"
						}
					],
					"name": "sendEtherSend",
					"outputs": [],
					"stateMutability": "payable",
					"type": "function"
				},
				{
					"inputs": [
						{
							"internalType": "address payable",
							"name": "_to",
							"type": "address"
						}
					],
					"name": "sendEtherTransfer",
					"outputs": [],
					"stateMutability": "payable",
					"type": "function"
				}
			],
			"devdoc": {
				"kind": "dev",
				"methods": {},
				"version": 1
			},
			"evm": {
				"assembly": "    /* \"tutorials/callSendTransfer.sol\":64:599  contract CallSendTransfer {... */\n  mstore(0x40, 0x80)\n  callvalue\n  dup1\n  iszero\n  tag_1\n  jumpi\n  0x00\n  dup1\n  revert\ntag_1:\n  pop\n  dataSize(sub_0)\n  dup1\n  dataOffset(sub_0)\n  0x00\n  codecopy\n  0x00\n  return\nstop\n\nsub_0: assembly {\n        /* \"tutorials/callSendTransfer.sol\":64:599  contract CallSendTransfer {... */\n      mstore(0x40, 0x80)\n      jumpi(tag_1, lt(calldatasize, 0x04))\n      shr(0xe0, calldataload(0x00))\n      dup1\n      0x1a7e1004\n      eq\n      tag_2\n      jumpi\n      dup1\n      0x4b3510cf\n      eq\n      tag_3\n      jumpi\n      dup1\n      0x5df088f9\n      eq\n      tag_4\n      jumpi\n    tag_1:\n      0x00\n      dup1\n      revert\n        /* \"tutorials/callSendTransfer.sol\":99:231  function sendEtherTransfer(address payable _to) public payable {... */\n    tag_2:\n      tag_5\n      0x04\n      dup1\n      calldatasize\n      sub\n      dup2\n      add\n      swap1\n      tag_6\n      swap2\n      swap1\n      tag_7\n      jump\t// in\n    tag_6:\n      tag_8\n      jump\t// in\n    tag_5:\n      stop\n        /* \"tutorials/callSendTransfer.sol\":239:397  function sendEtherSend(address payable _to) public payable {... */\n    tag_3:\n      tag_9\n      0x04\n      dup1\n      calldatasize\n      sub\n      dup2\n      add\n      swap1\n      tag_10\n      swap2\n      swap1\n      tag_7\n      jump\t// in\n    tag_10:\n      tag_11\n      jump\t// in\n    tag_9:\n      stop\n        /* \"tutorials/callSendTransfer.sol\":405:596  function sendEtherCall(address payable _to) public payable {... */\n    tag_4:\n      tag_12\n      0x04\n      dup1\n      calldatasize\n      sub\n      dup2\n      add\n      swap1\n      tag_13\n      swap2\n      swap1\n      tag_7\n      jump\t// in\n    tag_13:\n      tag_14\n      jump\t// in\n    tag_12:\n      stop\n        /* \"tutorials/callSendTransfer.sol\":99:231  function sendEtherTransfer(address payable _to) public payable {... */\n    tag_8:\n        /* \"tutorials/callSendTransfer.sol\":173:176  _to */\n      dup1\n        /* \"tutorials/callSendTransfer.sol\":173:185  _to.transfer */\n      0xffffffffffffffffffffffffffffffffffffffff\n      and\n        /* \"tutorials/callSendTransfer.sol\":173:196  _to.transfer(msg.value) */\n      0x08fc\n        /* \"tutorials/callSendTransfer.sol\":186:195  msg.value */\n      callvalue\n        /* \"tutorials/callSendTransfer.sol\":173:196  _to.transfer(msg.value) */\n      swap1\n      dup2\n      iszero\n      mul\n      swap1\n      mload(0x40)\n      0x00\n      mload(0x40)\n      dup1\n      dup4\n      sub\n      dup2\n      dup6\n      dup9\n      dup9\n      call\n      swap4\n      pop\n      pop\n      pop\n      pop\n      iszero\n      dup1\n      iszero\n      tag_17\n      jumpi\n      returndatasize\n      0x00\n      dup1\n      returndatacopy\n      revert(0x00, returndatasize)\n    tag_17:\n      pop\n        /* \"tutorials/callSendTransfer.sol\":99:231  function sendEtherTransfer(address payable _to) public payable {... */\n      pop\n      jump\t// out\n        /* \"tutorials/callSendTransfer.sol\":239:397  function sendEtherSend(address payable _to) public payable {... */\n    tag_11:\n        /* \"tutorials/callSendTransfer.sol\":309:318  bool sent */\n      0x00\n        /* \"tutorials/callSendTransfer.sol\":321:324  _to */\n      dup2\n        /* \"tutorials/callSendTransfer.sol\":321:329  _to.send */\n      0xffffffffffffffffffffffffffffffffffffffff\n      and\n        /* \"tutorials/callSendTransfer.sol\":321:340  _to.send(msg.value) */\n      0x08fc\n        /* \"tutorials/callSendTransfer.sol\":330:339  msg.value */\n      callvalue\n        /* \"tutorials/callSendTransfer.sol\":321:340  _to.send(msg.value) */\n      swap1\n      dup2\n      iszero\n      mul\n      swap1\n      mload(0x40)\n      0x00\n      mload(0x40)\n      dup1\n      dup4\n      sub\n      dup2\n      dup6\n      dup9\n      dup9\n      call\n      swap4\n      pop\n      pop\n      pop\n      pop\n        /* \"tutorials/callSendTransfer.sol\":309:340  bool sent = _to.send(msg.value) */\n      swap1\n      pop\n        /* \"tutorials/callSendTransfer.sol\":360:364  sent */\n      dup1\n        /* \"tutorials/callSendTransfer.sol\":352:389  require(sent, \"Failed to send ether\") */\n      tag_20\n      jumpi\n      mload(0x40)\n      0x08c379a000000000000000000000000000000000000000000000000000000000\n      dup2\n      mstore\n      0x04\n      add\n      tag_21\n      swap1\n      tag_22\n      jump\t// in\n    tag_21:\n      mload(0x40)\n      dup1\n      swap2\n      sub\n      swap1\n      revert\n    tag_20:\n        /* \"tutorials/callSendTransfer.sol\":298:397  {... */\n      pop\n        /* \"tutorials/callSendTransfer.sol\":239:397  function sendEtherSend(address payable _to) public payable {... */\n      pop\n      jump\t// out\n        /* \"tutorials/callSendTransfer.sol\":405:596  function sendEtherCall(address payable _to) public payable {... */\n    tag_14:\n        /* \"tutorials/callSendTransfer.sol\":476:488  bool success */\n      0x00\n        /* \"tutorials/callSendTransfer.sol\":494:497  _to */\n      dup2\n        /* \"tutorials/callSendTransfer.sol\":494:502  _to.call */\n      0xffffffffffffffffffffffffffffffffffffffff\n      and\n        /* \"tutorials/callSendTransfer.sol\":509:514  10000 */\n      0x2710\n        /* \"tutorials/callSendTransfer.sol\":523:532  msg.value */\n      callvalue\n        /* \"tutorials/callSendTransfer.sol\":494:537  _to.call{gas : 10000, value: msg.value}(\"\") */\n      mload(0x40)\n      tag_24\n      swap1\n      tag_25\n      jump\t// in\n    tag_24:\n      0x00\n      mload(0x40)\n      dup1\n      dup4\n      sub\n      dup2\n      dup6\n      dup9\n      dup9\n      call\n      swap4\n      pop\n      pop\n      pop\n      pop\n      returndatasize\n      dup1\n      0x00\n      dup2\n      eq\n      tag_28\n      jumpi\n      mload(0x40)\n      swap2\n      pop\n      and(add(returndatasize, 0x3f), not(0x1f))\n      dup3\n      add\n      0x40\n      mstore\n      returndatasize\n      dup3\n      mstore\n      returndatasize\n      0x00\n      0x20\n      dup5\n      add\n      returndatacopy\n      jump(tag_27)\n    tag_28:\n      0x60\n      swap2\n      pop\n    tag_27:\n      pop\n        /* \"tutorials/callSendTransfer.sol\":475:537  (bool success, ) = _to.call{gas : 10000, value: msg.value}(\"\") */\n      pop\n      swap1\n      pop\n        /* \"tutorials/callSendTransfer.sol\":556:563  success */\n      dup1\n        /* \"tutorials/callSendTransfer.sol\":548:588  require(success, \"Failed to send ether\") */\n      tag_29\n      jumpi\n      mload(0x40)\n      0x08c379a000000000000000000000000000000000000000000000000000000000\n      dup2\n      mstore\n      0x04\n      add\n      tag_30\n      swap1\n      tag_22\n      jump\t// in\n    tag_30:\n      mload(0x40)\n      dup1\n      swap2\n      sub\n      swap1\n      revert\n    tag_29:\n        /* \"tutorials/callSendTransfer.sol\":464:596  {... */\n      pop\n        /* \"tutorials/callSendTransfer.sol\":405:596  function sendEtherCall(address payable _to) public payable {... */\n      pop\n      jump\t// out\n        /* \"#utility.yul\":88:205   */\n    tag_32:\n        /* \"#utility.yul\":197:198   */\n      0x00\n        /* \"#utility.yul\":194:195   */\n      dup1\n        /* \"#utility.yul\":187:199   */\n      revert\n        /* \"#utility.yul\":334:460   */\n    tag_34:\n        /* \"#utility.yul\":371:378   */\n      0x00\n        /* \"#utility.yul\":411:453   */\n      0xffffffffffffffffffffffffffffffffffffffff\n        /* \"#utility.yul\":404:409   */\n      dup3\n        /* \"#utility.yul\":400:454   */\n      and\n        /* \"#utility.yul\":389:454   */\n      swap1\n      pop\n        /* \"#utility.yul\":334:460   */\n      swap2\n      swap1\n      pop\n      jump\t// out\n        /* \"#utility.yul\":466:570   */\n    tag_35:\n        /* \"#utility.yul\":511:518   */\n      0x00\n        /* \"#utility.yul\":540:564   */\n      tag_50\n        /* \"#utility.yul\":558:563   */\n      dup3\n        /* \"#utility.yul\":540:564   */\n      tag_34\n      jump\t// in\n    tag_50:\n        /* \"#utility.yul\":529:564   */\n      swap1\n      pop\n        /* \"#utility.yul\":466:570   */\n      swap2\n      swap1\n      pop\n      jump\t// out\n        /* \"#utility.yul\":576:714   */\n    tag_36:\n        /* \"#utility.yul\":657:689   */\n      tag_52\n        /* \"#utility.yul\":683:688   */\n      dup2\n        /* \"#utility.yul\":657:689   */\n      tag_35\n      jump\t// in\n    tag_52:\n        /* \"#utility.yul\":650:655   */\n      dup2\n        /* \"#utility.yul\":647:690   */\n      eq\n        /* \"#utility.yul\":637:708   */\n      tag_53\n      jumpi\n        /* \"#utility.yul\":704:705   */\n      0x00\n        /* \"#utility.yul\":701:702   */\n      dup1\n        /* \"#utility.yul\":694:706   */\n      revert\n        /* \"#utility.yul\":637:708   */\n    tag_53:\n        /* \"#utility.yul\":576:714   */\n      pop\n      jump\t// out\n        /* \"#utility.yul\":720:875   */\n    tag_37:\n        /* \"#utility.yul\":774:779   */\n      0x00\n        /* \"#utility.yul\":812:818   */\n      dup2\n        /* \"#utility.yul\":799:819   */\n      calldataload\n        /* \"#utility.yul\":790:819   */\n      swap1\n      pop\n        /* \"#utility.yul\":828:869   */\n      tag_55\n        /* \"#utility.yul\":863:868   */\n      dup2\n        /* \"#utility.yul\":828:869   */\n      tag_36\n      jump\t// in\n    tag_55:\n        /* \"#utility.yul\":720:875   */\n      swap3\n      swap2\n      pop\n      pop\n      jump\t// out\n        /* \"#utility.yul\":881:1226   */\n    tag_7:\n        /* \"#utility.yul\":948:954   */\n      0x00\n        /* \"#utility.yul\":997:999   */\n      0x20\n        /* \"#utility.yul\":985:994   */\n      dup3\n        /* \"#utility.yul\":976:983   */\n      dup5\n        /* \"#utility.yul\":972:995   */\n      sub\n        /* \"#utility.yul\":968:1000   */\n      slt\n        /* \"#utility.yul\":965:1084   */\n      iszero\n      tag_57\n      jumpi\n        /* \"#utility.yul\":1003:1082   */\n      tag_58\n      tag_32\n      jump\t// in\n    tag_58:\n        /* \"#utility.yul\":965:1084   */\n    tag_57:\n        /* \"#utility.yul\":1123:1124   */\n      0x00\n        /* \"#utility.yul\":1148:1209   */\n      tag_59\n        /* \"#utility.yul\":1201:1208   */\n      dup5\n        /* \"#utility.yul\":1192:1198   */\n      dup3\n        /* \"#utility.yul\":1181:1190   */\n      dup6\n        /* \"#utility.yul\":1177:1199   */\n      add\n        /* \"#utility.yul\":1148:1209   */\n      tag_37\n      jump\t// in\n    tag_59:\n        /* \"#utility.yul\":1138:1209   */\n      swap2\n      pop\n        /* \"#utility.yul\":1094:1219   */\n      pop\n        /* \"#utility.yul\":881:1226   */\n      swap3\n      swap2\n      pop\n      pop\n      jump\t// out\n        /* \"#utility.yul\":1232:1401   */\n    tag_38:\n        /* \"#utility.yul\":1316:1327   */\n      0x00\n        /* \"#utility.yul\":1350:1356   */\n      dup3\n        /* \"#utility.yul\":1345:1348   */\n      dup3\n        /* \"#utility.yul\":1338:1357   */\n      mstore\n        /* \"#utility.yul\":1390:1394   */\n      0x20\n        /* \"#utility.yul\":1385:1388   */\n      dup3\n        /* \"#utility.yul\":1381:1395   */\n      add\n        /* \"#utility.yul\":1366:1395   */\n      swap1\n      pop\n        /* \"#utility.yul\":1232:1401   */\n      swap3\n      swap2\n      pop\n      pop\n      jump\t// out\n        /* \"#utility.yul\":1407:1577   */\n    tag_39:\n        /* \"#utility.yul\":1547:1569   */\n      0x4661696c656420746f2073656e64206574686572000000000000000000000000\n        /* \"#utility.yul\":1543:1544   */\n      0x00\n        /* \"#utility.yul\":1535:1541   */\n      dup3\n        /* \"#utility.yul\":1531:1545   */\n      add\n        /* \"#utility.yul\":1524:1570   */\n      mstore\n        /* \"#utility.yul\":1407:1577   */\n      pop\n      jump\t// out\n        /* \"#utility.yul\":1583:1949   */\n    tag_40:\n        /* \"#utility.yul\":1725:1728   */\n      0x00\n        /* \"#utility.yul\":1746:1813   */\n      tag_63\n        /* \"#utility.yul\":1810:1812   */\n      0x14\n        /* \"#utility.yul\":1805:1808   */\n      dup4\n        /* \"#utility.yul\":1746:1813   */\n      tag_38\n      jump\t// in\n    tag_63:\n        /* \"#utility.yul\":1739:1813   */\n      swap2\n      pop\n        /* \"#utility.yul\":1822:1915   */\n      tag_64\n        /* \"#utility.yul\":1911:1914   */\n      dup3\n        /* \"#utility.yul\":1822:1915   */\n      tag_39\n      jump\t// in\n    tag_64:\n        /* \"#utility.yul\":1940:1942   */\n      0x20\n        /* \"#utility.yul\":1935:1938   */\n      dup3\n        /* \"#utility.yul\":1931:1943   */\n      add\n        /* \"#utility.yul\":1924:1943   */\n      swap1\n      pop\n        /* \"#utility.yul\":1583:1949   */\n      swap2\n      swap1\n      pop\n      jump\t// out\n        /* \"#utility.yul\":1955:2374   */\n    tag_22:\n        /* \"#utility.yul\":2121:2125   */\n      0x00\n        /* \"#utility.yul\":2159:2161   */\n      0x20\n        /* \"#utility.yul\":2148:2157   */\n      dup3\n        /* \"#utility.yul\":2144:2162   */\n      add\n        /* \"#utility.yul\":2136:2162   */\n      swap1\n      pop\n        /* \"#utility.yul\":2208:2217   */\n      dup2\n        /* \"#utility.yul\":2202:2206   */\n      dup2\n        /* \"#utility.yul\":2198:2218   */\n      sub\n        /* \"#utility.yul\":2194:2195   */\n      0x00\n        /* \"#utility.yul\":2183:2192   */\n      dup4\n        /* \"#utility.yul\":2179:2196   */\n      add\n        /* \"#utility.yul\":2172:2219   */\n      mstore\n        /* \"#utility.yul\":2236:2367   */\n      tag_66\n        /* \"#utility.yul\":2362:2366   */\n      dup2\n        /* \"#utility.yul\":2236:2367   */\n      tag_40\n      jump\t// in\n    tag_66:\n        /* \"#utility.yul\":2228:2367   */\n      swap1\n      pop\n        /* \"#utility.yul\":1955:2374   */\n      swap2\n      swap1\n      pop\n      jump\t// out\n        /* \"#utility.yul\":2380:2527   */\n    tag_41:\n        /* \"#utility.yul\":2481:2492   */\n      0x00\n        /* \"#utility.yul\":2518:2521   */\n      dup2\n        /* \"#utility.yul\":2503:2521   */\n      swap1\n      pop\n        /* \"#utility.yul\":2380:2527   */\n      swap3\n      swap2\n      pop\n      pop\n      jump\t// out\n        /* \"#utility.yul\":2533:2647   */\n    tag_42:\n      pop\n      jump\t// out\n        /* \"#utility.yul\":2653:3051   */\n    tag_43:\n        /* \"#utility.yul\":2812:2815   */\n      0x00\n        /* \"#utility.yul\":2833:2916   */\n      tag_70\n        /* \"#utility.yul\":2914:2915   */\n      0x00\n        /* \"#utility.yul\":2909:2912   */\n      dup4\n        /* \"#utility.yul\":2833:2916   */\n      tag_41\n      jump\t// in\n    tag_70:\n        /* \"#utility.yul\":2826:2916   */\n      swap2\n      pop\n        /* \"#utility.yul\":2925:3018   */\n      tag_71\n        /* \"#utility.yul\":3014:3017   */\n      dup3\n        /* \"#utility.yul\":2925:3018   */\n      tag_42\n      jump\t// in\n    tag_71:\n        /* \"#utility.yul\":3043:3044   */\n      0x00\n        /* \"#utility.yul\":3038:3041   */\n      dup3\n        /* \"#utility.yul\":3034:3045   */\n      add\n        /* \"#utility.yul\":3027:3045   */\n      swap1\n      pop\n        /* \"#utility.yul\":2653:3051   */\n      swap2\n      swap1\n      pop\n      jump\t// out\n        /* \"#utility.yul\":3057:3436   */\n    tag_25:\n        /* \"#utility.yul\":3241:3244   */\n      0x00\n        /* \"#utility.yul\":3263:3410   */\n      tag_73\n        /* \"#utility.yul\":3406:3409   */\n      dup3\n        /* \"#utility.yul\":3263:3410   */\n      tag_43\n      jump\t// in\n    tag_73:\n        /* \"#utility.yul\":3256:3410   */\n      swap2\n      pop\n        /* \"#utility.yul\":3427:3430   */\n      dup2\n        /* \"#utility.yul\":3420:3430   */\n      swap1\n      pop\n        /* \"#utility.yul\":3057:3436   */\n      swap2\n      swap1\n      pop\n      jump\t// out\n\n    auxdata: 0xa2646970667358221220e42d591cc8467f0422bc5ec2e91ac92a3bd0c1bc08a829c937de270967dbcbcf64736f6c63430008120033\n}\n",
				"bytecode": {
					"linkReferences": {},
					"object": "608060405234801561001057600080fd5b50610391806100206000396000f3fe6080604052600436106100345760003560e01c80631a7e1004146100395780634b3510cf146100555780635df088f914610071575b600080fd5b610053600480360381019061004e919061026b565b61008d565b005b61006f600480360381019061006a919061026b565b6100d7565b005b61008b6004803603810190610086919061026b565b610154565b005b8073ffffffffffffffffffffffffffffffffffffffff166108fc349081150290604051600060405180830381858888f193505050501580156100d3573d6000803e3d6000fd5b5050565b60008173ffffffffffffffffffffffffffffffffffffffff166108fc349081150290604051600060405180830381858888f19350505050905080610150576040517f08c379a0000000000000000000000000000000000000000000000000000000008152600401610147906102f5565b60405180910390fd5b5050565b60008173ffffffffffffffffffffffffffffffffffffffff166127103460405161017d90610346565b600060405180830381858888f193505050503d80600081146101bb576040519150601f19603f3d011682016040523d82523d6000602084013e6101c0565b606091505b5050905080610204576040517f08c379a00000000000000000000000000000000000000000000000000000000081526004016101fb906102f5565b60405180910390fd5b5050565b600080fd5b600073ffffffffffffffffffffffffffffffffffffffff82169050919050565b60006102388261020d565b9050919050565b6102488161022d565b811461025357600080fd5b50565b6000813590506102658161023f565b92915050565b60006020828403121561028157610280610208565b5b600061028f84828501610256565b91505092915050565b600082825260208201905092915050565b7f4661696c656420746f2073656e64206574686572000000000000000000000000600082015250565b60006102df601483610298565b91506102ea826102a9565b602082019050919050565b6000602082019050818103600083015261030e816102d2565b9050919050565b600081905092915050565b50565b6000610330600083610315565b915061033b82610320565b600082019050919050565b600061035182610323565b915081905091905056fea2646970667358221220e42d591cc8467f0422bc5ec2e91ac92a3bd0c1bc08a829c937de270967dbcbcf64736f6c63430008120033",
					"opcodes": "PUSH1 0x80 PUSH1 0x40 MSTORE CALLVALUE DUP1 ISZERO PUSH2 0x10 JUMPI PUSH1 0x0 DUP1 REVERT JUMPDEST POP PUSH2 0x391 DUP1 PUSH2 0x20 PUSH1 0x0 CODECOPY PUSH1 0x0 RETURN INVALID PUSH1 0x80 PUSH1 0x40 MSTORE PUSH1 0x4 CALLDATASIZE LT PUSH2 0x34 JUMPI PUSH1 0x0 CALLDATALOAD PUSH1 0xE0 SHR DUP1 PUSH4 0x1A7E1004 EQ PUSH2 0x39 JUMPI DUP1 PUSH4 0x4B3510CF EQ PUSH2 0x55 JUMPI DUP1 PUSH4 0x5DF088F9 EQ PUSH2 0x71 JUMPI JUMPDEST PUSH1 0x0 DUP1 REVERT JUMPDEST PUSH2 0x53 PUSH1 0x4 DUP1 CALLDATASIZE SUB DUP2 ADD SWAP1 PUSH2 0x4E SWAP2 SWAP1 PUSH2 0x26B JUMP JUMPDEST PUSH2 0x8D JUMP JUMPDEST STOP JUMPDEST PUSH2 0x6F PUSH1 0x4 DUP1 CALLDATASIZE SUB DUP2 ADD SWAP1 PUSH2 0x6A SWAP2 SWAP1 PUSH2 0x26B JUMP JUMPDEST PUSH2 0xD7 JUMP JUMPDEST STOP JUMPDEST PUSH2 0x8B PUSH1 0x4 DUP1 CALLDATASIZE SUB DUP2 ADD SWAP1 PUSH2 0x86 SWAP2 SWAP1 PUSH2 0x26B JUMP JUMPDEST PUSH2 0x154 JUMP JUMPDEST STOP JUMPDEST DUP1 PUSH20 0xFFFFFFFFFFFFFFFFFFFFFFFFFFFFFFFFFFFFFFFF AND PUSH2 0x8FC CALLVALUE SWAP1 DUP2 ISZERO MUL SWAP1 PUSH1 0x40 MLOAD PUSH1 0x0 PUSH1 0x40 MLOAD DUP1 DUP4 SUB DUP2 DUP6 DUP9 DUP9 CALL SWAP4 POP POP POP POP ISZERO DUP1 ISZERO PUSH2 0xD3 JUMPI RETURNDATASIZE PUSH1 0x0 DUP1 RETURNDATACOPY RETURNDATASIZE PUSH1 0x0 REVERT JUMPDEST POP POP JUMP JUMPDEST PUSH1 0x0 DUP2 PUSH20 0xFFFFFFFFFFFFFFFFFFFFFFFFFFFFFFFFFFFFFFFF AND PUSH2 0x8FC CALLVALUE SWAP1 DUP2 ISZERO MUL SWAP1 PUSH1 0x40 MLOAD PUSH1 0x0 PUSH1 0x40 MLOAD DUP1 DUP4 SUB DUP2 DUP6 DUP9 DUP9 CALL SWAP4 POP POP POP POP SWAP1 POP DUP1 PUSH2 0x150 JUMPI PUSH1 0x40 MLOAD PUSH32 0x8C379A000000000000000000000000000000000000000000000000000000000 DUP2 MSTORE PUSH1 0x4 ADD PUSH2 0x147 SWAP1 PUSH2 0x2F5 JUMP JUMPDEST PUSH1 0x40 MLOAD DUP1 SWAP2 SUB SWAP1 REVERT JUMPDEST POP POP JUMP JUMPDEST PUSH1 0x0 DUP2 PUSH20 0xFFFFFFFFFFFFFFFFFFFFFFFFFFFFFFFFFFFFFFFF AND PUSH2 0x2710 CALLVALUE PUSH1 0x40 MLOAD PUSH2 0x17D SWAP1 PUSH2 0x346 JUMP JUMPDEST PUSH1 0x0 PUSH1 0x40 MLOAD DUP1 DUP4 SUB DUP2 DUP6 DUP9 DUP9 CALL SWAP4 POP POP POP POP RETURNDATASIZE DUP1 PUSH1 0x0 DUP2 EQ PUSH2 0x1BB JUMPI PUSH1 0x40 MLOAD SWAP2 POP PUSH1 0x1F NOT PUSH1 0x3F RETURNDATASIZE ADD AND DUP3 ADD PUSH1 0x40 MSTORE RETURNDATASIZE DUP3 MSTORE RETURNDATASIZE PUSH1 0x0 PUSH1 0x20 DUP5 ADD RETURNDATACOPY PUSH2 0x1C0 JUMP JUMPDEST PUSH1 0x60 SWAP2 POP JUMPDEST POP POP SWAP1 POP DUP1 PUSH2 0x204 JUMPI PUSH1 0x40 MLOAD PUSH32 0x8C379A000000000000000000000000000000000000000000000000000000000 DUP2 MSTORE PUSH1 0x4 ADD PUSH2 0x1FB SWAP1 PUSH2 0x2F5 JUMP JUMPDEST PUSH1 0x40 MLOAD DUP1 SWAP2 SUB SWAP1 REVERT JUMPDEST POP POP JUMP JUMPDEST PUSH1 0x0 DUP1 REVERT JUMPDEST PUSH1 0x0 PUSH20 0xFFFFFFFFFFFFFFFFFFFFFFFFFFFFFFFFFFFFFFFF DUP3 AND SWAP1 POP SWAP2 SWAP1 POP JUMP JUMPDEST PUSH1 0x0 PUSH2 0x238 DUP3 PUSH2 0x20D JUMP JUMPDEST SWAP1 POP SWAP2 SWAP1 POP JUMP JUMPDEST PUSH2 0x248 DUP2 PUSH2 0x22D JUMP JUMPDEST DUP2 EQ PUSH2 0x253 JUMPI PUSH1 0x0 DUP1 REVERT JUMPDEST POP JUMP JUMPDEST PUSH1 0x0 DUP2 CALLDATALOAD SWAP1 POP PUSH2 0x265 DUP2 PUSH2 0x23F JUMP JUMPDEST SWAP3 SWAP2 POP POP JUMP JUMPDEST PUSH1 0x0 PUSH1 0x20 DUP3 DUP5 SUB SLT ISZERO PUSH2 0x281 JUMPI PUSH2 0x280 PUSH2 0x208 JUMP JUMPDEST JUMPDEST PUSH1 0x0 PUSH2 0x28F DUP5 DUP3 DUP6 ADD PUSH2 0x256 JUMP JUMPDEST SWAP2 POP POP SWAP3 SWAP2 POP POP JUMP JUMPDEST PUSH1 0x0 DUP3 DUP3 MSTORE PUSH1 0x20 DUP3 ADD SWAP1 POP SWAP3 SWAP2 POP POP JUMP JUMPDEST PUSH32 0x4661696C656420746F2073656E64206574686572000000000000000000000000 PUSH1 0x0 DUP3 ADD MSTORE POP JUMP JUMPDEST PUSH1 0x0 PUSH2 0x2DF PUSH1 0x14 DUP4 PUSH2 0x298 JUMP JUMPDEST SWAP2 POP PUSH2 0x2EA DUP3 PUSH2 0x2A9 JUMP JUMPDEST PUSH1 0x20 DUP3 ADD SWAP1 POP SWAP2 SWAP1 POP JUMP JUMPDEST PUSH1 0x0 PUSH1 0x20 DUP3 ADD SWAP1 POP DUP2 DUP2 SUB PUSH1 0x0 DUP4 ADD MSTORE PUSH2 0x30E DUP2 PUSH2 0x2D2 JUMP JUMPDEST SWAP1 POP SWAP2 SWAP1 POP JUMP JUMPDEST PUSH1 0x0 DUP2 SWAP1 POP SWAP3 SWAP2 POP POP JUMP JUMPDEST POP JUMP JUMPDEST PUSH1 0x0 PUSH2 0x330 PUSH1 0x0 DUP4 PUSH2 0x315 JUMP JUMPDEST SWAP2 POP PUSH2 0x33B DUP3 PUSH2 0x320 JUMP JUMPDEST PUSH1 0x0 DUP3 ADD SWAP1 POP SWAP2 SWAP1 POP JUMP JUMPDEST PUSH1 0x0 PUSH2 0x351 DUP3 PUSH2 0x323 JUMP JUMPDEST SWAP2 POP DUP2 SWAP1 POP SWAP2 SWAP1 POP JUMP INVALID LOG2 PUSH5 0x6970667358 0x22 SLT KECCAK256 0xE4 0x2D MSIZE SHR 0xC8 CHAINID PUSH32 0x422BC5EC2E91AC92A3BD0C1BC08A829C937DE270967DBCBCF64736F6C634300 ADDMOD SLT STOP CALLER "
				},
				"gasEstimates": {
					"creation": {
						"codeDepositCost": "182600",
						"executionCost": "226",
						"totalCost": "182826"
					},
					"external": {
						"sendEtherCall(address)": "infinite",
						"sendEtherSend(address)": "infinite",
						"sendEtherTransfer(address)": "infinite"
					}
				},
				"methodIdentifiers": {
					"sendEtherCall(address)": "5df088f9",
					"sendEtherSend(address)": "4b3510cf",
					"sendEtherTransfer(address)": "1a7e1004"
				}
			},
			"storageLayout": {
				"storage": [],
				"types": null
			},
			"userdoc": {
				"kind": "user",
				"methods": {},
				"version": 1
			}
		}
	}
}