{
	"practice-revision/bool.sol": {
		"BooleanExample": {
			"abi": [
				{
					"inputs": [],
					"name": "integer",
					"outputs": [
						{
							"internalType": "uint8",
							"name": "",
							"type": "uint8"
						}
					],
					"stateMutability": "view",
					"type": "function"
				},
				{
					"inputs": [
						{
							"internalType": "uint8",
							"name": "value",
							"type": "uint8"
						}
					],
					"name": "setInteger",
					"outputs": [],
					"stateMutability": "nonpayable",
					"type": "function"
				}
			],
			"devdoc": {
				"kind": "dev",
				"methods": {},
				"version": 1
			},
			"evm": {
				"assembly": "    /* \"practice-revision/bool.sol\":60:319  contract BooleanExample {... */\n  mstore(0x40, 0x80)\n  callvalue\n  dup1\n  iszero\n  tag_1\n  jumpi\n  0x00\n  dup1\n  revert\ntag_1:\n  pop\n  dataSize(sub_0)\n  dup1\n  dataOffset(sub_0)\n  0x00\n  codecopy\n  0x00\n  return\nstop\n\nsub_0: assembly {\n        /* \"practice-revision/bool.sol\":60:319  contract BooleanExample {... */\n      mstore(0x40, 0x80)\n      callvalue\n      dup1\n      iszero\n      tag_1\n      jumpi\n      0x00\n      dup1\n      revert\n    tag_1:\n      pop\n      jumpi(tag_2, lt(calldatasize, 0x04))\n      shr(0xe0, calldataload(0x00))\n      dup1\n      0x09efb8ff\n      eq\n      tag_3\n      jumpi\n      dup1\n      0xb6f7f15d\n      eq\n      tag_4\n      jumpi\n    tag_2:\n      0x00\n      dup1\n      revert\n        /* \"practice-revision/bool.sol\":121:141  uint8 public integer */\n    tag_3:\n      tag_5\n      tag_6\n      jump\t// in\n    tag_5:\n      mload(0x40)\n      tag_7\n      swap2\n      swap1\n      tag_8\n      jump\t// in\n    tag_7:\n      mload(0x40)\n      dup1\n      swap2\n      sub\n      swap1\n      return\n        /* \"practice-revision/bool.sol\":242:316  function setInteger(uint8 value) public {... */\n    tag_4:\n      tag_9\n      0x04\n      dup1\n      calldatasize\n      sub\n      dup2\n      add\n      swap1\n      tag_10\n      swap2\n      swap1\n      tag_11\n      jump\t// in\n    tag_10:\n      tag_12\n      jump\t// in\n    tag_9:\n      stop\n        /* \"practice-revision/bool.sol\":121:141  uint8 public integer */\n    tag_6:\n      0x00\n      dup1\n      sload\n      swap1\n      0x0100\n      exp\n      swap1\n      div\n      0xff\n      and\n      dup2\n      jump\t// out\n        /* \"practice-revision/bool.sol\":242:316  function setInteger(uint8 value) public {... */\n    tag_12:\n        /* \"practice-revision/bool.sol\":303:308  value */\n      dup1\n        /* \"practice-revision/bool.sol\":293:300  integer */\n      0x00\n      dup1\n        /* \"practice-revision/bool.sol\":293:308  integer = value */\n      0x0100\n      exp\n      dup2\n      sload\n      dup2\n      0xff\n      mul\n      not\n      and\n      swap1\n      dup4\n      0xff\n      and\n      mul\n      or\n      swap1\n      sstore\n      pop\n        /* \"practice-revision/bool.sol\":242:316  function setInteger(uint8 value) public {... */\n      pop\n      jump\t// out\n        /* \"#utility.yul\":7:93   */\n    tag_14:\n        /* \"#utility.yul\":42:49   */\n      0x00\n        /* \"#utility.yul\":82:86   */\n      0xff\n        /* \"#utility.yul\":75:80   */\n      dup3\n        /* \"#utility.yul\":71:87   */\n      and\n        /* \"#utility.yul\":60:87   */\n      swap1\n      pop\n        /* \"#utility.yul\":7:93   */\n      swap2\n      swap1\n      pop\n      jump\t// out\n        /* \"#utility.yul\":99:211   */\n    tag_15:\n        /* \"#utility.yul\":182:204   */\n      tag_24\n        /* \"#utility.yul\":198:203   */\n      dup2\n        /* \"#utility.yul\":182:204   */\n      tag_14\n      jump\t// in\n    tag_24:\n        /* \"#utility.yul\":177:180   */\n      dup3\n        /* \"#utility.yul\":170:205   */\n      mstore\n        /* \"#utility.yul\":99:211   */\n      pop\n      pop\n      jump\t// out\n        /* \"#utility.yul\":217:431   */\n    tag_8:\n        /* \"#utility.yul\":306:310   */\n      0x00\n        /* \"#utility.yul\":344:346   */\n      0x20\n        /* \"#utility.yul\":333:342   */\n      dup3\n        /* \"#utility.yul\":329:347   */\n      add\n        /* \"#utility.yul\":321:347   */\n      swap1\n      pop\n        /* \"#utility.yul\":357:424   */\n      tag_26\n        /* \"#utility.yul\":421:422   */\n      0x00\n        /* \"#utility.yul\":410:419   */\n      dup4\n        /* \"#utility.yul\":406:423   */\n      add\n        /* \"#utility.yul\":397:403   */\n      dup5\n        /* \"#utility.yul\":357:424   */\n      tag_15\n      jump\t// in\n    tag_26:\n        /* \"#utility.yul\":217:431   */\n      swap3\n      swap2\n      pop\n      pop\n      jump\t// out\n        /* \"#utility.yul\":518:635   */\n    tag_17:\n        /* \"#utility.yul\":627:628   */\n      0x00\n        /* \"#utility.yul\":624:625   */\n      dup1\n        /* \"#utility.yul\":617:629   */\n      revert\n        /* \"#utility.yul\":764:882   */\n    tag_19:\n        /* \"#utility.yul\":835:857   */\n      tag_31\n        /* \"#utility.yul\":851:856   */\n      dup2\n        /* \"#utility.yul\":835:857   */\n      tag_14\n      jump\t// in\n    tag_31:\n        /* \"#utility.yul\":828:833   */\n      dup2\n        /* \"#utility.yul\":825:858   */\n      eq\n        /* \"#utility.yul\":815:876   */\n      tag_32\n      jumpi\n        /* \"#utility.yul\":872:873   */\n      0x00\n        /* \"#utility.yul\":869:870   */\n      dup1\n        /* \"#utility.yul\":862:874   */\n      revert\n        /* \"#utility.yul\":815:876   */\n    tag_32:\n        /* \"#utility.yul\":764:882   */\n      pop\n      jump\t// out\n        /* \"#utility.yul\":888:1023   */\n    tag_20:\n        /* \"#utility.yul\":932:937   */\n      0x00\n        /* \"#utility.yul\":970:976   */\n      dup2\n        /* \"#utility.yul\":957:977   */\n      calldataload\n        /* \"#utility.yul\":948:977   */\n      swap1\n      pop\n        /* \"#utility.yul\":986:1017   */\n      tag_34\n        /* \"#utility.yul\":1011:1016   */\n      dup2\n        /* \"#utility.yul\":986:1017   */\n      tag_19\n      jump\t// in\n    tag_34:\n        /* \"#utility.yul\":888:1023   */\n      swap3\n      swap2\n      pop\n      pop\n      jump\t// out\n        /* \"#utility.yul\":1029:1354   */\n    tag_11:\n        /* \"#utility.yul\":1086:1092   */\n      0x00\n        /* \"#utility.yul\":1135:1137   */\n      0x20\n        /* \"#utility.yul\":1123:1132   */\n      dup3\n        /* \"#utility.yul\":1114:1121   */\n      dup5\n        /* \"#utility.yul\":1110:1133   */\n      sub\n        /* \"#utility.yul\":1106:1138   */\n      slt\n        /* \"#utility.yul\":1103:1222   */\n      iszero\n      tag_36\n      jumpi\n        /* \"#utility.yul\":1141:1220   */\n      tag_37\n      tag_17\n      jump\t// in\n    tag_37:\n        /* \"#utility.yul\":1103:1222   */\n    tag_36:\n        /* \"#utility.yul\":1261:1262   */\n      0x00\n        /* \"#utility.yul\":1286:1337   */\n      tag_38\n        /* \"#utility.yul\":1329:1336   */\n      dup5\n        /* \"#utility.yul\":1320:1326   */\n      dup3\n        /* \"#utility.yul\":1309:1318   */\n      dup6\n        /* \"#utility.yul\":1305:1327   */\n      add\n        /* \"#utility.yul\":1286:1337   */\n      tag_20\n      jump\t// in\n    tag_38:\n        /* \"#utility.yul\":1276:1337   */\n      swap2\n      pop\n        /* \"#utility.yul\":1232:1347   */\n      pop\n        /* \"#utility.yul\":1029:1354   */\n      swap3\n      swap2\n      pop\n      pop\n      jump\t// out\n\n    auxdata: 0xa2646970667358221220736142dc20ddf1ce6e899dd5ec4057966369c9dbf37833ef5eab7f6973f3ce5164736f6c63430008130033\n}\n",
				"bytecode": {
					"linkReferences": {},
					"object": "608060405234801561001057600080fd5b5061016e806100206000396000f3fe608060405234801561001057600080fd5b50600436106100365760003560e01c806309efb8ff1461003b578063b6f7f15d14610059575b600080fd5b610043610075565b60405161005091906100bf565b60405180910390f35b610073600480360381019061006e919061010b565b610086565b005b60008054906101000a900460ff1681565b806000806101000a81548160ff021916908360ff16021790555050565b600060ff82169050919050565b6100b9816100a3565b82525050565b60006020820190506100d460008301846100b0565b92915050565b600080fd5b6100e8816100a3565b81146100f357600080fd5b50565b600081359050610105816100df565b92915050565b600060208284031215610121576101206100da565b5b600061012f848285016100f6565b9150509291505056fea2646970667358221220736142dc20ddf1ce6e899dd5ec4057966369c9dbf37833ef5eab7f6973f3ce5164736f6c63430008130033",
					"opcodes": "PUSH1 0x80 PUSH1 0x40 MSTORE CALLVALUE DUP1 ISZERO PUSH2 0x10 JUMPI PUSH1 0x0 DUP1 REVERT JUMPDEST POP PUSH2 0x16E DUP1 PUSH2 0x20 PUSH1 0x0 CODECOPY PUSH1 0x0 RETURN INVALID PUSH1 0x80 PUSH1 0x40 MSTORE CALLVALUE DUP1 ISZERO PUSH2 0x10 JUMPI PUSH1 0x0 DUP1 REVERT JUMPDEST POP PUSH1 0x4 CALLDATASIZE LT PUSH2 0x36 JUMPI PUSH1 0x0 CALLDATALOAD PUSH1 0xE0 SHR DUP1 PUSH4 0x9EFB8FF EQ PUSH2 0x3B JUMPI DUP1 PUSH4 0xB6F7F15D EQ PUSH2 0x59 JUMPI JUMPDEST PUSH1 0x0 DUP1 REVERT JUMPDEST PUSH2 0x43 PUSH2 0x75 JUMP JUMPDEST PUSH1 0x40 MLOAD PUSH2 0x50 SWAP2 SWAP1 PUSH2 0xBF JUMP JUMPDEST PUSH1 0x40 MLOAD DUP1 SWAP2 SUB SWAP1 RETURN JUMPDEST PUSH2 0x73 PUSH1 0x4 DUP1 CALLDATASIZE SUB DUP2 ADD SWAP1 PUSH2 0x6E SWAP2 SWAP1 PUSH2 0x10B JUMP JUMPDEST PUSH2 0x86 JUMP JUMPDEST STOP JUMPDEST PUSH1 0x0 DUP1 SLOAD SWAP1 PUSH2 0x100 EXP SWAP1 DIV PUSH1 0xFF AND DUP2 JUMP JUMPDEST DUP1 PUSH1 0x0 DUP1 PUSH2 0x100 EXP DUP2 SLOAD DUP2 PUSH1 0xFF MUL NOT AND SWAP1 DUP4 PUSH1 0xFF AND MUL OR SWAP1 SSTORE POP POP JUMP JUMPDEST PUSH1 0x0 PUSH1 0xFF DUP3 AND SWAP1 POP SWAP2 SWAP1 POP JUMP JUMPDEST PUSH2 0xB9 DUP2 PUSH2 0xA3 JUMP JUMPDEST DUP3 MSTORE POP POP JUMP JUMPDEST PUSH1 0x0 PUSH1 0x20 DUP3 ADD SWAP1 POP PUSH2 0xD4 PUSH1 0x0 DUP4 ADD DUP5 PUSH2 0xB0 JUMP JUMPDEST SWAP3 SWAP2 POP POP JUMP JUMPDEST PUSH1 0x0 DUP1 REVERT JUMPDEST PUSH2 0xE8 DUP2 PUSH2 0xA3 JUMP JUMPDEST DUP2 EQ PUSH2 0xF3 JUMPI PUSH1 0x0 DUP1 REVERT JUMPDEST POP JUMP JUMPDEST PUSH1 0x0 DUP2 CALLDATALOAD SWAP1 POP PUSH2 0x105 DUP2 PUSH2 0xDF JUMP JUMPDEST SWAP3 SWAP2 POP POP JUMP JUMPDEST PUSH1 0x0 PUSH1 0x20 DUP3 DUP5 SUB SLT ISZERO PUSH2 0x121 JUMPI PUSH2 0x120 PUSH2 0xDA JUMP JUMPDEST JUMPDEST PUSH1 0x0 PUSH2 0x12F DUP5 DUP3 DUP6 ADD PUSH2 0xF6 JUMP JUMPDEST SWAP2 POP POP SWAP3 SWAP2 POP POP JUMP INVALID LOG2 PUSH5 0x6970667358 0x22 SLT KECCAK256 PUSH20 0x6142DC20DDF1CE6E899DD5EC4057966369C9DBF3 PUSH25 0x33EF5EAB7F6973F3CE5164736F6C6343000813003300000000 "
				},
				"gasEstimates": {
					"creation": {
						"codeDepositCost": "73200",
						"executionCost": "123",
						"totalCost": "73323"
					},
					"external": {
						"integer()": "2446",
						"setInteger(uint8)": "24679"
					}
				},
				"methodIdentifiers": {
					"integer()": "09efb8ff",
					"setInteger(uint8)": "b6f7f15d"
				}
			},
			"storageLayout": {
				"storage": [
					{
						"astId": 3,
						"contract": "practice-revision/bool.sol:BooleanExample",
						"label": "integer",
						"offset": 0,
						"slot": "0",
						"type": "t_uint8"
					}
				],
				"types": {
					"t_uint8": {
						"encoding": "inplace",
						"label": "uint8",
						"numberOfBytes": "1"
					}
				}
			},
			"userdoc": {
				"kind": "user",
				"methods": {},
				"version": 1
			}
		}
	}
}