{
	"practice-revision/test.sol": {
		"Function": {
			"abi": [
				{
					"inputs": [
						{
							"internalType": "uint256",
							"name": "",
							"type": "uint256"
						}
					],
					"name": "arr",
					"outputs": [
						{
							"internalType": "uint256",
							"name": "",
							"type": "uint256"
						}
					],
					"stateMutability": "view",
					"type": "function"
				},
				{
					"inputs": [
						{
							"internalType": "uint256[]",
							"name": "_arr",
							"type": "uint256[]"
						}
					],
					"name": "arrayInput",
					"outputs": [],
					"stateMutability": "nonpayable",
					"type": "function"
				},
				{
					"inputs": [],
					"name": "arrayOutput",
					"outputs": [
						{
							"internalType": "uint256[]",
							"name": "",
							"type": "uint256[]"
						}
					],
					"stateMutability": "view",
					"type": "function"
				},
				{
					"inputs": [],
					"name": "assigned",
					"outputs": [
						{
							"internalType": "uint256",
							"name": "x",
							"type": "uint256"
						},
						{
							"internalType": "bool",
							"name": "b",
							"type": "bool"
						},
						{
							"internalType": "uint256",
							"name": "y",
							"type": "uint256"
						}
					],
					"stateMutability": "pure",
					"type": "function"
				},
				{
					"inputs": [],
					"name": "destructuringAssignments",
					"outputs": [
						{
							"internalType": "uint256",
							"name": "",
							"type": "uint256"
						},
						{
							"internalType": "bool",
							"name": "",
							"type": "bool"
						},
						{
							"internalType": "uint256",
							"name": "",
							"type": "uint256"
						},
						{
							"internalType": "uint256",
							"name": "",
							"type": "uint256"
						},
						{
							"internalType": "uint256",
							"name": "",
							"type": "uint256"
						}
					],
					"stateMutability": "pure",
					"type": "function"
				},
				{
					"inputs": [],
					"name": "named",
					"outputs": [
						{
							"internalType": "uint256",
							"name": "x",
							"type": "uint256"
						},
						{
							"internalType": "bool",
							"name": "b",
							"type": "bool"
						},
						{
							"internalType": "uint256",
							"name": "y",
							"type": "uint256"
						}
					],
					"stateMutability": "pure",
					"type": "function"
				},
				{
					"inputs": [],
					"name": "returnMany",
					"outputs": [
						{
							"internalType": "uint256",
							"name": "",
							"type": "uint256"
						},
						{
							"internalType": "bool",
							"name": "",
							"type": "bool"
						},
						{
							"internalType": "uint256",
							"name": "",
							"type": "uint256"
						}
					],
					"stateMutability": "pure",
					"type": "function"
				}
			],
			"devdoc": {
				"kind": "dev",
				"methods": {},
				"version": 1
			},
			"evm": {
				"assembly": "    /* \"practice-revision/test.sol\":60:1288  contract Function {\r... */\n  mstore(0x40, 0x80)\n  callvalue\n  dup1\n  iszero\n  tag_1\n  jumpi\n  0x00\n  dup1\n  revert\ntag_1:\n  pop\n  dataSize(sub_0)\n  dup1\n  dataOffset(sub_0)\n  0x00\n  codecopy\n  0x00\n  return\nstop\n\nsub_0: assembly {\n        /* \"practice-revision/test.sol\":60:1288  contract Function {\r... */\n      mstore(0x40, 0x80)\n      callvalue\n      dup1\n      iszero\n      tag_1\n      jumpi\n      0x00\n      dup1\n      revert\n    tag_1:\n      pop\n      jumpi(tag_2, lt(calldatasize, 0x04))\n      shr(0xe0, calldataload(0x00))\n      dup1\n      0x71e5ee5f\n      gt\n      tag_10\n      jumpi\n      dup1\n      0x71e5ee5f\n      eq\n      tag_6\n      jumpi\n      dup1\n      0x86887544\n      eq\n      tag_7\n      jumpi\n      dup1\n      0xadb4d990\n      eq\n      tag_8\n      jumpi\n      dup1\n      0xf4bb6e6b\n      eq\n      tag_9\n      jumpi\n      jump(tag_2)\n    tag_10:\n      dup1\n      0x1990532b\n      eq\n      tag_3\n      jumpi\n      dup1\n      0x45f907a8\n      eq\n      tag_4\n      jumpi\n      dup1\n      0x68873440\n      eq\n      tag_5\n      jumpi\n    tag_2:\n      0x00\n      dup1\n      revert\n        /* \"practice-revision/test.sol\":1197:1285  function arrayOutput() public view returns (uint[] memory) {\r... */\n    tag_3:\n      tag_11\n      tag_12\n      jump\t// in\n    tag_11:\n      mload(0x40)\n      tag_13\n      swap2\n      swap1\n      tag_14\n      jump\t// in\n    tag_13:\n      mload(0x40)\n      dup1\n      swap2\n      sub\n      swap1\n      return\n        /* \"practice-revision/test.sol\":273:372  function named() public pure returns (uint x, bool b, uint y){\r... */\n    tag_4:\n      tag_15\n      tag_16\n      jump\t// in\n    tag_15:\n      mload(0x40)\n      tag_17\n      swap4\n      swap3\n      swap2\n      swap1\n      tag_18\n      jump\t// in\n    tag_17:\n      mload(0x40)\n      dup1\n      swap2\n      sub\n      swap1\n      return\n        /* \"practice-revision/test.sol\":728:989  function destructuringAssignments() public pure returns ( uint, bool, uint, uint, uint ) {\r... */\n    tag_5:\n      tag_19\n      tag_20\n      jump\t// in\n    tag_19:\n      mload(0x40)\n      tag_21\n      swap6\n      swap5\n      swap4\n      swap3\n      swap2\n      swap1\n      tag_22\n      jump\t// in\n    tag_21:\n      mload(0x40)\n      dup1\n      swap2\n      sub\n      swap1\n      return\n        /* \"practice-revision/test.sol\":1171:1188  uint[] public arr */\n    tag_6:\n      tag_23\n      0x04\n      dup1\n      calldatasize\n      sub\n      dup2\n      add\n      swap1\n      tag_24\n      swap2\n      swap1\n      tag_25\n      jump\t// in\n    tag_24:\n      tag_26\n      jump\t// in\n    tag_23:\n      mload(0x40)\n      tag_27\n      swap2\n      swap1\n      tag_28\n      jump\t// in\n    tag_27:\n      mload(0x40)\n      dup1\n      swap2\n      sub\n      swap1\n      return\n        /* \"practice-revision/test.sol\":131:229  function returnMany() public pure returns (uint, bool, uint){\r... */\n    tag_7:\n      tag_29\n      tag_30\n      jump\t// in\n    tag_29:\n      mload(0x40)\n      tag_31\n      swap4\n      swap3\n      swap2\n      swap1\n      tag_18\n      jump\t// in\n    tag_31:\n      mload(0x40)\n      dup1\n      swap2\n      sub\n      swap1\n      return\n        /* \"practice-revision/test.sol\":491:615  function assigned() public pure returns (uint x, bool b, uint y) {\r... */\n    tag_8:\n      tag_32\n      tag_33\n      jump\t// in\n    tag_32:\n      mload(0x40)\n      tag_34\n      swap4\n      swap3\n      swap2\n      swap1\n      tag_18\n      jump\t// in\n    tag_34:\n      mload(0x40)\n      dup1\n      swap2\n      sub\n      swap1\n      return\n        /* \"practice-revision/test.sol\":1081:1130  function arrayInput(uint[] memory _arr) public {} */\n    tag_9:\n      tag_35\n      0x04\n      dup1\n      calldatasize\n      sub\n      dup2\n      add\n      swap1\n      tag_36\n      swap2\n      swap1\n      tag_37\n      jump\t// in\n    tag_36:\n      tag_38\n      jump\t// in\n    tag_35:\n      stop\n        /* \"practice-revision/test.sol\":1197:1285  function arrayOutput() public view returns (uint[] memory) {\r... */\n    tag_12:\n        /* \"practice-revision/test.sol\":1241:1254  uint[] memory */\n      0x60\n        /* \"practice-revision/test.sol\":1274:1277  arr */\n      0x00\n        /* \"practice-revision/test.sol\":1267:1277  return arr */\n      dup1\n      sload\n      dup1\n      0x20\n      mul\n      0x20\n      add\n      mload(0x40)\n      swap1\n      dup2\n      add\n      0x40\n      mstore\n      dup1\n      swap3\n      swap2\n      swap1\n      dup2\n      dup2\n      mstore\n      0x20\n      add\n      dup3\n      dup1\n      sload\n      dup1\n      iszero\n      tag_40\n      jumpi\n      0x20\n      mul\n      dup3\n      add\n      swap2\n      swap1\n      0x00\n      mstore\n      keccak256(0x00, 0x20)\n      swap1\n    tag_41:\n      dup2\n      sload\n      dup2\n      mstore\n      0x20\n      add\n      swap1\n      0x01\n      add\n      swap1\n      dup1\n      dup4\n      gt\n      tag_41\n      jumpi\n    tag_40:\n      pop\n      pop\n      pop\n      pop\n      pop\n      swap1\n      pop\n        /* \"practice-revision/test.sol\":1197:1285  function arrayOutput() public view returns (uint[] memory) {\r... */\n      swap1\n      jump\t// out\n        /* \"practice-revision/test.sol\":273:372  function named() public pure returns (uint x, bool b, uint y){\r... */\n    tag_16:\n        /* \"practice-revision/test.sol\":311:317  uint x */\n      0x00\n        /* \"practice-revision/test.sol\":319:325  bool b */\n      dup1\n        /* \"practice-revision/test.sol\":327:333  uint y */\n      0x00\n        /* \"practice-revision/test.sol\":353:354  1 */\n      0x01\n        /* \"practice-revision/test.sol\":356:360  true */\n      dup1\n        /* \"practice-revision/test.sol\":362:363  2 */\n      0x02\n        /* \"practice-revision/test.sol\":345:364  return (1, true, 2) */\n      swap3\n      pop\n      swap3\n      pop\n      swap3\n      pop\n        /* \"practice-revision/test.sol\":273:372  function named() public pure returns (uint x, bool b, uint y){\r... */\n      swap1\n      swap2\n      swap3\n      jump\t// out\n        /* \"practice-revision/test.sol\":728:989  function destructuringAssignments() public pure returns ( uint, bool, uint, uint, uint ) {\r... */\n    tag_20:\n        /* \"practice-revision/test.sol\":786:790  uint */\n      0x00\n        /* \"practice-revision/test.sol\":792:796  bool */\n      dup1\n        /* \"practice-revision/test.sol\":798:802  uint */\n      0x00\n        /* \"practice-revision/test.sol\":804:808  uint */\n      dup1\n        /* \"practice-revision/test.sol\":810:814  uint */\n      0x00\n        /* \"practice-revision/test.sol\":829:835  uint i */\n      dup1\n        /* \"practice-revision/test.sol\":837:843  bool b */\n      0x00\n        /* \"practice-revision/test.sol\":845:851  uint j */\n      dup1\n        /* \"practice-revision/test.sol\":855:867  returnMany() */\n      tag_44\n        /* \"practice-revision/test.sol\":855:865  returnMany */\n      tag_30\n        /* \"practice-revision/test.sol\":855:867  returnMany() */\n      jump\t// in\n    tag_44:\n        /* \"practice-revision/test.sol\":828:867  (uint i, bool b, uint j) = returnMany() */\n      swap3\n      pop\n      swap3\n      pop\n      swap3\n      pop\n        /* \"practice-revision/test.sol\":917:923  uint x */\n      0x00\n        /* \"practice-revision/test.sol\":927:933  uint y */\n      dup1\n        /* \"practice-revision/test.sol\":938:939  4 */\n      0x04\n        /* \"practice-revision/test.sol\":941:942  5 */\n      0x05\n        /* \"practice-revision/test.sol\":944:945  6 */\n      0x06\n        /* \"practice-revision/test.sol\":916:946  (uint x, , uint y) = (4, 5, 6) */\n      swap3\n      pop\n      pop\n      swap2\n      pop\n        /* \"practice-revision/test.sol\":967:968  i */\n      dup5\n        /* \"practice-revision/test.sol\":970:971  b */\n      dup5\n        /* \"practice-revision/test.sol\":973:974  j */\n      dup5\n        /* \"practice-revision/test.sol\":976:977  x */\n      dup5\n        /* \"practice-revision/test.sol\":979:980  y */\n      dup5\n        /* \"practice-revision/test.sol\":959:981  return (i, b, j, x, y) */\n      swap10\n      pop\n      swap10\n      pop\n      swap10\n      pop\n      swap10\n      pop\n      swap10\n      pop\n      pop\n      pop\n      pop\n      pop\n      pop\n        /* \"practice-revision/test.sol\":728:989  function destructuringAssignments() public pure returns ( uint, bool, uint, uint, uint ) {\r... */\n      swap1\n      swap2\n      swap3\n      swap4\n      swap5\n      jump\t// out\n        /* \"practice-revision/test.sol\":1171:1188  uint[] public arr */\n    tag_26:\n      0x00\n      dup2\n      dup2\n      sload\n      dup2\n      lt\n      tag_45\n      jumpi\n      0x00\n      dup1\n      revert\n    tag_45:\n      swap1\n      0x00\n      mstore\n      keccak256(0x00, 0x20)\n      add\n      0x00\n      swap2\n      pop\n      swap1\n      pop\n      sload\n      dup2\n      jump\t// out\n        /* \"practice-revision/test.sol\":131:229  function returnMany() public pure returns (uint, bool, uint){\r... */\n    tag_30:\n        /* \"practice-revision/test.sol\":174:178  uint */\n      0x00\n        /* \"practice-revision/test.sol\":180:184  bool */\n      dup1\n        /* \"practice-revision/test.sol\":186:190  uint */\n      0x00\n        /* \"practice-revision/test.sol\":210:211  1 */\n      0x01\n        /* \"practice-revision/test.sol\":213:217  true */\n      dup1\n        /* \"practice-revision/test.sol\":219:220  2 */\n      0x02\n        /* \"practice-revision/test.sol\":202:221  return (1, true, 2) */\n      swap3\n      pop\n      swap3\n      pop\n      swap3\n      pop\n        /* \"practice-revision/test.sol\":131:229  function returnMany() public pure returns (uint, bool, uint){\r... */\n      swap1\n      swap2\n      swap3\n      jump\t// out\n        /* \"practice-revision/test.sol\":491:615  function assigned() public pure returns (uint x, bool b, uint y) {\r... */\n    tag_33:\n        /* \"practice-revision/test.sol\":532:538  uint x */\n      0x00\n        /* \"practice-revision/test.sol\":540:546  bool b */\n      dup1\n        /* \"practice-revision/test.sol\":548:554  uint y */\n      0x00\n        /* \"practice-revision/test.sol\":571:572  1 */\n      0x01\n        /* \"practice-revision/test.sol\":567:572  x = 1 */\n      swap3\n      pop\n        /* \"practice-revision/test.sol\":587:591  true */\n      0x01\n        /* \"practice-revision/test.sol\":583:591  b = true */\n      swap2\n      pop\n        /* \"practice-revision/test.sol\":606:607  2 */\n      0x02\n        /* \"practice-revision/test.sol\":602:607  y = 2 */\n      swap1\n      pop\n        /* \"practice-revision/test.sol\":491:615  function assigned() public pure returns (uint x, bool b, uint y) {\r... */\n      swap1\n      swap2\n      swap3\n      jump\t// out\n        /* \"practice-revision/test.sol\":1081:1130  function arrayInput(uint[] memory _arr) public {} */\n    tag_38:\n      pop\n      jump\t// out\n        /* \"#utility.yul\":24:746   */\n    tag_51:\n        /* \"#utility.yul\":120:125   */\n      0x00\n        /* \"#utility.yul\":145:226   */\n      tag_53\n        /* \"#utility.yul\":161:225   */\n      tag_54\n        /* \"#utility.yul\":218:224   */\n      dup5\n        /* \"#utility.yul\":161:225   */\n      tag_55\n      jump\t// in\n    tag_54:\n        /* \"#utility.yul\":145:226   */\n      tag_56\n      jump\t// in\n    tag_53:\n        /* \"#utility.yul\":136:226   */\n      swap1\n      pop\n        /* \"#utility.yul\":246:251   */\n      dup1\n        /* \"#utility.yul\":275:281   */\n      dup4\n        /* \"#utility.yul\":268:273   */\n      dup3\n        /* \"#utility.yul\":261:282   */\n      mstore\n        /* \"#utility.yul\":309:313   */\n      0x20\n        /* \"#utility.yul\":302:307   */\n      dup3\n        /* \"#utility.yul\":298:314   */\n      add\n        /* \"#utility.yul\":291:314   */\n      swap1\n      pop\n        /* \"#utility.yul\":335:341   */\n      dup3\n        /* \"#utility.yul\":385:388   */\n      dup6\n        /* \"#utility.yul\":377:381   */\n      0x20\n        /* \"#utility.yul\":369:375   */\n      dup7\n        /* \"#utility.yul\":365:382   */\n      mul\n        /* \"#utility.yul\":360:363   */\n      dup3\n        /* \"#utility.yul\":356:383   */\n      add\n        /* \"#utility.yul\":353:389   */\n      gt\n        /* \"#utility.yul\":350:493   */\n      iszero\n      tag_57\n      jumpi\n        /* \"#utility.yul\":404:483   */\n      tag_58\n      tag_59\n      jump\t// in\n    tag_58:\n        /* \"#utility.yul\":350:493   */\n    tag_57:\n        /* \"#utility.yul\":517:518   */\n      0x00\n        /* \"#utility.yul\":502:740   */\n    tag_60:\n        /* \"#utility.yul\":527:533   */\n      dup6\n        /* \"#utility.yul\":524:525   */\n      dup2\n        /* \"#utility.yul\":521:534   */\n      lt\n        /* \"#utility.yul\":502:740   */\n      iszero\n      tag_62\n      jumpi\n        /* \"#utility.yul\":595:598   */\n      dup2\n        /* \"#utility.yul\":624:661   */\n      tag_63\n        /* \"#utility.yul\":657:660   */\n      dup9\n        /* \"#utility.yul\":645:655   */\n      dup3\n        /* \"#utility.yul\":624:661   */\n      tag_64\n      jump\t// in\n    tag_63:\n        /* \"#utility.yul\":619:622   */\n      dup5\n        /* \"#utility.yul\":612:662   */\n      mstore\n        /* \"#utility.yul\":691:695   */\n      0x20\n        /* \"#utility.yul\":686:689   */\n      dup5\n        /* \"#utility.yul\":682:696   */\n      add\n        /* \"#utility.yul\":675:696   */\n      swap4\n      pop\n        /* \"#utility.yul\":725:729   */\n      0x20\n        /* \"#utility.yul\":720:723   */\n      dup4\n        /* \"#utility.yul\":716:730   */\n      add\n        /* \"#utility.yul\":709:730   */\n      swap3\n      pop\n        /* \"#utility.yul\":562:740   */\n      pop\n        /* \"#utility.yul\":549:550   */\n      0x01\n        /* \"#utility.yul\":546:547   */\n      dup2\n        /* \"#utility.yul\":542:551   */\n      add\n        /* \"#utility.yul\":537:551   */\n      swap1\n      pop\n        /* \"#utility.yul\":502:740   */\n      jump(tag_60)\n    tag_62:\n        /* \"#utility.yul\":506:520   */\n      pop\n        /* \"#utility.yul\":126:746   */\n      pop\n      pop\n        /* \"#utility.yul\":24:746   */\n      swap4\n      swap3\n      pop\n      pop\n      pop\n      jump\t// out\n        /* \"#utility.yul\":769:1139   */\n    tag_65:\n        /* \"#utility.yul\":840:845   */\n      0x00\n        /* \"#utility.yul\":889:892   */\n      dup3\n        /* \"#utility.yul\":882:886   */\n      0x1f\n        /* \"#utility.yul\":874:880   */\n      dup4\n        /* \"#utility.yul\":870:887   */\n      add\n        /* \"#utility.yul\":866:893   */\n      slt\n        /* \"#utility.yul\":856:978   */\n      tag_67\n      jumpi\n        /* \"#utility.yul\":897:976   */\n      tag_68\n      tag_69\n      jump\t// in\n    tag_68:\n        /* \"#utility.yul\":856:978   */\n    tag_67:\n        /* \"#utility.yul\":1014:1020   */\n      dup2\n        /* \"#utility.yul\":1001:1021   */\n      calldataload\n        /* \"#utility.yul\":1039:1133   */\n      tag_70\n        /* \"#utility.yul\":1129:1132   */\n      dup5\n        /* \"#utility.yul\":1121:1127   */\n      dup3\n        /* \"#utility.yul\":1114:1118   */\n      0x20\n        /* \"#utility.yul\":1106:1112   */\n      dup7\n        /* \"#utility.yul\":1102:1119   */\n      add\n        /* \"#utility.yul\":1039:1133   */\n      tag_51\n      jump\t// in\n    tag_70:\n        /* \"#utility.yul\":1030:1133   */\n      swap2\n      pop\n        /* \"#utility.yul\":846:1139   */\n      pop\n        /* \"#utility.yul\":769:1139   */\n      swap3\n      swap2\n      pop\n      pop\n      jump\t// out\n        /* \"#utility.yul\":1145:1284   */\n    tag_64:\n        /* \"#utility.yul\":1191:1196   */\n      0x00\n        /* \"#utility.yul\":1229:1235   */\n      dup2\n        /* \"#utility.yul\":1216:1236   */\n      calldataload\n        /* \"#utility.yul\":1207:1236   */\n      swap1\n      pop\n        /* \"#utility.yul\":1245:1278   */\n      tag_72\n        /* \"#utility.yul\":1272:1277   */\n      dup2\n        /* \"#utility.yul\":1245:1278   */\n      tag_73\n      jump\t// in\n    tag_72:\n        /* \"#utility.yul\":1145:1284   */\n      swap3\n      swap2\n      pop\n      pop\n      jump\t// out\n        /* \"#utility.yul\":1290:1829   */\n    tag_37:\n        /* \"#utility.yul\":1374:1380   */\n      0x00\n        /* \"#utility.yul\":1423:1425   */\n      0x20\n        /* \"#utility.yul\":1411:1420   */\n      dup3\n        /* \"#utility.yul\":1402:1409   */\n      dup5\n        /* \"#utility.yul\":1398:1421   */\n      sub\n        /* \"#utility.yul\":1394:1426   */\n      slt\n        /* \"#utility.yul\":1391:1510   */\n      iszero\n      tag_75\n      jumpi\n        /* \"#utility.yul\":1429:1508   */\n      tag_76\n      tag_77\n      jump\t// in\n    tag_76:\n        /* \"#utility.yul\":1391:1510   */\n    tag_75:\n        /* \"#utility.yul\":1577:1578   */\n      0x00\n        /* \"#utility.yul\":1566:1575   */\n      dup3\n        /* \"#utility.yul\":1562:1579   */\n      add\n        /* \"#utility.yul\":1549:1580   */\n      calldataload\n        /* \"#utility.yul\":1607:1625   */\n      0xffffffffffffffff\n        /* \"#utility.yul\":1599:1605   */\n      dup2\n        /* \"#utility.yul\":1596:1626   */\n      gt\n        /* \"#utility.yul\":1593:1710   */\n      iszero\n      tag_78\n      jumpi\n        /* \"#utility.yul\":1629:1708   */\n      tag_79\n      tag_80\n      jump\t// in\n    tag_79:\n        /* \"#utility.yul\":1593:1710   */\n    tag_78:\n        /* \"#utility.yul\":1734:1812   */\n      tag_81\n        /* \"#utility.yul\":1804:1811   */\n      dup5\n        /* \"#utility.yul\":1795:1801   */\n      dup3\n        /* \"#utility.yul\":1784:1793   */\n      dup6\n        /* \"#utility.yul\":1780:1802   */\n      add\n        /* \"#utility.yul\":1734:1812   */\n      tag_65\n      jump\t// in\n    tag_81:\n        /* \"#utility.yul\":1724:1812   */\n      swap2\n      pop\n        /* \"#utility.yul\":1520:1822   */\n      pop\n        /* \"#utility.yul\":1290:1829   */\n      swap3\n      swap2\n      pop\n      pop\n      jump\t// out\n        /* \"#utility.yul\":1835:2164   */\n    tag_25:\n        /* \"#utility.yul\":1894:1900   */\n      0x00\n        /* \"#utility.yul\":1943:1945   */\n      0x20\n        /* \"#utility.yul\":1931:1940   */\n      dup3\n        /* \"#utility.yul\":1922:1929   */\n      dup5\n        /* \"#utility.yul\":1918:1941   */\n      sub\n        /* \"#utility.yul\":1914:1946   */\n      slt\n        /* \"#utility.yul\":1911:2030   */\n      iszero\n      tag_83\n      jumpi\n        /* \"#utility.yul\":1949:2028   */\n      tag_84\n      tag_77\n      jump\t// in\n    tag_84:\n        /* \"#utility.yul\":1911:2030   */\n    tag_83:\n        /* \"#utility.yul\":2069:2070   */\n      0x00\n        /* \"#utility.yul\":2094:2147   */\n      tag_85\n        /* \"#utility.yul\":2139:2146   */\n      dup5\n        /* \"#utility.yul\":2130:2136   */\n      dup3\n        /* \"#utility.yul\":2119:2128   */\n      dup6\n        /* \"#utility.yul\":2115:2137   */\n      add\n        /* \"#utility.yul\":2094:2147   */\n      tag_64\n      jump\t// in\n    tag_85:\n        /* \"#utility.yul\":2084:2147   */\n      swap2\n      pop\n        /* \"#utility.yul\":2040:2157   */\n      pop\n        /* \"#utility.yul\":1835:2164   */\n      swap3\n      swap2\n      pop\n      pop\n      jump\t// out\n        /* \"#utility.yul\":2170:2349   */\n    tag_86:\n        /* \"#utility.yul\":2239:2249   */\n      0x00\n        /* \"#utility.yul\":2260:2306   */\n      tag_88\n        /* \"#utility.yul\":2302:2305   */\n      dup4\n        /* \"#utility.yul\":2294:2300   */\n      dup4\n        /* \"#utility.yul\":2260:2306   */\n      tag_89\n      jump\t// in\n    tag_88:\n        /* \"#utility.yul\":2338:2342   */\n      0x20\n        /* \"#utility.yul\":2333:2336   */\n      dup4\n        /* \"#utility.yul\":2329:2343   */\n      add\n        /* \"#utility.yul\":2315:2343   */\n      swap1\n      pop\n        /* \"#utility.yul\":2170:2349   */\n      swap3\n      swap2\n      pop\n      pop\n      jump\t// out\n        /* \"#utility.yul\":2385:3117   */\n    tag_90:\n        /* \"#utility.yul\":2504:2507   */\n      0x00\n        /* \"#utility.yul\":2533:2587   */\n      tag_92\n        /* \"#utility.yul\":2581:2586   */\n      dup3\n        /* \"#utility.yul\":2533:2587   */\n      tag_93\n      jump\t// in\n    tag_92:\n        /* \"#utility.yul\":2603:2689   */\n      tag_94\n        /* \"#utility.yul\":2682:2688   */\n      dup2\n        /* \"#utility.yul\":2677:2680   */\n      dup6\n        /* \"#utility.yul\":2603:2689   */\n      tag_95\n      jump\t// in\n    tag_94:\n        /* \"#utility.yul\":2596:2689   */\n      swap4\n      pop\n        /* \"#utility.yul\":2713:2769   */\n      tag_96\n        /* \"#utility.yul\":2763:2768   */\n      dup4\n        /* \"#utility.yul\":2713:2769   */\n      tag_97\n      jump\t// in\n    tag_96:\n        /* \"#utility.yul\":2792:2799   */\n      dup1\n        /* \"#utility.yul\":2823:2824   */\n      0x00\n        /* \"#utility.yul\":2808:3092   */\n    tag_98:\n        /* \"#utility.yul\":2833:2839   */\n      dup4\n        /* \"#utility.yul\":2830:2831   */\n      dup2\n        /* \"#utility.yul\":2827:2840   */\n      lt\n        /* \"#utility.yul\":2808:3092   */\n      iszero\n      tag_100\n      jumpi\n        /* \"#utility.yul\":2909:2915   */\n      dup2\n        /* \"#utility.yul\":2903:2916   */\n      mload\n        /* \"#utility.yul\":2936:2999   */\n      tag_101\n        /* \"#utility.yul\":2995:2998   */\n      dup9\n        /* \"#utility.yul\":2980:2993   */\n      dup3\n        /* \"#utility.yul\":2936:2999   */\n      tag_86\n      jump\t// in\n    tag_101:\n        /* \"#utility.yul\":2929:2999   */\n      swap8\n      pop\n        /* \"#utility.yul\":3022:3082   */\n      tag_102\n        /* \"#utility.yul\":3075:3081   */\n      dup4\n        /* \"#utility.yul\":3022:3082   */\n      tag_103\n      jump\t// in\n    tag_102:\n        /* \"#utility.yul\":3012:3082   */\n      swap3\n      pop\n        /* \"#utility.yul\":2868:3092   */\n      pop\n        /* \"#utility.yul\":2855:2856   */\n      0x01\n        /* \"#utility.yul\":2852:2853   */\n      dup2\n        /* \"#utility.yul\":2848:2857   */\n      add\n        /* \"#utility.yul\":2843:2857   */\n      swap1\n      pop\n        /* \"#utility.yul\":2808:3092   */\n      jump(tag_98)\n    tag_100:\n        /* \"#utility.yul\":2812:2826   */\n      pop\n        /* \"#utility.yul\":3108:3111   */\n      dup6\n        /* \"#utility.yul\":3101:3111   */\n      swap4\n      pop\n        /* \"#utility.yul\":2509:3117   */\n      pop\n      pop\n      pop\n        /* \"#utility.yul\":2385:3117   */\n      swap3\n      swap2\n      pop\n      pop\n      jump\t// out\n        /* \"#utility.yul\":3123:3232   */\n    tag_104:\n        /* \"#utility.yul\":3204:3225   */\n      tag_106\n        /* \"#utility.yul\":3219:3224   */\n      dup2\n        /* \"#utility.yul\":3204:3225   */\n      tag_107\n      jump\t// in\n    tag_106:\n        /* \"#utility.yul\":3199:3202   */\n      dup3\n        /* \"#utility.yul\":3192:3226   */\n      mstore\n        /* \"#utility.yul\":3123:3232   */\n      pop\n      pop\n      jump\t// out\n        /* \"#utility.yul\":3238:3346   */\n    tag_89:\n        /* \"#utility.yul\":3315:3339   */\n      tag_109\n        /* \"#utility.yul\":3333:3338   */\n      dup2\n        /* \"#utility.yul\":3315:3339   */\n      tag_110\n      jump\t// in\n    tag_109:\n        /* \"#utility.yul\":3310:3313   */\n      dup3\n        /* \"#utility.yul\":3303:3340   */\n      mstore\n        /* \"#utility.yul\":3238:3346   */\n      pop\n      pop\n      jump\t// out\n        /* \"#utility.yul\":3352:3470   */\n    tag_111:\n        /* \"#utility.yul\":3439:3463   */\n      tag_113\n        /* \"#utility.yul\":3457:3462   */\n      dup2\n        /* \"#utility.yul\":3439:3463   */\n      tag_110\n      jump\t// in\n    tag_113:\n        /* \"#utility.yul\":3434:3437   */\n      dup3\n        /* \"#utility.yul\":3427:3464   */\n      mstore\n        /* \"#utility.yul\":3352:3470   */\n      pop\n      pop\n      jump\t// out\n        /* \"#utility.yul\":3476:3849   */\n    tag_14:\n        /* \"#utility.yul\":3619:3623   */\n      0x00\n        /* \"#utility.yul\":3657:3659   */\n      0x20\n        /* \"#utility.yul\":3646:3655   */\n      dup3\n        /* \"#utility.yul\":3642:3660   */\n      add\n        /* \"#utility.yul\":3634:3660   */\n      swap1\n      pop\n        /* \"#utility.yul\":3706:3715   */\n      dup2\n        /* \"#utility.yul\":3700:3704   */\n      dup2\n        /* \"#utility.yul\":3696:3716   */\n      sub\n        /* \"#utility.yul\":3692:3693   */\n      0x00\n        /* \"#utility.yul\":3681:3690   */\n      dup4\n        /* \"#utility.yul\":3677:3694   */\n      add\n        /* \"#utility.yul\":3670:3717   */\n      mstore\n        /* \"#utility.yul\":3734:3842   */\n      tag_115\n        /* \"#utility.yul\":3837:3841   */\n      dup2\n        /* \"#utility.yul\":3828:3834   */\n      dup5\n        /* \"#utility.yul\":3734:3842   */\n      tag_90\n      jump\t// in\n    tag_115:\n        /* \"#utility.yul\":3726:3842   */\n      swap1\n      pop\n        /* \"#utility.yul\":3476:3849   */\n      swap3\n      swap2\n      pop\n      pop\n      jump\t// out\n        /* \"#utility.yul\":3855:4077   */\n    tag_28:\n        /* \"#utility.yul\":3948:3952   */\n      0x00\n        /* \"#utility.yul\":3986:3988   */\n      0x20\n        /* \"#utility.yul\":3975:3984   */\n      dup3\n        /* \"#utility.yul\":3971:3989   */\n      add\n        /* \"#utility.yul\":3963:3989   */\n      swap1\n      pop\n        /* \"#utility.yul\":3999:4070   */\n      tag_117\n        /* \"#utility.yul\":4067:4068   */\n      0x00\n        /* \"#utility.yul\":4056:4065   */\n      dup4\n        /* \"#utility.yul\":4052:4069   */\n      add\n        /* \"#utility.yul\":4043:4049   */\n      dup5\n        /* \"#utility.yul\":3999:4070   */\n      tag_111\n      jump\t// in\n    tag_117:\n        /* \"#utility.yul\":3855:4077   */\n      swap3\n      swap2\n      pop\n      pop\n      jump\t// out\n        /* \"#utility.yul\":4083:4513   */\n    tag_18:\n        /* \"#utility.yul\":4226:4230   */\n      0x00\n        /* \"#utility.yul\":4264:4266   */\n      0x60\n        /* \"#utility.yul\":4253:4262   */\n      dup3\n        /* \"#utility.yul\":4249:4267   */\n      add\n        /* \"#utility.yul\":4241:4267   */\n      swap1\n      pop\n        /* \"#utility.yul\":4277:4348   */\n      tag_119\n        /* \"#utility.yul\":4345:4346   */\n      0x00\n        /* \"#utility.yul\":4334:4343   */\n      dup4\n        /* \"#utility.yul\":4330:4347   */\n      add\n        /* \"#utility.yul\":4321:4327   */\n      dup7\n        /* \"#utility.yul\":4277:4348   */\n      tag_111\n      jump\t// in\n    tag_119:\n        /* \"#utility.yul\":4358:4424   */\n      tag_120\n        /* \"#utility.yul\":4420:4422   */\n      0x20\n        /* \"#utility.yul\":4409:4418   */\n      dup4\n        /* \"#utility.yul\":4405:4423   */\n      add\n        /* \"#utility.yul\":4396:4402   */\n      dup6\n        /* \"#utility.yul\":4358:4424   */\n      tag_104\n      jump\t// in\n    tag_120:\n        /* \"#utility.yul\":4434:4506   */\n      tag_121\n        /* \"#utility.yul\":4502:4504   */\n      0x40\n        /* \"#utility.yul\":4491:4500   */\n      dup4\n        /* \"#utility.yul\":4487:4505   */\n      add\n        /* \"#utility.yul\":4478:4484   */\n      dup5\n        /* \"#utility.yul\":4434:4506   */\n      tag_111\n      jump\t// in\n    tag_121:\n        /* \"#utility.yul\":4083:4513   */\n      swap5\n      swap4\n      pop\n      pop\n      pop\n      pop\n      jump\t// out\n        /* \"#utility.yul\":4519:5171   */\n    tag_22:\n        /* \"#utility.yul\":4718:4722   */\n      0x00\n        /* \"#utility.yul\":4756:4759   */\n      0xa0\n        /* \"#utility.yul\":4745:4754   */\n      dup3\n        /* \"#utility.yul\":4741:4760   */\n      add\n        /* \"#utility.yul\":4733:4760   */\n      swap1\n      pop\n        /* \"#utility.yul\":4770:4841   */\n      tag_123\n        /* \"#utility.yul\":4838:4839   */\n      0x00\n        /* \"#utility.yul\":4827:4836   */\n      dup4\n        /* \"#utility.yul\":4823:4840   */\n      add\n        /* \"#utility.yul\":4814:4820   */\n      dup9\n        /* \"#utility.yul\":4770:4841   */\n      tag_111\n      jump\t// in\n    tag_123:\n        /* \"#utility.yul\":4851:4917   */\n      tag_124\n        /* \"#utility.yul\":4913:4915   */\n      0x20\n        /* \"#utility.yul\":4902:4911   */\n      dup4\n        /* \"#utility.yul\":4898:4916   */\n      add\n        /* \"#utility.yul\":4889:4895   */\n      dup8\n        /* \"#utility.yul\":4851:4917   */\n      tag_104\n      jump\t// in\n    tag_124:\n        /* \"#utility.yul\":4927:4999   */\n      tag_125\n        /* \"#utility.yul\":4995:4997   */\n      0x40\n        /* \"#utility.yul\":4984:4993   */\n      dup4\n        /* \"#utility.yul\":4980:4998   */\n      add\n        /* \"#utility.yul\":4971:4977   */\n      dup7\n        /* \"#utility.yul\":4927:4999   */\n      tag_111\n      jump\t// in\n    tag_125:\n        /* \"#utility.yul\":5009:5081   */\n      tag_126\n        /* \"#utility.yul\":5077:5079   */\n      0x60\n        /* \"#utility.yul\":5066:5075   */\n      dup4\n        /* \"#utility.yul\":5062:5080   */\n      add\n        /* \"#utility.yul\":5053:5059   */\n      dup6\n        /* \"#utility.yul\":5009:5081   */\n      tag_111\n      jump\t// in\n    tag_126:\n        /* \"#utility.yul\":5091:5164   */\n      tag_127\n        /* \"#utility.yul\":5159:5162   */\n      0x80\n        /* \"#utility.yul\":5148:5157   */\n      dup4\n        /* \"#utility.yul\":5144:5163   */\n      add\n        /* \"#utility.yul\":5135:5141   */\n      dup5\n        /* \"#utility.yul\":5091:5164   */\n      tag_111\n      jump\t// in\n    tag_127:\n        /* \"#utility.yul\":4519:5171   */\n      swap7\n      swap6\n      pop\n      pop\n      pop\n      pop\n      pop\n      pop\n      jump\t// out\n        /* \"#utility.yul\":5177:5306   */\n    tag_56:\n        /* \"#utility.yul\":5211:5217   */\n      0x00\n        /* \"#utility.yul\":5238:5258   */\n      tag_129\n      tag_130\n      jump\t// in\n    tag_129:\n        /* \"#utility.yul\":5228:5258   */\n      swap1\n      pop\n        /* \"#utility.yul\":5267:5300   */\n      tag_131\n        /* \"#utility.yul\":5295:5299   */\n      dup3\n        /* \"#utility.yul\":5287:5293   */\n      dup3\n        /* \"#utility.yul\":5267:5300   */\n      tag_132\n      jump\t// in\n    tag_131:\n        /* \"#utility.yul\":5177:5306   */\n      swap2\n      swap1\n      pop\n      jump\t// out\n        /* \"#utility.yul\":5312:5387   */\n    tag_130:\n        /* \"#utility.yul\":5345:5351   */\n      0x00\n        /* \"#utility.yul\":5378:5380   */\n      0x40\n        /* \"#utility.yul\":5372:5381   */\n      mload\n        /* \"#utility.yul\":5362:5381   */\n      swap1\n      pop\n        /* \"#utility.yul\":5312:5387   */\n      swap1\n      jump\t// out\n        /* \"#utility.yul\":5393:5704   */\n    tag_55:\n        /* \"#utility.yul\":5470:5474   */\n      0x00\n        /* \"#utility.yul\":5560:5578   */\n      0xffffffffffffffff\n        /* \"#utility.yul\":5552:5558   */\n      dup3\n        /* \"#utility.yul\":5549:5579   */\n      gt\n        /* \"#utility.yul\":5546:5602   */\n      iszero\n      tag_135\n      jumpi\n        /* \"#utility.yul\":5582:5600   */\n      tag_136\n      tag_137\n      jump\t// in\n    tag_136:\n        /* \"#utility.yul\":5546:5602   */\n    tag_135:\n        /* \"#utility.yul\":5632:5636   */\n      0x20\n        /* \"#utility.yul\":5624:5630   */\n      dup3\n        /* \"#utility.yul\":5620:5637   */\n      mul\n        /* \"#utility.yul\":5612:5637   */\n      swap1\n      pop\n        /* \"#utility.yul\":5692:5696   */\n      0x20\n        /* \"#utility.yul\":5686:5690   */\n      dup2\n        /* \"#utility.yul\":5682:5697   */\n      add\n        /* \"#utility.yul\":5674:5697   */\n      swap1\n      pop\n        /* \"#utility.yul\":5393:5704   */\n      swap2\n      swap1\n      pop\n      jump\t// out\n        /* \"#utility.yul\":5710:5842   */\n    tag_97:\n        /* \"#utility.yul\":5777:5781   */\n      0x00\n        /* \"#utility.yul\":5800:5803   */\n      dup2\n        /* \"#utility.yul\":5792:5803   */\n      swap1\n      pop\n        /* \"#utility.yul\":5830:5834   */\n      0x20\n        /* \"#utility.yul\":5825:5828   */\n      dup3\n        /* \"#utility.yul\":5821:5835   */\n      add\n        /* \"#utility.yul\":5813:5835   */\n      swap1\n      pop\n        /* \"#utility.yul\":5710:5842   */\n      swap2\n      swap1\n      pop\n      jump\t// out\n        /* \"#utility.yul\":5848:5962   */\n    tag_93:\n        /* \"#utility.yul\":5915:5921   */\n      0x00\n        /* \"#utility.yul\":5949:5954   */\n      dup2\n        /* \"#utility.yul\":5943:5955   */\n      mload\n        /* \"#utility.yul\":5933:5955   */\n      swap1\n      pop\n        /* \"#utility.yul\":5848:5962   */\n      swap2\n      swap1\n      pop\n      jump\t// out\n        /* \"#utility.yul\":5968:6081   */\n    tag_103:\n        /* \"#utility.yul\":6038:6042   */\n      0x00\n        /* \"#utility.yul\":6070:6074   */\n      0x20\n        /* \"#utility.yul\":6065:6068   */\n      dup3\n        /* \"#utility.yul\":6061:6075   */\n      add\n        /* \"#utility.yul\":6053:6075   */\n      swap1\n      pop\n        /* \"#utility.yul\":5968:6081   */\n      swap2\n      swap1\n      pop\n      jump\t// out\n        /* \"#utility.yul\":6087:6271   */\n    tag_95:\n        /* \"#utility.yul\":6186:6197   */\n      0x00\n        /* \"#utility.yul\":6220:6226   */\n      dup3\n        /* \"#utility.yul\":6215:6218   */\n      dup3\n        /* \"#utility.yul\":6208:6227   */\n      mstore\n        /* \"#utility.yul\":6260:6264   */\n      0x20\n        /* \"#utility.yul\":6255:6258   */\n      dup3\n        /* \"#utility.yul\":6251:6265   */\n      add\n        /* \"#utility.yul\":6236:6265   */\n      swap1\n      pop\n        /* \"#utility.yul\":6087:6271   */\n      swap3\n      swap2\n      pop\n      pop\n      jump\t// out\n        /* \"#utility.yul\":6277:6367   */\n    tag_107:\n        /* \"#utility.yul\":6311:6318   */\n      0x00\n        /* \"#utility.yul\":6354:6359   */\n      dup2\n        /* \"#utility.yul\":6347:6360   */\n      iszero\n        /* \"#utility.yul\":6340:6361   */\n      iszero\n        /* \"#utility.yul\":6329:6361   */\n      swap1\n      pop\n        /* \"#utility.yul\":6277:6367   */\n      swap2\n      swap1\n      pop\n      jump\t// out\n        /* \"#utility.yul\":6373:6450   */\n    tag_110:\n        /* \"#utility.yul\":6410:6417   */\n      0x00\n        /* \"#utility.yul\":6439:6444   */\n      dup2\n        /* \"#utility.yul\":6428:6444   */\n      swap1\n      pop\n        /* \"#utility.yul\":6373:6450   */\n      swap2\n      swap1\n      pop\n      jump\t// out\n        /* \"#utility.yul\":6456:6737   */\n    tag_132:\n        /* \"#utility.yul\":6539:6566   */\n      tag_145\n        /* \"#utility.yul\":6561:6565   */\n      dup3\n        /* \"#utility.yul\":6539:6566   */\n      tag_146\n      jump\t// in\n    tag_145:\n        /* \"#utility.yul\":6531:6537   */\n      dup2\n        /* \"#utility.yul\":6527:6567   */\n      add\n        /* \"#utility.yul\":6669:6675   */\n      dup2\n        /* \"#utility.yul\":6657:6667   */\n      dup2\n        /* \"#utility.yul\":6654:6676   */\n      lt\n        /* \"#utility.yul\":6633:6651   */\n      0xffffffffffffffff\n        /* \"#utility.yul\":6621:6631   */\n      dup3\n        /* \"#utility.yul\":6618:6652   */\n      gt\n        /* \"#utility.yul\":6615:6677   */\n      or\n        /* \"#utility.yul\":6612:6700   */\n      iszero\n      tag_147\n      jumpi\n        /* \"#utility.yul\":6680:6698   */\n      tag_148\n      tag_137\n      jump\t// in\n    tag_148:\n        /* \"#utility.yul\":6612:6700   */\n    tag_147:\n        /* \"#utility.yul\":6720:6730   */\n      dup1\n        /* \"#utility.yul\":6716:6718   */\n      0x40\n        /* \"#utility.yul\":6709:6731   */\n      mstore\n        /* \"#utility.yul\":6499:6737   */\n      pop\n        /* \"#utility.yul\":6456:6737   */\n      pop\n      pop\n      jump\t// out\n        /* \"#utility.yul\":6743:6923   */\n    tag_137:\n        /* \"#utility.yul\":6791:6868   */\n      0x4e487b7100000000000000000000000000000000000000000000000000000000\n        /* \"#utility.yul\":6788:6789   */\n      0x00\n        /* \"#utility.yul\":6781:6869   */\n      mstore\n        /* \"#utility.yul\":6888:6892   */\n      0x41\n        /* \"#utility.yul\":6885:6886   */\n      0x04\n        /* \"#utility.yul\":6878:6893   */\n      mstore\n        /* \"#utility.yul\":6912:6916   */\n      0x24\n        /* \"#utility.yul\":6909:6910   */\n      0x00\n        /* \"#utility.yul\":6902:6917   */\n      revert\n        /* \"#utility.yul\":6929:7046   */\n    tag_69:\n        /* \"#utility.yul\":7038:7039   */\n      0x00\n        /* \"#utility.yul\":7035:7036   */\n      dup1\n        /* \"#utility.yul\":7028:7040   */\n      revert\n        /* \"#utility.yul\":7052:7169   */\n    tag_59:\n        /* \"#utility.yul\":7161:7162   */\n      0x00\n        /* \"#utility.yul\":7158:7159   */\n      dup1\n        /* \"#utility.yul\":7151:7163   */\n      revert\n        /* \"#utility.yul\":7175:7292   */\n    tag_80:\n        /* \"#utility.yul\":7284:7285   */\n      0x00\n        /* \"#utility.yul\":7281:7282   */\n      dup1\n        /* \"#utility.yul\":7274:7286   */\n      revert\n        /* \"#utility.yul\":7298:7415   */\n    tag_77:\n        /* \"#utility.yul\":7407:7408   */\n      0x00\n        /* \"#utility.yul\":7404:7405   */\n      dup1\n        /* \"#utility.yul\":7397:7409   */\n      revert\n        /* \"#utility.yul\":7421:7523   */\n    tag_146:\n        /* \"#utility.yul\":7462:7468   */\n      0x00\n        /* \"#utility.yul\":7513:7515   */\n      0x1f\n        /* \"#utility.yul\":7509:7516   */\n      not\n        /* \"#utility.yul\":7504:7506   */\n      0x1f\n        /* \"#utility.yul\":7497:7502   */\n      dup4\n        /* \"#utility.yul\":7493:7507   */\n      add\n        /* \"#utility.yul\":7489:7517   */\n      and\n        /* \"#utility.yul\":7479:7517   */\n      swap1\n      pop\n        /* \"#utility.yul\":7421:7523   */\n      swap2\n      swap1\n      pop\n      jump\t// out\n        /* \"#utility.yul\":7529:7651   */\n    tag_73:\n        /* \"#utility.yul\":7602:7626   */\n      tag_156\n        /* \"#utility.yul\":7620:7625   */\n      dup2\n        /* \"#utility.yul\":7602:7626   */\n      tag_110\n      jump\t// in\n    tag_156:\n        /* \"#utility.yul\":7595:7600   */\n      dup2\n        /* \"#utility.yul\":7592:7627   */\n      eq\n        /* \"#utility.yul\":7582:7645   */\n      tag_157\n      jumpi\n        /* \"#utility.yul\":7641:7642   */\n      0x00\n        /* \"#utility.yul\":7638:7639   */\n      dup1\n        /* \"#utility.yul\":7631:7643   */\n      revert\n        /* \"#utility.yul\":7582:7645   */\n    tag_157:\n        /* \"#utility.yul\":7529:7651   */\n      pop\n      jump\t// out\n\n    auxdata: 0xa2646970667358221220f53ee05e62cdfd9da0d952cb9f60800af576f3cdf5741494548f4000cc9f37ed64736f6c63430008070033\n}\n",
				"bytecode": {
					"linkReferences": {},
					"object": "608060405234801561001057600080fd5b50610675806100206000396000f3fe608060405234801561001057600080fd5b506004361061007d5760003560e01c806371e5ee5f1161005b57806371e5ee5f146100e25780638688754414610112578063adb4d99014610132578063f4bb6e6b146101525761007d565b80631990532b1461008257806345f907a8146100a057806368873440146100c0575b600080fd5b61008a61016e565b604051610097919061043c565b60405180910390f35b6100a86101c6565b6040516100b793929190610479565b60405180910390f35b6100c86101db565b6040516100d99594939291906104b0565b60405180910390f35b6100fc60048036038101906100f7919061036c565b61021e565b604051610109919061045e565b60405180910390f35b61011a610242565b60405161012993929190610479565b60405180910390f35b61013a610257565b60405161014993929190610479565b60405180910390f35b61016c60048036038101906101679190610323565b61026d565b005b606060008054806020026020016040519081016040528092919081815260200182805480156101bc57602002820191906000526020600020905b8154815260200190600101908083116101a8575b5050505050905090565b60008060006001806002925092509250909192565b6000806000806000806000806101ef610242565b925092509250600080600460056006925050915084848484849950995099509950995050505050509091929394565b6000818154811061022e57600080fd5b906000526020600020016000915090505481565b60008060006001806002925092509250909192565b6000806000600192506001915060029050909192565b50565b600061028361027e84610528565b610503565b905080838252602082019050828560208602820111156102a6576102a5610608565b5b60005b858110156102d657816102bc888261030e565b8452602084019350602083019250506001810190506102a9565b5050509392505050565b600082601f8301126102f5576102f4610603565b5b8135610305848260208601610270565b91505092915050565b60008135905061031d81610628565b92915050565b60006020828403121561033957610338610612565b5b600082013567ffffffffffffffff8111156103575761035661060d565b5b610363848285016102e0565b91505092915050565b60006020828403121561038257610381610612565b5b60006103908482850161030e565b91505092915050565b60006103a5838361041e565b60208301905092915050565b60006103bc82610564565b6103c6818561057c565b93506103d183610554565b8060005b838110156104025781516103e98882610399565b97506103f48361056f565b9250506001810190506103d5565b5085935050505092915050565b6104188161058d565b82525050565b61042781610599565b82525050565b61043681610599565b82525050565b6000602082019050818103600083015261045681846103b1565b905092915050565b6000602082019050610473600083018461042d565b92915050565b600060608201905061048e600083018661042d565b61049b602083018561040f565b6104a8604083018461042d565b949350505050565b600060a0820190506104c5600083018861042d565b6104d2602083018761040f565b6104df604083018661042d565b6104ec606083018561042d565b6104f9608083018461042d565b9695505050505050565b600061050d61051e565b905061051982826105a3565b919050565b6000604051905090565b600067ffffffffffffffff821115610543576105426105d4565b5b602082029050602081019050919050565b6000819050602082019050919050565b600081519050919050565b6000602082019050919050565b600082825260208201905092915050565b60008115159050919050565b6000819050919050565b6105ac82610617565b810181811067ffffffffffffffff821117156105cb576105ca6105d4565b5b80604052505050565b7f4e487b7100000000000000000000000000000000000000000000000000000000600052604160045260246000fd5b600080fd5b600080fd5b600080fd5b600080fd5b6000601f19601f8301169050919050565b61063181610599565b811461063c57600080fd5b5056fea2646970667358221220f53ee05e62cdfd9da0d952cb9f60800af576f3cdf5741494548f4000cc9f37ed64736f6c63430008070033",
					"opcodes": "PUSH1 0x80 PUSH1 0x40 MSTORE CALLVALUE DUP1 ISZERO PUSH2 0x10 JUMPI PUSH1 0x0 DUP1 REVERT JUMPDEST POP PUSH2 0x675 DUP1 PUSH2 0x20 PUSH1 0x0 CODECOPY PUSH1 0x0 RETURN INVALID PUSH1 0x80 PUSH1 0x40 MSTORE CALLVALUE DUP1 ISZERO PUSH2 0x10 JUMPI PUSH1 0x0 DUP1 REVERT JUMPDEST POP PUSH1 0x4 CALLDATASIZE LT PUSH2 0x7D JUMPI PUSH1 0x0 CALLDATALOAD PUSH1 0xE0 SHR DUP1 PUSH4 0x71E5EE5F GT PUSH2 0x5B JUMPI DUP1 PUSH4 0x71E5EE5F EQ PUSH2 0xE2 JUMPI DUP1 PUSH4 0x86887544 EQ PUSH2 0x112 JUMPI DUP1 PUSH4 0xADB4D990 EQ PUSH2 0x132 JUMPI DUP1 PUSH4 0xF4BB6E6B EQ PUSH2 0x152 JUMPI PUSH2 0x7D JUMP JUMPDEST DUP1 PUSH4 0x1990532B EQ PUSH2 0x82 JUMPI DUP1 PUSH4 0x45F907A8 EQ PUSH2 0xA0 JUMPI DUP1 PUSH4 0x68873440 EQ PUSH2 0xC0 JUMPI JUMPDEST PUSH1 0x0 DUP1 REVERT JUMPDEST PUSH2 0x8A PUSH2 0x16E JUMP JUMPDEST PUSH1 0x40 MLOAD PUSH2 0x97 SWAP2 SWAP1 PUSH2 0x43C JUMP JUMPDEST PUSH1 0x40 MLOAD DUP1 SWAP2 SUB SWAP1 RETURN JUMPDEST PUSH2 0xA8 PUSH2 0x1C6 JUMP JUMPDEST PUSH1 0x40 MLOAD PUSH2 0xB7 SWAP4 SWAP3 SWAP2 SWAP1 PUSH2 0x479 JUMP JUMPDEST PUSH1 0x40 MLOAD DUP1 SWAP2 SUB SWAP1 RETURN JUMPDEST PUSH2 0xC8 PUSH2 0x1DB JUMP JUMPDEST PUSH1 0x40 MLOAD PUSH2 0xD9 SWAP6 SWAP5 SWAP4 SWAP3 SWAP2 SWAP1 PUSH2 0x4B0 JUMP JUMPDEST PUSH1 0x40 MLOAD DUP1 SWAP2 SUB SWAP1 RETURN JUMPDEST PUSH2 0xFC PUSH1 0x4 DUP1 CALLDATASIZE SUB DUP2 ADD SWAP1 PUSH2 0xF7 SWAP2 SWAP1 PUSH2 0x36C JUMP JUMPDEST PUSH2 0x21E JUMP JUMPDEST PUSH1 0x40 MLOAD PUSH2 0x109 SWAP2 SWAP1 PUSH2 0x45E JUMP JUMPDEST PUSH1 0x40 MLOAD DUP1 SWAP2 SUB SWAP1 RETURN JUMPDEST PUSH2 0x11A PUSH2 0x242 JUMP JUMPDEST PUSH1 0x40 MLOAD PUSH2 0x129 SWAP4 SWAP3 SWAP2 SWAP1 PUSH2 0x479 JUMP JUMPDEST PUSH1 0x40 MLOAD DUP1 SWAP2 SUB SWAP1 RETURN JUMPDEST PUSH2 0x13A PUSH2 0x257 JUMP JUMPDEST PUSH1 0x40 MLOAD PUSH2 0x149 SWAP4 SWAP3 SWAP2 SWAP1 PUSH2 0x479 JUMP JUMPDEST PUSH1 0x40 MLOAD DUP1 SWAP2 SUB SWAP1 RETURN JUMPDEST PUSH2 0x16C PUSH1 0x4 DUP1 CALLDATASIZE SUB DUP2 ADD SWAP1 PUSH2 0x167 SWAP2 SWAP1 PUSH2 0x323 JUMP JUMPDEST PUSH2 0x26D JUMP JUMPDEST STOP JUMPDEST PUSH1 0x60 PUSH1 0x0 DUP1 SLOAD DUP1 PUSH1 0x20 MUL PUSH1 0x20 ADD PUSH1 0x40 MLOAD SWAP1 DUP2 ADD PUSH1 0x40 MSTORE DUP1 SWAP3 SWAP2 SWAP1 DUP2 DUP2 MSTORE PUSH1 0x20 ADD DUP3 DUP1 SLOAD DUP1 ISZERO PUSH2 0x1BC JUMPI PUSH1 0x20 MUL DUP3 ADD SWAP2 SWAP1 PUSH1 0x0 MSTORE PUSH1 0x20 PUSH1 0x0 KECCAK256 SWAP1 JUMPDEST DUP2 SLOAD DUP2 MSTORE PUSH1 0x20 ADD SWAP1 PUSH1 0x1 ADD SWAP1 DUP1 DUP4 GT PUSH2 0x1A8 JUMPI JUMPDEST POP POP POP POP POP SWAP1 POP SWAP1 JUMP JUMPDEST PUSH1 0x0 DUP1 PUSH1 0x0 PUSH1 0x1 DUP1 PUSH1 0x2 SWAP3 POP SWAP3 POP SWAP3 POP SWAP1 SWAP2 SWAP3 JUMP JUMPDEST PUSH1 0x0 DUP1 PUSH1 0x0 DUP1 PUSH1 0x0 DUP1 PUSH1 0x0 DUP1 PUSH2 0x1EF PUSH2 0x242 JUMP JUMPDEST SWAP3 POP SWAP3 POP SWAP3 POP PUSH1 0x0 DUP1 PUSH1 0x4 PUSH1 0x5 PUSH1 0x6 SWAP3 POP POP SWAP2 POP DUP5 DUP5 DUP5 DUP5 DUP5 SWAP10 POP SWAP10 POP SWAP10 POP SWAP10 POP SWAP10 POP POP POP POP POP POP SWAP1 SWAP2 SWAP3 SWAP4 SWAP5 JUMP JUMPDEST PUSH1 0x0 DUP2 DUP2 SLOAD DUP2 LT PUSH2 0x22E JUMPI PUSH1 0x0 DUP1 REVERT JUMPDEST SWAP1 PUSH1 0x0 MSTORE PUSH1 0x20 PUSH1 0x0 KECCAK256 ADD PUSH1 0x0 SWAP2 POP SWAP1 POP SLOAD DUP2 JUMP JUMPDEST PUSH1 0x0 DUP1 PUSH1 0x0 PUSH1 0x1 DUP1 PUSH1 0x2 SWAP3 POP SWAP3 POP SWAP3 POP SWAP1 SWAP2 SWAP3 JUMP JUMPDEST PUSH1 0x0 DUP1 PUSH1 0x0 PUSH1 0x1 SWAP3 POP PUSH1 0x1 SWAP2 POP PUSH1 0x2 SWAP1 POP SWAP1 SWAP2 SWAP3 JUMP JUMPDEST POP JUMP JUMPDEST PUSH1 0x0 PUSH2 0x283 PUSH2 0x27E DUP5 PUSH2 0x528 JUMP JUMPDEST PUSH2 0x503 JUMP JUMPDEST SWAP1 POP DUP1 DUP4 DUP3 MSTORE PUSH1 0x20 DUP3 ADD SWAP1 POP DUP3 DUP6 PUSH1 0x20 DUP7 MUL DUP3 ADD GT ISZERO PUSH2 0x2A6 JUMPI PUSH2 0x2A5 PUSH2 0x608 JUMP JUMPDEST JUMPDEST PUSH1 0x0 JUMPDEST DUP6 DUP2 LT ISZERO PUSH2 0x2D6 JUMPI DUP2 PUSH2 0x2BC DUP9 DUP3 PUSH2 0x30E JUMP JUMPDEST DUP5 MSTORE PUSH1 0x20 DUP5 ADD SWAP4 POP PUSH1 0x20 DUP4 ADD SWAP3 POP POP PUSH1 0x1 DUP2 ADD SWAP1 POP PUSH2 0x2A9 JUMP JUMPDEST POP POP POP SWAP4 SWAP3 POP POP POP JUMP JUMPDEST PUSH1 0x0 DUP3 PUSH1 0x1F DUP4 ADD SLT PUSH2 0x2F5 JUMPI PUSH2 0x2F4 PUSH2 0x603 JUMP JUMPDEST JUMPDEST DUP2 CALLDATALOAD PUSH2 0x305 DUP5 DUP3 PUSH1 0x20 DUP7 ADD PUSH2 0x270 JUMP JUMPDEST SWAP2 POP POP SWAP3 SWAP2 POP POP JUMP JUMPDEST PUSH1 0x0 DUP2 CALLDATALOAD SWAP1 POP PUSH2 0x31D DUP2 PUSH2 0x628 JUMP JUMPDEST SWAP3 SWAP2 POP POP JUMP JUMPDEST PUSH1 0x0 PUSH1 0x20 DUP3 DUP5 SUB SLT ISZERO PUSH2 0x339 JUMPI PUSH2 0x338 PUSH2 0x612 JUMP JUMPDEST JUMPDEST PUSH1 0x0 DUP3 ADD CALLDATALOAD PUSH8 0xFFFFFFFFFFFFFFFF DUP2 GT ISZERO PUSH2 0x357 JUMPI PUSH2 0x356 PUSH2 0x60D JUMP JUMPDEST JUMPDEST PUSH2 0x363 DUP5 DUP3 DUP6 ADD PUSH2 0x2E0 JUMP JUMPDEST SWAP2 POP POP SWAP3 SWAP2 POP POP JUMP JUMPDEST PUSH1 0x0 PUSH1 0x20 DUP3 DUP5 SUB SLT ISZERO PUSH2 0x382 JUMPI PUSH2 0x381 PUSH2 0x612 JUMP JUMPDEST JUMPDEST PUSH1 0x0 PUSH2 0x390 DUP5 DUP3 DUP6 ADD PUSH2 0x30E JUMP JUMPDEST SWAP2 POP POP SWAP3 SWAP2 POP POP JUMP JUMPDEST PUSH1 0x0 PUSH2 0x3A5 DUP4 DUP4 PUSH2 0x41E JUMP JUMPDEST PUSH1 0x20 DUP4 ADD SWAP1 POP SWAP3 SWAP2 POP POP JUMP JUMPDEST PUSH1 0x0 PUSH2 0x3BC DUP3 PUSH2 0x564 JUMP JUMPDEST PUSH2 0x3C6 DUP2 DUP6 PUSH2 0x57C JUMP JUMPDEST SWAP4 POP PUSH2 0x3D1 DUP4 PUSH2 0x554 JUMP JUMPDEST DUP1 PUSH1 0x0 JUMPDEST DUP4 DUP2 LT ISZERO PUSH2 0x402 JUMPI DUP2 MLOAD PUSH2 0x3E9 DUP9 DUP3 PUSH2 0x399 JUMP JUMPDEST SWAP8 POP PUSH2 0x3F4 DUP4 PUSH2 0x56F JUMP JUMPDEST SWAP3 POP POP PUSH1 0x1 DUP2 ADD SWAP1 POP PUSH2 0x3D5 JUMP JUMPDEST POP DUP6 SWAP4 POP POP POP POP SWAP3 SWAP2 POP POP JUMP JUMPDEST PUSH2 0x418 DUP2 PUSH2 0x58D JUMP JUMPDEST DUP3 MSTORE POP POP JUMP JUMPDEST PUSH2 0x427 DUP2 PUSH2 0x599 JUMP JUMPDEST DUP3 MSTORE POP POP JUMP JUMPDEST PUSH2 0x436 DUP2 PUSH2 0x599 JUMP JUMPDEST DUP3 MSTORE POP POP JUMP JUMPDEST PUSH1 0x0 PUSH1 0x20 DUP3 ADD SWAP1 POP DUP2 DUP2 SUB PUSH1 0x0 DUP4 ADD MSTORE PUSH2 0x456 DUP2 DUP5 PUSH2 0x3B1 JUMP JUMPDEST SWAP1 POP SWAP3 SWAP2 POP POP JUMP JUMPDEST PUSH1 0x0 PUSH1 0x20 DUP3 ADD SWAP1 POP PUSH2 0x473 PUSH1 0x0 DUP4 ADD DUP5 PUSH2 0x42D JUMP JUMPDEST SWAP3 SWAP2 POP POP JUMP JUMPDEST PUSH1 0x0 PUSH1 0x60 DUP3 ADD SWAP1 POP PUSH2 0x48E PUSH1 0x0 DUP4 ADD DUP7 PUSH2 0x42D JUMP JUMPDEST PUSH2 0x49B PUSH1 0x20 DUP4 ADD DUP6 PUSH2 0x40F JUMP JUMPDEST PUSH2 0x4A8 PUSH1 0x40 DUP4 ADD DUP5 PUSH2 0x42D JUMP JUMPDEST SWAP5 SWAP4 POP POP POP POP JUMP JUMPDEST PUSH1 0x0 PUSH1 0xA0 DUP3 ADD SWAP1 POP PUSH2 0x4C5 PUSH1 0x0 DUP4 ADD DUP9 PUSH2 0x42D JUMP JUMPDEST PUSH2 0x4D2 PUSH1 0x20 DUP4 ADD DUP8 PUSH2 0x40F JUMP JUMPDEST PUSH2 0x4DF PUSH1 0x40 DUP4 ADD DUP7 PUSH2 0x42D JUMP JUMPDEST PUSH2 0x4EC PUSH1 0x60 DUP4 ADD DUP6 PUSH2 0x42D JUMP JUMPDEST PUSH2 0x4F9 PUSH1 0x80 DUP4 ADD DUP5 PUSH2 0x42D JUMP JUMPDEST SWAP7 SWAP6 POP POP POP POP POP POP JUMP JUMPDEST PUSH1 0x0 PUSH2 0x50D PUSH2 0x51E JUMP JUMPDEST SWAP1 POP PUSH2 0x519 DUP3 DUP3 PUSH2 0x5A3 JUMP JUMPDEST SWAP2 SWAP1 POP JUMP JUMPDEST PUSH1 0x0 PUSH1 0x40 MLOAD SWAP1 POP SWAP1 JUMP JUMPDEST PUSH1 0x0 PUSH8 0xFFFFFFFFFFFFFFFF DUP3 GT ISZERO PUSH2 0x543 JUMPI PUSH2 0x542 PUSH2 0x5D4 JUMP JUMPDEST JUMPDEST PUSH1 0x20 DUP3 MUL SWAP1 POP PUSH1 0x20 DUP2 ADD SWAP1 POP SWAP2 SWAP1 POP JUMP JUMPDEST PUSH1 0x0 DUP2 SWAP1 POP PUSH1 0x20 DUP3 ADD SWAP1 POP SWAP2 SWAP1 POP JUMP JUMPDEST PUSH1 0x0 DUP2 MLOAD SWAP1 POP SWAP2 SWAP1 POP JUMP JUMPDEST PUSH1 0x0 PUSH1 0x20 DUP3 ADD SWAP1 POP SWAP2 SWAP1 POP JUMP JUMPDEST PUSH1 0x0 DUP3 DUP3 MSTORE PUSH1 0x20 DUP3 ADD SWAP1 POP SWAP3 SWAP2 POP POP JUMP JUMPDEST PUSH1 0x0 DUP2 ISZERO ISZERO SWAP1 POP SWAP2 SWAP1 POP JUMP JUMPDEST PUSH1 0x0 DUP2 SWAP1 POP SWAP2 SWAP1 POP JUMP JUMPDEST PUSH2 0x5AC DUP3 PUSH2 0x617 JUMP JUMPDEST DUP2 ADD DUP2 DUP2 LT PUSH8 0xFFFFFFFFFFFFFFFF DUP3 GT OR ISZERO PUSH2 0x5CB JUMPI PUSH2 0x5CA PUSH2 0x5D4 JUMP JUMPDEST JUMPDEST DUP1 PUSH1 0x40 MSTORE POP POP POP JUMP JUMPDEST PUSH32 0x4E487B7100000000000000000000000000000000000000000000000000000000 PUSH1 0x0 MSTORE PUSH1 0x41 PUSH1 0x4 MSTORE PUSH1 0x24 PUSH1 0x0 REVERT JUMPDEST PUSH1 0x0 DUP1 REVERT JUMPDEST PUSH1 0x0 DUP1 REVERT JUMPDEST PUSH1 0x0 DUP1 REVERT JUMPDEST PUSH1 0x0 DUP1 REVERT JUMPDEST PUSH1 0x0 PUSH1 0x1F NOT PUSH1 0x1F DUP4 ADD AND SWAP1 POP SWAP2 SWAP1 POP JUMP JUMPDEST PUSH2 0x631 DUP2 PUSH2 0x599 JUMP JUMPDEST DUP2 EQ PUSH2 0x63C JUMPI PUSH1 0x0 DUP1 REVERT JUMPDEST POP JUMP INVALID LOG2 PUSH5 0x6970667358 0x22 SLT KECCAK256 CREATE2 RETURNDATACOPY 0xE0 0x5E PUSH3 0xCDFD9D LOG0 0xD9 MSTORE 0xCB SWAP16 PUSH1 0x80 EXP CREATE2 PUSH23 0xF3CDF5741494548F4000CC9F37ED64736F6C6343000807 STOP CALLER "
				},
				"gasEstimates": {
					"creation": {
						"codeDepositCost": "330600",
						"executionCost": "368",
						"totalCost": "330968"
					},
					"external": {
						"arr(uint256)": "infinite",
						"arrayInput(uint256[])": "infinite",
						"arrayOutput()": "infinite",
						"assigned()": "infinite",
						"destructuringAssignments()": "infinite",
						"named()": "infinite",
						"returnMany()": "infinite"
					}
				},
				"methodIdentifiers": {
					"arr(uint256)": "71e5ee5f",
					"arrayInput(uint256[])": "f4bb6e6b",
					"arrayOutput()": "1990532b",
					"assigned()": "adb4d990",
					"destructuringAssignments()": "68873440",
					"named()": "45f907a8",
					"returnMany()": "86887544"
				}
			},
			"storageLayout": {
				"storage": [
					{
						"astId": 102,
						"contract": "practice-revision/test.sol:Function",
						"label": "arr",
						"offset": 0,
						"slot": "0",
						"type": "t_array(t_uint256)dyn_storage"
					}
				],
				"types": {
					"t_array(t_uint256)dyn_storage": {
						"base": "t_uint256",
						"encoding": "dynamic_array",
						"label": "uint256[]",
						"numberOfBytes": "32"
					},
					"t_uint256": {
						"encoding": "inplace",
						"label": "uint256",
						"numberOfBytes": "32"
					}
				}
			},
			"userdoc": {
				"kind": "user",
				"methods": {},
				"version": 1
			}
		}
	}
}