{
	"practice-revision/global_variable.sol": {
		"TransactionVariables": {
			"abi": [
				{
					"anonymous": false,
					"inputs": [
						{
							"indexed": false,
							"internalType": "address",
							"name": "",
							"type": "address"
						}
					],
					"name": "logaddress",
					"type": "event"
				},
				{
					"anonymous": false,
					"inputs": [
						{
							"indexed": false,
							"internalType": "bytes32",
							"name": "",
							"type": "bytes32"
						}
					],
					"name": "logblock",
					"type": "event"
				},
				{
					"anonymous": false,
					"inputs": [
						{
							"indexed": false,
							"internalType": "bytes4",
							"name": "",
							"type": "bytes4"
						}
					],
					"name": "logbyte4",
					"type": "event"
				},
				{
					"anonymous": false,
					"inputs": [
						{
							"indexed": false,
							"internalType": "bytes",
							"name": "",
							"type": "bytes"
						}
					],
					"name": "logbytes",
					"type": "event"
				},
				{
					"anonymous": false,
					"inputs": [
						{
							"indexed": false,
							"internalType": "uint256",
							"name": "",
							"type": "uint256"
						}
					],
					"name": "loguint",
					"type": "event"
				},
				{
					"inputs": [],
					"name": "showBlockVariables",
					"outputs": [],
					"stateMutability": "payable",
					"type": "function"
				}
			],
			"devdoc": {
				"kind": "dev",
				"methods": {},
				"version": 1
			},
			"evm": {
				"assembly": "    /* \"practice-revision/global_variable.sol\":60:792  contract TransactionVariables{\r... */\n  mstore(0x40, 0x80)\n  callvalue\n  dup1\n  iszero\n  tag_1\n  jumpi\n  0x00\n  dup1\n  revert\ntag_1:\n  pop\n  dataSize(sub_0)\n  dup1\n  dataOffset(sub_0)\n  0x00\n  codecopy\n  0x00\n  return\nstop\n\nsub_0: assembly {\n        /* \"practice-revision/global_variable.sol\":60:792  contract TransactionVariables{\r... */\n      mstore(0x40, 0x80)\n      jumpi(tag_1, lt(calldatasize, 0x04))\n      shr(0xe0, calldataload(0x00))\n      dup1\n      0x01b95f82\n      eq\n      tag_2\n      jumpi\n    tag_1:\n      0x00\n      dup1\n      revert\n        /* \"practice-revision/global_variable.sol\":243:789  function showBlockVariables() public payable{\r... */\n    tag_2:\n      tag_3\n      tag_4\n      jump\t// in\n    tag_3:\n      stop\n    tag_4:\n        /* \"practice-revision/global_variable.sol\":303:329  logaddress(block.coinbase) */\n      0x049cbd1ffb0589a635b2c938f6b085d54980745a0f215814e96e126af73f8898\n        /* \"practice-revision/global_variable.sol\":314:328  block.coinbase */\n      coinbase\n        /* \"practice-revision/global_variable.sol\":303:329  logaddress(block.coinbase) */\n      mload(0x40)\n      tag_6\n      swap2\n      swap1\n      tag_7\n      jump\t// in\n    tag_6:\n      mload(0x40)\n      dup1\n      swap2\n      sub\n      swap1\n      log1\n        /* \"practice-revision/global_variable.sol\":345:370  loguint(block.difficulty) */\n      0xf38f38c362234f4828edb46ae3d91e12ce5330d9b778ad7cfc7053dd39d27909\n        /* \"practice-revision/global_variable.sol\":353:369  block.difficulty */\n      difficulty\n        /* \"practice-revision/global_variable.sol\":345:370  loguint(block.difficulty) */\n      mload(0x40)\n      tag_8\n      swap2\n      swap1\n      tag_9\n      jump\t// in\n    tag_8:\n      mload(0x40)\n      dup1\n      swap2\n      sub\n      swap1\n      log1\n        /* \"practice-revision/global_variable.sol\":386:409  loguint(block.gaslimit) */\n      0xf38f38c362234f4828edb46ae3d91e12ce5330d9b778ad7cfc7053dd39d27909\n        /* \"practice-revision/global_variable.sol\":394:408  block.gaslimit */\n      gaslimit\n        /* \"practice-revision/global_variable.sol\":386:409  loguint(block.gaslimit) */\n      mload(0x40)\n      tag_10\n      swap2\n      swap1\n      tag_9\n      jump\t// in\n    tag_10:\n      mload(0x40)\n      dup1\n      swap2\n      sub\n      swap1\n      log1\n        /* \"practice-revision/global_variable.sol\":425:443  loguint(gasleft()) */\n      0xf38f38c362234f4828edb46ae3d91e12ce5330d9b778ad7cfc7053dd39d27909\n        /* \"practice-revision/global_variable.sol\":433:442  gasleft() */\n      gas\n        /* \"practice-revision/global_variable.sol\":425:443  loguint(gasleft()) */\n      mload(0x40)\n      tag_11\n      swap2\n      swap1\n      tag_9\n      jump\t// in\n    tag_11:\n      mload(0x40)\n      dup1\n      swap2\n      sub\n      swap1\n      log1\n        /* \"practice-revision/global_variable.sol\":459:479  loguint(tx.gasprice) */\n      0xf38f38c362234f4828edb46ae3d91e12ce5330d9b778ad7cfc7053dd39d27909\n        /* \"practice-revision/global_variable.sol\":467:478  tx.gasprice */\n      gasprice\n        /* \"practice-revision/global_variable.sol\":459:479  loguint(tx.gasprice) */\n      mload(0x40)\n      tag_12\n      swap2\n      swap1\n      tag_9\n      jump\t// in\n    tag_12:\n      mload(0x40)\n      dup1\n      swap2\n      sub\n      swap1\n      log1\n        /* \"practice-revision/global_variable.sol\":495:516  loguint(block.number) */\n      0xf38f38c362234f4828edb46ae3d91e12ce5330d9b778ad7cfc7053dd39d27909\n        /* \"practice-revision/global_variable.sol\":503:515  block.number */\n      number\n        /* \"practice-revision/global_variable.sol\":495:516  loguint(block.number) */\n      mload(0x40)\n      tag_13\n      swap2\n      swap1\n      tag_9\n      jump\t// in\n    tag_13:\n      mload(0x40)\n      dup1\n      swap2\n      sub\n      swap1\n      log1\n        /* \"practice-revision/global_variable.sol\":532:556  loguint(block.timestamp) */\n      0xf38f38c362234f4828edb46ae3d91e12ce5330d9b778ad7cfc7053dd39d27909\n        /* \"practice-revision/global_variable.sol\":540:555  block.timestamp */\n      timestamp\n        /* \"practice-revision/global_variable.sol\":532:556  loguint(block.timestamp) */\n      mload(0x40)\n      tag_14\n      swap2\n      swap1\n      tag_9\n      jump\t// in\n    tag_14:\n      mload(0x40)\n      dup1\n      swap2\n      sub\n      swap1\n      log1\n        /* \"practice-revision/global_variable.sol\":572:590  logbytes(msg.data) */\n      0x5ef2fadfe1f6a94a55af68cfcd02cf12791e899e3f51dc8d3dd395434cc59eb1\n        /* \"practice-revision/global_variable.sol\":581:589  msg.data */\n      0x00\n      calldatasize\n        /* \"practice-revision/global_variable.sol\":572:590  logbytes(msg.data) */\n      mload(0x40)\n      tag_15\n      swap3\n      swap2\n      swap1\n      tag_16\n      jump\t// in\n    tag_15:\n      mload(0x40)\n      dup1\n      swap2\n      sub\n      swap1\n      log1\n        /* \"practice-revision/global_variable.sol\":606:623  logbyte4(msg.sig) */\n      0xe0b521ba4082e007440760e2128713fe181fbd8741627a8ba1c1faef2b393cd5\n        /* \"practice-revision/global_variable.sol\":615:622  msg.sig */\n      and(0xffffffff00000000000000000000000000000000000000000000000000000000, calldataload(0x00))\n        /* \"practice-revision/global_variable.sol\":606:623  logbyte4(msg.sig) */\n      mload(0x40)\n      tag_17\n      swap2\n      swap1\n      tag_18\n      jump\t// in\n    tag_17:\n      mload(0x40)\n      dup1\n      swap2\n      sub\n      swap1\n      log1\n        /* \"practice-revision/global_variable.sol\":639:661  logaddress(msg.sender) */\n      0x049cbd1ffb0589a635b2c938f6b085d54980745a0f215814e96e126af73f8898\n        /* \"practice-revision/global_variable.sol\":650:660  msg.sender */\n      caller\n        /* \"practice-revision/global_variable.sol\":639:661  logaddress(msg.sender) */\n      mload(0x40)\n      tag_19\n      swap2\n      swap1\n      tag_20\n      jump\t// in\n    tag_19:\n      mload(0x40)\n      dup1\n      swap2\n      sub\n      swap1\n      log1\n        /* \"practice-revision/global_variable.sol\":677:695  loguint(msg.value) */\n      0xf38f38c362234f4828edb46ae3d91e12ce5330d9b778ad7cfc7053dd39d27909\n        /* \"practice-revision/global_variable.sol\":685:694  msg.value */\n      callvalue\n        /* \"practice-revision/global_variable.sol\":677:695  loguint(msg.value) */\n      mload(0x40)\n      tag_21\n      swap2\n      swap1\n      tag_9\n      jump\t// in\n    tag_21:\n      mload(0x40)\n      dup1\n      swap2\n      sub\n      swap1\n      log1\n        /* \"practice-revision/global_variable.sol\":711:732  logaddress(tx.origin) */\n      0x049cbd1ffb0589a635b2c938f6b085d54980745a0f215814e96e126af73f8898\n        /* \"practice-revision/global_variable.sol\":722:731  tx.origin */\n      origin\n        /* \"practice-revision/global_variable.sol\":711:732  logaddress(tx.origin) */\n      mload(0x40)\n      tag_22\n      swap2\n      swap1\n      tag_20\n      jump\t// in\n    tag_22:\n      mload(0x40)\n      dup1\n      swap2\n      sub\n      swap1\n      log1\n        /* \"practice-revision/global_variable.sol\":748:781  logblock(blockhash(block.number)) */\n      0xa9478f9f822db5e6bc52b89d817a9d1e138ed63b27ac00d574aeda5f6e0e9aa9\n        /* \"practice-revision/global_variable.sol\":767:779  block.number */\n      number\n        /* \"practice-revision/global_variable.sol\":757:780  blockhash(block.number) */\n      blockhash\n        /* \"practice-revision/global_variable.sol\":748:781  logblock(blockhash(block.number)) */\n      mload(0x40)\n      tag_23\n      swap2\n      swap1\n      tag_24\n      jump\t// in\n    tag_23:\n      mload(0x40)\n      dup1\n      swap2\n      sub\n      swap1\n      log1\n        /* \"practice-revision/global_variable.sol\":243:789  function showBlockVariables() public payable{\r... */\n      jump\t// out\n        /* \"#utility.yul\":7:154   */\n    tag_26:\n        /* \"#utility.yul\":102:147   */\n      tag_28\n        /* \"#utility.yul\":141:146   */\n      dup2\n        /* \"#utility.yul\":102:147   */\n      tag_29\n      jump\t// in\n    tag_28:\n        /* \"#utility.yul\":97:100   */\n      dup3\n        /* \"#utility.yul\":90:148   */\n      mstore\n        /* \"#utility.yul\":7:154   */\n      pop\n      pop\n      jump\t// out\n        /* \"#utility.yul\":160:278   */\n    tag_30:\n        /* \"#utility.yul\":247:271   */\n      tag_32\n        /* \"#utility.yul\":265:270   */\n      dup2\n        /* \"#utility.yul\":247:271   */\n      tag_33\n      jump\t// in\n    tag_32:\n        /* \"#utility.yul\":242:245   */\n      dup3\n        /* \"#utility.yul\":235:272   */\n      mstore\n        /* \"#utility.yul\":160:278   */\n      pop\n      pop\n      jump\t// out\n        /* \"#utility.yul\":284:402   */\n    tag_34:\n        /* \"#utility.yul\":371:395   */\n      tag_36\n        /* \"#utility.yul\":389:394   */\n      dup2\n        /* \"#utility.yul\":371:395   */\n      tag_37\n      jump\t// in\n    tag_36:\n        /* \"#utility.yul\":366:369   */\n      dup3\n        /* \"#utility.yul\":359:396   */\n      mstore\n        /* \"#utility.yul\":284:402   */\n      pop\n      pop\n      jump\t// out\n        /* \"#utility.yul\":408:523   */\n    tag_38:\n        /* \"#utility.yul\":493:516   */\n      tag_40\n        /* \"#utility.yul\":510:515   */\n      dup2\n        /* \"#utility.yul\":493:516   */\n      tag_41\n      jump\t// in\n    tag_40:\n        /* \"#utility.yul\":488:491   */\n      dup3\n        /* \"#utility.yul\":481:517   */\n      mstore\n        /* \"#utility.yul\":408:523   */\n      pop\n      pop\n      jump\t// out\n        /* \"#utility.yul\":551:852   */\n    tag_42:\n        /* \"#utility.yul\":647:650   */\n      0x00\n        /* \"#utility.yul\":668:738   */\n      tag_44\n        /* \"#utility.yul\":731:737   */\n      dup4\n        /* \"#utility.yul\":726:729   */\n      dup6\n        /* \"#utility.yul\":668:738   */\n      tag_45\n      jump\t// in\n    tag_44:\n        /* \"#utility.yul\":661:738   */\n      swap4\n      pop\n        /* \"#utility.yul\":748:791   */\n      tag_46\n        /* \"#utility.yul\":784:790   */\n      dup4\n        /* \"#utility.yul\":779:782   */\n      dup6\n        /* \"#utility.yul\":772:777   */\n      dup5\n        /* \"#utility.yul\":748:791   */\n      tag_47\n      jump\t// in\n    tag_46:\n        /* \"#utility.yul\":816:845   */\n      tag_48\n        /* \"#utility.yul\":838:844   */\n      dup4\n        /* \"#utility.yul\":816:845   */\n      tag_49\n      jump\t// in\n    tag_48:\n        /* \"#utility.yul\":811:814   */\n      dup5\n        /* \"#utility.yul\":807:846   */\n      add\n        /* \"#utility.yul\":800:846   */\n      swap1\n      pop\n        /* \"#utility.yul\":551:852   */\n      swap4\n      swap3\n      pop\n      pop\n      pop\n      jump\t// out\n        /* \"#utility.yul\":858:976   */\n    tag_50:\n        /* \"#utility.yul\":945:969   */\n      tag_52\n        /* \"#utility.yul\":963:968   */\n      dup2\n        /* \"#utility.yul\":945:969   */\n      tag_53\n      jump\t// in\n    tag_52:\n        /* \"#utility.yul\":940:943   */\n      dup3\n        /* \"#utility.yul\":933:970   */\n      mstore\n        /* \"#utility.yul\":858:976   */\n      pop\n      pop\n      jump\t// out\n        /* \"#utility.yul\":982:1204   */\n    tag_20:\n        /* \"#utility.yul\":1075:1079   */\n      0x00\n        /* \"#utility.yul\":1113:1115   */\n      0x20\n        /* \"#utility.yul\":1102:1111   */\n      dup3\n        /* \"#utility.yul\":1098:1116   */\n      add\n        /* \"#utility.yul\":1090:1116   */\n      swap1\n      pop\n        /* \"#utility.yul\":1126:1197   */\n      tag_55\n        /* \"#utility.yul\":1194:1195   */\n      0x00\n        /* \"#utility.yul\":1183:1192   */\n      dup4\n        /* \"#utility.yul\":1179:1196   */\n      add\n        /* \"#utility.yul\":1170:1176   */\n      dup5\n        /* \"#utility.yul\":1126:1197   */\n      tag_30\n      jump\t// in\n    tag_55:\n        /* \"#utility.yul\":982:1204   */\n      swap3\n      swap2\n      pop\n      pop\n      jump\t// out\n        /* \"#utility.yul\":1210:1448   */\n    tag_7:\n        /* \"#utility.yul\":1311:1315   */\n      0x00\n        /* \"#utility.yul\":1349:1351   */\n      0x20\n        /* \"#utility.yul\":1338:1347   */\n      dup3\n        /* \"#utility.yul\":1334:1352   */\n      add\n        /* \"#utility.yul\":1326:1352   */\n      swap1\n      pop\n        /* \"#utility.yul\":1362:1441   */\n      tag_57\n        /* \"#utility.yul\":1438:1439   */\n      0x00\n        /* \"#utility.yul\":1427:1436   */\n      dup4\n        /* \"#utility.yul\":1423:1440   */\n      add\n        /* \"#utility.yul\":1414:1420   */\n      dup5\n        /* \"#utility.yul\":1362:1441   */\n      tag_26\n      jump\t// in\n    tag_57:\n        /* \"#utility.yul\":1210:1448   */\n      swap3\n      swap2\n      pop\n      pop\n      jump\t// out\n        /* \"#utility.yul\":1454:1676   */\n    tag_24:\n        /* \"#utility.yul\":1547:1551   */\n      0x00\n        /* \"#utility.yul\":1585:1587   */\n      0x20\n        /* \"#utility.yul\":1574:1583   */\n      dup3\n        /* \"#utility.yul\":1570:1588   */\n      add\n        /* \"#utility.yul\":1562:1588   */\n      swap1\n      pop\n        /* \"#utility.yul\":1598:1669   */\n      tag_59\n        /* \"#utility.yul\":1666:1667   */\n      0x00\n        /* \"#utility.yul\":1655:1664   */\n      dup4\n        /* \"#utility.yul\":1651:1668   */\n      add\n        /* \"#utility.yul\":1642:1648   */\n      dup5\n        /* \"#utility.yul\":1598:1669   */\n      tag_34\n      jump\t// in\n    tag_59:\n        /* \"#utility.yul\":1454:1676   */\n      swap3\n      swap2\n      pop\n      pop\n      jump\t// out\n        /* \"#utility.yul\":1682:1900   */\n    tag_18:\n        /* \"#utility.yul\":1773:1777   */\n      0x00\n        /* \"#utility.yul\":1811:1813   */\n      0x20\n        /* \"#utility.yul\":1800:1809   */\n      dup3\n        /* \"#utility.yul\":1796:1814   */\n      add\n        /* \"#utility.yul\":1788:1814   */\n      swap1\n      pop\n        /* \"#utility.yul\":1824:1893   */\n      tag_61\n        /* \"#utility.yul\":1890:1891   */\n      0x00\n        /* \"#utility.yul\":1879:1888   */\n      dup4\n        /* \"#utility.yul\":1875:1892   */\n      add\n        /* \"#utility.yul\":1866:1872   */\n      dup5\n        /* \"#utility.yul\":1824:1893   */\n      tag_38\n      jump\t// in\n    tag_61:\n        /* \"#utility.yul\":1682:1900   */\n      swap3\n      swap2\n      pop\n      pop\n      jump\t// out\n        /* \"#utility.yul\":1906:2235   */\n    tag_16:\n        /* \"#utility.yul\":2027:2031   */\n      0x00\n        /* \"#utility.yul\":2065:2067   */\n      0x20\n        /* \"#utility.yul\":2054:2063   */\n      dup3\n        /* \"#utility.yul\":2050:2068   */\n      add\n        /* \"#utility.yul\":2042:2068   */\n      swap1\n      pop\n        /* \"#utility.yul\":2114:2123   */\n      dup2\n        /* \"#utility.yul\":2108:2112   */\n      dup2\n        /* \"#utility.yul\":2104:2124   */\n      sub\n        /* \"#utility.yul\":2100:2101   */\n      0x00\n        /* \"#utility.yul\":2089:2098   */\n      dup4\n        /* \"#utility.yul\":2085:2102   */\n      add\n        /* \"#utility.yul\":2078:2125   */\n      mstore\n        /* \"#utility.yul\":2142:2228   */\n      tag_63\n        /* \"#utility.yul\":2223:2227   */\n      dup2\n        /* \"#utility.yul\":2214:2220   */\n      dup5\n        /* \"#utility.yul\":2206:2212   */\n      dup7\n        /* \"#utility.yul\":2142:2228   */\n      tag_42\n      jump\t// in\n    tag_63:\n        /* \"#utility.yul\":2134:2228   */\n      swap1\n      pop\n        /* \"#utility.yul\":1906:2235   */\n      swap4\n      swap3\n      pop\n      pop\n      pop\n      jump\t// out\n        /* \"#utility.yul\":2241:2463   */\n    tag_9:\n        /* \"#utility.yul\":2334:2338   */\n      0x00\n        /* \"#utility.yul\":2372:2374   */\n      0x20\n        /* \"#utility.yul\":2361:2370   */\n      dup3\n        /* \"#utility.yul\":2357:2375   */\n      add\n        /* \"#utility.yul\":2349:2375   */\n      swap1\n      pop\n        /* \"#utility.yul\":2385:2456   */\n      tag_65\n        /* \"#utility.yul\":2453:2454   */\n      0x00\n        /* \"#utility.yul\":2442:2451   */\n      dup4\n        /* \"#utility.yul\":2438:2455   */\n      add\n        /* \"#utility.yul\":2429:2435   */\n      dup5\n        /* \"#utility.yul\":2385:2456   */\n      tag_50\n      jump\t// in\n    tag_65:\n        /* \"#utility.yul\":2241:2463   */\n      swap3\n      swap2\n      pop\n      pop\n      jump\t// out\n        /* \"#utility.yul\":2469:2637   */\n    tag_45:\n        /* \"#utility.yul\":2552:2563   */\n      0x00\n        /* \"#utility.yul\":2586:2592   */\n      dup3\n        /* \"#utility.yul\":2581:2584   */\n      dup3\n        /* \"#utility.yul\":2574:2593   */\n      mstore\n        /* \"#utility.yul\":2626:2630   */\n      0x20\n        /* \"#utility.yul\":2621:2624   */\n      dup3\n        /* \"#utility.yul\":2617:2631   */\n      add\n        /* \"#utility.yul\":2602:2631   */\n      swap1\n      pop\n        /* \"#utility.yul\":2469:2637   */\n      swap3\n      swap2\n      pop\n      pop\n      jump\t// out\n        /* \"#utility.yul\":2643:2739   */\n    tag_33:\n        /* \"#utility.yul\":2680:2687   */\n      0x00\n        /* \"#utility.yul\":2709:2733   */\n      tag_68\n        /* \"#utility.yul\":2727:2732   */\n      dup3\n        /* \"#utility.yul\":2709:2733   */\n      tag_69\n      jump\t// in\n    tag_68:\n        /* \"#utility.yul\":2698:2733   */\n      swap1\n      pop\n        /* \"#utility.yul\":2643:2739   */\n      swap2\n      swap1\n      pop\n      jump\t// out\n        /* \"#utility.yul\":2745:2822   */\n    tag_37:\n        /* \"#utility.yul\":2782:2789   */\n      0x00\n        /* \"#utility.yul\":2811:2816   */\n      dup2\n        /* \"#utility.yul\":2800:2816   */\n      swap1\n      pop\n        /* \"#utility.yul\":2745:2822   */\n      swap2\n      swap1\n      pop\n      jump\t// out\n        /* \"#utility.yul\":2828:2977   */\n    tag_41:\n        /* \"#utility.yul\":2864:2871   */\n      0x00\n        /* \"#utility.yul\":2904:2970   */\n      0xffffffff00000000000000000000000000000000000000000000000000000000\n        /* \"#utility.yul\":2897:2902   */\n      dup3\n        /* \"#utility.yul\":2893:2971   */\n      and\n        /* \"#utility.yul\":2882:2971   */\n      swap1\n      pop\n        /* \"#utility.yul\":2828:2977   */\n      swap2\n      swap1\n      pop\n      jump\t// out\n        /* \"#utility.yul\":2983:3109   */\n    tag_69:\n        /* \"#utility.yul\":3020:3027   */\n      0x00\n        /* \"#utility.yul\":3060:3102   */\n      0xffffffffffffffffffffffffffffffffffffffff\n        /* \"#utility.yul\":3053:3058   */\n      dup3\n        /* \"#utility.yul\":3049:3103   */\n      and\n        /* \"#utility.yul\":3038:3103   */\n      swap1\n      pop\n        /* \"#utility.yul\":2983:3109   */\n      swap2\n      swap1\n      pop\n      jump\t// out\n        /* \"#utility.yul\":3115:3192   */\n    tag_53:\n        /* \"#utility.yul\":3152:3159   */\n      0x00\n        /* \"#utility.yul\":3181:3186   */\n      dup2\n        /* \"#utility.yul\":3170:3186   */\n      swap1\n      pop\n        /* \"#utility.yul\":3115:3192   */\n      swap2\n      swap1\n      pop\n      jump\t// out\n        /* \"#utility.yul\":3198:3332   */\n    tag_29:\n        /* \"#utility.yul\":3256:3265   */\n      0x00\n        /* \"#utility.yul\":3289:3326   */\n      tag_75\n        /* \"#utility.yul\":3320:3325   */\n      dup3\n        /* \"#utility.yul\":3289:3326   */\n      tag_76\n      jump\t// in\n    tag_75:\n        /* \"#utility.yul\":3276:3326   */\n      swap1\n      pop\n        /* \"#utility.yul\":3198:3332   */\n      swap2\n      swap1\n      pop\n      jump\t// out\n        /* \"#utility.yul\":3338:3464   */\n    tag_76:\n        /* \"#utility.yul\":3388:3397   */\n      0x00\n        /* \"#utility.yul\":3421:3458   */\n      tag_78\n        /* \"#utility.yul\":3452:3457   */\n      dup3\n        /* \"#utility.yul\":3421:3458   */\n      tag_79\n      jump\t// in\n    tag_78:\n        /* \"#utility.yul\":3408:3458   */\n      swap1\n      pop\n        /* \"#utility.yul\":3338:3464   */\n      swap2\n      swap1\n      pop\n      jump\t// out\n        /* \"#utility.yul\":3470:3583   */\n    tag_79:\n        /* \"#utility.yul\":3520:3529   */\n      0x00\n        /* \"#utility.yul\":3553:3577   */\n      tag_81\n        /* \"#utility.yul\":3571:3576   */\n      dup3\n        /* \"#utility.yul\":3553:3577   */\n      tag_69\n      jump\t// in\n    tag_81:\n        /* \"#utility.yul\":3540:3577   */\n      swap1\n      pop\n        /* \"#utility.yul\":3470:3583   */\n      swap2\n      swap1\n      pop\n      jump\t// out\n        /* \"#utility.yul\":3589:3743   */\n    tag_47:\n        /* \"#utility.yul\":3673:3679   */\n      dup3\n        /* \"#utility.yul\":3668:3671   */\n      dup2\n        /* \"#utility.yul\":3663:3666   */\n      dup4\n        /* \"#utility.yul\":3650:3680   */\n      calldatacopy\n        /* \"#utility.yul\":3735:3736   */\n      0x00\n        /* \"#utility.yul\":3726:3732   */\n      dup4\n        /* \"#utility.yul\":3721:3724   */\n      dup4\n        /* \"#utility.yul\":3717:3733   */\n      add\n        /* \"#utility.yul\":3710:3737   */\n      mstore\n        /* \"#utility.yul\":3589:3743   */\n      pop\n      pop\n      pop\n      jump\t// out\n        /* \"#utility.yul\":3749:3851   */\n    tag_49:\n        /* \"#utility.yul\":3790:3796   */\n      0x00\n        /* \"#utility.yul\":3841:3843   */\n      0x1f\n        /* \"#utility.yul\":3837:3844   */\n      not\n        /* \"#utility.yul\":3832:3834   */\n      0x1f\n        /* \"#utility.yul\":3825:3830   */\n      dup4\n        /* \"#utility.yul\":3821:3835   */\n      add\n        /* \"#utility.yul\":3817:3845   */\n      and\n        /* \"#utility.yul\":3807:3845   */\n      swap1\n      pop\n        /* \"#utility.yul\":3749:3851   */\n      swap2\n      swap1\n      pop\n      jump\t// out\n\n    auxdata: 0xa2646970667358221220678c9cfed4bc5d36719f5c7622ad39bbcaae04231bcca94acf3f1f7368fc3ca664736f6c63430008070033\n}\n",
				"bytecode": {
					"linkReferences": {},
					"object": "608060405234801561001057600080fd5b50610554806100206000396000f3fe60806040526004361061001e5760003560e01c806301b95f8214610023575b600080fd5b61002b61002d565b005b7f049cbd1ffb0589a635b2c938f6b085d54980745a0f215814e96e126af73f88984160405161005c91906103b5565b60405180910390a17ff38f38c362234f4828edb46ae3d91e12ce5330d9b778ad7cfc7053dd39d2790944604051610093919061042a565b60405180910390a17ff38f38c362234f4828edb46ae3d91e12ce5330d9b778ad7cfc7053dd39d27909456040516100ca919061042a565b60405180910390a17ff38f38c362234f4828edb46ae3d91e12ce5330d9b778ad7cfc7053dd39d279095a604051610101919061042a565b60405180910390a17ff38f38c362234f4828edb46ae3d91e12ce5330d9b778ad7cfc7053dd39d279093a604051610138919061042a565b60405180910390a17ff38f38c362234f4828edb46ae3d91e12ce5330d9b778ad7cfc7053dd39d279094360405161016f919061042a565b60405180910390a17ff38f38c362234f4828edb46ae3d91e12ce5330d9b778ad7cfc7053dd39d27909426040516101a6919061042a565b60405180910390a17f5ef2fadfe1f6a94a55af68cfcd02cf12791e899e3f51dc8d3dd395434cc59eb16000366040516101e0929190610406565b60405180910390a17fe0b521ba4082e007440760e2128713fe181fbd8741627a8ba1c1faef2b393cd56000357fffffffff000000000000000000000000000000000000000000000000000000001660405161023b91906103eb565b60405180910390a17f049cbd1ffb0589a635b2c938f6b085d54980745a0f215814e96e126af73f889833604051610272919061039a565b60405180910390a17ff38f38c362234f4828edb46ae3d91e12ce5330d9b778ad7cfc7053dd39d27909346040516102a9919061042a565b60405180910390a17f049cbd1ffb0589a635b2c938f6b085d54980745a0f215814e96e126af73f8898326040516102e0919061039a565b60405180910390a17fa9478f9f822db5e6bc52b89d817a9d1e138ed63b27ac00d574aeda5f6e0e9aa9434060405161031891906103d0565b60405180910390a1565b61032b816104c8565b82525050565b61033a81610456565b82525050565b61034981610468565b82525050565b61035881610472565b82525050565b600061036a8385610445565b93506103778385846104fe565b6103808361050d565b840190509392505050565b610394816104be565b82525050565b60006020820190506103af6000830184610331565b92915050565b60006020820190506103ca6000830184610322565b92915050565b60006020820190506103e56000830184610340565b92915050565b6000602082019050610400600083018461034f565b92915050565b6000602082019050818103600083015261042181848661035e565b90509392505050565b600060208201905061043f600083018461038b565b92915050565b600082825260208201905092915050565b60006104618261049e565b9050919050565b6000819050919050565b60007fffffffff0000000000000000000000000000000000000000000000000000000082169050919050565b600073ffffffffffffffffffffffffffffffffffffffff82169050919050565b6000819050919050565b60006104d3826104da565b9050919050565b60006104e5826104ec565b9050919050565b60006104f78261049e565b9050919050565b82818337600083830152505050565b6000601f19601f830116905091905056fea2646970667358221220678c9cfed4bc5d36719f5c7622ad39bbcaae04231bcca94acf3f1f7368fc3ca664736f6c63430008070033",
					"opcodes": "PUSH1 0x80 PUSH1 0x40 MSTORE CALLVALUE DUP1 ISZERO PUSH2 0x10 JUMPI PUSH1 0x0 DUP1 REVERT JUMPDEST POP PUSH2 0x554 DUP1 PUSH2 0x20 PUSH1 0x0 CODECOPY PUSH1 0x0 RETURN INVALID PUSH1 0x80 PUSH1 0x40 MSTORE PUSH1 0x4 CALLDATASIZE LT PUSH2 0x1E JUMPI PUSH1 0x0 CALLDATALOAD PUSH1 0xE0 SHR DUP1 PUSH4 0x1B95F82 EQ PUSH2 0x23 JUMPI JUMPDEST PUSH1 0x0 DUP1 REVERT JUMPDEST PUSH2 0x2B PUSH2 0x2D JUMP JUMPDEST STOP JUMPDEST PUSH32 0x49CBD1FFB0589A635B2C938F6B085D54980745A0F215814E96E126AF73F8898 COINBASE PUSH1 0x40 MLOAD PUSH2 0x5C SWAP2 SWAP1 PUSH2 0x3B5 JUMP JUMPDEST PUSH1 0x40 MLOAD DUP1 SWAP2 SUB SWAP1 LOG1 PUSH32 0xF38F38C362234F4828EDB46AE3D91E12CE5330D9B778AD7CFC7053DD39D27909 DIFFICULTY PUSH1 0x40 MLOAD PUSH2 0x93 SWAP2 SWAP1 PUSH2 0x42A JUMP JUMPDEST PUSH1 0x40 MLOAD DUP1 SWAP2 SUB SWAP1 LOG1 PUSH32 0xF38F38C362234F4828EDB46AE3D91E12CE5330D9B778AD7CFC7053DD39D27909 GASLIMIT PUSH1 0x40 MLOAD PUSH2 0xCA SWAP2 SWAP1 PUSH2 0x42A JUMP JUMPDEST PUSH1 0x40 MLOAD DUP1 SWAP2 SUB SWAP1 LOG1 PUSH32 0xF38F38C362234F4828EDB46AE3D91E12CE5330D9B778AD7CFC7053DD39D27909 GAS PUSH1 0x40 MLOAD PUSH2 0x101 SWAP2 SWAP1 PUSH2 0x42A JUMP JUMPDEST PUSH1 0x40 MLOAD DUP1 SWAP2 SUB SWAP1 LOG1 PUSH32 0xF38F38C362234F4828EDB46AE3D91E12CE5330D9B778AD7CFC7053DD39D27909 GASPRICE PUSH1 0x40 MLOAD PUSH2 0x138 SWAP2 SWAP1 PUSH2 0x42A JUMP JUMPDEST PUSH1 0x40 MLOAD DUP1 SWAP2 SUB SWAP1 LOG1 PUSH32 0xF38F38C362234F4828EDB46AE3D91E12CE5330D9B778AD7CFC7053DD39D27909 NUMBER PUSH1 0x40 MLOAD PUSH2 0x16F SWAP2 SWAP1 PUSH2 0x42A JUMP JUMPDEST PUSH1 0x40 MLOAD DUP1 SWAP2 SUB SWAP1 LOG1 PUSH32 0xF38F38C362234F4828EDB46AE3D91E12CE5330D9B778AD7CFC7053DD39D27909 TIMESTAMP PUSH1 0x40 MLOAD PUSH2 0x1A6 SWAP2 SWAP1 PUSH2 0x42A JUMP JUMPDEST PUSH1 0x40 MLOAD DUP1 SWAP2 SUB SWAP1 LOG1 PUSH32 0x5EF2FADFE1F6A94A55AF68CFCD02CF12791E899E3F51DC8D3DD395434CC59EB1 PUSH1 0x0 CALLDATASIZE PUSH1 0x40 MLOAD PUSH2 0x1E0 SWAP3 SWAP2 SWAP1 PUSH2 0x406 JUMP JUMPDEST PUSH1 0x40 MLOAD DUP1 SWAP2 SUB SWAP1 LOG1 PUSH32 0xE0B521BA4082E007440760E2128713FE181FBD8741627A8BA1C1FAEF2B393CD5 PUSH1 0x0 CALLDATALOAD PUSH32 0xFFFFFFFF00000000000000000000000000000000000000000000000000000000 AND PUSH1 0x40 MLOAD PUSH2 0x23B SWAP2 SWAP1 PUSH2 0x3EB JUMP JUMPDEST PUSH1 0x40 MLOAD DUP1 SWAP2 SUB SWAP1 LOG1 PUSH32 0x49CBD1FFB0589A635B2C938F6B085D54980745A0F215814E96E126AF73F8898 CALLER PUSH1 0x40 MLOAD PUSH2 0x272 SWAP2 SWAP1 PUSH2 0x39A JUMP JUMPDEST PUSH1 0x40 MLOAD DUP1 SWAP2 SUB SWAP1 LOG1 PUSH32 0xF38F38C362234F4828EDB46AE3D91E12CE5330D9B778AD7CFC7053DD39D27909 CALLVALUE PUSH1 0x40 MLOAD PUSH2 0x2A9 SWAP2 SWAP1 PUSH2 0x42A JUMP JUMPDEST PUSH1 0x40 MLOAD DUP1 SWAP2 SUB SWAP1 LOG1 PUSH32 0x49CBD1FFB0589A635B2C938F6B085D54980745A0F215814E96E126AF73F8898 ORIGIN PUSH1 0x40 MLOAD PUSH2 0x2E0 SWAP2 SWAP1 PUSH2 0x39A JUMP JUMPDEST PUSH1 0x40 MLOAD DUP1 SWAP2 SUB SWAP1 LOG1 PUSH32 0xA9478F9F822DB5E6BC52B89D817A9D1E138ED63B27AC00D574AEDA5F6E0E9AA9 NUMBER BLOCKHASH PUSH1 0x40 MLOAD PUSH2 0x318 SWAP2 SWAP1 PUSH2 0x3D0 JUMP JUMPDEST PUSH1 0x40 MLOAD DUP1 SWAP2 SUB SWAP1 LOG1 JUMP JUMPDEST PUSH2 0x32B DUP2 PUSH2 0x4C8 JUMP JUMPDEST DUP3 MSTORE POP POP JUMP JUMPDEST PUSH2 0x33A DUP2 PUSH2 0x456 JUMP JUMPDEST DUP3 MSTORE POP POP JUMP JUMPDEST PUSH2 0x349 DUP2 PUSH2 0x468 JUMP JUMPDEST DUP3 MSTORE POP POP JUMP JUMPDEST PUSH2 0x358 DUP2 PUSH2 0x472 JUMP JUMPDEST DUP3 MSTORE POP POP JUMP JUMPDEST PUSH1 0x0 PUSH2 0x36A DUP4 DUP6 PUSH2 0x445 JUMP JUMPDEST SWAP4 POP PUSH2 0x377 DUP4 DUP6 DUP5 PUSH2 0x4FE JUMP JUMPDEST PUSH2 0x380 DUP4 PUSH2 0x50D JUMP JUMPDEST DUP5 ADD SWAP1 POP SWAP4 SWAP3 POP POP POP JUMP JUMPDEST PUSH2 0x394 DUP2 PUSH2 0x4BE JUMP JUMPDEST DUP3 MSTORE POP POP JUMP JUMPDEST PUSH1 0x0 PUSH1 0x20 DUP3 ADD SWAP1 POP PUSH2 0x3AF PUSH1 0x0 DUP4 ADD DUP5 PUSH2 0x331 JUMP JUMPDEST SWAP3 SWAP2 POP POP JUMP JUMPDEST PUSH1 0x0 PUSH1 0x20 DUP3 ADD SWAP1 POP PUSH2 0x3CA PUSH1 0x0 DUP4 ADD DUP5 PUSH2 0x322 JUMP JUMPDEST SWAP3 SWAP2 POP POP JUMP JUMPDEST PUSH1 0x0 PUSH1 0x20 DUP3 ADD SWAP1 POP PUSH2 0x3E5 PUSH1 0x0 DUP4 ADD DUP5 PUSH2 0x340 JUMP JUMPDEST SWAP3 SWAP2 POP POP JUMP JUMPDEST PUSH1 0x0 PUSH1 0x20 DUP3 ADD SWAP1 POP PUSH2 0x400 PUSH1 0x0 DUP4 ADD DUP5 PUSH2 0x34F JUMP JUMPDEST SWAP3 SWAP2 POP POP JUMP JUMPDEST PUSH1 0x0 PUSH1 0x20 DUP3 ADD SWAP1 POP DUP2 DUP2 SUB PUSH1 0x0 DUP4 ADD MSTORE PUSH2 0x421 DUP2 DUP5 DUP7 PUSH2 0x35E JUMP JUMPDEST SWAP1 POP SWAP4 SWAP3 POP POP POP JUMP JUMPDEST PUSH1 0x0 PUSH1 0x20 DUP3 ADD SWAP1 POP PUSH2 0x43F PUSH1 0x0 DUP4 ADD DUP5 PUSH2 0x38B JUMP JUMPDEST SWAP3 SWAP2 POP POP JUMP JUMPDEST PUSH1 0x0 DUP3 DUP3 MSTORE PUSH1 0x20 DUP3 ADD SWAP1 POP SWAP3 SWAP2 POP POP JUMP JUMPDEST PUSH1 0x0 PUSH2 0x461 DUP3 PUSH2 0x49E JUMP JUMPDEST SWAP1 POP SWAP2 SWAP1 POP JUMP JUMPDEST PUSH1 0x0 DUP2 SWAP1 POP SWAP2 SWAP1 POP JUMP JUMPDEST PUSH1 0x0 PUSH32 0xFFFFFFFF00000000000000000000000000000000000000000000000000000000 DUP3 AND SWAP1 POP SWAP2 SWAP1 POP JUMP JUMPDEST PUSH1 0x0 PUSH20 0xFFFFFFFFFFFFFFFFFFFFFFFFFFFFFFFFFFFFFFFF DUP3 AND SWAP1 POP SWAP2 SWAP1 POP JUMP JUMPDEST PUSH1 0x0 DUP2 SWAP1 POP SWAP2 SWAP1 POP JUMP JUMPDEST PUSH1 0x0 PUSH2 0x4D3 DUP3 PUSH2 0x4DA JUMP JUMPDEST SWAP1 POP SWAP2 SWAP1 POP JUMP JUMPDEST PUSH1 0x0 PUSH2 0x4E5 DUP3 PUSH2 0x4EC JUMP JUMPDEST SWAP1 POP SWAP2 SWAP1 POP JUMP JUMPDEST PUSH1 0x0 PUSH2 0x4F7 DUP3 PUSH2 0x49E JUMP JUMPDEST SWAP1 POP SWAP2 SWAP1 POP JUMP JUMPDEST DUP3 DUP2 DUP4 CALLDATACOPY PUSH1 0x0 DUP4 DUP4 ADD MSTORE POP POP POP JUMP JUMPDEST PUSH1 0x0 PUSH1 0x1F NOT PUSH1 0x1F DUP4 ADD AND SWAP1 POP SWAP2 SWAP1 POP JUMP INVALID LOG2 PUSH5 0x6970667358 0x22 SLT KECCAK256 PUSH8 0x8C9CFED4BC5D3671 SWAP16 0x5C PUSH23 0x22AD39BBCAAE04231BCCA94ACF3F1F7368FC3CA664736F PUSH13 0x63430008070033000000000000 "
				},
				"gasEstimates": {
					"creation": {
						"codeDepositCost": "272800",
						"executionCost": "312",
						"totalCost": "273112"
					},
					"external": {
						"showBlockVariables()": "infinite"
					}
				},
				"methodIdentifiers": {
					"showBlockVariables()": "01b95f82"
				}
			},
			"storageLayout": {
				"storage": [],
				"types": null
			},
			"userdoc": {
				"kind": "user",
				"methods": {},
				"version": 1
			}
		}
	}
}