{
	"data": {
		"bytecode": {
			"linkReferences": {},
			"object": "60a0604052600360809081525034801561001857600080fd5b50608051610223610031600039600050506102236000f3fe608060405234801561001057600080fd5b50600436106100415760003560e01c8063442130d0146100465780638a1b1bc414610076578063aff500f2146100a6575b600080fd5b610060600480360381019061005b919061012b565b6100c4565b60405161006d919061017a565b60405180910390f35b610090600480360381019061008b919061012b565b6100e9565b60405161009d919061017a565b60405180910390f35b6100ae61010e565b6040516100bb919061017a565b60405180910390f35b6000602052816000526040600020602052806000526040600020600091509150505481565b6001602052816000526040600020602052806000526040600020600091509150505481565b600042905090565b600081359050610125816101d6565b92915050565b60008060408385031215610142576101416101d1565b5b600061015085828601610116565b925050602061016185828601610116565b9150509250929050565b610174816101c7565b82525050565b600060208201905061018f600083018461016b565b92915050565b60006101a0826101a7565b9050919050565b600073ffffffffffffffffffffffffffffffffffffffff82169050919050565b6000819050919050565b600080fd5b6101df81610195565b81146101ea57600080fd5b5056fea2646970667358221220a2c8e9b7f64235f8b6676c95284ce3f3e23e225ed024a6cb186c130be41b950064736f6c63430008060033",
			"opcodes": "PUSH1 0xA0 PUSH1 0x40 MSTORE PUSH1 0x3 PUSH1 0x80 SWAP1 DUP2 MSTORE POP CALLVALUE DUP1 ISZERO PUSH2 0x18 JUMPI PUSH1 0x0 DUP1 REVERT JUMPDEST POP PUSH1 0x80 MLOAD PUSH2 0x223 PUSH2 0x31 PUSH1 0x0 CODECOPY PUSH1 0x0 POP POP PUSH2 0x223 PUSH1 0x0 RETURN INVALID PUSH1 0x80 PUSH1 0x40 MSTORE CALLVALUE DUP1 ISZERO PUSH2 0x10 JUMPI PUSH1 0x0 DUP1 REVERT JUMPDEST POP PUSH1 0x4 CALLDATASIZE LT PUSH2 0x41 JUMPI PUSH1 0x0 CALLDATALOAD PUSH1 0xE0 SHR DUP1 PUSH4 0x442130D0 EQ PUSH2 0x46 JUMPI DUP1 PUSH4 0x8A1B1BC4 EQ PUSH2 0x76 JUMPI DUP1 PUSH4 0xAFF500F2 EQ PUSH2 0xA6 JUMPI JUMPDEST PUSH1 0x0 DUP1 REVERT JUMPDEST PUSH2 0x60 PUSH1 0x4 DUP1 CALLDATASIZE SUB DUP2 ADD SWAP1 PUSH2 0x5B SWAP2 SWAP1 PUSH2 0x12B JUMP JUMPDEST PUSH2 0xC4 JUMP JUMPDEST PUSH1 0x40 MLOAD PUSH2 0x6D SWAP2 SWAP1 PUSH2 0x17A JUMP JUMPDEST PUSH1 0x40 MLOAD DUP1 SWAP2 SUB SWAP1 RETURN JUMPDEST PUSH2 0x90 PUSH1 0x4 DUP1 CALLDATASIZE SUB DUP2 ADD SWAP1 PUSH2 0x8B SWAP2 SWAP1 PUSH2 0x12B JUMP JUMPDEST PUSH2 0xE9 JUMP JUMPDEST PUSH1 0x40 MLOAD PUSH2 0x9D SWAP2 SWAP1 PUSH2 0x17A JUMP JUMPDEST PUSH1 0x40 MLOAD DUP1 SWAP2 SUB SWAP1 RETURN JUMPDEST PUSH2 0xAE PUSH2 0x10E JUMP JUMPDEST PUSH1 0x40 MLOAD PUSH2 0xBB SWAP2 SWAP1 PUSH2 0x17A JUMP JUMPDEST PUSH1 0x40 MLOAD DUP1 SWAP2 SUB SWAP1 RETURN JUMPDEST PUSH1 0x0 PUSH1 0x20 MSTORE DUP2 PUSH1 0x0 MSTORE PUSH1 0x40 PUSH1 0x0 KECCAK256 PUSH1 0x20 MSTORE DUP1 PUSH1 0x0 MSTORE PUSH1 0x40 PUSH1 0x0 KECCAK256 PUSH1 0x0 SWAP2 POP SWAP2 POP POP SLOAD DUP2 JUMP JUMPDEST PUSH1 0x1 PUSH1 0x20 MSTORE DUP2 PUSH1 0x0 MSTORE PUSH1 0x40 PUSH1 0x0 KECCAK256 PUSH1 0x20 MSTORE DUP1 PUSH1 0x0 MSTORE PUSH1 0x40 PUSH1 0x0 KECCAK256 PUSH1 0x0 SWAP2 POP SWAP2 POP POP SLOAD DUP2 JUMP JUMPDEST PUSH1 0x0 TIMESTAMP SWAP1 POP SWAP1 JUMP JUMPDEST PUSH1 0x0 DUP2 CALLDATALOAD SWAP1 POP PUSH2 0x125 DUP2 PUSH2 0x1D6 JUMP JUMPDEST SWAP3 SWAP2 POP POP JUMP JUMPDEST PUSH1 0x0 DUP1 PUSH1 0x40 DUP4 DUP6 SUB SLT ISZERO PUSH2 0x142 JUMPI PUSH2 0x141 PUSH2 0x1D1 JUMP JUMPDEST JUMPDEST PUSH1 0x0 PUSH2 0x150 DUP6 DUP3 DUP7 ADD PUSH2 0x116 JUMP JUMPDEST SWAP3 POP POP PUSH1 0x20 PUSH2 0x161 DUP6 DUP3 DUP7 ADD PUSH2 0x116 JUMP JUMPDEST SWAP2 POP POP SWAP3 POP SWAP3 SWAP1 POP JUMP JUMPDEST PUSH2 0x174 DUP2 PUSH2 0x1C7 JUMP JUMPDEST DUP3 MSTORE POP POP JUMP JUMPDEST PUSH1 0x0 PUSH1 0x20 DUP3 ADD SWAP1 POP PUSH2 0x18F PUSH1 0x0 DUP4 ADD DUP5 PUSH2 0x16B JUMP JUMPDEST SWAP3 SWAP2 POP POP JUMP JUMPDEST PUSH1 0x0 PUSH2 0x1A0 DUP3 PUSH2 0x1A7 JUMP JUMPDEST SWAP1 POP SWAP2 SWAP1 POP JUMP JUMPDEST PUSH1 0x0 PUSH20 0xFFFFFFFFFFFFFFFFFFFFFFFFFFFFFFFFFFFFFFFF DUP3 AND SWAP1 POP SWAP2 SWAP1 POP JUMP JUMPDEST PUSH1 0x0 DUP2 SWAP1 POP SWAP2 SWAP1 POP JUMP JUMPDEST PUSH1 0x0 DUP1 REVERT JUMPDEST PUSH2 0x1DF DUP2 PUSH2 0x195 JUMP JUMPDEST DUP2 EQ PUSH2 0x1EA JUMPI PUSH1 0x0 DUP1 REVERT JUMPDEST POP JUMP INVALID LOG2 PUSH5 0x6970667358 0x22 SLT KECCAK256 LOG2 0xC8 0xE9 0xB7 0xF6 TIMESTAMP CALLDATALOAD 0xF8 0xB6 PUSH8 0x6C95284CE3F3E23E 0x22 0x5E 0xD0 0x24 0xA6 0xCB XOR PUSH13 0x130BE41B950064736F6C634300 ADDMOD MOD STOP CALLER "
		},
		"gasEstimates": {
			"creation": {
				"codeDepositCost": "109400",
				"executionCost": "infinite",
				"totalCost": "infinite"
			},
			"external": {
				"lenderAssets(address,address)": "infinite",
				"lenderTimestamp(address,address)": "infinite",
				"rewardTokensEarned()": "358"
			}
		},
		"methodIdentifiers": {
			"lenderAssets(address,address)": "442130d0",
			"lenderTimestamp(address,address)": "8a1b1bc4",
			"rewardTokensEarned()": "aff500f2"
		}
	},
	"abi": [
		{
			"inputs": [
				{
					"internalType": "address",
					"name": "",
					"type": "address"
				},
				{
					"internalType": "address",
					"name": "",
					"type": "address"
				}
			],
			"name": "lenderAssets",
			"outputs": [
				{
					"internalType": "uint256",
					"name": "",
					"type": "uint256"
				}
			],
			"stateMutability": "view",
			"type": "function"
		},
		{
			"inputs": [
				{
					"internalType": "address",
					"name": "",
					"type": "address"
				},
				{
					"internalType": "address",
					"name": "",
					"type": "address"
				}
			],
			"name": "lenderTimestamp",
			"outputs": [
				{
					"internalType": "uint256",
					"name": "",
					"type": "uint256"
				}
			],
			"stateMutability": "view",
			"type": "function"
		},
		{
			"inputs": [],
			"name": "rewardTokensEarned",
			"outputs": [
				{
					"internalType": "uint256",
					"name": "",
					"type": "uint256"
				}
			],
			"stateMutability": "view",
			"type": "function"
		}
	]
}