{
	"Defi-project/V2/LendingPool_20230221.sol": {
		"LendingPoolV2": {
			"abi": [
				{
					"inputs": [],
					"stateMutability": "nonpayable",
					"type": "constructor"
				},
				{
					"inputs": [
						{
							"internalType": "address",
							"name": "_token",
							"type": "address"
						},
						{
							"internalType": "uint256",
							"name": "_amount",
							"type": "uint256"
						}
					],
					"name": "lend",
					"outputs": [],
					"stateMutability": "payable",
					"type": "function"
				},
				{
					"inputs": [
						{
							"internalType": "address",
							"name": "",
							"type": "address"
						}
					],
					"name": "reserves",
					"outputs": [
						{
							"internalType": "uint256",
							"name": "",
							"type": "uint256"
						}
					],
					"stateMutability": "view",
					"type": "function"
				},
				{
					"inputs": [
						{
							"internalType": "uint256",
							"name": "",
							"type": "uint256"
						}
					],
					"name": "userAssets",
					"outputs": [
						{
							"internalType": "address",
							"name": "user",
							"type": "address"
						},
						{
							"internalType": "address",
							"name": "token",
							"type": "address"
						},
						{
							"internalType": "uint256",
							"name": "lentQty",
							"type": "uint256"
						},
						{
							"internalType": "uint256",
							"name": "borrowQty",
							"type": "uint256"
						},
						{
							"internalType": "uint256",
							"name": "interestRate",
							"type": "uint256"
						},
						{
							"internalType": "uint256",
							"name": "borrowRate",
							"type": "uint256"
						},
						{
							"internalType": "uint256",
							"name": "lendStartTimeStamp",
							"type": "uint256"
						},
						{
							"internalType": "uint256",
							"name": "borrowStartTimeStamp",
							"type": "uint256"
						}
					],
					"stateMutability": "view",
					"type": "function"
				}
			],
			"devdoc": {
				"kind": "dev",
				"methods": {},
				"version": 1
			},
			"evm": {
				"assembly": "    /* \"Defi-project/V2/LendingPool_20230221.sol\":454:3677  contract LendingPoolV2 is ReentrancyGuard {\r... */\n  mstore(0x40, 0xc0)\n    /* \"Defi-project/V2/LendingPool_20230221.sol\":628:629  3 */\n  0x03\n    /* \"Defi-project/V2/LendingPool_20230221.sol\":594:629  uint256 immutable INTEREST_RATE = 3 */\n  0x80\n  swap1\n  dup2\n  mstore\n  pop\n    /* \"Defi-project/V2/LendingPool_20230221.sol\":668:669  4 */\n  0x04\n    /* \"Defi-project/V2/LendingPool_20230221.sol\":636:669  uint256 immutable BORROW_RATE = 4 */\n  0xa0\n  swap1\n  dup2\n  mstore\n  pop\n    /* \"Defi-project/V2/LendingPool_20230221.sol\":702:704  80 */\n  0x50\n    /* \"Defi-project/V2/LendingPool_20230221.sol\":676:704  uint256 borrowThreshold = 80 */\n  0x02\n  sstore\n    /* \"Defi-project/V2/LendingPool_20230221.sol\":1674:1911  constructor() {\r... */\n  callvalue\n  dup1\n  iszero\n  tag_1\n  jumpi\n  0x00\n  dup1\n  revert\ntag_1:\n  pop\n    /* \"@openzeppelin/contracts/security/ReentrancyGuard.sol\":1716:1717  1 */\n  0x01\n    /* \"@openzeppelin/contracts/security/ReentrancyGuard.sol\":1821:1828  _status */\n  0x00\n    /* \"@openzeppelin/contracts/security/ReentrancyGuard.sol\":1821:1843  _status = _NOT_ENTERED */\n  dup2\n  swap1\n  sstore\n  pop\n    /* \"Defi-project/V2/LendingPool_20230221.sol\":1710:1720  msg.sender */\n  caller\n    /* \"Defi-project/V2/LendingPool_20230221.sol\":1699:1707  deployer */\n  0x01\n  0x00\n    /* \"Defi-project/V2/LendingPool_20230221.sol\":1699:1720  deployer = msg.sender */\n  0x0100\n  exp\n  dup2\n  sload\n  dup2\n  0xffffffffffffffffffffffffffffffffffffffff\n  mul\n  not\n  and\n  swap1\n  dup4\n  0xffffffffffffffffffffffffffffffffffffffff\n  and\n  mul\n  or\n  swap1\n  sstore\n  pop\n    /* \"Defi-project/V2/LendingPool_20230221.sol\":454:3677  contract LendingPoolV2 is ReentrancyGuard {\r... */\n  mload(0x80)\n  mload(0xa0)\n  codecopy(0x00, dataOffset(sub_0), dataSize(sub_0))\n  0x00\n  assignImmutable(\"0x0f1bcf290b66a2cfed5f23463bc63e98c2b29d8093b3c4b39be593d60dfd3630\")\n  0x00\n  assignImmutable(\"0xf63dd2532f4bb354c128345aafbf8d088267c0b2cdfe137c5864fa441df714ed\")\n  return(0x00, dataSize(sub_0))\nstop\n\nsub_0: assembly {\n        /* \"Defi-project/V2/LendingPool_20230221.sol\":454:3677  contract LendingPoolV2 is ReentrancyGuard {\r... */\n      mstore(0x40, 0x80)\n      jumpi(tag_1, lt(calldatasize, 0x04))\n      shr(0xe0, calldataload(0x00))\n      dup1\n      0x4093551d\n      eq\n      tag_2\n      jumpi\n      dup1\n      0xa2fb342d\n      eq\n      tag_3\n      jumpi\n      dup1\n      0xd66bd524\n      eq\n      tag_4\n      jumpi\n    tag_1:\n      0x00\n      dup1\n      revert\n        /* \"Defi-project/V2/LendingPool_20230221.sol\":1382:1411  UserAsset[] public userAssets */\n    tag_2:\n      callvalue\n      dup1\n      iszero\n      tag_5\n      jumpi\n      0x00\n      dup1\n      revert\n    tag_5:\n      pop\n      tag_6\n      0x04\n      dup1\n      calldatasize\n      sub\n      dup2\n      add\n      swap1\n      tag_7\n      swap2\n      swap1\n      tag_8\n      jump\t// in\n    tag_7:\n      tag_9\n      jump\t// in\n    tag_6:\n      mload(0x40)\n      tag_10\n      swap9\n      swap8\n      swap7\n      swap6\n      swap5\n      swap4\n      swap3\n      swap2\n      swap1\n      tag_11\n      jump\t// in\n    tag_10:\n      mload(0x40)\n      dup1\n      swap2\n      sub\n      swap1\n      return\n        /* \"Defi-project/V2/LendingPool_20230221.sol\":2347:3670  function lend(address _token, uint256 _amount) public payable {\r... */\n    tag_3:\n      tag_12\n      0x04\n      dup1\n      calldatasize\n      sub\n      dup2\n      add\n      swap1\n      tag_13\n      swap2\n      swap1\n      tag_14\n      jump\t// in\n    tag_13:\n      tag_15\n      jump\t// in\n    tag_12:\n      stop\n        /* \"Defi-project/V2/LendingPool_20230221.sol\":784:825  mapping (address => uint) public reserves */\n    tag_4:\n      callvalue\n      dup1\n      iszero\n      tag_16\n      jumpi\n      0x00\n      dup1\n      revert\n    tag_16:\n      pop\n      tag_17\n      0x04\n      dup1\n      calldatasize\n      sub\n      dup2\n      add\n      swap1\n      tag_18\n      swap2\n      swap1\n      tag_19\n      jump\t// in\n    tag_18:\n      tag_20\n      jump\t// in\n    tag_17:\n      mload(0x40)\n      tag_21\n      swap2\n      swap1\n      tag_22\n      jump\t// in\n    tag_21:\n      mload(0x40)\n      dup1\n      swap2\n      sub\n      swap1\n      return\n        /* \"Defi-project/V2/LendingPool_20230221.sol\":1382:1411  UserAsset[] public userAssets */\n    tag_9:\n      0x06\n      dup2\n      dup2\n      sload\n      dup2\n      lt\n      tag_23\n      jumpi\n      0x00\n      dup1\n      revert\n    tag_23:\n      swap1\n      0x00\n      mstore\n      keccak256(0x00, 0x20)\n      swap1\n      0x08\n      mul\n      add\n      0x00\n      swap2\n      pop\n      swap1\n      pop\n      dup1\n      0x00\n      add\n      0x00\n      swap1\n      sload\n      swap1\n      0x0100\n      exp\n      swap1\n      div\n      0xffffffffffffffffffffffffffffffffffffffff\n      and\n      swap1\n      dup1\n      0x01\n      add\n      0x00\n      swap1\n      sload\n      swap1\n      0x0100\n      exp\n      swap1\n      div\n      0xffffffffffffffffffffffffffffffffffffffff\n      and\n      swap1\n      dup1\n      0x02\n      add\n      sload\n      swap1\n      dup1\n      0x03\n      add\n      sload\n      swap1\n      dup1\n      0x04\n      add\n      sload\n      swap1\n      dup1\n      0x05\n      add\n      sload\n      swap1\n      dup1\n      0x06\n      add\n      sload\n      swap1\n      dup1\n      0x07\n      add\n      sload\n      swap1\n      pop\n      dup9\n      jump\t// out\n        /* \"Defi-project/V2/LendingPool_20230221.sol\":2347:3670  function lend(address _token, uint256 _amount) public payable {\r... */\n    tag_15:\n        /* \"Defi-project/V2/LendingPool_20230221.sol\":2506:2520  address lender */\n      0x00\n        /* \"Defi-project/V2/LendingPool_20230221.sol\":2523:2533  msg.sender */\n      caller\n        /* \"Defi-project/V2/LendingPool_20230221.sol\":2506:2533  address lender = msg.sender */\n      swap1\n      pop\n        /* \"Defi-project/V2/LendingPool_20230221.sol\":2759:2770  uint amount */\n      0x00\n        /* \"Defi-project/V2/LendingPool_20230221.sol\":2804:2811  _amount */\n      dup3\n        /* \"Defi-project/V2/LendingPool_20230221.sol\":2773:2785  lenderAssets */\n      0x05\n        /* \"Defi-project/V2/LendingPool_20230221.sol\":2773:2793  lenderAssets[lender] */\n      0x00\n        /* \"Defi-project/V2/LendingPool_20230221.sol\":2786:2792  lender */\n      dup5\n        /* \"Defi-project/V2/LendingPool_20230221.sol\":2773:2793  lenderAssets[lender] */\n      0xffffffffffffffffffffffffffffffffffffffff\n      and\n      0xffffffffffffffffffffffffffffffffffffffff\n      and\n      dup2\n      mstore\n      0x20\n      add\n      swap1\n      dup2\n      mstore\n      0x20\n      add\n      0x00\n      keccak256\n        /* \"Defi-project/V2/LendingPool_20230221.sol\":2773:2801  lenderAssets[lender][_token] */\n      0x00\n        /* \"Defi-project/V2/LendingPool_20230221.sol\":2794:2800  _token */\n      dup7\n        /* \"Defi-project/V2/LendingPool_20230221.sol\":2773:2801  lenderAssets[lender][_token] */\n      0xffffffffffffffffffffffffffffffffffffffff\n      and\n      0xffffffffffffffffffffffffffffffffffffffff\n      and\n      dup2\n      mstore\n      0x20\n      add\n      swap1\n      dup2\n      mstore\n      0x20\n      add\n      0x00\n      keccak256\n      sload\n        /* \"Defi-project/V2/LendingPool_20230221.sol\":2773:2811  lenderAssets[lender][_token] + _amount */\n      tag_26\n      swap2\n      swap1\n      tag_27\n      jump\t// in\n    tag_26:\n        /* \"Defi-project/V2/LendingPool_20230221.sol\":2759:2811  uint amount = lenderAssets[lender][_token] + _amount */\n      swap1\n      pop\n        /* \"Defi-project/V2/LendingPool_20230221.sol\":2822:2848  UserAsset memory userAsset */\n      0x00\n        /* \"Defi-project/V2/LendingPool_20230221.sol\":2851:3142  UserAsset({\r... */\n      mload(0x40)\n      dup1\n      0x0100\n      add\n      0x40\n      mstore\n      dup1\n        /* \"Defi-project/V2/LendingPool_20230221.sol\":2882:2888  lender */\n      dup5\n        /* \"Defi-project/V2/LendingPool_20230221.sol\":2851:3142  UserAsset({\r... */\n      0xffffffffffffffffffffffffffffffffffffffff\n      and\n      dup2\n      mstore\n      0x20\n      add\n        /* \"Defi-project/V2/LendingPool_20230221.sol\":2910:2916  _token */\n      dup7\n        /* \"Defi-project/V2/LendingPool_20230221.sol\":2851:3142  UserAsset({\r... */\n      0xffffffffffffffffffffffffffffffffffffffff\n      and\n      dup2\n      mstore\n      0x20\n      add\n        /* \"Defi-project/V2/LendingPool_20230221.sol\":2940:2946  amount */\n      dup4\n        /* \"Defi-project/V2/LendingPool_20230221.sol\":2851:3142  UserAsset({\r... */\n      dup2\n      mstore\n      0x20\n      add\n        /* \"Defi-project/V2/LendingPool_20230221.sol\":2972:2973  0 */\n      0x00\n        /* \"Defi-project/V2/LendingPool_20230221.sol\":2851:3142  UserAsset({\r... */\n      dup2\n      mstore\n      0x20\n      add\n        /* \"Defi-project/V2/LendingPool_20230221.sol\":3002:3015  INTEREST_RATE */\n      immutable(\"0xf63dd2532f4bb354c128345aafbf8d088267c0b2cdfe137c5864fa441df714ed\")\n        /* \"Defi-project/V2/LendingPool_20230221.sol\":2851:3142  UserAsset({\r... */\n      dup2\n      mstore\n      0x20\n      add\n        /* \"Defi-project/V2/LendingPool_20230221.sol\":3042:3043  0 */\n      0x00\n        /* \"Defi-project/V2/LendingPool_20230221.sol\":2851:3142  UserAsset({\r... */\n      dup2\n      mstore\n      0x20\n      add\n        /* \"Defi-project/V2/LendingPool_20230221.sol\":3078:3093  block.timestamp */\n      timestamp\n        /* \"Defi-project/V2/LendingPool_20230221.sol\":2851:3142  UserAsset({\r... */\n      dup2\n      mstore\n      0x20\n      add\n        /* \"Defi-project/V2/LendingPool_20230221.sol\":3129:3130  0 */\n      0x00\n        /* \"Defi-project/V2/LendingPool_20230221.sol\":2851:3142  UserAsset({\r... */\n      dup2\n      mstore\n      pop\n        /* \"Defi-project/V2/LendingPool_20230221.sol\":2822:3142  UserAsset memory userAsset = UserAsset({\r... */\n      swap1\n      pop\n        /* \"Defi-project/V2/LendingPool_20230221.sol\":3163:3173  userAssets */\n      0x06\n        /* \"Defi-project/V2/LendingPool_20230221.sol\":3179:3188  userAsset */\n      dup2\n        /* \"Defi-project/V2/LendingPool_20230221.sol\":3163:3189  userAssets.push(userAsset) */\n      swap1\n      dup1\n      0x01\n      dup2\n      sload\n      add\n      dup1\n      dup3\n      sstore\n      dup1\n      swap2\n      pop\n      pop\n      0x01\n      swap1\n      sub\n      swap1\n      0x00\n      mstore\n      keccak256(0x00, 0x20)\n      swap1\n      0x08\n      mul\n      add\n      0x00\n      swap1\n      swap2\n      swap1\n      swap2\n      swap1\n      swap2\n      pop\n      0x00\n      dup3\n      add\n      mload\n      dup2\n      0x00\n      add\n      exp(0x0100, 0x00)\n      dup2\n      sload\n      dup2\n      0xffffffffffffffffffffffffffffffffffffffff\n      mul\n      not\n      and\n      swap1\n      dup4\n      0xffffffffffffffffffffffffffffffffffffffff\n      and\n      mul\n      or\n      swap1\n      sstore\n      pop\n      0x20\n      dup3\n      add\n      mload\n      dup2\n      0x01\n      add\n      exp(0x0100, 0x00)\n      dup2\n      sload\n      dup2\n      0xffffffffffffffffffffffffffffffffffffffff\n      mul\n      not\n      and\n      swap1\n      dup4\n      0xffffffffffffffffffffffffffffffffffffffff\n      and\n      mul\n      or\n      swap1\n      sstore\n      pop\n      0x40\n      dup3\n      add\n      mload\n      dup2\n      0x02\n      add\n      sstore\n      0x60\n      dup3\n      add\n      mload\n      dup2\n      0x03\n      add\n      sstore\n      0x80\n      dup3\n      add\n      mload\n      dup2\n      0x04\n      add\n      sstore\n      0xa0\n      dup3\n      add\n      mload\n      dup2\n      0x05\n      add\n      sstore\n      0xc0\n      dup3\n      add\n      mload\n      dup2\n      0x06\n      add\n      sstore\n      0xe0\n      dup3\n      add\n      mload\n      dup2\n      0x07\n      add\n      sstore\n      pop\n      pop\n        /* \"Defi-project/V2/LendingPool_20230221.sol\":3298:3304  amount */\n      dup2\n        /* \"Defi-project/V2/LendingPool_20230221.sol\":3267:3279  lenderAssets */\n      0x05\n        /* \"Defi-project/V2/LendingPool_20230221.sol\":3267:3287  lenderAssets[lender] */\n      0x00\n        /* \"Defi-project/V2/LendingPool_20230221.sol\":3280:3286  lender */\n      dup6\n        /* \"Defi-project/V2/LendingPool_20230221.sol\":3267:3287  lenderAssets[lender] */\n      0xffffffffffffffffffffffffffffffffffffffff\n      and\n      0xffffffffffffffffffffffffffffffffffffffff\n      and\n      dup2\n      mstore\n      0x20\n      add\n      swap1\n      dup2\n      mstore\n      0x20\n      add\n      0x00\n      keccak256\n        /* \"Defi-project/V2/LendingPool_20230221.sol\":3267:3295  lenderAssets[lender][_token] */\n      0x00\n        /* \"Defi-project/V2/LendingPool_20230221.sol\":3288:3294  _token */\n      dup8\n        /* \"Defi-project/V2/LendingPool_20230221.sol\":3267:3295  lenderAssets[lender][_token] */\n      0xffffffffffffffffffffffffffffffffffffffff\n      and\n      0xffffffffffffffffffffffffffffffffffffffff\n      and\n      dup2\n      mstore\n      0x20\n      add\n      swap1\n      dup2\n      mstore\n      0x20\n      add\n      0x00\n      keccak256\n        /* \"Defi-project/V2/LendingPool_20230221.sol\":3267:3304  lenderAssets[lender][_token] = amount */\n      dup2\n      swap1\n      sstore\n      pop\n        /* \"Defi-project/V2/LendingPool_20230221.sol\":3523:3530  _amount */\n      dup4\n        /* \"Defi-project/V2/LendingPool_20230221.sol\":3503:3511  reserves */\n      0x03\n        /* \"Defi-project/V2/LendingPool_20230221.sol\":3503:3519  reserves[_token] */\n      0x00\n        /* \"Defi-project/V2/LendingPool_20230221.sol\":3512:3518  _token */\n      dup8\n        /* \"Defi-project/V2/LendingPool_20230221.sol\":3503:3519  reserves[_token] */\n      0xffffffffffffffffffffffffffffffffffffffff\n      and\n      0xffffffffffffffffffffffffffffffffffffffff\n      and\n      dup2\n      mstore\n      0x20\n      add\n      swap1\n      dup2\n      mstore\n      0x20\n      add\n      0x00\n      keccak256\n      0x00\n        /* \"Defi-project/V2/LendingPool_20230221.sol\":3503:3530  reserves[_token] += _amount */\n      dup3\n      dup3\n      sload\n      tag_29\n      swap2\n      swap1\n      tag_27\n      jump\t// in\n    tag_29:\n      swap3\n      pop\n      pop\n      dup2\n      swap1\n      sstore\n      pop\n        /* \"Defi-project/V2/LendingPool_20230221.sol\":3636:3649  reverseAssets */\n      0x04\n        /* \"Defi-project/V2/LendingPool_20230221.sol\":3655:3661  _token */\n      dup6\n        /* \"Defi-project/V2/LendingPool_20230221.sol\":3636:3662  reverseAssets.push(_token) */\n      swap1\n      dup1\n      0x01\n      dup2\n      sload\n      add\n      dup1\n      dup3\n      sstore\n      dup1\n      swap2\n      pop\n      pop\n      0x01\n      swap1\n      sub\n      swap1\n      0x00\n      mstore\n      keccak256(0x00, 0x20)\n      add\n      0x00\n      swap1\n      swap2\n      swap1\n      swap2\n      swap1\n      swap2\n      0x0100\n      exp\n      dup2\n      sload\n      dup2\n      0xffffffffffffffffffffffffffffffffffffffff\n      mul\n      not\n      and\n      swap1\n      dup4\n      0xffffffffffffffffffffffffffffffffffffffff\n      and\n      mul\n      or\n      swap1\n      sstore\n      pop\n        /* \"Defi-project/V2/LendingPool_20230221.sol\":2409:3670  {\r... */\n      pop\n      pop\n      pop\n        /* \"Defi-project/V2/LendingPool_20230221.sol\":2347:3670  function lend(address _token, uint256 _amount) public payable {\r... */\n      pop\n      pop\n      jump\t// out\n        /* \"Defi-project/V2/LendingPool_20230221.sol\":784:825  mapping (address => uint) public reserves */\n    tag_20:\n      mstore(0x20, 0x03)\n      dup1\n      0x00\n      mstore\n      keccak256(0x00, 0x40)\n      0x00\n      swap2\n      pop\n      swap1\n      pop\n      sload\n      dup2\n      jump\t// out\n        /* \"#utility.yul\":7:146   */\n    tag_32:\n        /* \"#utility.yul\":53:58   */\n      0x00\n        /* \"#utility.yul\":91:97   */\n      dup2\n        /* \"#utility.yul\":78:98   */\n      calldataload\n        /* \"#utility.yul\":69:98   */\n      swap1\n      pop\n        /* \"#utility.yul\":107:140   */\n      tag_34\n        /* \"#utility.yul\":134:139   */\n      dup2\n        /* \"#utility.yul\":107:140   */\n      tag_35\n      jump\t// in\n    tag_34:\n        /* \"#utility.yul\":59:146   */\n      swap3\n      swap2\n      pop\n      pop\n      jump\t// out\n        /* \"#utility.yul\":152:291   */\n    tag_36:\n        /* \"#utility.yul\":198:203   */\n      0x00\n        /* \"#utility.yul\":236:242   */\n      dup2\n        /* \"#utility.yul\":223:243   */\n      calldataload\n        /* \"#utility.yul\":214:243   */\n      swap1\n      pop\n        /* \"#utility.yul\":252:285   */\n      tag_38\n        /* \"#utility.yul\":279:284   */\n      dup2\n        /* \"#utility.yul\":252:285   */\n      tag_39\n      jump\t// in\n    tag_38:\n        /* \"#utility.yul\":204:291   */\n      swap3\n      swap2\n      pop\n      pop\n      jump\t// out\n        /* \"#utility.yul\":297:626   */\n    tag_19:\n        /* \"#utility.yul\":356:362   */\n      0x00\n        /* \"#utility.yul\":405:407   */\n      0x20\n        /* \"#utility.yul\":393:402   */\n      dup3\n        /* \"#utility.yul\":384:391   */\n      dup5\n        /* \"#utility.yul\":380:403   */\n      sub\n        /* \"#utility.yul\":376:408   */\n      slt\n        /* \"#utility.yul\":373:375   */\n      iszero\n      tag_41\n      jumpi\n        /* \"#utility.yul\":411:490   */\n      tag_42\n      tag_43\n      jump\t// in\n    tag_42:\n        /* \"#utility.yul\":373:375   */\n    tag_41:\n        /* \"#utility.yul\":531:532   */\n      0x00\n        /* \"#utility.yul\":556:609   */\n      tag_44\n        /* \"#utility.yul\":601:608   */\n      dup5\n        /* \"#utility.yul\":592:598   */\n      dup3\n        /* \"#utility.yul\":581:590   */\n      dup6\n        /* \"#utility.yul\":577:599   */\n      add\n        /* \"#utility.yul\":556:609   */\n      tag_32\n      jump\t// in\n    tag_44:\n        /* \"#utility.yul\":546:609   */\n      swap2\n      pop\n        /* \"#utility.yul\":502:619   */\n      pop\n        /* \"#utility.yul\":363:626   */\n      swap3\n      swap2\n      pop\n      pop\n      jump\t// out\n        /* \"#utility.yul\":632:1106   */\n    tag_14:\n        /* \"#utility.yul\":700:706   */\n      0x00\n        /* \"#utility.yul\":708:714   */\n      dup1\n        /* \"#utility.yul\":757:759   */\n      0x40\n        /* \"#utility.yul\":745:754   */\n      dup4\n        /* \"#utility.yul\":736:743   */\n      dup6\n        /* \"#utility.yul\":732:755   */\n      sub\n        /* \"#utility.yul\":728:760   */\n      slt\n        /* \"#utility.yul\":725:727   */\n      iszero\n      tag_46\n      jumpi\n        /* \"#utility.yul\":763:842   */\n      tag_47\n      tag_43\n      jump\t// in\n    tag_47:\n        /* \"#utility.yul\":725:727   */\n    tag_46:\n        /* \"#utility.yul\":883:884   */\n      0x00\n        /* \"#utility.yul\":908:961   */\n      tag_48\n        /* \"#utility.yul\":953:960   */\n      dup6\n        /* \"#utility.yul\":944:950   */\n      dup3\n        /* \"#utility.yul\":933:942   */\n      dup7\n        /* \"#utility.yul\":929:951   */\n      add\n        /* \"#utility.yul\":908:961   */\n      tag_32\n      jump\t// in\n    tag_48:\n        /* \"#utility.yul\":898:961   */\n      swap3\n      pop\n        /* \"#utility.yul\":854:971   */\n      pop\n        /* \"#utility.yul\":1010:1012   */\n      0x20\n        /* \"#utility.yul\":1036:1089   */\n      tag_49\n        /* \"#utility.yul\":1081:1088   */\n      dup6\n        /* \"#utility.yul\":1072:1078   */\n      dup3\n        /* \"#utility.yul\":1061:1070   */\n      dup7\n        /* \"#utility.yul\":1057:1079   */\n      add\n        /* \"#utility.yul\":1036:1089   */\n      tag_36\n      jump\t// in\n    tag_49:\n        /* \"#utility.yul\":1026:1089   */\n      swap2\n      pop\n        /* \"#utility.yul\":981:1099   */\n      pop\n        /* \"#utility.yul\":715:1106   */\n      swap3\n      pop\n      swap3\n      swap1\n      pop\n      jump\t// out\n        /* \"#utility.yul\":1112:1441   */\n    tag_8:\n        /* \"#utility.yul\":1171:1177   */\n      0x00\n        /* \"#utility.yul\":1220:1222   */\n      0x20\n        /* \"#utility.yul\":1208:1217   */\n      dup3\n        /* \"#utility.yul\":1199:1206   */\n      dup5\n        /* \"#utility.yul\":1195:1218   */\n      sub\n        /* \"#utility.yul\":1191:1223   */\n      slt\n        /* \"#utility.yul\":1188:1190   */\n      iszero\n      tag_51\n      jumpi\n        /* \"#utility.yul\":1226:1305   */\n      tag_52\n      tag_43\n      jump\t// in\n    tag_52:\n        /* \"#utility.yul\":1188:1190   */\n    tag_51:\n        /* \"#utility.yul\":1346:1347   */\n      0x00\n        /* \"#utility.yul\":1371:1424   */\n      tag_53\n        /* \"#utility.yul\":1416:1423   */\n      dup5\n        /* \"#utility.yul\":1407:1413   */\n      dup3\n        /* \"#utility.yul\":1396:1405   */\n      dup6\n        /* \"#utility.yul\":1392:1414   */\n      add\n        /* \"#utility.yul\":1371:1424   */\n      tag_36\n      jump\t// in\n    tag_53:\n        /* \"#utility.yul\":1361:1424   */\n      swap2\n      pop\n        /* \"#utility.yul\":1317:1434   */\n      pop\n        /* \"#utility.yul\":1178:1441   */\n      swap3\n      swap2\n      pop\n      pop\n      jump\t// out\n        /* \"#utility.yul\":1447:1565   */\n    tag_54:\n        /* \"#utility.yul\":1534:1558   */\n      tag_56\n        /* \"#utility.yul\":1552:1557   */\n      dup2\n        /* \"#utility.yul\":1534:1558   */\n      tag_57\n      jump\t// in\n    tag_56:\n        /* \"#utility.yul\":1529:1532   */\n      dup3\n        /* \"#utility.yul\":1522:1559   */\n      mstore\n        /* \"#utility.yul\":1512:1565   */\n      pop\n      pop\n      jump\t// out\n        /* \"#utility.yul\":1571:1689   */\n    tag_58:\n        /* \"#utility.yul\":1658:1682   */\n      tag_60\n        /* \"#utility.yul\":1676:1681   */\n      dup2\n        /* \"#utility.yul\":1658:1682   */\n      tag_61\n      jump\t// in\n    tag_60:\n        /* \"#utility.yul\":1653:1656   */\n      dup3\n        /* \"#utility.yul\":1646:1683   */\n      mstore\n        /* \"#utility.yul\":1636:1689   */\n      pop\n      pop\n      jump\t// out\n        /* \"#utility.yul\":1695:2692   */\n    tag_11:\n        /* \"#utility.yul\":1984:1988   */\n      0x00\n        /* \"#utility.yul\":2022:2025   */\n      0x0100\n        /* \"#utility.yul\":2011:2020   */\n      dup3\n        /* \"#utility.yul\":2007:2026   */\n      add\n        /* \"#utility.yul\":1999:2026   */\n      swap1\n      pop\n        /* \"#utility.yul\":2036:2107   */\n      tag_63\n        /* \"#utility.yul\":2104:2105   */\n      0x00\n        /* \"#utility.yul\":2093:2102   */\n      dup4\n        /* \"#utility.yul\":2089:2106   */\n      add\n        /* \"#utility.yul\":2080:2086   */\n      dup12\n        /* \"#utility.yul\":2036:2107   */\n      tag_54\n      jump\t// in\n    tag_63:\n        /* \"#utility.yul\":2117:2189   */\n      tag_64\n        /* \"#utility.yul\":2185:2187   */\n      0x20\n        /* \"#utility.yul\":2174:2183   */\n      dup4\n        /* \"#utility.yul\":2170:2188   */\n      add\n        /* \"#utility.yul\":2161:2167   */\n      dup11\n        /* \"#utility.yul\":2117:2189   */\n      tag_54\n      jump\t// in\n    tag_64:\n        /* \"#utility.yul\":2199:2271   */\n      tag_65\n        /* \"#utility.yul\":2267:2269   */\n      0x40\n        /* \"#utility.yul\":2256:2265   */\n      dup4\n        /* \"#utility.yul\":2252:2270   */\n      add\n        /* \"#utility.yul\":2243:2249   */\n      dup10\n        /* \"#utility.yul\":2199:2271   */\n      tag_58\n      jump\t// in\n    tag_65:\n        /* \"#utility.yul\":2281:2353   */\n      tag_66\n        /* \"#utility.yul\":2349:2351   */\n      0x60\n        /* \"#utility.yul\":2338:2347   */\n      dup4\n        /* \"#utility.yul\":2334:2352   */\n      add\n        /* \"#utility.yul\":2325:2331   */\n      dup9\n        /* \"#utility.yul\":2281:2353   */\n      tag_58\n      jump\t// in\n    tag_66:\n        /* \"#utility.yul\":2363:2436   */\n      tag_67\n        /* \"#utility.yul\":2431:2434   */\n      0x80\n        /* \"#utility.yul\":2420:2429   */\n      dup4\n        /* \"#utility.yul\":2416:2435   */\n      add\n        /* \"#utility.yul\":2407:2413   */\n      dup8\n        /* \"#utility.yul\":2363:2436   */\n      tag_58\n      jump\t// in\n    tag_67:\n        /* \"#utility.yul\":2446:2519   */\n      tag_68\n        /* \"#utility.yul\":2514:2517   */\n      0xa0\n        /* \"#utility.yul\":2503:2512   */\n      dup4\n        /* \"#utility.yul\":2499:2518   */\n      add\n        /* \"#utility.yul\":2490:2496   */\n      dup7\n        /* \"#utility.yul\":2446:2519   */\n      tag_58\n      jump\t// in\n    tag_68:\n        /* \"#utility.yul\":2529:2602   */\n      tag_69\n        /* \"#utility.yul\":2597:2600   */\n      0xc0\n        /* \"#utility.yul\":2586:2595   */\n      dup4\n        /* \"#utility.yul\":2582:2601   */\n      add\n        /* \"#utility.yul\":2573:2579   */\n      dup6\n        /* \"#utility.yul\":2529:2602   */\n      tag_58\n      jump\t// in\n    tag_69:\n        /* \"#utility.yul\":2612:2685   */\n      tag_70\n        /* \"#utility.yul\":2680:2683   */\n      0xe0\n        /* \"#utility.yul\":2669:2678   */\n      dup4\n        /* \"#utility.yul\":2665:2684   */\n      add\n        /* \"#utility.yul\":2656:2662   */\n      dup5\n        /* \"#utility.yul\":2612:2685   */\n      tag_58\n      jump\t// in\n    tag_70:\n        /* \"#utility.yul\":1989:2692   */\n      swap10\n      swap9\n      pop\n      pop\n      pop\n      pop\n      pop\n      pop\n      pop\n      pop\n      pop\n      jump\t// out\n        /* \"#utility.yul\":2698:2920   */\n    tag_22:\n        /* \"#utility.yul\":2791:2795   */\n      0x00\n        /* \"#utility.yul\":2829:2831   */\n      0x20\n        /* \"#utility.yul\":2818:2827   */\n      dup3\n        /* \"#utility.yul\":2814:2832   */\n      add\n        /* \"#utility.yul\":2806:2832   */\n      swap1\n      pop\n        /* \"#utility.yul\":2842:2913   */\n      tag_72\n        /* \"#utility.yul\":2910:2911   */\n      0x00\n        /* \"#utility.yul\":2899:2908   */\n      dup4\n        /* \"#utility.yul\":2895:2912   */\n      add\n        /* \"#utility.yul\":2886:2892   */\n      dup5\n        /* \"#utility.yul\":2842:2913   */\n      tag_58\n      jump\t// in\n    tag_72:\n        /* \"#utility.yul\":2796:2920   */\n      swap3\n      swap2\n      pop\n      pop\n      jump\t// out\n        /* \"#utility.yul\":3007:3312   */\n    tag_27:\n        /* \"#utility.yul\":3047:3050   */\n      0x00\n        /* \"#utility.yul\":3066:3086   */\n      tag_76\n        /* \"#utility.yul\":3084:3085   */\n      dup3\n        /* \"#utility.yul\":3066:3086   */\n      tag_61\n      jump\t// in\n    tag_76:\n        /* \"#utility.yul\":3061:3086   */\n      swap2\n      pop\n        /* \"#utility.yul\":3100:3120   */\n      tag_77\n        /* \"#utility.yul\":3118:3119   */\n      dup4\n        /* \"#utility.yul\":3100:3120   */\n      tag_61\n      jump\t// in\n    tag_77:\n        /* \"#utility.yul\":3095:3120   */\n      swap3\n      pop\n        /* \"#utility.yul\":3254:3255   */\n      dup3\n        /* \"#utility.yul\":3186:3252   */\n      0xffffffffffffffffffffffffffffffffffffffffffffffffffffffffffffffff\n        /* \"#utility.yul\":3182:3256   */\n      sub\n        /* \"#utility.yul\":3179:3180   */\n      dup3\n        /* \"#utility.yul\":3176:3257   */\n      gt\n        /* \"#utility.yul\":3173:3175   */\n      iszero\n      tag_78\n      jumpi\n        /* \"#utility.yul\":3260:3278   */\n      tag_79\n      tag_80\n      jump\t// in\n    tag_79:\n        /* \"#utility.yul\":3173:3175   */\n    tag_78:\n        /* \"#utility.yul\":3304:3305   */\n      dup3\n        /* \"#utility.yul\":3301:3302   */\n      dup3\n        /* \"#utility.yul\":3297:3306   */\n      add\n        /* \"#utility.yul\":3290:3306   */\n      swap1\n      pop\n        /* \"#utility.yul\":3051:3312   */\n      swap3\n      swap2\n      pop\n      pop\n      jump\t// out\n        /* \"#utility.yul\":3318:3414   */\n    tag_57:\n        /* \"#utility.yul\":3355:3362   */\n      0x00\n        /* \"#utility.yul\":3384:3408   */\n      tag_82\n        /* \"#utility.yul\":3402:3407   */\n      dup3\n        /* \"#utility.yul\":3384:3408   */\n      tag_83\n      jump\t// in\n    tag_82:\n        /* \"#utility.yul\":3373:3408   */\n      swap1\n      pop\n        /* \"#utility.yul\":3363:3414   */\n      swap2\n      swap1\n      pop\n      jump\t// out\n        /* \"#utility.yul\":3420:3546   */\n    tag_83:\n        /* \"#utility.yul\":3457:3464   */\n      0x00\n        /* \"#utility.yul\":3497:3539   */\n      0xffffffffffffffffffffffffffffffffffffffff\n        /* \"#utility.yul\":3490:3495   */\n      dup3\n        /* \"#utility.yul\":3486:3540   */\n      and\n        /* \"#utility.yul\":3475:3540   */\n      swap1\n      pop\n        /* \"#utility.yul\":3465:3546   */\n      swap2\n      swap1\n      pop\n      jump\t// out\n        /* \"#utility.yul\":3552:3629   */\n    tag_61:\n        /* \"#utility.yul\":3589:3596   */\n      0x00\n        /* \"#utility.yul\":3618:3623   */\n      dup2\n        /* \"#utility.yul\":3607:3623   */\n      swap1\n      pop\n        /* \"#utility.yul\":3597:3629   */\n      swap2\n      swap1\n      pop\n      jump\t// out\n        /* \"#utility.yul\":3635:3815   */\n    tag_80:\n        /* \"#utility.yul\":3683:3760   */\n      0x4e487b7100000000000000000000000000000000000000000000000000000000\n        /* \"#utility.yul\":3680:3681   */\n      0x00\n        /* \"#utility.yul\":3673:3761   */\n      mstore\n        /* \"#utility.yul\":3780:3784   */\n      0x11\n        /* \"#utility.yul\":3777:3778   */\n      0x04\n        /* \"#utility.yul\":3770:3785   */\n      mstore\n        /* \"#utility.yul\":3804:3808   */\n      0x24\n        /* \"#utility.yul\":3801:3802   */\n      0x00\n        /* \"#utility.yul\":3794:3809   */\n      revert\n        /* \"#utility.yul\":3944:4061   */\n    tag_43:\n        /* \"#utility.yul\":4053:4054   */\n      0x00\n        /* \"#utility.yul\":4050:4051   */\n      dup1\n        /* \"#utility.yul\":4043:4055   */\n      revert\n        /* \"#utility.yul\":4067:4189   */\n    tag_35:\n        /* \"#utility.yul\":4140:4164   */\n      tag_91\n        /* \"#utility.yul\":4158:4163   */\n      dup2\n        /* \"#utility.yul\":4140:4164   */\n      tag_57\n      jump\t// in\n    tag_91:\n        /* \"#utility.yul\":4133:4138   */\n      dup2\n        /* \"#utility.yul\":4130:4165   */\n      eq\n        /* \"#utility.yul\":4120:4122   */\n      tag_92\n      jumpi\n        /* \"#utility.yul\":4179:4180   */\n      0x00\n        /* \"#utility.yul\":4176:4177   */\n      dup1\n        /* \"#utility.yul\":4169:4181   */\n      revert\n        /* \"#utility.yul\":4120:4122   */\n    tag_92:\n        /* \"#utility.yul\":4110:4189   */\n      pop\n      jump\t// out\n        /* \"#utility.yul\":4195:4317   */\n    tag_39:\n        /* \"#utility.yul\":4268:4292   */\n      tag_94\n        /* \"#utility.yul\":4286:4291   */\n      dup2\n        /* \"#utility.yul\":4268:4292   */\n      tag_61\n      jump\t// in\n    tag_94:\n        /* \"#utility.yul\":4261:4266   */\n      dup2\n        /* \"#utility.yul\":4258:4293   */\n      eq\n        /* \"#utility.yul\":4248:4250   */\n      tag_95\n      jumpi\n        /* \"#utility.yul\":4307:4308   */\n      0x00\n        /* \"#utility.yul\":4304:4305   */\n      dup1\n        /* \"#utility.yul\":4297:4309   */\n      revert\n        /* \"#utility.yul\":4248:4250   */\n    tag_95:\n        /* \"#utility.yul\":4238:4317   */\n      pop\n      jump\t// out\n\n    auxdata: 0xa2646970667358221220431b41622dc63f613a5d967b900ef2188e48190617cf9a8971560061513855ae64736f6c63430008060033\n}\n",
				"bytecode": {
					"linkReferences": {},
					"object": "60c06040526003608090815250600460a090815250605060025534801561002557600080fd5b50600160008190555033600160006101000a81548173ffffffffffffffffffffffffffffffffffffffff021916908373ffffffffffffffffffffffffffffffffffffffff16021790555060805160a05161078261009160003960005050600061025401526107826000f3fe6080604052600436106100345760003560e01c80634093551d14610039578063a2fb342d1461007d578063d66bd52414610099575b600080fd5b34801561004557600080fd5b50610060600480360381019061005b9190610574565b6100d6565b6040516100749897969594939291906105bf565b60405180910390f35b61009760048036038101906100929190610534565b61016e565b005b3480156100a557600080fd5b506100c060048036038101906100bb9190610507565b6104c5565b6040516100cd919061063d565b60405180910390f35b600681815481106100e657600080fd5b90600052602060002090600802016000915090508060000160009054906101000a900473ffffffffffffffffffffffffffffffffffffffff16908060010160009054906101000a900473ffffffffffffffffffffffffffffffffffffffff16908060020154908060030154908060040154908060050154908060060154908060070154905088565b6000339050600082600560008473ffffffffffffffffffffffffffffffffffffffff1673ffffffffffffffffffffffffffffffffffffffff16815260200190815260200160002060008673ffffffffffffffffffffffffffffffffffffffff1673ffffffffffffffffffffffffffffffffffffffff168152602001908152602001600020546101fd9190610658565b905060006040518061010001604052808473ffffffffffffffffffffffffffffffffffffffff1681526020018673ffffffffffffffffffffffffffffffffffffffff168152602001838152602001600081526020017f000000000000000000000000000000000000000000000000000000000000000081526020016000815260200142815260200160008152509050600681908060018154018082558091505060019003906000526020600020906008020160009091909190915060008201518160000160006101000a81548173ffffffffffffffffffffffffffffffffffffffff021916908373ffffffffffffffffffffffffffffffffffffffff16021790555060208201518160010160006101000a81548173ffffffffffffffffffffffffffffffffffffffff021916908373ffffffffffffffffffffffffffffffffffffffff16021790555060408201518160020155606082015181600301556080820151816004015560a0820151816005015560c0820151816006015560e08201518160070155505081600560008573ffffffffffffffffffffffffffffffffffffffff1673ffffffffffffffffffffffffffffffffffffffff16815260200190815260200160002060008773ffffffffffffffffffffffffffffffffffffffff1673ffffffffffffffffffffffffffffffffffffffff1681526020019081526020016000208190555083600360008773ffffffffffffffffffffffffffffffffffffffff1673ffffffffffffffffffffffffffffffffffffffff16815260200190815260200160002060008282546104549190610658565b925050819055506004859080600181540180825580915050600190039060005260206000200160009091909190916101000a81548173ffffffffffffffffffffffffffffffffffffffff021916908373ffffffffffffffffffffffffffffffffffffffff1602179055505050505050565b60036020528060005260406000206000915090505481565b6000813590506104ec8161071e565b92915050565b60008135905061050181610735565b92915050565b60006020828403121561051d5761051c610719565b5b600061052b848285016104dd565b91505092915050565b6000806040838503121561054b5761054a610719565b5b6000610559858286016104dd565b925050602061056a858286016104f2565b9150509250929050565b60006020828403121561058a57610589610719565b5b6000610598848285016104f2565b91505092915050565b6105aa816106ae565b82525050565b6105b9816106e0565b82525050565b6000610100820190506105d5600083018b6105a1565b6105e2602083018a6105a1565b6105ef60408301896105b0565b6105fc60608301886105b0565b61060960808301876105b0565b61061660a08301866105b0565b61062360c08301856105b0565b61063060e08301846105b0565b9998505050505050505050565b600060208201905061065260008301846105b0565b92915050565b6000610663826106e0565b915061066e836106e0565b9250827fffffffffffffffffffffffffffffffffffffffffffffffffffffffffffffffff038211156106a3576106a26106ea565b5b828201905092915050565b60006106b9826106c0565b9050919050565b600073ffffffffffffffffffffffffffffffffffffffff82169050919050565b6000819050919050565b7f4e487b7100000000000000000000000000000000000000000000000000000000600052601160045260246000fd5b600080fd5b610727816106ae565b811461073257600080fd5b50565b61073e816106e0565b811461074957600080fd5b5056fea2646970667358221220431b41622dc63f613a5d967b900ef2188e48190617cf9a8971560061513855ae64736f6c63430008060033",
					"opcodes": "PUSH1 0xC0 PUSH1 0x40 MSTORE PUSH1 0x3 PUSH1 0x80 SWAP1 DUP2 MSTORE POP PUSH1 0x4 PUSH1 0xA0 SWAP1 DUP2 MSTORE POP PUSH1 0x50 PUSH1 0x2 SSTORE CALLVALUE DUP1 ISZERO PUSH2 0x25 JUMPI PUSH1 0x0 DUP1 REVERT JUMPDEST POP PUSH1 0x1 PUSH1 0x0 DUP2 SWAP1 SSTORE POP CALLER PUSH1 0x1 PUSH1 0x0 PUSH2 0x100 EXP DUP2 SLOAD DUP2 PUSH20 0xFFFFFFFFFFFFFFFFFFFFFFFFFFFFFFFFFFFFFFFF MUL NOT AND SWAP1 DUP4 PUSH20 0xFFFFFFFFFFFFFFFFFFFFFFFFFFFFFFFFFFFFFFFF AND MUL OR SWAP1 SSTORE POP PUSH1 0x80 MLOAD PUSH1 0xA0 MLOAD PUSH2 0x782 PUSH2 0x91 PUSH1 0x0 CODECOPY PUSH1 0x0 POP POP PUSH1 0x0 PUSH2 0x254 ADD MSTORE PUSH2 0x782 PUSH1 0x0 RETURN INVALID PUSH1 0x80 PUSH1 0x40 MSTORE PUSH1 0x4 CALLDATASIZE LT PUSH2 0x34 JUMPI PUSH1 0x0 CALLDATALOAD PUSH1 0xE0 SHR DUP1 PUSH4 0x4093551D EQ PUSH2 0x39 JUMPI DUP1 PUSH4 0xA2FB342D EQ PUSH2 0x7D JUMPI DUP1 PUSH4 0xD66BD524 EQ PUSH2 0x99 JUMPI JUMPDEST PUSH1 0x0 DUP1 REVERT JUMPDEST CALLVALUE DUP1 ISZERO PUSH2 0x45 JUMPI PUSH1 0x0 DUP1 REVERT JUMPDEST POP PUSH2 0x60 PUSH1 0x4 DUP1 CALLDATASIZE SUB DUP2 ADD SWAP1 PUSH2 0x5B SWAP2 SWAP1 PUSH2 0x574 JUMP JUMPDEST PUSH2 0xD6 JUMP JUMPDEST PUSH1 0x40 MLOAD PUSH2 0x74 SWAP9 SWAP8 SWAP7 SWAP6 SWAP5 SWAP4 SWAP3 SWAP2 SWAP1 PUSH2 0x5BF JUMP JUMPDEST PUSH1 0x40 MLOAD DUP1 SWAP2 SUB SWAP1 RETURN JUMPDEST PUSH2 0x97 PUSH1 0x4 DUP1 CALLDATASIZE SUB DUP2 ADD SWAP1 PUSH2 0x92 SWAP2 SWAP1 PUSH2 0x534 JUMP JUMPDEST PUSH2 0x16E JUMP JUMPDEST STOP JUMPDEST CALLVALUE DUP1 ISZERO PUSH2 0xA5 JUMPI PUSH1 0x0 DUP1 REVERT JUMPDEST POP PUSH2 0xC0 PUSH1 0x4 DUP1 CALLDATASIZE SUB DUP2 ADD SWAP1 PUSH2 0xBB SWAP2 SWAP1 PUSH2 0x507 JUMP JUMPDEST PUSH2 0x4C5 JUMP JUMPDEST PUSH1 0x40 MLOAD PUSH2 0xCD SWAP2 SWAP1 PUSH2 0x63D JUMP JUMPDEST PUSH1 0x40 MLOAD DUP1 SWAP2 SUB SWAP1 RETURN JUMPDEST PUSH1 0x6 DUP2 DUP2 SLOAD DUP2 LT PUSH2 0xE6 JUMPI PUSH1 0x0 DUP1 REVERT JUMPDEST SWAP1 PUSH1 0x0 MSTORE PUSH1 0x20 PUSH1 0x0 KECCAK256 SWAP1 PUSH1 0x8 MUL ADD PUSH1 0x0 SWAP2 POP SWAP1 POP DUP1 PUSH1 0x0 ADD PUSH1 0x0 SWAP1 SLOAD SWAP1 PUSH2 0x100 EXP SWAP1 DIV PUSH20 0xFFFFFFFFFFFFFFFFFFFFFFFFFFFFFFFFFFFFFFFF AND SWAP1 DUP1 PUSH1 0x1 ADD PUSH1 0x0 SWAP1 SLOAD SWAP1 PUSH2 0x100 EXP SWAP1 DIV PUSH20 0xFFFFFFFFFFFFFFFFFFFFFFFFFFFFFFFFFFFFFFFF AND SWAP1 DUP1 PUSH1 0x2 ADD SLOAD SWAP1 DUP1 PUSH1 0x3 ADD SLOAD SWAP1 DUP1 PUSH1 0x4 ADD SLOAD SWAP1 DUP1 PUSH1 0x5 ADD SLOAD SWAP1 DUP1 PUSH1 0x6 ADD SLOAD SWAP1 DUP1 PUSH1 0x7 ADD SLOAD SWAP1 POP DUP9 JUMP JUMPDEST PUSH1 0x0 CALLER SWAP1 POP PUSH1 0x0 DUP3 PUSH1 0x5 PUSH1 0x0 DUP5 PUSH20 0xFFFFFFFFFFFFFFFFFFFFFFFFFFFFFFFFFFFFFFFF AND PUSH20 0xFFFFFFFFFFFFFFFFFFFFFFFFFFFFFFFFFFFFFFFF AND DUP2 MSTORE PUSH1 0x20 ADD SWAP1 DUP2 MSTORE PUSH1 0x20 ADD PUSH1 0x0 KECCAK256 PUSH1 0x0 DUP7 PUSH20 0xFFFFFFFFFFFFFFFFFFFFFFFFFFFFFFFFFFFFFFFF AND PUSH20 0xFFFFFFFFFFFFFFFFFFFFFFFFFFFFFFFFFFFFFFFF AND DUP2 MSTORE PUSH1 0x20 ADD SWAP1 DUP2 MSTORE PUSH1 0x20 ADD PUSH1 0x0 KECCAK256 SLOAD PUSH2 0x1FD SWAP2 SWAP1 PUSH2 0x658 JUMP JUMPDEST SWAP1 POP PUSH1 0x0 PUSH1 0x40 MLOAD DUP1 PUSH2 0x100 ADD PUSH1 0x40 MSTORE DUP1 DUP5 PUSH20 0xFFFFFFFFFFFFFFFFFFFFFFFFFFFFFFFFFFFFFFFF AND DUP2 MSTORE PUSH1 0x20 ADD DUP7 PUSH20 0xFFFFFFFFFFFFFFFFFFFFFFFFFFFFFFFFFFFFFFFF AND DUP2 MSTORE PUSH1 0x20 ADD DUP4 DUP2 MSTORE PUSH1 0x20 ADD PUSH1 0x0 DUP2 MSTORE PUSH1 0x20 ADD PUSH32 0x0 DUP2 MSTORE PUSH1 0x20 ADD PUSH1 0x0 DUP2 MSTORE PUSH1 0x20 ADD TIMESTAMP DUP2 MSTORE PUSH1 0x20 ADD PUSH1 0x0 DUP2 MSTORE POP SWAP1 POP PUSH1 0x6 DUP2 SWAP1 DUP1 PUSH1 0x1 DUP2 SLOAD ADD DUP1 DUP3 SSTORE DUP1 SWAP2 POP POP PUSH1 0x1 SWAP1 SUB SWAP1 PUSH1 0x0 MSTORE PUSH1 0x20 PUSH1 0x0 KECCAK256 SWAP1 PUSH1 0x8 MUL ADD PUSH1 0x0 SWAP1 SWAP2 SWAP1 SWAP2 SWAP1 SWAP2 POP PUSH1 0x0 DUP3 ADD MLOAD DUP2 PUSH1 0x0 ADD PUSH1 0x0 PUSH2 0x100 EXP DUP2 SLOAD DUP2 PUSH20 0xFFFFFFFFFFFFFFFFFFFFFFFFFFFFFFFFFFFFFFFF MUL NOT AND SWAP1 DUP4 PUSH20 0xFFFFFFFFFFFFFFFFFFFFFFFFFFFFFFFFFFFFFFFF AND MUL OR SWAP1 SSTORE POP PUSH1 0x20 DUP3 ADD MLOAD DUP2 PUSH1 0x1 ADD PUSH1 0x0 PUSH2 0x100 EXP DUP2 SLOAD DUP2 PUSH20 0xFFFFFFFFFFFFFFFFFFFFFFFFFFFFFFFFFFFFFFFF MUL NOT AND SWAP1 DUP4 PUSH20 0xFFFFFFFFFFFFFFFFFFFFFFFFFFFFFFFFFFFFFFFF AND MUL OR SWAP1 SSTORE POP PUSH1 0x40 DUP3 ADD MLOAD DUP2 PUSH1 0x2 ADD SSTORE PUSH1 0x60 DUP3 ADD MLOAD DUP2 PUSH1 0x3 ADD SSTORE PUSH1 0x80 DUP3 ADD MLOAD DUP2 PUSH1 0x4 ADD SSTORE PUSH1 0xA0 DUP3 ADD MLOAD DUP2 PUSH1 0x5 ADD SSTORE PUSH1 0xC0 DUP3 ADD MLOAD DUP2 PUSH1 0x6 ADD SSTORE PUSH1 0xE0 DUP3 ADD MLOAD DUP2 PUSH1 0x7 ADD SSTORE POP POP DUP2 PUSH1 0x5 PUSH1 0x0 DUP6 PUSH20 0xFFFFFFFFFFFFFFFFFFFFFFFFFFFFFFFFFFFFFFFF AND PUSH20 0xFFFFFFFFFFFFFFFFFFFFFFFFFFFFFFFFFFFFFFFF AND DUP2 MSTORE PUSH1 0x20 ADD SWAP1 DUP2 MSTORE PUSH1 0x20 ADD PUSH1 0x0 KECCAK256 PUSH1 0x0 DUP8 PUSH20 0xFFFFFFFFFFFFFFFFFFFFFFFFFFFFFFFFFFFFFFFF AND PUSH20 0xFFFFFFFFFFFFFFFFFFFFFFFFFFFFFFFFFFFFFFFF AND DUP2 MSTORE PUSH1 0x20 ADD SWAP1 DUP2 MSTORE PUSH1 0x20 ADD PUSH1 0x0 KECCAK256 DUP2 SWAP1 SSTORE POP DUP4 PUSH1 0x3 PUSH1 0x0 DUP8 PUSH20 0xFFFFFFFFFFFFFFFFFFFFFFFFFFFFFFFFFFFFFFFF AND PUSH20 0xFFFFFFFFFFFFFFFFFFFFFFFFFFFFFFFFFFFFFFFF AND DUP2 MSTORE PUSH1 0x20 ADD SWAP1 DUP2 MSTORE PUSH1 0x20 ADD PUSH1 0x0 KECCAK256 PUSH1 0x0 DUP3 DUP3 SLOAD PUSH2 0x454 SWAP2 SWAP1 PUSH2 0x658 JUMP JUMPDEST SWAP3 POP POP DUP2 SWAP1 SSTORE POP PUSH1 0x4 DUP6 SWAP1 DUP1 PUSH1 0x1 DUP2 SLOAD ADD DUP1 DUP3 SSTORE DUP1 SWAP2 POP POP PUSH1 0x1 SWAP1 SUB SWAP1 PUSH1 0x0 MSTORE PUSH1 0x20 PUSH1 0x0 KECCAK256 ADD PUSH1 0x0 SWAP1 SWAP2 SWAP1 SWAP2 SWAP1 SWAP2 PUSH2 0x100 EXP DUP2 SLOAD DUP2 PUSH20 0xFFFFFFFFFFFFFFFFFFFFFFFFFFFFFFFFFFFFFFFF MUL NOT AND SWAP1 DUP4 PUSH20 0xFFFFFFFFFFFFFFFFFFFFFFFFFFFFFFFFFFFFFFFF AND MUL OR SWAP1 SSTORE POP POP POP POP POP POP JUMP JUMPDEST PUSH1 0x3 PUSH1 0x20 MSTORE DUP1 PUSH1 0x0 MSTORE PUSH1 0x40 PUSH1 0x0 KECCAK256 PUSH1 0x0 SWAP2 POP SWAP1 POP SLOAD DUP2 JUMP JUMPDEST PUSH1 0x0 DUP2 CALLDATALOAD SWAP1 POP PUSH2 0x4EC DUP2 PUSH2 0x71E JUMP JUMPDEST SWAP3 SWAP2 POP POP JUMP JUMPDEST PUSH1 0x0 DUP2 CALLDATALOAD SWAP1 POP PUSH2 0x501 DUP2 PUSH2 0x735 JUMP JUMPDEST SWAP3 SWAP2 POP POP JUMP JUMPDEST PUSH1 0x0 PUSH1 0x20 DUP3 DUP5 SUB SLT ISZERO PUSH2 0x51D JUMPI PUSH2 0x51C PUSH2 0x719 JUMP JUMPDEST JUMPDEST PUSH1 0x0 PUSH2 0x52B DUP5 DUP3 DUP6 ADD PUSH2 0x4DD JUMP JUMPDEST SWAP2 POP POP SWAP3 SWAP2 POP POP JUMP JUMPDEST PUSH1 0x0 DUP1 PUSH1 0x40 DUP4 DUP6 SUB SLT ISZERO PUSH2 0x54B JUMPI PUSH2 0x54A PUSH2 0x719 JUMP JUMPDEST JUMPDEST PUSH1 0x0 PUSH2 0x559 DUP6 DUP3 DUP7 ADD PUSH2 0x4DD JUMP JUMPDEST SWAP3 POP POP PUSH1 0x20 PUSH2 0x56A DUP6 DUP3 DUP7 ADD PUSH2 0x4F2 JUMP JUMPDEST SWAP2 POP POP SWAP3 POP SWAP3 SWAP1 POP JUMP JUMPDEST PUSH1 0x0 PUSH1 0x20 DUP3 DUP5 SUB SLT ISZERO PUSH2 0x58A JUMPI PUSH2 0x589 PUSH2 0x719 JUMP JUMPDEST JUMPDEST PUSH1 0x0 PUSH2 0x598 DUP5 DUP3 DUP6 ADD PUSH2 0x4F2 JUMP JUMPDEST SWAP2 POP POP SWAP3 SWAP2 POP POP JUMP JUMPDEST PUSH2 0x5AA DUP2 PUSH2 0x6AE JUMP JUMPDEST DUP3 MSTORE POP POP JUMP JUMPDEST PUSH2 0x5B9 DUP2 PUSH2 0x6E0 JUMP JUMPDEST DUP3 MSTORE POP POP JUMP JUMPDEST PUSH1 0x0 PUSH2 0x100 DUP3 ADD SWAP1 POP PUSH2 0x5D5 PUSH1 0x0 DUP4 ADD DUP12 PUSH2 0x5A1 JUMP JUMPDEST PUSH2 0x5E2 PUSH1 0x20 DUP4 ADD DUP11 PUSH2 0x5A1 JUMP JUMPDEST PUSH2 0x5EF PUSH1 0x40 DUP4 ADD DUP10 PUSH2 0x5B0 JUMP JUMPDEST PUSH2 0x5FC PUSH1 0x60 DUP4 ADD DUP9 PUSH2 0x5B0 JUMP JUMPDEST PUSH2 0x609 PUSH1 0x80 DUP4 ADD DUP8 PUSH2 0x5B0 JUMP JUMPDEST PUSH2 0x616 PUSH1 0xA0 DUP4 ADD DUP7 PUSH2 0x5B0 JUMP JUMPDEST PUSH2 0x623 PUSH1 0xC0 DUP4 ADD DUP6 PUSH2 0x5B0 JUMP JUMPDEST PUSH2 0x630 PUSH1 0xE0 DUP4 ADD DUP5 PUSH2 0x5B0 JUMP JUMPDEST SWAP10 SWAP9 POP POP POP POP POP POP POP POP POP JUMP JUMPDEST PUSH1 0x0 PUSH1 0x20 DUP3 ADD SWAP1 POP PUSH2 0x652 PUSH1 0x0 DUP4 ADD DUP5 PUSH2 0x5B0 JUMP JUMPDEST SWAP3 SWAP2 POP POP JUMP JUMPDEST PUSH1 0x0 PUSH2 0x663 DUP3 PUSH2 0x6E0 JUMP JUMPDEST SWAP2 POP PUSH2 0x66E DUP4 PUSH2 0x6E0 JUMP JUMPDEST SWAP3 POP DUP3 PUSH32 0xFFFFFFFFFFFFFFFFFFFFFFFFFFFFFFFFFFFFFFFFFFFFFFFFFFFFFFFFFFFFFFFF SUB DUP3 GT ISZERO PUSH2 0x6A3 JUMPI PUSH2 0x6A2 PUSH2 0x6EA JUMP JUMPDEST JUMPDEST DUP3 DUP3 ADD SWAP1 POP SWAP3 SWAP2 POP POP JUMP JUMPDEST PUSH1 0x0 PUSH2 0x6B9 DUP3 PUSH2 0x6C0 JUMP JUMPDEST SWAP1 POP SWAP2 SWAP1 POP JUMP JUMPDEST PUSH1 0x0 PUSH20 0xFFFFFFFFFFFFFFFFFFFFFFFFFFFFFFFFFFFFFFFF DUP3 AND SWAP1 POP SWAP2 SWAP1 POP JUMP JUMPDEST PUSH1 0x0 DUP2 SWAP1 POP SWAP2 SWAP1 POP JUMP JUMPDEST PUSH32 0x4E487B7100000000000000000000000000000000000000000000000000000000 PUSH1 0x0 MSTORE PUSH1 0x11 PUSH1 0x4 MSTORE PUSH1 0x24 PUSH1 0x0 REVERT JUMPDEST PUSH1 0x0 DUP1 REVERT JUMPDEST PUSH2 0x727 DUP2 PUSH2 0x6AE JUMP JUMPDEST DUP2 EQ PUSH2 0x732 JUMPI PUSH1 0x0 DUP1 REVERT JUMPDEST POP JUMP JUMPDEST PUSH2 0x73E DUP2 PUSH2 0x6E0 JUMP JUMPDEST DUP2 EQ PUSH2 0x749 JUMPI PUSH1 0x0 DUP1 REVERT JUMPDEST POP JUMP INVALID LOG2 PUSH5 0x6970667358 0x22 SLT KECCAK256 NUMBER SHL COINBASE PUSH3 0x2DC63F PUSH2 0x3A5D SWAP7 PUSH28 0x900EF2188E48190617CF9A8971560061513855AE64736F6C63430008 MOD STOP CALLER "
				},
				"gasEstimates": {
					"creation": {
						"codeDepositCost": "384400",
						"executionCost": "infinite",
						"totalCost": "infinite"
					},
					"external": {
						"lend(address,uint256)": "infinite",
						"reserves(address)": "2836",
						"userAssets(uint256)": "infinite"
					},
					"internal": {
						"isTokenOwner(address,address)": "infinite"
					}
				},
				"methodIdentifiers": {
					"lend(address,uint256)": "a2fb342d",
					"reserves(address)": "d66bd524",
					"userAssets(uint256)": "4093551d"
				}
			},
			"storageLayout": {
				"storage": [
					{
						"astId": 10,
						"contract": "Defi-project/V2/LendingPool_20230221.sol:LendingPoolV2",
						"label": "_status",
						"offset": 0,
						"slot": "0",
						"type": "t_uint256"
					},
					{
						"astId": 530,
						"contract": "Defi-project/V2/LendingPool_20230221.sol:LendingPoolV2",
						"label": "deployer",
						"offset": 0,
						"slot": "1",
						"type": "t_address"
					},
					{
						"astId": 539,
						"contract": "Defi-project/V2/LendingPool_20230221.sol:LendingPoolV2",
						"label": "borrowThreshold",
						"offset": 0,
						"slot": "2",
						"type": "t_uint256"
					},
					{
						"astId": 543,
						"contract": "Defi-project/V2/LendingPool_20230221.sol:LendingPoolV2",
						"label": "reserves",
						"offset": 0,
						"slot": "3",
						"type": "t_mapping(t_address,t_uint256)"
					},
					{
						"astId": 546,
						"contract": "Defi-project/V2/LendingPool_20230221.sol:LendingPoolV2",
						"label": "reverseAssets",
						"offset": 0,
						"slot": "4",
						"type": "t_array(t_address)dyn_storage"
					},
					{
						"astId": 552,
						"contract": "Defi-project/V2/LendingPool_20230221.sol:LendingPoolV2",
						"label": "lenderAssets",
						"offset": 0,
						"slot": "5",
						"type": "t_mapping(t_address,t_mapping(t_address,t_uint256))"
					},
					{
						"astId": 573,
						"contract": "Defi-project/V2/LendingPool_20230221.sol:LendingPoolV2",
						"label": "userAssets",
						"offset": 0,
						"slot": "6",
						"type": "t_array(t_struct(UserAsset)569_storage)dyn_storage"
					},
					{
						"astId": 586,
						"contract": "Defi-project/V2/LendingPool_20230221.sol:LendingPoolV2",
						"label": "reservePool",
						"offset": 0,
						"slot": "7",
						"type": "t_array(t_struct(ReservePool)582_storage)dyn_storage"
					}
				],
				"types": {
					"t_address": {
						"encoding": "inplace",
						"label": "address",
						"numberOfBytes": "20"
					},
					"t_array(t_address)dyn_storage": {
						"base": "t_address",
						"encoding": "dynamic_array",
						"label": "address[]",
						"numberOfBytes": "32"
					},
					"t_array(t_struct(ReservePool)582_storage)dyn_storage": {
						"base": "t_struct(ReservePool)582_storage",
						"encoding": "dynamic_array",
						"label": "struct LendingPoolV2.ReservePool[]",
						"numberOfBytes": "32"
					},
					"t_array(t_struct(UserAsset)569_storage)dyn_storage": {
						"base": "t_struct(UserAsset)569_storage",
						"encoding": "dynamic_array",
						"label": "struct LendingPoolV2.UserAsset[]",
						"numberOfBytes": "32"
					},
					"t_bool": {
						"encoding": "inplace",
						"label": "bool",
						"numberOfBytes": "1"
					},
					"t_mapping(t_address,t_mapping(t_address,t_uint256))": {
						"encoding": "mapping",
						"key": "t_address",
						"label": "mapping(address => mapping(address => uint256))",
						"numberOfBytes": "32",
						"value": "t_mapping(t_address,t_uint256)"
					},
					"t_mapping(t_address,t_uint256)": {
						"encoding": "mapping",
						"key": "t_address",
						"label": "mapping(address => uint256)",
						"numberOfBytes": "32",
						"value": "t_uint256"
					},
					"t_struct(ReservePool)582_storage": {
						"encoding": "inplace",
						"label": "struct LendingPoolV2.ReservePool",
						"members": [
							{
								"astId": 575,
								"contract": "Defi-project/V2/LendingPool_20230221.sol:LendingPoolV2",
								"label": "token",
								"offset": 0,
								"slot": "0",
								"type": "t_address"
							},
							{
								"astId": 577,
								"contract": "Defi-project/V2/LendingPool_20230221.sol:LendingPoolV2",
								"label": "amount",
								"offset": 0,
								"slot": "1",
								"type": "t_uint256"
							},
							{
								"astId": 579,
								"contract": "Defi-project/V2/LendingPool_20230221.sol:LendingPoolV2",
								"label": "isfrozen",
								"offset": 0,
								"slot": "2",
								"type": "t_bool"
							},
							{
								"astId": 581,
								"contract": "Defi-project/V2/LendingPool_20230221.sol:LendingPoolV2",
								"label": "isActive",
								"offset": 1,
								"slot": "2",
								"type": "t_bool"
							}
						],
						"numberOfBytes": "96"
					},
					"t_struct(UserAsset)569_storage": {
						"encoding": "inplace",
						"label": "struct LendingPoolV2.UserAsset",
						"members": [
							{
								"astId": 554,
								"contract": "Defi-project/V2/LendingPool_20230221.sol:LendingPoolV2",
								"label": "user",
								"offset": 0,
								"slot": "0",
								"type": "t_address"
							},
							{
								"astId": 556,
								"contract": "Defi-project/V2/LendingPool_20230221.sol:LendingPoolV2",
								"label": "token",
								"offset": 0,
								"slot": "1",
								"type": "t_address"
							},
							{
								"astId": 558,
								"contract": "Defi-project/V2/LendingPool_20230221.sol:LendingPoolV2",
								"label": "lentQty",
								"offset": 0,
								"slot": "2",
								"type": "t_uint256"
							},
							{
								"astId": 560,
								"contract": "Defi-project/V2/LendingPool_20230221.sol:LendingPoolV2",
								"label": "borrowQty",
								"offset": 0,
								"slot": "3",
								"type": "t_uint256"
							},
							{
								"astId": 562,
								"contract": "Defi-project/V2/LendingPool_20230221.sol:LendingPoolV2",
								"label": "interestRate",
								"offset": 0,
								"slot": "4",
								"type": "t_uint256"
							},
							{
								"astId": 564,
								"contract": "Defi-project/V2/LendingPool_20230221.sol:LendingPoolV2",
								"label": "borrowRate",
								"offset": 0,
								"slot": "5",
								"type": "t_uint256"
							},
							{
								"astId": 566,
								"contract": "Defi-project/V2/LendingPool_20230221.sol:LendingPoolV2",
								"label": "lendStartTimeStamp",
								"offset": 0,
								"slot": "6",
								"type": "t_uint256"
							},
							{
								"astId": 568,
								"contract": "Defi-project/V2/LendingPool_20230221.sol:LendingPoolV2",
								"label": "borrowStartTimeStamp",
								"offset": 0,
								"slot": "7",
								"type": "t_uint256"
							}
						],
						"numberOfBytes": "256"
					},
					"t_uint256": {
						"encoding": "inplace",
						"label": "uint256",
						"numberOfBytes": "32"
					}
				}
			},
			"userdoc": {
				"kind": "user",
				"methods": {},
				"version": 1
			}
		}
	}
}