{
	"Defi-project/V2/LendingConfig.sol": {
		"LendingConfig": {
			"abi": [
				{
					"inputs": [],
					"stateMutability": "nonpayable",
					"type": "constructor"
				},
				{
					"anonymous": false,
					"inputs": [
						{
							"indexed": false,
							"internalType": "address",
							"name": "token",
							"type": "address"
						},
						{
							"indexed": false,
							"internalType": "string",
							"name": "symbol",
							"type": "string"
						},
						{
							"indexed": false,
							"internalType": "uint256",
							"name": "borrowThreshold",
							"type": "uint256"
						},
						{
							"indexed": false,
							"internalType": "uint256",
							"name": "liquidationThreshold",
							"type": "uint256"
						}
					],
					"name": "AddAsset",
					"type": "event"
				},
				{
					"anonymous": false,
					"inputs": [
						{
							"indexed": false,
							"internalType": "address",
							"name": "token",
							"type": "address"
						},
						{
							"indexed": false,
							"internalType": "enum LendingConfig.Freeze",
							"name": "isfrozen",
							"type": "uint8"
						}
					],
					"name": "UpdateAssetFrozen",
					"type": "event"
				},
				{
					"anonymous": false,
					"inputs": [
						{
							"indexed": false,
							"internalType": "address",
							"name": "token",
							"type": "address"
						},
						{
							"indexed": false,
							"internalType": "enum LendingConfig.AssetStatus",
							"name": "isActive",
							"type": "uint8"
						}
					],
					"name": "UpdateAssetStatus",
					"type": "event"
				},
				{
					"inputs": [
						{
							"internalType": "address",
							"name": "_token",
							"type": "address"
						},
						{
							"internalType": "bool",
							"name": "_borrowingEnabled",
							"type": "bool"
						},
						{
							"internalType": "bool",
							"name": "_usageAsCollateralEnabled",
							"type": "bool"
						},
						{
							"internalType": "bool",
							"name": "_isfrozen",
							"type": "bool"
						},
						{
							"internalType": "bool",
							"name": "_isActive",
							"type": "bool"
						},
						{
							"internalType": "string",
							"name": "_symbol",
							"type": "string"
						},
						{
							"internalType": "uint256",
							"name": "_decimals",
							"type": "uint256"
						},
						{
							"internalType": "uint256",
							"name": "_borrowThreshold",
							"type": "uint256"
						},
						{
							"internalType": "uint256",
							"name": "_liquidationThreshold",
							"type": "uint256"
						}
					],
					"name": "addAssets",
					"outputs": [
						{
							"internalType": "bool",
							"name": "",
							"type": "bool"
						}
					],
					"stateMutability": "nonpayable",
					"type": "function"
				},
				{
					"inputs": [
						{
							"internalType": "address",
							"name": "_token",
							"type": "address"
						},
						{
							"internalType": "enum LendingConfig.Freeze",
							"name": "_choice",
							"type": "uint8"
						}
					],
					"name": "freezeUnFreezeAsset",
					"outputs": [
						{
							"internalType": "bool",
							"name": "",
							"type": "bool"
						}
					],
					"stateMutability": "nonpayable",
					"type": "function"
				},
				{
					"inputs": [
						{
							"internalType": "address",
							"name": "_token",
							"type": "address"
						}
					],
					"name": "getAssetByTokenAddress",
					"outputs": [
						{
							"components": [
								{
									"internalType": "address",
									"name": "token",
									"type": "address"
								},
								{
									"internalType": "string",
									"name": "symbol",
									"type": "string"
								},
								{
									"internalType": "uint256",
									"name": "decimals",
									"type": "uint256"
								},
								{
									"internalType": "uint256",
									"name": "borrowThreshold",
									"type": "uint256"
								},
								{
									"internalType": "uint256",
									"name": "liquidationThreshold",
									"type": "uint256"
								},
								{
									"internalType": "uint256",
									"name": "lastUpdateTimestamp",
									"type": "uint256"
								},
								{
									"internalType": "bool",
									"name": "borrowingEnabled",
									"type": "bool"
								},
								{
									"internalType": "bool",
									"name": "usageAsCollateralEnabled",
									"type": "bool"
								},
								{
									"internalType": "bool",
									"name": "isfrozen",
									"type": "bool"
								},
								{
									"internalType": "bool",
									"name": "isActive",
									"type": "bool"
								}
							],
							"internalType": "struct LendingConfig.Asset",
							"name": "",
							"type": "tuple"
						}
					],
					"stateMutability": "view",
					"type": "function"
				},
				{
					"inputs": [
						{
							"internalType": "string",
							"name": "_symbol",
							"type": "string"
						}
					],
					"name": "getAssetByTokenSymbol",
					"outputs": [
						{
							"components": [
								{
									"internalType": "address",
									"name": "token",
									"type": "address"
								},
								{
									"internalType": "string",
									"name": "symbol",
									"type": "string"
								},
								{
									"internalType": "uint256",
									"name": "decimals",
									"type": "uint256"
								},
								{
									"internalType": "uint256",
									"name": "borrowThreshold",
									"type": "uint256"
								},
								{
									"internalType": "uint256",
									"name": "liquidationThreshold",
									"type": "uint256"
								},
								{
									"internalType": "uint256",
									"name": "lastUpdateTimestamp",
									"type": "uint256"
								},
								{
									"internalType": "bool",
									"name": "borrowingEnabled",
									"type": "bool"
								},
								{
									"internalType": "bool",
									"name": "usageAsCollateralEnabled",
									"type": "bool"
								},
								{
									"internalType": "bool",
									"name": "isfrozen",
									"type": "bool"
								},
								{
									"internalType": "bool",
									"name": "isActive",
									"type": "bool"
								}
							],
							"internalType": "struct LendingConfig.Asset",
							"name": "",
							"type": "tuple"
						}
					],
					"stateMutability": "view",
					"type": "function"
				},
				{
					"inputs": [
						{
							"internalType": "address",
							"name": "_token",
							"type": "address"
						},
						{
							"internalType": "enum LendingConfig.AssetStatus",
							"name": "_choice",
							"type": "uint8"
						}
					],
					"name": "makeAssetActiveInactive",
					"outputs": [
						{
							"internalType": "bool",
							"name": "",
							"type": "bool"
						}
					],
					"stateMutability": "nonpayable",
					"type": "function"
				}
			],
			"devdoc": {
				"kind": "dev",
				"methods": {},
				"version": 1
			},
			"evm": {
				"assembly": "    /* \"Defi-project/V2/LendingConfig.sol\":217:4232  contract LendingConfig {... */\n  mstore(0x40, 0x80)\n    /* \"Defi-project/V2/LendingConfig.sol\":705:755  constructor(){... */\n  callvalue\n  dup1\n  iszero\n  tag_1\n  jumpi\n  0x00\n  dup1\n  revert\ntag_1:\n  pop\n    /* \"Defi-project/V2/LendingConfig.sol\":737:747  msg.sender */\n  caller\n    /* \"Defi-project/V2/LendingConfig.sol\":729:734  owner */\n  0x00\n  dup1\n    /* \"Defi-project/V2/LendingConfig.sol\":729:747  owner = msg.sender */\n  0x0100\n  exp\n  dup2\n  sload\n  dup2\n  0xffffffffffffffffffffffffffffffffffffffff\n  mul\n  not\n  and\n  swap1\n  dup4\n  0xffffffffffffffffffffffffffffffffffffffff\n  and\n  mul\n  or\n  swap1\n  sstore\n  pop\n    /* \"Defi-project/V2/LendingConfig.sol\":217:4232  contract LendingConfig {... */\n  dataSize(sub_0)\n  dup1\n  dataOffset(sub_0)\n  0x00\n  codecopy\n  0x00\n  return\nstop\n\nsub_0: assembly {\n        /* \"Defi-project/V2/LendingConfig.sol\":217:4232  contract LendingConfig {... */\n      mstore(0x40, 0x80)\n      callvalue\n      dup1\n      iszero\n      tag_1\n      jumpi\n      0x00\n      dup1\n      revert\n    tag_1:\n      pop\n      jumpi(tag_2, lt(calldatasize, 0x04))\n      shr(0xe0, calldataload(0x00))\n      dup1\n      0x671e3f75\n      eq\n      tag_3\n      jumpi\n      dup1\n      0x827401bb\n      eq\n      tag_4\n      jumpi\n      dup1\n      0xe2574030\n      eq\n      tag_5\n      jumpi\n      dup1\n      0xe7149623\n      eq\n      tag_6\n      jumpi\n      dup1\n      0xf45edbb9\n      eq\n      tag_7\n      jumpi\n    tag_2:\n      0x00\n      dup1\n      revert\n        /* \"Defi-project/V2/LendingConfig.sol\":2131:2797  function makeAssetActiveInactive(address _token, AssetStatus _choice) external onlyOwner returns(bool){... */\n    tag_3:\n      tag_8\n      0x04\n      dup1\n      calldatasize\n      sub\n      dup2\n      add\n      swap1\n      tag_9\n      swap2\n      swap1\n      tag_10\n      jump\t// in\n    tag_9:\n      tag_11\n      jump\t// in\n    tag_8:\n      mload(0x40)\n      tag_12\n      swap2\n      swap1\n      tag_13\n      jump\t// in\n    tag_12:\n      mload(0x40)\n      dup1\n      swap2\n      sub\n      swap1\n      return\n        /* \"Defi-project/V2/LendingConfig.sol\":3808:4229  function getAssetByTokenSymbol(string memory _symbol) public view returns(Asset memory) {... */\n    tag_4:\n      tag_14\n      0x04\n      dup1\n      calldatasize\n      sub\n      dup2\n      add\n      swap1\n      tag_15\n      swap2\n      swap1\n      tag_16\n      jump\t// in\n    tag_15:\n      tag_17\n      jump\t// in\n    tag_14:\n      mload(0x40)\n      tag_18\n      swap2\n      swap1\n      tag_19\n      jump\t// in\n    tag_18:\n      mload(0x40)\n      dup1\n      swap2\n      sub\n      swap1\n      return\n        /* \"Defi-project/V2/LendingConfig.sol\":3445:3800  function getAssetByTokenAddress(address _token) public view returns(Asset memory) {... */\n    tag_5:\n      tag_20\n      0x04\n      dup1\n      calldatasize\n      sub\n      dup2\n      add\n      swap1\n      tag_21\n      swap2\n      swap1\n      tag_22\n      jump\t// in\n    tag_21:\n      tag_23\n      jump\t// in\n    tag_20:\n      mload(0x40)\n      tag_24\n      swap2\n      swap1\n      tag_19\n      jump\t// in\n    tag_24:\n      mload(0x40)\n      dup1\n      swap2\n      sub\n      swap1\n      return\n        /* \"Defi-project/V2/LendingConfig.sol\":2805:3437  function freezeUnFreezeAsset(address _token, Freeze _choice) public returns(bool){... */\n    tag_6:\n      tag_25\n      0x04\n      dup1\n      calldatasize\n      sub\n      dup2\n      add\n      swap1\n      tag_26\n      swap2\n      swap1\n      tag_27\n      jump\t// in\n    tag_26:\n      tag_28\n      jump\t// in\n    tag_25:\n      mload(0x40)\n      tag_29\n      swap2\n      swap1\n      tag_13\n      jump\t// in\n    tag_29:\n      mload(0x40)\n      dup1\n      swap2\n      sub\n      swap1\n      return\n        /* \"Defi-project/V2/LendingConfig.sol\":1118:2123  function addAssets(... */\n    tag_7:\n      tag_30\n      0x04\n      dup1\n      calldatasize\n      sub\n      dup2\n      add\n      swap1\n      tag_31\n      swap2\n      swap1\n      tag_32\n      jump\t// in\n    tag_31:\n      tag_33\n      jump\t// in\n    tag_30:\n      mload(0x40)\n      tag_34\n      swap2\n      swap1\n      tag_13\n      jump\t// in\n    tag_34:\n      mload(0x40)\n      dup1\n      swap2\n      sub\n      swap1\n      return\n        /* \"Defi-project/V2/LendingConfig.sol\":2131:2797  function makeAssetActiveInactive(address _token, AssetStatus _choice) external onlyOwner returns(bool){... */\n    tag_11:\n        /* \"Defi-project/V2/LendingConfig.sol\":2228:2232  bool */\n      0x00\n        /* \"Defi-project/V2/LendingConfig.sol\":631:641  msg.sender */\n      caller\n        /* \"Defi-project/V2/LendingConfig.sol\":622:641  owner == msg.sender */\n      0xffffffffffffffffffffffffffffffffffffffff\n      and\n        /* \"Defi-project/V2/LendingConfig.sol\":622:627  owner */\n      0x00\n      dup1\n      sload\n      swap1\n      0x0100\n      exp\n      swap1\n      div\n      0xffffffffffffffffffffffffffffffffffffffff\n      and\n        /* \"Defi-project/V2/LendingConfig.sol\":622:641  owner == msg.sender */\n      0xffffffffffffffffffffffffffffffffffffffff\n      and\n      eq\n        /* \"Defi-project/V2/LendingConfig.sol\":614:673  require(owner == msg.sender, \"Not Owner, cannot perfrm OP\") */\n      tag_36\n      jumpi\n      mload(0x40)\n      0x08c379a000000000000000000000000000000000000000000000000000000000\n      dup2\n      mstore\n      0x04\n      add\n      tag_37\n      swap1\n      tag_38\n      jump\t// in\n    tag_37:\n      mload(0x40)\n      dup1\n      swap2\n      sub\n      swap1\n      revert\n    tag_36:\n        /* \"Defi-project/V2/LendingConfig.sol\":2244:2261  uint256 assetsLen */\n      0x00\n        /* \"Defi-project/V2/LendingConfig.sol\":2264:2270  assets */\n      0x01\n        /* \"Defi-project/V2/LendingConfig.sol\":2264:2277  assets.length */\n      dup1\n      sload\n      swap1\n      pop\n        /* \"Defi-project/V2/LendingConfig.sol\":2244:2277  uint256 assetsLen = assets.length */\n      swap1\n      pop\n        /* \"Defi-project/V2/LendingConfig.sol\":2293:2299  uint i */\n      0x00\n        /* \"Defi-project/V2/LendingConfig.sol\":2288:2709  for (uint i = 0; i < assetsLen; i++) {... */\n    tag_40:\n        /* \"Defi-project/V2/LendingConfig.sol\":2309:2318  assetsLen */\n      dup2\n        /* \"Defi-project/V2/LendingConfig.sol\":2305:2306  i */\n      dup2\n        /* \"Defi-project/V2/LendingConfig.sol\":2305:2318  i < assetsLen */\n      lt\n        /* \"Defi-project/V2/LendingConfig.sol\":2288:2709  for (uint i = 0; i < assetsLen; i++) {... */\n      iszero\n      tag_41\n      jumpi\n        /* \"Defi-project/V2/LendingConfig.sol\":2363:2369  _token */\n      dup5\n        /* \"Defi-project/V2/LendingConfig.sol\":2344:2369  assets[i].token == _token */\n      0xffffffffffffffffffffffffffffffffffffffff\n      and\n        /* \"Defi-project/V2/LendingConfig.sol\":2344:2350  assets */\n      0x01\n        /* \"Defi-project/V2/LendingConfig.sol\":2351:2352  i */\n      dup3\n        /* \"Defi-project/V2/LendingConfig.sol\":2344:2353  assets[i] */\n      dup2\n      sload\n      dup2\n      lt\n      tag_43\n      jumpi\n      tag_44\n      tag_45\n      jump\t// in\n    tag_44:\n    tag_43:\n      swap1\n      0x00\n      mstore\n      keccak256(0x00, 0x20)\n      swap1\n      0x07\n      mul\n      add\n        /* \"Defi-project/V2/LendingConfig.sol\":2344:2359  assets[i].token */\n      0x00\n      add\n      0x00\n      swap1\n      sload\n      swap1\n      0x0100\n      exp\n      swap1\n      div\n      0xffffffffffffffffffffffffffffffffffffffff\n      and\n        /* \"Defi-project/V2/LendingConfig.sol\":2344:2369  assets[i].token == _token */\n      0xffffffffffffffffffffffffffffffffffffffff\n      and\n      sub\n        /* \"Defi-project/V2/LendingConfig.sol\":2340:2698  if (assets[i].token == _token){... */\n      tag_47\n      jumpi\n        /* \"Defi-project/V2/LendingConfig.sol\":2404:2422  AssetStatus.ACTIVE */\n      0x00\n        /* \"Defi-project/V2/LendingConfig.sol\":2393:2422  _choice == AssetStatus.ACTIVE */\n      0x01\n      dup2\n      gt\n      iszero\n      tag_48\n      jumpi\n      tag_49\n      tag_50\n      jump\t// in\n    tag_49:\n    tag_48:\n        /* \"Defi-project/V2/LendingConfig.sol\":2393:2400  _choice */\n      dup5\n        /* \"Defi-project/V2/LendingConfig.sol\":2393:2422  _choice == AssetStatus.ACTIVE */\n      0x01\n      dup2\n      gt\n      iszero\n      tag_51\n      jumpi\n      tag_52\n      tag_50\n      jump\t// in\n    tag_52:\n    tag_51:\n      sub\n        /* \"Defi-project/V2/LendingConfig.sol\":2389:2587  if (_choice == AssetStatus.ACTIVE){... */\n      tag_53\n      jumpi\n        /* \"Defi-project/V2/LendingConfig.sol\":2467:2471  true */\n      0x01\n        /* \"Defi-project/V2/LendingConfig.sol\":2446:2452  assets */\n      dup1\n        /* \"Defi-project/V2/LendingConfig.sol\":2453:2454  i */\n      dup3\n        /* \"Defi-project/V2/LendingConfig.sol\":2446:2455  assets[i] */\n      dup2\n      sload\n      dup2\n      lt\n      tag_54\n      jumpi\n      tag_55\n      tag_45\n      jump\t// in\n    tag_55:\n    tag_54:\n      swap1\n      0x00\n      mstore\n      keccak256(0x00, 0x20)\n      swap1\n      0x07\n      mul\n      add\n        /* \"Defi-project/V2/LendingConfig.sol\":2446:2464  assets[i].isfrozen */\n      0x06\n      add\n      0x02\n        /* \"Defi-project/V2/LendingConfig.sol\":2446:2471  assets[i].isfrozen = true */\n      0x0100\n      exp\n      dup2\n      sload\n      dup2\n      0xff\n      mul\n      not\n      and\n      swap1\n      dup4\n      iszero\n      iszero\n      mul\n      or\n      swap1\n      sstore\n      pop\n        /* \"Defi-project/V2/LendingConfig.sol\":2389:2587  if (_choice == AssetStatus.ACTIVE){... */\n      jump(tag_57)\n    tag_53:\n        /* \"Defi-project/V2/LendingConfig.sol\":2562:2567  false */\n      0x00\n        /* \"Defi-project/V2/LendingConfig.sol\":2541:2547  assets */\n      0x01\n        /* \"Defi-project/V2/LendingConfig.sol\":2548:2549  i */\n      dup3\n        /* \"Defi-project/V2/LendingConfig.sol\":2541:2550  assets[i] */\n      dup2\n      sload\n      dup2\n      lt\n      tag_58\n      jumpi\n      tag_59\n      tag_45\n      jump\t// in\n    tag_59:\n    tag_58:\n      swap1\n      0x00\n      mstore\n      keccak256(0x00, 0x20)\n      swap1\n      0x07\n      mul\n      add\n        /* \"Defi-project/V2/LendingConfig.sol\":2541:2559  assets[i].isfrozen */\n      0x06\n      add\n      0x02\n        /* \"Defi-project/V2/LendingConfig.sol\":2541:2567  assets[i].isfrozen = false */\n      0x0100\n      exp\n      dup2\n      sload\n      dup2\n      0xff\n      mul\n      not\n      and\n      swap1\n      dup4\n      iszero\n      iszero\n      mul\n      or\n      swap1\n      sstore\n      pop\n        /* \"Defi-project/V2/LendingConfig.sol\":2389:2587  if (_choice == AssetStatus.ACTIVE){... */\n    tag_57:\n        /* \"Defi-project/V2/LendingConfig.sol\":2637:2652  block.timestamp */\n      timestamp\n        /* \"Defi-project/V2/LendingConfig.sol\":2605:2611  assets */\n      0x01\n        /* \"Defi-project/V2/LendingConfig.sol\":2612:2613  i */\n      dup3\n        /* \"Defi-project/V2/LendingConfig.sol\":2605:2614  assets[i] */\n      dup2\n      sload\n      dup2\n      lt\n      tag_61\n      jumpi\n      tag_62\n      tag_45\n      jump\t// in\n    tag_62:\n    tag_61:\n      swap1\n      0x00\n      mstore\n      keccak256(0x00, 0x20)\n      swap1\n      0x07\n      mul\n      add\n        /* \"Defi-project/V2/LendingConfig.sol\":2605:2634  assets[i].lastUpdateTimestamp */\n      0x05\n      add\n        /* \"Defi-project/V2/LendingConfig.sol\":2605:2652  assets[i].lastUpdateTimestamp = block.timestamp */\n      dup2\n      swap1\n      sstore\n      pop\n        /* \"Defi-project/V2/LendingConfig.sol\":2678:2682  true */\n      0x01\n        /* \"Defi-project/V2/LendingConfig.sol\":2671:2682  return true */\n      swap3\n      pop\n      pop\n      pop\n      jump(tag_39)\n        /* \"Defi-project/V2/LendingConfig.sol\":2340:2698  if (assets[i].token == _token){... */\n    tag_47:\n        /* \"Defi-project/V2/LendingConfig.sol\":2320:2323  i++ */\n      dup1\n      dup1\n      tag_64\n      swap1\n      tag_65\n      jump\t// in\n    tag_64:\n      swap2\n      pop\n      pop\n        /* \"Defi-project/V2/LendingConfig.sol\":2288:2709  for (uint i = 0; i < assetsLen; i++) {... */\n      jump(tag_40)\n    tag_41:\n      pop\n        /* \"Defi-project/V2/LendingConfig.sol\":2724:2758  UpdateAssetStatus(_token, _choice) */\n      0x1bc4f6a74fdbf500e13db259c58a58c59533ea54a4b93010d0126f6061ec3753\n        /* \"Defi-project/V2/LendingConfig.sol\":2742:2748  _token */\n      dup5\n        /* \"Defi-project/V2/LendingConfig.sol\":2750:2757  _choice */\n      dup5\n        /* \"Defi-project/V2/LendingConfig.sol\":2724:2758  UpdateAssetStatus(_token, _choice) */\n      mload(0x40)\n      tag_66\n      swap3\n      swap2\n      swap1\n      tag_67\n      jump\t// in\n    tag_66:\n      mload(0x40)\n      dup1\n      swap2\n      sub\n      swap1\n      log1\n        /* \"Defi-project/V2/LendingConfig.sol\":2784:2789  false */\n      0x00\n        /* \"Defi-project/V2/LendingConfig.sol\":2777:2789  return false */\n      swap2\n      pop\n      pop\n        /* \"Defi-project/V2/LendingConfig.sol\":684:685  _ */\n    tag_39:\n        /* \"Defi-project/V2/LendingConfig.sol\":2131:2797  function makeAssetActiveInactive(address _token, AssetStatus _choice) external onlyOwner returns(bool){... */\n      swap3\n      swap2\n      pop\n      pop\n      jump\t// out\n        /* \"Defi-project/V2/LendingConfig.sol\":3808:4229  function getAssetByTokenSymbol(string memory _symbol) public view returns(Asset memory) {... */\n    tag_17:\n        /* \"Defi-project/V2/LendingConfig.sol\":3882:3894  Asset memory */\n      tag_68\n      tag_69\n      jump\t// in\n    tag_68:\n        /* \"Defi-project/V2/LendingConfig.sol\":3938:3955  uint256 assetsLen */\n      0x00\n        /* \"Defi-project/V2/LendingConfig.sol\":3958:3964  assets */\n      0x01\n        /* \"Defi-project/V2/LendingConfig.sol\":3958:3971  assets.length */\n      dup1\n      sload\n      swap1\n      pop\n        /* \"Defi-project/V2/LendingConfig.sol\":3938:3971  uint256 assetsLen = assets.length */\n      swap1\n      pop\n        /* \"Defi-project/V2/LendingConfig.sol\":3987:3993  uint i */\n      0x00\n        /* \"Defi-project/V2/LendingConfig.sol\":3982:4186  for (uint i = 0; i < assetsLen; i++) {... */\n    tag_71:\n        /* \"Defi-project/V2/LendingConfig.sol\":4003:4012  assetsLen */\n      dup2\n        /* \"Defi-project/V2/LendingConfig.sol\":3999:4000  i */\n      dup2\n        /* \"Defi-project/V2/LendingConfig.sol\":3999:4012  i < assetsLen */\n      lt\n        /* \"Defi-project/V2/LendingConfig.sol\":3982:4186  for (uint i = 0; i < assetsLen; i++) {... */\n      iszero\n      tag_72\n      jumpi\n        /* \"Defi-project/V2/LendingConfig.sol\":4114:4121  _symbol */\n      dup4\n        /* \"Defi-project/V2/LendingConfig.sol\":4097:4122  abi.encodePacked(_symbol) */\n      add(0x20, mload(0x40))\n      tag_74\n      swap2\n      swap1\n      tag_75\n      jump\t// in\n    tag_74:\n      mload(0x40)\n      0x20\n      dup2\n      dup4\n      sub\n      sub\n      dup2\n      mstore\n      swap1\n      0x40\n      mstore\n        /* \"Defi-project/V2/LendingConfig.sol\":4087:4123  keccak256(abi.encodePacked(_symbol)) */\n      dup1\n      mload\n      swap1\n      0x20\n      add\n      keccak256\n        /* \"Defi-project/V2/LendingConfig.sol\":4065:4071  assets */\n      0x01\n        /* \"Defi-project/V2/LendingConfig.sol\":4072:4073  i */\n      dup3\n        /* \"Defi-project/V2/LendingConfig.sol\":4065:4074  assets[i] */\n      dup2\n      sload\n      dup2\n      lt\n      tag_76\n      jumpi\n      tag_77\n      tag_45\n      jump\t// in\n    tag_77:\n    tag_76:\n      swap1\n      0x00\n      mstore\n      keccak256(0x00, 0x20)\n      swap1\n      0x07\n      mul\n      add\n        /* \"Defi-project/V2/LendingConfig.sol\":4065:4081  assets[i].symbol */\n      0x01\n      add\n        /* \"Defi-project/V2/LendingConfig.sol\":4048:4082  abi.encodePacked(assets[i].symbol) */\n      add(0x20, mload(0x40))\n      tag_79\n      swap2\n      swap1\n      tag_80\n      jump\t// in\n    tag_79:\n      mload(0x40)\n      0x20\n      dup2\n      dup4\n      sub\n      sub\n      dup2\n      mstore\n      swap1\n      0x40\n      mstore\n        /* \"Defi-project/V2/LendingConfig.sol\":4038:4083  keccak256(abi.encodePacked(assets[i].symbol)) */\n      dup1\n      mload\n      swap1\n      0x20\n      add\n      keccak256\n        /* \"Defi-project/V2/LendingConfig.sol\":4038:4123  keccak256(abi.encodePacked(assets[i].symbol)) == keccak256(abi.encodePacked(_symbol)) */\n      sub\n        /* \"Defi-project/V2/LendingConfig.sol\":4034:4175  if (keccak256(abi.encodePacked(assets[i].symbol)) == keccak256(abi.encodePacked(_symbol))){... */\n      tag_81\n      jumpi\n        /* \"Defi-project/V2/LendingConfig.sol\":4150:4156  assets */\n      0x01\n        /* \"Defi-project/V2/LendingConfig.sol\":4157:4158  i */\n      dup2\n        /* \"Defi-project/V2/LendingConfig.sol\":4150:4159  assets[i] */\n      dup2\n      sload\n      dup2\n      lt\n      tag_82\n      jumpi\n      tag_83\n      tag_45\n      jump\t// in\n    tag_83:\n    tag_82:\n      swap1\n      0x00\n      mstore\n      keccak256(0x00, 0x20)\n      swap1\n      0x07\n      mul\n      add\n        /* \"Defi-project/V2/LendingConfig.sol\":4143:4159  return assets[i] */\n      mload(0x40)\n      dup1\n      0x0140\n      add\n      0x40\n      mstore\n      swap1\n      dup2\n      0x00\n      dup3\n      add\n      0x00\n      swap1\n      sload\n      swap1\n      0x0100\n      exp\n      swap1\n      div\n      0xffffffffffffffffffffffffffffffffffffffff\n      and\n      0xffffffffffffffffffffffffffffffffffffffff\n      and\n      0xffffffffffffffffffffffffffffffffffffffff\n      and\n      dup2\n      mstore\n      0x20\n      add\n      0x01\n      dup3\n      add\n      dup1\n      sload\n      tag_85\n      swap1\n      tag_86\n      jump\t// in\n    tag_85:\n      dup1\n      0x1f\n      add\n      0x20\n      dup1\n      swap2\n      div\n      mul\n      0x20\n      add\n      mload(0x40)\n      swap1\n      dup2\n      add\n      0x40\n      mstore\n      dup1\n      swap3\n      swap2\n      swap1\n      dup2\n      dup2\n      mstore\n      0x20\n      add\n      dup3\n      dup1\n      sload\n      tag_87\n      swap1\n      tag_86\n      jump\t// in\n    tag_87:\n      dup1\n      iszero\n      tag_88\n      jumpi\n      dup1\n      0x1f\n      lt\n      tag_89\n      jumpi\n      0x0100\n      dup1\n      dup4\n      sload\n      div\n      mul\n      dup4\n      mstore\n      swap2\n      0x20\n      add\n      swap2\n      jump(tag_88)\n    tag_89:\n      dup3\n      add\n      swap2\n      swap1\n      0x00\n      mstore\n      keccak256(0x00, 0x20)\n      swap1\n    tag_90:\n      dup2\n      sload\n      dup2\n      mstore\n      swap1\n      0x01\n      add\n      swap1\n      0x20\n      add\n      dup1\n      dup4\n      gt\n      tag_90\n      jumpi\n      dup3\n      swap1\n      sub\n      0x1f\n      and\n      dup3\n      add\n      swap2\n    tag_88:\n      pop\n      pop\n      pop\n      pop\n      pop\n      dup2\n      mstore\n      0x20\n      add\n      0x02\n      dup3\n      add\n      sload\n      dup2\n      mstore\n      0x20\n      add\n      0x03\n      dup3\n      add\n      sload\n      dup2\n      mstore\n      0x20\n      add\n      0x04\n      dup3\n      add\n      sload\n      dup2\n      mstore\n      0x20\n      add\n      0x05\n      dup3\n      add\n      sload\n      dup2\n      mstore\n      0x20\n      add\n      0x06\n      dup3\n      add\n      0x00\n      swap1\n      sload\n      swap1\n      0x0100\n      exp\n      swap1\n      div\n      0xff\n      and\n      iszero\n      iszero\n      iszero\n      iszero\n      dup2\n      mstore\n      0x20\n      add\n      0x06\n      dup3\n      add\n      0x01\n      swap1\n      sload\n      swap1\n      0x0100\n      exp\n      swap1\n      div\n      0xff\n      and\n      iszero\n      iszero\n      iszero\n      iszero\n      dup2\n      mstore\n      0x20\n      add\n      0x06\n      dup3\n      add\n      0x02\n      swap1\n      sload\n      swap1\n      0x0100\n      exp\n      swap1\n      div\n      0xff\n      and\n      iszero\n      iszero\n      iszero\n      iszero\n      dup2\n      mstore\n      0x20\n      add\n      0x06\n      dup3\n      add\n      0x03\n      swap1\n      sload\n      swap1\n      0x0100\n      exp\n      swap1\n      div\n      0xff\n      and\n      iszero\n      iszero\n      iszero\n      iszero\n      dup2\n      mstore\n      pop\n      pop\n      swap3\n      pop\n      pop\n      pop\n      jump(tag_70)\n        /* \"Defi-project/V2/LendingConfig.sol\":4034:4175  if (keccak256(abi.encodePacked(assets[i].symbol)) == keccak256(abi.encodePacked(_symbol))){... */\n    tag_81:\n        /* \"Defi-project/V2/LendingConfig.sol\":4014:4017  i++ */\n      dup1\n      dup1\n      tag_91\n      swap1\n      tag_65\n      jump\t// in\n    tag_91:\n      swap2\n      pop\n      pop\n        /* \"Defi-project/V2/LendingConfig.sol\":3982:4186  for (uint i = 0; i < assetsLen; i++) {... */\n      jump(tag_71)\n    tag_72:\n      pop\n        /* \"Defi-project/V2/LendingConfig.sol\":4196:4221  revert(\"Asset not found\") */\n      mload(0x40)\n      0x08c379a000000000000000000000000000000000000000000000000000000000\n      dup2\n      mstore\n      0x04\n      add\n      tag_92\n      swap1\n      tag_93\n      jump\t// in\n    tag_92:\n      mload(0x40)\n      dup1\n      swap2\n      sub\n      swap1\n      revert\n        /* \"Defi-project/V2/LendingConfig.sol\":3808:4229  function getAssetByTokenSymbol(string memory _symbol) public view returns(Asset memory) {... */\n    tag_70:\n      swap2\n      swap1\n      pop\n      jump\t// out\n        /* \"Defi-project/V2/LendingConfig.sol\":3445:3800  function getAssetByTokenAddress(address _token) public view returns(Asset memory) {... */\n    tag_23:\n        /* \"Defi-project/V2/LendingConfig.sol\":3513:3525  Asset memory */\n      tag_94\n      tag_69\n      jump\t// in\n    tag_94:\n        /* \"Defi-project/V2/LendingConfig.sol\":3569:3586  uint256 assetsLen */\n      0x00\n        /* \"Defi-project/V2/LendingConfig.sol\":3589:3595  assets */\n      0x01\n        /* \"Defi-project/V2/LendingConfig.sol\":3589:3602  assets.length */\n      dup1\n      sload\n      swap1\n      pop\n        /* \"Defi-project/V2/LendingConfig.sol\":3569:3602  uint256 assetsLen = assets.length */\n      swap1\n      pop\n        /* \"Defi-project/V2/LendingConfig.sol\":3618:3624  uint i */\n      0x00\n        /* \"Defi-project/V2/LendingConfig.sol\":3613:3757  for (uint i = 0; i < assetsLen; i++) {... */\n    tag_96:\n        /* \"Defi-project/V2/LendingConfig.sol\":3634:3643  assetsLen */\n      dup2\n        /* \"Defi-project/V2/LendingConfig.sol\":3630:3631  i */\n      dup2\n        /* \"Defi-project/V2/LendingConfig.sol\":3630:3643  i < assetsLen */\n      lt\n        /* \"Defi-project/V2/LendingConfig.sol\":3613:3757  for (uint i = 0; i < assetsLen; i++) {... */\n      iszero\n      tag_97\n      jumpi\n        /* \"Defi-project/V2/LendingConfig.sol\":3688:3694  _token */\n      dup4\n        /* \"Defi-project/V2/LendingConfig.sol\":3669:3694  assets[i].token == _token */\n      0xffffffffffffffffffffffffffffffffffffffff\n      and\n        /* \"Defi-project/V2/LendingConfig.sol\":3669:3675  assets */\n      0x01\n        /* \"Defi-project/V2/LendingConfig.sol\":3676:3677  i */\n      dup3\n        /* \"Defi-project/V2/LendingConfig.sol\":3669:3678  assets[i] */\n      dup2\n      sload\n      dup2\n      lt\n      tag_99\n      jumpi\n      tag_100\n      tag_45\n      jump\t// in\n    tag_100:\n    tag_99:\n      swap1\n      0x00\n      mstore\n      keccak256(0x00, 0x20)\n      swap1\n      0x07\n      mul\n      add\n        /* \"Defi-project/V2/LendingConfig.sol\":3669:3684  assets[i].token */\n      0x00\n      add\n      0x00\n      swap1\n      sload\n      swap1\n      0x0100\n      exp\n      swap1\n      div\n      0xffffffffffffffffffffffffffffffffffffffff\n      and\n        /* \"Defi-project/V2/LendingConfig.sol\":3669:3694  assets[i].token == _token */\n      0xffffffffffffffffffffffffffffffffffffffff\n      and\n      sub\n        /* \"Defi-project/V2/LendingConfig.sol\":3665:3746  if (assets[i].token == _token){... */\n      tag_102\n      jumpi\n        /* \"Defi-project/V2/LendingConfig.sol\":3721:3727  assets */\n      0x01\n        /* \"Defi-project/V2/LendingConfig.sol\":3728:3729  i */\n      dup2\n        /* \"Defi-project/V2/LendingConfig.sol\":3721:3730  assets[i] */\n      dup2\n      sload\n      dup2\n      lt\n      tag_103\n      jumpi\n      tag_104\n      tag_45\n      jump\t// in\n    tag_104:\n    tag_103:\n      swap1\n      0x00\n      mstore\n      keccak256(0x00, 0x20)\n      swap1\n      0x07\n      mul\n      add\n        /* \"Defi-project/V2/LendingConfig.sol\":3714:3730  return assets[i] */\n      mload(0x40)\n      dup1\n      0x0140\n      add\n      0x40\n      mstore\n      swap1\n      dup2\n      0x00\n      dup3\n      add\n      0x00\n      swap1\n      sload\n      swap1\n      0x0100\n      exp\n      swap1\n      div\n      0xffffffffffffffffffffffffffffffffffffffff\n      and\n      0xffffffffffffffffffffffffffffffffffffffff\n      and\n      0xffffffffffffffffffffffffffffffffffffffff\n      and\n      dup2\n      mstore\n      0x20\n      add\n      0x01\n      dup3\n      add\n      dup1\n      sload\n      tag_106\n      swap1\n      tag_86\n      jump\t// in\n    tag_106:\n      dup1\n      0x1f\n      add\n      0x20\n      dup1\n      swap2\n      div\n      mul\n      0x20\n      add\n      mload(0x40)\n      swap1\n      dup2\n      add\n      0x40\n      mstore\n      dup1\n      swap3\n      swap2\n      swap1\n      dup2\n      dup2\n      mstore\n      0x20\n      add\n      dup3\n      dup1\n      sload\n      tag_107\n      swap1\n      tag_86\n      jump\t// in\n    tag_107:\n      dup1\n      iszero\n      tag_108\n      jumpi\n      dup1\n      0x1f\n      lt\n      tag_109\n      jumpi\n      0x0100\n      dup1\n      dup4\n      sload\n      div\n      mul\n      dup4\n      mstore\n      swap2\n      0x20\n      add\n      swap2\n      jump(tag_108)\n    tag_109:\n      dup3\n      add\n      swap2\n      swap1\n      0x00\n      mstore\n      keccak256(0x00, 0x20)\n      swap1\n    tag_110:\n      dup2\n      sload\n      dup2\n      mstore\n      swap1\n      0x01\n      add\n      swap1\n      0x20\n      add\n      dup1\n      dup4\n      gt\n      tag_110\n      jumpi\n      dup3\n      swap1\n      sub\n      0x1f\n      and\n      dup3\n      add\n      swap2\n    tag_108:\n      pop\n      pop\n      pop\n      pop\n      pop\n      dup2\n      mstore\n      0x20\n      add\n      0x02\n      dup3\n      add\n      sload\n      dup2\n      mstore\n      0x20\n      add\n      0x03\n      dup3\n      add\n      sload\n      dup2\n      mstore\n      0x20\n      add\n      0x04\n      dup3\n      add\n      sload\n      dup2\n      mstore\n      0x20\n      add\n      0x05\n      dup3\n      add\n      sload\n      dup2\n      mstore\n      0x20\n      add\n      0x06\n      dup3\n      add\n      0x00\n      swap1\n      sload\n      swap1\n      0x0100\n      exp\n      swap1\n      div\n      0xff\n      and\n      iszero\n      iszero\n      iszero\n      iszero\n      dup2\n      mstore\n      0x20\n      add\n      0x06\n      dup3\n      add\n      0x01\n      swap1\n      sload\n      swap1\n      0x0100\n      exp\n      swap1\n      div\n      0xff\n      and\n      iszero\n      iszero\n      iszero\n      iszero\n      dup2\n      mstore\n      0x20\n      add\n      0x06\n      dup3\n      add\n      0x02\n      swap1\n      sload\n      swap1\n      0x0100\n      exp\n      swap1\n      div\n      0xff\n      and\n      iszero\n      iszero\n      iszero\n      iszero\n      dup2\n      mstore\n      0x20\n      add\n      0x06\n      dup3\n      add\n      0x03\n      swap1\n      sload\n      swap1\n      0x0100\n      exp\n      swap1\n      div\n      0xff\n      and\n      iszero\n      iszero\n      iszero\n      iszero\n      dup2\n      mstore\n      pop\n      pop\n      swap3\n      pop\n      pop\n      pop\n      jump(tag_95)\n        /* \"Defi-project/V2/LendingConfig.sol\":3665:3746  if (assets[i].token == _token){... */\n    tag_102:\n        /* \"Defi-project/V2/LendingConfig.sol\":3645:3648  i++ */\n      dup1\n      dup1\n      tag_111\n      swap1\n      tag_65\n      jump\t// in\n    tag_111:\n      swap2\n      pop\n      pop\n        /* \"Defi-project/V2/LendingConfig.sol\":3613:3757  for (uint i = 0; i < assetsLen; i++) {... */\n      jump(tag_96)\n    tag_97:\n      pop\n        /* \"Defi-project/V2/LendingConfig.sol\":3767:3792  revert(\"Asset not found\") */\n      mload(0x40)\n      0x08c379a000000000000000000000000000000000000000000000000000000000\n      dup2\n      mstore\n      0x04\n      add\n      tag_112\n      swap1\n      tag_93\n      jump\t// in\n    tag_112:\n      mload(0x40)\n      dup1\n      swap2\n      sub\n      swap1\n      revert\n        /* \"Defi-project/V2/LendingConfig.sol\":3445:3800  function getAssetByTokenAddress(address _token) public view returns(Asset memory) {... */\n    tag_95:\n      swap2\n      swap1\n      pop\n      jump\t// out\n        /* \"Defi-project/V2/LendingConfig.sol\":2805:3437  function freezeUnFreezeAsset(address _token, Freeze _choice) public returns(bool){... */\n    tag_28:\n        /* \"Defi-project/V2/LendingConfig.sol\":2881:2885  bool */\n      0x00\n        /* \"Defi-project/V2/LendingConfig.sol\":2897:2914  uint256 assetsLen */\n      dup1\n        /* \"Defi-project/V2/LendingConfig.sol\":2917:2923  assets */\n      0x01\n        /* \"Defi-project/V2/LendingConfig.sol\":2917:2930  assets.length */\n      dup1\n      sload\n      swap1\n      pop\n        /* \"Defi-project/V2/LendingConfig.sol\":2897:2930  uint256 assetsLen = assets.length */\n      swap1\n      pop\n        /* \"Defi-project/V2/LendingConfig.sol\":2946:2952  uint i */\n      0x00\n        /* \"Defi-project/V2/LendingConfig.sol\":2941:3357  for (uint i = 0; i < assetsLen; i++) {... */\n    tag_114:\n        /* \"Defi-project/V2/LendingConfig.sol\":2962:2971  assetsLen */\n      dup2\n        /* \"Defi-project/V2/LendingConfig.sol\":2958:2959  i */\n      dup2\n        /* \"Defi-project/V2/LendingConfig.sol\":2958:2971  i < assetsLen */\n      lt\n        /* \"Defi-project/V2/LendingConfig.sol\":2941:3357  for (uint i = 0; i < assetsLen; i++) {... */\n      iszero\n      tag_115\n      jumpi\n        /* \"Defi-project/V2/LendingConfig.sol\":3016:3022  _token */\n      dup5\n        /* \"Defi-project/V2/LendingConfig.sol\":2997:3022  assets[i].token == _token */\n      0xffffffffffffffffffffffffffffffffffffffff\n      and\n        /* \"Defi-project/V2/LendingConfig.sol\":2997:3003  assets */\n      0x01\n        /* \"Defi-project/V2/LendingConfig.sol\":3004:3005  i */\n      dup3\n        /* \"Defi-project/V2/LendingConfig.sol\":2997:3006  assets[i] */\n      dup2\n      sload\n      dup2\n      lt\n      tag_117\n      jumpi\n      tag_118\n      tag_45\n      jump\t// in\n    tag_118:\n    tag_117:\n      swap1\n      0x00\n      mstore\n      keccak256(0x00, 0x20)\n      swap1\n      0x07\n      mul\n      add\n        /* \"Defi-project/V2/LendingConfig.sol\":2997:3012  assets[i].token */\n      0x00\n      add\n      0x00\n      swap1\n      sload\n      swap1\n      0x0100\n      exp\n      swap1\n      div\n      0xffffffffffffffffffffffffffffffffffffffff\n      and\n        /* \"Defi-project/V2/LendingConfig.sol\":2997:3022  assets[i].token == _token */\n      0xffffffffffffffffffffffffffffffffffffffff\n      and\n      sub\n        /* \"Defi-project/V2/LendingConfig.sol\":2993:3346  if (assets[i].token == _token){... */\n      tag_120\n      jumpi\n        /* \"Defi-project/V2/LendingConfig.sol\":3057:3070  Freeze.FREEZE */\n      0x00\n        /* \"Defi-project/V2/LendingConfig.sol\":3046:3070  _choice == Freeze.FREEZE */\n      0x01\n      dup2\n      gt\n      iszero\n      tag_121\n      jumpi\n      tag_122\n      tag_50\n      jump\t// in\n    tag_122:\n    tag_121:\n        /* \"Defi-project/V2/LendingConfig.sol\":3046:3053  _choice */\n      dup5\n        /* \"Defi-project/V2/LendingConfig.sol\":3046:3070  _choice == Freeze.FREEZE */\n      0x01\n      dup2\n      gt\n      iszero\n      tag_123\n      jumpi\n      tag_124\n      tag_50\n      jump\t// in\n    tag_124:\n    tag_123:\n      sub\n        /* \"Defi-project/V2/LendingConfig.sol\":3042:3235  if (_choice == Freeze.FREEZE){... */\n      tag_125\n      jumpi\n        /* \"Defi-project/V2/LendingConfig.sol\":3115:3119  true */\n      0x01\n        /* \"Defi-project/V2/LendingConfig.sol\":3094:3100  assets */\n      dup1\n        /* \"Defi-project/V2/LendingConfig.sol\":3101:3102  i */\n      dup3\n        /* \"Defi-project/V2/LendingConfig.sol\":3094:3103  assets[i] */\n      dup2\n      sload\n      dup2\n      lt\n      tag_126\n      jumpi\n      tag_127\n      tag_45\n      jump\t// in\n    tag_127:\n    tag_126:\n      swap1\n      0x00\n      mstore\n      keccak256(0x00, 0x20)\n      swap1\n      0x07\n      mul\n      add\n        /* \"Defi-project/V2/LendingConfig.sol\":3094:3112  assets[i].isfrozen */\n      0x06\n      add\n      0x02\n        /* \"Defi-project/V2/LendingConfig.sol\":3094:3119  assets[i].isfrozen = true */\n      0x0100\n      exp\n      dup2\n      sload\n      dup2\n      0xff\n      mul\n      not\n      and\n      swap1\n      dup4\n      iszero\n      iszero\n      mul\n      or\n      swap1\n      sstore\n      pop\n        /* \"Defi-project/V2/LendingConfig.sol\":3042:3235  if (_choice == Freeze.FREEZE){... */\n      jump(tag_129)\n    tag_125:\n        /* \"Defi-project/V2/LendingConfig.sol\":3210:3215  false */\n      0x00\n        /* \"Defi-project/V2/LendingConfig.sol\":3189:3195  assets */\n      0x01\n        /* \"Defi-project/V2/LendingConfig.sol\":3196:3197  i */\n      dup3\n        /* \"Defi-project/V2/LendingConfig.sol\":3189:3198  assets[i] */\n      dup2\n      sload\n      dup2\n      lt\n      tag_130\n      jumpi\n      tag_131\n      tag_45\n      jump\t// in\n    tag_131:\n    tag_130:\n      swap1\n      0x00\n      mstore\n      keccak256(0x00, 0x20)\n      swap1\n      0x07\n      mul\n      add\n        /* \"Defi-project/V2/LendingConfig.sol\":3189:3207  assets[i].isfrozen */\n      0x06\n      add\n      0x02\n        /* \"Defi-project/V2/LendingConfig.sol\":3189:3215  assets[i].isfrozen = false */\n      0x0100\n      exp\n      dup2\n      sload\n      dup2\n      0xff\n      mul\n      not\n      and\n      swap1\n      dup4\n      iszero\n      iszero\n      mul\n      or\n      swap1\n      sstore\n      pop\n        /* \"Defi-project/V2/LendingConfig.sol\":3042:3235  if (_choice == Freeze.FREEZE){... */\n    tag_129:\n        /* \"Defi-project/V2/LendingConfig.sol\":3285:3300  block.timestamp */\n      timestamp\n        /* \"Defi-project/V2/LendingConfig.sol\":3253:3259  assets */\n      0x01\n        /* \"Defi-project/V2/LendingConfig.sol\":3260:3261  i */\n      dup3\n        /* \"Defi-project/V2/LendingConfig.sol\":3253:3262  assets[i] */\n      dup2\n      sload\n      dup2\n      lt\n      tag_133\n      jumpi\n      tag_134\n      tag_45\n      jump\t// in\n    tag_134:\n    tag_133:\n      swap1\n      0x00\n      mstore\n      keccak256(0x00, 0x20)\n      swap1\n      0x07\n      mul\n      add\n        /* \"Defi-project/V2/LendingConfig.sol\":3253:3282  assets[i].lastUpdateTimestamp */\n      0x05\n      add\n        /* \"Defi-project/V2/LendingConfig.sol\":3253:3300  assets[i].lastUpdateTimestamp = block.timestamp */\n      dup2\n      swap1\n      sstore\n      pop\n        /* \"Defi-project/V2/LendingConfig.sol\":3326:3330  true */\n      0x01\n        /* \"Defi-project/V2/LendingConfig.sol\":3319:3330  return true */\n      swap3\n      pop\n      pop\n      pop\n      jump(tag_113)\n        /* \"Defi-project/V2/LendingConfig.sol\":2993:3346  if (assets[i].token == _token){... */\n    tag_120:\n        /* \"Defi-project/V2/LendingConfig.sol\":2973:2976  i++ */\n      dup1\n      dup1\n      tag_136\n      swap1\n      tag_65\n      jump\t// in\n    tag_136:\n      swap2\n      pop\n      pop\n        /* \"Defi-project/V2/LendingConfig.sol\":2941:3357  for (uint i = 0; i < assetsLen; i++) {... */\n      jump(tag_114)\n    tag_115:\n      pop\n        /* \"Defi-project/V2/LendingConfig.sol\":3372:3406  UpdateAssetFrozen(_token, _choice) */\n      0x3f57ea1559cfee0ff7804a8bbf56c488fbd7f8d575acd8537d7f02a6ffb8bdb4\n        /* \"Defi-project/V2/LendingConfig.sol\":3390:3396  _token */\n      dup5\n        /* \"Defi-project/V2/LendingConfig.sol\":3398:3405  _choice */\n      dup5\n        /* \"Defi-project/V2/LendingConfig.sol\":3372:3406  UpdateAssetFrozen(_token, _choice) */\n      mload(0x40)\n      tag_137\n      swap3\n      swap2\n      swap1\n      tag_138\n      jump\t// in\n    tag_137:\n      mload(0x40)\n      dup1\n      swap2\n      sub\n      swap1\n      log1\n        /* \"Defi-project/V2/LendingConfig.sol\":3424:3429  false */\n      0x00\n        /* \"Defi-project/V2/LendingConfig.sol\":3417:3429  return false */\n      swap2\n      pop\n      pop\n        /* \"Defi-project/V2/LendingConfig.sol\":2805:3437  function freezeUnFreezeAsset(address _token, Freeze _choice) public returns(bool){... */\n    tag_113:\n      swap3\n      swap2\n      pop\n      pop\n      jump\t// out\n        /* \"Defi-project/V2/LendingConfig.sol\":1118:2123  function addAssets(... */\n    tag_33:\n        /* \"Defi-project/V2/LendingConfig.sol\":1458:1462  bool */\n      0x00\n        /* \"Defi-project/V2/LendingConfig.sol\":631:641  msg.sender */\n      caller\n        /* \"Defi-project/V2/LendingConfig.sol\":622:641  owner == msg.sender */\n      0xffffffffffffffffffffffffffffffffffffffff\n      and\n        /* \"Defi-project/V2/LendingConfig.sol\":622:627  owner */\n      0x00\n      dup1\n      sload\n      swap1\n      0x0100\n      exp\n      swap1\n      div\n      0xffffffffffffffffffffffffffffffffffffffff\n      and\n        /* \"Defi-project/V2/LendingConfig.sol\":622:641  owner == msg.sender */\n      0xffffffffffffffffffffffffffffffffffffffff\n      and\n      eq\n        /* \"Defi-project/V2/LendingConfig.sol\":614:673  require(owner == msg.sender, \"Not Owner, cannot perfrm OP\") */\n      tag_140\n      jumpi\n      mload(0x40)\n      0x08c379a000000000000000000000000000000000000000000000000000000000\n      dup2\n      mstore\n      0x04\n      add\n      tag_141\n      swap1\n      tag_38\n      jump\t// in\n    tag_141:\n      mload(0x40)\n      dup1\n      swap2\n      sub\n      swap1\n      revert\n    tag_140:\n        /* \"Defi-project/V2/LendingConfig.sol\":1476:1482  assets */\n      0x01\n        /* \"Defi-project/V2/LendingConfig.sol\":1502:1998  Asset({... */\n      mload(0x40)\n      dup1\n      0x0140\n      add\n      0x40\n      mstore\n      dup1\n        /* \"Defi-project/V2/LendingConfig.sol\":1534:1540  _token */\n      dup13\n        /* \"Defi-project/V2/LendingConfig.sol\":1502:1998  Asset({... */\n      0xffffffffffffffffffffffffffffffffffffffff\n      and\n      dup2\n      mstore\n      0x20\n      add\n        /* \"Defi-project/V2/LendingConfig.sol\":1567:1574  _symbol */\n      dup8\n        /* \"Defi-project/V2/LendingConfig.sol\":1502:1998  Asset({... */\n      dup2\n      mstore\n      0x20\n      add\n        /* \"Defi-project/V2/LendingConfig.sol\":1603:1612  _decimals */\n      dup7\n        /* \"Defi-project/V2/LendingConfig.sol\":1502:1998  Asset({... */\n      dup2\n      mstore\n      0x20\n      add\n        /* \"Defi-project/V2/LendingConfig.sol\":1648:1664  _borrowThreshold */\n      dup6\n        /* \"Defi-project/V2/LendingConfig.sol\":1502:1998  Asset({... */\n      dup2\n      mstore\n      0x20\n      add\n        /* \"Defi-project/V2/LendingConfig.sol\":1706:1727  _liquidationThreshold */\n      dup5\n        /* \"Defi-project/V2/LendingConfig.sol\":1502:1998  Asset({... */\n      dup2\n      mstore\n      0x20\n      add\n        /* \"Defi-project/V2/LendingConfig.sol\":1767:1782  block.timestamp */\n      timestamp\n        /* \"Defi-project/V2/LendingConfig.sol\":1502:1998  Asset({... */\n      dup2\n      mstore\n      0x20\n      add\n        /* \"Defi-project/V2/LendingConfig.sol\":1819:1836  _borrowingEnabled */\n      dup12\n        /* \"Defi-project/V2/LendingConfig.sol\":1502:1998  Asset({... */\n      iszero\n      iszero\n      dup2\n      mstore\n      0x20\n      add\n        /* \"Defi-project/V2/LendingConfig.sol\":1881:1906  _usageAsCollateralEnabled */\n      dup11\n        /* \"Defi-project/V2/LendingConfig.sol\":1502:1998  Asset({... */\n      iszero\n      iszero\n      dup2\n      mstore\n      0x20\n      add\n        /* \"Defi-project/V2/LendingConfig.sol\":1935:1944  _isfrozen */\n      dup10\n        /* \"Defi-project/V2/LendingConfig.sol\":1502:1998  Asset({... */\n      iszero\n      iszero\n      dup2\n      mstore\n      0x20\n      add\n        /* \"Defi-project/V2/LendingConfig.sol\":1973:1982  _isActive */\n      dup9\n        /* \"Defi-project/V2/LendingConfig.sol\":1502:1998  Asset({... */\n      iszero\n      iszero\n      dup2\n      mstore\n      pop\n        /* \"Defi-project/V2/LendingConfig.sol\":1476:2009  assets.push(... */\n      swap1\n      dup1\n      0x01\n      dup2\n      sload\n      add\n      dup1\n      dup3\n      sstore\n      dup1\n      swap2\n      pop\n      pop\n      0x01\n      swap1\n      sub\n      swap1\n      0x00\n      mstore\n      keccak256(0x00, 0x20)\n      swap1\n      0x07\n      mul\n      add\n      0x00\n      swap1\n      swap2\n      swap1\n      swap2\n      swap1\n      swap2\n      pop\n      0x00\n      dup3\n      add\n      mload\n      dup2\n      0x00\n      add\n      exp(0x0100, 0x00)\n      dup2\n      sload\n      dup2\n      0xffffffffffffffffffffffffffffffffffffffff\n      mul\n      not\n      and\n      swap1\n      dup4\n      0xffffffffffffffffffffffffffffffffffffffff\n      and\n      mul\n      or\n      swap1\n      sstore\n      pop\n      0x20\n      dup3\n      add\n      mload\n      dup2\n      0x01\n      add\n      swap1\n      dup2\n      tag_144\n      swap2\n      swap1\n      tag_145\n      jump\t// in\n    tag_144:\n      pop\n      0x40\n      dup3\n      add\n      mload\n      dup2\n      0x02\n      add\n      sstore\n      0x60\n      dup3\n      add\n      mload\n      dup2\n      0x03\n      add\n      sstore\n      0x80\n      dup3\n      add\n      mload\n      dup2\n      0x04\n      add\n      sstore\n      0xa0\n      dup3\n      add\n      mload\n      dup2\n      0x05\n      add\n      sstore\n      0xc0\n      dup3\n      add\n      mload\n      dup2\n      0x06\n      add\n      exp(0x0100, 0x00)\n      dup2\n      sload\n      dup2\n      0xff\n      mul\n      not\n      and\n      swap1\n      dup4\n      iszero\n      iszero\n      mul\n      or\n      swap1\n      sstore\n      pop\n      0xe0\n      dup3\n      add\n      mload\n      dup2\n      0x06\n      add\n      exp(0x0100, 0x01)\n      dup2\n      sload\n      dup2\n      0xff\n      mul\n      not\n      and\n      swap1\n      dup4\n      iszero\n      iszero\n      mul\n      or\n      swap1\n      sstore\n      pop\n      0x0100\n      dup3\n      add\n      mload\n      dup2\n      0x06\n      add\n      exp(0x0100, 0x02)\n      dup2\n      sload\n      dup2\n      0xff\n      mul\n      not\n      and\n      swap1\n      dup4\n      iszero\n      iszero\n      mul\n      or\n      swap1\n      sstore\n      pop\n      0x0120\n      dup3\n      add\n      mload\n      dup2\n      0x06\n      add\n      exp(0x0100, 0x03)\n      dup2\n      sload\n      dup2\n      0xff\n      mul\n      not\n      and\n      swap1\n      dup4\n      iszero\n      iszero\n      mul\n      or\n      swap1\n      sstore\n      pop\n      pop\n      pop\n        /* \"Defi-project/V2/LendingConfig.sol\":2027:2093  AddAsset(_token, _symbol, _borrowThreshold, _liquidationThreshold) */\n      0xcd7be9ca97d79d2c4048b8402afd93bb5f487441dc211d4bd2e95011ccd423a0\n        /* \"Defi-project/V2/LendingConfig.sol\":2036:2042  _token */\n      dup11\n        /* \"Defi-project/V2/LendingConfig.sol\":2044:2051  _symbol */\n      dup7\n        /* \"Defi-project/V2/LendingConfig.sol\":2053:2069  _borrowThreshold */\n      dup6\n        /* \"Defi-project/V2/LendingConfig.sol\":2071:2092  _liquidationThreshold */\n      dup6\n        /* \"Defi-project/V2/LendingConfig.sol\":2027:2093  AddAsset(_token, _symbol, _borrowThreshold, _liquidationThreshold) */\n      mload(0x40)\n      tag_146\n      swap5\n      swap4\n      swap3\n      swap2\n      swap1\n      tag_147\n      jump\t// in\n    tag_146:\n      mload(0x40)\n      dup1\n      swap2\n      sub\n      swap1\n      log1\n        /* \"Defi-project/V2/LendingConfig.sol\":2111:2115  true */\n      0x01\n        /* \"Defi-project/V2/LendingConfig.sol\":2104:2115  return true */\n      swap1\n      pop\n        /* \"Defi-project/V2/LendingConfig.sol\":1118:2123  function addAssets(... */\n      swap10\n      swap9\n      pop\n      pop\n      pop\n      pop\n      pop\n      pop\n      pop\n      pop\n      pop\n      jump\t// out\n    tag_69:\n      mload(0x40)\n      dup1\n      0x0140\n      add\n      0x40\n      mstore\n      dup1\n      and(0xffffffffffffffffffffffffffffffffffffffff, 0x00)\n      dup2\n      mstore\n      0x20\n      add\n      0x60\n      dup2\n      mstore\n      0x20\n      add\n      0x00\n      dup2\n      mstore\n      0x20\n      add\n      0x00\n      dup2\n      mstore\n      0x20\n      add\n      0x00\n      dup2\n      mstore\n      0x20\n      add\n      0x00\n      dup2\n      mstore\n      0x20\n      add\n      iszero(iszero(0x00))\n      dup2\n      mstore\n      0x20\n      add\n      iszero(iszero(0x00))\n      dup2\n      mstore\n      0x20\n      add\n      iszero(iszero(0x00))\n      dup2\n      mstore\n      0x20\n      add\n      iszero(iszero(0x00))\n      dup2\n      mstore\n      pop\n      swap1\n      jump\t// out\n        /* \"#utility.yul\":7:82   */\n    tag_148:\n        /* \"#utility.yul\":40:46   */\n      0x00\n        /* \"#utility.yul\":73:75   */\n      0x40\n        /* \"#utility.yul\":67:76   */\n      mload\n        /* \"#utility.yul\":57:76   */\n      swap1\n      pop\n        /* \"#utility.yul\":7:82   */\n      swap1\n      jump\t// out\n        /* \"#utility.yul\":88:205   */\n    tag_149:\n        /* \"#utility.yul\":197:198   */\n      0x00\n        /* \"#utility.yul\":194:195   */\n      dup1\n        /* \"#utility.yul\":187:199   */\n      revert\n        /* \"#utility.yul\":211:328   */\n    tag_150:\n        /* \"#utility.yul\":320:321   */\n      0x00\n        /* \"#utility.yul\":317:318   */\n      dup1\n        /* \"#utility.yul\":310:322   */\n      revert\n        /* \"#utility.yul\":334:460   */\n    tag_151:\n        /* \"#utility.yul\":371:378   */\n      0x00\n        /* \"#utility.yul\":411:453   */\n      0xffffffffffffffffffffffffffffffffffffffff\n        /* \"#utility.yul\":404:409   */\n      dup3\n        /* \"#utility.yul\":400:454   */\n      and\n        /* \"#utility.yul\":389:454   */\n      swap1\n      pop\n        /* \"#utility.yul\":334:460   */\n      swap2\n      swap1\n      pop\n      jump\t// out\n        /* \"#utility.yul\":466:562   */\n    tag_152:\n        /* \"#utility.yul\":503:510   */\n      0x00\n        /* \"#utility.yul\":532:556   */\n      tag_226\n        /* \"#utility.yul\":550:555   */\n      dup3\n        /* \"#utility.yul\":532:556   */\n      tag_151\n      jump\t// in\n    tag_226:\n        /* \"#utility.yul\":521:556   */\n      swap1\n      pop\n        /* \"#utility.yul\":466:562   */\n      swap2\n      swap1\n      pop\n      jump\t// out\n        /* \"#utility.yul\":568:690   */\n    tag_153:\n        /* \"#utility.yul\":641:665   */\n      tag_228\n        /* \"#utility.yul\":659:664   */\n      dup2\n        /* \"#utility.yul\":641:665   */\n      tag_152\n      jump\t// in\n    tag_228:\n        /* \"#utility.yul\":634:639   */\n      dup2\n        /* \"#utility.yul\":631:666   */\n      eq\n        /* \"#utility.yul\":621:684   */\n      tag_229\n      jumpi\n        /* \"#utility.yul\":680:681   */\n      0x00\n        /* \"#utility.yul\":677:678   */\n      dup1\n        /* \"#utility.yul\":670:682   */\n      revert\n        /* \"#utility.yul\":621:684   */\n    tag_229:\n        /* \"#utility.yul\":568:690   */\n      pop\n      jump\t// out\n        /* \"#utility.yul\":696:835   */\n    tag_154:\n        /* \"#utility.yul\":742:747   */\n      0x00\n        /* \"#utility.yul\":780:786   */\n      dup2\n        /* \"#utility.yul\":767:787   */\n      calldataload\n        /* \"#utility.yul\":758:787   */\n      swap1\n      pop\n        /* \"#utility.yul\":796:829   */\n      tag_231\n        /* \"#utility.yul\":823:828   */\n      dup2\n        /* \"#utility.yul\":796:829   */\n      tag_153\n      jump\t// in\n    tag_231:\n        /* \"#utility.yul\":696:835   */\n      swap3\n      swap2\n      pop\n      pop\n      jump\t// out\n        /* \"#utility.yul\":841:954   */\n    tag_155:\n        /* \"#utility.yul\":928:929   */\n      0x02\n        /* \"#utility.yul\":921:926   */\n      dup2\n        /* \"#utility.yul\":918:930   */\n      lt\n        /* \"#utility.yul\":908:948   */\n      tag_233\n      jumpi\n        /* \"#utility.yul\":944:945   */\n      0x00\n        /* \"#utility.yul\":941:942   */\n      dup1\n        /* \"#utility.yul\":934:946   */\n      revert\n        /* \"#utility.yul\":908:948   */\n    tag_233:\n        /* \"#utility.yul\":841:954   */\n      pop\n      jump\t// out\n        /* \"#utility.yul\":960:1127   */\n    tag_156:\n        /* \"#utility.yul\":1020:1025   */\n      0x00\n        /* \"#utility.yul\":1058:1064   */\n      dup2\n        /* \"#utility.yul\":1045:1065   */\n      calldataload\n        /* \"#utility.yul\":1036:1065   */\n      swap1\n      pop\n        /* \"#utility.yul\":1074:1121   */\n      tag_235\n        /* \"#utility.yul\":1115:1120   */\n      dup2\n        /* \"#utility.yul\":1074:1121   */\n      tag_155\n      jump\t// in\n    tag_235:\n        /* \"#utility.yul\":960:1127   */\n      swap3\n      swap2\n      pop\n      pop\n      jump\t// out\n        /* \"#utility.yul\":1133:1635   */\n    tag_10:\n        /* \"#utility.yul\":1215:1221   */\n      0x00\n        /* \"#utility.yul\":1223:1229   */\n      dup1\n        /* \"#utility.yul\":1272:1274   */\n      0x40\n        /* \"#utility.yul\":1260:1269   */\n      dup4\n        /* \"#utility.yul\":1251:1258   */\n      dup6\n        /* \"#utility.yul\":1247:1270   */\n      sub\n        /* \"#utility.yul\":1243:1275   */\n      slt\n        /* \"#utility.yul\":1240:1359   */\n      iszero\n      tag_237\n      jumpi\n        /* \"#utility.yul\":1278:1357   */\n      tag_238\n      tag_149\n      jump\t// in\n    tag_238:\n        /* \"#utility.yul\":1240:1359   */\n    tag_237:\n        /* \"#utility.yul\":1398:1399   */\n      0x00\n        /* \"#utility.yul\":1423:1476   */\n      tag_239\n        /* \"#utility.yul\":1468:1475   */\n      dup6\n        /* \"#utility.yul\":1459:1465   */\n      dup3\n        /* \"#utility.yul\":1448:1457   */\n      dup7\n        /* \"#utility.yul\":1444:1466   */\n      add\n        /* \"#utility.yul\":1423:1476   */\n      tag_154\n      jump\t// in\n    tag_239:\n        /* \"#utility.yul\":1413:1476   */\n      swap3\n      pop\n        /* \"#utility.yul\":1369:1486   */\n      pop\n        /* \"#utility.yul\":1525:1527   */\n      0x20\n        /* \"#utility.yul\":1551:1618   */\n      tag_240\n        /* \"#utility.yul\":1610:1617   */\n      dup6\n        /* \"#utility.yul\":1601:1607   */\n      dup3\n        /* \"#utility.yul\":1590:1599   */\n      dup7\n        /* \"#utility.yul\":1586:1608   */\n      add\n        /* \"#utility.yul\":1551:1618   */\n      tag_156\n      jump\t// in\n    tag_240:\n        /* \"#utility.yul\":1541:1618   */\n      swap2\n      pop\n        /* \"#utility.yul\":1496:1628   */\n      pop\n        /* \"#utility.yul\":1133:1635   */\n      swap3\n      pop\n      swap3\n      swap1\n      pop\n      jump\t// out\n        /* \"#utility.yul\":1641:1731   */\n    tag_157:\n        /* \"#utility.yul\":1675:1682   */\n      0x00\n        /* \"#utility.yul\":1718:1723   */\n      dup2\n        /* \"#utility.yul\":1711:1724   */\n      iszero\n        /* \"#utility.yul\":1704:1725   */\n      iszero\n        /* \"#utility.yul\":1693:1725   */\n      swap1\n      pop\n        /* \"#utility.yul\":1641:1731   */\n      swap2\n      swap1\n      pop\n      jump\t// out\n        /* \"#utility.yul\":1737:1846   */\n    tag_158:\n        /* \"#utility.yul\":1818:1839   */\n      tag_243\n        /* \"#utility.yul\":1833:1838   */\n      dup2\n        /* \"#utility.yul\":1818:1839   */\n      tag_157\n      jump\t// in\n    tag_243:\n        /* \"#utility.yul\":1813:1816   */\n      dup3\n        /* \"#utility.yul\":1806:1840   */\n      mstore\n        /* \"#utility.yul\":1737:1846   */\n      pop\n      pop\n      jump\t// out\n        /* \"#utility.yul\":1852:2062   */\n    tag_13:\n        /* \"#utility.yul\":1939:1943   */\n      0x00\n        /* \"#utility.yul\":1977:1979   */\n      0x20\n        /* \"#utility.yul\":1966:1975   */\n      dup3\n        /* \"#utility.yul\":1962:1980   */\n      add\n        /* \"#utility.yul\":1954:1980   */\n      swap1\n      pop\n        /* \"#utility.yul\":1990:2055   */\n      tag_245\n        /* \"#utility.yul\":2052:2053   */\n      0x00\n        /* \"#utility.yul\":2041:2050   */\n      dup4\n        /* \"#utility.yul\":2037:2054   */\n      add\n        /* \"#utility.yul\":2028:2034   */\n      dup5\n        /* \"#utility.yul\":1990:2055   */\n      tag_158\n      jump\t// in\n    tag_245:\n        /* \"#utility.yul\":1852:2062   */\n      swap3\n      swap2\n      pop\n      pop\n      jump\t// out\n        /* \"#utility.yul\":2068:2185   */\n    tag_159:\n        /* \"#utility.yul\":2177:2178   */\n      0x00\n        /* \"#utility.yul\":2174:2175   */\n      dup1\n        /* \"#utility.yul\":2167:2179   */\n      revert\n        /* \"#utility.yul\":2191:2308   */\n    tag_160:\n        /* \"#utility.yul\":2300:2301   */\n      0x00\n        /* \"#utility.yul\":2297:2298   */\n      dup1\n        /* \"#utility.yul\":2290:2302   */\n      revert\n        /* \"#utility.yul\":2314:2416   */\n    tag_161:\n        /* \"#utility.yul\":2355:2361   */\n      0x00\n        /* \"#utility.yul\":2406:2408   */\n      0x1f\n        /* \"#utility.yul\":2402:2409   */\n      not\n        /* \"#utility.yul\":2397:2399   */\n      0x1f\n        /* \"#utility.yul\":2390:2395   */\n      dup4\n        /* \"#utility.yul\":2386:2400   */\n      add\n        /* \"#utility.yul\":2382:2410   */\n      and\n        /* \"#utility.yul\":2372:2410   */\n      swap1\n      pop\n        /* \"#utility.yul\":2314:2416   */\n      swap2\n      swap1\n      pop\n      jump\t// out\n        /* \"#utility.yul\":2422:2602   */\n    tag_162:\n        /* \"#utility.yul\":2470:2547   */\n      0x4e487b7100000000000000000000000000000000000000000000000000000000\n        /* \"#utility.yul\":2467:2468   */\n      0x00\n        /* \"#utility.yul\":2460:2548   */\n      mstore\n        /* \"#utility.yul\":2567:2571   */\n      0x41\n        /* \"#utility.yul\":2564:2565   */\n      0x04\n        /* \"#utility.yul\":2557:2572   */\n      mstore\n        /* \"#utility.yul\":2591:2595   */\n      0x24\n        /* \"#utility.yul\":2588:2589   */\n      0x00\n        /* \"#utility.yul\":2581:2596   */\n      revert\n        /* \"#utility.yul\":2608:2889   */\n    tag_163:\n        /* \"#utility.yul\":2691:2718   */\n      tag_251\n        /* \"#utility.yul\":2713:2717   */\n      dup3\n        /* \"#utility.yul\":2691:2718   */\n      tag_161\n      jump\t// in\n    tag_251:\n        /* \"#utility.yul\":2683:2689   */\n      dup2\n        /* \"#utility.yul\":2679:2719   */\n      add\n        /* \"#utility.yul\":2821:2827   */\n      dup2\n        /* \"#utility.yul\":2809:2819   */\n      dup2\n        /* \"#utility.yul\":2806:2828   */\n      lt\n        /* \"#utility.yul\":2785:2803   */\n      0xffffffffffffffff\n        /* \"#utility.yul\":2773:2783   */\n      dup3\n        /* \"#utility.yul\":2770:2804   */\n      gt\n        /* \"#utility.yul\":2767:2829   */\n      or\n        /* \"#utility.yul\":2764:2852   */\n      iszero\n      tag_252\n      jumpi\n        /* \"#utility.yul\":2832:2850   */\n      tag_253\n      tag_162\n      jump\t// in\n    tag_253:\n        /* \"#utility.yul\":2764:2852   */\n    tag_252:\n        /* \"#utility.yul\":2872:2882   */\n      dup1\n        /* \"#utility.yul\":2868:2870   */\n      0x40\n        /* \"#utility.yul\":2861:2883   */\n      mstore\n        /* \"#utility.yul\":2651:2889   */\n      pop\n        /* \"#utility.yul\":2608:2889   */\n      pop\n      pop\n      jump\t// out\n        /* \"#utility.yul\":2895:3024   */\n    tag_164:\n        /* \"#utility.yul\":2929:2935   */\n      0x00\n        /* \"#utility.yul\":2956:2976   */\n      tag_255\n      tag_148\n      jump\t// in\n    tag_255:\n        /* \"#utility.yul\":2946:2976   */\n      swap1\n      pop\n        /* \"#utility.yul\":2985:3018   */\n      tag_256\n        /* \"#utility.yul\":3013:3017   */\n      dup3\n        /* \"#utility.yul\":3005:3011   */\n      dup3\n        /* \"#utility.yul\":2985:3018   */\n      tag_163\n      jump\t// in\n    tag_256:\n        /* \"#utility.yul\":2895:3024   */\n      swap2\n      swap1\n      pop\n      jump\t// out\n        /* \"#utility.yul\":3030:3338   */\n    tag_165:\n        /* \"#utility.yul\":3092:3096   */\n      0x00\n        /* \"#utility.yul\":3182:3200   */\n      0xffffffffffffffff\n        /* \"#utility.yul\":3174:3180   */\n      dup3\n        /* \"#utility.yul\":3171:3201   */\n      gt\n        /* \"#utility.yul\":3168:3224   */\n      iszero\n      tag_258\n      jumpi\n        /* \"#utility.yul\":3204:3222   */\n      tag_259\n      tag_162\n      jump\t// in\n    tag_259:\n        /* \"#utility.yul\":3168:3224   */\n    tag_258:\n        /* \"#utility.yul\":3242:3271   */\n      tag_260\n        /* \"#utility.yul\":3264:3270   */\n      dup3\n        /* \"#utility.yul\":3242:3271   */\n      tag_161\n      jump\t// in\n    tag_260:\n        /* \"#utility.yul\":3234:3271   */\n      swap1\n      pop\n        /* \"#utility.yul\":3326:3330   */\n      0x20\n        /* \"#utility.yul\":3320:3324   */\n      dup2\n        /* \"#utility.yul\":3316:3331   */\n      add\n        /* \"#utility.yul\":3308:3331   */\n      swap1\n      pop\n        /* \"#utility.yul\":3030:3338   */\n      swap2\n      swap1\n      pop\n      jump\t// out\n        /* \"#utility.yul\":3344:3490   */\n    tag_166:\n        /* \"#utility.yul\":3441:3447   */\n      dup3\n        /* \"#utility.yul\":3436:3439   */\n      dup2\n        /* \"#utility.yul\":3431:3434   */\n      dup4\n        /* \"#utility.yul\":3418:3448   */\n      calldatacopy\n        /* \"#utility.yul\":3482:3483   */\n      0x00\n        /* \"#utility.yul\":3473:3479   */\n      dup4\n        /* \"#utility.yul\":3468:3471   */\n      dup4\n        /* \"#utility.yul\":3464:3480   */\n      add\n        /* \"#utility.yul\":3457:3484   */\n      mstore\n        /* \"#utility.yul\":3344:3490   */\n      pop\n      pop\n      pop\n      jump\t// out\n        /* \"#utility.yul\":3496:3921   */\n    tag_167:\n        /* \"#utility.yul\":3574:3579   */\n      0x00\n        /* \"#utility.yul\":3599:3665   */\n      tag_263\n        /* \"#utility.yul\":3615:3664   */\n      tag_264\n        /* \"#utility.yul\":3657:3663   */\n      dup5\n        /* \"#utility.yul\":3615:3664   */\n      tag_165\n      jump\t// in\n    tag_264:\n        /* \"#utility.yul\":3599:3665   */\n      tag_164\n      jump\t// in\n    tag_263:\n        /* \"#utility.yul\":3590:3665   */\n      swap1\n      pop\n        /* \"#utility.yul\":3688:3694   */\n      dup3\n        /* \"#utility.yul\":3681:3686   */\n      dup2\n        /* \"#utility.yul\":3674:3695   */\n      mstore\n        /* \"#utility.yul\":3726:3730   */\n      0x20\n        /* \"#utility.yul\":3719:3724   */\n      dup2\n        /* \"#utility.yul\":3715:3731   */\n      add\n        /* \"#utility.yul\":3764:3767   */\n      dup5\n        /* \"#utility.yul\":3755:3761   */\n      dup5\n        /* \"#utility.yul\":3750:3753   */\n      dup5\n        /* \"#utility.yul\":3746:3762   */\n      add\n        /* \"#utility.yul\":3743:3768   */\n      gt\n        /* \"#utility.yul\":3740:3852   */\n      iszero\n      tag_265\n      jumpi\n        /* \"#utility.yul\":3771:3850   */\n      tag_266\n      tag_160\n      jump\t// in\n    tag_266:\n        /* \"#utility.yul\":3740:3852   */\n    tag_265:\n        /* \"#utility.yul\":3861:3915   */\n      tag_267\n        /* \"#utility.yul\":3908:3914   */\n      dup5\n        /* \"#utility.yul\":3903:3906   */\n      dup3\n        /* \"#utility.yul\":3898:3901   */\n      dup6\n        /* \"#utility.yul\":3861:3915   */\n      tag_166\n      jump\t// in\n    tag_267:\n        /* \"#utility.yul\":3580:3921   */\n      pop\n        /* \"#utility.yul\":3496:3921   */\n      swap4\n      swap3\n      pop\n      pop\n      pop\n      jump\t// out\n        /* \"#utility.yul\":3941:4281   */\n    tag_168:\n        /* \"#utility.yul\":3997:4002   */\n      0x00\n        /* \"#utility.yul\":4046:4049   */\n      dup3\n        /* \"#utility.yul\":4039:4043   */\n      0x1f\n        /* \"#utility.yul\":4031:4037   */\n      dup4\n        /* \"#utility.yul\":4027:4044   */\n      add\n        /* \"#utility.yul\":4023:4050   */\n      slt\n        /* \"#utility.yul\":4013:4135   */\n      tag_269\n      jumpi\n        /* \"#utility.yul\":4054:4133   */\n      tag_270\n      tag_159\n      jump\t// in\n    tag_270:\n        /* \"#utility.yul\":4013:4135   */\n    tag_269:\n        /* \"#utility.yul\":4171:4177   */\n      dup2\n        /* \"#utility.yul\":4158:4178   */\n      calldataload\n        /* \"#utility.yul\":4196:4275   */\n      tag_271\n        /* \"#utility.yul\":4271:4274   */\n      dup5\n        /* \"#utility.yul\":4263:4269   */\n      dup3\n        /* \"#utility.yul\":4256:4260   */\n      0x20\n        /* \"#utility.yul\":4248:4254   */\n      dup7\n        /* \"#utility.yul\":4244:4261   */\n      add\n        /* \"#utility.yul\":4196:4275   */\n      tag_167\n      jump\t// in\n    tag_271:\n        /* \"#utility.yul\":4187:4275   */\n      swap2\n      pop\n        /* \"#utility.yul\":4003:4281   */\n      pop\n        /* \"#utility.yul\":3941:4281   */\n      swap3\n      swap2\n      pop\n      pop\n      jump\t// out\n        /* \"#utility.yul\":4287:4796   */\n    tag_16:\n        /* \"#utility.yul\":4356:4362   */\n      0x00\n        /* \"#utility.yul\":4405:4407   */\n      0x20\n        /* \"#utility.yul\":4393:4402   */\n      dup3\n        /* \"#utility.yul\":4384:4391   */\n      dup5\n        /* \"#utility.yul\":4380:4403   */\n      sub\n        /* \"#utility.yul\":4376:4408   */\n      slt\n        /* \"#utility.yul\":4373:4492   */\n      iszero\n      tag_273\n      jumpi\n        /* \"#utility.yul\":4411:4490   */\n      tag_274\n      tag_149\n      jump\t// in\n    tag_274:\n        /* \"#utility.yul\":4373:4492   */\n    tag_273:\n        /* \"#utility.yul\":4559:4560   */\n      0x00\n        /* \"#utility.yul\":4548:4557   */\n      dup3\n        /* \"#utility.yul\":4544:4561   */\n      add\n        /* \"#utility.yul\":4531:4562   */\n      calldataload\n        /* \"#utility.yul\":4589:4607   */\n      0xffffffffffffffff\n        /* \"#utility.yul\":4581:4587   */\n      dup2\n        /* \"#utility.yul\":4578:4608   */\n      gt\n        /* \"#utility.yul\":4575:4692   */\n      iszero\n      tag_275\n      jumpi\n        /* \"#utility.yul\":4611:4690   */\n      tag_276\n      tag_150\n      jump\t// in\n    tag_276:\n        /* \"#utility.yul\":4575:4692   */\n    tag_275:\n        /* \"#utility.yul\":4716:4779   */\n      tag_277\n        /* \"#utility.yul\":4771:4778   */\n      dup5\n        /* \"#utility.yul\":4762:4768   */\n      dup3\n        /* \"#utility.yul\":4751:4760   */\n      dup6\n        /* \"#utility.yul\":4747:4769   */\n      add\n        /* \"#utility.yul\":4716:4779   */\n      tag_168\n      jump\t// in\n    tag_277:\n        /* \"#utility.yul\":4706:4779   */\n      swap2\n      pop\n        /* \"#utility.yul\":4502:4789   */\n      pop\n        /* \"#utility.yul\":4287:4796   */\n      swap3\n      swap2\n      pop\n      pop\n      jump\t// out\n        /* \"#utility.yul\":4802:4910   */\n    tag_169:\n        /* \"#utility.yul\":4879:4903   */\n      tag_279\n        /* \"#utility.yul\":4897:4902   */\n      dup2\n        /* \"#utility.yul\":4879:4903   */\n      tag_152\n      jump\t// in\n    tag_279:\n        /* \"#utility.yul\":4874:4877   */\n      dup3\n        /* \"#utility.yul\":4867:4904   */\n      mstore\n        /* \"#utility.yul\":4802:4910   */\n      pop\n      pop\n      jump\t// out\n        /* \"#utility.yul\":4916:5015   */\n    tag_170:\n        /* \"#utility.yul\":4968:4974   */\n      0x00\n        /* \"#utility.yul\":5002:5007   */\n      dup2\n        /* \"#utility.yul\":4996:5008   */\n      mload\n        /* \"#utility.yul\":4986:5008   */\n      swap1\n      pop\n        /* \"#utility.yul\":4916:5015   */\n      swap2\n      swap1\n      pop\n      jump\t// out\n        /* \"#utility.yul\":5021:5180   */\n    tag_171:\n        /* \"#utility.yul\":5095:5106   */\n      0x00\n        /* \"#utility.yul\":5129:5135   */\n      dup3\n        /* \"#utility.yul\":5124:5127   */\n      dup3\n        /* \"#utility.yul\":5117:5136   */\n      mstore\n        /* \"#utility.yul\":5169:5173   */\n      0x20\n        /* \"#utility.yul\":5164:5167   */\n      dup3\n        /* \"#utility.yul\":5160:5174   */\n      add\n        /* \"#utility.yul\":5145:5174   */\n      swap1\n      pop\n        /* \"#utility.yul\":5021:5180   */\n      swap3\n      swap2\n      pop\n      pop\n      jump\t// out\n        /* \"#utility.yul\":5186:5432   */\n    tag_172:\n        /* \"#utility.yul\":5267:5268   */\n      0x00\n        /* \"#utility.yul\":5277:5390   */\n    tag_283:\n        /* \"#utility.yul\":5291:5297   */\n      dup4\n        /* \"#utility.yul\":5288:5289   */\n      dup2\n        /* \"#utility.yul\":5285:5298   */\n      lt\n        /* \"#utility.yul\":5277:5390   */\n      iszero\n      tag_285\n      jumpi\n        /* \"#utility.yul\":5376:5377   */\n      dup1\n        /* \"#utility.yul\":5371:5374   */\n      dup3\n        /* \"#utility.yul\":5367:5378   */\n      add\n        /* \"#utility.yul\":5361:5379   */\n      mload\n        /* \"#utility.yul\":5357:5358   */\n      dup2\n        /* \"#utility.yul\":5352:5355   */\n      dup5\n        /* \"#utility.yul\":5348:5359   */\n      add\n        /* \"#utility.yul\":5341:5380   */\n      mstore\n        /* \"#utility.yul\":5313:5315   */\n      0x20\n        /* \"#utility.yul\":5310:5311   */\n      dup2\n        /* \"#utility.yul\":5306:5316   */\n      add\n        /* \"#utility.yul\":5301:5316   */\n      swap1\n      pop\n        /* \"#utility.yul\":5277:5390   */\n      jump(tag_283)\n    tag_285:\n        /* \"#utility.yul\":5424:5425   */\n      0x00\n        /* \"#utility.yul\":5415:5421   */\n      dup5\n        /* \"#utility.yul\":5410:5413   */\n      dup5\n        /* \"#utility.yul\":5406:5422   */\n      add\n        /* \"#utility.yul\":5399:5426   */\n      mstore\n        /* \"#utility.yul\":5248:5432   */\n      pop\n        /* \"#utility.yul\":5186:5432   */\n      pop\n      pop\n      pop\n      jump\t// out\n        /* \"#utility.yul\":5438:5795   */\n    tag_173:\n        /* \"#utility.yul\":5516:5519   */\n      0x00\n        /* \"#utility.yul\":5544:5583   */\n      tag_287\n        /* \"#utility.yul\":5577:5582   */\n      dup3\n        /* \"#utility.yul\":5544:5583   */\n      tag_170\n      jump\t// in\n    tag_287:\n        /* \"#utility.yul\":5599:5660   */\n      tag_288\n        /* \"#utility.yul\":5653:5659   */\n      dup2\n        /* \"#utility.yul\":5648:5651   */\n      dup6\n        /* \"#utility.yul\":5599:5660   */\n      tag_171\n      jump\t// in\n    tag_288:\n        /* \"#utility.yul\":5592:5660   */\n      swap4\n      pop\n        /* \"#utility.yul\":5669:5734   */\n      tag_289\n        /* \"#utility.yul\":5727:5733   */\n      dup2\n        /* \"#utility.yul\":5722:5725   */\n      dup6\n        /* \"#utility.yul\":5715:5719   */\n      0x20\n        /* \"#utility.yul\":5708:5713   */\n      dup7\n        /* \"#utility.yul\":5704:5720   */\n      add\n        /* \"#utility.yul\":5669:5734   */\n      tag_172\n      jump\t// in\n    tag_289:\n        /* \"#utility.yul\":5759:5788   */\n      tag_290\n        /* \"#utility.yul\":5781:5787   */\n      dup2\n        /* \"#utility.yul\":5759:5788   */\n      tag_161\n      jump\t// in\n    tag_290:\n        /* \"#utility.yul\":5754:5757   */\n      dup5\n        /* \"#utility.yul\":5750:5789   */\n      add\n        /* \"#utility.yul\":5743:5789   */\n      swap2\n      pop\n        /* \"#utility.yul\":5520:5795   */\n      pop\n        /* \"#utility.yul\":5438:5795   */\n      swap3\n      swap2\n      pop\n      pop\n      jump\t// out\n        /* \"#utility.yul\":5801:5878   */\n    tag_174:\n        /* \"#utility.yul\":5838:5845   */\n      0x00\n        /* \"#utility.yul\":5867:5872   */\n      dup2\n        /* \"#utility.yul\":5856:5872   */\n      swap1\n      pop\n        /* \"#utility.yul\":5801:5878   */\n      swap2\n      swap1\n      pop\n      jump\t// out\n        /* \"#utility.yul\":5884:5992   */\n    tag_175:\n        /* \"#utility.yul\":5961:5985   */\n      tag_293\n        /* \"#utility.yul\":5979:5984   */\n      dup2\n        /* \"#utility.yul\":5961:5985   */\n      tag_174\n      jump\t// in\n    tag_293:\n        /* \"#utility.yul\":5956:5959   */\n      dup3\n        /* \"#utility.yul\":5949:5986   */\n      mstore\n        /* \"#utility.yul\":5884:5992   */\n      pop\n      pop\n      jump\t// out\n        /* \"#utility.yul\":5998:6097   */\n    tag_176:\n        /* \"#utility.yul\":6069:6090   */\n      tag_295\n        /* \"#utility.yul\":6084:6089   */\n      dup2\n        /* \"#utility.yul\":6069:6090   */\n      tag_157\n      jump\t// in\n    tag_295:\n        /* \"#utility.yul\":6064:6067   */\n      dup3\n        /* \"#utility.yul\":6057:6091   */\n      mstore\n        /* \"#utility.yul\":5998:6097   */\n      pop\n      pop\n      jump\t// out\n        /* \"#utility.yul\":6167:8234   */\n    tag_177:\n        /* \"#utility.yul\":6280:6283   */\n      0x00\n        /* \"#utility.yul\":6316:6322   */\n      0x0140\n        /* \"#utility.yul\":6311:6314   */\n      dup4\n        /* \"#utility.yul\":6307:6323   */\n      add\n        /* \"#utility.yul\":6406:6410   */\n      0x00\n        /* \"#utility.yul\":6399:6404   */\n      dup4\n        /* \"#utility.yul\":6395:6411   */\n      add\n        /* \"#utility.yul\":6389:6412   */\n      mload\n        /* \"#utility.yul\":6425:6488   */\n      tag_297\n        /* \"#utility.yul\":6482:6486   */\n      0x00\n        /* \"#utility.yul\":6477:6480   */\n      dup7\n        /* \"#utility.yul\":6473:6487   */\n      add\n        /* \"#utility.yul\":6459:6471   */\n      dup3\n        /* \"#utility.yul\":6425:6488   */\n      tag_169\n      jump\t// in\n    tag_297:\n        /* \"#utility.yul\":6333:6498   */\n      pop\n        /* \"#utility.yul\":6582:6586   */\n      0x20\n        /* \"#utility.yul\":6575:6580   */\n      dup4\n        /* \"#utility.yul\":6571:6587   */\n      add\n        /* \"#utility.yul\":6565:6588   */\n      mload\n        /* \"#utility.yul\":6635:6638   */\n      dup5\n        /* \"#utility.yul\":6629:6633   */\n      dup3\n        /* \"#utility.yul\":6625:6639   */\n      sub\n        /* \"#utility.yul\":6618:6622   */\n      0x20\n        /* \"#utility.yul\":6613:6616   */\n      dup7\n        /* \"#utility.yul\":6609:6623   */\n      add\n        /* \"#utility.yul\":6602:6640   */\n      mstore\n        /* \"#utility.yul\":6661:6734   */\n      tag_298\n        /* \"#utility.yul\":6729:6733   */\n      dup3\n        /* \"#utility.yul\":6715:6727   */\n      dup3\n        /* \"#utility.yul\":6661:6734   */\n      tag_173\n      jump\t// in\n    tag_298:\n        /* \"#utility.yul\":6653:6734   */\n      swap2\n      pop\n        /* \"#utility.yul\":6508:6745   */\n      pop\n        /* \"#utility.yul\":6831:6835   */\n      0x40\n        /* \"#utility.yul\":6824:6829   */\n      dup4\n        /* \"#utility.yul\":6820:6836   */\n      add\n        /* \"#utility.yul\":6814:6837   */\n      mload\n        /* \"#utility.yul\":6850:6913   */\n      tag_299\n        /* \"#utility.yul\":6907:6911   */\n      0x40\n        /* \"#utility.yul\":6902:6905   */\n      dup7\n        /* \"#utility.yul\":6898:6912   */\n      add\n        /* \"#utility.yul\":6884:6896   */\n      dup3\n        /* \"#utility.yul\":6850:6913   */\n      tag_175\n      jump\t// in\n    tag_299:\n        /* \"#utility.yul\":6755:6923   */\n      pop\n        /* \"#utility.yul\":7016:7020   */\n      0x60\n        /* \"#utility.yul\":7009:7014   */\n      dup4\n        /* \"#utility.yul\":7005:7021   */\n      add\n        /* \"#utility.yul\":6999:7022   */\n      mload\n        /* \"#utility.yul\":7035:7098   */\n      tag_300\n        /* \"#utility.yul\":7092:7096   */\n      0x60\n        /* \"#utility.yul\":7087:7090   */\n      dup7\n        /* \"#utility.yul\":7083:7097   */\n      add\n        /* \"#utility.yul\":7069:7081   */\n      dup3\n        /* \"#utility.yul\":7035:7098   */\n      tag_175\n      jump\t// in\n    tag_300:\n        /* \"#utility.yul\":6933:7108   */\n      pop\n        /* \"#utility.yul\":7206:7210   */\n      0x80\n        /* \"#utility.yul\":7199:7204   */\n      dup4\n        /* \"#utility.yul\":7195:7211   */\n      add\n        /* \"#utility.yul\":7189:7212   */\n      mload\n        /* \"#utility.yul\":7225:7288   */\n      tag_301\n        /* \"#utility.yul\":7282:7286   */\n      0x80\n        /* \"#utility.yul\":7277:7280   */\n      dup7\n        /* \"#utility.yul\":7273:7287   */\n      add\n        /* \"#utility.yul\":7259:7271   */\n      dup3\n        /* \"#utility.yul\":7225:7288   */\n      tag_175\n      jump\t// in\n    tag_301:\n        /* \"#utility.yul\":7118:7298   */\n      pop\n        /* \"#utility.yul\":7395:7399   */\n      0xa0\n        /* \"#utility.yul\":7388:7393   */\n      dup4\n        /* \"#utility.yul\":7384:7400   */\n      add\n        /* \"#utility.yul\":7378:7401   */\n      mload\n        /* \"#utility.yul\":7414:7477   */\n      tag_302\n        /* \"#utility.yul\":7471:7475   */\n      0xa0\n        /* \"#utility.yul\":7466:7469   */\n      dup7\n        /* \"#utility.yul\":7462:7476   */\n      add\n        /* \"#utility.yul\":7448:7460   */\n      dup3\n        /* \"#utility.yul\":7414:7477   */\n      tag_175\n      jump\t// in\n    tag_302:\n        /* \"#utility.yul\":7308:7487   */\n      pop\n        /* \"#utility.yul\":7581:7585   */\n      0xc0\n        /* \"#utility.yul\":7574:7579   */\n      dup4\n        /* \"#utility.yul\":7570:7586   */\n      add\n        /* \"#utility.yul\":7564:7587   */\n      mload\n        /* \"#utility.yul\":7600:7657   */\n      tag_303\n        /* \"#utility.yul\":7651:7655   */\n      0xc0\n        /* \"#utility.yul\":7646:7649   */\n      dup7\n        /* \"#utility.yul\":7642:7656   */\n      add\n        /* \"#utility.yul\":7628:7640   */\n      dup3\n        /* \"#utility.yul\":7600:7657   */\n      tag_176\n      jump\t// in\n    tag_303:\n        /* \"#utility.yul\":7497:7667   */\n      pop\n        /* \"#utility.yul\":7769:7773   */\n      0xe0\n        /* \"#utility.yul\":7762:7767   */\n      dup4\n        /* \"#utility.yul\":7758:7774   */\n      add\n        /* \"#utility.yul\":7752:7775   */\n      mload\n        /* \"#utility.yul\":7788:7845   */\n      tag_304\n        /* \"#utility.yul\":7839:7843   */\n      0xe0\n        /* \"#utility.yul\":7834:7837   */\n      dup7\n        /* \"#utility.yul\":7830:7844   */\n      add\n        /* \"#utility.yul\":7816:7828   */\n      dup3\n        /* \"#utility.yul\":7788:7845   */\n      tag_176\n      jump\t// in\n    tag_304:\n        /* \"#utility.yul\":7677:7855   */\n      pop\n        /* \"#utility.yul\":7941:7947   */\n      0x0100\n        /* \"#utility.yul\":7934:7939   */\n      dup4\n        /* \"#utility.yul\":7930:7948   */\n      add\n        /* \"#utility.yul\":7924:7949   */\n      mload\n        /* \"#utility.yul\":7962:8021   */\n      tag_305\n        /* \"#utility.yul\":8013:8019   */\n      0x0100\n        /* \"#utility.yul\":8008:8011   */\n      dup7\n        /* \"#utility.yul\":8004:8020   */\n      add\n        /* \"#utility.yul\":7990:8002   */\n      dup3\n        /* \"#utility.yul\":7962:8021   */\n      tag_176\n      jump\t// in\n    tag_305:\n        /* \"#utility.yul\":7865:8031   */\n      pop\n        /* \"#utility.yul\":8117:8123   */\n      0x0120\n        /* \"#utility.yul\":8110:8115   */\n      dup4\n        /* \"#utility.yul\":8106:8124   */\n      add\n        /* \"#utility.yul\":8100:8125   */\n      mload\n        /* \"#utility.yul\":8138:8197   */\n      tag_306\n        /* \"#utility.yul\":8189:8195   */\n      0x0120\n        /* \"#utility.yul\":8184:8187   */\n      dup7\n        /* \"#utility.yul\":8180:8196   */\n      add\n        /* \"#utility.yul\":8166:8178   */\n      dup3\n        /* \"#utility.yul\":8138:8197   */\n      tag_176\n      jump\t// in\n    tag_306:\n        /* \"#utility.yul\":8041:8207   */\n      pop\n        /* \"#utility.yul\":8224:8228   */\n      dup1\n        /* \"#utility.yul\":8217:8228   */\n      swap2\n      pop\n        /* \"#utility.yul\":6285:8234   */\n      pop\n        /* \"#utility.yul\":6167:8234   */\n      swap3\n      swap2\n      pop\n      pop\n      jump\t// out\n        /* \"#utility.yul\":8240:8601   */\n    tag_19:\n        /* \"#utility.yul\":8377:8381   */\n      0x00\n        /* \"#utility.yul\":8415:8417   */\n      0x20\n        /* \"#utility.yul\":8404:8413   */\n      dup3\n        /* \"#utility.yul\":8400:8418   */\n      add\n        /* \"#utility.yul\":8392:8418   */\n      swap1\n      pop\n        /* \"#utility.yul\":8464:8473   */\n      dup2\n        /* \"#utility.yul\":8458:8462   */\n      dup2\n        /* \"#utility.yul\":8454:8474   */\n      sub\n        /* \"#utility.yul\":8450:8451   */\n      0x00\n        /* \"#utility.yul\":8439:8448   */\n      dup4\n        /* \"#utility.yul\":8435:8452   */\n      add\n        /* \"#utility.yul\":8428:8475   */\n      mstore\n        /* \"#utility.yul\":8492:8594   */\n      tag_308\n        /* \"#utility.yul\":8589:8593   */\n      dup2\n        /* \"#utility.yul\":8580:8586   */\n      dup5\n        /* \"#utility.yul\":8492:8594   */\n      tag_177\n      jump\t// in\n    tag_308:\n        /* \"#utility.yul\":8484:8594   */\n      swap1\n      pop\n        /* \"#utility.yul\":8240:8601   */\n      swap3\n      swap2\n      pop\n      pop\n      jump\t// out\n        /* \"#utility.yul\":8607:8936   */\n    tag_22:\n        /* \"#utility.yul\":8666:8672   */\n      0x00\n        /* \"#utility.yul\":8715:8717   */\n      0x20\n        /* \"#utility.yul\":8703:8712   */\n      dup3\n        /* \"#utility.yul\":8694:8701   */\n      dup5\n        /* \"#utility.yul\":8690:8713   */\n      sub\n        /* \"#utility.yul\":8686:8718   */\n      slt\n        /* \"#utility.yul\":8683:8802   */\n      iszero\n      tag_310\n      jumpi\n        /* \"#utility.yul\":8721:8800   */\n      tag_311\n      tag_149\n      jump\t// in\n    tag_311:\n        /* \"#utility.yul\":8683:8802   */\n    tag_310:\n        /* \"#utility.yul\":8841:8842   */\n      0x00\n        /* \"#utility.yul\":8866:8919   */\n      tag_312\n        /* \"#utility.yul\":8911:8918   */\n      dup5\n        /* \"#utility.yul\":8902:8908   */\n      dup3\n        /* \"#utility.yul\":8891:8900   */\n      dup6\n        /* \"#utility.yul\":8887:8909   */\n      add\n        /* \"#utility.yul\":8866:8919   */\n      tag_154\n      jump\t// in\n    tag_312:\n        /* \"#utility.yul\":8856:8919   */\n      swap2\n      pop\n        /* \"#utility.yul\":8812:8929   */\n      pop\n        /* \"#utility.yul\":8607:8936   */\n      swap3\n      swap2\n      pop\n      pop\n      jump\t// out\n        /* \"#utility.yul\":8942:9050   */\n    tag_178:\n        /* \"#utility.yul\":9024:9025   */\n      0x02\n        /* \"#utility.yul\":9017:9022   */\n      dup2\n        /* \"#utility.yul\":9014:9026   */\n      lt\n        /* \"#utility.yul\":9004:9044   */\n      tag_314\n      jumpi\n        /* \"#utility.yul\":9040:9041   */\n      0x00\n        /* \"#utility.yul\":9037:9038   */\n      dup1\n        /* \"#utility.yul\":9030:9042   */\n      revert\n        /* \"#utility.yul\":9004:9044   */\n    tag_314:\n        /* \"#utility.yul\":8942:9050   */\n      pop\n      jump\t// out\n        /* \"#utility.yul\":9056:9213   */\n    tag_179:\n        /* \"#utility.yul\":9111:9116   */\n      0x00\n        /* \"#utility.yul\":9149:9155   */\n      dup2\n        /* \"#utility.yul\":9136:9156   */\n      calldataload\n        /* \"#utility.yul\":9127:9156   */\n      swap1\n      pop\n        /* \"#utility.yul\":9165:9207   */\n      tag_316\n        /* \"#utility.yul\":9201:9206   */\n      dup2\n        /* \"#utility.yul\":9165:9207   */\n      tag_178\n      jump\t// in\n    tag_316:\n        /* \"#utility.yul\":9056:9213   */\n      swap3\n      swap2\n      pop\n      pop\n      jump\t// out\n        /* \"#utility.yul\":9219:9711   */\n    tag_27:\n        /* \"#utility.yul\":9296:9302   */\n      0x00\n        /* \"#utility.yul\":9304:9310   */\n      dup1\n        /* \"#utility.yul\":9353:9355   */\n      0x40\n        /* \"#utility.yul\":9341:9350   */\n      dup4\n        /* \"#utility.yul\":9332:9339   */\n      dup6\n        /* \"#utility.yul\":9328:9351   */\n      sub\n        /* \"#utility.yul\":9324:9356   */\n      slt\n        /* \"#utility.yul\":9321:9440   */\n      iszero\n      tag_318\n      jumpi\n        /* \"#utility.yul\":9359:9438   */\n      tag_319\n      tag_149\n      jump\t// in\n    tag_319:\n        /* \"#utility.yul\":9321:9440   */\n    tag_318:\n        /* \"#utility.yul\":9479:9480   */\n      0x00\n        /* \"#utility.yul\":9504:9557   */\n      tag_320\n        /* \"#utility.yul\":9549:9556   */\n      dup6\n        /* \"#utility.yul\":9540:9546   */\n      dup3\n        /* \"#utility.yul\":9529:9538   */\n      dup7\n        /* \"#utility.yul\":9525:9547   */\n      add\n        /* \"#utility.yul\":9504:9557   */\n      tag_154\n      jump\t// in\n    tag_320:\n        /* \"#utility.yul\":9494:9557   */\n      swap3\n      pop\n        /* \"#utility.yul\":9450:9567   */\n      pop\n        /* \"#utility.yul\":9606:9608   */\n      0x20\n        /* \"#utility.yul\":9632:9694   */\n      tag_321\n        /* \"#utility.yul\":9686:9693   */\n      dup6\n        /* \"#utility.yul\":9677:9683   */\n      dup3\n        /* \"#utility.yul\":9666:9675   */\n      dup7\n        /* \"#utility.yul\":9662:9684   */\n      add\n        /* \"#utility.yul\":9632:9694   */\n      tag_179\n      jump\t// in\n    tag_321:\n        /* \"#utility.yul\":9622:9694   */\n      swap2\n      pop\n        /* \"#utility.yul\":9577:9704   */\n      pop\n        /* \"#utility.yul\":9219:9711   */\n      swap3\n      pop\n      swap3\n      swap1\n      pop\n      jump\t// out\n        /* \"#utility.yul\":9717:9833   */\n    tag_180:\n        /* \"#utility.yul\":9787:9808   */\n      tag_323\n        /* \"#utility.yul\":9802:9807   */\n      dup2\n        /* \"#utility.yul\":9787:9808   */\n      tag_157\n      jump\t// in\n    tag_323:\n        /* \"#utility.yul\":9780:9785   */\n      dup2\n        /* \"#utility.yul\":9777:9809   */\n      eq\n        /* \"#utility.yul\":9767:9827   */\n      tag_324\n      jumpi\n        /* \"#utility.yul\":9823:9824   */\n      0x00\n        /* \"#utility.yul\":9820:9821   */\n      dup1\n        /* \"#utility.yul\":9813:9825   */\n      revert\n        /* \"#utility.yul\":9767:9827   */\n    tag_324:\n        /* \"#utility.yul\":9717:9833   */\n      pop\n      jump\t// out\n        /* \"#utility.yul\":9839:9972   */\n    tag_181:\n        /* \"#utility.yul\":9882:9887   */\n      0x00\n        /* \"#utility.yul\":9920:9926   */\n      dup2\n        /* \"#utility.yul\":9907:9927   */\n      calldataload\n        /* \"#utility.yul\":9898:9927   */\n      swap1\n      pop\n        /* \"#utility.yul\":9936:9966   */\n      tag_326\n        /* \"#utility.yul\":9960:9965   */\n      dup2\n        /* \"#utility.yul\":9936:9966   */\n      tag_180\n      jump\t// in\n    tag_326:\n        /* \"#utility.yul\":9839:9972   */\n      swap3\n      swap2\n      pop\n      pop\n      jump\t// out\n        /* \"#utility.yul\":9978:10100   */\n    tag_182:\n        /* \"#utility.yul\":10051:10075   */\n      tag_328\n        /* \"#utility.yul\":10069:10074   */\n      dup2\n        /* \"#utility.yul\":10051:10075   */\n      tag_174\n      jump\t// in\n    tag_328:\n        /* \"#utility.yul\":10044:10049   */\n      dup2\n        /* \"#utility.yul\":10041:10076   */\n      eq\n        /* \"#utility.yul\":10031:10094   */\n      tag_329\n      jumpi\n        /* \"#utility.yul\":10090:10091   */\n      0x00\n        /* \"#utility.yul\":10087:10088   */\n      dup1\n        /* \"#utility.yul\":10080:10092   */\n      revert\n        /* \"#utility.yul\":10031:10094   */\n    tag_329:\n        /* \"#utility.yul\":9978:10100   */\n      pop\n      jump\t// out\n        /* \"#utility.yul\":10106:10245   */\n    tag_183:\n        /* \"#utility.yul\":10152:10157   */\n      0x00\n        /* \"#utility.yul\":10190:10196   */\n      dup2\n        /* \"#utility.yul\":10177:10197   */\n      calldataload\n        /* \"#utility.yul\":10168:10197   */\n      swap1\n      pop\n        /* \"#utility.yul\":10206:10239   */\n      tag_331\n        /* \"#utility.yul\":10233:10238   */\n      dup2\n        /* \"#utility.yul\":10206:10239   */\n      tag_182\n      jump\t// in\n    tag_331:\n        /* \"#utility.yul\":10106:10245   */\n      swap3\n      swap2\n      pop\n      pop\n      jump\t// out\n        /* \"#utility.yul\":10251:11902   */\n    tag_32:\n        /* \"#utility.yul\":10380:10386   */\n      0x00\n        /* \"#utility.yul\":10388:10394   */\n      dup1\n        /* \"#utility.yul\":10396:10402   */\n      0x00\n        /* \"#utility.yul\":10404:10410   */\n      dup1\n        /* \"#utility.yul\":10412:10418   */\n      0x00\n        /* \"#utility.yul\":10420:10426   */\n      dup1\n        /* \"#utility.yul\":10428:10434   */\n      0x00\n        /* \"#utility.yul\":10436:10442   */\n      dup1\n        /* \"#utility.yul\":10444:10450   */\n      0x00\n        /* \"#utility.yul\":10493:10496   */\n      0x0120\n        /* \"#utility.yul\":10481:10490   */\n      dup11\n        /* \"#utility.yul\":10472:10479   */\n      dup13\n        /* \"#utility.yul\":10468:10491   */\n      sub\n        /* \"#utility.yul\":10464:10497   */\n      slt\n        /* \"#utility.yul\":10461:10581   */\n      iszero\n      tag_333\n      jumpi\n        /* \"#utility.yul\":10500:10579   */\n      tag_334\n      tag_149\n      jump\t// in\n    tag_334:\n        /* \"#utility.yul\":10461:10581   */\n    tag_333:\n        /* \"#utility.yul\":10620:10621   */\n      0x00\n        /* \"#utility.yul\":10645:10698   */\n      tag_335\n        /* \"#utility.yul\":10690:10697   */\n      dup13\n        /* \"#utility.yul\":10681:10687   */\n      dup3\n        /* \"#utility.yul\":10670:10679   */\n      dup14\n        /* \"#utility.yul\":10666:10688   */\n      add\n        /* \"#utility.yul\":10645:10698   */\n      tag_154\n      jump\t// in\n    tag_335:\n        /* \"#utility.yul\":10635:10698   */\n      swap10\n      pop\n        /* \"#utility.yul\":10591:10708   */\n      pop\n        /* \"#utility.yul\":10747:10749   */\n      0x20\n        /* \"#utility.yul\":10773:10823   */\n      tag_336\n        /* \"#utility.yul\":10815:10822   */\n      dup13\n        /* \"#utility.yul\":10806:10812   */\n      dup3\n        /* \"#utility.yul\":10795:10804   */\n      dup14\n        /* \"#utility.yul\":10791:10813   */\n      add\n        /* \"#utility.yul\":10773:10823   */\n      tag_181\n      jump\t// in\n    tag_336:\n        /* \"#utility.yul\":10763:10823   */\n      swap9\n      pop\n        /* \"#utility.yul\":10718:10833   */\n      pop\n        /* \"#utility.yul\":10872:10874   */\n      0x40\n        /* \"#utility.yul\":10898:10948   */\n      tag_337\n        /* \"#utility.yul\":10940:10947   */\n      dup13\n        /* \"#utility.yul\":10931:10937   */\n      dup3\n        /* \"#utility.yul\":10920:10929   */\n      dup14\n        /* \"#utility.yul\":10916:10938   */\n      add\n        /* \"#utility.yul\":10898:10948   */\n      tag_181\n      jump\t// in\n    tag_337:\n        /* \"#utility.yul\":10888:10948   */\n      swap8\n      pop\n        /* \"#utility.yul\":10843:10958   */\n      pop\n        /* \"#utility.yul\":10997:10999   */\n      0x60\n        /* \"#utility.yul\":11023:11073   */\n      tag_338\n        /* \"#utility.yul\":11065:11072   */\n      dup13\n        /* \"#utility.yul\":11056:11062   */\n      dup3\n        /* \"#utility.yul\":11045:11054   */\n      dup14\n        /* \"#utility.yul\":11041:11063   */\n      add\n        /* \"#utility.yul\":11023:11073   */\n      tag_181\n      jump\t// in\n    tag_338:\n        /* \"#utility.yul\":11013:11073   */\n      swap7\n      pop\n        /* \"#utility.yul\":10968:11083   */\n      pop\n        /* \"#utility.yul\":11122:11125   */\n      0x80\n        /* \"#utility.yul\":11149:11199   */\n      tag_339\n        /* \"#utility.yul\":11191:11198   */\n      dup13\n        /* \"#utility.yul\":11182:11188   */\n      dup3\n        /* \"#utility.yul\":11171:11180   */\n      dup14\n        /* \"#utility.yul\":11167:11189   */\n      add\n        /* \"#utility.yul\":11149:11199   */\n      tag_181\n      jump\t// in\n    tag_339:\n        /* \"#utility.yul\":11139:11199   */\n      swap6\n      pop\n        /* \"#utility.yul\":11093:11209   */\n      pop\n        /* \"#utility.yul\":11276:11279   */\n      0xa0\n        /* \"#utility.yul\":11265:11274   */\n      dup11\n        /* \"#utility.yul\":11261:11280   */\n      add\n        /* \"#utility.yul\":11248:11281   */\n      calldataload\n        /* \"#utility.yul\":11308:11326   */\n      0xffffffffffffffff\n        /* \"#utility.yul\":11300:11306   */\n      dup2\n        /* \"#utility.yul\":11297:11327   */\n      gt\n        /* \"#utility.yul\":11294:11411   */\n      iszero\n      tag_340\n      jumpi\n        /* \"#utility.yul\":11330:11409   */\n      tag_341\n      tag_150\n      jump\t// in\n    tag_341:\n        /* \"#utility.yul\":11294:11411   */\n    tag_340:\n        /* \"#utility.yul\":11435:11498   */\n      tag_342\n        /* \"#utility.yul\":11490:11497   */\n      dup13\n        /* \"#utility.yul\":11481:11487   */\n      dup3\n        /* \"#utility.yul\":11470:11479   */\n      dup14\n        /* \"#utility.yul\":11466:11488   */\n      add\n        /* \"#utility.yul\":11435:11498   */\n      tag_168\n      jump\t// in\n    tag_342:\n        /* \"#utility.yul\":11425:11498   */\n      swap5\n      pop\n        /* \"#utility.yul\":11219:11508   */\n      pop\n        /* \"#utility.yul\":11547:11550   */\n      0xc0\n        /* \"#utility.yul\":11574:11627   */\n      tag_343\n        /* \"#utility.yul\":11619:11626   */\n      dup13\n        /* \"#utility.yul\":11610:11616   */\n      dup3\n        /* \"#utility.yul\":11599:11608   */\n      dup14\n        /* \"#utility.yul\":11595:11617   */\n      add\n        /* \"#utility.yul\":11574:11627   */\n      tag_183\n      jump\t// in\n    tag_343:\n        /* \"#utility.yul\":11564:11627   */\n      swap4\n      pop\n        /* \"#utility.yul\":11518:11637   */\n      pop\n        /* \"#utility.yul\":11676:11679   */\n      0xe0\n        /* \"#utility.yul\":11703:11756   */\n      tag_344\n        /* \"#utility.yul\":11748:11755   */\n      dup13\n        /* \"#utility.yul\":11739:11745   */\n      dup3\n        /* \"#utility.yul\":11728:11737   */\n      dup14\n        /* \"#utility.yul\":11724:11746   */\n      add\n        /* \"#utility.yul\":11703:11756   */\n      tag_183\n      jump\t// in\n    tag_344:\n        /* \"#utility.yul\":11693:11756   */\n      swap3\n      pop\n        /* \"#utility.yul\":11647:11766   */\n      pop\n        /* \"#utility.yul\":11805:11808   */\n      0x0100\n        /* \"#utility.yul\":11832:11885   */\n      tag_345\n        /* \"#utility.yul\":11877:11884   */\n      dup13\n        /* \"#utility.yul\":11868:11874   */\n      dup3\n        /* \"#utility.yul\":11857:11866   */\n      dup14\n        /* \"#utility.yul\":11853:11875   */\n      add\n        /* \"#utility.yul\":11832:11885   */\n      tag_183\n      jump\t// in\n    tag_345:\n        /* \"#utility.yul\":11822:11885   */\n      swap2\n      pop\n        /* \"#utility.yul\":11776:11895   */\n      pop\n        /* \"#utility.yul\":10251:11902   */\n      swap3\n      swap6\n      swap9\n      pop\n      swap3\n      swap6\n      swap9\n      pop\n      swap3\n      swap6\n      swap9\n      jump\t// out\n        /* \"#utility.yul\":11908:12077   */\n    tag_184:\n        /* \"#utility.yul\":11992:12003   */\n      0x00\n        /* \"#utility.yul\":12026:12032   */\n      dup3\n        /* \"#utility.yul\":12021:12024   */\n      dup3\n        /* \"#utility.yul\":12014:12033   */\n      mstore\n        /* \"#utility.yul\":12066:12070   */\n      0x20\n        /* \"#utility.yul\":12061:12064   */\n      dup3\n        /* \"#utility.yul\":12057:12071   */\n      add\n        /* \"#utility.yul\":12042:12071   */\n      swap1\n      pop\n        /* \"#utility.yul\":11908:12077   */\n      swap3\n      swap2\n      pop\n      pop\n      jump\t// out\n        /* \"#utility.yul\":12083:12260   */\n    tag_185:\n        /* \"#utility.yul\":12223:12252   */\n      0x4e6f74204f776e65722c2063616e6e6f742070657266726d204f500000000000\n        /* \"#utility.yul\":12219:12220   */\n      0x00\n        /* \"#utility.yul\":12211:12217   */\n      dup3\n        /* \"#utility.yul\":12207:12221   */\n      add\n        /* \"#utility.yul\":12200:12253   */\n      mstore\n        /* \"#utility.yul\":12083:12260   */\n      pop\n      jump\t// out\n        /* \"#utility.yul\":12266:12632   */\n    tag_186:\n        /* \"#utility.yul\":12408:12411   */\n      0x00\n        /* \"#utility.yul\":12429:12496   */\n      tag_349\n        /* \"#utility.yul\":12493:12495   */\n      0x1b\n        /* \"#utility.yul\":12488:12491   */\n      dup4\n        /* \"#utility.yul\":12429:12496   */\n      tag_184\n      jump\t// in\n    tag_349:\n        /* \"#utility.yul\":12422:12496   */\n      swap2\n      pop\n        /* \"#utility.yul\":12505:12598   */\n      tag_350\n        /* \"#utility.yul\":12594:12597   */\n      dup3\n        /* \"#utility.yul\":12505:12598   */\n      tag_185\n      jump\t// in\n    tag_350:\n        /* \"#utility.yul\":12623:12625   */\n      0x20\n        /* \"#utility.yul\":12618:12621   */\n      dup3\n        /* \"#utility.yul\":12614:12626   */\n      add\n        /* \"#utility.yul\":12607:12626   */\n      swap1\n      pop\n        /* \"#utility.yul\":12266:12632   */\n      swap2\n      swap1\n      pop\n      jump\t// out\n        /* \"#utility.yul\":12638:13057   */\n    tag_38:\n        /* \"#utility.yul\":12804:12808   */\n      0x00\n        /* \"#utility.yul\":12842:12844   */\n      0x20\n        /* \"#utility.yul\":12831:12840   */\n      dup3\n        /* \"#utility.yul\":12827:12845   */\n      add\n        /* \"#utility.yul\":12819:12845   */\n      swap1\n      pop\n        /* \"#utility.yul\":12891:12900   */\n      dup2\n        /* \"#utility.yul\":12885:12889   */\n      dup2\n        /* \"#utility.yul\":12881:12901   */\n      sub\n        /* \"#utility.yul\":12877:12878   */\n      0x00\n        /* \"#utility.yul\":12866:12875   */\n      dup4\n        /* \"#utility.yul\":12862:12879   */\n      add\n        /* \"#utility.yul\":12855:12902   */\n      mstore\n        /* \"#utility.yul\":12919:13050   */\n      tag_352\n        /* \"#utility.yul\":13045:13049   */\n      dup2\n        /* \"#utility.yul\":12919:13050   */\n      tag_186\n      jump\t// in\n    tag_352:\n        /* \"#utility.yul\":12911:13050   */\n      swap1\n      pop\n        /* \"#utility.yul\":12638:13057   */\n      swap2\n      swap1\n      pop\n      jump\t// out\n        /* \"#utility.yul\":13063:13243   */\n    tag_45:\n        /* \"#utility.yul\":13111:13188   */\n      0x4e487b7100000000000000000000000000000000000000000000000000000000\n        /* \"#utility.yul\":13108:13109   */\n      0x00\n        /* \"#utility.yul\":13101:13189   */\n      mstore\n        /* \"#utility.yul\":13208:13212   */\n      0x32\n        /* \"#utility.yul\":13205:13206   */\n      0x04\n        /* \"#utility.yul\":13198:13213   */\n      mstore\n        /* \"#utility.yul\":13232:13236   */\n      0x24\n        /* \"#utility.yul\":13229:13230   */\n      0x00\n        /* \"#utility.yul\":13222:13237   */\n      revert\n        /* \"#utility.yul\":13249:13429   */\n    tag_50:\n        /* \"#utility.yul\":13297:13374   */\n      0x4e487b7100000000000000000000000000000000000000000000000000000000\n        /* \"#utility.yul\":13294:13295   */\n      0x00\n        /* \"#utility.yul\":13287:13375   */\n      mstore\n        /* \"#utility.yul\":13394:13398   */\n      0x21\n        /* \"#utility.yul\":13391:13392   */\n      0x04\n        /* \"#utility.yul\":13384:13399   */\n      mstore\n        /* \"#utility.yul\":13418:13422   */\n      0x24\n        /* \"#utility.yul\":13415:13416   */\n      0x00\n        /* \"#utility.yul\":13408:13423   */\n      revert\n        /* \"#utility.yul\":13435:13615   */\n    tag_187:\n        /* \"#utility.yul\":13483:13560   */\n      0x4e487b7100000000000000000000000000000000000000000000000000000000\n        /* \"#utility.yul\":13480:13481   */\n      0x00\n        /* \"#utility.yul\":13473:13561   */\n      mstore\n        /* \"#utility.yul\":13580:13584   */\n      0x11\n        /* \"#utility.yul\":13577:13578   */\n      0x04\n        /* \"#utility.yul\":13570:13585   */\n      mstore\n        /* \"#utility.yul\":13604:13608   */\n      0x24\n        /* \"#utility.yul\":13601:13602   */\n      0x00\n        /* \"#utility.yul\":13594:13609   */\n      revert\n        /* \"#utility.yul\":13621:13854   */\n    tag_65:\n        /* \"#utility.yul\":13660:13663   */\n      0x00\n        /* \"#utility.yul\":13683:13707   */\n      tag_357\n        /* \"#utility.yul\":13701:13706   */\n      dup3\n        /* \"#utility.yul\":13683:13707   */\n      tag_174\n      jump\t// in\n    tag_357:\n        /* \"#utility.yul\":13674:13707   */\n      swap2\n      pop\n        /* \"#utility.yul\":13729:13795   */\n      0xffffffffffffffffffffffffffffffffffffffffffffffffffffffffffffffff\n        /* \"#utility.yul\":13722:13727   */\n      dup3\n        /* \"#utility.yul\":13719:13796   */\n      sub\n        /* \"#utility.yul\":13716:13819   */\n      tag_358\n      jumpi\n        /* \"#utility.yul\":13799:13817   */\n      tag_359\n      tag_187\n      jump\t// in\n    tag_359:\n        /* \"#utility.yul\":13716:13819   */\n    tag_358:\n        /* \"#utility.yul\":13846:13847   */\n      0x01\n        /* \"#utility.yul\":13839:13844   */\n      dup3\n        /* \"#utility.yul\":13835:13848   */\n      add\n        /* \"#utility.yul\":13828:13848   */\n      swap1\n      pop\n        /* \"#utility.yul\":13621:13854   */\n      swap2\n      swap1\n      pop\n      jump\t// out\n        /* \"#utility.yul\":13860:13978   */\n    tag_188:\n        /* \"#utility.yul\":13947:13971   */\n      tag_361\n        /* \"#utility.yul\":13965:13970   */\n      dup2\n        /* \"#utility.yul\":13947:13971   */\n      tag_152\n      jump\t// in\n    tag_361:\n        /* \"#utility.yul\":13942:13945   */\n      dup3\n        /* \"#utility.yul\":13935:13972   */\n      mstore\n        /* \"#utility.yul\":13860:13978   */\n      pop\n      pop\n      jump\t// out\n        /* \"#utility.yul\":13984:14103   */\n    tag_189:\n        /* \"#utility.yul\":14071:14072   */\n      0x02\n        /* \"#utility.yul\":14064:14069   */\n      dup2\n        /* \"#utility.yul\":14061:14073   */\n      lt\n        /* \"#utility.yul\":14051:14097   */\n      tag_363\n      jumpi\n        /* \"#utility.yul\":14077:14095   */\n      tag_364\n      tag_50\n      jump\t// in\n    tag_364:\n        /* \"#utility.yul\":14051:14097   */\n    tag_363:\n        /* \"#utility.yul\":13984:14103   */\n      pop\n      jump\t// out\n        /* \"#utility.yul\":14109:14248   */\n    tag_190:\n        /* \"#utility.yul\":14160:14167   */\n      0x00\n        /* \"#utility.yul\":14189:14194   */\n      dup2\n        /* \"#utility.yul\":14178:14194   */\n      swap1\n      pop\n        /* \"#utility.yul\":14195:14242   */\n      tag_366\n        /* \"#utility.yul\":14236:14241   */\n      dup3\n        /* \"#utility.yul\":14195:14242   */\n      tag_189\n      jump\t// in\n    tag_366:\n        /* \"#utility.yul\":14109:14248   */\n      swap2\n      swap1\n      pop\n      jump\t// out\n        /* \"#utility.yul\":14254:14393   */\n    tag_191:\n        /* \"#utility.yul\":14316:14325   */\n      0x00\n        /* \"#utility.yul\":14349:14387   */\n      tag_368\n        /* \"#utility.yul\":14381:14386   */\n      dup3\n        /* \"#utility.yul\":14349:14387   */\n      tag_190\n      jump\t// in\n    tag_368:\n        /* \"#utility.yul\":14336:14387   */\n      swap1\n      pop\n        /* \"#utility.yul\":14254:14393   */\n      swap2\n      swap1\n      pop\n      jump\t// out\n        /* \"#utility.yul\":14399:14554   */\n    tag_192:\n        /* \"#utility.yul\":14498:14547   */\n      tag_370\n        /* \"#utility.yul\":14541:14546   */\n      dup2\n        /* \"#utility.yul\":14498:14547   */\n      tag_191\n      jump\t// in\n    tag_370:\n        /* \"#utility.yul\":14493:14496   */\n      dup3\n        /* \"#utility.yul\":14486:14548   */\n      mstore\n        /* \"#utility.yul\":14399:14554   */\n      pop\n      pop\n      jump\t// out\n        /* \"#utility.yul\":14560:14916   */\n    tag_67:\n        /* \"#utility.yul\":14693:14697   */\n      0x00\n        /* \"#utility.yul\":14731:14733   */\n      0x40\n        /* \"#utility.yul\":14720:14729   */\n      dup3\n        /* \"#utility.yul\":14716:14734   */\n      add\n        /* \"#utility.yul\":14708:14734   */\n      swap1\n      pop\n        /* \"#utility.yul\":14744:14815   */\n      tag_372\n        /* \"#utility.yul\":14812:14813   */\n      0x00\n        /* \"#utility.yul\":14801:14810   */\n      dup4\n        /* \"#utility.yul\":14797:14814   */\n      add\n        /* \"#utility.yul\":14788:14794   */\n      dup6\n        /* \"#utility.yul\":14744:14815   */\n      tag_188\n      jump\t// in\n    tag_372:\n        /* \"#utility.yul\":14825:14909   */\n      tag_373\n        /* \"#utility.yul\":14905:14907   */\n      0x20\n        /* \"#utility.yul\":14894:14903   */\n      dup4\n        /* \"#utility.yul\":14890:14908   */\n      add\n        /* \"#utility.yul\":14881:14887   */\n      dup5\n        /* \"#utility.yul\":14825:14909   */\n      tag_192\n      jump\t// in\n    tag_373:\n        /* \"#utility.yul\":14560:14916   */\n      swap4\n      swap3\n      pop\n      pop\n      pop\n      jump\t// out\n        /* \"#utility.yul\":14922:15070   */\n    tag_193:\n        /* \"#utility.yul\":15024:15035   */\n      0x00\n        /* \"#utility.yul\":15061:15064   */\n      dup2\n        /* \"#utility.yul\":15046:15064   */\n      swap1\n      pop\n        /* \"#utility.yul\":14922:15070   */\n      swap3\n      swap2\n      pop\n      pop\n      jump\t// out\n        /* \"#utility.yul\":15076:15466   */\n    tag_194:\n        /* \"#utility.yul\":15182:15185   */\n      0x00\n        /* \"#utility.yul\":15210:15249   */\n      tag_376\n        /* \"#utility.yul\":15243:15248   */\n      dup3\n        /* \"#utility.yul\":15210:15249   */\n      tag_170\n      jump\t// in\n    tag_376:\n        /* \"#utility.yul\":15265:15354   */\n      tag_377\n        /* \"#utility.yul\":15347:15353   */\n      dup2\n        /* \"#utility.yul\":15342:15345   */\n      dup6\n        /* \"#utility.yul\":15265:15354   */\n      tag_193\n      jump\t// in\n    tag_377:\n        /* \"#utility.yul\":15258:15354   */\n      swap4\n      pop\n        /* \"#utility.yul\":15363:15428   */\n      tag_378\n        /* \"#utility.yul\":15421:15427   */\n      dup2\n        /* \"#utility.yul\":15416:15419   */\n      dup6\n        /* \"#utility.yul\":15409:15413   */\n      0x20\n        /* \"#utility.yul\":15402:15407   */\n      dup7\n        /* \"#utility.yul\":15398:15414   */\n      add\n        /* \"#utility.yul\":15363:15428   */\n      tag_172\n      jump\t// in\n    tag_378:\n        /* \"#utility.yul\":15453:15459   */\n      dup1\n        /* \"#utility.yul\":15448:15451   */\n      dup5\n        /* \"#utility.yul\":15444:15460   */\n      add\n        /* \"#utility.yul\":15437:15460   */\n      swap2\n      pop\n        /* \"#utility.yul\":15186:15466   */\n      pop\n        /* \"#utility.yul\":15076:15466   */\n      swap3\n      swap2\n      pop\n      pop\n      jump\t// out\n        /* \"#utility.yul\":15472:15747   */\n    tag_75:\n        /* \"#utility.yul\":15604:15607   */\n      0x00\n        /* \"#utility.yul\":15626:15721   */\n      tag_380\n        /* \"#utility.yul\":15717:15720   */\n      dup3\n        /* \"#utility.yul\":15708:15714   */\n      dup5\n        /* \"#utility.yul\":15626:15721   */\n      tag_194\n      jump\t// in\n    tag_380:\n        /* \"#utility.yul\":15619:15721   */\n      swap2\n      pop\n        /* \"#utility.yul\":15738:15741   */\n      dup2\n        /* \"#utility.yul\":15731:15741   */\n      swap1\n      pop\n        /* \"#utility.yul\":15472:15747   */\n      swap3\n      swap2\n      pop\n      pop\n      jump\t// out\n        /* \"#utility.yul\":15753:15933   */\n    tag_195:\n        /* \"#utility.yul\":15801:15878   */\n      0x4e487b7100000000000000000000000000000000000000000000000000000000\n        /* \"#utility.yul\":15798:15799   */\n      0x00\n        /* \"#utility.yul\":15791:15879   */\n      mstore\n        /* \"#utility.yul\":15898:15902   */\n      0x22\n        /* \"#utility.yul\":15895:15896   */\n      0x04\n        /* \"#utility.yul\":15888:15903   */\n      mstore\n        /* \"#utility.yul\":15922:15926   */\n      0x24\n        /* \"#utility.yul\":15919:15920   */\n      0x00\n        /* \"#utility.yul\":15912:15927   */\n      revert\n        /* \"#utility.yul\":15939:16259   */\n    tag_86:\n        /* \"#utility.yul\":15983:15989   */\n      0x00\n        /* \"#utility.yul\":16020:16021   */\n      0x02\n        /* \"#utility.yul\":16014:16018   */\n      dup3\n        /* \"#utility.yul\":16010:16022   */\n      div\n        /* \"#utility.yul\":16000:16022   */\n      swap1\n      pop\n        /* \"#utility.yul\":16067:16068   */\n      0x01\n        /* \"#utility.yul\":16061:16065   */\n      dup3\n        /* \"#utility.yul\":16057:16069   */\n      and\n        /* \"#utility.yul\":16088:16106   */\n      dup1\n        /* \"#utility.yul\":16078:16159   */\n      tag_383\n      jumpi\n        /* \"#utility.yul\":16144:16148   */\n      0x7f\n        /* \"#utility.yul\":16136:16142   */\n      dup3\n        /* \"#utility.yul\":16132:16149   */\n      and\n        /* \"#utility.yul\":16122:16149   */\n      swap2\n      pop\n        /* \"#utility.yul\":16078:16159   */\n    tag_383:\n        /* \"#utility.yul\":16206:16208   */\n      0x20\n        /* \"#utility.yul\":16198:16204   */\n      dup3\n        /* \"#utility.yul\":16195:16209   */\n      lt\n        /* \"#utility.yul\":16175:16193   */\n      dup2\n        /* \"#utility.yul\":16172:16210   */\n      sub\n        /* \"#utility.yul\":16169:16253   */\n      tag_384\n      jumpi\n        /* \"#utility.yul\":16225:16243   */\n      tag_385\n      tag_195\n      jump\t// in\n    tag_385:\n        /* \"#utility.yul\":16169:16253   */\n    tag_384:\n        /* \"#utility.yul\":15990:16259   */\n      pop\n        /* \"#utility.yul\":15939:16259   */\n      swap2\n      swap1\n      pop\n      jump\t// out\n        /* \"#utility.yul\":16265:16406   */\n    tag_196:\n        /* \"#utility.yul\":16314:16318   */\n      0x00\n        /* \"#utility.yul\":16337:16340   */\n      dup2\n        /* \"#utility.yul\":16329:16340   */\n      swap1\n      pop\n        /* \"#utility.yul\":16360:16363   */\n      dup2\n        /* \"#utility.yul\":16357:16358   */\n      0x00\n        /* \"#utility.yul\":16350:16364   */\n      mstore\n        /* \"#utility.yul\":16394:16398   */\n      0x20\n        /* \"#utility.yul\":16391:16392   */\n      0x00\n        /* \"#utility.yul\":16381:16399   */\n      keccak256\n        /* \"#utility.yul\":16373:16399   */\n      swap1\n      pop\n        /* \"#utility.yul\":16265:16406   */\n      swap2\n      swap1\n      pop\n      jump\t// out\n        /* \"#utility.yul\":16436:17310   */\n    tag_197:\n        /* \"#utility.yul\":16539:16542   */\n      0x00\n        /* \"#utility.yul\":16576:16581   */\n      dup2\n        /* \"#utility.yul\":16570:16582   */\n      sload\n        /* \"#utility.yul\":16605:16641   */\n      tag_388\n        /* \"#utility.yul\":16631:16640   */\n      dup2\n        /* \"#utility.yul\":16605:16641   */\n      tag_86\n      jump\t// in\n    tag_388:\n        /* \"#utility.yul\":16657:16746   */\n      tag_389\n        /* \"#utility.yul\":16739:16745   */\n      dup2\n        /* \"#utility.yul\":16734:16737   */\n      dup7\n        /* \"#utility.yul\":16657:16746   */\n      tag_193\n      jump\t// in\n    tag_389:\n        /* \"#utility.yul\":16650:16746   */\n      swap5\n      pop\n        /* \"#utility.yul\":16777:16778   */\n      0x01\n        /* \"#utility.yul\":16766:16775   */\n      dup3\n        /* \"#utility.yul\":16762:16779   */\n      and\n        /* \"#utility.yul\":16793:16794   */\n      0x00\n        /* \"#utility.yul\":16788:16954   */\n      dup2\n      eq\n      tag_391\n      jumpi\n        /* \"#utility.yul\":16968:16969   */\n      0x01\n        /* \"#utility.yul\":16963:17304   */\n      dup2\n      eq\n      tag_392\n      jumpi\n        /* \"#utility.yul\":16755:17304   */\n      jump(tag_390)\n        /* \"#utility.yul\":16788:16954   */\n    tag_391:\n        /* \"#utility.yul\":16872:16876   */\n      0xff\n        /* \"#utility.yul\":16868:16877   */\n      not\n        /* \"#utility.yul\":16857:16866   */\n      dup4\n        /* \"#utility.yul\":16853:16878   */\n      and\n        /* \"#utility.yul\":16848:16851   */\n      dup7\n        /* \"#utility.yul\":16841:16879   */\n      mstore\n        /* \"#utility.yul\":16934:16940   */\n      dup2\n        /* \"#utility.yul\":16927:16941   */\n      iszero\n        /* \"#utility.yul\":16920:16942   */\n      iszero\n        /* \"#utility.yul\":16912:16918   */\n      dup3\n        /* \"#utility.yul\":16908:16943   */\n      mul\n        /* \"#utility.yul\":16903:16906   */\n      dup7\n        /* \"#utility.yul\":16899:16944   */\n      add\n        /* \"#utility.yul\":16892:16944   */\n      swap4\n      pop\n        /* \"#utility.yul\":16788:16954   */\n      jump(tag_390)\n        /* \"#utility.yul\":16963:17304   */\n    tag_392:\n        /* \"#utility.yul\":17030:17068   */\n      tag_393\n        /* \"#utility.yul\":17062:17067   */\n      dup6\n        /* \"#utility.yul\":17030:17068   */\n      tag_196\n      jump\t// in\n    tag_393:\n        /* \"#utility.yul\":17090:17091   */\n      0x00\n        /* \"#utility.yul\":17104:17258   */\n    tag_394:\n        /* \"#utility.yul\":17118:17124   */\n      dup4\n        /* \"#utility.yul\":17115:17116   */\n      dup2\n        /* \"#utility.yul\":17112:17125   */\n      lt\n        /* \"#utility.yul\":17104:17258   */\n      iszero\n      tag_396\n      jumpi\n        /* \"#utility.yul\":17192:17199   */\n      dup2\n        /* \"#utility.yul\":17186:17200   */\n      sload\n        /* \"#utility.yul\":17182:17183   */\n      dup2\n        /* \"#utility.yul\":17177:17180   */\n      dup10\n        /* \"#utility.yul\":17173:17184   */\n      add\n        /* \"#utility.yul\":17166:17201   */\n      mstore\n        /* \"#utility.yul\":17242:17243   */\n      0x01\n        /* \"#utility.yul\":17233:17240   */\n      dup3\n        /* \"#utility.yul\":17229:17244   */\n      add\n        /* \"#utility.yul\":17218:17244   */\n      swap2\n      pop\n        /* \"#utility.yul\":17140:17144   */\n      0x20\n        /* \"#utility.yul\":17137:17138   */\n      dup2\n        /* \"#utility.yul\":17133:17145   */\n      add\n        /* \"#utility.yul\":17128:17145   */\n      swap1\n      pop\n        /* \"#utility.yul\":17104:17258   */\n      jump(tag_394)\n    tag_396:\n        /* \"#utility.yul\":17287:17293   */\n      dup4\n        /* \"#utility.yul\":17282:17285   */\n      dup9\n        /* \"#utility.yul\":17278:17294   */\n      add\n        /* \"#utility.yul\":17271:17294   */\n      swap6\n      pop\n        /* \"#utility.yul\":16970:17304   */\n      pop\n      pop\n        /* \"#utility.yul\":16755:17304   */\n    tag_390:\n      pop\n        /* \"#utility.yul\":16543:17310   */\n      pop\n      pop\n        /* \"#utility.yul\":16436:17310   */\n      swap3\n      swap2\n      pop\n      pop\n      jump\t// out\n        /* \"#utility.yul\":17316:17585   */\n    tag_80:\n        /* \"#utility.yul\":17445:17448   */\n      0x00\n        /* \"#utility.yul\":17467:17559   */\n      tag_398\n        /* \"#utility.yul\":17555:17558   */\n      dup3\n        /* \"#utility.yul\":17546:17552   */\n      dup5\n        /* \"#utility.yul\":17467:17559   */\n      tag_197\n      jump\t// in\n    tag_398:\n        /* \"#utility.yul\":17460:17559   */\n      swap2\n      pop\n        /* \"#utility.yul\":17576:17579   */\n      dup2\n        /* \"#utility.yul\":17569:17579   */\n      swap1\n      pop\n        /* \"#utility.yul\":17316:17585   */\n      swap3\n      swap2\n      pop\n      pop\n      jump\t// out\n        /* \"#utility.yul\":17591:17756   */\n    tag_198:\n        /* \"#utility.yul\":17731:17748   */\n      0x4173736574206e6f7420666f756e640000000000000000000000000000000000\n        /* \"#utility.yul\":17727:17728   */\n      0x00\n        /* \"#utility.yul\":17719:17725   */\n      dup3\n        /* \"#utility.yul\":17715:17729   */\n      add\n        /* \"#utility.yul\":17708:17749   */\n      mstore\n        /* \"#utility.yul\":17591:17756   */\n      pop\n      jump\t// out\n        /* \"#utility.yul\":17762:18128   */\n    tag_199:\n        /* \"#utility.yul\":17904:17907   */\n      0x00\n        /* \"#utility.yul\":17925:17992   */\n      tag_401\n        /* \"#utility.yul\":17989:17991   */\n      0x0f\n        /* \"#utility.yul\":17984:17987   */\n      dup4\n        /* \"#utility.yul\":17925:17992   */\n      tag_184\n      jump\t// in\n    tag_401:\n        /* \"#utility.yul\":17918:17992   */\n      swap2\n      pop\n        /* \"#utility.yul\":18001:18094   */\n      tag_402\n        /* \"#utility.yul\":18090:18093   */\n      dup3\n        /* \"#utility.yul\":18001:18094   */\n      tag_198\n      jump\t// in\n    tag_402:\n        /* \"#utility.yul\":18119:18121   */\n      0x20\n        /* \"#utility.yul\":18114:18117   */\n      dup3\n        /* \"#utility.yul\":18110:18122   */\n      add\n        /* \"#utility.yul\":18103:18122   */\n      swap1\n      pop\n        /* \"#utility.yul\":17762:18128   */\n      swap2\n      swap1\n      pop\n      jump\t// out\n        /* \"#utility.yul\":18134:18553   */\n    tag_93:\n        /* \"#utility.yul\":18300:18304   */\n      0x00\n        /* \"#utility.yul\":18338:18340   */\n      0x20\n        /* \"#utility.yul\":18327:18336   */\n      dup3\n        /* \"#utility.yul\":18323:18341   */\n      add\n        /* \"#utility.yul\":18315:18341   */\n      swap1\n      pop\n        /* \"#utility.yul\":18387:18396   */\n      dup2\n        /* \"#utility.yul\":18381:18385   */\n      dup2\n        /* \"#utility.yul\":18377:18397   */\n      sub\n        /* \"#utility.yul\":18373:18374   */\n      0x00\n        /* \"#utility.yul\":18362:18371   */\n      dup4\n        /* \"#utility.yul\":18358:18375   */\n      add\n        /* \"#utility.yul\":18351:18398   */\n      mstore\n        /* \"#utility.yul\":18415:18546   */\n      tag_404\n        /* \"#utility.yul\":18541:18545   */\n      dup2\n        /* \"#utility.yul\":18415:18546   */\n      tag_199\n      jump\t// in\n    tag_404:\n        /* \"#utility.yul\":18407:18546   */\n      swap1\n      pop\n        /* \"#utility.yul\":18134:18553   */\n      swap2\n      swap1\n      pop\n      jump\t// out\n        /* \"#utility.yul\":18559:18673   */\n    tag_200:\n        /* \"#utility.yul\":18641:18642   */\n      0x02\n        /* \"#utility.yul\":18634:18639   */\n      dup2\n        /* \"#utility.yul\":18631:18643   */\n      lt\n        /* \"#utility.yul\":18621:18667   */\n      tag_406\n      jumpi\n        /* \"#utility.yul\":18647:18665   */\n      tag_407\n      tag_50\n      jump\t// in\n    tag_407:\n        /* \"#utility.yul\":18621:18667   */\n    tag_406:\n        /* \"#utility.yul\":18559:18673   */\n      pop\n      jump\t// out\n        /* \"#utility.yul\":18679:18808   */\n    tag_201:\n        /* \"#utility.yul\":18725:18732   */\n      0x00\n        /* \"#utility.yul\":18754:18759   */\n      dup2\n        /* \"#utility.yul\":18743:18759   */\n      swap1\n      pop\n        /* \"#utility.yul\":18760:18802   */\n      tag_409\n        /* \"#utility.yul\":18796:18801   */\n      dup3\n        /* \"#utility.yul\":18760:18802   */\n      tag_200\n      jump\t// in\n    tag_409:\n        /* \"#utility.yul\":18679:18808   */\n      swap2\n      swap1\n      pop\n      jump\t// out\n        /* \"#utility.yul\":18814:18943   */\n    tag_202:\n        /* \"#utility.yul\":18871:18880   */\n      0x00\n        /* \"#utility.yul\":18904:18937   */\n      tag_411\n        /* \"#utility.yul\":18931:18936   */\n      dup3\n        /* \"#utility.yul\":18904:18937   */\n      tag_201\n      jump\t// in\n    tag_411:\n        /* \"#utility.yul\":18891:18937   */\n      swap1\n      pop\n        /* \"#utility.yul\":18814:18943   */\n      swap2\n      swap1\n      pop\n      jump\t// out\n        /* \"#utility.yul\":18949:19094   */\n    tag_203:\n        /* \"#utility.yul\":19043:19087   */\n      tag_413\n        /* \"#utility.yul\":19081:19086   */\n      dup2\n        /* \"#utility.yul\":19043:19087   */\n      tag_202\n      jump\t// in\n    tag_413:\n        /* \"#utility.yul\":19038:19041   */\n      dup3\n        /* \"#utility.yul\":19031:19088   */\n      mstore\n        /* \"#utility.yul\":18949:19094   */\n      pop\n      pop\n      jump\t// out\n        /* \"#utility.yul\":19100:19446   */\n    tag_138:\n        /* \"#utility.yul\":19228:19232   */\n      0x00\n        /* \"#utility.yul\":19266:19268   */\n      0x40\n        /* \"#utility.yul\":19255:19264   */\n      dup3\n        /* \"#utility.yul\":19251:19269   */\n      add\n        /* \"#utility.yul\":19243:19269   */\n      swap1\n      pop\n        /* \"#utility.yul\":19279:19350   */\n      tag_415\n        /* \"#utility.yul\":19347:19348   */\n      0x00\n        /* \"#utility.yul\":19336:19345   */\n      dup4\n        /* \"#utility.yul\":19332:19349   */\n      add\n        /* \"#utility.yul\":19323:19329   */\n      dup6\n        /* \"#utility.yul\":19279:19350   */\n      tag_188\n      jump\t// in\n    tag_415:\n        /* \"#utility.yul\":19360:19439   */\n      tag_416\n        /* \"#utility.yul\":19435:19437   */\n      0x20\n        /* \"#utility.yul\":19424:19433   */\n      dup4\n        /* \"#utility.yul\":19420:19438   */\n      add\n        /* \"#utility.yul\":19411:19417   */\n      dup5\n        /* \"#utility.yul\":19360:19439   */\n      tag_203\n      jump\t// in\n    tag_416:\n        /* \"#utility.yul\":19100:19446   */\n      swap4\n      swap3\n      pop\n      pop\n      pop\n      jump\t// out\n        /* \"#utility.yul\":19452:19545   */\n    tag_204:\n        /* \"#utility.yul\":19489:19495   */\n      0x00\n        /* \"#utility.yul\":19536:19538   */\n      0x20\n        /* \"#utility.yul\":19531:19533   */\n      0x1f\n        /* \"#utility.yul\":19524:19529   */\n      dup4\n        /* \"#utility.yul\":19520:19534   */\n      add\n        /* \"#utility.yul\":19516:19539   */\n      div\n        /* \"#utility.yul\":19506:19539   */\n      swap1\n      pop\n        /* \"#utility.yul\":19452:19545   */\n      swap2\n      swap1\n      pop\n      jump\t// out\n        /* \"#utility.yul\":19551:19658   */\n    tag_205:\n        /* \"#utility.yul\":19595:19603   */\n      0x00\n        /* \"#utility.yul\":19645:19650   */\n      dup3\n        /* \"#utility.yul\":19639:19643   */\n      dup3\n        /* \"#utility.yul\":19635:19651   */\n      shl\n        /* \"#utility.yul\":19614:19651   */\n      swap1\n      pop\n        /* \"#utility.yul\":19551:19658   */\n      swap3\n      swap2\n      pop\n      pop\n      jump\t// out\n        /* \"#utility.yul\":19664:20057   */\n    tag_206:\n        /* \"#utility.yul\":19733:19739   */\n      0x00\n        /* \"#utility.yul\":19783:19784   */\n      0x08\n        /* \"#utility.yul\":19771:19781   */\n      dup4\n        /* \"#utility.yul\":19767:19785   */\n      mul\n        /* \"#utility.yul\":19806:19903   */\n      tag_420\n        /* \"#utility.yul\":19836:19902   */\n      0xffffffffffffffffffffffffffffffffffffffffffffffffffffffffffffffff\n        /* \"#utility.yul\":19825:19834   */\n      dup3\n        /* \"#utility.yul\":19806:19903   */\n      tag_205\n      jump\t// in\n    tag_420:\n        /* \"#utility.yul\":19924:19963   */\n      tag_421\n        /* \"#utility.yul\":19954:19962   */\n      dup7\n        /* \"#utility.yul\":19943:19952   */\n      dup4\n        /* \"#utility.yul\":19924:19963   */\n      tag_205\n      jump\t// in\n    tag_421:\n        /* \"#utility.yul\":19912:19963   */\n      swap6\n      pop\n        /* \"#utility.yul\":19996:20000   */\n      dup1\n        /* \"#utility.yul\":19992:20001   */\n      not\n        /* \"#utility.yul\":19985:19990   */\n      dup5\n        /* \"#utility.yul\":19981:20002   */\n      and\n        /* \"#utility.yul\":19972:20002   */\n      swap4\n      pop\n        /* \"#utility.yul\":20045:20049   */\n      dup1\n        /* \"#utility.yul\":20035:20043   */\n      dup7\n        /* \"#utility.yul\":20031:20050   */\n      and\n        /* \"#utility.yul\":20024:20029   */\n      dup5\n        /* \"#utility.yul\":20021:20051   */\n      or\n        /* \"#utility.yul\":20011:20051   */\n      swap3\n      pop\n        /* \"#utility.yul\":19740:20057   */\n      pop\n      pop\n        /* \"#utility.yul\":19664:20057   */\n      swap4\n      swap3\n      pop\n      pop\n      pop\n      jump\t// out\n        /* \"#utility.yul\":20063:20123   */\n    tag_207:\n        /* \"#utility.yul\":20091:20094   */\n      0x00\n        /* \"#utility.yul\":20112:20117   */\n      dup2\n        /* \"#utility.yul\":20105:20117   */\n      swap1\n      pop\n        /* \"#utility.yul\":20063:20123   */\n      swap2\n      swap1\n      pop\n      jump\t// out\n        /* \"#utility.yul\":20129:20271   */\n    tag_208:\n        /* \"#utility.yul\":20179:20188   */\n      0x00\n        /* \"#utility.yul\":20212:20265   */\n      tag_424\n        /* \"#utility.yul\":20230:20264   */\n      tag_425\n        /* \"#utility.yul\":20239:20263   */\n      tag_426\n        /* \"#utility.yul\":20257:20262   */\n      dup5\n        /* \"#utility.yul\":20239:20263   */\n      tag_174\n      jump\t// in\n    tag_426:\n        /* \"#utility.yul\":20230:20264   */\n      tag_207\n      jump\t// in\n    tag_425:\n        /* \"#utility.yul\":20212:20265   */\n      tag_174\n      jump\t// in\n    tag_424:\n        /* \"#utility.yul\":20199:20265   */\n      swap1\n      pop\n        /* \"#utility.yul\":20129:20271   */\n      swap2\n      swap1\n      pop\n      jump\t// out\n        /* \"#utility.yul\":20277:20352   */\n    tag_209:\n        /* \"#utility.yul\":20320:20323   */\n      0x00\n        /* \"#utility.yul\":20341:20346   */\n      dup2\n        /* \"#utility.yul\":20334:20346   */\n      swap1\n      pop\n        /* \"#utility.yul\":20277:20352   */\n      swap2\n      swap1\n      pop\n      jump\t// out\n        /* \"#utility.yul\":20358:20627   */\n    tag_210:\n        /* \"#utility.yul\":20468:20507   */\n      tag_429\n        /* \"#utility.yul\":20499:20506   */\n      dup4\n        /* \"#utility.yul\":20468:20507   */\n      tag_208\n      jump\t// in\n    tag_429:\n        /* \"#utility.yul\":20529:20620   */\n      tag_430\n        /* \"#utility.yul\":20578:20619   */\n      tag_431\n        /* \"#utility.yul\":20602:20618   */\n      dup3\n        /* \"#utility.yul\":20578:20619   */\n      tag_209\n      jump\t// in\n    tag_431:\n        /* \"#utility.yul\":20570:20576   */\n      dup5\n        /* \"#utility.yul\":20563:20567   */\n      dup5\n        /* \"#utility.yul\":20557:20568   */\n      sload\n        /* \"#utility.yul\":20529:20620   */\n      tag_206\n      jump\t// in\n    tag_430:\n        /* \"#utility.yul\":20523:20527   */\n      dup3\n        /* \"#utility.yul\":20516:20621   */\n      sstore\n        /* \"#utility.yul\":20434:20627   */\n      pop\n        /* \"#utility.yul\":20358:20627   */\n      pop\n      pop\n      pop\n      jump\t// out\n        /* \"#utility.yul\":20633:20706   */\n    tag_211:\n        /* \"#utility.yul\":20678:20681   */\n      0x00\n        /* \"#utility.yul\":20633:20706   */\n      swap1\n      jump\t// out\n        /* \"#utility.yul\":20712:20901   */\n    tag_212:\n        /* \"#utility.yul\":20789:20821   */\n      tag_434\n      tag_211\n      jump\t// in\n    tag_434:\n        /* \"#utility.yul\":20830:20895   */\n      tag_435\n        /* \"#utility.yul\":20888:20894   */\n      dup2\n        /* \"#utility.yul\":20880:20886   */\n      dup5\n        /* \"#utility.yul\":20874:20878   */\n      dup5\n        /* \"#utility.yul\":20830:20895   */\n      tag_210\n      jump\t// in\n    tag_435:\n        /* \"#utility.yul\":20765:20901   */\n      pop\n        /* \"#utility.yul\":20712:20901   */\n      pop\n      pop\n      jump\t// out\n        /* \"#utility.yul\":20907:21093   */\n    tag_213:\n        /* \"#utility.yul\":20967:21087   */\n    tag_437:\n        /* \"#utility.yul\":20984:20987   */\n      dup2\n        /* \"#utility.yul\":20977:20982   */\n      dup2\n        /* \"#utility.yul\":20974:20988   */\n      lt\n        /* \"#utility.yul\":20967:21087   */\n      iszero\n      tag_439\n      jumpi\n        /* \"#utility.yul\":21038:21077   */\n      tag_440\n        /* \"#utility.yul\":21075:21076   */\n      0x00\n        /* \"#utility.yul\":21068:21073   */\n      dup3\n        /* \"#utility.yul\":21038:21077   */\n      tag_212\n      jump\t// in\n    tag_440:\n        /* \"#utility.yul\":21011:21012   */\n      0x01\n        /* \"#utility.yul\":21004:21009   */\n      dup2\n        /* \"#utility.yul\":21000:21013   */\n      add\n        /* \"#utility.yul\":20991:21013   */\n      swap1\n      pop\n        /* \"#utility.yul\":20967:21087   */\n      jump(tag_437)\n    tag_439:\n        /* \"#utility.yul\":20907:21093   */\n      pop\n      pop\n      jump\t// out\n        /* \"#utility.yul\":21099:21642   */\n    tag_214:\n        /* \"#utility.yul\":21200:21202   */\n      0x1f\n        /* \"#utility.yul\":21195:21198   */\n      dup3\n        /* \"#utility.yul\":21192:21203   */\n      gt\n        /* \"#utility.yul\":21189:21635   */\n      iszero\n      tag_442\n      jumpi\n        /* \"#utility.yul\":21234:21272   */\n      tag_443\n        /* \"#utility.yul\":21266:21271   */\n      dup2\n        /* \"#utility.yul\":21234:21272   */\n      tag_196\n      jump\t// in\n    tag_443:\n        /* \"#utility.yul\":21318:21347   */\n      tag_444\n        /* \"#utility.yul\":21336:21346   */\n      dup5\n        /* \"#utility.yul\":21318:21347   */\n      tag_204\n      jump\t// in\n    tag_444:\n        /* \"#utility.yul\":21308:21316   */\n      dup2\n        /* \"#utility.yul\":21304:21348   */\n      add\n        /* \"#utility.yul\":21501:21503   */\n      0x20\n        /* \"#utility.yul\":21489:21499   */\n      dup6\n        /* \"#utility.yul\":21486:21504   */\n      lt\n        /* \"#utility.yul\":21483:21532   */\n      iszero\n      tag_445\n      jumpi\n        /* \"#utility.yul\":21522:21530   */\n      dup2\n        /* \"#utility.yul\":21507:21530   */\n      swap1\n      pop\n        /* \"#utility.yul\":21483:21532   */\n    tag_445:\n        /* \"#utility.yul\":21545:21625   */\n      tag_446\n        /* \"#utility.yul\":21601:21623   */\n      tag_447\n        /* \"#utility.yul\":21619:21622   */\n      dup6\n        /* \"#utility.yul\":21601:21623   */\n      tag_204\n      jump\t// in\n    tag_447:\n        /* \"#utility.yul\":21591:21599   */\n      dup4\n        /* \"#utility.yul\":21587:21624   */\n      add\n        /* \"#utility.yul\":21574:21585   */\n      dup3\n        /* \"#utility.yul\":21545:21625   */\n      tag_213\n      jump\t// in\n    tag_446:\n        /* \"#utility.yul\":21204:21635   */\n      pop\n      pop\n        /* \"#utility.yul\":21189:21635   */\n    tag_442:\n        /* \"#utility.yul\":21099:21642   */\n      pop\n      pop\n      pop\n      jump\t// out\n        /* \"#utility.yul\":21648:21765   */\n    tag_215:\n        /* \"#utility.yul\":21702:21710   */\n      0x00\n        /* \"#utility.yul\":21752:21757   */\n      dup3\n        /* \"#utility.yul\":21746:21750   */\n      dup3\n        /* \"#utility.yul\":21742:21758   */\n      shr\n        /* \"#utility.yul\":21721:21758   */\n      swap1\n      pop\n        /* \"#utility.yul\":21648:21765   */\n      swap3\n      swap2\n      pop\n      pop\n      jump\t// out\n        /* \"#utility.yul\":21771:21940   */\n    tag_216:\n        /* \"#utility.yul\":21815:21821   */\n      0x00\n        /* \"#utility.yul\":21848:21899   */\n      tag_450\n        /* \"#utility.yul\":21896:21897   */\n      0x00\n        /* \"#utility.yul\":21892:21898   */\n      not\n        /* \"#utility.yul\":21884:21889   */\n      dup5\n        /* \"#utility.yul\":21881:21882   */\n      0x08\n        /* \"#utility.yul\":21877:21890   */\n      mul\n        /* \"#utility.yul\":21848:21899   */\n      tag_215\n      jump\t// in\n    tag_450:\n        /* \"#utility.yul\":21844:21900   */\n      not\n        /* \"#utility.yul\":21929:21933   */\n      dup1\n        /* \"#utility.yul\":21923:21927   */\n      dup4\n        /* \"#utility.yul\":21919:21934   */\n      and\n        /* \"#utility.yul\":21909:21934   */\n      swap2\n      pop\n        /* \"#utility.yul\":21822:21940   */\n      pop\n        /* \"#utility.yul\":21771:21940   */\n      swap3\n      swap2\n      pop\n      pop\n      jump\t// out\n        /* \"#utility.yul\":21945:22240   */\n    tag_217:\n        /* \"#utility.yul\":22021:22025   */\n      0x00\n        /* \"#utility.yul\":22167:22196   */\n      tag_452\n        /* \"#utility.yul\":22192:22195   */\n      dup4\n        /* \"#utility.yul\":22186:22190   */\n      dup4\n        /* \"#utility.yul\":22167:22196   */\n      tag_216\n      jump\t// in\n    tag_452:\n        /* \"#utility.yul\":22159:22196   */\n      swap2\n      pop\n        /* \"#utility.yul\":22229:22232   */\n      dup3\n        /* \"#utility.yul\":22226:22227   */\n      0x02\n        /* \"#utility.yul\":22222:22233   */\n      mul\n        /* \"#utility.yul\":22216:22220   */\n      dup3\n        /* \"#utility.yul\":22213:22234   */\n      or\n        /* \"#utility.yul\":22205:22234   */\n      swap1\n      pop\n        /* \"#utility.yul\":21945:22240   */\n      swap3\n      swap2\n      pop\n      pop\n      jump\t// out\n        /* \"#utility.yul\":22245:23640   */\n    tag_145:\n        /* \"#utility.yul\":22362:22399   */\n      tag_454\n        /* \"#utility.yul\":22395:22398   */\n      dup3\n        /* \"#utility.yul\":22362:22399   */\n      tag_170\n      jump\t// in\n    tag_454:\n        /* \"#utility.yul\":22464:22482   */\n      0xffffffffffffffff\n        /* \"#utility.yul\":22456:22462   */\n      dup2\n        /* \"#utility.yul\":22453:22483   */\n      gt\n        /* \"#utility.yul\":22450:22506   */\n      iszero\n      tag_455\n      jumpi\n        /* \"#utility.yul\":22486:22504   */\n      tag_456\n      tag_162\n      jump\t// in\n    tag_456:\n        /* \"#utility.yul\":22450:22506   */\n    tag_455:\n        /* \"#utility.yul\":22530:22568   */\n      tag_457\n        /* \"#utility.yul\":22562:22566   */\n      dup3\n        /* \"#utility.yul\":22556:22567   */\n      sload\n        /* \"#utility.yul\":22530:22568   */\n      tag_86\n      jump\t// in\n    tag_457:\n        /* \"#utility.yul\":22615:22682   */\n      tag_458\n        /* \"#utility.yul\":22675:22681   */\n      dup3\n        /* \"#utility.yul\":22667:22673   */\n      dup3\n        /* \"#utility.yul\":22661:22665   */\n      dup6\n        /* \"#utility.yul\":22615:22682   */\n      tag_214\n      jump\t// in\n    tag_458:\n        /* \"#utility.yul\":22709:22710   */\n      0x00\n        /* \"#utility.yul\":22733:22737   */\n      0x20\n        /* \"#utility.yul\":22720:22737   */\n      swap1\n      pop\n        /* \"#utility.yul\":22765:22767   */\n      0x1f\n        /* \"#utility.yul\":22757:22763   */\n      dup4\n        /* \"#utility.yul\":22754:22768   */\n      gt\n        /* \"#utility.yul\":22782:22783   */\n      0x01\n        /* \"#utility.yul\":22777:23395   */\n      dup2\n      eq\n      tag_460\n      jumpi\n        /* \"#utility.yul\":23439:23440   */\n      0x00\n        /* \"#utility.yul\":23456:23462   */\n      dup5\n        /* \"#utility.yul\":23453:23530   */\n      iszero\n      tag_461\n      jumpi\n        /* \"#utility.yul\":23505:23514   */\n      dup3\n        /* \"#utility.yul\":23500:23503   */\n      dup8\n        /* \"#utility.yul\":23496:23515   */\n      add\n        /* \"#utility.yul\":23490:23516   */\n      mload\n        /* \"#utility.yul\":23481:23516   */\n      swap1\n      pop\n        /* \"#utility.yul\":23453:23530   */\n    tag_461:\n        /* \"#utility.yul\":23556:23623   */\n      tag_462\n        /* \"#utility.yul\":23616:23622   */\n      dup6\n        /* \"#utility.yul\":23609:23614   */\n      dup3\n        /* \"#utility.yul\":23556:23623   */\n      tag_217\n      jump\t// in\n    tag_462:\n        /* \"#utility.yul\":23550:23554   */\n      dup7\n        /* \"#utility.yul\":23543:23624   */\n      sstore\n        /* \"#utility.yul\":23412:23634   */\n      pop\n        /* \"#utility.yul\":22747:23634   */\n      jump(tag_459)\n        /* \"#utility.yul\":22777:23395   */\n    tag_460:\n        /* \"#utility.yul\":22829:22833   */\n      0x1f\n        /* \"#utility.yul\":22825:22834   */\n      not\n        /* \"#utility.yul\":22817:22823   */\n      dup5\n        /* \"#utility.yul\":22813:22835   */\n      and\n        /* \"#utility.yul\":22863:22900   */\n      tag_463\n        /* \"#utility.yul\":22895:22899   */\n      dup7\n        /* \"#utility.yul\":22863:22900   */\n      tag_196\n      jump\t// in\n    tag_463:\n        /* \"#utility.yul\":22922:22923   */\n      0x00\n        /* \"#utility.yul\":22936:23144   */\n    tag_464:\n        /* \"#utility.yul\":22950:22957   */\n      dup3\n        /* \"#utility.yul\":22947:22948   */\n      dup2\n        /* \"#utility.yul\":22944:22958   */\n      lt\n        /* \"#utility.yul\":22936:23144   */\n      iszero\n      tag_466\n      jumpi\n        /* \"#utility.yul\":23029:23038   */\n      dup5\n        /* \"#utility.yul\":23024:23027   */\n      dup10\n        /* \"#utility.yul\":23020:23039   */\n      add\n        /* \"#utility.yul\":23014:23040   */\n      mload\n        /* \"#utility.yul\":23006:23012   */\n      dup3\n        /* \"#utility.yul\":22999:23041   */\n      sstore\n        /* \"#utility.yul\":23080:23081   */\n      0x01\n        /* \"#utility.yul\":23072:23078   */\n      dup3\n        /* \"#utility.yul\":23068:23082   */\n      add\n        /* \"#utility.yul\":23058:23082   */\n      swap2\n      pop\n        /* \"#utility.yul\":23127:23129   */\n      0x20\n        /* \"#utility.yul\":23116:23125   */\n      dup6\n        /* \"#utility.yul\":23112:23130   */\n      add\n        /* \"#utility.yul\":23099:23130   */\n      swap5\n      pop\n        /* \"#utility.yul\":22973:22977   */\n      0x20\n        /* \"#utility.yul\":22970:22971   */\n      dup2\n        /* \"#utility.yul\":22966:22978   */\n      add\n        /* \"#utility.yul\":22961:22978   */\n      swap1\n      pop\n        /* \"#utility.yul\":22936:23144   */\n      jump(tag_464)\n    tag_466:\n        /* \"#utility.yul\":23172:23178   */\n      dup7\n        /* \"#utility.yul\":23163:23170   */\n      dup4\n        /* \"#utility.yul\":23160:23179   */\n      lt\n        /* \"#utility.yul\":23157:23336   */\n      iszero\n      tag_467\n      jumpi\n        /* \"#utility.yul\":23230:23239   */\n      dup5\n        /* \"#utility.yul\":23225:23228   */\n      dup10\n        /* \"#utility.yul\":23221:23240   */\n      add\n        /* \"#utility.yul\":23215:23241   */\n      mload\n        /* \"#utility.yul\":23273:23321   */\n      tag_468\n        /* \"#utility.yul\":23315:23319   */\n      0x1f\n        /* \"#utility.yul\":23307:23313   */\n      dup10\n        /* \"#utility.yul\":23303:23320   */\n      and\n        /* \"#utility.yul\":23292:23301   */\n      dup3\n        /* \"#utility.yul\":23273:23321   */\n      tag_216\n      jump\t// in\n    tag_468:\n        /* \"#utility.yul\":23265:23271   */\n      dup4\n        /* \"#utility.yul\":23258:23322   */\n      sstore\n        /* \"#utility.yul\":23180:23336   */\n      pop\n        /* \"#utility.yul\":23157:23336   */\n    tag_467:\n        /* \"#utility.yul\":23382:23383   */\n      0x01\n        /* \"#utility.yul\":23378:23379   */\n      0x02\n        /* \"#utility.yul\":23370:23376   */\n      dup9\n        /* \"#utility.yul\":23366:23380   */\n      mul\n        /* \"#utility.yul\":23362:23384   */\n      add\n        /* \"#utility.yul\":23356:23360   */\n      dup9\n        /* \"#utility.yul\":23349:23385   */\n      sstore\n        /* \"#utility.yul\":22784:23395   */\n      pop\n      pop\n      pop\n        /* \"#utility.yul\":22747:23634   */\n    tag_459:\n      pop\n        /* \"#utility.yul\":22337:23640   */\n      pop\n      pop\n      pop\n        /* \"#utility.yul\":22245:23640   */\n      pop\n      pop\n      jump\t// out\n        /* \"#utility.yul\":23646:24023   */\n    tag_218:\n        /* \"#utility.yul\":23734:23737   */\n      0x00\n        /* \"#utility.yul\":23762:23801   */\n      tag_470\n        /* \"#utility.yul\":23795:23800   */\n      dup3\n        /* \"#utility.yul\":23762:23801   */\n      tag_170\n      jump\t// in\n    tag_470:\n        /* \"#utility.yul\":23817:23888   */\n      tag_471\n        /* \"#utility.yul\":23881:23887   */\n      dup2\n        /* \"#utility.yul\":23876:23879   */\n      dup6\n        /* \"#utility.yul\":23817:23888   */\n      tag_184\n      jump\t// in\n    tag_471:\n        /* \"#utility.yul\":23810:23888   */\n      swap4\n      pop\n        /* \"#utility.yul\":23897:23962   */\n      tag_472\n        /* \"#utility.yul\":23955:23961   */\n      dup2\n        /* \"#utility.yul\":23950:23953   */\n      dup6\n        /* \"#utility.yul\":23943:23947   */\n      0x20\n        /* \"#utility.yul\":23936:23941   */\n      dup7\n        /* \"#utility.yul\":23932:23948   */\n      add\n        /* \"#utility.yul\":23897:23962   */\n      tag_172\n      jump\t// in\n    tag_472:\n        /* \"#utility.yul\":23987:24016   */\n      tag_473\n        /* \"#utility.yul\":24009:24015   */\n      dup2\n        /* \"#utility.yul\":23987:24016   */\n      tag_161\n      jump\t// in\n    tag_473:\n        /* \"#utility.yul\":23982:23985   */\n      dup5\n        /* \"#utility.yul\":23978:24017   */\n      add\n        /* \"#utility.yul\":23971:24017   */\n      swap2\n      pop\n        /* \"#utility.yul\":23738:24023   */\n      pop\n        /* \"#utility.yul\":23646:24023   */\n      swap3\n      swap2\n      pop\n      pop\n      jump\t// out\n        /* \"#utility.yul\":24029:24147   */\n    tag_219:\n        /* \"#utility.yul\":24116:24140   */\n      tag_475\n        /* \"#utility.yul\":24134:24139   */\n      dup2\n        /* \"#utility.yul\":24116:24140   */\n      tag_174\n      jump\t// in\n    tag_475:\n        /* \"#utility.yul\":24111:24114   */\n      dup3\n        /* \"#utility.yul\":24104:24141   */\n      mstore\n        /* \"#utility.yul\":24029:24147   */\n      pop\n      pop\n      jump\t// out\n        /* \"#utility.yul\":24153:24797   */\n    tag_147:\n        /* \"#utility.yul\":24350:24354   */\n      0x00\n        /* \"#utility.yul\":24388:24391   */\n      0x80\n        /* \"#utility.yul\":24377:24386   */\n      dup3\n        /* \"#utility.yul\":24373:24392   */\n      add\n        /* \"#utility.yul\":24365:24392   */\n      swap1\n      pop\n        /* \"#utility.yul\":24402:24473   */\n      tag_477\n        /* \"#utility.yul\":24470:24471   */\n      0x00\n        /* \"#utility.yul\":24459:24468   */\n      dup4\n        /* \"#utility.yul\":24455:24472   */\n      add\n        /* \"#utility.yul\":24446:24452   */\n      dup8\n        /* \"#utility.yul\":24402:24473   */\n      tag_188\n      jump\t// in\n    tag_477:\n        /* \"#utility.yul\":24520:24529   */\n      dup2\n        /* \"#utility.yul\":24514:24518   */\n      dup2\n        /* \"#utility.yul\":24510:24530   */\n      sub\n        /* \"#utility.yul\":24505:24507   */\n      0x20\n        /* \"#utility.yul\":24494:24503   */\n      dup4\n        /* \"#utility.yul\":24490:24508   */\n      add\n        /* \"#utility.yul\":24483:24531   */\n      mstore\n        /* \"#utility.yul\":24548:24626   */\n      tag_478\n        /* \"#utility.yul\":24621:24625   */\n      dup2\n        /* \"#utility.yul\":24612:24618   */\n      dup7\n        /* \"#utility.yul\":24548:24626   */\n      tag_218\n      jump\t// in\n    tag_478:\n        /* \"#utility.yul\":24540:24626   */\n      swap1\n      pop\n        /* \"#utility.yul\":24636:24708   */\n      tag_479\n        /* \"#utility.yul\":24704:24706   */\n      0x40\n        /* \"#utility.yul\":24693:24702   */\n      dup4\n        /* \"#utility.yul\":24689:24707   */\n      add\n        /* \"#utility.yul\":24680:24686   */\n      dup6\n        /* \"#utility.yul\":24636:24708   */\n      tag_219\n      jump\t// in\n    tag_479:\n        /* \"#utility.yul\":24718:24790   */\n      tag_480\n        /* \"#utility.yul\":24786:24788   */\n      0x60\n        /* \"#utility.yul\":24775:24784   */\n      dup4\n        /* \"#utility.yul\":24771:24789   */\n      add\n        /* \"#utility.yul\":24762:24768   */\n      dup5\n        /* \"#utility.yul\":24718:24790   */\n      tag_219\n      jump\t// in\n    tag_480:\n        /* \"#utility.yul\":24153:24797   */\n      swap6\n      swap5\n      pop\n      pop\n      pop\n      pop\n      pop\n      jump\t// out\n\n    auxdata: 0xa26469706673582212209719c5d7598611c72caef1d4596d32dd25b4ac8030e4a80f8cc9cbc91c26266e64736f6c63430008130033\n}\n",
				"bytecode": {
					"linkReferences": {},
					"object": "608060405234801561001057600080fd5b50336000806101000a81548173ffffffffffffffffffffffffffffffffffffffff021916908373ffffffffffffffffffffffffffffffffffffffff160217905550611aed806100606000396000f3fe608060405234801561001057600080fd5b50600436106100575760003560e01c8063671e3f751461005c578063827401bb1461008c578063e2574030146100bc578063e7149623146100ec578063f45edbb91461011c575b600080fd5b61007660048036038101906100719190610e22565b61014c565b6040516100839190610e7d565b60405180910390f35b6100a660048036038101906100a19190610fde565b6103a4565b6040516100b391906111b7565b60405180910390f35b6100d660048036038101906100d191906111d9565b61063f565b6040516100e391906111b7565b60405180910390f35b6101066004803603810190610101919061122b565b6108db565b6040516101139190610e7d565b60405180910390f35b610136600480360381019061013191906112c3565b610aa4565b6040516101439190610e7d565b60405180910390f35b60003373ffffffffffffffffffffffffffffffffffffffff1660008054906101000a900473ffffffffffffffffffffffffffffffffffffffff1673ffffffffffffffffffffffffffffffffffffffff16146101dc576040517f08c379a00000000000000000000000000000000000000000000000000000000081526004016101d390611406565b60405180910390fd5b6000600180549050905060005b8181101561035e578473ffffffffffffffffffffffffffffffffffffffff166001828154811061021c5761021b611426565b5b906000526020600020906007020160000160009054906101000a900473ffffffffffffffffffffffffffffffffffffffff1673ffffffffffffffffffffffffffffffffffffffff160361034b576000600181111561027d5761027c611455565b5b8460018111156102905761028f611455565b5b036102d75760018082815481106102aa576102a9611426565b5b906000526020600020906007020160060160026101000a81548160ff021916908315150217905550610316565b6000600182815481106102ed576102ec611426565b5b906000526020600020906007020160060160026101000a81548160ff0219169083151502179055505b426001828154811061032b5761032a611426565b5b90600052602060002090600702016005018190555060019250505061039e565b8080610356906114b3565b9150506101e9565b507f1bc4f6a74fdbf500e13db259c58a58c59533ea54a4b93010d0126f6061ec37538484604051610390929190611552565b60405180910390a160009150505b92915050565b6103ac610d1a565b6000600180549050905060005b818110156105fe57836040516020016103d291906115b7565b60405160208183030381529060405280519060200120600182815481106103fc576103fb611426565b5b906000526020600020906007020160010160405160200161041d91906116c6565b60405160208183030381529060405280519060200120036105eb576001818154811061044c5761044b611426565b5b9060005260206000209060070201604051806101400160405290816000820160009054906101000a900473ffffffffffffffffffffffffffffffffffffffff1673ffffffffffffffffffffffffffffffffffffffff1673ffffffffffffffffffffffffffffffffffffffff1681526020016001820180546104cc906115fd565b80601f01602080910402602001604051908101604052809291908181526020018280546104f8906115fd565b80156105455780601f1061051a57610100808354040283529160200191610545565b820191906000526020600020905b81548152906001019060200180831161052857829003601f168201915b50505050508152602001600282015481526020016003820154815260200160048201548152602001600582015481526020016006820160009054906101000a900460ff161515151581526020016006820160019054906101000a900460ff161515151581526020016006820160029054906101000a900460ff161515151581526020016006820160039054906101000a900460ff1615151515815250509250505061063a565b80806105f6906114b3565b9150506103b9565b506040517f08c379a000000000000000000000000000000000000000000000000000000000815260040161063190611729565b60405180910390fd5b919050565b610647610d1a565b6000600180549050905060005b8181101561089a578373ffffffffffffffffffffffffffffffffffffffff166001828154811061068757610686611426565b5b906000526020600020906007020160000160009054906101000a900473ffffffffffffffffffffffffffffffffffffffff1673ffffffffffffffffffffffffffffffffffffffff160361088757600181815481106106e8576106e7611426565b5b9060005260206000209060070201604051806101400160405290816000820160009054906101000a900473ffffffffffffffffffffffffffffffffffffffff1673ffffffffffffffffffffffffffffffffffffffff1673ffffffffffffffffffffffffffffffffffffffff168152602001600182018054610768906115fd565b80601f0160208091040260200160405190810160405280929190818152602001828054610794906115fd565b80156107e15780601f106107b6576101008083540402835291602001916107e1565b820191906000526020600020905b8154815290600101906020018083116107c457829003601f168201915b50505050508152602001600282015481526020016003820154815260200160048201548152602001600582015481526020016006820160009054906101000a900460ff161515151581526020016006820160019054906101000a900460ff161515151581526020016006820160029054906101000a900460ff161515151581526020016006820160039054906101000a900460ff161515151581525050925050506108d6565b8080610892906114b3565b915050610654565b506040517f08c379a00000000000000000000000000000000000000000000000000000000081526004016108cd90611729565b60405180910390fd5b919050565b600080600180549050905060005b81811015610a5e578473ffffffffffffffffffffffffffffffffffffffff166001828154811061091c5761091b611426565b5b906000526020600020906007020160000160009054906101000a900473ffffffffffffffffffffffffffffffffffffffff1673ffffffffffffffffffffffffffffffffffffffff1603610a4b576000600181111561097d5761097c611455565b5b8460018111156109905761098f611455565b5b036109d75760018082815481106109aa576109a9611426565b5b906000526020600020906007020160060160026101000a81548160ff021916908315150217905550610a16565b6000600182815481106109ed576109ec611426565b5b906000526020600020906007020160060160026101000a81548160ff0219169083151502179055505b4260018281548110610a2b57610a2a611426565b5b906000526020600020906007020160050181905550600192505050610a9e565b8080610a56906114b3565b9150506108e9565b507f3f57ea1559cfee0ff7804a8bbf56c488fbd7f8d575acd8537d7f02a6ffb8bdb48484604051610a90929190611791565b60405180910390a160009150505b92915050565b60003373ffffffffffffffffffffffffffffffffffffffff1660008054906101000a900473ffffffffffffffffffffffffffffffffffffffff1673ffffffffffffffffffffffffffffffffffffffff1614610b34576040517f08c379a0000000000000000000000000000000000000000000000000000000008152600401610b2b90611406565b60405180910390fd5b60016040518061014001604052808c73ffffffffffffffffffffffffffffffffffffffff1681526020018781526020018681526020018581526020018481526020014281526020018b151581526020018a151581526020018915158152602001881515815250908060018154018082558091505060019003906000526020600020906007020160009091909190915060008201518160000160006101000a81548173ffffffffffffffffffffffffffffffffffffffff021916908373ffffffffffffffffffffffffffffffffffffffff1602179055506020820151816001019081610c1f9190611951565b5060408201518160020155606082015181600301556080820151816004015560a0820151816005015560c08201518160060160006101000a81548160ff02191690831515021790555060e08201518160060160016101000a81548160ff0219169083151502179055506101008201518160060160026101000a81548160ff0219169083151502179055506101208201518160060160036101000a81548160ff02191690831515021790555050507fcd7be9ca97d79d2c4048b8402afd93bb5f487441dc211d4bd2e95011ccd423a08a868585604051610d019493929190611a6b565b60405180910390a1600190509998505050505050505050565b604051806101400160405280600073ffffffffffffffffffffffffffffffffffffffff16815260200160608152602001600081526020016000815260200160008152602001600081526020016000151581526020016000151581526020016000151581526020016000151581525090565b6000604051905090565b600080fd5b600080fd5b600073ffffffffffffffffffffffffffffffffffffffff82169050919050565b6000610dca82610d9f565b9050919050565b610dda81610dbf565b8114610de557600080fd5b50565b600081359050610df781610dd1565b92915050565b60028110610e0a57600080fd5b50565b600081359050610e1c81610dfd565b92915050565b60008060408385031215610e3957610e38610d95565b5b6000610e4785828601610de8565b9250506020610e5885828601610e0d565b9150509250929050565b60008115159050919050565b610e7781610e62565b82525050565b6000602082019050610e926000830184610e6e565b92915050565b600080fd5b600080fd5b6000601f19601f8301169050919050565b7f4e487b7100000000000000000000000000000000000000000000000000000000600052604160045260246000fd5b610eeb82610ea2565b810181811067ffffffffffffffff82111715610f0a57610f09610eb3565b5b80604052505050565b6000610f1d610d8b565b9050610f298282610ee2565b919050565b600067ffffffffffffffff821115610f4957610f48610eb3565b5b610f5282610ea2565b9050602081019050919050565b82818337600083830152505050565b6000610f81610f7c84610f2e565b610f13565b905082815260208101848484011115610f9d57610f9c610e9d565b5b610fa8848285610f5f565b509392505050565b600082601f830112610fc557610fc4610e98565b5b8135610fd5848260208601610f6e565b91505092915050565b600060208284031215610ff457610ff3610d95565b5b600082013567ffffffffffffffff81111561101257611011610d9a565b5b61101e84828501610fb0565b91505092915050565b61103081610dbf565b82525050565b600081519050919050565b600082825260208201905092915050565b60005b83811015611070578082015181840152602081019050611055565b60008484015250505050565b600061108782611036565b6110918185611041565b93506110a1818560208601611052565b6110aa81610ea2565b840191505092915050565b6000819050919050565b6110c8816110b5565b82525050565b6110d781610e62565b82525050565b6000610140830160008301516110f66000860182611027565b506020830151848203602086015261110e828261107c565b915050604083015161112360408601826110bf565b50606083015161113660608601826110bf565b50608083015161114960808601826110bf565b5060a083015161115c60a08601826110bf565b5060c083015161116f60c08601826110ce565b5060e083015161118260e08601826110ce565b506101008301516111976101008601826110ce565b506101208301516111ac6101208601826110ce565b508091505092915050565b600060208201905081810360008301526111d181846110dd565b905092915050565b6000602082840312156111ef576111ee610d95565b5b60006111fd84828501610de8565b91505092915050565b6002811061121357600080fd5b50565b60008135905061122581611206565b92915050565b6000806040838503121561124257611241610d95565b5b600061125085828601610de8565b925050602061126185828601611216565b9150509250929050565b61127481610e62565b811461127f57600080fd5b50565b6000813590506112918161126b565b92915050565b6112a0816110b5565b81146112ab57600080fd5b50565b6000813590506112bd81611297565b92915050565b60008060008060008060008060006101208a8c0312156112e6576112e5610d95565b5b60006112f48c828d01610de8565b99505060206113058c828d01611282565b98505060406113168c828d01611282565b97505060606113278c828d01611282565b96505060806113388c828d01611282565b95505060a08a013567ffffffffffffffff81111561135957611358610d9a565b5b6113658c828d01610fb0565b94505060c06113768c828d016112ae565b93505060e06113878c828d016112ae565b9250506101006113998c828d016112ae565b9150509295985092959850929598565b600082825260208201905092915050565b7f4e6f74204f776e65722c2063616e6e6f742070657266726d204f500000000000600082015250565b60006113f0601b836113a9565b91506113fb826113ba565b602082019050919050565b6000602082019050818103600083015261141f816113e3565b9050919050565b7f4e487b7100000000000000000000000000000000000000000000000000000000600052603260045260246000fd5b7f4e487b7100000000000000000000000000000000000000000000000000000000600052602160045260246000fd5b7f4e487b7100000000000000000000000000000000000000000000000000000000600052601160045260246000fd5b60006114be826110b5565b91507fffffffffffffffffffffffffffffffffffffffffffffffffffffffffffffffff82036114f0576114ef611484565b5b600182019050919050565b61150481610dbf565b82525050565b6002811061151b5761151a611455565b5b50565b600081905061152c8261150a565b919050565b600061153c8261151e565b9050919050565b61154c81611531565b82525050565b600060408201905061156760008301856114fb565b6115746020830184611543565b9392505050565b600081905092915050565b600061159182611036565b61159b818561157b565b93506115ab818560208601611052565b80840191505092915050565b60006115c38284611586565b915081905092915050565b7f4e487b7100000000000000000000000000000000000000000000000000000000600052602260045260246000fd5b6000600282049050600182168061161557607f821691505b602082108103611628576116276115ce565b5b50919050565b60008190508160005260206000209050919050565b60008154611650816115fd565b61165a818661157b565b94506001821660008114611675576001811461168a576116bd565b60ff19831686528115158202860193506116bd565b6116938561162e565b60005b838110156116b557815481890152600182019150602081019050611696565b838801955050505b50505092915050565b60006116d28284611643565b915081905092915050565b7f4173736574206e6f7420666f756e640000000000000000000000000000000000600082015250565b6000611713600f836113a9565b915061171e826116dd565b602082019050919050565b6000602082019050818103600083015261174281611706565b9050919050565b6002811061175a57611759611455565b5b50565b600081905061176b82611749565b919050565b600061177b8261175d565b9050919050565b61178b81611770565b82525050565b60006040820190506117a660008301856114fb565b6117b36020830184611782565b9392505050565b60006020601f8301049050919050565b600082821b905092915050565b6000600883026118077fffffffffffffffffffffffffffffffffffffffffffffffffffffffffffffffff826117ca565b61181186836117ca565b95508019841693508086168417925050509392505050565b6000819050919050565b600061184e611849611844846110b5565b611829565b6110b5565b9050919050565b6000819050919050565b61186883611833565b61187c61187482611855565b8484546117d7565b825550505050565b600090565b611891611884565b61189c81848461185f565b505050565b5b818110156118c0576118b5600082611889565b6001810190506118a2565b5050565b601f821115611905576118d68161162e565b6118df846117ba565b810160208510156118ee578190505b6119026118fa856117ba565b8301826118a1565b50505b505050565b600082821c905092915050565b60006119286000198460080261190a565b1980831691505092915050565b60006119418383611917565b9150826002028217905092915050565b61195a82611036565b67ffffffffffffffff81111561197357611972610eb3565b5b61197d82546115fd565b6119888282856118c4565b600060209050601f8311600181146119bb57600084156119a9578287015190505b6119b38582611935565b865550611a1b565b601f1984166119c98661162e565b60005b828110156119f1578489015182556001820191506020850194506020810190506119cc565b86831015611a0e5784890151611a0a601f891682611917565b8355505b6001600288020188555050505b505050505050565b6000611a2e82611036565b611a3881856113a9565b9350611a48818560208601611052565b611a5181610ea2565b840191505092915050565b611a65816110b5565b82525050565b6000608082019050611a8060008301876114fb565b8181036020830152611a928186611a23565b9050611aa16040830185611a5c565b611aae6060830184611a5c565b9594505050505056fea26469706673582212209719c5d7598611c72caef1d4596d32dd25b4ac8030e4a80f8cc9cbc91c26266e64736f6c63430008130033",
					"opcodes": "PUSH1 0x80 PUSH1 0x40 MSTORE CALLVALUE DUP1 ISZERO PUSH2 0x10 JUMPI PUSH1 0x0 DUP1 REVERT JUMPDEST POP CALLER PUSH1 0x0 DUP1 PUSH2 0x100 EXP DUP2 SLOAD DUP2 PUSH20 0xFFFFFFFFFFFFFFFFFFFFFFFFFFFFFFFFFFFFFFFF MUL NOT AND SWAP1 DUP4 PUSH20 0xFFFFFFFFFFFFFFFFFFFFFFFFFFFFFFFFFFFFFFFF AND MUL OR SWAP1 SSTORE POP PUSH2 0x1AED DUP1 PUSH2 0x60 PUSH1 0x0 CODECOPY PUSH1 0x0 RETURN INVALID PUSH1 0x80 PUSH1 0x40 MSTORE CALLVALUE DUP1 ISZERO PUSH2 0x10 JUMPI PUSH1 0x0 DUP1 REVERT JUMPDEST POP PUSH1 0x4 CALLDATASIZE LT PUSH2 0x57 JUMPI PUSH1 0x0 CALLDATALOAD PUSH1 0xE0 SHR DUP1 PUSH4 0x671E3F75 EQ PUSH2 0x5C JUMPI DUP1 PUSH4 0x827401BB EQ PUSH2 0x8C JUMPI DUP1 PUSH4 0xE2574030 EQ PUSH2 0xBC JUMPI DUP1 PUSH4 0xE7149623 EQ PUSH2 0xEC JUMPI DUP1 PUSH4 0xF45EDBB9 EQ PUSH2 0x11C JUMPI JUMPDEST PUSH1 0x0 DUP1 REVERT JUMPDEST PUSH2 0x76 PUSH1 0x4 DUP1 CALLDATASIZE SUB DUP2 ADD SWAP1 PUSH2 0x71 SWAP2 SWAP1 PUSH2 0xE22 JUMP JUMPDEST PUSH2 0x14C JUMP JUMPDEST PUSH1 0x40 MLOAD PUSH2 0x83 SWAP2 SWAP1 PUSH2 0xE7D JUMP JUMPDEST PUSH1 0x40 MLOAD DUP1 SWAP2 SUB SWAP1 RETURN JUMPDEST PUSH2 0xA6 PUSH1 0x4 DUP1 CALLDATASIZE SUB DUP2 ADD SWAP1 PUSH2 0xA1 SWAP2 SWAP1 PUSH2 0xFDE JUMP JUMPDEST PUSH2 0x3A4 JUMP JUMPDEST PUSH1 0x40 MLOAD PUSH2 0xB3 SWAP2 SWAP1 PUSH2 0x11B7 JUMP JUMPDEST PUSH1 0x40 MLOAD DUP1 SWAP2 SUB SWAP1 RETURN JUMPDEST PUSH2 0xD6 PUSH1 0x4 DUP1 CALLDATASIZE SUB DUP2 ADD SWAP1 PUSH2 0xD1 SWAP2 SWAP1 PUSH2 0x11D9 JUMP JUMPDEST PUSH2 0x63F JUMP JUMPDEST PUSH1 0x40 MLOAD PUSH2 0xE3 SWAP2 SWAP1 PUSH2 0x11B7 JUMP JUMPDEST PUSH1 0x40 MLOAD DUP1 SWAP2 SUB SWAP1 RETURN JUMPDEST PUSH2 0x106 PUSH1 0x4 DUP1 CALLDATASIZE SUB DUP2 ADD SWAP1 PUSH2 0x101 SWAP2 SWAP1 PUSH2 0x122B JUMP JUMPDEST PUSH2 0x8DB JUMP JUMPDEST PUSH1 0x40 MLOAD PUSH2 0x113 SWAP2 SWAP1 PUSH2 0xE7D JUMP JUMPDEST PUSH1 0x40 MLOAD DUP1 SWAP2 SUB SWAP1 RETURN JUMPDEST PUSH2 0x136 PUSH1 0x4 DUP1 CALLDATASIZE SUB DUP2 ADD SWAP1 PUSH2 0x131 SWAP2 SWAP1 PUSH2 0x12C3 JUMP JUMPDEST PUSH2 0xAA4 JUMP JUMPDEST PUSH1 0x40 MLOAD PUSH2 0x143 SWAP2 SWAP1 PUSH2 0xE7D JUMP JUMPDEST PUSH1 0x40 MLOAD DUP1 SWAP2 SUB SWAP1 RETURN JUMPDEST PUSH1 0x0 CALLER PUSH20 0xFFFFFFFFFFFFFFFFFFFFFFFFFFFFFFFFFFFFFFFF AND PUSH1 0x0 DUP1 SLOAD SWAP1 PUSH2 0x100 EXP SWAP1 DIV PUSH20 0xFFFFFFFFFFFFFFFFFFFFFFFFFFFFFFFFFFFFFFFF AND PUSH20 0xFFFFFFFFFFFFFFFFFFFFFFFFFFFFFFFFFFFFFFFF AND EQ PUSH2 0x1DC JUMPI PUSH1 0x40 MLOAD PUSH32 0x8C379A000000000000000000000000000000000000000000000000000000000 DUP2 MSTORE PUSH1 0x4 ADD PUSH2 0x1D3 SWAP1 PUSH2 0x1406 JUMP JUMPDEST PUSH1 0x40 MLOAD DUP1 SWAP2 SUB SWAP1 REVERT JUMPDEST PUSH1 0x0 PUSH1 0x1 DUP1 SLOAD SWAP1 POP SWAP1 POP PUSH1 0x0 JUMPDEST DUP2 DUP2 LT ISZERO PUSH2 0x35E JUMPI DUP5 PUSH20 0xFFFFFFFFFFFFFFFFFFFFFFFFFFFFFFFFFFFFFFFF AND PUSH1 0x1 DUP3 DUP2 SLOAD DUP2 LT PUSH2 0x21C JUMPI PUSH2 0x21B PUSH2 0x1426 JUMP JUMPDEST JUMPDEST SWAP1 PUSH1 0x0 MSTORE PUSH1 0x20 PUSH1 0x0 KECCAK256 SWAP1 PUSH1 0x7 MUL ADD PUSH1 0x0 ADD PUSH1 0x0 SWAP1 SLOAD SWAP1 PUSH2 0x100 EXP SWAP1 DIV PUSH20 0xFFFFFFFFFFFFFFFFFFFFFFFFFFFFFFFFFFFFFFFF AND PUSH20 0xFFFFFFFFFFFFFFFFFFFFFFFFFFFFFFFFFFFFFFFF AND SUB PUSH2 0x34B JUMPI PUSH1 0x0 PUSH1 0x1 DUP2 GT ISZERO PUSH2 0x27D JUMPI PUSH2 0x27C PUSH2 0x1455 JUMP JUMPDEST JUMPDEST DUP5 PUSH1 0x1 DUP2 GT ISZERO PUSH2 0x290 JUMPI PUSH2 0x28F PUSH2 0x1455 JUMP JUMPDEST JUMPDEST SUB PUSH2 0x2D7 JUMPI PUSH1 0x1 DUP1 DUP3 DUP2 SLOAD DUP2 LT PUSH2 0x2AA JUMPI PUSH2 0x2A9 PUSH2 0x1426 JUMP JUMPDEST JUMPDEST SWAP1 PUSH1 0x0 MSTORE PUSH1 0x20 PUSH1 0x0 KECCAK256 SWAP1 PUSH1 0x7 MUL ADD PUSH1 0x6 ADD PUSH1 0x2 PUSH2 0x100 EXP DUP2 SLOAD DUP2 PUSH1 0xFF MUL NOT AND SWAP1 DUP4 ISZERO ISZERO MUL OR SWAP1 SSTORE POP PUSH2 0x316 JUMP JUMPDEST PUSH1 0x0 PUSH1 0x1 DUP3 DUP2 SLOAD DUP2 LT PUSH2 0x2ED JUMPI PUSH2 0x2EC PUSH2 0x1426 JUMP JUMPDEST JUMPDEST SWAP1 PUSH1 0x0 MSTORE PUSH1 0x20 PUSH1 0x0 KECCAK256 SWAP1 PUSH1 0x7 MUL ADD PUSH1 0x6 ADD PUSH1 0x2 PUSH2 0x100 EXP DUP2 SLOAD DUP2 PUSH1 0xFF MUL NOT AND SWAP1 DUP4 ISZERO ISZERO MUL OR SWAP1 SSTORE POP JUMPDEST TIMESTAMP PUSH1 0x1 DUP3 DUP2 SLOAD DUP2 LT PUSH2 0x32B JUMPI PUSH2 0x32A PUSH2 0x1426 JUMP JUMPDEST JUMPDEST SWAP1 PUSH1 0x0 MSTORE PUSH1 0x20 PUSH1 0x0 KECCAK256 SWAP1 PUSH1 0x7 MUL ADD PUSH1 0x5 ADD DUP2 SWAP1 SSTORE POP PUSH1 0x1 SWAP3 POP POP POP PUSH2 0x39E JUMP JUMPDEST DUP1 DUP1 PUSH2 0x356 SWAP1 PUSH2 0x14B3 JUMP JUMPDEST SWAP2 POP POP PUSH2 0x1E9 JUMP JUMPDEST POP PUSH32 0x1BC4F6A74FDBF500E13DB259C58A58C59533EA54A4B93010D0126F6061EC3753 DUP5 DUP5 PUSH1 0x40 MLOAD PUSH2 0x390 SWAP3 SWAP2 SWAP1 PUSH2 0x1552 JUMP JUMPDEST PUSH1 0x40 MLOAD DUP1 SWAP2 SUB SWAP1 LOG1 PUSH1 0x0 SWAP2 POP POP JUMPDEST SWAP3 SWAP2 POP POP JUMP JUMPDEST PUSH2 0x3AC PUSH2 0xD1A JUMP JUMPDEST PUSH1 0x0 PUSH1 0x1 DUP1 SLOAD SWAP1 POP SWAP1 POP PUSH1 0x0 JUMPDEST DUP2 DUP2 LT ISZERO PUSH2 0x5FE JUMPI DUP4 PUSH1 0x40 MLOAD PUSH1 0x20 ADD PUSH2 0x3D2 SWAP2 SWAP1 PUSH2 0x15B7 JUMP JUMPDEST PUSH1 0x40 MLOAD PUSH1 0x20 DUP2 DUP4 SUB SUB DUP2 MSTORE SWAP1 PUSH1 0x40 MSTORE DUP1 MLOAD SWAP1 PUSH1 0x20 ADD KECCAK256 PUSH1 0x1 DUP3 DUP2 SLOAD DUP2 LT PUSH2 0x3FC JUMPI PUSH2 0x3FB PUSH2 0x1426 JUMP JUMPDEST JUMPDEST SWAP1 PUSH1 0x0 MSTORE PUSH1 0x20 PUSH1 0x0 KECCAK256 SWAP1 PUSH1 0x7 MUL ADD PUSH1 0x1 ADD PUSH1 0x40 MLOAD PUSH1 0x20 ADD PUSH2 0x41D SWAP2 SWAP1 PUSH2 0x16C6 JUMP JUMPDEST PUSH1 0x40 MLOAD PUSH1 0x20 DUP2 DUP4 SUB SUB DUP2 MSTORE SWAP1 PUSH1 0x40 MSTORE DUP1 MLOAD SWAP1 PUSH1 0x20 ADD KECCAK256 SUB PUSH2 0x5EB JUMPI PUSH1 0x1 DUP2 DUP2 SLOAD DUP2 LT PUSH2 0x44C JUMPI PUSH2 0x44B PUSH2 0x1426 JUMP JUMPDEST JUMPDEST SWAP1 PUSH1 0x0 MSTORE PUSH1 0x20 PUSH1 0x0 KECCAK256 SWAP1 PUSH1 0x7 MUL ADD PUSH1 0x40 MLOAD DUP1 PUSH2 0x140 ADD PUSH1 0x40 MSTORE SWAP1 DUP2 PUSH1 0x0 DUP3 ADD PUSH1 0x0 SWAP1 SLOAD SWAP1 PUSH2 0x100 EXP SWAP1 DIV PUSH20 0xFFFFFFFFFFFFFFFFFFFFFFFFFFFFFFFFFFFFFFFF AND PUSH20 0xFFFFFFFFFFFFFFFFFFFFFFFFFFFFFFFFFFFFFFFF AND PUSH20 0xFFFFFFFFFFFFFFFFFFFFFFFFFFFFFFFFFFFFFFFF AND DUP2 MSTORE PUSH1 0x20 ADD PUSH1 0x1 DUP3 ADD DUP1 SLOAD PUSH2 0x4CC SWAP1 PUSH2 0x15FD JUMP JUMPDEST DUP1 PUSH1 0x1F ADD PUSH1 0x20 DUP1 SWAP2 DIV MUL PUSH1 0x20 ADD PUSH1 0x40 MLOAD SWAP1 DUP2 ADD PUSH1 0x40 MSTORE DUP1 SWAP3 SWAP2 SWAP1 DUP2 DUP2 MSTORE PUSH1 0x20 ADD DUP3 DUP1 SLOAD PUSH2 0x4F8 SWAP1 PUSH2 0x15FD JUMP JUMPDEST DUP1 ISZERO PUSH2 0x545 JUMPI DUP1 PUSH1 0x1F LT PUSH2 0x51A JUMPI PUSH2 0x100 DUP1 DUP4 SLOAD DIV MUL DUP4 MSTORE SWAP2 PUSH1 0x20 ADD SWAP2 PUSH2 0x545 JUMP JUMPDEST DUP3 ADD SWAP2 SWAP1 PUSH1 0x0 MSTORE PUSH1 0x20 PUSH1 0x0 KECCAK256 SWAP1 JUMPDEST DUP2 SLOAD DUP2 MSTORE SWAP1 PUSH1 0x1 ADD SWAP1 PUSH1 0x20 ADD DUP1 DUP4 GT PUSH2 0x528 JUMPI DUP3 SWAP1 SUB PUSH1 0x1F AND DUP3 ADD SWAP2 JUMPDEST POP POP POP POP POP DUP2 MSTORE PUSH1 0x20 ADD PUSH1 0x2 DUP3 ADD SLOAD DUP2 MSTORE PUSH1 0x20 ADD PUSH1 0x3 DUP3 ADD SLOAD DUP2 MSTORE PUSH1 0x20 ADD PUSH1 0x4 DUP3 ADD SLOAD DUP2 MSTORE PUSH1 0x20 ADD PUSH1 0x5 DUP3 ADD SLOAD DUP2 MSTORE PUSH1 0x20 ADD PUSH1 0x6 DUP3 ADD PUSH1 0x0 SWAP1 SLOAD SWAP1 PUSH2 0x100 EXP SWAP1 DIV PUSH1 0xFF AND ISZERO ISZERO ISZERO ISZERO DUP2 MSTORE PUSH1 0x20 ADD PUSH1 0x6 DUP3 ADD PUSH1 0x1 SWAP1 SLOAD SWAP1 PUSH2 0x100 EXP SWAP1 DIV PUSH1 0xFF AND ISZERO ISZERO ISZERO ISZERO DUP2 MSTORE PUSH1 0x20 ADD PUSH1 0x6 DUP3 ADD PUSH1 0x2 SWAP1 SLOAD SWAP1 PUSH2 0x100 EXP SWAP1 DIV PUSH1 0xFF AND ISZERO ISZERO ISZERO ISZERO DUP2 MSTORE PUSH1 0x20 ADD PUSH1 0x6 DUP3 ADD PUSH1 0x3 SWAP1 SLOAD SWAP1 PUSH2 0x100 EXP SWAP1 DIV PUSH1 0xFF AND ISZERO ISZERO ISZERO ISZERO DUP2 MSTORE POP POP SWAP3 POP POP POP PUSH2 0x63A JUMP JUMPDEST DUP1 DUP1 PUSH2 0x5F6 SWAP1 PUSH2 0x14B3 JUMP JUMPDEST SWAP2 POP POP PUSH2 0x3B9 JUMP JUMPDEST POP PUSH1 0x40 MLOAD PUSH32 0x8C379A000000000000000000000000000000000000000000000000000000000 DUP2 MSTORE PUSH1 0x4 ADD PUSH2 0x631 SWAP1 PUSH2 0x1729 JUMP JUMPDEST PUSH1 0x40 MLOAD DUP1 SWAP2 SUB SWAP1 REVERT JUMPDEST SWAP2 SWAP1 POP JUMP JUMPDEST PUSH2 0x647 PUSH2 0xD1A JUMP JUMPDEST PUSH1 0x0 PUSH1 0x1 DUP1 SLOAD SWAP1 POP SWAP1 POP PUSH1 0x0 JUMPDEST DUP2 DUP2 LT ISZERO PUSH2 0x89A JUMPI DUP4 PUSH20 0xFFFFFFFFFFFFFFFFFFFFFFFFFFFFFFFFFFFFFFFF AND PUSH1 0x1 DUP3 DUP2 SLOAD DUP2 LT PUSH2 0x687 JUMPI PUSH2 0x686 PUSH2 0x1426 JUMP JUMPDEST JUMPDEST SWAP1 PUSH1 0x0 MSTORE PUSH1 0x20 PUSH1 0x0 KECCAK256 SWAP1 PUSH1 0x7 MUL ADD PUSH1 0x0 ADD PUSH1 0x0 SWAP1 SLOAD SWAP1 PUSH2 0x100 EXP SWAP1 DIV PUSH20 0xFFFFFFFFFFFFFFFFFFFFFFFFFFFFFFFFFFFFFFFF AND PUSH20 0xFFFFFFFFFFFFFFFFFFFFFFFFFFFFFFFFFFFFFFFF AND SUB PUSH2 0x887 JUMPI PUSH1 0x1 DUP2 DUP2 SLOAD DUP2 LT PUSH2 0x6E8 JUMPI PUSH2 0x6E7 PUSH2 0x1426 JUMP JUMPDEST JUMPDEST SWAP1 PUSH1 0x0 MSTORE PUSH1 0x20 PUSH1 0x0 KECCAK256 SWAP1 PUSH1 0x7 MUL ADD PUSH1 0x40 MLOAD DUP1 PUSH2 0x140 ADD PUSH1 0x40 MSTORE SWAP1 DUP2 PUSH1 0x0 DUP3 ADD PUSH1 0x0 SWAP1 SLOAD SWAP1 PUSH2 0x100 EXP SWAP1 DIV PUSH20 0xFFFFFFFFFFFFFFFFFFFFFFFFFFFFFFFFFFFFFFFF AND PUSH20 0xFFFFFFFFFFFFFFFFFFFFFFFFFFFFFFFFFFFFFFFF AND PUSH20 0xFFFFFFFFFFFFFFFFFFFFFFFFFFFFFFFFFFFFFFFF AND DUP2 MSTORE PUSH1 0x20 ADD PUSH1 0x1 DUP3 ADD DUP1 SLOAD PUSH2 0x768 SWAP1 PUSH2 0x15FD JUMP JUMPDEST DUP1 PUSH1 0x1F ADD PUSH1 0x20 DUP1 SWAP2 DIV MUL PUSH1 0x20 ADD PUSH1 0x40 MLOAD SWAP1 DUP2 ADD PUSH1 0x40 MSTORE DUP1 SWAP3 SWAP2 SWAP1 DUP2 DUP2 MSTORE PUSH1 0x20 ADD DUP3 DUP1 SLOAD PUSH2 0x794 SWAP1 PUSH2 0x15FD JUMP JUMPDEST DUP1 ISZERO PUSH2 0x7E1 JUMPI DUP1 PUSH1 0x1F LT PUSH2 0x7B6 JUMPI PUSH2 0x100 DUP1 DUP4 SLOAD DIV MUL DUP4 MSTORE SWAP2 PUSH1 0x20 ADD SWAP2 PUSH2 0x7E1 JUMP JUMPDEST DUP3 ADD SWAP2 SWAP1 PUSH1 0x0 MSTORE PUSH1 0x20 PUSH1 0x0 KECCAK256 SWAP1 JUMPDEST DUP2 SLOAD DUP2 MSTORE SWAP1 PUSH1 0x1 ADD SWAP1 PUSH1 0x20 ADD DUP1 DUP4 GT PUSH2 0x7C4 JUMPI DUP3 SWAP1 SUB PUSH1 0x1F AND DUP3 ADD SWAP2 JUMPDEST POP POP POP POP POP DUP2 MSTORE PUSH1 0x20 ADD PUSH1 0x2 DUP3 ADD SLOAD DUP2 MSTORE PUSH1 0x20 ADD PUSH1 0x3 DUP3 ADD SLOAD DUP2 MSTORE PUSH1 0x20 ADD PUSH1 0x4 DUP3 ADD SLOAD DUP2 MSTORE PUSH1 0x20 ADD PUSH1 0x5 DUP3 ADD SLOAD DUP2 MSTORE PUSH1 0x20 ADD PUSH1 0x6 DUP3 ADD PUSH1 0x0 SWAP1 SLOAD SWAP1 PUSH2 0x100 EXP SWAP1 DIV PUSH1 0xFF AND ISZERO ISZERO ISZERO ISZERO DUP2 MSTORE PUSH1 0x20 ADD PUSH1 0x6 DUP3 ADD PUSH1 0x1 SWAP1 SLOAD SWAP1 PUSH2 0x100 EXP SWAP1 DIV PUSH1 0xFF AND ISZERO ISZERO ISZERO ISZERO DUP2 MSTORE PUSH1 0x20 ADD PUSH1 0x6 DUP3 ADD PUSH1 0x2 SWAP1 SLOAD SWAP1 PUSH2 0x100 EXP SWAP1 DIV PUSH1 0xFF AND ISZERO ISZERO ISZERO ISZERO DUP2 MSTORE PUSH1 0x20 ADD PUSH1 0x6 DUP3 ADD PUSH1 0x3 SWAP1 SLOAD SWAP1 PUSH2 0x100 EXP SWAP1 DIV PUSH1 0xFF AND ISZERO ISZERO ISZERO ISZERO DUP2 MSTORE POP POP SWAP3 POP POP POP PUSH2 0x8D6 JUMP JUMPDEST DUP1 DUP1 PUSH2 0x892 SWAP1 PUSH2 0x14B3 JUMP JUMPDEST SWAP2 POP POP PUSH2 0x654 JUMP JUMPDEST POP PUSH1 0x40 MLOAD PUSH32 0x8C379A000000000000000000000000000000000000000000000000000000000 DUP2 MSTORE PUSH1 0x4 ADD PUSH2 0x8CD SWAP1 PUSH2 0x1729 JUMP JUMPDEST PUSH1 0x40 MLOAD DUP1 SWAP2 SUB SWAP1 REVERT JUMPDEST SWAP2 SWAP1 POP JUMP JUMPDEST PUSH1 0x0 DUP1 PUSH1 0x1 DUP1 SLOAD SWAP1 POP SWAP1 POP PUSH1 0x0 JUMPDEST DUP2 DUP2 LT ISZERO PUSH2 0xA5E JUMPI DUP5 PUSH20 0xFFFFFFFFFFFFFFFFFFFFFFFFFFFFFFFFFFFFFFFF AND PUSH1 0x1 DUP3 DUP2 SLOAD DUP2 LT PUSH2 0x91C JUMPI PUSH2 0x91B PUSH2 0x1426 JUMP JUMPDEST JUMPDEST SWAP1 PUSH1 0x0 MSTORE PUSH1 0x20 PUSH1 0x0 KECCAK256 SWAP1 PUSH1 0x7 MUL ADD PUSH1 0x0 ADD PUSH1 0x0 SWAP1 SLOAD SWAP1 PUSH2 0x100 EXP SWAP1 DIV PUSH20 0xFFFFFFFFFFFFFFFFFFFFFFFFFFFFFFFFFFFFFFFF AND PUSH20 0xFFFFFFFFFFFFFFFFFFFFFFFFFFFFFFFFFFFFFFFF AND SUB PUSH2 0xA4B JUMPI PUSH1 0x0 PUSH1 0x1 DUP2 GT ISZERO PUSH2 0x97D JUMPI PUSH2 0x97C PUSH2 0x1455 JUMP JUMPDEST JUMPDEST DUP5 PUSH1 0x1 DUP2 GT ISZERO PUSH2 0x990 JUMPI PUSH2 0x98F PUSH2 0x1455 JUMP JUMPDEST JUMPDEST SUB PUSH2 0x9D7 JUMPI PUSH1 0x1 DUP1 DUP3 DUP2 SLOAD DUP2 LT PUSH2 0x9AA JUMPI PUSH2 0x9A9 PUSH2 0x1426 JUMP JUMPDEST JUMPDEST SWAP1 PUSH1 0x0 MSTORE PUSH1 0x20 PUSH1 0x0 KECCAK256 SWAP1 PUSH1 0x7 MUL ADD PUSH1 0x6 ADD PUSH1 0x2 PUSH2 0x100 EXP DUP2 SLOAD DUP2 PUSH1 0xFF MUL NOT AND SWAP1 DUP4 ISZERO ISZERO MUL OR SWAP1 SSTORE POP PUSH2 0xA16 JUMP JUMPDEST PUSH1 0x0 PUSH1 0x1 DUP3 DUP2 SLOAD DUP2 LT PUSH2 0x9ED JUMPI PUSH2 0x9EC PUSH2 0x1426 JUMP JUMPDEST JUMPDEST SWAP1 PUSH1 0x0 MSTORE PUSH1 0x20 PUSH1 0x0 KECCAK256 SWAP1 PUSH1 0x7 MUL ADD PUSH1 0x6 ADD PUSH1 0x2 PUSH2 0x100 EXP DUP2 SLOAD DUP2 PUSH1 0xFF MUL NOT AND SWAP1 DUP4 ISZERO ISZERO MUL OR SWAP1 SSTORE POP JUMPDEST TIMESTAMP PUSH1 0x1 DUP3 DUP2 SLOAD DUP2 LT PUSH2 0xA2B JUMPI PUSH2 0xA2A PUSH2 0x1426 JUMP JUMPDEST JUMPDEST SWAP1 PUSH1 0x0 MSTORE PUSH1 0x20 PUSH1 0x0 KECCAK256 SWAP1 PUSH1 0x7 MUL ADD PUSH1 0x5 ADD DUP2 SWAP1 SSTORE POP PUSH1 0x1 SWAP3 POP POP POP PUSH2 0xA9E JUMP JUMPDEST DUP1 DUP1 PUSH2 0xA56 SWAP1 PUSH2 0x14B3 JUMP JUMPDEST SWAP2 POP POP PUSH2 0x8E9 JUMP JUMPDEST POP PUSH32 0x3F57EA1559CFEE0FF7804A8BBF56C488FBD7F8D575ACD8537D7F02A6FFB8BDB4 DUP5 DUP5 PUSH1 0x40 MLOAD PUSH2 0xA90 SWAP3 SWAP2 SWAP1 PUSH2 0x1791 JUMP JUMPDEST PUSH1 0x40 MLOAD DUP1 SWAP2 SUB SWAP1 LOG1 PUSH1 0x0 SWAP2 POP POP JUMPDEST SWAP3 SWAP2 POP POP JUMP JUMPDEST PUSH1 0x0 CALLER PUSH20 0xFFFFFFFFFFFFFFFFFFFFFFFFFFFFFFFFFFFFFFFF AND PUSH1 0x0 DUP1 SLOAD SWAP1 PUSH2 0x100 EXP SWAP1 DIV PUSH20 0xFFFFFFFFFFFFFFFFFFFFFFFFFFFFFFFFFFFFFFFF AND PUSH20 0xFFFFFFFFFFFFFFFFFFFFFFFFFFFFFFFFFFFFFFFF AND EQ PUSH2 0xB34 JUMPI PUSH1 0x40 MLOAD PUSH32 0x8C379A000000000000000000000000000000000000000000000000000000000 DUP2 MSTORE PUSH1 0x4 ADD PUSH2 0xB2B SWAP1 PUSH2 0x1406 JUMP JUMPDEST PUSH1 0x40 MLOAD DUP1 SWAP2 SUB SWAP1 REVERT JUMPDEST PUSH1 0x1 PUSH1 0x40 MLOAD DUP1 PUSH2 0x140 ADD PUSH1 0x40 MSTORE DUP1 DUP13 PUSH20 0xFFFFFFFFFFFFFFFFFFFFFFFFFFFFFFFFFFFFFFFF AND DUP2 MSTORE PUSH1 0x20 ADD DUP8 DUP2 MSTORE PUSH1 0x20 ADD DUP7 DUP2 MSTORE PUSH1 0x20 ADD DUP6 DUP2 MSTORE PUSH1 0x20 ADD DUP5 DUP2 MSTORE PUSH1 0x20 ADD TIMESTAMP DUP2 MSTORE PUSH1 0x20 ADD DUP12 ISZERO ISZERO DUP2 MSTORE PUSH1 0x20 ADD DUP11 ISZERO ISZERO DUP2 MSTORE PUSH1 0x20 ADD DUP10 ISZERO ISZERO DUP2 MSTORE PUSH1 0x20 ADD DUP9 ISZERO ISZERO DUP2 MSTORE POP SWAP1 DUP1 PUSH1 0x1 DUP2 SLOAD ADD DUP1 DUP3 SSTORE DUP1 SWAP2 POP POP PUSH1 0x1 SWAP1 SUB SWAP1 PUSH1 0x0 MSTORE PUSH1 0x20 PUSH1 0x0 KECCAK256 SWAP1 PUSH1 0x7 MUL ADD PUSH1 0x0 SWAP1 SWAP2 SWAP1 SWAP2 SWAP1 SWAP2 POP PUSH1 0x0 DUP3 ADD MLOAD DUP2 PUSH1 0x0 ADD PUSH1 0x0 PUSH2 0x100 EXP DUP2 SLOAD DUP2 PUSH20 0xFFFFFFFFFFFFFFFFFFFFFFFFFFFFFFFFFFFFFFFF MUL NOT AND SWAP1 DUP4 PUSH20 0xFFFFFFFFFFFFFFFFFFFFFFFFFFFFFFFFFFFFFFFF AND MUL OR SWAP1 SSTORE POP PUSH1 0x20 DUP3 ADD MLOAD DUP2 PUSH1 0x1 ADD SWAP1 DUP2 PUSH2 0xC1F SWAP2 SWAP1 PUSH2 0x1951 JUMP JUMPDEST POP PUSH1 0x40 DUP3 ADD MLOAD DUP2 PUSH1 0x2 ADD SSTORE PUSH1 0x60 DUP3 ADD MLOAD DUP2 PUSH1 0x3 ADD SSTORE PUSH1 0x80 DUP3 ADD MLOAD DUP2 PUSH1 0x4 ADD SSTORE PUSH1 0xA0 DUP3 ADD MLOAD DUP2 PUSH1 0x5 ADD SSTORE PUSH1 0xC0 DUP3 ADD MLOAD DUP2 PUSH1 0x6 ADD PUSH1 0x0 PUSH2 0x100 EXP DUP2 SLOAD DUP2 PUSH1 0xFF MUL NOT AND SWAP1 DUP4 ISZERO ISZERO MUL OR SWAP1 SSTORE POP PUSH1 0xE0 DUP3 ADD MLOAD DUP2 PUSH1 0x6 ADD PUSH1 0x1 PUSH2 0x100 EXP DUP2 SLOAD DUP2 PUSH1 0xFF MUL NOT AND SWAP1 DUP4 ISZERO ISZERO MUL OR SWAP1 SSTORE POP PUSH2 0x100 DUP3 ADD MLOAD DUP2 PUSH1 0x6 ADD PUSH1 0x2 PUSH2 0x100 EXP DUP2 SLOAD DUP2 PUSH1 0xFF MUL NOT AND SWAP1 DUP4 ISZERO ISZERO MUL OR SWAP1 SSTORE POP PUSH2 0x120 DUP3 ADD MLOAD DUP2 PUSH1 0x6 ADD PUSH1 0x3 PUSH2 0x100 EXP DUP2 SLOAD DUP2 PUSH1 0xFF MUL NOT AND SWAP1 DUP4 ISZERO ISZERO MUL OR SWAP1 SSTORE POP POP POP PUSH32 0xCD7BE9CA97D79D2C4048B8402AFD93BB5F487441DC211D4BD2E95011CCD423A0 DUP11 DUP7 DUP6 DUP6 PUSH1 0x40 MLOAD PUSH2 0xD01 SWAP5 SWAP4 SWAP3 SWAP2 SWAP1 PUSH2 0x1A6B JUMP JUMPDEST PUSH1 0x40 MLOAD DUP1 SWAP2 SUB SWAP1 LOG1 PUSH1 0x1 SWAP1 POP SWAP10 SWAP9 POP POP POP POP POP POP POP POP POP JUMP JUMPDEST PUSH1 0x40 MLOAD DUP1 PUSH2 0x140 ADD PUSH1 0x40 MSTORE DUP1 PUSH1 0x0 PUSH20 0xFFFFFFFFFFFFFFFFFFFFFFFFFFFFFFFFFFFFFFFF AND DUP2 MSTORE PUSH1 0x20 ADD PUSH1 0x60 DUP2 MSTORE PUSH1 0x20 ADD PUSH1 0x0 DUP2 MSTORE PUSH1 0x20 ADD PUSH1 0x0 DUP2 MSTORE PUSH1 0x20 ADD PUSH1 0x0 DUP2 MSTORE PUSH1 0x20 ADD PUSH1 0x0 DUP2 MSTORE PUSH1 0x20 ADD PUSH1 0x0 ISZERO ISZERO DUP2 MSTORE PUSH1 0x20 ADD PUSH1 0x0 ISZERO ISZERO DUP2 MSTORE PUSH1 0x20 ADD PUSH1 0x0 ISZERO ISZERO DUP2 MSTORE PUSH1 0x20 ADD PUSH1 0x0 ISZERO ISZERO DUP2 MSTORE POP SWAP1 JUMP JUMPDEST PUSH1 0x0 PUSH1 0x40 MLOAD SWAP1 POP SWAP1 JUMP JUMPDEST PUSH1 0x0 DUP1 REVERT JUMPDEST PUSH1 0x0 DUP1 REVERT JUMPDEST PUSH1 0x0 PUSH20 0xFFFFFFFFFFFFFFFFFFFFFFFFFFFFFFFFFFFFFFFF DUP3 AND SWAP1 POP SWAP2 SWAP1 POP JUMP JUMPDEST PUSH1 0x0 PUSH2 0xDCA DUP3 PUSH2 0xD9F JUMP JUMPDEST SWAP1 POP SWAP2 SWAP1 POP JUMP JUMPDEST PUSH2 0xDDA DUP2 PUSH2 0xDBF JUMP JUMPDEST DUP2 EQ PUSH2 0xDE5 JUMPI PUSH1 0x0 DUP1 REVERT JUMPDEST POP JUMP JUMPDEST PUSH1 0x0 DUP2 CALLDATALOAD SWAP1 POP PUSH2 0xDF7 DUP2 PUSH2 0xDD1 JUMP JUMPDEST SWAP3 SWAP2 POP POP JUMP JUMPDEST PUSH1 0x2 DUP2 LT PUSH2 0xE0A JUMPI PUSH1 0x0 DUP1 REVERT JUMPDEST POP JUMP JUMPDEST PUSH1 0x0 DUP2 CALLDATALOAD SWAP1 POP PUSH2 0xE1C DUP2 PUSH2 0xDFD JUMP JUMPDEST SWAP3 SWAP2 POP POP JUMP JUMPDEST PUSH1 0x0 DUP1 PUSH1 0x40 DUP4 DUP6 SUB SLT ISZERO PUSH2 0xE39 JUMPI PUSH2 0xE38 PUSH2 0xD95 JUMP JUMPDEST JUMPDEST PUSH1 0x0 PUSH2 0xE47 DUP6 DUP3 DUP7 ADD PUSH2 0xDE8 JUMP JUMPDEST SWAP3 POP POP PUSH1 0x20 PUSH2 0xE58 DUP6 DUP3 DUP7 ADD PUSH2 0xE0D JUMP JUMPDEST SWAP2 POP POP SWAP3 POP SWAP3 SWAP1 POP JUMP JUMPDEST PUSH1 0x0 DUP2 ISZERO ISZERO SWAP1 POP SWAP2 SWAP1 POP JUMP JUMPDEST PUSH2 0xE77 DUP2 PUSH2 0xE62 JUMP JUMPDEST DUP3 MSTORE POP POP JUMP JUMPDEST PUSH1 0x0 PUSH1 0x20 DUP3 ADD SWAP1 POP PUSH2 0xE92 PUSH1 0x0 DUP4 ADD DUP5 PUSH2 0xE6E JUMP JUMPDEST SWAP3 SWAP2 POP POP JUMP JUMPDEST PUSH1 0x0 DUP1 REVERT JUMPDEST PUSH1 0x0 DUP1 REVERT JUMPDEST PUSH1 0x0 PUSH1 0x1F NOT PUSH1 0x1F DUP4 ADD AND SWAP1 POP SWAP2 SWAP1 POP JUMP JUMPDEST PUSH32 0x4E487B7100000000000000000000000000000000000000000000000000000000 PUSH1 0x0 MSTORE PUSH1 0x41 PUSH1 0x4 MSTORE PUSH1 0x24 PUSH1 0x0 REVERT JUMPDEST PUSH2 0xEEB DUP3 PUSH2 0xEA2 JUMP JUMPDEST DUP2 ADD DUP2 DUP2 LT PUSH8 0xFFFFFFFFFFFFFFFF DUP3 GT OR ISZERO PUSH2 0xF0A JUMPI PUSH2 0xF09 PUSH2 0xEB3 JUMP JUMPDEST JUMPDEST DUP1 PUSH1 0x40 MSTORE POP POP POP JUMP JUMPDEST PUSH1 0x0 PUSH2 0xF1D PUSH2 0xD8B JUMP JUMPDEST SWAP1 POP PUSH2 0xF29 DUP3 DUP3 PUSH2 0xEE2 JUMP JUMPDEST SWAP2 SWAP1 POP JUMP JUMPDEST PUSH1 0x0 PUSH8 0xFFFFFFFFFFFFFFFF DUP3 GT ISZERO PUSH2 0xF49 JUMPI PUSH2 0xF48 PUSH2 0xEB3 JUMP JUMPDEST JUMPDEST PUSH2 0xF52 DUP3 PUSH2 0xEA2 JUMP JUMPDEST SWAP1 POP PUSH1 0x20 DUP2 ADD SWAP1 POP SWAP2 SWAP1 POP JUMP JUMPDEST DUP3 DUP2 DUP4 CALLDATACOPY PUSH1 0x0 DUP4 DUP4 ADD MSTORE POP POP POP JUMP JUMPDEST PUSH1 0x0 PUSH2 0xF81 PUSH2 0xF7C DUP5 PUSH2 0xF2E JUMP JUMPDEST PUSH2 0xF13 JUMP JUMPDEST SWAP1 POP DUP3 DUP2 MSTORE PUSH1 0x20 DUP2 ADD DUP5 DUP5 DUP5 ADD GT ISZERO PUSH2 0xF9D JUMPI PUSH2 0xF9C PUSH2 0xE9D JUMP JUMPDEST JUMPDEST PUSH2 0xFA8 DUP5 DUP3 DUP6 PUSH2 0xF5F JUMP JUMPDEST POP SWAP4 SWAP3 POP POP POP JUMP JUMPDEST PUSH1 0x0 DUP3 PUSH1 0x1F DUP4 ADD SLT PUSH2 0xFC5 JUMPI PUSH2 0xFC4 PUSH2 0xE98 JUMP JUMPDEST JUMPDEST DUP2 CALLDATALOAD PUSH2 0xFD5 DUP5 DUP3 PUSH1 0x20 DUP7 ADD PUSH2 0xF6E JUMP JUMPDEST SWAP2 POP POP SWAP3 SWAP2 POP POP JUMP JUMPDEST PUSH1 0x0 PUSH1 0x20 DUP3 DUP5 SUB SLT ISZERO PUSH2 0xFF4 JUMPI PUSH2 0xFF3 PUSH2 0xD95 JUMP JUMPDEST JUMPDEST PUSH1 0x0 DUP3 ADD CALLDATALOAD PUSH8 0xFFFFFFFFFFFFFFFF DUP2 GT ISZERO PUSH2 0x1012 JUMPI PUSH2 0x1011 PUSH2 0xD9A JUMP JUMPDEST JUMPDEST PUSH2 0x101E DUP5 DUP3 DUP6 ADD PUSH2 0xFB0 JUMP JUMPDEST SWAP2 POP POP SWAP3 SWAP2 POP POP JUMP JUMPDEST PUSH2 0x1030 DUP2 PUSH2 0xDBF JUMP JUMPDEST DUP3 MSTORE POP POP JUMP JUMPDEST PUSH1 0x0 DUP2 MLOAD SWAP1 POP SWAP2 SWAP1 POP JUMP JUMPDEST PUSH1 0x0 DUP3 DUP3 MSTORE PUSH1 0x20 DUP3 ADD SWAP1 POP SWAP3 SWAP2 POP POP JUMP JUMPDEST PUSH1 0x0 JUMPDEST DUP4 DUP2 LT ISZERO PUSH2 0x1070 JUMPI DUP1 DUP3 ADD MLOAD DUP2 DUP5 ADD MSTORE PUSH1 0x20 DUP2 ADD SWAP1 POP PUSH2 0x1055 JUMP JUMPDEST PUSH1 0x0 DUP5 DUP5 ADD MSTORE POP POP POP POP JUMP JUMPDEST PUSH1 0x0 PUSH2 0x1087 DUP3 PUSH2 0x1036 JUMP JUMPDEST PUSH2 0x1091 DUP2 DUP6 PUSH2 0x1041 JUMP JUMPDEST SWAP4 POP PUSH2 0x10A1 DUP2 DUP6 PUSH1 0x20 DUP7 ADD PUSH2 0x1052 JUMP JUMPDEST PUSH2 0x10AA DUP2 PUSH2 0xEA2 JUMP JUMPDEST DUP5 ADD SWAP2 POP POP SWAP3 SWAP2 POP POP JUMP JUMPDEST PUSH1 0x0 DUP2 SWAP1 POP SWAP2 SWAP1 POP JUMP JUMPDEST PUSH2 0x10C8 DUP2 PUSH2 0x10B5 JUMP JUMPDEST DUP3 MSTORE POP POP JUMP JUMPDEST PUSH2 0x10D7 DUP2 PUSH2 0xE62 JUMP JUMPDEST DUP3 MSTORE POP POP JUMP JUMPDEST PUSH1 0x0 PUSH2 0x140 DUP4 ADD PUSH1 0x0 DUP4 ADD MLOAD PUSH2 0x10F6 PUSH1 0x0 DUP7 ADD DUP3 PUSH2 0x1027 JUMP JUMPDEST POP PUSH1 0x20 DUP4 ADD MLOAD DUP5 DUP3 SUB PUSH1 0x20 DUP7 ADD MSTORE PUSH2 0x110E DUP3 DUP3 PUSH2 0x107C JUMP JUMPDEST SWAP2 POP POP PUSH1 0x40 DUP4 ADD MLOAD PUSH2 0x1123 PUSH1 0x40 DUP7 ADD DUP3 PUSH2 0x10BF JUMP JUMPDEST POP PUSH1 0x60 DUP4 ADD MLOAD PUSH2 0x1136 PUSH1 0x60 DUP7 ADD DUP3 PUSH2 0x10BF JUMP JUMPDEST POP PUSH1 0x80 DUP4 ADD MLOAD PUSH2 0x1149 PUSH1 0x80 DUP7 ADD DUP3 PUSH2 0x10BF JUMP JUMPDEST POP PUSH1 0xA0 DUP4 ADD MLOAD PUSH2 0x115C PUSH1 0xA0 DUP7 ADD DUP3 PUSH2 0x10BF JUMP JUMPDEST POP PUSH1 0xC0 DUP4 ADD MLOAD PUSH2 0x116F PUSH1 0xC0 DUP7 ADD DUP3 PUSH2 0x10CE JUMP JUMPDEST POP PUSH1 0xE0 DUP4 ADD MLOAD PUSH2 0x1182 PUSH1 0xE0 DUP7 ADD DUP3 PUSH2 0x10CE JUMP JUMPDEST POP PUSH2 0x100 DUP4 ADD MLOAD PUSH2 0x1197 PUSH2 0x100 DUP7 ADD DUP3 PUSH2 0x10CE JUMP JUMPDEST POP PUSH2 0x120 DUP4 ADD MLOAD PUSH2 0x11AC PUSH2 0x120 DUP7 ADD DUP3 PUSH2 0x10CE JUMP JUMPDEST POP DUP1 SWAP2 POP POP SWAP3 SWAP2 POP POP JUMP JUMPDEST PUSH1 0x0 PUSH1 0x20 DUP3 ADD SWAP1 POP DUP2 DUP2 SUB PUSH1 0x0 DUP4 ADD MSTORE PUSH2 0x11D1 DUP2 DUP5 PUSH2 0x10DD JUMP JUMPDEST SWAP1 POP SWAP3 SWAP2 POP POP JUMP JUMPDEST PUSH1 0x0 PUSH1 0x20 DUP3 DUP5 SUB SLT ISZERO PUSH2 0x11EF JUMPI PUSH2 0x11EE PUSH2 0xD95 JUMP JUMPDEST JUMPDEST PUSH1 0x0 PUSH2 0x11FD DUP5 DUP3 DUP6 ADD PUSH2 0xDE8 JUMP JUMPDEST SWAP2 POP POP SWAP3 SWAP2 POP POP JUMP JUMPDEST PUSH1 0x2 DUP2 LT PUSH2 0x1213 JUMPI PUSH1 0x0 DUP1 REVERT JUMPDEST POP JUMP JUMPDEST PUSH1 0x0 DUP2 CALLDATALOAD SWAP1 POP PUSH2 0x1225 DUP2 PUSH2 0x1206 JUMP JUMPDEST SWAP3 SWAP2 POP POP JUMP JUMPDEST PUSH1 0x0 DUP1 PUSH1 0x40 DUP4 DUP6 SUB SLT ISZERO PUSH2 0x1242 JUMPI PUSH2 0x1241 PUSH2 0xD95 JUMP JUMPDEST JUMPDEST PUSH1 0x0 PUSH2 0x1250 DUP6 DUP3 DUP7 ADD PUSH2 0xDE8 JUMP JUMPDEST SWAP3 POP POP PUSH1 0x20 PUSH2 0x1261 DUP6 DUP3 DUP7 ADD PUSH2 0x1216 JUMP JUMPDEST SWAP2 POP POP SWAP3 POP SWAP3 SWAP1 POP JUMP JUMPDEST PUSH2 0x1274 DUP2 PUSH2 0xE62 JUMP JUMPDEST DUP2 EQ PUSH2 0x127F JUMPI PUSH1 0x0 DUP1 REVERT JUMPDEST POP JUMP JUMPDEST PUSH1 0x0 DUP2 CALLDATALOAD SWAP1 POP PUSH2 0x1291 DUP2 PUSH2 0x126B JUMP JUMPDEST SWAP3 SWAP2 POP POP JUMP JUMPDEST PUSH2 0x12A0 DUP2 PUSH2 0x10B5 JUMP JUMPDEST DUP2 EQ PUSH2 0x12AB JUMPI PUSH1 0x0 DUP1 REVERT JUMPDEST POP JUMP JUMPDEST PUSH1 0x0 DUP2 CALLDATALOAD SWAP1 POP PUSH2 0x12BD DUP2 PUSH2 0x1297 JUMP JUMPDEST SWAP3 SWAP2 POP POP JUMP JUMPDEST PUSH1 0x0 DUP1 PUSH1 0x0 DUP1 PUSH1 0x0 DUP1 PUSH1 0x0 DUP1 PUSH1 0x0 PUSH2 0x120 DUP11 DUP13 SUB SLT ISZERO PUSH2 0x12E6 JUMPI PUSH2 0x12E5 PUSH2 0xD95 JUMP JUMPDEST JUMPDEST PUSH1 0x0 PUSH2 0x12F4 DUP13 DUP3 DUP14 ADD PUSH2 0xDE8 JUMP JUMPDEST SWAP10 POP POP PUSH1 0x20 PUSH2 0x1305 DUP13 DUP3 DUP14 ADD PUSH2 0x1282 JUMP JUMPDEST SWAP9 POP POP PUSH1 0x40 PUSH2 0x1316 DUP13 DUP3 DUP14 ADD PUSH2 0x1282 JUMP JUMPDEST SWAP8 POP POP PUSH1 0x60 PUSH2 0x1327 DUP13 DUP3 DUP14 ADD PUSH2 0x1282 JUMP JUMPDEST SWAP7 POP POP PUSH1 0x80 PUSH2 0x1338 DUP13 DUP3 DUP14 ADD PUSH2 0x1282 JUMP JUMPDEST SWAP6 POP POP PUSH1 0xA0 DUP11 ADD CALLDATALOAD PUSH8 0xFFFFFFFFFFFFFFFF DUP2 GT ISZERO PUSH2 0x1359 JUMPI PUSH2 0x1358 PUSH2 0xD9A JUMP JUMPDEST JUMPDEST PUSH2 0x1365 DUP13 DUP3 DUP14 ADD PUSH2 0xFB0 JUMP JUMPDEST SWAP5 POP POP PUSH1 0xC0 PUSH2 0x1376 DUP13 DUP3 DUP14 ADD PUSH2 0x12AE JUMP JUMPDEST SWAP4 POP POP PUSH1 0xE0 PUSH2 0x1387 DUP13 DUP3 DUP14 ADD PUSH2 0x12AE JUMP JUMPDEST SWAP3 POP POP PUSH2 0x100 PUSH2 0x1399 DUP13 DUP3 DUP14 ADD PUSH2 0x12AE JUMP JUMPDEST SWAP2 POP POP SWAP3 SWAP6 SWAP9 POP SWAP3 SWAP6 SWAP9 POP SWAP3 SWAP6 SWAP9 JUMP JUMPDEST PUSH1 0x0 DUP3 DUP3 MSTORE PUSH1 0x20 DUP3 ADD SWAP1 POP SWAP3 SWAP2 POP POP JUMP JUMPDEST PUSH32 0x4E6F74204F776E65722C2063616E6E6F742070657266726D204F500000000000 PUSH1 0x0 DUP3 ADD MSTORE POP JUMP JUMPDEST PUSH1 0x0 PUSH2 0x13F0 PUSH1 0x1B DUP4 PUSH2 0x13A9 JUMP JUMPDEST SWAP2 POP PUSH2 0x13FB DUP3 PUSH2 0x13BA JUMP JUMPDEST PUSH1 0x20 DUP3 ADD SWAP1 POP SWAP2 SWAP1 POP JUMP JUMPDEST PUSH1 0x0 PUSH1 0x20 DUP3 ADD SWAP1 POP DUP2 DUP2 SUB PUSH1 0x0 DUP4 ADD MSTORE PUSH2 0x141F DUP2 PUSH2 0x13E3 JUMP JUMPDEST SWAP1 POP SWAP2 SWAP1 POP JUMP JUMPDEST PUSH32 0x4E487B7100000000000000000000000000000000000000000000000000000000 PUSH1 0x0 MSTORE PUSH1 0x32 PUSH1 0x4 MSTORE PUSH1 0x24 PUSH1 0x0 REVERT JUMPDEST PUSH32 0x4E487B7100000000000000000000000000000000000000000000000000000000 PUSH1 0x0 MSTORE PUSH1 0x21 PUSH1 0x4 MSTORE PUSH1 0x24 PUSH1 0x0 REVERT JUMPDEST PUSH32 0x4E487B7100000000000000000000000000000000000000000000000000000000 PUSH1 0x0 MSTORE PUSH1 0x11 PUSH1 0x4 MSTORE PUSH1 0x24 PUSH1 0x0 REVERT JUMPDEST PUSH1 0x0 PUSH2 0x14BE DUP3 PUSH2 0x10B5 JUMP JUMPDEST SWAP2 POP PUSH32 0xFFFFFFFFFFFFFFFFFFFFFFFFFFFFFFFFFFFFFFFFFFFFFFFFFFFFFFFFFFFFFFFF DUP3 SUB PUSH2 0x14F0 JUMPI PUSH2 0x14EF PUSH2 0x1484 JUMP JUMPDEST JUMPDEST PUSH1 0x1 DUP3 ADD SWAP1 POP SWAP2 SWAP1 POP JUMP JUMPDEST PUSH2 0x1504 DUP2 PUSH2 0xDBF JUMP JUMPDEST DUP3 MSTORE POP POP JUMP JUMPDEST PUSH1 0x2 DUP2 LT PUSH2 0x151B JUMPI PUSH2 0x151A PUSH2 0x1455 JUMP JUMPDEST JUMPDEST POP JUMP JUMPDEST PUSH1 0x0 DUP2 SWAP1 POP PUSH2 0x152C DUP3 PUSH2 0x150A JUMP JUMPDEST SWAP2 SWAP1 POP JUMP JUMPDEST PUSH1 0x0 PUSH2 0x153C DUP3 PUSH2 0x151E JUMP JUMPDEST SWAP1 POP SWAP2 SWAP1 POP JUMP JUMPDEST PUSH2 0x154C DUP2 PUSH2 0x1531 JUMP JUMPDEST DUP3 MSTORE POP POP JUMP JUMPDEST PUSH1 0x0 PUSH1 0x40 DUP3 ADD SWAP1 POP PUSH2 0x1567 PUSH1 0x0 DUP4 ADD DUP6 PUSH2 0x14FB JUMP JUMPDEST PUSH2 0x1574 PUSH1 0x20 DUP4 ADD DUP5 PUSH2 0x1543 JUMP JUMPDEST SWAP4 SWAP3 POP POP POP JUMP JUMPDEST PUSH1 0x0 DUP2 SWAP1 POP SWAP3 SWAP2 POP POP JUMP JUMPDEST PUSH1 0x0 PUSH2 0x1591 DUP3 PUSH2 0x1036 JUMP JUMPDEST PUSH2 0x159B DUP2 DUP6 PUSH2 0x157B JUMP JUMPDEST SWAP4 POP PUSH2 0x15AB DUP2 DUP6 PUSH1 0x20 DUP7 ADD PUSH2 0x1052 JUMP JUMPDEST DUP1 DUP5 ADD SWAP2 POP POP SWAP3 SWAP2 POP POP JUMP JUMPDEST PUSH1 0x0 PUSH2 0x15C3 DUP3 DUP5 PUSH2 0x1586 JUMP JUMPDEST SWAP2 POP DUP2 SWAP1 POP SWAP3 SWAP2 POP POP JUMP JUMPDEST PUSH32 0x4E487B7100000000000000000000000000000000000000000000000000000000 PUSH1 0x0 MSTORE PUSH1 0x22 PUSH1 0x4 MSTORE PUSH1 0x24 PUSH1 0x0 REVERT JUMPDEST PUSH1 0x0 PUSH1 0x2 DUP3 DIV SWAP1 POP PUSH1 0x1 DUP3 AND DUP1 PUSH2 0x1615 JUMPI PUSH1 0x7F DUP3 AND SWAP2 POP JUMPDEST PUSH1 0x20 DUP3 LT DUP2 SUB PUSH2 0x1628 JUMPI PUSH2 0x1627 PUSH2 0x15CE JUMP JUMPDEST JUMPDEST POP SWAP2 SWAP1 POP JUMP JUMPDEST PUSH1 0x0 DUP2 SWAP1 POP DUP2 PUSH1 0x0 MSTORE PUSH1 0x20 PUSH1 0x0 KECCAK256 SWAP1 POP SWAP2 SWAP1 POP JUMP JUMPDEST PUSH1 0x0 DUP2 SLOAD PUSH2 0x1650 DUP2 PUSH2 0x15FD JUMP JUMPDEST PUSH2 0x165A DUP2 DUP7 PUSH2 0x157B JUMP JUMPDEST SWAP5 POP PUSH1 0x1 DUP3 AND PUSH1 0x0 DUP2 EQ PUSH2 0x1675 JUMPI PUSH1 0x1 DUP2 EQ PUSH2 0x168A JUMPI PUSH2 0x16BD JUMP JUMPDEST PUSH1 0xFF NOT DUP4 AND DUP7 MSTORE DUP2 ISZERO ISZERO DUP3 MUL DUP7 ADD SWAP4 POP PUSH2 0x16BD JUMP JUMPDEST PUSH2 0x1693 DUP6 PUSH2 0x162E JUMP JUMPDEST PUSH1 0x0 JUMPDEST DUP4 DUP2 LT ISZERO PUSH2 0x16B5 JUMPI DUP2 SLOAD DUP2 DUP10 ADD MSTORE PUSH1 0x1 DUP3 ADD SWAP2 POP PUSH1 0x20 DUP2 ADD SWAP1 POP PUSH2 0x1696 JUMP JUMPDEST DUP4 DUP9 ADD SWAP6 POP POP POP JUMPDEST POP POP POP SWAP3 SWAP2 POP POP JUMP JUMPDEST PUSH1 0x0 PUSH2 0x16D2 DUP3 DUP5 PUSH2 0x1643 JUMP JUMPDEST SWAP2 POP DUP2 SWAP1 POP SWAP3 SWAP2 POP POP JUMP JUMPDEST PUSH32 0x4173736574206E6F7420666F756E640000000000000000000000000000000000 PUSH1 0x0 DUP3 ADD MSTORE POP JUMP JUMPDEST PUSH1 0x0 PUSH2 0x1713 PUSH1 0xF DUP4 PUSH2 0x13A9 JUMP JUMPDEST SWAP2 POP PUSH2 0x171E DUP3 PUSH2 0x16DD JUMP JUMPDEST PUSH1 0x20 DUP3 ADD SWAP1 POP SWAP2 SWAP1 POP JUMP JUMPDEST PUSH1 0x0 PUSH1 0x20 DUP3 ADD SWAP1 POP DUP2 DUP2 SUB PUSH1 0x0 DUP4 ADD MSTORE PUSH2 0x1742 DUP2 PUSH2 0x1706 JUMP JUMPDEST SWAP1 POP SWAP2 SWAP1 POP JUMP JUMPDEST PUSH1 0x2 DUP2 LT PUSH2 0x175A JUMPI PUSH2 0x1759 PUSH2 0x1455 JUMP JUMPDEST JUMPDEST POP JUMP JUMPDEST PUSH1 0x0 DUP2 SWAP1 POP PUSH2 0x176B DUP3 PUSH2 0x1749 JUMP JUMPDEST SWAP2 SWAP1 POP JUMP JUMPDEST PUSH1 0x0 PUSH2 0x177B DUP3 PUSH2 0x175D JUMP JUMPDEST SWAP1 POP SWAP2 SWAP1 POP JUMP JUMPDEST PUSH2 0x178B DUP2 PUSH2 0x1770 JUMP JUMPDEST DUP3 MSTORE POP POP JUMP JUMPDEST PUSH1 0x0 PUSH1 0x40 DUP3 ADD SWAP1 POP PUSH2 0x17A6 PUSH1 0x0 DUP4 ADD DUP6 PUSH2 0x14FB JUMP JUMPDEST PUSH2 0x17B3 PUSH1 0x20 DUP4 ADD DUP5 PUSH2 0x1782 JUMP JUMPDEST SWAP4 SWAP3 POP POP POP JUMP JUMPDEST PUSH1 0x0 PUSH1 0x20 PUSH1 0x1F DUP4 ADD DIV SWAP1 POP SWAP2 SWAP1 POP JUMP JUMPDEST PUSH1 0x0 DUP3 DUP3 SHL SWAP1 POP SWAP3 SWAP2 POP POP JUMP JUMPDEST PUSH1 0x0 PUSH1 0x8 DUP4 MUL PUSH2 0x1807 PUSH32 0xFFFFFFFFFFFFFFFFFFFFFFFFFFFFFFFFFFFFFFFFFFFFFFFFFFFFFFFFFFFFFFFF DUP3 PUSH2 0x17CA JUMP JUMPDEST PUSH2 0x1811 DUP7 DUP4 PUSH2 0x17CA JUMP JUMPDEST SWAP6 POP DUP1 NOT DUP5 AND SWAP4 POP DUP1 DUP7 AND DUP5 OR SWAP3 POP POP POP SWAP4 SWAP3 POP POP POP JUMP JUMPDEST PUSH1 0x0 DUP2 SWAP1 POP SWAP2 SWAP1 POP JUMP JUMPDEST PUSH1 0x0 PUSH2 0x184E PUSH2 0x1849 PUSH2 0x1844 DUP5 PUSH2 0x10B5 JUMP JUMPDEST PUSH2 0x1829 JUMP JUMPDEST PUSH2 0x10B5 JUMP JUMPDEST SWAP1 POP SWAP2 SWAP1 POP JUMP JUMPDEST PUSH1 0x0 DUP2 SWAP1 POP SWAP2 SWAP1 POP JUMP JUMPDEST PUSH2 0x1868 DUP4 PUSH2 0x1833 JUMP JUMPDEST PUSH2 0x187C PUSH2 0x1874 DUP3 PUSH2 0x1855 JUMP JUMPDEST DUP5 DUP5 SLOAD PUSH2 0x17D7 JUMP JUMPDEST DUP3 SSTORE POP POP POP POP JUMP JUMPDEST PUSH1 0x0 SWAP1 JUMP JUMPDEST PUSH2 0x1891 PUSH2 0x1884 JUMP JUMPDEST PUSH2 0x189C DUP2 DUP5 DUP5 PUSH2 0x185F JUMP JUMPDEST POP POP POP JUMP JUMPDEST JUMPDEST DUP2 DUP2 LT ISZERO PUSH2 0x18C0 JUMPI PUSH2 0x18B5 PUSH1 0x0 DUP3 PUSH2 0x1889 JUMP JUMPDEST PUSH1 0x1 DUP2 ADD SWAP1 POP PUSH2 0x18A2 JUMP JUMPDEST POP POP JUMP JUMPDEST PUSH1 0x1F DUP3 GT ISZERO PUSH2 0x1905 JUMPI PUSH2 0x18D6 DUP2 PUSH2 0x162E JUMP JUMPDEST PUSH2 0x18DF DUP5 PUSH2 0x17BA JUMP JUMPDEST DUP2 ADD PUSH1 0x20 DUP6 LT ISZERO PUSH2 0x18EE JUMPI DUP2 SWAP1 POP JUMPDEST PUSH2 0x1902 PUSH2 0x18FA DUP6 PUSH2 0x17BA JUMP JUMPDEST DUP4 ADD DUP3 PUSH2 0x18A1 JUMP JUMPDEST POP POP JUMPDEST POP POP POP JUMP JUMPDEST PUSH1 0x0 DUP3 DUP3 SHR SWAP1 POP SWAP3 SWAP2 POP POP JUMP JUMPDEST PUSH1 0x0 PUSH2 0x1928 PUSH1 0x0 NOT DUP5 PUSH1 0x8 MUL PUSH2 0x190A JUMP JUMPDEST NOT DUP1 DUP4 AND SWAP2 POP POP SWAP3 SWAP2 POP POP JUMP JUMPDEST PUSH1 0x0 PUSH2 0x1941 DUP4 DUP4 PUSH2 0x1917 JUMP JUMPDEST SWAP2 POP DUP3 PUSH1 0x2 MUL DUP3 OR SWAP1 POP SWAP3 SWAP2 POP POP JUMP JUMPDEST PUSH2 0x195A DUP3 PUSH2 0x1036 JUMP JUMPDEST PUSH8 0xFFFFFFFFFFFFFFFF DUP2 GT ISZERO PUSH2 0x1973 JUMPI PUSH2 0x1972 PUSH2 0xEB3 JUMP JUMPDEST JUMPDEST PUSH2 0x197D DUP3 SLOAD PUSH2 0x15FD JUMP JUMPDEST PUSH2 0x1988 DUP3 DUP3 DUP6 PUSH2 0x18C4 JUMP JUMPDEST PUSH1 0x0 PUSH1 0x20 SWAP1 POP PUSH1 0x1F DUP4 GT PUSH1 0x1 DUP2 EQ PUSH2 0x19BB JUMPI PUSH1 0x0 DUP5 ISZERO PUSH2 0x19A9 JUMPI DUP3 DUP8 ADD MLOAD SWAP1 POP JUMPDEST PUSH2 0x19B3 DUP6 DUP3 PUSH2 0x1935 JUMP JUMPDEST DUP7 SSTORE POP PUSH2 0x1A1B JUMP JUMPDEST PUSH1 0x1F NOT DUP5 AND PUSH2 0x19C9 DUP7 PUSH2 0x162E JUMP JUMPDEST PUSH1 0x0 JUMPDEST DUP3 DUP2 LT ISZERO PUSH2 0x19F1 JUMPI DUP5 DUP10 ADD MLOAD DUP3 SSTORE PUSH1 0x1 DUP3 ADD SWAP2 POP PUSH1 0x20 DUP6 ADD SWAP5 POP PUSH1 0x20 DUP2 ADD SWAP1 POP PUSH2 0x19CC JUMP JUMPDEST DUP7 DUP4 LT ISZERO PUSH2 0x1A0E JUMPI DUP5 DUP10 ADD MLOAD PUSH2 0x1A0A PUSH1 0x1F DUP10 AND DUP3 PUSH2 0x1917 JUMP JUMPDEST DUP4 SSTORE POP JUMPDEST PUSH1 0x1 PUSH1 0x2 DUP9 MUL ADD DUP9 SSTORE POP POP POP JUMPDEST POP POP POP POP POP POP JUMP JUMPDEST PUSH1 0x0 PUSH2 0x1A2E DUP3 PUSH2 0x1036 JUMP JUMPDEST PUSH2 0x1A38 DUP2 DUP6 PUSH2 0x13A9 JUMP JUMPDEST SWAP4 POP PUSH2 0x1A48 DUP2 DUP6 PUSH1 0x20 DUP7 ADD PUSH2 0x1052 JUMP JUMPDEST PUSH2 0x1A51 DUP2 PUSH2 0xEA2 JUMP JUMPDEST DUP5 ADD SWAP2 POP POP SWAP3 SWAP2 POP POP JUMP JUMPDEST PUSH2 0x1A65 DUP2 PUSH2 0x10B5 JUMP JUMPDEST DUP3 MSTORE POP POP JUMP JUMPDEST PUSH1 0x0 PUSH1 0x80 DUP3 ADD SWAP1 POP PUSH2 0x1A80 PUSH1 0x0 DUP4 ADD DUP8 PUSH2 0x14FB JUMP JUMPDEST DUP2 DUP2 SUB PUSH1 0x20 DUP4 ADD MSTORE PUSH2 0x1A92 DUP2 DUP7 PUSH2 0x1A23 JUMP JUMPDEST SWAP1 POP PUSH2 0x1AA1 PUSH1 0x40 DUP4 ADD DUP6 PUSH2 0x1A5C JUMP JUMPDEST PUSH2 0x1AAE PUSH1 0x60 DUP4 ADD DUP5 PUSH2 0x1A5C JUMP JUMPDEST SWAP6 SWAP5 POP POP POP POP POP JUMP INVALID LOG2 PUSH5 0x6970667358 0x22 SLT KECCAK256 SWAP8 NOT 0xC5 0xD7 MSIZE DUP7 GT 0xC7 0x2C 0xAE CALL 0xD4 MSIZE PUSH14 0x32DD25B4AC8030E4A80F8CC9CBC9 SHR 0x26 0x26 PUSH15 0x64736F6C6343000813003300000000 "
				},
				"gasEstimates": {
					"creation": {
						"codeDepositCost": "1378600",
						"executionCost": "25704",
						"totalCost": "1404304"
					},
					"external": {
						"addAssets(address,bool,bool,bool,bool,string,uint256,uint256,uint256)": "infinite",
						"freezeUnFreezeAsset(address,uint8)": "infinite",
						"getAssetByTokenAddress(address)": "infinite",
						"getAssetByTokenSymbol(string)": "infinite",
						"makeAssetActiveInactive(address,uint8)": "infinite"
					}
				},
				"methodIdentifiers": {
					"addAssets(address,bool,bool,bool,bool,string,uint256,uint256,uint256)": "f45edbb9",
					"freezeUnFreezeAsset(address,uint8)": "e7149623",
					"getAssetByTokenAddress(address)": "e2574030",
					"getAssetByTokenSymbol(string)": "827401bb",
					"makeAssetActiveInactive(address,uint8)": "671e3f75"
				}
			},
			"storageLayout": {
				"storage": [
					{
						"astId": 82,
						"contract": "Defi-project/V2/LendingConfig.sol:LendingConfig",
						"label": "owner",
						"offset": 0,
						"slot": "0",
						"type": "t_address"
					},
					{
						"astId": 158,
						"contract": "Defi-project/V2/LendingConfig.sol:LendingConfig",
						"label": "assets",
						"offset": 0,
						"slot": "1",
						"type": "t_array(t_struct(Asset)154_storage)dyn_storage"
					}
				],
				"types": {
					"t_address": {
						"encoding": "inplace",
						"label": "address",
						"numberOfBytes": "20"
					},
					"t_array(t_struct(Asset)154_storage)dyn_storage": {
						"base": "t_struct(Asset)154_storage",
						"encoding": "dynamic_array",
						"label": "struct LendingConfig.Asset[]",
						"numberOfBytes": "32"
					},
					"t_bool": {
						"encoding": "inplace",
						"label": "bool",
						"numberOfBytes": "1"
					},
					"t_string_storage": {
						"encoding": "bytes",
						"label": "string",
						"numberOfBytes": "32"
					},
					"t_struct(Asset)154_storage": {
						"encoding": "inplace",
						"label": "struct LendingConfig.Asset",
						"members": [
							{
								"astId": 135,
								"contract": "Defi-project/V2/LendingConfig.sol:LendingConfig",
								"label": "token",
								"offset": 0,
								"slot": "0",
								"type": "t_address"
							},
							{
								"astId": 137,
								"contract": "Defi-project/V2/LendingConfig.sol:LendingConfig",
								"label": "symbol",
								"offset": 0,
								"slot": "1",
								"type": "t_string_storage"
							},
							{
								"astId": 139,
								"contract": "Defi-project/V2/LendingConfig.sol:LendingConfig",
								"label": "decimals",
								"offset": 0,
								"slot": "2",
								"type": "t_uint256"
							},
							{
								"astId": 141,
								"contract": "Defi-project/V2/LendingConfig.sol:LendingConfig",
								"label": "borrowThreshold",
								"offset": 0,
								"slot": "3",
								"type": "t_uint256"
							},
							{
								"astId": 143,
								"contract": "Defi-project/V2/LendingConfig.sol:LendingConfig",
								"label": "liquidationThreshold",
								"offset": 0,
								"slot": "4",
								"type": "t_uint256"
							},
							{
								"astId": 145,
								"contract": "Defi-project/V2/LendingConfig.sol:LendingConfig",
								"label": "lastUpdateTimestamp",
								"offset": 0,
								"slot": "5",
								"type": "t_uint256"
							},
							{
								"astId": 147,
								"contract": "Defi-project/V2/LendingConfig.sol:LendingConfig",
								"label": "borrowingEnabled",
								"offset": 0,
								"slot": "6",
								"type": "t_bool"
							},
							{
								"astId": 149,
								"contract": "Defi-project/V2/LendingConfig.sol:LendingConfig",
								"label": "usageAsCollateralEnabled",
								"offset": 1,
								"slot": "6",
								"type": "t_bool"
							},
							{
								"astId": 151,
								"contract": "Defi-project/V2/LendingConfig.sol:LendingConfig",
								"label": "isfrozen",
								"offset": 2,
								"slot": "6",
								"type": "t_bool"
							},
							{
								"astId": 153,
								"contract": "Defi-project/V2/LendingConfig.sol:LendingConfig",
								"label": "isActive",
								"offset": 3,
								"slot": "6",
								"type": "t_bool"
							}
						],
						"numberOfBytes": "224"
					},
					"t_uint256": {
						"encoding": "inplace",
						"label": "uint256",
						"numberOfBytes": "32"
					}
				}
			},
			"userdoc": {
				"kind": "user",
				"methods": {},
				"version": 1
			}
		}
	}
}