{
	"Defi-project/V2/LendingConfig.sol": {
		"LendingPoolConfig": {
			"abi": [
				{
					"inputs": [],
					"stateMutability": "nonpayable",
					"type": "constructor"
				},
				{
					"anonymous": false,
					"inputs": [
						{
							"indexed": false,
							"internalType": "address",
							"name": "token",
							"type": "address"
						},
						{
							"indexed": false,
							"internalType": "string",
							"name": "symbol",
							"type": "string"
						},
						{
							"indexed": false,
							"internalType": "uint256",
							"name": "borrowThreshold",
							"type": "uint256"
						},
						{
							"indexed": false,
							"internalType": "uint256",
							"name": "liquidationThreshold",
							"type": "uint256"
						}
					],
					"name": "AddAsset",
					"type": "event"
				},
				{
					"anonymous": false,
					"inputs": [
						{
							"indexed": false,
							"internalType": "address",
							"name": "token",
							"type": "address"
						},
						{
							"indexed": false,
							"internalType": "enum LendingPoolConfig.Freeze",
							"name": "isfrozen",
							"type": "uint8"
						}
					],
					"name": "UpdateAssetFrozen",
					"type": "event"
				},
				{
					"anonymous": false,
					"inputs": [
						{
							"indexed": false,
							"internalType": "address",
							"name": "token",
							"type": "address"
						},
						{
							"indexed": false,
							"internalType": "enum LendingPoolConfig.AssetStatus",
							"name": "isActive",
							"type": "uint8"
						}
					],
					"name": "UpdateAssetStatus",
					"type": "event"
				},
				{
					"inputs": [
						{
							"internalType": "address",
							"name": "_token",
							"type": "address"
						},
						{
							"internalType": "bool",
							"name": "_borrowingEnabled",
							"type": "bool"
						},
						{
							"internalType": "bool",
							"name": "_usageAsCollateralEnabled",
							"type": "bool"
						},
						{
							"internalType": "bool",
							"name": "_isfrozen",
							"type": "bool"
						},
						{
							"internalType": "bool",
							"name": "_isActive",
							"type": "bool"
						},
						{
							"internalType": "string",
							"name": "_symbol",
							"type": "string"
						},
						{
							"internalType": "uint256",
							"name": "_decimals",
							"type": "uint256"
						},
						{
							"internalType": "uint256",
							"name": "_borrowThreshold",
							"type": "uint256"
						},
						{
							"internalType": "uint256",
							"name": "_liquidationThreshold",
							"type": "uint256"
						}
					],
					"name": "addAssets",
					"outputs": [
						{
							"internalType": "bool",
							"name": "",
							"type": "bool"
						}
					],
					"stateMutability": "nonpayable",
					"type": "function"
				},
				{
					"inputs": [
						{
							"internalType": "address",
							"name": "_token",
							"type": "address"
						},
						{
							"internalType": "enum LendingPoolConfig.Freeze",
							"name": "_choice",
							"type": "uint8"
						}
					],
					"name": "freezeUnFreezeAsset",
					"outputs": [
						{
							"internalType": "bool",
							"name": "",
							"type": "bool"
						}
					],
					"stateMutability": "nonpayable",
					"type": "function"
				},
				{
					"inputs": [
						{
							"internalType": "address",
							"name": "_token",
							"type": "address"
						}
					],
					"name": "getAssetByTokenAddress",
					"outputs": [
						{
							"components": [
								{
									"internalType": "address",
									"name": "token",
									"type": "address"
								},
								{
									"internalType": "string",
									"name": "symbol",
									"type": "string"
								},
								{
									"internalType": "uint256",
									"name": "decimals",
									"type": "uint256"
								},
								{
									"internalType": "uint256",
									"name": "borrowThreshold",
									"type": "uint256"
								},
								{
									"internalType": "uint256",
									"name": "liquidationThreshold",
									"type": "uint256"
								},
								{
									"internalType": "uint256",
									"name": "lastUpdateTimestamp",
									"type": "uint256"
								},
								{
									"internalType": "bool",
									"name": "borrowingEnabled",
									"type": "bool"
								},
								{
									"internalType": "bool",
									"name": "usageAsCollateralEnabled",
									"type": "bool"
								},
								{
									"internalType": "bool",
									"name": "isfrozen",
									"type": "bool"
								},
								{
									"internalType": "bool",
									"name": "isActive",
									"type": "bool"
								}
							],
							"internalType": "struct LendingPoolConfig.Asset",
							"name": "",
							"type": "tuple"
						}
					],
					"stateMutability": "view",
					"type": "function"
				},
				{
					"inputs": [
						{
							"internalType": "string",
							"name": "_symbol",
							"type": "string"
						}
					],
					"name": "getAssetByTokenSymbol",
					"outputs": [
						{
							"components": [
								{
									"internalType": "address",
									"name": "token",
									"type": "address"
								},
								{
									"internalType": "string",
									"name": "symbol",
									"type": "string"
								},
								{
									"internalType": "uint256",
									"name": "decimals",
									"type": "uint256"
								},
								{
									"internalType": "uint256",
									"name": "borrowThreshold",
									"type": "uint256"
								},
								{
									"internalType": "uint256",
									"name": "liquidationThreshold",
									"type": "uint256"
								},
								{
									"internalType": "uint256",
									"name": "lastUpdateTimestamp",
									"type": "uint256"
								},
								{
									"internalType": "bool",
									"name": "borrowingEnabled",
									"type": "bool"
								},
								{
									"internalType": "bool",
									"name": "usageAsCollateralEnabled",
									"type": "bool"
								},
								{
									"internalType": "bool",
									"name": "isfrozen",
									"type": "bool"
								},
								{
									"internalType": "bool",
									"name": "isActive",
									"type": "bool"
								}
							],
							"internalType": "struct LendingPoolConfig.Asset",
							"name": "",
							"type": "tuple"
						}
					],
					"stateMutability": "view",
					"type": "function"
				},
				{
					"inputs": [
						{
							"internalType": "address",
							"name": "_token",
							"type": "address"
						},
						{
							"internalType": "enum LendingPoolConfig.AssetStatus",
							"name": "_choice",
							"type": "uint8"
						}
					],
					"name": "makeAssetActiveInactive",
					"outputs": [
						{
							"internalType": "bool",
							"name": "",
							"type": "bool"
						}
					],
					"stateMutability": "nonpayable",
					"type": "function"
				}
			],
			"devdoc": {
				"kind": "dev",
				"methods": {},
				"version": 1
			},
			"evm": {
				"assembly": "    /* \"Defi-project/V2/LendingConfig.sol\":217:4236  contract LendingPoolConfig {\r... */\n  mstore(0x40, 0x80)\n    /* \"Defi-project/V2/LendingConfig.sol\":709:759  constructor(){\r... */\n  callvalue\n  dup1\n  iszero\n  tag_1\n  jumpi\n  0x00\n  dup1\n  revert\ntag_1:\n  pop\n    /* \"Defi-project/V2/LendingConfig.sol\":741:751  msg.sender */\n  caller\n    /* \"Defi-project/V2/LendingConfig.sol\":733:738  owner */\n  0x00\n  dup1\n    /* \"Defi-project/V2/LendingConfig.sol\":733:751  owner = msg.sender */\n  0x0100\n  exp\n  dup2\n  sload\n  dup2\n  0xffffffffffffffffffffffffffffffffffffffff\n  mul\n  not\n  and\n  swap1\n  dup4\n  0xffffffffffffffffffffffffffffffffffffffff\n  and\n  mul\n  or\n  swap1\n  sstore\n  pop\n    /* \"Defi-project/V2/LendingConfig.sol\":217:4236  contract LendingPoolConfig {\r... */\n  dataSize(sub_0)\n  dup1\n  dataOffset(sub_0)\n  0x00\n  codecopy\n  0x00\n  return\nstop\n\nsub_0: assembly {\n        /* \"Defi-project/V2/LendingConfig.sol\":217:4236  contract LendingPoolConfig {\r... */\n      mstore(0x40, 0x80)\n      callvalue\n      dup1\n      iszero\n      tag_1\n      jumpi\n      0x00\n      dup1\n      revert\n    tag_1:\n      pop\n      jumpi(tag_2, lt(calldatasize, 0x04))\n      shr(0xe0, calldataload(0x00))\n      dup1\n      0x671e3f75\n      eq\n      tag_3\n      jumpi\n      dup1\n      0x827401bb\n      eq\n      tag_4\n      jumpi\n      dup1\n      0xe2574030\n      eq\n      tag_5\n      jumpi\n      dup1\n      0xe7149623\n      eq\n      tag_6\n      jumpi\n      dup1\n      0xf45edbb9\n      eq\n      tag_7\n      jumpi\n    tag_2:\n      0x00\n      dup1\n      revert\n        /* \"Defi-project/V2/LendingConfig.sol\":2135:2801  function makeAssetActiveInactive(address _token, AssetStatus _choice) external onlyOwner returns(bool){\r... */\n    tag_3:\n      tag_8\n      0x04\n      dup1\n      calldatasize\n      sub\n      dup2\n      add\n      swap1\n      tag_9\n      swap2\n      swap1\n      tag_10\n      jump\t// in\n    tag_9:\n      tag_11\n      jump\t// in\n    tag_8:\n      mload(0x40)\n      tag_12\n      swap2\n      swap1\n      tag_13\n      jump\t// in\n    tag_12:\n      mload(0x40)\n      dup1\n      swap2\n      sub\n      swap1\n      return\n        /* \"Defi-project/V2/LendingConfig.sol\":3812:4233  function getAssetByTokenSymbol(string memory _symbol) public view returns(Asset memory) {\r... */\n    tag_4:\n      tag_14\n      0x04\n      dup1\n      calldatasize\n      sub\n      dup2\n      add\n      swap1\n      tag_15\n      swap2\n      swap1\n      tag_16\n      jump\t// in\n    tag_15:\n      tag_17\n      jump\t// in\n    tag_14:\n      mload(0x40)\n      tag_18\n      swap2\n      swap1\n      tag_19\n      jump\t// in\n    tag_18:\n      mload(0x40)\n      dup1\n      swap2\n      sub\n      swap1\n      return\n        /* \"Defi-project/V2/LendingConfig.sol\":3449:3804  function getAssetByTokenAddress(address _token) public view returns(Asset memory) {\r... */\n    tag_5:\n      tag_20\n      0x04\n      dup1\n      calldatasize\n      sub\n      dup2\n      add\n      swap1\n      tag_21\n      swap2\n      swap1\n      tag_22\n      jump\t// in\n    tag_21:\n      tag_23\n      jump\t// in\n    tag_20:\n      mload(0x40)\n      tag_24\n      swap2\n      swap1\n      tag_19\n      jump\t// in\n    tag_24:\n      mload(0x40)\n      dup1\n      swap2\n      sub\n      swap1\n      return\n        /* \"Defi-project/V2/LendingConfig.sol\":2809:3441  function freezeUnFreezeAsset(address _token, Freeze _choice) public returns(bool){\r... */\n    tag_6:\n      tag_25\n      0x04\n      dup1\n      calldatasize\n      sub\n      dup2\n      add\n      swap1\n      tag_26\n      swap2\n      swap1\n      tag_27\n      jump\t// in\n    tag_26:\n      tag_28\n      jump\t// in\n    tag_25:\n      mload(0x40)\n      tag_29\n      swap2\n      swap1\n      tag_13\n      jump\t// in\n    tag_29:\n      mload(0x40)\n      dup1\n      swap2\n      sub\n      swap1\n      return\n        /* \"Defi-project/V2/LendingConfig.sol\":1122:2127  function addAssets(\r... */\n    tag_7:\n      tag_30\n      0x04\n      dup1\n      calldatasize\n      sub\n      dup2\n      add\n      swap1\n      tag_31\n      swap2\n      swap1\n      tag_32\n      jump\t// in\n    tag_31:\n      tag_33\n      jump\t// in\n    tag_30:\n      mload(0x40)\n      tag_34\n      swap2\n      swap1\n      tag_13\n      jump\t// in\n    tag_34:\n      mload(0x40)\n      dup1\n      swap2\n      sub\n      swap1\n      return\n        /* \"Defi-project/V2/LendingConfig.sol\":2135:2801  function makeAssetActiveInactive(address _token, AssetStatus _choice) external onlyOwner returns(bool){\r... */\n    tag_11:\n        /* \"Defi-project/V2/LendingConfig.sol\":2232:2236  bool */\n      0x00\n        /* \"Defi-project/V2/LendingConfig.sol\":635:645  msg.sender */\n      caller\n        /* \"Defi-project/V2/LendingConfig.sol\":626:645  owner == msg.sender */\n      0xffffffffffffffffffffffffffffffffffffffff\n      and\n        /* \"Defi-project/V2/LendingConfig.sol\":626:631  owner */\n      0x00\n      dup1\n      sload\n      swap1\n      0x0100\n      exp\n      swap1\n      div\n      0xffffffffffffffffffffffffffffffffffffffff\n      and\n        /* \"Defi-project/V2/LendingConfig.sol\":626:645  owner == msg.sender */\n      0xffffffffffffffffffffffffffffffffffffffff\n      and\n      eq\n        /* \"Defi-project/V2/LendingConfig.sol\":618:677  require(owner == msg.sender, \"Not Owner, cannot perfrm OP\") */\n      tag_36\n      jumpi\n      mload(0x40)\n      0x08c379a000000000000000000000000000000000000000000000000000000000\n      dup2\n      mstore\n      0x04\n      add\n      tag_37\n      swap1\n      tag_38\n      jump\t// in\n    tag_37:\n      mload(0x40)\n      dup1\n      swap2\n      sub\n      swap1\n      revert\n    tag_36:\n        /* \"Defi-project/V2/LendingConfig.sol\":2248:2265  uint256 assetsLen */\n      0x00\n        /* \"Defi-project/V2/LendingConfig.sol\":2268:2274  assets */\n      0x01\n        /* \"Defi-project/V2/LendingConfig.sol\":2268:2281  assets.length */\n      dup1\n      sload\n      swap1\n      pop\n        /* \"Defi-project/V2/LendingConfig.sol\":2248:2281  uint256 assetsLen = assets.length */\n      swap1\n      pop\n        /* \"Defi-project/V2/LendingConfig.sol\":2297:2303  uint i */\n      0x00\n        /* \"Defi-project/V2/LendingConfig.sol\":2292:2713  for (uint i = 0; i < assetsLen; i++) {\r... */\n    tag_40:\n        /* \"Defi-project/V2/LendingConfig.sol\":2313:2322  assetsLen */\n      dup2\n        /* \"Defi-project/V2/LendingConfig.sol\":2309:2310  i */\n      dup2\n        /* \"Defi-project/V2/LendingConfig.sol\":2309:2322  i < assetsLen */\n      lt\n        /* \"Defi-project/V2/LendingConfig.sol\":2292:2713  for (uint i = 0; i < assetsLen; i++) {\r... */\n      iszero\n      tag_41\n      jumpi\n        /* \"Defi-project/V2/LendingConfig.sol\":2367:2373  _token */\n      dup5\n        /* \"Defi-project/V2/LendingConfig.sol\":2348:2373  assets[i].token == _token */\n      0xffffffffffffffffffffffffffffffffffffffff\n      and\n        /* \"Defi-project/V2/LendingConfig.sol\":2348:2354  assets */\n      0x01\n        /* \"Defi-project/V2/LendingConfig.sol\":2355:2356  i */\n      dup3\n        /* \"Defi-project/V2/LendingConfig.sol\":2348:2357  assets[i] */\n      dup2\n      sload\n      dup2\n      lt\n      tag_43\n      jumpi\n      tag_44\n      tag_45\n      jump\t// in\n    tag_44:\n    tag_43:\n      swap1\n      0x00\n      mstore\n      keccak256(0x00, 0x20)\n      swap1\n      0x07\n      mul\n      add\n        /* \"Defi-project/V2/LendingConfig.sol\":2348:2363  assets[i].token */\n      0x00\n      add\n      0x00\n      swap1\n      sload\n      swap1\n      0x0100\n      exp\n      swap1\n      div\n      0xffffffffffffffffffffffffffffffffffffffff\n      and\n        /* \"Defi-project/V2/LendingConfig.sol\":2348:2373  assets[i].token == _token */\n      0xffffffffffffffffffffffffffffffffffffffff\n      and\n      eq\n        /* \"Defi-project/V2/LendingConfig.sol\":2344:2702  if (assets[i].token == _token){\r... */\n      iszero\n      tag_47\n      jumpi\n        /* \"Defi-project/V2/LendingConfig.sol\":2408:2426  AssetStatus.ACTIVE */\n      0x00\n        /* \"Defi-project/V2/LendingConfig.sol\":2397:2426  _choice == AssetStatus.ACTIVE */\n      0x01\n      dup2\n      gt\n      iszero\n      tag_48\n      jumpi\n      tag_49\n      tag_50\n      jump\t// in\n    tag_49:\n    tag_48:\n        /* \"Defi-project/V2/LendingConfig.sol\":2397:2404  _choice */\n      dup5\n        /* \"Defi-project/V2/LendingConfig.sol\":2397:2426  _choice == AssetStatus.ACTIVE */\n      0x01\n      dup2\n      gt\n      iszero\n      tag_51\n      jumpi\n      tag_52\n      tag_50\n      jump\t// in\n    tag_52:\n    tag_51:\n      eq\n        /* \"Defi-project/V2/LendingConfig.sol\":2393:2591  if (_choice == AssetStatus.ACTIVE){\r... */\n      iszero\n      tag_53\n      jumpi\n        /* \"Defi-project/V2/LendingConfig.sol\":2471:2475  true */\n      0x01\n        /* \"Defi-project/V2/LendingConfig.sol\":2450:2456  assets */\n      dup1\n        /* \"Defi-project/V2/LendingConfig.sol\":2457:2458  i */\n      dup3\n        /* \"Defi-project/V2/LendingConfig.sol\":2450:2459  assets[i] */\n      dup2\n      sload\n      dup2\n      lt\n      tag_54\n      jumpi\n      tag_55\n      tag_45\n      jump\t// in\n    tag_55:\n    tag_54:\n      swap1\n      0x00\n      mstore\n      keccak256(0x00, 0x20)\n      swap1\n      0x07\n      mul\n      add\n        /* \"Defi-project/V2/LendingConfig.sol\":2450:2468  assets[i].isfrozen */\n      0x06\n      add\n      0x02\n        /* \"Defi-project/V2/LendingConfig.sol\":2450:2475  assets[i].isfrozen = true */\n      0x0100\n      exp\n      dup2\n      sload\n      dup2\n      0xff\n      mul\n      not\n      and\n      swap1\n      dup4\n      iszero\n      iszero\n      mul\n      or\n      swap1\n      sstore\n      pop\n        /* \"Defi-project/V2/LendingConfig.sol\":2393:2591  if (_choice == AssetStatus.ACTIVE){\r... */\n      jump(tag_57)\n    tag_53:\n        /* \"Defi-project/V2/LendingConfig.sol\":2566:2571  false */\n      0x00\n        /* \"Defi-project/V2/LendingConfig.sol\":2545:2551  assets */\n      0x01\n        /* \"Defi-project/V2/LendingConfig.sol\":2552:2553  i */\n      dup3\n        /* \"Defi-project/V2/LendingConfig.sol\":2545:2554  assets[i] */\n      dup2\n      sload\n      dup2\n      lt\n      tag_58\n      jumpi\n      tag_59\n      tag_45\n      jump\t// in\n    tag_59:\n    tag_58:\n      swap1\n      0x00\n      mstore\n      keccak256(0x00, 0x20)\n      swap1\n      0x07\n      mul\n      add\n        /* \"Defi-project/V2/LendingConfig.sol\":2545:2563  assets[i].isfrozen */\n      0x06\n      add\n      0x02\n        /* \"Defi-project/V2/LendingConfig.sol\":2545:2571  assets[i].isfrozen = false */\n      0x0100\n      exp\n      dup2\n      sload\n      dup2\n      0xff\n      mul\n      not\n      and\n      swap1\n      dup4\n      iszero\n      iszero\n      mul\n      or\n      swap1\n      sstore\n      pop\n        /* \"Defi-project/V2/LendingConfig.sol\":2393:2591  if (_choice == AssetStatus.ACTIVE){\r... */\n    tag_57:\n        /* \"Defi-project/V2/LendingConfig.sol\":2641:2656  block.timestamp */\n      timestamp\n        /* \"Defi-project/V2/LendingConfig.sol\":2609:2615  assets */\n      0x01\n        /* \"Defi-project/V2/LendingConfig.sol\":2616:2617  i */\n      dup3\n        /* \"Defi-project/V2/LendingConfig.sol\":2609:2618  assets[i] */\n      dup2\n      sload\n      dup2\n      lt\n      tag_61\n      jumpi\n      tag_62\n      tag_45\n      jump\t// in\n    tag_62:\n    tag_61:\n      swap1\n      0x00\n      mstore\n      keccak256(0x00, 0x20)\n      swap1\n      0x07\n      mul\n      add\n        /* \"Defi-project/V2/LendingConfig.sol\":2609:2638  assets[i].lastUpdateTimestamp */\n      0x05\n      add\n        /* \"Defi-project/V2/LendingConfig.sol\":2609:2656  assets[i].lastUpdateTimestamp = block.timestamp */\n      dup2\n      swap1\n      sstore\n      pop\n        /* \"Defi-project/V2/LendingConfig.sol\":2682:2686  true */\n      0x01\n        /* \"Defi-project/V2/LendingConfig.sol\":2675:2686  return true */\n      swap3\n      pop\n      pop\n      pop\n      jump(tag_39)\n        /* \"Defi-project/V2/LendingConfig.sol\":2344:2702  if (assets[i].token == _token){\r... */\n    tag_47:\n        /* \"Defi-project/V2/LendingConfig.sol\":2324:2327  i++ */\n      dup1\n      dup1\n      tag_64\n      swap1\n      tag_65\n      jump\t// in\n    tag_64:\n      swap2\n      pop\n      pop\n        /* \"Defi-project/V2/LendingConfig.sol\":2292:2713  for (uint i = 0; i < assetsLen; i++) {\r... */\n      jump(tag_40)\n    tag_41:\n      pop\n        /* \"Defi-project/V2/LendingConfig.sol\":2728:2762  UpdateAssetStatus(_token, _choice) */\n      0x1bc4f6a74fdbf500e13db259c58a58c59533ea54a4b93010d0126f6061ec3753\n        /* \"Defi-project/V2/LendingConfig.sol\":2746:2752  _token */\n      dup5\n        /* \"Defi-project/V2/LendingConfig.sol\":2754:2761  _choice */\n      dup5\n        /* \"Defi-project/V2/LendingConfig.sol\":2728:2762  UpdateAssetStatus(_token, _choice) */\n      mload(0x40)\n      tag_66\n      swap3\n      swap2\n      swap1\n      tag_67\n      jump\t// in\n    tag_66:\n      mload(0x40)\n      dup1\n      swap2\n      sub\n      swap1\n      log1\n        /* \"Defi-project/V2/LendingConfig.sol\":2788:2793  false */\n      0x00\n        /* \"Defi-project/V2/LendingConfig.sol\":2781:2793  return false */\n      swap2\n      pop\n      pop\n        /* \"Defi-project/V2/LendingConfig.sol\":688:689  _ */\n    tag_39:\n        /* \"Defi-project/V2/LendingConfig.sol\":2135:2801  function makeAssetActiveInactive(address _token, AssetStatus _choice) external onlyOwner returns(bool){\r... */\n      swap3\n      swap2\n      pop\n      pop\n      jump\t// out\n        /* \"Defi-project/V2/LendingConfig.sol\":3812:4233  function getAssetByTokenSymbol(string memory _symbol) public view returns(Asset memory) {\r... */\n    tag_17:\n        /* \"Defi-project/V2/LendingConfig.sol\":3886:3898  Asset memory */\n      tag_68\n      tag_69\n      jump\t// in\n    tag_68:\n        /* \"Defi-project/V2/LendingConfig.sol\":3942:3959  uint256 assetsLen */\n      0x00\n        /* \"Defi-project/V2/LendingConfig.sol\":3962:3968  assets */\n      0x01\n        /* \"Defi-project/V2/LendingConfig.sol\":3962:3975  assets.length */\n      dup1\n      sload\n      swap1\n      pop\n        /* \"Defi-project/V2/LendingConfig.sol\":3942:3975  uint256 assetsLen = assets.length */\n      swap1\n      pop\n        /* \"Defi-project/V2/LendingConfig.sol\":3991:3997  uint i */\n      0x00\n        /* \"Defi-project/V2/LendingConfig.sol\":3986:4190  for (uint i = 0; i < assetsLen; i++) {\r... */\n    tag_71:\n        /* \"Defi-project/V2/LendingConfig.sol\":4007:4016  assetsLen */\n      dup2\n        /* \"Defi-project/V2/LendingConfig.sol\":4003:4004  i */\n      dup2\n        /* \"Defi-project/V2/LendingConfig.sol\":4003:4016  i < assetsLen */\n      lt\n        /* \"Defi-project/V2/LendingConfig.sol\":3986:4190  for (uint i = 0; i < assetsLen; i++) {\r... */\n      iszero\n      tag_72\n      jumpi\n        /* \"Defi-project/V2/LendingConfig.sol\":4118:4125  _symbol */\n      dup4\n        /* \"Defi-project/V2/LendingConfig.sol\":4101:4126  abi.encodePacked(_symbol) */\n      add(0x20, mload(0x40))\n      tag_74\n      swap2\n      swap1\n      tag_75\n      jump\t// in\n    tag_74:\n      mload(0x40)\n      0x20\n      dup2\n      dup4\n      sub\n      sub\n      dup2\n      mstore\n      swap1\n      0x40\n      mstore\n        /* \"Defi-project/V2/LendingConfig.sol\":4091:4127  keccak256(abi.encodePacked(_symbol)) */\n      dup1\n      mload\n      swap1\n      0x20\n      add\n      keccak256\n        /* \"Defi-project/V2/LendingConfig.sol\":4069:4075  assets */\n      0x01\n        /* \"Defi-project/V2/LendingConfig.sol\":4076:4077  i */\n      dup3\n        /* \"Defi-project/V2/LendingConfig.sol\":4069:4078  assets[i] */\n      dup2\n      sload\n      dup2\n      lt\n      tag_76\n      jumpi\n      tag_77\n      tag_45\n      jump\t// in\n    tag_77:\n    tag_76:\n      swap1\n      0x00\n      mstore\n      keccak256(0x00, 0x20)\n      swap1\n      0x07\n      mul\n      add\n        /* \"Defi-project/V2/LendingConfig.sol\":4069:4085  assets[i].symbol */\n      0x01\n      add\n        /* \"Defi-project/V2/LendingConfig.sol\":4052:4086  abi.encodePacked(assets[i].symbol) */\n      add(0x20, mload(0x40))\n      tag_79\n      swap2\n      swap1\n      tag_80\n      jump\t// in\n    tag_79:\n      mload(0x40)\n      0x20\n      dup2\n      dup4\n      sub\n      sub\n      dup2\n      mstore\n      swap1\n      0x40\n      mstore\n        /* \"Defi-project/V2/LendingConfig.sol\":4042:4087  keccak256(abi.encodePacked(assets[i].symbol)) */\n      dup1\n      mload\n      swap1\n      0x20\n      add\n      keccak256\n        /* \"Defi-project/V2/LendingConfig.sol\":4042:4127  keccak256(abi.encodePacked(assets[i].symbol)) == keccak256(abi.encodePacked(_symbol)) */\n      eq\n        /* \"Defi-project/V2/LendingConfig.sol\":4038:4179  if (keccak256(abi.encodePacked(assets[i].symbol)) == keccak256(abi.encodePacked(_symbol))){\r... */\n      iszero\n      tag_81\n      jumpi\n        /* \"Defi-project/V2/LendingConfig.sol\":4154:4160  assets */\n      0x01\n        /* \"Defi-project/V2/LendingConfig.sol\":4161:4162  i */\n      dup2\n        /* \"Defi-project/V2/LendingConfig.sol\":4154:4163  assets[i] */\n      dup2\n      sload\n      dup2\n      lt\n      tag_82\n      jumpi\n      tag_83\n      tag_45\n      jump\t// in\n    tag_83:\n    tag_82:\n      swap1\n      0x00\n      mstore\n      keccak256(0x00, 0x20)\n      swap1\n      0x07\n      mul\n      add\n        /* \"Defi-project/V2/LendingConfig.sol\":4147:4163  return assets[i] */\n      mload(0x40)\n      dup1\n      0x0140\n      add\n      0x40\n      mstore\n      swap1\n      dup2\n      0x00\n      dup3\n      add\n      0x00\n      swap1\n      sload\n      swap1\n      0x0100\n      exp\n      swap1\n      div\n      0xffffffffffffffffffffffffffffffffffffffff\n      and\n      0xffffffffffffffffffffffffffffffffffffffff\n      and\n      0xffffffffffffffffffffffffffffffffffffffff\n      and\n      dup2\n      mstore\n      0x20\n      add\n      0x01\n      dup3\n      add\n      dup1\n      sload\n      tag_85\n      swap1\n      tag_86\n      jump\t// in\n    tag_85:\n      dup1\n      0x1f\n      add\n      0x20\n      dup1\n      swap2\n      div\n      mul\n      0x20\n      add\n      mload(0x40)\n      swap1\n      dup2\n      add\n      0x40\n      mstore\n      dup1\n      swap3\n      swap2\n      swap1\n      dup2\n      dup2\n      mstore\n      0x20\n      add\n      dup3\n      dup1\n      sload\n      tag_87\n      swap1\n      tag_86\n      jump\t// in\n    tag_87:\n      dup1\n      iszero\n      tag_88\n      jumpi\n      dup1\n      0x1f\n      lt\n      tag_89\n      jumpi\n      0x0100\n      dup1\n      dup4\n      sload\n      div\n      mul\n      dup4\n      mstore\n      swap2\n      0x20\n      add\n      swap2\n      jump(tag_88)\n    tag_89:\n      dup3\n      add\n      swap2\n      swap1\n      0x00\n      mstore\n      keccak256(0x00, 0x20)\n      swap1\n    tag_90:\n      dup2\n      sload\n      dup2\n      mstore\n      swap1\n      0x01\n      add\n      swap1\n      0x20\n      add\n      dup1\n      dup4\n      gt\n      tag_90\n      jumpi\n      dup3\n      swap1\n      sub\n      0x1f\n      and\n      dup3\n      add\n      swap2\n    tag_88:\n      pop\n      pop\n      pop\n      pop\n      pop\n      dup2\n      mstore\n      0x20\n      add\n      0x02\n      dup3\n      add\n      sload\n      dup2\n      mstore\n      0x20\n      add\n      0x03\n      dup3\n      add\n      sload\n      dup2\n      mstore\n      0x20\n      add\n      0x04\n      dup3\n      add\n      sload\n      dup2\n      mstore\n      0x20\n      add\n      0x05\n      dup3\n      add\n      sload\n      dup2\n      mstore\n      0x20\n      add\n      0x06\n      dup3\n      add\n      0x00\n      swap1\n      sload\n      swap1\n      0x0100\n      exp\n      swap1\n      div\n      0xff\n      and\n      iszero\n      iszero\n      iszero\n      iszero\n      dup2\n      mstore\n      0x20\n      add\n      0x06\n      dup3\n      add\n      0x01\n      swap1\n      sload\n      swap1\n      0x0100\n      exp\n      swap1\n      div\n      0xff\n      and\n      iszero\n      iszero\n      iszero\n      iszero\n      dup2\n      mstore\n      0x20\n      add\n      0x06\n      dup3\n      add\n      0x02\n      swap1\n      sload\n      swap1\n      0x0100\n      exp\n      swap1\n      div\n      0xff\n      and\n      iszero\n      iszero\n      iszero\n      iszero\n      dup2\n      mstore\n      0x20\n      add\n      0x06\n      dup3\n      add\n      0x03\n      swap1\n      sload\n      swap1\n      0x0100\n      exp\n      swap1\n      div\n      0xff\n      and\n      iszero\n      iszero\n      iszero\n      iszero\n      dup2\n      mstore\n      pop\n      pop\n      swap3\n      pop\n      pop\n      pop\n      jump(tag_70)\n        /* \"Defi-project/V2/LendingConfig.sol\":4038:4179  if (keccak256(abi.encodePacked(assets[i].symbol)) == keccak256(abi.encodePacked(_symbol))){\r... */\n    tag_81:\n        /* \"Defi-project/V2/LendingConfig.sol\":4018:4021  i++ */\n      dup1\n      dup1\n      tag_91\n      swap1\n      tag_65\n      jump\t// in\n    tag_91:\n      swap2\n      pop\n      pop\n        /* \"Defi-project/V2/LendingConfig.sol\":3986:4190  for (uint i = 0; i < assetsLen; i++) {\r... */\n      jump(tag_71)\n    tag_72:\n      pop\n        /* \"Defi-project/V2/LendingConfig.sol\":4200:4225  revert(\"Asset not found\") */\n      mload(0x40)\n      0x08c379a000000000000000000000000000000000000000000000000000000000\n      dup2\n      mstore\n      0x04\n      add\n      tag_92\n      swap1\n      tag_93\n      jump\t// in\n    tag_92:\n      mload(0x40)\n      dup1\n      swap2\n      sub\n      swap1\n      revert\n        /* \"Defi-project/V2/LendingConfig.sol\":3812:4233  function getAssetByTokenSymbol(string memory _symbol) public view returns(Asset memory) {\r... */\n    tag_70:\n      swap2\n      swap1\n      pop\n      jump\t// out\n        /* \"Defi-project/V2/LendingConfig.sol\":3449:3804  function getAssetByTokenAddress(address _token) public view returns(Asset memory) {\r... */\n    tag_23:\n        /* \"Defi-project/V2/LendingConfig.sol\":3517:3529  Asset memory */\n      tag_94\n      tag_69\n      jump\t// in\n    tag_94:\n        /* \"Defi-project/V2/LendingConfig.sol\":3573:3590  uint256 assetsLen */\n      0x00\n        /* \"Defi-project/V2/LendingConfig.sol\":3593:3599  assets */\n      0x01\n        /* \"Defi-project/V2/LendingConfig.sol\":3593:3606  assets.length */\n      dup1\n      sload\n      swap1\n      pop\n        /* \"Defi-project/V2/LendingConfig.sol\":3573:3606  uint256 assetsLen = assets.length */\n      swap1\n      pop\n        /* \"Defi-project/V2/LendingConfig.sol\":3622:3628  uint i */\n      0x00\n        /* \"Defi-project/V2/LendingConfig.sol\":3617:3761  for (uint i = 0; i < assetsLen; i++) {\r... */\n    tag_96:\n        /* \"Defi-project/V2/LendingConfig.sol\":3638:3647  assetsLen */\n      dup2\n        /* \"Defi-project/V2/LendingConfig.sol\":3634:3635  i */\n      dup2\n        /* \"Defi-project/V2/LendingConfig.sol\":3634:3647  i < assetsLen */\n      lt\n        /* \"Defi-project/V2/LendingConfig.sol\":3617:3761  for (uint i = 0; i < assetsLen; i++) {\r... */\n      iszero\n      tag_97\n      jumpi\n        /* \"Defi-project/V2/LendingConfig.sol\":3692:3698  _token */\n      dup4\n        /* \"Defi-project/V2/LendingConfig.sol\":3673:3698  assets[i].token == _token */\n      0xffffffffffffffffffffffffffffffffffffffff\n      and\n        /* \"Defi-project/V2/LendingConfig.sol\":3673:3679  assets */\n      0x01\n        /* \"Defi-project/V2/LendingConfig.sol\":3680:3681  i */\n      dup3\n        /* \"Defi-project/V2/LendingConfig.sol\":3673:3682  assets[i] */\n      dup2\n      sload\n      dup2\n      lt\n      tag_99\n      jumpi\n      tag_100\n      tag_45\n      jump\t// in\n    tag_100:\n    tag_99:\n      swap1\n      0x00\n      mstore\n      keccak256(0x00, 0x20)\n      swap1\n      0x07\n      mul\n      add\n        /* \"Defi-project/V2/LendingConfig.sol\":3673:3688  assets[i].token */\n      0x00\n      add\n      0x00\n      swap1\n      sload\n      swap1\n      0x0100\n      exp\n      swap1\n      div\n      0xffffffffffffffffffffffffffffffffffffffff\n      and\n        /* \"Defi-project/V2/LendingConfig.sol\":3673:3698  assets[i].token == _token */\n      0xffffffffffffffffffffffffffffffffffffffff\n      and\n      eq\n        /* \"Defi-project/V2/LendingConfig.sol\":3669:3750  if (assets[i].token == _token){\r... */\n      iszero\n      tag_102\n      jumpi\n        /* \"Defi-project/V2/LendingConfig.sol\":3725:3731  assets */\n      0x01\n        /* \"Defi-project/V2/LendingConfig.sol\":3732:3733  i */\n      dup2\n        /* \"Defi-project/V2/LendingConfig.sol\":3725:3734  assets[i] */\n      dup2\n      sload\n      dup2\n      lt\n      tag_103\n      jumpi\n      tag_104\n      tag_45\n      jump\t// in\n    tag_104:\n    tag_103:\n      swap1\n      0x00\n      mstore\n      keccak256(0x00, 0x20)\n      swap1\n      0x07\n      mul\n      add\n        /* \"Defi-project/V2/LendingConfig.sol\":3718:3734  return assets[i] */\n      mload(0x40)\n      dup1\n      0x0140\n      add\n      0x40\n      mstore\n      swap1\n      dup2\n      0x00\n      dup3\n      add\n      0x00\n      swap1\n      sload\n      swap1\n      0x0100\n      exp\n      swap1\n      div\n      0xffffffffffffffffffffffffffffffffffffffff\n      and\n      0xffffffffffffffffffffffffffffffffffffffff\n      and\n      0xffffffffffffffffffffffffffffffffffffffff\n      and\n      dup2\n      mstore\n      0x20\n      add\n      0x01\n      dup3\n      add\n      dup1\n      sload\n      tag_106\n      swap1\n      tag_86\n      jump\t// in\n    tag_106:\n      dup1\n      0x1f\n      add\n      0x20\n      dup1\n      swap2\n      div\n      mul\n      0x20\n      add\n      mload(0x40)\n      swap1\n      dup2\n      add\n      0x40\n      mstore\n      dup1\n      swap3\n      swap2\n      swap1\n      dup2\n      dup2\n      mstore\n      0x20\n      add\n      dup3\n      dup1\n      sload\n      tag_107\n      swap1\n      tag_86\n      jump\t// in\n    tag_107:\n      dup1\n      iszero\n      tag_108\n      jumpi\n      dup1\n      0x1f\n      lt\n      tag_109\n      jumpi\n      0x0100\n      dup1\n      dup4\n      sload\n      div\n      mul\n      dup4\n      mstore\n      swap2\n      0x20\n      add\n      swap2\n      jump(tag_108)\n    tag_109:\n      dup3\n      add\n      swap2\n      swap1\n      0x00\n      mstore\n      keccak256(0x00, 0x20)\n      swap1\n    tag_110:\n      dup2\n      sload\n      dup2\n      mstore\n      swap1\n      0x01\n      add\n      swap1\n      0x20\n      add\n      dup1\n      dup4\n      gt\n      tag_110\n      jumpi\n      dup3\n      swap1\n      sub\n      0x1f\n      and\n      dup3\n      add\n      swap2\n    tag_108:\n      pop\n      pop\n      pop\n      pop\n      pop\n      dup2\n      mstore\n      0x20\n      add\n      0x02\n      dup3\n      add\n      sload\n      dup2\n      mstore\n      0x20\n      add\n      0x03\n      dup3\n      add\n      sload\n      dup2\n      mstore\n      0x20\n      add\n      0x04\n      dup3\n      add\n      sload\n      dup2\n      mstore\n      0x20\n      add\n      0x05\n      dup3\n      add\n      sload\n      dup2\n      mstore\n      0x20\n      add\n      0x06\n      dup3\n      add\n      0x00\n      swap1\n      sload\n      swap1\n      0x0100\n      exp\n      swap1\n      div\n      0xff\n      and\n      iszero\n      iszero\n      iszero\n      iszero\n      dup2\n      mstore\n      0x20\n      add\n      0x06\n      dup3\n      add\n      0x01\n      swap1\n      sload\n      swap1\n      0x0100\n      exp\n      swap1\n      div\n      0xff\n      and\n      iszero\n      iszero\n      iszero\n      iszero\n      dup2\n      mstore\n      0x20\n      add\n      0x06\n      dup3\n      add\n      0x02\n      swap1\n      sload\n      swap1\n      0x0100\n      exp\n      swap1\n      div\n      0xff\n      and\n      iszero\n      iszero\n      iszero\n      iszero\n      dup2\n      mstore\n      0x20\n      add\n      0x06\n      dup3\n      add\n      0x03\n      swap1\n      sload\n      swap1\n      0x0100\n      exp\n      swap1\n      div\n      0xff\n      and\n      iszero\n      iszero\n      iszero\n      iszero\n      dup2\n      mstore\n      pop\n      pop\n      swap3\n      pop\n      pop\n      pop\n      jump(tag_95)\n        /* \"Defi-project/V2/LendingConfig.sol\":3669:3750  if (assets[i].token == _token){\r... */\n    tag_102:\n        /* \"Defi-project/V2/LendingConfig.sol\":3649:3652  i++ */\n      dup1\n      dup1\n      tag_111\n      swap1\n      tag_65\n      jump\t// in\n    tag_111:\n      swap2\n      pop\n      pop\n        /* \"Defi-project/V2/LendingConfig.sol\":3617:3761  for (uint i = 0; i < assetsLen; i++) {\r... */\n      jump(tag_96)\n    tag_97:\n      pop\n        /* \"Defi-project/V2/LendingConfig.sol\":3771:3796  revert(\"Asset not found\") */\n      mload(0x40)\n      0x08c379a000000000000000000000000000000000000000000000000000000000\n      dup2\n      mstore\n      0x04\n      add\n      tag_112\n      swap1\n      tag_93\n      jump\t// in\n    tag_112:\n      mload(0x40)\n      dup1\n      swap2\n      sub\n      swap1\n      revert\n        /* \"Defi-project/V2/LendingConfig.sol\":3449:3804  function getAssetByTokenAddress(address _token) public view returns(Asset memory) {\r... */\n    tag_95:\n      swap2\n      swap1\n      pop\n      jump\t// out\n        /* \"Defi-project/V2/LendingConfig.sol\":2809:3441  function freezeUnFreezeAsset(address _token, Freeze _choice) public returns(bool){\r... */\n    tag_28:\n        /* \"Defi-project/V2/LendingConfig.sol\":2885:2889  bool */\n      0x00\n        /* \"Defi-project/V2/LendingConfig.sol\":2901:2918  uint256 assetsLen */\n      dup1\n        /* \"Defi-project/V2/LendingConfig.sol\":2921:2927  assets */\n      0x01\n        /* \"Defi-project/V2/LendingConfig.sol\":2921:2934  assets.length */\n      dup1\n      sload\n      swap1\n      pop\n        /* \"Defi-project/V2/LendingConfig.sol\":2901:2934  uint256 assetsLen = assets.length */\n      swap1\n      pop\n        /* \"Defi-project/V2/LendingConfig.sol\":2950:2956  uint i */\n      0x00\n        /* \"Defi-project/V2/LendingConfig.sol\":2945:3361  for (uint i = 0; i < assetsLen; i++) {\r... */\n    tag_114:\n        /* \"Defi-project/V2/LendingConfig.sol\":2966:2975  assetsLen */\n      dup2\n        /* \"Defi-project/V2/LendingConfig.sol\":2962:2963  i */\n      dup2\n        /* \"Defi-project/V2/LendingConfig.sol\":2962:2975  i < assetsLen */\n      lt\n        /* \"Defi-project/V2/LendingConfig.sol\":2945:3361  for (uint i = 0; i < assetsLen; i++) {\r... */\n      iszero\n      tag_115\n      jumpi\n        /* \"Defi-project/V2/LendingConfig.sol\":3020:3026  _token */\n      dup5\n        /* \"Defi-project/V2/LendingConfig.sol\":3001:3026  assets[i].token == _token */\n      0xffffffffffffffffffffffffffffffffffffffff\n      and\n        /* \"Defi-project/V2/LendingConfig.sol\":3001:3007  assets */\n      0x01\n        /* \"Defi-project/V2/LendingConfig.sol\":3008:3009  i */\n      dup3\n        /* \"Defi-project/V2/LendingConfig.sol\":3001:3010  assets[i] */\n      dup2\n      sload\n      dup2\n      lt\n      tag_117\n      jumpi\n      tag_118\n      tag_45\n      jump\t// in\n    tag_118:\n    tag_117:\n      swap1\n      0x00\n      mstore\n      keccak256(0x00, 0x20)\n      swap1\n      0x07\n      mul\n      add\n        /* \"Defi-project/V2/LendingConfig.sol\":3001:3016  assets[i].token */\n      0x00\n      add\n      0x00\n      swap1\n      sload\n      swap1\n      0x0100\n      exp\n      swap1\n      div\n      0xffffffffffffffffffffffffffffffffffffffff\n      and\n        /* \"Defi-project/V2/LendingConfig.sol\":3001:3026  assets[i].token == _token */\n      0xffffffffffffffffffffffffffffffffffffffff\n      and\n      eq\n        /* \"Defi-project/V2/LendingConfig.sol\":2997:3350  if (assets[i].token == _token){\r... */\n      iszero\n      tag_120\n      jumpi\n        /* \"Defi-project/V2/LendingConfig.sol\":3061:3074  Freeze.FREEZE */\n      0x00\n        /* \"Defi-project/V2/LendingConfig.sol\":3050:3074  _choice == Freeze.FREEZE */\n      0x01\n      dup2\n      gt\n      iszero\n      tag_121\n      jumpi\n      tag_122\n      tag_50\n      jump\t// in\n    tag_122:\n    tag_121:\n        /* \"Defi-project/V2/LendingConfig.sol\":3050:3057  _choice */\n      dup5\n        /* \"Defi-project/V2/LendingConfig.sol\":3050:3074  _choice == Freeze.FREEZE */\n      0x01\n      dup2\n      gt\n      iszero\n      tag_123\n      jumpi\n      tag_124\n      tag_50\n      jump\t// in\n    tag_124:\n    tag_123:\n      eq\n        /* \"Defi-project/V2/LendingConfig.sol\":3046:3239  if (_choice == Freeze.FREEZE){\r... */\n      iszero\n      tag_125\n      jumpi\n        /* \"Defi-project/V2/LendingConfig.sol\":3119:3123  true */\n      0x01\n        /* \"Defi-project/V2/LendingConfig.sol\":3098:3104  assets */\n      dup1\n        /* \"Defi-project/V2/LendingConfig.sol\":3105:3106  i */\n      dup3\n        /* \"Defi-project/V2/LendingConfig.sol\":3098:3107  assets[i] */\n      dup2\n      sload\n      dup2\n      lt\n      tag_126\n      jumpi\n      tag_127\n      tag_45\n      jump\t// in\n    tag_127:\n    tag_126:\n      swap1\n      0x00\n      mstore\n      keccak256(0x00, 0x20)\n      swap1\n      0x07\n      mul\n      add\n        /* \"Defi-project/V2/LendingConfig.sol\":3098:3116  assets[i].isfrozen */\n      0x06\n      add\n      0x02\n        /* \"Defi-project/V2/LendingConfig.sol\":3098:3123  assets[i].isfrozen = true */\n      0x0100\n      exp\n      dup2\n      sload\n      dup2\n      0xff\n      mul\n      not\n      and\n      swap1\n      dup4\n      iszero\n      iszero\n      mul\n      or\n      swap1\n      sstore\n      pop\n        /* \"Defi-project/V2/LendingConfig.sol\":3046:3239  if (_choice == Freeze.FREEZE){\r... */\n      jump(tag_129)\n    tag_125:\n        /* \"Defi-project/V2/LendingConfig.sol\":3214:3219  false */\n      0x00\n        /* \"Defi-project/V2/LendingConfig.sol\":3193:3199  assets */\n      0x01\n        /* \"Defi-project/V2/LendingConfig.sol\":3200:3201  i */\n      dup3\n        /* \"Defi-project/V2/LendingConfig.sol\":3193:3202  assets[i] */\n      dup2\n      sload\n      dup2\n      lt\n      tag_130\n      jumpi\n      tag_131\n      tag_45\n      jump\t// in\n    tag_131:\n    tag_130:\n      swap1\n      0x00\n      mstore\n      keccak256(0x00, 0x20)\n      swap1\n      0x07\n      mul\n      add\n        /* \"Defi-project/V2/LendingConfig.sol\":3193:3211  assets[i].isfrozen */\n      0x06\n      add\n      0x02\n        /* \"Defi-project/V2/LendingConfig.sol\":3193:3219  assets[i].isfrozen = false */\n      0x0100\n      exp\n      dup2\n      sload\n      dup2\n      0xff\n      mul\n      not\n      and\n      swap1\n      dup4\n      iszero\n      iszero\n      mul\n      or\n      swap1\n      sstore\n      pop\n        /* \"Defi-project/V2/LendingConfig.sol\":3046:3239  if (_choice == Freeze.FREEZE){\r... */\n    tag_129:\n        /* \"Defi-project/V2/LendingConfig.sol\":3289:3304  block.timestamp */\n      timestamp\n        /* \"Defi-project/V2/LendingConfig.sol\":3257:3263  assets */\n      0x01\n        /* \"Defi-project/V2/LendingConfig.sol\":3264:3265  i */\n      dup3\n        /* \"Defi-project/V2/LendingConfig.sol\":3257:3266  assets[i] */\n      dup2\n      sload\n      dup2\n      lt\n      tag_133\n      jumpi\n      tag_134\n      tag_45\n      jump\t// in\n    tag_134:\n    tag_133:\n      swap1\n      0x00\n      mstore\n      keccak256(0x00, 0x20)\n      swap1\n      0x07\n      mul\n      add\n        /* \"Defi-project/V2/LendingConfig.sol\":3257:3286  assets[i].lastUpdateTimestamp */\n      0x05\n      add\n        /* \"Defi-project/V2/LendingConfig.sol\":3257:3304  assets[i].lastUpdateTimestamp = block.timestamp */\n      dup2\n      swap1\n      sstore\n      pop\n        /* \"Defi-project/V2/LendingConfig.sol\":3330:3334  true */\n      0x01\n        /* \"Defi-project/V2/LendingConfig.sol\":3323:3334  return true */\n      swap3\n      pop\n      pop\n      pop\n      jump(tag_113)\n        /* \"Defi-project/V2/LendingConfig.sol\":2997:3350  if (assets[i].token == _token){\r... */\n    tag_120:\n        /* \"Defi-project/V2/LendingConfig.sol\":2977:2980  i++ */\n      dup1\n      dup1\n      tag_136\n      swap1\n      tag_65\n      jump\t// in\n    tag_136:\n      swap2\n      pop\n      pop\n        /* \"Defi-project/V2/LendingConfig.sol\":2945:3361  for (uint i = 0; i < assetsLen; i++) {\r... */\n      jump(tag_114)\n    tag_115:\n      pop\n        /* \"Defi-project/V2/LendingConfig.sol\":3376:3410  UpdateAssetFrozen(_token, _choice) */\n      0x3f57ea1559cfee0ff7804a8bbf56c488fbd7f8d575acd8537d7f02a6ffb8bdb4\n        /* \"Defi-project/V2/LendingConfig.sol\":3394:3400  _token */\n      dup5\n        /* \"Defi-project/V2/LendingConfig.sol\":3402:3409  _choice */\n      dup5\n        /* \"Defi-project/V2/LendingConfig.sol\":3376:3410  UpdateAssetFrozen(_token, _choice) */\n      mload(0x40)\n      tag_137\n      swap3\n      swap2\n      swap1\n      tag_138\n      jump\t// in\n    tag_137:\n      mload(0x40)\n      dup1\n      swap2\n      sub\n      swap1\n      log1\n        /* \"Defi-project/V2/LendingConfig.sol\":3428:3433  false */\n      0x00\n        /* \"Defi-project/V2/LendingConfig.sol\":3421:3433  return false */\n      swap2\n      pop\n      pop\n        /* \"Defi-project/V2/LendingConfig.sol\":2809:3441  function freezeUnFreezeAsset(address _token, Freeze _choice) public returns(bool){\r... */\n    tag_113:\n      swap3\n      swap2\n      pop\n      pop\n      jump\t// out\n        /* \"Defi-project/V2/LendingConfig.sol\":1122:2127  function addAssets(\r... */\n    tag_33:\n        /* \"Defi-project/V2/LendingConfig.sol\":1462:1466  bool */\n      0x00\n        /* \"Defi-project/V2/LendingConfig.sol\":635:645  msg.sender */\n      caller\n        /* \"Defi-project/V2/LendingConfig.sol\":626:645  owner == msg.sender */\n      0xffffffffffffffffffffffffffffffffffffffff\n      and\n        /* \"Defi-project/V2/LendingConfig.sol\":626:631  owner */\n      0x00\n      dup1\n      sload\n      swap1\n      0x0100\n      exp\n      swap1\n      div\n      0xffffffffffffffffffffffffffffffffffffffff\n      and\n        /* \"Defi-project/V2/LendingConfig.sol\":626:645  owner == msg.sender */\n      0xffffffffffffffffffffffffffffffffffffffff\n      and\n      eq\n        /* \"Defi-project/V2/LendingConfig.sol\":618:677  require(owner == msg.sender, \"Not Owner, cannot perfrm OP\") */\n      tag_140\n      jumpi\n      mload(0x40)\n      0x08c379a000000000000000000000000000000000000000000000000000000000\n      dup2\n      mstore\n      0x04\n      add\n      tag_141\n      swap1\n      tag_38\n      jump\t// in\n    tag_141:\n      mload(0x40)\n      dup1\n      swap2\n      sub\n      swap1\n      revert\n    tag_140:\n        /* \"Defi-project/V2/LendingConfig.sol\":1480:1486  assets */\n      0x01\n        /* \"Defi-project/V2/LendingConfig.sol\":1506:2002  Asset({\r... */\n      mload(0x40)\n      dup1\n      0x0140\n      add\n      0x40\n      mstore\n      dup1\n        /* \"Defi-project/V2/LendingConfig.sol\":1538:1544  _token */\n      dup13\n        /* \"Defi-project/V2/LendingConfig.sol\":1506:2002  Asset({\r... */\n      0xffffffffffffffffffffffffffffffffffffffff\n      and\n      dup2\n      mstore\n      0x20\n      add\n        /* \"Defi-project/V2/LendingConfig.sol\":1571:1578  _symbol */\n      dup8\n        /* \"Defi-project/V2/LendingConfig.sol\":1506:2002  Asset({\r... */\n      dup2\n      mstore\n      0x20\n      add\n        /* \"Defi-project/V2/LendingConfig.sol\":1607:1616  _decimals */\n      dup7\n        /* \"Defi-project/V2/LendingConfig.sol\":1506:2002  Asset({\r... */\n      dup2\n      mstore\n      0x20\n      add\n        /* \"Defi-project/V2/LendingConfig.sol\":1652:1668  _borrowThreshold */\n      dup6\n        /* \"Defi-project/V2/LendingConfig.sol\":1506:2002  Asset({\r... */\n      dup2\n      mstore\n      0x20\n      add\n        /* \"Defi-project/V2/LendingConfig.sol\":1710:1731  _liquidationThreshold */\n      dup5\n        /* \"Defi-project/V2/LendingConfig.sol\":1506:2002  Asset({\r... */\n      dup2\n      mstore\n      0x20\n      add\n        /* \"Defi-project/V2/LendingConfig.sol\":1771:1786  block.timestamp */\n      timestamp\n        /* \"Defi-project/V2/LendingConfig.sol\":1506:2002  Asset({\r... */\n      dup2\n      mstore\n      0x20\n      add\n        /* \"Defi-project/V2/LendingConfig.sol\":1823:1840  _borrowingEnabled */\n      dup12\n        /* \"Defi-project/V2/LendingConfig.sol\":1506:2002  Asset({\r... */\n      iszero\n      iszero\n      dup2\n      mstore\n      0x20\n      add\n        /* \"Defi-project/V2/LendingConfig.sol\":1885:1910  _usageAsCollateralEnabled */\n      dup11\n        /* \"Defi-project/V2/LendingConfig.sol\":1506:2002  Asset({\r... */\n      iszero\n      iszero\n      dup2\n      mstore\n      0x20\n      add\n        /* \"Defi-project/V2/LendingConfig.sol\":1939:1948  _isfrozen */\n      dup10\n        /* \"Defi-project/V2/LendingConfig.sol\":1506:2002  Asset({\r... */\n      iszero\n      iszero\n      dup2\n      mstore\n      0x20\n      add\n        /* \"Defi-project/V2/LendingConfig.sol\":1977:1986  _isActive */\n      dup9\n        /* \"Defi-project/V2/LendingConfig.sol\":1506:2002  Asset({\r... */\n      iszero\n      iszero\n      dup2\n      mstore\n      pop\n        /* \"Defi-project/V2/LendingConfig.sol\":1480:2013  assets.push(\r... */\n      swap1\n      dup1\n      0x01\n      dup2\n      sload\n      add\n      dup1\n      dup3\n      sstore\n      dup1\n      swap2\n      pop\n      pop\n      0x01\n      swap1\n      sub\n      swap1\n      0x00\n      mstore\n      keccak256(0x00, 0x20)\n      swap1\n      0x07\n      mul\n      add\n      0x00\n      swap1\n      swap2\n      swap1\n      swap2\n      swap1\n      swap2\n      pop\n      0x00\n      dup3\n      add\n      mload\n      dup2\n      0x00\n      add\n      exp(0x0100, 0x00)\n      dup2\n      sload\n      dup2\n      0xffffffffffffffffffffffffffffffffffffffff\n      mul\n      not\n      and\n      swap1\n      dup4\n      0xffffffffffffffffffffffffffffffffffffffff\n      and\n      mul\n      or\n      swap1\n      sstore\n      pop\n      0x20\n      dup3\n      add\n      mload\n      dup2\n      0x01\n      add\n      swap1\n      dup1\n      mload\n      swap1\n      0x20\n      add\n      swap1\n      tag_144\n      swap3\n      swap2\n      swap1\n      tag_145\n      jump\t// in\n    tag_144:\n      pop\n      0x40\n      dup3\n      add\n      mload\n      dup2\n      0x02\n      add\n      sstore\n      0x60\n      dup3\n      add\n      mload\n      dup2\n      0x03\n      add\n      sstore\n      0x80\n      dup3\n      add\n      mload\n      dup2\n      0x04\n      add\n      sstore\n      0xa0\n      dup3\n      add\n      mload\n      dup2\n      0x05\n      add\n      sstore\n      0xc0\n      dup3\n      add\n      mload\n      dup2\n      0x06\n      add\n      exp(0x0100, 0x00)\n      dup2\n      sload\n      dup2\n      0xff\n      mul\n      not\n      and\n      swap1\n      dup4\n      iszero\n      iszero\n      mul\n      or\n      swap1\n      sstore\n      pop\n      0xe0\n      dup3\n      add\n      mload\n      dup2\n      0x06\n      add\n      exp(0x0100, 0x01)\n      dup2\n      sload\n      dup2\n      0xff\n      mul\n      not\n      and\n      swap1\n      dup4\n      iszero\n      iszero\n      mul\n      or\n      swap1\n      sstore\n      pop\n      0x0100\n      dup3\n      add\n      mload\n      dup2\n      0x06\n      add\n      exp(0x0100, 0x02)\n      dup2\n      sload\n      dup2\n      0xff\n      mul\n      not\n      and\n      swap1\n      dup4\n      iszero\n      iszero\n      mul\n      or\n      swap1\n      sstore\n      pop\n      0x0120\n      dup3\n      add\n      mload\n      dup2\n      0x06\n      add\n      exp(0x0100, 0x03)\n      dup2\n      sload\n      dup2\n      0xff\n      mul\n      not\n      and\n      swap1\n      dup4\n      iszero\n      iszero\n      mul\n      or\n      swap1\n      sstore\n      pop\n      pop\n      pop\n        /* \"Defi-project/V2/LendingConfig.sol\":2031:2097  AddAsset(_token, _symbol, _borrowThreshold, _liquidationThreshold) */\n      0xcd7be9ca97d79d2c4048b8402afd93bb5f487441dc211d4bd2e95011ccd423a0\n        /* \"Defi-project/V2/LendingConfig.sol\":2040:2046  _token */\n      dup11\n        /* \"Defi-project/V2/LendingConfig.sol\":2048:2055  _symbol */\n      dup7\n        /* \"Defi-project/V2/LendingConfig.sol\":2057:2073  _borrowThreshold */\n      dup6\n        /* \"Defi-project/V2/LendingConfig.sol\":2075:2096  _liquidationThreshold */\n      dup6\n        /* \"Defi-project/V2/LendingConfig.sol\":2031:2097  AddAsset(_token, _symbol, _borrowThreshold, _liquidationThreshold) */\n      mload(0x40)\n      tag_146\n      swap5\n      swap4\n      swap3\n      swap2\n      swap1\n      tag_147\n      jump\t// in\n    tag_146:\n      mload(0x40)\n      dup1\n      swap2\n      sub\n      swap1\n      log1\n        /* \"Defi-project/V2/LendingConfig.sol\":2115:2119  true */\n      0x01\n        /* \"Defi-project/V2/LendingConfig.sol\":2108:2119  return true */\n      swap1\n      pop\n        /* \"Defi-project/V2/LendingConfig.sol\":1122:2127  function addAssets(\r... */\n      swap10\n      swap9\n      pop\n      pop\n      pop\n      pop\n      pop\n      pop\n      pop\n      pop\n      pop\n      jump\t// out\n    tag_69:\n      mload(0x40)\n      dup1\n      0x0140\n      add\n      0x40\n      mstore\n      dup1\n      and(0xffffffffffffffffffffffffffffffffffffffff, 0x00)\n      dup2\n      mstore\n      0x20\n      add\n      0x60\n      dup2\n      mstore\n      0x20\n      add\n      0x00\n      dup2\n      mstore\n      0x20\n      add\n      0x00\n      dup2\n      mstore\n      0x20\n      add\n      0x00\n      dup2\n      mstore\n      0x20\n      add\n      0x00\n      dup2\n      mstore\n      0x20\n      add\n      iszero(iszero(0x00))\n      dup2\n      mstore\n      0x20\n      add\n      iszero(iszero(0x00))\n      dup2\n      mstore\n      0x20\n      add\n      iszero(iszero(0x00))\n      dup2\n      mstore\n      0x20\n      add\n      iszero(iszero(0x00))\n      dup2\n      mstore\n      pop\n      swap1\n      jump\t// out\n    tag_145:\n      dup3\n      dup1\n      sload\n      tag_148\n      swap1\n      tag_86\n      jump\t// in\n    tag_148:\n      swap1\n      0x00\n      mstore\n      keccak256(0x00, 0x20)\n      swap1\n      0x1f\n      add\n      0x20\n      swap1\n      div\n      dup2\n      add\n      swap3\n      dup3\n      tag_150\n      jumpi\n      0x00\n      dup6\n      sstore\n      jump(tag_149)\n    tag_150:\n      dup3\n      0x1f\n      lt\n      tag_151\n      jumpi\n      dup1\n      mload\n      not(0xff)\n      and\n      dup4\n      dup1\n      add\n      or\n      dup6\n      sstore\n      jump(tag_149)\n    tag_151:\n      dup3\n      dup1\n      add\n      0x01\n      add\n      dup6\n      sstore\n      dup3\n      iszero\n      tag_149\n      jumpi\n      swap2\n      dup3\n      add\n    tag_152:\n      dup3\n      dup2\n      gt\n      iszero\n      tag_153\n      jumpi\n      dup3\n      mload\n      dup3\n      sstore\n      swap2\n      0x20\n      add\n      swap2\n      swap1\n      0x01\n      add\n      swap1\n      jump(tag_152)\n    tag_153:\n    tag_149:\n      pop\n      swap1\n      pop\n      tag_154\n      swap2\n      swap1\n      tag_155\n      jump\t// in\n    tag_154:\n      pop\n      swap1\n      jump\t// out\n    tag_155:\n    tag_156:\n      dup1\n      dup3\n      gt\n      iszero\n      tag_157\n      jumpi\n      0x00\n      dup2\n      0x00\n      swap1\n      sstore\n      pop\n      0x01\n      add\n      jump(tag_156)\n    tag_157:\n      pop\n      swap1\n      jump\t// out\n        /* \"#utility.yul\":7:419   */\n    tag_159:\n        /* \"#utility.yul\":85:90   */\n      0x00\n        /* \"#utility.yul\":110:176   */\n      tag_161\n        /* \"#utility.yul\":126:175   */\n      tag_162\n        /* \"#utility.yul\":168:174   */\n      dup5\n        /* \"#utility.yul\":126:175   */\n      tag_163\n      jump\t// in\n    tag_162:\n        /* \"#utility.yul\":110:176   */\n      tag_164\n      jump\t// in\n    tag_161:\n        /* \"#utility.yul\":101:176   */\n      swap1\n      pop\n        /* \"#utility.yul\":199:205   */\n      dup3\n        /* \"#utility.yul\":192:197   */\n      dup2\n        /* \"#utility.yul\":185:206   */\n      mstore\n        /* \"#utility.yul\":237:241   */\n      0x20\n        /* \"#utility.yul\":230:235   */\n      dup2\n        /* \"#utility.yul\":226:242   */\n      add\n        /* \"#utility.yul\":275:278   */\n      dup5\n        /* \"#utility.yul\":266:272   */\n      dup5\n        /* \"#utility.yul\":261:264   */\n      dup5\n        /* \"#utility.yul\":257:273   */\n      add\n        /* \"#utility.yul\":254:279   */\n      gt\n        /* \"#utility.yul\":251:363   */\n      iszero\n      tag_165\n      jumpi\n        /* \"#utility.yul\":282:361   */\n      tag_166\n      tag_167\n      jump\t// in\n    tag_166:\n        /* \"#utility.yul\":251:363   */\n    tag_165:\n        /* \"#utility.yul\":372:413   */\n      tag_168\n        /* \"#utility.yul\":406:412   */\n      dup5\n        /* \"#utility.yul\":401:404   */\n      dup3\n        /* \"#utility.yul\":396:399   */\n      dup6\n        /* \"#utility.yul\":372:413   */\n      tag_169\n      jump\t// in\n    tag_168:\n        /* \"#utility.yul\":91:419   */\n      pop\n        /* \"#utility.yul\":7:419   */\n      swap4\n      swap3\n      pop\n      pop\n      pop\n      jump\t// out\n        /* \"#utility.yul\":425:564   */\n    tag_170:\n        /* \"#utility.yul\":471:476   */\n      0x00\n        /* \"#utility.yul\":509:515   */\n      dup2\n        /* \"#utility.yul\":496:516   */\n      calldataload\n        /* \"#utility.yul\":487:516   */\n      swap1\n      pop\n        /* \"#utility.yul\":525:558   */\n      tag_172\n        /* \"#utility.yul\":552:557   */\n      dup2\n        /* \"#utility.yul\":525:558   */\n      tag_173\n      jump\t// in\n    tag_172:\n        /* \"#utility.yul\":425:564   */\n      swap3\n      swap2\n      pop\n      pop\n      jump\t// out\n        /* \"#utility.yul\":570:703   */\n    tag_174:\n        /* \"#utility.yul\":613:618   */\n      0x00\n        /* \"#utility.yul\":651:657   */\n      dup2\n        /* \"#utility.yul\":638:658   */\n      calldataload\n        /* \"#utility.yul\":629:658   */\n      swap1\n      pop\n        /* \"#utility.yul\":667:697   */\n      tag_176\n        /* \"#utility.yul\":691:696   */\n      dup2\n        /* \"#utility.yul\":667:697   */\n      tag_177\n      jump\t// in\n    tag_176:\n        /* \"#utility.yul\":570:703   */\n      swap3\n      swap2\n      pop\n      pop\n      jump\t// out\n        /* \"#utility.yul\":709:876   */\n    tag_178:\n        /* \"#utility.yul\":769:774   */\n      0x00\n        /* \"#utility.yul\":807:813   */\n      dup2\n        /* \"#utility.yul\":794:814   */\n      calldataload\n        /* \"#utility.yul\":785:814   */\n      swap1\n      pop\n        /* \"#utility.yul\":823:870   */\n      tag_180\n        /* \"#utility.yul\":864:869   */\n      dup2\n        /* \"#utility.yul\":823:870   */\n      tag_181\n      jump\t// in\n    tag_180:\n        /* \"#utility.yul\":709:876   */\n      swap3\n      swap2\n      pop\n      pop\n      jump\t// out\n        /* \"#utility.yul\":882:1039   */\n    tag_182:\n        /* \"#utility.yul\":937:942   */\n      0x00\n        /* \"#utility.yul\":975:981   */\n      dup2\n        /* \"#utility.yul\":962:982   */\n      calldataload\n        /* \"#utility.yul\":953:982   */\n      swap1\n      pop\n        /* \"#utility.yul\":991:1033   */\n      tag_184\n        /* \"#utility.yul\":1027:1032   */\n      dup2\n        /* \"#utility.yul\":991:1033   */\n      tag_185\n      jump\t// in\n    tag_184:\n        /* \"#utility.yul\":882:1039   */\n      swap3\n      swap2\n      pop\n      pop\n      jump\t// out\n        /* \"#utility.yul\":1059:1399   */\n    tag_186:\n        /* \"#utility.yul\":1115:1120   */\n      0x00\n        /* \"#utility.yul\":1164:1167   */\n      dup3\n        /* \"#utility.yul\":1157:1161   */\n      0x1f\n        /* \"#utility.yul\":1149:1155   */\n      dup4\n        /* \"#utility.yul\":1145:1162   */\n      add\n        /* \"#utility.yul\":1141:1168   */\n      slt\n        /* \"#utility.yul\":1131:1253   */\n      tag_188\n      jumpi\n        /* \"#utility.yul\":1172:1251   */\n      tag_189\n      tag_190\n      jump\t// in\n    tag_189:\n        /* \"#utility.yul\":1131:1253   */\n    tag_188:\n        /* \"#utility.yul\":1289:1295   */\n      dup2\n        /* \"#utility.yul\":1276:1296   */\n      calldataload\n        /* \"#utility.yul\":1314:1393   */\n      tag_191\n        /* \"#utility.yul\":1389:1392   */\n      dup5\n        /* \"#utility.yul\":1381:1387   */\n      dup3\n        /* \"#utility.yul\":1374:1378   */\n      0x20\n        /* \"#utility.yul\":1366:1372   */\n      dup7\n        /* \"#utility.yul\":1362:1379   */\n      add\n        /* \"#utility.yul\":1314:1393   */\n      tag_159\n      jump\t// in\n    tag_191:\n        /* \"#utility.yul\":1305:1393   */\n      swap2\n      pop\n        /* \"#utility.yul\":1121:1399   */\n      pop\n        /* \"#utility.yul\":1059:1399   */\n      swap3\n      swap2\n      pop\n      pop\n      jump\t// out\n        /* \"#utility.yul\":1405:1544   */\n    tag_192:\n        /* \"#utility.yul\":1451:1456   */\n      0x00\n        /* \"#utility.yul\":1489:1495   */\n      dup2\n        /* \"#utility.yul\":1476:1496   */\n      calldataload\n        /* \"#utility.yul\":1467:1496   */\n      swap1\n      pop\n        /* \"#utility.yul\":1505:1538   */\n      tag_194\n        /* \"#utility.yul\":1532:1537   */\n      dup2\n        /* \"#utility.yul\":1505:1538   */\n      tag_195\n      jump\t// in\n    tag_194:\n        /* \"#utility.yul\":1405:1544   */\n      swap3\n      swap2\n      pop\n      pop\n      jump\t// out\n        /* \"#utility.yul\":1550:1879   */\n    tag_22:\n        /* \"#utility.yul\":1609:1615   */\n      0x00\n        /* \"#utility.yul\":1658:1660   */\n      0x20\n        /* \"#utility.yul\":1646:1655   */\n      dup3\n        /* \"#utility.yul\":1637:1644   */\n      dup5\n        /* \"#utility.yul\":1633:1656   */\n      sub\n        /* \"#utility.yul\":1629:1661   */\n      slt\n        /* \"#utility.yul\":1626:1745   */\n      iszero\n      tag_197\n      jumpi\n        /* \"#utility.yul\":1664:1743   */\n      tag_198\n      tag_199\n      jump\t// in\n    tag_198:\n        /* \"#utility.yul\":1626:1745   */\n    tag_197:\n        /* \"#utility.yul\":1784:1785   */\n      0x00\n        /* \"#utility.yul\":1809:1862   */\n      tag_200\n        /* \"#utility.yul\":1854:1861   */\n      dup5\n        /* \"#utility.yul\":1845:1851   */\n      dup3\n        /* \"#utility.yul\":1834:1843   */\n      dup6\n        /* \"#utility.yul\":1830:1852   */\n      add\n        /* \"#utility.yul\":1809:1862   */\n      tag_170\n      jump\t// in\n    tag_200:\n        /* \"#utility.yul\":1799:1862   */\n      swap2\n      pop\n        /* \"#utility.yul\":1755:1872   */\n      pop\n        /* \"#utility.yul\":1550:1879   */\n      swap3\n      swap2\n      pop\n      pop\n      jump\t// out\n        /* \"#utility.yul\":1885:3536   */\n    tag_32:\n        /* \"#utility.yul\":2014:2020   */\n      0x00\n        /* \"#utility.yul\":2022:2028   */\n      dup1\n        /* \"#utility.yul\":2030:2036   */\n      0x00\n        /* \"#utility.yul\":2038:2044   */\n      dup1\n        /* \"#utility.yul\":2046:2052   */\n      0x00\n        /* \"#utility.yul\":2054:2060   */\n      dup1\n        /* \"#utility.yul\":2062:2068   */\n      0x00\n        /* \"#utility.yul\":2070:2076   */\n      dup1\n        /* \"#utility.yul\":2078:2084   */\n      0x00\n        /* \"#utility.yul\":2127:2130   */\n      0x0120\n        /* \"#utility.yul\":2115:2124   */\n      dup11\n        /* \"#utility.yul\":2106:2113   */\n      dup13\n        /* \"#utility.yul\":2102:2125   */\n      sub\n        /* \"#utility.yul\":2098:2131   */\n      slt\n        /* \"#utility.yul\":2095:2215   */\n      iszero\n      tag_202\n      jumpi\n        /* \"#utility.yul\":2134:2213   */\n      tag_203\n      tag_199\n      jump\t// in\n    tag_203:\n        /* \"#utility.yul\":2095:2215   */\n    tag_202:\n        /* \"#utility.yul\":2254:2255   */\n      0x00\n        /* \"#utility.yul\":2279:2332   */\n      tag_204\n        /* \"#utility.yul\":2324:2331   */\n      dup13\n        /* \"#utility.yul\":2315:2321   */\n      dup3\n        /* \"#utility.yul\":2304:2313   */\n      dup14\n        /* \"#utility.yul\":2300:2322   */\n      add\n        /* \"#utility.yul\":2279:2332   */\n      tag_170\n      jump\t// in\n    tag_204:\n        /* \"#utility.yul\":2269:2332   */\n      swap10\n      pop\n        /* \"#utility.yul\":2225:2342   */\n      pop\n        /* \"#utility.yul\":2381:2383   */\n      0x20\n        /* \"#utility.yul\":2407:2457   */\n      tag_205\n        /* \"#utility.yul\":2449:2456   */\n      dup13\n        /* \"#utility.yul\":2440:2446   */\n      dup3\n        /* \"#utility.yul\":2429:2438   */\n      dup14\n        /* \"#utility.yul\":2425:2447   */\n      add\n        /* \"#utility.yul\":2407:2457   */\n      tag_174\n      jump\t// in\n    tag_205:\n        /* \"#utility.yul\":2397:2457   */\n      swap9\n      pop\n        /* \"#utility.yul\":2352:2467   */\n      pop\n        /* \"#utility.yul\":2506:2508   */\n      0x40\n        /* \"#utility.yul\":2532:2582   */\n      tag_206\n        /* \"#utility.yul\":2574:2581   */\n      dup13\n        /* \"#utility.yul\":2565:2571   */\n      dup3\n        /* \"#utility.yul\":2554:2563   */\n      dup14\n        /* \"#utility.yul\":2550:2572   */\n      add\n        /* \"#utility.yul\":2532:2582   */\n      tag_174\n      jump\t// in\n    tag_206:\n        /* \"#utility.yul\":2522:2582   */\n      swap8\n      pop\n        /* \"#utility.yul\":2477:2592   */\n      pop\n        /* \"#utility.yul\":2631:2633   */\n      0x60\n        /* \"#utility.yul\":2657:2707   */\n      tag_207\n        /* \"#utility.yul\":2699:2706   */\n      dup13\n        /* \"#utility.yul\":2690:2696   */\n      dup3\n        /* \"#utility.yul\":2679:2688   */\n      dup14\n        /* \"#utility.yul\":2675:2697   */\n      add\n        /* \"#utility.yul\":2657:2707   */\n      tag_174\n      jump\t// in\n    tag_207:\n        /* \"#utility.yul\":2647:2707   */\n      swap7\n      pop\n        /* \"#utility.yul\":2602:2717   */\n      pop\n        /* \"#utility.yul\":2756:2759   */\n      0x80\n        /* \"#utility.yul\":2783:2833   */\n      tag_208\n        /* \"#utility.yul\":2825:2832   */\n      dup13\n        /* \"#utility.yul\":2816:2822   */\n      dup3\n        /* \"#utility.yul\":2805:2814   */\n      dup14\n        /* \"#utility.yul\":2801:2823   */\n      add\n        /* \"#utility.yul\":2783:2833   */\n      tag_174\n      jump\t// in\n    tag_208:\n        /* \"#utility.yul\":2773:2833   */\n      swap6\n      pop\n        /* \"#utility.yul\":2727:2843   */\n      pop\n        /* \"#utility.yul\":2910:2913   */\n      0xa0\n        /* \"#utility.yul\":2899:2908   */\n      dup11\n        /* \"#utility.yul\":2895:2914   */\n      add\n        /* \"#utility.yul\":2882:2915   */\n      calldataload\n        /* \"#utility.yul\":2942:2960   */\n      0xffffffffffffffff\n        /* \"#utility.yul\":2934:2940   */\n      dup2\n        /* \"#utility.yul\":2931:2961   */\n      gt\n        /* \"#utility.yul\":2928:3045   */\n      iszero\n      tag_209\n      jumpi\n        /* \"#utility.yul\":2964:3043   */\n      tag_210\n      tag_211\n      jump\t// in\n    tag_210:\n        /* \"#utility.yul\":2928:3045   */\n    tag_209:\n        /* \"#utility.yul\":3069:3132   */\n      tag_212\n        /* \"#utility.yul\":3124:3131   */\n      dup13\n        /* \"#utility.yul\":3115:3121   */\n      dup3\n        /* \"#utility.yul\":3104:3113   */\n      dup14\n        /* \"#utility.yul\":3100:3122   */\n      add\n        /* \"#utility.yul\":3069:3132   */\n      tag_186\n      jump\t// in\n    tag_212:\n        /* \"#utility.yul\":3059:3132   */\n      swap5\n      pop\n        /* \"#utility.yul\":2853:3142   */\n      pop\n        /* \"#utility.yul\":3181:3184   */\n      0xc0\n        /* \"#utility.yul\":3208:3261   */\n      tag_213\n        /* \"#utility.yul\":3253:3260   */\n      dup13\n        /* \"#utility.yul\":3244:3250   */\n      dup3\n        /* \"#utility.yul\":3233:3242   */\n      dup14\n        /* \"#utility.yul\":3229:3251   */\n      add\n        /* \"#utility.yul\":3208:3261   */\n      tag_192\n      jump\t// in\n    tag_213:\n        /* \"#utility.yul\":3198:3261   */\n      swap4\n      pop\n        /* \"#utility.yul\":3152:3271   */\n      pop\n        /* \"#utility.yul\":3310:3313   */\n      0xe0\n        /* \"#utility.yul\":3337:3390   */\n      tag_214\n        /* \"#utility.yul\":3382:3389   */\n      dup13\n        /* \"#utility.yul\":3373:3379   */\n      dup3\n        /* \"#utility.yul\":3362:3371   */\n      dup14\n        /* \"#utility.yul\":3358:3380   */\n      add\n        /* \"#utility.yul\":3337:3390   */\n      tag_192\n      jump\t// in\n    tag_214:\n        /* \"#utility.yul\":3327:3390   */\n      swap3\n      pop\n        /* \"#utility.yul\":3281:3400   */\n      pop\n        /* \"#utility.yul\":3439:3442   */\n      0x0100\n        /* \"#utility.yul\":3466:3519   */\n      tag_215\n        /* \"#utility.yul\":3511:3518   */\n      dup13\n        /* \"#utility.yul\":3502:3508   */\n      dup3\n        /* \"#utility.yul\":3491:3500   */\n      dup14\n        /* \"#utility.yul\":3487:3509   */\n      add\n        /* \"#utility.yul\":3466:3519   */\n      tag_192\n      jump\t// in\n    tag_215:\n        /* \"#utility.yul\":3456:3519   */\n      swap2\n      pop\n        /* \"#utility.yul\":3410:3529   */\n      pop\n        /* \"#utility.yul\":1885:3536   */\n      swap3\n      swap6\n      swap9\n      pop\n      swap3\n      swap6\n      swap9\n      pop\n      swap3\n      swap6\n      swap9\n      jump\t// out\n        /* \"#utility.yul\":3542:4044   */\n    tag_10:\n        /* \"#utility.yul\":3624:3630   */\n      0x00\n        /* \"#utility.yul\":3632:3638   */\n      dup1\n        /* \"#utility.yul\":3681:3683   */\n      0x40\n        /* \"#utility.yul\":3669:3678   */\n      dup4\n        /* \"#utility.yul\":3660:3667   */\n      dup6\n        /* \"#utility.yul\":3656:3679   */\n      sub\n        /* \"#utility.yul\":3652:3684   */\n      slt\n        /* \"#utility.yul\":3649:3768   */\n      iszero\n      tag_217\n      jumpi\n        /* \"#utility.yul\":3687:3766   */\n      tag_218\n      tag_199\n      jump\t// in\n    tag_218:\n        /* \"#utility.yul\":3649:3768   */\n    tag_217:\n        /* \"#utility.yul\":3807:3808   */\n      0x00\n        /* \"#utility.yul\":3832:3885   */\n      tag_219\n        /* \"#utility.yul\":3877:3884   */\n      dup6\n        /* \"#utility.yul\":3868:3874   */\n      dup3\n        /* \"#utility.yul\":3857:3866   */\n      dup7\n        /* \"#utility.yul\":3853:3875   */\n      add\n        /* \"#utility.yul\":3832:3885   */\n      tag_170\n      jump\t// in\n    tag_219:\n        /* \"#utility.yul\":3822:3885   */\n      swap3\n      pop\n        /* \"#utility.yul\":3778:3895   */\n      pop\n        /* \"#utility.yul\":3934:3936   */\n      0x20\n        /* \"#utility.yul\":3960:4027   */\n      tag_220\n        /* \"#utility.yul\":4019:4026   */\n      dup6\n        /* \"#utility.yul\":4010:4016   */\n      dup3\n        /* \"#utility.yul\":3999:4008   */\n      dup7\n        /* \"#utility.yul\":3995:4017   */\n      add\n        /* \"#utility.yul\":3960:4027   */\n      tag_178\n      jump\t// in\n    tag_220:\n        /* \"#utility.yul\":3950:4027   */\n      swap2\n      pop\n        /* \"#utility.yul\":3905:4037   */\n      pop\n        /* \"#utility.yul\":3542:4044   */\n      swap3\n      pop\n      swap3\n      swap1\n      pop\n      jump\t// out\n        /* \"#utility.yul\":4050:4542   */\n    tag_27:\n        /* \"#utility.yul\":4127:4133   */\n      0x00\n        /* \"#utility.yul\":4135:4141   */\n      dup1\n        /* \"#utility.yul\":4184:4186   */\n      0x40\n        /* \"#utility.yul\":4172:4181   */\n      dup4\n        /* \"#utility.yul\":4163:4170   */\n      dup6\n        /* \"#utility.yul\":4159:4182   */\n      sub\n        /* \"#utility.yul\":4155:4187   */\n      slt\n        /* \"#utility.yul\":4152:4271   */\n      iszero\n      tag_222\n      jumpi\n        /* \"#utility.yul\":4190:4269   */\n      tag_223\n      tag_199\n      jump\t// in\n    tag_223:\n        /* \"#utility.yul\":4152:4271   */\n    tag_222:\n        /* \"#utility.yul\":4310:4311   */\n      0x00\n        /* \"#utility.yul\":4335:4388   */\n      tag_224\n        /* \"#utility.yul\":4380:4387   */\n      dup6\n        /* \"#utility.yul\":4371:4377   */\n      dup3\n        /* \"#utility.yul\":4360:4369   */\n      dup7\n        /* \"#utility.yul\":4356:4378   */\n      add\n        /* \"#utility.yul\":4335:4388   */\n      tag_170\n      jump\t// in\n    tag_224:\n        /* \"#utility.yul\":4325:4388   */\n      swap3\n      pop\n        /* \"#utility.yul\":4281:4398   */\n      pop\n        /* \"#utility.yul\":4437:4439   */\n      0x20\n        /* \"#utility.yul\":4463:4525   */\n      tag_225\n        /* \"#utility.yul\":4517:4524   */\n      dup6\n        /* \"#utility.yul\":4508:4514   */\n      dup3\n        /* \"#utility.yul\":4497:4506   */\n      dup7\n        /* \"#utility.yul\":4493:4515   */\n      add\n        /* \"#utility.yul\":4463:4525   */\n      tag_182\n      jump\t// in\n    tag_225:\n        /* \"#utility.yul\":4453:4525   */\n      swap2\n      pop\n        /* \"#utility.yul\":4408:4535   */\n      pop\n        /* \"#utility.yul\":4050:4542   */\n      swap3\n      pop\n      swap3\n      swap1\n      pop\n      jump\t// out\n        /* \"#utility.yul\":4548:5057   */\n    tag_16:\n        /* \"#utility.yul\":4617:4623   */\n      0x00\n        /* \"#utility.yul\":4666:4668   */\n      0x20\n        /* \"#utility.yul\":4654:4663   */\n      dup3\n        /* \"#utility.yul\":4645:4652   */\n      dup5\n        /* \"#utility.yul\":4641:4664   */\n      sub\n        /* \"#utility.yul\":4637:4669   */\n      slt\n        /* \"#utility.yul\":4634:4753   */\n      iszero\n      tag_227\n      jumpi\n        /* \"#utility.yul\":4672:4751   */\n      tag_228\n      tag_199\n      jump\t// in\n    tag_228:\n        /* \"#utility.yul\":4634:4753   */\n    tag_227:\n        /* \"#utility.yul\":4820:4821   */\n      0x00\n        /* \"#utility.yul\":4809:4818   */\n      dup3\n        /* \"#utility.yul\":4805:4822   */\n      add\n        /* \"#utility.yul\":4792:4823   */\n      calldataload\n        /* \"#utility.yul\":4850:4868   */\n      0xffffffffffffffff\n        /* \"#utility.yul\":4842:4848   */\n      dup2\n        /* \"#utility.yul\":4839:4869   */\n      gt\n        /* \"#utility.yul\":4836:4953   */\n      iszero\n      tag_229\n      jumpi\n        /* \"#utility.yul\":4872:4951   */\n      tag_230\n      tag_211\n      jump\t// in\n    tag_230:\n        /* \"#utility.yul\":4836:4953   */\n    tag_229:\n        /* \"#utility.yul\":4977:5040   */\n      tag_231\n        /* \"#utility.yul\":5032:5039   */\n      dup5\n        /* \"#utility.yul\":5023:5029   */\n      dup3\n        /* \"#utility.yul\":5012:5021   */\n      dup6\n        /* \"#utility.yul\":5008:5030   */\n      add\n        /* \"#utility.yul\":4977:5040   */\n      tag_186\n      jump\t// in\n    tag_231:\n        /* \"#utility.yul\":4967:5040   */\n      swap2\n      pop\n        /* \"#utility.yul\":4763:5050   */\n      pop\n        /* \"#utility.yul\":4548:5057   */\n      swap3\n      swap2\n      pop\n      pop\n      jump\t// out\n        /* \"#utility.yul\":5063:5171   */\n    tag_232:\n        /* \"#utility.yul\":5140:5164   */\n      tag_234\n        /* \"#utility.yul\":5158:5163   */\n      dup2\n        /* \"#utility.yul\":5140:5164   */\n      tag_235\n      jump\t// in\n    tag_234:\n        /* \"#utility.yul\":5135:5138   */\n      dup3\n        /* \"#utility.yul\":5128:5165   */\n      mstore\n        /* \"#utility.yul\":5063:5171   */\n      pop\n      pop\n      jump\t// out\n        /* \"#utility.yul\":5177:5295   */\n    tag_236:\n        /* \"#utility.yul\":5264:5288   */\n      tag_238\n        /* \"#utility.yul\":5282:5287   */\n      dup2\n        /* \"#utility.yul\":5264:5288   */\n      tag_235\n      jump\t// in\n    tag_238:\n        /* \"#utility.yul\":5259:5262   */\n      dup3\n        /* \"#utility.yul\":5252:5289   */\n      mstore\n        /* \"#utility.yul\":5177:5295   */\n      pop\n      pop\n      jump\t// out\n        /* \"#utility.yul\":5301:5400   */\n    tag_239:\n        /* \"#utility.yul\":5372:5393   */\n      tag_241\n        /* \"#utility.yul\":5387:5392   */\n      dup2\n        /* \"#utility.yul\":5372:5393   */\n      tag_242\n      jump\t// in\n    tag_241:\n        /* \"#utility.yul\":5367:5370   */\n      dup3\n        /* \"#utility.yul\":5360:5394   */\n      mstore\n        /* \"#utility.yul\":5301:5400   */\n      pop\n      pop\n      jump\t// out\n        /* \"#utility.yul\":5406:5515   */\n    tag_243:\n        /* \"#utility.yul\":5487:5508   */\n      tag_245\n        /* \"#utility.yul\":5502:5507   */\n      dup2\n        /* \"#utility.yul\":5487:5508   */\n      tag_242\n      jump\t// in\n    tag_245:\n        /* \"#utility.yul\":5482:5485   */\n      dup3\n        /* \"#utility.yul\":5475:5509   */\n      mstore\n        /* \"#utility.yul\":5406:5515   */\n      pop\n      pop\n      jump\t// out\n        /* \"#utility.yul\":5521:5676   */\n    tag_246:\n        /* \"#utility.yul\":5620:5669   */\n      tag_248\n        /* \"#utility.yul\":5663:5668   */\n      dup2\n        /* \"#utility.yul\":5620:5669   */\n      tag_249\n      jump\t// in\n    tag_248:\n        /* \"#utility.yul\":5615:5618   */\n      dup3\n        /* \"#utility.yul\":5608:5670   */\n      mstore\n        /* \"#utility.yul\":5521:5676   */\n      pop\n      pop\n      jump\t// out\n        /* \"#utility.yul\":5682:5827   */\n    tag_250:\n        /* \"#utility.yul\":5776:5820   */\n      tag_252\n        /* \"#utility.yul\":5814:5819   */\n      dup2\n        /* \"#utility.yul\":5776:5820   */\n      tag_253\n      jump\t// in\n    tag_252:\n        /* \"#utility.yul\":5771:5774   */\n      dup3\n        /* \"#utility.yul\":5764:5821   */\n      mstore\n        /* \"#utility.yul\":5682:5827   */\n      pop\n      pop\n      jump\t// out\n        /* \"#utility.yul\":5833:6177   */\n    tag_254:\n        /* \"#utility.yul\":5911:5914   */\n      0x00\n        /* \"#utility.yul\":5939:5978   */\n      tag_256\n        /* \"#utility.yul\":5972:5977   */\n      dup3\n        /* \"#utility.yul\":5939:5978   */\n      tag_257\n      jump\t// in\n    tag_256:\n        /* \"#utility.yul\":5994:6055   */\n      tag_258\n        /* \"#utility.yul\":6048:6054   */\n      dup2\n        /* \"#utility.yul\":6043:6046   */\n      dup6\n        /* \"#utility.yul\":5994:6055   */\n      tag_259\n      jump\t// in\n    tag_258:\n        /* \"#utility.yul\":5987:6055   */\n      swap4\n      pop\n        /* \"#utility.yul\":6064:6116   */\n      tag_260\n        /* \"#utility.yul\":6109:6115   */\n      dup2\n        /* \"#utility.yul\":6104:6107   */\n      dup6\n        /* \"#utility.yul\":6097:6101   */\n      0x20\n        /* \"#utility.yul\":6090:6095   */\n      dup7\n        /* \"#utility.yul\":6086:6102   */\n      add\n        /* \"#utility.yul\":6064:6116   */\n      tag_261\n      jump\t// in\n    tag_260:\n        /* \"#utility.yul\":6141:6170   */\n      tag_262\n        /* \"#utility.yul\":6163:6169   */\n      dup2\n        /* \"#utility.yul\":6141:6170   */\n      tag_263\n      jump\t// in\n    tag_262:\n        /* \"#utility.yul\":6136:6139   */\n      dup5\n        /* \"#utility.yul\":6132:6171   */\n      add\n        /* \"#utility.yul\":6125:6171   */\n      swap2\n      pop\n        /* \"#utility.yul\":5915:6177   */\n      pop\n        /* \"#utility.yul\":5833:6177   */\n      swap3\n      swap2\n      pop\n      pop\n      jump\t// out\n        /* \"#utility.yul\":6183:6547   */\n    tag_264:\n        /* \"#utility.yul\":6271:6274   */\n      0x00\n        /* \"#utility.yul\":6299:6338   */\n      tag_266\n        /* \"#utility.yul\":6332:6337   */\n      dup3\n        /* \"#utility.yul\":6299:6338   */\n      tag_257\n      jump\t// in\n    tag_266:\n        /* \"#utility.yul\":6354:6425   */\n      tag_267\n        /* \"#utility.yul\":6418:6424   */\n      dup2\n        /* \"#utility.yul\":6413:6416   */\n      dup6\n        /* \"#utility.yul\":6354:6425   */\n      tag_268\n      jump\t// in\n    tag_267:\n        /* \"#utility.yul\":6347:6425   */\n      swap4\n      pop\n        /* \"#utility.yul\":6434:6486   */\n      tag_269\n        /* \"#utility.yul\":6479:6485   */\n      dup2\n        /* \"#utility.yul\":6474:6477   */\n      dup6\n        /* \"#utility.yul\":6467:6471   */\n      0x20\n        /* \"#utility.yul\":6460:6465   */\n      dup7\n        /* \"#utility.yul\":6456:6472   */\n      add\n        /* \"#utility.yul\":6434:6486   */\n      tag_261\n      jump\t// in\n    tag_269:\n        /* \"#utility.yul\":6511:6540   */\n      tag_270\n        /* \"#utility.yul\":6533:6539   */\n      dup2\n        /* \"#utility.yul\":6511:6540   */\n      tag_263\n      jump\t// in\n    tag_270:\n        /* \"#utility.yul\":6506:6509   */\n      dup5\n        /* \"#utility.yul\":6502:6541   */\n      add\n        /* \"#utility.yul\":6495:6541   */\n      swap2\n      pop\n        /* \"#utility.yul\":6275:6547   */\n      pop\n        /* \"#utility.yul\":6183:6547   */\n      swap3\n      swap2\n      pop\n      pop\n      jump\t// out\n        /* \"#utility.yul\":6553:6930   */\n    tag_271:\n        /* \"#utility.yul\":6659:6662   */\n      0x00\n        /* \"#utility.yul\":6687:6726   */\n      tag_273\n        /* \"#utility.yul\":6720:6725   */\n      dup3\n        /* \"#utility.yul\":6687:6726   */\n      tag_257\n      jump\t// in\n    tag_273:\n        /* \"#utility.yul\":6742:6831   */\n      tag_274\n        /* \"#utility.yul\":6824:6830   */\n      dup2\n        /* \"#utility.yul\":6819:6822   */\n      dup6\n        /* \"#utility.yul\":6742:6831   */\n      tag_275\n      jump\t// in\n    tag_274:\n        /* \"#utility.yul\":6735:6831   */\n      swap4\n      pop\n        /* \"#utility.yul\":6840:6892   */\n      tag_276\n        /* \"#utility.yul\":6885:6891   */\n      dup2\n        /* \"#utility.yul\":6880:6883   */\n      dup6\n        /* \"#utility.yul\":6873:6877   */\n      0x20\n        /* \"#utility.yul\":6866:6871   */\n      dup7\n        /* \"#utility.yul\":6862:6878   */\n      add\n        /* \"#utility.yul\":6840:6892   */\n      tag_261\n      jump\t// in\n    tag_276:\n        /* \"#utility.yul\":6917:6923   */\n      dup1\n        /* \"#utility.yul\":6912:6915   */\n      dup5\n        /* \"#utility.yul\":6908:6924   */\n      add\n        /* \"#utility.yul\":6901:6924   */\n      swap2\n      pop\n        /* \"#utility.yul\":6663:6930   */\n      pop\n        /* \"#utility.yul\":6553:6930   */\n      swap3\n      swap2\n      pop\n      pop\n      jump\t// out\n        /* \"#utility.yul\":6960:7805   */\n    tag_277:\n        /* \"#utility.yul\":7063:7066   */\n      0x00\n        /* \"#utility.yul\":7100:7105   */\n      dup2\n        /* \"#utility.yul\":7094:7106   */\n      sload\n        /* \"#utility.yul\":7129:7165   */\n      tag_279\n        /* \"#utility.yul\":7155:7164   */\n      dup2\n        /* \"#utility.yul\":7129:7165   */\n      tag_86\n      jump\t// in\n    tag_279:\n        /* \"#utility.yul\":7181:7270   */\n      tag_280\n        /* \"#utility.yul\":7263:7269   */\n      dup2\n        /* \"#utility.yul\":7258:7261   */\n      dup7\n        /* \"#utility.yul\":7181:7270   */\n      tag_275\n      jump\t// in\n    tag_280:\n        /* \"#utility.yul\":7174:7270   */\n      swap5\n      pop\n        /* \"#utility.yul\":7301:7302   */\n      0x01\n        /* \"#utility.yul\":7290:7299   */\n      dup3\n        /* \"#utility.yul\":7286:7303   */\n      and\n        /* \"#utility.yul\":7317:7318   */\n      0x00\n        /* \"#utility.yul\":7312:7449   */\n      dup2\n      eq\n      tag_282\n      jumpi\n        /* \"#utility.yul\":7463:7464   */\n      0x01\n        /* \"#utility.yul\":7458:7799   */\n      dup2\n      eq\n      tag_283\n      jumpi\n        /* \"#utility.yul\":7279:7799   */\n      jump(tag_281)\n        /* \"#utility.yul\":7312:7449   */\n    tag_282:\n        /* \"#utility.yul\":7396:7400   */\n      0xff\n        /* \"#utility.yul\":7392:7401   */\n      not\n        /* \"#utility.yul\":7381:7390   */\n      dup4\n        /* \"#utility.yul\":7377:7402   */\n      and\n        /* \"#utility.yul\":7372:7375   */\n      dup7\n        /* \"#utility.yul\":7365:7403   */\n      mstore\n        /* \"#utility.yul\":7432:7438   */\n      dup2\n        /* \"#utility.yul\":7427:7430   */\n      dup7\n        /* \"#utility.yul\":7423:7439   */\n      add\n        /* \"#utility.yul\":7416:7439   */\n      swap4\n      pop\n        /* \"#utility.yul\":7312:7449   */\n      jump(tag_281)\n        /* \"#utility.yul\":7458:7799   */\n    tag_283:\n        /* \"#utility.yul\":7525:7563   */\n      tag_284\n        /* \"#utility.yul\":7557:7562   */\n      dup6\n        /* \"#utility.yul\":7525:7563   */\n      tag_285\n      jump\t// in\n    tag_284:\n        /* \"#utility.yul\":7585:7586   */\n      0x00\n        /* \"#utility.yul\":7599:7753   */\n    tag_286:\n        /* \"#utility.yul\":7613:7619   */\n      dup4\n        /* \"#utility.yul\":7610:7611   */\n      dup2\n        /* \"#utility.yul\":7607:7620   */\n      lt\n        /* \"#utility.yul\":7599:7753   */\n      iszero\n      tag_288\n      jumpi\n        /* \"#utility.yul\":7687:7694   */\n      dup2\n        /* \"#utility.yul\":7681:7695   */\n      sload\n        /* \"#utility.yul\":7677:7678   */\n      dup2\n        /* \"#utility.yul\":7672:7675   */\n      dup10\n        /* \"#utility.yul\":7668:7679   */\n      add\n        /* \"#utility.yul\":7661:7696   */\n      mstore\n        /* \"#utility.yul\":7737:7738   */\n      0x01\n        /* \"#utility.yul\":7728:7735   */\n      dup3\n        /* \"#utility.yul\":7724:7739   */\n      add\n        /* \"#utility.yul\":7713:7739   */\n      swap2\n      pop\n        /* \"#utility.yul\":7635:7639   */\n      0x20\n        /* \"#utility.yul\":7632:7633   */\n      dup2\n        /* \"#utility.yul\":7628:7640   */\n      add\n        /* \"#utility.yul\":7623:7640   */\n      swap1\n      pop\n        /* \"#utility.yul\":7599:7753   */\n      jump(tag_286)\n    tag_288:\n        /* \"#utility.yul\":7782:7788   */\n      dup4\n        /* \"#utility.yul\":7777:7780   */\n      dup9\n        /* \"#utility.yul\":7773:7789   */\n      add\n        /* \"#utility.yul\":7766:7789   */\n      swap6\n      pop\n        /* \"#utility.yul\":7465:7799   */\n      pop\n      pop\n        /* \"#utility.yul\":7279:7799   */\n    tag_281:\n      pop\n        /* \"#utility.yul\":7067:7805   */\n      pop\n      pop\n        /* \"#utility.yul\":6960:7805   */\n      swap3\n      swap2\n      pop\n      pop\n      jump\t// out\n        /* \"#utility.yul\":7811:8177   */\n    tag_289:\n        /* \"#utility.yul\":7953:7956   */\n      0x00\n        /* \"#utility.yul\":7974:8041   */\n      tag_291\n        /* \"#utility.yul\":8038:8040   */\n      0x1b\n        /* \"#utility.yul\":8033:8036   */\n      dup4\n        /* \"#utility.yul\":7974:8041   */\n      tag_268\n      jump\t// in\n    tag_291:\n        /* \"#utility.yul\":7967:8041   */\n      swap2\n      pop\n        /* \"#utility.yul\":8050:8143   */\n      tag_292\n        /* \"#utility.yul\":8139:8142   */\n      dup3\n        /* \"#utility.yul\":8050:8143   */\n      tag_293\n      jump\t// in\n    tag_292:\n        /* \"#utility.yul\":8168:8170   */\n      0x20\n        /* \"#utility.yul\":8163:8166   */\n      dup3\n        /* \"#utility.yul\":8159:8171   */\n      add\n        /* \"#utility.yul\":8152:8171   */\n      swap1\n      pop\n        /* \"#utility.yul\":7811:8177   */\n      swap2\n      swap1\n      pop\n      jump\t// out\n        /* \"#utility.yul\":8183:8549   */\n    tag_294:\n        /* \"#utility.yul\":8325:8328   */\n      0x00\n        /* \"#utility.yul\":8346:8413   */\n      tag_296\n        /* \"#utility.yul\":8410:8412   */\n      0x0f\n        /* \"#utility.yul\":8405:8408   */\n      dup4\n        /* \"#utility.yul\":8346:8413   */\n      tag_268\n      jump\t// in\n    tag_296:\n        /* \"#utility.yul\":8339:8413   */\n      swap2\n      pop\n        /* \"#utility.yul\":8422:8515   */\n      tag_297\n        /* \"#utility.yul\":8511:8514   */\n      dup3\n        /* \"#utility.yul\":8422:8515   */\n      tag_298\n      jump\t// in\n    tag_297:\n        /* \"#utility.yul\":8540:8542   */\n      0x20\n        /* \"#utility.yul\":8535:8538   */\n      dup3\n        /* \"#utility.yul\":8531:8543   */\n      add\n        /* \"#utility.yul\":8524:8543   */\n      swap1\n      pop\n        /* \"#utility.yul\":8183:8549   */\n      swap2\n      swap1\n      pop\n      jump\t// out\n        /* \"#utility.yul\":8627:10694   */\n    tag_299:\n        /* \"#utility.yul\":8740:8743   */\n      0x00\n        /* \"#utility.yul\":8776:8782   */\n      0x0140\n        /* \"#utility.yul\":8771:8774   */\n      dup4\n        /* \"#utility.yul\":8767:8783   */\n      add\n        /* \"#utility.yul\":8866:8870   */\n      0x00\n        /* \"#utility.yul\":8859:8864   */\n      dup4\n        /* \"#utility.yul\":8855:8871   */\n      add\n        /* \"#utility.yul\":8849:8872   */\n      mload\n        /* \"#utility.yul\":8885:8948   */\n      tag_301\n        /* \"#utility.yul\":8942:8946   */\n      0x00\n        /* \"#utility.yul\":8937:8940   */\n      dup7\n        /* \"#utility.yul\":8933:8947   */\n      add\n        /* \"#utility.yul\":8919:8931   */\n      dup3\n        /* \"#utility.yul\":8885:8948   */\n      tag_232\n      jump\t// in\n    tag_301:\n        /* \"#utility.yul\":8793:8958   */\n      pop\n        /* \"#utility.yul\":9042:9046   */\n      0x20\n        /* \"#utility.yul\":9035:9040   */\n      dup4\n        /* \"#utility.yul\":9031:9047   */\n      add\n        /* \"#utility.yul\":9025:9048   */\n      mload\n        /* \"#utility.yul\":9095:9098   */\n      dup5\n        /* \"#utility.yul\":9089:9093   */\n      dup3\n        /* \"#utility.yul\":9085:9099   */\n      sub\n        /* \"#utility.yul\":9078:9082   */\n      0x20\n        /* \"#utility.yul\":9073:9076   */\n      dup7\n        /* \"#utility.yul\":9069:9083   */\n      add\n        /* \"#utility.yul\":9062:9100   */\n      mstore\n        /* \"#utility.yul\":9121:9194   */\n      tag_302\n        /* \"#utility.yul\":9189:9193   */\n      dup3\n        /* \"#utility.yul\":9175:9187   */\n      dup3\n        /* \"#utility.yul\":9121:9194   */\n      tag_254\n      jump\t// in\n    tag_302:\n        /* \"#utility.yul\":9113:9194   */\n      swap2\n      pop\n        /* \"#utility.yul\":8968:9205   */\n      pop\n        /* \"#utility.yul\":9291:9295   */\n      0x40\n        /* \"#utility.yul\":9284:9289   */\n      dup4\n        /* \"#utility.yul\":9280:9296   */\n      add\n        /* \"#utility.yul\":9274:9297   */\n      mload\n        /* \"#utility.yul\":9310:9373   */\n      tag_303\n        /* \"#utility.yul\":9367:9371   */\n      0x40\n        /* \"#utility.yul\":9362:9365   */\n      dup7\n        /* \"#utility.yul\":9358:9372   */\n      add\n        /* \"#utility.yul\":9344:9356   */\n      dup3\n        /* \"#utility.yul\":9310:9373   */\n      tag_304\n      jump\t// in\n    tag_303:\n        /* \"#utility.yul\":9215:9383   */\n      pop\n        /* \"#utility.yul\":9476:9480   */\n      0x60\n        /* \"#utility.yul\":9469:9474   */\n      dup4\n        /* \"#utility.yul\":9465:9481   */\n      add\n        /* \"#utility.yul\":9459:9482   */\n      mload\n        /* \"#utility.yul\":9495:9558   */\n      tag_305\n        /* \"#utility.yul\":9552:9556   */\n      0x60\n        /* \"#utility.yul\":9547:9550   */\n      dup7\n        /* \"#utility.yul\":9543:9557   */\n      add\n        /* \"#utility.yul\":9529:9541   */\n      dup3\n        /* \"#utility.yul\":9495:9558   */\n      tag_304\n      jump\t// in\n    tag_305:\n        /* \"#utility.yul\":9393:9568   */\n      pop\n        /* \"#utility.yul\":9666:9670   */\n      0x80\n        /* \"#utility.yul\":9659:9664   */\n      dup4\n        /* \"#utility.yul\":9655:9671   */\n      add\n        /* \"#utility.yul\":9649:9672   */\n      mload\n        /* \"#utility.yul\":9685:9748   */\n      tag_306\n        /* \"#utility.yul\":9742:9746   */\n      0x80\n        /* \"#utility.yul\":9737:9740   */\n      dup7\n        /* \"#utility.yul\":9733:9747   */\n      add\n        /* \"#utility.yul\":9719:9731   */\n      dup3\n        /* \"#utility.yul\":9685:9748   */\n      tag_304\n      jump\t// in\n    tag_306:\n        /* \"#utility.yul\":9578:9758   */\n      pop\n        /* \"#utility.yul\":9855:9859   */\n      0xa0\n        /* \"#utility.yul\":9848:9853   */\n      dup4\n        /* \"#utility.yul\":9844:9860   */\n      add\n        /* \"#utility.yul\":9838:9861   */\n      mload\n        /* \"#utility.yul\":9874:9937   */\n      tag_307\n        /* \"#utility.yul\":9931:9935   */\n      0xa0\n        /* \"#utility.yul\":9926:9929   */\n      dup7\n        /* \"#utility.yul\":9922:9936   */\n      add\n        /* \"#utility.yul\":9908:9920   */\n      dup3\n        /* \"#utility.yul\":9874:9937   */\n      tag_304\n      jump\t// in\n    tag_307:\n        /* \"#utility.yul\":9768:9947   */\n      pop\n        /* \"#utility.yul\":10041:10045   */\n      0xc0\n        /* \"#utility.yul\":10034:10039   */\n      dup4\n        /* \"#utility.yul\":10030:10046   */\n      add\n        /* \"#utility.yul\":10024:10047   */\n      mload\n        /* \"#utility.yul\":10060:10117   */\n      tag_308\n        /* \"#utility.yul\":10111:10115   */\n      0xc0\n        /* \"#utility.yul\":10106:10109   */\n      dup7\n        /* \"#utility.yul\":10102:10116   */\n      add\n        /* \"#utility.yul\":10088:10100   */\n      dup3\n        /* \"#utility.yul\":10060:10117   */\n      tag_239\n      jump\t// in\n    tag_308:\n        /* \"#utility.yul\":9957:10127   */\n      pop\n        /* \"#utility.yul\":10229:10233   */\n      0xe0\n        /* \"#utility.yul\":10222:10227   */\n      dup4\n        /* \"#utility.yul\":10218:10234   */\n      add\n        /* \"#utility.yul\":10212:10235   */\n      mload\n        /* \"#utility.yul\":10248:10305   */\n      tag_309\n        /* \"#utility.yul\":10299:10303   */\n      0xe0\n        /* \"#utility.yul\":10294:10297   */\n      dup7\n        /* \"#utility.yul\":10290:10304   */\n      add\n        /* \"#utility.yul\":10276:10288   */\n      dup3\n        /* \"#utility.yul\":10248:10305   */\n      tag_239\n      jump\t// in\n    tag_309:\n        /* \"#utility.yul\":10137:10315   */\n      pop\n        /* \"#utility.yul\":10401:10407   */\n      0x0100\n        /* \"#utility.yul\":10394:10399   */\n      dup4\n        /* \"#utility.yul\":10390:10408   */\n      add\n        /* \"#utility.yul\":10384:10409   */\n      mload\n        /* \"#utility.yul\":10422:10481   */\n      tag_310\n        /* \"#utility.yul\":10473:10479   */\n      0x0100\n        /* \"#utility.yul\":10468:10471   */\n      dup7\n        /* \"#utility.yul\":10464:10480   */\n      add\n        /* \"#utility.yul\":10450:10462   */\n      dup3\n        /* \"#utility.yul\":10422:10481   */\n      tag_239\n      jump\t// in\n    tag_310:\n        /* \"#utility.yul\":10325:10491   */\n      pop\n        /* \"#utility.yul\":10577:10583   */\n      0x0120\n        /* \"#utility.yul\":10570:10575   */\n      dup4\n        /* \"#utility.yul\":10566:10584   */\n      add\n        /* \"#utility.yul\":10560:10585   */\n      mload\n        /* \"#utility.yul\":10598:10657   */\n      tag_311\n        /* \"#utility.yul\":10649:10655   */\n      0x0120\n        /* \"#utility.yul\":10644:10647   */\n      dup7\n        /* \"#utility.yul\":10640:10656   */\n      add\n        /* \"#utility.yul\":10626:10638   */\n      dup3\n        /* \"#utility.yul\":10598:10657   */\n      tag_239\n      jump\t// in\n    tag_311:\n        /* \"#utility.yul\":10501:10667   */\n      pop\n        /* \"#utility.yul\":10684:10688   */\n      dup1\n        /* \"#utility.yul\":10677:10688   */\n      swap2\n      pop\n        /* \"#utility.yul\":8745:10694   */\n      pop\n        /* \"#utility.yul\":8627:10694   */\n      swap3\n      swap2\n      pop\n      pop\n      jump\t// out\n        /* \"#utility.yul\":10700:10808   */\n    tag_304:\n        /* \"#utility.yul\":10777:10801   */\n      tag_313\n        /* \"#utility.yul\":10795:10800   */\n      dup2\n        /* \"#utility.yul\":10777:10801   */\n      tag_314\n      jump\t// in\n    tag_313:\n        /* \"#utility.yul\":10772:10775   */\n      dup3\n        /* \"#utility.yul\":10765:10802   */\n      mstore\n        /* \"#utility.yul\":10700:10808   */\n      pop\n      pop\n      jump\t// out\n        /* \"#utility.yul\":10814:10932   */\n    tag_315:\n        /* \"#utility.yul\":10901:10925   */\n      tag_317\n        /* \"#utility.yul\":10919:10924   */\n      dup2\n        /* \"#utility.yul\":10901:10925   */\n      tag_314\n      jump\t// in\n    tag_317:\n        /* \"#utility.yul\":10896:10899   */\n      dup3\n        /* \"#utility.yul\":10889:10926   */\n      mstore\n        /* \"#utility.yul\":10814:10932   */\n      pop\n      pop\n      jump\t// out\n        /* \"#utility.yul\":10938:11213   */\n    tag_75:\n        /* \"#utility.yul\":11070:11073   */\n      0x00\n        /* \"#utility.yul\":11092:11187   */\n      tag_319\n        /* \"#utility.yul\":11183:11186   */\n      dup3\n        /* \"#utility.yul\":11174:11180   */\n      dup5\n        /* \"#utility.yul\":11092:11187   */\n      tag_271\n      jump\t// in\n    tag_319:\n        /* \"#utility.yul\":11085:11187   */\n      swap2\n      pop\n        /* \"#utility.yul\":11204:11207   */\n      dup2\n        /* \"#utility.yul\":11197:11207   */\n      swap1\n      pop\n        /* \"#utility.yul\":10938:11213   */\n      swap3\n      swap2\n      pop\n      pop\n      jump\t// out\n        /* \"#utility.yul\":11219:11488   */\n    tag_80:\n        /* \"#utility.yul\":11348:11351   */\n      0x00\n        /* \"#utility.yul\":11370:11462   */\n      tag_321\n        /* \"#utility.yul\":11458:11461   */\n      dup3\n        /* \"#utility.yul\":11449:11455   */\n      dup5\n        /* \"#utility.yul\":11370:11462   */\n      tag_277\n      jump\t// in\n    tag_321:\n        /* \"#utility.yul\":11363:11462   */\n      swap2\n      pop\n        /* \"#utility.yul\":11479:11482   */\n      dup2\n        /* \"#utility.yul\":11472:11482   */\n      swap1\n      pop\n        /* \"#utility.yul\":11219:11488   */\n      swap3\n      swap2\n      pop\n      pop\n      jump\t// out\n        /* \"#utility.yul\":11494:11850   */\n    tag_67:\n        /* \"#utility.yul\":11627:11631   */\n      0x00\n        /* \"#utility.yul\":11665:11667   */\n      0x40\n        /* \"#utility.yul\":11654:11663   */\n      dup3\n        /* \"#utility.yul\":11650:11668   */\n      add\n        /* \"#utility.yul\":11642:11668   */\n      swap1\n      pop\n        /* \"#utility.yul\":11678:11749   */\n      tag_323\n        /* \"#utility.yul\":11746:11747   */\n      0x00\n        /* \"#utility.yul\":11735:11744   */\n      dup4\n        /* \"#utility.yul\":11731:11748   */\n      add\n        /* \"#utility.yul\":11722:11728   */\n      dup6\n        /* \"#utility.yul\":11678:11749   */\n      tag_236\n      jump\t// in\n    tag_323:\n        /* \"#utility.yul\":11759:11843   */\n      tag_324\n        /* \"#utility.yul\":11839:11841   */\n      0x20\n        /* \"#utility.yul\":11828:11837   */\n      dup4\n        /* \"#utility.yul\":11824:11842   */\n      add\n        /* \"#utility.yul\":11815:11821   */\n      dup5\n        /* \"#utility.yul\":11759:11843   */\n      tag_246\n      jump\t// in\n    tag_324:\n        /* \"#utility.yul\":11494:11850   */\n      swap4\n      swap3\n      pop\n      pop\n      pop\n      jump\t// out\n        /* \"#utility.yul\":11856:12202   */\n    tag_138:\n        /* \"#utility.yul\":11984:11988   */\n      0x00\n        /* \"#utility.yul\":12022:12024   */\n      0x40\n        /* \"#utility.yul\":12011:12020   */\n      dup3\n        /* \"#utility.yul\":12007:12025   */\n      add\n        /* \"#utility.yul\":11999:12025   */\n      swap1\n      pop\n        /* \"#utility.yul\":12035:12106   */\n      tag_326\n        /* \"#utility.yul\":12103:12104   */\n      0x00\n        /* \"#utility.yul\":12092:12101   */\n      dup4\n        /* \"#utility.yul\":12088:12105   */\n      add\n        /* \"#utility.yul\":12079:12085   */\n      dup6\n        /* \"#utility.yul\":12035:12106   */\n      tag_236\n      jump\t// in\n    tag_326:\n        /* \"#utility.yul\":12116:12195   */\n      tag_327\n        /* \"#utility.yul\":12191:12193   */\n      0x20\n        /* \"#utility.yul\":12180:12189   */\n      dup4\n        /* \"#utility.yul\":12176:12194   */\n      add\n        /* \"#utility.yul\":12167:12173   */\n      dup5\n        /* \"#utility.yul\":12116:12195   */\n      tag_250\n      jump\t// in\n    tag_327:\n        /* \"#utility.yul\":11856:12202   */\n      swap4\n      swap3\n      pop\n      pop\n      pop\n      jump\t// out\n        /* \"#utility.yul\":12208:12852   */\n    tag_147:\n        /* \"#utility.yul\":12405:12409   */\n      0x00\n        /* \"#utility.yul\":12443:12446   */\n      0x80\n        /* \"#utility.yul\":12432:12441   */\n      dup3\n        /* \"#utility.yul\":12428:12447   */\n      add\n        /* \"#utility.yul\":12420:12447   */\n      swap1\n      pop\n        /* \"#utility.yul\":12457:12528   */\n      tag_329\n        /* \"#utility.yul\":12525:12526   */\n      0x00\n        /* \"#utility.yul\":12514:12523   */\n      dup4\n        /* \"#utility.yul\":12510:12527   */\n      add\n        /* \"#utility.yul\":12501:12507   */\n      dup8\n        /* \"#utility.yul\":12457:12528   */\n      tag_236\n      jump\t// in\n    tag_329:\n        /* \"#utility.yul\":12575:12584   */\n      dup2\n        /* \"#utility.yul\":12569:12573   */\n      dup2\n        /* \"#utility.yul\":12565:12585   */\n      sub\n        /* \"#utility.yul\":12560:12562   */\n      0x20\n        /* \"#utility.yul\":12549:12558   */\n      dup4\n        /* \"#utility.yul\":12545:12563   */\n      add\n        /* \"#utility.yul\":12538:12586   */\n      mstore\n        /* \"#utility.yul\":12603:12681   */\n      tag_330\n        /* \"#utility.yul\":12676:12680   */\n      dup2\n        /* \"#utility.yul\":12667:12673   */\n      dup7\n        /* \"#utility.yul\":12603:12681   */\n      tag_264\n      jump\t// in\n    tag_330:\n        /* \"#utility.yul\":12595:12681   */\n      swap1\n      pop\n        /* \"#utility.yul\":12691:12763   */\n      tag_331\n        /* \"#utility.yul\":12759:12761   */\n      0x40\n        /* \"#utility.yul\":12748:12757   */\n      dup4\n        /* \"#utility.yul\":12744:12762   */\n      add\n        /* \"#utility.yul\":12735:12741   */\n      dup6\n        /* \"#utility.yul\":12691:12763   */\n      tag_315\n      jump\t// in\n    tag_331:\n        /* \"#utility.yul\":12773:12845   */\n      tag_332\n        /* \"#utility.yul\":12841:12843   */\n      0x60\n        /* \"#utility.yul\":12830:12839   */\n      dup4\n        /* \"#utility.yul\":12826:12844   */\n      add\n        /* \"#utility.yul\":12817:12823   */\n      dup5\n        /* \"#utility.yul\":12773:12845   */\n      tag_315\n      jump\t// in\n    tag_332:\n        /* \"#utility.yul\":12208:12852   */\n      swap6\n      swap5\n      pop\n      pop\n      pop\n      pop\n      pop\n      jump\t// out\n        /* \"#utility.yul\":12858:13068   */\n    tag_13:\n        /* \"#utility.yul\":12945:12949   */\n      0x00\n        /* \"#utility.yul\":12983:12985   */\n      0x20\n        /* \"#utility.yul\":12972:12981   */\n      dup3\n        /* \"#utility.yul\":12968:12986   */\n      add\n        /* \"#utility.yul\":12960:12986   */\n      swap1\n      pop\n        /* \"#utility.yul\":12996:13061   */\n      tag_334\n        /* \"#utility.yul\":13058:13059   */\n      0x00\n        /* \"#utility.yul\":13047:13056   */\n      dup4\n        /* \"#utility.yul\":13043:13060   */\n      add\n        /* \"#utility.yul\":13034:13040   */\n      dup5\n        /* \"#utility.yul\":12996:13061   */\n      tag_243\n      jump\t// in\n    tag_334:\n        /* \"#utility.yul\":12858:13068   */\n      swap3\n      swap2\n      pop\n      pop\n      jump\t// out\n        /* \"#utility.yul\":13074:13493   */\n    tag_38:\n        /* \"#utility.yul\":13240:13244   */\n      0x00\n        /* \"#utility.yul\":13278:13280   */\n      0x20\n        /* \"#utility.yul\":13267:13276   */\n      dup3\n        /* \"#utility.yul\":13263:13281   */\n      add\n        /* \"#utility.yul\":13255:13281   */\n      swap1\n      pop\n        /* \"#utility.yul\":13327:13336   */\n      dup2\n        /* \"#utility.yul\":13321:13325   */\n      dup2\n        /* \"#utility.yul\":13317:13337   */\n      sub\n        /* \"#utility.yul\":13313:13314   */\n      0x00\n        /* \"#utility.yul\":13302:13311   */\n      dup4\n        /* \"#utility.yul\":13298:13315   */\n      add\n        /* \"#utility.yul\":13291:13338   */\n      mstore\n        /* \"#utility.yul\":13355:13486   */\n      tag_336\n        /* \"#utility.yul\":13481:13485   */\n      dup2\n        /* \"#utility.yul\":13355:13486   */\n      tag_289\n      jump\t// in\n    tag_336:\n        /* \"#utility.yul\":13347:13486   */\n      swap1\n      pop\n        /* \"#utility.yul\":13074:13493   */\n      swap2\n      swap1\n      pop\n      jump\t// out\n        /* \"#utility.yul\":13499:13918   */\n    tag_93:\n        /* \"#utility.yul\":13665:13669   */\n      0x00\n        /* \"#utility.yul\":13703:13705   */\n      0x20\n        /* \"#utility.yul\":13692:13701   */\n      dup3\n        /* \"#utility.yul\":13688:13706   */\n      add\n        /* \"#utility.yul\":13680:13706   */\n      swap1\n      pop\n        /* \"#utility.yul\":13752:13761   */\n      dup2\n        /* \"#utility.yul\":13746:13750   */\n      dup2\n        /* \"#utility.yul\":13742:13762   */\n      sub\n        /* \"#utility.yul\":13738:13739   */\n      0x00\n        /* \"#utility.yul\":13727:13736   */\n      dup4\n        /* \"#utility.yul\":13723:13740   */\n      add\n        /* \"#utility.yul\":13716:13763   */\n      mstore\n        /* \"#utility.yul\":13780:13911   */\n      tag_338\n        /* \"#utility.yul\":13906:13910   */\n      dup2\n        /* \"#utility.yul\":13780:13911   */\n      tag_294\n      jump\t// in\n    tag_338:\n        /* \"#utility.yul\":13772:13911   */\n      swap1\n      pop\n        /* \"#utility.yul\":13499:13918   */\n      swap2\n      swap1\n      pop\n      jump\t// out\n        /* \"#utility.yul\":13924:14285   */\n    tag_19:\n        /* \"#utility.yul\":14061:14065   */\n      0x00\n        /* \"#utility.yul\":14099:14101   */\n      0x20\n        /* \"#utility.yul\":14088:14097   */\n      dup3\n        /* \"#utility.yul\":14084:14102   */\n      add\n        /* \"#utility.yul\":14076:14102   */\n      swap1\n      pop\n        /* \"#utility.yul\":14148:14157   */\n      dup2\n        /* \"#utility.yul\":14142:14146   */\n      dup2\n        /* \"#utility.yul\":14138:14158   */\n      sub\n        /* \"#utility.yul\":14134:14135   */\n      0x00\n        /* \"#utility.yul\":14123:14132   */\n      dup4\n        /* \"#utility.yul\":14119:14136   */\n      add\n        /* \"#utility.yul\":14112:14159   */\n      mstore\n        /* \"#utility.yul\":14176:14278   */\n      tag_340\n        /* \"#utility.yul\":14273:14277   */\n      dup2\n        /* \"#utility.yul\":14264:14270   */\n      dup5\n        /* \"#utility.yul\":14176:14278   */\n      tag_299\n      jump\t// in\n    tag_340:\n        /* \"#utility.yul\":14168:14278   */\n      swap1\n      pop\n        /* \"#utility.yul\":13924:14285   */\n      swap3\n      swap2\n      pop\n      pop\n      jump\t// out\n        /* \"#utility.yul\":14291:14420   */\n    tag_164:\n        /* \"#utility.yul\":14325:14331   */\n      0x00\n        /* \"#utility.yul\":14352:14372   */\n      tag_342\n      tag_343\n      jump\t// in\n    tag_342:\n        /* \"#utility.yul\":14342:14372   */\n      swap1\n      pop\n        /* \"#utility.yul\":14381:14414   */\n      tag_344\n        /* \"#utility.yul\":14409:14413   */\n      dup3\n        /* \"#utility.yul\":14401:14407   */\n      dup3\n        /* \"#utility.yul\":14381:14414   */\n      tag_345\n      jump\t// in\n    tag_344:\n        /* \"#utility.yul\":14291:14420   */\n      swap2\n      swap1\n      pop\n      jump\t// out\n        /* \"#utility.yul\":14426:14501   */\n    tag_343:\n        /* \"#utility.yul\":14459:14465   */\n      0x00\n        /* \"#utility.yul\":14492:14494   */\n      0x40\n        /* \"#utility.yul\":14486:14495   */\n      mload\n        /* \"#utility.yul\":14476:14495   */\n      swap1\n      pop\n        /* \"#utility.yul\":14426:14501   */\n      swap1\n      jump\t// out\n        /* \"#utility.yul\":14507:14815   */\n    tag_163:\n        /* \"#utility.yul\":14569:14573   */\n      0x00\n        /* \"#utility.yul\":14659:14677   */\n      0xffffffffffffffff\n        /* \"#utility.yul\":14651:14657   */\n      dup3\n        /* \"#utility.yul\":14648:14678   */\n      gt\n        /* \"#utility.yul\":14645:14701   */\n      iszero\n      tag_348\n      jumpi\n        /* \"#utility.yul\":14681:14699   */\n      tag_349\n      tag_350\n      jump\t// in\n    tag_349:\n        /* \"#utility.yul\":14645:14701   */\n    tag_348:\n        /* \"#utility.yul\":14719:14748   */\n      tag_351\n        /* \"#utility.yul\":14741:14747   */\n      dup3\n        /* \"#utility.yul\":14719:14748   */\n      tag_263\n      jump\t// in\n    tag_351:\n        /* \"#utility.yul\":14711:14748   */\n      swap1\n      pop\n        /* \"#utility.yul\":14803:14807   */\n      0x20\n        /* \"#utility.yul\":14797:14801   */\n      dup2\n        /* \"#utility.yul\":14793:14808   */\n      add\n        /* \"#utility.yul\":14785:14808   */\n      swap1\n      pop\n        /* \"#utility.yul\":14507:14815   */\n      swap2\n      swap1\n      pop\n      jump\t// out\n        /* \"#utility.yul\":14821:14962   */\n    tag_285:\n        /* \"#utility.yul\":14870:14874   */\n      0x00\n        /* \"#utility.yul\":14893:14896   */\n      dup2\n        /* \"#utility.yul\":14885:14896   */\n      swap1\n      pop\n        /* \"#utility.yul\":14916:14919   */\n      dup2\n        /* \"#utility.yul\":14913:14914   */\n      0x00\n        /* \"#utility.yul\":14906:14920   */\n      mstore\n        /* \"#utility.yul\":14950:14954   */\n      0x20\n        /* \"#utility.yul\":14947:14948   */\n      0x00\n        /* \"#utility.yul\":14937:14955   */\n      keccak256\n        /* \"#utility.yul\":14929:14955   */\n      swap1\n      pop\n        /* \"#utility.yul\":14821:14962   */\n      swap2\n      swap1\n      pop\n      jump\t// out\n        /* \"#utility.yul\":14968:15067   */\n    tag_257:\n        /* \"#utility.yul\":15020:15026   */\n      0x00\n        /* \"#utility.yul\":15054:15059   */\n      dup2\n        /* \"#utility.yul\":15048:15060   */\n      mload\n        /* \"#utility.yul\":15038:15060   */\n      swap1\n      pop\n        /* \"#utility.yul\":14968:15067   */\n      swap2\n      swap1\n      pop\n      jump\t// out\n        /* \"#utility.yul\":15073:15232   */\n    tag_259:\n        /* \"#utility.yul\":15147:15158   */\n      0x00\n        /* \"#utility.yul\":15181:15187   */\n      dup3\n        /* \"#utility.yul\":15176:15179   */\n      dup3\n        /* \"#utility.yul\":15169:15188   */\n      mstore\n        /* \"#utility.yul\":15221:15225   */\n      0x20\n        /* \"#utility.yul\":15216:15219   */\n      dup3\n        /* \"#utility.yul\":15212:15226   */\n      add\n        /* \"#utility.yul\":15197:15226   */\n      swap1\n      pop\n        /* \"#utility.yul\":15073:15232   */\n      swap3\n      swap2\n      pop\n      pop\n      jump\t// out\n        /* \"#utility.yul\":15238:15407   */\n    tag_268:\n        /* \"#utility.yul\":15322:15333   */\n      0x00\n        /* \"#utility.yul\":15356:15362   */\n      dup3\n        /* \"#utility.yul\":15351:15354   */\n      dup3\n        /* \"#utility.yul\":15344:15363   */\n      mstore\n        /* \"#utility.yul\":15396:15400   */\n      0x20\n        /* \"#utility.yul\":15391:15394   */\n      dup3\n        /* \"#utility.yul\":15387:15401   */\n      add\n        /* \"#utility.yul\":15372:15401   */\n      swap1\n      pop\n        /* \"#utility.yul\":15238:15407   */\n      swap3\n      swap2\n      pop\n      pop\n      jump\t// out\n        /* \"#utility.yul\":15413:15561   */\n    tag_275:\n        /* \"#utility.yul\":15515:15526   */\n      0x00\n        /* \"#utility.yul\":15552:15555   */\n      dup2\n        /* \"#utility.yul\":15537:15555   */\n      swap1\n      pop\n        /* \"#utility.yul\":15413:15561   */\n      swap3\n      swap2\n      pop\n      pop\n      jump\t// out\n        /* \"#utility.yul\":15567:15663   */\n    tag_235:\n        /* \"#utility.yul\":15604:15611   */\n      0x00\n        /* \"#utility.yul\":15633:15657   */\n      tag_358\n        /* \"#utility.yul\":15651:15656   */\n      dup3\n        /* \"#utility.yul\":15633:15657   */\n      tag_359\n      jump\t// in\n    tag_358:\n        /* \"#utility.yul\":15622:15657   */\n      swap1\n      pop\n        /* \"#utility.yul\":15567:15663   */\n      swap2\n      swap1\n      pop\n      jump\t// out\n        /* \"#utility.yul\":15669:15759   */\n    tag_242:\n        /* \"#utility.yul\":15703:15710   */\n      0x00\n        /* \"#utility.yul\":15746:15751   */\n      dup2\n        /* \"#utility.yul\":15739:15752   */\n      iszero\n        /* \"#utility.yul\":15732:15753   */\n      iszero\n        /* \"#utility.yul\":15721:15753   */\n      swap1\n      pop\n        /* \"#utility.yul\":15669:15759   */\n      swap2\n      swap1\n      pop\n      jump\t// out\n        /* \"#utility.yul\":15765:15904   */\n    tag_361:\n        /* \"#utility.yul\":15816:15823   */\n      0x00\n        /* \"#utility.yul\":15845:15850   */\n      dup2\n        /* \"#utility.yul\":15834:15850   */\n      swap1\n      pop\n        /* \"#utility.yul\":15851:15898   */\n      tag_363\n        /* \"#utility.yul\":15892:15897   */\n      dup3\n        /* \"#utility.yul\":15851:15898   */\n      tag_364\n      jump\t// in\n    tag_363:\n        /* \"#utility.yul\":15765:15904   */\n      swap2\n      swap1\n      pop\n      jump\t// out\n        /* \"#utility.yul\":15910:16039   */\n    tag_365:\n        /* \"#utility.yul\":15956:15963   */\n      0x00\n        /* \"#utility.yul\":15985:15990   */\n      dup2\n        /* \"#utility.yul\":15974:15990   */\n      swap1\n      pop\n        /* \"#utility.yul\":15991:16033   */\n      tag_367\n        /* \"#utility.yul\":16027:16032   */\n      dup3\n        /* \"#utility.yul\":15991:16033   */\n      tag_368\n      jump\t// in\n    tag_367:\n        /* \"#utility.yul\":15910:16039   */\n      swap2\n      swap1\n      pop\n      jump\t// out\n        /* \"#utility.yul\":16045:16171   */\n    tag_359:\n        /* \"#utility.yul\":16082:16089   */\n      0x00\n        /* \"#utility.yul\":16122:16164   */\n      0xffffffffffffffffffffffffffffffffffffffff\n        /* \"#utility.yul\":16115:16120   */\n      dup3\n        /* \"#utility.yul\":16111:16165   */\n      and\n        /* \"#utility.yul\":16100:16165   */\n      swap1\n      pop\n        /* \"#utility.yul\":16045:16171   */\n      swap2\n      swap1\n      pop\n      jump\t// out\n        /* \"#utility.yul\":16177:16254   */\n    tag_314:\n        /* \"#utility.yul\":16214:16221   */\n      0x00\n        /* \"#utility.yul\":16243:16248   */\n      dup2\n        /* \"#utility.yul\":16232:16248   */\n      swap1\n      pop\n        /* \"#utility.yul\":16177:16254   */\n      swap2\n      swap1\n      pop\n      jump\t// out\n        /* \"#utility.yul\":16260:16399   */\n    tag_249:\n        /* \"#utility.yul\":16322:16331   */\n      0x00\n        /* \"#utility.yul\":16355:16393   */\n      tag_372\n        /* \"#utility.yul\":16387:16392   */\n      dup3\n        /* \"#utility.yul\":16355:16393   */\n      tag_361\n      jump\t// in\n    tag_372:\n        /* \"#utility.yul\":16342:16393   */\n      swap1\n      pop\n        /* \"#utility.yul\":16260:16399   */\n      swap2\n      swap1\n      pop\n      jump\t// out\n        /* \"#utility.yul\":16405:16534   */\n    tag_253:\n        /* \"#utility.yul\":16462:16471   */\n      0x00\n        /* \"#utility.yul\":16495:16528   */\n      tag_374\n        /* \"#utility.yul\":16522:16527   */\n      dup3\n        /* \"#utility.yul\":16495:16528   */\n      tag_365\n      jump\t// in\n    tag_374:\n        /* \"#utility.yul\":16482:16528   */\n      swap1\n      pop\n        /* \"#utility.yul\":16405:16534   */\n      swap2\n      swap1\n      pop\n      jump\t// out\n        /* \"#utility.yul\":16540:16694   */\n    tag_169:\n        /* \"#utility.yul\":16624:16630   */\n      dup3\n        /* \"#utility.yul\":16619:16622   */\n      dup2\n        /* \"#utility.yul\":16614:16617   */\n      dup4\n        /* \"#utility.yul\":16601:16631   */\n      calldatacopy\n        /* \"#utility.yul\":16686:16687   */\n      0x00\n        /* \"#utility.yul\":16677:16683   */\n      dup4\n        /* \"#utility.yul\":16672:16675   */\n      dup4\n        /* \"#utility.yul\":16668:16684   */\n      add\n        /* \"#utility.yul\":16661:16688   */\n      mstore\n        /* \"#utility.yul\":16540:16694   */\n      pop\n      pop\n      pop\n      jump\t// out\n        /* \"#utility.yul\":16700:17007   */\n    tag_261:\n        /* \"#utility.yul\":16768:16769   */\n      0x00\n        /* \"#utility.yul\":16778:16891   */\n    tag_377:\n        /* \"#utility.yul\":16792:16798   */\n      dup4\n        /* \"#utility.yul\":16789:16790   */\n      dup2\n        /* \"#utility.yul\":16786:16799   */\n      lt\n        /* \"#utility.yul\":16778:16891   */\n      iszero\n      tag_379\n      jumpi\n        /* \"#utility.yul\":16877:16878   */\n      dup1\n        /* \"#utility.yul\":16872:16875   */\n      dup3\n        /* \"#utility.yul\":16868:16879   */\n      add\n        /* \"#utility.yul\":16862:16880   */\n      mload\n        /* \"#utility.yul\":16858:16859   */\n      dup2\n        /* \"#utility.yul\":16853:16856   */\n      dup5\n        /* \"#utility.yul\":16849:16860   */\n      add\n        /* \"#utility.yul\":16842:16881   */\n      mstore\n        /* \"#utility.yul\":16814:16816   */\n      0x20\n        /* \"#utility.yul\":16811:16812   */\n      dup2\n        /* \"#utility.yul\":16807:16817   */\n      add\n        /* \"#utility.yul\":16802:16817   */\n      swap1\n      pop\n        /* \"#utility.yul\":16778:16891   */\n      jump(tag_377)\n    tag_379:\n        /* \"#utility.yul\":16909:16915   */\n      dup4\n        /* \"#utility.yul\":16906:16907   */\n      dup2\n        /* \"#utility.yul\":16903:16916   */\n      gt\n        /* \"#utility.yul\":16900:17001   */\n      iszero\n      tag_380\n      jumpi\n        /* \"#utility.yul\":16989:16990   */\n      0x00\n        /* \"#utility.yul\":16980:16986   */\n      dup5\n        /* \"#utility.yul\":16975:16978   */\n      dup5\n        /* \"#utility.yul\":16971:16987   */\n      add\n        /* \"#utility.yul\":16964:16991   */\n      mstore\n        /* \"#utility.yul\":16900:17001   */\n    tag_380:\n        /* \"#utility.yul\":16749:17007   */\n      pop\n        /* \"#utility.yul\":16700:17007   */\n      pop\n      pop\n      pop\n      jump\t// out\n        /* \"#utility.yul\":17013:17333   */\n    tag_86:\n        /* \"#utility.yul\":17057:17063   */\n      0x00\n        /* \"#utility.yul\":17094:17095   */\n      0x02\n        /* \"#utility.yul\":17088:17092   */\n      dup3\n        /* \"#utility.yul\":17084:17096   */\n      div\n        /* \"#utility.yul\":17074:17096   */\n      swap1\n      pop\n        /* \"#utility.yul\":17141:17142   */\n      0x01\n        /* \"#utility.yul\":17135:17139   */\n      dup3\n        /* \"#utility.yul\":17131:17143   */\n      and\n        /* \"#utility.yul\":17162:17180   */\n      dup1\n        /* \"#utility.yul\":17152:17233   */\n      tag_382\n      jumpi\n        /* \"#utility.yul\":17218:17222   */\n      0x7f\n        /* \"#utility.yul\":17210:17216   */\n      dup3\n        /* \"#utility.yul\":17206:17223   */\n      and\n        /* \"#utility.yul\":17196:17223   */\n      swap2\n      pop\n        /* \"#utility.yul\":17152:17233   */\n    tag_382:\n        /* \"#utility.yul\":17280:17282   */\n      0x20\n        /* \"#utility.yul\":17272:17278   */\n      dup3\n        /* \"#utility.yul\":17269:17283   */\n      lt\n        /* \"#utility.yul\":17249:17267   */\n      dup2\n        /* \"#utility.yul\":17246:17284   */\n      eq\n        /* \"#utility.yul\":17243:17327   */\n      iszero\n      tag_383\n      jumpi\n        /* \"#utility.yul\":17299:17317   */\n      tag_384\n      tag_385\n      jump\t// in\n    tag_384:\n        /* \"#utility.yul\":17243:17327   */\n    tag_383:\n        /* \"#utility.yul\":17064:17333   */\n      pop\n        /* \"#utility.yul\":17013:17333   */\n      swap2\n      swap1\n      pop\n      jump\t// out\n        /* \"#utility.yul\":17339:17620   */\n    tag_345:\n        /* \"#utility.yul\":17422:17449   */\n      tag_387\n        /* \"#utility.yul\":17444:17448   */\n      dup3\n        /* \"#utility.yul\":17422:17449   */\n      tag_263\n      jump\t// in\n    tag_387:\n        /* \"#utility.yul\":17414:17420   */\n      dup2\n        /* \"#utility.yul\":17410:17450   */\n      add\n        /* \"#utility.yul\":17552:17558   */\n      dup2\n        /* \"#utility.yul\":17540:17550   */\n      dup2\n        /* \"#utility.yul\":17537:17559   */\n      lt\n        /* \"#utility.yul\":17516:17534   */\n      0xffffffffffffffff\n        /* \"#utility.yul\":17504:17514   */\n      dup3\n        /* \"#utility.yul\":17501:17535   */\n      gt\n        /* \"#utility.yul\":17498:17560   */\n      or\n        /* \"#utility.yul\":17495:17583   */\n      iszero\n      tag_388\n      jumpi\n        /* \"#utility.yul\":17563:17581   */\n      tag_389\n      tag_350\n      jump\t// in\n    tag_389:\n        /* \"#utility.yul\":17495:17583   */\n    tag_388:\n        /* \"#utility.yul\":17603:17613   */\n      dup1\n        /* \"#utility.yul\":17599:17601   */\n      0x40\n        /* \"#utility.yul\":17592:17614   */\n      mstore\n        /* \"#utility.yul\":17382:17620   */\n      pop\n        /* \"#utility.yul\":17339:17620   */\n      pop\n      pop\n      jump\t// out\n        /* \"#utility.yul\":17626:17859   */\n    tag_65:\n        /* \"#utility.yul\":17665:17668   */\n      0x00\n        /* \"#utility.yul\":17688:17712   */\n      tag_391\n        /* \"#utility.yul\":17706:17711   */\n      dup3\n        /* \"#utility.yul\":17688:17712   */\n      tag_314\n      jump\t// in\n    tag_391:\n        /* \"#utility.yul\":17679:17712   */\n      swap2\n      pop\n        /* \"#utility.yul\":17734:17800   */\n      0xffffffffffffffffffffffffffffffffffffffffffffffffffffffffffffffff\n        /* \"#utility.yul\":17727:17732   */\n      dup3\n        /* \"#utility.yul\":17724:17801   */\n      eq\n        /* \"#utility.yul\":17721:17824   */\n      iszero\n      tag_392\n      jumpi\n        /* \"#utility.yul\":17804:17822   */\n      tag_393\n      tag_394\n      jump\t// in\n    tag_393:\n        /* \"#utility.yul\":17721:17824   */\n    tag_392:\n        /* \"#utility.yul\":17851:17852   */\n      0x01\n        /* \"#utility.yul\":17844:17849   */\n      dup3\n        /* \"#utility.yul\":17840:17853   */\n      add\n        /* \"#utility.yul\":17833:17853   */\n      swap1\n      pop\n        /* \"#utility.yul\":17626:17859   */\n      swap2\n      swap1\n      pop\n      jump\t// out\n        /* \"#utility.yul\":17865:18045   */\n    tag_394:\n        /* \"#utility.yul\":17913:17990   */\n      0x4e487b7100000000000000000000000000000000000000000000000000000000\n        /* \"#utility.yul\":17910:17911   */\n      0x00\n        /* \"#utility.yul\":17903:17991   */\n      mstore\n        /* \"#utility.yul\":18010:18014   */\n      0x11\n        /* \"#utility.yul\":18007:18008   */\n      0x04\n        /* \"#utility.yul\":18000:18015   */\n      mstore\n        /* \"#utility.yul\":18034:18038   */\n      0x24\n        /* \"#utility.yul\":18031:18032   */\n      0x00\n        /* \"#utility.yul\":18024:18039   */\n      revert\n        /* \"#utility.yul\":18051:18231   */\n    tag_50:\n        /* \"#utility.yul\":18099:18176   */\n      0x4e487b7100000000000000000000000000000000000000000000000000000000\n        /* \"#utility.yul\":18096:18097   */\n      0x00\n        /* \"#utility.yul\":18089:18177   */\n      mstore\n        /* \"#utility.yul\":18196:18200   */\n      0x21\n        /* \"#utility.yul\":18193:18194   */\n      0x04\n        /* \"#utility.yul\":18186:18201   */\n      mstore\n        /* \"#utility.yul\":18220:18224   */\n      0x24\n        /* \"#utility.yul\":18217:18218   */\n      0x00\n        /* \"#utility.yul\":18210:18225   */\n      revert\n        /* \"#utility.yul\":18237:18417   */\n    tag_385:\n        /* \"#utility.yul\":18285:18362   */\n      0x4e487b7100000000000000000000000000000000000000000000000000000000\n        /* \"#utility.yul\":18282:18283   */\n      0x00\n        /* \"#utility.yul\":18275:18363   */\n      mstore\n        /* \"#utility.yul\":18382:18386   */\n      0x22\n        /* \"#utility.yul\":18379:18380   */\n      0x04\n        /* \"#utility.yul\":18372:18387   */\n      mstore\n        /* \"#utility.yul\":18406:18410   */\n      0x24\n        /* \"#utility.yul\":18403:18404   */\n      0x00\n        /* \"#utility.yul\":18396:18411   */\n      revert\n        /* \"#utility.yul\":18423:18603   */\n    tag_45:\n        /* \"#utility.yul\":18471:18548   */\n      0x4e487b7100000000000000000000000000000000000000000000000000000000\n        /* \"#utility.yul\":18468:18469   */\n      0x00\n        /* \"#utility.yul\":18461:18549   */\n      mstore\n        /* \"#utility.yul\":18568:18572   */\n      0x32\n        /* \"#utility.yul\":18565:18566   */\n      0x04\n        /* \"#utility.yul\":18558:18573   */\n      mstore\n        /* \"#utility.yul\":18592:18596   */\n      0x24\n        /* \"#utility.yul\":18589:18590   */\n      0x00\n        /* \"#utility.yul\":18582:18597   */\n      revert\n        /* \"#utility.yul\":18609:18789   */\n    tag_350:\n        /* \"#utility.yul\":18657:18734   */\n      0x4e487b7100000000000000000000000000000000000000000000000000000000\n        /* \"#utility.yul\":18654:18655   */\n      0x00\n        /* \"#utility.yul\":18647:18735   */\n      mstore\n        /* \"#utility.yul\":18754:18758   */\n      0x41\n        /* \"#utility.yul\":18751:18752   */\n      0x04\n        /* \"#utility.yul\":18744:18759   */\n      mstore\n        /* \"#utility.yul\":18778:18782   */\n      0x24\n        /* \"#utility.yul\":18775:18776   */\n      0x00\n        /* \"#utility.yul\":18768:18783   */\n      revert\n        /* \"#utility.yul\":18795:18912   */\n    tag_190:\n        /* \"#utility.yul\":18904:18905   */\n      0x00\n        /* \"#utility.yul\":18901:18902   */\n      dup1\n        /* \"#utility.yul\":18894:18906   */\n      revert\n        /* \"#utility.yul\":18918:19035   */\n    tag_167:\n        /* \"#utility.yul\":19027:19028   */\n      0x00\n        /* \"#utility.yul\":19024:19025   */\n      dup1\n        /* \"#utility.yul\":19017:19029   */\n      revert\n        /* \"#utility.yul\":19041:19158   */\n    tag_211:\n        /* \"#utility.yul\":19150:19151   */\n      0x00\n        /* \"#utility.yul\":19147:19148   */\n      dup1\n        /* \"#utility.yul\":19140:19152   */\n      revert\n        /* \"#utility.yul\":19164:19281   */\n    tag_199:\n        /* \"#utility.yul\":19273:19274   */\n      0x00\n        /* \"#utility.yul\":19270:19271   */\n      dup1\n        /* \"#utility.yul\":19263:19275   */\n      revert\n        /* \"#utility.yul\":19287:19389   */\n    tag_263:\n        /* \"#utility.yul\":19328:19334   */\n      0x00\n        /* \"#utility.yul\":19379:19381   */\n      0x1f\n        /* \"#utility.yul\":19375:19382   */\n      not\n        /* \"#utility.yul\":19370:19372   */\n      0x1f\n        /* \"#utility.yul\":19363:19368   */\n      dup4\n        /* \"#utility.yul\":19359:19373   */\n      add\n        /* \"#utility.yul\":19355:19383   */\n      and\n        /* \"#utility.yul\":19345:19383   */\n      swap1\n      pop\n        /* \"#utility.yul\":19287:19389   */\n      swap2\n      swap1\n      pop\n      jump\t// out\n        /* \"#utility.yul\":19395:19572   */\n    tag_293:\n        /* \"#utility.yul\":19535:19564   */\n      0x4e6f74204f776e65722c2063616e6e6f742070657266726d204f500000000000\n        /* \"#utility.yul\":19531:19532   */\n      0x00\n        /* \"#utility.yul\":19523:19529   */\n      dup3\n        /* \"#utility.yul\":19519:19533   */\n      add\n        /* \"#utility.yul\":19512:19565   */\n      mstore\n        /* \"#utility.yul\":19395:19572   */\n      pop\n      jump\t// out\n        /* \"#utility.yul\":19578:19743   */\n    tag_298:\n        /* \"#utility.yul\":19718:19735   */\n      0x4173736574206e6f7420666f756e640000000000000000000000000000000000\n        /* \"#utility.yul\":19714:19715   */\n      0x00\n        /* \"#utility.yul\":19706:19712   */\n      dup3\n        /* \"#utility.yul\":19702:19716   */\n      add\n        /* \"#utility.yul\":19695:19736   */\n      mstore\n        /* \"#utility.yul\":19578:19743   */\n      pop\n      jump\t// out\n        /* \"#utility.yul\":19749:19868   */\n    tag_364:\n        /* \"#utility.yul\":19836:19837   */\n      0x02\n        /* \"#utility.yul\":19829:19834   */\n      dup2\n        /* \"#utility.yul\":19826:19838   */\n      lt\n        /* \"#utility.yul\":19816:19862   */\n      tag_408\n      jumpi\n        /* \"#utility.yul\":19842:19860   */\n      tag_409\n      tag_50\n      jump\t// in\n    tag_409:\n        /* \"#utility.yul\":19816:19862   */\n    tag_408:\n        /* \"#utility.yul\":19749:19868   */\n      pop\n      jump\t// out\n        /* \"#utility.yul\":19874:19988   */\n    tag_368:\n        /* \"#utility.yul\":19956:19957   */\n      0x02\n        /* \"#utility.yul\":19949:19954   */\n      dup2\n        /* \"#utility.yul\":19946:19958   */\n      lt\n        /* \"#utility.yul\":19936:19982   */\n      tag_411\n      jumpi\n        /* \"#utility.yul\":19962:19980   */\n      tag_412\n      tag_50\n      jump\t// in\n    tag_412:\n        /* \"#utility.yul\":19936:19982   */\n    tag_411:\n        /* \"#utility.yul\":19874:19988   */\n      pop\n      jump\t// out\n        /* \"#utility.yul\":19994:20116   */\n    tag_173:\n        /* \"#utility.yul\":20067:20091   */\n      tag_414\n        /* \"#utility.yul\":20085:20090   */\n      dup2\n        /* \"#utility.yul\":20067:20091   */\n      tag_235\n      jump\t// in\n    tag_414:\n        /* \"#utility.yul\":20060:20065   */\n      dup2\n        /* \"#utility.yul\":20057:20092   */\n      eq\n        /* \"#utility.yul\":20047:20110   */\n      tag_415\n      jumpi\n        /* \"#utility.yul\":20106:20107   */\n      0x00\n        /* \"#utility.yul\":20103:20104   */\n      dup1\n        /* \"#utility.yul\":20096:20108   */\n      revert\n        /* \"#utility.yul\":20047:20110   */\n    tag_415:\n        /* \"#utility.yul\":19994:20116   */\n      pop\n      jump\t// out\n        /* \"#utility.yul\":20122:20238   */\n    tag_177:\n        /* \"#utility.yul\":20192:20213   */\n      tag_417\n        /* \"#utility.yul\":20207:20212   */\n      dup2\n        /* \"#utility.yul\":20192:20213   */\n      tag_242\n      jump\t// in\n    tag_417:\n        /* \"#utility.yul\":20185:20190   */\n      dup2\n        /* \"#utility.yul\":20182:20214   */\n      eq\n        /* \"#utility.yul\":20172:20232   */\n      tag_418\n      jumpi\n        /* \"#utility.yul\":20228:20229   */\n      0x00\n        /* \"#utility.yul\":20225:20226   */\n      dup1\n        /* \"#utility.yul\":20218:20230   */\n      revert\n        /* \"#utility.yul\":20172:20232   */\n    tag_418:\n        /* \"#utility.yul\":20122:20238   */\n      pop\n      jump\t// out\n        /* \"#utility.yul\":20244:20357   */\n    tag_181:\n        /* \"#utility.yul\":20331:20332   */\n      0x02\n        /* \"#utility.yul\":20324:20329   */\n      dup2\n        /* \"#utility.yul\":20321:20333   */\n      lt\n        /* \"#utility.yul\":20311:20351   */\n      tag_420\n      jumpi\n        /* \"#utility.yul\":20347:20348   */\n      0x00\n        /* \"#utility.yul\":20344:20345   */\n      dup1\n        /* \"#utility.yul\":20337:20349   */\n      revert\n        /* \"#utility.yul\":20311:20351   */\n    tag_420:\n        /* \"#utility.yul\":20244:20357   */\n      pop\n      jump\t// out\n        /* \"#utility.yul\":20363:20471   */\n    tag_185:\n        /* \"#utility.yul\":20445:20446   */\n      0x02\n        /* \"#utility.yul\":20438:20443   */\n      dup2\n        /* \"#utility.yul\":20435:20447   */\n      lt\n        /* \"#utility.yul\":20425:20465   */\n      tag_422\n      jumpi\n        /* \"#utility.yul\":20461:20462   */\n      0x00\n        /* \"#utility.yul\":20458:20459   */\n      dup1\n        /* \"#utility.yul\":20451:20463   */\n      revert\n        /* \"#utility.yul\":20425:20465   */\n    tag_422:\n        /* \"#utility.yul\":20363:20471   */\n      pop\n      jump\t// out\n        /* \"#utility.yul\":20477:20599   */\n    tag_195:\n        /* \"#utility.yul\":20550:20574   */\n      tag_424\n        /* \"#utility.yul\":20568:20573   */\n      dup2\n        /* \"#utility.yul\":20550:20574   */\n      tag_314\n      jump\t// in\n    tag_424:\n        /* \"#utility.yul\":20543:20548   */\n      dup2\n        /* \"#utility.yul\":20540:20575   */\n      eq\n        /* \"#utility.yul\":20530:20593   */\n      tag_425\n      jumpi\n        /* \"#utility.yul\":20589:20590   */\n      0x00\n        /* \"#utility.yul\":20586:20587   */\n      dup1\n        /* \"#utility.yul\":20579:20591   */\n      revert\n        /* \"#utility.yul\":20530:20593   */\n    tag_425:\n        /* \"#utility.yul\":20477:20599   */\n      pop\n      jump\t// out\n\n    auxdata: 0xa2646970667358221220bc93f4f6ee919d53a229e072077e4ce515e570f84d6fa773efd21835c4a1d8a164736f6c63430008070033\n}\n",
				"bytecode": {
					"linkReferences": {},
					"object": "608060405234801561001057600080fd5b50336000806101000a81548173ffffffffffffffffffffffffffffffffffffffff021916908373ffffffffffffffffffffffffffffffffffffffff16021790555061193b806100606000396000f3fe608060405234801561001057600080fd5b50600436106100575760003560e01c8063671e3f751461005c578063827401bb1461008c578063e2574030146100bc578063e7149623146100ec578063f45edbb91461011c575b600080fd5b61007660048036038101906100719190611027565b61014c565b6040516100839190611476565b60405180910390f35b6100a660048036038101906100a191906110a7565b6103a6565b6040516100b391906114d1565b60405180910390f35b6100d660048036038101906100d19190610f14565b610642565b6040516100e391906114d1565b60405180910390f35b61010660048036038101906101019190611067565b6108df565b6040516101139190611476565b60405180910390f35b61013660048036038101906101319190610f41565b610aaa565b6040516101439190611476565b60405180910390f35b60003373ffffffffffffffffffffffffffffffffffffffff1660008054906101000a900473ffffffffffffffffffffffffffffffffffffffff1673ffffffffffffffffffffffffffffffffffffffff16146101dc576040517f08c379a00000000000000000000000000000000000000000000000000000000081526004016101d390611491565b60405180910390fd5b6000600180549050905060005b81811015610360578473ffffffffffffffffffffffffffffffffffffffff166001828154811061021c5761021b6117a3565b5b906000526020600020906007020160000160009054906101000a900473ffffffffffffffffffffffffffffffffffffffff1673ffffffffffffffffffffffffffffffffffffffff16141561034d576000600181111561027e5761027d611745565b5b84600181111561029157610290611745565b5b14156102d95760018082815481106102ac576102ab6117a3565b5b906000526020600020906007020160060160026101000a81548160ff021916908315150217905550610318565b6000600182815481106102ef576102ee6117a3565b5b906000526020600020906007020160060160026101000a81548160ff0219169083151502179055505b426001828154811061032d5761032c6117a3565b5b9060005260206000209060070201600501819055506001925050506103a0565b8080610358906116cd565b9150506101e9565b507f1bc4f6a74fdbf500e13db259c58a58c59533ea54a4b93010d0126f6061ec375384846040516103929291906113d8565b60405180910390a160009150505b92915050565b6103ae610d27565b6000600180549050905060005b8181101561060157836040516020016103d491906113aa565b60405160208183030381529060405280519060200120600182815481106103fe576103fd6117a3565b5b906000526020600020906007020160010160405160200161041f91906113c1565b6040516020818303038152906040528051906020012014156105ee576001818154811061044f5761044e6117a3565b5b9060005260206000209060070201604051806101400160405290816000820160009054906101000a900473ffffffffffffffffffffffffffffffffffffffff1673ffffffffffffffffffffffffffffffffffffffff1673ffffffffffffffffffffffffffffffffffffffff1681526020016001820180546104cf9061166a565b80601f01602080910402602001604051908101604052809291908181526020018280546104fb9061166a565b80156105485780601f1061051d57610100808354040283529160200191610548565b820191906000526020600020905b81548152906001019060200180831161052b57829003601f168201915b50505050508152602001600282015481526020016003820154815260200160048201548152602001600582015481526020016006820160009054906101000a900460ff161515151581526020016006820160019054906101000a900460ff161515151581526020016006820160029054906101000a900460ff161515151581526020016006820160039054906101000a900460ff1615151515815250509250505061063d565b80806105f9906116cd565b9150506103bb565b506040517f08c379a0000000000000000000000000000000000000000000000000000000008152600401610634906114b1565b60405180910390fd5b919050565b61064a610d27565b6000600180549050905060005b8181101561089e578373ffffffffffffffffffffffffffffffffffffffff166001828154811061068a576106896117a3565b5b906000526020600020906007020160000160009054906101000a900473ffffffffffffffffffffffffffffffffffffffff1673ffffffffffffffffffffffffffffffffffffffff16141561088b57600181815481106106ec576106eb6117a3565b5b9060005260206000209060070201604051806101400160405290816000820160009054906101000a900473ffffffffffffffffffffffffffffffffffffffff1673ffffffffffffffffffffffffffffffffffffffff1673ffffffffffffffffffffffffffffffffffffffff16815260200160018201805461076c9061166a565b80601f01602080910402602001604051908101604052809291908181526020018280546107989061166a565b80156107e55780601f106107ba576101008083540402835291602001916107e5565b820191906000526020600020905b8154815290600101906020018083116107c857829003601f168201915b50505050508152602001600282015481526020016003820154815260200160048201548152602001600582015481526020016006820160009054906101000a900460ff161515151581526020016006820160019054906101000a900460ff161515151581526020016006820160029054906101000a900460ff161515151581526020016006820160039054906101000a900460ff161515151581525050925050506108da565b8080610896906116cd565b915050610657565b506040517f08c379a00000000000000000000000000000000000000000000000000000000081526004016108d1906114b1565b60405180910390fd5b919050565b600080600180549050905060005b81811015610a64578473ffffffffffffffffffffffffffffffffffffffff16600182815481106109205761091f6117a3565b5b906000526020600020906007020160000160009054906101000a900473ffffffffffffffffffffffffffffffffffffffff1673ffffffffffffffffffffffffffffffffffffffff161415610a51576000600181111561098257610981611745565b5b84600181111561099557610994611745565b5b14156109dd5760018082815481106109b0576109af6117a3565b5b906000526020600020906007020160060160026101000a81548160ff021916908315150217905550610a1c565b6000600182815481106109f3576109f26117a3565b5b906000526020600020906007020160060160026101000a81548160ff0219169083151502179055505b4260018281548110610a3157610a306117a3565b5b906000526020600020906007020160050181905550600192505050610aa4565b8080610a5c906116cd565b9150506108ed565b507f3f57ea1559cfee0ff7804a8bbf56c488fbd7f8d575acd8537d7f02a6ffb8bdb48484604051610a96929190611401565b60405180910390a160009150505b92915050565b60003373ffffffffffffffffffffffffffffffffffffffff1660008054906101000a900473ffffffffffffffffffffffffffffffffffffffff1673ffffffffffffffffffffffffffffffffffffffff1614610b3a576040517f08c379a0000000000000000000000000000000000000000000000000000000008152600401610b3190611491565b60405180910390fd5b60016040518061014001604052808c73ffffffffffffffffffffffffffffffffffffffff1681526020018781526020018681526020018581526020018481526020014281526020018b151581526020018a151581526020018915158152602001881515815250908060018154018082558091505060019003906000526020600020906007020160009091909190915060008201518160000160006101000a81548173ffffffffffffffffffffffffffffffffffffffff021916908373ffffffffffffffffffffffffffffffffffffffff1602179055506020820151816001019080519060200190610c2c929190610d98565b5060408201518160020155606082015181600301556080820151816004015560a0820151816005015560c08201518160060160006101000a81548160ff02191690831515021790555060e08201518160060160016101000a81548160ff0219169083151502179055506101008201518160060160026101000a81548160ff0219169083151502179055506101208201518160060160036101000a81548160ff02191690831515021790555050507fcd7be9ca97d79d2c4048b8402afd93bb5f487441dc211d4bd2e95011ccd423a08a868585604051610d0e949392919061142a565b60405180910390a1600190509998505050505050505050565b604051806101400160405280600073ffffffffffffffffffffffffffffffffffffffff16815260200160608152602001600081526020016000815260200160008152602001600081526020016000151581526020016000151581526020016000151581526020016000151581525090565b828054610da49061166a565b90600052602060002090601f016020900481019282610dc65760008555610e0d565b82601f10610ddf57805160ff1916838001178555610e0d565b82800160010185558215610e0d579182015b82811115610e0c578251825591602001919060010190610df1565b5b509050610e1a9190610e1e565b5090565b5b80821115610e37576000816000905550600101610e1f565b5090565b6000610e4e610e4984611518565b6114f3565b905082815260208101848484011115610e6a57610e69611806565b5b610e75848285611628565b509392505050565b600081359050610e8c816118a0565b92915050565b600081359050610ea1816118b7565b92915050565b600081359050610eb6816118ce565b92915050565b600081359050610ecb816118de565b92915050565b600082601f830112610ee657610ee5611801565b5b8135610ef6848260208601610e3b565b91505092915050565b600081359050610f0e816118ee565b92915050565b600060208284031215610f2a57610f29611810565b5b6000610f3884828501610e7d565b91505092915050565b60008060008060008060008060006101208a8c031215610f6457610f63611810565b5b6000610f728c828d01610e7d565b9950506020610f838c828d01610e92565b9850506040610f948c828d01610e92565b9750506060610fa58c828d01610e92565b9650506080610fb68c828d01610e92565b95505060a08a013567ffffffffffffffff811115610fd757610fd661180b565b5b610fe38c828d01610ed1565b94505060c0610ff48c828d01610eff565b93505060e06110058c828d01610eff565b9250506101006110178c828d01610eff565b9150509295985092959850929598565b6000806040838503121561103e5761103d611810565b5b600061104c85828601610e7d565b925050602061105d85828601610ea7565b9150509250929050565b6000806040838503121561107e5761107d611810565b5b600061108c85828601610e7d565b925050602061109d85828601610ebc565b9150509250929050565b6000602082840312156110bd576110bc611810565b5b600082013567ffffffffffffffff8111156110db576110da61180b565b5b6110e784828501610ed1565b91505092915050565b6110f981611596565b82525050565b61110881611596565b82525050565b611117816115a8565b82525050565b611126816115a8565b82525050565b61113581611604565b82525050565b61114481611616565b82525050565b60006111558261155e565b61115f8185611569565b935061116f818560208601611637565b61117881611815565b840191505092915050565b600061118e8261155e565b611198818561157a565b93506111a8818560208601611637565b6111b181611815565b840191505092915050565b60006111c78261155e565b6111d1818561158b565b93506111e1818560208601611637565b80840191505092915050565b600081546111fa8161166a565b611204818661158b565b9450600182166000811461121f576001811461123057611263565b60ff19831686528186019350611263565b61123985611549565b60005b8381101561125b5781548189015260018201915060208101905061123c565b838801955050505b50505092915050565b6000611279601b8361157a565b915061128482611826565b602082019050919050565b600061129c600f8361157a565b91506112a78261184f565b602082019050919050565b6000610140830160008301516112cb60008601826110f0565b50602083015184820360208601526112e3828261114a565b91505060408301516112f8604086018261138c565b50606083015161130b606086018261138c565b50608083015161131e608086018261138c565b5060a083015161133160a086018261138c565b5060c083015161134460c086018261110e565b5060e083015161135760e086018261110e565b5061010083015161136c61010086018261110e565b5061012083015161138161012086018261110e565b508091505092915050565b611395816115fa565b82525050565b6113a4816115fa565b82525050565b60006113b682846111bc565b915081905092915050565b60006113cd82846111ed565b915081905092915050565b60006040820190506113ed60008301856110ff565b6113fa602083018461112c565b9392505050565b600060408201905061141660008301856110ff565b611423602083018461113b565b9392505050565b600060808201905061143f60008301876110ff565b81810360208301526114518186611183565b9050611460604083018561139b565b61146d606083018461139b565b95945050505050565b600060208201905061148b600083018461111d565b92915050565b600060208201905081810360008301526114aa8161126c565b9050919050565b600060208201905081810360008301526114ca8161128f565b9050919050565b600060208201905081810360008301526114eb81846112b2565b905092915050565b60006114fd61150e565b9050611509828261169c565b919050565b6000604051905090565b600067ffffffffffffffff821115611533576115326117d2565b5b61153c82611815565b9050602081019050919050565b60008190508160005260206000209050919050565b600081519050919050565b600082825260208201905092915050565b600082825260208201905092915050565b600081905092915050565b60006115a1826115da565b9050919050565b60008115159050919050565b60008190506115c282611878565b919050565b60008190506115d58261188c565b919050565b600073ffffffffffffffffffffffffffffffffffffffff82169050919050565b6000819050919050565b600061160f826115b4565b9050919050565b6000611621826115c7565b9050919050565b82818337600083830152505050565b60005b8381101561165557808201518184015260208101905061163a565b83811115611664576000848401525b50505050565b6000600282049050600182168061168257607f821691505b6020821081141561169657611695611774565b5b50919050565b6116a582611815565b810181811067ffffffffffffffff821117156116c4576116c36117d2565b5b80604052505050565b60006116d8826115fa565b91507fffffffffffffffffffffffffffffffffffffffffffffffffffffffffffffffff82141561170b5761170a611716565b5b600182019050919050565b7f4e487b7100000000000000000000000000000000000000000000000000000000600052601160045260246000fd5b7f4e487b7100000000000000000000000000000000000000000000000000000000600052602160045260246000fd5b7f4e487b7100000000000000000000000000000000000000000000000000000000600052602260045260246000fd5b7f4e487b7100000000000000000000000000000000000000000000000000000000600052603260045260246000fd5b7f4e487b7100000000000000000000000000000000000000000000000000000000600052604160045260246000fd5b600080fd5b600080fd5b600080fd5b600080fd5b6000601f19601f8301169050919050565b7f4e6f74204f776e65722c2063616e6e6f742070657266726d204f500000000000600082015250565b7f4173736574206e6f7420666f756e640000000000000000000000000000000000600082015250565b6002811061188957611888611745565b5b50565b6002811061189d5761189c611745565b5b50565b6118a981611596565b81146118b457600080fd5b50565b6118c0816115a8565b81146118cb57600080fd5b50565b600281106118db57600080fd5b50565b600281106118eb57600080fd5b50565b6118f7816115fa565b811461190257600080fd5b5056fea2646970667358221220bc93f4f6ee919d53a229e072077e4ce515e570f84d6fa773efd21835c4a1d8a164736f6c63430008070033",
					"opcodes": "PUSH1 0x80 PUSH1 0x40 MSTORE CALLVALUE DUP1 ISZERO PUSH2 0x10 JUMPI PUSH1 0x0 DUP1 REVERT JUMPDEST POP CALLER PUSH1 0x0 DUP1 PUSH2 0x100 EXP DUP2 SLOAD DUP2 PUSH20 0xFFFFFFFFFFFFFFFFFFFFFFFFFFFFFFFFFFFFFFFF MUL NOT AND SWAP1 DUP4 PUSH20 0xFFFFFFFFFFFFFFFFFFFFFFFFFFFFFFFFFFFFFFFF AND MUL OR SWAP1 SSTORE POP PUSH2 0x193B DUP1 PUSH2 0x60 PUSH1 0x0 CODECOPY PUSH1 0x0 RETURN INVALID PUSH1 0x80 PUSH1 0x40 MSTORE CALLVALUE DUP1 ISZERO PUSH2 0x10 JUMPI PUSH1 0x0 DUP1 REVERT JUMPDEST POP PUSH1 0x4 CALLDATASIZE LT PUSH2 0x57 JUMPI PUSH1 0x0 CALLDATALOAD PUSH1 0xE0 SHR DUP1 PUSH4 0x671E3F75 EQ PUSH2 0x5C JUMPI DUP1 PUSH4 0x827401BB EQ PUSH2 0x8C JUMPI DUP1 PUSH4 0xE2574030 EQ PUSH2 0xBC JUMPI DUP1 PUSH4 0xE7149623 EQ PUSH2 0xEC JUMPI DUP1 PUSH4 0xF45EDBB9 EQ PUSH2 0x11C JUMPI JUMPDEST PUSH1 0x0 DUP1 REVERT JUMPDEST PUSH2 0x76 PUSH1 0x4 DUP1 CALLDATASIZE SUB DUP2 ADD SWAP1 PUSH2 0x71 SWAP2 SWAP1 PUSH2 0x1027 JUMP JUMPDEST PUSH2 0x14C JUMP JUMPDEST PUSH1 0x40 MLOAD PUSH2 0x83 SWAP2 SWAP1 PUSH2 0x1476 JUMP JUMPDEST PUSH1 0x40 MLOAD DUP1 SWAP2 SUB SWAP1 RETURN JUMPDEST PUSH2 0xA6 PUSH1 0x4 DUP1 CALLDATASIZE SUB DUP2 ADD SWAP1 PUSH2 0xA1 SWAP2 SWAP1 PUSH2 0x10A7 JUMP JUMPDEST PUSH2 0x3A6 JUMP JUMPDEST PUSH1 0x40 MLOAD PUSH2 0xB3 SWAP2 SWAP1 PUSH2 0x14D1 JUMP JUMPDEST PUSH1 0x40 MLOAD DUP1 SWAP2 SUB SWAP1 RETURN JUMPDEST PUSH2 0xD6 PUSH1 0x4 DUP1 CALLDATASIZE SUB DUP2 ADD SWAP1 PUSH2 0xD1 SWAP2 SWAP1 PUSH2 0xF14 JUMP JUMPDEST PUSH2 0x642 JUMP JUMPDEST PUSH1 0x40 MLOAD PUSH2 0xE3 SWAP2 SWAP1 PUSH2 0x14D1 JUMP JUMPDEST PUSH1 0x40 MLOAD DUP1 SWAP2 SUB SWAP1 RETURN JUMPDEST PUSH2 0x106 PUSH1 0x4 DUP1 CALLDATASIZE SUB DUP2 ADD SWAP1 PUSH2 0x101 SWAP2 SWAP1 PUSH2 0x1067 JUMP JUMPDEST PUSH2 0x8DF JUMP JUMPDEST PUSH1 0x40 MLOAD PUSH2 0x113 SWAP2 SWAP1 PUSH2 0x1476 JUMP JUMPDEST PUSH1 0x40 MLOAD DUP1 SWAP2 SUB SWAP1 RETURN JUMPDEST PUSH2 0x136 PUSH1 0x4 DUP1 CALLDATASIZE SUB DUP2 ADD SWAP1 PUSH2 0x131 SWAP2 SWAP1 PUSH2 0xF41 JUMP JUMPDEST PUSH2 0xAAA JUMP JUMPDEST PUSH1 0x40 MLOAD PUSH2 0x143 SWAP2 SWAP1 PUSH2 0x1476 JUMP JUMPDEST PUSH1 0x40 MLOAD DUP1 SWAP2 SUB SWAP1 RETURN JUMPDEST PUSH1 0x0 CALLER PUSH20 0xFFFFFFFFFFFFFFFFFFFFFFFFFFFFFFFFFFFFFFFF AND PUSH1 0x0 DUP1 SLOAD SWAP1 PUSH2 0x100 EXP SWAP1 DIV PUSH20 0xFFFFFFFFFFFFFFFFFFFFFFFFFFFFFFFFFFFFFFFF AND PUSH20 0xFFFFFFFFFFFFFFFFFFFFFFFFFFFFFFFFFFFFFFFF AND EQ PUSH2 0x1DC JUMPI PUSH1 0x40 MLOAD PUSH32 0x8C379A000000000000000000000000000000000000000000000000000000000 DUP2 MSTORE PUSH1 0x4 ADD PUSH2 0x1D3 SWAP1 PUSH2 0x1491 JUMP JUMPDEST PUSH1 0x40 MLOAD DUP1 SWAP2 SUB SWAP1 REVERT JUMPDEST PUSH1 0x0 PUSH1 0x1 DUP1 SLOAD SWAP1 POP SWAP1 POP PUSH1 0x0 JUMPDEST DUP2 DUP2 LT ISZERO PUSH2 0x360 JUMPI DUP5 PUSH20 0xFFFFFFFFFFFFFFFFFFFFFFFFFFFFFFFFFFFFFFFF AND PUSH1 0x1 DUP3 DUP2 SLOAD DUP2 LT PUSH2 0x21C JUMPI PUSH2 0x21B PUSH2 0x17A3 JUMP JUMPDEST JUMPDEST SWAP1 PUSH1 0x0 MSTORE PUSH1 0x20 PUSH1 0x0 KECCAK256 SWAP1 PUSH1 0x7 MUL ADD PUSH1 0x0 ADD PUSH1 0x0 SWAP1 SLOAD SWAP1 PUSH2 0x100 EXP SWAP1 DIV PUSH20 0xFFFFFFFFFFFFFFFFFFFFFFFFFFFFFFFFFFFFFFFF AND PUSH20 0xFFFFFFFFFFFFFFFFFFFFFFFFFFFFFFFFFFFFFFFF AND EQ ISZERO PUSH2 0x34D JUMPI PUSH1 0x0 PUSH1 0x1 DUP2 GT ISZERO PUSH2 0x27E JUMPI PUSH2 0x27D PUSH2 0x1745 JUMP JUMPDEST JUMPDEST DUP5 PUSH1 0x1 DUP2 GT ISZERO PUSH2 0x291 JUMPI PUSH2 0x290 PUSH2 0x1745 JUMP JUMPDEST JUMPDEST EQ ISZERO PUSH2 0x2D9 JUMPI PUSH1 0x1 DUP1 DUP3 DUP2 SLOAD DUP2 LT PUSH2 0x2AC JUMPI PUSH2 0x2AB PUSH2 0x17A3 JUMP JUMPDEST JUMPDEST SWAP1 PUSH1 0x0 MSTORE PUSH1 0x20 PUSH1 0x0 KECCAK256 SWAP1 PUSH1 0x7 MUL ADD PUSH1 0x6 ADD PUSH1 0x2 PUSH2 0x100 EXP DUP2 SLOAD DUP2 PUSH1 0xFF MUL NOT AND SWAP1 DUP4 ISZERO ISZERO MUL OR SWAP1 SSTORE POP PUSH2 0x318 JUMP JUMPDEST PUSH1 0x0 PUSH1 0x1 DUP3 DUP2 SLOAD DUP2 LT PUSH2 0x2EF JUMPI PUSH2 0x2EE PUSH2 0x17A3 JUMP JUMPDEST JUMPDEST SWAP1 PUSH1 0x0 MSTORE PUSH1 0x20 PUSH1 0x0 KECCAK256 SWAP1 PUSH1 0x7 MUL ADD PUSH1 0x6 ADD PUSH1 0x2 PUSH2 0x100 EXP DUP2 SLOAD DUP2 PUSH1 0xFF MUL NOT AND SWAP1 DUP4 ISZERO ISZERO MUL OR SWAP1 SSTORE POP JUMPDEST TIMESTAMP PUSH1 0x1 DUP3 DUP2 SLOAD DUP2 LT PUSH2 0x32D JUMPI PUSH2 0x32C PUSH2 0x17A3 JUMP JUMPDEST JUMPDEST SWAP1 PUSH1 0x0 MSTORE PUSH1 0x20 PUSH1 0x0 KECCAK256 SWAP1 PUSH1 0x7 MUL ADD PUSH1 0x5 ADD DUP2 SWAP1 SSTORE POP PUSH1 0x1 SWAP3 POP POP POP PUSH2 0x3A0 JUMP JUMPDEST DUP1 DUP1 PUSH2 0x358 SWAP1 PUSH2 0x16CD JUMP JUMPDEST SWAP2 POP POP PUSH2 0x1E9 JUMP JUMPDEST POP PUSH32 0x1BC4F6A74FDBF500E13DB259C58A58C59533EA54A4B93010D0126F6061EC3753 DUP5 DUP5 PUSH1 0x40 MLOAD PUSH2 0x392 SWAP3 SWAP2 SWAP1 PUSH2 0x13D8 JUMP JUMPDEST PUSH1 0x40 MLOAD DUP1 SWAP2 SUB SWAP1 LOG1 PUSH1 0x0 SWAP2 POP POP JUMPDEST SWAP3 SWAP2 POP POP JUMP JUMPDEST PUSH2 0x3AE PUSH2 0xD27 JUMP JUMPDEST PUSH1 0x0 PUSH1 0x1 DUP1 SLOAD SWAP1 POP SWAP1 POP PUSH1 0x0 JUMPDEST DUP2 DUP2 LT ISZERO PUSH2 0x601 JUMPI DUP4 PUSH1 0x40 MLOAD PUSH1 0x20 ADD PUSH2 0x3D4 SWAP2 SWAP1 PUSH2 0x13AA JUMP JUMPDEST PUSH1 0x40 MLOAD PUSH1 0x20 DUP2 DUP4 SUB SUB DUP2 MSTORE SWAP1 PUSH1 0x40 MSTORE DUP1 MLOAD SWAP1 PUSH1 0x20 ADD KECCAK256 PUSH1 0x1 DUP3 DUP2 SLOAD DUP2 LT PUSH2 0x3FE JUMPI PUSH2 0x3FD PUSH2 0x17A3 JUMP JUMPDEST JUMPDEST SWAP1 PUSH1 0x0 MSTORE PUSH1 0x20 PUSH1 0x0 KECCAK256 SWAP1 PUSH1 0x7 MUL ADD PUSH1 0x1 ADD PUSH1 0x40 MLOAD PUSH1 0x20 ADD PUSH2 0x41F SWAP2 SWAP1 PUSH2 0x13C1 JUMP JUMPDEST PUSH1 0x40 MLOAD PUSH1 0x20 DUP2 DUP4 SUB SUB DUP2 MSTORE SWAP1 PUSH1 0x40 MSTORE DUP1 MLOAD SWAP1 PUSH1 0x20 ADD KECCAK256 EQ ISZERO PUSH2 0x5EE JUMPI PUSH1 0x1 DUP2 DUP2 SLOAD DUP2 LT PUSH2 0x44F JUMPI PUSH2 0x44E PUSH2 0x17A3 JUMP JUMPDEST JUMPDEST SWAP1 PUSH1 0x0 MSTORE PUSH1 0x20 PUSH1 0x0 KECCAK256 SWAP1 PUSH1 0x7 MUL ADD PUSH1 0x40 MLOAD DUP1 PUSH2 0x140 ADD PUSH1 0x40 MSTORE SWAP1 DUP2 PUSH1 0x0 DUP3 ADD PUSH1 0x0 SWAP1 SLOAD SWAP1 PUSH2 0x100 EXP SWAP1 DIV PUSH20 0xFFFFFFFFFFFFFFFFFFFFFFFFFFFFFFFFFFFFFFFF AND PUSH20 0xFFFFFFFFFFFFFFFFFFFFFFFFFFFFFFFFFFFFFFFF AND PUSH20 0xFFFFFFFFFFFFFFFFFFFFFFFFFFFFFFFFFFFFFFFF AND DUP2 MSTORE PUSH1 0x20 ADD PUSH1 0x1 DUP3 ADD DUP1 SLOAD PUSH2 0x4CF SWAP1 PUSH2 0x166A JUMP JUMPDEST DUP1 PUSH1 0x1F ADD PUSH1 0x20 DUP1 SWAP2 DIV MUL PUSH1 0x20 ADD PUSH1 0x40 MLOAD SWAP1 DUP2 ADD PUSH1 0x40 MSTORE DUP1 SWAP3 SWAP2 SWAP1 DUP2 DUP2 MSTORE PUSH1 0x20 ADD DUP3 DUP1 SLOAD PUSH2 0x4FB SWAP1 PUSH2 0x166A JUMP JUMPDEST DUP1 ISZERO PUSH2 0x548 JUMPI DUP1 PUSH1 0x1F LT PUSH2 0x51D JUMPI PUSH2 0x100 DUP1 DUP4 SLOAD DIV MUL DUP4 MSTORE SWAP2 PUSH1 0x20 ADD SWAP2 PUSH2 0x548 JUMP JUMPDEST DUP3 ADD SWAP2 SWAP1 PUSH1 0x0 MSTORE PUSH1 0x20 PUSH1 0x0 KECCAK256 SWAP1 JUMPDEST DUP2 SLOAD DUP2 MSTORE SWAP1 PUSH1 0x1 ADD SWAP1 PUSH1 0x20 ADD DUP1 DUP4 GT PUSH2 0x52B JUMPI DUP3 SWAP1 SUB PUSH1 0x1F AND DUP3 ADD SWAP2 JUMPDEST POP POP POP POP POP DUP2 MSTORE PUSH1 0x20 ADD PUSH1 0x2 DUP3 ADD SLOAD DUP2 MSTORE PUSH1 0x20 ADD PUSH1 0x3 DUP3 ADD SLOAD DUP2 MSTORE PUSH1 0x20 ADD PUSH1 0x4 DUP3 ADD SLOAD DUP2 MSTORE PUSH1 0x20 ADD PUSH1 0x5 DUP3 ADD SLOAD DUP2 MSTORE PUSH1 0x20 ADD PUSH1 0x6 DUP3 ADD PUSH1 0x0 SWAP1 SLOAD SWAP1 PUSH2 0x100 EXP SWAP1 DIV PUSH1 0xFF AND ISZERO ISZERO ISZERO ISZERO DUP2 MSTORE PUSH1 0x20 ADD PUSH1 0x6 DUP3 ADD PUSH1 0x1 SWAP1 SLOAD SWAP1 PUSH2 0x100 EXP SWAP1 DIV PUSH1 0xFF AND ISZERO ISZERO ISZERO ISZERO DUP2 MSTORE PUSH1 0x20 ADD PUSH1 0x6 DUP3 ADD PUSH1 0x2 SWAP1 SLOAD SWAP1 PUSH2 0x100 EXP SWAP1 DIV PUSH1 0xFF AND ISZERO ISZERO ISZERO ISZERO DUP2 MSTORE PUSH1 0x20 ADD PUSH1 0x6 DUP3 ADD PUSH1 0x3 SWAP1 SLOAD SWAP1 PUSH2 0x100 EXP SWAP1 DIV PUSH1 0xFF AND ISZERO ISZERO ISZERO ISZERO DUP2 MSTORE POP POP SWAP3 POP POP POP PUSH2 0x63D JUMP JUMPDEST DUP1 DUP1 PUSH2 0x5F9 SWAP1 PUSH2 0x16CD JUMP JUMPDEST SWAP2 POP POP PUSH2 0x3BB JUMP JUMPDEST POP PUSH1 0x40 MLOAD PUSH32 0x8C379A000000000000000000000000000000000000000000000000000000000 DUP2 MSTORE PUSH1 0x4 ADD PUSH2 0x634 SWAP1 PUSH2 0x14B1 JUMP JUMPDEST PUSH1 0x40 MLOAD DUP1 SWAP2 SUB SWAP1 REVERT JUMPDEST SWAP2 SWAP1 POP JUMP JUMPDEST PUSH2 0x64A PUSH2 0xD27 JUMP JUMPDEST PUSH1 0x0 PUSH1 0x1 DUP1 SLOAD SWAP1 POP SWAP1 POP PUSH1 0x0 JUMPDEST DUP2 DUP2 LT ISZERO PUSH2 0x89E JUMPI DUP4 PUSH20 0xFFFFFFFFFFFFFFFFFFFFFFFFFFFFFFFFFFFFFFFF AND PUSH1 0x1 DUP3 DUP2 SLOAD DUP2 LT PUSH2 0x68A JUMPI PUSH2 0x689 PUSH2 0x17A3 JUMP JUMPDEST JUMPDEST SWAP1 PUSH1 0x0 MSTORE PUSH1 0x20 PUSH1 0x0 KECCAK256 SWAP1 PUSH1 0x7 MUL ADD PUSH1 0x0 ADD PUSH1 0x0 SWAP1 SLOAD SWAP1 PUSH2 0x100 EXP SWAP1 DIV PUSH20 0xFFFFFFFFFFFFFFFFFFFFFFFFFFFFFFFFFFFFFFFF AND PUSH20 0xFFFFFFFFFFFFFFFFFFFFFFFFFFFFFFFFFFFFFFFF AND EQ ISZERO PUSH2 0x88B JUMPI PUSH1 0x1 DUP2 DUP2 SLOAD DUP2 LT PUSH2 0x6EC JUMPI PUSH2 0x6EB PUSH2 0x17A3 JUMP JUMPDEST JUMPDEST SWAP1 PUSH1 0x0 MSTORE PUSH1 0x20 PUSH1 0x0 KECCAK256 SWAP1 PUSH1 0x7 MUL ADD PUSH1 0x40 MLOAD DUP1 PUSH2 0x140 ADD PUSH1 0x40 MSTORE SWAP1 DUP2 PUSH1 0x0 DUP3 ADD PUSH1 0x0 SWAP1 SLOAD SWAP1 PUSH2 0x100 EXP SWAP1 DIV PUSH20 0xFFFFFFFFFFFFFFFFFFFFFFFFFFFFFFFFFFFFFFFF AND PUSH20 0xFFFFFFFFFFFFFFFFFFFFFFFFFFFFFFFFFFFFFFFF AND PUSH20 0xFFFFFFFFFFFFFFFFFFFFFFFFFFFFFFFFFFFFFFFF AND DUP2 MSTORE PUSH1 0x20 ADD PUSH1 0x1 DUP3 ADD DUP1 SLOAD PUSH2 0x76C SWAP1 PUSH2 0x166A JUMP JUMPDEST DUP1 PUSH1 0x1F ADD PUSH1 0x20 DUP1 SWAP2 DIV MUL PUSH1 0x20 ADD PUSH1 0x40 MLOAD SWAP1 DUP2 ADD PUSH1 0x40 MSTORE DUP1 SWAP3 SWAP2 SWAP1 DUP2 DUP2 MSTORE PUSH1 0x20 ADD DUP3 DUP1 SLOAD PUSH2 0x798 SWAP1 PUSH2 0x166A JUMP JUMPDEST DUP1 ISZERO PUSH2 0x7E5 JUMPI DUP1 PUSH1 0x1F LT PUSH2 0x7BA JUMPI PUSH2 0x100 DUP1 DUP4 SLOAD DIV MUL DUP4 MSTORE SWAP2 PUSH1 0x20 ADD SWAP2 PUSH2 0x7E5 JUMP JUMPDEST DUP3 ADD SWAP2 SWAP1 PUSH1 0x0 MSTORE PUSH1 0x20 PUSH1 0x0 KECCAK256 SWAP1 JUMPDEST DUP2 SLOAD DUP2 MSTORE SWAP1 PUSH1 0x1 ADD SWAP1 PUSH1 0x20 ADD DUP1 DUP4 GT PUSH2 0x7C8 JUMPI DUP3 SWAP1 SUB PUSH1 0x1F AND DUP3 ADD SWAP2 JUMPDEST POP POP POP POP POP DUP2 MSTORE PUSH1 0x20 ADD PUSH1 0x2 DUP3 ADD SLOAD DUP2 MSTORE PUSH1 0x20 ADD PUSH1 0x3 DUP3 ADD SLOAD DUP2 MSTORE PUSH1 0x20 ADD PUSH1 0x4 DUP3 ADD SLOAD DUP2 MSTORE PUSH1 0x20 ADD PUSH1 0x5 DUP3 ADD SLOAD DUP2 MSTORE PUSH1 0x20 ADD PUSH1 0x6 DUP3 ADD PUSH1 0x0 SWAP1 SLOAD SWAP1 PUSH2 0x100 EXP SWAP1 DIV PUSH1 0xFF AND ISZERO ISZERO ISZERO ISZERO DUP2 MSTORE PUSH1 0x20 ADD PUSH1 0x6 DUP3 ADD PUSH1 0x1 SWAP1 SLOAD SWAP1 PUSH2 0x100 EXP SWAP1 DIV PUSH1 0xFF AND ISZERO ISZERO ISZERO ISZERO DUP2 MSTORE PUSH1 0x20 ADD PUSH1 0x6 DUP3 ADD PUSH1 0x2 SWAP1 SLOAD SWAP1 PUSH2 0x100 EXP SWAP1 DIV PUSH1 0xFF AND ISZERO ISZERO ISZERO ISZERO DUP2 MSTORE PUSH1 0x20 ADD PUSH1 0x6 DUP3 ADD PUSH1 0x3 SWAP1 SLOAD SWAP1 PUSH2 0x100 EXP SWAP1 DIV PUSH1 0xFF AND ISZERO ISZERO ISZERO ISZERO DUP2 MSTORE POP POP SWAP3 POP POP POP PUSH2 0x8DA JUMP JUMPDEST DUP1 DUP1 PUSH2 0x896 SWAP1 PUSH2 0x16CD JUMP JUMPDEST SWAP2 POP POP PUSH2 0x657 JUMP JUMPDEST POP PUSH1 0x40 MLOAD PUSH32 0x8C379A000000000000000000000000000000000000000000000000000000000 DUP2 MSTORE PUSH1 0x4 ADD PUSH2 0x8D1 SWAP1 PUSH2 0x14B1 JUMP JUMPDEST PUSH1 0x40 MLOAD DUP1 SWAP2 SUB SWAP1 REVERT JUMPDEST SWAP2 SWAP1 POP JUMP JUMPDEST PUSH1 0x0 DUP1 PUSH1 0x1 DUP1 SLOAD SWAP1 POP SWAP1 POP PUSH1 0x0 JUMPDEST DUP2 DUP2 LT ISZERO PUSH2 0xA64 JUMPI DUP5 PUSH20 0xFFFFFFFFFFFFFFFFFFFFFFFFFFFFFFFFFFFFFFFF AND PUSH1 0x1 DUP3 DUP2 SLOAD DUP2 LT PUSH2 0x920 JUMPI PUSH2 0x91F PUSH2 0x17A3 JUMP JUMPDEST JUMPDEST SWAP1 PUSH1 0x0 MSTORE PUSH1 0x20 PUSH1 0x0 KECCAK256 SWAP1 PUSH1 0x7 MUL ADD PUSH1 0x0 ADD PUSH1 0x0 SWAP1 SLOAD SWAP1 PUSH2 0x100 EXP SWAP1 DIV PUSH20 0xFFFFFFFFFFFFFFFFFFFFFFFFFFFFFFFFFFFFFFFF AND PUSH20 0xFFFFFFFFFFFFFFFFFFFFFFFFFFFFFFFFFFFFFFFF AND EQ ISZERO PUSH2 0xA51 JUMPI PUSH1 0x0 PUSH1 0x1 DUP2 GT ISZERO PUSH2 0x982 JUMPI PUSH2 0x981 PUSH2 0x1745 JUMP JUMPDEST JUMPDEST DUP5 PUSH1 0x1 DUP2 GT ISZERO PUSH2 0x995 JUMPI PUSH2 0x994 PUSH2 0x1745 JUMP JUMPDEST JUMPDEST EQ ISZERO PUSH2 0x9DD JUMPI PUSH1 0x1 DUP1 DUP3 DUP2 SLOAD DUP2 LT PUSH2 0x9B0 JUMPI PUSH2 0x9AF PUSH2 0x17A3 JUMP JUMPDEST JUMPDEST SWAP1 PUSH1 0x0 MSTORE PUSH1 0x20 PUSH1 0x0 KECCAK256 SWAP1 PUSH1 0x7 MUL ADD PUSH1 0x6 ADD PUSH1 0x2 PUSH2 0x100 EXP DUP2 SLOAD DUP2 PUSH1 0xFF MUL NOT AND SWAP1 DUP4 ISZERO ISZERO MUL OR SWAP1 SSTORE POP PUSH2 0xA1C JUMP JUMPDEST PUSH1 0x0 PUSH1 0x1 DUP3 DUP2 SLOAD DUP2 LT PUSH2 0x9F3 JUMPI PUSH2 0x9F2 PUSH2 0x17A3 JUMP JUMPDEST JUMPDEST SWAP1 PUSH1 0x0 MSTORE PUSH1 0x20 PUSH1 0x0 KECCAK256 SWAP1 PUSH1 0x7 MUL ADD PUSH1 0x6 ADD PUSH1 0x2 PUSH2 0x100 EXP DUP2 SLOAD DUP2 PUSH1 0xFF MUL NOT AND SWAP1 DUP4 ISZERO ISZERO MUL OR SWAP1 SSTORE POP JUMPDEST TIMESTAMP PUSH1 0x1 DUP3 DUP2 SLOAD DUP2 LT PUSH2 0xA31 JUMPI PUSH2 0xA30 PUSH2 0x17A3 JUMP JUMPDEST JUMPDEST SWAP1 PUSH1 0x0 MSTORE PUSH1 0x20 PUSH1 0x0 KECCAK256 SWAP1 PUSH1 0x7 MUL ADD PUSH1 0x5 ADD DUP2 SWAP1 SSTORE POP PUSH1 0x1 SWAP3 POP POP POP PUSH2 0xAA4 JUMP JUMPDEST DUP1 DUP1 PUSH2 0xA5C SWAP1 PUSH2 0x16CD JUMP JUMPDEST SWAP2 POP POP PUSH2 0x8ED JUMP JUMPDEST POP PUSH32 0x3F57EA1559CFEE0FF7804A8BBF56C488FBD7F8D575ACD8537D7F02A6FFB8BDB4 DUP5 DUP5 PUSH1 0x40 MLOAD PUSH2 0xA96 SWAP3 SWAP2 SWAP1 PUSH2 0x1401 JUMP JUMPDEST PUSH1 0x40 MLOAD DUP1 SWAP2 SUB SWAP1 LOG1 PUSH1 0x0 SWAP2 POP POP JUMPDEST SWAP3 SWAP2 POP POP JUMP JUMPDEST PUSH1 0x0 CALLER PUSH20 0xFFFFFFFFFFFFFFFFFFFFFFFFFFFFFFFFFFFFFFFF AND PUSH1 0x0 DUP1 SLOAD SWAP1 PUSH2 0x100 EXP SWAP1 DIV PUSH20 0xFFFFFFFFFFFFFFFFFFFFFFFFFFFFFFFFFFFFFFFF AND PUSH20 0xFFFFFFFFFFFFFFFFFFFFFFFFFFFFFFFFFFFFFFFF AND EQ PUSH2 0xB3A JUMPI PUSH1 0x40 MLOAD PUSH32 0x8C379A000000000000000000000000000000000000000000000000000000000 DUP2 MSTORE PUSH1 0x4 ADD PUSH2 0xB31 SWAP1 PUSH2 0x1491 JUMP JUMPDEST PUSH1 0x40 MLOAD DUP1 SWAP2 SUB SWAP1 REVERT JUMPDEST PUSH1 0x1 PUSH1 0x40 MLOAD DUP1 PUSH2 0x140 ADD PUSH1 0x40 MSTORE DUP1 DUP13 PUSH20 0xFFFFFFFFFFFFFFFFFFFFFFFFFFFFFFFFFFFFFFFF AND DUP2 MSTORE PUSH1 0x20 ADD DUP8 DUP2 MSTORE PUSH1 0x20 ADD DUP7 DUP2 MSTORE PUSH1 0x20 ADD DUP6 DUP2 MSTORE PUSH1 0x20 ADD DUP5 DUP2 MSTORE PUSH1 0x20 ADD TIMESTAMP DUP2 MSTORE PUSH1 0x20 ADD DUP12 ISZERO ISZERO DUP2 MSTORE PUSH1 0x20 ADD DUP11 ISZERO ISZERO DUP2 MSTORE PUSH1 0x20 ADD DUP10 ISZERO ISZERO DUP2 MSTORE PUSH1 0x20 ADD DUP9 ISZERO ISZERO DUP2 MSTORE POP SWAP1 DUP1 PUSH1 0x1 DUP2 SLOAD ADD DUP1 DUP3 SSTORE DUP1 SWAP2 POP POP PUSH1 0x1 SWAP1 SUB SWAP1 PUSH1 0x0 MSTORE PUSH1 0x20 PUSH1 0x0 KECCAK256 SWAP1 PUSH1 0x7 MUL ADD PUSH1 0x0 SWAP1 SWAP2 SWAP1 SWAP2 SWAP1 SWAP2 POP PUSH1 0x0 DUP3 ADD MLOAD DUP2 PUSH1 0x0 ADD PUSH1 0x0 PUSH2 0x100 EXP DUP2 SLOAD DUP2 PUSH20 0xFFFFFFFFFFFFFFFFFFFFFFFFFFFFFFFFFFFFFFFF MUL NOT AND SWAP1 DUP4 PUSH20 0xFFFFFFFFFFFFFFFFFFFFFFFFFFFFFFFFFFFFFFFF AND MUL OR SWAP1 SSTORE POP PUSH1 0x20 DUP3 ADD MLOAD DUP2 PUSH1 0x1 ADD SWAP1 DUP1 MLOAD SWAP1 PUSH1 0x20 ADD SWAP1 PUSH2 0xC2C SWAP3 SWAP2 SWAP1 PUSH2 0xD98 JUMP JUMPDEST POP PUSH1 0x40 DUP3 ADD MLOAD DUP2 PUSH1 0x2 ADD SSTORE PUSH1 0x60 DUP3 ADD MLOAD DUP2 PUSH1 0x3 ADD SSTORE PUSH1 0x80 DUP3 ADD MLOAD DUP2 PUSH1 0x4 ADD SSTORE PUSH1 0xA0 DUP3 ADD MLOAD DUP2 PUSH1 0x5 ADD SSTORE PUSH1 0xC0 DUP3 ADD MLOAD DUP2 PUSH1 0x6 ADD PUSH1 0x0 PUSH2 0x100 EXP DUP2 SLOAD DUP2 PUSH1 0xFF MUL NOT AND SWAP1 DUP4 ISZERO ISZERO MUL OR SWAP1 SSTORE POP PUSH1 0xE0 DUP3 ADD MLOAD DUP2 PUSH1 0x6 ADD PUSH1 0x1 PUSH2 0x100 EXP DUP2 SLOAD DUP2 PUSH1 0xFF MUL NOT AND SWAP1 DUP4 ISZERO ISZERO MUL OR SWAP1 SSTORE POP PUSH2 0x100 DUP3 ADD MLOAD DUP2 PUSH1 0x6 ADD PUSH1 0x2 PUSH2 0x100 EXP DUP2 SLOAD DUP2 PUSH1 0xFF MUL NOT AND SWAP1 DUP4 ISZERO ISZERO MUL OR SWAP1 SSTORE POP PUSH2 0x120 DUP3 ADD MLOAD DUP2 PUSH1 0x6 ADD PUSH1 0x3 PUSH2 0x100 EXP DUP2 SLOAD DUP2 PUSH1 0xFF MUL NOT AND SWAP1 DUP4 ISZERO ISZERO MUL OR SWAP1 SSTORE POP POP POP PUSH32 0xCD7BE9CA97D79D2C4048B8402AFD93BB5F487441DC211D4BD2E95011CCD423A0 DUP11 DUP7 DUP6 DUP6 PUSH1 0x40 MLOAD PUSH2 0xD0E SWAP5 SWAP4 SWAP3 SWAP2 SWAP1 PUSH2 0x142A JUMP JUMPDEST PUSH1 0x40 MLOAD DUP1 SWAP2 SUB SWAP1 LOG1 PUSH1 0x1 SWAP1 POP SWAP10 SWAP9 POP POP POP POP POP POP POP POP POP JUMP JUMPDEST PUSH1 0x40 MLOAD DUP1 PUSH2 0x140 ADD PUSH1 0x40 MSTORE DUP1 PUSH1 0x0 PUSH20 0xFFFFFFFFFFFFFFFFFFFFFFFFFFFFFFFFFFFFFFFF AND DUP2 MSTORE PUSH1 0x20 ADD PUSH1 0x60 DUP2 MSTORE PUSH1 0x20 ADD PUSH1 0x0 DUP2 MSTORE PUSH1 0x20 ADD PUSH1 0x0 DUP2 MSTORE PUSH1 0x20 ADD PUSH1 0x0 DUP2 MSTORE PUSH1 0x20 ADD PUSH1 0x0 DUP2 MSTORE PUSH1 0x20 ADD PUSH1 0x0 ISZERO ISZERO DUP2 MSTORE PUSH1 0x20 ADD PUSH1 0x0 ISZERO ISZERO DUP2 MSTORE PUSH1 0x20 ADD PUSH1 0x0 ISZERO ISZERO DUP2 MSTORE PUSH1 0x20 ADD PUSH1 0x0 ISZERO ISZERO DUP2 MSTORE POP SWAP1 JUMP JUMPDEST DUP3 DUP1 SLOAD PUSH2 0xDA4 SWAP1 PUSH2 0x166A JUMP JUMPDEST SWAP1 PUSH1 0x0 MSTORE PUSH1 0x20 PUSH1 0x0 KECCAK256 SWAP1 PUSH1 0x1F ADD PUSH1 0x20 SWAP1 DIV DUP2 ADD SWAP3 DUP3 PUSH2 0xDC6 JUMPI PUSH1 0x0 DUP6 SSTORE PUSH2 0xE0D JUMP JUMPDEST DUP3 PUSH1 0x1F LT PUSH2 0xDDF JUMPI DUP1 MLOAD PUSH1 0xFF NOT AND DUP4 DUP1 ADD OR DUP6 SSTORE PUSH2 0xE0D JUMP JUMPDEST DUP3 DUP1 ADD PUSH1 0x1 ADD DUP6 SSTORE DUP3 ISZERO PUSH2 0xE0D JUMPI SWAP2 DUP3 ADD JUMPDEST DUP3 DUP2 GT ISZERO PUSH2 0xE0C JUMPI DUP3 MLOAD DUP3 SSTORE SWAP2 PUSH1 0x20 ADD SWAP2 SWAP1 PUSH1 0x1 ADD SWAP1 PUSH2 0xDF1 JUMP JUMPDEST JUMPDEST POP SWAP1 POP PUSH2 0xE1A SWAP2 SWAP1 PUSH2 0xE1E JUMP JUMPDEST POP SWAP1 JUMP JUMPDEST JUMPDEST DUP1 DUP3 GT ISZERO PUSH2 0xE37 JUMPI PUSH1 0x0 DUP2 PUSH1 0x0 SWAP1 SSTORE POP PUSH1 0x1 ADD PUSH2 0xE1F JUMP JUMPDEST POP SWAP1 JUMP JUMPDEST PUSH1 0x0 PUSH2 0xE4E PUSH2 0xE49 DUP5 PUSH2 0x1518 JUMP JUMPDEST PUSH2 0x14F3 JUMP JUMPDEST SWAP1 POP DUP3 DUP2 MSTORE PUSH1 0x20 DUP2 ADD DUP5 DUP5 DUP5 ADD GT ISZERO PUSH2 0xE6A JUMPI PUSH2 0xE69 PUSH2 0x1806 JUMP JUMPDEST JUMPDEST PUSH2 0xE75 DUP5 DUP3 DUP6 PUSH2 0x1628 JUMP JUMPDEST POP SWAP4 SWAP3 POP POP POP JUMP JUMPDEST PUSH1 0x0 DUP2 CALLDATALOAD SWAP1 POP PUSH2 0xE8C DUP2 PUSH2 0x18A0 JUMP JUMPDEST SWAP3 SWAP2 POP POP JUMP JUMPDEST PUSH1 0x0 DUP2 CALLDATALOAD SWAP1 POP PUSH2 0xEA1 DUP2 PUSH2 0x18B7 JUMP JUMPDEST SWAP3 SWAP2 POP POP JUMP JUMPDEST PUSH1 0x0 DUP2 CALLDATALOAD SWAP1 POP PUSH2 0xEB6 DUP2 PUSH2 0x18CE JUMP JUMPDEST SWAP3 SWAP2 POP POP JUMP JUMPDEST PUSH1 0x0 DUP2 CALLDATALOAD SWAP1 POP PUSH2 0xECB DUP2 PUSH2 0x18DE JUMP JUMPDEST SWAP3 SWAP2 POP POP JUMP JUMPDEST PUSH1 0x0 DUP3 PUSH1 0x1F DUP4 ADD SLT PUSH2 0xEE6 JUMPI PUSH2 0xEE5 PUSH2 0x1801 JUMP JUMPDEST JUMPDEST DUP2 CALLDATALOAD PUSH2 0xEF6 DUP5 DUP3 PUSH1 0x20 DUP7 ADD PUSH2 0xE3B JUMP JUMPDEST SWAP2 POP POP SWAP3 SWAP2 POP POP JUMP JUMPDEST PUSH1 0x0 DUP2 CALLDATALOAD SWAP1 POP PUSH2 0xF0E DUP2 PUSH2 0x18EE JUMP JUMPDEST SWAP3 SWAP2 POP POP JUMP JUMPDEST PUSH1 0x0 PUSH1 0x20 DUP3 DUP5 SUB SLT ISZERO PUSH2 0xF2A JUMPI PUSH2 0xF29 PUSH2 0x1810 JUMP JUMPDEST JUMPDEST PUSH1 0x0 PUSH2 0xF38 DUP5 DUP3 DUP6 ADD PUSH2 0xE7D JUMP JUMPDEST SWAP2 POP POP SWAP3 SWAP2 POP POP JUMP JUMPDEST PUSH1 0x0 DUP1 PUSH1 0x0 DUP1 PUSH1 0x0 DUP1 PUSH1 0x0 DUP1 PUSH1 0x0 PUSH2 0x120 DUP11 DUP13 SUB SLT ISZERO PUSH2 0xF64 JUMPI PUSH2 0xF63 PUSH2 0x1810 JUMP JUMPDEST JUMPDEST PUSH1 0x0 PUSH2 0xF72 DUP13 DUP3 DUP14 ADD PUSH2 0xE7D JUMP JUMPDEST SWAP10 POP POP PUSH1 0x20 PUSH2 0xF83 DUP13 DUP3 DUP14 ADD PUSH2 0xE92 JUMP JUMPDEST SWAP9 POP POP PUSH1 0x40 PUSH2 0xF94 DUP13 DUP3 DUP14 ADD PUSH2 0xE92 JUMP JUMPDEST SWAP8 POP POP PUSH1 0x60 PUSH2 0xFA5 DUP13 DUP3 DUP14 ADD PUSH2 0xE92 JUMP JUMPDEST SWAP7 POP POP PUSH1 0x80 PUSH2 0xFB6 DUP13 DUP3 DUP14 ADD PUSH2 0xE92 JUMP JUMPDEST SWAP6 POP POP PUSH1 0xA0 DUP11 ADD CALLDATALOAD PUSH8 0xFFFFFFFFFFFFFFFF DUP2 GT ISZERO PUSH2 0xFD7 JUMPI PUSH2 0xFD6 PUSH2 0x180B JUMP JUMPDEST JUMPDEST PUSH2 0xFE3 DUP13 DUP3 DUP14 ADD PUSH2 0xED1 JUMP JUMPDEST SWAP5 POP POP PUSH1 0xC0 PUSH2 0xFF4 DUP13 DUP3 DUP14 ADD PUSH2 0xEFF JUMP JUMPDEST SWAP4 POP POP PUSH1 0xE0 PUSH2 0x1005 DUP13 DUP3 DUP14 ADD PUSH2 0xEFF JUMP JUMPDEST SWAP3 POP POP PUSH2 0x100 PUSH2 0x1017 DUP13 DUP3 DUP14 ADD PUSH2 0xEFF JUMP JUMPDEST SWAP2 POP POP SWAP3 SWAP6 SWAP9 POP SWAP3 SWAP6 SWAP9 POP SWAP3 SWAP6 SWAP9 JUMP JUMPDEST PUSH1 0x0 DUP1 PUSH1 0x40 DUP4 DUP6 SUB SLT ISZERO PUSH2 0x103E JUMPI PUSH2 0x103D PUSH2 0x1810 JUMP JUMPDEST JUMPDEST PUSH1 0x0 PUSH2 0x104C DUP6 DUP3 DUP7 ADD PUSH2 0xE7D JUMP JUMPDEST SWAP3 POP POP PUSH1 0x20 PUSH2 0x105D DUP6 DUP3 DUP7 ADD PUSH2 0xEA7 JUMP JUMPDEST SWAP2 POP POP SWAP3 POP SWAP3 SWAP1 POP JUMP JUMPDEST PUSH1 0x0 DUP1 PUSH1 0x40 DUP4 DUP6 SUB SLT ISZERO PUSH2 0x107E JUMPI PUSH2 0x107D PUSH2 0x1810 JUMP JUMPDEST JUMPDEST PUSH1 0x0 PUSH2 0x108C DUP6 DUP3 DUP7 ADD PUSH2 0xE7D JUMP JUMPDEST SWAP3 POP POP PUSH1 0x20 PUSH2 0x109D DUP6 DUP3 DUP7 ADD PUSH2 0xEBC JUMP JUMPDEST SWAP2 POP POP SWAP3 POP SWAP3 SWAP1 POP JUMP JUMPDEST PUSH1 0x0 PUSH1 0x20 DUP3 DUP5 SUB SLT ISZERO PUSH2 0x10BD JUMPI PUSH2 0x10BC PUSH2 0x1810 JUMP JUMPDEST JUMPDEST PUSH1 0x0 DUP3 ADD CALLDATALOAD PUSH8 0xFFFFFFFFFFFFFFFF DUP2 GT ISZERO PUSH2 0x10DB JUMPI PUSH2 0x10DA PUSH2 0x180B JUMP JUMPDEST JUMPDEST PUSH2 0x10E7 DUP5 DUP3 DUP6 ADD PUSH2 0xED1 JUMP JUMPDEST SWAP2 POP POP SWAP3 SWAP2 POP POP JUMP JUMPDEST PUSH2 0x10F9 DUP2 PUSH2 0x1596 JUMP JUMPDEST DUP3 MSTORE POP POP JUMP JUMPDEST PUSH2 0x1108 DUP2 PUSH2 0x1596 JUMP JUMPDEST DUP3 MSTORE POP POP JUMP JUMPDEST PUSH2 0x1117 DUP2 PUSH2 0x15A8 JUMP JUMPDEST DUP3 MSTORE POP POP JUMP JUMPDEST PUSH2 0x1126 DUP2 PUSH2 0x15A8 JUMP JUMPDEST DUP3 MSTORE POP POP JUMP JUMPDEST PUSH2 0x1135 DUP2 PUSH2 0x1604 JUMP JUMPDEST DUP3 MSTORE POP POP JUMP JUMPDEST PUSH2 0x1144 DUP2 PUSH2 0x1616 JUMP JUMPDEST DUP3 MSTORE POP POP JUMP JUMPDEST PUSH1 0x0 PUSH2 0x1155 DUP3 PUSH2 0x155E JUMP JUMPDEST PUSH2 0x115F DUP2 DUP6 PUSH2 0x1569 JUMP JUMPDEST SWAP4 POP PUSH2 0x116F DUP2 DUP6 PUSH1 0x20 DUP7 ADD PUSH2 0x1637 JUMP JUMPDEST PUSH2 0x1178 DUP2 PUSH2 0x1815 JUMP JUMPDEST DUP5 ADD SWAP2 POP POP SWAP3 SWAP2 POP POP JUMP JUMPDEST PUSH1 0x0 PUSH2 0x118E DUP3 PUSH2 0x155E JUMP JUMPDEST PUSH2 0x1198 DUP2 DUP6 PUSH2 0x157A JUMP JUMPDEST SWAP4 POP PUSH2 0x11A8 DUP2 DUP6 PUSH1 0x20 DUP7 ADD PUSH2 0x1637 JUMP JUMPDEST PUSH2 0x11B1 DUP2 PUSH2 0x1815 JUMP JUMPDEST DUP5 ADD SWAP2 POP POP SWAP3 SWAP2 POP POP JUMP JUMPDEST PUSH1 0x0 PUSH2 0x11C7 DUP3 PUSH2 0x155E JUMP JUMPDEST PUSH2 0x11D1 DUP2 DUP6 PUSH2 0x158B JUMP JUMPDEST SWAP4 POP PUSH2 0x11E1 DUP2 DUP6 PUSH1 0x20 DUP7 ADD PUSH2 0x1637 JUMP JUMPDEST DUP1 DUP5 ADD SWAP2 POP POP SWAP3 SWAP2 POP POP JUMP JUMPDEST PUSH1 0x0 DUP2 SLOAD PUSH2 0x11FA DUP2 PUSH2 0x166A JUMP JUMPDEST PUSH2 0x1204 DUP2 DUP7 PUSH2 0x158B JUMP JUMPDEST SWAP5 POP PUSH1 0x1 DUP3 AND PUSH1 0x0 DUP2 EQ PUSH2 0x121F JUMPI PUSH1 0x1 DUP2 EQ PUSH2 0x1230 JUMPI PUSH2 0x1263 JUMP JUMPDEST PUSH1 0xFF NOT DUP4 AND DUP7 MSTORE DUP2 DUP7 ADD SWAP4 POP PUSH2 0x1263 JUMP JUMPDEST PUSH2 0x1239 DUP6 PUSH2 0x1549 JUMP JUMPDEST PUSH1 0x0 JUMPDEST DUP4 DUP2 LT ISZERO PUSH2 0x125B JUMPI DUP2 SLOAD DUP2 DUP10 ADD MSTORE PUSH1 0x1 DUP3 ADD SWAP2 POP PUSH1 0x20 DUP2 ADD SWAP1 POP PUSH2 0x123C JUMP JUMPDEST DUP4 DUP9 ADD SWAP6 POP POP POP JUMPDEST POP POP POP SWAP3 SWAP2 POP POP JUMP JUMPDEST PUSH1 0x0 PUSH2 0x1279 PUSH1 0x1B DUP4 PUSH2 0x157A JUMP JUMPDEST SWAP2 POP PUSH2 0x1284 DUP3 PUSH2 0x1826 JUMP JUMPDEST PUSH1 0x20 DUP3 ADD SWAP1 POP SWAP2 SWAP1 POP JUMP JUMPDEST PUSH1 0x0 PUSH2 0x129C PUSH1 0xF DUP4 PUSH2 0x157A JUMP JUMPDEST SWAP2 POP PUSH2 0x12A7 DUP3 PUSH2 0x184F JUMP JUMPDEST PUSH1 0x20 DUP3 ADD SWAP1 POP SWAP2 SWAP1 POP JUMP JUMPDEST PUSH1 0x0 PUSH2 0x140 DUP4 ADD PUSH1 0x0 DUP4 ADD MLOAD PUSH2 0x12CB PUSH1 0x0 DUP7 ADD DUP3 PUSH2 0x10F0 JUMP JUMPDEST POP PUSH1 0x20 DUP4 ADD MLOAD DUP5 DUP3 SUB PUSH1 0x20 DUP7 ADD MSTORE PUSH2 0x12E3 DUP3 DUP3 PUSH2 0x114A JUMP JUMPDEST SWAP2 POP POP PUSH1 0x40 DUP4 ADD MLOAD PUSH2 0x12F8 PUSH1 0x40 DUP7 ADD DUP3 PUSH2 0x138C JUMP JUMPDEST POP PUSH1 0x60 DUP4 ADD MLOAD PUSH2 0x130B PUSH1 0x60 DUP7 ADD DUP3 PUSH2 0x138C JUMP JUMPDEST POP PUSH1 0x80 DUP4 ADD MLOAD PUSH2 0x131E PUSH1 0x80 DUP7 ADD DUP3 PUSH2 0x138C JUMP JUMPDEST POP PUSH1 0xA0 DUP4 ADD MLOAD PUSH2 0x1331 PUSH1 0xA0 DUP7 ADD DUP3 PUSH2 0x138C JUMP JUMPDEST POP PUSH1 0xC0 DUP4 ADD MLOAD PUSH2 0x1344 PUSH1 0xC0 DUP7 ADD DUP3 PUSH2 0x110E JUMP JUMPDEST POP PUSH1 0xE0 DUP4 ADD MLOAD PUSH2 0x1357 PUSH1 0xE0 DUP7 ADD DUP3 PUSH2 0x110E JUMP JUMPDEST POP PUSH2 0x100 DUP4 ADD MLOAD PUSH2 0x136C PUSH2 0x100 DUP7 ADD DUP3 PUSH2 0x110E JUMP JUMPDEST POP PUSH2 0x120 DUP4 ADD MLOAD PUSH2 0x1381 PUSH2 0x120 DUP7 ADD DUP3 PUSH2 0x110E JUMP JUMPDEST POP DUP1 SWAP2 POP POP SWAP3 SWAP2 POP POP JUMP JUMPDEST PUSH2 0x1395 DUP2 PUSH2 0x15FA JUMP JUMPDEST DUP3 MSTORE POP POP JUMP JUMPDEST PUSH2 0x13A4 DUP2 PUSH2 0x15FA JUMP JUMPDEST DUP3 MSTORE POP POP JUMP JUMPDEST PUSH1 0x0 PUSH2 0x13B6 DUP3 DUP5 PUSH2 0x11BC JUMP JUMPDEST SWAP2 POP DUP2 SWAP1 POP SWAP3 SWAP2 POP POP JUMP JUMPDEST PUSH1 0x0 PUSH2 0x13CD DUP3 DUP5 PUSH2 0x11ED JUMP JUMPDEST SWAP2 POP DUP2 SWAP1 POP SWAP3 SWAP2 POP POP JUMP JUMPDEST PUSH1 0x0 PUSH1 0x40 DUP3 ADD SWAP1 POP PUSH2 0x13ED PUSH1 0x0 DUP4 ADD DUP6 PUSH2 0x10FF JUMP JUMPDEST PUSH2 0x13FA PUSH1 0x20 DUP4 ADD DUP5 PUSH2 0x112C JUMP JUMPDEST SWAP4 SWAP3 POP POP POP JUMP JUMPDEST PUSH1 0x0 PUSH1 0x40 DUP3 ADD SWAP1 POP PUSH2 0x1416 PUSH1 0x0 DUP4 ADD DUP6 PUSH2 0x10FF JUMP JUMPDEST PUSH2 0x1423 PUSH1 0x20 DUP4 ADD DUP5 PUSH2 0x113B JUMP JUMPDEST SWAP4 SWAP3 POP POP POP JUMP JUMPDEST PUSH1 0x0 PUSH1 0x80 DUP3 ADD SWAP1 POP PUSH2 0x143F PUSH1 0x0 DUP4 ADD DUP8 PUSH2 0x10FF JUMP JUMPDEST DUP2 DUP2 SUB PUSH1 0x20 DUP4 ADD MSTORE PUSH2 0x1451 DUP2 DUP7 PUSH2 0x1183 JUMP JUMPDEST SWAP1 POP PUSH2 0x1460 PUSH1 0x40 DUP4 ADD DUP6 PUSH2 0x139B JUMP JUMPDEST PUSH2 0x146D PUSH1 0x60 DUP4 ADD DUP5 PUSH2 0x139B JUMP JUMPDEST SWAP6 SWAP5 POP POP POP POP POP JUMP JUMPDEST PUSH1 0x0 PUSH1 0x20 DUP3 ADD SWAP1 POP PUSH2 0x148B PUSH1 0x0 DUP4 ADD DUP5 PUSH2 0x111D JUMP JUMPDEST SWAP3 SWAP2 POP POP JUMP JUMPDEST PUSH1 0x0 PUSH1 0x20 DUP3 ADD SWAP1 POP DUP2 DUP2 SUB PUSH1 0x0 DUP4 ADD MSTORE PUSH2 0x14AA DUP2 PUSH2 0x126C JUMP JUMPDEST SWAP1 POP SWAP2 SWAP1 POP JUMP JUMPDEST PUSH1 0x0 PUSH1 0x20 DUP3 ADD SWAP1 POP DUP2 DUP2 SUB PUSH1 0x0 DUP4 ADD MSTORE PUSH2 0x14CA DUP2 PUSH2 0x128F JUMP JUMPDEST SWAP1 POP SWAP2 SWAP1 POP JUMP JUMPDEST PUSH1 0x0 PUSH1 0x20 DUP3 ADD SWAP1 POP DUP2 DUP2 SUB PUSH1 0x0 DUP4 ADD MSTORE PUSH2 0x14EB DUP2 DUP5 PUSH2 0x12B2 JUMP JUMPDEST SWAP1 POP SWAP3 SWAP2 POP POP JUMP JUMPDEST PUSH1 0x0 PUSH2 0x14FD PUSH2 0x150E JUMP JUMPDEST SWAP1 POP PUSH2 0x1509 DUP3 DUP3 PUSH2 0x169C JUMP JUMPDEST SWAP2 SWAP1 POP JUMP JUMPDEST PUSH1 0x0 PUSH1 0x40 MLOAD SWAP1 POP SWAP1 JUMP JUMPDEST PUSH1 0x0 PUSH8 0xFFFFFFFFFFFFFFFF DUP3 GT ISZERO PUSH2 0x1533 JUMPI PUSH2 0x1532 PUSH2 0x17D2 JUMP JUMPDEST JUMPDEST PUSH2 0x153C DUP3 PUSH2 0x1815 JUMP JUMPDEST SWAP1 POP PUSH1 0x20 DUP2 ADD SWAP1 POP SWAP2 SWAP1 POP JUMP JUMPDEST PUSH1 0x0 DUP2 SWAP1 POP DUP2 PUSH1 0x0 MSTORE PUSH1 0x20 PUSH1 0x0 KECCAK256 SWAP1 POP SWAP2 SWAP1 POP JUMP JUMPDEST PUSH1 0x0 DUP2 MLOAD SWAP1 POP SWAP2 SWAP1 POP JUMP JUMPDEST PUSH1 0x0 DUP3 DUP3 MSTORE PUSH1 0x20 DUP3 ADD SWAP1 POP SWAP3 SWAP2 POP POP JUMP JUMPDEST PUSH1 0x0 DUP3 DUP3 MSTORE PUSH1 0x20 DUP3 ADD SWAP1 POP SWAP3 SWAP2 POP POP JUMP JUMPDEST PUSH1 0x0 DUP2 SWAP1 POP SWAP3 SWAP2 POP POP JUMP JUMPDEST PUSH1 0x0 PUSH2 0x15A1 DUP3 PUSH2 0x15DA JUMP JUMPDEST SWAP1 POP SWAP2 SWAP1 POP JUMP JUMPDEST PUSH1 0x0 DUP2 ISZERO ISZERO SWAP1 POP SWAP2 SWAP1 POP JUMP JUMPDEST PUSH1 0x0 DUP2 SWAP1 POP PUSH2 0x15C2 DUP3 PUSH2 0x1878 JUMP JUMPDEST SWAP2 SWAP1 POP JUMP JUMPDEST PUSH1 0x0 DUP2 SWAP1 POP PUSH2 0x15D5 DUP3 PUSH2 0x188C JUMP JUMPDEST SWAP2 SWAP1 POP JUMP JUMPDEST PUSH1 0x0 PUSH20 0xFFFFFFFFFFFFFFFFFFFFFFFFFFFFFFFFFFFFFFFF DUP3 AND SWAP1 POP SWAP2 SWAP1 POP JUMP JUMPDEST PUSH1 0x0 DUP2 SWAP1 POP SWAP2 SWAP1 POP JUMP JUMPDEST PUSH1 0x0 PUSH2 0x160F DUP3 PUSH2 0x15B4 JUMP JUMPDEST SWAP1 POP SWAP2 SWAP1 POP JUMP JUMPDEST PUSH1 0x0 PUSH2 0x1621 DUP3 PUSH2 0x15C7 JUMP JUMPDEST SWAP1 POP SWAP2 SWAP1 POP JUMP JUMPDEST DUP3 DUP2 DUP4 CALLDATACOPY PUSH1 0x0 DUP4 DUP4 ADD MSTORE POP POP POP JUMP JUMPDEST PUSH1 0x0 JUMPDEST DUP4 DUP2 LT ISZERO PUSH2 0x1655 JUMPI DUP1 DUP3 ADD MLOAD DUP2 DUP5 ADD MSTORE PUSH1 0x20 DUP2 ADD SWAP1 POP PUSH2 0x163A JUMP JUMPDEST DUP4 DUP2 GT ISZERO PUSH2 0x1664 JUMPI PUSH1 0x0 DUP5 DUP5 ADD MSTORE JUMPDEST POP POP POP POP JUMP JUMPDEST PUSH1 0x0 PUSH1 0x2 DUP3 DIV SWAP1 POP PUSH1 0x1 DUP3 AND DUP1 PUSH2 0x1682 JUMPI PUSH1 0x7F DUP3 AND SWAP2 POP JUMPDEST PUSH1 0x20 DUP3 LT DUP2 EQ ISZERO PUSH2 0x1696 JUMPI PUSH2 0x1695 PUSH2 0x1774 JUMP JUMPDEST JUMPDEST POP SWAP2 SWAP1 POP JUMP JUMPDEST PUSH2 0x16A5 DUP3 PUSH2 0x1815 JUMP JUMPDEST DUP2 ADD DUP2 DUP2 LT PUSH8 0xFFFFFFFFFFFFFFFF DUP3 GT OR ISZERO PUSH2 0x16C4 JUMPI PUSH2 0x16C3 PUSH2 0x17D2 JUMP JUMPDEST JUMPDEST DUP1 PUSH1 0x40 MSTORE POP POP POP JUMP JUMPDEST PUSH1 0x0 PUSH2 0x16D8 DUP3 PUSH2 0x15FA JUMP JUMPDEST SWAP2 POP PUSH32 0xFFFFFFFFFFFFFFFFFFFFFFFFFFFFFFFFFFFFFFFFFFFFFFFFFFFFFFFFFFFFFFFF DUP3 EQ ISZERO PUSH2 0x170B JUMPI PUSH2 0x170A PUSH2 0x1716 JUMP JUMPDEST JUMPDEST PUSH1 0x1 DUP3 ADD SWAP1 POP SWAP2 SWAP1 POP JUMP JUMPDEST PUSH32 0x4E487B7100000000000000000000000000000000000000000000000000000000 PUSH1 0x0 MSTORE PUSH1 0x11 PUSH1 0x4 MSTORE PUSH1 0x24 PUSH1 0x0 REVERT JUMPDEST PUSH32 0x4E487B7100000000000000000000000000000000000000000000000000000000 PUSH1 0x0 MSTORE PUSH1 0x21 PUSH1 0x4 MSTORE PUSH1 0x24 PUSH1 0x0 REVERT JUMPDEST PUSH32 0x4E487B7100000000000000000000000000000000000000000000000000000000 PUSH1 0x0 MSTORE PUSH1 0x22 PUSH1 0x4 MSTORE PUSH1 0x24 PUSH1 0x0 REVERT JUMPDEST PUSH32 0x4E487B7100000000000000000000000000000000000000000000000000000000 PUSH1 0x0 MSTORE PUSH1 0x32 PUSH1 0x4 MSTORE PUSH1 0x24 PUSH1 0x0 REVERT JUMPDEST PUSH32 0x4E487B7100000000000000000000000000000000000000000000000000000000 PUSH1 0x0 MSTORE PUSH1 0x41 PUSH1 0x4 MSTORE PUSH1 0x24 PUSH1 0x0 REVERT JUMPDEST PUSH1 0x0 DUP1 REVERT JUMPDEST PUSH1 0x0 DUP1 REVERT JUMPDEST PUSH1 0x0 DUP1 REVERT JUMPDEST PUSH1 0x0 DUP1 REVERT JUMPDEST PUSH1 0x0 PUSH1 0x1F NOT PUSH1 0x1F DUP4 ADD AND SWAP1 POP SWAP2 SWAP1 POP JUMP JUMPDEST PUSH32 0x4E6F74204F776E65722C2063616E6E6F742070657266726D204F500000000000 PUSH1 0x0 DUP3 ADD MSTORE POP JUMP JUMPDEST PUSH32 0x4173736574206E6F7420666F756E640000000000000000000000000000000000 PUSH1 0x0 DUP3 ADD MSTORE POP JUMP JUMPDEST PUSH1 0x2 DUP2 LT PUSH2 0x1889 JUMPI PUSH2 0x1888 PUSH2 0x1745 JUMP JUMPDEST JUMPDEST POP JUMP JUMPDEST PUSH1 0x2 DUP2 LT PUSH2 0x189D JUMPI PUSH2 0x189C PUSH2 0x1745 JUMP JUMPDEST JUMPDEST POP JUMP JUMPDEST PUSH2 0x18A9 DUP2 PUSH2 0x1596 JUMP JUMPDEST DUP2 EQ PUSH2 0x18B4 JUMPI PUSH1 0x0 DUP1 REVERT JUMPDEST POP JUMP JUMPDEST PUSH2 0x18C0 DUP2 PUSH2 0x15A8 JUMP JUMPDEST DUP2 EQ PUSH2 0x18CB JUMPI PUSH1 0x0 DUP1 REVERT JUMPDEST POP JUMP JUMPDEST PUSH1 0x2 DUP2 LT PUSH2 0x18DB JUMPI PUSH1 0x0 DUP1 REVERT JUMPDEST POP JUMP JUMPDEST PUSH1 0x2 DUP2 LT PUSH2 0x18EB JUMPI PUSH1 0x0 DUP1 REVERT JUMPDEST POP JUMP JUMPDEST PUSH2 0x18F7 DUP2 PUSH2 0x15FA JUMP JUMPDEST DUP2 EQ PUSH2 0x1902 JUMPI PUSH1 0x0 DUP1 REVERT JUMPDEST POP JUMP INVALID LOG2 PUSH5 0x6970667358 0x22 SLT KECCAK256 0xBC SWAP4 DELEGATECALL 0xF6 0xEE SWAP2 SWAP14 MSTORE8 LOG2 0x29 0xE0 PUSH19 0x77E4CE515E570F84D6FA773EFD21835C4A1D8 LOG1 PUSH5 0x736F6C6343 STOP ADDMOD SMOD STOP CALLER "
				},
				"gasEstimates": {
					"creation": {
						"codeDepositCost": "1291800",
						"executionCost": "25608",
						"totalCost": "1317408"
					},
					"external": {
						"addAssets(address,bool,bool,bool,bool,string,uint256,uint256,uint256)": "infinite",
						"freezeUnFreezeAsset(address,uint8)": "infinite",
						"getAssetByTokenAddress(address)": "infinite",
						"getAssetByTokenSymbol(string)": "infinite",
						"makeAssetActiveInactive(address,uint8)": "infinite"
					}
				},
				"methodIdentifiers": {
					"addAssets(address,bool,bool,bool,bool,string,uint256,uint256,uint256)": "f45edbb9",
					"freezeUnFreezeAsset(address,uint8)": "e7149623",
					"getAssetByTokenAddress(address)": "e2574030",
					"getAssetByTokenSymbol(string)": "827401bb",
					"makeAssetActiveInactive(address,uint8)": "671e3f75"
				}
			},
			"storageLayout": {
				"storage": [
					{
						"astId": 82,
						"contract": "Defi-project/V2/LendingConfig.sol:LendingPoolConfig",
						"label": "owner",
						"offset": 0,
						"slot": "0",
						"type": "t_address"
					},
					{
						"astId": 158,
						"contract": "Defi-project/V2/LendingConfig.sol:LendingPoolConfig",
						"label": "assets",
						"offset": 0,
						"slot": "1",
						"type": "t_array(t_struct(Asset)154_storage)dyn_storage"
					}
				],
				"types": {
					"t_address": {
						"encoding": "inplace",
						"label": "address",
						"numberOfBytes": "20"
					},
					"t_array(t_struct(Asset)154_storage)dyn_storage": {
						"base": "t_struct(Asset)154_storage",
						"encoding": "dynamic_array",
						"label": "struct LendingPoolConfig.Asset[]",
						"numberOfBytes": "32"
					},
					"t_bool": {
						"encoding": "inplace",
						"label": "bool",
						"numberOfBytes": "1"
					},
					"t_string_storage": {
						"encoding": "bytes",
						"label": "string",
						"numberOfBytes": "32"
					},
					"t_struct(Asset)154_storage": {
						"encoding": "inplace",
						"label": "struct LendingPoolConfig.Asset",
						"members": [
							{
								"astId": 135,
								"contract": "Defi-project/V2/LendingConfig.sol:LendingPoolConfig",
								"label": "token",
								"offset": 0,
								"slot": "0",
								"type": "t_address"
							},
							{
								"astId": 137,
								"contract": "Defi-project/V2/LendingConfig.sol:LendingPoolConfig",
								"label": "symbol",
								"offset": 0,
								"slot": "1",
								"type": "t_string_storage"
							},
							{
								"astId": 139,
								"contract": "Defi-project/V2/LendingConfig.sol:LendingPoolConfig",
								"label": "decimals",
								"offset": 0,
								"slot": "2",
								"type": "t_uint256"
							},
							{
								"astId": 141,
								"contract": "Defi-project/V2/LendingConfig.sol:LendingPoolConfig",
								"label": "borrowThreshold",
								"offset": 0,
								"slot": "3",
								"type": "t_uint256"
							},
							{
								"astId": 143,
								"contract": "Defi-project/V2/LendingConfig.sol:LendingPoolConfig",
								"label": "liquidationThreshold",
								"offset": 0,
								"slot": "4",
								"type": "t_uint256"
							},
							{
								"astId": 145,
								"contract": "Defi-project/V2/LendingConfig.sol:LendingPoolConfig",
								"label": "lastUpdateTimestamp",
								"offset": 0,
								"slot": "5",
								"type": "t_uint256"
							},
							{
								"astId": 147,
								"contract": "Defi-project/V2/LendingConfig.sol:LendingPoolConfig",
								"label": "borrowingEnabled",
								"offset": 0,
								"slot": "6",
								"type": "t_bool"
							},
							{
								"astId": 149,
								"contract": "Defi-project/V2/LendingConfig.sol:LendingPoolConfig",
								"label": "usageAsCollateralEnabled",
								"offset": 1,
								"slot": "6",
								"type": "t_bool"
							},
							{
								"astId": 151,
								"contract": "Defi-project/V2/LendingConfig.sol:LendingPoolConfig",
								"label": "isfrozen",
								"offset": 2,
								"slot": "6",
								"type": "t_bool"
							},
							{
								"astId": 153,
								"contract": "Defi-project/V2/LendingConfig.sol:LendingPoolConfig",
								"label": "isActive",
								"offset": 3,
								"slot": "6",
								"type": "t_bool"
							}
						],
						"numberOfBytes": "224"
					},
					"t_uint256": {
						"encoding": "inplace",
						"label": "uint256",
						"numberOfBytes": "32"
					}
				}
			},
			"userdoc": {
				"kind": "user",
				"methods": {},
				"version": 1
			}
		}
	}
}