{
	"class/multisignature_wallet.sol": {
		"MultiSignWallet": {
			"abi": [
				{
					"inputs": [
						{
							"internalType": "address[]",
							"name": "_owners",
							"type": "address[]"
						},
						{
							"internalType": "uint256",
							"name": "_numConfirmationRequired",
							"type": "uint256"
						}
					],
					"stateMutability": "nonpayable",
					"type": "constructor"
				},
				{
					"anonymous": false,
					"inputs": [
						{
							"indexed": true,
							"internalType": "address",
							"name": "owner",
							"type": "address"
						},
						{
							"indexed": true,
							"internalType": "uint256",
							"name": "txIndex",
							"type": "uint256"
						}
					],
					"name": "ConfirmTransactions",
					"type": "event"
				},
				{
					"anonymous": false,
					"inputs": [
						{
							"indexed": true,
							"internalType": "address",
							"name": "sender",
							"type": "address"
						},
						{
							"indexed": false,
							"internalType": "uint256",
							"name": "amount",
							"type": "uint256"
						},
						{
							"indexed": false,
							"internalType": "uint256",
							"name": "balance",
							"type": "uint256"
						}
					],
					"name": "Deposit",
					"type": "event"
				},
				{
					"anonymous": false,
					"inputs": [
						{
							"indexed": true,
							"internalType": "address",
							"name": "owner",
							"type": "address"
						},
						{
							"indexed": true,
							"internalType": "uint256",
							"name": "txIndex",
							"type": "uint256"
						}
					],
					"name": "ExecuteTransactions",
					"type": "event"
				},
				{
					"anonymous": false,
					"inputs": [
						{
							"indexed": true,
							"internalType": "address",
							"name": "owner",
							"type": "address"
						},
						{
							"indexed": true,
							"internalType": "uint256",
							"name": "txIndex",
							"type": "uint256"
						}
					],
					"name": "RevokeTransactions",
					"type": "event"
				},
				{
					"anonymous": false,
					"inputs": [
						{
							"indexed": true,
							"internalType": "address",
							"name": "owner",
							"type": "address"
						},
						{
							"indexed": true,
							"internalType": "uint256",
							"name": "txIndexed",
							"type": "uint256"
						},
						{
							"indexed": true,
							"internalType": "address",
							"name": "to",
							"type": "address"
						},
						{
							"indexed": false,
							"internalType": "uint256",
							"name": "values",
							"type": "uint256"
						},
						{
							"indexed": false,
							"internalType": "bytes",
							"name": "data",
							"type": "bytes"
						}
					],
					"name": "SubmitTransactions",
					"type": "event"
				},
				{
					"inputs": [
						{
							"internalType": "uint256",
							"name": "_txIndex",
							"type": "uint256"
						}
					],
					"name": "confirmTransaction",
					"outputs": [],
					"stateMutability": "nonpayable",
					"type": "function"
				},
				{
					"inputs": [],
					"name": "depositEth",
					"outputs": [],
					"stateMutability": "payable",
					"type": "function"
				},
				{
					"inputs": [
						{
							"internalType": "uint256",
							"name": "_txIndex",
							"type": "uint256"
						}
					],
					"name": "excecuteTransaction",
					"outputs": [],
					"stateMutability": "nonpayable",
					"type": "function"
				},
				{
					"inputs": [],
					"name": "getOwners",
					"outputs": [
						{
							"internalType": "address[]",
							"name": "",
							"type": "address[]"
						}
					],
					"stateMutability": "view",
					"type": "function"
				},
				{
					"inputs": [
						{
							"internalType": "uint256",
							"name": "_txIndex",
							"type": "uint256"
						}
					],
					"name": "getTransaction",
					"outputs": [
						{
							"internalType": "address",
							"name": "to",
							"type": "address"
						},
						{
							"internalType": "uint256",
							"name": "value",
							"type": "uint256"
						},
						{
							"internalType": "bytes",
							"name": "data",
							"type": "bytes"
						},
						{
							"internalType": "bool",
							"name": "executed",
							"type": "bool"
						},
						{
							"internalType": "uint256",
							"name": "numConfirmations",
							"type": "uint256"
						}
					],
					"stateMutability": "view",
					"type": "function"
				},
				{
					"inputs": [],
					"name": "getTransactionCount",
					"outputs": [
						{
							"internalType": "uint256",
							"name": "",
							"type": "uint256"
						}
					],
					"stateMutability": "view",
					"type": "function"
				},
				{
					"inputs": [
						{
							"internalType": "uint256",
							"name": "",
							"type": "uint256"
						},
						{
							"internalType": "address",
							"name": "",
							"type": "address"
						}
					],
					"name": "isConfirmed",
					"outputs": [
						{
							"internalType": "bool",
							"name": "",
							"type": "bool"
						}
					],
					"stateMutability": "view",
					"type": "function"
				},
				{
					"inputs": [
						{
							"internalType": "address",
							"name": "",
							"type": "address"
						}
					],
					"name": "isOwner",
					"outputs": [
						{
							"internalType": "bool",
							"name": "",
							"type": "bool"
						}
					],
					"stateMutability": "view",
					"type": "function"
				},
				{
					"inputs": [],
					"name": "numConfirmationsRequired",
					"outputs": [
						{
							"internalType": "uint256",
							"name": "",
							"type": "uint256"
						}
					],
					"stateMutability": "view",
					"type": "function"
				},
				{
					"inputs": [
						{
							"internalType": "uint256",
							"name": "",
							"type": "uint256"
						}
					],
					"name": "owners",
					"outputs": [
						{
							"internalType": "address",
							"name": "",
							"type": "address"
						}
					],
					"stateMutability": "view",
					"type": "function"
				},
				{
					"inputs": [
						{
							"internalType": "uint256",
							"name": "_txIndex",
							"type": "uint256"
						}
					],
					"name": "revokeConfirmation",
					"outputs": [],
					"stateMutability": "nonpayable",
					"type": "function"
				},
				{
					"inputs": [
						{
							"internalType": "address",
							"name": "_to",
							"type": "address"
						},
						{
							"internalType": "uint256",
							"name": "_value",
							"type": "uint256"
						},
						{
							"internalType": "bytes",
							"name": "_data",
							"type": "bytes"
						}
					],
					"name": "submitTransaction",
					"outputs": [],
					"stateMutability": "nonpayable",
					"type": "function"
				},
				{
					"inputs": [
						{
							"internalType": "uint256",
							"name": "",
							"type": "uint256"
						}
					],
					"name": "transactions",
					"outputs": [
						{
							"internalType": "address",
							"name": "to",
							"type": "address"
						},
						{
							"internalType": "uint256",
							"name": "value",
							"type": "uint256"
						},
						{
							"internalType": "bytes",
							"name": "data",
							"type": "bytes"
						},
						{
							"internalType": "bool",
							"name": "executed",
							"type": "bool"
						},
						{
							"internalType": "uint256",
							"name": "numConfirmations",
							"type": "uint256"
						}
					],
					"stateMutability": "view",
					"type": "function"
				},
				{
					"stateMutability": "payable",
					"type": "receive"
				}
			],
			"devdoc": {
				"kind": "dev",
				"methods": {},
				"version": 1
			},
			"evm": {
				"assembly": "    /* \"class/multisignature_wallet.sol\":188:6211  contract MultiSignWallet {... */\n  mstore(0x40, 0x80)\n    /* \"class/multisignature_wallet.sol\":2660:3464  constructor(address[] memory _owners, uint _numConfirmationRequired) {... */\n  callvalue\n  dup1\n  iszero\n  tag_1\n  jumpi\n  0x00\n  dup1\n  revert\ntag_1:\n  pop\n  mload(0x40)\n  sub(codesize, bytecodeSize)\n  dup1\n  bytecodeSize\n  dup4\n  codecopy\n  dup2\n  add\n  0x40\n  dup2\n  swap1\n  mstore\n  tag_2\n  swap2\n  tag_3\n  jump\t// in\ntag_2:\n    /* \"class/multisignature_wallet.sol\":2765:2766  0 */\n  0x00\n    /* \"class/multisignature_wallet.sol\":2748:2755  _owners */\n  dup3\n    /* \"class/multisignature_wallet.sol\":2748:2762  _owners.length */\n  mload\n    /* \"class/multisignature_wallet.sol\":2748:2766  _owners.length > 0 */\n  gt\n    /* \"class/multisignature_wallet.sol\":2740:2798  require(_owners.length > 0, \"At least one owner required\") */\n  tag_6\n  jumpi\n  mload(0x40)\n  shl(0xe5, 0x461bcd)\n  dup2\n  mstore\n    /* \"#utility.yul\":1727:1729   */\n  0x20\n    /* \"class/multisignature_wallet.sol\":2740:2798  require(_owners.length > 0, \"At least one owner required\") */\n  0x04\n  dup3\n  add\n    /* \"#utility.yul\":1709:1730   */\n  mstore\n    /* \"#utility.yul\":1766:1768   */\n  0x1b\n    /* \"#utility.yul\":1746:1764   */\n  0x24\n  dup3\n  add\n    /* \"#utility.yul\":1739:1769   */\n  mstore\n    /* \"#utility.yul\":1805:1834   */\n  0x4174206c65617374206f6e65206f776e65722072657175697265640000000000\n    /* \"#utility.yul\":1785:1803   */\n  0x44\n  dup3\n  add\n    /* \"#utility.yul\":1778:1835   */\n  mstore\n    /* \"#utility.yul\":1852:1870   */\n  0x64\n  add\n    /* \"class/multisignature_wallet.sol\":2740:2798  require(_owners.length > 0, \"At least one owner required\") */\ntag_7:\n  mload(0x40)\n  dup1\n  swap2\n  sub\n  swap1\n  revert\ntag_6:\n    /* \"class/multisignature_wallet.sol\":2844:2845  0 */\n  0x00\n    /* \"class/multisignature_wallet.sol\":2817:2841  _numConfirmationRequired */\n  dup2\n    /* \"class/multisignature_wallet.sol\":2817:2845  _numConfirmationRequired > 0 */\n  gt\n    /* \"class/multisignature_wallet.sol\":2817:2890  _numConfirmationRequired > 0 && _numConfirmationRequired >= owners.length */\n  dup1\n  iszero\n  tag_9\n  jumpi\n  pop\n    /* \"class/multisignature_wallet.sol\":2877:2883  owners */\n  0x00\n    /* \"class/multisignature_wallet.sol\":2877:2890  owners.length */\n  sload\n    /* \"class/multisignature_wallet.sol\":2849:2890  _numConfirmationRequired >= owners.length */\n  dup2\n  lt\n  iszero\n    /* \"class/multisignature_wallet.sol\":2817:2890  _numConfirmationRequired > 0 && _numConfirmationRequired >= owners.length */\ntag_9:\n    /* \"class/multisignature_wallet.sol\":2809:2950  require(_numConfirmationRequired > 0 && _numConfirmationRequired >= owners.length, \"Invalid number of required confirmations in constructor\") */\n  tag_10\n  jumpi\n  mload(0x40)\n  shl(0xe5, 0x461bcd)\n  dup2\n  mstore\n    /* \"#utility.yul\":2083:2085   */\n  0x20\n    /* \"class/multisignature_wallet.sol\":2809:2950  require(_numConfirmationRequired > 0 && _numConfirmationRequired >= owners.length, \"Invalid number of required confirmations in constructor\") */\n  0x04\n  dup3\n  add\n    /* \"#utility.yul\":2065:2086   */\n  mstore\n    /* \"#utility.yul\":2122:2124   */\n  0x37\n    /* \"#utility.yul\":2102:2120   */\n  0x24\n  dup3\n  add\n    /* \"#utility.yul\":2095:2125   */\n  mstore\n    /* \"#utility.yul\":2161:2195   */\n  0x496e76616c6964206e756d626572206f6620726571756972656420636f6e6669\n    /* \"#utility.yul\":2141:2159   */\n  0x44\n  dup3\n  add\n    /* \"#utility.yul\":2134:2196   */\n  mstore\n    /* \"#utility.yul\":2232:2257   */\n  0x726d6174696f6e7320696e20636f6e7374727563746f72000000000000000000\n    /* \"#utility.yul\":2212:2230   */\n  0x64\n  dup3\n  add\n    /* \"#utility.yul\":2205:2258   */\n  mstore\n    /* \"#utility.yul\":2275:2294   */\n  0x84\n  add\n    /* \"class/multisignature_wallet.sol\":2809:2950  require(_numConfirmationRequired > 0 && _numConfirmationRequired >= owners.length, \"Invalid number of required confirmations in constructor\") */\n  tag_7\n    /* \"#utility.yul\":1881:2300   */\n  jump\n    /* \"class/multisignature_wallet.sol\":2809:2950  require(_numConfirmationRequired > 0 && _numConfirmationRequired >= owners.length, \"Invalid number of required confirmations in constructor\") */\ntag_10:\n    /* \"class/multisignature_wallet.sol\":3064:3070  uint i */\n  0x00\n    /* \"class/multisignature_wallet.sol\":3060:3395  for(uint i=0; i < _owners.length; i++) {... */\ntag_13:\n    /* \"class/multisignature_wallet.sol\":3078:3085  _owners */\n  dup3\n    /* \"class/multisignature_wallet.sol\":3078:3092  _owners.length */\n  mload\n    /* \"class/multisignature_wallet.sol\":3074:3075  i */\n  dup2\n    /* \"class/multisignature_wallet.sol\":3074:3092  i < _owners.length */\n  lt\n    /* \"class/multisignature_wallet.sol\":3060:3395  for(uint i=0; i < _owners.length; i++) {... */\n  iszero\n  tag_14\n  jumpi\n    /* \"class/multisignature_wallet.sol\":3114:3127  address owner */\n  0x00\n    /* \"class/multisignature_wallet.sol\":3130:3137  _owners */\n  dup4\n    /* \"class/multisignature_wallet.sol\":3138:3139  i */\n  dup3\n    /* \"class/multisignature_wallet.sol\":3130:3140  _owners[i] */\n  dup2\n  mload\n  dup2\n  lt\n  tag_17\n  jumpi\n  tag_17\n  tag_18\n  jump\t// in\ntag_17:\n  0x20\n  mul\n  0x20\n  add\n  add\n  mload\n    /* \"class/multisignature_wallet.sol\":3114:3140  address owner = _owners[i] */\n  swap1\n  pop\n    /* \"class/multisignature_wallet.sol\":3180:3181  0 */\n  0x00\n  sub(shl(0xa0, 0x01), 0x01)\n    /* \"class/multisignature_wallet.sol\":3163:3182  owner != address(0) */\n  and\n    /* \"class/multisignature_wallet.sol\":3163:3168  owner */\n  dup2\n  sub(shl(0xa0, 0x01), 0x01)\n    /* \"class/multisignature_wallet.sol\":3163:3182  owner != address(0) */\n  and\n  sub\n    /* \"class/multisignature_wallet.sol\":3155:3200  require(owner != address(0), \"Invalid owner\") */\n  tag_19\n  jumpi\n  mload(0x40)\n  shl(0xe5, 0x461bcd)\n  dup2\n  mstore\n    /* \"#utility.yul\":2639:2641   */\n  0x20\n    /* \"class/multisignature_wallet.sol\":3155:3200  require(owner != address(0), \"Invalid owner\") */\n  0x04\n  dup3\n  add\n    /* \"#utility.yul\":2621:2642   */\n  mstore\n    /* \"#utility.yul\":2678:2680   */\n  0x0d\n    /* \"#utility.yul\":2658:2676   */\n  0x24\n  dup3\n  add\n    /* \"#utility.yul\":2651:2681   */\n  mstore\n  shl(0x99, 0x24b73b30b634b21037bbb732b9)\n    /* \"#utility.yul\":2697:2715   */\n  0x44\n  dup3\n  add\n    /* \"#utility.yul\":2690:2733   */\n  mstore\n    /* \"#utility.yul\":2750:2768   */\n  0x64\n  add\n    /* \"class/multisignature_wallet.sol\":3155:3200  require(owner != address(0), \"Invalid owner\") */\n  tag_7\n    /* \"#utility.yul\":2437:2774   */\n  jump\n    /* \"class/multisignature_wallet.sol\":3155:3200  require(owner != address(0), \"Invalid owner\") */\ntag_19:\n  sub(shl(0xa0, 0x01), 0x01)\n    /* \"class/multisignature_wallet.sol\":3254:3268  isOwner[owner] */\n  dup2\n  and\n  0x00\n  swap1\n  dup2\n  mstore\n    /* \"class/multisignature_wallet.sol\":3254:3261  isOwner */\n  0x01\n    /* \"class/multisignature_wallet.sol\":3254:3268  isOwner[owner] */\n  0x20\n  mstore\n  0x40\n  swap1\n  keccak256\n  sload\n  0xff\n  and\n    /* \"class/multisignature_wallet.sol\":3253:3268  !isOwner[owner] */\n  iszero\n    /* \"class/multisignature_wallet.sol\":3245:3289  require(!isOwner[owner], \"Owner not unique\") */\n  tag_22\n  jumpi\n  mload(0x40)\n  shl(0xe5, 0x461bcd)\n  dup2\n  mstore\n    /* \"#utility.yul\":2981:2983   */\n  0x20\n    /* \"class/multisignature_wallet.sol\":3245:3289  require(!isOwner[owner], \"Owner not unique\") */\n  0x04\n  dup3\n  add\n    /* \"#utility.yul\":2963:2984   */\n  mstore\n    /* \"#utility.yul\":3020:3022   */\n  0x10\n    /* \"#utility.yul\":3000:3018   */\n  0x24\n  dup3\n  add\n    /* \"#utility.yul\":2993:3023   */\n  mstore\n  shl(0x80, 0x4f776e6572206e6f7420756e69717565)\n    /* \"#utility.yul\":3039:3057   */\n  0x44\n  dup3\n  add\n    /* \"#utility.yul\":3032:3078   */\n  mstore\n    /* \"#utility.yul\":3095:3113   */\n  0x64\n  add\n    /* \"class/multisignature_wallet.sol\":3245:3289  require(!isOwner[owner], \"Owner not unique\") */\n  tag_7\n    /* \"#utility.yul\":2779:3119   */\n  jump\n    /* \"class/multisignature_wallet.sol\":3245:3289  require(!isOwner[owner], \"Owner not unique\") */\ntag_22:\n  sub(shl(0xa0, 0x01), 0x01)\n    /* \"class/multisignature_wallet.sol\":3328:3342  isOwner[owner] */\n  and\n  0x00\n  dup2\n  dup2\n  mstore\n    /* \"class/multisignature_wallet.sol\":3345:3349  true */\n  0x01\n    /* \"class/multisignature_wallet.sol\":3328:3342  isOwner[owner] */\n  0x20\n  dup2\n  swap1\n  mstore\n  0x40\n  dup3\n  keccak256\n    /* \"class/multisignature_wallet.sol\":3328:3349  isOwner[owner] = true */\n  dup1\n  sload\n  not(0xff)\n  and\n  dup3\n  or\n  swap1\n  sstore\n    /* \"class/multisignature_wallet.sol\":3364:3382  owners.push(owner) */\n  dup2\n  sload\n  swap1\n  dup2\n  add\n  dup3\n  sstore\n  swap1\n  dup1\n  mstore\n  0x290decd9548b62a8d60345a988386fc84ba6bc95484008f6362f93160ef3e563\n  add\n  dup1\n  sload\n  not(sub(shl(0xa0, 0x01), 0x01))\n  and\n  swap1\n  swap2\n  or\n  swap1\n  sstore\n    /* \"class/multisignature_wallet.sol\":3094:3097  i++ */\n  dup1\n  tag_26\n  dup2\n  tag_27\n  jump\t// in\ntag_26:\n  swap2\n  pop\n  pop\n    /* \"class/multisignature_wallet.sol\":3060:3395  for(uint i=0; i < _owners.length; i++) {... */\n  jump(tag_13)\ntag_14:\n  pop\n    /* \"class/multisignature_wallet.sol\":3405:3429  numConfirmationsRequired */\n  0x02\n    /* \"class/multisignature_wallet.sol\":3405:3456  numConfirmationsRequired = _numConfirmationRequired */\n  sstore\n  pop\n    /* \"class/multisignature_wallet.sol\":188:6211  contract MultiSignWallet {... */\n  jump(tag_31)\n    /* \"#utility.yul\":14:141   */\ntag_29:\n    /* \"#utility.yul\":75:85   */\n  0x4e487b71\n    /* \"#utility.yul\":70:73   */\n  0xe0\n    /* \"#utility.yul\":66:86   */\n  shl\n    /* \"#utility.yul\":63:64   */\n  0x00\n    /* \"#utility.yul\":56:87   */\n  mstore\n    /* \"#utility.yul\":106:110   */\n  0x41\n    /* \"#utility.yul\":103:104   */\n  0x04\n    /* \"#utility.yul\":96:111   */\n  mstore\n    /* \"#utility.yul\":130:134   */\n  0x24\n    /* \"#utility.yul\":127:128   */\n  0x00\n    /* \"#utility.yul\":120:135   */\n  revert\n    /* \"#utility.yul\":146:323   */\ntag_30:\n    /* \"#utility.yul\":225:238   */\n  dup1\n  mload\n  sub(shl(0xa0, 0x01), 0x01)\n    /* \"#utility.yul\":267:298   */\n  dup2\n  and\n    /* \"#utility.yul\":257:299   */\n  dup2\n  eq\n    /* \"#utility.yul\":247:317   */\n  tag_34\n  jumpi\n    /* \"#utility.yul\":313:314   */\n  0x00\n    /* \"#utility.yul\":310:311   */\n  dup1\n    /* \"#utility.yul\":303:315   */\n  revert\n    /* \"#utility.yul\":247:317   */\ntag_34:\n    /* \"#utility.yul\":146:323   */\n  swap2\n  swap1\n  pop\n  jump\t// out\n    /* \"#utility.yul\":328:1520   */\ntag_3:\n    /* \"#utility.yul\":432:438   */\n  0x00\n    /* \"#utility.yul\":440:446   */\n  dup1\n    /* \"#utility.yul\":493:495   */\n  0x40\n    /* \"#utility.yul\":481:490   */\n  dup4\n    /* \"#utility.yul\":472:479   */\n  dup6\n    /* \"#utility.yul\":468:491   */\n  sub\n    /* \"#utility.yul\":464:496   */\n  slt\n    /* \"#utility.yul\":461:513   */\n  iszero\n  tag_36\n  jumpi\n    /* \"#utility.yul\":509:510   */\n  0x00\n    /* \"#utility.yul\":506:507   */\n  dup1\n    /* \"#utility.yul\":499:511   */\n  revert\n    /* \"#utility.yul\":461:513   */\ntag_36:\n    /* \"#utility.yul\":536:552   */\n  dup3\n  mload\n  sub(shl(0x40, 0x01), 0x01)\n    /* \"#utility.yul\":601:615   */\n  dup1\n  dup3\n  gt\n    /* \"#utility.yul\":598:632   */\n  iszero\n  tag_37\n  jumpi\n    /* \"#utility.yul\":628:629   */\n  0x00\n    /* \"#utility.yul\":625:626   */\n  dup1\n    /* \"#utility.yul\":618:630   */\n  revert\n    /* \"#utility.yul\":598:632   */\ntag_37:\n    /* \"#utility.yul\":666:672   */\n  dup2\n    /* \"#utility.yul\":655:664   */\n  dup6\n    /* \"#utility.yul\":651:673   */\n  add\n    /* \"#utility.yul\":641:673   */\n  swap2\n  pop\n    /* \"#utility.yul\":711:718   */\n  dup6\n    /* \"#utility.yul\":704:708   */\n  0x1f\n    /* \"#utility.yul\":700:702   */\n  dup4\n    /* \"#utility.yul\":696:709   */\n  add\n    /* \"#utility.yul\":692:719   */\n  slt\n    /* \"#utility.yul\":682:737   */\n  tag_38\n  jumpi\n    /* \"#utility.yul\":733:734   */\n  0x00\n    /* \"#utility.yul\":730:731   */\n  dup1\n    /* \"#utility.yul\":723:735   */\n  revert\n    /* \"#utility.yul\":682:737   */\ntag_38:\n    /* \"#utility.yul\":762:764   */\n  dup2\n    /* \"#utility.yul\":756:765   */\n  mload\n    /* \"#utility.yul\":784:788   */\n  0x20\n    /* \"#utility.yul\":807:809   */\n  dup3\n    /* \"#utility.yul\":803:805   */\n  dup3\n    /* \"#utility.yul\":800:810   */\n  gt\n    /* \"#utility.yul\":797:833   */\n  iszero\n  tag_40\n  jumpi\n    /* \"#utility.yul\":813:831   */\n  tag_40\n  tag_29\n  jump\t// in\ntag_40:\n    /* \"#utility.yul\":859:861   */\n  dup2\n    /* \"#utility.yul\":856:857   */\n  0x05\n    /* \"#utility.yul\":852:862   */\n  shl\n    /* \"#utility.yul\":891:893   */\n  0x40\n    /* \"#utility.yul\":885:894   */\n  mload\n    /* \"#utility.yul\":954:956   */\n  0x1f\n    /* \"#utility.yul\":950:957   */\n  not\n    /* \"#utility.yul\":945:947   */\n  0x3f\n    /* \"#utility.yul\":941:943   */\n  dup4\n    /* \"#utility.yul\":937:948   */\n  add\n    /* \"#utility.yul\":933:958   */\n  and\n    /* \"#utility.yul\":925:931   */\n  dup2\n    /* \"#utility.yul\":921:959   */\n  add\n    /* \"#utility.yul\":1009:1015   */\n  dup2\n    /* \"#utility.yul\":997:1007   */\n  dup2\n    /* \"#utility.yul\":994:1016   */\n  lt\n    /* \"#utility.yul\":989:991   */\n  dup7\n    /* \"#utility.yul\":977:987   */\n  dup3\n    /* \"#utility.yul\":974:992   */\n  gt\n    /* \"#utility.yul\":971:1017   */\n  or\n    /* \"#utility.yul\":968:1040   */\n  iszero\n  tag_42\n  jumpi\n    /* \"#utility.yul\":1020:1038   */\n  tag_42\n  tag_29\n  jump\t// in\ntag_42:\n    /* \"#utility.yul\":1056:1058   */\n  0x40\n    /* \"#utility.yul\":1049:1071   */\n  mstore\n    /* \"#utility.yul\":1106:1124   */\n  swap3\n  dup4\n  mstore\n    /* \"#utility.yul\":1140:1155   */\n  dup2\n  dup4\n  add\n  swap4\n  pop\n    /* \"#utility.yul\":1182:1193   */\n  dup5\n  dup2\n  add\n    /* \"#utility.yul\":1178:1198   */\n  dup3\n  add\n  swap3\n    /* \"#utility.yul\":1210:1229   */\n  dup10\n  dup5\n  gt\n    /* \"#utility.yul\":1207:1246   */\n  iszero\n  tag_43\n  jumpi\n    /* \"#utility.yul\":1242:1243   */\n  0x00\n    /* \"#utility.yul\":1239:1240   */\n  dup1\n    /* \"#utility.yul\":1232:1244   */\n  revert\n    /* \"#utility.yul\":1207:1246   */\ntag_43:\n    /* \"#utility.yul\":1266:1277   */\n  swap5\n  dup3\n  add\n  swap5\n    /* \"#utility.yul\":1286:1445   */\ntag_44:\n    /* \"#utility.yul\":1302:1308   */\n  dup4\n    /* \"#utility.yul\":1297:1300   */\n  dup7\n    /* \"#utility.yul\":1294:1309   */\n  lt\n    /* \"#utility.yul\":1286:1445   */\n  iszero\n  tag_46\n  jumpi\n    /* \"#utility.yul\":1368:1402   */\n  tag_47\n    /* \"#utility.yul\":1398:1401   */\n  dup7\n    /* \"#utility.yul\":1368:1402   */\n  tag_30\n  jump\t// in\ntag_47:\n    /* \"#utility.yul\":1356:1403   */\n  dup6\n  mstore\n    /* \"#utility.yul\":1319:1331   */\n  swap5\n  dup3\n  add\n  swap5\n    /* \"#utility.yul\":1423:1435   */\n  swap4\n  dup3\n  add\n  swap4\n    /* \"#utility.yul\":1286:1445   */\n  jump(tag_44)\ntag_46:\n    /* \"#utility.yul\":1495:1513   */\n  swap8\n  swap1\n  swap2\n  add\n    /* \"#utility.yul\":1489:1514   */\n  mload\n    /* \"#utility.yul\":1464:1470   */\n  swap7\n  swap9\n    /* \"#utility.yul\":1489:1514   */\n  swap7\n  swap8\n  pop\n  pop\n  pop\n  pop\n  pop\n  pop\n  pop\n    /* \"#utility.yul\":328:1520   */\n  jump\t// out\n    /* \"#utility.yul\":2305:2432   */\ntag_18:\n    /* \"#utility.yul\":2366:2376   */\n  0x4e487b71\n    /* \"#utility.yul\":2361:2364   */\n  0xe0\n    /* \"#utility.yul\":2357:2377   */\n  shl\n    /* \"#utility.yul\":2354:2355   */\n  0x00\n    /* \"#utility.yul\":2347:2378   */\n  mstore\n    /* \"#utility.yul\":2397:2401   */\n  0x32\n    /* \"#utility.yul\":2394:2395   */\n  0x04\n    /* \"#utility.yul\":2387:2402   */\n  mstore\n    /* \"#utility.yul\":2421:2425   */\n  0x24\n    /* \"#utility.yul\":2418:2419   */\n  0x00\n    /* \"#utility.yul\":2411:2426   */\n  revert\n    /* \"#utility.yul\":3124:3356   */\ntag_27:\n    /* \"#utility.yul\":3163:3166   */\n  0x00\n    /* \"#utility.yul\":3184:3201   */\n  0x01\n  dup3\n  add\n    /* \"#utility.yul\":3181:3321   */\n  tag_54\n  jumpi\n    /* \"#utility.yul\":3243:3253   */\n  0x4e487b71\n    /* \"#utility.yul\":3238:3241   */\n  0xe0\n    /* \"#utility.yul\":3234:3254   */\n  shl\n    /* \"#utility.yul\":3231:3232   */\n  0x00\n    /* \"#utility.yul\":3224:3255   */\n  mstore\n    /* \"#utility.yul\":3278:3282   */\n  0x11\n    /* \"#utility.yul\":3275:3276   */\n  0x04\n    /* \"#utility.yul\":3268:3283   */\n  mstore\n    /* \"#utility.yul\":3306:3310   */\n  0x24\n    /* \"#utility.yul\":3303:3304   */\n  0x00\n    /* \"#utility.yul\":3296:3311   */\n  revert\n    /* \"#utility.yul\":3181:3321   */\ntag_54:\n  pop\n    /* \"#utility.yul\":3348:3349   */\n  0x01\n    /* \"#utility.yul\":3337:3350   */\n  add\n  swap1\n    /* \"#utility.yul\":3124:3356   */\n  jump\t// out\ntag_31:\n    /* \"class/multisignature_wallet.sol\":188:6211  contract MultiSignWallet {... */\n  dataSize(sub_0)\n  dup1\n  dataOffset(sub_0)\n  0x00\n  codecopy\n  0x00\n  return\nstop\n\nsub_0: assembly {\n        /* \"class/multisignature_wallet.sol\":188:6211  contract MultiSignWallet {... */\n      mstore(0x40, 0x80)\n      jumpi(tag_1, lt(calldatasize, 0x04))\n      shr(0xe0, calldataload(0x00))\n      dup1\n      0x439370b1\n      gt\n      tag_16\n      jumpi\n      dup1\n      0xa0e67e2b\n      gt\n      tag_17\n      jumpi\n      dup1\n      0xa0e67e2b\n      eq\n      tag_12\n      jumpi\n      dup1\n      0xc01a8c84\n      eq\n      tag_13\n      jumpi\n      dup1\n      0xc6427474\n      eq\n      tag_14\n      jumpi\n      dup1\n      0xd0549b85\n      eq\n      tag_15\n      jumpi\n      0x00\n      dup1\n      revert\n    tag_17:\n      dup1\n      0x439370b1\n      eq\n      tag_9\n      jumpi\n      dup1\n      0x80f59a65\n      eq\n      tag_10\n      jumpi\n      dup1\n      0x9ace38c2\n      eq\n      tag_11\n      jumpi\n      0x00\n      dup1\n      revert\n    tag_16:\n      dup1\n      0x025e7c27\n      eq\n      tag_3\n      jumpi\n      dup1\n      0x20ea8d86\n      eq\n      tag_4\n      jumpi\n      dup1\n      0x2460af8d\n      eq\n      tag_5\n      jumpi\n      dup1\n      0x2e7700f0\n      eq\n      tag_6\n      jumpi\n      dup1\n      0x2f54bf6e\n      eq\n      tag_7\n      jumpi\n      dup1\n      0x33ea3dc8\n      eq\n      tag_8\n      jumpi\n      0x00\n      dup1\n      revert\n    tag_1:\n      jumpi(tag_2, calldatasize)\n      stop\n    tag_2:\n      0x00\n      dup1\n      revert\n        /* \"class/multisignature_wallet.sol\":821:844  address[] public owners */\n    tag_3:\n      callvalue\n      dup1\n      iszero\n      tag_20\n      jumpi\n      0x00\n      dup1\n      revert\n    tag_20:\n      pop\n      tag_21\n      tag_22\n      calldatasize\n      0x04\n      tag_23\n      jump\t// in\n    tag_22:\n      tag_24\n      jump\t// in\n    tag_21:\n      mload(0x40)\n      sub(shl(0xa0, 0x01), 0x01)\n        /* \"#utility.yul\":363:418   */\n      swap1\n      swap2\n      and\n        /* \"#utility.yul\":345:419   */\n      dup2\n      mstore\n        /* \"#utility.yul\":333:335   */\n      0x20\n        /* \"#utility.yul\":318:336   */\n      add\n        /* \"class/multisignature_wallet.sol\":821:844  address[] public owners */\n    tag_25:\n      mload(0x40)\n      dup1\n      swap2\n      sub\n      swap1\n      return\n        /* \"class/multisignature_wallet.sol\":5216:5643  function revokeConfirmation(uint _txIndex) public ... */\n    tag_4:\n      callvalue\n      dup1\n      iszero\n      tag_27\n      jumpi\n      0x00\n      dup1\n      revert\n    tag_27:\n      pop\n      tag_28\n      tag_29\n      calldatasize\n      0x04\n      tag_23\n      jump\t// in\n    tag_29:\n      tag_30\n      jump\t// in\n    tag_28:\n      stop\n        /* \"class/multisignature_wallet.sol\":4630:5165  function excecuteTransaction(uint _txIndex) public onlyOwner ... */\n    tag_5:\n      callvalue\n      dup1\n      iszero\n      tag_31\n      jumpi\n      0x00\n      dup1\n      revert\n    tag_31:\n      pop\n      tag_28\n      tag_33\n      calldatasize\n      0x04\n      tag_23\n      jump\t// in\n    tag_33:\n      tag_34\n      jump\t// in\n        /* \"class/multisignature_wallet.sol\":5752:5854  function getTransactionCount() public view returns(uint) {... */\n    tag_6:\n      callvalue\n      dup1\n      iszero\n      tag_35\n      jumpi\n      0x00\n      dup1\n      revert\n    tag_35:\n      pop\n        /* \"class/multisignature_wallet.sol\":5827:5839  transactions */\n      0x04\n        /* \"class/multisignature_wallet.sol\":5827:5846  transactions.length */\n      sload\n        /* \"class/multisignature_wallet.sol\":5752:5854  function getTransactionCount() public view returns(uint) {... */\n    tag_36:\n      mload(0x40)\n        /* \"#utility.yul\":576:601   */\n      swap1\n      dup2\n      mstore\n        /* \"#utility.yul\":564:566   */\n      0x20\n        /* \"#utility.yul\":549:567   */\n      add\n        /* \"class/multisignature_wallet.sol\":5752:5854  function getTransactionCount() public view returns(uint) {... */\n      tag_25\n        /* \"#utility.yul\":430:607   */\n      jump\n        /* \"class/multisignature_wallet.sol\":873:911  mapping(address=> bool) public isOwner */\n    tag_7:\n      callvalue\n      dup1\n      iszero\n      tag_40\n      jumpi\n      0x00\n      dup1\n      revert\n    tag_40:\n      pop\n      tag_41\n      tag_42\n      calldatasize\n      0x04\n      tag_43\n      jump\t// in\n    tag_42:\n      mstore(0x20, 0x01)\n      0x00\n      swap1\n      dup2\n      mstore\n      0x40\n      swap1\n      keccak256\n      sload\n      0xff\n      and\n      dup2\n      jump\n    tag_41:\n      mload(0x40)\n        /* \"#utility.yul\":1169:1183   */\n      swap1\n      iszero\n        /* \"#utility.yul\":1162:1184   */\n      iszero\n        /* \"#utility.yul\":1144:1185   */\n      dup2\n      mstore\n        /* \"#utility.yul\":1132:1134   */\n      0x20\n        /* \"#utility.yul\":1117:1135   */\n      add\n        /* \"class/multisignature_wallet.sol\":873:911  mapping(address=> bool) public isOwner */\n      tag_25\n        /* \"#utility.yul\":1004:1191   */\n      jump\n        /* \"class/multisignature_wallet.sol\":5862:6206  function getTransaction(uint _txIndex) public view ... */\n    tag_8:\n      callvalue\n      dup1\n      iszero\n      tag_47\n      jumpi\n      0x00\n      dup1\n      revert\n    tag_47:\n      pop\n      tag_48\n      tag_49\n      calldatasize\n      0x04\n      tag_23\n      jump\t// in\n    tag_49:\n      tag_50\n      jump\t// in\n    tag_48:\n      mload(0x40)\n      tag_25\n      swap6\n      swap5\n      swap4\n      swap3\n      swap2\n      swap1\n      tag_52\n      jump\t// in\n        /* \"class/multisignature_wallet.sol\":3472:3702  function depositEth() public payable {... */\n    tag_9:\n      tag_28\n      tag_54\n      jump\t// in\n        /* \"class/multisignature_wallet.sol\":1419:1476  mapping(uint=> mapping(address=>bool)) public isConfirmed */\n    tag_10:\n      callvalue\n      dup1\n      iszero\n      tag_55\n      jumpi\n      0x00\n      dup1\n      revert\n    tag_55:\n      pop\n      tag_41\n      tag_57\n      calldatasize\n      0x04\n      tag_58\n      jump\t// in\n    tag_57:\n      0x03\n      0x20\n      swap1\n      dup2\n      mstore\n      0x00\n      swap3\n      dup4\n      mstore\n      0x40\n      dup1\n      dup5\n      keccak256\n      swap1\n      swap2\n      mstore\n      swap1\n      dup3\n      mstore\n      swap1\n      keccak256\n      sload\n      0xff\n      and\n      dup2\n      jump\n        /* \"class/multisignature_wallet.sol\":1627:1660  Transaction[] public transactions */\n    tag_11:\n      callvalue\n      dup1\n      iszero\n      tag_61\n      jumpi\n      0x00\n      dup1\n      revert\n    tag_61:\n      pop\n      tag_48\n      tag_63\n      calldatasize\n      0x04\n      tag_23\n      jump\t// in\n    tag_63:\n      tag_64\n      jump\t// in\n        /* \"class/multisignature_wallet.sol\":5653:5744  function getOwners() public view returns(address[] memory) {... */\n    tag_12:\n      callvalue\n      dup1\n      iszero\n      tag_66\n      jumpi\n      0x00\n      dup1\n      revert\n    tag_66:\n      pop\n      tag_67\n      tag_68\n      jump\t// in\n    tag_67:\n      mload(0x40)\n      tag_25\n      swap2\n      swap1\n      tag_70\n      jump\t// in\n        /* \"class/multisignature_wallet.sol\":3747:4141  function confirmTransaction(uint _txIndex) public onlyOwner txExists(_txIndex) notExecuted(_txIndex) ... */\n    tag_13:\n      callvalue\n      dup1\n      iszero\n      tag_71\n      jumpi\n      0x00\n      dup1\n      revert\n    tag_71:\n      pop\n      tag_28\n      tag_73\n      calldatasize\n      0x04\n      tag_23\n      jump\t// in\n    tag_73:\n      tag_74\n      jump\t// in\n        /* \"class/multisignature_wallet.sol\":4149:4621  function submitTransaction(address _to, uint _value, bytes memory _data) public onlyOwner {... */\n    tag_14:\n      callvalue\n      dup1\n      iszero\n      tag_75\n      jumpi\n      0x00\n      dup1\n      revert\n    tag_75:\n      pop\n      tag_28\n      tag_77\n      calldatasize\n      0x04\n      tag_78\n      jump\t// in\n    tag_77:\n      tag_79\n      jump\t// in\n        /* \"class/multisignature_wallet.sol\":970:1006  uint public numConfirmationsRequired */\n    tag_15:\n      callvalue\n      dup1\n      iszero\n      tag_80\n      jumpi\n      0x00\n      dup1\n      revert\n    tag_80:\n      pop\n      tag_36\n      sload(0x02)\n      dup2\n      jump\n        /* \"class/multisignature_wallet.sol\":821:844  address[] public owners */\n    tag_24:\n      0x00\n      dup2\n      dup2\n      sload\n      dup2\n      lt\n      tag_84\n      jumpi\n      0x00\n      dup1\n      revert\n    tag_84:\n      0x00\n      swap2\n      dup3\n      mstore\n      0x20\n      swap1\n      swap2\n      keccak256\n      add\n      sload\n      sub(shl(0xa0, 0x01), 0x01)\n      and\n      swap1\n      pop\n      dup2\n      jump\t// out\n        /* \"class/multisignature_wallet.sol\":5216:5643  function revokeConfirmation(uint _txIndex) public ... */\n    tag_30:\n        /* \"class/multisignature_wallet.sol\":1870:1880  msg.sender */\n      caller\n        /* \"class/multisignature_wallet.sol\":1862:1881  isOwner[msg.sender] */\n      0x00\n      swap1\n      dup2\n      mstore\n        /* \"class/multisignature_wallet.sol\":1862:1869  isOwner */\n      0x01\n        /* \"class/multisignature_wallet.sol\":1862:1881  isOwner[msg.sender] */\n      0x20\n      mstore\n      0x40\n      swap1\n      keccak256\n      sload\n      0xff\n      and\n        /* \"class/multisignature_wallet.sol\":1854:1899  require(isOwner[msg.sender], \"Not the owner\") */\n      tag_87\n      jumpi\n      mload(0x40)\n      shl(0xe5, 0x461bcd)\n      dup2\n      mstore\n      0x04\n      add\n      tag_88\n      swap1\n      tag_89\n      jump\t// in\n    tag_88:\n      mload(0x40)\n      dup1\n      swap2\n      sub\n      swap1\n      revert\n    tag_87:\n        /* \"class/multisignature_wallet.sol\":2052:2064  transactions */\n      0x04\n        /* \"class/multisignature_wallet.sol\":2052:2071  transactions.length */\n      sload\n        /* \"class/multisignature_wallet.sol\":5295:5303  _txIndex */\n      dup2\n      swap1\n        /* \"class/multisignature_wallet.sol\":2041:2071  _txIndex < transactions.length */\n      dup2\n      lt\n        /* \"class/multisignature_wallet.sol\":2033:2104  require(_txIndex < transactions.length, \"Transactions doesn't exists.\") */\n      tag_91\n      jumpi\n      mload(0x40)\n      shl(0xe5, 0x461bcd)\n      dup2\n      mstore\n        /* \"#utility.yul\":4880:4882   */\n      0x20\n        /* \"class/multisignature_wallet.sol\":2033:2104  require(_txIndex < transactions.length, \"Transactions doesn't exists.\") */\n      0x04\n      dup3\n      add\n        /* \"#utility.yul\":4862:4883   */\n      mstore\n        /* \"#utility.yul\":4919:4921   */\n      0x1c\n        /* \"#utility.yul\":4899:4917   */\n      0x24\n      dup3\n      add\n        /* \"#utility.yul\":4892:4922   */\n      mstore\n        /* \"#utility.yul\":4958:4988   */\n      0x5472616e73616374696f6e7320646f65736e2774206578697374732e00000000\n        /* \"#utility.yul\":4938:4956   */\n      0x44\n      dup3\n      add\n        /* \"#utility.yul\":4931:4989   */\n      mstore\n        /* \"#utility.yul\":5006:5024   */\n      0x64\n      add\n        /* \"class/multisignature_wallet.sol\":2033:2104  require(_txIndex < transactions.length, \"Transactions doesn't exists.\") */\n      tag_88\n        /* \"#utility.yul\":4678:5030   */\n      jump\n        /* \"class/multisignature_wallet.sol\":2033:2104  require(_txIndex < transactions.length, \"Transactions doesn't exists.\") */\n    tag_91:\n        /* \"class/multisignature_wallet.sol\":5317:5325  _txIndex */\n      dup2\n        /* \"class/multisignature_wallet.sol\":2343:2355  transactions */\n      0x04\n        /* \"class/multisignature_wallet.sol\":2356:2364  _txIndex */\n      dup2\n        /* \"class/multisignature_wallet.sol\":2343:2365  transactions[_txIndex] */\n      dup2\n      sload\n      dup2\n      lt\n      tag_96\n      jumpi\n      tag_96\n      tag_97\n      jump\t// in\n    tag_96:\n      0x00\n      swap2\n      dup3\n      mstore\n      0x20\n      swap1\n      swap2\n      keccak256\n        /* \"class/multisignature_wallet.sol\":2343:2374  transactions[_txIndex].executed */\n      0x03\n        /* \"class/multisignature_wallet.sol\":2343:2365  transactions[_txIndex] */\n      0x05\n      swap1\n      swap3\n      mul\n      add\n        /* \"class/multisignature_wallet.sol\":2343:2374  transactions[_txIndex].executed */\n      add\n      sload\n      0xff\n      and\n        /* \"class/multisignature_wallet.sol\":2342:2374  !transactions[_txIndex].executed */\n      iszero\n        /* \"class/multisignature_wallet.sol\":2334:2398  require(!transactions[_txIndex].executed, \"Tx already executed\") */\n      tag_99\n      jumpi\n      mload(0x40)\n      shl(0xe5, 0x461bcd)\n      dup2\n      mstore\n        /* \"#utility.yul\":5369:5371   */\n      0x20\n        /* \"class/multisignature_wallet.sol\":2334:2398  require(!transactions[_txIndex].executed, \"Tx already executed\") */\n      0x04\n      dup3\n      add\n        /* \"#utility.yul\":5351:5372   */\n      mstore\n        /* \"#utility.yul\":5408:5410   */\n      0x13\n        /* \"#utility.yul\":5388:5406   */\n      0x24\n      dup3\n      add\n        /* \"#utility.yul\":5381:5411   */\n      mstore\n      shl(0x6a, 0x151e08185b1c9958591e48195e1958dd5d1959)\n        /* \"#utility.yul\":5427:5445   */\n      0x44\n      dup3\n      add\n        /* \"#utility.yul\":5420:5469   */\n      mstore\n        /* \"#utility.yul\":5486:5504   */\n      0x64\n      add\n        /* \"class/multisignature_wallet.sol\":2334:2398  require(!transactions[_txIndex].executed, \"Tx already executed\") */\n      tag_88\n        /* \"#utility.yul\":5167:5510   */\n      jump\n        /* \"class/multisignature_wallet.sol\":2334:2398  require(!transactions[_txIndex].executed, \"Tx already executed\") */\n    tag_99:\n        /* \"class/multisignature_wallet.sol\":5343:5374  Transaction storage transaction */\n      0x00\n        /* \"class/multisignature_wallet.sol\":5377:5389  transactions */\n      0x04\n        /* \"class/multisignature_wallet.sol\":5390:5398  _txIndex */\n      dup5\n        /* \"class/multisignature_wallet.sol\":5377:5399  transactions[_txIndex] */\n      dup2\n      sload\n      dup2\n      lt\n      tag_104\n      jumpi\n      tag_104\n      tag_97\n      jump\t// in\n    tag_104:\n      0x00\n      swap2\n      dup3\n      mstore\n      0x20\n      dup1\n      dup4\n      keccak256\n        /* \"class/multisignature_wallet.sol\":5418:5439  isConfirmed[_txIndex] */\n      dup8\n      dup5\n      mstore\n        /* \"class/multisignature_wallet.sol\":5418:5429  isConfirmed */\n      0x03\n        /* \"class/multisignature_wallet.sol\":5418:5439  isConfirmed[_txIndex] */\n      dup3\n      mstore\n      0x40\n      dup1\n      dup6\n      keccak256\n        /* \"class/multisignature_wallet.sol\":5440:5450  msg.sender */\n      caller\n        /* \"class/multisignature_wallet.sol\":5418:5451  isConfirmed[_txIndex][msg.sender] */\n      dup7\n      mstore\n      swap1\n      swap3\n      mstore\n      swap3\n      keccak256\n      sload\n        /* \"class/multisignature_wallet.sol\":5377:5399  transactions[_txIndex] */\n      0x05\n      swap1\n      swap2\n      mul\n      swap1\n      swap2\n      add\n      swap2\n      pop\n        /* \"class/multisignature_wallet.sol\":5418:5451  isConfirmed[_txIndex][msg.sender] */\n      0xff\n      and\n        /* \"class/multisignature_wallet.sol\":5410:5484  require(isConfirmed[_txIndex][msg.sender], \"Transaction is not confirmed\") */\n      tag_106\n      jumpi\n      mload(0x40)\n      shl(0xe5, 0x461bcd)\n      dup2\n      mstore\n        /* \"#utility.yul\":5717:5719   */\n      0x20\n        /* \"class/multisignature_wallet.sol\":5410:5484  require(isConfirmed[_txIndex][msg.sender], \"Transaction is not confirmed\") */\n      0x04\n      dup3\n      add\n        /* \"#utility.yul\":5699:5720   */\n      mstore\n        /* \"#utility.yul\":5756:5758   */\n      0x1c\n        /* \"#utility.yul\":5736:5754   */\n      0x24\n      dup3\n      add\n        /* \"#utility.yul\":5729:5759   */\n      mstore\n        /* \"#utility.yul\":5795:5825   */\n      0x5472616e73616374696f6e206973206e6f7420636f6e6669726d656400000000\n        /* \"#utility.yul\":5775:5793   */\n      0x44\n      dup3\n      add\n        /* \"#utility.yul\":5768:5826   */\n      mstore\n        /* \"#utility.yul\":5843:5861   */\n      0x64\n      add\n        /* \"class/multisignature_wallet.sol\":5410:5484  require(isConfirmed[_txIndex][msg.sender], \"Transaction is not confirmed\") */\n      tag_88\n        /* \"#utility.yul\":5515:5867   */\n      jump\n        /* \"class/multisignature_wallet.sol\":5410:5484  require(isConfirmed[_txIndex][msg.sender], \"Transaction is not confirmed\") */\n    tag_106:\n        /* \"class/multisignature_wallet.sol\":5526:5527  1 */\n      0x01\n        /* \"class/multisignature_wallet.sol\":5495:5506  transaction */\n      dup2\n        /* \"class/multisignature_wallet.sol\":5495:5523  transaction.numConfirmations */\n      0x04\n      add\n      0x00\n        /* \"class/multisignature_wallet.sol\":5495:5527  transaction.numConfirmations -=1 */\n      dup3\n      dup3\n      sload\n      tag_109\n      swap2\n      swap1\n      tag_110\n      jump\t// in\n    tag_109:\n      swap1\n      swap2\n      sstore\n      pop\n      pop\n        /* \"class/multisignature_wallet.sol\":5574:5579  false */\n      0x00\n        /* \"class/multisignature_wallet.sol\":5538:5559  isConfirmed[_txIndex] */\n      dup5\n      dup2\n      mstore\n        /* \"class/multisignature_wallet.sol\":5538:5549  isConfirmed */\n      0x03\n        /* \"class/multisignature_wallet.sol\":5538:5559  isConfirmed[_txIndex] */\n      0x20\n      swap1\n      dup2\n      mstore\n      0x40\n      dup1\n      dup4\n      keccak256\n        /* \"class/multisignature_wallet.sol\":5560:5570  msg.sender */\n      caller\n        /* \"class/multisignature_wallet.sol\":5538:5571  isConfirmed[_txIndex][msg.sender] */\n      dup1\n      dup6\n      mstore\n      swap3\n      mstore\n      dup1\n      dup4\n      keccak256\n        /* \"class/multisignature_wallet.sol\":5538:5579  isConfirmed[_txIndex][msg.sender] = false */\n      dup1\n      sload\n      not(0xff)\n      and\n      swap1\n      sstore\n        /* \"class/multisignature_wallet.sol\":5595:5635  RevokeTransactions(msg.sender, _txIndex) */\n      mload\n        /* \"class/multisignature_wallet.sol\":5550:5558  _txIndex */\n      dup7\n      swap3\n        /* \"class/multisignature_wallet.sol\":5595:5635  RevokeTransactions(msg.sender, _txIndex) */\n      0x283c514ab0f0c678c1af6065bc6202d7ae6ef6a75153e5dc6b8f90ef52aa02e2\n      swap2\n      log3\n        /* \"class/multisignature_wallet.sol\":5332:5643  {... */\n      pop\n        /* \"class/multisignature_wallet.sol\":2213:2214  _ */\n      pop\n        /* \"class/multisignature_wallet.sol\":1910:1911  _ */\n      pop\n        /* \"class/multisignature_wallet.sol\":5216:5643  function revokeConfirmation(uint _txIndex) public ... */\n      pop\n      jump\t// out\n        /* \"class/multisignature_wallet.sol\":4630:5165  function excecuteTransaction(uint _txIndex) public onlyOwner ... */\n    tag_34:\n        /* \"class/multisignature_wallet.sol\":1870:1880  msg.sender */\n      caller\n        /* \"class/multisignature_wallet.sol\":1862:1881  isOwner[msg.sender] */\n      0x00\n      swap1\n      dup2\n      mstore\n        /* \"class/multisignature_wallet.sol\":1862:1869  isOwner */\n      0x01\n        /* \"class/multisignature_wallet.sol\":1862:1881  isOwner[msg.sender] */\n      0x20\n      mstore\n      0x40\n      swap1\n      keccak256\n      sload\n      0xff\n      and\n        /* \"class/multisignature_wallet.sol\":1854:1899  require(isOwner[msg.sender], \"Not the owner\") */\n      tag_112\n      jumpi\n      mload(0x40)\n      shl(0xe5, 0x461bcd)\n      dup2\n      mstore\n      0x04\n      add\n      tag_88\n      swap1\n      tag_89\n      jump\t// in\n    tag_112:\n        /* \"class/multisignature_wallet.sol\":2052:2064  transactions */\n      0x04\n        /* \"class/multisignature_wallet.sol\":2052:2071  transactions.length */\n      sload\n        /* \"class/multisignature_wallet.sol\":4706:4714  _txIndex */\n      dup2\n      swap1\n        /* \"class/multisignature_wallet.sol\":2041:2071  _txIndex < transactions.length */\n      dup2\n      lt\n        /* \"class/multisignature_wallet.sol\":2033:2104  require(_txIndex < transactions.length, \"Transactions doesn't exists.\") */\n      tag_115\n      jumpi\n      mload(0x40)\n      shl(0xe5, 0x461bcd)\n      dup2\n      mstore\n        /* \"#utility.yul\":4880:4882   */\n      0x20\n        /* \"class/multisignature_wallet.sol\":2033:2104  require(_txIndex < transactions.length, \"Transactions doesn't exists.\") */\n      0x04\n      dup3\n      add\n        /* \"#utility.yul\":4862:4883   */\n      mstore\n        /* \"#utility.yul\":4919:4921   */\n      0x1c\n        /* \"#utility.yul\":4899:4917   */\n      0x24\n      dup3\n      add\n        /* \"#utility.yul\":4892:4922   */\n      mstore\n        /* \"#utility.yul\":4958:4988   */\n      0x5472616e73616374696f6e7320646f65736e2774206578697374732e00000000\n        /* \"#utility.yul\":4938:4956   */\n      0x44\n      dup3\n      add\n        /* \"#utility.yul\":4931:4989   */\n      mstore\n        /* \"#utility.yul\":5006:5024   */\n      0x64\n      add\n        /* \"class/multisignature_wallet.sol\":2033:2104  require(_txIndex < transactions.length, \"Transactions doesn't exists.\") */\n      tag_88\n        /* \"#utility.yul\":4678:5030   */\n      jump\n        /* \"class/multisignature_wallet.sol\":2033:2104  require(_txIndex < transactions.length, \"Transactions doesn't exists.\") */\n    tag_115:\n        /* \"class/multisignature_wallet.sol\":4728:4736  _txIndex */\n      dup2\n        /* \"class/multisignature_wallet.sol\":2343:2355  transactions */\n      0x04\n        /* \"class/multisignature_wallet.sol\":2356:2364  _txIndex */\n      dup2\n        /* \"class/multisignature_wallet.sol\":2343:2365  transactions[_txIndex] */\n      dup2\n      sload\n      dup2\n      lt\n      tag_119\n      jumpi\n      tag_119\n      tag_97\n      jump\t// in\n    tag_119:\n      0x00\n      swap2\n      dup3\n      mstore\n      0x20\n      swap1\n      swap2\n      keccak256\n        /* \"class/multisignature_wallet.sol\":2343:2374  transactions[_txIndex].executed */\n      0x03\n        /* \"class/multisignature_wallet.sol\":2343:2365  transactions[_txIndex] */\n      0x05\n      swap1\n      swap3\n      mul\n      add\n        /* \"class/multisignature_wallet.sol\":2343:2374  transactions[_txIndex].executed */\n      add\n      sload\n      0xff\n      and\n        /* \"class/multisignature_wallet.sol\":2342:2374  !transactions[_txIndex].executed */\n      iszero\n        /* \"class/multisignature_wallet.sol\":2334:2398  require(!transactions[_txIndex].executed, \"Tx already executed\") */\n      tag_121\n      jumpi\n      mload(0x40)\n      shl(0xe5, 0x461bcd)\n      dup2\n      mstore\n        /* \"#utility.yul\":5369:5371   */\n      0x20\n        /* \"class/multisignature_wallet.sol\":2334:2398  require(!transactions[_txIndex].executed, \"Tx already executed\") */\n      0x04\n      dup3\n      add\n        /* \"#utility.yul\":5351:5372   */\n      mstore\n        /* \"#utility.yul\":5408:5410   */\n      0x13\n        /* \"#utility.yul\":5388:5406   */\n      0x24\n      dup3\n      add\n        /* \"#utility.yul\":5381:5411   */\n      mstore\n      shl(0x6a, 0x151e08185b1c9958591e48195e1958dd5d1959)\n        /* \"#utility.yul\":5427:5445   */\n      0x44\n      dup3\n      add\n        /* \"#utility.yul\":5420:5469   */\n      mstore\n        /* \"#utility.yul\":5486:5504   */\n      0x64\n      add\n        /* \"class/multisignature_wallet.sol\":2334:2398  require(!transactions[_txIndex].executed, \"Tx already executed\") */\n      tag_88\n        /* \"#utility.yul\":5167:5510   */\n      jump\n        /* \"class/multisignature_wallet.sol\":2334:2398  require(!transactions[_txIndex].executed, \"Tx already executed\") */\n    tag_121:\n        /* \"class/multisignature_wallet.sol\":4749:4780  Transaction storage transaction */\n      0x00\n        /* \"class/multisignature_wallet.sol\":4783:4795  transactions */\n      0x04\n        /* \"class/multisignature_wallet.sol\":4796:4804  _txIndex */\n      dup5\n        /* \"class/multisignature_wallet.sol\":4783:4805  transactions[_txIndex] */\n      dup2\n      sload\n      dup2\n      lt\n      tag_125\n      jumpi\n      tag_125\n      tag_97\n      jump\t// in\n    tag_125:\n      0x00\n      swap2\n      dup3\n      mstore\n      0x20\n      dup3\n      keccak256\n        /* \"class/multisignature_wallet.sol\":4925:4945  transaction.executed */\n      0x03\n        /* \"class/multisignature_wallet.sol\":4783:4805  transactions[_txIndex] */\n      0x05\n      swap1\n      swap3\n      mul\n      add\n        /* \"class/multisignature_wallet.sol\":4925:4945  transaction.executed */\n      swap1\n      dup2\n      add\n        /* \"class/multisignature_wallet.sol\":4925:4952  transaction.executed = true */\n      dup1\n      sload\n      not(0xff)\n      and\n        /* \"class/multisignature_wallet.sol\":4948:4952  true */\n      0x01\n        /* \"class/multisignature_wallet.sol\":4925:4952  transaction.executed = true */\n      swap1\n      dup2\n      or\n      swap1\n      swap2\n      sstore\n        /* \"class/multisignature_wallet.sol\":4983:4997  transaction.to */\n      dup2\n      sload\n        /* \"class/multisignature_wallet.sol\":5024:5041  transaction.value */\n      swap1\n      dup3\n      add\n      sload\n        /* \"class/multisignature_wallet.sol\":4983:5060  transaction.to.call{gas : 20000, value : transaction.value}(transaction.data) */\n      mload(0x40)\n        /* \"class/multisignature_wallet.sol\":4783:4805  transactions[_txIndex] */\n      swap3\n      swap5\n      pop\n      sub(shl(0xa0, 0x01), 0x01)\n        /* \"class/multisignature_wallet.sol\":4983:4997  transaction.to */\n      swap1\n      swap2\n      and\n      swap2\n        /* \"class/multisignature_wallet.sol\":5009:5014  20000 */\n      0x4e20\n      swap2\n        /* \"class/multisignature_wallet.sol\":5024:5041  transaction.value */\n      swap1\n        /* \"class/multisignature_wallet.sol\":4983:5060  transaction.to.call{gas : 20000, value : transaction.value}(transaction.data) */\n      tag_127\n      swap1\n        /* \"class/multisignature_wallet.sol\":5043:5059  transaction.data */\n      0x02\n      dup8\n      add\n      swap1\n        /* \"class/multisignature_wallet.sol\":4983:5060  transaction.to.call{gas : 20000, value : transaction.value}(transaction.data) */\n      tag_128\n      jump\t// in\n    tag_127:\n      0x00\n      mload(0x40)\n      dup1\n      dup4\n      sub\n      dup2\n      dup6\n      dup9\n      dup9\n      call\n      swap4\n      pop\n      pop\n      pop\n      pop\n      returndatasize\n      dup1\n      0x00\n      dup2\n      eq\n      tag_131\n      jumpi\n      mload(0x40)\n      swap2\n      pop\n      and(add(returndatasize, 0x3f), not(0x1f))\n      dup3\n      add\n      0x40\n      mstore\n      returndatasize\n      dup3\n      mstore\n      returndatasize\n      0x00\n      0x20\n      dup5\n      add\n      returndatacopy\n      jump(tag_130)\n    tag_131:\n      0x60\n      swap2\n      pop\n    tag_130:\n      pop\n        /* \"class/multisignature_wallet.sol\":4963:5060  (bool success, )  = transaction.to.call{gas : 20000, value : transaction.value}(transaction.data) */\n      pop\n      swap1\n      pop\n        /* \"class/multisignature_wallet.sol\":5079:5086  success */\n      dup1\n        /* \"class/multisignature_wallet.sol\":5071:5100  require(success, \"Tx Failed\") */\n      tag_132\n      jumpi\n      mload(0x40)\n      shl(0xe5, 0x461bcd)\n      dup2\n      mstore\n        /* \"#utility.yul\":7694:7696   */\n      0x20\n        /* \"class/multisignature_wallet.sol\":5071:5100  require(success, \"Tx Failed\") */\n      0x04\n      dup3\n      add\n        /* \"#utility.yul\":7676:7697   */\n      mstore\n        /* \"#utility.yul\":7733:7734   */\n      0x09\n        /* \"#utility.yul\":7713:7731   */\n      0x24\n      dup3\n      add\n        /* \"#utility.yul\":7706:7735   */\n      mstore\n      shl(0xba, 0x151e0811985a5b1959)\n        /* \"#utility.yul\":7751:7769   */\n      0x44\n      dup3\n      add\n        /* \"#utility.yul\":7744:7783   */\n      mstore\n        /* \"#utility.yul\":7800:7818   */\n      0x64\n      add\n        /* \"class/multisignature_wallet.sol\":5071:5100  require(success, \"Tx Failed\") */\n      tag_88\n        /* \"#utility.yul\":7492:7824   */\n      jump\n        /* \"class/multisignature_wallet.sol\":5071:5100  require(success, \"Tx Failed\") */\n    tag_132:\n        /* \"class/multisignature_wallet.sol\":5116:5157  ExecuteTransactions(msg.sender, _txIndex) */\n      mload(0x40)\n        /* \"class/multisignature_wallet.sol\":5148:5156  _txIndex */\n      dup6\n      swap1\n        /* \"class/multisignature_wallet.sol\":5136:5146  msg.sender */\n      caller\n      swap1\n        /* \"class/multisignature_wallet.sol\":5116:5157  ExecuteTransactions(msg.sender, _txIndex) */\n      0xb8f3f22b153c8972a2b4035f917011b44c5eebfd1961477649b4b59fd2b8ab7a\n      swap1\n      0x00\n      swap1\n      log3\n        /* \"class/multisignature_wallet.sol\":4738:5165  {... */\n      pop\n      pop\n        /* \"class/multisignature_wallet.sol\":2213:2214  _ */\n      pop\n        /* \"class/multisignature_wallet.sol\":1910:1911  _ */\n      pop\n        /* \"class/multisignature_wallet.sol\":4630:5165  function excecuteTransaction(uint _txIndex) public onlyOwner ... */\n      pop\n      jump\t// out\n        /* \"class/multisignature_wallet.sol\":5862:6206  function getTransaction(uint _txIndex) public view ... */\n    tag_50:\n        /* \"class/multisignature_wallet.sol\":5927:5937  address to */\n      0x00\n        /* \"class/multisignature_wallet.sol\":5939:5949  uint value */\n      dup1\n        /* \"class/multisignature_wallet.sol\":5951:5968  bytes memory data */\n      0x60\n        /* \"class/multisignature_wallet.sol\":5970:5983  bool executed */\n      0x00\n        /* \"class/multisignature_wallet.sol\":5985:6006  uint numConfirmations */\n      dup1\n        /* \"class/multisignature_wallet.sol\":6019:6050  Transaction storage transaction */\n      0x00\n        /* \"class/multisignature_wallet.sol\":6053:6065  transactions */\n      0x04\n        /* \"class/multisignature_wallet.sol\":6066:6074  _txIndex */\n      dup8\n        /* \"class/multisignature_wallet.sol\":6053:6075  transactions[_txIndex] */\n      dup2\n      sload\n      dup2\n      lt\n      tag_138\n      jumpi\n      tag_138\n      tag_97\n      jump\t// in\n    tag_138:\n      0x00\n      swap2\n      dup3\n      mstore\n      0x20\n      swap1\n      swap2\n      keccak256\n      0x05\n      swap1\n      swap2\n      mul\n      add\n        /* \"class/multisignature_wallet.sol\":6094:6108  transaction.to */\n      dup1\n      sload\n      0x01\n        /* \"class/multisignature_wallet.sol\":6110:6127  transaction.value */\n      dup3\n      add\n      sload\n        /* \"class/multisignature_wallet.sol\":6147:6167  transaction.executed */\n      0x03\n      dup4\n      add\n      sload\n        /* \"class/multisignature_wallet.sol\":6169:6197  transaction.numConfirmations */\n      0x04\n      dup5\n      add\n      sload\n        /* \"class/multisignature_wallet.sol\":6129:6145  transaction.data */\n      0x02\n      dup6\n      add\n        /* \"class/multisignature_wallet.sol\":6087:6198  return(transaction.to, transaction.value, transaction.data, transaction.executed, transaction.numConfirmations) */\n      dup1\n      sload\n        /* \"class/multisignature_wallet.sol\":6053:6075  transactions[_txIndex] */\n      swap6\n      swap7\n      pop\n      sub(shl(0xa0, 0x01), 0x01)\n        /* \"class/multisignature_wallet.sol\":6094:6108  transaction.to */\n      swap1\n      swap5\n      and\n      swap5\n        /* \"class/multisignature_wallet.sol\":6110:6127  transaction.value */\n      swap3\n      swap4\n        /* \"class/multisignature_wallet.sol\":6129:6145  transaction.data */\n      swap3\n        /* \"class/multisignature_wallet.sol\":6147:6167  transaction.executed */\n      0xff\n      swap1\n      swap3\n      and\n      swap2\n        /* \"class/multisignature_wallet.sol\":6129:6145  transaction.data */\n      dup4\n      swap1\n        /* \"class/multisignature_wallet.sol\":6087:6198  return(transaction.to, transaction.value, transaction.data, transaction.executed, transaction.numConfirmations) */\n      tag_140\n      swap1\n      tag_141\n      jump\t// in\n    tag_140:\n      dup1\n      0x1f\n      add\n      0x20\n      dup1\n      swap2\n      div\n      mul\n      0x20\n      add\n      mload(0x40)\n      swap1\n      dup2\n      add\n      0x40\n      mstore\n      dup1\n      swap3\n      swap2\n      swap1\n      dup2\n      dup2\n      mstore\n      0x20\n      add\n      dup3\n      dup1\n      sload\n      tag_142\n      swap1\n      tag_141\n      jump\t// in\n    tag_142:\n      dup1\n      iszero\n      tag_143\n      jumpi\n      dup1\n      0x1f\n      lt\n      tag_144\n      jumpi\n      0x0100\n      dup1\n      dup4\n      sload\n      div\n      mul\n      dup4\n      mstore\n      swap2\n      0x20\n      add\n      swap2\n      jump(tag_143)\n    tag_144:\n      dup3\n      add\n      swap2\n      swap1\n      0x00\n      mstore\n      keccak256(0x00, 0x20)\n      swap1\n    tag_145:\n      dup2\n      sload\n      dup2\n      mstore\n      swap1\n      0x01\n      add\n      swap1\n      0x20\n      add\n      dup1\n      dup4\n      gt\n      tag_145\n      jumpi\n      dup3\n      swap1\n      sub\n      0x1f\n      and\n      dup3\n      add\n      swap2\n    tag_143:\n      pop\n      pop\n      pop\n      pop\n      pop\n      swap3\n      pop\n      swap6\n      pop\n      swap6\n      pop\n      swap6\n      pop\n      swap6\n      pop\n      swap6\n      pop\n      pop\n        /* \"class/multisignature_wallet.sol\":5862:6206  function getTransaction(uint _txIndex) public view ... */\n      swap2\n      swap4\n      swap6\n      swap1\n      swap3\n      swap5\n      pop\n      jump\t// out\n        /* \"class/multisignature_wallet.sol\":3472:3702  function depositEth() public payable {... */\n    tag_54:\n        /* \"class/multisignature_wallet.sol\":3540:3580  address(this).call{value :msg.value}(\"\") */\n      mload(0x40)\n        /* \"class/multisignature_wallet.sol\":3521:3533  bool success */\n      0x00\n      swap1\n        /* \"class/multisignature_wallet.sol\":3548:3552  this */\n      address\n      swap1\n        /* \"class/multisignature_wallet.sol\":3566:3575  msg.value */\n      callvalue\n      swap1\n        /* \"class/multisignature_wallet.sol\":3521:3533  bool success */\n      dup4\n        /* \"class/multisignature_wallet.sol\":3540:3580  address(this).call{value :msg.value}(\"\") */\n      dup2\n        /* \"class/multisignature_wallet.sol\":3521:3533  bool success */\n      dup2\n        /* \"class/multisignature_wallet.sol\":3540:3580  address(this).call{value :msg.value}(\"\") */\n      dup2\n        /* \"class/multisignature_wallet.sol\":3566:3575  msg.value */\n      dup6\n        /* \"class/multisignature_wallet.sol\":3548:3552  this */\n      dup8\n        /* \"class/multisignature_wallet.sol\":3540:3580  address(this).call{value :msg.value}(\"\") */\n      gas\n      call\n      swap3\n      pop\n      pop\n      pop\n      returndatasize\n      dup1\n      0x00\n      dup2\n      eq\n      tag_151\n      jumpi\n      mload(0x40)\n      swap2\n      pop\n      and(add(returndatasize, 0x3f), not(0x1f))\n      dup3\n      add\n      0x40\n      mstore\n      returndatasize\n      dup3\n      mstore\n      returndatasize\n      0x00\n      0x20\n      dup5\n      add\n      returndatacopy\n      jump(tag_150)\n    tag_151:\n      0x60\n      swap2\n      pop\n    tag_150:\n      pop\n        /* \"class/multisignature_wallet.sol\":3520:3580  (bool success, )  = address(this).call{value :msg.value}(\"\") */\n      pop\n      swap1\n      pop\n        /* \"class/multisignature_wallet.sol\":3599:3606  success */\n      dup1\n        /* \"class/multisignature_wallet.sol\":3591:3625  require(success, \"Deposit Failed\") */\n      tag_152\n      jumpi\n      mload(0x40)\n      shl(0xe5, 0x461bcd)\n      dup2\n      mstore\n        /* \"#utility.yul\":8241:8243   */\n      0x20\n        /* \"class/multisignature_wallet.sol\":3591:3625  require(success, \"Deposit Failed\") */\n      0x04\n      dup3\n      add\n        /* \"#utility.yul\":8223:8244   */\n      mstore\n        /* \"#utility.yul\":8280:8282   */\n      0x0e\n        /* \"#utility.yul\":8260:8278   */\n      0x24\n      dup3\n      add\n        /* \"#utility.yul\":8253:8283   */\n      mstore\n      shl(0x92, 0x11195c1bdcda5d0811985a5b1959)\n        /* \"#utility.yul\":8299:8317   */\n      0x44\n      dup3\n      add\n        /* \"#utility.yul\":8292:8336   */\n      mstore\n        /* \"#utility.yul\":8353:8371   */\n      0x64\n      add\n        /* \"class/multisignature_wallet.sol\":3591:3625  require(success, \"Deposit Failed\") */\n      tag_88\n        /* \"#utility.yul\":8039:8377   */\n      jump\n        /* \"class/multisignature_wallet.sol\":3591:3625  require(success, \"Deposit Failed\") */\n    tag_152:\n        /* \"class/multisignature_wallet.sol\":3641:3694  Deposit(msg.sender, msg.value, address(this).balance) */\n      0x40\n      dup1\n      mload\n        /* \"class/multisignature_wallet.sol\":3661:3670  msg.value */\n      callvalue\n        /* \"#utility.yul\":8556:8581   */\n      dup2\n      mstore\n        /* \"class/multisignature_wallet.sol\":3672:3693  address(this).balance */\n      selfbalance\n        /* \"#utility.yul\":8612:8614   */\n      0x20\n        /* \"#utility.yul\":8597:8615   */\n      dup3\n      add\n        /* \"#utility.yul\":8590:8624   */\n      mstore\n        /* \"class/multisignature_wallet.sol\":3649:3659  msg.sender */\n      caller\n      swap2\n        /* \"class/multisignature_wallet.sol\":3641:3694  Deposit(msg.sender, msg.value, address(this).balance) */\n      0x90890809c654f11d6e72a28fa60149770a0d11ec6c92319d6ceb2bb0a4ea1a15\n      swap2\n        /* \"#utility.yul\":8529:8547   */\n      add\n        /* \"class/multisignature_wallet.sol\":3641:3694  Deposit(msg.sender, msg.value, address(this).balance) */\n      mload(0x40)\n      dup1\n      swap2\n      sub\n      swap1\n      log2\n        /* \"class/multisignature_wallet.sol\":3509:3702  {... */\n      pop\n        /* \"class/multisignature_wallet.sol\":3472:3702  function depositEth() public payable {... */\n      jump\t// out\n        /* \"class/multisignature_wallet.sol\":1627:1660  Transaction[] public transactions */\n    tag_64:\n      0x04\n      dup2\n      dup2\n      sload\n      dup2\n      lt\n      tag_157\n      jumpi\n      0x00\n      dup1\n      revert\n    tag_157:\n      0x00\n      swap2\n      dup3\n      mstore\n      0x20\n      swap1\n      swap2\n      keccak256\n      0x05\n      swap1\n      swap2\n      mul\n      add\n      dup1\n      sload\n      0x01\n      dup3\n      add\n      sload\n      0x02\n      dup4\n      add\n      dup1\n      sload\n      sub(shl(0xa0, 0x01), 0x01)\n      swap1\n      swap4\n      and\n      swap5\n      pop\n      swap1\n      swap3\n      swap2\n      tag_159\n      swap1\n      tag_141\n      jump\t// in\n    tag_159:\n      dup1\n      0x1f\n      add\n      0x20\n      dup1\n      swap2\n      div\n      mul\n      0x20\n      add\n      mload(0x40)\n      swap1\n      dup2\n      add\n      0x40\n      mstore\n      dup1\n      swap3\n      swap2\n      swap1\n      dup2\n      dup2\n      mstore\n      0x20\n      add\n      dup3\n      dup1\n      sload\n      tag_160\n      swap1\n      tag_141\n      jump\t// in\n    tag_160:\n      dup1\n      iszero\n      tag_161\n      jumpi\n      dup1\n      0x1f\n      lt\n      tag_162\n      jumpi\n      0x0100\n      dup1\n      dup4\n      sload\n      div\n      mul\n      dup4\n      mstore\n      swap2\n      0x20\n      add\n      swap2\n      jump(tag_161)\n    tag_162:\n      dup3\n      add\n      swap2\n      swap1\n      0x00\n      mstore\n      keccak256(0x00, 0x20)\n      swap1\n    tag_163:\n      dup2\n      sload\n      dup2\n      mstore\n      swap1\n      0x01\n      add\n      swap1\n      0x20\n      add\n      dup1\n      dup4\n      gt\n      tag_163\n      jumpi\n      dup3\n      swap1\n      sub\n      0x1f\n      and\n      dup3\n      add\n      swap2\n    tag_161:\n      pop\n      pop\n      pop\n      pop\n      0x03\n      dup4\n      add\n      sload\n      0x04\n      swap1\n      swap4\n      add\n      sload\n      swap2\n      swap3\n      0xff\n      and\n      swap2\n      swap1\n      pop\n      dup6\n      jump\t// out\n        /* \"class/multisignature_wallet.sol\":5653:5744  function getOwners() public view returns(address[] memory) {... */\n    tag_68:\n        /* \"class/multisignature_wallet.sol\":5694:5710  address[] memory */\n      0x60\n        /* \"class/multisignature_wallet.sol\":5730:5736  owners */\n      0x00\n        /* \"class/multisignature_wallet.sol\":5723:5736  return owners */\n      dup1\n      sload\n      dup1\n      0x20\n      mul\n      0x20\n      add\n      mload(0x40)\n      swap1\n      dup2\n      add\n      0x40\n      mstore\n      dup1\n      swap3\n      swap2\n      swap1\n      dup2\n      dup2\n      mstore\n      0x20\n      add\n      dup3\n      dup1\n      sload\n      dup1\n      iszero\n      tag_165\n      jumpi\n      0x20\n      mul\n      dup3\n      add\n      swap2\n      swap1\n      0x00\n      mstore\n      keccak256(0x00, 0x20)\n      swap1\n    tag_166:\n      dup2\n      sload\n      sub(shl(0xa0, 0x01), 0x01)\n      and\n      dup2\n      mstore\n      0x01\n      swap1\n      swap2\n      add\n      swap1\n      0x20\n      add\n      dup1\n      dup4\n      gt\n      tag_166\n      jumpi\n    tag_165:\n      pop\n      pop\n      pop\n      pop\n      pop\n      swap1\n      pop\n        /* \"class/multisignature_wallet.sol\":5653:5744  function getOwners() public view returns(address[] memory) {... */\n      swap1\n      jump\t// out\n        /* \"class/multisignature_wallet.sol\":3747:4141  function confirmTransaction(uint _txIndex) public onlyOwner txExists(_txIndex) notExecuted(_txIndex) ... */\n    tag_74:\n        /* \"class/multisignature_wallet.sol\":1870:1880  msg.sender */\n      caller\n        /* \"class/multisignature_wallet.sol\":1862:1881  isOwner[msg.sender] */\n      0x00\n      swap1\n      dup2\n      mstore\n        /* \"class/multisignature_wallet.sol\":1862:1869  isOwner */\n      0x01\n        /* \"class/multisignature_wallet.sol\":1862:1881  isOwner[msg.sender] */\n      0x20\n      mstore\n      0x40\n      swap1\n      keccak256\n      sload\n      0xff\n      and\n        /* \"class/multisignature_wallet.sol\":1854:1899  require(isOwner[msg.sender], \"Not the owner\") */\n      tag_168\n      jumpi\n      mload(0x40)\n      shl(0xe5, 0x461bcd)\n      dup2\n      mstore\n      0x04\n      add\n      tag_88\n      swap1\n      tag_89\n      jump\t// in\n    tag_168:\n        /* \"class/multisignature_wallet.sol\":2052:2064  transactions */\n      0x04\n        /* \"class/multisignature_wallet.sol\":2052:2071  transactions.length */\n      sload\n        /* \"class/multisignature_wallet.sol\":3816:3824  _txIndex */\n      dup2\n      swap1\n        /* \"class/multisignature_wallet.sol\":2041:2071  _txIndex < transactions.length */\n      dup2\n      lt\n        /* \"class/multisignature_wallet.sol\":2033:2104  require(_txIndex < transactions.length, \"Transactions doesn't exists.\") */\n      tag_171\n      jumpi\n      mload(0x40)\n      shl(0xe5, 0x461bcd)\n      dup2\n      mstore\n        /* \"#utility.yul\":4880:4882   */\n      0x20\n        /* \"class/multisignature_wallet.sol\":2033:2104  require(_txIndex < transactions.length, \"Transactions doesn't exists.\") */\n      0x04\n      dup3\n      add\n        /* \"#utility.yul\":4862:4883   */\n      mstore\n        /* \"#utility.yul\":4919:4921   */\n      0x1c\n        /* \"#utility.yul\":4899:4917   */\n      0x24\n      dup3\n      add\n        /* \"#utility.yul\":4892:4922   */\n      mstore\n        /* \"#utility.yul\":4958:4988   */\n      0x5472616e73616374696f6e7320646f65736e2774206578697374732e00000000\n        /* \"#utility.yul\":4938:4956   */\n      0x44\n      dup3\n      add\n        /* \"#utility.yul\":4931:4989   */\n      mstore\n        /* \"#utility.yul\":5006:5024   */\n      0x64\n      add\n        /* \"class/multisignature_wallet.sol\":2033:2104  require(_txIndex < transactions.length, \"Transactions doesn't exists.\") */\n      tag_88\n        /* \"#utility.yul\":4678:5030   */\n      jump\n        /* \"class/multisignature_wallet.sol\":2033:2104  require(_txIndex < transactions.length, \"Transactions doesn't exists.\") */\n    tag_171:\n        /* \"class/multisignature_wallet.sol\":3838:3846  _txIndex */\n      dup2\n        /* \"class/multisignature_wallet.sol\":2343:2355  transactions */\n      0x04\n        /* \"class/multisignature_wallet.sol\":2356:2364  _txIndex */\n      dup2\n        /* \"class/multisignature_wallet.sol\":2343:2365  transactions[_txIndex] */\n      dup2\n      sload\n      dup2\n      lt\n      tag_175\n      jumpi\n      tag_175\n      tag_97\n      jump\t// in\n    tag_175:\n      0x00\n      swap2\n      dup3\n      mstore\n      0x20\n      swap1\n      swap2\n      keccak256\n        /* \"class/multisignature_wallet.sol\":2343:2374  transactions[_txIndex].executed */\n      0x03\n        /* \"class/multisignature_wallet.sol\":2343:2365  transactions[_txIndex] */\n      0x05\n      swap1\n      swap3\n      mul\n      add\n        /* \"class/multisignature_wallet.sol\":2343:2374  transactions[_txIndex].executed */\n      add\n      sload\n      0xff\n      and\n        /* \"class/multisignature_wallet.sol\":2342:2374  !transactions[_txIndex].executed */\n      iszero\n        /* \"class/multisignature_wallet.sol\":2334:2398  require(!transactions[_txIndex].executed, \"Tx already executed\") */\n      tag_177\n      jumpi\n      mload(0x40)\n      shl(0xe5, 0x461bcd)\n      dup2\n      mstore\n        /* \"#utility.yul\":5369:5371   */\n      0x20\n        /* \"class/multisignature_wallet.sol\":2334:2398  require(!transactions[_txIndex].executed, \"Tx already executed\") */\n      0x04\n      dup3\n      add\n        /* \"#utility.yul\":5351:5372   */\n      mstore\n        /* \"#utility.yul\":5408:5410   */\n      0x13\n        /* \"#utility.yul\":5388:5406   */\n      0x24\n      dup3\n      add\n        /* \"#utility.yul\":5381:5411   */\n      mstore\n      shl(0x6a, 0x151e08185b1c9958591e48195e1958dd5d1959)\n        /* \"#utility.yul\":5427:5445   */\n      0x44\n      dup3\n      add\n        /* \"#utility.yul\":5420:5469   */\n      mstore\n        /* \"#utility.yul\":5486:5504   */\n      0x64\n      add\n        /* \"class/multisignature_wallet.sol\":2334:2398  require(!transactions[_txIndex].executed, \"Tx already executed\") */\n      tag_88\n        /* \"#utility.yul\":5167:5510   */\n      jump\n        /* \"class/multisignature_wallet.sol\":2334:2398  require(!transactions[_txIndex].executed, \"Tx already executed\") */\n    tag_177:\n        /* \"class/multisignature_wallet.sol\":2483:2504  isConfirmed[_txIndex] */\n      0x00\n      dup4\n      dup2\n      mstore\n        /* \"class/multisignature_wallet.sol\":2483:2494  isConfirmed */\n      0x03\n        /* \"class/multisignature_wallet.sol\":2483:2504  isConfirmed[_txIndex] */\n      0x20\n      swap1\n      dup2\n      mstore\n      0x40\n      dup1\n      dup4\n      keccak256\n        /* \"class/multisignature_wallet.sol\":2505:2515  msg.sender */\n      caller\n        /* \"class/multisignature_wallet.sol\":2483:2516  isConfirmed[_txIndex][msg.sender] */\n      dup5\n      mstore\n      swap1\n      swap2\n      mstore\n      swap1\n      keccak256\n      sload\n        /* \"class/multisignature_wallet.sol\":3871:3879  _txIndex */\n      dup4\n      swap1\n        /* \"class/multisignature_wallet.sol\":2483:2516  isConfirmed[_txIndex][msg.sender] */\n      0xff\n      and\n        /* \"class/multisignature_wallet.sol\":2482:2516  !isConfirmed[_txIndex][msg.sender] */\n      iszero\n        /* \"class/multisignature_wallet.sol\":2474:2541  require(!isConfirmed[_txIndex][msg.sender], \"Tx already confirmed\") */\n      tag_180\n      jumpi\n      mload(0x40)\n      shl(0xe5, 0x461bcd)\n      dup2\n      mstore\n        /* \"#utility.yul\":8837:8839   */\n      0x20\n        /* \"class/multisignature_wallet.sol\":2474:2541  require(!isConfirmed[_txIndex][msg.sender], \"Tx already confirmed\") */\n      0x04\n      dup3\n      add\n        /* \"#utility.yul\":8819:8840   */\n      mstore\n        /* \"#utility.yul\":8876:8878   */\n      0x14\n        /* \"#utility.yul\":8856:8874   */\n      0x24\n      dup3\n      add\n        /* \"#utility.yul\":8849:8879   */\n      mstore\n      shl(0x62, 0x151e08185b1c9958591e4818dbdb999a5c9b5959)\n        /* \"#utility.yul\":8895:8913   */\n      0x44\n      dup3\n      add\n        /* \"#utility.yul\":8888:8938   */\n      mstore\n        /* \"#utility.yul\":8955:8973   */\n      0x64\n      add\n        /* \"class/multisignature_wallet.sol\":2474:2541  require(!isConfirmed[_txIndex][msg.sender], \"Tx already confirmed\") */\n      tag_88\n        /* \"#utility.yul\":8635:8979   */\n      jump\n        /* \"class/multisignature_wallet.sol\":2474:2541  require(!isConfirmed[_txIndex][msg.sender], \"Tx already confirmed\") */\n    tag_180:\n        /* \"class/multisignature_wallet.sol\":3892:3923  Transaction storage transaction */\n      0x00\n        /* \"class/multisignature_wallet.sol\":3926:3938  transactions */\n      0x04\n        /* \"class/multisignature_wallet.sol\":3939:3947  _txIndex */\n      dup6\n        /* \"class/multisignature_wallet.sol\":3926:3948  transactions[_txIndex] */\n      dup2\n      sload\n      dup2\n      lt\n      tag_185\n      jumpi\n      tag_185\n      tag_97\n      jump\t// in\n    tag_185:\n      swap1\n      0x00\n      mstore\n      keccak256(0x00, 0x20)\n      swap1\n      0x05\n      mul\n      add\n        /* \"class/multisignature_wallet.sol\":3892:3948  Transaction storage transaction = transactions[_txIndex] */\n      swap1\n      pop\n        /* \"class/multisignature_wallet.sol\":3990:3991  1 */\n      0x01\n        /* \"class/multisignature_wallet.sol\":3959:3970  transaction */\n      dup2\n        /* \"class/multisignature_wallet.sol\":3959:3987  transaction.numConfirmations */\n      0x04\n      add\n      0x00\n        /* \"class/multisignature_wallet.sol\":3959:3991  transaction.numConfirmations +=1 */\n      dup3\n      dup3\n      sload\n      tag_187\n      swap2\n      swap1\n      tag_188\n      jump\t// in\n    tag_187:\n      swap1\n      swap2\n      sstore\n      pop\n      pop\n        /* \"class/multisignature_wallet.sol\":4036:4057  isConfirmed[_txIndex] */\n      0x00\n      dup6\n      dup2\n      mstore\n        /* \"class/multisignature_wallet.sol\":4036:4047  isConfirmed */\n      0x03\n        /* \"class/multisignature_wallet.sol\":4036:4057  isConfirmed[_txIndex] */\n      0x20\n      swap1\n      dup2\n      mstore\n      0x40\n      dup1\n      dup4\n      keccak256\n        /* \"class/multisignature_wallet.sol\":4058:4068  msg.sender */\n      caller\n        /* \"class/multisignature_wallet.sol\":4036:4069  isConfirmed[_txIndex][msg.sender] */\n      dup1\n      dup6\n      mstore\n      swap3\n      mstore\n      dup1\n      dup4\n      keccak256\n        /* \"class/multisignature_wallet.sol\":4036:4076  isConfirmed[_txIndex][msg.sender] = true */\n      dup1\n      sload\n      not(0xff)\n      and\n        /* \"class/multisignature_wallet.sol\":4072:4076  true */\n      0x01\n        /* \"class/multisignature_wallet.sol\":4036:4076  isConfirmed[_txIndex][msg.sender] = true */\n      or\n      swap1\n      sstore\n        /* \"class/multisignature_wallet.sol\":4092:4133  ConfirmTransactions(msg.sender, _txIndex) */\n      mload\n        /* \"class/multisignature_wallet.sol\":4048:4056  _txIndex */\n      dup8\n      swap3\n        /* \"class/multisignature_wallet.sol\":4092:4133  ConfirmTransactions(msg.sender, _txIndex) */\n      0x30b792a06b894d6f94d14f993999054aec555c00f74a9c4749c19cd5977f3438\n      swap2\n      log3\n        /* \"class/multisignature_wallet.sol\":3881:4141  {... */\n      pop\n        /* \"class/multisignature_wallet.sol\":2409:2410  _ */\n      pop\n        /* \"class/multisignature_wallet.sol\":2213:2214  _ */\n      pop\n        /* \"class/multisignature_wallet.sol\":1910:1911  _ */\n      pop\n        /* \"class/multisignature_wallet.sol\":3747:4141  function confirmTransaction(uint _txIndex) public onlyOwner txExists(_txIndex) notExecuted(_txIndex) ... */\n      pop\n      jump\t// out\n        /* \"class/multisignature_wallet.sol\":4149:4621  function submitTransaction(address _to, uint _value, bytes memory _data) public onlyOwner {... */\n    tag_79:\n        /* \"class/multisignature_wallet.sol\":1870:1880  msg.sender */\n      caller\n        /* \"class/multisignature_wallet.sol\":1862:1881  isOwner[msg.sender] */\n      0x00\n      swap1\n      dup2\n      mstore\n        /* \"class/multisignature_wallet.sol\":1862:1869  isOwner */\n      0x01\n        /* \"class/multisignature_wallet.sol\":1862:1881  isOwner[msg.sender] */\n      0x20\n      mstore\n      0x40\n      swap1\n      keccak256\n      sload\n      0xff\n      and\n        /* \"class/multisignature_wallet.sol\":1854:1899  require(isOwner[msg.sender], \"Not the owner\") */\n      tag_190\n      jumpi\n      mload(0x40)\n      shl(0xe5, 0x461bcd)\n      dup2\n      mstore\n      0x04\n      add\n      tag_88\n      swap1\n      tag_89\n      jump\t// in\n    tag_190:\n        /* \"class/multisignature_wallet.sol\":4265:4277  transactions */\n      0x04\n        /* \"class/multisignature_wallet.sol\":4265:4284  transactions.length */\n      dup1\n      sload\n        /* \"class/multisignature_wallet.sol\":4327:4522  Transaction({... */\n      0x40\n      dup1\n      mload\n      0xa0\n      dup2\n      add\n      dup3\n      mstore\n      sub(shl(0xa0, 0x01), 0x01)\n      dup8\n      dup2\n      and\n      dup3\n      mstore\n      0x20\n      dup3\n      add\n      dup8\n      dup2\n      mstore\n      swap3\n      dup3\n      add\n      dup7\n      dup2\n      mstore\n      0x00\n      0x60\n      dup5\n      add\n      dup2\n      swap1\n      mstore\n      0x80\n      dup5\n      add\n      dup2\n      swap1\n      mstore\n      0x01\n        /* \"class/multisignature_wallet.sol\":4295:4536  transactions.push(... */\n      dup7\n      add\n      dup8\n      sstore\n      swap6\n      swap1\n      swap6\n      mstore\n      dup2\n      mload\n      0x8a35acfbc15ff81a39ae7d344fd709f28e8600b4aa8c65c6b64bfe7fe36bd19b\n      0x05\n      dup7\n      mul\n      swap1\n      dup2\n      add\n      dup1\n      sload\n      not(0xffffffffffffffffffffffffffffffffffffffff)\n      and\n      swap3\n      swap1\n      swap4\n      and\n      swap2\n      swap1\n      swap2\n      or\n      dup3\n      sstore\n      swap3\n      mload\n      0x8a35acfbc15ff81a39ae7d344fd709f28e8600b4aa8c65c6b64bfe7fe36bd19c\n      dup5\n      add\n      sstore\n      swap4\n      mload\n        /* \"class/multisignature_wallet.sol\":4265:4284  transactions.length */\n      swap3\n      swap4\n        /* \"class/multisignature_wallet.sol\":4327:4522  Transaction({... */\n      swap1\n      swap3\n        /* \"class/multisignature_wallet.sol\":4295:4536  transactions.push(... */\n      swap1\n      swap2\n      0x8a35acfbc15ff81a39ae7d344fd709f28e8600b4aa8c65c6b64bfe7fe36bd19d\n      add\n      swap1\n      tag_194\n      swap1\n      dup3\n      tag_195\n      jump\t// in\n    tag_194:\n      pop\n      0x60\n      dup3\n      add\n      mload\n      0x03\n      dup3\n      add\n      dup1\n      sload\n      not(0xff)\n      and\n      swap2\n      iszero\n      iszero\n      swap2\n      swap1\n      swap2\n      or\n      swap1\n      sstore\n      0x80\n      swap1\n      swap2\n      add\n      mload\n      0x04\n      swap1\n      swap2\n      add\n      sstore\n        /* \"class/multisignature_wallet.sol\":4554:4613  SubmitTransactions(msg.sender, txIndex, _to, _value, _data) */\n      mload(0x40)\n      sub(shl(0xa0, 0x01), 0x01)\n      dup6\n      and\n      swap1\n        /* \"class/multisignature_wallet.sol\":4585:4592  txIndex */\n      dup3\n      swap1\n        /* \"class/multisignature_wallet.sol\":4573:4583  msg.sender */\n      caller\n      swap1\n        /* \"class/multisignature_wallet.sol\":4554:4613  SubmitTransactions(msg.sender, txIndex, _to, _value, _data) */\n      0x4cd0db5ae67223334766462aae67a7332e1fd08faaf911ca846a11461d42c35a\n      swap1\n      tag_196\n      swap1\n        /* \"class/multisignature_wallet.sol\":4599:4605  _value */\n      dup9\n      swap1\n        /* \"class/multisignature_wallet.sol\":4607:4612  _data */\n      dup9\n      swap1\n        /* \"class/multisignature_wallet.sol\":4554:4613  SubmitTransactions(msg.sender, txIndex, _to, _value, _data) */\n      tag_197\n      jump\t// in\n    tag_196:\n      mload(0x40)\n      dup1\n      swap2\n      sub\n      swap1\n      log4\n        /* \"class/multisignature_wallet.sol\":4239:4621  {... */\n      pop\n        /* \"class/multisignature_wallet.sol\":4149:4621  function submitTransaction(address _to, uint _value, bytes memory _data) public onlyOwner {... */\n      pop\n      pop\n      pop\n      jump\t// out\n        /* \"#utility.yul\":14:194   */\n    tag_23:\n        /* \"#utility.yul\":73:79   */\n      0x00\n        /* \"#utility.yul\":126:128   */\n      0x20\n        /* \"#utility.yul\":114:123   */\n      dup3\n        /* \"#utility.yul\":105:112   */\n      dup5\n        /* \"#utility.yul\":101:124   */\n      sub\n        /* \"#utility.yul\":97:129   */\n      slt\n        /* \"#utility.yul\":94:146   */\n      iszero\n      tag_207\n      jumpi\n        /* \"#utility.yul\":142:143   */\n      0x00\n        /* \"#utility.yul\":139:140   */\n      dup1\n        /* \"#utility.yul\":132:144   */\n      revert\n        /* \"#utility.yul\":94:146   */\n    tag_207:\n      pop\n        /* \"#utility.yul\":165:188   */\n      calldataload\n      swap2\n        /* \"#utility.yul\":14:194   */\n      swap1\n      pop\n      jump\t// out\n        /* \"#utility.yul\":612:808   */\n    tag_198:\n        /* \"#utility.yul\":680:700   */\n      dup1\n      calldataload\n      sub(shl(0xa0, 0x01), 0x01)\n        /* \"#utility.yul\":729:783   */\n      dup2\n      and\n        /* \"#utility.yul\":719:784   */\n      dup2\n      eq\n        /* \"#utility.yul\":709:802   */\n      tag_211\n      jumpi\n        /* \"#utility.yul\":798:799   */\n      0x00\n        /* \"#utility.yul\":795:796   */\n      dup1\n        /* \"#utility.yul\":788:800   */\n      revert\n        /* \"#utility.yul\":709:802   */\n    tag_211:\n        /* \"#utility.yul\":612:808   */\n      swap2\n      swap1\n      pop\n      jump\t// out\n        /* \"#utility.yul\":813:999   */\n    tag_43:\n        /* \"#utility.yul\":872:878   */\n      0x00\n        /* \"#utility.yul\":925:927   */\n      0x20\n        /* \"#utility.yul\":913:922   */\n      dup3\n        /* \"#utility.yul\":904:911   */\n      dup5\n        /* \"#utility.yul\":900:923   */\n      sub\n        /* \"#utility.yul\":896:928   */\n      slt\n        /* \"#utility.yul\":893:945   */\n      iszero\n      tag_213\n      jumpi\n        /* \"#utility.yul\":941:942   */\n      0x00\n        /* \"#utility.yul\":938:939   */\n      dup1\n        /* \"#utility.yul\":931:943   */\n      revert\n        /* \"#utility.yul\":893:945   */\n    tag_213:\n        /* \"#utility.yul\":964:993   */\n      tag_214\n        /* \"#utility.yul\":983:992   */\n      dup3\n        /* \"#utility.yul\":964:993   */\n      tag_198\n      jump\t// in\n    tag_214:\n        /* \"#utility.yul\":954:993   */\n      swap4\n        /* \"#utility.yul\":813:999   */\n      swap3\n      pop\n      pop\n      pop\n      jump\t// out\n        /* \"#utility.yul\":1196:1618   */\n    tag_199:\n        /* \"#utility.yul\":1237:1240   */\n      0x00\n        /* \"#utility.yul\":1275:1280   */\n      dup2\n        /* \"#utility.yul\":1269:1281   */\n      mload\n        /* \"#utility.yul\":1302:1308   */\n      dup1\n        /* \"#utility.yul\":1297:1300   */\n      dup5\n        /* \"#utility.yul\":1290:1309   */\n      mstore\n        /* \"#utility.yul\":1327:1328   */\n      0x00\n        /* \"#utility.yul\":1337:1499   */\n    tag_217:\n        /* \"#utility.yul\":1351:1357   */\n      dup2\n        /* \"#utility.yul\":1348:1349   */\n      dup2\n        /* \"#utility.yul\":1345:1358   */\n      lt\n        /* \"#utility.yul\":1337:1499   */\n      iszero\n      tag_219\n      jumpi\n        /* \"#utility.yul\":1413:1417   */\n      0x20\n        /* \"#utility.yul\":1469:1482   */\n      dup2\n      dup6\n      add\n        /* \"#utility.yul\":1465:1487   */\n      dup2\n      add\n        /* \"#utility.yul\":1459:1488   */\n      mload\n        /* \"#utility.yul\":1441:1452   */\n      dup7\n      dup4\n      add\n        /* \"#utility.yul\":1437:1457   */\n      dup3\n      add\n        /* \"#utility.yul\":1430:1489   */\n      mstore\n        /* \"#utility.yul\":1366:1378   */\n      add\n        /* \"#utility.yul\":1337:1499   */\n      jump(tag_217)\n    tag_219:\n        /* \"#utility.yul\":1341:1344   */\n      pop\n        /* \"#utility.yul\":1544:1545   */\n      0x00\n        /* \"#utility.yul\":1537:1541   */\n      0x20\n        /* \"#utility.yul\":1528:1534   */\n      dup3\n        /* \"#utility.yul\":1523:1526   */\n      dup7\n        /* \"#utility.yul\":1519:1535   */\n      add\n        /* \"#utility.yul\":1515:1542   */\n      add\n        /* \"#utility.yul\":1508:1546   */\n      mstore\n        /* \"#utility.yul\":1607:1611   */\n      0x20\n        /* \"#utility.yul\":1600:1602   */\n      0x1f\n        /* \"#utility.yul\":1596:1603   */\n      not\n        /* \"#utility.yul\":1591:1593   */\n      0x1f\n        /* \"#utility.yul\":1583:1589   */\n      dup4\n        /* \"#utility.yul\":1579:1594   */\n      add\n        /* \"#utility.yul\":1575:1604   */\n      and\n        /* \"#utility.yul\":1570:1573   */\n      dup6\n        /* \"#utility.yul\":1566:1605   */\n      add\n        /* \"#utility.yul\":1562:1612   */\n      add\n        /* \"#utility.yul\":1555:1612   */\n      swap2\n      pop\n      pop\n        /* \"#utility.yul\":1196:1618   */\n      swap3\n      swap2\n      pop\n      pop\n      jump\t// out\n        /* \"#utility.yul\":1623:2186   */\n    tag_52:\n      sub(shl(0xa0, 0x01), 0x01)\n        /* \"#utility.yul\":1880:1886   */\n      dup7\n        /* \"#utility.yul\":1876:1931   */\n      and\n        /* \"#utility.yul\":1865:1874   */\n      dup2\n        /* \"#utility.yul\":1858:1932   */\n      mstore\n        /* \"#utility.yul\":1968:1974   */\n      dup5\n        /* \"#utility.yul\":1963:1965   */\n      0x20\n        /* \"#utility.yul\":1952:1961   */\n      dup3\n        /* \"#utility.yul\":1948:1966   */\n      add\n        /* \"#utility.yul\":1941:1975   */\n      mstore\n        /* \"#utility.yul\":2011:2014   */\n      0xa0\n        /* \"#utility.yul\":2006:2008   */\n      0x40\n        /* \"#utility.yul\":1995:2004   */\n      dup3\n        /* \"#utility.yul\":1991:2009   */\n      add\n        /* \"#utility.yul\":1984:2015   */\n      mstore\n        /* \"#utility.yul\":1839:1843   */\n      0x00\n        /* \"#utility.yul\":2032:2077   */\n      tag_221\n        /* \"#utility.yul\":2072:2075   */\n      0xa0\n        /* \"#utility.yul\":2061:2070   */\n      dup4\n        /* \"#utility.yul\":2057:2076   */\n      add\n        /* \"#utility.yul\":2049:2055   */\n      dup7\n        /* \"#utility.yul\":2032:2077   */\n      tag_199\n      jump\t// in\n    tag_221:\n        /* \"#utility.yul\":2120:2134   */\n      swap4\n      iszero\n        /* \"#utility.yul\":2113:2135   */\n      iszero\n        /* \"#utility.yul\":2108:2110   */\n      0x60\n        /* \"#utility.yul\":2093:2111   */\n      dup4\n      add\n        /* \"#utility.yul\":2086:2136   */\n      mstore\n      pop\n        /* \"#utility.yul\":2167:2170   */\n      0x80\n        /* \"#utility.yul\":2152:2171   */\n      add\n        /* \"#utility.yul\":2145:2180   */\n      mstore\n        /* \"#utility.yul\":2024:2077   */\n      swap4\n        /* \"#utility.yul\":1623:2186   */\n      swap3\n      pop\n      pop\n      pop\n      jump\t// out\n        /* \"#utility.yul\":2191:2445   */\n    tag_58:\n        /* \"#utility.yul\":2259:2265   */\n      0x00\n        /* \"#utility.yul\":2267:2273   */\n      dup1\n        /* \"#utility.yul\":2320:2322   */\n      0x40\n        /* \"#utility.yul\":2308:2317   */\n      dup4\n        /* \"#utility.yul\":2299:2306   */\n      dup6\n        /* \"#utility.yul\":2295:2318   */\n      sub\n        /* \"#utility.yul\":2291:2323   */\n      slt\n        /* \"#utility.yul\":2288:2340   */\n      iszero\n      tag_223\n      jumpi\n        /* \"#utility.yul\":2336:2337   */\n      0x00\n        /* \"#utility.yul\":2333:2334   */\n      dup1\n        /* \"#utility.yul\":2326:2338   */\n      revert\n        /* \"#utility.yul\":2288:2340   */\n    tag_223:\n        /* \"#utility.yul\":2372:2381   */\n      dup3\n        /* \"#utility.yul\":2359:2382   */\n      calldataload\n        /* \"#utility.yul\":2349:2382   */\n      swap2\n      pop\n        /* \"#utility.yul\":2401:2439   */\n      tag_224\n        /* \"#utility.yul\":2435:2437   */\n      0x20\n        /* \"#utility.yul\":2424:2433   */\n      dup5\n        /* \"#utility.yul\":2420:2438   */\n      add\n        /* \"#utility.yul\":2401:2439   */\n      tag_198\n      jump\t// in\n    tag_224:\n        /* \"#utility.yul\":2391:2439   */\n      swap1\n      pop\n        /* \"#utility.yul\":2191:2445   */\n      swap3\n      pop\n      swap3\n      swap1\n      pop\n      jump\t// out\n        /* \"#utility.yul\":2450:3131   */\n    tag_70:\n        /* \"#utility.yul\":2621:2623   */\n      0x20\n        /* \"#utility.yul\":2673:2694   */\n      dup1\n      dup3\n      mstore\n        /* \"#utility.yul\":2743:2756   */\n      dup3\n      mload\n        /* \"#utility.yul\":2646:2664   */\n      dup3\n      dup3\n      add\n        /* \"#utility.yul\":2765:2787   */\n      dup2\n      swap1\n      mstore\n        /* \"#utility.yul\":2592:2596   */\n      0x00\n      swap2\n        /* \"#utility.yul\":2621:2623   */\n      swap1\n        /* \"#utility.yul\":2844:2859   */\n      dup5\n      dup3\n      add\n      swap1\n        /* \"#utility.yul\":2818:2820   */\n      0x40\n        /* \"#utility.yul\":2803:2821   */\n      dup6\n      add\n      swap1\n        /* \"#utility.yul\":2592:2596   */\n      dup5\n        /* \"#utility.yul\":2887:3105   */\n    tag_226:\n        /* \"#utility.yul\":2901:2907   */\n      dup2\n        /* \"#utility.yul\":2898:2899   */\n      dup2\n        /* \"#utility.yul\":2895:2908   */\n      lt\n        /* \"#utility.yul\":2887:3105   */\n      iszero\n      tag_228\n      jumpi\n        /* \"#utility.yul\":2966:2979   */\n      dup4\n      mload\n      sub(shl(0xa0, 0x01), 0x01)\n        /* \"#utility.yul\":2962:3024   */\n      and\n        /* \"#utility.yul\":2950:3025   */\n      dup4\n      mstore\n        /* \"#utility.yul\":3080:3095   */\n      swap3\n      dup5\n      add\n      swap3\n        /* \"#utility.yul\":3045:3057   */\n      swap2\n      dup5\n      add\n      swap2\n        /* \"#utility.yul\":2923:2924   */\n      0x01\n        /* \"#utility.yul\":2916:2925   */\n      add\n        /* \"#utility.yul\":2887:3105   */\n      jump(tag_226)\n    tag_228:\n      pop\n        /* \"#utility.yul\":3122:3125   */\n      swap1\n      swap7\n        /* \"#utility.yul\":2450:3131   */\n      swap6\n      pop\n      pop\n      pop\n      pop\n      pop\n      pop\n      jump\t// out\n        /* \"#utility.yul\":3136:3263   */\n    tag_200:\n        /* \"#utility.yul\":3197:3207   */\n      0x4e487b71\n        /* \"#utility.yul\":3192:3195   */\n      0xe0\n        /* \"#utility.yul\":3188:3208   */\n      shl\n        /* \"#utility.yul\":3185:3186   */\n      0x00\n        /* \"#utility.yul\":3178:3209   */\n      mstore\n        /* \"#utility.yul\":3228:3232   */\n      0x41\n        /* \"#utility.yul\":3225:3226   */\n      0x04\n        /* \"#utility.yul\":3218:3233   */\n      mstore\n        /* \"#utility.yul\":3252:3256   */\n      0x24\n        /* \"#utility.yul\":3249:3250   */\n      0x00\n        /* \"#utility.yul\":3242:3257   */\n      revert\n        /* \"#utility.yul\":3268:4331   */\n    tag_78:\n        /* \"#utility.yul\":3354:3360   */\n      0x00\n        /* \"#utility.yul\":3362:3368   */\n      dup1\n        /* \"#utility.yul\":3370:3376   */\n      0x00\n        /* \"#utility.yul\":3423:3425   */\n      0x60\n        /* \"#utility.yul\":3411:3420   */\n      dup5\n        /* \"#utility.yul\":3402:3409   */\n      dup7\n        /* \"#utility.yul\":3398:3421   */\n      sub\n        /* \"#utility.yul\":3394:3426   */\n      slt\n        /* \"#utility.yul\":3391:3443   */\n      iszero\n      tag_231\n      jumpi\n        /* \"#utility.yul\":3439:3440   */\n      0x00\n        /* \"#utility.yul\":3436:3437   */\n      dup1\n        /* \"#utility.yul\":3429:3441   */\n      revert\n        /* \"#utility.yul\":3391:3443   */\n    tag_231:\n        /* \"#utility.yul\":3462:3491   */\n      tag_232\n        /* \"#utility.yul\":3481:3490   */\n      dup5\n        /* \"#utility.yul\":3462:3491   */\n      tag_198\n      jump\t// in\n    tag_232:\n        /* \"#utility.yul\":3452:3491   */\n      swap3\n      pop\n        /* \"#utility.yul\":3538:3540   */\n      0x20\n        /* \"#utility.yul\":3527:3536   */\n      dup5\n        /* \"#utility.yul\":3523:3541   */\n      add\n        /* \"#utility.yul\":3510:3542   */\n      calldataload\n        /* \"#utility.yul\":3500:3542   */\n      swap2\n      pop\n        /* \"#utility.yul\":3593:3595   */\n      0x40\n        /* \"#utility.yul\":3582:3591   */\n      dup5\n        /* \"#utility.yul\":3578:3596   */\n      add\n        /* \"#utility.yul\":3565:3597   */\n      calldataload\n        /* \"#utility.yul\":3616:3634   */\n      0xffffffffffffffff\n        /* \"#utility.yul\":3657:3659   */\n      dup1\n        /* \"#utility.yul\":3649:3655   */\n      dup3\n        /* \"#utility.yul\":3646:3660   */\n      gt\n        /* \"#utility.yul\":3643:3677   */\n      iszero\n      tag_233\n      jumpi\n        /* \"#utility.yul\":3673:3674   */\n      0x00\n        /* \"#utility.yul\":3670:3671   */\n      dup1\n        /* \"#utility.yul\":3663:3675   */\n      revert\n        /* \"#utility.yul\":3643:3677   */\n    tag_233:\n        /* \"#utility.yul\":3711:3717   */\n      dup2\n        /* \"#utility.yul\":3700:3709   */\n      dup7\n        /* \"#utility.yul\":3696:3718   */\n      add\n        /* \"#utility.yul\":3686:3718   */\n      swap2\n      pop\n        /* \"#utility.yul\":3756:3763   */\n      dup7\n        /* \"#utility.yul\":3749:3753   */\n      0x1f\n        /* \"#utility.yul\":3745:3747   */\n      dup4\n        /* \"#utility.yul\":3741:3754   */\n      add\n        /* \"#utility.yul\":3737:3764   */\n      slt\n        /* \"#utility.yul\":3727:3782   */\n      tag_234\n      jumpi\n        /* \"#utility.yul\":3778:3779   */\n      0x00\n        /* \"#utility.yul\":3775:3776   */\n      dup1\n        /* \"#utility.yul\":3768:3780   */\n      revert\n        /* \"#utility.yul\":3727:3782   */\n    tag_234:\n        /* \"#utility.yul\":3814:3816   */\n      dup2\n        /* \"#utility.yul\":3801:3817   */\n      calldataload\n        /* \"#utility.yul\":3836:3838   */\n      dup2\n        /* \"#utility.yul\":3832:3834   */\n      dup2\n        /* \"#utility.yul\":3829:3839   */\n      gt\n        /* \"#utility.yul\":3826:3862   */\n      iszero\n      tag_236\n      jumpi\n        /* \"#utility.yul\":3842:3860   */\n      tag_236\n      tag_200\n      jump\t// in\n    tag_236:\n        /* \"#utility.yul\":3917:3919   */\n      0x40\n        /* \"#utility.yul\":3911:3920   */\n      mload\n        /* \"#utility.yul\":3885:3887   */\n      0x1f\n        /* \"#utility.yul\":3971:3984   */\n      dup3\n      add\n      not(0x1f)\n        /* \"#utility.yul\":3967:3989   */\n      swap1\n      dup2\n      and\n        /* \"#utility.yul\":3991:3993   */\n      0x3f\n        /* \"#utility.yul\":3963:3994   */\n      add\n        /* \"#utility.yul\":3959:3999   */\n      and\n        /* \"#utility.yul\":3947:4000   */\n      dup2\n      add\n      swap1\n        /* \"#utility.yul\":4015:4033   */\n      dup4\n      dup3\n      gt\n        /* \"#utility.yul\":4035:4057   */\n      dup2\n      dup4\n      lt\n        /* \"#utility.yul\":4012:4058   */\n      or\n        /* \"#utility.yul\":4009:4081   */\n      iszero\n      tag_238\n      jumpi\n        /* \"#utility.yul\":4061:4079   */\n      tag_238\n      tag_200\n      jump\t// in\n    tag_238:\n        /* \"#utility.yul\":4101:4111   */\n      dup2\n        /* \"#utility.yul\":4097:4099   */\n      0x40\n        /* \"#utility.yul\":4090:4112   */\n      mstore\n        /* \"#utility.yul\":4136:4138   */\n      dup3\n        /* \"#utility.yul\":4128:4134   */\n      dup2\n        /* \"#utility.yul\":4121:4139   */\n      mstore\n        /* \"#utility.yul\":4176:4183   */\n      dup10\n        /* \"#utility.yul\":4171:4173   */\n      0x20\n        /* \"#utility.yul\":4166:4168   */\n      dup5\n        /* \"#utility.yul\":4162:4164   */\n      dup8\n        /* \"#utility.yul\":4158:4169   */\n      add\n        /* \"#utility.yul\":4154:4174   */\n      add\n        /* \"#utility.yul\":4151:4184   */\n      gt\n        /* \"#utility.yul\":4148:4201   */\n      iszero\n      tag_239\n      jumpi\n        /* \"#utility.yul\":4197:4198   */\n      0x00\n        /* \"#utility.yul\":4194:4195   */\n      dup1\n        /* \"#utility.yul\":4187:4199   */\n      revert\n        /* \"#utility.yul\":4148:4201   */\n    tag_239:\n        /* \"#utility.yul\":4253:4255   */\n      dup3\n        /* \"#utility.yul\":4248:4250   */\n      0x20\n        /* \"#utility.yul\":4244:4246   */\n      dup7\n        /* \"#utility.yul\":4240:4251   */\n      add\n        /* \"#utility.yul\":4235:4237   */\n      0x20\n        /* \"#utility.yul\":4227:4233   */\n      dup4\n        /* \"#utility.yul\":4223:4238   */\n      add\n        /* \"#utility.yul\":4210:4256   */\n      calldatacopy\n        /* \"#utility.yul\":4298:4299   */\n      0x00\n        /* \"#utility.yul\":4293:4295   */\n      0x20\n        /* \"#utility.yul\":4288:4290   */\n      dup5\n        /* \"#utility.yul\":4280:4286   */\n      dup4\n        /* \"#utility.yul\":4276:4291   */\n      add\n        /* \"#utility.yul\":4272:4296   */\n      add\n        /* \"#utility.yul\":4265:4300   */\n      mstore\n        /* \"#utility.yul\":4319:4325   */\n      dup1\n        /* \"#utility.yul\":4309:4325   */\n      swap6\n      pop\n      pop\n      pop\n      pop\n      pop\n      pop\n        /* \"#utility.yul\":3268:4331   */\n      swap3\n      pop\n      swap3\n      pop\n      swap3\n      jump\t// out\n        /* \"#utility.yul\":4336:4673   */\n    tag_89:\n        /* \"#utility.yul\":4538:4540   */\n      0x20\n        /* \"#utility.yul\":4520:4541   */\n      dup1\n      dup3\n      mstore\n        /* \"#utility.yul\":4577:4579   */\n      0x0d\n        /* \"#utility.yul\":4557:4575   */\n      swap1\n      dup3\n      add\n        /* \"#utility.yul\":4550:4580   */\n      mstore\n      shl(0x99, 0x2737ba103a34329037bbb732b9)\n        /* \"#utility.yul\":4611:4613   */\n      0x40\n        /* \"#utility.yul\":4596:4614   */\n      dup3\n      add\n        /* \"#utility.yul\":4589:4632   */\n      mstore\n        /* \"#utility.yul\":4664:4666   */\n      0x60\n        /* \"#utility.yul\":4649:4667   */\n      add\n      swap1\n        /* \"#utility.yul\":4336:4673   */\n      jump\t// out\n        /* \"#utility.yul\":5035:5162   */\n    tag_97:\n        /* \"#utility.yul\":5096:5106   */\n      0x4e487b71\n        /* \"#utility.yul\":5091:5094   */\n      0xe0\n        /* \"#utility.yul\":5087:5107   */\n      shl\n        /* \"#utility.yul\":5084:5085   */\n      0x00\n        /* \"#utility.yul\":5077:5108   */\n      mstore\n        /* \"#utility.yul\":5127:5131   */\n      0x32\n        /* \"#utility.yul\":5124:5125   */\n      0x04\n        /* \"#utility.yul\":5117:5132   */\n      mstore\n        /* \"#utility.yul\":5151:5155   */\n      0x24\n        /* \"#utility.yul\":5148:5149   */\n      0x00\n        /* \"#utility.yul\":5141:5156   */\n      revert\n        /* \"#utility.yul\":5872:5999   */\n    tag_201:\n        /* \"#utility.yul\":5933:5943   */\n      0x4e487b71\n        /* \"#utility.yul\":5928:5931   */\n      0xe0\n        /* \"#utility.yul\":5924:5944   */\n      shl\n        /* \"#utility.yul\":5921:5922   */\n      0x00\n        /* \"#utility.yul\":5914:5945   */\n      mstore\n        /* \"#utility.yul\":5964:5968   */\n      0x11\n        /* \"#utility.yul\":5961:5962   */\n      0x04\n        /* \"#utility.yul\":5954:5969   */\n      mstore\n        /* \"#utility.yul\":5988:5992   */\n      0x24\n        /* \"#utility.yul\":5985:5986   */\n      0x00\n        /* \"#utility.yul\":5978:5993   */\n      revert\n        /* \"#utility.yul\":6004:6132   */\n    tag_110:\n        /* \"#utility.yul\":6071:6080   */\n      dup2\n      dup2\n      sub\n        /* \"#utility.yul\":6092:6103   */\n      dup2\n      dup2\n      gt\n        /* \"#utility.yul\":6089:6126   */\n      iszero\n      tag_248\n      jumpi\n        /* \"#utility.yul\":6106:6124   */\n      tag_248\n      tag_201\n      jump\t// in\n    tag_248:\n        /* \"#utility.yul\":6004:6132   */\n      swap3\n      swap2\n      pop\n      pop\n      jump\t// out\n        /* \"#utility.yul\":6137:6517   */\n    tag_141:\n        /* \"#utility.yul\":6216:6217   */\n      0x01\n        /* \"#utility.yul\":6212:6224   */\n      dup2\n      dup2\n      shr\n      swap1\n        /* \"#utility.yul\":6259:6271   */\n      dup3\n      and\n      dup1\n        /* \"#utility.yul\":6280:6341   */\n      tag_250\n      jumpi\n        /* \"#utility.yul\":6334:6338   */\n      0x7f\n        /* \"#utility.yul\":6326:6332   */\n      dup3\n        /* \"#utility.yul\":6322:6339   */\n      and\n        /* \"#utility.yul\":6312:6339   */\n      swap2\n      pop\n        /* \"#utility.yul\":6280:6341   */\n    tag_250:\n        /* \"#utility.yul\":6387:6389   */\n      0x20\n        /* \"#utility.yul\":6379:6385   */\n      dup3\n        /* \"#utility.yul\":6376:6390   */\n      lt\n        /* \"#utility.yul\":6356:6374   */\n      dup2\n        /* \"#utility.yul\":6353:6391   */\n      sub\n        /* \"#utility.yul\":6350:6511   */\n      tag_251\n      jumpi\n        /* \"#utility.yul\":6433:6443   */\n      0x4e487b71\n        /* \"#utility.yul\":6428:6431   */\n      0xe0\n        /* \"#utility.yul\":6424:6444   */\n      shl\n        /* \"#utility.yul\":6421:6422   */\n      0x00\n        /* \"#utility.yul\":6414:6445   */\n      mstore\n        /* \"#utility.yul\":6468:6472   */\n      0x22\n        /* \"#utility.yul\":6465:6466   */\n      0x04\n        /* \"#utility.yul\":6458:6473   */\n      mstore\n        /* \"#utility.yul\":6496:6500   */\n      0x24\n        /* \"#utility.yul\":6493:6494   */\n      0x00\n        /* \"#utility.yul\":6486:6501   */\n      revert\n        /* \"#utility.yul\":6350:6511   */\n    tag_251:\n      pop\n        /* \"#utility.yul\":6137:6517   */\n      swap2\n      swap1\n      pop\n      jump\t// out\n        /* \"#utility.yul\":6647:7487   */\n    tag_128:\n        /* \"#utility.yul\":6773:6776   */\n      0x00\n        /* \"#utility.yul\":6802:6803   */\n      dup1\n        /* \"#utility.yul\":6835:6841   */\n      dup4\n        /* \"#utility.yul\":6829:6842   */\n      sload\n        /* \"#utility.yul\":6865:6901   */\n      tag_254\n        /* \"#utility.yul\":6891:6900   */\n      dup2\n        /* \"#utility.yul\":6865:6901   */\n      tag_141\n      jump\t// in\n    tag_254:\n        /* \"#utility.yul\":6920:6921   */\n      0x01\n        /* \"#utility.yul\":6937:6955   */\n      dup3\n      dup2\n      and\n        /* \"#utility.yul\":6964:7097   */\n      dup1\n      iszero\n      tag_256\n      jumpi\n        /* \"#utility.yul\":7111:7112   */\n      0x01\n        /* \"#utility.yul\":7106:7462   */\n      dup2\n      eq\n      tag_257\n      jumpi\n        /* \"#utility.yul\":6930:7462   */\n      jump(tag_255)\n        /* \"#utility.yul\":6964:7097   */\n    tag_256:\n      not(0xff)\n        /* \"#utility.yul\":6997:7021   */\n      dup5\n      and\n        /* \"#utility.yul\":6985:7022   */\n      dup8\n      mstore\n        /* \"#utility.yul\":7070:7084   */\n      dup3\n      iszero\n        /* \"#utility.yul\":7063:7085   */\n      iszero\n        /* \"#utility.yul\":7051:7086   */\n      dup4\n      mul\n        /* \"#utility.yul\":7042:7087   */\n      dup8\n      add\n      swap5\n      pop\n        /* \"#utility.yul\":6964:7097   */\n      jump(tag_255)\n        /* \"#utility.yul\":7106:7462   */\n    tag_257:\n        /* \"#utility.yul\":7137:7143   */\n      dup8\n        /* \"#utility.yul\":7134:7135   */\n      0x00\n        /* \"#utility.yul\":7127:7144   */\n      mstore\n        /* \"#utility.yul\":7167:7171   */\n      0x20\n        /* \"#utility.yul\":7212:7214   */\n      dup1\n        /* \"#utility.yul\":7209:7210   */\n      0x00\n        /* \"#utility.yul\":7199:7215   */\n      keccak256\n        /* \"#utility.yul\":7237:7238   */\n      0x00\n        /* \"#utility.yul\":7251:7416   */\n    tag_258:\n        /* \"#utility.yul\":7265:7271   */\n      dup6\n        /* \"#utility.yul\":7262:7263   */\n      dup2\n        /* \"#utility.yul\":7259:7272   */\n      lt\n        /* \"#utility.yul\":7251:7416   */\n      iszero\n      tag_260\n      jumpi\n        /* \"#utility.yul\":7343:7357   */\n      dup2\n      sload\n        /* \"#utility.yul\":7330:7341   */\n      dup11\n      dup3\n      add\n        /* \"#utility.yul\":7323:7358   */\n      mstore\n        /* \"#utility.yul\":7386:7402   */\n      swap1\n      dup5\n      add\n      swap1\n        /* \"#utility.yul\":7280:7290   */\n      dup3\n      add\n        /* \"#utility.yul\":7251:7416   */\n      jump(tag_258)\n    tag_260:\n        /* \"#utility.yul\":7255:7258   */\n      pop\n      pop\n      pop\n        /* \"#utility.yul\":7445:7451   */\n      dup3\n        /* \"#utility.yul\":7440:7443   */\n      dup8\n        /* \"#utility.yul\":7436:7452   */\n      add\n        /* \"#utility.yul\":7429:7452   */\n      swap5\n      pop\n        /* \"#utility.yul\":6930:7462   */\n    tag_255:\n      pop\n        /* \"#utility.yul\":7478:7481   */\n      swap3\n      swap7\n        /* \"#utility.yul\":6647:7487   */\n      swap6\n      pop\n      pop\n      pop\n      pop\n      pop\n      pop\n      jump\t// out\n        /* \"#utility.yul\":8984:9109   */\n    tag_188:\n        /* \"#utility.yul\":9049:9058   */\n      dup1\n      dup3\n      add\n        /* \"#utility.yul\":9070:9080   */\n      dup1\n      dup3\n      gt\n        /* \"#utility.yul\":9067:9103   */\n      iszero\n      tag_248\n      jumpi\n        /* \"#utility.yul\":9083:9101   */\n      tag_248\n      tag_201\n      jump\t// in\n        /* \"#utility.yul\":9114:9658   */\n    tag_203:\n        /* \"#utility.yul\":9215:9217   */\n      0x1f\n        /* \"#utility.yul\":9210:9213   */\n      dup3\n        /* \"#utility.yul\":9207:9218   */\n      gt\n        /* \"#utility.yul\":9204:9652   */\n      iszero\n      tag_270\n      jumpi\n        /* \"#utility.yul\":9251:9252   */\n      0x00\n        /* \"#utility.yul\":9276:9281   */\n      dup2\n        /* \"#utility.yul\":9272:9274   */\n      dup2\n        /* \"#utility.yul\":9265:9282   */\n      mstore\n        /* \"#utility.yul\":9321:9325   */\n      0x20\n        /* \"#utility.yul\":9317:9319   */\n      dup2\n        /* \"#utility.yul\":9307:9326   */\n      keccak256\n        /* \"#utility.yul\":9391:9393   */\n      0x1f\n        /* \"#utility.yul\":9379:9389   */\n      dup6\n        /* \"#utility.yul\":9375:9394   */\n      add\n        /* \"#utility.yul\":9372:9373   */\n      0x05\n        /* \"#utility.yul\":9368:9395   */\n      shr\n        /* \"#utility.yul\":9362:9366   */\n      dup2\n        /* \"#utility.yul\":9358:9396   */\n      add\n        /* \"#utility.yul\":9427:9431   */\n      0x20\n        /* \"#utility.yul\":9415:9425   */\n      dup7\n        /* \"#utility.yul\":9412:9432   */\n      lt\n        /* \"#utility.yul\":9409:9456   */\n      iszero\n      tag_271\n      jumpi\n      pop\n        /* \"#utility.yul\":9450:9454   */\n      dup1\n        /* \"#utility.yul\":9409:9456   */\n    tag_271:\n        /* \"#utility.yul\":9505:9507   */\n      0x1f\n        /* \"#utility.yul\":9500:9503   */\n      dup6\n        /* \"#utility.yul\":9496:9508   */\n      add\n        /* \"#utility.yul\":9493:9494   */\n      0x05\n        /* \"#utility.yul\":9489:9509   */\n      shr\n        /* \"#utility.yul\":9483:9487   */\n      dup3\n        /* \"#utility.yul\":9479:9510   */\n      add\n        /* \"#utility.yul\":9469:9510   */\n      swap2\n      pop\n        /* \"#utility.yul\":9560:9642   */\n    tag_272:\n        /* \"#utility.yul\":9578:9580   */\n      dup2\n        /* \"#utility.yul\":9571:9576   */\n      dup2\n        /* \"#utility.yul\":9568:9581   */\n      lt\n        /* \"#utility.yul\":9560:9642   */\n      iszero\n      tag_274\n      jumpi\n        /* \"#utility.yul\":9623:9640   */\n      dup3\n      dup2\n      sstore\n        /* \"#utility.yul\":9604:9605   */\n      0x01\n        /* \"#utility.yul\":9593:9606   */\n      add\n        /* \"#utility.yul\":9560:9642   */\n      jump(tag_272)\n    tag_274:\n        /* \"#utility.yul\":9564:9567   */\n      pop\n      pop\n      pop\n        /* \"#utility.yul\":9204:9652   */\n    tag_270:\n        /* \"#utility.yul\":9114:9658   */\n      pop\n      pop\n      pop\n      jump\t// out\n        /* \"#utility.yul\":9834:11182   */\n    tag_195:\n        /* \"#utility.yul\":9958:9961   */\n      dup2\n        /* \"#utility.yul\":9952:9962   */\n      mload\n        /* \"#utility.yul\":9985:10003   */\n      0xffffffffffffffff\n        /* \"#utility.yul\":9977:9983   */\n      dup2\n        /* \"#utility.yul\":9974:10004   */\n      gt\n        /* \"#utility.yul\":9971:10027   */\n      iszero\n      tag_278\n      jumpi\n        /* \"#utility.yul\":10007:10025   */\n      tag_278\n      tag_200\n      jump\t// in\n    tag_278:\n        /* \"#utility.yul\":10036:10132   */\n      tag_279\n        /* \"#utility.yul\":10125:10131   */\n      dup2\n        /* \"#utility.yul\":10085:10123   */\n      tag_280\n        /* \"#utility.yul\":10117:10121   */\n      dup5\n        /* \"#utility.yul\":10111:10122   */\n      sload\n        /* \"#utility.yul\":10085:10123   */\n      tag_141\n      jump\t// in\n    tag_280:\n        /* \"#utility.yul\":10079:10083   */\n      dup5\n        /* \"#utility.yul\":10036:10132   */\n      tag_203\n      jump\t// in\n    tag_279:\n        /* \"#utility.yul\":10187:10191   */\n      0x20\n      dup1\n        /* \"#utility.yul\":10251:10253   */\n      0x1f\n        /* \"#utility.yul\":10240:10254   */\n      dup4\n      gt\n        /* \"#utility.yul\":10268:10269   */\n      0x01\n        /* \"#utility.yul\":10263:10925   */\n      dup2\n      eq\n      tag_282\n      jumpi\n        /* \"#utility.yul\":10969:10970   */\n      0x00\n        /* \"#utility.yul\":10986:10992   */\n      dup5\n        /* \"#utility.yul\":10983:11072   */\n      iszero\n      tag_283\n      jumpi\n      pop\n        /* \"#utility.yul\":11038:11057   */\n      dup6\n      dup4\n      add\n        /* \"#utility.yul\":11032:11058   */\n      mload\n        /* \"#utility.yul\":10983:11072   */\n    tag_283:\n      not(0x00)\n        /* \"#utility.yul\":9791:9792   */\n      0x03\n        /* \"#utility.yul\":9787:9798   */\n      dup7\n      swap1\n      shl\n        /* \"#utility.yul\":9783:9807   */\n      shr\n        /* \"#utility.yul\":9779:9808   */\n      not\n        /* \"#utility.yul\":9769:9809   */\n      and\n        /* \"#utility.yul\":9815:9816   */\n      0x01\n        /* \"#utility.yul\":9811:9822   */\n      dup6\n      swap1\n      shl\n        /* \"#utility.yul\":9766:9823   */\n      or\n        /* \"#utility.yul\":11085:11166   */\n      dup6\n      sstore\n        /* \"#utility.yul\":10233:11176   */\n      jump(tag_274)\n        /* \"#utility.yul\":10263:10925   */\n    tag_282:\n        /* \"#utility.yul\":6594:6595   */\n      0x00\n        /* \"#utility.yul\":6587:6601   */\n      dup6\n      dup2\n      mstore\n        /* \"#utility.yul\":6631:6635   */\n      0x20\n        /* \"#utility.yul\":6618:6636   */\n      dup2\n      keccak256\n      not(0x1f)\n        /* \"#utility.yul\":10299:10319   */\n      dup7\n      and\n      swap2\n        /* \"#utility.yul\":10416:10652   */\n    tag_286:\n        /* \"#utility.yul\":10430:10437   */\n      dup3\n        /* \"#utility.yul\":10427:10428   */\n      dup2\n        /* \"#utility.yul\":10424:10438   */\n      lt\n        /* \"#utility.yul\":10416:10652   */\n      iszero\n      tag_288\n      jumpi\n        /* \"#utility.yul\":10519:10538   */\n      dup9\n      dup7\n      add\n        /* \"#utility.yul\":10513:10539   */\n      mload\n        /* \"#utility.yul\":10498:10540   */\n      dup3\n      sstore\n        /* \"#utility.yul\":10611:10638   */\n      swap5\n      dup5\n      add\n      swap5\n        /* \"#utility.yul\":10579:10580   */\n      0x01\n        /* \"#utility.yul\":10567:10581   */\n      swap1\n      swap2\n      add\n      swap1\n        /* \"#utility.yul\":10446:10465   */\n      dup5\n      add\n        /* \"#utility.yul\":10416:10652   */\n      jump(tag_286)\n    tag_288:\n        /* \"#utility.yul\":10420:10423   */\n      pop\n        /* \"#utility.yul\":10680:10686   */\n      dup6\n        /* \"#utility.yul\":10671:10678   */\n      dup3\n        /* \"#utility.yul\":10668:10687   */\n      lt\n        /* \"#utility.yul\":10665:10866   */\n      iszero\n      tag_289\n      jumpi\n        /* \"#utility.yul\":10741:10760   */\n      dup8\n      dup6\n      add\n        /* \"#utility.yul\":10735:10761   */\n      mload\n      not(0x00)\n        /* \"#utility.yul\":10824:10825   */\n      0x03\n        /* \"#utility.yul\":10820:10834   */\n      dup9\n      swap1\n      shl\n        /* \"#utility.yul\":10836:10839   */\n      0xf8\n        /* \"#utility.yul\":10816:10840   */\n      and\n        /* \"#utility.yul\":10812:10849   */\n      shr\n        /* \"#utility.yul\":10808:10850   */\n      not\n        /* \"#utility.yul\":10793:10851   */\n      and\n        /* \"#utility.yul\":10778:10852   */\n      dup2\n      sstore\n        /* \"#utility.yul\":10665:10866   */\n    tag_289:\n      pop\n      pop\n      pop\n      pop\n      pop\n        /* \"#utility.yul\":10912:10913   */\n      0x01\n        /* \"#utility.yul\":10896:10910   */\n      swap1\n      dup2\n      shl\n        /* \"#utility.yul\":10892:10914   */\n      add\n        /* \"#utility.yul\":10879:10915   */\n      swap1\n      sstore\n      pop\n        /* \"#utility.yul\":9834:11182   */\n      jump\t// out\n        /* \"#utility.yul\":11187:11475   */\n    tag_197:\n        /* \"#utility.yul\":11362:11368   */\n      dup3\n        /* \"#utility.yul\":11351:11360   */\n      dup2\n        /* \"#utility.yul\":11344:11369   */\n      mstore\n        /* \"#utility.yul\":11405:11407   */\n      0x40\n        /* \"#utility.yul\":11400:11402   */\n      0x20\n        /* \"#utility.yul\":11389:11398   */\n      dup3\n        /* \"#utility.yul\":11385:11403   */\n      add\n        /* \"#utility.yul\":11378:11408   */\n      mstore\n        /* \"#utility.yul\":11325:11329   */\n      0x00\n        /* \"#utility.yul\":11425:11469   */\n      tag_291\n        /* \"#utility.yul\":11465:11467   */\n      0x40\n        /* \"#utility.yul\":11454:11463   */\n      dup4\n        /* \"#utility.yul\":11450:11468   */\n      add\n        /* \"#utility.yul\":11442:11448   */\n      dup5\n        /* \"#utility.yul\":11425:11469   */\n      tag_199\n      jump\t// in\n    tag_291:\n        /* \"#utility.yul\":11417:11469   */\n      swap5\n        /* \"#utility.yul\":11187:11475   */\n      swap4\n      pop\n      pop\n      pop\n      pop\n      jump\t// out\n\n    auxdata: 0xa2646970667358221220e7f9da4d2d9504e4eb767d6c4664ab438d738ed8ab88a70ae3b8770df80d6d5a64736f6c63430008110033\n}\n",
				"bytecode": {
					"linkReferences": {},
					"object": "60806040523480156200001157600080fd5b50604051620015dc380380620015dc8339810160408190526200003491620002a5565b60008251116200008b5760405162461bcd60e51b815260206004820152601b60248201527f4174206c65617374206f6e65206f776e6572207265717569726564000000000060448201526064015b60405180910390fd5b6000811180156200009e57506000548110155b620001125760405162461bcd60e51b815260206004820152603760248201527f496e76616c6964206e756d626572206f6620726571756972656420636f6e666960448201527f726d6174696f6e7320696e20636f6e7374727563746f72000000000000000000606482015260840162000082565b60005b8251811015620002675760008382815181106200013657620001366200037f565b6020026020010151905060006001600160a01b0316816001600160a01b031603620001945760405162461bcd60e51b815260206004820152600d60248201526c24b73b30b634b21037bbb732b960991b604482015260640162000082565b6001600160a01b03811660009081526001602052604090205460ff1615620001f25760405162461bcd60e51b815260206004820152601060248201526f4f776e6572206e6f7420756e6971756560801b604482015260640162000082565b6001600160a01b031660008181526001602081905260408220805460ff191682179055815490810182559080527f290decd9548b62a8d60345a988386fc84ba6bc95484008f6362f93160ef3e5630180546001600160a01b0319169091179055806200025e8162000395565b91505062000115565b5060025550620003bd565b634e487b7160e01b600052604160045260246000fd5b80516001600160a01b0381168114620002a057600080fd5b919050565b60008060408385031215620002b957600080fd5b82516001600160401b0380821115620002d157600080fd5b818501915085601f830112620002e657600080fd5b8151602082821115620002fd57620002fd62000272565b8160051b604051601f19603f8301168101818110868211171562000325576200032562000272565b6040529283528183019350848101820192898411156200034457600080fd5b948201945b838610156200036d576200035d8662000288565b8552948201949382019362000349565b97909101519698969750505050505050565b634e487b7160e01b600052603260045260246000fd5b600060018201620003b657634e487b7160e01b600052601160045260246000fd5b5060010190565b61120f80620003cd6000396000f3fe6080604052600436106100c65760003560e01c8063439370b11161007f578063a0e67e2b11610059578063a0e67e2b14610244578063c01a8c8414610266578063c642747414610286578063d0549b85146102a657600080fd5b8063439370b1146101e157806380f59a65146101e95780639ace38c21461022457600080fd5b8063025e7c27146100d257806320ea8d861461010f5780632460af8d146101315780632e7700f0146101515780632f54bf6e1461017057806333ea3dc8146101b057600080fd5b366100cd57005b600080fd5b3480156100de57600080fd5b506100f26100ed366004610d47565b6102bc565b6040516001600160a01b0390911681526020015b60405180910390f35b34801561011b57600080fd5b5061012f61012a366004610d47565b6102e6565b005b34801561013d57600080fd5b5061012f61014c366004610d47565b6104d4565b34801561015d57600080fd5b506004545b604051908152602001610106565b34801561017c57600080fd5b506101a061018b366004610d7c565b60016020526000908152604090205460ff1681565b6040519015158152602001610106565b3480156101bc57600080fd5b506101d06101cb366004610d47565b6106da565b604051610106959493929190610de4565b61012f6107d5565b3480156101f557600080fd5b506101a0610204366004610e20565b600360209081526000928352604080842090915290825290205460ff1681565b34801561023057600080fd5b506101d061023f366004610d47565b61089b565b34801561025057600080fd5b50610259610974565b6040516101069190610e4c565b34801561027257600080fd5b5061012f610281366004610d47565b6109d6565b34801561029257600080fd5b5061012f6102a1366004610eaf565b610bba565b3480156102b257600080fd5b5061016260025481565b600081815481106102cc57600080fd5b6000918252602090912001546001600160a01b0316905081565b3360009081526001602052604090205460ff1661031e5760405162461bcd60e51b815260040161031590610f7a565b60405180910390fd5b600454819081106103715760405162461bcd60e51b815260206004820152601c60248201527f5472616e73616374696f6e7320646f65736e2774206578697374732e000000006044820152606401610315565b816004818154811061038557610385610fa1565b600091825260209091206003600590920201015460ff16156103df5760405162461bcd60e51b8152602060048201526013602482015272151e08185b1c9958591e48195e1958dd5d1959606a1b6044820152606401610315565b6000600484815481106103f4576103f4610fa1565b600091825260208083208784526003825260408085203386529092529220546005909102909101915060ff1661046c5760405162461bcd60e51b815260206004820152601c60248201527f5472616e73616374696f6e206973206e6f7420636f6e6669726d6564000000006044820152606401610315565b60018160040160008282546104819190610fcd565b90915550506000848152600360209081526040808320338085529252808320805460ff191690555186927f283c514ab0f0c678c1af6065bc6202d7ae6ef6a75153e5dc6b8f90ef52aa02e291a350505050565b3360009081526001602052604090205460ff166105035760405162461bcd60e51b815260040161031590610f7a565b600454819081106105565760405162461bcd60e51b815260206004820152601c60248201527f5472616e73616374696f6e7320646f65736e2774206578697374732e000000006044820152606401610315565b816004818154811061056a5761056a610fa1565b600091825260209091206003600590920201015460ff16156105c45760405162461bcd60e51b8152602060048201526013602482015272151e08185b1c9958591e48195e1958dd5d1959606a1b6044820152606401610315565b6000600484815481106105d9576105d9610fa1565b6000918252602082206003600590920201908101805460ff191660019081179091558154908201546040519294506001600160a01b0390911691614e209190610626906002870190611020565b600060405180830381858888f193505050503d8060008114610664576040519150601f19603f3d011682016040523d82523d6000602084013e610669565b606091505b50509050806106a65760405162461bcd60e51b8152602060048201526009602482015268151e0811985a5b195960ba1b6044820152606401610315565b604051859033907fb8f3f22b153c8972a2b4035f917011b44c5eebfd1961477649b4b59fd2b8ab7a90600090a35050505050565b60008060606000806000600487815481106106f7576106f7610fa1565b6000918252602090912060059091020180546001820154600383015460048401546002850180549596506001600160a01b039094169492939260ff90921691839061074190610fe6565b80601f016020809104026020016040519081016040528092919081815260200182805461076d90610fe6565b80156107ba5780601f1061078f576101008083540402835291602001916107ba565b820191906000526020600020905b81548152906001019060200180831161079d57829003601f168201915b50505050509250955095509550955095505091939590929450565b604051600090309034908381818185875af1925050503d8060008114610817576040519150601f19603f3d011682016040523d82523d6000602084013e61081c565b606091505b505090508061085e5760405162461bcd60e51b815260206004820152600e60248201526d11195c1bdcda5d0811985a5b195960921b6044820152606401610315565b6040805134815247602082015233917f90890809c654f11d6e72a28fa60149770a0d11ec6c92319d6ceb2bb0a4ea1a15910160405180910390a250565b600481815481106108ab57600080fd5b60009182526020909120600590910201805460018201546002830180546001600160a01b0390931694509092916108e190610fe6565b80601f016020809104026020016040519081016040528092919081815260200182805461090d90610fe6565b801561095a5780601f1061092f5761010080835404028352916020019161095a565b820191906000526020600020905b81548152906001019060200180831161093d57829003601f168201915b505050506003830154600490930154919260ff1691905085565b606060008054806020026020016040519081016040528092919081815260200182805480156109cc57602002820191906000526020600020905b81546001600160a01b031681526001909101906020018083116109ae575b5050505050905090565b3360009081526001602052604090205460ff16610a055760405162461bcd60e51b815260040161031590610f7a565b60045481908110610a585760405162461bcd60e51b815260206004820152601c60248201527f5472616e73616374696f6e7320646f65736e2774206578697374732e000000006044820152606401610315565b8160048181548110610a6c57610a6c610fa1565b600091825260209091206003600590920201015460ff1615610ac65760405162461bcd60e51b8152602060048201526013602482015272151e08185b1c9958591e48195e1958dd5d1959606a1b6044820152606401610315565b6000838152600360209081526040808320338452909152902054839060ff1615610b295760405162461bcd60e51b8152602060048201526014602482015273151e08185b1c9958591e4818dbdb999a5c9b595960621b6044820152606401610315565b600060048581548110610b3e57610b3e610fa1565b906000526020600020906005020190506001816004016000828254610b639190611096565b90915550506000858152600360209081526040808320338085529252808320805460ff191660011790555187927f30b792a06b894d6f94d14f993999054aec555c00f74a9c4749c19cd5977f343891a35050505050565b3360009081526001602052604090205460ff16610be95760405162461bcd60e51b815260040161031590610f7a565b600480546040805160a0810182526001600160a01b03878116825260208201878152928201868152600060608401819052608084018190526001860187559590955281517f8a35acfbc15ff81a39ae7d344fd709f28e8600b4aa8c65c6b64bfe7fe36bd19b60058602908101805473ffffffffffffffffffffffffffffffffffffffff19169290931691909117825592517f8a35acfbc15ff81a39ae7d344fd709f28e8600b4aa8c65c6b64bfe7fe36bd19c84015593519293909290917f8a35acfbc15ff81a39ae7d344fd709f28e8600b4aa8c65c6b64bfe7fe36bd19d0190610cd390826110f8565b50606082015160038201805460ff19169115159190911790556080909101516004909101556040516001600160a01b03851690829033907f4cd0db5ae67223334766462aae67a7332e1fd08faaf911ca846a11461d42c35a90610d3990889088906111b8565b60405180910390a450505050565b600060208284031215610d5957600080fd5b5035919050565b80356001600160a01b0381168114610d7757600080fd5b919050565b600060208284031215610d8e57600080fd5b610d9782610d60565b9392505050565b6000815180845260005b81811015610dc457602081850181015186830182015201610da8565b506000602082860101526020601f19601f83011685010191505092915050565b6001600160a01b038616815284602082015260a060408201526000610e0c60a0830186610d9e565b931515606083015250608001529392505050565b60008060408385031215610e3357600080fd5b82359150610e4360208401610d60565b90509250929050565b6020808252825182820181905260009190848201906040850190845b81811015610e8d5783516001600160a01b031683529284019291840191600101610e68565b50909695505050505050565b634e487b7160e01b600052604160045260246000fd5b600080600060608486031215610ec457600080fd5b610ecd84610d60565b925060208401359150604084013567ffffffffffffffff80821115610ef157600080fd5b818601915086601f830112610f0557600080fd5b813581811115610f1757610f17610e99565b604051601f8201601f19908116603f01168101908382118183101715610f3f57610f3f610e99565b81604052828152896020848701011115610f5857600080fd5b8260208601602083013760006020848301015280955050505050509250925092565b6020808252600d908201526c2737ba103a34329037bbb732b960991b604082015260600190565b634e487b7160e01b600052603260045260246000fd5b634e487b7160e01b600052601160045260246000fd5b81810381811115610fe057610fe0610fb7565b92915050565b600181811c90821680610ffa57607f821691505b60208210810361101a57634e487b7160e01b600052602260045260246000fd5b50919050565b600080835461102e81610fe6565b60018281168015611046576001811461105b5761108a565b60ff198416875282151583028701945061108a565b8760005260208060002060005b858110156110815781548a820152908401908201611068565b50505082870194505b50929695505050505050565b80820180821115610fe057610fe0610fb7565b601f8211156110f357600081815260208120601f850160051c810160208610156110d05750805b601f850160051c820191505b818110156110ef578281556001016110dc565b5050505b505050565b815167ffffffffffffffff81111561111257611112610e99565b611126816111208454610fe6565b846110a9565b602080601f83116001811461115b57600084156111435750858301515b600019600386901b1c1916600185901b1785556110ef565b600085815260208120601f198616915b8281101561118a5788860151825594840194600190910190840161116b565b50858210156111a85787850151600019600388901b60f8161c191681555b5050505050600190811b01905550565b8281526040602082015260006111d16040830184610d9e565b94935050505056fea2646970667358221220e7f9da4d2d9504e4eb767d6c4664ab438d738ed8ab88a70ae3b8770df80d6d5a64736f6c63430008110033",
					"opcodes": "PUSH1 0x80 PUSH1 0x40 MSTORE CALLVALUE DUP1 ISZERO PUSH3 0x11 JUMPI PUSH1 0x0 DUP1 REVERT JUMPDEST POP PUSH1 0x40 MLOAD PUSH3 0x15DC CODESIZE SUB DUP1 PUSH3 0x15DC DUP4 CODECOPY DUP2 ADD PUSH1 0x40 DUP2 SWAP1 MSTORE PUSH3 0x34 SWAP2 PUSH3 0x2A5 JUMP JUMPDEST PUSH1 0x0 DUP3 MLOAD GT PUSH3 0x8B JUMPI PUSH1 0x40 MLOAD PUSH3 0x461BCD PUSH1 0xE5 SHL DUP2 MSTORE PUSH1 0x20 PUSH1 0x4 DUP3 ADD MSTORE PUSH1 0x1B PUSH1 0x24 DUP3 ADD MSTORE PUSH32 0x4174206C65617374206F6E65206F776E65722072657175697265640000000000 PUSH1 0x44 DUP3 ADD MSTORE PUSH1 0x64 ADD JUMPDEST PUSH1 0x40 MLOAD DUP1 SWAP2 SUB SWAP1 REVERT JUMPDEST PUSH1 0x0 DUP2 GT DUP1 ISZERO PUSH3 0x9E JUMPI POP PUSH1 0x0 SLOAD DUP2 LT ISZERO JUMPDEST PUSH3 0x112 JUMPI PUSH1 0x40 MLOAD PUSH3 0x461BCD PUSH1 0xE5 SHL DUP2 MSTORE PUSH1 0x20 PUSH1 0x4 DUP3 ADD MSTORE PUSH1 0x37 PUSH1 0x24 DUP3 ADD MSTORE PUSH32 0x496E76616C6964206E756D626572206F6620726571756972656420636F6E6669 PUSH1 0x44 DUP3 ADD MSTORE PUSH32 0x726D6174696F6E7320696E20636F6E7374727563746F72000000000000000000 PUSH1 0x64 DUP3 ADD MSTORE PUSH1 0x84 ADD PUSH3 0x82 JUMP JUMPDEST PUSH1 0x0 JUMPDEST DUP3 MLOAD DUP2 LT ISZERO PUSH3 0x267 JUMPI PUSH1 0x0 DUP4 DUP3 DUP2 MLOAD DUP2 LT PUSH3 0x136 JUMPI PUSH3 0x136 PUSH3 0x37F JUMP JUMPDEST PUSH1 0x20 MUL PUSH1 0x20 ADD ADD MLOAD SWAP1 POP PUSH1 0x0 PUSH1 0x1 PUSH1 0x1 PUSH1 0xA0 SHL SUB AND DUP2 PUSH1 0x1 PUSH1 0x1 PUSH1 0xA0 SHL SUB AND SUB PUSH3 0x194 JUMPI PUSH1 0x40 MLOAD PUSH3 0x461BCD PUSH1 0xE5 SHL DUP2 MSTORE PUSH1 0x20 PUSH1 0x4 DUP3 ADD MSTORE PUSH1 0xD PUSH1 0x24 DUP3 ADD MSTORE PUSH13 0x24B73B30B634B21037BBB732B9 PUSH1 0x99 SHL PUSH1 0x44 DUP3 ADD MSTORE PUSH1 0x64 ADD PUSH3 0x82 JUMP JUMPDEST PUSH1 0x1 PUSH1 0x1 PUSH1 0xA0 SHL SUB DUP2 AND PUSH1 0x0 SWAP1 DUP2 MSTORE PUSH1 0x1 PUSH1 0x20 MSTORE PUSH1 0x40 SWAP1 KECCAK256 SLOAD PUSH1 0xFF AND ISZERO PUSH3 0x1F2 JUMPI PUSH1 0x40 MLOAD PUSH3 0x461BCD PUSH1 0xE5 SHL DUP2 MSTORE PUSH1 0x20 PUSH1 0x4 DUP3 ADD MSTORE PUSH1 0x10 PUSH1 0x24 DUP3 ADD MSTORE PUSH16 0x4F776E6572206E6F7420756E69717565 PUSH1 0x80 SHL PUSH1 0x44 DUP3 ADD MSTORE PUSH1 0x64 ADD PUSH3 0x82 JUMP JUMPDEST PUSH1 0x1 PUSH1 0x1 PUSH1 0xA0 SHL SUB AND PUSH1 0x0 DUP2 DUP2 MSTORE PUSH1 0x1 PUSH1 0x20 DUP2 SWAP1 MSTORE PUSH1 0x40 DUP3 KECCAK256 DUP1 SLOAD PUSH1 0xFF NOT AND DUP3 OR SWAP1 SSTORE DUP2 SLOAD SWAP1 DUP2 ADD DUP3 SSTORE SWAP1 DUP1 MSTORE PUSH32 0x290DECD9548B62A8D60345A988386FC84BA6BC95484008F6362F93160EF3E563 ADD DUP1 SLOAD PUSH1 0x1 PUSH1 0x1 PUSH1 0xA0 SHL SUB NOT AND SWAP1 SWAP2 OR SWAP1 SSTORE DUP1 PUSH3 0x25E DUP2 PUSH3 0x395 JUMP JUMPDEST SWAP2 POP POP PUSH3 0x115 JUMP JUMPDEST POP PUSH1 0x2 SSTORE POP PUSH3 0x3BD JUMP JUMPDEST PUSH4 0x4E487B71 PUSH1 0xE0 SHL PUSH1 0x0 MSTORE PUSH1 0x41 PUSH1 0x4 MSTORE PUSH1 0x24 PUSH1 0x0 REVERT JUMPDEST DUP1 MLOAD PUSH1 0x1 PUSH1 0x1 PUSH1 0xA0 SHL SUB DUP2 AND DUP2 EQ PUSH3 0x2A0 JUMPI PUSH1 0x0 DUP1 REVERT JUMPDEST SWAP2 SWAP1 POP JUMP JUMPDEST PUSH1 0x0 DUP1 PUSH1 0x40 DUP4 DUP6 SUB SLT ISZERO PUSH3 0x2B9 JUMPI PUSH1 0x0 DUP1 REVERT JUMPDEST DUP3 MLOAD PUSH1 0x1 PUSH1 0x1 PUSH1 0x40 SHL SUB DUP1 DUP3 GT ISZERO PUSH3 0x2D1 JUMPI PUSH1 0x0 DUP1 REVERT JUMPDEST DUP2 DUP6 ADD SWAP2 POP DUP6 PUSH1 0x1F DUP4 ADD SLT PUSH3 0x2E6 JUMPI PUSH1 0x0 DUP1 REVERT JUMPDEST DUP2 MLOAD PUSH1 0x20 DUP3 DUP3 GT ISZERO PUSH3 0x2FD JUMPI PUSH3 0x2FD PUSH3 0x272 JUMP JUMPDEST DUP2 PUSH1 0x5 SHL PUSH1 0x40 MLOAD PUSH1 0x1F NOT PUSH1 0x3F DUP4 ADD AND DUP2 ADD DUP2 DUP2 LT DUP7 DUP3 GT OR ISZERO PUSH3 0x325 JUMPI PUSH3 0x325 PUSH3 0x272 JUMP JUMPDEST PUSH1 0x40 MSTORE SWAP3 DUP4 MSTORE DUP2 DUP4 ADD SWAP4 POP DUP5 DUP2 ADD DUP3 ADD SWAP3 DUP10 DUP5 GT ISZERO PUSH3 0x344 JUMPI PUSH1 0x0 DUP1 REVERT JUMPDEST SWAP5 DUP3 ADD SWAP5 JUMPDEST DUP4 DUP7 LT ISZERO PUSH3 0x36D JUMPI PUSH3 0x35D DUP7 PUSH3 0x288 JUMP JUMPDEST DUP6 MSTORE SWAP5 DUP3 ADD SWAP5 SWAP4 DUP3 ADD SWAP4 PUSH3 0x349 JUMP JUMPDEST SWAP8 SWAP1 SWAP2 ADD MLOAD SWAP7 SWAP9 SWAP7 SWAP8 POP POP POP POP POP POP POP JUMP JUMPDEST PUSH4 0x4E487B71 PUSH1 0xE0 SHL PUSH1 0x0 MSTORE PUSH1 0x32 PUSH1 0x4 MSTORE PUSH1 0x24 PUSH1 0x0 REVERT JUMPDEST PUSH1 0x0 PUSH1 0x1 DUP3 ADD PUSH3 0x3B6 JUMPI PUSH4 0x4E487B71 PUSH1 0xE0 SHL PUSH1 0x0 MSTORE PUSH1 0x11 PUSH1 0x4 MSTORE PUSH1 0x24 PUSH1 0x0 REVERT JUMPDEST POP PUSH1 0x1 ADD SWAP1 JUMP JUMPDEST PUSH2 0x120F DUP1 PUSH3 0x3CD PUSH1 0x0 CODECOPY PUSH1 0x0 RETURN INVALID PUSH1 0x80 PUSH1 0x40 MSTORE PUSH1 0x4 CALLDATASIZE LT PUSH2 0xC6 JUMPI PUSH1 0x0 CALLDATALOAD PUSH1 0xE0 SHR DUP1 PUSH4 0x439370B1 GT PUSH2 0x7F JUMPI DUP1 PUSH4 0xA0E67E2B GT PUSH2 0x59 JUMPI DUP1 PUSH4 0xA0E67E2B EQ PUSH2 0x244 JUMPI DUP1 PUSH4 0xC01A8C84 EQ PUSH2 0x266 JUMPI DUP1 PUSH4 0xC6427474 EQ PUSH2 0x286 JUMPI DUP1 PUSH4 0xD0549B85 EQ PUSH2 0x2A6 JUMPI PUSH1 0x0 DUP1 REVERT JUMPDEST DUP1 PUSH4 0x439370B1 EQ PUSH2 0x1E1 JUMPI DUP1 PUSH4 0x80F59A65 EQ PUSH2 0x1E9 JUMPI DUP1 PUSH4 0x9ACE38C2 EQ PUSH2 0x224 JUMPI PUSH1 0x0 DUP1 REVERT JUMPDEST DUP1 PUSH4 0x25E7C27 EQ PUSH2 0xD2 JUMPI DUP1 PUSH4 0x20EA8D86 EQ PUSH2 0x10F JUMPI DUP1 PUSH4 0x2460AF8D EQ PUSH2 0x131 JUMPI DUP1 PUSH4 0x2E7700F0 EQ PUSH2 0x151 JUMPI DUP1 PUSH4 0x2F54BF6E EQ PUSH2 0x170 JUMPI DUP1 PUSH4 0x33EA3DC8 EQ PUSH2 0x1B0 JUMPI PUSH1 0x0 DUP1 REVERT JUMPDEST CALLDATASIZE PUSH2 0xCD JUMPI STOP JUMPDEST PUSH1 0x0 DUP1 REVERT JUMPDEST CALLVALUE DUP1 ISZERO PUSH2 0xDE JUMPI PUSH1 0x0 DUP1 REVERT JUMPDEST POP PUSH2 0xF2 PUSH2 0xED CALLDATASIZE PUSH1 0x4 PUSH2 0xD47 JUMP JUMPDEST PUSH2 0x2BC JUMP JUMPDEST PUSH1 0x40 MLOAD PUSH1 0x1 PUSH1 0x1 PUSH1 0xA0 SHL SUB SWAP1 SWAP2 AND DUP2 MSTORE PUSH1 0x20 ADD JUMPDEST PUSH1 0x40 MLOAD DUP1 SWAP2 SUB SWAP1 RETURN JUMPDEST CALLVALUE DUP1 ISZERO PUSH2 0x11B JUMPI PUSH1 0x0 DUP1 REVERT JUMPDEST POP PUSH2 0x12F PUSH2 0x12A CALLDATASIZE PUSH1 0x4 PUSH2 0xD47 JUMP JUMPDEST PUSH2 0x2E6 JUMP JUMPDEST STOP JUMPDEST CALLVALUE DUP1 ISZERO PUSH2 0x13D JUMPI PUSH1 0x0 DUP1 REVERT JUMPDEST POP PUSH2 0x12F PUSH2 0x14C CALLDATASIZE PUSH1 0x4 PUSH2 0xD47 JUMP JUMPDEST PUSH2 0x4D4 JUMP JUMPDEST CALLVALUE DUP1 ISZERO PUSH2 0x15D JUMPI PUSH1 0x0 DUP1 REVERT JUMPDEST POP PUSH1 0x4 SLOAD JUMPDEST PUSH1 0x40 MLOAD SWAP1 DUP2 MSTORE PUSH1 0x20 ADD PUSH2 0x106 JUMP JUMPDEST CALLVALUE DUP1 ISZERO PUSH2 0x17C JUMPI PUSH1 0x0 DUP1 REVERT JUMPDEST POP PUSH2 0x1A0 PUSH2 0x18B CALLDATASIZE PUSH1 0x4 PUSH2 0xD7C JUMP JUMPDEST PUSH1 0x1 PUSH1 0x20 MSTORE PUSH1 0x0 SWAP1 DUP2 MSTORE PUSH1 0x40 SWAP1 KECCAK256 SLOAD PUSH1 0xFF AND DUP2 JUMP JUMPDEST PUSH1 0x40 MLOAD SWAP1 ISZERO ISZERO DUP2 MSTORE PUSH1 0x20 ADD PUSH2 0x106 JUMP JUMPDEST CALLVALUE DUP1 ISZERO PUSH2 0x1BC JUMPI PUSH1 0x0 DUP1 REVERT JUMPDEST POP PUSH2 0x1D0 PUSH2 0x1CB CALLDATASIZE PUSH1 0x4 PUSH2 0xD47 JUMP JUMPDEST PUSH2 0x6DA JUMP JUMPDEST PUSH1 0x40 MLOAD PUSH2 0x106 SWAP6 SWAP5 SWAP4 SWAP3 SWAP2 SWAP1 PUSH2 0xDE4 JUMP JUMPDEST PUSH2 0x12F PUSH2 0x7D5 JUMP JUMPDEST CALLVALUE DUP1 ISZERO PUSH2 0x1F5 JUMPI PUSH1 0x0 DUP1 REVERT JUMPDEST POP PUSH2 0x1A0 PUSH2 0x204 CALLDATASIZE PUSH1 0x4 PUSH2 0xE20 JUMP JUMPDEST PUSH1 0x3 PUSH1 0x20 SWAP1 DUP2 MSTORE PUSH1 0x0 SWAP3 DUP4 MSTORE PUSH1 0x40 DUP1 DUP5 KECCAK256 SWAP1 SWAP2 MSTORE SWAP1 DUP3 MSTORE SWAP1 KECCAK256 SLOAD PUSH1 0xFF AND DUP2 JUMP JUMPDEST CALLVALUE DUP1 ISZERO PUSH2 0x230 JUMPI PUSH1 0x0 DUP1 REVERT JUMPDEST POP PUSH2 0x1D0 PUSH2 0x23F CALLDATASIZE PUSH1 0x4 PUSH2 0xD47 JUMP JUMPDEST PUSH2 0x89B JUMP JUMPDEST CALLVALUE DUP1 ISZERO PUSH2 0x250 JUMPI PUSH1 0x0 DUP1 REVERT JUMPDEST POP PUSH2 0x259 PUSH2 0x974 JUMP JUMPDEST PUSH1 0x40 MLOAD PUSH2 0x106 SWAP2 SWAP1 PUSH2 0xE4C JUMP JUMPDEST CALLVALUE DUP1 ISZERO PUSH2 0x272 JUMPI PUSH1 0x0 DUP1 REVERT JUMPDEST POP PUSH2 0x12F PUSH2 0x281 CALLDATASIZE PUSH1 0x4 PUSH2 0xD47 JUMP JUMPDEST PUSH2 0x9D6 JUMP JUMPDEST CALLVALUE DUP1 ISZERO PUSH2 0x292 JUMPI PUSH1 0x0 DUP1 REVERT JUMPDEST POP PUSH2 0x12F PUSH2 0x2A1 CALLDATASIZE PUSH1 0x4 PUSH2 0xEAF JUMP JUMPDEST PUSH2 0xBBA JUMP JUMPDEST CALLVALUE DUP1 ISZERO PUSH2 0x2B2 JUMPI PUSH1 0x0 DUP1 REVERT JUMPDEST POP PUSH2 0x162 PUSH1 0x2 SLOAD DUP2 JUMP JUMPDEST PUSH1 0x0 DUP2 DUP2 SLOAD DUP2 LT PUSH2 0x2CC JUMPI PUSH1 0x0 DUP1 REVERT JUMPDEST PUSH1 0x0 SWAP2 DUP3 MSTORE PUSH1 0x20 SWAP1 SWAP2 KECCAK256 ADD SLOAD PUSH1 0x1 PUSH1 0x1 PUSH1 0xA0 SHL SUB AND SWAP1 POP DUP2 JUMP JUMPDEST CALLER PUSH1 0x0 SWAP1 DUP2 MSTORE PUSH1 0x1 PUSH1 0x20 MSTORE PUSH1 0x40 SWAP1 KECCAK256 SLOAD PUSH1 0xFF AND PUSH2 0x31E JUMPI PUSH1 0x40 MLOAD PUSH3 0x461BCD PUSH1 0xE5 SHL DUP2 MSTORE PUSH1 0x4 ADD PUSH2 0x315 SWAP1 PUSH2 0xF7A JUMP JUMPDEST PUSH1 0x40 MLOAD DUP1 SWAP2 SUB SWAP1 REVERT JUMPDEST PUSH1 0x4 SLOAD DUP2 SWAP1 DUP2 LT PUSH2 0x371 JUMPI PUSH1 0x40 MLOAD PUSH3 0x461BCD PUSH1 0xE5 SHL DUP2 MSTORE PUSH1 0x20 PUSH1 0x4 DUP3 ADD MSTORE PUSH1 0x1C PUSH1 0x24 DUP3 ADD MSTORE PUSH32 0x5472616E73616374696F6E7320646F65736E2774206578697374732E00000000 PUSH1 0x44 DUP3 ADD MSTORE PUSH1 0x64 ADD PUSH2 0x315 JUMP JUMPDEST DUP2 PUSH1 0x4 DUP2 DUP2 SLOAD DUP2 LT PUSH2 0x385 JUMPI PUSH2 0x385 PUSH2 0xFA1 JUMP JUMPDEST PUSH1 0x0 SWAP2 DUP3 MSTORE PUSH1 0x20 SWAP1 SWAP2 KECCAK256 PUSH1 0x3 PUSH1 0x5 SWAP1 SWAP3 MUL ADD ADD SLOAD PUSH1 0xFF AND ISZERO PUSH2 0x3DF JUMPI PUSH1 0x40 MLOAD PUSH3 0x461BCD PUSH1 0xE5 SHL DUP2 MSTORE PUSH1 0x20 PUSH1 0x4 DUP3 ADD MSTORE PUSH1 0x13 PUSH1 0x24 DUP3 ADD MSTORE PUSH19 0x151E08185B1C9958591E48195E1958DD5D1959 PUSH1 0x6A SHL PUSH1 0x44 DUP3 ADD MSTORE PUSH1 0x64 ADD PUSH2 0x315 JUMP JUMPDEST PUSH1 0x0 PUSH1 0x4 DUP5 DUP2 SLOAD DUP2 LT PUSH2 0x3F4 JUMPI PUSH2 0x3F4 PUSH2 0xFA1 JUMP JUMPDEST PUSH1 0x0 SWAP2 DUP3 MSTORE PUSH1 0x20 DUP1 DUP4 KECCAK256 DUP8 DUP5 MSTORE PUSH1 0x3 DUP3 MSTORE PUSH1 0x40 DUP1 DUP6 KECCAK256 CALLER DUP7 MSTORE SWAP1 SWAP3 MSTORE SWAP3 KECCAK256 SLOAD PUSH1 0x5 SWAP1 SWAP2 MUL SWAP1 SWAP2 ADD SWAP2 POP PUSH1 0xFF AND PUSH2 0x46C JUMPI PUSH1 0x40 MLOAD PUSH3 0x461BCD PUSH1 0xE5 SHL DUP2 MSTORE PUSH1 0x20 PUSH1 0x4 DUP3 ADD MSTORE PUSH1 0x1C PUSH1 0x24 DUP3 ADD MSTORE PUSH32 0x5472616E73616374696F6E206973206E6F7420636F6E6669726D656400000000 PUSH1 0x44 DUP3 ADD MSTORE PUSH1 0x64 ADD PUSH2 0x315 JUMP JUMPDEST PUSH1 0x1 DUP2 PUSH1 0x4 ADD PUSH1 0x0 DUP3 DUP3 SLOAD PUSH2 0x481 SWAP2 SWAP1 PUSH2 0xFCD JUMP JUMPDEST SWAP1 SWAP2 SSTORE POP POP PUSH1 0x0 DUP5 DUP2 MSTORE PUSH1 0x3 PUSH1 0x20 SWAP1 DUP2 MSTORE PUSH1 0x40 DUP1 DUP4 KECCAK256 CALLER DUP1 DUP6 MSTORE SWAP3 MSTORE DUP1 DUP4 KECCAK256 DUP1 SLOAD PUSH1 0xFF NOT AND SWAP1 SSTORE MLOAD DUP7 SWAP3 PUSH32 0x283C514AB0F0C678C1AF6065BC6202D7AE6EF6A75153E5DC6B8F90EF52AA02E2 SWAP2 LOG3 POP POP POP POP JUMP JUMPDEST CALLER PUSH1 0x0 SWAP1 DUP2 MSTORE PUSH1 0x1 PUSH1 0x20 MSTORE PUSH1 0x40 SWAP1 KECCAK256 SLOAD PUSH1 0xFF AND PUSH2 0x503 JUMPI PUSH1 0x40 MLOAD PUSH3 0x461BCD PUSH1 0xE5 SHL DUP2 MSTORE PUSH1 0x4 ADD PUSH2 0x315 SWAP1 PUSH2 0xF7A JUMP JUMPDEST PUSH1 0x4 SLOAD DUP2 SWAP1 DUP2 LT PUSH2 0x556 JUMPI PUSH1 0x40 MLOAD PUSH3 0x461BCD PUSH1 0xE5 SHL DUP2 MSTORE PUSH1 0x20 PUSH1 0x4 DUP3 ADD MSTORE PUSH1 0x1C PUSH1 0x24 DUP3 ADD MSTORE PUSH32 0x5472616E73616374696F6E7320646F65736E2774206578697374732E00000000 PUSH1 0x44 DUP3 ADD MSTORE PUSH1 0x64 ADD PUSH2 0x315 JUMP JUMPDEST DUP2 PUSH1 0x4 DUP2 DUP2 SLOAD DUP2 LT PUSH2 0x56A JUMPI PUSH2 0x56A PUSH2 0xFA1 JUMP JUMPDEST PUSH1 0x0 SWAP2 DUP3 MSTORE PUSH1 0x20 SWAP1 SWAP2 KECCAK256 PUSH1 0x3 PUSH1 0x5 SWAP1 SWAP3 MUL ADD ADD SLOAD PUSH1 0xFF AND ISZERO PUSH2 0x5C4 JUMPI PUSH1 0x40 MLOAD PUSH3 0x461BCD PUSH1 0xE5 SHL DUP2 MSTORE PUSH1 0x20 PUSH1 0x4 DUP3 ADD MSTORE PUSH1 0x13 PUSH1 0x24 DUP3 ADD MSTORE PUSH19 0x151E08185B1C9958591E48195E1958DD5D1959 PUSH1 0x6A SHL PUSH1 0x44 DUP3 ADD MSTORE PUSH1 0x64 ADD PUSH2 0x315 JUMP JUMPDEST PUSH1 0x0 PUSH1 0x4 DUP5 DUP2 SLOAD DUP2 LT PUSH2 0x5D9 JUMPI PUSH2 0x5D9 PUSH2 0xFA1 JUMP JUMPDEST PUSH1 0x0 SWAP2 DUP3 MSTORE PUSH1 0x20 DUP3 KECCAK256 PUSH1 0x3 PUSH1 0x5 SWAP1 SWAP3 MUL ADD SWAP1 DUP2 ADD DUP1 SLOAD PUSH1 0xFF NOT AND PUSH1 0x1 SWAP1 DUP2 OR SWAP1 SWAP2 SSTORE DUP2 SLOAD SWAP1 DUP3 ADD SLOAD PUSH1 0x40 MLOAD SWAP3 SWAP5 POP PUSH1 0x1 PUSH1 0x1 PUSH1 0xA0 SHL SUB SWAP1 SWAP2 AND SWAP2 PUSH2 0x4E20 SWAP2 SWAP1 PUSH2 0x626 SWAP1 PUSH1 0x2 DUP8 ADD SWAP1 PUSH2 0x1020 JUMP JUMPDEST PUSH1 0x0 PUSH1 0x40 MLOAD DUP1 DUP4 SUB DUP2 DUP6 DUP9 DUP9 CALL SWAP4 POP POP POP POP RETURNDATASIZE DUP1 PUSH1 0x0 DUP2 EQ PUSH2 0x664 JUMPI PUSH1 0x40 MLOAD SWAP2 POP PUSH1 0x1F NOT PUSH1 0x3F RETURNDATASIZE ADD AND DUP3 ADD PUSH1 0x40 MSTORE RETURNDATASIZE DUP3 MSTORE RETURNDATASIZE PUSH1 0x0 PUSH1 0x20 DUP5 ADD RETURNDATACOPY PUSH2 0x669 JUMP JUMPDEST PUSH1 0x60 SWAP2 POP JUMPDEST POP POP SWAP1 POP DUP1 PUSH2 0x6A6 JUMPI PUSH1 0x40 MLOAD PUSH3 0x461BCD PUSH1 0xE5 SHL DUP2 MSTORE PUSH1 0x20 PUSH1 0x4 DUP3 ADD MSTORE PUSH1 0x9 PUSH1 0x24 DUP3 ADD MSTORE PUSH9 0x151E0811985A5B1959 PUSH1 0xBA SHL PUSH1 0x44 DUP3 ADD MSTORE PUSH1 0x64 ADD PUSH2 0x315 JUMP JUMPDEST PUSH1 0x40 MLOAD DUP6 SWAP1 CALLER SWAP1 PUSH32 0xB8F3F22B153C8972A2B4035F917011B44C5EEBFD1961477649B4B59FD2B8AB7A SWAP1 PUSH1 0x0 SWAP1 LOG3 POP POP POP POP POP JUMP JUMPDEST PUSH1 0x0 DUP1 PUSH1 0x60 PUSH1 0x0 DUP1 PUSH1 0x0 PUSH1 0x4 DUP8 DUP2 SLOAD DUP2 LT PUSH2 0x6F7 JUMPI PUSH2 0x6F7 PUSH2 0xFA1 JUMP JUMPDEST PUSH1 0x0 SWAP2 DUP3 MSTORE PUSH1 0x20 SWAP1 SWAP2 KECCAK256 PUSH1 0x5 SWAP1 SWAP2 MUL ADD DUP1 SLOAD PUSH1 0x1 DUP3 ADD SLOAD PUSH1 0x3 DUP4 ADD SLOAD PUSH1 0x4 DUP5 ADD SLOAD PUSH1 0x2 DUP6 ADD DUP1 SLOAD SWAP6 SWAP7 POP PUSH1 0x1 PUSH1 0x1 PUSH1 0xA0 SHL SUB SWAP1 SWAP5 AND SWAP5 SWAP3 SWAP4 SWAP3 PUSH1 0xFF SWAP1 SWAP3 AND SWAP2 DUP4 SWAP1 PUSH2 0x741 SWAP1 PUSH2 0xFE6 JUMP JUMPDEST DUP1 PUSH1 0x1F ADD PUSH1 0x20 DUP1 SWAP2 DIV MUL PUSH1 0x20 ADD PUSH1 0x40 MLOAD SWAP1 DUP2 ADD PUSH1 0x40 MSTORE DUP1 SWAP3 SWAP2 SWAP1 DUP2 DUP2 MSTORE PUSH1 0x20 ADD DUP3 DUP1 SLOAD PUSH2 0x76D SWAP1 PUSH2 0xFE6 JUMP JUMPDEST DUP1 ISZERO PUSH2 0x7BA JUMPI DUP1 PUSH1 0x1F LT PUSH2 0x78F JUMPI PUSH2 0x100 DUP1 DUP4 SLOAD DIV MUL DUP4 MSTORE SWAP2 PUSH1 0x20 ADD SWAP2 PUSH2 0x7BA JUMP JUMPDEST DUP3 ADD SWAP2 SWAP1 PUSH1 0x0 MSTORE PUSH1 0x20 PUSH1 0x0 KECCAK256 SWAP1 JUMPDEST DUP2 SLOAD DUP2 MSTORE SWAP1 PUSH1 0x1 ADD SWAP1 PUSH1 0x20 ADD DUP1 DUP4 GT PUSH2 0x79D JUMPI DUP3 SWAP1 SUB PUSH1 0x1F AND DUP3 ADD SWAP2 JUMPDEST POP POP POP POP POP SWAP3 POP SWAP6 POP SWAP6 POP SWAP6 POP SWAP6 POP SWAP6 POP POP SWAP2 SWAP4 SWAP6 SWAP1 SWAP3 SWAP5 POP JUMP JUMPDEST PUSH1 0x40 MLOAD PUSH1 0x0 SWAP1 ADDRESS SWAP1 CALLVALUE SWAP1 DUP4 DUP2 DUP2 DUP2 DUP6 DUP8 GAS CALL SWAP3 POP POP POP RETURNDATASIZE DUP1 PUSH1 0x0 DUP2 EQ PUSH2 0x817 JUMPI PUSH1 0x40 MLOAD SWAP2 POP PUSH1 0x1F NOT PUSH1 0x3F RETURNDATASIZE ADD AND DUP3 ADD PUSH1 0x40 MSTORE RETURNDATASIZE DUP3 MSTORE RETURNDATASIZE PUSH1 0x0 PUSH1 0x20 DUP5 ADD RETURNDATACOPY PUSH2 0x81C JUMP JUMPDEST PUSH1 0x60 SWAP2 POP JUMPDEST POP POP SWAP1 POP DUP1 PUSH2 0x85E JUMPI PUSH1 0x40 MLOAD PUSH3 0x461BCD PUSH1 0xE5 SHL DUP2 MSTORE PUSH1 0x20 PUSH1 0x4 DUP3 ADD MSTORE PUSH1 0xE PUSH1 0x24 DUP3 ADD MSTORE PUSH14 0x11195C1BDCDA5D0811985A5B1959 PUSH1 0x92 SHL PUSH1 0x44 DUP3 ADD MSTORE PUSH1 0x64 ADD PUSH2 0x315 JUMP JUMPDEST PUSH1 0x40 DUP1 MLOAD CALLVALUE DUP2 MSTORE SELFBALANCE PUSH1 0x20 DUP3 ADD MSTORE CALLER SWAP2 PUSH32 0x90890809C654F11D6E72A28FA60149770A0D11EC6C92319D6CEB2BB0A4EA1A15 SWAP2 ADD PUSH1 0x40 MLOAD DUP1 SWAP2 SUB SWAP1 LOG2 POP JUMP JUMPDEST PUSH1 0x4 DUP2 DUP2 SLOAD DUP2 LT PUSH2 0x8AB JUMPI PUSH1 0x0 DUP1 REVERT JUMPDEST PUSH1 0x0 SWAP2 DUP3 MSTORE PUSH1 0x20 SWAP1 SWAP2 KECCAK256 PUSH1 0x5 SWAP1 SWAP2 MUL ADD DUP1 SLOAD PUSH1 0x1 DUP3 ADD SLOAD PUSH1 0x2 DUP4 ADD DUP1 SLOAD PUSH1 0x1 PUSH1 0x1 PUSH1 0xA0 SHL SUB SWAP1 SWAP4 AND SWAP5 POP SWAP1 SWAP3 SWAP2 PUSH2 0x8E1 SWAP1 PUSH2 0xFE6 JUMP JUMPDEST DUP1 PUSH1 0x1F ADD PUSH1 0x20 DUP1 SWAP2 DIV MUL PUSH1 0x20 ADD PUSH1 0x40 MLOAD SWAP1 DUP2 ADD PUSH1 0x40 MSTORE DUP1 SWAP3 SWAP2 SWAP1 DUP2 DUP2 MSTORE PUSH1 0x20 ADD DUP3 DUP1 SLOAD PUSH2 0x90D SWAP1 PUSH2 0xFE6 JUMP JUMPDEST DUP1 ISZERO PUSH2 0x95A JUMPI DUP1 PUSH1 0x1F LT PUSH2 0x92F JUMPI PUSH2 0x100 DUP1 DUP4 SLOAD DIV MUL DUP4 MSTORE SWAP2 PUSH1 0x20 ADD SWAP2 PUSH2 0x95A JUMP JUMPDEST DUP3 ADD SWAP2 SWAP1 PUSH1 0x0 MSTORE PUSH1 0x20 PUSH1 0x0 KECCAK256 SWAP1 JUMPDEST DUP2 SLOAD DUP2 MSTORE SWAP1 PUSH1 0x1 ADD SWAP1 PUSH1 0x20 ADD DUP1 DUP4 GT PUSH2 0x93D JUMPI DUP3 SWAP1 SUB PUSH1 0x1F AND DUP3 ADD SWAP2 JUMPDEST POP POP POP POP PUSH1 0x3 DUP4 ADD SLOAD PUSH1 0x4 SWAP1 SWAP4 ADD SLOAD SWAP2 SWAP3 PUSH1 0xFF AND SWAP2 SWAP1 POP DUP6 JUMP JUMPDEST PUSH1 0x60 PUSH1 0x0 DUP1 SLOAD DUP1 PUSH1 0x20 MUL PUSH1 0x20 ADD PUSH1 0x40 MLOAD SWAP1 DUP2 ADD PUSH1 0x40 MSTORE DUP1 SWAP3 SWAP2 SWAP1 DUP2 DUP2 MSTORE PUSH1 0x20 ADD DUP3 DUP1 SLOAD DUP1 ISZERO PUSH2 0x9CC JUMPI PUSH1 0x20 MUL DUP3 ADD SWAP2 SWAP1 PUSH1 0x0 MSTORE PUSH1 0x20 PUSH1 0x0 KECCAK256 SWAP1 JUMPDEST DUP2 SLOAD PUSH1 0x1 PUSH1 0x1 PUSH1 0xA0 SHL SUB AND DUP2 MSTORE PUSH1 0x1 SWAP1 SWAP2 ADD SWAP1 PUSH1 0x20 ADD DUP1 DUP4 GT PUSH2 0x9AE JUMPI JUMPDEST POP POP POP POP POP SWAP1 POP SWAP1 JUMP JUMPDEST CALLER PUSH1 0x0 SWAP1 DUP2 MSTORE PUSH1 0x1 PUSH1 0x20 MSTORE PUSH1 0x40 SWAP1 KECCAK256 SLOAD PUSH1 0xFF AND PUSH2 0xA05 JUMPI PUSH1 0x40 MLOAD PUSH3 0x461BCD PUSH1 0xE5 SHL DUP2 MSTORE PUSH1 0x4 ADD PUSH2 0x315 SWAP1 PUSH2 0xF7A JUMP JUMPDEST PUSH1 0x4 SLOAD DUP2 SWAP1 DUP2 LT PUSH2 0xA58 JUMPI PUSH1 0x40 MLOAD PUSH3 0x461BCD PUSH1 0xE5 SHL DUP2 MSTORE PUSH1 0x20 PUSH1 0x4 DUP3 ADD MSTORE PUSH1 0x1C PUSH1 0x24 DUP3 ADD MSTORE PUSH32 0x5472616E73616374696F6E7320646F65736E2774206578697374732E00000000 PUSH1 0x44 DUP3 ADD MSTORE PUSH1 0x64 ADD PUSH2 0x315 JUMP JUMPDEST DUP2 PUSH1 0x4 DUP2 DUP2 SLOAD DUP2 LT PUSH2 0xA6C JUMPI PUSH2 0xA6C PUSH2 0xFA1 JUMP JUMPDEST PUSH1 0x0 SWAP2 DUP3 MSTORE PUSH1 0x20 SWAP1 SWAP2 KECCAK256 PUSH1 0x3 PUSH1 0x5 SWAP1 SWAP3 MUL ADD ADD SLOAD PUSH1 0xFF AND ISZERO PUSH2 0xAC6 JUMPI PUSH1 0x40 MLOAD PUSH3 0x461BCD PUSH1 0xE5 SHL DUP2 MSTORE PUSH1 0x20 PUSH1 0x4 DUP3 ADD MSTORE PUSH1 0x13 PUSH1 0x24 DUP3 ADD MSTORE PUSH19 0x151E08185B1C9958591E48195E1958DD5D1959 PUSH1 0x6A SHL PUSH1 0x44 DUP3 ADD MSTORE PUSH1 0x64 ADD PUSH2 0x315 JUMP JUMPDEST PUSH1 0x0 DUP4 DUP2 MSTORE PUSH1 0x3 PUSH1 0x20 SWAP1 DUP2 MSTORE PUSH1 0x40 DUP1 DUP4 KECCAK256 CALLER DUP5 MSTORE SWAP1 SWAP2 MSTORE SWAP1 KECCAK256 SLOAD DUP4 SWAP1 PUSH1 0xFF AND ISZERO PUSH2 0xB29 JUMPI PUSH1 0x40 MLOAD PUSH3 0x461BCD PUSH1 0xE5 SHL DUP2 MSTORE PUSH1 0x20 PUSH1 0x4 DUP3 ADD MSTORE PUSH1 0x14 PUSH1 0x24 DUP3 ADD MSTORE PUSH20 0x151E08185B1C9958591E4818DBDB999A5C9B5959 PUSH1 0x62 SHL PUSH1 0x44 DUP3 ADD MSTORE PUSH1 0x64 ADD PUSH2 0x315 JUMP JUMPDEST PUSH1 0x0 PUSH1 0x4 DUP6 DUP2 SLOAD DUP2 LT PUSH2 0xB3E JUMPI PUSH2 0xB3E PUSH2 0xFA1 JUMP JUMPDEST SWAP1 PUSH1 0x0 MSTORE PUSH1 0x20 PUSH1 0x0 KECCAK256 SWAP1 PUSH1 0x5 MUL ADD SWAP1 POP PUSH1 0x1 DUP2 PUSH1 0x4 ADD PUSH1 0x0 DUP3 DUP3 SLOAD PUSH2 0xB63 SWAP2 SWAP1 PUSH2 0x1096 JUMP JUMPDEST SWAP1 SWAP2 SSTORE POP POP PUSH1 0x0 DUP6 DUP2 MSTORE PUSH1 0x3 PUSH1 0x20 SWAP1 DUP2 MSTORE PUSH1 0x40 DUP1 DUP4 KECCAK256 CALLER DUP1 DUP6 MSTORE SWAP3 MSTORE DUP1 DUP4 KECCAK256 DUP1 SLOAD PUSH1 0xFF NOT AND PUSH1 0x1 OR SWAP1 SSTORE MLOAD DUP8 SWAP3 PUSH32 0x30B792A06B894D6F94D14F993999054AEC555C00F74A9C4749C19CD5977F3438 SWAP2 LOG3 POP POP POP POP POP JUMP JUMPDEST CALLER PUSH1 0x0 SWAP1 DUP2 MSTORE PUSH1 0x1 PUSH1 0x20 MSTORE PUSH1 0x40 SWAP1 KECCAK256 SLOAD PUSH1 0xFF AND PUSH2 0xBE9 JUMPI PUSH1 0x40 MLOAD PUSH3 0x461BCD PUSH1 0xE5 SHL DUP2 MSTORE PUSH1 0x4 ADD PUSH2 0x315 SWAP1 PUSH2 0xF7A JUMP JUMPDEST PUSH1 0x4 DUP1 SLOAD PUSH1 0x40 DUP1 MLOAD PUSH1 0xA0 DUP2 ADD DUP3 MSTORE PUSH1 0x1 PUSH1 0x1 PUSH1 0xA0 SHL SUB DUP8 DUP2 AND DUP3 MSTORE PUSH1 0x20 DUP3 ADD DUP8 DUP2 MSTORE SWAP3 DUP3 ADD DUP7 DUP2 MSTORE PUSH1 0x0 PUSH1 0x60 DUP5 ADD DUP2 SWAP1 MSTORE PUSH1 0x80 DUP5 ADD DUP2 SWAP1 MSTORE PUSH1 0x1 DUP7 ADD DUP8 SSTORE SWAP6 SWAP1 SWAP6 MSTORE DUP2 MLOAD PUSH32 0x8A35ACFBC15FF81A39AE7D344FD709F28E8600B4AA8C65C6B64BFE7FE36BD19B PUSH1 0x5 DUP7 MUL SWAP1 DUP2 ADD DUP1 SLOAD PUSH20 0xFFFFFFFFFFFFFFFFFFFFFFFFFFFFFFFFFFFFFFFF NOT AND SWAP3 SWAP1 SWAP4 AND SWAP2 SWAP1 SWAP2 OR DUP3 SSTORE SWAP3 MLOAD PUSH32 0x8A35ACFBC15FF81A39AE7D344FD709F28E8600B4AA8C65C6B64BFE7FE36BD19C DUP5 ADD SSTORE SWAP4 MLOAD SWAP3 SWAP4 SWAP1 SWAP3 SWAP1 SWAP2 PUSH32 0x8A35ACFBC15FF81A39AE7D344FD709F28E8600B4AA8C65C6B64BFE7FE36BD19D ADD SWAP1 PUSH2 0xCD3 SWAP1 DUP3 PUSH2 0x10F8 JUMP JUMPDEST POP PUSH1 0x60 DUP3 ADD MLOAD PUSH1 0x3 DUP3 ADD DUP1 SLOAD PUSH1 0xFF NOT AND SWAP2 ISZERO ISZERO SWAP2 SWAP1 SWAP2 OR SWAP1 SSTORE PUSH1 0x80 SWAP1 SWAP2 ADD MLOAD PUSH1 0x4 SWAP1 SWAP2 ADD SSTORE PUSH1 0x40 MLOAD PUSH1 0x1 PUSH1 0x1 PUSH1 0xA0 SHL SUB DUP6 AND SWAP1 DUP3 SWAP1 CALLER SWAP1 PUSH32 0x4CD0DB5AE67223334766462AAE67A7332E1FD08FAAF911CA846A11461D42C35A SWAP1 PUSH2 0xD39 SWAP1 DUP9 SWAP1 DUP9 SWAP1 PUSH2 0x11B8 JUMP JUMPDEST PUSH1 0x40 MLOAD DUP1 SWAP2 SUB SWAP1 LOG4 POP POP POP POP JUMP JUMPDEST PUSH1 0x0 PUSH1 0x20 DUP3 DUP5 SUB SLT ISZERO PUSH2 0xD59 JUMPI PUSH1 0x0 DUP1 REVERT JUMPDEST POP CALLDATALOAD SWAP2 SWAP1 POP JUMP JUMPDEST DUP1 CALLDATALOAD PUSH1 0x1 PUSH1 0x1 PUSH1 0xA0 SHL SUB DUP2 AND DUP2 EQ PUSH2 0xD77 JUMPI PUSH1 0x0 DUP1 REVERT JUMPDEST SWAP2 SWAP1 POP JUMP JUMPDEST PUSH1 0x0 PUSH1 0x20 DUP3 DUP5 SUB SLT ISZERO PUSH2 0xD8E JUMPI PUSH1 0x0 DUP1 REVERT JUMPDEST PUSH2 0xD97 DUP3 PUSH2 0xD60 JUMP JUMPDEST SWAP4 SWAP3 POP POP POP JUMP JUMPDEST PUSH1 0x0 DUP2 MLOAD DUP1 DUP5 MSTORE PUSH1 0x0 JUMPDEST DUP2 DUP2 LT ISZERO PUSH2 0xDC4 JUMPI PUSH1 0x20 DUP2 DUP6 ADD DUP2 ADD MLOAD DUP7 DUP4 ADD DUP3 ADD MSTORE ADD PUSH2 0xDA8 JUMP JUMPDEST POP PUSH1 0x0 PUSH1 0x20 DUP3 DUP7 ADD ADD MSTORE PUSH1 0x20 PUSH1 0x1F NOT PUSH1 0x1F DUP4 ADD AND DUP6 ADD ADD SWAP2 POP POP SWAP3 SWAP2 POP POP JUMP JUMPDEST PUSH1 0x1 PUSH1 0x1 PUSH1 0xA0 SHL SUB DUP7 AND DUP2 MSTORE DUP5 PUSH1 0x20 DUP3 ADD MSTORE PUSH1 0xA0 PUSH1 0x40 DUP3 ADD MSTORE PUSH1 0x0 PUSH2 0xE0C PUSH1 0xA0 DUP4 ADD DUP7 PUSH2 0xD9E JUMP JUMPDEST SWAP4 ISZERO ISZERO PUSH1 0x60 DUP4 ADD MSTORE POP PUSH1 0x80 ADD MSTORE SWAP4 SWAP3 POP POP POP JUMP JUMPDEST PUSH1 0x0 DUP1 PUSH1 0x40 DUP4 DUP6 SUB SLT ISZERO PUSH2 0xE33 JUMPI PUSH1 0x0 DUP1 REVERT JUMPDEST DUP3 CALLDATALOAD SWAP2 POP PUSH2 0xE43 PUSH1 0x20 DUP5 ADD PUSH2 0xD60 JUMP JUMPDEST SWAP1 POP SWAP3 POP SWAP3 SWAP1 POP JUMP JUMPDEST PUSH1 0x20 DUP1 DUP3 MSTORE DUP3 MLOAD DUP3 DUP3 ADD DUP2 SWAP1 MSTORE PUSH1 0x0 SWAP2 SWAP1 DUP5 DUP3 ADD SWAP1 PUSH1 0x40 DUP6 ADD SWAP1 DUP5 JUMPDEST DUP2 DUP2 LT ISZERO PUSH2 0xE8D JUMPI DUP4 MLOAD PUSH1 0x1 PUSH1 0x1 PUSH1 0xA0 SHL SUB AND DUP4 MSTORE SWAP3 DUP5 ADD SWAP3 SWAP2 DUP5 ADD SWAP2 PUSH1 0x1 ADD PUSH2 0xE68 JUMP JUMPDEST POP SWAP1 SWAP7 SWAP6 POP POP POP POP POP POP JUMP JUMPDEST PUSH4 0x4E487B71 PUSH1 0xE0 SHL PUSH1 0x0 MSTORE PUSH1 0x41 PUSH1 0x4 MSTORE PUSH1 0x24 PUSH1 0x0 REVERT JUMPDEST PUSH1 0x0 DUP1 PUSH1 0x0 PUSH1 0x60 DUP5 DUP7 SUB SLT ISZERO PUSH2 0xEC4 JUMPI PUSH1 0x0 DUP1 REVERT JUMPDEST PUSH2 0xECD DUP5 PUSH2 0xD60 JUMP JUMPDEST SWAP3 POP PUSH1 0x20 DUP5 ADD CALLDATALOAD SWAP2 POP PUSH1 0x40 DUP5 ADD CALLDATALOAD PUSH8 0xFFFFFFFFFFFFFFFF DUP1 DUP3 GT ISZERO PUSH2 0xEF1 JUMPI PUSH1 0x0 DUP1 REVERT JUMPDEST DUP2 DUP7 ADD SWAP2 POP DUP7 PUSH1 0x1F DUP4 ADD SLT PUSH2 0xF05 JUMPI PUSH1 0x0 DUP1 REVERT JUMPDEST DUP2 CALLDATALOAD DUP2 DUP2 GT ISZERO PUSH2 0xF17 JUMPI PUSH2 0xF17 PUSH2 0xE99 JUMP JUMPDEST PUSH1 0x40 MLOAD PUSH1 0x1F DUP3 ADD PUSH1 0x1F NOT SWAP1 DUP2 AND PUSH1 0x3F ADD AND DUP2 ADD SWAP1 DUP4 DUP3 GT DUP2 DUP4 LT OR ISZERO PUSH2 0xF3F JUMPI PUSH2 0xF3F PUSH2 0xE99 JUMP JUMPDEST DUP2 PUSH1 0x40 MSTORE DUP3 DUP2 MSTORE DUP10 PUSH1 0x20 DUP5 DUP8 ADD ADD GT ISZERO PUSH2 0xF58 JUMPI PUSH1 0x0 DUP1 REVERT JUMPDEST DUP3 PUSH1 0x20 DUP7 ADD PUSH1 0x20 DUP4 ADD CALLDATACOPY PUSH1 0x0 PUSH1 0x20 DUP5 DUP4 ADD ADD MSTORE DUP1 SWAP6 POP POP POP POP POP POP SWAP3 POP SWAP3 POP SWAP3 JUMP JUMPDEST PUSH1 0x20 DUP1 DUP3 MSTORE PUSH1 0xD SWAP1 DUP3 ADD MSTORE PUSH13 0x2737BA103A34329037BBB732B9 PUSH1 0x99 SHL PUSH1 0x40 DUP3 ADD MSTORE PUSH1 0x60 ADD SWAP1 JUMP JUMPDEST PUSH4 0x4E487B71 PUSH1 0xE0 SHL PUSH1 0x0 MSTORE PUSH1 0x32 PUSH1 0x4 MSTORE PUSH1 0x24 PUSH1 0x0 REVERT JUMPDEST PUSH4 0x4E487B71 PUSH1 0xE0 SHL PUSH1 0x0 MSTORE PUSH1 0x11 PUSH1 0x4 MSTORE PUSH1 0x24 PUSH1 0x0 REVERT JUMPDEST DUP2 DUP2 SUB DUP2 DUP2 GT ISZERO PUSH2 0xFE0 JUMPI PUSH2 0xFE0 PUSH2 0xFB7 JUMP JUMPDEST SWAP3 SWAP2 POP POP JUMP JUMPDEST PUSH1 0x1 DUP2 DUP2 SHR SWAP1 DUP3 AND DUP1 PUSH2 0xFFA JUMPI PUSH1 0x7F DUP3 AND SWAP2 POP JUMPDEST PUSH1 0x20 DUP3 LT DUP2 SUB PUSH2 0x101A JUMPI PUSH4 0x4E487B71 PUSH1 0xE0 SHL PUSH1 0x0 MSTORE PUSH1 0x22 PUSH1 0x4 MSTORE PUSH1 0x24 PUSH1 0x0 REVERT JUMPDEST POP SWAP2 SWAP1 POP JUMP JUMPDEST PUSH1 0x0 DUP1 DUP4 SLOAD PUSH2 0x102E DUP2 PUSH2 0xFE6 JUMP JUMPDEST PUSH1 0x1 DUP3 DUP2 AND DUP1 ISZERO PUSH2 0x1046 JUMPI PUSH1 0x1 DUP2 EQ PUSH2 0x105B JUMPI PUSH2 0x108A JUMP JUMPDEST PUSH1 0xFF NOT DUP5 AND DUP8 MSTORE DUP3 ISZERO ISZERO DUP4 MUL DUP8 ADD SWAP5 POP PUSH2 0x108A JUMP JUMPDEST DUP8 PUSH1 0x0 MSTORE PUSH1 0x20 DUP1 PUSH1 0x0 KECCAK256 PUSH1 0x0 JUMPDEST DUP6 DUP2 LT ISZERO PUSH2 0x1081 JUMPI DUP2 SLOAD DUP11 DUP3 ADD MSTORE SWAP1 DUP5 ADD SWAP1 DUP3 ADD PUSH2 0x1068 JUMP JUMPDEST POP POP POP DUP3 DUP8 ADD SWAP5 POP JUMPDEST POP SWAP3 SWAP7 SWAP6 POP POP POP POP POP POP JUMP JUMPDEST DUP1 DUP3 ADD DUP1 DUP3 GT ISZERO PUSH2 0xFE0 JUMPI PUSH2 0xFE0 PUSH2 0xFB7 JUMP JUMPDEST PUSH1 0x1F DUP3 GT ISZERO PUSH2 0x10F3 JUMPI PUSH1 0x0 DUP2 DUP2 MSTORE PUSH1 0x20 DUP2 KECCAK256 PUSH1 0x1F DUP6 ADD PUSH1 0x5 SHR DUP2 ADD PUSH1 0x20 DUP7 LT ISZERO PUSH2 0x10D0 JUMPI POP DUP1 JUMPDEST PUSH1 0x1F DUP6 ADD PUSH1 0x5 SHR DUP3 ADD SWAP2 POP JUMPDEST DUP2 DUP2 LT ISZERO PUSH2 0x10EF JUMPI DUP3 DUP2 SSTORE PUSH1 0x1 ADD PUSH2 0x10DC JUMP JUMPDEST POP POP POP JUMPDEST POP POP POP JUMP JUMPDEST DUP2 MLOAD PUSH8 0xFFFFFFFFFFFFFFFF DUP2 GT ISZERO PUSH2 0x1112 JUMPI PUSH2 0x1112 PUSH2 0xE99 JUMP JUMPDEST PUSH2 0x1126 DUP2 PUSH2 0x1120 DUP5 SLOAD PUSH2 0xFE6 JUMP JUMPDEST DUP5 PUSH2 0x10A9 JUMP JUMPDEST PUSH1 0x20 DUP1 PUSH1 0x1F DUP4 GT PUSH1 0x1 DUP2 EQ PUSH2 0x115B JUMPI PUSH1 0x0 DUP5 ISZERO PUSH2 0x1143 JUMPI POP DUP6 DUP4 ADD MLOAD JUMPDEST PUSH1 0x0 NOT PUSH1 0x3 DUP7 SWAP1 SHL SHR NOT AND PUSH1 0x1 DUP6 SWAP1 SHL OR DUP6 SSTORE PUSH2 0x10EF JUMP JUMPDEST PUSH1 0x0 DUP6 DUP2 MSTORE PUSH1 0x20 DUP2 KECCAK256 PUSH1 0x1F NOT DUP7 AND SWAP2 JUMPDEST DUP3 DUP2 LT ISZERO PUSH2 0x118A JUMPI DUP9 DUP7 ADD MLOAD DUP3 SSTORE SWAP5 DUP5 ADD SWAP5 PUSH1 0x1 SWAP1 SWAP2 ADD SWAP1 DUP5 ADD PUSH2 0x116B JUMP JUMPDEST POP DUP6 DUP3 LT ISZERO PUSH2 0x11A8 JUMPI DUP8 DUP6 ADD MLOAD PUSH1 0x0 NOT PUSH1 0x3 DUP9 SWAP1 SHL PUSH1 0xF8 AND SHR NOT AND DUP2 SSTORE JUMPDEST POP POP POP POP POP PUSH1 0x1 SWAP1 DUP2 SHL ADD SWAP1 SSTORE POP JUMP JUMPDEST DUP3 DUP2 MSTORE PUSH1 0x40 PUSH1 0x20 DUP3 ADD MSTORE PUSH1 0x0 PUSH2 0x11D1 PUSH1 0x40 DUP4 ADD DUP5 PUSH2 0xD9E JUMP JUMPDEST SWAP5 SWAP4 POP POP POP POP JUMP INVALID LOG2 PUSH5 0x6970667358 0x22 SLT KECCAK256 0xE7 0xF9 0xDA 0x4D 0x2D SWAP6 DIV 0xE4 0xEB PUSH23 0x7D6C4664AB438D738ED8AB88A70AE3B8770DF80D6D5A64 PUSH20 0x6F6C634300081100330000000000000000000000 "
				},
				"gasEstimates": {
					"creation": {
						"codeDepositCost": "924600",
						"executionCost": "infinite",
						"totalCost": "infinite"
					},
					"external": {
						"confirmTransaction(uint256)": "63586",
						"depositEth()": "infinite",
						"excecuteTransaction(uint256)": "infinite",
						"getOwners()": "infinite",
						"getTransaction(uint256)": "infinite",
						"getTransactionCount()": "2348",
						"isConfirmed(uint256,address)": "2674",
						"isOwner(address)": "2620",
						"numConfirmationsRequired()": "2383",
						"owners(uint256)": "4604",
						"revokeConfirmation(uint256)": "63554",
						"submitTransaction(address,uint256,bytes)": "infinite",
						"transactions(uint256)": "infinite"
					}
				},
				"methodIdentifiers": {
					"confirmTransaction(uint256)": "c01a8c84",
					"depositEth()": "439370b1",
					"excecuteTransaction(uint256)": "2460af8d",
					"getOwners()": "a0e67e2b",
					"getTransaction(uint256)": "33ea3dc8",
					"getTransactionCount()": "2e7700f0",
					"isConfirmed(uint256,address)": "80f59a65",
					"isOwner(address)": "2f54bf6e",
					"numConfirmationsRequired()": "d0549b85",
					"owners(uint256)": "025e7c27",
					"revokeConfirmation(uint256)": "20ea8d86",
					"submitTransaction(address,uint256,bytes)": "c6427474",
					"transactions(uint256)": "9ace38c2"
				}
			},
			"storageLayout": {
				"storage": [
					{
						"astId": 42,
						"contract": "class/multisignature_wallet.sol:MultiSignWallet",
						"label": "owners",
						"offset": 0,
						"slot": "0",
						"type": "t_array(t_address)dyn_storage"
					},
					{
						"astId": 46,
						"contract": "class/multisignature_wallet.sol:MultiSignWallet",
						"label": "isOwner",
						"offset": 0,
						"slot": "1",
						"type": "t_mapping(t_address,t_bool)"
					},
					{
						"astId": 48,
						"contract": "class/multisignature_wallet.sol:MultiSignWallet",
						"label": "numConfirmationsRequired",
						"offset": 0,
						"slot": "2",
						"type": "t_uint256"
					},
					{
						"astId": 65,
						"contract": "class/multisignature_wallet.sol:MultiSignWallet",
						"label": "isConfirmed",
						"offset": 0,
						"slot": "3",
						"type": "t_mapping(t_uint256,t_mapping(t_address,t_bool))"
					},
					{
						"astId": 69,
						"contract": "class/multisignature_wallet.sol:MultiSignWallet",
						"label": "transactions",
						"offset": 0,
						"slot": "4",
						"type": "t_array(t_struct(Transaction)59_storage)dyn_storage"
					}
				],
				"types": {
					"t_address": {
						"encoding": "inplace",
						"label": "address",
						"numberOfBytes": "20"
					},
					"t_array(t_address)dyn_storage": {
						"base": "t_address",
						"encoding": "dynamic_array",
						"label": "address[]",
						"numberOfBytes": "32"
					},
					"t_array(t_struct(Transaction)59_storage)dyn_storage": {
						"base": "t_struct(Transaction)59_storage",
						"encoding": "dynamic_array",
						"label": "struct MultiSignWallet.Transaction[]",
						"numberOfBytes": "32"
					},
					"t_bool": {
						"encoding": "inplace",
						"label": "bool",
						"numberOfBytes": "1"
					},
					"t_bytes_storage": {
						"encoding": "bytes",
						"label": "bytes",
						"numberOfBytes": "32"
					},
					"t_mapping(t_address,t_bool)": {
						"encoding": "mapping",
						"key": "t_address",
						"label": "mapping(address => bool)",
						"numberOfBytes": "32",
						"value": "t_bool"
					},
					"t_mapping(t_uint256,t_mapping(t_address,t_bool))": {
						"encoding": "mapping",
						"key": "t_uint256",
						"label": "mapping(uint256 => mapping(address => bool))",
						"numberOfBytes": "32",
						"value": "t_mapping(t_address,t_bool)"
					},
					"t_struct(Transaction)59_storage": {
						"encoding": "inplace",
						"label": "struct MultiSignWallet.Transaction",
						"members": [
							{
								"astId": 50,
								"contract": "class/multisignature_wallet.sol:MultiSignWallet",
								"label": "to",
								"offset": 0,
								"slot": "0",
								"type": "t_address"
							},
							{
								"astId": 52,
								"contract": "class/multisignature_wallet.sol:MultiSignWallet",
								"label": "value",
								"offset": 0,
								"slot": "1",
								"type": "t_uint256"
							},
							{
								"astId": 54,
								"contract": "class/multisignature_wallet.sol:MultiSignWallet",
								"label": "data",
								"offset": 0,
								"slot": "2",
								"type": "t_bytes_storage"
							},
							{
								"astId": 56,
								"contract": "class/multisignature_wallet.sol:MultiSignWallet",
								"label": "executed",
								"offset": 0,
								"slot": "3",
								"type": "t_bool"
							},
							{
								"astId": 58,
								"contract": "class/multisignature_wallet.sol:MultiSignWallet",
								"label": "numConfirmations",
								"offset": 0,
								"slot": "4",
								"type": "t_uint256"
							}
						],
						"numberOfBytes": "160"
					},
					"t_uint256": {
						"encoding": "inplace",
						"label": "uint256",
						"numberOfBytes": "32"
					}
				}
			},
			"userdoc": {
				"kind": "user",
				"methods": {},
				"version": 1
			}
		}
	}
}