{
	"class/view_pure_demo.sol": {
		"ViewPure": {
			"abi": [
				{
					"inputs": [
						{
							"internalType": "uint256",
							"name": "num2",
							"type": "uint256"
						}
					],
					"name": "addNumber",
					"outputs": [
						{
							"internalType": "uint256",
							"name": "",
							"type": "uint256"
						}
					],
					"stateMutability": "view",
					"type": "function"
				},
				{
					"inputs": [
						{
							"internalType": "uint256",
							"name": "i",
							"type": "uint256"
						},
						{
							"internalType": "uint256",
							"name": "j",
							"type": "uint256"
						}
					],
					"name": "addNumber2",
					"outputs": [
						{
							"internalType": "uint256",
							"name": "",
							"type": "uint256"
						}
					],
					"stateMutability": "pure",
					"type": "function"
				}
			],
			"devdoc": {
				"kind": "dev",
				"methods": {},
				"version": 1
			},
			"evm": {
				"assembly": "    /* \"class/view_pure_demo.sol\":59:518  contract ViewPure{\r... */\n  mstore(0x40, 0x80)\n    /* \"class/view_pure_demo.sol\":236:237  1 */\n  0x01\n    /* \"class/view_pure_demo.sol\":225:237  uint num = 1 */\n  0x00\n  sstore\n    /* \"class/view_pure_demo.sol\":59:518  contract ViewPure{\r... */\n  callvalue\n  dup1\n  iszero\n  tag_1\n  jumpi\n  0x00\n  dup1\n  revert\ntag_1:\n  pop\n  dataSize(sub_0)\n  dup1\n  dataOffset(sub_0)\n  0x00\n  codecopy\n  0x00\n  return\nstop\n\nsub_0: assembly {\n        /* \"class/view_pure_demo.sol\":59:518  contract ViewPure{\r... */\n      mstore(0x40, 0x80)\n      callvalue\n      dup1\n      iszero\n      tag_1\n      jumpi\n      0x00\n      dup1\n      revert\n    tag_1:\n      pop\n      jumpi(tag_2, lt(calldatasize, 0x04))\n      shr(0xe0, calldataload(0x00))\n      dup1\n      0x5e48aafd\n      eq\n      tag_3\n      jumpi\n      dup1\n      0xfce68023\n      eq\n      tag_4\n      jumpi\n    tag_2:\n      0x00\n      dup1\n      revert\n        /* \"class/view_pure_demo.sol\":414:507  function addNumber2(uint i, uint j) public pure returns(uint) {\r... */\n    tag_3:\n      tag_5\n      tag_6\n      calldatasize\n      0x04\n      tag_7\n      jump\t// in\n    tag_6:\n      tag_8\n      jump\t// in\n    tag_5:\n      mload(0x40)\n        /* \"#utility.yul\":598:623   */\n      swap1\n      dup2\n      mstore\n        /* \"#utility.yul\":586:588   */\n      0x20\n        /* \"#utility.yul\":571:589   */\n      add\n        /* \"class/view_pure_demo.sol\":414:507  function addNumber2(uint i, uint j) public pure returns(uint) {\r... */\n      mload(0x40)\n      dup1\n      swap2\n      sub\n      swap1\n      return\n        /* \"class/view_pure_demo.sol\":258:348  function addNumber(uint num2) public view returns(uint) {\r... */\n    tag_4:\n      tag_5\n      tag_12\n      calldatasize\n      0x04\n      tag_13\n      jump\t// in\n    tag_12:\n      tag_14\n      jump\t// in\n        /* \"class/view_pure_demo.sol\":414:507  function addNumber2(uint i, uint j) public pure returns(uint) {\r... */\n    tag_8:\n        /* \"class/view_pure_demo.sol\":470:474  uint */\n      0x00\n        /* \"class/view_pure_demo.sol\":494:499  i + j */\n      tag_17\n        /* \"class/view_pure_demo.sol\":498:499  j */\n      dup3\n        /* \"class/view_pure_demo.sol\":494:495  i */\n      dup5\n        /* \"class/view_pure_demo.sol\":494:499  i + j */\n      tag_18\n      jump\t// in\n    tag_17:\n        /* \"class/view_pure_demo.sol\":487:499  return i + j */\n      swap4\n        /* \"class/view_pure_demo.sol\":414:507  function addNumber2(uint i, uint j) public pure returns(uint) {\r... */\n      swap3\n      pop\n      pop\n      pop\n      jump\t// out\n        /* \"class/view_pure_demo.sol\":258:348  function addNumber(uint num2) public view returns(uint) {\r... */\n    tag_14:\n        /* \"class/view_pure_demo.sol\":308:312  uint */\n      0x00\n        /* \"class/view_pure_demo.sol\":336:340  num2 */\n      dup2\n        /* \"class/view_pure_demo.sol\":332:335  num */\n      sload(0x00)\n        /* \"class/view_pure_demo.sol\":332:340  num+num2 */\n      tag_20\n      swap2\n      swap1\n      tag_18\n      jump\t// in\n    tag_20:\n        /* \"class/view_pure_demo.sol\":325:340  return num+num2 */\n      swap3\n        /* \"class/view_pure_demo.sol\":258:348  function addNumber(uint num2) public view returns(uint) {\r... */\n      swap2\n      pop\n      pop\n      jump\t// out\n        /* \"#utility.yul\":14:194   */\n    tag_13:\n        /* \"#utility.yul\":73:79   */\n      0x00\n        /* \"#utility.yul\":126:128   */\n      0x20\n        /* \"#utility.yul\":114:123   */\n      dup3\n        /* \"#utility.yul\":105:112   */\n      dup5\n        /* \"#utility.yul\":101:124   */\n      sub\n        /* \"#utility.yul\":97:129   */\n      slt\n        /* \"#utility.yul\":94:146   */\n      iszero\n      tag_23\n      jumpi\n        /* \"#utility.yul\":142:143   */\n      0x00\n        /* \"#utility.yul\":139:140   */\n      dup1\n        /* \"#utility.yul\":132:144   */\n      revert\n        /* \"#utility.yul\":94:146   */\n    tag_23:\n      pop\n        /* \"#utility.yul\":165:188   */\n      calldataload\n      swap2\n        /* \"#utility.yul\":14:194   */\n      swap1\n      pop\n      jump\t// out\n        /* \"#utility.yul\":199:447   */\n    tag_7:\n        /* \"#utility.yul\":267:273   */\n      0x00\n        /* \"#utility.yul\":275:281   */\n      dup1\n        /* \"#utility.yul\":328:330   */\n      0x40\n        /* \"#utility.yul\":316:325   */\n      dup4\n        /* \"#utility.yul\":307:314   */\n      dup6\n        /* \"#utility.yul\":303:326   */\n      sub\n        /* \"#utility.yul\":299:331   */\n      slt\n        /* \"#utility.yul\":296:348   */\n      iszero\n      tag_25\n      jumpi\n        /* \"#utility.yul\":344:345   */\n      0x00\n        /* \"#utility.yul\":341:342   */\n      dup1\n        /* \"#utility.yul\":334:346   */\n      revert\n        /* \"#utility.yul\":296:348   */\n    tag_25:\n      pop\n      pop\n        /* \"#utility.yul\":367:390   */\n      dup1\n      calldataload\n      swap3\n        /* \"#utility.yul\":437:439   */\n      0x20\n        /* \"#utility.yul\":422:440   */\n      swap1\n      swap2\n      add\n        /* \"#utility.yul\":409:441   */\n      calldataload\n      swap2\n      pop\n        /* \"#utility.yul\":199:447   */\n      jump\t// out\n        /* \"#utility.yul\":634:859   */\n    tag_18:\n        /* \"#utility.yul\":674:677   */\n      0x00\n        /* \"#utility.yul\":705:706   */\n      dup3\n        /* \"#utility.yul\":701:707   */\n      not\n        /* \"#utility.yul\":698:699   */\n      dup3\n        /* \"#utility.yul\":695:708   */\n      gt\n        /* \"#utility.yul\":692:828   */\n      iszero\n      tag_28\n      jumpi\n        /* \"#utility.yul\":750:760   */\n      0x4e487b71\n        /* \"#utility.yul\":745:748   */\n      0xe0\n        /* \"#utility.yul\":741:761   */\n      shl\n        /* \"#utility.yul\":738:739   */\n      0x00\n        /* \"#utility.yul\":731:762   */\n      mstore\n        /* \"#utility.yul\":785:789   */\n      0x11\n        /* \"#utility.yul\":782:783   */\n      0x04\n        /* \"#utility.yul\":775:790   */\n      mstore\n        /* \"#utility.yul\":813:817   */\n      0x24\n        /* \"#utility.yul\":810:811   */\n      0x00\n        /* \"#utility.yul\":803:818   */\n      revert\n        /* \"#utility.yul\":692:828   */\n    tag_28:\n      pop\n        /* \"#utility.yul\":844:853   */\n      add\n      swap1\n        /* \"#utility.yul\":634:859   */\n      jump\t// out\n\n    auxdata: 0xa2646970667358221220cb9e341c9ac68885ef1e118ffd9f2617c0e5049d9f77894cfdcd6e0cfd5e8c0064736f6c63430008070033\n}\n",
				"bytecode": {
					"linkReferences": {},
					"object": "6080604052600160005534801561001557600080fd5b50610120806100256000396000f3fe6080604052348015600f57600080fd5b506004361060325760003560e01c80635e48aafd146037578063fce68023146058575b600080fd5b6046604236600460a4565b6067565b60405190815260200160405180910390f35b60466063366004608c565b6078565b60006071828460c5565b9392505050565b6000816000546086919060c5565b92915050565b600060208284031215609d57600080fd5b5035919050565b6000806040838503121560b657600080fd5b50508035926020909101359150565b6000821982111560e557634e487b7160e01b600052601160045260246000fd5b50019056fea2646970667358221220cb9e341c9ac68885ef1e118ffd9f2617c0e5049d9f77894cfdcd6e0cfd5e8c0064736f6c63430008070033",
					"opcodes": "PUSH1 0x80 PUSH1 0x40 MSTORE PUSH1 0x1 PUSH1 0x0 SSTORE CALLVALUE DUP1 ISZERO PUSH2 0x15 JUMPI PUSH1 0x0 DUP1 REVERT JUMPDEST POP PUSH2 0x120 DUP1 PUSH2 0x25 PUSH1 0x0 CODECOPY PUSH1 0x0 RETURN INVALID PUSH1 0x80 PUSH1 0x40 MSTORE CALLVALUE DUP1 ISZERO PUSH1 0xF JUMPI PUSH1 0x0 DUP1 REVERT JUMPDEST POP PUSH1 0x4 CALLDATASIZE LT PUSH1 0x32 JUMPI PUSH1 0x0 CALLDATALOAD PUSH1 0xE0 SHR DUP1 PUSH4 0x5E48AAFD EQ PUSH1 0x37 JUMPI DUP1 PUSH4 0xFCE68023 EQ PUSH1 0x58 JUMPI JUMPDEST PUSH1 0x0 DUP1 REVERT JUMPDEST PUSH1 0x46 PUSH1 0x42 CALLDATASIZE PUSH1 0x4 PUSH1 0xA4 JUMP JUMPDEST PUSH1 0x67 JUMP JUMPDEST PUSH1 0x40 MLOAD SWAP1 DUP2 MSTORE PUSH1 0x20 ADD PUSH1 0x40 MLOAD DUP1 SWAP2 SUB SWAP1 RETURN JUMPDEST PUSH1 0x46 PUSH1 0x63 CALLDATASIZE PUSH1 0x4 PUSH1 0x8C JUMP JUMPDEST PUSH1 0x78 JUMP JUMPDEST PUSH1 0x0 PUSH1 0x71 DUP3 DUP5 PUSH1 0xC5 JUMP JUMPDEST SWAP4 SWAP3 POP POP POP JUMP JUMPDEST PUSH1 0x0 DUP2 PUSH1 0x0 SLOAD PUSH1 0x86 SWAP2 SWAP1 PUSH1 0xC5 JUMP JUMPDEST SWAP3 SWAP2 POP POP JUMP JUMPDEST PUSH1 0x0 PUSH1 0x20 DUP3 DUP5 SUB SLT ISZERO PUSH1 0x9D JUMPI PUSH1 0x0 DUP1 REVERT JUMPDEST POP CALLDATALOAD SWAP2 SWAP1 POP JUMP JUMPDEST PUSH1 0x0 DUP1 PUSH1 0x40 DUP4 DUP6 SUB SLT ISZERO PUSH1 0xB6 JUMPI PUSH1 0x0 DUP1 REVERT JUMPDEST POP POP DUP1 CALLDATALOAD SWAP3 PUSH1 0x20 SWAP1 SWAP2 ADD CALLDATALOAD SWAP2 POP JUMP JUMPDEST PUSH1 0x0 DUP3 NOT DUP3 GT ISZERO PUSH1 0xE5 JUMPI PUSH4 0x4E487B71 PUSH1 0xE0 SHL PUSH1 0x0 MSTORE PUSH1 0x11 PUSH1 0x4 MSTORE PUSH1 0x24 PUSH1 0x0 REVERT JUMPDEST POP ADD SWAP1 JUMP INVALID LOG2 PUSH5 0x6970667358 0x22 SLT KECCAK256 0xCB SWAP15 CALLVALUE SHR SWAP11 0xC6 DUP9 DUP6 0xEF 0x1E GT DUP16 REVERT SWAP16 0x26 OR 0xC0 0xE5 DIV SWAP14 SWAP16 PUSH24 0x894CFDCD6E0CFD5E8C0064736F6C63430008070033000000 "
				},
				"gasEstimates": {
					"creation": {
						"codeDepositCost": "57600",
						"executionCost": "22211",
						"totalCost": "79811"
					},
					"external": {
						"addNumber(uint256)": "2455",
						"addNumber2(uint256,uint256)": "352"
					}
				},
				"methodIdentifiers": {
					"addNumber(uint256)": "fce68023",
					"addNumber2(uint256,uint256)": "5e48aafd"
				}
			},
			"storageLayout": {
				"storage": [
					{
						"astId": 4,
						"contract": "class/view_pure_demo.sol:ViewPure",
						"label": "num",
						"offset": 0,
						"slot": "0",
						"type": "t_uint256"
					}
				],
				"types": {
					"t_uint256": {
						"encoding": "inplace",
						"label": "uint256",
						"numberOfBytes": "32"
					}
				}
			},
			"userdoc": {
				"kind": "user",
				"methods": {},
				"version": 1
			}
		}
	}
}