{
	"Defi-project/V2_updated_27_02/AddressToTokenMap.sol": {
		"AddressToTokenMap": {
			"abi": [
				{
					"anonymous": false,
					"inputs": [
						{
							"indexed": true,
							"internalType": "address",
							"name": "previousOwner",
							"type": "address"
						},
						{
							"indexed": true,
							"internalType": "address",
							"name": "newOwner",
							"type": "address"
						}
					],
					"name": "OwnershipTransferred",
					"type": "event"
				},
				{
					"inputs": [
						{
							"internalType": "address",
							"name": "_key",
							"type": "address"
						},
						{
							"internalType": "string",
							"name": "_value",
							"type": "string"
						}
					],
					"name": "_setAddress",
					"outputs": [],
					"stateMutability": "nonpayable",
					"type": "function"
				},
				{
					"inputs": [
						{
							"internalType": "address",
							"name": "_tokenAddress",
							"type": "address"
						},
						{
							"internalType": "address",
							"name": "_pairAddress",
							"type": "address"
						}
					],
					"name": "_setPriceFeedMap",
					"outputs": [],
					"stateMutability": "nonpayable",
					"type": "function"
				},
				{
					"inputs": [
						{
							"internalType": "address",
							"name": "_key",
							"type": "address"
						}
					],
					"name": "getAddress",
					"outputs": [
						{
							"internalType": "string",
							"name": "",
							"type": "string"
						}
					],
					"stateMutability": "view",
					"type": "function"
				},
				{
					"inputs": [
						{
							"internalType": "address",
							"name": "_tokenAddress",
							"type": "address"
						}
					],
					"name": "getPriceFeedMap",
					"outputs": [
						{
							"internalType": "address",
							"name": "",
							"type": "address"
						}
					],
					"stateMutability": "view",
					"type": "function"
				},
				{
					"inputs": [],
					"name": "owner",
					"outputs": [
						{
							"internalType": "address",
							"name": "",
							"type": "address"
						}
					],
					"stateMutability": "view",
					"type": "function"
				},
				{
					"inputs": [],
					"name": "renounceOwnership",
					"outputs": [],
					"stateMutability": "nonpayable",
					"type": "function"
				},
				{
					"inputs": [
						{
							"internalType": "address",
							"name": "newOwner",
							"type": "address"
						}
					],
					"name": "transferOwnership",
					"outputs": [],
					"stateMutability": "nonpayable",
					"type": "function"
				}
			],
			"devdoc": {
				"kind": "dev",
				"methods": {
					"owner()": {
						"details": "Returns the address of the current owner."
					},
					"renounceOwnership()": {
						"details": "Leaves the contract without owner. It will not be possible to call `onlyOwner` functions anymore. Can only be called by the current owner. NOTE: Renouncing ownership will leave the contract without an owner, thereby removing any functionality that is only available to the owner."
					},
					"transferOwnership(address)": {
						"details": "Transfers ownership of the contract to a new account (`newOwner`). Can only be called by the current owner."
					}
				},
				"version": 1
			},
			"evm": {
				"assembly": "    /* \"Defi-project/V2_updated_27_02/AddressToTokenMap.sol\":116:855  contract AddressToTokenMap is Ownable {\r... */\n  mstore(0x40, 0x80)\n  callvalue\n  dup1\n  iszero\n  tag_1\n  jumpi\n  0x00\n  dup1\n  revert\ntag_1:\n  pop\n    /* \"@openzeppelin/contracts/access/Ownable.sol\":936:968  _transferOwnership(_msgSender()) */\n  tag_4\n    /* \"@openzeppelin/contracts/access/Ownable.sol\":955:967  _msgSender() */\n  tag_5\n    /* \"@openzeppelin/contracts/access/Ownable.sol\":955:965  _msgSender */\n  shl(0x20, tag_6)\n    /* \"@openzeppelin/contracts/access/Ownable.sol\":955:967  _msgSender() */\n  0x20\n  shr\n  jump\t// in\ntag_5:\n    /* \"@openzeppelin/contracts/access/Ownable.sol\":936:954  _transferOwnership */\n  shl(0x20, tag_7)\n    /* \"@openzeppelin/contracts/access/Ownable.sol\":936:968  _transferOwnership(_msgSender()) */\n  0x20\n  shr\n  jump\t// in\ntag_4:\n    /* \"Defi-project/V2_updated_27_02/AddressToTokenMap.sol\":116:855  contract AddressToTokenMap is Ownable {\r... */\n  jump(tag_8)\n    /* \"@openzeppelin/contracts/utils/Context.sol\":640:736  function _msgSender() internal view virtual returns (address) {... */\ntag_6:\n    /* \"@openzeppelin/contracts/utils/Context.sol\":693:700  address */\n  0x00\n    /* \"@openzeppelin/contracts/utils/Context.sol\":719:729  msg.sender */\n  caller\n    /* \"@openzeppelin/contracts/utils/Context.sol\":712:729  return msg.sender */\n  swap1\n  pop\n    /* \"@openzeppelin/contracts/utils/Context.sol\":640:736  function _msgSender() internal view virtual returns (address) {... */\n  swap1\n  jump\t// out\n    /* \"@openzeppelin/contracts/access/Ownable.sol\":2433:2620  function _transferOwnership(address newOwner) internal virtual {... */\ntag_7:\n    /* \"@openzeppelin/contracts/access/Ownable.sol\":2506:2522  address oldOwner */\n  0x00\n    /* \"@openzeppelin/contracts/access/Ownable.sol\":2525:2531  _owner */\n  dup1\n  0x00\n  swap1\n  sload\n  swap1\n  0x0100\n  exp\n  swap1\n  div\n  0xffffffffffffffffffffffffffffffffffffffff\n  and\n    /* \"@openzeppelin/contracts/access/Ownable.sol\":2506:2531  address oldOwner = _owner */\n  swap1\n  pop\n    /* \"@openzeppelin/contracts/access/Ownable.sol\":2550:2558  newOwner */\n  dup2\n    /* \"@openzeppelin/contracts/access/Ownable.sol\":2541:2547  _owner */\n  0x00\n  dup1\n    /* \"@openzeppelin/contracts/access/Ownable.sol\":2541:2558  _owner = newOwner */\n  0x0100\n  exp\n  dup2\n  sload\n  dup2\n  0xffffffffffffffffffffffffffffffffffffffff\n  mul\n  not\n  and\n  swap1\n  dup4\n  0xffffffffffffffffffffffffffffffffffffffff\n  and\n  mul\n  or\n  swap1\n  sstore\n  pop\n    /* \"@openzeppelin/contracts/access/Ownable.sol\":2604:2612  newOwner */\n  dup2\n    /* \"@openzeppelin/contracts/access/Ownable.sol\":2573:2613  OwnershipTransferred(oldOwner, newOwner) */\n  0xffffffffffffffffffffffffffffffffffffffff\n  and\n    /* \"@openzeppelin/contracts/access/Ownable.sol\":2594:2602  oldOwner */\n  dup2\n    /* \"@openzeppelin/contracts/access/Ownable.sol\":2573:2613  OwnershipTransferred(oldOwner, newOwner) */\n  0xffffffffffffffffffffffffffffffffffffffff\n  and\n  0x8be0079c531659141344cd1fd0a4f28419497f9722a3daafe3b4186f6b6457e0\n  mload(0x40)\n  mload(0x40)\n  dup1\n  swap2\n  sub\n  swap1\n  log3\n    /* \"@openzeppelin/contracts/access/Ownable.sol\":2496:2620  {... */\n  pop\n    /* \"@openzeppelin/contracts/access/Ownable.sol\":2433:2620  function _transferOwnership(address newOwner) internal virtual {... */\n  pop\n  jump\t// out\n    /* \"Defi-project/V2_updated_27_02/AddressToTokenMap.sol\":116:855  contract AddressToTokenMap is Ownable {\r... */\ntag_8:\n  dataSize(sub_0)\n  dup1\n  dataOffset(sub_0)\n  0x00\n  codecopy\n  0x00\n  return\nstop\n\nsub_0: assembly {\n        /* \"Defi-project/V2_updated_27_02/AddressToTokenMap.sol\":116:855  contract AddressToTokenMap is Ownable {\r... */\n      mstore(0x40, 0x80)\n      callvalue\n      dup1\n      iszero\n      tag_1\n      jumpi\n      0x00\n      dup1\n      revert\n    tag_1:\n      pop\n      jumpi(tag_2, lt(calldatasize, 0x04))\n      shr(0xe0, calldataload(0x00))\n      dup1\n      0x78c2cc51\n      gt\n      tag_10\n      jumpi\n      dup1\n      0x78c2cc51\n      eq\n      tag_6\n      jumpi\n      dup1\n      0x8da5cb5b\n      eq\n      tag_7\n      jumpi\n      dup1\n      0xae22c57d\n      eq\n      tag_8\n      jumpi\n      dup1\n      0xf2fde38b\n      eq\n      tag_9\n      jumpi\n      jump(tag_2)\n    tag_10:\n      dup1\n      0x281d6ea9\n      eq\n      tag_3\n      jumpi\n      dup1\n      0x38f6d543\n      eq\n      tag_4\n      jumpi\n      dup1\n      0x715018a6\n      eq\n      tag_5\n      jumpi\n    tag_2:\n      0x00\n      dup1\n      revert\n        /* \"Defi-project/V2_updated_27_02/AddressToTokenMap.sol\":572:697  function getPriceFeedMap(address _tokenAddress) public view returns(address) {\r... */\n    tag_3:\n      tag_11\n      0x04\n      dup1\n      calldatasize\n      sub\n      dup2\n      add\n      swap1\n      tag_12\n      swap2\n      swap1\n      tag_13\n      jump\t// in\n    tag_12:\n      tag_14\n      jump\t// in\n    tag_11:\n      mload(0x40)\n      tag_15\n      swap2\n      swap1\n      tag_16\n      jump\t// in\n    tag_15:\n      mload(0x40)\n      dup1\n      swap2\n      sub\n      swap1\n      return\n        /* \"Defi-project/V2_updated_27_02/AddressToTokenMap.sol\":448:565  function _setAddress(address _key, string memory _value) public onlyOwner {\r... */\n    tag_4:\n      tag_17\n      0x04\n      dup1\n      calldatasize\n      sub\n      dup2\n      add\n      swap1\n      tag_18\n      swap2\n      swap1\n      tag_19\n      jump\t// in\n    tag_18:\n      tag_20\n      jump\t// in\n    tag_17:\n      stop\n        /* \"@openzeppelin/contracts/access/Ownable.sol\":1831:1932  function renounceOwnership() public virtual onlyOwner {... */\n    tag_5:\n      tag_21\n      tag_22\n      jump\t// in\n    tag_21:\n      stop\n        /* \"Defi-project/V2_updated_27_02/AddressToTokenMap.sol\":704:852  function _setPriceFeedMap(address _tokenAddress, address _pairAddress) public onlyOwner {\r... */\n    tag_6:\n      tag_23\n      0x04\n      dup1\n      calldatasize\n      sub\n      dup2\n      add\n      swap1\n      tag_24\n      swap2\n      swap1\n      tag_25\n      jump\t// in\n    tag_24:\n      tag_26\n      jump\t// in\n    tag_23:\n      stop\n        /* \"@openzeppelin/contracts/access/Ownable.sol\":1201:1286  function owner() public view virtual returns (address) {... */\n    tag_7:\n      tag_27\n      tag_28\n      jump\t// in\n    tag_27:\n      mload(0x40)\n      tag_29\n      swap2\n      swap1\n      tag_16\n      jump\t// in\n    tag_29:\n      mload(0x40)\n      dup1\n      swap2\n      sub\n      swap1\n      return\n        /* \"Defi-project/V2_updated_27_02/AddressToTokenMap.sol\":329:440  function getAddress(address _key) public view returns (string memory) {\r... */\n    tag_8:\n      tag_30\n      0x04\n      dup1\n      calldatasize\n      sub\n      dup2\n      add\n      swap1\n      tag_31\n      swap2\n      swap1\n      tag_13\n      jump\t// in\n    tag_31:\n      tag_32\n      jump\t// in\n    tag_30:\n      mload(0x40)\n      tag_33\n      swap2\n      swap1\n      tag_34\n      jump\t// in\n    tag_33:\n      mload(0x40)\n      dup1\n      swap2\n      sub\n      swap1\n      return\n        /* \"@openzeppelin/contracts/access/Ownable.sol\":2081:2279  function transferOwnership(address newOwner) public virtual onlyOwner {... */\n    tag_9:\n      tag_35\n      0x04\n      dup1\n      calldatasize\n      sub\n      dup2\n      add\n      swap1\n      tag_36\n      swap2\n      swap1\n      tag_13\n      jump\t// in\n    tag_36:\n      tag_37\n      jump\t// in\n    tag_35:\n      stop\n        /* \"Defi-project/V2_updated_27_02/AddressToTokenMap.sol\":572:697  function getPriceFeedMap(address _tokenAddress) public view returns(address) {\r... */\n    tag_14:\n        /* \"Defi-project/V2_updated_27_02/AddressToTokenMap.sol\":640:647  address */\n      0x00\n        /* \"Defi-project/V2_updated_27_02/AddressToTokenMap.sol\":663:675  priceFeedMap */\n      0x02\n        /* \"Defi-project/V2_updated_27_02/AddressToTokenMap.sol\":663:690  priceFeedMap[_tokenAddress] */\n      0x00\n        /* \"Defi-project/V2_updated_27_02/AddressToTokenMap.sol\":676:689  _tokenAddress */\n      dup4\n        /* \"Defi-project/V2_updated_27_02/AddressToTokenMap.sol\":663:690  priceFeedMap[_tokenAddress] */\n      0xffffffffffffffffffffffffffffffffffffffff\n      and\n      0xffffffffffffffffffffffffffffffffffffffff\n      and\n      dup2\n      mstore\n      0x20\n      add\n      swap1\n      dup2\n      mstore\n      0x20\n      add\n      0x00\n      keccak256\n      0x00\n      swap1\n      sload\n      swap1\n      0x0100\n      exp\n      swap1\n      div\n      0xffffffffffffffffffffffffffffffffffffffff\n      and\n        /* \"Defi-project/V2_updated_27_02/AddressToTokenMap.sol\":656:690  return priceFeedMap[_tokenAddress] */\n      swap1\n      pop\n        /* \"Defi-project/V2_updated_27_02/AddressToTokenMap.sol\":572:697  function getPriceFeedMap(address _tokenAddress) public view returns(address) {\r... */\n      swap2\n      swap1\n      pop\n      jump\t// out\n        /* \"Defi-project/V2_updated_27_02/AddressToTokenMap.sol\":448:565  function _setAddress(address _key, string memory _value) public onlyOwner {\r... */\n    tag_20:\n        /* \"@openzeppelin/contracts/access/Ownable.sol\":1094:1107  _checkOwner() */\n      tag_40\n        /* \"@openzeppelin/contracts/access/Ownable.sol\":1094:1105  _checkOwner */\n      tag_41\n        /* \"@openzeppelin/contracts/access/Ownable.sol\":1094:1107  _checkOwner() */\n      jump\t// in\n    tag_40:\n        /* \"Defi-project/V2_updated_27_02/AddressToTokenMap.sol\":551:557  _value */\n      dup1\n        /* \"Defi-project/V2_updated_27_02/AddressToTokenMap.sol\":533:542  addresses */\n      0x01\n        /* \"Defi-project/V2_updated_27_02/AddressToTokenMap.sol\":533:548  addresses[_key] */\n      0x00\n        /* \"Defi-project/V2_updated_27_02/AddressToTokenMap.sol\":543:547  _key */\n      dup5\n        /* \"Defi-project/V2_updated_27_02/AddressToTokenMap.sol\":533:548  addresses[_key] */\n      0xffffffffffffffffffffffffffffffffffffffff\n      and\n      0xffffffffffffffffffffffffffffffffffffffff\n      and\n      dup2\n      mstore\n      0x20\n      add\n      swap1\n      dup2\n      mstore\n      0x20\n      add\n      0x00\n      keccak256\n        /* \"Defi-project/V2_updated_27_02/AddressToTokenMap.sol\":533:557  addresses[_key] = _value */\n      swap1\n      dup1\n      mload\n      swap1\n      0x20\n      add\n      swap1\n      tag_43\n      swap3\n      swap2\n      swap1\n      tag_44\n      jump\t// in\n    tag_43:\n      pop\n        /* \"Defi-project/V2_updated_27_02/AddressToTokenMap.sol\":448:565  function _setAddress(address _key, string memory _value) public onlyOwner {\r... */\n      pop\n      pop\n      jump\t// out\n        /* \"@openzeppelin/contracts/access/Ownable.sol\":1831:1932  function renounceOwnership() public virtual onlyOwner {... */\n    tag_22:\n        /* \"@openzeppelin/contracts/access/Ownable.sol\":1094:1107  _checkOwner() */\n      tag_46\n        /* \"@openzeppelin/contracts/access/Ownable.sol\":1094:1105  _checkOwner */\n      tag_41\n        /* \"@openzeppelin/contracts/access/Ownable.sol\":1094:1107  _checkOwner() */\n      jump\t// in\n    tag_46:\n        /* \"@openzeppelin/contracts/access/Ownable.sol\":1895:1925  _transferOwnership(address(0)) */\n      tag_48\n        /* \"@openzeppelin/contracts/access/Ownable.sol\":1922:1923  0 */\n      0x00\n        /* \"@openzeppelin/contracts/access/Ownable.sol\":1895:1913  _transferOwnership */\n      tag_49\n        /* \"@openzeppelin/contracts/access/Ownable.sol\":1895:1925  _transferOwnership(address(0)) */\n      jump\t// in\n    tag_48:\n        /* \"@openzeppelin/contracts/access/Ownable.sol\":1831:1932  function renounceOwnership() public virtual onlyOwner {... */\n      jump\t// out\n        /* \"Defi-project/V2_updated_27_02/AddressToTokenMap.sol\":704:852  function _setPriceFeedMap(address _tokenAddress, address _pairAddress) public onlyOwner {\r... */\n    tag_26:\n        /* \"@openzeppelin/contracts/access/Ownable.sol\":1094:1107  _checkOwner() */\n      tag_51\n        /* \"@openzeppelin/contracts/access/Ownable.sol\":1094:1105  _checkOwner */\n      tag_41\n        /* \"@openzeppelin/contracts/access/Ownable.sol\":1094:1107  _checkOwner() */\n      jump\t// in\n    tag_51:\n        /* \"Defi-project/V2_updated_27_02/AddressToTokenMap.sol\":833:845  _pairAddress */\n      dup1\n        /* \"Defi-project/V2_updated_27_02/AddressToTokenMap.sol\":803:815  priceFeedMap */\n      0x02\n        /* \"Defi-project/V2_updated_27_02/AddressToTokenMap.sol\":803:830  priceFeedMap[_tokenAddress] */\n      0x00\n        /* \"Defi-project/V2_updated_27_02/AddressToTokenMap.sol\":816:829  _tokenAddress */\n      dup5\n        /* \"Defi-project/V2_updated_27_02/AddressToTokenMap.sol\":803:830  priceFeedMap[_tokenAddress] */\n      0xffffffffffffffffffffffffffffffffffffffff\n      and\n      0xffffffffffffffffffffffffffffffffffffffff\n      and\n      dup2\n      mstore\n      0x20\n      add\n      swap1\n      dup2\n      mstore\n      0x20\n      add\n      0x00\n      keccak256\n      0x00\n        /* \"Defi-project/V2_updated_27_02/AddressToTokenMap.sol\":803:845  priceFeedMap[_tokenAddress] = _pairAddress */\n      0x0100\n      exp\n      dup2\n      sload\n      dup2\n      0xffffffffffffffffffffffffffffffffffffffff\n      mul\n      not\n      and\n      swap1\n      dup4\n      0xffffffffffffffffffffffffffffffffffffffff\n      and\n      mul\n      or\n      swap1\n      sstore\n      pop\n        /* \"Defi-project/V2_updated_27_02/AddressToTokenMap.sol\":704:852  function _setPriceFeedMap(address _tokenAddress, address _pairAddress) public onlyOwner {\r... */\n      pop\n      pop\n      jump\t// out\n        /* \"@openzeppelin/contracts/access/Ownable.sol\":1201:1286  function owner() public view virtual returns (address) {... */\n    tag_28:\n        /* \"@openzeppelin/contracts/access/Ownable.sol\":1247:1254  address */\n      0x00\n        /* \"@openzeppelin/contracts/access/Ownable.sol\":1273:1279  _owner */\n      dup1\n      0x00\n      swap1\n      sload\n      swap1\n      0x0100\n      exp\n      swap1\n      div\n      0xffffffffffffffffffffffffffffffffffffffff\n      and\n        /* \"@openzeppelin/contracts/access/Ownable.sol\":1266:1279  return _owner */\n      swap1\n      pop\n        /* \"@openzeppelin/contracts/access/Ownable.sol\":1201:1286  function owner() public view virtual returns (address) {... */\n      swap1\n      jump\t// out\n        /* \"Defi-project/V2_updated_27_02/AddressToTokenMap.sol\":329:440  function getAddress(address _key) public view returns (string memory) {\r... */\n    tag_32:\n        /* \"Defi-project/V2_updated_27_02/AddressToTokenMap.sol\":384:397  string memory */\n      0x60\n        /* \"Defi-project/V2_updated_27_02/AddressToTokenMap.sol\":417:426  addresses */\n      0x01\n        /* \"Defi-project/V2_updated_27_02/AddressToTokenMap.sol\":417:432  addresses[_key] */\n      0x00\n        /* \"Defi-project/V2_updated_27_02/AddressToTokenMap.sol\":427:431  _key */\n      dup4\n        /* \"Defi-project/V2_updated_27_02/AddressToTokenMap.sol\":417:432  addresses[_key] */\n      0xffffffffffffffffffffffffffffffffffffffff\n      and\n      0xffffffffffffffffffffffffffffffffffffffff\n      and\n      dup2\n      mstore\n      0x20\n      add\n      swap1\n      dup2\n      mstore\n      0x20\n      add\n      0x00\n      keccak256\n        /* \"Defi-project/V2_updated_27_02/AddressToTokenMap.sol\":410:432  return addresses[_key] */\n      dup1\n      sload\n      tag_55\n      swap1\n      tag_56\n      jump\t// in\n    tag_55:\n      dup1\n      0x1f\n      add\n      0x20\n      dup1\n      swap2\n      div\n      mul\n      0x20\n      add\n      mload(0x40)\n      swap1\n      dup2\n      add\n      0x40\n      mstore\n      dup1\n      swap3\n      swap2\n      swap1\n      dup2\n      dup2\n      mstore\n      0x20\n      add\n      dup3\n      dup1\n      sload\n      tag_57\n      swap1\n      tag_56\n      jump\t// in\n    tag_57:\n      dup1\n      iszero\n      tag_58\n      jumpi\n      dup1\n      0x1f\n      lt\n      tag_59\n      jumpi\n      0x0100\n      dup1\n      dup4\n      sload\n      div\n      mul\n      dup4\n      mstore\n      swap2\n      0x20\n      add\n      swap2\n      jump(tag_58)\n    tag_59:\n      dup3\n      add\n      swap2\n      swap1\n      0x00\n      mstore\n      keccak256(0x00, 0x20)\n      swap1\n    tag_60:\n      dup2\n      sload\n      dup2\n      mstore\n      swap1\n      0x01\n      add\n      swap1\n      0x20\n      add\n      dup1\n      dup4\n      gt\n      tag_60\n      jumpi\n      dup3\n      swap1\n      sub\n      0x1f\n      and\n      dup3\n      add\n      swap2\n    tag_58:\n      pop\n      pop\n      pop\n      pop\n      pop\n      swap1\n      pop\n        /* \"Defi-project/V2_updated_27_02/AddressToTokenMap.sol\":329:440  function getAddress(address _key) public view returns (string memory) {\r... */\n      swap2\n      swap1\n      pop\n      jump\t// out\n        /* \"@openzeppelin/contracts/access/Ownable.sol\":2081:2279  function transferOwnership(address newOwner) public virtual onlyOwner {... */\n    tag_37:\n        /* \"@openzeppelin/contracts/access/Ownable.sol\":1094:1107  _checkOwner() */\n      tag_62\n        /* \"@openzeppelin/contracts/access/Ownable.sol\":1094:1105  _checkOwner */\n      tag_41\n        /* \"@openzeppelin/contracts/access/Ownable.sol\":1094:1107  _checkOwner() */\n      jump\t// in\n    tag_62:\n        /* \"@openzeppelin/contracts/access/Ownable.sol\":2189:2190  0 */\n      0x00\n        /* \"@openzeppelin/contracts/access/Ownable.sol\":2169:2191  newOwner != address(0) */\n      0xffffffffffffffffffffffffffffffffffffffff\n      and\n        /* \"@openzeppelin/contracts/access/Ownable.sol\":2169:2177  newOwner */\n      dup2\n        /* \"@openzeppelin/contracts/access/Ownable.sol\":2169:2191  newOwner != address(0) */\n      0xffffffffffffffffffffffffffffffffffffffff\n      and\n      eq\n      iszero\n        /* \"@openzeppelin/contracts/access/Ownable.sol\":2161:2234  require(newOwner != address(0), \"Ownable: new owner is the zero address\") */\n      tag_64\n      jumpi\n      mload(0x40)\n      0x08c379a000000000000000000000000000000000000000000000000000000000\n      dup2\n      mstore\n      0x04\n      add\n      tag_65\n      swap1\n      tag_66\n      jump\t// in\n    tag_65:\n      mload(0x40)\n      dup1\n      swap2\n      sub\n      swap1\n      revert\n    tag_64:\n        /* \"@openzeppelin/contracts/access/Ownable.sol\":2244:2272  _transferOwnership(newOwner) */\n      tag_67\n        /* \"@openzeppelin/contracts/access/Ownable.sol\":2263:2271  newOwner */\n      dup2\n        /* \"@openzeppelin/contracts/access/Ownable.sol\":2244:2262  _transferOwnership */\n      tag_49\n        /* \"@openzeppelin/contracts/access/Ownable.sol\":2244:2272  _transferOwnership(newOwner) */\n      jump\t// in\n    tag_67:\n        /* \"@openzeppelin/contracts/access/Ownable.sol\":2081:2279  function transferOwnership(address newOwner) public virtual onlyOwner {... */\n      pop\n      jump\t// out\n        /* \"@openzeppelin/contracts/access/Ownable.sol\":1359:1489  function _checkOwner() internal view virtual {... */\n    tag_41:\n        /* \"@openzeppelin/contracts/access/Ownable.sol\":1433:1445  _msgSender() */\n      tag_69\n        /* \"@openzeppelin/contracts/access/Ownable.sol\":1433:1443  _msgSender */\n      tag_70\n        /* \"@openzeppelin/contracts/access/Ownable.sol\":1433:1445  _msgSender() */\n      jump\t// in\n    tag_69:\n        /* \"@openzeppelin/contracts/access/Ownable.sol\":1422:1445  owner() == _msgSender() */\n      0xffffffffffffffffffffffffffffffffffffffff\n      and\n        /* \"@openzeppelin/contracts/access/Ownable.sol\":1422:1429  owner() */\n      tag_71\n        /* \"@openzeppelin/contracts/access/Ownable.sol\":1422:1427  owner */\n      tag_28\n        /* \"@openzeppelin/contracts/access/Ownable.sol\":1422:1429  owner() */\n      jump\t// in\n    tag_71:\n        /* \"@openzeppelin/contracts/access/Ownable.sol\":1422:1445  owner() == _msgSender() */\n      0xffffffffffffffffffffffffffffffffffffffff\n      and\n      eq\n        /* \"@openzeppelin/contracts/access/Ownable.sol\":1414:1482  require(owner() == _msgSender(), \"Ownable: caller is not the owner\") */\n      tag_72\n      jumpi\n      mload(0x40)\n      0x08c379a000000000000000000000000000000000000000000000000000000000\n      dup2\n      mstore\n      0x04\n      add\n      tag_73\n      swap1\n      tag_74\n      jump\t// in\n    tag_73:\n      mload(0x40)\n      dup1\n      swap2\n      sub\n      swap1\n      revert\n    tag_72:\n        /* \"@openzeppelin/contracts/access/Ownable.sol\":1359:1489  function _checkOwner() internal view virtual {... */\n      jump\t// out\n        /* \"@openzeppelin/contracts/access/Ownable.sol\":2433:2620  function _transferOwnership(address newOwner) internal virtual {... */\n    tag_49:\n        /* \"@openzeppelin/contracts/access/Ownable.sol\":2506:2522  address oldOwner */\n      0x00\n        /* \"@openzeppelin/contracts/access/Ownable.sol\":2525:2531  _owner */\n      dup1\n      0x00\n      swap1\n      sload\n      swap1\n      0x0100\n      exp\n      swap1\n      div\n      0xffffffffffffffffffffffffffffffffffffffff\n      and\n        /* \"@openzeppelin/contracts/access/Ownable.sol\":2506:2531  address oldOwner = _owner */\n      swap1\n      pop\n        /* \"@openzeppelin/contracts/access/Ownable.sol\":2550:2558  newOwner */\n      dup2\n        /* \"@openzeppelin/contracts/access/Ownable.sol\":2541:2547  _owner */\n      0x00\n      dup1\n        /* \"@openzeppelin/contracts/access/Ownable.sol\":2541:2558  _owner = newOwner */\n      0x0100\n      exp\n      dup2\n      sload\n      dup2\n      0xffffffffffffffffffffffffffffffffffffffff\n      mul\n      not\n      and\n      swap1\n      dup4\n      0xffffffffffffffffffffffffffffffffffffffff\n      and\n      mul\n      or\n      swap1\n      sstore\n      pop\n        /* \"@openzeppelin/contracts/access/Ownable.sol\":2604:2612  newOwner */\n      dup2\n        /* \"@openzeppelin/contracts/access/Ownable.sol\":2573:2613  OwnershipTransferred(oldOwner, newOwner) */\n      0xffffffffffffffffffffffffffffffffffffffff\n      and\n        /* \"@openzeppelin/contracts/access/Ownable.sol\":2594:2602  oldOwner */\n      dup2\n        /* \"@openzeppelin/contracts/access/Ownable.sol\":2573:2613  OwnershipTransferred(oldOwner, newOwner) */\n      0xffffffffffffffffffffffffffffffffffffffff\n      and\n      0x8be0079c531659141344cd1fd0a4f28419497f9722a3daafe3b4186f6b6457e0\n      mload(0x40)\n      mload(0x40)\n      dup1\n      swap2\n      sub\n      swap1\n      log3\n        /* \"@openzeppelin/contracts/access/Ownable.sol\":2496:2620  {... */\n      pop\n        /* \"@openzeppelin/contracts/access/Ownable.sol\":2433:2620  function _transferOwnership(address newOwner) internal virtual {... */\n      pop\n      jump\t// out\n        /* \"@openzeppelin/contracts/utils/Context.sol\":640:736  function _msgSender() internal view virtual returns (address) {... */\n    tag_70:\n        /* \"@openzeppelin/contracts/utils/Context.sol\":693:700  address */\n      0x00\n        /* \"@openzeppelin/contracts/utils/Context.sol\":719:729  msg.sender */\n      caller\n        /* \"@openzeppelin/contracts/utils/Context.sol\":712:729  return msg.sender */\n      swap1\n      pop\n        /* \"@openzeppelin/contracts/utils/Context.sol\":640:736  function _msgSender() internal view virtual returns (address) {... */\n      swap1\n      jump\t// out\n    tag_44:\n      dup3\n      dup1\n      sload\n      tag_77\n      swap1\n      tag_56\n      jump\t// in\n    tag_77:\n      swap1\n      0x00\n      mstore\n      keccak256(0x00, 0x20)\n      swap1\n      0x1f\n      add\n      0x20\n      swap1\n      div\n      dup2\n      add\n      swap3\n      dup3\n      tag_79\n      jumpi\n      0x00\n      dup6\n      sstore\n      jump(tag_78)\n    tag_79:\n      dup3\n      0x1f\n      lt\n      tag_80\n      jumpi\n      dup1\n      mload\n      not(0xff)\n      and\n      dup4\n      dup1\n      add\n      or\n      dup6\n      sstore\n      jump(tag_78)\n    tag_80:\n      dup3\n      dup1\n      add\n      0x01\n      add\n      dup6\n      sstore\n      dup3\n      iszero\n      tag_78\n      jumpi\n      swap2\n      dup3\n      add\n    tag_81:\n      dup3\n      dup2\n      gt\n      iszero\n      tag_82\n      jumpi\n      dup3\n      mload\n      dup3\n      sstore\n      swap2\n      0x20\n      add\n      swap2\n      swap1\n      0x01\n      add\n      swap1\n      jump(tag_81)\n    tag_82:\n    tag_78:\n      pop\n      swap1\n      pop\n      tag_83\n      swap2\n      swap1\n      tag_84\n      jump\t// in\n    tag_83:\n      pop\n      swap1\n      jump\t// out\n    tag_84:\n    tag_85:\n      dup1\n      dup3\n      gt\n      iszero\n      tag_86\n      jumpi\n      0x00\n      dup2\n      0x00\n      swap1\n      sstore\n      pop\n      0x01\n      add\n      jump(tag_85)\n    tag_86:\n      pop\n      swap1\n      jump\t// out\n        /* \"#utility.yul\":7:419   */\n    tag_88:\n        /* \"#utility.yul\":85:90   */\n      0x00\n        /* \"#utility.yul\":110:176   */\n      tag_90\n        /* \"#utility.yul\":126:175   */\n      tag_91\n        /* \"#utility.yul\":168:174   */\n      dup5\n        /* \"#utility.yul\":126:175   */\n      tag_92\n      jump\t// in\n    tag_91:\n        /* \"#utility.yul\":110:176   */\n      tag_93\n      jump\t// in\n    tag_90:\n        /* \"#utility.yul\":101:176   */\n      swap1\n      pop\n        /* \"#utility.yul\":199:205   */\n      dup3\n        /* \"#utility.yul\":192:197   */\n      dup2\n        /* \"#utility.yul\":185:206   */\n      mstore\n        /* \"#utility.yul\":237:241   */\n      0x20\n        /* \"#utility.yul\":230:235   */\n      dup2\n        /* \"#utility.yul\":226:242   */\n      add\n        /* \"#utility.yul\":275:278   */\n      dup5\n        /* \"#utility.yul\":266:272   */\n      dup5\n        /* \"#utility.yul\":261:264   */\n      dup5\n        /* \"#utility.yul\":257:273   */\n      add\n        /* \"#utility.yul\":254:279   */\n      gt\n        /* \"#utility.yul\":251:363   */\n      iszero\n      tag_94\n      jumpi\n        /* \"#utility.yul\":282:361   */\n      tag_95\n      tag_96\n      jump\t// in\n    tag_95:\n        /* \"#utility.yul\":251:363   */\n    tag_94:\n        /* \"#utility.yul\":372:413   */\n      tag_97\n        /* \"#utility.yul\":406:412   */\n      dup5\n        /* \"#utility.yul\":401:404   */\n      dup3\n        /* \"#utility.yul\":396:399   */\n      dup6\n        /* \"#utility.yul\":372:413   */\n      tag_98\n      jump\t// in\n    tag_97:\n        /* \"#utility.yul\":91:419   */\n      pop\n        /* \"#utility.yul\":7:419   */\n      swap4\n      swap3\n      pop\n      pop\n      pop\n      jump\t// out\n        /* \"#utility.yul\":425:564   */\n    tag_99:\n        /* \"#utility.yul\":471:476   */\n      0x00\n        /* \"#utility.yul\":509:515   */\n      dup2\n        /* \"#utility.yul\":496:516   */\n      calldataload\n        /* \"#utility.yul\":487:516   */\n      swap1\n      pop\n        /* \"#utility.yul\":525:558   */\n      tag_101\n        /* \"#utility.yul\":552:557   */\n      dup2\n        /* \"#utility.yul\":525:558   */\n      tag_102\n      jump\t// in\n    tag_101:\n        /* \"#utility.yul\":425:564   */\n      swap3\n      swap2\n      pop\n      pop\n      jump\t// out\n        /* \"#utility.yul\":584:924   */\n    tag_103:\n        /* \"#utility.yul\":640:645   */\n      0x00\n        /* \"#utility.yul\":689:692   */\n      dup3\n        /* \"#utility.yul\":682:686   */\n      0x1f\n        /* \"#utility.yul\":674:680   */\n      dup4\n        /* \"#utility.yul\":670:687   */\n      add\n        /* \"#utility.yul\":666:693   */\n      slt\n        /* \"#utility.yul\":656:778   */\n      tag_105\n      jumpi\n        /* \"#utility.yul\":697:776   */\n      tag_106\n      tag_107\n      jump\t// in\n    tag_106:\n        /* \"#utility.yul\":656:778   */\n    tag_105:\n        /* \"#utility.yul\":814:820   */\n      dup2\n        /* \"#utility.yul\":801:821   */\n      calldataload\n        /* \"#utility.yul\":839:918   */\n      tag_108\n        /* \"#utility.yul\":914:917   */\n      dup5\n        /* \"#utility.yul\":906:912   */\n      dup3\n        /* \"#utility.yul\":899:903   */\n      0x20\n        /* \"#utility.yul\":891:897   */\n      dup7\n        /* \"#utility.yul\":887:904   */\n      add\n        /* \"#utility.yul\":839:918   */\n      tag_88\n      jump\t// in\n    tag_108:\n        /* \"#utility.yul\":830:918   */\n      swap2\n      pop\n        /* \"#utility.yul\":646:924   */\n      pop\n        /* \"#utility.yul\":584:924   */\n      swap3\n      swap2\n      pop\n      pop\n      jump\t// out\n        /* \"#utility.yul\":930:1259   */\n    tag_13:\n        /* \"#utility.yul\":989:995   */\n      0x00\n        /* \"#utility.yul\":1038:1040   */\n      0x20\n        /* \"#utility.yul\":1026:1035   */\n      dup3\n        /* \"#utility.yul\":1017:1024   */\n      dup5\n        /* \"#utility.yul\":1013:1036   */\n      sub\n        /* \"#utility.yul\":1009:1041   */\n      slt\n        /* \"#utility.yul\":1006:1125   */\n      iszero\n      tag_110\n      jumpi\n        /* \"#utility.yul\":1044:1123   */\n      tag_111\n      tag_112\n      jump\t// in\n    tag_111:\n        /* \"#utility.yul\":1006:1125   */\n    tag_110:\n        /* \"#utility.yul\":1164:1165   */\n      0x00\n        /* \"#utility.yul\":1189:1242   */\n      tag_113\n        /* \"#utility.yul\":1234:1241   */\n      dup5\n        /* \"#utility.yul\":1225:1231   */\n      dup3\n        /* \"#utility.yul\":1214:1223   */\n      dup6\n        /* \"#utility.yul\":1210:1232   */\n      add\n        /* \"#utility.yul\":1189:1242   */\n      tag_99\n      jump\t// in\n    tag_113:\n        /* \"#utility.yul\":1179:1242   */\n      swap2\n      pop\n        /* \"#utility.yul\":1135:1252   */\n      pop\n        /* \"#utility.yul\":930:1259   */\n      swap3\n      swap2\n      pop\n      pop\n      jump\t// out\n        /* \"#utility.yul\":1265:1739   */\n    tag_25:\n        /* \"#utility.yul\":1333:1339   */\n      0x00\n        /* \"#utility.yul\":1341:1347   */\n      dup1\n        /* \"#utility.yul\":1390:1392   */\n      0x40\n        /* \"#utility.yul\":1378:1387   */\n      dup4\n        /* \"#utility.yul\":1369:1376   */\n      dup6\n        /* \"#utility.yul\":1365:1388   */\n      sub\n        /* \"#utility.yul\":1361:1393   */\n      slt\n        /* \"#utility.yul\":1358:1477   */\n      iszero\n      tag_115\n      jumpi\n        /* \"#utility.yul\":1396:1475   */\n      tag_116\n      tag_112\n      jump\t// in\n    tag_116:\n        /* \"#utility.yul\":1358:1477   */\n    tag_115:\n        /* \"#utility.yul\":1516:1517   */\n      0x00\n        /* \"#utility.yul\":1541:1594   */\n      tag_117\n        /* \"#utility.yul\":1586:1593   */\n      dup6\n        /* \"#utility.yul\":1577:1583   */\n      dup3\n        /* \"#utility.yul\":1566:1575   */\n      dup7\n        /* \"#utility.yul\":1562:1584   */\n      add\n        /* \"#utility.yul\":1541:1594   */\n      tag_99\n      jump\t// in\n    tag_117:\n        /* \"#utility.yul\":1531:1594   */\n      swap3\n      pop\n        /* \"#utility.yul\":1487:1604   */\n      pop\n        /* \"#utility.yul\":1643:1645   */\n      0x20\n        /* \"#utility.yul\":1669:1722   */\n      tag_118\n        /* \"#utility.yul\":1714:1721   */\n      dup6\n        /* \"#utility.yul\":1705:1711   */\n      dup3\n        /* \"#utility.yul\":1694:1703   */\n      dup7\n        /* \"#utility.yul\":1690:1712   */\n      add\n        /* \"#utility.yul\":1669:1722   */\n      tag_99\n      jump\t// in\n    tag_118:\n        /* \"#utility.yul\":1659:1722   */\n      swap2\n      pop\n        /* \"#utility.yul\":1614:1732   */\n      pop\n        /* \"#utility.yul\":1265:1739   */\n      swap3\n      pop\n      swap3\n      swap1\n      pop\n      jump\t// out\n        /* \"#utility.yul\":1745:2399   */\n    tag_19:\n        /* \"#utility.yul\":1823:1829   */\n      0x00\n        /* \"#utility.yul\":1831:1837   */\n      dup1\n        /* \"#utility.yul\":1880:1882   */\n      0x40\n        /* \"#utility.yul\":1868:1877   */\n      dup4\n        /* \"#utility.yul\":1859:1866   */\n      dup6\n        /* \"#utility.yul\":1855:1878   */\n      sub\n        /* \"#utility.yul\":1851:1883   */\n      slt\n        /* \"#utility.yul\":1848:1967   */\n      iszero\n      tag_120\n      jumpi\n        /* \"#utility.yul\":1886:1965   */\n      tag_121\n      tag_112\n      jump\t// in\n    tag_121:\n        /* \"#utility.yul\":1848:1967   */\n    tag_120:\n        /* \"#utility.yul\":2006:2007   */\n      0x00\n        /* \"#utility.yul\":2031:2084   */\n      tag_122\n        /* \"#utility.yul\":2076:2083   */\n      dup6\n        /* \"#utility.yul\":2067:2073   */\n      dup3\n        /* \"#utility.yul\":2056:2065   */\n      dup7\n        /* \"#utility.yul\":2052:2074   */\n      add\n        /* \"#utility.yul\":2031:2084   */\n      tag_99\n      jump\t// in\n    tag_122:\n        /* \"#utility.yul\":2021:2084   */\n      swap3\n      pop\n        /* \"#utility.yul\":1977:2094   */\n      pop\n        /* \"#utility.yul\":2161:2163   */\n      0x20\n        /* \"#utility.yul\":2150:2159   */\n      dup4\n        /* \"#utility.yul\":2146:2164   */\n      add\n        /* \"#utility.yul\":2133:2165   */\n      calldataload\n        /* \"#utility.yul\":2192:2210   */\n      0xffffffffffffffff\n        /* \"#utility.yul\":2184:2190   */\n      dup2\n        /* \"#utility.yul\":2181:2211   */\n      gt\n        /* \"#utility.yul\":2178:2295   */\n      iszero\n      tag_123\n      jumpi\n        /* \"#utility.yul\":2214:2293   */\n      tag_124\n      tag_125\n      jump\t// in\n    tag_124:\n        /* \"#utility.yul\":2178:2295   */\n    tag_123:\n        /* \"#utility.yul\":2319:2382   */\n      tag_126\n        /* \"#utility.yul\":2374:2381   */\n      dup6\n        /* \"#utility.yul\":2365:2371   */\n      dup3\n        /* \"#utility.yul\":2354:2363   */\n      dup7\n        /* \"#utility.yul\":2350:2372   */\n      add\n        /* \"#utility.yul\":2319:2382   */\n      tag_103\n      jump\t// in\n    tag_126:\n        /* \"#utility.yul\":2309:2382   */\n      swap2\n      pop\n        /* \"#utility.yul\":2104:2392   */\n      pop\n        /* \"#utility.yul\":1745:2399   */\n      swap3\n      pop\n      swap3\n      swap1\n      pop\n      jump\t// out\n        /* \"#utility.yul\":2405:2523   */\n    tag_127:\n        /* \"#utility.yul\":2492:2516   */\n      tag_129\n        /* \"#utility.yul\":2510:2515   */\n      dup2\n        /* \"#utility.yul\":2492:2516   */\n      tag_130\n      jump\t// in\n    tag_129:\n        /* \"#utility.yul\":2487:2490   */\n      dup3\n        /* \"#utility.yul\":2480:2517   */\n      mstore\n        /* \"#utility.yul\":2405:2523   */\n      pop\n      pop\n      jump\t// out\n        /* \"#utility.yul\":2529:2893   */\n    tag_131:\n        /* \"#utility.yul\":2617:2620   */\n      0x00\n        /* \"#utility.yul\":2645:2684   */\n      tag_133\n        /* \"#utility.yul\":2678:2683   */\n      dup3\n        /* \"#utility.yul\":2645:2684   */\n      tag_134\n      jump\t// in\n    tag_133:\n        /* \"#utility.yul\":2700:2771   */\n      tag_135\n        /* \"#utility.yul\":2764:2770   */\n      dup2\n        /* \"#utility.yul\":2759:2762   */\n      dup6\n        /* \"#utility.yul\":2700:2771   */\n      tag_136\n      jump\t// in\n    tag_135:\n        /* \"#utility.yul\":2693:2771   */\n      swap4\n      pop\n        /* \"#utility.yul\":2780:2832   */\n      tag_137\n        /* \"#utility.yul\":2825:2831   */\n      dup2\n        /* \"#utility.yul\":2820:2823   */\n      dup6\n        /* \"#utility.yul\":2813:2817   */\n      0x20\n        /* \"#utility.yul\":2806:2811   */\n      dup7\n        /* \"#utility.yul\":2802:2818   */\n      add\n        /* \"#utility.yul\":2780:2832   */\n      tag_138\n      jump\t// in\n    tag_137:\n        /* \"#utility.yul\":2857:2886   */\n      tag_139\n        /* \"#utility.yul\":2879:2885   */\n      dup2\n        /* \"#utility.yul\":2857:2886   */\n      tag_140\n      jump\t// in\n    tag_139:\n        /* \"#utility.yul\":2852:2855   */\n      dup5\n        /* \"#utility.yul\":2848:2887   */\n      add\n        /* \"#utility.yul\":2841:2887   */\n      swap2\n      pop\n        /* \"#utility.yul\":2621:2893   */\n      pop\n        /* \"#utility.yul\":2529:2893   */\n      swap3\n      swap2\n      pop\n      pop\n      jump\t// out\n        /* \"#utility.yul\":2899:3265   */\n    tag_141:\n        /* \"#utility.yul\":3041:3044   */\n      0x00\n        /* \"#utility.yul\":3062:3129   */\n      tag_143\n        /* \"#utility.yul\":3126:3128   */\n      0x26\n        /* \"#utility.yul\":3121:3124   */\n      dup4\n        /* \"#utility.yul\":3062:3129   */\n      tag_136\n      jump\t// in\n    tag_143:\n        /* \"#utility.yul\":3055:3129   */\n      swap2\n      pop\n        /* \"#utility.yul\":3138:3231   */\n      tag_144\n        /* \"#utility.yul\":3227:3230   */\n      dup3\n        /* \"#utility.yul\":3138:3231   */\n      tag_145\n      jump\t// in\n    tag_144:\n        /* \"#utility.yul\":3256:3258   */\n      0x40\n        /* \"#utility.yul\":3251:3254   */\n      dup3\n        /* \"#utility.yul\":3247:3259   */\n      add\n        /* \"#utility.yul\":3240:3259   */\n      swap1\n      pop\n        /* \"#utility.yul\":2899:3265   */\n      swap2\n      swap1\n      pop\n      jump\t// out\n        /* \"#utility.yul\":3271:3637   */\n    tag_146:\n        /* \"#utility.yul\":3413:3416   */\n      0x00\n        /* \"#utility.yul\":3434:3501   */\n      tag_148\n        /* \"#utility.yul\":3498:3500   */\n      0x20\n        /* \"#utility.yul\":3493:3496   */\n      dup4\n        /* \"#utility.yul\":3434:3501   */\n      tag_136\n      jump\t// in\n    tag_148:\n        /* \"#utility.yul\":3427:3501   */\n      swap2\n      pop\n        /* \"#utility.yul\":3510:3603   */\n      tag_149\n        /* \"#utility.yul\":3599:3602   */\n      dup3\n        /* \"#utility.yul\":3510:3603   */\n      tag_150\n      jump\t// in\n    tag_149:\n        /* \"#utility.yul\":3628:3630   */\n      0x20\n        /* \"#utility.yul\":3623:3626   */\n      dup3\n        /* \"#utility.yul\":3619:3631   */\n      add\n        /* \"#utility.yul\":3612:3631   */\n      swap1\n      pop\n        /* \"#utility.yul\":3271:3637   */\n      swap2\n      swap1\n      pop\n      jump\t// out\n        /* \"#utility.yul\":3643:3865   */\n    tag_16:\n        /* \"#utility.yul\":3736:3740   */\n      0x00\n        /* \"#utility.yul\":3774:3776   */\n      0x20\n        /* \"#utility.yul\":3763:3772   */\n      dup3\n        /* \"#utility.yul\":3759:3777   */\n      add\n        /* \"#utility.yul\":3751:3777   */\n      swap1\n      pop\n        /* \"#utility.yul\":3787:3858   */\n      tag_152\n        /* \"#utility.yul\":3855:3856   */\n      0x00\n        /* \"#utility.yul\":3844:3853   */\n      dup4\n        /* \"#utility.yul\":3840:3857   */\n      add\n        /* \"#utility.yul\":3831:3837   */\n      dup5\n        /* \"#utility.yul\":3787:3858   */\n      tag_127\n      jump\t// in\n    tag_152:\n        /* \"#utility.yul\":3643:3865   */\n      swap3\n      swap2\n      pop\n      pop\n      jump\t// out\n        /* \"#utility.yul\":3871:4184   */\n    tag_34:\n        /* \"#utility.yul\":3984:3988   */\n      0x00\n        /* \"#utility.yul\":4022:4024   */\n      0x20\n        /* \"#utility.yul\":4011:4020   */\n      dup3\n        /* \"#utility.yul\":4007:4025   */\n      add\n        /* \"#utility.yul\":3999:4025   */\n      swap1\n      pop\n        /* \"#utility.yul\":4071:4080   */\n      dup2\n        /* \"#utility.yul\":4065:4069   */\n      dup2\n        /* \"#utility.yul\":4061:4081   */\n      sub\n        /* \"#utility.yul\":4057:4058   */\n      0x00\n        /* \"#utility.yul\":4046:4055   */\n      dup4\n        /* \"#utility.yul\":4042:4059   */\n      add\n        /* \"#utility.yul\":4035:4082   */\n      mstore\n        /* \"#utility.yul\":4099:4177   */\n      tag_154\n        /* \"#utility.yul\":4172:4176   */\n      dup2\n        /* \"#utility.yul\":4163:4169   */\n      dup5\n        /* \"#utility.yul\":4099:4177   */\n      tag_131\n      jump\t// in\n    tag_154:\n        /* \"#utility.yul\":4091:4177   */\n      swap1\n      pop\n        /* \"#utility.yul\":3871:4184   */\n      swap3\n      swap2\n      pop\n      pop\n      jump\t// out\n        /* \"#utility.yul\":4190:4609   */\n    tag_66:\n        /* \"#utility.yul\":4356:4360   */\n      0x00\n        /* \"#utility.yul\":4394:4396   */\n      0x20\n        /* \"#utility.yul\":4383:4392   */\n      dup3\n        /* \"#utility.yul\":4379:4397   */\n      add\n        /* \"#utility.yul\":4371:4397   */\n      swap1\n      pop\n        /* \"#utility.yul\":4443:4452   */\n      dup2\n        /* \"#utility.yul\":4437:4441   */\n      dup2\n        /* \"#utility.yul\":4433:4453   */\n      sub\n        /* \"#utility.yul\":4429:4430   */\n      0x00\n        /* \"#utility.yul\":4418:4427   */\n      dup4\n        /* \"#utility.yul\":4414:4431   */\n      add\n        /* \"#utility.yul\":4407:4454   */\n      mstore\n        /* \"#utility.yul\":4471:4602   */\n      tag_156\n        /* \"#utility.yul\":4597:4601   */\n      dup2\n        /* \"#utility.yul\":4471:4602   */\n      tag_141\n      jump\t// in\n    tag_156:\n        /* \"#utility.yul\":4463:4602   */\n      swap1\n      pop\n        /* \"#utility.yul\":4190:4609   */\n      swap2\n      swap1\n      pop\n      jump\t// out\n        /* \"#utility.yul\":4615:5034   */\n    tag_74:\n        /* \"#utility.yul\":4781:4785   */\n      0x00\n        /* \"#utility.yul\":4819:4821   */\n      0x20\n        /* \"#utility.yul\":4808:4817   */\n      dup3\n        /* \"#utility.yul\":4804:4822   */\n      add\n        /* \"#utility.yul\":4796:4822   */\n      swap1\n      pop\n        /* \"#utility.yul\":4868:4877   */\n      dup2\n        /* \"#utility.yul\":4862:4866   */\n      dup2\n        /* \"#utility.yul\":4858:4878   */\n      sub\n        /* \"#utility.yul\":4854:4855   */\n      0x00\n        /* \"#utility.yul\":4843:4852   */\n      dup4\n        /* \"#utility.yul\":4839:4856   */\n      add\n        /* \"#utility.yul\":4832:4879   */\n      mstore\n        /* \"#utility.yul\":4896:5027   */\n      tag_158\n        /* \"#utility.yul\":5022:5026   */\n      dup2\n        /* \"#utility.yul\":4896:5027   */\n      tag_146\n      jump\t// in\n    tag_158:\n        /* \"#utility.yul\":4888:5027   */\n      swap1\n      pop\n        /* \"#utility.yul\":4615:5034   */\n      swap2\n      swap1\n      pop\n      jump\t// out\n        /* \"#utility.yul\":5040:5169   */\n    tag_93:\n        /* \"#utility.yul\":5074:5080   */\n      0x00\n        /* \"#utility.yul\":5101:5121   */\n      tag_160\n      tag_161\n      jump\t// in\n    tag_160:\n        /* \"#utility.yul\":5091:5121   */\n      swap1\n      pop\n        /* \"#utility.yul\":5130:5163   */\n      tag_162\n        /* \"#utility.yul\":5158:5162   */\n      dup3\n        /* \"#utility.yul\":5150:5156   */\n      dup3\n        /* \"#utility.yul\":5130:5163   */\n      tag_163\n      jump\t// in\n    tag_162:\n        /* \"#utility.yul\":5040:5169   */\n      swap2\n      swap1\n      pop\n      jump\t// out\n        /* \"#utility.yul\":5175:5250   */\n    tag_161:\n        /* \"#utility.yul\":5208:5214   */\n      0x00\n        /* \"#utility.yul\":5241:5243   */\n      0x40\n        /* \"#utility.yul\":5235:5244   */\n      mload\n        /* \"#utility.yul\":5225:5244   */\n      swap1\n      pop\n        /* \"#utility.yul\":5175:5250   */\n      swap1\n      jump\t// out\n        /* \"#utility.yul\":5256:5564   */\n    tag_92:\n        /* \"#utility.yul\":5318:5322   */\n      0x00\n        /* \"#utility.yul\":5408:5426   */\n      0xffffffffffffffff\n        /* \"#utility.yul\":5400:5406   */\n      dup3\n        /* \"#utility.yul\":5397:5427   */\n      gt\n        /* \"#utility.yul\":5394:5450   */\n      iszero\n      tag_166\n      jumpi\n        /* \"#utility.yul\":5430:5448   */\n      tag_167\n      tag_168\n      jump\t// in\n    tag_167:\n        /* \"#utility.yul\":5394:5450   */\n    tag_166:\n        /* \"#utility.yul\":5468:5497   */\n      tag_169\n        /* \"#utility.yul\":5490:5496   */\n      dup3\n        /* \"#utility.yul\":5468:5497   */\n      tag_140\n      jump\t// in\n    tag_169:\n        /* \"#utility.yul\":5460:5497   */\n      swap1\n      pop\n        /* \"#utility.yul\":5552:5556   */\n      0x20\n        /* \"#utility.yul\":5546:5550   */\n      dup2\n        /* \"#utility.yul\":5542:5557   */\n      add\n        /* \"#utility.yul\":5534:5557   */\n      swap1\n      pop\n        /* \"#utility.yul\":5256:5564   */\n      swap2\n      swap1\n      pop\n      jump\t// out\n        /* \"#utility.yul\":5570:5669   */\n    tag_134:\n        /* \"#utility.yul\":5622:5628   */\n      0x00\n        /* \"#utility.yul\":5656:5661   */\n      dup2\n        /* \"#utility.yul\":5650:5662   */\n      mload\n        /* \"#utility.yul\":5640:5662   */\n      swap1\n      pop\n        /* \"#utility.yul\":5570:5669   */\n      swap2\n      swap1\n      pop\n      jump\t// out\n        /* \"#utility.yul\":5675:5844   */\n    tag_136:\n        /* \"#utility.yul\":5759:5770   */\n      0x00\n        /* \"#utility.yul\":5793:5799   */\n      dup3\n        /* \"#utility.yul\":5788:5791   */\n      dup3\n        /* \"#utility.yul\":5781:5800   */\n      mstore\n        /* \"#utility.yul\":5833:5837   */\n      0x20\n        /* \"#utility.yul\":5828:5831   */\n      dup3\n        /* \"#utility.yul\":5824:5838   */\n      add\n        /* \"#utility.yul\":5809:5838   */\n      swap1\n      pop\n        /* \"#utility.yul\":5675:5844   */\n      swap3\n      swap2\n      pop\n      pop\n      jump\t// out\n        /* \"#utility.yul\":5850:5946   */\n    tag_130:\n        /* \"#utility.yul\":5887:5894   */\n      0x00\n        /* \"#utility.yul\":5916:5940   */\n      tag_173\n        /* \"#utility.yul\":5934:5939   */\n      dup3\n        /* \"#utility.yul\":5916:5940   */\n      tag_174\n      jump\t// in\n    tag_173:\n        /* \"#utility.yul\":5905:5940   */\n      swap1\n      pop\n        /* \"#utility.yul\":5850:5946   */\n      swap2\n      swap1\n      pop\n      jump\t// out\n        /* \"#utility.yul\":5952:6078   */\n    tag_174:\n        /* \"#utility.yul\":5989:5996   */\n      0x00\n        /* \"#utility.yul\":6029:6071   */\n      0xffffffffffffffffffffffffffffffffffffffff\n        /* \"#utility.yul\":6022:6027   */\n      dup3\n        /* \"#utility.yul\":6018:6072   */\n      and\n        /* \"#utility.yul\":6007:6072   */\n      swap1\n      pop\n        /* \"#utility.yul\":5952:6078   */\n      swap2\n      swap1\n      pop\n      jump\t// out\n        /* \"#utility.yul\":6084:6238   */\n    tag_98:\n        /* \"#utility.yul\":6168:6174   */\n      dup3\n        /* \"#utility.yul\":6163:6166   */\n      dup2\n        /* \"#utility.yul\":6158:6161   */\n      dup4\n        /* \"#utility.yul\":6145:6175   */\n      calldatacopy\n        /* \"#utility.yul\":6230:6231   */\n      0x00\n        /* \"#utility.yul\":6221:6227   */\n      dup4\n        /* \"#utility.yul\":6216:6219   */\n      dup4\n        /* \"#utility.yul\":6212:6228   */\n      add\n        /* \"#utility.yul\":6205:6232   */\n      mstore\n        /* \"#utility.yul\":6084:6238   */\n      pop\n      pop\n      pop\n      jump\t// out\n        /* \"#utility.yul\":6244:6551   */\n    tag_138:\n        /* \"#utility.yul\":6312:6313   */\n      0x00\n        /* \"#utility.yul\":6322:6435   */\n    tag_178:\n        /* \"#utility.yul\":6336:6342   */\n      dup4\n        /* \"#utility.yul\":6333:6334   */\n      dup2\n        /* \"#utility.yul\":6330:6343   */\n      lt\n        /* \"#utility.yul\":6322:6435   */\n      iszero\n      tag_180\n      jumpi\n        /* \"#utility.yul\":6421:6422   */\n      dup1\n        /* \"#utility.yul\":6416:6419   */\n      dup3\n        /* \"#utility.yul\":6412:6423   */\n      add\n        /* \"#utility.yul\":6406:6424   */\n      mload\n        /* \"#utility.yul\":6402:6403   */\n      dup2\n        /* \"#utility.yul\":6397:6400   */\n      dup5\n        /* \"#utility.yul\":6393:6404   */\n      add\n        /* \"#utility.yul\":6386:6425   */\n      mstore\n        /* \"#utility.yul\":6358:6360   */\n      0x20\n        /* \"#utility.yul\":6355:6356   */\n      dup2\n        /* \"#utility.yul\":6351:6361   */\n      add\n        /* \"#utility.yul\":6346:6361   */\n      swap1\n      pop\n        /* \"#utility.yul\":6322:6435   */\n      jump(tag_178)\n    tag_180:\n        /* \"#utility.yul\":6453:6459   */\n      dup4\n        /* \"#utility.yul\":6450:6451   */\n      dup2\n        /* \"#utility.yul\":6447:6460   */\n      gt\n        /* \"#utility.yul\":6444:6545   */\n      iszero\n      tag_181\n      jumpi\n        /* \"#utility.yul\":6533:6534   */\n      0x00\n        /* \"#utility.yul\":6524:6530   */\n      dup5\n        /* \"#utility.yul\":6519:6522   */\n      dup5\n        /* \"#utility.yul\":6515:6531   */\n      add\n        /* \"#utility.yul\":6508:6535   */\n      mstore\n        /* \"#utility.yul\":6444:6545   */\n    tag_181:\n        /* \"#utility.yul\":6293:6551   */\n      pop\n        /* \"#utility.yul\":6244:6551   */\n      pop\n      pop\n      pop\n      jump\t// out\n        /* \"#utility.yul\":6557:6877   */\n    tag_56:\n        /* \"#utility.yul\":6601:6607   */\n      0x00\n        /* \"#utility.yul\":6638:6639   */\n      0x02\n        /* \"#utility.yul\":6632:6636   */\n      dup3\n        /* \"#utility.yul\":6628:6640   */\n      div\n        /* \"#utility.yul\":6618:6640   */\n      swap1\n      pop\n        /* \"#utility.yul\":6685:6686   */\n      0x01\n        /* \"#utility.yul\":6679:6683   */\n      dup3\n        /* \"#utility.yul\":6675:6687   */\n      and\n        /* \"#utility.yul\":6706:6724   */\n      dup1\n        /* \"#utility.yul\":6696:6777   */\n      tag_183\n      jumpi\n        /* \"#utility.yul\":6762:6766   */\n      0x7f\n        /* \"#utility.yul\":6754:6760   */\n      dup3\n        /* \"#utility.yul\":6750:6767   */\n      and\n        /* \"#utility.yul\":6740:6767   */\n      swap2\n      pop\n        /* \"#utility.yul\":6696:6777   */\n    tag_183:\n        /* \"#utility.yul\":6824:6826   */\n      0x20\n        /* \"#utility.yul\":6816:6822   */\n      dup3\n        /* \"#utility.yul\":6813:6827   */\n      lt\n        /* \"#utility.yul\":6793:6811   */\n      dup2\n        /* \"#utility.yul\":6790:6828   */\n      eq\n        /* \"#utility.yul\":6787:6871   */\n      iszero\n      tag_184\n      jumpi\n        /* \"#utility.yul\":6843:6861   */\n      tag_185\n      tag_186\n      jump\t// in\n    tag_185:\n        /* \"#utility.yul\":6787:6871   */\n    tag_184:\n        /* \"#utility.yul\":6608:6877   */\n      pop\n        /* \"#utility.yul\":6557:6877   */\n      swap2\n      swap1\n      pop\n      jump\t// out\n        /* \"#utility.yul\":6883:7164   */\n    tag_163:\n        /* \"#utility.yul\":6966:6993   */\n      tag_188\n        /* \"#utility.yul\":6988:6992   */\n      dup3\n        /* \"#utility.yul\":6966:6993   */\n      tag_140\n      jump\t// in\n    tag_188:\n        /* \"#utility.yul\":6958:6964   */\n      dup2\n        /* \"#utility.yul\":6954:6994   */\n      add\n        /* \"#utility.yul\":7096:7102   */\n      dup2\n        /* \"#utility.yul\":7084:7094   */\n      dup2\n        /* \"#utility.yul\":7081:7103   */\n      lt\n        /* \"#utility.yul\":7060:7078   */\n      0xffffffffffffffff\n        /* \"#utility.yul\":7048:7058   */\n      dup3\n        /* \"#utility.yul\":7045:7079   */\n      gt\n        /* \"#utility.yul\":7042:7104   */\n      or\n        /* \"#utility.yul\":7039:7127   */\n      iszero\n      tag_189\n      jumpi\n        /* \"#utility.yul\":7107:7125   */\n      tag_190\n      tag_168\n      jump\t// in\n    tag_190:\n        /* \"#utility.yul\":7039:7127   */\n    tag_189:\n        /* \"#utility.yul\":7147:7157   */\n      dup1\n        /* \"#utility.yul\":7143:7145   */\n      0x40\n        /* \"#utility.yul\":7136:7158   */\n      mstore\n        /* \"#utility.yul\":6926:7164   */\n      pop\n        /* \"#utility.yul\":6883:7164   */\n      pop\n      pop\n      jump\t// out\n        /* \"#utility.yul\":7170:7350   */\n    tag_186:\n        /* \"#utility.yul\":7218:7295   */\n      0x4e487b7100000000000000000000000000000000000000000000000000000000\n        /* \"#utility.yul\":7215:7216   */\n      0x00\n        /* \"#utility.yul\":7208:7296   */\n      mstore\n        /* \"#utility.yul\":7315:7319   */\n      0x22\n        /* \"#utility.yul\":7312:7313   */\n      0x04\n        /* \"#utility.yul\":7305:7320   */\n      mstore\n        /* \"#utility.yul\":7339:7343   */\n      0x24\n        /* \"#utility.yul\":7336:7337   */\n      0x00\n        /* \"#utility.yul\":7329:7344   */\n      revert\n        /* \"#utility.yul\":7356:7536   */\n    tag_168:\n        /* \"#utility.yul\":7404:7481   */\n      0x4e487b7100000000000000000000000000000000000000000000000000000000\n        /* \"#utility.yul\":7401:7402   */\n      0x00\n        /* \"#utility.yul\":7394:7482   */\n      mstore\n        /* \"#utility.yul\":7501:7505   */\n      0x41\n        /* \"#utility.yul\":7498:7499   */\n      0x04\n        /* \"#utility.yul\":7491:7506   */\n      mstore\n        /* \"#utility.yul\":7525:7529   */\n      0x24\n        /* \"#utility.yul\":7522:7523   */\n      0x00\n        /* \"#utility.yul\":7515:7530   */\n      revert\n        /* \"#utility.yul\":7542:7659   */\n    tag_107:\n        /* \"#utility.yul\":7651:7652   */\n      0x00\n        /* \"#utility.yul\":7648:7649   */\n      dup1\n        /* \"#utility.yul\":7641:7653   */\n      revert\n        /* \"#utility.yul\":7665:7782   */\n    tag_96:\n        /* \"#utility.yul\":7774:7775   */\n      0x00\n        /* \"#utility.yul\":7771:7772   */\n      dup1\n        /* \"#utility.yul\":7764:7776   */\n      revert\n        /* \"#utility.yul\":7788:7905   */\n    tag_125:\n        /* \"#utility.yul\":7897:7898   */\n      0x00\n        /* \"#utility.yul\":7894:7895   */\n      dup1\n        /* \"#utility.yul\":7887:7899   */\n      revert\n        /* \"#utility.yul\":7911:8028   */\n    tag_112:\n        /* \"#utility.yul\":8020:8021   */\n      0x00\n        /* \"#utility.yul\":8017:8018   */\n      dup1\n        /* \"#utility.yul\":8010:8022   */\n      revert\n        /* \"#utility.yul\":8034:8136   */\n    tag_140:\n        /* \"#utility.yul\":8075:8081   */\n      0x00\n        /* \"#utility.yul\":8126:8128   */\n      0x1f\n        /* \"#utility.yul\":8122:8129   */\n      not\n        /* \"#utility.yul\":8117:8119   */\n      0x1f\n        /* \"#utility.yul\":8110:8115   */\n      dup4\n        /* \"#utility.yul\":8106:8120   */\n      add\n        /* \"#utility.yul\":8102:8130   */\n      and\n        /* \"#utility.yul\":8092:8130   */\n      swap1\n      pop\n        /* \"#utility.yul\":8034:8136   */\n      swap2\n      swap1\n      pop\n      jump\t// out\n        /* \"#utility.yul\":8142:8367   */\n    tag_145:\n        /* \"#utility.yul\":8282:8316   */\n      0x4f776e61626c653a206e6577206f776e657220697320746865207a65726f2061\n        /* \"#utility.yul\":8278:8279   */\n      0x00\n        /* \"#utility.yul\":8270:8276   */\n      dup3\n        /* \"#utility.yul\":8266:8280   */\n      add\n        /* \"#utility.yul\":8259:8317   */\n      mstore\n        /* \"#utility.yul\":8351:8359   */\n      0x6464726573730000000000000000000000000000000000000000000000000000\n        /* \"#utility.yul\":8346:8348   */\n      0x20\n        /* \"#utility.yul\":8338:8344   */\n      dup3\n        /* \"#utility.yul\":8334:8349   */\n      add\n        /* \"#utility.yul\":8327:8360   */\n      mstore\n        /* \"#utility.yul\":8142:8367   */\n      pop\n      jump\t// out\n        /* \"#utility.yul\":8373:8555   */\n    tag_150:\n        /* \"#utility.yul\":8513:8547   */\n      0x4f776e61626c653a2063616c6c6572206973206e6f7420746865206f776e6572\n        /* \"#utility.yul\":8509:8510   */\n      0x00\n        /* \"#utility.yul\":8501:8507   */\n      dup3\n        /* \"#utility.yul\":8497:8511   */\n      add\n        /* \"#utility.yul\":8490:8548   */\n      mstore\n        /* \"#utility.yul\":8373:8555   */\n      pop\n      jump\t// out\n        /* \"#utility.yul\":8561:8683   */\n    tag_102:\n        /* \"#utility.yul\":8634:8658   */\n      tag_201\n        /* \"#utility.yul\":8652:8657   */\n      dup2\n        /* \"#utility.yul\":8634:8658   */\n      tag_130\n      jump\t// in\n    tag_201:\n        /* \"#utility.yul\":8627:8632   */\n      dup2\n        /* \"#utility.yul\":8624:8659   */\n      eq\n        /* \"#utility.yul\":8614:8677   */\n      tag_202\n      jumpi\n        /* \"#utility.yul\":8673:8674   */\n      0x00\n        /* \"#utility.yul\":8670:8671   */\n      dup1\n        /* \"#utility.yul\":8663:8675   */\n      revert\n        /* \"#utility.yul\":8614:8677   */\n    tag_202:\n        /* \"#utility.yul\":8561:8683   */\n      pop\n      jump\t// out\n\n    auxdata: 0xa2646970667358221220cfcaed0a87c88bfbb2d43db6ec58c7747f3bbc2aa0ade5fdd9b3c4176253a0a264736f6c63430008070033\n}\n",
				"bytecode": {
					"linkReferences": {},
					"object": "608060405234801561001057600080fd5b5061002d61002261003260201b60201c565b61003a60201b60201c565b6100fe565b600033905090565b60008060009054906101000a900473ffffffffffffffffffffffffffffffffffffffff169050816000806101000a81548173ffffffffffffffffffffffffffffffffffffffff021916908373ffffffffffffffffffffffffffffffffffffffff1602179055508173ffffffffffffffffffffffffffffffffffffffff168173ffffffffffffffffffffffffffffffffffffffff167f8be0079c531659141344cd1fd0a4f28419497f9722a3daafe3b4186f6b6457e060405160405180910390a35050565b610b1a8061010d6000396000f3fe608060405234801561001057600080fd5b506004361061007d5760003560e01c806378c2cc511161005b57806378c2cc51146100d85780638da5cb5b146100f4578063ae22c57d14610112578063f2fde38b146101425761007d565b8063281d6ea91461008257806338f6d543146100b2578063715018a6146100ce575b600080fd5b61009c600480360381019061009791906106b5565b61015e565b6040516100a9919061080c565b60405180910390f35b6100cc60048036038101906100c79190610722565b6101c7565b005b6100d6610227565b005b6100f260048036038101906100ed91906106e2565b61023b565b005b6100fc6102c5565b604051610109919061080c565b60405180910390f35b61012c600480360381019061012791906106b5565b6102ee565b6040516101399190610827565b60405180910390f35b61015c600480360381019061015791906106b5565b6103bf565b005b6000600260008373ffffffffffffffffffffffffffffffffffffffff1673ffffffffffffffffffffffffffffffffffffffff16815260200190815260200160002060009054906101000a900473ffffffffffffffffffffffffffffffffffffffff169050919050565b6101cf610443565b80600160008473ffffffffffffffffffffffffffffffffffffffff1673ffffffffffffffffffffffffffffffffffffffff168152602001908152602001600020908051906020019061022292919061058d565b505050565b61022f610443565b61023960006104c1565b565b610243610443565b80600260008473ffffffffffffffffffffffffffffffffffffffff1673ffffffffffffffffffffffffffffffffffffffff16815260200190815260200160002060006101000a81548173ffffffffffffffffffffffffffffffffffffffff021916908373ffffffffffffffffffffffffffffffffffffffff1602179055505050565b60008060009054906101000a900473ffffffffffffffffffffffffffffffffffffffff16905090565b6060600160008373ffffffffffffffffffffffffffffffffffffffff1673ffffffffffffffffffffffffffffffffffffffff168152602001908152602001600020805461033a9061096f565b80601f01602080910402602001604051908101604052809291908181526020018280546103669061096f565b80156103b35780601f10610388576101008083540402835291602001916103b3565b820191906000526020600020905b81548152906001019060200180831161039657829003601f168201915b50505050509050919050565b6103c7610443565b600073ffffffffffffffffffffffffffffffffffffffff168173ffffffffffffffffffffffffffffffffffffffff161415610437576040517f08c379a000000000000000000000000000000000000000000000000000000000815260040161042e90610849565b60405180910390fd5b610440816104c1565b50565b61044b610585565b73ffffffffffffffffffffffffffffffffffffffff166104696102c5565b73ffffffffffffffffffffffffffffffffffffffff16146104bf576040517f08c379a00000000000000000000000000000000000000000000000000000000081526004016104b690610869565b60405180910390fd5b565b60008060009054906101000a900473ffffffffffffffffffffffffffffffffffffffff169050816000806101000a81548173ffffffffffffffffffffffffffffffffffffffff021916908373ffffffffffffffffffffffffffffffffffffffff1602179055508173ffffffffffffffffffffffffffffffffffffffff168173ffffffffffffffffffffffffffffffffffffffff167f8be0079c531659141344cd1fd0a4f28419497f9722a3daafe3b4186f6b6457e060405160405180910390a35050565b600033905090565b8280546105999061096f565b90600052602060002090601f0160209004810192826105bb5760008555610602565b82601f106105d457805160ff1916838001178555610602565b82800160010185558215610602579182015b828111156106015782518255916020019190600101906105e6565b5b50905061060f9190610613565b5090565b5b8082111561062c576000816000905550600101610614565b5090565b600061064361063e846108ae565b610889565b90508281526020810184848401111561065f5761065e610a35565b5b61066a84828561092d565b509392505050565b60008135905061068181610acd565b92915050565b600082601f83011261069c5761069b610a30565b5b81356106ac848260208601610630565b91505092915050565b6000602082840312156106cb576106ca610a3f565b5b60006106d984828501610672565b91505092915050565b600080604083850312156106f9576106f8610a3f565b5b600061070785828601610672565b925050602061071885828601610672565b9150509250929050565b6000806040838503121561073957610738610a3f565b5b600061074785828601610672565b925050602083013567ffffffffffffffff81111561076857610767610a3a565b5b61077485828601610687565b9150509250929050565b610787816108fb565b82525050565b6000610798826108df565b6107a281856108ea565b93506107b281856020860161093c565b6107bb81610a44565b840191505092915050565b60006107d36026836108ea565b91506107de82610a55565b604082019050919050565b60006107f66020836108ea565b915061080182610aa4565b602082019050919050565b6000602082019050610821600083018461077e565b92915050565b60006020820190508181036000830152610841818461078d565b905092915050565b60006020820190508181036000830152610862816107c6565b9050919050565b60006020820190508181036000830152610882816107e9565b9050919050565b60006108936108a4565b905061089f82826109a1565b919050565b6000604051905090565b600067ffffffffffffffff8211156108c9576108c8610a01565b5b6108d282610a44565b9050602081019050919050565b600081519050919050565b600082825260208201905092915050565b60006109068261090d565b9050919050565b600073ffffffffffffffffffffffffffffffffffffffff82169050919050565b82818337600083830152505050565b60005b8381101561095a57808201518184015260208101905061093f565b83811115610969576000848401525b50505050565b6000600282049050600182168061098757607f821691505b6020821081141561099b5761099a6109d2565b5b50919050565b6109aa82610a44565b810181811067ffffffffffffffff821117156109c9576109c8610a01565b5b80604052505050565b7f4e487b7100000000000000000000000000000000000000000000000000000000600052602260045260246000fd5b7f4e487b7100000000000000000000000000000000000000000000000000000000600052604160045260246000fd5b600080fd5b600080fd5b600080fd5b600080fd5b6000601f19601f8301169050919050565b7f4f776e61626c653a206e6577206f776e657220697320746865207a65726f206160008201527f6464726573730000000000000000000000000000000000000000000000000000602082015250565b7f4f776e61626c653a2063616c6c6572206973206e6f7420746865206f776e6572600082015250565b610ad6816108fb565b8114610ae157600080fd5b5056fea2646970667358221220cfcaed0a87c88bfbb2d43db6ec58c7747f3bbc2aa0ade5fdd9b3c4176253a0a264736f6c63430008070033",
					"opcodes": "PUSH1 0x80 PUSH1 0x40 MSTORE CALLVALUE DUP1 ISZERO PUSH2 0x10 JUMPI PUSH1 0x0 DUP1 REVERT JUMPDEST POP PUSH2 0x2D PUSH2 0x22 PUSH2 0x32 PUSH1 0x20 SHL PUSH1 0x20 SHR JUMP JUMPDEST PUSH2 0x3A PUSH1 0x20 SHL PUSH1 0x20 SHR JUMP JUMPDEST PUSH2 0xFE JUMP JUMPDEST PUSH1 0x0 CALLER SWAP1 POP SWAP1 JUMP JUMPDEST PUSH1 0x0 DUP1 PUSH1 0x0 SWAP1 SLOAD SWAP1 PUSH2 0x100 EXP SWAP1 DIV PUSH20 0xFFFFFFFFFFFFFFFFFFFFFFFFFFFFFFFFFFFFFFFF AND SWAP1 POP DUP2 PUSH1 0x0 DUP1 PUSH2 0x100 EXP DUP2 SLOAD DUP2 PUSH20 0xFFFFFFFFFFFFFFFFFFFFFFFFFFFFFFFFFFFFFFFF MUL NOT AND SWAP1 DUP4 PUSH20 0xFFFFFFFFFFFFFFFFFFFFFFFFFFFFFFFFFFFFFFFF AND MUL OR SWAP1 SSTORE POP DUP2 PUSH20 0xFFFFFFFFFFFFFFFFFFFFFFFFFFFFFFFFFFFFFFFF AND DUP2 PUSH20 0xFFFFFFFFFFFFFFFFFFFFFFFFFFFFFFFFFFFFFFFF AND PUSH32 0x8BE0079C531659141344CD1FD0A4F28419497F9722A3DAAFE3B4186F6B6457E0 PUSH1 0x40 MLOAD PUSH1 0x40 MLOAD DUP1 SWAP2 SUB SWAP1 LOG3 POP POP JUMP JUMPDEST PUSH2 0xB1A DUP1 PUSH2 0x10D PUSH1 0x0 CODECOPY PUSH1 0x0 RETURN INVALID PUSH1 0x80 PUSH1 0x40 MSTORE CALLVALUE DUP1 ISZERO PUSH2 0x10 JUMPI PUSH1 0x0 DUP1 REVERT JUMPDEST POP PUSH1 0x4 CALLDATASIZE LT PUSH2 0x7D JUMPI PUSH1 0x0 CALLDATALOAD PUSH1 0xE0 SHR DUP1 PUSH4 0x78C2CC51 GT PUSH2 0x5B JUMPI DUP1 PUSH4 0x78C2CC51 EQ PUSH2 0xD8 JUMPI DUP1 PUSH4 0x8DA5CB5B EQ PUSH2 0xF4 JUMPI DUP1 PUSH4 0xAE22C57D EQ PUSH2 0x112 JUMPI DUP1 PUSH4 0xF2FDE38B EQ PUSH2 0x142 JUMPI PUSH2 0x7D JUMP JUMPDEST DUP1 PUSH4 0x281D6EA9 EQ PUSH2 0x82 JUMPI DUP1 PUSH4 0x38F6D543 EQ PUSH2 0xB2 JUMPI DUP1 PUSH4 0x715018A6 EQ PUSH2 0xCE JUMPI JUMPDEST PUSH1 0x0 DUP1 REVERT JUMPDEST PUSH2 0x9C PUSH1 0x4 DUP1 CALLDATASIZE SUB DUP2 ADD SWAP1 PUSH2 0x97 SWAP2 SWAP1 PUSH2 0x6B5 JUMP JUMPDEST PUSH2 0x15E JUMP JUMPDEST PUSH1 0x40 MLOAD PUSH2 0xA9 SWAP2 SWAP1 PUSH2 0x80C JUMP JUMPDEST PUSH1 0x40 MLOAD DUP1 SWAP2 SUB SWAP1 RETURN JUMPDEST PUSH2 0xCC PUSH1 0x4 DUP1 CALLDATASIZE SUB DUP2 ADD SWAP1 PUSH2 0xC7 SWAP2 SWAP1 PUSH2 0x722 JUMP JUMPDEST PUSH2 0x1C7 JUMP JUMPDEST STOP JUMPDEST PUSH2 0xD6 PUSH2 0x227 JUMP JUMPDEST STOP JUMPDEST PUSH2 0xF2 PUSH1 0x4 DUP1 CALLDATASIZE SUB DUP2 ADD SWAP1 PUSH2 0xED SWAP2 SWAP1 PUSH2 0x6E2 JUMP JUMPDEST PUSH2 0x23B JUMP JUMPDEST STOP JUMPDEST PUSH2 0xFC PUSH2 0x2C5 JUMP JUMPDEST PUSH1 0x40 MLOAD PUSH2 0x109 SWAP2 SWAP1 PUSH2 0x80C JUMP JUMPDEST PUSH1 0x40 MLOAD DUP1 SWAP2 SUB SWAP1 RETURN JUMPDEST PUSH2 0x12C PUSH1 0x4 DUP1 CALLDATASIZE SUB DUP2 ADD SWAP1 PUSH2 0x127 SWAP2 SWAP1 PUSH2 0x6B5 JUMP JUMPDEST PUSH2 0x2EE JUMP JUMPDEST PUSH1 0x40 MLOAD PUSH2 0x139 SWAP2 SWAP1 PUSH2 0x827 JUMP JUMPDEST PUSH1 0x40 MLOAD DUP1 SWAP2 SUB SWAP1 RETURN JUMPDEST PUSH2 0x15C PUSH1 0x4 DUP1 CALLDATASIZE SUB DUP2 ADD SWAP1 PUSH2 0x157 SWAP2 SWAP1 PUSH2 0x6B5 JUMP JUMPDEST PUSH2 0x3BF JUMP JUMPDEST STOP JUMPDEST PUSH1 0x0 PUSH1 0x2 PUSH1 0x0 DUP4 PUSH20 0xFFFFFFFFFFFFFFFFFFFFFFFFFFFFFFFFFFFFFFFF AND PUSH20 0xFFFFFFFFFFFFFFFFFFFFFFFFFFFFFFFFFFFFFFFF AND DUP2 MSTORE PUSH1 0x20 ADD SWAP1 DUP2 MSTORE PUSH1 0x20 ADD PUSH1 0x0 KECCAK256 PUSH1 0x0 SWAP1 SLOAD SWAP1 PUSH2 0x100 EXP SWAP1 DIV PUSH20 0xFFFFFFFFFFFFFFFFFFFFFFFFFFFFFFFFFFFFFFFF AND SWAP1 POP SWAP2 SWAP1 POP JUMP JUMPDEST PUSH2 0x1CF PUSH2 0x443 JUMP JUMPDEST DUP1 PUSH1 0x1 PUSH1 0x0 DUP5 PUSH20 0xFFFFFFFFFFFFFFFFFFFFFFFFFFFFFFFFFFFFFFFF AND PUSH20 0xFFFFFFFFFFFFFFFFFFFFFFFFFFFFFFFFFFFFFFFF AND DUP2 MSTORE PUSH1 0x20 ADD SWAP1 DUP2 MSTORE PUSH1 0x20 ADD PUSH1 0x0 KECCAK256 SWAP1 DUP1 MLOAD SWAP1 PUSH1 0x20 ADD SWAP1 PUSH2 0x222 SWAP3 SWAP2 SWAP1 PUSH2 0x58D JUMP JUMPDEST POP POP POP JUMP JUMPDEST PUSH2 0x22F PUSH2 0x443 JUMP JUMPDEST PUSH2 0x239 PUSH1 0x0 PUSH2 0x4C1 JUMP JUMPDEST JUMP JUMPDEST PUSH2 0x243 PUSH2 0x443 JUMP JUMPDEST DUP1 PUSH1 0x2 PUSH1 0x0 DUP5 PUSH20 0xFFFFFFFFFFFFFFFFFFFFFFFFFFFFFFFFFFFFFFFF AND PUSH20 0xFFFFFFFFFFFFFFFFFFFFFFFFFFFFFFFFFFFFFFFF AND DUP2 MSTORE PUSH1 0x20 ADD SWAP1 DUP2 MSTORE PUSH1 0x20 ADD PUSH1 0x0 KECCAK256 PUSH1 0x0 PUSH2 0x100 EXP DUP2 SLOAD DUP2 PUSH20 0xFFFFFFFFFFFFFFFFFFFFFFFFFFFFFFFFFFFFFFFF MUL NOT AND SWAP1 DUP4 PUSH20 0xFFFFFFFFFFFFFFFFFFFFFFFFFFFFFFFFFFFFFFFF AND MUL OR SWAP1 SSTORE POP POP POP JUMP JUMPDEST PUSH1 0x0 DUP1 PUSH1 0x0 SWAP1 SLOAD SWAP1 PUSH2 0x100 EXP SWAP1 DIV PUSH20 0xFFFFFFFFFFFFFFFFFFFFFFFFFFFFFFFFFFFFFFFF AND SWAP1 POP SWAP1 JUMP JUMPDEST PUSH1 0x60 PUSH1 0x1 PUSH1 0x0 DUP4 PUSH20 0xFFFFFFFFFFFFFFFFFFFFFFFFFFFFFFFFFFFFFFFF AND PUSH20 0xFFFFFFFFFFFFFFFFFFFFFFFFFFFFFFFFFFFFFFFF AND DUP2 MSTORE PUSH1 0x20 ADD SWAP1 DUP2 MSTORE PUSH1 0x20 ADD PUSH1 0x0 KECCAK256 DUP1 SLOAD PUSH2 0x33A SWAP1 PUSH2 0x96F JUMP JUMPDEST DUP1 PUSH1 0x1F ADD PUSH1 0x20 DUP1 SWAP2 DIV MUL PUSH1 0x20 ADD PUSH1 0x40 MLOAD SWAP1 DUP2 ADD PUSH1 0x40 MSTORE DUP1 SWAP3 SWAP2 SWAP1 DUP2 DUP2 MSTORE PUSH1 0x20 ADD DUP3 DUP1 SLOAD PUSH2 0x366 SWAP1 PUSH2 0x96F JUMP JUMPDEST DUP1 ISZERO PUSH2 0x3B3 JUMPI DUP1 PUSH1 0x1F LT PUSH2 0x388 JUMPI PUSH2 0x100 DUP1 DUP4 SLOAD DIV MUL DUP4 MSTORE SWAP2 PUSH1 0x20 ADD SWAP2 PUSH2 0x3B3 JUMP JUMPDEST DUP3 ADD SWAP2 SWAP1 PUSH1 0x0 MSTORE PUSH1 0x20 PUSH1 0x0 KECCAK256 SWAP1 JUMPDEST DUP2 SLOAD DUP2 MSTORE SWAP1 PUSH1 0x1 ADD SWAP1 PUSH1 0x20 ADD DUP1 DUP4 GT PUSH2 0x396 JUMPI DUP3 SWAP1 SUB PUSH1 0x1F AND DUP3 ADD SWAP2 JUMPDEST POP POP POP POP POP SWAP1 POP SWAP2 SWAP1 POP JUMP JUMPDEST PUSH2 0x3C7 PUSH2 0x443 JUMP JUMPDEST PUSH1 0x0 PUSH20 0xFFFFFFFFFFFFFFFFFFFFFFFFFFFFFFFFFFFFFFFF AND DUP2 PUSH20 0xFFFFFFFFFFFFFFFFFFFFFFFFFFFFFFFFFFFFFFFF AND EQ ISZERO PUSH2 0x437 JUMPI PUSH1 0x40 MLOAD PUSH32 0x8C379A000000000000000000000000000000000000000000000000000000000 DUP2 MSTORE PUSH1 0x4 ADD PUSH2 0x42E SWAP1 PUSH2 0x849 JUMP JUMPDEST PUSH1 0x40 MLOAD DUP1 SWAP2 SUB SWAP1 REVERT JUMPDEST PUSH2 0x440 DUP2 PUSH2 0x4C1 JUMP JUMPDEST POP JUMP JUMPDEST PUSH2 0x44B PUSH2 0x585 JUMP JUMPDEST PUSH20 0xFFFFFFFFFFFFFFFFFFFFFFFFFFFFFFFFFFFFFFFF AND PUSH2 0x469 PUSH2 0x2C5 JUMP JUMPDEST PUSH20 0xFFFFFFFFFFFFFFFFFFFFFFFFFFFFFFFFFFFFFFFF AND EQ PUSH2 0x4BF JUMPI PUSH1 0x40 MLOAD PUSH32 0x8C379A000000000000000000000000000000000000000000000000000000000 DUP2 MSTORE PUSH1 0x4 ADD PUSH2 0x4B6 SWAP1 PUSH2 0x869 JUMP JUMPDEST PUSH1 0x40 MLOAD DUP1 SWAP2 SUB SWAP1 REVERT JUMPDEST JUMP JUMPDEST PUSH1 0x0 DUP1 PUSH1 0x0 SWAP1 SLOAD SWAP1 PUSH2 0x100 EXP SWAP1 DIV PUSH20 0xFFFFFFFFFFFFFFFFFFFFFFFFFFFFFFFFFFFFFFFF AND SWAP1 POP DUP2 PUSH1 0x0 DUP1 PUSH2 0x100 EXP DUP2 SLOAD DUP2 PUSH20 0xFFFFFFFFFFFFFFFFFFFFFFFFFFFFFFFFFFFFFFFF MUL NOT AND SWAP1 DUP4 PUSH20 0xFFFFFFFFFFFFFFFFFFFFFFFFFFFFFFFFFFFFFFFF AND MUL OR SWAP1 SSTORE POP DUP2 PUSH20 0xFFFFFFFFFFFFFFFFFFFFFFFFFFFFFFFFFFFFFFFF AND DUP2 PUSH20 0xFFFFFFFFFFFFFFFFFFFFFFFFFFFFFFFFFFFFFFFF AND PUSH32 0x8BE0079C531659141344CD1FD0A4F28419497F9722A3DAAFE3B4186F6B6457E0 PUSH1 0x40 MLOAD PUSH1 0x40 MLOAD DUP1 SWAP2 SUB SWAP1 LOG3 POP POP JUMP JUMPDEST PUSH1 0x0 CALLER SWAP1 POP SWAP1 JUMP JUMPDEST DUP3 DUP1 SLOAD PUSH2 0x599 SWAP1 PUSH2 0x96F JUMP JUMPDEST SWAP1 PUSH1 0x0 MSTORE PUSH1 0x20 PUSH1 0x0 KECCAK256 SWAP1 PUSH1 0x1F ADD PUSH1 0x20 SWAP1 DIV DUP2 ADD SWAP3 DUP3 PUSH2 0x5BB JUMPI PUSH1 0x0 DUP6 SSTORE PUSH2 0x602 JUMP JUMPDEST DUP3 PUSH1 0x1F LT PUSH2 0x5D4 JUMPI DUP1 MLOAD PUSH1 0xFF NOT AND DUP4 DUP1 ADD OR DUP6 SSTORE PUSH2 0x602 JUMP JUMPDEST DUP3 DUP1 ADD PUSH1 0x1 ADD DUP6 SSTORE DUP3 ISZERO PUSH2 0x602 JUMPI SWAP2 DUP3 ADD JUMPDEST DUP3 DUP2 GT ISZERO PUSH2 0x601 JUMPI DUP3 MLOAD DUP3 SSTORE SWAP2 PUSH1 0x20 ADD SWAP2 SWAP1 PUSH1 0x1 ADD SWAP1 PUSH2 0x5E6 JUMP JUMPDEST JUMPDEST POP SWAP1 POP PUSH2 0x60F SWAP2 SWAP1 PUSH2 0x613 JUMP JUMPDEST POP SWAP1 JUMP JUMPDEST JUMPDEST DUP1 DUP3 GT ISZERO PUSH2 0x62C JUMPI PUSH1 0x0 DUP2 PUSH1 0x0 SWAP1 SSTORE POP PUSH1 0x1 ADD PUSH2 0x614 JUMP JUMPDEST POP SWAP1 JUMP JUMPDEST PUSH1 0x0 PUSH2 0x643 PUSH2 0x63E DUP5 PUSH2 0x8AE JUMP JUMPDEST PUSH2 0x889 JUMP JUMPDEST SWAP1 POP DUP3 DUP2 MSTORE PUSH1 0x20 DUP2 ADD DUP5 DUP5 DUP5 ADD GT ISZERO PUSH2 0x65F JUMPI PUSH2 0x65E PUSH2 0xA35 JUMP JUMPDEST JUMPDEST PUSH2 0x66A DUP5 DUP3 DUP6 PUSH2 0x92D JUMP JUMPDEST POP SWAP4 SWAP3 POP POP POP JUMP JUMPDEST PUSH1 0x0 DUP2 CALLDATALOAD SWAP1 POP PUSH2 0x681 DUP2 PUSH2 0xACD JUMP JUMPDEST SWAP3 SWAP2 POP POP JUMP JUMPDEST PUSH1 0x0 DUP3 PUSH1 0x1F DUP4 ADD SLT PUSH2 0x69C JUMPI PUSH2 0x69B PUSH2 0xA30 JUMP JUMPDEST JUMPDEST DUP2 CALLDATALOAD PUSH2 0x6AC DUP5 DUP3 PUSH1 0x20 DUP7 ADD PUSH2 0x630 JUMP JUMPDEST SWAP2 POP POP SWAP3 SWAP2 POP POP JUMP JUMPDEST PUSH1 0x0 PUSH1 0x20 DUP3 DUP5 SUB SLT ISZERO PUSH2 0x6CB JUMPI PUSH2 0x6CA PUSH2 0xA3F JUMP JUMPDEST JUMPDEST PUSH1 0x0 PUSH2 0x6D9 DUP5 DUP3 DUP6 ADD PUSH2 0x672 JUMP JUMPDEST SWAP2 POP POP SWAP3 SWAP2 POP POP JUMP JUMPDEST PUSH1 0x0 DUP1 PUSH1 0x40 DUP4 DUP6 SUB SLT ISZERO PUSH2 0x6F9 JUMPI PUSH2 0x6F8 PUSH2 0xA3F JUMP JUMPDEST JUMPDEST PUSH1 0x0 PUSH2 0x707 DUP6 DUP3 DUP7 ADD PUSH2 0x672 JUMP JUMPDEST SWAP3 POP POP PUSH1 0x20 PUSH2 0x718 DUP6 DUP3 DUP7 ADD PUSH2 0x672 JUMP JUMPDEST SWAP2 POP POP SWAP3 POP SWAP3 SWAP1 POP JUMP JUMPDEST PUSH1 0x0 DUP1 PUSH1 0x40 DUP4 DUP6 SUB SLT ISZERO PUSH2 0x739 JUMPI PUSH2 0x738 PUSH2 0xA3F JUMP JUMPDEST JUMPDEST PUSH1 0x0 PUSH2 0x747 DUP6 DUP3 DUP7 ADD PUSH2 0x672 JUMP JUMPDEST SWAP3 POP POP PUSH1 0x20 DUP4 ADD CALLDATALOAD PUSH8 0xFFFFFFFFFFFFFFFF DUP2 GT ISZERO PUSH2 0x768 JUMPI PUSH2 0x767 PUSH2 0xA3A JUMP JUMPDEST JUMPDEST PUSH2 0x774 DUP6 DUP3 DUP7 ADD PUSH2 0x687 JUMP JUMPDEST SWAP2 POP POP SWAP3 POP SWAP3 SWAP1 POP JUMP JUMPDEST PUSH2 0x787 DUP2 PUSH2 0x8FB JUMP JUMPDEST DUP3 MSTORE POP POP JUMP JUMPDEST PUSH1 0x0 PUSH2 0x798 DUP3 PUSH2 0x8DF JUMP JUMPDEST PUSH2 0x7A2 DUP2 DUP6 PUSH2 0x8EA JUMP JUMPDEST SWAP4 POP PUSH2 0x7B2 DUP2 DUP6 PUSH1 0x20 DUP7 ADD PUSH2 0x93C JUMP JUMPDEST PUSH2 0x7BB DUP2 PUSH2 0xA44 JUMP JUMPDEST DUP5 ADD SWAP2 POP POP SWAP3 SWAP2 POP POP JUMP JUMPDEST PUSH1 0x0 PUSH2 0x7D3 PUSH1 0x26 DUP4 PUSH2 0x8EA JUMP JUMPDEST SWAP2 POP PUSH2 0x7DE DUP3 PUSH2 0xA55 JUMP JUMPDEST PUSH1 0x40 DUP3 ADD SWAP1 POP SWAP2 SWAP1 POP JUMP JUMPDEST PUSH1 0x0 PUSH2 0x7F6 PUSH1 0x20 DUP4 PUSH2 0x8EA JUMP JUMPDEST SWAP2 POP PUSH2 0x801 DUP3 PUSH2 0xAA4 JUMP JUMPDEST PUSH1 0x20 DUP3 ADD SWAP1 POP SWAP2 SWAP1 POP JUMP JUMPDEST PUSH1 0x0 PUSH1 0x20 DUP3 ADD SWAP1 POP PUSH2 0x821 PUSH1 0x0 DUP4 ADD DUP5 PUSH2 0x77E JUMP JUMPDEST SWAP3 SWAP2 POP POP JUMP JUMPDEST PUSH1 0x0 PUSH1 0x20 DUP3 ADD SWAP1 POP DUP2 DUP2 SUB PUSH1 0x0 DUP4 ADD MSTORE PUSH2 0x841 DUP2 DUP5 PUSH2 0x78D JUMP JUMPDEST SWAP1 POP SWAP3 SWAP2 POP POP JUMP JUMPDEST PUSH1 0x0 PUSH1 0x20 DUP3 ADD SWAP1 POP DUP2 DUP2 SUB PUSH1 0x0 DUP4 ADD MSTORE PUSH2 0x862 DUP2 PUSH2 0x7C6 JUMP JUMPDEST SWAP1 POP SWAP2 SWAP1 POP JUMP JUMPDEST PUSH1 0x0 PUSH1 0x20 DUP3 ADD SWAP1 POP DUP2 DUP2 SUB PUSH1 0x0 DUP4 ADD MSTORE PUSH2 0x882 DUP2 PUSH2 0x7E9 JUMP JUMPDEST SWAP1 POP SWAP2 SWAP1 POP JUMP JUMPDEST PUSH1 0x0 PUSH2 0x893 PUSH2 0x8A4 JUMP JUMPDEST SWAP1 POP PUSH2 0x89F DUP3 DUP3 PUSH2 0x9A1 JUMP JUMPDEST SWAP2 SWAP1 POP JUMP JUMPDEST PUSH1 0x0 PUSH1 0x40 MLOAD SWAP1 POP SWAP1 JUMP JUMPDEST PUSH1 0x0 PUSH8 0xFFFFFFFFFFFFFFFF DUP3 GT ISZERO PUSH2 0x8C9 JUMPI PUSH2 0x8C8 PUSH2 0xA01 JUMP JUMPDEST JUMPDEST PUSH2 0x8D2 DUP3 PUSH2 0xA44 JUMP JUMPDEST SWAP1 POP PUSH1 0x20 DUP2 ADD SWAP1 POP SWAP2 SWAP1 POP JUMP JUMPDEST PUSH1 0x0 DUP2 MLOAD SWAP1 POP SWAP2 SWAP1 POP JUMP JUMPDEST PUSH1 0x0 DUP3 DUP3 MSTORE PUSH1 0x20 DUP3 ADD SWAP1 POP SWAP3 SWAP2 POP POP JUMP JUMPDEST PUSH1 0x0 PUSH2 0x906 DUP3 PUSH2 0x90D JUMP JUMPDEST SWAP1 POP SWAP2 SWAP1 POP JUMP JUMPDEST PUSH1 0x0 PUSH20 0xFFFFFFFFFFFFFFFFFFFFFFFFFFFFFFFFFFFFFFFF DUP3 AND SWAP1 POP SWAP2 SWAP1 POP JUMP JUMPDEST DUP3 DUP2 DUP4 CALLDATACOPY PUSH1 0x0 DUP4 DUP4 ADD MSTORE POP POP POP JUMP JUMPDEST PUSH1 0x0 JUMPDEST DUP4 DUP2 LT ISZERO PUSH2 0x95A JUMPI DUP1 DUP3 ADD MLOAD DUP2 DUP5 ADD MSTORE PUSH1 0x20 DUP2 ADD SWAP1 POP PUSH2 0x93F JUMP JUMPDEST DUP4 DUP2 GT ISZERO PUSH2 0x969 JUMPI PUSH1 0x0 DUP5 DUP5 ADD MSTORE JUMPDEST POP POP POP POP JUMP JUMPDEST PUSH1 0x0 PUSH1 0x2 DUP3 DIV SWAP1 POP PUSH1 0x1 DUP3 AND DUP1 PUSH2 0x987 JUMPI PUSH1 0x7F DUP3 AND SWAP2 POP JUMPDEST PUSH1 0x20 DUP3 LT DUP2 EQ ISZERO PUSH2 0x99B JUMPI PUSH2 0x99A PUSH2 0x9D2 JUMP JUMPDEST JUMPDEST POP SWAP2 SWAP1 POP JUMP JUMPDEST PUSH2 0x9AA DUP3 PUSH2 0xA44 JUMP JUMPDEST DUP2 ADD DUP2 DUP2 LT PUSH8 0xFFFFFFFFFFFFFFFF DUP3 GT OR ISZERO PUSH2 0x9C9 JUMPI PUSH2 0x9C8 PUSH2 0xA01 JUMP JUMPDEST JUMPDEST DUP1 PUSH1 0x40 MSTORE POP POP POP JUMP JUMPDEST PUSH32 0x4E487B7100000000000000000000000000000000000000000000000000000000 PUSH1 0x0 MSTORE PUSH1 0x22 PUSH1 0x4 MSTORE PUSH1 0x24 PUSH1 0x0 REVERT JUMPDEST PUSH32 0x4E487B7100000000000000000000000000000000000000000000000000000000 PUSH1 0x0 MSTORE PUSH1 0x41 PUSH1 0x4 MSTORE PUSH1 0x24 PUSH1 0x0 REVERT JUMPDEST PUSH1 0x0 DUP1 REVERT JUMPDEST PUSH1 0x0 DUP1 REVERT JUMPDEST PUSH1 0x0 DUP1 REVERT JUMPDEST PUSH1 0x0 DUP1 REVERT JUMPDEST PUSH1 0x0 PUSH1 0x1F NOT PUSH1 0x1F DUP4 ADD AND SWAP1 POP SWAP2 SWAP1 POP JUMP JUMPDEST PUSH32 0x4F776E61626C653A206E6577206F776E657220697320746865207A65726F2061 PUSH1 0x0 DUP3 ADD MSTORE PUSH32 0x6464726573730000000000000000000000000000000000000000000000000000 PUSH1 0x20 DUP3 ADD MSTORE POP JUMP JUMPDEST PUSH32 0x4F776E61626C653A2063616C6C6572206973206E6F7420746865206F776E6572 PUSH1 0x0 DUP3 ADD MSTORE POP JUMP JUMPDEST PUSH2 0xAD6 DUP2 PUSH2 0x8FB JUMP JUMPDEST DUP2 EQ PUSH2 0xAE1 JUMPI PUSH1 0x0 DUP1 REVERT JUMPDEST POP JUMP INVALID LOG2 PUSH5 0x6970667358 0x22 SLT KECCAK256 0xCF 0xCA 0xED EXP DUP8 0xC8 DUP12 0xFB 0xB2 0xD4 RETURNDATASIZE 0xB6 0xEC PC 0xC7 PUSH21 0x7F3BBC2AA0ADE5FDD9B3C4176253A0A264736F6C63 NUMBER STOP ADDMOD SMOD STOP CALLER "
				},
				"gasEstimates": {
					"creation": {
						"codeDepositCost": "568400",
						"executionCost": "infinite",
						"totalCost": "infinite"
					},
					"external": {
						"_setAddress(address,string)": "infinite",
						"_setPriceFeedMap(address,address)": "infinite",
						"getAddress(address)": "infinite",
						"getPriceFeedMap(address)": "infinite",
						"owner()": "2544",
						"renounceOwnership()": "30443",
						"transferOwnership(address)": "30813"
					}
				},
				"methodIdentifiers": {
					"_setAddress(address,string)": "38f6d543",
					"_setPriceFeedMap(address,address)": "78c2cc51",
					"getAddress(address)": "ae22c57d",
					"getPriceFeedMap(address)": "281d6ea9",
					"owner()": "8da5cb5b",
					"renounceOwnership()": "715018a6",
					"transferOwnership(address)": "f2fde38b"
				}
			},
			"storageLayout": {
				"storage": [
					{
						"astId": 7,
						"contract": "Defi-project/V2_updated_27_02/AddressToTokenMap.sol:AddressToTokenMap",
						"label": "_owner",
						"offset": 0,
						"slot": "0",
						"type": "t_address"
					},
					{
						"astId": 143,
						"contract": "Defi-project/V2_updated_27_02/AddressToTokenMap.sol:AddressToTokenMap",
						"label": "addresses",
						"offset": 0,
						"slot": "1",
						"type": "t_mapping(t_address,t_string_storage)"
					},
					{
						"astId": 147,
						"contract": "Defi-project/V2_updated_27_02/AddressToTokenMap.sol:AddressToTokenMap",
						"label": "priceFeedMap",
						"offset": 0,
						"slot": "2",
						"type": "t_mapping(t_address,t_address)"
					}
				],
				"types": {
					"t_address": {
						"encoding": "inplace",
						"label": "address",
						"numberOfBytes": "20"
					},
					"t_mapping(t_address,t_address)": {
						"encoding": "mapping",
						"key": "t_address",
						"label": "mapping(address => address)",
						"numberOfBytes": "32",
						"value": "t_address"
					},
					"t_mapping(t_address,t_string_storage)": {
						"encoding": "mapping",
						"key": "t_address",
						"label": "mapping(address => string)",
						"numberOfBytes": "32",
						"value": "t_string_storage"
					},
					"t_string_storage": {
						"encoding": "bytes",
						"label": "string",
						"numberOfBytes": "32"
					}
				}
			},
			"userdoc": {
				"kind": "user",
				"methods": {},
				"version": 1
			}
		}
	}
}