{
	"Defi-project/V2_updated_27_02/LendingPoolAddressProvider.sol": {
		"LendingPoolAddressProvider": {
			"abi": [
				{
					"anonymous": false,
					"inputs": [
						{
							"indexed": true,
							"internalType": "address",
							"name": "previousOwner",
							"type": "address"
						},
						{
							"indexed": true,
							"internalType": "address",
							"name": "newOwner",
							"type": "address"
						}
					],
					"name": "OwnershipTransferred",
					"type": "event"
				},
				{
					"inputs": [
						{
							"internalType": "bytes32",
							"name": "_key",
							"type": "bytes32"
						}
					],
					"name": "getAddress",
					"outputs": [
						{
							"internalType": "address",
							"name": "",
							"type": "address"
						}
					],
					"stateMutability": "view",
					"type": "function"
				},
				{
					"inputs": [],
					"name": "getLendingPool",
					"outputs": [
						{
							"internalType": "address",
							"name": "",
							"type": "address"
						}
					],
					"stateMutability": "view",
					"type": "function"
				},
				{
					"inputs": [
						{
							"internalType": "address",
							"name": "_dataProvider",
							"type": "address"
						}
					],
					"name": "getLendingPoolDataProvider",
					"outputs": [],
					"stateMutability": "nonpayable",
					"type": "function"
				},
				{
					"inputs": [],
					"name": "getLendingPoolDataProvider",
					"outputs": [
						{
							"internalType": "address",
							"name": "",
							"type": "address"
						}
					],
					"stateMutability": "view",
					"type": "function"
				},
				{
					"inputs": [],
					"name": "owner",
					"outputs": [
						{
							"internalType": "address",
							"name": "",
							"type": "address"
						}
					],
					"stateMutability": "view",
					"type": "function"
				},
				{
					"inputs": [],
					"name": "renounceOwnership",
					"outputs": [],
					"stateMutability": "nonpayable",
					"type": "function"
				},
				{
					"inputs": [
						{
							"internalType": "address",
							"name": "_lendingPool",
							"type": "address"
						}
					],
					"name": "setLendingPool",
					"outputs": [],
					"stateMutability": "nonpayable",
					"type": "function"
				},
				{
					"inputs": [
						{
							"internalType": "address",
							"name": "newOwner",
							"type": "address"
						}
					],
					"name": "transferOwnership",
					"outputs": [],
					"stateMutability": "nonpayable",
					"type": "function"
				}
			],
			"devdoc": {
				"kind": "dev",
				"methods": {
					"getLendingPool()": {
						"details": "returns the address of the LendingPool ",
						"returns": {
							"_0": "the lending pool address*"
						}
					},
					"getLendingPoolDataProvider()": {
						"details": "returns the address of the LendingPoolDataProvider",
						"returns": {
							"_0": "the lending pool data provider address"
						}
					},
					"owner()": {
						"details": "Returns the address of the current owner."
					},
					"renounceOwnership()": {
						"details": "Leaves the contract without owner. It will not be possible to call `onlyOwner` functions anymore. Can only be called by the current owner. NOTE: Renouncing ownership will leave the contract without an owner, thereby removing any functionality that is only available to the owner."
					},
					"transferOwnership(address)": {
						"details": "Transfers ownership of the contract to a new account (`newOwner`). Can only be called by the current owner."
					}
				},
				"version": 1
			},
			"evm": {
				"assembly": "    /* \"Defi-project/V2_updated_27_02/LendingPoolAddressProvider.sol\":148:1336  contract LendingPoolAddressProvider is Ownable, AddressStorage {\r... */\n  mstore(0x40, 0x80)\n  callvalue\n  dup1\n  iszero\n  tag_1\n  jumpi\n  0x00\n  dup1\n  revert\ntag_1:\n  pop\n    /* \"@openzeppelin/contracts/access/Ownable.sol\":936:968  _transferOwnership(_msgSender()) */\n  tag_4\n    /* \"@openzeppelin/contracts/access/Ownable.sol\":955:967  _msgSender() */\n  tag_5\n    /* \"@openzeppelin/contracts/access/Ownable.sol\":955:965  _msgSender */\n  shl(0x20, tag_6)\n    /* \"@openzeppelin/contracts/access/Ownable.sol\":955:967  _msgSender() */\n  0x20\n  shr\n  jump\t// in\ntag_5:\n    /* \"@openzeppelin/contracts/access/Ownable.sol\":936:954  _transferOwnership */\n  shl(0x20, tag_7)\n    /* \"@openzeppelin/contracts/access/Ownable.sol\":936:968  _transferOwnership(_msgSender()) */\n  0x20\n  shr\n  jump\t// in\ntag_4:\n    /* \"Defi-project/V2_updated_27_02/LendingPoolAddressProvider.sol\":148:1336  contract LendingPoolAddressProvider is Ownable, AddressStorage {\r... */\n  jump(tag_8)\n    /* \"@openzeppelin/contracts/utils/Context.sol\":640:736  function _msgSender() internal view virtual returns (address) {... */\ntag_6:\n    /* \"@openzeppelin/contracts/utils/Context.sol\":693:700  address */\n  0x00\n    /* \"@openzeppelin/contracts/utils/Context.sol\":719:729  msg.sender */\n  caller\n    /* \"@openzeppelin/contracts/utils/Context.sol\":712:729  return msg.sender */\n  swap1\n  pop\n    /* \"@openzeppelin/contracts/utils/Context.sol\":640:736  function _msgSender() internal view virtual returns (address) {... */\n  swap1\n  jump\t// out\n    /* \"@openzeppelin/contracts/access/Ownable.sol\":2433:2620  function _transferOwnership(address newOwner) internal virtual {... */\ntag_7:\n    /* \"@openzeppelin/contracts/access/Ownable.sol\":2506:2522  address oldOwner */\n  0x00\n    /* \"@openzeppelin/contracts/access/Ownable.sol\":2525:2531  _owner */\n  dup1\n  0x00\n  swap1\n  sload\n  swap1\n  0x0100\n  exp\n  swap1\n  div\n  0xffffffffffffffffffffffffffffffffffffffff\n  and\n    /* \"@openzeppelin/contracts/access/Ownable.sol\":2506:2531  address oldOwner = _owner */\n  swap1\n  pop\n    /* \"@openzeppelin/contracts/access/Ownable.sol\":2550:2558  newOwner */\n  dup2\n    /* \"@openzeppelin/contracts/access/Ownable.sol\":2541:2547  _owner */\n  0x00\n  dup1\n    /* \"@openzeppelin/contracts/access/Ownable.sol\":2541:2558  _owner = newOwner */\n  0x0100\n  exp\n  dup2\n  sload\n  dup2\n  0xffffffffffffffffffffffffffffffffffffffff\n  mul\n  not\n  and\n  swap1\n  dup4\n  0xffffffffffffffffffffffffffffffffffffffff\n  and\n  mul\n  or\n  swap1\n  sstore\n  pop\n    /* \"@openzeppelin/contracts/access/Ownable.sol\":2604:2612  newOwner */\n  dup2\n    /* \"@openzeppelin/contracts/access/Ownable.sol\":2573:2613  OwnershipTransferred(oldOwner, newOwner) */\n  0xffffffffffffffffffffffffffffffffffffffff\n  and\n    /* \"@openzeppelin/contracts/access/Ownable.sol\":2594:2602  oldOwner */\n  dup2\n    /* \"@openzeppelin/contracts/access/Ownable.sol\":2573:2613  OwnershipTransferred(oldOwner, newOwner) */\n  0xffffffffffffffffffffffffffffffffffffffff\n  and\n  0x8be0079c531659141344cd1fd0a4f28419497f9722a3daafe3b4186f6b6457e0\n  mload(0x40)\n  mload(0x40)\n  dup1\n  swap2\n  sub\n  swap1\n  log3\n    /* \"@openzeppelin/contracts/access/Ownable.sol\":2496:2620  {... */\n  pop\n    /* \"@openzeppelin/contracts/access/Ownable.sol\":2433:2620  function _transferOwnership(address newOwner) internal virtual {... */\n  pop\n  jump\t// out\n    /* \"Defi-project/V2_updated_27_02/LendingPoolAddressProvider.sol\":148:1336  contract LendingPoolAddressProvider is Ownable, AddressStorage {\r... */\ntag_8:\n  dataSize(sub_0)\n  dup1\n  dataOffset(sub_0)\n  0x00\n  codecopy\n  0x00\n  return\nstop\n\nsub_0: assembly {\n        /* \"Defi-project/V2_updated_27_02/LendingPoolAddressProvider.sol\":148:1336  contract LendingPoolAddressProvider is Ownable, AddressStorage {\r... */\n      mstore(0x40, 0x80)\n      callvalue\n      dup1\n      iszero\n      tag_1\n      jumpi\n      0x00\n      dup1\n      revert\n    tag_1:\n      pop\n      jumpi(tag_2, lt(calldatasize, 0x04))\n      shr(0xe0, calldataload(0x00))\n      dup1\n      0x2f58b80d\n      gt\n      tag_11\n      jumpi\n      dup1\n      0x2f58b80d\n      eq\n      tag_7\n      jumpi\n      dup1\n      0x715018a6\n      eq\n      tag_8\n      jumpi\n      dup1\n      0x8da5cb5b\n      eq\n      tag_9\n      jumpi\n      dup1\n      0xf2fde38b\n      eq\n      tag_10\n      jumpi\n      jump(tag_2)\n    tag_11:\n      dup1\n      0x0261bf8b\n      eq\n      tag_3\n      jumpi\n      dup1\n      0x0eb84859\n      eq\n      tag_4\n      jumpi\n      dup1\n      0x113aa8b1\n      eq\n      tag_5\n      jumpi\n      dup1\n      0x21f8a721\n      eq\n      tag_6\n      jumpi\n    tag_2:\n      0x00\n      dup1\n      revert\n        /* \"Defi-project/V2_updated_27_02/LendingPoolAddressProvider.sol\":765:871  function getLendingPool() public view returns (address) {\r... */\n    tag_3:\n      tag_12\n      tag_13\n      jump\t// in\n    tag_12:\n      mload(0x40)\n      tag_14\n      swap2\n      swap1\n      tag_15\n      jump\t// in\n    tag_14:\n      mload(0x40)\n      dup1\n      swap2\n      sub\n      swap1\n      return\n        /* \"Defi-project/V2_updated_27_02/LendingPoolAddressProvider.sol\":879:1071  function getLendingPoolDataProvider(address _dataProvider) public onlyOwner {\r... */\n    tag_4:\n      tag_16\n      0x04\n      dup1\n      calldatasize\n      sub\n      dup2\n      add\n      swap1\n      tag_17\n      swap2\n      swap1\n      tag_18\n      jump\t// in\n    tag_17:\n      tag_19\n      jump\t// in\n    tag_16:\n      stop\n        /* \"Defi-project/V2_updated_27_02/LendingPoolAddressProvider.sol\":482:647  function setLendingPool(address _lendingPool) public onlyOwner {\r... */\n    tag_5:\n      tag_20\n      0x04\n      dup1\n      calldatasize\n      sub\n      dup2\n      add\n      swap1\n      tag_21\n      swap2\n      swap1\n      tag_18\n      jump\t// in\n    tag_21:\n      tag_22\n      jump\t// in\n    tag_20:\n      stop\n        /* \"Defi-project/V2_updated_27_02/AddressStorage.sol\":145:250  function getAddress(bytes32 _key) public view returns (address) {\r... */\n    tag_6:\n      tag_23\n      0x04\n      dup1\n      calldatasize\n      sub\n      dup2\n      add\n      swap1\n      tag_24\n      swap2\n      swap1\n      tag_25\n      jump\t// in\n    tag_24:\n      tag_26\n      jump\t// in\n    tag_23:\n      mload(0x40)\n      tag_27\n      swap2\n      swap1\n      tag_15\n      jump\t// in\n    tag_27:\n      mload(0x40)\n      dup1\n      swap2\n      sub\n      swap1\n      return\n        /* \"Defi-project/V2_updated_27_02/LendingPoolAddressProvider.sol\":1214:1333  function getLendingPoolDataProvider() public view returns (address) {\r... */\n    tag_7:\n      tag_28\n      tag_29\n      jump\t// in\n    tag_28:\n      mload(0x40)\n      tag_30\n      swap2\n      swap1\n      tag_15\n      jump\t// in\n    tag_30:\n      mload(0x40)\n      dup1\n      swap2\n      sub\n      swap1\n      return\n        /* \"@openzeppelin/contracts/access/Ownable.sol\":1831:1932  function renounceOwnership() public virtual onlyOwner {... */\n    tag_8:\n      tag_31\n      tag_32\n      jump\t// in\n    tag_31:\n      stop\n        /* \"@openzeppelin/contracts/access/Ownable.sol\":1201:1286  function owner() public view virtual returns (address) {... */\n    tag_9:\n      tag_33\n      tag_34\n      jump\t// in\n    tag_33:\n      mload(0x40)\n      tag_35\n      swap2\n      swap1\n      tag_15\n      jump\t// in\n    tag_35:\n      mload(0x40)\n      dup1\n      swap2\n      sub\n      swap1\n      return\n        /* \"@openzeppelin/contracts/access/Ownable.sol\":2081:2279  function transferOwnership(address newOwner) public virtual onlyOwner {... */\n    tag_10:\n      tag_36\n      0x04\n      dup1\n      calldatasize\n      sub\n      dup2\n      add\n      swap1\n      tag_37\n      swap2\n      swap1\n      tag_18\n      jump\t// in\n    tag_37:\n      tag_38\n      jump\t// in\n    tag_36:\n      stop\n        /* \"Defi-project/V2_updated_27_02/LendingPoolAddressProvider.sol\":765:871  function getLendingPool() public view returns (address) {\r... */\n    tag_13:\n        /* \"Defi-project/V2_updated_27_02/LendingPoolAddressProvider.sol\":812:819  address */\n      0x00\n        /* \"Defi-project/V2_updated_27_02/LendingPoolAddressProvider.sol\":839:863  getAddress(LENDING_POOL) */\n      tag_40\n        /* \"Defi-project/V2_updated_27_02/LendingPoolAddressProvider.sol\":850:862  LENDING_POOL */\n      0x4c454e44494e475f504f4f4c0000000000000000000000000000000000000000\n        /* \"Defi-project/V2_updated_27_02/LendingPoolAddressProvider.sol\":839:849  getAddress */\n      tag_26\n        /* \"Defi-project/V2_updated_27_02/LendingPoolAddressProvider.sol\":839:863  getAddress(LENDING_POOL) */\n      jump\t// in\n    tag_40:\n        /* \"Defi-project/V2_updated_27_02/LendingPoolAddressProvider.sol\":832:863  return getAddress(LENDING_POOL) */\n      swap1\n      pop\n        /* \"Defi-project/V2_updated_27_02/LendingPoolAddressProvider.sol\":765:871  function getLendingPool() public view returns (address) {\r... */\n      swap1\n      jump\t// out\n        /* \"Defi-project/V2_updated_27_02/LendingPoolAddressProvider.sol\":879:1071  function getLendingPoolDataProvider(address _dataProvider) public onlyOwner {\r... */\n    tag_19:\n        /* \"@openzeppelin/contracts/access/Ownable.sol\":1094:1107  _checkOwner() */\n      tag_42\n        /* \"@openzeppelin/contracts/access/Ownable.sol\":1094:1105  _checkOwner */\n      tag_43\n        /* \"@openzeppelin/contracts/access/Ownable.sol\":1094:1107  _checkOwner() */\n      jump\t// in\n    tag_42:\n        /* \"Defi-project/V2_updated_27_02/LendingPoolAddressProvider.sol\":966:1007  _setAddress(DATA_PROVIDER, _dataProvider) */\n      tag_45\n        /* \"Defi-project/V2_updated_27_02/LendingPoolAddressProvider.sol\":978:991  DATA_PROVIDER */\n      0x444154415f50524f564944455200000000000000000000000000000000000000\n        /* \"Defi-project/V2_updated_27_02/LendingPoolAddressProvider.sol\":993:1006  _dataProvider */\n      dup3\n        /* \"Defi-project/V2_updated_27_02/LendingPoolAddressProvider.sol\":966:977  _setAddress */\n      tag_46\n        /* \"Defi-project/V2_updated_27_02/LendingPoolAddressProvider.sol\":966:1007  _setAddress(DATA_PROVIDER, _dataProvider) */\n      jump\t// in\n    tag_45:\n        /* \"Defi-project/V2_updated_27_02/LendingPoolAddressProvider.sol\":879:1071  function getLendingPoolDataProvider(address _dataProvider) public onlyOwner {\r... */\n      pop\n      jump\t// out\n        /* \"Defi-project/V2_updated_27_02/LendingPoolAddressProvider.sol\":482:647  function setLendingPool(address _lendingPool) public onlyOwner {\r... */\n    tag_22:\n        /* \"@openzeppelin/contracts/access/Ownable.sol\":1094:1107  _checkOwner() */\n      tag_48\n        /* \"@openzeppelin/contracts/access/Ownable.sol\":1094:1105  _checkOwner */\n      tag_43\n        /* \"@openzeppelin/contracts/access/Ownable.sol\":1094:1107  _checkOwner() */\n      jump\t// in\n    tag_48:\n        /* \"Defi-project/V2_updated_27_02/LendingPoolAddressProvider.sol\":556:595  _setAddress(LENDING_POOL, _lendingPool) */\n      tag_50\n        /* \"Defi-project/V2_updated_27_02/LendingPoolAddressProvider.sol\":568:580  LENDING_POOL */\n      0x4c454e44494e475f504f4f4c0000000000000000000000000000000000000000\n        /* \"Defi-project/V2_updated_27_02/LendingPoolAddressProvider.sol\":582:594  _lendingPool */\n      dup3\n        /* \"Defi-project/V2_updated_27_02/LendingPoolAddressProvider.sol\":556:567  _setAddress */\n      tag_46\n        /* \"Defi-project/V2_updated_27_02/LendingPoolAddressProvider.sol\":556:595  _setAddress(LENDING_POOL, _lendingPool) */\n      jump\t// in\n    tag_50:\n        /* \"Defi-project/V2_updated_27_02/LendingPoolAddressProvider.sol\":482:647  function setLendingPool(address _lendingPool) public onlyOwner {\r... */\n      pop\n      jump\t// out\n        /* \"Defi-project/V2_updated_27_02/AddressStorage.sol\":145:250  function getAddress(bytes32 _key) public view returns (address) {\r... */\n    tag_26:\n        /* \"Defi-project/V2_updated_27_02/AddressStorage.sol\":200:207  address */\n      0x00\n        /* \"Defi-project/V2_updated_27_02/AddressStorage.sol\":227:236  addresses */\n      0x01\n        /* \"Defi-project/V2_updated_27_02/AddressStorage.sol\":227:242  addresses[_key] */\n      0x00\n        /* \"Defi-project/V2_updated_27_02/AddressStorage.sol\":237:241  _key */\n      dup4\n        /* \"Defi-project/V2_updated_27_02/AddressStorage.sol\":227:242  addresses[_key] */\n      dup2\n      mstore\n      0x20\n      add\n      swap1\n      dup2\n      mstore\n      0x20\n      add\n      0x00\n      keccak256\n      0x00\n      swap1\n      sload\n      swap1\n      0x0100\n      exp\n      swap1\n      div\n      0xffffffffffffffffffffffffffffffffffffffff\n      and\n        /* \"Defi-project/V2_updated_27_02/AddressStorage.sol\":220:242  return addresses[_key] */\n      swap1\n      pop\n        /* \"Defi-project/V2_updated_27_02/AddressStorage.sol\":145:250  function getAddress(bytes32 _key) public view returns (address) {\r... */\n      swap2\n      swap1\n      pop\n      jump\t// out\n        /* \"Defi-project/V2_updated_27_02/LendingPoolAddressProvider.sol\":1214:1333  function getLendingPoolDataProvider() public view returns (address) {\r... */\n    tag_29:\n        /* \"Defi-project/V2_updated_27_02/LendingPoolAddressProvider.sol\":1273:1280  address */\n      0x00\n        /* \"Defi-project/V2_updated_27_02/LendingPoolAddressProvider.sol\":1300:1325  getAddress(DATA_PROVIDER) */\n      tag_53\n        /* \"Defi-project/V2_updated_27_02/LendingPoolAddressProvider.sol\":1311:1324  DATA_PROVIDER */\n      0x444154415f50524f564944455200000000000000000000000000000000000000\n        /* \"Defi-project/V2_updated_27_02/LendingPoolAddressProvider.sol\":1300:1310  getAddress */\n      tag_26\n        /* \"Defi-project/V2_updated_27_02/LendingPoolAddressProvider.sol\":1300:1325  getAddress(DATA_PROVIDER) */\n      jump\t// in\n    tag_53:\n        /* \"Defi-project/V2_updated_27_02/LendingPoolAddressProvider.sol\":1293:1325  return getAddress(DATA_PROVIDER) */\n      swap1\n      pop\n        /* \"Defi-project/V2_updated_27_02/LendingPoolAddressProvider.sol\":1214:1333  function getLendingPoolDataProvider() public view returns (address) {\r... */\n      swap1\n      jump\t// out\n        /* \"@openzeppelin/contracts/access/Ownable.sol\":1831:1932  function renounceOwnership() public virtual onlyOwner {... */\n    tag_32:\n        /* \"@openzeppelin/contracts/access/Ownable.sol\":1094:1107  _checkOwner() */\n      tag_55\n        /* \"@openzeppelin/contracts/access/Ownable.sol\":1094:1105  _checkOwner */\n      tag_43\n        /* \"@openzeppelin/contracts/access/Ownable.sol\":1094:1107  _checkOwner() */\n      jump\t// in\n    tag_55:\n        /* \"@openzeppelin/contracts/access/Ownable.sol\":1895:1925  _transferOwnership(address(0)) */\n      tag_57\n        /* \"@openzeppelin/contracts/access/Ownable.sol\":1922:1923  0 */\n      0x00\n        /* \"@openzeppelin/contracts/access/Ownable.sol\":1895:1913  _transferOwnership */\n      tag_58\n        /* \"@openzeppelin/contracts/access/Ownable.sol\":1895:1925  _transferOwnership(address(0)) */\n      jump\t// in\n    tag_57:\n        /* \"@openzeppelin/contracts/access/Ownable.sol\":1831:1932  function renounceOwnership() public virtual onlyOwner {... */\n      jump\t// out\n        /* \"@openzeppelin/contracts/access/Ownable.sol\":1201:1286  function owner() public view virtual returns (address) {... */\n    tag_34:\n        /* \"@openzeppelin/contracts/access/Ownable.sol\":1247:1254  address */\n      0x00\n        /* \"@openzeppelin/contracts/access/Ownable.sol\":1273:1279  _owner */\n      dup1\n      0x00\n      swap1\n      sload\n      swap1\n      0x0100\n      exp\n      swap1\n      div\n      0xffffffffffffffffffffffffffffffffffffffff\n      and\n        /* \"@openzeppelin/contracts/access/Ownable.sol\":1266:1279  return _owner */\n      swap1\n      pop\n        /* \"@openzeppelin/contracts/access/Ownable.sol\":1201:1286  function owner() public view virtual returns (address) {... */\n      swap1\n      jump\t// out\n        /* \"@openzeppelin/contracts/access/Ownable.sol\":2081:2279  function transferOwnership(address newOwner) public virtual onlyOwner {... */\n    tag_38:\n        /* \"@openzeppelin/contracts/access/Ownable.sol\":1094:1107  _checkOwner() */\n      tag_61\n        /* \"@openzeppelin/contracts/access/Ownable.sol\":1094:1105  _checkOwner */\n      tag_43\n        /* \"@openzeppelin/contracts/access/Ownable.sol\":1094:1107  _checkOwner() */\n      jump\t// in\n    tag_61:\n        /* \"@openzeppelin/contracts/access/Ownable.sol\":2189:2190  0 */\n      0x00\n        /* \"@openzeppelin/contracts/access/Ownable.sol\":2169:2191  newOwner != address(0) */\n      0xffffffffffffffffffffffffffffffffffffffff\n      and\n        /* \"@openzeppelin/contracts/access/Ownable.sol\":2169:2177  newOwner */\n      dup2\n        /* \"@openzeppelin/contracts/access/Ownable.sol\":2169:2191  newOwner != address(0) */\n      0xffffffffffffffffffffffffffffffffffffffff\n      and\n      eq\n      iszero\n        /* \"@openzeppelin/contracts/access/Ownable.sol\":2161:2234  require(newOwner != address(0), \"Ownable: new owner is the zero address\") */\n      tag_63\n      jumpi\n      mload(0x40)\n      0x08c379a000000000000000000000000000000000000000000000000000000000\n      dup2\n      mstore\n      0x04\n      add\n      tag_64\n      swap1\n      tag_65\n      jump\t// in\n    tag_64:\n      mload(0x40)\n      dup1\n      swap2\n      sub\n      swap1\n      revert\n    tag_63:\n        /* \"@openzeppelin/contracts/access/Ownable.sol\":2244:2272  _transferOwnership(newOwner) */\n      tag_66\n        /* \"@openzeppelin/contracts/access/Ownable.sol\":2263:2271  newOwner */\n      dup2\n        /* \"@openzeppelin/contracts/access/Ownable.sol\":2244:2262  _transferOwnership */\n      tag_58\n        /* \"@openzeppelin/contracts/access/Ownable.sol\":2244:2272  _transferOwnership(newOwner) */\n      jump\t// in\n    tag_66:\n        /* \"@openzeppelin/contracts/access/Ownable.sol\":2081:2279  function transferOwnership(address newOwner) public virtual onlyOwner {... */\n      pop\n      jump\t// out\n        /* \"@openzeppelin/contracts/access/Ownable.sol\":1359:1489  function _checkOwner() internal view virtual {... */\n    tag_43:\n        /* \"@openzeppelin/contracts/access/Ownable.sol\":1433:1445  _msgSender() */\n      tag_68\n        /* \"@openzeppelin/contracts/access/Ownable.sol\":1433:1443  _msgSender */\n      tag_69\n        /* \"@openzeppelin/contracts/access/Ownable.sol\":1433:1445  _msgSender() */\n      jump\t// in\n    tag_68:\n        /* \"@openzeppelin/contracts/access/Ownable.sol\":1422:1445  owner() == _msgSender() */\n      0xffffffffffffffffffffffffffffffffffffffff\n      and\n        /* \"@openzeppelin/contracts/access/Ownable.sol\":1422:1429  owner() */\n      tag_70\n        /* \"@openzeppelin/contracts/access/Ownable.sol\":1422:1427  owner */\n      tag_34\n        /* \"@openzeppelin/contracts/access/Ownable.sol\":1422:1429  owner() */\n      jump\t// in\n    tag_70:\n        /* \"@openzeppelin/contracts/access/Ownable.sol\":1422:1445  owner() == _msgSender() */\n      0xffffffffffffffffffffffffffffffffffffffff\n      and\n      eq\n        /* \"@openzeppelin/contracts/access/Ownable.sol\":1414:1482  require(owner() == _msgSender(), \"Ownable: caller is not the owner\") */\n      tag_71\n      jumpi\n      mload(0x40)\n      0x08c379a000000000000000000000000000000000000000000000000000000000\n      dup2\n      mstore\n      0x04\n      add\n      tag_72\n      swap1\n      tag_73\n      jump\t// in\n    tag_72:\n      mload(0x40)\n      dup1\n      swap2\n      sub\n      swap1\n      revert\n    tag_71:\n        /* \"@openzeppelin/contracts/access/Ownable.sol\":1359:1489  function _checkOwner() internal view virtual {... */\n      jump\t// out\n        /* \"Defi-project/V2_updated_27_02/AddressStorage.sol\":258:361  function _setAddress(bytes32 _key, address _value) internal {\r... */\n    tag_46:\n        /* \"Defi-project/V2_updated_27_02/AddressStorage.sol\":347:353  _value */\n      dup1\n        /* \"Defi-project/V2_updated_27_02/AddressStorage.sol\":329:338  addresses */\n      0x01\n        /* \"Defi-project/V2_updated_27_02/AddressStorage.sol\":329:344  addresses[_key] */\n      0x00\n        /* \"Defi-project/V2_updated_27_02/AddressStorage.sol\":339:343  _key */\n      dup5\n        /* \"Defi-project/V2_updated_27_02/AddressStorage.sol\":329:344  addresses[_key] */\n      dup2\n      mstore\n      0x20\n      add\n      swap1\n      dup2\n      mstore\n      0x20\n      add\n      0x00\n      keccak256\n      0x00\n        /* \"Defi-project/V2_updated_27_02/AddressStorage.sol\":329:353  addresses[_key] = _value */\n      0x0100\n      exp\n      dup2\n      sload\n      dup2\n      0xffffffffffffffffffffffffffffffffffffffff\n      mul\n      not\n      and\n      swap1\n      dup4\n      0xffffffffffffffffffffffffffffffffffffffff\n      and\n      mul\n      or\n      swap1\n      sstore\n      pop\n        /* \"Defi-project/V2_updated_27_02/AddressStorage.sol\":258:361  function _setAddress(bytes32 _key, address _value) internal {\r... */\n      pop\n      pop\n      jump\t// out\n        /* \"@openzeppelin/contracts/access/Ownable.sol\":2433:2620  function _transferOwnership(address newOwner) internal virtual {... */\n    tag_58:\n        /* \"@openzeppelin/contracts/access/Ownable.sol\":2506:2522  address oldOwner */\n      0x00\n        /* \"@openzeppelin/contracts/access/Ownable.sol\":2525:2531  _owner */\n      dup1\n      0x00\n      swap1\n      sload\n      swap1\n      0x0100\n      exp\n      swap1\n      div\n      0xffffffffffffffffffffffffffffffffffffffff\n      and\n        /* \"@openzeppelin/contracts/access/Ownable.sol\":2506:2531  address oldOwner = _owner */\n      swap1\n      pop\n        /* \"@openzeppelin/contracts/access/Ownable.sol\":2550:2558  newOwner */\n      dup2\n        /* \"@openzeppelin/contracts/access/Ownable.sol\":2541:2547  _owner */\n      0x00\n      dup1\n        /* \"@openzeppelin/contracts/access/Ownable.sol\":2541:2558  _owner = newOwner */\n      0x0100\n      exp\n      dup2\n      sload\n      dup2\n      0xffffffffffffffffffffffffffffffffffffffff\n      mul\n      not\n      and\n      swap1\n      dup4\n      0xffffffffffffffffffffffffffffffffffffffff\n      and\n      mul\n      or\n      swap1\n      sstore\n      pop\n        /* \"@openzeppelin/contracts/access/Ownable.sol\":2604:2612  newOwner */\n      dup2\n        /* \"@openzeppelin/contracts/access/Ownable.sol\":2573:2613  OwnershipTransferred(oldOwner, newOwner) */\n      0xffffffffffffffffffffffffffffffffffffffff\n      and\n        /* \"@openzeppelin/contracts/access/Ownable.sol\":2594:2602  oldOwner */\n      dup2\n        /* \"@openzeppelin/contracts/access/Ownable.sol\":2573:2613  OwnershipTransferred(oldOwner, newOwner) */\n      0xffffffffffffffffffffffffffffffffffffffff\n      and\n      0x8be0079c531659141344cd1fd0a4f28419497f9722a3daafe3b4186f6b6457e0\n      mload(0x40)\n      mload(0x40)\n      dup1\n      swap2\n      sub\n      swap1\n      log3\n        /* \"@openzeppelin/contracts/access/Ownable.sol\":2496:2620  {... */\n      pop\n        /* \"@openzeppelin/contracts/access/Ownable.sol\":2433:2620  function _transferOwnership(address newOwner) internal virtual {... */\n      pop\n      jump\t// out\n        /* \"@openzeppelin/contracts/utils/Context.sol\":640:736  function _msgSender() internal view virtual returns (address) {... */\n    tag_69:\n        /* \"@openzeppelin/contracts/utils/Context.sol\":693:700  address */\n      0x00\n        /* \"@openzeppelin/contracts/utils/Context.sol\":719:729  msg.sender */\n      caller\n        /* \"@openzeppelin/contracts/utils/Context.sol\":712:729  return msg.sender */\n      swap1\n      pop\n        /* \"@openzeppelin/contracts/utils/Context.sol\":640:736  function _msgSender() internal view virtual returns (address) {... */\n      swap1\n      jump\t// out\n        /* \"#utility.yul\":7:146   */\n    tag_78:\n        /* \"#utility.yul\":53:58   */\n      0x00\n        /* \"#utility.yul\":91:97   */\n      dup2\n        /* \"#utility.yul\":78:98   */\n      calldataload\n        /* \"#utility.yul\":69:98   */\n      swap1\n      pop\n        /* \"#utility.yul\":107:140   */\n      tag_80\n        /* \"#utility.yul\":134:139   */\n      dup2\n        /* \"#utility.yul\":107:140   */\n      tag_81\n      jump\t// in\n    tag_80:\n        /* \"#utility.yul\":7:146   */\n      swap3\n      swap2\n      pop\n      pop\n      jump\t// out\n        /* \"#utility.yul\":152:291   */\n    tag_82:\n        /* \"#utility.yul\":198:203   */\n      0x00\n        /* \"#utility.yul\":236:242   */\n      dup2\n        /* \"#utility.yul\":223:243   */\n      calldataload\n        /* \"#utility.yul\":214:243   */\n      swap1\n      pop\n        /* \"#utility.yul\":252:285   */\n      tag_84\n        /* \"#utility.yul\":279:284   */\n      dup2\n        /* \"#utility.yul\":252:285   */\n      tag_85\n      jump\t// in\n    tag_84:\n        /* \"#utility.yul\":152:291   */\n      swap3\n      swap2\n      pop\n      pop\n      jump\t// out\n        /* \"#utility.yul\":297:626   */\n    tag_18:\n        /* \"#utility.yul\":356:362   */\n      0x00\n        /* \"#utility.yul\":405:407   */\n      0x20\n        /* \"#utility.yul\":393:402   */\n      dup3\n        /* \"#utility.yul\":384:391   */\n      dup5\n        /* \"#utility.yul\":380:403   */\n      sub\n        /* \"#utility.yul\":376:408   */\n      slt\n        /* \"#utility.yul\":373:492   */\n      iszero\n      tag_87\n      jumpi\n        /* \"#utility.yul\":411:490   */\n      tag_88\n      tag_89\n      jump\t// in\n    tag_88:\n        /* \"#utility.yul\":373:492   */\n    tag_87:\n        /* \"#utility.yul\":531:532   */\n      0x00\n        /* \"#utility.yul\":556:609   */\n      tag_90\n        /* \"#utility.yul\":601:608   */\n      dup5\n        /* \"#utility.yul\":592:598   */\n      dup3\n        /* \"#utility.yul\":581:590   */\n      dup6\n        /* \"#utility.yul\":577:599   */\n      add\n        /* \"#utility.yul\":556:609   */\n      tag_78\n      jump\t// in\n    tag_90:\n        /* \"#utility.yul\":546:609   */\n      swap2\n      pop\n        /* \"#utility.yul\":502:619   */\n      pop\n        /* \"#utility.yul\":297:626   */\n      swap3\n      swap2\n      pop\n      pop\n      jump\t// out\n        /* \"#utility.yul\":632:961   */\n    tag_25:\n        /* \"#utility.yul\":691:697   */\n      0x00\n        /* \"#utility.yul\":740:742   */\n      0x20\n        /* \"#utility.yul\":728:737   */\n      dup3\n        /* \"#utility.yul\":719:726   */\n      dup5\n        /* \"#utility.yul\":715:738   */\n      sub\n        /* \"#utility.yul\":711:743   */\n      slt\n        /* \"#utility.yul\":708:827   */\n      iszero\n      tag_92\n      jumpi\n        /* \"#utility.yul\":746:825   */\n      tag_93\n      tag_89\n      jump\t// in\n    tag_93:\n        /* \"#utility.yul\":708:827   */\n    tag_92:\n        /* \"#utility.yul\":866:867   */\n      0x00\n        /* \"#utility.yul\":891:944   */\n      tag_94\n        /* \"#utility.yul\":936:943   */\n      dup5\n        /* \"#utility.yul\":927:933   */\n      dup3\n        /* \"#utility.yul\":916:925   */\n      dup6\n        /* \"#utility.yul\":912:934   */\n      add\n        /* \"#utility.yul\":891:944   */\n      tag_82\n      jump\t// in\n    tag_94:\n        /* \"#utility.yul\":881:944   */\n      swap2\n      pop\n        /* \"#utility.yul\":837:954   */\n      pop\n        /* \"#utility.yul\":632:961   */\n      swap3\n      swap2\n      pop\n      pop\n      jump\t// out\n        /* \"#utility.yul\":967:1085   */\n    tag_95:\n        /* \"#utility.yul\":1054:1078   */\n      tag_97\n        /* \"#utility.yul\":1072:1077   */\n      dup2\n        /* \"#utility.yul\":1054:1078   */\n      tag_98\n      jump\t// in\n    tag_97:\n        /* \"#utility.yul\":1049:1052   */\n      dup3\n        /* \"#utility.yul\":1042:1079   */\n      mstore\n        /* \"#utility.yul\":967:1085   */\n      pop\n      pop\n      jump\t// out\n        /* \"#utility.yul\":1091:1457   */\n    tag_99:\n        /* \"#utility.yul\":1233:1236   */\n      0x00\n        /* \"#utility.yul\":1254:1321   */\n      tag_101\n        /* \"#utility.yul\":1318:1320   */\n      0x26\n        /* \"#utility.yul\":1313:1316   */\n      dup4\n        /* \"#utility.yul\":1254:1321   */\n      tag_102\n      jump\t// in\n    tag_101:\n        /* \"#utility.yul\":1247:1321   */\n      swap2\n      pop\n        /* \"#utility.yul\":1330:1423   */\n      tag_103\n        /* \"#utility.yul\":1419:1422   */\n      dup3\n        /* \"#utility.yul\":1330:1423   */\n      tag_104\n      jump\t// in\n    tag_103:\n        /* \"#utility.yul\":1448:1450   */\n      0x40\n        /* \"#utility.yul\":1443:1446   */\n      dup3\n        /* \"#utility.yul\":1439:1451   */\n      add\n        /* \"#utility.yul\":1432:1451   */\n      swap1\n      pop\n        /* \"#utility.yul\":1091:1457   */\n      swap2\n      swap1\n      pop\n      jump\t// out\n        /* \"#utility.yul\":1463:1829   */\n    tag_105:\n        /* \"#utility.yul\":1605:1608   */\n      0x00\n        /* \"#utility.yul\":1626:1693   */\n      tag_107\n        /* \"#utility.yul\":1690:1692   */\n      0x20\n        /* \"#utility.yul\":1685:1688   */\n      dup4\n        /* \"#utility.yul\":1626:1693   */\n      tag_102\n      jump\t// in\n    tag_107:\n        /* \"#utility.yul\":1619:1693   */\n      swap2\n      pop\n        /* \"#utility.yul\":1702:1795   */\n      tag_108\n        /* \"#utility.yul\":1791:1794   */\n      dup3\n        /* \"#utility.yul\":1702:1795   */\n      tag_109\n      jump\t// in\n    tag_108:\n        /* \"#utility.yul\":1820:1822   */\n      0x20\n        /* \"#utility.yul\":1815:1818   */\n      dup3\n        /* \"#utility.yul\":1811:1823   */\n      add\n        /* \"#utility.yul\":1804:1823   */\n      swap1\n      pop\n        /* \"#utility.yul\":1463:1829   */\n      swap2\n      swap1\n      pop\n      jump\t// out\n        /* \"#utility.yul\":1835:2057   */\n    tag_15:\n        /* \"#utility.yul\":1928:1932   */\n      0x00\n        /* \"#utility.yul\":1966:1968   */\n      0x20\n        /* \"#utility.yul\":1955:1964   */\n      dup3\n        /* \"#utility.yul\":1951:1969   */\n      add\n        /* \"#utility.yul\":1943:1969   */\n      swap1\n      pop\n        /* \"#utility.yul\":1979:2050   */\n      tag_111\n        /* \"#utility.yul\":2047:2048   */\n      0x00\n        /* \"#utility.yul\":2036:2045   */\n      dup4\n        /* \"#utility.yul\":2032:2049   */\n      add\n        /* \"#utility.yul\":2023:2029   */\n      dup5\n        /* \"#utility.yul\":1979:2050   */\n      tag_95\n      jump\t// in\n    tag_111:\n        /* \"#utility.yul\":1835:2057   */\n      swap3\n      swap2\n      pop\n      pop\n      jump\t// out\n        /* \"#utility.yul\":2063:2482   */\n    tag_65:\n        /* \"#utility.yul\":2229:2233   */\n      0x00\n        /* \"#utility.yul\":2267:2269   */\n      0x20\n        /* \"#utility.yul\":2256:2265   */\n      dup3\n        /* \"#utility.yul\":2252:2270   */\n      add\n        /* \"#utility.yul\":2244:2270   */\n      swap1\n      pop\n        /* \"#utility.yul\":2316:2325   */\n      dup2\n        /* \"#utility.yul\":2310:2314   */\n      dup2\n        /* \"#utility.yul\":2306:2326   */\n      sub\n        /* \"#utility.yul\":2302:2303   */\n      0x00\n        /* \"#utility.yul\":2291:2300   */\n      dup4\n        /* \"#utility.yul\":2287:2304   */\n      add\n        /* \"#utility.yul\":2280:2327   */\n      mstore\n        /* \"#utility.yul\":2344:2475   */\n      tag_113\n        /* \"#utility.yul\":2470:2474   */\n      dup2\n        /* \"#utility.yul\":2344:2475   */\n      tag_99\n      jump\t// in\n    tag_113:\n        /* \"#utility.yul\":2336:2475   */\n      swap1\n      pop\n        /* \"#utility.yul\":2063:2482   */\n      swap2\n      swap1\n      pop\n      jump\t// out\n        /* \"#utility.yul\":2488:2907   */\n    tag_73:\n        /* \"#utility.yul\":2654:2658   */\n      0x00\n        /* \"#utility.yul\":2692:2694   */\n      0x20\n        /* \"#utility.yul\":2681:2690   */\n      dup3\n        /* \"#utility.yul\":2677:2695   */\n      add\n        /* \"#utility.yul\":2669:2695   */\n      swap1\n      pop\n        /* \"#utility.yul\":2741:2750   */\n      dup2\n        /* \"#utility.yul\":2735:2739   */\n      dup2\n        /* \"#utility.yul\":2731:2751   */\n      sub\n        /* \"#utility.yul\":2727:2728   */\n      0x00\n        /* \"#utility.yul\":2716:2725   */\n      dup4\n        /* \"#utility.yul\":2712:2729   */\n      add\n        /* \"#utility.yul\":2705:2752   */\n      mstore\n        /* \"#utility.yul\":2769:2900   */\n      tag_115\n        /* \"#utility.yul\":2895:2899   */\n      dup2\n        /* \"#utility.yul\":2769:2900   */\n      tag_105\n      jump\t// in\n    tag_115:\n        /* \"#utility.yul\":2761:2900   */\n      swap1\n      pop\n        /* \"#utility.yul\":2488:2907   */\n      swap2\n      swap1\n      pop\n      jump\t// out\n        /* \"#utility.yul\":2994:3163   */\n    tag_102:\n        /* \"#utility.yul\":3078:3089   */\n      0x00\n        /* \"#utility.yul\":3112:3118   */\n      dup3\n        /* \"#utility.yul\":3107:3110   */\n      dup3\n        /* \"#utility.yul\":3100:3119   */\n      mstore\n        /* \"#utility.yul\":3152:3156   */\n      0x20\n        /* \"#utility.yul\":3147:3150   */\n      dup3\n        /* \"#utility.yul\":3143:3157   */\n      add\n        /* \"#utility.yul\":3128:3157   */\n      swap1\n      pop\n        /* \"#utility.yul\":2994:3163   */\n      swap3\n      swap2\n      pop\n      pop\n      jump\t// out\n        /* \"#utility.yul\":3169:3265   */\n    tag_98:\n        /* \"#utility.yul\":3206:3213   */\n      0x00\n        /* \"#utility.yul\":3235:3259   */\n      tag_120\n        /* \"#utility.yul\":3253:3258   */\n      dup3\n        /* \"#utility.yul\":3235:3259   */\n      tag_121\n      jump\t// in\n    tag_120:\n        /* \"#utility.yul\":3224:3259   */\n      swap1\n      pop\n        /* \"#utility.yul\":3169:3265   */\n      swap2\n      swap1\n      pop\n      jump\t// out\n        /* \"#utility.yul\":3271:3348   */\n    tag_122:\n        /* \"#utility.yul\":3308:3315   */\n      0x00\n        /* \"#utility.yul\":3337:3342   */\n      dup2\n        /* \"#utility.yul\":3326:3342   */\n      swap1\n      pop\n        /* \"#utility.yul\":3271:3348   */\n      swap2\n      swap1\n      pop\n      jump\t// out\n        /* \"#utility.yul\":3354:3480   */\n    tag_121:\n        /* \"#utility.yul\":3391:3398   */\n      0x00\n        /* \"#utility.yul\":3431:3473   */\n      0xffffffffffffffffffffffffffffffffffffffff\n        /* \"#utility.yul\":3424:3429   */\n      dup3\n        /* \"#utility.yul\":3420:3474   */\n      and\n        /* \"#utility.yul\":3409:3474   */\n      swap1\n      pop\n        /* \"#utility.yul\":3354:3480   */\n      swap2\n      swap1\n      pop\n      jump\t// out\n        /* \"#utility.yul\":3609:3726   */\n    tag_89:\n        /* \"#utility.yul\":3718:3719   */\n      0x00\n        /* \"#utility.yul\":3715:3716   */\n      dup1\n        /* \"#utility.yul\":3708:3720   */\n      revert\n        /* \"#utility.yul\":3732:3957   */\n    tag_104:\n        /* \"#utility.yul\":3872:3906   */\n      0x4f776e61626c653a206e6577206f776e657220697320746865207a65726f2061\n        /* \"#utility.yul\":3868:3869   */\n      0x00\n        /* \"#utility.yul\":3860:3866   */\n      dup3\n        /* \"#utility.yul\":3856:3870   */\n      add\n        /* \"#utility.yul\":3849:3907   */\n      mstore\n        /* \"#utility.yul\":3941:3949   */\n      0x6464726573730000000000000000000000000000000000000000000000000000\n        /* \"#utility.yul\":3936:3938   */\n      0x20\n        /* \"#utility.yul\":3928:3934   */\n      dup3\n        /* \"#utility.yul\":3924:3939   */\n      add\n        /* \"#utility.yul\":3917:3950   */\n      mstore\n        /* \"#utility.yul\":3732:3957   */\n      pop\n      jump\t// out\n        /* \"#utility.yul\":3963:4145   */\n    tag_109:\n        /* \"#utility.yul\":4103:4137   */\n      0x4f776e61626c653a2063616c6c6572206973206e6f7420746865206f776e6572\n        /* \"#utility.yul\":4099:4100   */\n      0x00\n        /* \"#utility.yul\":4091:4097   */\n      dup3\n        /* \"#utility.yul\":4087:4101   */\n      add\n        /* \"#utility.yul\":4080:4138   */\n      mstore\n        /* \"#utility.yul\":3963:4145   */\n      pop\n      jump\t// out\n        /* \"#utility.yul\":4151:4273   */\n    tag_81:\n        /* \"#utility.yul\":4224:4248   */\n      tag_131\n        /* \"#utility.yul\":4242:4247   */\n      dup2\n        /* \"#utility.yul\":4224:4248   */\n      tag_98\n      jump\t// in\n    tag_131:\n        /* \"#utility.yul\":4217:4222   */\n      dup2\n        /* \"#utility.yul\":4214:4249   */\n      eq\n        /* \"#utility.yul\":4204:4267   */\n      tag_132\n      jumpi\n        /* \"#utility.yul\":4263:4264   */\n      0x00\n        /* \"#utility.yul\":4260:4261   */\n      dup1\n        /* \"#utility.yul\":4253:4265   */\n      revert\n        /* \"#utility.yul\":4204:4267   */\n    tag_132:\n        /* \"#utility.yul\":4151:4273   */\n      pop\n      jump\t// out\n        /* \"#utility.yul\":4279:4401   */\n    tag_85:\n        /* \"#utility.yul\":4352:4376   */\n      tag_134\n        /* \"#utility.yul\":4370:4375   */\n      dup2\n        /* \"#utility.yul\":4352:4376   */\n      tag_122\n      jump\t// in\n    tag_134:\n        /* \"#utility.yul\":4345:4350   */\n      dup2\n        /* \"#utility.yul\":4342:4377   */\n      eq\n        /* \"#utility.yul\":4332:4395   */\n      tag_135\n      jumpi\n        /* \"#utility.yul\":4391:4392   */\n      0x00\n        /* \"#utility.yul\":4388:4389   */\n      dup1\n        /* \"#utility.yul\":4381:4393   */\n      revert\n        /* \"#utility.yul\":4332:4395   */\n    tag_135:\n        /* \"#utility.yul\":4279:4401   */\n      pop\n      jump\t// out\n\n    auxdata: 0xa26469706673582212205414555df7d92fa6899c4b6ce3b5564b680f47f5c50be965f134a06cb0fa53d164736f6c63430008070033\n}\n",
				"bytecode": {
					"linkReferences": {},
					"object": "608060405234801561001057600080fd5b5061002d61002261003260201b60201c565b61003a60201b60201c565b6100fe565b600033905090565b60008060009054906101000a900473ffffffffffffffffffffffffffffffffffffffff169050816000806101000a81548173ffffffffffffffffffffffffffffffffffffffff021916908373ffffffffffffffffffffffffffffffffffffffff1602179055508173ffffffffffffffffffffffffffffffffffffffff168173ffffffffffffffffffffffffffffffffffffffff167f8be0079c531659141344cd1fd0a4f28419497f9722a3daafe3b4186f6b6457e060405160405180910390a35050565b61073f8061010d6000396000f3fe608060405234801561001057600080fd5b50600436106100885760003560e01c80632f58b80d1161005b5780632f58b80d14610113578063715018a6146101315780638da5cb5b1461013b578063f2fde38b1461015957610088565b80630261bf8b1461008d5780630eb84859146100ab578063113aa8b1146100c757806321f8a721146100e3575b600080fd5b610095610175565b6040516100a291906105b6565b60405180910390f35b6100c560048036038101906100c09190610507565b6101a5565b005b6100e160048036038101906100dc9190610507565b6101da565b005b6100fd60048036038101906100f89190610534565b61020f565b60405161010a91906105b6565b60405180910390f35b61011b61024c565b60405161012891906105b6565b60405180910390f35b61013961027c565b005b610143610290565b60405161015091906105b6565b60405180910390f35b610173600480360381019061016e9190610507565b6102b9565b005b60006101a07f4c454e44494e475f504f4f4c000000000000000000000000000000000000000061020f565b905090565b6101ad61033d565b6101d77f444154415f50524f564944455200000000000000000000000000000000000000826103bb565b50565b6101e261033d565b61020c7f4c454e44494e475f504f4f4c0000000000000000000000000000000000000000826103bb565b50565b60006001600083815260200190815260200160002060009054906101000a900473ffffffffffffffffffffffffffffffffffffffff169050919050565b60006102777f444154415f50524f56494445520000000000000000000000000000000000000061020f565b905090565b61028461033d565b61028e6000610411565b565b60008060009054906101000a900473ffffffffffffffffffffffffffffffffffffffff16905090565b6102c161033d565b600073ffffffffffffffffffffffffffffffffffffffff168173ffffffffffffffffffffffffffffffffffffffff161415610331576040517f08c379a0000000000000000000000000000000000000000000000000000000008152600401610328906105d1565b60405180910390fd5b61033a81610411565b50565b6103456104d5565b73ffffffffffffffffffffffffffffffffffffffff16610363610290565b73ffffffffffffffffffffffffffffffffffffffff16146103b9576040517f08c379a00000000000000000000000000000000000000000000000000000000081526004016103b0906105f1565b60405180910390fd5b565b806001600084815260200190815260200160002060006101000a81548173ffffffffffffffffffffffffffffffffffffffff021916908373ffffffffffffffffffffffffffffffffffffffff1602179055505050565b60008060009054906101000a900473ffffffffffffffffffffffffffffffffffffffff169050816000806101000a81548173ffffffffffffffffffffffffffffffffffffffff021916908373ffffffffffffffffffffffffffffffffffffffff1602179055508173ffffffffffffffffffffffffffffffffffffffff168173ffffffffffffffffffffffffffffffffffffffff167f8be0079c531659141344cd1fd0a4f28419497f9722a3daafe3b4186f6b6457e060405160405180910390a35050565b600033905090565b6000813590506104ec816106db565b92915050565b600081359050610501816106f2565b92915050565b60006020828403121561051d5761051c61065e565b5b600061052b848285016104dd565b91505092915050565b60006020828403121561054a5761054961065e565b5b6000610558848285016104f2565b91505092915050565b61056a81610622565b82525050565b600061057d602683610611565b915061058882610663565b604082019050919050565b60006105a0602083610611565b91506105ab826106b2565b602082019050919050565b60006020820190506105cb6000830184610561565b92915050565b600060208201905081810360008301526105ea81610570565b9050919050565b6000602082019050818103600083015261060a81610593565b9050919050565b600082825260208201905092915050565b600061062d8261063e565b9050919050565b6000819050919050565b600073ffffffffffffffffffffffffffffffffffffffff82169050919050565b600080fd5b7f4f776e61626c653a206e6577206f776e657220697320746865207a65726f206160008201527f6464726573730000000000000000000000000000000000000000000000000000602082015250565b7f4f776e61626c653a2063616c6c6572206973206e6f7420746865206f776e6572600082015250565b6106e481610622565b81146106ef57600080fd5b50565b6106fb81610634565b811461070657600080fd5b5056fea26469706673582212205414555df7d92fa6899c4b6ce3b5564b680f47f5c50be965f134a06cb0fa53d164736f6c63430008070033",
					"opcodes": "PUSH1 0x80 PUSH1 0x40 MSTORE CALLVALUE DUP1 ISZERO PUSH2 0x10 JUMPI PUSH1 0x0 DUP1 REVERT JUMPDEST POP PUSH2 0x2D PUSH2 0x22 PUSH2 0x32 PUSH1 0x20 SHL PUSH1 0x20 SHR JUMP JUMPDEST PUSH2 0x3A PUSH1 0x20 SHL PUSH1 0x20 SHR JUMP JUMPDEST PUSH2 0xFE JUMP JUMPDEST PUSH1 0x0 CALLER SWAP1 POP SWAP1 JUMP JUMPDEST PUSH1 0x0 DUP1 PUSH1 0x0 SWAP1 SLOAD SWAP1 PUSH2 0x100 EXP SWAP1 DIV PUSH20 0xFFFFFFFFFFFFFFFFFFFFFFFFFFFFFFFFFFFFFFFF AND SWAP1 POP DUP2 PUSH1 0x0 DUP1 PUSH2 0x100 EXP DUP2 SLOAD DUP2 PUSH20 0xFFFFFFFFFFFFFFFFFFFFFFFFFFFFFFFFFFFFFFFF MUL NOT AND SWAP1 DUP4 PUSH20 0xFFFFFFFFFFFFFFFFFFFFFFFFFFFFFFFFFFFFFFFF AND MUL OR SWAP1 SSTORE POP DUP2 PUSH20 0xFFFFFFFFFFFFFFFFFFFFFFFFFFFFFFFFFFFFFFFF AND DUP2 PUSH20 0xFFFFFFFFFFFFFFFFFFFFFFFFFFFFFFFFFFFFFFFF AND PUSH32 0x8BE0079C531659141344CD1FD0A4F28419497F9722A3DAAFE3B4186F6B6457E0 PUSH1 0x40 MLOAD PUSH1 0x40 MLOAD DUP1 SWAP2 SUB SWAP1 LOG3 POP POP JUMP JUMPDEST PUSH2 0x73F DUP1 PUSH2 0x10D PUSH1 0x0 CODECOPY PUSH1 0x0 RETURN INVALID PUSH1 0x80 PUSH1 0x40 MSTORE CALLVALUE DUP1 ISZERO PUSH2 0x10 JUMPI PUSH1 0x0 DUP1 REVERT JUMPDEST POP PUSH1 0x4 CALLDATASIZE LT PUSH2 0x88 JUMPI PUSH1 0x0 CALLDATALOAD PUSH1 0xE0 SHR DUP1 PUSH4 0x2F58B80D GT PUSH2 0x5B JUMPI DUP1 PUSH4 0x2F58B80D EQ PUSH2 0x113 JUMPI DUP1 PUSH4 0x715018A6 EQ PUSH2 0x131 JUMPI DUP1 PUSH4 0x8DA5CB5B EQ PUSH2 0x13B JUMPI DUP1 PUSH4 0xF2FDE38B EQ PUSH2 0x159 JUMPI PUSH2 0x88 JUMP JUMPDEST DUP1 PUSH4 0x261BF8B EQ PUSH2 0x8D JUMPI DUP1 PUSH4 0xEB84859 EQ PUSH2 0xAB JUMPI DUP1 PUSH4 0x113AA8B1 EQ PUSH2 0xC7 JUMPI DUP1 PUSH4 0x21F8A721 EQ PUSH2 0xE3 JUMPI JUMPDEST PUSH1 0x0 DUP1 REVERT JUMPDEST PUSH2 0x95 PUSH2 0x175 JUMP JUMPDEST PUSH1 0x40 MLOAD PUSH2 0xA2 SWAP2 SWAP1 PUSH2 0x5B6 JUMP JUMPDEST PUSH1 0x40 MLOAD DUP1 SWAP2 SUB SWAP1 RETURN JUMPDEST PUSH2 0xC5 PUSH1 0x4 DUP1 CALLDATASIZE SUB DUP2 ADD SWAP1 PUSH2 0xC0 SWAP2 SWAP1 PUSH2 0x507 JUMP JUMPDEST PUSH2 0x1A5 JUMP JUMPDEST STOP JUMPDEST PUSH2 0xE1 PUSH1 0x4 DUP1 CALLDATASIZE SUB DUP2 ADD SWAP1 PUSH2 0xDC SWAP2 SWAP1 PUSH2 0x507 JUMP JUMPDEST PUSH2 0x1DA JUMP JUMPDEST STOP JUMPDEST PUSH2 0xFD PUSH1 0x4 DUP1 CALLDATASIZE SUB DUP2 ADD SWAP1 PUSH2 0xF8 SWAP2 SWAP1 PUSH2 0x534 JUMP JUMPDEST PUSH2 0x20F JUMP JUMPDEST PUSH1 0x40 MLOAD PUSH2 0x10A SWAP2 SWAP1 PUSH2 0x5B6 JUMP JUMPDEST PUSH1 0x40 MLOAD DUP1 SWAP2 SUB SWAP1 RETURN JUMPDEST PUSH2 0x11B PUSH2 0x24C JUMP JUMPDEST PUSH1 0x40 MLOAD PUSH2 0x128 SWAP2 SWAP1 PUSH2 0x5B6 JUMP JUMPDEST PUSH1 0x40 MLOAD DUP1 SWAP2 SUB SWAP1 RETURN JUMPDEST PUSH2 0x139 PUSH2 0x27C JUMP JUMPDEST STOP JUMPDEST PUSH2 0x143 PUSH2 0x290 JUMP JUMPDEST PUSH1 0x40 MLOAD PUSH2 0x150 SWAP2 SWAP1 PUSH2 0x5B6 JUMP JUMPDEST PUSH1 0x40 MLOAD DUP1 SWAP2 SUB SWAP1 RETURN JUMPDEST PUSH2 0x173 PUSH1 0x4 DUP1 CALLDATASIZE SUB DUP2 ADD SWAP1 PUSH2 0x16E SWAP2 SWAP1 PUSH2 0x507 JUMP JUMPDEST PUSH2 0x2B9 JUMP JUMPDEST STOP JUMPDEST PUSH1 0x0 PUSH2 0x1A0 PUSH32 0x4C454E44494E475F504F4F4C0000000000000000000000000000000000000000 PUSH2 0x20F JUMP JUMPDEST SWAP1 POP SWAP1 JUMP JUMPDEST PUSH2 0x1AD PUSH2 0x33D JUMP JUMPDEST PUSH2 0x1D7 PUSH32 0x444154415F50524F564944455200000000000000000000000000000000000000 DUP3 PUSH2 0x3BB JUMP JUMPDEST POP JUMP JUMPDEST PUSH2 0x1E2 PUSH2 0x33D JUMP JUMPDEST PUSH2 0x20C PUSH32 0x4C454E44494E475F504F4F4C0000000000000000000000000000000000000000 DUP3 PUSH2 0x3BB JUMP JUMPDEST POP JUMP JUMPDEST PUSH1 0x0 PUSH1 0x1 PUSH1 0x0 DUP4 DUP2 MSTORE PUSH1 0x20 ADD SWAP1 DUP2 MSTORE PUSH1 0x20 ADD PUSH1 0x0 KECCAK256 PUSH1 0x0 SWAP1 SLOAD SWAP1 PUSH2 0x100 EXP SWAP1 DIV PUSH20 0xFFFFFFFFFFFFFFFFFFFFFFFFFFFFFFFFFFFFFFFF AND SWAP1 POP SWAP2 SWAP1 POP JUMP JUMPDEST PUSH1 0x0 PUSH2 0x277 PUSH32 0x444154415F50524F564944455200000000000000000000000000000000000000 PUSH2 0x20F JUMP JUMPDEST SWAP1 POP SWAP1 JUMP JUMPDEST PUSH2 0x284 PUSH2 0x33D JUMP JUMPDEST PUSH2 0x28E PUSH1 0x0 PUSH2 0x411 JUMP JUMPDEST JUMP JUMPDEST PUSH1 0x0 DUP1 PUSH1 0x0 SWAP1 SLOAD SWAP1 PUSH2 0x100 EXP SWAP1 DIV PUSH20 0xFFFFFFFFFFFFFFFFFFFFFFFFFFFFFFFFFFFFFFFF AND SWAP1 POP SWAP1 JUMP JUMPDEST PUSH2 0x2C1 PUSH2 0x33D JUMP JUMPDEST PUSH1 0x0 PUSH20 0xFFFFFFFFFFFFFFFFFFFFFFFFFFFFFFFFFFFFFFFF AND DUP2 PUSH20 0xFFFFFFFFFFFFFFFFFFFFFFFFFFFFFFFFFFFFFFFF AND EQ ISZERO PUSH2 0x331 JUMPI PUSH1 0x40 MLOAD PUSH32 0x8C379A000000000000000000000000000000000000000000000000000000000 DUP2 MSTORE PUSH1 0x4 ADD PUSH2 0x328 SWAP1 PUSH2 0x5D1 JUMP JUMPDEST PUSH1 0x40 MLOAD DUP1 SWAP2 SUB SWAP1 REVERT JUMPDEST PUSH2 0x33A DUP2 PUSH2 0x411 JUMP JUMPDEST POP JUMP JUMPDEST PUSH2 0x345 PUSH2 0x4D5 JUMP JUMPDEST PUSH20 0xFFFFFFFFFFFFFFFFFFFFFFFFFFFFFFFFFFFFFFFF AND PUSH2 0x363 PUSH2 0x290 JUMP JUMPDEST PUSH20 0xFFFFFFFFFFFFFFFFFFFFFFFFFFFFFFFFFFFFFFFF AND EQ PUSH2 0x3B9 JUMPI PUSH1 0x40 MLOAD PUSH32 0x8C379A000000000000000000000000000000000000000000000000000000000 DUP2 MSTORE PUSH1 0x4 ADD PUSH2 0x3B0 SWAP1 PUSH2 0x5F1 JUMP JUMPDEST PUSH1 0x40 MLOAD DUP1 SWAP2 SUB SWAP1 REVERT JUMPDEST JUMP JUMPDEST DUP1 PUSH1 0x1 PUSH1 0x0 DUP5 DUP2 MSTORE PUSH1 0x20 ADD SWAP1 DUP2 MSTORE PUSH1 0x20 ADD PUSH1 0x0 KECCAK256 PUSH1 0x0 PUSH2 0x100 EXP DUP2 SLOAD DUP2 PUSH20 0xFFFFFFFFFFFFFFFFFFFFFFFFFFFFFFFFFFFFFFFF MUL NOT AND SWAP1 DUP4 PUSH20 0xFFFFFFFFFFFFFFFFFFFFFFFFFFFFFFFFFFFFFFFF AND MUL OR SWAP1 SSTORE POP POP POP JUMP JUMPDEST PUSH1 0x0 DUP1 PUSH1 0x0 SWAP1 SLOAD SWAP1 PUSH2 0x100 EXP SWAP1 DIV PUSH20 0xFFFFFFFFFFFFFFFFFFFFFFFFFFFFFFFFFFFFFFFF AND SWAP1 POP DUP2 PUSH1 0x0 DUP1 PUSH2 0x100 EXP DUP2 SLOAD DUP2 PUSH20 0xFFFFFFFFFFFFFFFFFFFFFFFFFFFFFFFFFFFFFFFF MUL NOT AND SWAP1 DUP4 PUSH20 0xFFFFFFFFFFFFFFFFFFFFFFFFFFFFFFFFFFFFFFFF AND MUL OR SWAP1 SSTORE POP DUP2 PUSH20 0xFFFFFFFFFFFFFFFFFFFFFFFFFFFFFFFFFFFFFFFF AND DUP2 PUSH20 0xFFFFFFFFFFFFFFFFFFFFFFFFFFFFFFFFFFFFFFFF AND PUSH32 0x8BE0079C531659141344CD1FD0A4F28419497F9722A3DAAFE3B4186F6B6457E0 PUSH1 0x40 MLOAD PUSH1 0x40 MLOAD DUP1 SWAP2 SUB SWAP1 LOG3 POP POP JUMP JUMPDEST PUSH1 0x0 CALLER SWAP1 POP SWAP1 JUMP JUMPDEST PUSH1 0x0 DUP2 CALLDATALOAD SWAP1 POP PUSH2 0x4EC DUP2 PUSH2 0x6DB JUMP JUMPDEST SWAP3 SWAP2 POP POP JUMP JUMPDEST PUSH1 0x0 DUP2 CALLDATALOAD SWAP1 POP PUSH2 0x501 DUP2 PUSH2 0x6F2 JUMP JUMPDEST SWAP3 SWAP2 POP POP JUMP JUMPDEST PUSH1 0x0 PUSH1 0x20 DUP3 DUP5 SUB SLT ISZERO PUSH2 0x51D JUMPI PUSH2 0x51C PUSH2 0x65E JUMP JUMPDEST JUMPDEST PUSH1 0x0 PUSH2 0x52B DUP5 DUP3 DUP6 ADD PUSH2 0x4DD JUMP JUMPDEST SWAP2 POP POP SWAP3 SWAP2 POP POP JUMP JUMPDEST PUSH1 0x0 PUSH1 0x20 DUP3 DUP5 SUB SLT ISZERO PUSH2 0x54A JUMPI PUSH2 0x549 PUSH2 0x65E JUMP JUMPDEST JUMPDEST PUSH1 0x0 PUSH2 0x558 DUP5 DUP3 DUP6 ADD PUSH2 0x4F2 JUMP JUMPDEST SWAP2 POP POP SWAP3 SWAP2 POP POP JUMP JUMPDEST PUSH2 0x56A DUP2 PUSH2 0x622 JUMP JUMPDEST DUP3 MSTORE POP POP JUMP JUMPDEST PUSH1 0x0 PUSH2 0x57D PUSH1 0x26 DUP4 PUSH2 0x611 JUMP JUMPDEST SWAP2 POP PUSH2 0x588 DUP3 PUSH2 0x663 JUMP JUMPDEST PUSH1 0x40 DUP3 ADD SWAP1 POP SWAP2 SWAP1 POP JUMP JUMPDEST PUSH1 0x0 PUSH2 0x5A0 PUSH1 0x20 DUP4 PUSH2 0x611 JUMP JUMPDEST SWAP2 POP PUSH2 0x5AB DUP3 PUSH2 0x6B2 JUMP JUMPDEST PUSH1 0x20 DUP3 ADD SWAP1 POP SWAP2 SWAP1 POP JUMP JUMPDEST PUSH1 0x0 PUSH1 0x20 DUP3 ADD SWAP1 POP PUSH2 0x5CB PUSH1 0x0 DUP4 ADD DUP5 PUSH2 0x561 JUMP JUMPDEST SWAP3 SWAP2 POP POP JUMP JUMPDEST PUSH1 0x0 PUSH1 0x20 DUP3 ADD SWAP1 POP DUP2 DUP2 SUB PUSH1 0x0 DUP4 ADD MSTORE PUSH2 0x5EA DUP2 PUSH2 0x570 JUMP JUMPDEST SWAP1 POP SWAP2 SWAP1 POP JUMP JUMPDEST PUSH1 0x0 PUSH1 0x20 DUP3 ADD SWAP1 POP DUP2 DUP2 SUB PUSH1 0x0 DUP4 ADD MSTORE PUSH2 0x60A DUP2 PUSH2 0x593 JUMP JUMPDEST SWAP1 POP SWAP2 SWAP1 POP JUMP JUMPDEST PUSH1 0x0 DUP3 DUP3 MSTORE PUSH1 0x20 DUP3 ADD SWAP1 POP SWAP3 SWAP2 POP POP JUMP JUMPDEST PUSH1 0x0 PUSH2 0x62D DUP3 PUSH2 0x63E JUMP JUMPDEST SWAP1 POP SWAP2 SWAP1 POP JUMP JUMPDEST PUSH1 0x0 DUP2 SWAP1 POP SWAP2 SWAP1 POP JUMP JUMPDEST PUSH1 0x0 PUSH20 0xFFFFFFFFFFFFFFFFFFFFFFFFFFFFFFFFFFFFFFFF DUP3 AND SWAP1 POP SWAP2 SWAP1 POP JUMP JUMPDEST PUSH1 0x0 DUP1 REVERT JUMPDEST PUSH32 0x4F776E61626C653A206E6577206F776E657220697320746865207A65726F2061 PUSH1 0x0 DUP3 ADD MSTORE PUSH32 0x6464726573730000000000000000000000000000000000000000000000000000 PUSH1 0x20 DUP3 ADD MSTORE POP JUMP JUMPDEST PUSH32 0x4F776E61626C653A2063616C6C6572206973206E6F7420746865206F776E6572 PUSH1 0x0 DUP3 ADD MSTORE POP JUMP JUMPDEST PUSH2 0x6E4 DUP2 PUSH2 0x622 JUMP JUMPDEST DUP2 EQ PUSH2 0x6EF JUMPI PUSH1 0x0 DUP1 REVERT JUMPDEST POP JUMP JUMPDEST PUSH2 0x6FB DUP2 PUSH2 0x634 JUMP JUMPDEST DUP2 EQ PUSH2 0x706 JUMPI PUSH1 0x0 DUP1 REVERT JUMPDEST POP JUMP INVALID LOG2 PUSH5 0x6970667358 0x22 SLT KECCAK256 SLOAD EQ SSTORE 0x5D 0xF7 0xD9 0x2F 0xA6 DUP10 SWAP13 0x4B PUSH13 0xE3B5564B680F47F5C50BE965F1 CALLVALUE LOG0 PUSH13 0xB0FA53D164736F6C6343000807 STOP CALLER "
				},
				"gasEstimates": {
					"creation": {
						"codeDepositCost": "371000",
						"executionCost": "infinite",
						"totalCost": "infinite"
					},
					"external": {
						"getAddress(bytes32)": "2932",
						"getLendingPool()": "2644",
						"getLendingPoolDataProvider()": "2643",
						"getLendingPoolDataProvider(address)": "27121",
						"owner()": "2566",
						"renounceOwnership()": "30420",
						"setLendingPool(address)": "27143",
						"transferOwnership(address)": "30813"
					}
				},
				"methodIdentifiers": {
					"getAddress(bytes32)": "21f8a721",
					"getLendingPool()": "0261bf8b",
					"getLendingPoolDataProvider()": "2f58b80d",
					"getLendingPoolDataProvider(address)": "0eb84859",
					"owner()": "8da5cb5b",
					"renounceOwnership()": "715018a6",
					"setLendingPool(address)": "113aa8b1",
					"transferOwnership(address)": "f2fde38b"
				}
			},
			"storageLayout": {
				"storage": [
					{
						"astId": 7,
						"contract": "Defi-project/V2_updated_27_02/LendingPoolAddressProvider.sol:LendingPoolAddressProvider",
						"label": "_owner",
						"offset": 0,
						"slot": "0",
						"type": "t_address"
					},
					{
						"astId": 140,
						"contract": "Defi-project/V2_updated_27_02/LendingPoolAddressProvider.sol:LendingPoolAddressProvider",
						"label": "addresses",
						"offset": 0,
						"slot": "1",
						"type": "t_mapping(t_bytes32,t_address)"
					}
				],
				"types": {
					"t_address": {
						"encoding": "inplace",
						"label": "address",
						"numberOfBytes": "20"
					},
					"t_bytes32": {
						"encoding": "inplace",
						"label": "bytes32",
						"numberOfBytes": "32"
					},
					"t_mapping(t_bytes32,t_address)": {
						"encoding": "mapping",
						"key": "t_bytes32",
						"label": "mapping(bytes32 => address)",
						"numberOfBytes": "32",
						"value": "t_address"
					}
				}
			},
			"userdoc": {
				"kind": "user",
				"methods": {},
				"version": 1
			}
		}
	}
}