{
	"Defi-project/V2_updated_27_02/LendingConfig.sol": {
		"LendingConfig": {
			"abi": [
				{
					"inputs": [],
					"stateMutability": "nonpayable",
					"type": "constructor"
				},
				{
					"anonymous": false,
					"inputs": [
						{
							"indexed": false,
							"internalType": "address",
							"name": "token",
							"type": "address"
						},
						{
							"indexed": false,
							"internalType": "string",
							"name": "symbol",
							"type": "string"
						},
						{
							"indexed": false,
							"internalType": "uint256",
							"name": "borrowThreshold",
							"type": "uint256"
						},
						{
							"indexed": false,
							"internalType": "uint256",
							"name": "liquidationThreshold",
							"type": "uint256"
						}
					],
					"name": "AddAsset",
					"type": "event"
				},
				{
					"anonymous": false,
					"inputs": [
						{
							"indexed": false,
							"internalType": "address",
							"name": "token",
							"type": "address"
						},
						{
							"indexed": false,
							"internalType": "enum LendingConfig.Freeze",
							"name": "isfrozen",
							"type": "uint8"
						}
					],
					"name": "UpdateAssetFrozen",
					"type": "event"
				},
				{
					"anonymous": false,
					"inputs": [
						{
							"indexed": false,
							"internalType": "address",
							"name": "token",
							"type": "address"
						},
						{
							"indexed": false,
							"internalType": "enum LendingConfig.AssetStatus",
							"name": "isActive",
							"type": "uint8"
						}
					],
					"name": "UpdateAssetStatus",
					"type": "event"
				},
				{
					"inputs": [
						{
							"internalType": "address",
							"name": "_token",
							"type": "address"
						},
						{
							"internalType": "bool",
							"name": "_borrowingEnabled",
							"type": "bool"
						},
						{
							"internalType": "bool",
							"name": "_usageAsCollateralEnabled",
							"type": "bool"
						},
						{
							"internalType": "bool",
							"name": "_isfrozen",
							"type": "bool"
						},
						{
							"internalType": "bool",
							"name": "_isActive",
							"type": "bool"
						},
						{
							"internalType": "string",
							"name": "_symbol",
							"type": "string"
						},
						{
							"internalType": "uint256",
							"name": "_decimals",
							"type": "uint256"
						},
						{
							"internalType": "uint256",
							"name": "_borrowThreshold",
							"type": "uint256"
						},
						{
							"internalType": "uint256",
							"name": "_liquidationThreshold",
							"type": "uint256"
						}
					],
					"name": "addAsset",
					"outputs": [
						{
							"internalType": "bool",
							"name": "",
							"type": "bool"
						}
					],
					"stateMutability": "nonpayable",
					"type": "function"
				},
				{
					"inputs": [
						{
							"internalType": "address",
							"name": "_token",
							"type": "address"
						},
						{
							"internalType": "enum LendingConfig.Freeze",
							"name": "_choice",
							"type": "uint8"
						}
					],
					"name": "freezeUnFreezeAsset",
					"outputs": [
						{
							"internalType": "bool",
							"name": "",
							"type": "bool"
						}
					],
					"stateMutability": "nonpayable",
					"type": "function"
				},
				{
					"inputs": [
						{
							"internalType": "address",
							"name": "_token",
							"type": "address"
						}
					],
					"name": "getAssetByTokenAddress",
					"outputs": [
						{
							"components": [
								{
									"internalType": "address",
									"name": "token",
									"type": "address"
								},
								{
									"internalType": "string",
									"name": "symbol",
									"type": "string"
								},
								{
									"internalType": "uint256",
									"name": "decimals",
									"type": "uint256"
								},
								{
									"internalType": "uint256",
									"name": "borrowThreshold",
									"type": "uint256"
								},
								{
									"internalType": "uint256",
									"name": "liquidationThreshold",
									"type": "uint256"
								},
								{
									"internalType": "uint256",
									"name": "lastUpdateTimestamp",
									"type": "uint256"
								},
								{
									"internalType": "bool",
									"name": "borrowingEnabled",
									"type": "bool"
								},
								{
									"internalType": "bool",
									"name": "usageAsCollateralEnabled",
									"type": "bool"
								},
								{
									"internalType": "bool",
									"name": "isfrozen",
									"type": "bool"
								},
								{
									"internalType": "bool",
									"name": "isActive",
									"type": "bool"
								}
							],
							"internalType": "struct LendingConfig.Asset",
							"name": "",
							"type": "tuple"
						}
					],
					"stateMutability": "view",
					"type": "function"
				},
				{
					"inputs": [
						{
							"internalType": "string",
							"name": "_symbol",
							"type": "string"
						}
					],
					"name": "getAssetByTokenSymbol",
					"outputs": [
						{
							"components": [
								{
									"internalType": "address",
									"name": "token",
									"type": "address"
								},
								{
									"internalType": "string",
									"name": "symbol",
									"type": "string"
								},
								{
									"internalType": "uint256",
									"name": "decimals",
									"type": "uint256"
								},
								{
									"internalType": "uint256",
									"name": "borrowThreshold",
									"type": "uint256"
								},
								{
									"internalType": "uint256",
									"name": "liquidationThreshold",
									"type": "uint256"
								},
								{
									"internalType": "uint256",
									"name": "lastUpdateTimestamp",
									"type": "uint256"
								},
								{
									"internalType": "bool",
									"name": "borrowingEnabled",
									"type": "bool"
								},
								{
									"internalType": "bool",
									"name": "usageAsCollateralEnabled",
									"type": "bool"
								},
								{
									"internalType": "bool",
									"name": "isfrozen",
									"type": "bool"
								},
								{
									"internalType": "bool",
									"name": "isActive",
									"type": "bool"
								}
							],
							"internalType": "struct LendingConfig.Asset",
							"name": "",
							"type": "tuple"
						}
					],
					"stateMutability": "view",
					"type": "function"
				},
				{
					"inputs": [
						{
							"internalType": "address",
							"name": "_token",
							"type": "address"
						}
					],
					"name": "isBorrowingEnable",
					"outputs": [
						{
							"internalType": "bool",
							"name": "",
							"type": "bool"
						}
					],
					"stateMutability": "view",
					"type": "function"
				},
				{
					"inputs": [
						{
							"internalType": "address",
							"name": "_token",
							"type": "address"
						}
					],
					"name": "isCollateralEnable",
					"outputs": [
						{
							"internalType": "bool",
							"name": "",
							"type": "bool"
						}
					],
					"stateMutability": "view",
					"type": "function"
				},
				{
					"inputs": [
						{
							"internalType": "address",
							"name": "_token",
							"type": "address"
						}
					],
					"name": "isTokenInAssets",
					"outputs": [
						{
							"internalType": "bool",
							"name": "",
							"type": "bool"
						}
					],
					"stateMutability": "view",
					"type": "function"
				},
				{
					"inputs": [
						{
							"internalType": "address",
							"name": "_token",
							"type": "address"
						},
						{
							"internalType": "enum LendingConfig.AssetStatus",
							"name": "_choice",
							"type": "uint8"
						}
					],
					"name": "makeAssetActiveInactive",
					"outputs": [
						{
							"internalType": "bool",
							"name": "",
							"type": "bool"
						}
					],
					"stateMutability": "nonpayable",
					"type": "function"
				}
			],
			"devdoc": {
				"kind": "dev",
				"methods": {},
				"version": 1
			},
			"evm": {
				"assembly": "    /* \"Defi-project/V2_updated_27_02/LendingConfig.sol\":286:5629  contract LendingConfig {\r... */\n  mstore(0x40, 0x80)\n    /* \"Defi-project/V2_updated_27_02/LendingConfig.sol\":1152:1202  constructor(){\r... */\n  callvalue\n  dup1\n  iszero\n  tag_1\n  jumpi\n  0x00\n  dup1\n  revert\ntag_1:\n  pop\n    /* \"Defi-project/V2_updated_27_02/LendingConfig.sol\":1184:1194  msg.sender */\n  caller\n    /* \"Defi-project/V2_updated_27_02/LendingConfig.sol\":1176:1181  owner */\n  0x00\n  dup1\n    /* \"Defi-project/V2_updated_27_02/LendingConfig.sol\":1176:1194  owner = msg.sender */\n  0x0100\n  exp\n  dup2\n  sload\n  dup2\n  0xffffffffffffffffffffffffffffffffffffffff\n  mul\n  not\n  and\n  swap1\n  dup4\n  0xffffffffffffffffffffffffffffffffffffffff\n  and\n  mul\n  or\n  swap1\n  sstore\n  pop\n    /* \"Defi-project/V2_updated_27_02/LendingConfig.sol\":286:5629  contract LendingConfig {\r... */\n  dataSize(sub_0)\n  dup1\n  dataOffset(sub_0)\n  0x00\n  codecopy\n  0x00\n  return\nstop\n\nsub_0: assembly {\n        /* \"Defi-project/V2_updated_27_02/LendingConfig.sol\":286:5629  contract LendingConfig {\r... */\n      mstore(0x40, 0x80)\n      callvalue\n      dup1\n      iszero\n      tag_1\n      jumpi\n      0x00\n      dup1\n      revert\n    tag_1:\n      pop\n      jumpi(tag_2, lt(calldatasize, 0x04))\n      shr(0xe0, calldataload(0x00))\n      dup1\n      0x6a581825\n      gt\n      tag_11\n      jumpi\n      dup1\n      0x6a581825\n      eq\n      tag_7\n      jumpi\n      dup1\n      0x827401bb\n      eq\n      tag_8\n      jumpi\n      dup1\n      0xe2574030\n      eq\n      tag_9\n      jumpi\n      dup1\n      0xe7149623\n      eq\n      tag_10\n      jumpi\n      jump(tag_2)\n    tag_11:\n      dup1\n      0x25101dbc\n      eq\n      tag_3\n      jumpi\n      dup1\n      0x4c2fad06\n      eq\n      tag_4\n      jumpi\n      dup1\n      0x52a8ee7f\n      eq\n      tag_5\n      jumpi\n      dup1\n      0x671e3f75\n      eq\n      tag_6\n      jumpi\n    tag_2:\n      0x00\n      dup1\n      revert\n        /* \"Defi-project/V2_updated_27_02/LendingConfig.sol\":2625:2917  function isTokenInAssets(address _token) public view returns(bool){\r... */\n    tag_3:\n      tag_12\n      0x04\n      dup1\n      calldatasize\n      sub\n      dup2\n      add\n      swap1\n      tag_13\n      swap2\n      swap1\n      tag_14\n      jump\t// in\n    tag_13:\n      tag_15\n      jump\t// in\n    tag_12:\n      mload(0x40)\n      tag_16\n      swap2\n      swap1\n      tag_17\n      jump\t// in\n    tag_16:\n      mload(0x40)\n      dup1\n      swap2\n      sub\n      swap1\n      return\n        /* \"Defi-project/V2_updated_27_02/LendingConfig.sol\":1566:2617  function addAsset(\r... */\n    tag_4:\n      tag_18\n      0x04\n      dup1\n      calldatasize\n      sub\n      dup2\n      add\n      swap1\n      tag_19\n      swap2\n      swap1\n      tag_20\n      jump\t// in\n    tag_19:\n      tag_21\n      jump\t// in\n    tag_18:\n      mload(0x40)\n      tag_22\n      swap2\n      swap1\n      tag_17\n      jump\t// in\n    tag_22:\n      mload(0x40)\n      dup1\n      swap2\n      sub\n      swap1\n      return\n        /* \"Defi-project/V2_updated_27_02/LendingConfig.sol\":5305:5625  function isBorrowingEnable(address _token) public view returns(bool) {\r... */\n    tag_5:\n      tag_23\n      0x04\n      dup1\n      calldatasize\n      sub\n      dup2\n      add\n      swap1\n      tag_24\n      swap2\n      swap1\n      tag_14\n      jump\t// in\n    tag_24:\n      tag_25\n      jump\t// in\n    tag_23:\n      mload(0x40)\n      tag_26\n      swap2\n      swap1\n      tag_17\n      jump\t// in\n    tag_26:\n      mload(0x40)\n      dup1\n      swap2\n      sub\n      swap1\n      return\n        /* \"Defi-project/V2_updated_27_02/LendingConfig.sol\":2923:3589  function makeAssetActiveInactive(address _token, AssetStatus _choice) external onlyOwner returns(bool){\r... */\n    tag_6:\n      tag_27\n      0x04\n      dup1\n      calldatasize\n      sub\n      dup2\n      add\n      swap1\n      tag_28\n      swap2\n      swap1\n      tag_29\n      jump\t// in\n    tag_28:\n      tag_30\n      jump\t// in\n    tag_27:\n      mload(0x40)\n      tag_31\n      swap2\n      swap1\n      tag_17\n      jump\t// in\n    tag_31:\n      mload(0x40)\n      dup1\n      swap2\n      sub\n      swap1\n      return\n        /* \"Defi-project/V2_updated_27_02/LendingConfig.sol\":4967:5296  function isCollateralEnable(address _token) public view returns(bool) {\r... */\n    tag_7:\n      tag_32\n      0x04\n      dup1\n      calldatasize\n      sub\n      dup2\n      add\n      swap1\n      tag_33\n      swap2\n      swap1\n      tag_14\n      jump\t// in\n    tag_33:\n      tag_34\n      jump\t// in\n    tag_32:\n      mload(0x40)\n      tag_35\n      swap2\n      swap1\n      tag_17\n      jump\t// in\n    tag_35:\n      mload(0x40)\n      dup1\n      swap2\n      sub\n      swap1\n      return\n        /* \"Defi-project/V2_updated_27_02/LendingConfig.sol\":4569:4959  function getAssetByTokenSymbol(string memory _symbol) public view returns(Asset memory) {\r... */\n    tag_8:\n      tag_36\n      0x04\n      dup1\n      calldatasize\n      sub\n      dup2\n      add\n      swap1\n      tag_37\n      swap2\n      swap1\n      tag_38\n      jump\t// in\n    tag_37:\n      tag_39\n      jump\t// in\n    tag_36:\n      mload(0x40)\n      tag_40\n      swap2\n      swap1\n      tag_41\n      jump\t// in\n    tag_40:\n      mload(0x40)\n      dup1\n      swap2\n      sub\n      swap1\n      return\n        /* \"Defi-project/V2_updated_27_02/LendingConfig.sol\":4237:4561  function getAssetByTokenAddress(address _token) public view returns(Asset memory) {\r... */\n    tag_9:\n      tag_42\n      0x04\n      dup1\n      calldatasize\n      sub\n      dup2\n      add\n      swap1\n      tag_43\n      swap2\n      swap1\n      tag_14\n      jump\t// in\n    tag_43:\n      tag_44\n      jump\t// in\n    tag_42:\n      mload(0x40)\n      tag_45\n      swap2\n      swap1\n      tag_41\n      jump\t// in\n    tag_45:\n      mload(0x40)\n      dup1\n      swap2\n      sub\n      swap1\n      return\n        /* \"Defi-project/V2_updated_27_02/LendingConfig.sol\":3597:4229  function freezeUnFreezeAsset(address _token, Freeze _choice) public returns(bool){\r... */\n    tag_10:\n      tag_46\n      0x04\n      dup1\n      calldatasize\n      sub\n      dup2\n      add\n      swap1\n      tag_47\n      swap2\n      swap1\n      tag_48\n      jump\t// in\n    tag_47:\n      tag_49\n      jump\t// in\n    tag_46:\n      mload(0x40)\n      tag_50\n      swap2\n      swap1\n      tag_17\n      jump\t// in\n    tag_50:\n      mload(0x40)\n      dup1\n      swap2\n      sub\n      swap1\n      return\n        /* \"Defi-project/V2_updated_27_02/LendingConfig.sol\":2625:2917  function isTokenInAssets(address _token) public view returns(bool){\r... */\n    tag_15:\n        /* \"Defi-project/V2_updated_27_02/LendingConfig.sol\":2686:2690  bool */\n      0x00\n        /* \"Defi-project/V2_updated_27_02/LendingConfig.sol\":2702:2720  uint256 assetCount */\n      dup1\n        /* \"Defi-project/V2_updated_27_02/LendingConfig.sol\":2723:2729  assets */\n      0x02\n        /* \"Defi-project/V2_updated_27_02/LendingConfig.sol\":2723:2736  assets.length */\n      dup1\n      sload\n      swap1\n      pop\n        /* \"Defi-project/V2_updated_27_02/LendingConfig.sol\":2702:2736  uint256 assetCount = assets.length */\n      swap1\n      pop\n        /* \"Defi-project/V2_updated_27_02/LendingConfig.sol\":2752:2758  uint i */\n      0x00\n        /* \"Defi-project/V2_updated_27_02/LendingConfig.sol\":2747:2887  for (uint i = 0; i < assetCount; i++) {\r... */\n    tag_52:\n        /* \"Defi-project/V2_updated_27_02/LendingConfig.sol\":2768:2778  assetCount */\n      dup2\n        /* \"Defi-project/V2_updated_27_02/LendingConfig.sol\":2764:2765  i */\n      dup2\n        /* \"Defi-project/V2_updated_27_02/LendingConfig.sol\":2764:2778  i < assetCount */\n      lt\n        /* \"Defi-project/V2_updated_27_02/LendingConfig.sol\":2747:2887  for (uint i = 0; i < assetCount; i++) {\r... */\n      iszero\n      tag_53\n      jumpi\n        /* \"Defi-project/V2_updated_27_02/LendingConfig.sol\":2823:2829  _token */\n      dup4\n        /* \"Defi-project/V2_updated_27_02/LendingConfig.sol\":2804:2829  assets[i].token == _token */\n      0xffffffffffffffffffffffffffffffffffffffff\n      and\n        /* \"Defi-project/V2_updated_27_02/LendingConfig.sol\":2804:2810  assets */\n      0x02\n        /* \"Defi-project/V2_updated_27_02/LendingConfig.sol\":2811:2812  i */\n      dup3\n        /* \"Defi-project/V2_updated_27_02/LendingConfig.sol\":2804:2813  assets[i] */\n      dup2\n      sload\n      dup2\n      lt\n      tag_55\n      jumpi\n      tag_56\n      tag_57\n      jump\t// in\n    tag_56:\n    tag_55:\n      swap1\n      0x00\n      mstore\n      keccak256(0x00, 0x20)\n      swap1\n      0x07\n      mul\n      add\n        /* \"Defi-project/V2_updated_27_02/LendingConfig.sol\":2804:2819  assets[i].token */\n      0x00\n      add\n      0x00\n      swap1\n      sload\n      swap1\n      0x0100\n      exp\n      swap1\n      div\n      0xffffffffffffffffffffffffffffffffffffffff\n      and\n        /* \"Defi-project/V2_updated_27_02/LendingConfig.sol\":2804:2829  assets[i].token == _token */\n      0xffffffffffffffffffffffffffffffffffffffff\n      and\n      eq\n        /* \"Defi-project/V2_updated_27_02/LendingConfig.sol\":2800:2876  if (assets[i].token == _token){\r... */\n      iszero\n      tag_59\n      jumpi\n        /* \"Defi-project/V2_updated_27_02/LendingConfig.sol\":2856:2860  true */\n      0x01\n        /* \"Defi-project/V2_updated_27_02/LendingConfig.sol\":2849:2860  return true */\n      swap3\n      pop\n      pop\n      pop\n      jump(tag_51)\n        /* \"Defi-project/V2_updated_27_02/LendingConfig.sol\":2800:2876  if (assets[i].token == _token){\r... */\n    tag_59:\n        /* \"Defi-project/V2_updated_27_02/LendingConfig.sol\":2780:2783  i++ */\n      dup1\n      dup1\n      tag_60\n      swap1\n      tag_61\n      jump\t// in\n    tag_60:\n      swap2\n      pop\n      pop\n        /* \"Defi-project/V2_updated_27_02/LendingConfig.sol\":2747:2887  for (uint i = 0; i < assetCount; i++) {\r... */\n      jump(tag_52)\n    tag_53:\n      pop\n        /* \"Defi-project/V2_updated_27_02/LendingConfig.sol\":2904:2909  false */\n      0x00\n        /* \"Defi-project/V2_updated_27_02/LendingConfig.sol\":2897:2909  return false */\n      swap2\n      pop\n      pop\n        /* \"Defi-project/V2_updated_27_02/LendingConfig.sol\":2625:2917  function isTokenInAssets(address _token) public view returns(bool){\r... */\n    tag_51:\n      swap2\n      swap1\n      pop\n      jump\t// out\n        /* \"Defi-project/V2_updated_27_02/LendingConfig.sol\":1566:2617  function addAsset(\r... */\n    tag_21:\n        /* \"Defi-project/V2_updated_27_02/LendingConfig.sol\":1921:1925  bool */\n      0x00\n        /* \"Defi-project/V2_updated_27_02/LendingConfig.sol\":755:765  msg.sender */\n      caller\n        /* \"Defi-project/V2_updated_27_02/LendingConfig.sol\":746:765  owner == msg.sender */\n      0xffffffffffffffffffffffffffffffffffffffff\n      and\n        /* \"Defi-project/V2_updated_27_02/LendingConfig.sol\":746:751  owner */\n      0x00\n      dup1\n      sload\n      swap1\n      0x0100\n      exp\n      swap1\n      div\n      0xffffffffffffffffffffffffffffffffffffffff\n      and\n        /* \"Defi-project/V2_updated_27_02/LendingConfig.sol\":746:765  owner == msg.sender */\n      0xffffffffffffffffffffffffffffffffffffffff\n      and\n      eq\n        /* \"Defi-project/V2_updated_27_02/LendingConfig.sol\":738:797  require(owner == msg.sender, \"Not Owner, cannot perfrm OP\") */\n      tag_63\n      jumpi\n      mload(0x40)\n      0x08c379a000000000000000000000000000000000000000000000000000000000\n      dup2\n      mstore\n      0x04\n      add\n      tag_64\n      swap1\n      tag_65\n      jump\t// in\n    tag_64:\n      mload(0x40)\n      dup1\n      swap2\n      sub\n      swap1\n      revert\n    tag_63:\n        /* \"Defi-project/V2_updated_27_02/LendingConfig.sol\":1031:1041  msg.sender */\n      caller\n        /* \"Defi-project/V2_updated_27_02/LendingConfig.sol\":993:1041  addressesProvider.getLendingPool() == msg.sender */\n      0xffffffffffffffffffffffffffffffffffffffff\n      and\n        /* \"Defi-project/V2_updated_27_02/LendingConfig.sol\":993:1010  addressesProvider */\n      0x01\n      0x00\n      swap1\n      sload\n      swap1\n      0x0100\n      exp\n      swap1\n      div\n      0xffffffffffffffffffffffffffffffffffffffff\n      and\n        /* \"Defi-project/V2_updated_27_02/LendingConfig.sol\":993:1025  addressesProvider.getLendingPool */\n      0xffffffffffffffffffffffffffffffffffffffff\n      and\n      0x0261bf8b\n        /* \"Defi-project/V2_updated_27_02/LendingConfig.sol\":993:1027  addressesProvider.getLendingPool() */\n      mload(0x40)\n      dup2\n      0xffffffff\n      and\n      0xe0\n      shl\n      dup2\n      mstore\n      0x04\n      add\n      0x20\n      mload(0x40)\n      dup1\n      dup4\n      sub\n      dup2\n      dup7\n      dup1\n      extcodesize\n      iszero\n      dup1\n      iszero\n      tag_67\n      jumpi\n      0x00\n      dup1\n      revert\n    tag_67:\n      pop\n      gas\n      staticcall\n      iszero\n      dup1\n      iszero\n      tag_69\n      jumpi\n      returndatasize\n      0x00\n      dup1\n      returndatacopy\n      revert(0x00, returndatasize)\n    tag_69:\n      pop\n      pop\n      pop\n      pop\n      mload(0x40)\n      returndatasize\n      not(0x1f)\n      0x1f\n      dup3\n      add\n      and\n      dup3\n      add\n      dup1\n      0x40\n      mstore\n      pop\n      dup2\n      add\n      swap1\n      tag_70\n      swap2\n      swap1\n      tag_71\n      jump\t// in\n    tag_70:\n        /* \"Defi-project/V2_updated_27_02/LendingConfig.sol\":993:1041  addressesProvider.getLendingPool() == msg.sender */\n      0xffffffffffffffffffffffffffffffffffffffff\n      and\n      eq\n        /* \"Defi-project/V2_updated_27_02/LendingConfig.sol\":971:1124  require(\r... */\n      tag_72\n      jumpi\n      mload(0x40)\n      0x08c379a000000000000000000000000000000000000000000000000000000000\n      dup2\n      mstore\n      0x04\n      add\n      tag_73\n      swap1\n      tag_74\n      jump\t// in\n    tag_73:\n      mload(0x40)\n      dup1\n      swap2\n      sub\n      swap1\n      revert\n    tag_72:\n        /* \"Defi-project/V2_updated_27_02/LendingConfig.sol\":1970:1976  assets */\n      0x02\n        /* \"Defi-project/V2_updated_27_02/LendingConfig.sol\":1996:2492  Asset({\r... */\n      mload(0x40)\n      dup1\n      0x0140\n      add\n      0x40\n      mstore\n      dup1\n        /* \"Defi-project/V2_updated_27_02/LendingConfig.sol\":2028:2034  _token */\n      dup13\n        /* \"Defi-project/V2_updated_27_02/LendingConfig.sol\":1996:2492  Asset({\r... */\n      0xffffffffffffffffffffffffffffffffffffffff\n      and\n      dup2\n      mstore\n      0x20\n      add\n        /* \"Defi-project/V2_updated_27_02/LendingConfig.sol\":2061:2068  _symbol */\n      dup8\n        /* \"Defi-project/V2_updated_27_02/LendingConfig.sol\":1996:2492  Asset({\r... */\n      dup2\n      mstore\n      0x20\n      add\n        /* \"Defi-project/V2_updated_27_02/LendingConfig.sol\":2097:2106  _decimals */\n      dup7\n        /* \"Defi-project/V2_updated_27_02/LendingConfig.sol\":1996:2492  Asset({\r... */\n      dup2\n      mstore\n      0x20\n      add\n        /* \"Defi-project/V2_updated_27_02/LendingConfig.sol\":2142:2158  _borrowThreshold */\n      dup6\n        /* \"Defi-project/V2_updated_27_02/LendingConfig.sol\":1996:2492  Asset({\r... */\n      dup2\n      mstore\n      0x20\n      add\n        /* \"Defi-project/V2_updated_27_02/LendingConfig.sol\":2200:2221  _liquidationThreshold */\n      dup5\n        /* \"Defi-project/V2_updated_27_02/LendingConfig.sol\":1996:2492  Asset({\r... */\n      dup2\n      mstore\n      0x20\n      add\n        /* \"Defi-project/V2_updated_27_02/LendingConfig.sol\":2261:2276  block.timestamp */\n      timestamp\n        /* \"Defi-project/V2_updated_27_02/LendingConfig.sol\":1996:2492  Asset({\r... */\n      dup2\n      mstore\n      0x20\n      add\n        /* \"Defi-project/V2_updated_27_02/LendingConfig.sol\":2313:2330  _borrowingEnabled */\n      dup12\n        /* \"Defi-project/V2_updated_27_02/LendingConfig.sol\":1996:2492  Asset({\r... */\n      iszero\n      iszero\n      dup2\n      mstore\n      0x20\n      add\n        /* \"Defi-project/V2_updated_27_02/LendingConfig.sol\":2375:2400  _usageAsCollateralEnabled */\n      dup11\n        /* \"Defi-project/V2_updated_27_02/LendingConfig.sol\":1996:2492  Asset({\r... */\n      iszero\n      iszero\n      dup2\n      mstore\n      0x20\n      add\n        /* \"Defi-project/V2_updated_27_02/LendingConfig.sol\":2429:2438  _isfrozen */\n      dup10\n        /* \"Defi-project/V2_updated_27_02/LendingConfig.sol\":1996:2492  Asset({\r... */\n      iszero\n      iszero\n      dup2\n      mstore\n      0x20\n      add\n        /* \"Defi-project/V2_updated_27_02/LendingConfig.sol\":2467:2476  _isActive */\n      dup9\n        /* \"Defi-project/V2_updated_27_02/LendingConfig.sol\":1996:2492  Asset({\r... */\n      iszero\n      iszero\n      dup2\n      mstore\n      pop\n        /* \"Defi-project/V2_updated_27_02/LendingConfig.sol\":1970:2503  assets.push(\r... */\n      swap1\n      dup1\n      0x01\n      dup2\n      sload\n      add\n      dup1\n      dup3\n      sstore\n      dup1\n      swap2\n      pop\n      pop\n      0x01\n      swap1\n      sub\n      swap1\n      0x00\n      mstore\n      keccak256(0x00, 0x20)\n      swap1\n      0x07\n      mul\n      add\n      0x00\n      swap1\n      swap2\n      swap1\n      swap2\n      swap1\n      swap2\n      pop\n      0x00\n      dup3\n      add\n      mload\n      dup2\n      0x00\n      add\n      exp(0x0100, 0x00)\n      dup2\n      sload\n      dup2\n      0xffffffffffffffffffffffffffffffffffffffff\n      mul\n      not\n      and\n      swap1\n      dup4\n      0xffffffffffffffffffffffffffffffffffffffff\n      and\n      mul\n      or\n      swap1\n      sstore\n      pop\n      0x20\n      dup3\n      add\n      mload\n      dup2\n      0x01\n      add\n      swap1\n      dup1\n      mload\n      swap1\n      0x20\n      add\n      swap1\n      tag_77\n      swap3\n      swap2\n      swap1\n      tag_78\n      jump\t// in\n    tag_77:\n      pop\n      0x40\n      dup3\n      add\n      mload\n      dup2\n      0x02\n      add\n      sstore\n      0x60\n      dup3\n      add\n      mload\n      dup2\n      0x03\n      add\n      sstore\n      0x80\n      dup3\n      add\n      mload\n      dup2\n      0x04\n      add\n      sstore\n      0xa0\n      dup3\n      add\n      mload\n      dup2\n      0x05\n      add\n      sstore\n      0xc0\n      dup3\n      add\n      mload\n      dup2\n      0x06\n      add\n      exp(0x0100, 0x00)\n      dup2\n      sload\n      dup2\n      0xff\n      mul\n      not\n      and\n      swap1\n      dup4\n      iszero\n      iszero\n      mul\n      or\n      swap1\n      sstore\n      pop\n      0xe0\n      dup3\n      add\n      mload\n      dup2\n      0x06\n      add\n      exp(0x0100, 0x01)\n      dup2\n      sload\n      dup2\n      0xff\n      mul\n      not\n      and\n      swap1\n      dup4\n      iszero\n      iszero\n      mul\n      or\n      swap1\n      sstore\n      pop\n      0x0100\n      dup3\n      add\n      mload\n      dup2\n      0x06\n      add\n      exp(0x0100, 0x02)\n      dup2\n      sload\n      dup2\n      0xff\n      mul\n      not\n      and\n      swap1\n      dup4\n      iszero\n      iszero\n      mul\n      or\n      swap1\n      sstore\n      pop\n      0x0120\n      dup3\n      add\n      mload\n      dup2\n      0x06\n      add\n      exp(0x0100, 0x03)\n      dup2\n      sload\n      dup2\n      0xff\n      mul\n      not\n      and\n      swap1\n      dup4\n      iszero\n      iszero\n      mul\n      or\n      swap1\n      sstore\n      pop\n      pop\n      pop\n        /* \"Defi-project/V2_updated_27_02/LendingConfig.sol\":2521:2587  AddAsset(_token, _symbol, _borrowThreshold, _liquidationThreshold) */\n      0xcd7be9ca97d79d2c4048b8402afd93bb5f487441dc211d4bd2e95011ccd423a0\n        /* \"Defi-project/V2_updated_27_02/LendingConfig.sol\":2530:2536  _token */\n      dup11\n        /* \"Defi-project/V2_updated_27_02/LendingConfig.sol\":2538:2545  _symbol */\n      dup7\n        /* \"Defi-project/V2_updated_27_02/LendingConfig.sol\":2547:2563  _borrowThreshold */\n      dup6\n        /* \"Defi-project/V2_updated_27_02/LendingConfig.sol\":2565:2586  _liquidationThreshold */\n      dup6\n        /* \"Defi-project/V2_updated_27_02/LendingConfig.sol\":2521:2587  AddAsset(_token, _symbol, _borrowThreshold, _liquidationThreshold) */\n      mload(0x40)\n      tag_79\n      swap5\n      swap4\n      swap3\n      swap2\n      swap1\n      tag_80\n      jump\t// in\n    tag_79:\n      mload(0x40)\n      dup1\n      swap2\n      sub\n      swap1\n      log1\n        /* \"Defi-project/V2_updated_27_02/LendingConfig.sol\":2605:2609  true */\n      0x01\n        /* \"Defi-project/V2_updated_27_02/LendingConfig.sol\":2598:2609  return true */\n      swap1\n      pop\n        /* \"Defi-project/V2_updated_27_02/LendingConfig.sol\":1566:2617  function addAsset(\r... */\n      swap10\n      swap9\n      pop\n      pop\n      pop\n      pop\n      pop\n      pop\n      pop\n      pop\n      pop\n      jump\t// out\n        /* \"Defi-project/V2_updated_27_02/LendingConfig.sol\":5305:5625  function isBorrowingEnable(address _token) public view returns(bool) {\r... */\n    tag_25:\n        /* \"Defi-project/V2_updated_27_02/LendingConfig.sol\":5368:5372  bool */\n      0x00\n        /* \"Defi-project/V2_updated_27_02/LendingConfig.sol\":5385:5402  uint256 assetsLen */\n      dup1\n        /* \"Defi-project/V2_updated_27_02/LendingConfig.sol\":5405:5411  assets */\n      0x02\n        /* \"Defi-project/V2_updated_27_02/LendingConfig.sol\":5405:5418  assets.length */\n      dup1\n      sload\n      swap1\n      pop\n        /* \"Defi-project/V2_updated_27_02/LendingConfig.sol\":5385:5418  uint256 assetsLen = assets.length */\n      swap1\n      pop\n        /* \"Defi-project/V2_updated_27_02/LendingConfig.sol\":5433:5439  uint i */\n      0x00\n        /* \"Defi-project/V2_updated_27_02/LendingConfig.sol\":5429:5595  for(uint i=0; i < assetsLen; i++) {\r... */\n    tag_82:\n        /* \"Defi-project/V2_updated_27_02/LendingConfig.sol\":5447:5456  assetsLen */\n      dup2\n        /* \"Defi-project/V2_updated_27_02/LendingConfig.sol\":5443:5444  i */\n      dup2\n        /* \"Defi-project/V2_updated_27_02/LendingConfig.sol\":5443:5456  i < assetsLen */\n      lt\n        /* \"Defi-project/V2_updated_27_02/LendingConfig.sol\":5429:5595  for(uint i=0; i < assetsLen; i++) {\r... */\n      iszero\n      tag_83\n      jumpi\n        /* \"Defi-project/V2_updated_27_02/LendingConfig.sol\":5500:5506  _token */\n      dup4\n        /* \"Defi-project/V2_updated_27_02/LendingConfig.sol\":5481:5506  assets[i].token == _token */\n      0xffffffffffffffffffffffffffffffffffffffff\n      and\n        /* \"Defi-project/V2_updated_27_02/LendingConfig.sol\":5481:5487  assets */\n      0x02\n        /* \"Defi-project/V2_updated_27_02/LendingConfig.sol\":5488:5489  i */\n      dup3\n        /* \"Defi-project/V2_updated_27_02/LendingConfig.sol\":5481:5490  assets[i] */\n      dup2\n      sload\n      dup2\n      lt\n      tag_85\n      jumpi\n      tag_86\n      tag_57\n      jump\t// in\n    tag_86:\n    tag_85:\n      swap1\n      0x00\n      mstore\n      keccak256(0x00, 0x20)\n      swap1\n      0x07\n      mul\n      add\n        /* \"Defi-project/V2_updated_27_02/LendingConfig.sol\":5481:5496  assets[i].token */\n      0x00\n      add\n      0x00\n      swap1\n      sload\n      swap1\n      0x0100\n      exp\n      swap1\n      div\n      0xffffffffffffffffffffffffffffffffffffffff\n      and\n        /* \"Defi-project/V2_updated_27_02/LendingConfig.sol\":5481:5506  assets[i].token == _token */\n      0xffffffffffffffffffffffffffffffffffffffff\n      and\n      eq\n        /* \"Defi-project/V2_updated_27_02/LendingConfig.sol\":5481:5536  assets[i].token == _token && assets[i].borrowingEnabled */\n      dup1\n      iszero\n      tag_88\n      jumpi\n      pop\n        /* \"Defi-project/V2_updated_27_02/LendingConfig.sol\":5510:5516  assets */\n      0x02\n        /* \"Defi-project/V2_updated_27_02/LendingConfig.sol\":5517:5518  i */\n      dup2\n        /* \"Defi-project/V2_updated_27_02/LendingConfig.sol\":5510:5519  assets[i] */\n      dup2\n      sload\n      dup2\n      lt\n      tag_89\n      jumpi\n      tag_90\n      tag_57\n      jump\t// in\n    tag_90:\n    tag_89:\n      swap1\n      0x00\n      mstore\n      keccak256(0x00, 0x20)\n      swap1\n      0x07\n      mul\n      add\n        /* \"Defi-project/V2_updated_27_02/LendingConfig.sol\":5510:5536  assets[i].borrowingEnabled */\n      0x06\n      add\n      0x00\n      swap1\n      sload\n      swap1\n      0x0100\n      exp\n      swap1\n      div\n      0xff\n      and\n        /* \"Defi-project/V2_updated_27_02/LendingConfig.sol\":5481:5536  assets[i].token == _token && assets[i].borrowingEnabled */\n    tag_88:\n        /* \"Defi-project/V2_updated_27_02/LendingConfig.sol\":5478:5584  if(assets[i].token == _token && assets[i].borrowingEnabled) {\r... */\n      iszero\n      tag_92\n      jumpi\n        /* \"Defi-project/V2_updated_27_02/LendingConfig.sol\":5564:5568  true */\n      0x01\n        /* \"Defi-project/V2_updated_27_02/LendingConfig.sol\":5557:5568  return true */\n      swap3\n      pop\n      pop\n      pop\n      jump(tag_81)\n        /* \"Defi-project/V2_updated_27_02/LendingConfig.sol\":5478:5584  if(assets[i].token == _token && assets[i].borrowingEnabled) {\r... */\n    tag_92:\n        /* \"Defi-project/V2_updated_27_02/LendingConfig.sol\":5458:5461  i++ */\n      dup1\n      dup1\n      tag_93\n      swap1\n      tag_61\n      jump\t// in\n    tag_93:\n      swap2\n      pop\n      pop\n        /* \"Defi-project/V2_updated_27_02/LendingConfig.sol\":5429:5595  for(uint i=0; i < assetsLen; i++) {\r... */\n      jump(tag_82)\n    tag_83:\n      pop\n        /* \"Defi-project/V2_updated_27_02/LendingConfig.sol\":5612:5617  false */\n      0x00\n        /* \"Defi-project/V2_updated_27_02/LendingConfig.sol\":5605:5617  return false */\n      swap2\n      pop\n      pop\n        /* \"Defi-project/V2_updated_27_02/LendingConfig.sol\":5305:5625  function isBorrowingEnable(address _token) public view returns(bool) {\r... */\n    tag_81:\n      swap2\n      swap1\n      pop\n      jump\t// out\n        /* \"Defi-project/V2_updated_27_02/LendingConfig.sol\":2923:3589  function makeAssetActiveInactive(address _token, AssetStatus _choice) external onlyOwner returns(bool){\r... */\n    tag_30:\n        /* \"Defi-project/V2_updated_27_02/LendingConfig.sol\":3020:3024  bool */\n      0x00\n        /* \"Defi-project/V2_updated_27_02/LendingConfig.sol\":755:765  msg.sender */\n      caller\n        /* \"Defi-project/V2_updated_27_02/LendingConfig.sol\":746:765  owner == msg.sender */\n      0xffffffffffffffffffffffffffffffffffffffff\n      and\n        /* \"Defi-project/V2_updated_27_02/LendingConfig.sol\":746:751  owner */\n      0x00\n      dup1\n      sload\n      swap1\n      0x0100\n      exp\n      swap1\n      div\n      0xffffffffffffffffffffffffffffffffffffffff\n      and\n        /* \"Defi-project/V2_updated_27_02/LendingConfig.sol\":746:765  owner == msg.sender */\n      0xffffffffffffffffffffffffffffffffffffffff\n      and\n      eq\n        /* \"Defi-project/V2_updated_27_02/LendingConfig.sol\":738:797  require(owner == msg.sender, \"Not Owner, cannot perfrm OP\") */\n      tag_95\n      jumpi\n      mload(0x40)\n      0x08c379a000000000000000000000000000000000000000000000000000000000\n      dup2\n      mstore\n      0x04\n      add\n      tag_96\n      swap1\n      tag_65\n      jump\t// in\n    tag_96:\n      mload(0x40)\n      dup1\n      swap2\n      sub\n      swap1\n      revert\n    tag_95:\n        /* \"Defi-project/V2_updated_27_02/LendingConfig.sol\":3036:3053  uint256 assetsLen */\n      0x00\n        /* \"Defi-project/V2_updated_27_02/LendingConfig.sol\":3056:3062  assets */\n      0x02\n        /* \"Defi-project/V2_updated_27_02/LendingConfig.sol\":3056:3069  assets.length */\n      dup1\n      sload\n      swap1\n      pop\n        /* \"Defi-project/V2_updated_27_02/LendingConfig.sol\":3036:3069  uint256 assetsLen = assets.length */\n      swap1\n      pop\n        /* \"Defi-project/V2_updated_27_02/LendingConfig.sol\":3085:3091  uint i */\n      0x00\n        /* \"Defi-project/V2_updated_27_02/LendingConfig.sol\":3080:3501  for (uint i = 0; i < assetsLen; i++) {\r... */\n    tag_98:\n        /* \"Defi-project/V2_updated_27_02/LendingConfig.sol\":3101:3110  assetsLen */\n      dup2\n        /* \"Defi-project/V2_updated_27_02/LendingConfig.sol\":3097:3098  i */\n      dup2\n        /* \"Defi-project/V2_updated_27_02/LendingConfig.sol\":3097:3110  i < assetsLen */\n      lt\n        /* \"Defi-project/V2_updated_27_02/LendingConfig.sol\":3080:3501  for (uint i = 0; i < assetsLen; i++) {\r... */\n      iszero\n      tag_99\n      jumpi\n        /* \"Defi-project/V2_updated_27_02/LendingConfig.sol\":3155:3161  _token */\n      dup5\n        /* \"Defi-project/V2_updated_27_02/LendingConfig.sol\":3136:3161  assets[i].token == _token */\n      0xffffffffffffffffffffffffffffffffffffffff\n      and\n        /* \"Defi-project/V2_updated_27_02/LendingConfig.sol\":3136:3142  assets */\n      0x02\n        /* \"Defi-project/V2_updated_27_02/LendingConfig.sol\":3143:3144  i */\n      dup3\n        /* \"Defi-project/V2_updated_27_02/LendingConfig.sol\":3136:3145  assets[i] */\n      dup2\n      sload\n      dup2\n      lt\n      tag_101\n      jumpi\n      tag_102\n      tag_57\n      jump\t// in\n    tag_102:\n    tag_101:\n      swap1\n      0x00\n      mstore\n      keccak256(0x00, 0x20)\n      swap1\n      0x07\n      mul\n      add\n        /* \"Defi-project/V2_updated_27_02/LendingConfig.sol\":3136:3151  assets[i].token */\n      0x00\n      add\n      0x00\n      swap1\n      sload\n      swap1\n      0x0100\n      exp\n      swap1\n      div\n      0xffffffffffffffffffffffffffffffffffffffff\n      and\n        /* \"Defi-project/V2_updated_27_02/LendingConfig.sol\":3136:3161  assets[i].token == _token */\n      0xffffffffffffffffffffffffffffffffffffffff\n      and\n      eq\n        /* \"Defi-project/V2_updated_27_02/LendingConfig.sol\":3132:3490  if (assets[i].token == _token){\r... */\n      iszero\n      tag_104\n      jumpi\n        /* \"Defi-project/V2_updated_27_02/LendingConfig.sol\":3196:3214  AssetStatus.ACTIVE */\n      0x00\n        /* \"Defi-project/V2_updated_27_02/LendingConfig.sol\":3185:3214  _choice == AssetStatus.ACTIVE */\n      0x01\n      dup2\n      gt\n      iszero\n      tag_105\n      jumpi\n      tag_106\n      tag_107\n      jump\t// in\n    tag_106:\n    tag_105:\n        /* \"Defi-project/V2_updated_27_02/LendingConfig.sol\":3185:3192  _choice */\n      dup5\n        /* \"Defi-project/V2_updated_27_02/LendingConfig.sol\":3185:3214  _choice == AssetStatus.ACTIVE */\n      0x01\n      dup2\n      gt\n      iszero\n      tag_108\n      jumpi\n      tag_109\n      tag_107\n      jump\t// in\n    tag_109:\n    tag_108:\n      eq\n        /* \"Defi-project/V2_updated_27_02/LendingConfig.sol\":3181:3379  if (_choice == AssetStatus.ACTIVE){\r... */\n      iszero\n      tag_110\n      jumpi\n        /* \"Defi-project/V2_updated_27_02/LendingConfig.sol\":3259:3263  true */\n      0x01\n        /* \"Defi-project/V2_updated_27_02/LendingConfig.sol\":3238:3244  assets */\n      0x02\n        /* \"Defi-project/V2_updated_27_02/LendingConfig.sol\":3245:3246  i */\n      dup3\n        /* \"Defi-project/V2_updated_27_02/LendingConfig.sol\":3238:3247  assets[i] */\n      dup2\n      sload\n      dup2\n      lt\n      tag_111\n      jumpi\n      tag_112\n      tag_57\n      jump\t// in\n    tag_112:\n    tag_111:\n      swap1\n      0x00\n      mstore\n      keccak256(0x00, 0x20)\n      swap1\n      0x07\n      mul\n      add\n        /* \"Defi-project/V2_updated_27_02/LendingConfig.sol\":3238:3256  assets[i].isActive */\n      0x06\n      add\n      0x03\n        /* \"Defi-project/V2_updated_27_02/LendingConfig.sol\":3238:3263  assets[i].isActive = true */\n      0x0100\n      exp\n      dup2\n      sload\n      dup2\n      0xff\n      mul\n      not\n      and\n      swap1\n      dup4\n      iszero\n      iszero\n      mul\n      or\n      swap1\n      sstore\n      pop\n        /* \"Defi-project/V2_updated_27_02/LendingConfig.sol\":3181:3379  if (_choice == AssetStatus.ACTIVE){\r... */\n      jump(tag_114)\n    tag_110:\n        /* \"Defi-project/V2_updated_27_02/LendingConfig.sol\":3354:3359  false */\n      0x00\n        /* \"Defi-project/V2_updated_27_02/LendingConfig.sol\":3333:3339  assets */\n      0x02\n        /* \"Defi-project/V2_updated_27_02/LendingConfig.sol\":3340:3341  i */\n      dup3\n        /* \"Defi-project/V2_updated_27_02/LendingConfig.sol\":3333:3342  assets[i] */\n      dup2\n      sload\n      dup2\n      lt\n      tag_115\n      jumpi\n      tag_116\n      tag_57\n      jump\t// in\n    tag_116:\n    tag_115:\n      swap1\n      0x00\n      mstore\n      keccak256(0x00, 0x20)\n      swap1\n      0x07\n      mul\n      add\n        /* \"Defi-project/V2_updated_27_02/LendingConfig.sol\":3333:3351  assets[i].isActive */\n      0x06\n      add\n      0x03\n        /* \"Defi-project/V2_updated_27_02/LendingConfig.sol\":3333:3359  assets[i].isActive = false */\n      0x0100\n      exp\n      dup2\n      sload\n      dup2\n      0xff\n      mul\n      not\n      and\n      swap1\n      dup4\n      iszero\n      iszero\n      mul\n      or\n      swap1\n      sstore\n      pop\n        /* \"Defi-project/V2_updated_27_02/LendingConfig.sol\":3181:3379  if (_choice == AssetStatus.ACTIVE){\r... */\n    tag_114:\n        /* \"Defi-project/V2_updated_27_02/LendingConfig.sol\":3429:3444  block.timestamp */\n      timestamp\n        /* \"Defi-project/V2_updated_27_02/LendingConfig.sol\":3397:3403  assets */\n      0x02\n        /* \"Defi-project/V2_updated_27_02/LendingConfig.sol\":3404:3405  i */\n      dup3\n        /* \"Defi-project/V2_updated_27_02/LendingConfig.sol\":3397:3406  assets[i] */\n      dup2\n      sload\n      dup2\n      lt\n      tag_118\n      jumpi\n      tag_119\n      tag_57\n      jump\t// in\n    tag_119:\n    tag_118:\n      swap1\n      0x00\n      mstore\n      keccak256(0x00, 0x20)\n      swap1\n      0x07\n      mul\n      add\n        /* \"Defi-project/V2_updated_27_02/LendingConfig.sol\":3397:3426  assets[i].lastUpdateTimestamp */\n      0x05\n      add\n        /* \"Defi-project/V2_updated_27_02/LendingConfig.sol\":3397:3444  assets[i].lastUpdateTimestamp = block.timestamp */\n      dup2\n      swap1\n      sstore\n      pop\n        /* \"Defi-project/V2_updated_27_02/LendingConfig.sol\":3470:3474  true */\n      0x01\n        /* \"Defi-project/V2_updated_27_02/LendingConfig.sol\":3463:3474  return true */\n      swap3\n      pop\n      pop\n      pop\n      jump(tag_97)\n        /* \"Defi-project/V2_updated_27_02/LendingConfig.sol\":3132:3490  if (assets[i].token == _token){\r... */\n    tag_104:\n        /* \"Defi-project/V2_updated_27_02/LendingConfig.sol\":3112:3115  i++ */\n      dup1\n      dup1\n      tag_121\n      swap1\n      tag_61\n      jump\t// in\n    tag_121:\n      swap2\n      pop\n      pop\n        /* \"Defi-project/V2_updated_27_02/LendingConfig.sol\":3080:3501  for (uint i = 0; i < assetsLen; i++) {\r... */\n      jump(tag_98)\n    tag_99:\n      pop\n        /* \"Defi-project/V2_updated_27_02/LendingConfig.sol\":3516:3550  UpdateAssetStatus(_token, _choice) */\n      0x1bc4f6a74fdbf500e13db259c58a58c59533ea54a4b93010d0126f6061ec3753\n        /* \"Defi-project/V2_updated_27_02/LendingConfig.sol\":3534:3540  _token */\n      dup5\n        /* \"Defi-project/V2_updated_27_02/LendingConfig.sol\":3542:3549  _choice */\n      dup5\n        /* \"Defi-project/V2_updated_27_02/LendingConfig.sol\":3516:3550  UpdateAssetStatus(_token, _choice) */\n      mload(0x40)\n      tag_122\n      swap3\n      swap2\n      swap1\n      tag_123\n      jump\t// in\n    tag_122:\n      mload(0x40)\n      dup1\n      swap2\n      sub\n      swap1\n      log1\n        /* \"Defi-project/V2_updated_27_02/LendingConfig.sol\":3576:3581  false */\n      0x00\n        /* \"Defi-project/V2_updated_27_02/LendingConfig.sol\":3569:3581  return false */\n      swap2\n      pop\n      pop\n        /* \"Defi-project/V2_updated_27_02/LendingConfig.sol\":808:809  _ */\n    tag_97:\n        /* \"Defi-project/V2_updated_27_02/LendingConfig.sol\":2923:3589  function makeAssetActiveInactive(address _token, AssetStatus _choice) external onlyOwner returns(bool){\r... */\n      swap3\n      swap2\n      pop\n      pop\n      jump\t// out\n        /* \"Defi-project/V2_updated_27_02/LendingConfig.sol\":4967:5296  function isCollateralEnable(address _token) public view returns(bool) {\r... */\n    tag_34:\n        /* \"Defi-project/V2_updated_27_02/LendingConfig.sol\":5031:5035  bool */\n      0x00\n        /* \"Defi-project/V2_updated_27_02/LendingConfig.sol\":5048:5065  uint256 assetsLen */\n      dup1\n        /* \"Defi-project/V2_updated_27_02/LendingConfig.sol\":5068:5074  assets */\n      0x02\n        /* \"Defi-project/V2_updated_27_02/LendingConfig.sol\":5068:5081  assets.length */\n      dup1\n      sload\n      swap1\n      pop\n        /* \"Defi-project/V2_updated_27_02/LendingConfig.sol\":5048:5081  uint256 assetsLen = assets.length */\n      swap1\n      pop\n        /* \"Defi-project/V2_updated_27_02/LendingConfig.sol\":5096:5102  uint i */\n      0x00\n        /* \"Defi-project/V2_updated_27_02/LendingConfig.sol\":5092:5266  for(uint i=0; i < assetsLen; i++) {\r... */\n    tag_125:\n        /* \"Defi-project/V2_updated_27_02/LendingConfig.sol\":5110:5119  assetsLen */\n      dup2\n        /* \"Defi-project/V2_updated_27_02/LendingConfig.sol\":5106:5107  i */\n      dup2\n        /* \"Defi-project/V2_updated_27_02/LendingConfig.sol\":5106:5119  i < assetsLen */\n      lt\n        /* \"Defi-project/V2_updated_27_02/LendingConfig.sol\":5092:5266  for(uint i=0; i < assetsLen; i++) {\r... */\n      iszero\n      tag_126\n      jumpi\n        /* \"Defi-project/V2_updated_27_02/LendingConfig.sol\":5163:5169  _token */\n      dup4\n        /* \"Defi-project/V2_updated_27_02/LendingConfig.sol\":5144:5169  assets[i].token == _token */\n      0xffffffffffffffffffffffffffffffffffffffff\n      and\n        /* \"Defi-project/V2_updated_27_02/LendingConfig.sol\":5144:5150  assets */\n      0x02\n        /* \"Defi-project/V2_updated_27_02/LendingConfig.sol\":5151:5152  i */\n      dup3\n        /* \"Defi-project/V2_updated_27_02/LendingConfig.sol\":5144:5153  assets[i] */\n      dup2\n      sload\n      dup2\n      lt\n      tag_128\n      jumpi\n      tag_129\n      tag_57\n      jump\t// in\n    tag_129:\n    tag_128:\n      swap1\n      0x00\n      mstore\n      keccak256(0x00, 0x20)\n      swap1\n      0x07\n      mul\n      add\n        /* \"Defi-project/V2_updated_27_02/LendingConfig.sol\":5144:5159  assets[i].token */\n      0x00\n      add\n      0x00\n      swap1\n      sload\n      swap1\n      0x0100\n      exp\n      swap1\n      div\n      0xffffffffffffffffffffffffffffffffffffffff\n      and\n        /* \"Defi-project/V2_updated_27_02/LendingConfig.sol\":5144:5169  assets[i].token == _token */\n      0xffffffffffffffffffffffffffffffffffffffff\n      and\n      eq\n        /* \"Defi-project/V2_updated_27_02/LendingConfig.sol\":5144:5207  assets[i].token == _token && assets[i].usageAsCollateralEnabled */\n      dup1\n      iszero\n      tag_131\n      jumpi\n      pop\n        /* \"Defi-project/V2_updated_27_02/LendingConfig.sol\":5173:5179  assets */\n      0x02\n        /* \"Defi-project/V2_updated_27_02/LendingConfig.sol\":5180:5181  i */\n      dup2\n        /* \"Defi-project/V2_updated_27_02/LendingConfig.sol\":5173:5182  assets[i] */\n      dup2\n      sload\n      dup2\n      lt\n      tag_132\n      jumpi\n      tag_133\n      tag_57\n      jump\t// in\n    tag_133:\n    tag_132:\n      swap1\n      0x00\n      mstore\n      keccak256(0x00, 0x20)\n      swap1\n      0x07\n      mul\n      add\n        /* \"Defi-project/V2_updated_27_02/LendingConfig.sol\":5173:5207  assets[i].usageAsCollateralEnabled */\n      0x06\n      add\n      0x01\n      swap1\n      sload\n      swap1\n      0x0100\n      exp\n      swap1\n      div\n      0xff\n      and\n        /* \"Defi-project/V2_updated_27_02/LendingConfig.sol\":5144:5207  assets[i].token == _token && assets[i].usageAsCollateralEnabled */\n    tag_131:\n        /* \"Defi-project/V2_updated_27_02/LendingConfig.sol\":5141:5255  if(assets[i].token == _token && assets[i].usageAsCollateralEnabled) {\r... */\n      iszero\n      tag_135\n      jumpi\n        /* \"Defi-project/V2_updated_27_02/LendingConfig.sol\":5235:5239  true */\n      0x01\n        /* \"Defi-project/V2_updated_27_02/LendingConfig.sol\":5228:5239  return true */\n      swap3\n      pop\n      pop\n      pop\n      jump(tag_124)\n        /* \"Defi-project/V2_updated_27_02/LendingConfig.sol\":5141:5255  if(assets[i].token == _token && assets[i].usageAsCollateralEnabled) {\r... */\n    tag_135:\n        /* \"Defi-project/V2_updated_27_02/LendingConfig.sol\":5121:5124  i++ */\n      dup1\n      dup1\n      tag_136\n      swap1\n      tag_61\n      jump\t// in\n    tag_136:\n      swap2\n      pop\n      pop\n        /* \"Defi-project/V2_updated_27_02/LendingConfig.sol\":5092:5266  for(uint i=0; i < assetsLen; i++) {\r... */\n      jump(tag_125)\n    tag_126:\n      pop\n        /* \"Defi-project/V2_updated_27_02/LendingConfig.sol\":5283:5288  false */\n      0x00\n        /* \"Defi-project/V2_updated_27_02/LendingConfig.sol\":5276:5288  return false */\n      swap2\n      pop\n      pop\n        /* \"Defi-project/V2_updated_27_02/LendingConfig.sol\":4967:5296  function isCollateralEnable(address _token) public view returns(bool) {\r... */\n    tag_124:\n      swap2\n      swap1\n      pop\n      jump\t// out\n        /* \"Defi-project/V2_updated_27_02/LendingConfig.sol\":4569:4959  function getAssetByTokenSymbol(string memory _symbol) public view returns(Asset memory) {\r... */\n    tag_39:\n        /* \"Defi-project/V2_updated_27_02/LendingConfig.sol\":4643:4655  Asset memory */\n      tag_137\n      tag_138\n      jump\t// in\n    tag_137:\n        /* \"Defi-project/V2_updated_27_02/LendingConfig.sol\":4668:4685  uint256 assetsLen */\n      0x00\n        /* \"Defi-project/V2_updated_27_02/LendingConfig.sol\":4688:4694  assets */\n      0x02\n        /* \"Defi-project/V2_updated_27_02/LendingConfig.sol\":4688:4701  assets.length */\n      dup1\n      sload\n      swap1\n      pop\n        /* \"Defi-project/V2_updated_27_02/LendingConfig.sol\":4668:4701  uint256 assetsLen = assets.length */\n      swap1\n      pop\n        /* \"Defi-project/V2_updated_27_02/LendingConfig.sol\":4717:4723  uint i */\n      0x00\n        /* \"Defi-project/V2_updated_27_02/LendingConfig.sol\":4712:4916  for (uint i = 0; i < assetsLen; i++) {\r... */\n    tag_140:\n        /* \"Defi-project/V2_updated_27_02/LendingConfig.sol\":4733:4742  assetsLen */\n      dup2\n        /* \"Defi-project/V2_updated_27_02/LendingConfig.sol\":4729:4730  i */\n      dup2\n        /* \"Defi-project/V2_updated_27_02/LendingConfig.sol\":4729:4742  i < assetsLen */\n      lt\n        /* \"Defi-project/V2_updated_27_02/LendingConfig.sol\":4712:4916  for (uint i = 0; i < assetsLen; i++) {\r... */\n      iszero\n      tag_141\n      jumpi\n        /* \"Defi-project/V2_updated_27_02/LendingConfig.sol\":4844:4851  _symbol */\n      dup4\n        /* \"Defi-project/V2_updated_27_02/LendingConfig.sol\":4827:4852  abi.encodePacked(_symbol) */\n      add(0x20, mload(0x40))\n      tag_143\n      swap2\n      swap1\n      tag_144\n      jump\t// in\n    tag_143:\n      mload(0x40)\n      0x20\n      dup2\n      dup4\n      sub\n      sub\n      dup2\n      mstore\n      swap1\n      0x40\n      mstore\n        /* \"Defi-project/V2_updated_27_02/LendingConfig.sol\":4817:4853  keccak256(abi.encodePacked(_symbol)) */\n      dup1\n      mload\n      swap1\n      0x20\n      add\n      keccak256\n        /* \"Defi-project/V2_updated_27_02/LendingConfig.sol\":4795:4801  assets */\n      0x02\n        /* \"Defi-project/V2_updated_27_02/LendingConfig.sol\":4802:4803  i */\n      dup3\n        /* \"Defi-project/V2_updated_27_02/LendingConfig.sol\":4795:4804  assets[i] */\n      dup2\n      sload\n      dup2\n      lt\n      tag_145\n      jumpi\n      tag_146\n      tag_57\n      jump\t// in\n    tag_146:\n    tag_145:\n      swap1\n      0x00\n      mstore\n      keccak256(0x00, 0x20)\n      swap1\n      0x07\n      mul\n      add\n        /* \"Defi-project/V2_updated_27_02/LendingConfig.sol\":4795:4811  assets[i].symbol */\n      0x01\n      add\n        /* \"Defi-project/V2_updated_27_02/LendingConfig.sol\":4778:4812  abi.encodePacked(assets[i].symbol) */\n      add(0x20, mload(0x40))\n      tag_148\n      swap2\n      swap1\n      tag_149\n      jump\t// in\n    tag_148:\n      mload(0x40)\n      0x20\n      dup2\n      dup4\n      sub\n      sub\n      dup2\n      mstore\n      swap1\n      0x40\n      mstore\n        /* \"Defi-project/V2_updated_27_02/LendingConfig.sol\":4768:4813  keccak256(abi.encodePacked(assets[i].symbol)) */\n      dup1\n      mload\n      swap1\n      0x20\n      add\n      keccak256\n        /* \"Defi-project/V2_updated_27_02/LendingConfig.sol\":4768:4853  keccak256(abi.encodePacked(assets[i].symbol)) == keccak256(abi.encodePacked(_symbol)) */\n      eq\n        /* \"Defi-project/V2_updated_27_02/LendingConfig.sol\":4764:4905  if (keccak256(abi.encodePacked(assets[i].symbol)) == keccak256(abi.encodePacked(_symbol))){\r... */\n      iszero\n      tag_150\n      jumpi\n        /* \"Defi-project/V2_updated_27_02/LendingConfig.sol\":4880:4886  assets */\n      0x02\n        /* \"Defi-project/V2_updated_27_02/LendingConfig.sol\":4887:4888  i */\n      dup2\n        /* \"Defi-project/V2_updated_27_02/LendingConfig.sol\":4880:4889  assets[i] */\n      dup2\n      sload\n      dup2\n      lt\n      tag_151\n      jumpi\n      tag_152\n      tag_57\n      jump\t// in\n    tag_152:\n    tag_151:\n      swap1\n      0x00\n      mstore\n      keccak256(0x00, 0x20)\n      swap1\n      0x07\n      mul\n      add\n        /* \"Defi-project/V2_updated_27_02/LendingConfig.sol\":4873:4889  return assets[i] */\n      mload(0x40)\n      dup1\n      0x0140\n      add\n      0x40\n      mstore\n      swap1\n      dup2\n      0x00\n      dup3\n      add\n      0x00\n      swap1\n      sload\n      swap1\n      0x0100\n      exp\n      swap1\n      div\n      0xffffffffffffffffffffffffffffffffffffffff\n      and\n      0xffffffffffffffffffffffffffffffffffffffff\n      and\n      0xffffffffffffffffffffffffffffffffffffffff\n      and\n      dup2\n      mstore\n      0x20\n      add\n      0x01\n      dup3\n      add\n      dup1\n      sload\n      tag_154\n      swap1\n      tag_155\n      jump\t// in\n    tag_154:\n      dup1\n      0x1f\n      add\n      0x20\n      dup1\n      swap2\n      div\n      mul\n      0x20\n      add\n      mload(0x40)\n      swap1\n      dup2\n      add\n      0x40\n      mstore\n      dup1\n      swap3\n      swap2\n      swap1\n      dup2\n      dup2\n      mstore\n      0x20\n      add\n      dup3\n      dup1\n      sload\n      tag_156\n      swap1\n      tag_155\n      jump\t// in\n    tag_156:\n      dup1\n      iszero\n      tag_157\n      jumpi\n      dup1\n      0x1f\n      lt\n      tag_158\n      jumpi\n      0x0100\n      dup1\n      dup4\n      sload\n      div\n      mul\n      dup4\n      mstore\n      swap2\n      0x20\n      add\n      swap2\n      jump(tag_157)\n    tag_158:\n      dup3\n      add\n      swap2\n      swap1\n      0x00\n      mstore\n      keccak256(0x00, 0x20)\n      swap1\n    tag_159:\n      dup2\n      sload\n      dup2\n      mstore\n      swap1\n      0x01\n      add\n      swap1\n      0x20\n      add\n      dup1\n      dup4\n      gt\n      tag_159\n      jumpi\n      dup3\n      swap1\n      sub\n      0x1f\n      and\n      dup3\n      add\n      swap2\n    tag_157:\n      pop\n      pop\n      pop\n      pop\n      pop\n      dup2\n      mstore\n      0x20\n      add\n      0x02\n      dup3\n      add\n      sload\n      dup2\n      mstore\n      0x20\n      add\n      0x03\n      dup3\n      add\n      sload\n      dup2\n      mstore\n      0x20\n      add\n      0x04\n      dup3\n      add\n      sload\n      dup2\n      mstore\n      0x20\n      add\n      0x05\n      dup3\n      add\n      sload\n      dup2\n      mstore\n      0x20\n      add\n      0x06\n      dup3\n      add\n      0x00\n      swap1\n      sload\n      swap1\n      0x0100\n      exp\n      swap1\n      div\n      0xff\n      and\n      iszero\n      iszero\n      iszero\n      iszero\n      dup2\n      mstore\n      0x20\n      add\n      0x06\n      dup3\n      add\n      0x01\n      swap1\n      sload\n      swap1\n      0x0100\n      exp\n      swap1\n      div\n      0xff\n      and\n      iszero\n      iszero\n      iszero\n      iszero\n      dup2\n      mstore\n      0x20\n      add\n      0x06\n      dup3\n      add\n      0x02\n      swap1\n      sload\n      swap1\n      0x0100\n      exp\n      swap1\n      div\n      0xff\n      and\n      iszero\n      iszero\n      iszero\n      iszero\n      dup2\n      mstore\n      0x20\n      add\n      0x06\n      dup3\n      add\n      0x03\n      swap1\n      sload\n      swap1\n      0x0100\n      exp\n      swap1\n      div\n      0xff\n      and\n      iszero\n      iszero\n      iszero\n      iszero\n      dup2\n      mstore\n      pop\n      pop\n      swap3\n      pop\n      pop\n      pop\n      jump(tag_139)\n        /* \"Defi-project/V2_updated_27_02/LendingConfig.sol\":4764:4905  if (keccak256(abi.encodePacked(assets[i].symbol)) == keccak256(abi.encodePacked(_symbol))){\r... */\n    tag_150:\n        /* \"Defi-project/V2_updated_27_02/LendingConfig.sol\":4744:4747  i++ */\n      dup1\n      dup1\n      tag_160\n      swap1\n      tag_61\n      jump\t// in\n    tag_160:\n      swap2\n      pop\n      pop\n        /* \"Defi-project/V2_updated_27_02/LendingConfig.sol\":4712:4916  for (uint i = 0; i < assetsLen; i++) {\r... */\n      jump(tag_140)\n    tag_141:\n      pop\n        /* \"Defi-project/V2_updated_27_02/LendingConfig.sol\":4926:4951  revert(\"Asset not found\") */\n      mload(0x40)\n      0x08c379a000000000000000000000000000000000000000000000000000000000\n      dup2\n      mstore\n      0x04\n      add\n      tag_161\n      swap1\n      tag_162\n      jump\t// in\n    tag_161:\n      mload(0x40)\n      dup1\n      swap2\n      sub\n      swap1\n      revert\n        /* \"Defi-project/V2_updated_27_02/LendingConfig.sol\":4569:4959  function getAssetByTokenSymbol(string memory _symbol) public view returns(Asset memory) {\r... */\n    tag_139:\n      swap2\n      swap1\n      pop\n      jump\t// out\n        /* \"Defi-project/V2_updated_27_02/LendingConfig.sol\":4237:4561  function getAssetByTokenAddress(address _token) public view returns(Asset memory) {\r... */\n    tag_44:\n        /* \"Defi-project/V2_updated_27_02/LendingConfig.sol\":4305:4317  Asset memory */\n      tag_163\n      tag_138\n      jump\t// in\n    tag_163:\n        /* \"Defi-project/V2_updated_27_02/LendingConfig.sol\":4330:4347  uint256 assetsLen */\n      0x00\n        /* \"Defi-project/V2_updated_27_02/LendingConfig.sol\":4350:4356  assets */\n      0x02\n        /* \"Defi-project/V2_updated_27_02/LendingConfig.sol\":4350:4363  assets.length */\n      dup1\n      sload\n      swap1\n      pop\n        /* \"Defi-project/V2_updated_27_02/LendingConfig.sol\":4330:4363  uint256 assetsLen = assets.length */\n      swap1\n      pop\n        /* \"Defi-project/V2_updated_27_02/LendingConfig.sol\":4379:4385  uint i */\n      0x00\n        /* \"Defi-project/V2_updated_27_02/LendingConfig.sol\":4374:4518  for (uint i = 0; i < assetsLen; i++) {\r... */\n    tag_165:\n        /* \"Defi-project/V2_updated_27_02/LendingConfig.sol\":4395:4404  assetsLen */\n      dup2\n        /* \"Defi-project/V2_updated_27_02/LendingConfig.sol\":4391:4392  i */\n      dup2\n        /* \"Defi-project/V2_updated_27_02/LendingConfig.sol\":4391:4404  i < assetsLen */\n      lt\n        /* \"Defi-project/V2_updated_27_02/LendingConfig.sol\":4374:4518  for (uint i = 0; i < assetsLen; i++) {\r... */\n      iszero\n      tag_166\n      jumpi\n        /* \"Defi-project/V2_updated_27_02/LendingConfig.sol\":4449:4455  _token */\n      dup4\n        /* \"Defi-project/V2_updated_27_02/LendingConfig.sol\":4430:4455  assets[i].token == _token */\n      0xffffffffffffffffffffffffffffffffffffffff\n      and\n        /* \"Defi-project/V2_updated_27_02/LendingConfig.sol\":4430:4436  assets */\n      0x02\n        /* \"Defi-project/V2_updated_27_02/LendingConfig.sol\":4437:4438  i */\n      dup3\n        /* \"Defi-project/V2_updated_27_02/LendingConfig.sol\":4430:4439  assets[i] */\n      dup2\n      sload\n      dup2\n      lt\n      tag_168\n      jumpi\n      tag_169\n      tag_57\n      jump\t// in\n    tag_169:\n    tag_168:\n      swap1\n      0x00\n      mstore\n      keccak256(0x00, 0x20)\n      swap1\n      0x07\n      mul\n      add\n        /* \"Defi-project/V2_updated_27_02/LendingConfig.sol\":4430:4445  assets[i].token */\n      0x00\n      add\n      0x00\n      swap1\n      sload\n      swap1\n      0x0100\n      exp\n      swap1\n      div\n      0xffffffffffffffffffffffffffffffffffffffff\n      and\n        /* \"Defi-project/V2_updated_27_02/LendingConfig.sol\":4430:4455  assets[i].token == _token */\n      0xffffffffffffffffffffffffffffffffffffffff\n      and\n      eq\n        /* \"Defi-project/V2_updated_27_02/LendingConfig.sol\":4426:4507  if (assets[i].token == _token){\r... */\n      iszero\n      tag_171\n      jumpi\n        /* \"Defi-project/V2_updated_27_02/LendingConfig.sol\":4482:4488  assets */\n      0x02\n        /* \"Defi-project/V2_updated_27_02/LendingConfig.sol\":4489:4490  i */\n      dup2\n        /* \"Defi-project/V2_updated_27_02/LendingConfig.sol\":4482:4491  assets[i] */\n      dup2\n      sload\n      dup2\n      lt\n      tag_172\n      jumpi\n      tag_173\n      tag_57\n      jump\t// in\n    tag_173:\n    tag_172:\n      swap1\n      0x00\n      mstore\n      keccak256(0x00, 0x20)\n      swap1\n      0x07\n      mul\n      add\n        /* \"Defi-project/V2_updated_27_02/LendingConfig.sol\":4475:4491  return assets[i] */\n      mload(0x40)\n      dup1\n      0x0140\n      add\n      0x40\n      mstore\n      swap1\n      dup2\n      0x00\n      dup3\n      add\n      0x00\n      swap1\n      sload\n      swap1\n      0x0100\n      exp\n      swap1\n      div\n      0xffffffffffffffffffffffffffffffffffffffff\n      and\n      0xffffffffffffffffffffffffffffffffffffffff\n      and\n      0xffffffffffffffffffffffffffffffffffffffff\n      and\n      dup2\n      mstore\n      0x20\n      add\n      0x01\n      dup3\n      add\n      dup1\n      sload\n      tag_175\n      swap1\n      tag_155\n      jump\t// in\n    tag_175:\n      dup1\n      0x1f\n      add\n      0x20\n      dup1\n      swap2\n      div\n      mul\n      0x20\n      add\n      mload(0x40)\n      swap1\n      dup2\n      add\n      0x40\n      mstore\n      dup1\n      swap3\n      swap2\n      swap1\n      dup2\n      dup2\n      mstore\n      0x20\n      add\n      dup3\n      dup1\n      sload\n      tag_176\n      swap1\n      tag_155\n      jump\t// in\n    tag_176:\n      dup1\n      iszero\n      tag_177\n      jumpi\n      dup1\n      0x1f\n      lt\n      tag_178\n      jumpi\n      0x0100\n      dup1\n      dup4\n      sload\n      div\n      mul\n      dup4\n      mstore\n      swap2\n      0x20\n      add\n      swap2\n      jump(tag_177)\n    tag_178:\n      dup3\n      add\n      swap2\n      swap1\n      0x00\n      mstore\n      keccak256(0x00, 0x20)\n      swap1\n    tag_179:\n      dup2\n      sload\n      dup2\n      mstore\n      swap1\n      0x01\n      add\n      swap1\n      0x20\n      add\n      dup1\n      dup4\n      gt\n      tag_179\n      jumpi\n      dup3\n      swap1\n      sub\n      0x1f\n      and\n      dup3\n      add\n      swap2\n    tag_177:\n      pop\n      pop\n      pop\n      pop\n      pop\n      dup2\n      mstore\n      0x20\n      add\n      0x02\n      dup3\n      add\n      sload\n      dup2\n      mstore\n      0x20\n      add\n      0x03\n      dup3\n      add\n      sload\n      dup2\n      mstore\n      0x20\n      add\n      0x04\n      dup3\n      add\n      sload\n      dup2\n      mstore\n      0x20\n      add\n      0x05\n      dup3\n      add\n      sload\n      dup2\n      mstore\n      0x20\n      add\n      0x06\n      dup3\n      add\n      0x00\n      swap1\n      sload\n      swap1\n      0x0100\n      exp\n      swap1\n      div\n      0xff\n      and\n      iszero\n      iszero\n      iszero\n      iszero\n      dup2\n      mstore\n      0x20\n      add\n      0x06\n      dup3\n      add\n      0x01\n      swap1\n      sload\n      swap1\n      0x0100\n      exp\n      swap1\n      div\n      0xff\n      and\n      iszero\n      iszero\n      iszero\n      iszero\n      dup2\n      mstore\n      0x20\n      add\n      0x06\n      dup3\n      add\n      0x02\n      swap1\n      sload\n      swap1\n      0x0100\n      exp\n      swap1\n      div\n      0xff\n      and\n      iszero\n      iszero\n      iszero\n      iszero\n      dup2\n      mstore\n      0x20\n      add\n      0x06\n      dup3\n      add\n      0x03\n      swap1\n      sload\n      swap1\n      0x0100\n      exp\n      swap1\n      div\n      0xff\n      and\n      iszero\n      iszero\n      iszero\n      iszero\n      dup2\n      mstore\n      pop\n      pop\n      swap3\n      pop\n      pop\n      pop\n      jump(tag_164)\n        /* \"Defi-project/V2_updated_27_02/LendingConfig.sol\":4426:4507  if (assets[i].token == _token){\r... */\n    tag_171:\n        /* \"Defi-project/V2_updated_27_02/LendingConfig.sol\":4406:4409  i++ */\n      dup1\n      dup1\n      tag_180\n      swap1\n      tag_61\n      jump\t// in\n    tag_180:\n      swap2\n      pop\n      pop\n        /* \"Defi-project/V2_updated_27_02/LendingConfig.sol\":4374:4518  for (uint i = 0; i < assetsLen; i++) {\r... */\n      jump(tag_165)\n    tag_166:\n      pop\n        /* \"Defi-project/V2_updated_27_02/LendingConfig.sol\":4528:4553  revert(\"Asset not found\") */\n      mload(0x40)\n      0x08c379a000000000000000000000000000000000000000000000000000000000\n      dup2\n      mstore\n      0x04\n      add\n      tag_181\n      swap1\n      tag_162\n      jump\t// in\n    tag_181:\n      mload(0x40)\n      dup1\n      swap2\n      sub\n      swap1\n      revert\n        /* \"Defi-project/V2_updated_27_02/LendingConfig.sol\":4237:4561  function getAssetByTokenAddress(address _token) public view returns(Asset memory) {\r... */\n    tag_164:\n      swap2\n      swap1\n      pop\n      jump\t// out\n        /* \"Defi-project/V2_updated_27_02/LendingConfig.sol\":3597:4229  function freezeUnFreezeAsset(address _token, Freeze _choice) public returns(bool){\r... */\n    tag_49:\n        /* \"Defi-project/V2_updated_27_02/LendingConfig.sol\":3673:3677  bool */\n      0x00\n        /* \"Defi-project/V2_updated_27_02/LendingConfig.sol\":3689:3706  uint256 assetsLen */\n      dup1\n        /* \"Defi-project/V2_updated_27_02/LendingConfig.sol\":3709:3715  assets */\n      0x02\n        /* \"Defi-project/V2_updated_27_02/LendingConfig.sol\":3709:3722  assets.length */\n      dup1\n      sload\n      swap1\n      pop\n        /* \"Defi-project/V2_updated_27_02/LendingConfig.sol\":3689:3722  uint256 assetsLen = assets.length */\n      swap1\n      pop\n        /* \"Defi-project/V2_updated_27_02/LendingConfig.sol\":3738:3744  uint i */\n      0x00\n        /* \"Defi-project/V2_updated_27_02/LendingConfig.sol\":3733:4149  for (uint i = 0; i < assetsLen; i++) {\r... */\n    tag_183:\n        /* \"Defi-project/V2_updated_27_02/LendingConfig.sol\":3754:3763  assetsLen */\n      dup2\n        /* \"Defi-project/V2_updated_27_02/LendingConfig.sol\":3750:3751  i */\n      dup2\n        /* \"Defi-project/V2_updated_27_02/LendingConfig.sol\":3750:3763  i < assetsLen */\n      lt\n        /* \"Defi-project/V2_updated_27_02/LendingConfig.sol\":3733:4149  for (uint i = 0; i < assetsLen; i++) {\r... */\n      iszero\n      tag_184\n      jumpi\n        /* \"Defi-project/V2_updated_27_02/LendingConfig.sol\":3808:3814  _token */\n      dup5\n        /* \"Defi-project/V2_updated_27_02/LendingConfig.sol\":3789:3814  assets[i].token == _token */\n      0xffffffffffffffffffffffffffffffffffffffff\n      and\n        /* \"Defi-project/V2_updated_27_02/LendingConfig.sol\":3789:3795  assets */\n      0x02\n        /* \"Defi-project/V2_updated_27_02/LendingConfig.sol\":3796:3797  i */\n      dup3\n        /* \"Defi-project/V2_updated_27_02/LendingConfig.sol\":3789:3798  assets[i] */\n      dup2\n      sload\n      dup2\n      lt\n      tag_186\n      jumpi\n      tag_187\n      tag_57\n      jump\t// in\n    tag_187:\n    tag_186:\n      swap1\n      0x00\n      mstore\n      keccak256(0x00, 0x20)\n      swap1\n      0x07\n      mul\n      add\n        /* \"Defi-project/V2_updated_27_02/LendingConfig.sol\":3789:3804  assets[i].token */\n      0x00\n      add\n      0x00\n      swap1\n      sload\n      swap1\n      0x0100\n      exp\n      swap1\n      div\n      0xffffffffffffffffffffffffffffffffffffffff\n      and\n        /* \"Defi-project/V2_updated_27_02/LendingConfig.sol\":3789:3814  assets[i].token == _token */\n      0xffffffffffffffffffffffffffffffffffffffff\n      and\n      eq\n        /* \"Defi-project/V2_updated_27_02/LendingConfig.sol\":3785:4138  if (assets[i].token == _token){\r... */\n      iszero\n      tag_189\n      jumpi\n        /* \"Defi-project/V2_updated_27_02/LendingConfig.sol\":3849:3862  Freeze.FREEZE */\n      0x00\n        /* \"Defi-project/V2_updated_27_02/LendingConfig.sol\":3838:3862  _choice == Freeze.FREEZE */\n      0x01\n      dup2\n      gt\n      iszero\n      tag_190\n      jumpi\n      tag_191\n      tag_107\n      jump\t// in\n    tag_191:\n    tag_190:\n        /* \"Defi-project/V2_updated_27_02/LendingConfig.sol\":3838:3845  _choice */\n      dup5\n        /* \"Defi-project/V2_updated_27_02/LendingConfig.sol\":3838:3862  _choice == Freeze.FREEZE */\n      0x01\n      dup2\n      gt\n      iszero\n      tag_192\n      jumpi\n      tag_193\n      tag_107\n      jump\t// in\n    tag_193:\n    tag_192:\n      eq\n        /* \"Defi-project/V2_updated_27_02/LendingConfig.sol\":3834:4027  if (_choice == Freeze.FREEZE){\r... */\n      iszero\n      tag_194\n      jumpi\n        /* \"Defi-project/V2_updated_27_02/LendingConfig.sol\":3907:3911  true */\n      0x01\n        /* \"Defi-project/V2_updated_27_02/LendingConfig.sol\":3886:3892  assets */\n      0x02\n        /* \"Defi-project/V2_updated_27_02/LendingConfig.sol\":3893:3894  i */\n      dup3\n        /* \"Defi-project/V2_updated_27_02/LendingConfig.sol\":3886:3895  assets[i] */\n      dup2\n      sload\n      dup2\n      lt\n      tag_195\n      jumpi\n      tag_196\n      tag_57\n      jump\t// in\n    tag_196:\n    tag_195:\n      swap1\n      0x00\n      mstore\n      keccak256(0x00, 0x20)\n      swap1\n      0x07\n      mul\n      add\n        /* \"Defi-project/V2_updated_27_02/LendingConfig.sol\":3886:3904  assets[i].isfrozen */\n      0x06\n      add\n      0x02\n        /* \"Defi-project/V2_updated_27_02/LendingConfig.sol\":3886:3911  assets[i].isfrozen = true */\n      0x0100\n      exp\n      dup2\n      sload\n      dup2\n      0xff\n      mul\n      not\n      and\n      swap1\n      dup4\n      iszero\n      iszero\n      mul\n      or\n      swap1\n      sstore\n      pop\n        /* \"Defi-project/V2_updated_27_02/LendingConfig.sol\":3834:4027  if (_choice == Freeze.FREEZE){\r... */\n      jump(tag_198)\n    tag_194:\n        /* \"Defi-project/V2_updated_27_02/LendingConfig.sol\":4002:4007  false */\n      0x00\n        /* \"Defi-project/V2_updated_27_02/LendingConfig.sol\":3981:3987  assets */\n      0x02\n        /* \"Defi-project/V2_updated_27_02/LendingConfig.sol\":3988:3989  i */\n      dup3\n        /* \"Defi-project/V2_updated_27_02/LendingConfig.sol\":3981:3990  assets[i] */\n      dup2\n      sload\n      dup2\n      lt\n      tag_199\n      jumpi\n      tag_200\n      tag_57\n      jump\t// in\n    tag_200:\n    tag_199:\n      swap1\n      0x00\n      mstore\n      keccak256(0x00, 0x20)\n      swap1\n      0x07\n      mul\n      add\n        /* \"Defi-project/V2_updated_27_02/LendingConfig.sol\":3981:3999  assets[i].isfrozen */\n      0x06\n      add\n      0x02\n        /* \"Defi-project/V2_updated_27_02/LendingConfig.sol\":3981:4007  assets[i].isfrozen = false */\n      0x0100\n      exp\n      dup2\n      sload\n      dup2\n      0xff\n      mul\n      not\n      and\n      swap1\n      dup4\n      iszero\n      iszero\n      mul\n      or\n      swap1\n      sstore\n      pop\n        /* \"Defi-project/V2_updated_27_02/LendingConfig.sol\":3834:4027  if (_choice == Freeze.FREEZE){\r... */\n    tag_198:\n        /* \"Defi-project/V2_updated_27_02/LendingConfig.sol\":4077:4092  block.timestamp */\n      timestamp\n        /* \"Defi-project/V2_updated_27_02/LendingConfig.sol\":4045:4051  assets */\n      0x02\n        /* \"Defi-project/V2_updated_27_02/LendingConfig.sol\":4052:4053  i */\n      dup3\n        /* \"Defi-project/V2_updated_27_02/LendingConfig.sol\":4045:4054  assets[i] */\n      dup2\n      sload\n      dup2\n      lt\n      tag_202\n      jumpi\n      tag_203\n      tag_57\n      jump\t// in\n    tag_203:\n    tag_202:\n      swap1\n      0x00\n      mstore\n      keccak256(0x00, 0x20)\n      swap1\n      0x07\n      mul\n      add\n        /* \"Defi-project/V2_updated_27_02/LendingConfig.sol\":4045:4074  assets[i].lastUpdateTimestamp */\n      0x05\n      add\n        /* \"Defi-project/V2_updated_27_02/LendingConfig.sol\":4045:4092  assets[i].lastUpdateTimestamp = block.timestamp */\n      dup2\n      swap1\n      sstore\n      pop\n        /* \"Defi-project/V2_updated_27_02/LendingConfig.sol\":4118:4122  true */\n      0x01\n        /* \"Defi-project/V2_updated_27_02/LendingConfig.sol\":4111:4122  return true */\n      swap3\n      pop\n      pop\n      pop\n      jump(tag_182)\n        /* \"Defi-project/V2_updated_27_02/LendingConfig.sol\":3785:4138  if (assets[i].token == _token){\r... */\n    tag_189:\n        /* \"Defi-project/V2_updated_27_02/LendingConfig.sol\":3765:3768  i++ */\n      dup1\n      dup1\n      tag_205\n      swap1\n      tag_61\n      jump\t// in\n    tag_205:\n      swap2\n      pop\n      pop\n        /* \"Defi-project/V2_updated_27_02/LendingConfig.sol\":3733:4149  for (uint i = 0; i < assetsLen; i++) {\r... */\n      jump(tag_183)\n    tag_184:\n      pop\n        /* \"Defi-project/V2_updated_27_02/LendingConfig.sol\":4164:4198  UpdateAssetFrozen(_token, _choice) */\n      0x3f57ea1559cfee0ff7804a8bbf56c488fbd7f8d575acd8537d7f02a6ffb8bdb4\n        /* \"Defi-project/V2_updated_27_02/LendingConfig.sol\":4182:4188  _token */\n      dup5\n        /* \"Defi-project/V2_updated_27_02/LendingConfig.sol\":4190:4197  _choice */\n      dup5\n        /* \"Defi-project/V2_updated_27_02/LendingConfig.sol\":4164:4198  UpdateAssetFrozen(_token, _choice) */\n      mload(0x40)\n      tag_206\n      swap3\n      swap2\n      swap1\n      tag_207\n      jump\t// in\n    tag_206:\n      mload(0x40)\n      dup1\n      swap2\n      sub\n      swap1\n      log1\n        /* \"Defi-project/V2_updated_27_02/LendingConfig.sol\":4216:4221  false */\n      0x00\n        /* \"Defi-project/V2_updated_27_02/LendingConfig.sol\":4209:4221  return false */\n      swap2\n      pop\n      pop\n        /* \"Defi-project/V2_updated_27_02/LendingConfig.sol\":3597:4229  function freezeUnFreezeAsset(address _token, Freeze _choice) public returns(bool){\r... */\n    tag_182:\n      swap3\n      swap2\n      pop\n      pop\n      jump\t// out\n    tag_78:\n      dup3\n      dup1\n      sload\n      tag_208\n      swap1\n      tag_155\n      jump\t// in\n    tag_208:\n      swap1\n      0x00\n      mstore\n      keccak256(0x00, 0x20)\n      swap1\n      0x1f\n      add\n      0x20\n      swap1\n      div\n      dup2\n      add\n      swap3\n      dup3\n      tag_210\n      jumpi\n      0x00\n      dup6\n      sstore\n      jump(tag_209)\n    tag_210:\n      dup3\n      0x1f\n      lt\n      tag_211\n      jumpi\n      dup1\n      mload\n      not(0xff)\n      and\n      dup4\n      dup1\n      add\n      or\n      dup6\n      sstore\n      jump(tag_209)\n    tag_211:\n      dup3\n      dup1\n      add\n      0x01\n      add\n      dup6\n      sstore\n      dup3\n      iszero\n      tag_209\n      jumpi\n      swap2\n      dup3\n      add\n    tag_212:\n      dup3\n      dup2\n      gt\n      iszero\n      tag_213\n      jumpi\n      dup3\n      mload\n      dup3\n      sstore\n      swap2\n      0x20\n      add\n      swap2\n      swap1\n      0x01\n      add\n      swap1\n      jump(tag_212)\n    tag_213:\n    tag_209:\n      pop\n      swap1\n      pop\n      tag_214\n      swap2\n      swap1\n      tag_215\n      jump\t// in\n    tag_214:\n      pop\n      swap1\n      jump\t// out\n    tag_138:\n      mload(0x40)\n      dup1\n      0x0140\n      add\n      0x40\n      mstore\n      dup1\n      and(0xffffffffffffffffffffffffffffffffffffffff, 0x00)\n      dup2\n      mstore\n      0x20\n      add\n      0x60\n      dup2\n      mstore\n      0x20\n      add\n      0x00\n      dup2\n      mstore\n      0x20\n      add\n      0x00\n      dup2\n      mstore\n      0x20\n      add\n      0x00\n      dup2\n      mstore\n      0x20\n      add\n      0x00\n      dup2\n      mstore\n      0x20\n      add\n      iszero(iszero(0x00))\n      dup2\n      mstore\n      0x20\n      add\n      iszero(iszero(0x00))\n      dup2\n      mstore\n      0x20\n      add\n      iszero(iszero(0x00))\n      dup2\n      mstore\n      0x20\n      add\n      iszero(iszero(0x00))\n      dup2\n      mstore\n      pop\n      swap1\n      jump\t// out\n    tag_215:\n    tag_216:\n      dup1\n      dup3\n      gt\n      iszero\n      tag_217\n      jumpi\n      0x00\n      dup2\n      0x00\n      swap1\n      sstore\n      pop\n      0x01\n      add\n      jump(tag_216)\n    tag_217:\n      pop\n      swap1\n      jump\t// out\n        /* \"#utility.yul\":7:419   */\n    tag_219:\n        /* \"#utility.yul\":85:90   */\n      0x00\n        /* \"#utility.yul\":110:176   */\n      tag_221\n        /* \"#utility.yul\":126:175   */\n      tag_222\n        /* \"#utility.yul\":168:174   */\n      dup5\n        /* \"#utility.yul\":126:175   */\n      tag_223\n      jump\t// in\n    tag_222:\n        /* \"#utility.yul\":110:176   */\n      tag_224\n      jump\t// in\n    tag_221:\n        /* \"#utility.yul\":101:176   */\n      swap1\n      pop\n        /* \"#utility.yul\":199:205   */\n      dup3\n        /* \"#utility.yul\":192:197   */\n      dup2\n        /* \"#utility.yul\":185:206   */\n      mstore\n        /* \"#utility.yul\":237:241   */\n      0x20\n        /* \"#utility.yul\":230:235   */\n      dup2\n        /* \"#utility.yul\":226:242   */\n      add\n        /* \"#utility.yul\":275:278   */\n      dup5\n        /* \"#utility.yul\":266:272   */\n      dup5\n        /* \"#utility.yul\":261:264   */\n      dup5\n        /* \"#utility.yul\":257:273   */\n      add\n        /* \"#utility.yul\":254:279   */\n      gt\n        /* \"#utility.yul\":251:363   */\n      iszero\n      tag_225\n      jumpi\n        /* \"#utility.yul\":282:361   */\n      tag_226\n      tag_227\n      jump\t// in\n    tag_226:\n        /* \"#utility.yul\":251:363   */\n    tag_225:\n        /* \"#utility.yul\":372:413   */\n      tag_228\n        /* \"#utility.yul\":406:412   */\n      dup5\n        /* \"#utility.yul\":401:404   */\n      dup3\n        /* \"#utility.yul\":396:399   */\n      dup6\n        /* \"#utility.yul\":372:413   */\n      tag_229\n      jump\t// in\n    tag_228:\n        /* \"#utility.yul\":91:419   */\n      pop\n        /* \"#utility.yul\":7:419   */\n      swap4\n      swap3\n      pop\n      pop\n      pop\n      jump\t// out\n        /* \"#utility.yul\":425:564   */\n    tag_230:\n        /* \"#utility.yul\":471:476   */\n      0x00\n        /* \"#utility.yul\":509:515   */\n      dup2\n        /* \"#utility.yul\":496:516   */\n      calldataload\n        /* \"#utility.yul\":487:516   */\n      swap1\n      pop\n        /* \"#utility.yul\":525:558   */\n      tag_232\n        /* \"#utility.yul\":552:557   */\n      dup2\n        /* \"#utility.yul\":525:558   */\n      tag_233\n      jump\t// in\n    tag_232:\n        /* \"#utility.yul\":425:564   */\n      swap3\n      swap2\n      pop\n      pop\n      jump\t// out\n        /* \"#utility.yul\":570:713   */\n    tag_234:\n        /* \"#utility.yul\":627:632   */\n      0x00\n        /* \"#utility.yul\":658:664   */\n      dup2\n        /* \"#utility.yul\":652:665   */\n      mload\n        /* \"#utility.yul\":643:665   */\n      swap1\n      pop\n        /* \"#utility.yul\":674:707   */\n      tag_236\n        /* \"#utility.yul\":701:706   */\n      dup2\n        /* \"#utility.yul\":674:707   */\n      tag_233\n      jump\t// in\n    tag_236:\n        /* \"#utility.yul\":570:713   */\n      swap3\n      swap2\n      pop\n      pop\n      jump\t// out\n        /* \"#utility.yul\":719:852   */\n    tag_237:\n        /* \"#utility.yul\":762:767   */\n      0x00\n        /* \"#utility.yul\":800:806   */\n      dup2\n        /* \"#utility.yul\":787:807   */\n      calldataload\n        /* \"#utility.yul\":778:807   */\n      swap1\n      pop\n        /* \"#utility.yul\":816:846   */\n      tag_239\n        /* \"#utility.yul\":840:845   */\n      dup2\n        /* \"#utility.yul\":816:846   */\n      tag_240\n      jump\t// in\n    tag_239:\n        /* \"#utility.yul\":719:852   */\n      swap3\n      swap2\n      pop\n      pop\n      jump\t// out\n        /* \"#utility.yul\":858:1027   */\n    tag_241:\n        /* \"#utility.yul\":919:924   */\n      0x00\n        /* \"#utility.yul\":957:963   */\n      dup2\n        /* \"#utility.yul\":944:964   */\n      calldataload\n        /* \"#utility.yul\":935:964   */\n      swap1\n      pop\n        /* \"#utility.yul\":973:1021   */\n      tag_243\n        /* \"#utility.yul\":1015:1020   */\n      dup2\n        /* \"#utility.yul\":973:1021   */\n      tag_244\n      jump\t// in\n    tag_243:\n        /* \"#utility.yul\":858:1027   */\n      swap3\n      swap2\n      pop\n      pop\n      jump\t// out\n        /* \"#utility.yul\":1033:1192   */\n    tag_245:\n        /* \"#utility.yul\":1089:1094   */\n      0x00\n        /* \"#utility.yul\":1127:1133   */\n      dup2\n        /* \"#utility.yul\":1114:1134   */\n      calldataload\n        /* \"#utility.yul\":1105:1134   */\n      swap1\n      pop\n        /* \"#utility.yul\":1143:1186   */\n      tag_247\n        /* \"#utility.yul\":1180:1185   */\n      dup2\n        /* \"#utility.yul\":1143:1186   */\n      tag_248\n      jump\t// in\n    tag_247:\n        /* \"#utility.yul\":1033:1192   */\n      swap3\n      swap2\n      pop\n      pop\n      jump\t// out\n        /* \"#utility.yul\":1212:1552   */\n    tag_249:\n        /* \"#utility.yul\":1268:1273   */\n      0x00\n        /* \"#utility.yul\":1317:1320   */\n      dup3\n        /* \"#utility.yul\":1310:1314   */\n      0x1f\n        /* \"#utility.yul\":1302:1308   */\n      dup4\n        /* \"#utility.yul\":1298:1315   */\n      add\n        /* \"#utility.yul\":1294:1321   */\n      slt\n        /* \"#utility.yul\":1284:1406   */\n      tag_251\n      jumpi\n        /* \"#utility.yul\":1325:1404   */\n      tag_252\n      tag_253\n      jump\t// in\n    tag_252:\n        /* \"#utility.yul\":1284:1406   */\n    tag_251:\n        /* \"#utility.yul\":1442:1448   */\n      dup2\n        /* \"#utility.yul\":1429:1449   */\n      calldataload\n        /* \"#utility.yul\":1467:1546   */\n      tag_254\n        /* \"#utility.yul\":1542:1545   */\n      dup5\n        /* \"#utility.yul\":1534:1540   */\n      dup3\n        /* \"#utility.yul\":1527:1531   */\n      0x20\n        /* \"#utility.yul\":1519:1525   */\n      dup7\n        /* \"#utility.yul\":1515:1532   */\n      add\n        /* \"#utility.yul\":1467:1546   */\n      tag_219\n      jump\t// in\n    tag_254:\n        /* \"#utility.yul\":1458:1546   */\n      swap2\n      pop\n        /* \"#utility.yul\":1274:1552   */\n      pop\n        /* \"#utility.yul\":1212:1552   */\n      swap3\n      swap2\n      pop\n      pop\n      jump\t// out\n        /* \"#utility.yul\":1558:1697   */\n    tag_255:\n        /* \"#utility.yul\":1604:1609   */\n      0x00\n        /* \"#utility.yul\":1642:1648   */\n      dup2\n        /* \"#utility.yul\":1629:1649   */\n      calldataload\n        /* \"#utility.yul\":1620:1649   */\n      swap1\n      pop\n        /* \"#utility.yul\":1658:1691   */\n      tag_257\n        /* \"#utility.yul\":1685:1690   */\n      dup2\n        /* \"#utility.yul\":1658:1691   */\n      tag_258\n      jump\t// in\n    tag_257:\n        /* \"#utility.yul\":1558:1697   */\n      swap3\n      swap2\n      pop\n      pop\n      jump\t// out\n        /* \"#utility.yul\":1703:2032   */\n    tag_14:\n        /* \"#utility.yul\":1762:1768   */\n      0x00\n        /* \"#utility.yul\":1811:1813   */\n      0x20\n        /* \"#utility.yul\":1799:1808   */\n      dup3\n        /* \"#utility.yul\":1790:1797   */\n      dup5\n        /* \"#utility.yul\":1786:1809   */\n      sub\n        /* \"#utility.yul\":1782:1814   */\n      slt\n        /* \"#utility.yul\":1779:1898   */\n      iszero\n      tag_260\n      jumpi\n        /* \"#utility.yul\":1817:1896   */\n      tag_261\n      tag_262\n      jump\t// in\n    tag_261:\n        /* \"#utility.yul\":1779:1898   */\n    tag_260:\n        /* \"#utility.yul\":1937:1938   */\n      0x00\n        /* \"#utility.yul\":1962:2015   */\n      tag_263\n        /* \"#utility.yul\":2007:2014   */\n      dup5\n        /* \"#utility.yul\":1998:2004   */\n      dup3\n        /* \"#utility.yul\":1987:1996   */\n      dup6\n        /* \"#utility.yul\":1983:2005   */\n      add\n        /* \"#utility.yul\":1962:2015   */\n      tag_230\n      jump\t// in\n    tag_263:\n        /* \"#utility.yul\":1952:2015   */\n      swap2\n      pop\n        /* \"#utility.yul\":1908:2025   */\n      pop\n        /* \"#utility.yul\":1703:2032   */\n      swap3\n      swap2\n      pop\n      pop\n      jump\t// out\n        /* \"#utility.yul\":2038:2389   */\n    tag_71:\n        /* \"#utility.yul\":2108:2114   */\n      0x00\n        /* \"#utility.yul\":2157:2159   */\n      0x20\n        /* \"#utility.yul\":2145:2154   */\n      dup3\n        /* \"#utility.yul\":2136:2143   */\n      dup5\n        /* \"#utility.yul\":2132:2155   */\n      sub\n        /* \"#utility.yul\":2128:2160   */\n      slt\n        /* \"#utility.yul\":2125:2244   */\n      iszero\n      tag_265\n      jumpi\n        /* \"#utility.yul\":2163:2242   */\n      tag_266\n      tag_262\n      jump\t// in\n    tag_266:\n        /* \"#utility.yul\":2125:2244   */\n    tag_265:\n        /* \"#utility.yul\":2283:2284   */\n      0x00\n        /* \"#utility.yul\":2308:2372   */\n      tag_267\n        /* \"#utility.yul\":2364:2371   */\n      dup5\n        /* \"#utility.yul\":2355:2361   */\n      dup3\n        /* \"#utility.yul\":2344:2353   */\n      dup6\n        /* \"#utility.yul\":2340:2362   */\n      add\n        /* \"#utility.yul\":2308:2372   */\n      tag_234\n      jump\t// in\n    tag_267:\n        /* \"#utility.yul\":2298:2372   */\n      swap2\n      pop\n        /* \"#utility.yul\":2254:2382   */\n      pop\n        /* \"#utility.yul\":2038:2389   */\n      swap3\n      swap2\n      pop\n      pop\n      jump\t// out\n        /* \"#utility.yul\":2395:4046   */\n    tag_20:\n        /* \"#utility.yul\":2524:2530   */\n      0x00\n        /* \"#utility.yul\":2532:2538   */\n      dup1\n        /* \"#utility.yul\":2540:2546   */\n      0x00\n        /* \"#utility.yul\":2548:2554   */\n      dup1\n        /* \"#utility.yul\":2556:2562   */\n      0x00\n        /* \"#utility.yul\":2564:2570   */\n      dup1\n        /* \"#utility.yul\":2572:2578   */\n      0x00\n        /* \"#utility.yul\":2580:2586   */\n      dup1\n        /* \"#utility.yul\":2588:2594   */\n      0x00\n        /* \"#utility.yul\":2637:2640   */\n      0x0120\n        /* \"#utility.yul\":2625:2634   */\n      dup11\n        /* \"#utility.yul\":2616:2623   */\n      dup13\n        /* \"#utility.yul\":2612:2635   */\n      sub\n        /* \"#utility.yul\":2608:2641   */\n      slt\n        /* \"#utility.yul\":2605:2725   */\n      iszero\n      tag_269\n      jumpi\n        /* \"#utility.yul\":2644:2723   */\n      tag_270\n      tag_262\n      jump\t// in\n    tag_270:\n        /* \"#utility.yul\":2605:2725   */\n    tag_269:\n        /* \"#utility.yul\":2764:2765   */\n      0x00\n        /* \"#utility.yul\":2789:2842   */\n      tag_271\n        /* \"#utility.yul\":2834:2841   */\n      dup13\n        /* \"#utility.yul\":2825:2831   */\n      dup3\n        /* \"#utility.yul\":2814:2823   */\n      dup14\n        /* \"#utility.yul\":2810:2832   */\n      add\n        /* \"#utility.yul\":2789:2842   */\n      tag_230\n      jump\t// in\n    tag_271:\n        /* \"#utility.yul\":2779:2842   */\n      swap10\n      pop\n        /* \"#utility.yul\":2735:2852   */\n      pop\n        /* \"#utility.yul\":2891:2893   */\n      0x20\n        /* \"#utility.yul\":2917:2967   */\n      tag_272\n        /* \"#utility.yul\":2959:2966   */\n      dup13\n        /* \"#utility.yul\":2950:2956   */\n      dup3\n        /* \"#utility.yul\":2939:2948   */\n      dup14\n        /* \"#utility.yul\":2935:2957   */\n      add\n        /* \"#utility.yul\":2917:2967   */\n      tag_237\n      jump\t// in\n    tag_272:\n        /* \"#utility.yul\":2907:2967   */\n      swap9\n      pop\n        /* \"#utility.yul\":2862:2977   */\n      pop\n        /* \"#utility.yul\":3016:3018   */\n      0x40\n        /* \"#utility.yul\":3042:3092   */\n      tag_273\n        /* \"#utility.yul\":3084:3091   */\n      dup13\n        /* \"#utility.yul\":3075:3081   */\n      dup3\n        /* \"#utility.yul\":3064:3073   */\n      dup14\n        /* \"#utility.yul\":3060:3082   */\n      add\n        /* \"#utility.yul\":3042:3092   */\n      tag_237\n      jump\t// in\n    tag_273:\n        /* \"#utility.yul\":3032:3092   */\n      swap8\n      pop\n        /* \"#utility.yul\":2987:3102   */\n      pop\n        /* \"#utility.yul\":3141:3143   */\n      0x60\n        /* \"#utility.yul\":3167:3217   */\n      tag_274\n        /* \"#utility.yul\":3209:3216   */\n      dup13\n        /* \"#utility.yul\":3200:3206   */\n      dup3\n        /* \"#utility.yul\":3189:3198   */\n      dup14\n        /* \"#utility.yul\":3185:3207   */\n      add\n        /* \"#utility.yul\":3167:3217   */\n      tag_237\n      jump\t// in\n    tag_274:\n        /* \"#utility.yul\":3157:3217   */\n      swap7\n      pop\n        /* \"#utility.yul\":3112:3227   */\n      pop\n        /* \"#utility.yul\":3266:3269   */\n      0x80\n        /* \"#utility.yul\":3293:3343   */\n      tag_275\n        /* \"#utility.yul\":3335:3342   */\n      dup13\n        /* \"#utility.yul\":3326:3332   */\n      dup3\n        /* \"#utility.yul\":3315:3324   */\n      dup14\n        /* \"#utility.yul\":3311:3333   */\n      add\n        /* \"#utility.yul\":3293:3343   */\n      tag_237\n      jump\t// in\n    tag_275:\n        /* \"#utility.yul\":3283:3343   */\n      swap6\n      pop\n        /* \"#utility.yul\":3237:3353   */\n      pop\n        /* \"#utility.yul\":3420:3423   */\n      0xa0\n        /* \"#utility.yul\":3409:3418   */\n      dup11\n        /* \"#utility.yul\":3405:3424   */\n      add\n        /* \"#utility.yul\":3392:3425   */\n      calldataload\n        /* \"#utility.yul\":3452:3470   */\n      0xffffffffffffffff\n        /* \"#utility.yul\":3444:3450   */\n      dup2\n        /* \"#utility.yul\":3441:3471   */\n      gt\n        /* \"#utility.yul\":3438:3555   */\n      iszero\n      tag_276\n      jumpi\n        /* \"#utility.yul\":3474:3553   */\n      tag_277\n      tag_278\n      jump\t// in\n    tag_277:\n        /* \"#utility.yul\":3438:3555   */\n    tag_276:\n        /* \"#utility.yul\":3579:3642   */\n      tag_279\n        /* \"#utility.yul\":3634:3641   */\n      dup13\n        /* \"#utility.yul\":3625:3631   */\n      dup3\n        /* \"#utility.yul\":3614:3623   */\n      dup14\n        /* \"#utility.yul\":3610:3632   */\n      add\n        /* \"#utility.yul\":3579:3642   */\n      tag_249\n      jump\t// in\n    tag_279:\n        /* \"#utility.yul\":3569:3642   */\n      swap5\n      pop\n        /* \"#utility.yul\":3363:3652   */\n      pop\n        /* \"#utility.yul\":3691:3694   */\n      0xc0\n        /* \"#utility.yul\":3718:3771   */\n      tag_280\n        /* \"#utility.yul\":3763:3770   */\n      dup13\n        /* \"#utility.yul\":3754:3760   */\n      dup3\n        /* \"#utility.yul\":3743:3752   */\n      dup14\n        /* \"#utility.yul\":3739:3761   */\n      add\n        /* \"#utility.yul\":3718:3771   */\n      tag_255\n      jump\t// in\n    tag_280:\n        /* \"#utility.yul\":3708:3771   */\n      swap4\n      pop\n        /* \"#utility.yul\":3662:3781   */\n      pop\n        /* \"#utility.yul\":3820:3823   */\n      0xe0\n        /* \"#utility.yul\":3847:3900   */\n      tag_281\n        /* \"#utility.yul\":3892:3899   */\n      dup13\n        /* \"#utility.yul\":3883:3889   */\n      dup3\n        /* \"#utility.yul\":3872:3881   */\n      dup14\n        /* \"#utility.yul\":3868:3890   */\n      add\n        /* \"#utility.yul\":3847:3900   */\n      tag_255\n      jump\t// in\n    tag_281:\n        /* \"#utility.yul\":3837:3900   */\n      swap3\n      pop\n        /* \"#utility.yul\":3791:3910   */\n      pop\n        /* \"#utility.yul\":3949:3952   */\n      0x0100\n        /* \"#utility.yul\":3976:4029   */\n      tag_282\n        /* \"#utility.yul\":4021:4028   */\n      dup13\n        /* \"#utility.yul\":4012:4018   */\n      dup3\n        /* \"#utility.yul\":4001:4010   */\n      dup14\n        /* \"#utility.yul\":3997:4019   */\n      add\n        /* \"#utility.yul\":3976:4029   */\n      tag_255\n      jump\t// in\n    tag_282:\n        /* \"#utility.yul\":3966:4029   */\n      swap2\n      pop\n        /* \"#utility.yul\":3920:4039   */\n      pop\n        /* \"#utility.yul\":2395:4046   */\n      swap3\n      swap6\n      swap9\n      pop\n      swap3\n      swap6\n      swap9\n      pop\n      swap3\n      swap6\n      swap9\n      jump\t// out\n        /* \"#utility.yul\":4052:4556   */\n    tag_29:\n        /* \"#utility.yul\":4135:4141   */\n      0x00\n        /* \"#utility.yul\":4143:4149   */\n      dup1\n        /* \"#utility.yul\":4192:4194   */\n      0x40\n        /* \"#utility.yul\":4180:4189   */\n      dup4\n        /* \"#utility.yul\":4171:4178   */\n      dup6\n        /* \"#utility.yul\":4167:4190   */\n      sub\n        /* \"#utility.yul\":4163:4195   */\n      slt\n        /* \"#utility.yul\":4160:4279   */\n      iszero\n      tag_284\n      jumpi\n        /* \"#utility.yul\":4198:4277   */\n      tag_285\n      tag_262\n      jump\t// in\n    tag_285:\n        /* \"#utility.yul\":4160:4279   */\n    tag_284:\n        /* \"#utility.yul\":4318:4319   */\n      0x00\n        /* \"#utility.yul\":4343:4396   */\n      tag_286\n        /* \"#utility.yul\":4388:4395   */\n      dup6\n        /* \"#utility.yul\":4379:4385   */\n      dup3\n        /* \"#utility.yul\":4368:4377   */\n      dup7\n        /* \"#utility.yul\":4364:4386   */\n      add\n        /* \"#utility.yul\":4343:4396   */\n      tag_230\n      jump\t// in\n    tag_286:\n        /* \"#utility.yul\":4333:4396   */\n      swap3\n      pop\n        /* \"#utility.yul\":4289:4406   */\n      pop\n        /* \"#utility.yul\":4445:4447   */\n      0x20\n        /* \"#utility.yul\":4471:4539   */\n      tag_287\n        /* \"#utility.yul\":4531:4538   */\n      dup6\n        /* \"#utility.yul\":4522:4528   */\n      dup3\n        /* \"#utility.yul\":4511:4520   */\n      dup7\n        /* \"#utility.yul\":4507:4529   */\n      add\n        /* \"#utility.yul\":4471:4539   */\n      tag_241\n      jump\t// in\n    tag_287:\n        /* \"#utility.yul\":4461:4539   */\n      swap2\n      pop\n        /* \"#utility.yul\":4416:4549   */\n      pop\n        /* \"#utility.yul\":4052:4556   */\n      swap3\n      pop\n      swap3\n      swap1\n      pop\n      jump\t// out\n        /* \"#utility.yul\":4562:5056   */\n    tag_48:\n        /* \"#utility.yul\":4640:4646   */\n      0x00\n        /* \"#utility.yul\":4648:4654   */\n      dup1\n        /* \"#utility.yul\":4697:4699   */\n      0x40\n        /* \"#utility.yul\":4685:4694   */\n      dup4\n        /* \"#utility.yul\":4676:4683   */\n      dup6\n        /* \"#utility.yul\":4672:4695   */\n      sub\n        /* \"#utility.yul\":4668:4700   */\n      slt\n        /* \"#utility.yul\":4665:4784   */\n      iszero\n      tag_289\n      jumpi\n        /* \"#utility.yul\":4703:4782   */\n      tag_290\n      tag_262\n      jump\t// in\n    tag_290:\n        /* \"#utility.yul\":4665:4784   */\n    tag_289:\n        /* \"#utility.yul\":4823:4824   */\n      0x00\n        /* \"#utility.yul\":4848:4901   */\n      tag_291\n        /* \"#utility.yul\":4893:4900   */\n      dup6\n        /* \"#utility.yul\":4884:4890   */\n      dup3\n        /* \"#utility.yul\":4873:4882   */\n      dup7\n        /* \"#utility.yul\":4869:4891   */\n      add\n        /* \"#utility.yul\":4848:4901   */\n      tag_230\n      jump\t// in\n    tag_291:\n        /* \"#utility.yul\":4838:4901   */\n      swap3\n      pop\n        /* \"#utility.yul\":4794:4911   */\n      pop\n        /* \"#utility.yul\":4950:4952   */\n      0x20\n        /* \"#utility.yul\":4976:5039   */\n      tag_292\n        /* \"#utility.yul\":5031:5038   */\n      dup6\n        /* \"#utility.yul\":5022:5028   */\n      dup3\n        /* \"#utility.yul\":5011:5020   */\n      dup7\n        /* \"#utility.yul\":5007:5029   */\n      add\n        /* \"#utility.yul\":4976:5039   */\n      tag_245\n      jump\t// in\n    tag_292:\n        /* \"#utility.yul\":4966:5039   */\n      swap2\n      pop\n        /* \"#utility.yul\":4921:5049   */\n      pop\n        /* \"#utility.yul\":4562:5056   */\n      swap3\n      pop\n      swap3\n      swap1\n      pop\n      jump\t// out\n        /* \"#utility.yul\":5062:5571   */\n    tag_38:\n        /* \"#utility.yul\":5131:5137   */\n      0x00\n        /* \"#utility.yul\":5180:5182   */\n      0x20\n        /* \"#utility.yul\":5168:5177   */\n      dup3\n        /* \"#utility.yul\":5159:5166   */\n      dup5\n        /* \"#utility.yul\":5155:5178   */\n      sub\n        /* \"#utility.yul\":5151:5183   */\n      slt\n        /* \"#utility.yul\":5148:5267   */\n      iszero\n      tag_294\n      jumpi\n        /* \"#utility.yul\":5186:5265   */\n      tag_295\n      tag_262\n      jump\t// in\n    tag_295:\n        /* \"#utility.yul\":5148:5267   */\n    tag_294:\n        /* \"#utility.yul\":5334:5335   */\n      0x00\n        /* \"#utility.yul\":5323:5332   */\n      dup3\n        /* \"#utility.yul\":5319:5336   */\n      add\n        /* \"#utility.yul\":5306:5337   */\n      calldataload\n        /* \"#utility.yul\":5364:5382   */\n      0xffffffffffffffff\n        /* \"#utility.yul\":5356:5362   */\n      dup2\n        /* \"#utility.yul\":5353:5383   */\n      gt\n        /* \"#utility.yul\":5350:5467   */\n      iszero\n      tag_296\n      jumpi\n        /* \"#utility.yul\":5386:5465   */\n      tag_297\n      tag_278\n      jump\t// in\n    tag_297:\n        /* \"#utility.yul\":5350:5467   */\n    tag_296:\n        /* \"#utility.yul\":5491:5554   */\n      tag_298\n        /* \"#utility.yul\":5546:5553   */\n      dup5\n        /* \"#utility.yul\":5537:5543   */\n      dup3\n        /* \"#utility.yul\":5526:5535   */\n      dup6\n        /* \"#utility.yul\":5522:5544   */\n      add\n        /* \"#utility.yul\":5491:5554   */\n      tag_249\n      jump\t// in\n    tag_298:\n        /* \"#utility.yul\":5481:5554   */\n      swap2\n      pop\n        /* \"#utility.yul\":5277:5564   */\n      pop\n        /* \"#utility.yul\":5062:5571   */\n      swap3\n      swap2\n      pop\n      pop\n      jump\t// out\n        /* \"#utility.yul\":5577:5685   */\n    tag_299:\n        /* \"#utility.yul\":5654:5678   */\n      tag_301\n        /* \"#utility.yul\":5672:5677   */\n      dup2\n        /* \"#utility.yul\":5654:5678   */\n      tag_302\n      jump\t// in\n    tag_301:\n        /* \"#utility.yul\":5649:5652   */\n      dup3\n        /* \"#utility.yul\":5642:5679   */\n      mstore\n        /* \"#utility.yul\":5577:5685   */\n      pop\n      pop\n      jump\t// out\n        /* \"#utility.yul\":5691:5809   */\n    tag_303:\n        /* \"#utility.yul\":5778:5802   */\n      tag_305\n        /* \"#utility.yul\":5796:5801   */\n      dup2\n        /* \"#utility.yul\":5778:5802   */\n      tag_302\n      jump\t// in\n    tag_305:\n        /* \"#utility.yul\":5773:5776   */\n      dup3\n        /* \"#utility.yul\":5766:5803   */\n      mstore\n        /* \"#utility.yul\":5691:5809   */\n      pop\n      pop\n      jump\t// out\n        /* \"#utility.yul\":5815:5914   */\n    tag_306:\n        /* \"#utility.yul\":5886:5907   */\n      tag_308\n        /* \"#utility.yul\":5901:5906   */\n      dup2\n        /* \"#utility.yul\":5886:5907   */\n      tag_309\n      jump\t// in\n    tag_308:\n        /* \"#utility.yul\":5881:5884   */\n      dup3\n        /* \"#utility.yul\":5874:5908   */\n      mstore\n        /* \"#utility.yul\":5815:5914   */\n      pop\n      pop\n      jump\t// out\n        /* \"#utility.yul\":5920:6029   */\n    tag_310:\n        /* \"#utility.yul\":6001:6022   */\n      tag_312\n        /* \"#utility.yul\":6016:6021   */\n      dup2\n        /* \"#utility.yul\":6001:6022   */\n      tag_309\n      jump\t// in\n    tag_312:\n        /* \"#utility.yul\":5996:5999   */\n      dup3\n        /* \"#utility.yul\":5989:6023   */\n      mstore\n        /* \"#utility.yul\":5920:6029   */\n      pop\n      pop\n      jump\t// out\n        /* \"#utility.yul\":6035:6192   */\n    tag_313:\n        /* \"#utility.yul\":6135:6185   */\n      tag_315\n        /* \"#utility.yul\":6179:6184   */\n      dup2\n        /* \"#utility.yul\":6135:6185   */\n      tag_316\n      jump\t// in\n    tag_315:\n        /* \"#utility.yul\":6130:6133   */\n      dup3\n        /* \"#utility.yul\":6123:6186   */\n      mstore\n        /* \"#utility.yul\":6035:6192   */\n      pop\n      pop\n      jump\t// out\n        /* \"#utility.yul\":6198:6345   */\n    tag_317:\n        /* \"#utility.yul\":6293:6338   */\n      tag_319\n        /* \"#utility.yul\":6332:6337   */\n      dup2\n        /* \"#utility.yul\":6293:6338   */\n      tag_320\n      jump\t// in\n    tag_319:\n        /* \"#utility.yul\":6288:6291   */\n      dup3\n        /* \"#utility.yul\":6281:6339   */\n      mstore\n        /* \"#utility.yul\":6198:6345   */\n      pop\n      pop\n      jump\t// out\n        /* \"#utility.yul\":6351:6695   */\n    tag_321:\n        /* \"#utility.yul\":6429:6432   */\n      0x00\n        /* \"#utility.yul\":6457:6496   */\n      tag_323\n        /* \"#utility.yul\":6490:6495   */\n      dup3\n        /* \"#utility.yul\":6457:6496   */\n      tag_324\n      jump\t// in\n    tag_323:\n        /* \"#utility.yul\":6512:6573   */\n      tag_325\n        /* \"#utility.yul\":6566:6572   */\n      dup2\n        /* \"#utility.yul\":6561:6564   */\n      dup6\n        /* \"#utility.yul\":6512:6573   */\n      tag_326\n      jump\t// in\n    tag_325:\n        /* \"#utility.yul\":6505:6573   */\n      swap4\n      pop\n        /* \"#utility.yul\":6582:6634   */\n      tag_327\n        /* \"#utility.yul\":6627:6633   */\n      dup2\n        /* \"#utility.yul\":6622:6625   */\n      dup6\n        /* \"#utility.yul\":6615:6619   */\n      0x20\n        /* \"#utility.yul\":6608:6613   */\n      dup7\n        /* \"#utility.yul\":6604:6620   */\n      add\n        /* \"#utility.yul\":6582:6634   */\n      tag_328\n      jump\t// in\n    tag_327:\n        /* \"#utility.yul\":6659:6688   */\n      tag_329\n        /* \"#utility.yul\":6681:6687   */\n      dup2\n        /* \"#utility.yul\":6659:6688   */\n      tag_330\n      jump\t// in\n    tag_329:\n        /* \"#utility.yul\":6654:6657   */\n      dup5\n        /* \"#utility.yul\":6650:6689   */\n      add\n        /* \"#utility.yul\":6643:6689   */\n      swap2\n      pop\n        /* \"#utility.yul\":6433:6695   */\n      pop\n        /* \"#utility.yul\":6351:6695   */\n      swap3\n      swap2\n      pop\n      pop\n      jump\t// out\n        /* \"#utility.yul\":6701:7065   */\n    tag_331:\n        /* \"#utility.yul\":6789:6792   */\n      0x00\n        /* \"#utility.yul\":6817:6856   */\n      tag_333\n        /* \"#utility.yul\":6850:6855   */\n      dup3\n        /* \"#utility.yul\":6817:6856   */\n      tag_324\n      jump\t// in\n    tag_333:\n        /* \"#utility.yul\":6872:6943   */\n      tag_334\n        /* \"#utility.yul\":6936:6942   */\n      dup2\n        /* \"#utility.yul\":6931:6934   */\n      dup6\n        /* \"#utility.yul\":6872:6943   */\n      tag_335\n      jump\t// in\n    tag_334:\n        /* \"#utility.yul\":6865:6943   */\n      swap4\n      pop\n        /* \"#utility.yul\":6952:7004   */\n      tag_336\n        /* \"#utility.yul\":6997:7003   */\n      dup2\n        /* \"#utility.yul\":6992:6995   */\n      dup6\n        /* \"#utility.yul\":6985:6989   */\n      0x20\n        /* \"#utility.yul\":6978:6983   */\n      dup7\n        /* \"#utility.yul\":6974:6990   */\n      add\n        /* \"#utility.yul\":6952:7004   */\n      tag_328\n      jump\t// in\n    tag_336:\n        /* \"#utility.yul\":7029:7058   */\n      tag_337\n        /* \"#utility.yul\":7051:7057   */\n      dup2\n        /* \"#utility.yul\":7029:7058   */\n      tag_330\n      jump\t// in\n    tag_337:\n        /* \"#utility.yul\":7024:7027   */\n      dup5\n        /* \"#utility.yul\":7020:7059   */\n      add\n        /* \"#utility.yul\":7013:7059   */\n      swap2\n      pop\n        /* \"#utility.yul\":6793:7065   */\n      pop\n        /* \"#utility.yul\":6701:7065   */\n      swap3\n      swap2\n      pop\n      pop\n      jump\t// out\n        /* \"#utility.yul\":7071:7448   */\n    tag_338:\n        /* \"#utility.yul\":7177:7180   */\n      0x00\n        /* \"#utility.yul\":7205:7244   */\n      tag_340\n        /* \"#utility.yul\":7238:7243   */\n      dup3\n        /* \"#utility.yul\":7205:7244   */\n      tag_324\n      jump\t// in\n    tag_340:\n        /* \"#utility.yul\":7260:7349   */\n      tag_341\n        /* \"#utility.yul\":7342:7348   */\n      dup2\n        /* \"#utility.yul\":7337:7340   */\n      dup6\n        /* \"#utility.yul\":7260:7349   */\n      tag_342\n      jump\t// in\n    tag_341:\n        /* \"#utility.yul\":7253:7349   */\n      swap4\n      pop\n        /* \"#utility.yul\":7358:7410   */\n      tag_343\n        /* \"#utility.yul\":7403:7409   */\n      dup2\n        /* \"#utility.yul\":7398:7401   */\n      dup6\n        /* \"#utility.yul\":7391:7395   */\n      0x20\n        /* \"#utility.yul\":7384:7389   */\n      dup7\n        /* \"#utility.yul\":7380:7396   */\n      add\n        /* \"#utility.yul\":7358:7410   */\n      tag_328\n      jump\t// in\n    tag_343:\n        /* \"#utility.yul\":7435:7441   */\n      dup1\n        /* \"#utility.yul\":7430:7433   */\n      dup5\n        /* \"#utility.yul\":7426:7442   */\n      add\n        /* \"#utility.yul\":7419:7442   */\n      swap2\n      pop\n        /* \"#utility.yul\":7181:7448   */\n      pop\n        /* \"#utility.yul\":7071:7448   */\n      swap3\n      swap2\n      pop\n      pop\n      jump\t// out\n        /* \"#utility.yul\":7478:8323   */\n    tag_344:\n        /* \"#utility.yul\":7581:7584   */\n      0x00\n        /* \"#utility.yul\":7618:7623   */\n      dup2\n        /* \"#utility.yul\":7612:7624   */\n      sload\n        /* \"#utility.yul\":7647:7683   */\n      tag_346\n        /* \"#utility.yul\":7673:7682   */\n      dup2\n        /* \"#utility.yul\":7647:7683   */\n      tag_155\n      jump\t// in\n    tag_346:\n        /* \"#utility.yul\":7699:7788   */\n      tag_347\n        /* \"#utility.yul\":7781:7787   */\n      dup2\n        /* \"#utility.yul\":7776:7779   */\n      dup7\n        /* \"#utility.yul\":7699:7788   */\n      tag_342\n      jump\t// in\n    tag_347:\n        /* \"#utility.yul\":7692:7788   */\n      swap5\n      pop\n        /* \"#utility.yul\":7819:7820   */\n      0x01\n        /* \"#utility.yul\":7808:7817   */\n      dup3\n        /* \"#utility.yul\":7804:7821   */\n      and\n        /* \"#utility.yul\":7835:7836   */\n      0x00\n        /* \"#utility.yul\":7830:7967   */\n      dup2\n      eq\n      tag_349\n      jumpi\n        /* \"#utility.yul\":7981:7982   */\n      0x01\n        /* \"#utility.yul\":7976:8317   */\n      dup2\n      eq\n      tag_350\n      jumpi\n        /* \"#utility.yul\":7797:8317   */\n      jump(tag_348)\n        /* \"#utility.yul\":7830:7967   */\n    tag_349:\n        /* \"#utility.yul\":7914:7918   */\n      0xff\n        /* \"#utility.yul\":7910:7919   */\n      not\n        /* \"#utility.yul\":7899:7908   */\n      dup4\n        /* \"#utility.yul\":7895:7920   */\n      and\n        /* \"#utility.yul\":7890:7893   */\n      dup7\n        /* \"#utility.yul\":7883:7921   */\n      mstore\n        /* \"#utility.yul\":7950:7956   */\n      dup2\n        /* \"#utility.yul\":7945:7948   */\n      dup7\n        /* \"#utility.yul\":7941:7957   */\n      add\n        /* \"#utility.yul\":7934:7957   */\n      swap4\n      pop\n        /* \"#utility.yul\":7830:7967   */\n      jump(tag_348)\n        /* \"#utility.yul\":7976:8317   */\n    tag_350:\n        /* \"#utility.yul\":8043:8081   */\n      tag_351\n        /* \"#utility.yul\":8075:8080   */\n      dup6\n        /* \"#utility.yul\":8043:8081   */\n      tag_352\n      jump\t// in\n    tag_351:\n        /* \"#utility.yul\":8103:8104   */\n      0x00\n        /* \"#utility.yul\":8117:8271   */\n    tag_353:\n        /* \"#utility.yul\":8131:8137   */\n      dup4\n        /* \"#utility.yul\":8128:8129   */\n      dup2\n        /* \"#utility.yul\":8125:8138   */\n      lt\n        /* \"#utility.yul\":8117:8271   */\n      iszero\n      tag_355\n      jumpi\n        /* \"#utility.yul\":8205:8212   */\n      dup2\n        /* \"#utility.yul\":8199:8213   */\n      sload\n        /* \"#utility.yul\":8195:8196   */\n      dup2\n        /* \"#utility.yul\":8190:8193   */\n      dup10\n        /* \"#utility.yul\":8186:8197   */\n      add\n        /* \"#utility.yul\":8179:8214   */\n      mstore\n        /* \"#utility.yul\":8255:8256   */\n      0x01\n        /* \"#utility.yul\":8246:8253   */\n      dup3\n        /* \"#utility.yul\":8242:8257   */\n      add\n        /* \"#utility.yul\":8231:8257   */\n      swap2\n      pop\n        /* \"#utility.yul\":8153:8157   */\n      0x20\n        /* \"#utility.yul\":8150:8151   */\n      dup2\n        /* \"#utility.yul\":8146:8158   */\n      add\n        /* \"#utility.yul\":8141:8158   */\n      swap1\n      pop\n        /* \"#utility.yul\":8117:8271   */\n      jump(tag_353)\n    tag_355:\n        /* \"#utility.yul\":8300:8306   */\n      dup4\n        /* \"#utility.yul\":8295:8298   */\n      dup9\n        /* \"#utility.yul\":8291:8307   */\n      add\n        /* \"#utility.yul\":8284:8307   */\n      swap6\n      pop\n        /* \"#utility.yul\":7983:8317   */\n      pop\n      pop\n        /* \"#utility.yul\":7797:8317   */\n    tag_348:\n      pop\n        /* \"#utility.yul\":7585:8323   */\n      pop\n      pop\n        /* \"#utility.yul\":7478:8323   */\n      swap3\n      swap2\n      pop\n      pop\n      jump\t// out\n        /* \"#utility.yul\":8329:8695   */\n    tag_356:\n        /* \"#utility.yul\":8471:8474   */\n      0x00\n        /* \"#utility.yul\":8492:8559   */\n      tag_358\n        /* \"#utility.yul\":8556:8558   */\n      0x1b\n        /* \"#utility.yul\":8551:8554   */\n      dup4\n        /* \"#utility.yul\":8492:8559   */\n      tag_335\n      jump\t// in\n    tag_358:\n        /* \"#utility.yul\":8485:8559   */\n      swap2\n      pop\n        /* \"#utility.yul\":8568:8661   */\n      tag_359\n        /* \"#utility.yul\":8657:8660   */\n      dup3\n        /* \"#utility.yul\":8568:8661   */\n      tag_360\n      jump\t// in\n    tag_359:\n        /* \"#utility.yul\":8686:8688   */\n      0x20\n        /* \"#utility.yul\":8681:8684   */\n      dup3\n        /* \"#utility.yul\":8677:8689   */\n      add\n        /* \"#utility.yul\":8670:8689   */\n      swap1\n      pop\n        /* \"#utility.yul\":8329:8695   */\n      swap2\n      swap1\n      pop\n      jump\t// out\n        /* \"#utility.yul\":8701:9067   */\n    tag_361:\n        /* \"#utility.yul\":8843:8846   */\n      0x00\n        /* \"#utility.yul\":8864:8931   */\n      tag_363\n        /* \"#utility.yul\":8928:8930   */\n      0x37\n        /* \"#utility.yul\":8923:8926   */\n      dup4\n        /* \"#utility.yul\":8864:8931   */\n      tag_335\n      jump\t// in\n    tag_363:\n        /* \"#utility.yul\":8857:8931   */\n      swap2\n      pop\n        /* \"#utility.yul\":8940:9033   */\n      tag_364\n        /* \"#utility.yul\":9029:9032   */\n      dup3\n        /* \"#utility.yul\":8940:9033   */\n      tag_365\n      jump\t// in\n    tag_364:\n        /* \"#utility.yul\":9058:9060   */\n      0x40\n        /* \"#utility.yul\":9053:9056   */\n      dup3\n        /* \"#utility.yul\":9049:9061   */\n      add\n        /* \"#utility.yul\":9042:9061   */\n      swap1\n      pop\n        /* \"#utility.yul\":8701:9067   */\n      swap2\n      swap1\n      pop\n      jump\t// out\n        /* \"#utility.yul\":9073:9439   */\n    tag_366:\n        /* \"#utility.yul\":9215:9218   */\n      0x00\n        /* \"#utility.yul\":9236:9303   */\n      tag_368\n        /* \"#utility.yul\":9300:9302   */\n      0x0f\n        /* \"#utility.yul\":9295:9298   */\n      dup4\n        /* \"#utility.yul\":9236:9303   */\n      tag_335\n      jump\t// in\n    tag_368:\n        /* \"#utility.yul\":9229:9303   */\n      swap2\n      pop\n        /* \"#utility.yul\":9312:9405   */\n      tag_369\n        /* \"#utility.yul\":9401:9404   */\n      dup3\n        /* \"#utility.yul\":9312:9405   */\n      tag_370\n      jump\t// in\n    tag_369:\n        /* \"#utility.yul\":9430:9432   */\n      0x20\n        /* \"#utility.yul\":9425:9428   */\n      dup3\n        /* \"#utility.yul\":9421:9433   */\n      add\n        /* \"#utility.yul\":9414:9433   */\n      swap1\n      pop\n        /* \"#utility.yul\":9073:9439   */\n      swap2\n      swap1\n      pop\n      jump\t// out\n        /* \"#utility.yul\":9509:11576   */\n    tag_371:\n        /* \"#utility.yul\":9622:9625   */\n      0x00\n        /* \"#utility.yul\":9658:9664   */\n      0x0140\n        /* \"#utility.yul\":9653:9656   */\n      dup4\n        /* \"#utility.yul\":9649:9665   */\n      add\n        /* \"#utility.yul\":9748:9752   */\n      0x00\n        /* \"#utility.yul\":9741:9746   */\n      dup4\n        /* \"#utility.yul\":9737:9753   */\n      add\n        /* \"#utility.yul\":9731:9754   */\n      mload\n        /* \"#utility.yul\":9767:9830   */\n      tag_373\n        /* \"#utility.yul\":9824:9828   */\n      0x00\n        /* \"#utility.yul\":9819:9822   */\n      dup7\n        /* \"#utility.yul\":9815:9829   */\n      add\n        /* \"#utility.yul\":9801:9813   */\n      dup3\n        /* \"#utility.yul\":9767:9830   */\n      tag_299\n      jump\t// in\n    tag_373:\n        /* \"#utility.yul\":9675:9840   */\n      pop\n        /* \"#utility.yul\":9924:9928   */\n      0x20\n        /* \"#utility.yul\":9917:9922   */\n      dup4\n        /* \"#utility.yul\":9913:9929   */\n      add\n        /* \"#utility.yul\":9907:9930   */\n      mload\n        /* \"#utility.yul\":9977:9980   */\n      dup5\n        /* \"#utility.yul\":9971:9975   */\n      dup3\n        /* \"#utility.yul\":9967:9981   */\n      sub\n        /* \"#utility.yul\":9960:9964   */\n      0x20\n        /* \"#utility.yul\":9955:9958   */\n      dup7\n        /* \"#utility.yul\":9951:9965   */\n      add\n        /* \"#utility.yul\":9944:9982   */\n      mstore\n        /* \"#utility.yul\":10003:10076   */\n      tag_374\n        /* \"#utility.yul\":10071:10075   */\n      dup3\n        /* \"#utility.yul\":10057:10069   */\n      dup3\n        /* \"#utility.yul\":10003:10076   */\n      tag_321\n      jump\t// in\n    tag_374:\n        /* \"#utility.yul\":9995:10076   */\n      swap2\n      pop\n        /* \"#utility.yul\":9850:10087   */\n      pop\n        /* \"#utility.yul\":10173:10177   */\n      0x40\n        /* \"#utility.yul\":10166:10171   */\n      dup4\n        /* \"#utility.yul\":10162:10178   */\n      add\n        /* \"#utility.yul\":10156:10179   */\n      mload\n        /* \"#utility.yul\":10192:10255   */\n      tag_375\n        /* \"#utility.yul\":10249:10253   */\n      0x40\n        /* \"#utility.yul\":10244:10247   */\n      dup7\n        /* \"#utility.yul\":10240:10254   */\n      add\n        /* \"#utility.yul\":10226:10238   */\n      dup3\n        /* \"#utility.yul\":10192:10255   */\n      tag_376\n      jump\t// in\n    tag_375:\n        /* \"#utility.yul\":10097:10265   */\n      pop\n        /* \"#utility.yul\":10358:10362   */\n      0x60\n        /* \"#utility.yul\":10351:10356   */\n      dup4\n        /* \"#utility.yul\":10347:10363   */\n      add\n        /* \"#utility.yul\":10341:10364   */\n      mload\n        /* \"#utility.yul\":10377:10440   */\n      tag_377\n        /* \"#utility.yul\":10434:10438   */\n      0x60\n        /* \"#utility.yul\":10429:10432   */\n      dup7\n        /* \"#utility.yul\":10425:10439   */\n      add\n        /* \"#utility.yul\":10411:10423   */\n      dup3\n        /* \"#utility.yul\":10377:10440   */\n      tag_376\n      jump\t// in\n    tag_377:\n        /* \"#utility.yul\":10275:10450   */\n      pop\n        /* \"#utility.yul\":10548:10552   */\n      0x80\n        /* \"#utility.yul\":10541:10546   */\n      dup4\n        /* \"#utility.yul\":10537:10553   */\n      add\n        /* \"#utility.yul\":10531:10554   */\n      mload\n        /* \"#utility.yul\":10567:10630   */\n      tag_378\n        /* \"#utility.yul\":10624:10628   */\n      0x80\n        /* \"#utility.yul\":10619:10622   */\n      dup7\n        /* \"#utility.yul\":10615:10629   */\n      add\n        /* \"#utility.yul\":10601:10613   */\n      dup3\n        /* \"#utility.yul\":10567:10630   */\n      tag_376\n      jump\t// in\n    tag_378:\n        /* \"#utility.yul\":10460:10640   */\n      pop\n        /* \"#utility.yul\":10737:10741   */\n      0xa0\n        /* \"#utility.yul\":10730:10735   */\n      dup4\n        /* \"#utility.yul\":10726:10742   */\n      add\n        /* \"#utility.yul\":10720:10743   */\n      mload\n        /* \"#utility.yul\":10756:10819   */\n      tag_379\n        /* \"#utility.yul\":10813:10817   */\n      0xa0\n        /* \"#utility.yul\":10808:10811   */\n      dup7\n        /* \"#utility.yul\":10804:10818   */\n      add\n        /* \"#utility.yul\":10790:10802   */\n      dup3\n        /* \"#utility.yul\":10756:10819   */\n      tag_376\n      jump\t// in\n    tag_379:\n        /* \"#utility.yul\":10650:10829   */\n      pop\n        /* \"#utility.yul\":10923:10927   */\n      0xc0\n        /* \"#utility.yul\":10916:10921   */\n      dup4\n        /* \"#utility.yul\":10912:10928   */\n      add\n        /* \"#utility.yul\":10906:10929   */\n      mload\n        /* \"#utility.yul\":10942:10999   */\n      tag_380\n        /* \"#utility.yul\":10993:10997   */\n      0xc0\n        /* \"#utility.yul\":10988:10991   */\n      dup7\n        /* \"#utility.yul\":10984:10998   */\n      add\n        /* \"#utility.yul\":10970:10982   */\n      dup3\n        /* \"#utility.yul\":10942:10999   */\n      tag_306\n      jump\t// in\n    tag_380:\n        /* \"#utility.yul\":10839:11009   */\n      pop\n        /* \"#utility.yul\":11111:11115   */\n      0xe0\n        /* \"#utility.yul\":11104:11109   */\n      dup4\n        /* \"#utility.yul\":11100:11116   */\n      add\n        /* \"#utility.yul\":11094:11117   */\n      mload\n        /* \"#utility.yul\":11130:11187   */\n      tag_381\n        /* \"#utility.yul\":11181:11185   */\n      0xe0\n        /* \"#utility.yul\":11176:11179   */\n      dup7\n        /* \"#utility.yul\":11172:11186   */\n      add\n        /* \"#utility.yul\":11158:11170   */\n      dup3\n        /* \"#utility.yul\":11130:11187   */\n      tag_306\n      jump\t// in\n    tag_381:\n        /* \"#utility.yul\":11019:11197   */\n      pop\n        /* \"#utility.yul\":11283:11289   */\n      0x0100\n        /* \"#utility.yul\":11276:11281   */\n      dup4\n        /* \"#utility.yul\":11272:11290   */\n      add\n        /* \"#utility.yul\":11266:11291   */\n      mload\n        /* \"#utility.yul\":11304:11363   */\n      tag_382\n        /* \"#utility.yul\":11355:11361   */\n      0x0100\n        /* \"#utility.yul\":11350:11353   */\n      dup7\n        /* \"#utility.yul\":11346:11362   */\n      add\n        /* \"#utility.yul\":11332:11344   */\n      dup3\n        /* \"#utility.yul\":11304:11363   */\n      tag_306\n      jump\t// in\n    tag_382:\n        /* \"#utility.yul\":11207:11373   */\n      pop\n        /* \"#utility.yul\":11459:11465   */\n      0x0120\n        /* \"#utility.yul\":11452:11457   */\n      dup4\n        /* \"#utility.yul\":11448:11466   */\n      add\n        /* \"#utility.yul\":11442:11467   */\n      mload\n        /* \"#utility.yul\":11480:11539   */\n      tag_383\n        /* \"#utility.yul\":11531:11537   */\n      0x0120\n        /* \"#utility.yul\":11526:11529   */\n      dup7\n        /* \"#utility.yul\":11522:11538   */\n      add\n        /* \"#utility.yul\":11508:11520   */\n      dup3\n        /* \"#utility.yul\":11480:11539   */\n      tag_306\n      jump\t// in\n    tag_383:\n        /* \"#utility.yul\":11383:11549   */\n      pop\n        /* \"#utility.yul\":11566:11570   */\n      dup1\n        /* \"#utility.yul\":11559:11570   */\n      swap2\n      pop\n        /* \"#utility.yul\":9627:11576   */\n      pop\n        /* \"#utility.yul\":9509:11576   */\n      swap3\n      swap2\n      pop\n      pop\n      jump\t// out\n        /* \"#utility.yul\":11582:11690   */\n    tag_376:\n        /* \"#utility.yul\":11659:11683   */\n      tag_385\n        /* \"#utility.yul\":11677:11682   */\n      dup2\n        /* \"#utility.yul\":11659:11683   */\n      tag_386\n      jump\t// in\n    tag_385:\n        /* \"#utility.yul\":11654:11657   */\n      dup3\n        /* \"#utility.yul\":11647:11684   */\n      mstore\n        /* \"#utility.yul\":11582:11690   */\n      pop\n      pop\n      jump\t// out\n        /* \"#utility.yul\":11696:11814   */\n    tag_387:\n        /* \"#utility.yul\":11783:11807   */\n      tag_389\n        /* \"#utility.yul\":11801:11806   */\n      dup2\n        /* \"#utility.yul\":11783:11807   */\n      tag_386\n      jump\t// in\n    tag_389:\n        /* \"#utility.yul\":11778:11781   */\n      dup3\n        /* \"#utility.yul\":11771:11808   */\n      mstore\n        /* \"#utility.yul\":11696:11814   */\n      pop\n      pop\n      jump\t// out\n        /* \"#utility.yul\":11820:12095   */\n    tag_144:\n        /* \"#utility.yul\":11952:11955   */\n      0x00\n        /* \"#utility.yul\":11974:12069   */\n      tag_391\n        /* \"#utility.yul\":12065:12068   */\n      dup3\n        /* \"#utility.yul\":12056:12062   */\n      dup5\n        /* \"#utility.yul\":11974:12069   */\n      tag_338\n      jump\t// in\n    tag_391:\n        /* \"#utility.yul\":11967:12069   */\n      swap2\n      pop\n        /* \"#utility.yul\":12086:12089   */\n      dup2\n        /* \"#utility.yul\":12079:12089   */\n      swap1\n      pop\n        /* \"#utility.yul\":11820:12095   */\n      swap3\n      swap2\n      pop\n      pop\n      jump\t// out\n        /* \"#utility.yul\":12101:12370   */\n    tag_149:\n        /* \"#utility.yul\":12230:12233   */\n      0x00\n        /* \"#utility.yul\":12252:12344   */\n      tag_393\n        /* \"#utility.yul\":12340:12343   */\n      dup3\n        /* \"#utility.yul\":12331:12337   */\n      dup5\n        /* \"#utility.yul\":12252:12344   */\n      tag_344\n      jump\t// in\n    tag_393:\n        /* \"#utility.yul\":12245:12344   */\n      swap2\n      pop\n        /* \"#utility.yul\":12361:12364   */\n      dup2\n        /* \"#utility.yul\":12354:12364   */\n      swap1\n      pop\n        /* \"#utility.yul\":12101:12370   */\n      swap3\n      swap2\n      pop\n      pop\n      jump\t// out\n        /* \"#utility.yul\":12376:12734   */\n    tag_123:\n        /* \"#utility.yul\":12510:12514   */\n      0x00\n        /* \"#utility.yul\":12548:12550   */\n      0x40\n        /* \"#utility.yul\":12537:12546   */\n      dup3\n        /* \"#utility.yul\":12533:12551   */\n      add\n        /* \"#utility.yul\":12525:12551   */\n      swap1\n      pop\n        /* \"#utility.yul\":12561:12632   */\n      tag_395\n        /* \"#utility.yul\":12629:12630   */\n      0x00\n        /* \"#utility.yul\":12618:12627   */\n      dup4\n        /* \"#utility.yul\":12614:12631   */\n      add\n        /* \"#utility.yul\":12605:12611   */\n      dup6\n        /* \"#utility.yul\":12561:12632   */\n      tag_303\n      jump\t// in\n    tag_395:\n        /* \"#utility.yul\":12642:12727   */\n      tag_396\n        /* \"#utility.yul\":12723:12725   */\n      0x20\n        /* \"#utility.yul\":12712:12721   */\n      dup4\n        /* \"#utility.yul\":12708:12726   */\n      add\n        /* \"#utility.yul\":12699:12705   */\n      dup5\n        /* \"#utility.yul\":12642:12727   */\n      tag_313\n      jump\t// in\n    tag_396:\n        /* \"#utility.yul\":12376:12734   */\n      swap4\n      swap3\n      pop\n      pop\n      pop\n      jump\t// out\n        /* \"#utility.yul\":12740:13088   */\n    tag_207:\n        /* \"#utility.yul\":12869:12873   */\n      0x00\n        /* \"#utility.yul\":12907:12909   */\n      0x40\n        /* \"#utility.yul\":12896:12905   */\n      dup3\n        /* \"#utility.yul\":12892:12910   */\n      add\n        /* \"#utility.yul\":12884:12910   */\n      swap1\n      pop\n        /* \"#utility.yul\":12920:12991   */\n      tag_398\n        /* \"#utility.yul\":12988:12989   */\n      0x00\n        /* \"#utility.yul\":12977:12986   */\n      dup4\n        /* \"#utility.yul\":12973:12990   */\n      add\n        /* \"#utility.yul\":12964:12970   */\n      dup6\n        /* \"#utility.yul\":12920:12991   */\n      tag_303\n      jump\t// in\n    tag_398:\n        /* \"#utility.yul\":13001:13081   */\n      tag_399\n        /* \"#utility.yul\":13077:13079   */\n      0x20\n        /* \"#utility.yul\":13066:13075   */\n      dup4\n        /* \"#utility.yul\":13062:13080   */\n      add\n        /* \"#utility.yul\":13053:13059   */\n      dup5\n        /* \"#utility.yul\":13001:13081   */\n      tag_317\n      jump\t// in\n    tag_399:\n        /* \"#utility.yul\":12740:13088   */\n      swap4\n      swap3\n      pop\n      pop\n      pop\n      jump\t// out\n        /* \"#utility.yul\":13094:13738   */\n    tag_80:\n        /* \"#utility.yul\":13291:13295   */\n      0x00\n        /* \"#utility.yul\":13329:13332   */\n      0x80\n        /* \"#utility.yul\":13318:13327   */\n      dup3\n        /* \"#utility.yul\":13314:13333   */\n      add\n        /* \"#utility.yul\":13306:13333   */\n      swap1\n      pop\n        /* \"#utility.yul\":13343:13414   */\n      tag_401\n        /* \"#utility.yul\":13411:13412   */\n      0x00\n        /* \"#utility.yul\":13400:13409   */\n      dup4\n        /* \"#utility.yul\":13396:13413   */\n      add\n        /* \"#utility.yul\":13387:13393   */\n      dup8\n        /* \"#utility.yul\":13343:13414   */\n      tag_303\n      jump\t// in\n    tag_401:\n        /* \"#utility.yul\":13461:13470   */\n      dup2\n        /* \"#utility.yul\":13455:13459   */\n      dup2\n        /* \"#utility.yul\":13451:13471   */\n      sub\n        /* \"#utility.yul\":13446:13448   */\n      0x20\n        /* \"#utility.yul\":13435:13444   */\n      dup4\n        /* \"#utility.yul\":13431:13449   */\n      add\n        /* \"#utility.yul\":13424:13472   */\n      mstore\n        /* \"#utility.yul\":13489:13567   */\n      tag_402\n        /* \"#utility.yul\":13562:13566   */\n      dup2\n        /* \"#utility.yul\":13553:13559   */\n      dup7\n        /* \"#utility.yul\":13489:13567   */\n      tag_331\n      jump\t// in\n    tag_402:\n        /* \"#utility.yul\":13481:13567   */\n      swap1\n      pop\n        /* \"#utility.yul\":13577:13649   */\n      tag_403\n        /* \"#utility.yul\":13645:13647   */\n      0x40\n        /* \"#utility.yul\":13634:13643   */\n      dup4\n        /* \"#utility.yul\":13630:13648   */\n      add\n        /* \"#utility.yul\":13621:13627   */\n      dup6\n        /* \"#utility.yul\":13577:13649   */\n      tag_387\n      jump\t// in\n    tag_403:\n        /* \"#utility.yul\":13659:13731   */\n      tag_404\n        /* \"#utility.yul\":13727:13729   */\n      0x60\n        /* \"#utility.yul\":13716:13725   */\n      dup4\n        /* \"#utility.yul\":13712:13730   */\n      add\n        /* \"#utility.yul\":13703:13709   */\n      dup5\n        /* \"#utility.yul\":13659:13731   */\n      tag_387\n      jump\t// in\n    tag_404:\n        /* \"#utility.yul\":13094:13738   */\n      swap6\n      swap5\n      pop\n      pop\n      pop\n      pop\n      pop\n      jump\t// out\n        /* \"#utility.yul\":13744:13954   */\n    tag_17:\n        /* \"#utility.yul\":13831:13835   */\n      0x00\n        /* \"#utility.yul\":13869:13871   */\n      0x20\n        /* \"#utility.yul\":13858:13867   */\n      dup3\n        /* \"#utility.yul\":13854:13872   */\n      add\n        /* \"#utility.yul\":13846:13872   */\n      swap1\n      pop\n        /* \"#utility.yul\":13882:13947   */\n      tag_406\n        /* \"#utility.yul\":13944:13945   */\n      0x00\n        /* \"#utility.yul\":13933:13942   */\n      dup4\n        /* \"#utility.yul\":13929:13946   */\n      add\n        /* \"#utility.yul\":13920:13926   */\n      dup5\n        /* \"#utility.yul\":13882:13947   */\n      tag_310\n      jump\t// in\n    tag_406:\n        /* \"#utility.yul\":13744:13954   */\n      swap3\n      swap2\n      pop\n      pop\n      jump\t// out\n        /* \"#utility.yul\":13960:14379   */\n    tag_65:\n        /* \"#utility.yul\":14126:14130   */\n      0x00\n        /* \"#utility.yul\":14164:14166   */\n      0x20\n        /* \"#utility.yul\":14153:14162   */\n      dup3\n        /* \"#utility.yul\":14149:14167   */\n      add\n        /* \"#utility.yul\":14141:14167   */\n      swap1\n      pop\n        /* \"#utility.yul\":14213:14222   */\n      dup2\n        /* \"#utility.yul\":14207:14211   */\n      dup2\n        /* \"#utility.yul\":14203:14223   */\n      sub\n        /* \"#utility.yul\":14199:14200   */\n      0x00\n        /* \"#utility.yul\":14188:14197   */\n      dup4\n        /* \"#utility.yul\":14184:14201   */\n      add\n        /* \"#utility.yul\":14177:14224   */\n      mstore\n        /* \"#utility.yul\":14241:14372   */\n      tag_408\n        /* \"#utility.yul\":14367:14371   */\n      dup2\n        /* \"#utility.yul\":14241:14372   */\n      tag_356\n      jump\t// in\n    tag_408:\n        /* \"#utility.yul\":14233:14372   */\n      swap1\n      pop\n        /* \"#utility.yul\":13960:14379   */\n      swap2\n      swap1\n      pop\n      jump\t// out\n        /* \"#utility.yul\":14385:14804   */\n    tag_74:\n        /* \"#utility.yul\":14551:14555   */\n      0x00\n        /* \"#utility.yul\":14589:14591   */\n      0x20\n        /* \"#utility.yul\":14578:14587   */\n      dup3\n        /* \"#utility.yul\":14574:14592   */\n      add\n        /* \"#utility.yul\":14566:14592   */\n      swap1\n      pop\n        /* \"#utility.yul\":14638:14647   */\n      dup2\n        /* \"#utility.yul\":14632:14636   */\n      dup2\n        /* \"#utility.yul\":14628:14648   */\n      sub\n        /* \"#utility.yul\":14624:14625   */\n      0x00\n        /* \"#utility.yul\":14613:14622   */\n      dup4\n        /* \"#utility.yul\":14609:14626   */\n      add\n        /* \"#utility.yul\":14602:14649   */\n      mstore\n        /* \"#utility.yul\":14666:14797   */\n      tag_410\n        /* \"#utility.yul\":14792:14796   */\n      dup2\n        /* \"#utility.yul\":14666:14797   */\n      tag_361\n      jump\t// in\n    tag_410:\n        /* \"#utility.yul\":14658:14797   */\n      swap1\n      pop\n        /* \"#utility.yul\":14385:14804   */\n      swap2\n      swap1\n      pop\n      jump\t// out\n        /* \"#utility.yul\":14810:15229   */\n    tag_162:\n        /* \"#utility.yul\":14976:14980   */\n      0x00\n        /* \"#utility.yul\":15014:15016   */\n      0x20\n        /* \"#utility.yul\":15003:15012   */\n      dup3\n        /* \"#utility.yul\":14999:15017   */\n      add\n        /* \"#utility.yul\":14991:15017   */\n      swap1\n      pop\n        /* \"#utility.yul\":15063:15072   */\n      dup2\n        /* \"#utility.yul\":15057:15061   */\n      dup2\n        /* \"#utility.yul\":15053:15073   */\n      sub\n        /* \"#utility.yul\":15049:15050   */\n      0x00\n        /* \"#utility.yul\":15038:15047   */\n      dup4\n        /* \"#utility.yul\":15034:15051   */\n      add\n        /* \"#utility.yul\":15027:15074   */\n      mstore\n        /* \"#utility.yul\":15091:15222   */\n      tag_412\n        /* \"#utility.yul\":15217:15221   */\n      dup2\n        /* \"#utility.yul\":15091:15222   */\n      tag_366\n      jump\t// in\n    tag_412:\n        /* \"#utility.yul\":15083:15222   */\n      swap1\n      pop\n        /* \"#utility.yul\":14810:15229   */\n      swap2\n      swap1\n      pop\n      jump\t// out\n        /* \"#utility.yul\":15235:15596   */\n    tag_41:\n        /* \"#utility.yul\":15372:15376   */\n      0x00\n        /* \"#utility.yul\":15410:15412   */\n      0x20\n        /* \"#utility.yul\":15399:15408   */\n      dup3\n        /* \"#utility.yul\":15395:15413   */\n      add\n        /* \"#utility.yul\":15387:15413   */\n      swap1\n      pop\n        /* \"#utility.yul\":15459:15468   */\n      dup2\n        /* \"#utility.yul\":15453:15457   */\n      dup2\n        /* \"#utility.yul\":15449:15469   */\n      sub\n        /* \"#utility.yul\":15445:15446   */\n      0x00\n        /* \"#utility.yul\":15434:15443   */\n      dup4\n        /* \"#utility.yul\":15430:15447   */\n      add\n        /* \"#utility.yul\":15423:15470   */\n      mstore\n        /* \"#utility.yul\":15487:15589   */\n      tag_414\n        /* \"#utility.yul\":15584:15588   */\n      dup2\n        /* \"#utility.yul\":15575:15581   */\n      dup5\n        /* \"#utility.yul\":15487:15589   */\n      tag_371\n      jump\t// in\n    tag_414:\n        /* \"#utility.yul\":15479:15589   */\n      swap1\n      pop\n        /* \"#utility.yul\":15235:15596   */\n      swap3\n      swap2\n      pop\n      pop\n      jump\t// out\n        /* \"#utility.yul\":15602:15731   */\n    tag_224:\n        /* \"#utility.yul\":15636:15642   */\n      0x00\n        /* \"#utility.yul\":15663:15683   */\n      tag_416\n      tag_417\n      jump\t// in\n    tag_416:\n        /* \"#utility.yul\":15653:15683   */\n      swap1\n      pop\n        /* \"#utility.yul\":15692:15725   */\n      tag_418\n        /* \"#utility.yul\":15720:15724   */\n      dup3\n        /* \"#utility.yul\":15712:15718   */\n      dup3\n        /* \"#utility.yul\":15692:15725   */\n      tag_419\n      jump\t// in\n    tag_418:\n        /* \"#utility.yul\":15602:15731   */\n      swap2\n      swap1\n      pop\n      jump\t// out\n        /* \"#utility.yul\":15737:15812   */\n    tag_417:\n        /* \"#utility.yul\":15770:15776   */\n      0x00\n        /* \"#utility.yul\":15803:15805   */\n      0x40\n        /* \"#utility.yul\":15797:15806   */\n      mload\n        /* \"#utility.yul\":15787:15806   */\n      swap1\n      pop\n        /* \"#utility.yul\":15737:15812   */\n      swap1\n      jump\t// out\n        /* \"#utility.yul\":15818:16126   */\n    tag_223:\n        /* \"#utility.yul\":15880:15884   */\n      0x00\n        /* \"#utility.yul\":15970:15988   */\n      0xffffffffffffffff\n        /* \"#utility.yul\":15962:15968   */\n      dup3\n        /* \"#utility.yul\":15959:15989   */\n      gt\n        /* \"#utility.yul\":15956:16012   */\n      iszero\n      tag_422\n      jumpi\n        /* \"#utility.yul\":15992:16010   */\n      tag_423\n      tag_424\n      jump\t// in\n    tag_423:\n        /* \"#utility.yul\":15956:16012   */\n    tag_422:\n        /* \"#utility.yul\":16030:16059   */\n      tag_425\n        /* \"#utility.yul\":16052:16058   */\n      dup3\n        /* \"#utility.yul\":16030:16059   */\n      tag_330\n      jump\t// in\n    tag_425:\n        /* \"#utility.yul\":16022:16059   */\n      swap1\n      pop\n        /* \"#utility.yul\":16114:16118   */\n      0x20\n        /* \"#utility.yul\":16108:16112   */\n      dup2\n        /* \"#utility.yul\":16104:16119   */\n      add\n        /* \"#utility.yul\":16096:16119   */\n      swap1\n      pop\n        /* \"#utility.yul\":15818:16126   */\n      swap2\n      swap1\n      pop\n      jump\t// out\n        /* \"#utility.yul\":16132:16273   */\n    tag_352:\n        /* \"#utility.yul\":16181:16185   */\n      0x00\n        /* \"#utility.yul\":16204:16207   */\n      dup2\n        /* \"#utility.yul\":16196:16207   */\n      swap1\n      pop\n        /* \"#utility.yul\":16227:16230   */\n      dup2\n        /* \"#utility.yul\":16224:16225   */\n      0x00\n        /* \"#utility.yul\":16217:16231   */\n      mstore\n        /* \"#utility.yul\":16261:16265   */\n      0x20\n        /* \"#utility.yul\":16258:16259   */\n      0x00\n        /* \"#utility.yul\":16248:16266   */\n      keccak256\n        /* \"#utility.yul\":16240:16266   */\n      swap1\n      pop\n        /* \"#utility.yul\":16132:16273   */\n      swap2\n      swap1\n      pop\n      jump\t// out\n        /* \"#utility.yul\":16279:16378   */\n    tag_324:\n        /* \"#utility.yul\":16331:16337   */\n      0x00\n        /* \"#utility.yul\":16365:16370   */\n      dup2\n        /* \"#utility.yul\":16359:16371   */\n      mload\n        /* \"#utility.yul\":16349:16371   */\n      swap1\n      pop\n        /* \"#utility.yul\":16279:16378   */\n      swap2\n      swap1\n      pop\n      jump\t// out\n        /* \"#utility.yul\":16384:16543   */\n    tag_326:\n        /* \"#utility.yul\":16458:16469   */\n      0x00\n        /* \"#utility.yul\":16492:16498   */\n      dup3\n        /* \"#utility.yul\":16487:16490   */\n      dup3\n        /* \"#utility.yul\":16480:16499   */\n      mstore\n        /* \"#utility.yul\":16532:16536   */\n      0x20\n        /* \"#utility.yul\":16527:16530   */\n      dup3\n        /* \"#utility.yul\":16523:16537   */\n      add\n        /* \"#utility.yul\":16508:16537   */\n      swap1\n      pop\n        /* \"#utility.yul\":16384:16543   */\n      swap3\n      swap2\n      pop\n      pop\n      jump\t// out\n        /* \"#utility.yul\":16549:16718   */\n    tag_335:\n        /* \"#utility.yul\":16633:16644   */\n      0x00\n        /* \"#utility.yul\":16667:16673   */\n      dup3\n        /* \"#utility.yul\":16662:16665   */\n      dup3\n        /* \"#utility.yul\":16655:16674   */\n      mstore\n        /* \"#utility.yul\":16707:16711   */\n      0x20\n        /* \"#utility.yul\":16702:16705   */\n      dup3\n        /* \"#utility.yul\":16698:16712   */\n      add\n        /* \"#utility.yul\":16683:16712   */\n      swap1\n      pop\n        /* \"#utility.yul\":16549:16718   */\n      swap3\n      swap2\n      pop\n      pop\n      jump\t// out\n        /* \"#utility.yul\":16724:16872   */\n    tag_342:\n        /* \"#utility.yul\":16826:16837   */\n      0x00\n        /* \"#utility.yul\":16863:16866   */\n      dup2\n        /* \"#utility.yul\":16848:16866   */\n      swap1\n      pop\n        /* \"#utility.yul\":16724:16872   */\n      swap3\n      swap2\n      pop\n      pop\n      jump\t// out\n        /* \"#utility.yul\":16878:16974   */\n    tag_302:\n        /* \"#utility.yul\":16915:16922   */\n      0x00\n        /* \"#utility.yul\":16944:16968   */\n      tag_432\n        /* \"#utility.yul\":16962:16967   */\n      dup3\n        /* \"#utility.yul\":16944:16968   */\n      tag_433\n      jump\t// in\n    tag_432:\n        /* \"#utility.yul\":16933:16968   */\n      swap1\n      pop\n        /* \"#utility.yul\":16878:16974   */\n      swap2\n      swap1\n      pop\n      jump\t// out\n        /* \"#utility.yul\":16980:17070   */\n    tag_309:\n        /* \"#utility.yul\":17014:17021   */\n      0x00\n        /* \"#utility.yul\":17057:17062   */\n      dup2\n        /* \"#utility.yul\":17050:17063   */\n      iszero\n        /* \"#utility.yul\":17043:17064   */\n      iszero\n        /* \"#utility.yul\":17032:17064   */\n      swap1\n      pop\n        /* \"#utility.yul\":16980:17070   */\n      swap2\n      swap1\n      pop\n      jump\t// out\n        /* \"#utility.yul\":17076:17217   */\n    tag_435:\n        /* \"#utility.yul\":17128:17135   */\n      0x00\n        /* \"#utility.yul\":17157:17162   */\n      dup2\n        /* \"#utility.yul\":17146:17162   */\n      swap1\n      pop\n        /* \"#utility.yul\":17163:17211   */\n      tag_437\n        /* \"#utility.yul\":17205:17210   */\n      dup3\n        /* \"#utility.yul\":17163:17211   */\n      tag_438\n      jump\t// in\n    tag_437:\n        /* \"#utility.yul\":17076:17217   */\n      swap2\n      swap1\n      pop\n      jump\t// out\n        /* \"#utility.yul\":17223:17354   */\n    tag_439:\n        /* \"#utility.yul\":17270:17277   */\n      0x00\n        /* \"#utility.yul\":17299:17304   */\n      dup2\n        /* \"#utility.yul\":17288:17304   */\n      swap1\n      pop\n        /* \"#utility.yul\":17305:17348   */\n      tag_441\n        /* \"#utility.yul\":17342:17347   */\n      dup3\n        /* \"#utility.yul\":17305:17348   */\n      tag_442\n      jump\t// in\n    tag_441:\n        /* \"#utility.yul\":17223:17354   */\n      swap2\n      swap1\n      pop\n      jump\t// out\n        /* \"#utility.yul\":17360:17486   */\n    tag_433:\n        /* \"#utility.yul\":17397:17404   */\n      0x00\n        /* \"#utility.yul\":17437:17479   */\n      0xffffffffffffffffffffffffffffffffffffffff\n        /* \"#utility.yul\":17430:17435   */\n      dup3\n        /* \"#utility.yul\":17426:17480   */\n      and\n        /* \"#utility.yul\":17415:17480   */\n      swap1\n      pop\n        /* \"#utility.yul\":17360:17486   */\n      swap2\n      swap1\n      pop\n      jump\t// out\n        /* \"#utility.yul\":17492:17569   */\n    tag_386:\n        /* \"#utility.yul\":17529:17536   */\n      0x00\n        /* \"#utility.yul\":17558:17563   */\n      dup2\n        /* \"#utility.yul\":17547:17563   */\n      swap1\n      pop\n        /* \"#utility.yul\":17492:17569   */\n      swap2\n      swap1\n      pop\n      jump\t// out\n        /* \"#utility.yul\":17575:17716   */\n    tag_316:\n        /* \"#utility.yul\":17638:17647   */\n      0x00\n        /* \"#utility.yul\":17671:17710   */\n      tag_446\n        /* \"#utility.yul\":17704:17709   */\n      dup3\n        /* \"#utility.yul\":17671:17710   */\n      tag_435\n      jump\t// in\n    tag_446:\n        /* \"#utility.yul\":17658:17710   */\n      swap1\n      pop\n        /* \"#utility.yul\":17575:17716   */\n      swap2\n      swap1\n      pop\n      jump\t// out\n        /* \"#utility.yul\":17722:17853   */\n    tag_320:\n        /* \"#utility.yul\":17780:17789   */\n      0x00\n        /* \"#utility.yul\":17813:17847   */\n      tag_448\n        /* \"#utility.yul\":17841:17846   */\n      dup3\n        /* \"#utility.yul\":17813:17847   */\n      tag_439\n      jump\t// in\n    tag_448:\n        /* \"#utility.yul\":17800:17847   */\n      swap1\n      pop\n        /* \"#utility.yul\":17722:17853   */\n      swap2\n      swap1\n      pop\n      jump\t// out\n        /* \"#utility.yul\":17859:18013   */\n    tag_229:\n        /* \"#utility.yul\":17943:17949   */\n      dup3\n        /* \"#utility.yul\":17938:17941   */\n      dup2\n        /* \"#utility.yul\":17933:17936   */\n      dup4\n        /* \"#utility.yul\":17920:17950   */\n      calldatacopy\n        /* \"#utility.yul\":18005:18006   */\n      0x00\n        /* \"#utility.yul\":17996:18002   */\n      dup4\n        /* \"#utility.yul\":17991:17994   */\n      dup4\n        /* \"#utility.yul\":17987:18003   */\n      add\n        /* \"#utility.yul\":17980:18007   */\n      mstore\n        /* \"#utility.yul\":17859:18013   */\n      pop\n      pop\n      pop\n      jump\t// out\n        /* \"#utility.yul\":18019:18326   */\n    tag_328:\n        /* \"#utility.yul\":18087:18088   */\n      0x00\n        /* \"#utility.yul\":18097:18210   */\n    tag_451:\n        /* \"#utility.yul\":18111:18117   */\n      dup4\n        /* \"#utility.yul\":18108:18109   */\n      dup2\n        /* \"#utility.yul\":18105:18118   */\n      lt\n        /* \"#utility.yul\":18097:18210   */\n      iszero\n      tag_453\n      jumpi\n        /* \"#utility.yul\":18196:18197   */\n      dup1\n        /* \"#utility.yul\":18191:18194   */\n      dup3\n        /* \"#utility.yul\":18187:18198   */\n      add\n        /* \"#utility.yul\":18181:18199   */\n      mload\n        /* \"#utility.yul\":18177:18178   */\n      dup2\n        /* \"#utility.yul\":18172:18175   */\n      dup5\n        /* \"#utility.yul\":18168:18179   */\n      add\n        /* \"#utility.yul\":18161:18200   */\n      mstore\n        /* \"#utility.yul\":18133:18135   */\n      0x20\n        /* \"#utility.yul\":18130:18131   */\n      dup2\n        /* \"#utility.yul\":18126:18136   */\n      add\n        /* \"#utility.yul\":18121:18136   */\n      swap1\n      pop\n        /* \"#utility.yul\":18097:18210   */\n      jump(tag_451)\n    tag_453:\n        /* \"#utility.yul\":18228:18234   */\n      dup4\n        /* \"#utility.yul\":18225:18226   */\n      dup2\n        /* \"#utility.yul\":18222:18235   */\n      gt\n        /* \"#utility.yul\":18219:18320   */\n      iszero\n      tag_454\n      jumpi\n        /* \"#utility.yul\":18308:18309   */\n      0x00\n        /* \"#utility.yul\":18299:18305   */\n      dup5\n        /* \"#utility.yul\":18294:18297   */\n      dup5\n        /* \"#utility.yul\":18290:18306   */\n      add\n        /* \"#utility.yul\":18283:18310   */\n      mstore\n        /* \"#utility.yul\":18219:18320   */\n    tag_454:\n        /* \"#utility.yul\":18068:18326   */\n      pop\n        /* \"#utility.yul\":18019:18326   */\n      pop\n      pop\n      pop\n      jump\t// out\n        /* \"#utility.yul\":18332:18652   */\n    tag_155:\n        /* \"#utility.yul\":18376:18382   */\n      0x00\n        /* \"#utility.yul\":18413:18414   */\n      0x02\n        /* \"#utility.yul\":18407:18411   */\n      dup3\n        /* \"#utility.yul\":18403:18415   */\n      div\n        /* \"#utility.yul\":18393:18415   */\n      swap1\n      pop\n        /* \"#utility.yul\":18460:18461   */\n      0x01\n        /* \"#utility.yul\":18454:18458   */\n      dup3\n        /* \"#utility.yul\":18450:18462   */\n      and\n        /* \"#utility.yul\":18481:18499   */\n      dup1\n        /* \"#utility.yul\":18471:18552   */\n      tag_456\n      jumpi\n        /* \"#utility.yul\":18537:18541   */\n      0x7f\n        /* \"#utility.yul\":18529:18535   */\n      dup3\n        /* \"#utility.yul\":18525:18542   */\n      and\n        /* \"#utility.yul\":18515:18542   */\n      swap2\n      pop\n        /* \"#utility.yul\":18471:18552   */\n    tag_456:\n        /* \"#utility.yul\":18599:18601   */\n      0x20\n        /* \"#utility.yul\":18591:18597   */\n      dup3\n        /* \"#utility.yul\":18588:18602   */\n      lt\n        /* \"#utility.yul\":18568:18586   */\n      dup2\n        /* \"#utility.yul\":18565:18603   */\n      eq\n        /* \"#utility.yul\":18562:18646   */\n      iszero\n      tag_457\n      jumpi\n        /* \"#utility.yul\":18618:18636   */\n      tag_458\n      tag_459\n      jump\t// in\n    tag_458:\n        /* \"#utility.yul\":18562:18646   */\n    tag_457:\n        /* \"#utility.yul\":18383:18652   */\n      pop\n        /* \"#utility.yul\":18332:18652   */\n      swap2\n      swap1\n      pop\n      jump\t// out\n        /* \"#utility.yul\":18658:18939   */\n    tag_419:\n        /* \"#utility.yul\":18741:18768   */\n      tag_461\n        /* \"#utility.yul\":18763:18767   */\n      dup3\n        /* \"#utility.yul\":18741:18768   */\n      tag_330\n      jump\t// in\n    tag_461:\n        /* \"#utility.yul\":18733:18739   */\n      dup2\n        /* \"#utility.yul\":18729:18769   */\n      add\n        /* \"#utility.yul\":18871:18877   */\n      dup2\n        /* \"#utility.yul\":18859:18869   */\n      dup2\n        /* \"#utility.yul\":18856:18878   */\n      lt\n        /* \"#utility.yul\":18835:18853   */\n      0xffffffffffffffff\n        /* \"#utility.yul\":18823:18833   */\n      dup3\n        /* \"#utility.yul\":18820:18854   */\n      gt\n        /* \"#utility.yul\":18817:18879   */\n      or\n        /* \"#utility.yul\":18814:18902   */\n      iszero\n      tag_462\n      jumpi\n        /* \"#utility.yul\":18882:18900   */\n      tag_463\n      tag_424\n      jump\t// in\n    tag_463:\n        /* \"#utility.yul\":18814:18902   */\n    tag_462:\n        /* \"#utility.yul\":18922:18932   */\n      dup1\n        /* \"#utility.yul\":18918:18920   */\n      0x40\n        /* \"#utility.yul\":18911:18933   */\n      mstore\n        /* \"#utility.yul\":18701:18939   */\n      pop\n        /* \"#utility.yul\":18658:18939   */\n      pop\n      pop\n      jump\t// out\n        /* \"#utility.yul\":18945:19178   */\n    tag_61:\n        /* \"#utility.yul\":18984:18987   */\n      0x00\n        /* \"#utility.yul\":19007:19031   */\n      tag_465\n        /* \"#utility.yul\":19025:19030   */\n      dup3\n        /* \"#utility.yul\":19007:19031   */\n      tag_386\n      jump\t// in\n    tag_465:\n        /* \"#utility.yul\":18998:19031   */\n      swap2\n      pop\n        /* \"#utility.yul\":19053:19119   */\n      0xffffffffffffffffffffffffffffffffffffffffffffffffffffffffffffffff\n        /* \"#utility.yul\":19046:19051   */\n      dup3\n        /* \"#utility.yul\":19043:19120   */\n      eq\n        /* \"#utility.yul\":19040:19143   */\n      iszero\n      tag_466\n      jumpi\n        /* \"#utility.yul\":19123:19141   */\n      tag_467\n      tag_468\n      jump\t// in\n    tag_467:\n        /* \"#utility.yul\":19040:19143   */\n    tag_466:\n        /* \"#utility.yul\":19170:19171   */\n      0x01\n        /* \"#utility.yul\":19163:19168   */\n      dup3\n        /* \"#utility.yul\":19159:19172   */\n      add\n        /* \"#utility.yul\":19152:19172   */\n      swap1\n      pop\n        /* \"#utility.yul\":18945:19178   */\n      swap2\n      swap1\n      pop\n      jump\t// out\n        /* \"#utility.yul\":19184:19364   */\n    tag_468:\n        /* \"#utility.yul\":19232:19309   */\n      0x4e487b7100000000000000000000000000000000000000000000000000000000\n        /* \"#utility.yul\":19229:19230   */\n      0x00\n        /* \"#utility.yul\":19222:19310   */\n      mstore\n        /* \"#utility.yul\":19329:19333   */\n      0x11\n        /* \"#utility.yul\":19326:19327   */\n      0x04\n        /* \"#utility.yul\":19319:19334   */\n      mstore\n        /* \"#utility.yul\":19353:19357   */\n      0x24\n        /* \"#utility.yul\":19350:19351   */\n      0x00\n        /* \"#utility.yul\":19343:19358   */\n      revert\n        /* \"#utility.yul\":19370:19550   */\n    tag_107:\n        /* \"#utility.yul\":19418:19495   */\n      0x4e487b7100000000000000000000000000000000000000000000000000000000\n        /* \"#utility.yul\":19415:19416   */\n      0x00\n        /* \"#utility.yul\":19408:19496   */\n      mstore\n        /* \"#utility.yul\":19515:19519   */\n      0x21\n        /* \"#utility.yul\":19512:19513   */\n      0x04\n        /* \"#utility.yul\":19505:19520   */\n      mstore\n        /* \"#utility.yul\":19539:19543   */\n      0x24\n        /* \"#utility.yul\":19536:19537   */\n      0x00\n        /* \"#utility.yul\":19529:19544   */\n      revert\n        /* \"#utility.yul\":19556:19736   */\n    tag_459:\n        /* \"#utility.yul\":19604:19681   */\n      0x4e487b7100000000000000000000000000000000000000000000000000000000\n        /* \"#utility.yul\":19601:19602   */\n      0x00\n        /* \"#utility.yul\":19594:19682   */\n      mstore\n        /* \"#utility.yul\":19701:19705   */\n      0x22\n        /* \"#utility.yul\":19698:19699   */\n      0x04\n        /* \"#utility.yul\":19691:19706   */\n      mstore\n        /* \"#utility.yul\":19725:19729   */\n      0x24\n        /* \"#utility.yul\":19722:19723   */\n      0x00\n        /* \"#utility.yul\":19715:19730   */\n      revert\n        /* \"#utility.yul\":19742:19922   */\n    tag_57:\n        /* \"#utility.yul\":19790:19867   */\n      0x4e487b7100000000000000000000000000000000000000000000000000000000\n        /* \"#utility.yul\":19787:19788   */\n      0x00\n        /* \"#utility.yul\":19780:19868   */\n      mstore\n        /* \"#utility.yul\":19887:19891   */\n      0x32\n        /* \"#utility.yul\":19884:19885   */\n      0x04\n        /* \"#utility.yul\":19877:19892   */\n      mstore\n        /* \"#utility.yul\":19911:19915   */\n      0x24\n        /* \"#utility.yul\":19908:19909   */\n      0x00\n        /* \"#utility.yul\":19901:19916   */\n      revert\n        /* \"#utility.yul\":19928:20108   */\n    tag_424:\n        /* \"#utility.yul\":19976:20053   */\n      0x4e487b7100000000000000000000000000000000000000000000000000000000\n        /* \"#utility.yul\":19973:19974   */\n      0x00\n        /* \"#utility.yul\":19966:20054   */\n      mstore\n        /* \"#utility.yul\":20073:20077   */\n      0x41\n        /* \"#utility.yul\":20070:20071   */\n      0x04\n        /* \"#utility.yul\":20063:20078   */\n      mstore\n        /* \"#utility.yul\":20097:20101   */\n      0x24\n        /* \"#utility.yul\":20094:20095   */\n      0x00\n        /* \"#utility.yul\":20087:20102   */\n      revert\n        /* \"#utility.yul\":20114:20231   */\n    tag_253:\n        /* \"#utility.yul\":20223:20224   */\n      0x00\n        /* \"#utility.yul\":20220:20221   */\n      dup1\n        /* \"#utility.yul\":20213:20225   */\n      revert\n        /* \"#utility.yul\":20237:20354   */\n    tag_227:\n        /* \"#utility.yul\":20346:20347   */\n      0x00\n        /* \"#utility.yul\":20343:20344   */\n      dup1\n        /* \"#utility.yul\":20336:20348   */\n      revert\n        /* \"#utility.yul\":20360:20477   */\n    tag_278:\n        /* \"#utility.yul\":20469:20470   */\n      0x00\n        /* \"#utility.yul\":20466:20467   */\n      dup1\n        /* \"#utility.yul\":20459:20471   */\n      revert\n        /* \"#utility.yul\":20483:20600   */\n    tag_262:\n        /* \"#utility.yul\":20592:20593   */\n      0x00\n        /* \"#utility.yul\":20589:20590   */\n      dup1\n        /* \"#utility.yul\":20582:20594   */\n      revert\n        /* \"#utility.yul\":20606:20708   */\n    tag_330:\n        /* \"#utility.yul\":20647:20653   */\n      0x00\n        /* \"#utility.yul\":20698:20700   */\n      0x1f\n        /* \"#utility.yul\":20694:20701   */\n      not\n        /* \"#utility.yul\":20689:20691   */\n      0x1f\n        /* \"#utility.yul\":20682:20687   */\n      dup4\n        /* \"#utility.yul\":20678:20692   */\n      add\n        /* \"#utility.yul\":20674:20702   */\n      and\n        /* \"#utility.yul\":20664:20702   */\n      swap1\n      pop\n        /* \"#utility.yul\":20606:20708   */\n      swap2\n      swap1\n      pop\n      jump\t// out\n        /* \"#utility.yul\":20714:20891   */\n    tag_360:\n        /* \"#utility.yul\":20854:20883   */\n      0x4e6f74204f776e65722c2063616e6e6f742070657266726d204f500000000000\n        /* \"#utility.yul\":20850:20851   */\n      0x00\n        /* \"#utility.yul\":20842:20848   */\n      dup3\n        /* \"#utility.yul\":20838:20852   */\n      add\n        /* \"#utility.yul\":20831:20884   */\n      mstore\n        /* \"#utility.yul\":20714:20891   */\n      pop\n      jump\t// out\n        /* \"#utility.yul\":20897:21139   */\n    tag_365:\n        /* \"#utility.yul\":21037:21071   */\n      0x5468652063616c6c6572206d7573742062652061206c656e64696e6720706f6f\n        /* \"#utility.yul\":21033:21034   */\n      0x00\n        /* \"#utility.yul\":21025:21031   */\n      dup3\n        /* \"#utility.yul\":21021:21035   */\n      add\n        /* \"#utility.yul\":21014:21072   */\n      mstore\n        /* \"#utility.yul\":21106:21131   */\n      0x6c20636f6e666967757261746f7220636f6e7472616374000000000000000000\n        /* \"#utility.yul\":21101:21103   */\n      0x20\n        /* \"#utility.yul\":21093:21099   */\n      dup3\n        /* \"#utility.yul\":21089:21104   */\n      add\n        /* \"#utility.yul\":21082:21132   */\n      mstore\n        /* \"#utility.yul\":20897:21139   */\n      pop\n      jump\t// out\n        /* \"#utility.yul\":21145:21310   */\n    tag_370:\n        /* \"#utility.yul\":21285:21302   */\n      0x4173736574206e6f7420666f756e640000000000000000000000000000000000\n        /* \"#utility.yul\":21281:21282   */\n      0x00\n        /* \"#utility.yul\":21273:21279   */\n      dup3\n        /* \"#utility.yul\":21269:21283   */\n      add\n        /* \"#utility.yul\":21262:21303   */\n      mstore\n        /* \"#utility.yul\":21145:21310   */\n      pop\n      jump\t// out\n        /* \"#utility.yul\":21316:21436   */\n    tag_438:\n        /* \"#utility.yul\":21404:21405   */\n      0x02\n        /* \"#utility.yul\":21397:21402   */\n      dup2\n        /* \"#utility.yul\":21394:21406   */\n      lt\n        /* \"#utility.yul\":21384:21430   */\n      tag_483\n      jumpi\n        /* \"#utility.yul\":21410:21428   */\n      tag_484\n      tag_107\n      jump\t// in\n    tag_484:\n        /* \"#utility.yul\":21384:21430   */\n    tag_483:\n        /* \"#utility.yul\":21316:21436   */\n      pop\n      jump\t// out\n        /* \"#utility.yul\":21442:21557   */\n    tag_442:\n        /* \"#utility.yul\":21525:21526   */\n      0x02\n        /* \"#utility.yul\":21518:21523   */\n      dup2\n        /* \"#utility.yul\":21515:21527   */\n      lt\n        /* \"#utility.yul\":21505:21551   */\n      tag_486\n      jumpi\n        /* \"#utility.yul\":21531:21549   */\n      tag_487\n      tag_107\n      jump\t// in\n    tag_487:\n        /* \"#utility.yul\":21505:21551   */\n    tag_486:\n        /* \"#utility.yul\":21442:21557   */\n      pop\n      jump\t// out\n        /* \"#utility.yul\":21563:21685   */\n    tag_233:\n        /* \"#utility.yul\":21636:21660   */\n      tag_489\n        /* \"#utility.yul\":21654:21659   */\n      dup2\n        /* \"#utility.yul\":21636:21660   */\n      tag_302\n      jump\t// in\n    tag_489:\n        /* \"#utility.yul\":21629:21634   */\n      dup2\n        /* \"#utility.yul\":21626:21661   */\n      eq\n        /* \"#utility.yul\":21616:21679   */\n      tag_490\n      jumpi\n        /* \"#utility.yul\":21675:21676   */\n      0x00\n        /* \"#utility.yul\":21672:21673   */\n      dup1\n        /* \"#utility.yul\":21665:21677   */\n      revert\n        /* \"#utility.yul\":21616:21679   */\n    tag_490:\n        /* \"#utility.yul\":21563:21685   */\n      pop\n      jump\t// out\n        /* \"#utility.yul\":21691:21807   */\n    tag_240:\n        /* \"#utility.yul\":21761:21782   */\n      tag_492\n        /* \"#utility.yul\":21776:21781   */\n      dup2\n        /* \"#utility.yul\":21761:21782   */\n      tag_309\n      jump\t// in\n    tag_492:\n        /* \"#utility.yul\":21754:21759   */\n      dup2\n        /* \"#utility.yul\":21751:21783   */\n      eq\n        /* \"#utility.yul\":21741:21801   */\n      tag_493\n      jumpi\n        /* \"#utility.yul\":21797:21798   */\n      0x00\n        /* \"#utility.yul\":21794:21795   */\n      dup1\n        /* \"#utility.yul\":21787:21799   */\n      revert\n        /* \"#utility.yul\":21741:21801   */\n    tag_493:\n        /* \"#utility.yul\":21691:21807   */\n      pop\n      jump\t// out\n        /* \"#utility.yul\":21813:21927   */\n    tag_244:\n        /* \"#utility.yul\":21901:21902   */\n      0x02\n        /* \"#utility.yul\":21894:21899   */\n      dup2\n        /* \"#utility.yul\":21891:21903   */\n      lt\n        /* \"#utility.yul\":21881:21921   */\n      tag_495\n      jumpi\n        /* \"#utility.yul\":21917:21918   */\n      0x00\n        /* \"#utility.yul\":21914:21915   */\n      dup1\n        /* \"#utility.yul\":21907:21919   */\n      revert\n        /* \"#utility.yul\":21881:21921   */\n    tag_495:\n        /* \"#utility.yul\":21813:21927   */\n      pop\n      jump\t// out\n        /* \"#utility.yul\":21933:22042   */\n    tag_248:\n        /* \"#utility.yul\":22016:22017   */\n      0x02\n        /* \"#utility.yul\":22009:22014   */\n      dup2\n        /* \"#utility.yul\":22006:22018   */\n      lt\n        /* \"#utility.yul\":21996:22036   */\n      tag_497\n      jumpi\n        /* \"#utility.yul\":22032:22033   */\n      0x00\n        /* \"#utility.yul\":22029:22030   */\n      dup1\n        /* \"#utility.yul\":22022:22034   */\n      revert\n        /* \"#utility.yul\":21996:22036   */\n    tag_497:\n        /* \"#utility.yul\":21933:22042   */\n      pop\n      jump\t// out\n        /* \"#utility.yul\":22048:22170   */\n    tag_258:\n        /* \"#utility.yul\":22121:22145   */\n      tag_499\n        /* \"#utility.yul\":22139:22144   */\n      dup2\n        /* \"#utility.yul\":22121:22145   */\n      tag_386\n      jump\t// in\n    tag_499:\n        /* \"#utility.yul\":22114:22119   */\n      dup2\n        /* \"#utility.yul\":22111:22146   */\n      eq\n        /* \"#utility.yul\":22101:22164   */\n      tag_500\n      jumpi\n        /* \"#utility.yul\":22160:22161   */\n      0x00\n        /* \"#utility.yul\":22157:22158   */\n      dup1\n        /* \"#utility.yul\":22150:22162   */\n      revert\n        /* \"#utility.yul\":22101:22164   */\n    tag_500:\n        /* \"#utility.yul\":22048:22170   */\n      pop\n      jump\t// out\n\n    auxdata: 0xa26469706673582212204a1e5a12f5d4de6dae3ca25537c448a3a9d47654d8e698bc08ea9c16a00abdc564736f6c63430008070033\n}\n",
				"bytecode": {
					"linkReferences": {},
					"object": "608060405234801561001057600080fd5b50336000806101000a81548173ffffffffffffffffffffffffffffffffffffffff021916908373ffffffffffffffffffffffffffffffffffffffff160217905550611e80806100606000396000f3fe608060405234801561001057600080fd5b50600436106100885760003560e01c80636a5818251161005b5780636a5818251461014d578063827401bb1461017d578063e2574030146101ad578063e7149623146101dd57610088565b806325101dbc1461008d5780634c2fad06146100bd57806352a8ee7f146100ed578063671e3f751461011d575b600080fd5b6100a760048036038101906100a2919061139a565b61020d565b6040516100b4919061194c565b60405180910390f35b6100d760048036038101906100d291906113f4565b6102c6565b6040516100e4919061194c565b60405180910390f35b6101076004803603810190610102919061139a565b610650565b604051610114919061194c565b60405180910390f35b610137600480360381019061013291906114da565b610744565b604051610144919061194c565b60405180910390f35b6101676004803603810190610162919061139a565b61099f565b604051610174919061194c565b60405180910390f35b6101976004803603810190610192919061155a565b610a93565b6040516101a491906119c7565b60405180910390f35b6101c760048036038101906101c2919061139a565b610d2f565b6040516101d491906119c7565b60405180910390f35b6101f760048036038101906101f2919061151a565b610fcc565b604051610204919061194c565b60405180910390f35b600080600280549050905060005b818110156102ba578373ffffffffffffffffffffffffffffffffffffffff166002828154811061024e5761024d611c99565b5b906000526020600020906007020160000160009054906101000a900473ffffffffffffffffffffffffffffffffffffffff1673ffffffffffffffffffffffffffffffffffffffff1614156102a7576001925050506102c1565b80806102b290611bc3565b91505061021b565b5060009150505b919050565b60003373ffffffffffffffffffffffffffffffffffffffff1660008054906101000a900473ffffffffffffffffffffffffffffffffffffffff1673ffffffffffffffffffffffffffffffffffffffff1614610356576040517f08c379a000000000000000000000000000000000000000000000000000000000815260040161034d90611967565b60405180910390fd5b3373ffffffffffffffffffffffffffffffffffffffff16600160009054906101000a900473ffffffffffffffffffffffffffffffffffffffff1673ffffffffffffffffffffffffffffffffffffffff16630261bf8b6040518163ffffffff1660e01b815260040160206040518083038186803b1580156103d557600080fd5b505afa1580156103e9573d6000803e3d6000fd5b505050506040513d601f19601f8201168201806040525081019061040d91906113c7565b73ffffffffffffffffffffffffffffffffffffffff1614610463576040517f08c379a000000000000000000000000000000000000000000000000000000000815260040161045a90611987565b60405180910390fd5b60026040518061014001604052808c73ffffffffffffffffffffffffffffffffffffffff1681526020018781526020018681526020018581526020018481526020014281526020018b151581526020018a151581526020018915158152602001881515815250908060018154018082558091505060019003906000526020600020906007020160009091909190915060008201518160000160006101000a81548173ffffffffffffffffffffffffffffffffffffffff021916908373ffffffffffffffffffffffffffffffffffffffff1602179055506020820151816001019080519060200190610555929190611198565b5060408201518160020155606082015181600301556080820151816004015560a0820151816005015560c08201518160060160006101000a81548160ff02191690831515021790555060e08201518160060160016101000a81548160ff0219169083151502179055506101008201518160060160026101000a81548160ff0219169083151502179055506101208201518160060160036101000a81548160ff02191690831515021790555050507fcd7be9ca97d79d2c4048b8402afd93bb5f487441dc211d4bd2e95011ccd423a08a8685856040516106379493929190611900565b60405180910390a1600190509998505050505050505050565b600080600280549050905060005b81811015610738578373ffffffffffffffffffffffffffffffffffffffff166002828154811061069157610690611c99565b5b906000526020600020906007020160000160009054906101000a900473ffffffffffffffffffffffffffffffffffffffff1673ffffffffffffffffffffffffffffffffffffffff161480156107155750600281815481106106f5576106f4611c99565b5b906000526020600020906007020160060160009054906101000a900460ff165b156107255760019250505061073f565b808061073090611bc3565b91505061065e565b5060009150505b919050565b60003373ffffffffffffffffffffffffffffffffffffffff1660008054906101000a900473ffffffffffffffffffffffffffffffffffffffff1673ffffffffffffffffffffffffffffffffffffffff16146107d4576040517f08c379a00000000000000000000000000000000000000000000000000000000081526004016107cb90611967565b60405180910390fd5b6000600280549050905060005b81811015610959578473ffffffffffffffffffffffffffffffffffffffff166002828154811061081457610813611c99565b5b906000526020600020906007020160000160009054906101000a900473ffffffffffffffffffffffffffffffffffffffff1673ffffffffffffffffffffffffffffffffffffffff161415610946576000600181111561087657610875611c3b565b5b84600181111561088957610888611c3b565b5b14156108d2576001600282815481106108a5576108a4611c99565b5b906000526020600020906007020160060160036101000a81548160ff021916908315150217905550610911565b6000600282815481106108e8576108e7611c99565b5b906000526020600020906007020160060160036101000a81548160ff0219169083151502179055505b426002828154811061092657610925611c99565b5b906000526020600020906007020160050181905550600192505050610999565b808061095190611bc3565b9150506107e1565b507f1bc4f6a74fdbf500e13db259c58a58c59533ea54a4b93010d0126f6061ec3753848460405161098b9291906118ae565b60405180910390a160009150505b92915050565b600080600280549050905060005b81811015610a87578373ffffffffffffffffffffffffffffffffffffffff16600282815481106109e0576109df611c99565b5b906000526020600020906007020160000160009054906101000a900473ffffffffffffffffffffffffffffffffffffffff1673ffffffffffffffffffffffffffffffffffffffff16148015610a64575060028181548110610a4457610a43611c99565b5b906000526020600020906007020160060160019054906101000a900460ff165b15610a7457600192505050610a8e565b8080610a7f90611bc3565b9150506109ad565b5060009150505b919050565b610a9b61121e565b6000600280549050905060005b81811015610cee5783604051602001610ac19190611880565b6040516020818303038152906040528051906020012060028281548110610aeb57610aea611c99565b5b9060005260206000209060070201600101604051602001610b0c9190611897565b604051602081830303815290604052805190602001201415610cdb5760028181548110610b3c57610b3b611c99565b5b9060005260206000209060070201604051806101400160405290816000820160009054906101000a900473ffffffffffffffffffffffffffffffffffffffff1673ffffffffffffffffffffffffffffffffffffffff1673ffffffffffffffffffffffffffffffffffffffff168152602001600182018054610bbc90611b60565b80601f0160208091040260200160405190810160405280929190818152602001828054610be890611b60565b8015610c355780601f10610c0a57610100808354040283529160200191610c35565b820191906000526020600020905b815481529060010190602001808311610c1857829003601f168201915b50505050508152602001600282015481526020016003820154815260200160048201548152602001600582015481526020016006820160009054906101000a900460ff161515151581526020016006820160019054906101000a900460ff161515151581526020016006820160029054906101000a900460ff161515151581526020016006820160039054906101000a900460ff16151515158152505092505050610d2a565b8080610ce690611bc3565b915050610aa8565b506040517f08c379a0000000000000000000000000000000000000000000000000000000008152600401610d21906119a7565b60405180910390fd5b919050565b610d3761121e565b6000600280549050905060005b81811015610f8b578373ffffffffffffffffffffffffffffffffffffffff1660028281548110610d7757610d76611c99565b5b906000526020600020906007020160000160009054906101000a900473ffffffffffffffffffffffffffffffffffffffff1673ffffffffffffffffffffffffffffffffffffffff161415610f785760028181548110610dd957610dd8611c99565b5b9060005260206000209060070201604051806101400160405290816000820160009054906101000a900473ffffffffffffffffffffffffffffffffffffffff1673ffffffffffffffffffffffffffffffffffffffff1673ffffffffffffffffffffffffffffffffffffffff168152602001600182018054610e5990611b60565b80601f0160208091040260200160405190810160405280929190818152602001828054610e8590611b60565b8015610ed25780601f10610ea757610100808354040283529160200191610ed2565b820191906000526020600020905b815481529060010190602001808311610eb557829003601f168201915b50505050508152602001600282015481526020016003820154815260200160048201548152602001600582015481526020016006820160009054906101000a900460ff161515151581526020016006820160019054906101000a900460ff161515151581526020016006820160029054906101000a900460ff161515151581526020016006820160039054906101000a900460ff16151515158152505092505050610fc7565b8080610f8390611bc3565b915050610d44565b506040517f08c379a0000000000000000000000000000000000000000000000000000000008152600401610fbe906119a7565b60405180910390fd5b919050565b600080600280549050905060005b81811015611152578473ffffffffffffffffffffffffffffffffffffffff166002828154811061100d5761100c611c99565b5b906000526020600020906007020160000160009054906101000a900473ffffffffffffffffffffffffffffffffffffffff1673ffffffffffffffffffffffffffffffffffffffff16141561113f576000600181111561106f5761106e611c3b565b5b84600181111561108257611081611c3b565b5b14156110cb5760016002828154811061109e5761109d611c99565b5b906000526020600020906007020160060160026101000a81548160ff02191690831515021790555061110a565b6000600282815481106110e1576110e0611c99565b5b906000526020600020906007020160060160026101000a81548160ff0219169083151502179055505b426002828154811061111f5761111e611c99565b5b906000526020600020906007020160050181905550600192505050611192565b808061114a90611bc3565b915050610fda565b507f3f57ea1559cfee0ff7804a8bbf56c488fbd7f8d575acd8537d7f02a6ffb8bdb484846040516111849291906118d7565b60405180910390a160009150505b92915050565b8280546111a490611b60565b90600052602060002090601f0160209004810192826111c6576000855561120d565b82601f106111df57805160ff191683800117855561120d565b8280016001018555821561120d579182015b8281111561120c5782518255916020019190600101906111f1565b5b50905061121a919061128f565b5090565b604051806101400160405280600073ffffffffffffffffffffffffffffffffffffffff16815260200160608152602001600081526020016000815260200160008152602001600081526020016000151581526020016000151581526020016000151581526020016000151581525090565b5b808211156112a8576000816000905550600101611290565b5090565b60006112bf6112ba84611a0e565b6119e9565b9050828152602081018484840111156112db576112da611cfc565b5b6112e6848285611b1e565b509392505050565b6000813590506112fd81611de5565b92915050565b60008151905061131281611de5565b92915050565b60008135905061132781611dfc565b92915050565b60008135905061133c81611e13565b92915050565b60008135905061135181611e23565b92915050565b600082601f83011261136c5761136b611cf7565b5b813561137c8482602086016112ac565b91505092915050565b60008135905061139481611e33565b92915050565b6000602082840312156113b0576113af611d06565b5b60006113be848285016112ee565b91505092915050565b6000602082840312156113dd576113dc611d06565b5b60006113eb84828501611303565b91505092915050565b60008060008060008060008060006101208a8c03121561141757611416611d06565b5b60006114258c828d016112ee565b99505060206114368c828d01611318565b98505060406114478c828d01611318565b97505060606114588c828d01611318565b96505060806114698c828d01611318565b95505060a08a013567ffffffffffffffff81111561148a57611489611d01565b5b6114968c828d01611357565b94505060c06114a78c828d01611385565b93505060e06114b88c828d01611385565b9250506101006114ca8c828d01611385565b9150509295985092959850929598565b600080604083850312156114f1576114f0611d06565b5b60006114ff858286016112ee565b92505060206115108582860161132d565b9150509250929050565b6000806040838503121561153157611530611d06565b5b600061153f858286016112ee565b925050602061155085828601611342565b9150509250929050565b6000602082840312156115705761156f611d06565b5b600082013567ffffffffffffffff81111561158e5761158d611d01565b5b61159a84828501611357565b91505092915050565b6115ac81611a8c565b82525050565b6115bb81611a8c565b82525050565b6115ca81611a9e565b82525050565b6115d981611a9e565b82525050565b6115e881611afa565b82525050565b6115f781611b0c565b82525050565b600061160882611a54565b6116128185611a5f565b9350611622818560208601611b2d565b61162b81611d0b565b840191505092915050565b600061164182611a54565b61164b8185611a70565b935061165b818560208601611b2d565b61166481611d0b565b840191505092915050565b600061167a82611a54565b6116848185611a81565b9350611694818560208601611b2d565b80840191505092915050565b600081546116ad81611b60565b6116b78186611a81565b945060018216600081146116d257600181146116e357611716565b60ff19831686528186019350611716565b6116ec85611a3f565b60005b8381101561170e578154818901526001820191506020810190506116ef565b838801955050505b50505092915050565b600061172c601b83611a70565b915061173782611d1c565b602082019050919050565b600061174f603783611a70565b915061175a82611d45565b604082019050919050565b6000611772600f83611a70565b915061177d82611d94565b602082019050919050565b6000610140830160008301516117a160008601826115a3565b50602083015184820360208601526117b982826115fd565b91505060408301516117ce6040860182611862565b5060608301516117e16060860182611862565b5060808301516117f46080860182611862565b5060a083015161180760a0860182611862565b5060c083015161181a60c08601826115c1565b5060e083015161182d60e08601826115c1565b506101008301516118426101008601826115c1565b506101208301516118576101208601826115c1565b508091505092915050565b61186b81611af0565b82525050565b61187a81611af0565b82525050565b600061188c828461166f565b915081905092915050565b60006118a382846116a0565b915081905092915050565b60006040820190506118c360008301856115b2565b6118d060208301846115df565b9392505050565b60006040820190506118ec60008301856115b2565b6118f960208301846115ee565b9392505050565b600060808201905061191560008301876115b2565b81810360208301526119278186611636565b90506119366040830185611871565b6119436060830184611871565b95945050505050565b600060208201905061196160008301846115d0565b92915050565b600060208201905081810360008301526119808161171f565b9050919050565b600060208201905081810360008301526119a081611742565b9050919050565b600060208201905081810360008301526119c081611765565b9050919050565b600060208201905081810360008301526119e18184611788565b905092915050565b60006119f3611a04565b90506119ff8282611b92565b919050565b6000604051905090565b600067ffffffffffffffff821115611a2957611a28611cc8565b5b611a3282611d0b565b9050602081019050919050565b60008190508160005260206000209050919050565b600081519050919050565b600082825260208201905092915050565b600082825260208201905092915050565b600081905092915050565b6000611a9782611ad0565b9050919050565b60008115159050919050565b6000819050611ab882611dbd565b919050565b6000819050611acb82611dd1565b919050565b600073ffffffffffffffffffffffffffffffffffffffff82169050919050565b6000819050919050565b6000611b0582611aaa565b9050919050565b6000611b1782611abd565b9050919050565b82818337600083830152505050565b60005b83811015611b4b578082015181840152602081019050611b30565b83811115611b5a576000848401525b50505050565b60006002820490506001821680611b7857607f821691505b60208210811415611b8c57611b8b611c6a565b5b50919050565b611b9b82611d0b565b810181811067ffffffffffffffff82111715611bba57611bb9611cc8565b5b80604052505050565b6000611bce82611af0565b91507fffffffffffffffffffffffffffffffffffffffffffffffffffffffffffffffff821415611c0157611c00611c0c565b5b600182019050919050565b7f4e487b7100000000000000000000000000000000000000000000000000000000600052601160045260246000fd5b7f4e487b7100000000000000000000000000000000000000000000000000000000600052602160045260246000fd5b7f4e487b7100000000000000000000000000000000000000000000000000000000600052602260045260246000fd5b7f4e487b7100000000000000000000000000000000000000000000000000000000600052603260045260246000fd5b7f4e487b7100000000000000000000000000000000000000000000000000000000600052604160045260246000fd5b600080fd5b600080fd5b600080fd5b600080fd5b6000601f19601f8301169050919050565b7f4e6f74204f776e65722c2063616e6e6f742070657266726d204f500000000000600082015250565b7f5468652063616c6c6572206d7573742062652061206c656e64696e6720706f6f60008201527f6c20636f6e666967757261746f7220636f6e7472616374000000000000000000602082015250565b7f4173736574206e6f7420666f756e640000000000000000000000000000000000600082015250565b60028110611dce57611dcd611c3b565b5b50565b60028110611de257611de1611c3b565b5b50565b611dee81611a8c565b8114611df957600080fd5b50565b611e0581611a9e565b8114611e1057600080fd5b50565b60028110611e2057600080fd5b50565b60028110611e3057600080fd5b50565b611e3c81611af0565b8114611e4757600080fd5b5056fea26469706673582212204a1e5a12f5d4de6dae3ca25537c448a3a9d47654d8e698bc08ea9c16a00abdc564736f6c63430008070033",
					"opcodes": "PUSH1 0x80 PUSH1 0x40 MSTORE CALLVALUE DUP1 ISZERO PUSH2 0x10 JUMPI PUSH1 0x0 DUP1 REVERT JUMPDEST POP CALLER PUSH1 0x0 DUP1 PUSH2 0x100 EXP DUP2 SLOAD DUP2 PUSH20 0xFFFFFFFFFFFFFFFFFFFFFFFFFFFFFFFFFFFFFFFF MUL NOT AND SWAP1 DUP4 PUSH20 0xFFFFFFFFFFFFFFFFFFFFFFFFFFFFFFFFFFFFFFFF AND MUL OR SWAP1 SSTORE POP PUSH2 0x1E80 DUP1 PUSH2 0x60 PUSH1 0x0 CODECOPY PUSH1 0x0 RETURN INVALID PUSH1 0x80 PUSH1 0x40 MSTORE CALLVALUE DUP1 ISZERO PUSH2 0x10 JUMPI PUSH1 0x0 DUP1 REVERT JUMPDEST POP PUSH1 0x4 CALLDATASIZE LT PUSH2 0x88 JUMPI PUSH1 0x0 CALLDATALOAD PUSH1 0xE0 SHR DUP1 PUSH4 0x6A581825 GT PUSH2 0x5B JUMPI DUP1 PUSH4 0x6A581825 EQ PUSH2 0x14D JUMPI DUP1 PUSH4 0x827401BB EQ PUSH2 0x17D JUMPI DUP1 PUSH4 0xE2574030 EQ PUSH2 0x1AD JUMPI DUP1 PUSH4 0xE7149623 EQ PUSH2 0x1DD JUMPI PUSH2 0x88 JUMP JUMPDEST DUP1 PUSH4 0x25101DBC EQ PUSH2 0x8D JUMPI DUP1 PUSH4 0x4C2FAD06 EQ PUSH2 0xBD JUMPI DUP1 PUSH4 0x52A8EE7F EQ PUSH2 0xED JUMPI DUP1 PUSH4 0x671E3F75 EQ PUSH2 0x11D JUMPI JUMPDEST PUSH1 0x0 DUP1 REVERT JUMPDEST PUSH2 0xA7 PUSH1 0x4 DUP1 CALLDATASIZE SUB DUP2 ADD SWAP1 PUSH2 0xA2 SWAP2 SWAP1 PUSH2 0x139A JUMP JUMPDEST PUSH2 0x20D JUMP JUMPDEST PUSH1 0x40 MLOAD PUSH2 0xB4 SWAP2 SWAP1 PUSH2 0x194C JUMP JUMPDEST PUSH1 0x40 MLOAD DUP1 SWAP2 SUB SWAP1 RETURN JUMPDEST PUSH2 0xD7 PUSH1 0x4 DUP1 CALLDATASIZE SUB DUP2 ADD SWAP1 PUSH2 0xD2 SWAP2 SWAP1 PUSH2 0x13F4 JUMP JUMPDEST PUSH2 0x2C6 JUMP JUMPDEST PUSH1 0x40 MLOAD PUSH2 0xE4 SWAP2 SWAP1 PUSH2 0x194C JUMP JUMPDEST PUSH1 0x40 MLOAD DUP1 SWAP2 SUB SWAP1 RETURN JUMPDEST PUSH2 0x107 PUSH1 0x4 DUP1 CALLDATASIZE SUB DUP2 ADD SWAP1 PUSH2 0x102 SWAP2 SWAP1 PUSH2 0x139A JUMP JUMPDEST PUSH2 0x650 JUMP JUMPDEST PUSH1 0x40 MLOAD PUSH2 0x114 SWAP2 SWAP1 PUSH2 0x194C JUMP JUMPDEST PUSH1 0x40 MLOAD DUP1 SWAP2 SUB SWAP1 RETURN JUMPDEST PUSH2 0x137 PUSH1 0x4 DUP1 CALLDATASIZE SUB DUP2 ADD SWAP1 PUSH2 0x132 SWAP2 SWAP1 PUSH2 0x14DA JUMP JUMPDEST PUSH2 0x744 JUMP JUMPDEST PUSH1 0x40 MLOAD PUSH2 0x144 SWAP2 SWAP1 PUSH2 0x194C JUMP JUMPDEST PUSH1 0x40 MLOAD DUP1 SWAP2 SUB SWAP1 RETURN JUMPDEST PUSH2 0x167 PUSH1 0x4 DUP1 CALLDATASIZE SUB DUP2 ADD SWAP1 PUSH2 0x162 SWAP2 SWAP1 PUSH2 0x139A JUMP JUMPDEST PUSH2 0x99F JUMP JUMPDEST PUSH1 0x40 MLOAD PUSH2 0x174 SWAP2 SWAP1 PUSH2 0x194C JUMP JUMPDEST PUSH1 0x40 MLOAD DUP1 SWAP2 SUB SWAP1 RETURN JUMPDEST PUSH2 0x197 PUSH1 0x4 DUP1 CALLDATASIZE SUB DUP2 ADD SWAP1 PUSH2 0x192 SWAP2 SWAP1 PUSH2 0x155A JUMP JUMPDEST PUSH2 0xA93 JUMP JUMPDEST PUSH1 0x40 MLOAD PUSH2 0x1A4 SWAP2 SWAP1 PUSH2 0x19C7 JUMP JUMPDEST PUSH1 0x40 MLOAD DUP1 SWAP2 SUB SWAP1 RETURN JUMPDEST PUSH2 0x1C7 PUSH1 0x4 DUP1 CALLDATASIZE SUB DUP2 ADD SWAP1 PUSH2 0x1C2 SWAP2 SWAP1 PUSH2 0x139A JUMP JUMPDEST PUSH2 0xD2F JUMP JUMPDEST PUSH1 0x40 MLOAD PUSH2 0x1D4 SWAP2 SWAP1 PUSH2 0x19C7 JUMP JUMPDEST PUSH1 0x40 MLOAD DUP1 SWAP2 SUB SWAP1 RETURN JUMPDEST PUSH2 0x1F7 PUSH1 0x4 DUP1 CALLDATASIZE SUB DUP2 ADD SWAP1 PUSH2 0x1F2 SWAP2 SWAP1 PUSH2 0x151A JUMP JUMPDEST PUSH2 0xFCC JUMP JUMPDEST PUSH1 0x40 MLOAD PUSH2 0x204 SWAP2 SWAP1 PUSH2 0x194C JUMP JUMPDEST PUSH1 0x40 MLOAD DUP1 SWAP2 SUB SWAP1 RETURN JUMPDEST PUSH1 0x0 DUP1 PUSH1 0x2 DUP1 SLOAD SWAP1 POP SWAP1 POP PUSH1 0x0 JUMPDEST DUP2 DUP2 LT ISZERO PUSH2 0x2BA JUMPI DUP4 PUSH20 0xFFFFFFFFFFFFFFFFFFFFFFFFFFFFFFFFFFFFFFFF AND PUSH1 0x2 DUP3 DUP2 SLOAD DUP2 LT PUSH2 0x24E JUMPI PUSH2 0x24D PUSH2 0x1C99 JUMP JUMPDEST JUMPDEST SWAP1 PUSH1 0x0 MSTORE PUSH1 0x20 PUSH1 0x0 KECCAK256 SWAP1 PUSH1 0x7 MUL ADD PUSH1 0x0 ADD PUSH1 0x0 SWAP1 SLOAD SWAP1 PUSH2 0x100 EXP SWAP1 DIV PUSH20 0xFFFFFFFFFFFFFFFFFFFFFFFFFFFFFFFFFFFFFFFF AND PUSH20 0xFFFFFFFFFFFFFFFFFFFFFFFFFFFFFFFFFFFFFFFF AND EQ ISZERO PUSH2 0x2A7 JUMPI PUSH1 0x1 SWAP3 POP POP POP PUSH2 0x2C1 JUMP JUMPDEST DUP1 DUP1 PUSH2 0x2B2 SWAP1 PUSH2 0x1BC3 JUMP JUMPDEST SWAP2 POP POP PUSH2 0x21B JUMP JUMPDEST POP PUSH1 0x0 SWAP2 POP POP JUMPDEST SWAP2 SWAP1 POP JUMP JUMPDEST PUSH1 0x0 CALLER PUSH20 0xFFFFFFFFFFFFFFFFFFFFFFFFFFFFFFFFFFFFFFFF AND PUSH1 0x0 DUP1 SLOAD SWAP1 PUSH2 0x100 EXP SWAP1 DIV PUSH20 0xFFFFFFFFFFFFFFFFFFFFFFFFFFFFFFFFFFFFFFFF AND PUSH20 0xFFFFFFFFFFFFFFFFFFFFFFFFFFFFFFFFFFFFFFFF AND EQ PUSH2 0x356 JUMPI PUSH1 0x40 MLOAD PUSH32 0x8C379A000000000000000000000000000000000000000000000000000000000 DUP2 MSTORE PUSH1 0x4 ADD PUSH2 0x34D SWAP1 PUSH2 0x1967 JUMP JUMPDEST PUSH1 0x40 MLOAD DUP1 SWAP2 SUB SWAP1 REVERT JUMPDEST CALLER PUSH20 0xFFFFFFFFFFFFFFFFFFFFFFFFFFFFFFFFFFFFFFFF AND PUSH1 0x1 PUSH1 0x0 SWAP1 SLOAD SWAP1 PUSH2 0x100 EXP SWAP1 DIV PUSH20 0xFFFFFFFFFFFFFFFFFFFFFFFFFFFFFFFFFFFFFFFF AND PUSH20 0xFFFFFFFFFFFFFFFFFFFFFFFFFFFFFFFFFFFFFFFF AND PUSH4 0x261BF8B PUSH1 0x40 MLOAD DUP2 PUSH4 0xFFFFFFFF AND PUSH1 0xE0 SHL DUP2 MSTORE PUSH1 0x4 ADD PUSH1 0x20 PUSH1 0x40 MLOAD DUP1 DUP4 SUB DUP2 DUP7 DUP1 EXTCODESIZE ISZERO DUP1 ISZERO PUSH2 0x3D5 JUMPI PUSH1 0x0 DUP1 REVERT JUMPDEST POP GAS STATICCALL ISZERO DUP1 ISZERO PUSH2 0x3E9 JUMPI RETURNDATASIZE PUSH1 0x0 DUP1 RETURNDATACOPY RETURNDATASIZE PUSH1 0x0 REVERT JUMPDEST POP POP POP POP PUSH1 0x40 MLOAD RETURNDATASIZE PUSH1 0x1F NOT PUSH1 0x1F DUP3 ADD AND DUP3 ADD DUP1 PUSH1 0x40 MSTORE POP DUP2 ADD SWAP1 PUSH2 0x40D SWAP2 SWAP1 PUSH2 0x13C7 JUMP JUMPDEST PUSH20 0xFFFFFFFFFFFFFFFFFFFFFFFFFFFFFFFFFFFFFFFF AND EQ PUSH2 0x463 JUMPI PUSH1 0x40 MLOAD PUSH32 0x8C379A000000000000000000000000000000000000000000000000000000000 DUP2 MSTORE PUSH1 0x4 ADD PUSH2 0x45A SWAP1 PUSH2 0x1987 JUMP JUMPDEST PUSH1 0x40 MLOAD DUP1 SWAP2 SUB SWAP1 REVERT JUMPDEST PUSH1 0x2 PUSH1 0x40 MLOAD DUP1 PUSH2 0x140 ADD PUSH1 0x40 MSTORE DUP1 DUP13 PUSH20 0xFFFFFFFFFFFFFFFFFFFFFFFFFFFFFFFFFFFFFFFF AND DUP2 MSTORE PUSH1 0x20 ADD DUP8 DUP2 MSTORE PUSH1 0x20 ADD DUP7 DUP2 MSTORE PUSH1 0x20 ADD DUP6 DUP2 MSTORE PUSH1 0x20 ADD DUP5 DUP2 MSTORE PUSH1 0x20 ADD TIMESTAMP DUP2 MSTORE PUSH1 0x20 ADD DUP12 ISZERO ISZERO DUP2 MSTORE PUSH1 0x20 ADD DUP11 ISZERO ISZERO DUP2 MSTORE PUSH1 0x20 ADD DUP10 ISZERO ISZERO DUP2 MSTORE PUSH1 0x20 ADD DUP9 ISZERO ISZERO DUP2 MSTORE POP SWAP1 DUP1 PUSH1 0x1 DUP2 SLOAD ADD DUP1 DUP3 SSTORE DUP1 SWAP2 POP POP PUSH1 0x1 SWAP1 SUB SWAP1 PUSH1 0x0 MSTORE PUSH1 0x20 PUSH1 0x0 KECCAK256 SWAP1 PUSH1 0x7 MUL ADD PUSH1 0x0 SWAP1 SWAP2 SWAP1 SWAP2 SWAP1 SWAP2 POP PUSH1 0x0 DUP3 ADD MLOAD DUP2 PUSH1 0x0 ADD PUSH1 0x0 PUSH2 0x100 EXP DUP2 SLOAD DUP2 PUSH20 0xFFFFFFFFFFFFFFFFFFFFFFFFFFFFFFFFFFFFFFFF MUL NOT AND SWAP1 DUP4 PUSH20 0xFFFFFFFFFFFFFFFFFFFFFFFFFFFFFFFFFFFFFFFF AND MUL OR SWAP1 SSTORE POP PUSH1 0x20 DUP3 ADD MLOAD DUP2 PUSH1 0x1 ADD SWAP1 DUP1 MLOAD SWAP1 PUSH1 0x20 ADD SWAP1 PUSH2 0x555 SWAP3 SWAP2 SWAP1 PUSH2 0x1198 JUMP JUMPDEST POP PUSH1 0x40 DUP3 ADD MLOAD DUP2 PUSH1 0x2 ADD SSTORE PUSH1 0x60 DUP3 ADD MLOAD DUP2 PUSH1 0x3 ADD SSTORE PUSH1 0x80 DUP3 ADD MLOAD DUP2 PUSH1 0x4 ADD SSTORE PUSH1 0xA0 DUP3 ADD MLOAD DUP2 PUSH1 0x5 ADD SSTORE PUSH1 0xC0 DUP3 ADD MLOAD DUP2 PUSH1 0x6 ADD PUSH1 0x0 PUSH2 0x100 EXP DUP2 SLOAD DUP2 PUSH1 0xFF MUL NOT AND SWAP1 DUP4 ISZERO ISZERO MUL OR SWAP1 SSTORE POP PUSH1 0xE0 DUP3 ADD MLOAD DUP2 PUSH1 0x6 ADD PUSH1 0x1 PUSH2 0x100 EXP DUP2 SLOAD DUP2 PUSH1 0xFF MUL NOT AND SWAP1 DUP4 ISZERO ISZERO MUL OR SWAP1 SSTORE POP PUSH2 0x100 DUP3 ADD MLOAD DUP2 PUSH1 0x6 ADD PUSH1 0x2 PUSH2 0x100 EXP DUP2 SLOAD DUP2 PUSH1 0xFF MUL NOT AND SWAP1 DUP4 ISZERO ISZERO MUL OR SWAP1 SSTORE POP PUSH2 0x120 DUP3 ADD MLOAD DUP2 PUSH1 0x6 ADD PUSH1 0x3 PUSH2 0x100 EXP DUP2 SLOAD DUP2 PUSH1 0xFF MUL NOT AND SWAP1 DUP4 ISZERO ISZERO MUL OR SWAP1 SSTORE POP POP POP PUSH32 0xCD7BE9CA97D79D2C4048B8402AFD93BB5F487441DC211D4BD2E95011CCD423A0 DUP11 DUP7 DUP6 DUP6 PUSH1 0x40 MLOAD PUSH2 0x637 SWAP5 SWAP4 SWAP3 SWAP2 SWAP1 PUSH2 0x1900 JUMP JUMPDEST PUSH1 0x40 MLOAD DUP1 SWAP2 SUB SWAP1 LOG1 PUSH1 0x1 SWAP1 POP SWAP10 SWAP9 POP POP POP POP POP POP POP POP POP JUMP JUMPDEST PUSH1 0x0 DUP1 PUSH1 0x2 DUP1 SLOAD SWAP1 POP SWAP1 POP PUSH1 0x0 JUMPDEST DUP2 DUP2 LT ISZERO PUSH2 0x738 JUMPI DUP4 PUSH20 0xFFFFFFFFFFFFFFFFFFFFFFFFFFFFFFFFFFFFFFFF AND PUSH1 0x2 DUP3 DUP2 SLOAD DUP2 LT PUSH2 0x691 JUMPI PUSH2 0x690 PUSH2 0x1C99 JUMP JUMPDEST JUMPDEST SWAP1 PUSH1 0x0 MSTORE PUSH1 0x20 PUSH1 0x0 KECCAK256 SWAP1 PUSH1 0x7 MUL ADD PUSH1 0x0 ADD PUSH1 0x0 SWAP1 SLOAD SWAP1 PUSH2 0x100 EXP SWAP1 DIV PUSH20 0xFFFFFFFFFFFFFFFFFFFFFFFFFFFFFFFFFFFFFFFF AND PUSH20 0xFFFFFFFFFFFFFFFFFFFFFFFFFFFFFFFFFFFFFFFF AND EQ DUP1 ISZERO PUSH2 0x715 JUMPI POP PUSH1 0x2 DUP2 DUP2 SLOAD DUP2 LT PUSH2 0x6F5 JUMPI PUSH2 0x6F4 PUSH2 0x1C99 JUMP JUMPDEST JUMPDEST SWAP1 PUSH1 0x0 MSTORE PUSH1 0x20 PUSH1 0x0 KECCAK256 SWAP1 PUSH1 0x7 MUL ADD PUSH1 0x6 ADD PUSH1 0x0 SWAP1 SLOAD SWAP1 PUSH2 0x100 EXP SWAP1 DIV PUSH1 0xFF AND JUMPDEST ISZERO PUSH2 0x725 JUMPI PUSH1 0x1 SWAP3 POP POP POP PUSH2 0x73F JUMP JUMPDEST DUP1 DUP1 PUSH2 0x730 SWAP1 PUSH2 0x1BC3 JUMP JUMPDEST SWAP2 POP POP PUSH2 0x65E JUMP JUMPDEST POP PUSH1 0x0 SWAP2 POP POP JUMPDEST SWAP2 SWAP1 POP JUMP JUMPDEST PUSH1 0x0 CALLER PUSH20 0xFFFFFFFFFFFFFFFFFFFFFFFFFFFFFFFFFFFFFFFF AND PUSH1 0x0 DUP1 SLOAD SWAP1 PUSH2 0x100 EXP SWAP1 DIV PUSH20 0xFFFFFFFFFFFFFFFFFFFFFFFFFFFFFFFFFFFFFFFF AND PUSH20 0xFFFFFFFFFFFFFFFFFFFFFFFFFFFFFFFFFFFFFFFF AND EQ PUSH2 0x7D4 JUMPI PUSH1 0x40 MLOAD PUSH32 0x8C379A000000000000000000000000000000000000000000000000000000000 DUP2 MSTORE PUSH1 0x4 ADD PUSH2 0x7CB SWAP1 PUSH2 0x1967 JUMP JUMPDEST PUSH1 0x40 MLOAD DUP1 SWAP2 SUB SWAP1 REVERT JUMPDEST PUSH1 0x0 PUSH1 0x2 DUP1 SLOAD SWAP1 POP SWAP1 POP PUSH1 0x0 JUMPDEST DUP2 DUP2 LT ISZERO PUSH2 0x959 JUMPI DUP5 PUSH20 0xFFFFFFFFFFFFFFFFFFFFFFFFFFFFFFFFFFFFFFFF AND PUSH1 0x2 DUP3 DUP2 SLOAD DUP2 LT PUSH2 0x814 JUMPI PUSH2 0x813 PUSH2 0x1C99 JUMP JUMPDEST JUMPDEST SWAP1 PUSH1 0x0 MSTORE PUSH1 0x20 PUSH1 0x0 KECCAK256 SWAP1 PUSH1 0x7 MUL ADD PUSH1 0x0 ADD PUSH1 0x0 SWAP1 SLOAD SWAP1 PUSH2 0x100 EXP SWAP1 DIV PUSH20 0xFFFFFFFFFFFFFFFFFFFFFFFFFFFFFFFFFFFFFFFF AND PUSH20 0xFFFFFFFFFFFFFFFFFFFFFFFFFFFFFFFFFFFFFFFF AND EQ ISZERO PUSH2 0x946 JUMPI PUSH1 0x0 PUSH1 0x1 DUP2 GT ISZERO PUSH2 0x876 JUMPI PUSH2 0x875 PUSH2 0x1C3B JUMP JUMPDEST JUMPDEST DUP5 PUSH1 0x1 DUP2 GT ISZERO PUSH2 0x889 JUMPI PUSH2 0x888 PUSH2 0x1C3B JUMP JUMPDEST JUMPDEST EQ ISZERO PUSH2 0x8D2 JUMPI PUSH1 0x1 PUSH1 0x2 DUP3 DUP2 SLOAD DUP2 LT PUSH2 0x8A5 JUMPI PUSH2 0x8A4 PUSH2 0x1C99 JUMP JUMPDEST JUMPDEST SWAP1 PUSH1 0x0 MSTORE PUSH1 0x20 PUSH1 0x0 KECCAK256 SWAP1 PUSH1 0x7 MUL ADD PUSH1 0x6 ADD PUSH1 0x3 PUSH2 0x100 EXP DUP2 SLOAD DUP2 PUSH1 0xFF MUL NOT AND SWAP1 DUP4 ISZERO ISZERO MUL OR SWAP1 SSTORE POP PUSH2 0x911 JUMP JUMPDEST PUSH1 0x0 PUSH1 0x2 DUP3 DUP2 SLOAD DUP2 LT PUSH2 0x8E8 JUMPI PUSH2 0x8E7 PUSH2 0x1C99 JUMP JUMPDEST JUMPDEST SWAP1 PUSH1 0x0 MSTORE PUSH1 0x20 PUSH1 0x0 KECCAK256 SWAP1 PUSH1 0x7 MUL ADD PUSH1 0x6 ADD PUSH1 0x3 PUSH2 0x100 EXP DUP2 SLOAD DUP2 PUSH1 0xFF MUL NOT AND SWAP1 DUP4 ISZERO ISZERO MUL OR SWAP1 SSTORE POP JUMPDEST TIMESTAMP PUSH1 0x2 DUP3 DUP2 SLOAD DUP2 LT PUSH2 0x926 JUMPI PUSH2 0x925 PUSH2 0x1C99 JUMP JUMPDEST JUMPDEST SWAP1 PUSH1 0x0 MSTORE PUSH1 0x20 PUSH1 0x0 KECCAK256 SWAP1 PUSH1 0x7 MUL ADD PUSH1 0x5 ADD DUP2 SWAP1 SSTORE POP PUSH1 0x1 SWAP3 POP POP POP PUSH2 0x999 JUMP JUMPDEST DUP1 DUP1 PUSH2 0x951 SWAP1 PUSH2 0x1BC3 JUMP JUMPDEST SWAP2 POP POP PUSH2 0x7E1 JUMP JUMPDEST POP PUSH32 0x1BC4F6A74FDBF500E13DB259C58A58C59533EA54A4B93010D0126F6061EC3753 DUP5 DUP5 PUSH1 0x40 MLOAD PUSH2 0x98B SWAP3 SWAP2 SWAP1 PUSH2 0x18AE JUMP JUMPDEST PUSH1 0x40 MLOAD DUP1 SWAP2 SUB SWAP1 LOG1 PUSH1 0x0 SWAP2 POP POP JUMPDEST SWAP3 SWAP2 POP POP JUMP JUMPDEST PUSH1 0x0 DUP1 PUSH1 0x2 DUP1 SLOAD SWAP1 POP SWAP1 POP PUSH1 0x0 JUMPDEST DUP2 DUP2 LT ISZERO PUSH2 0xA87 JUMPI DUP4 PUSH20 0xFFFFFFFFFFFFFFFFFFFFFFFFFFFFFFFFFFFFFFFF AND PUSH1 0x2 DUP3 DUP2 SLOAD DUP2 LT PUSH2 0x9E0 JUMPI PUSH2 0x9DF PUSH2 0x1C99 JUMP JUMPDEST JUMPDEST SWAP1 PUSH1 0x0 MSTORE PUSH1 0x20 PUSH1 0x0 KECCAK256 SWAP1 PUSH1 0x7 MUL ADD PUSH1 0x0 ADD PUSH1 0x0 SWAP1 SLOAD SWAP1 PUSH2 0x100 EXP SWAP1 DIV PUSH20 0xFFFFFFFFFFFFFFFFFFFFFFFFFFFFFFFFFFFFFFFF AND PUSH20 0xFFFFFFFFFFFFFFFFFFFFFFFFFFFFFFFFFFFFFFFF AND EQ DUP1 ISZERO PUSH2 0xA64 JUMPI POP PUSH1 0x2 DUP2 DUP2 SLOAD DUP2 LT PUSH2 0xA44 JUMPI PUSH2 0xA43 PUSH2 0x1C99 JUMP JUMPDEST JUMPDEST SWAP1 PUSH1 0x0 MSTORE PUSH1 0x20 PUSH1 0x0 KECCAK256 SWAP1 PUSH1 0x7 MUL ADD PUSH1 0x6 ADD PUSH1 0x1 SWAP1 SLOAD SWAP1 PUSH2 0x100 EXP SWAP1 DIV PUSH1 0xFF AND JUMPDEST ISZERO PUSH2 0xA74 JUMPI PUSH1 0x1 SWAP3 POP POP POP PUSH2 0xA8E JUMP JUMPDEST DUP1 DUP1 PUSH2 0xA7F SWAP1 PUSH2 0x1BC3 JUMP JUMPDEST SWAP2 POP POP PUSH2 0x9AD JUMP JUMPDEST POP PUSH1 0x0 SWAP2 POP POP JUMPDEST SWAP2 SWAP1 POP JUMP JUMPDEST PUSH2 0xA9B PUSH2 0x121E JUMP JUMPDEST PUSH1 0x0 PUSH1 0x2 DUP1 SLOAD SWAP1 POP SWAP1 POP PUSH1 0x0 JUMPDEST DUP2 DUP2 LT ISZERO PUSH2 0xCEE JUMPI DUP4 PUSH1 0x40 MLOAD PUSH1 0x20 ADD PUSH2 0xAC1 SWAP2 SWAP1 PUSH2 0x1880 JUMP JUMPDEST PUSH1 0x40 MLOAD PUSH1 0x20 DUP2 DUP4 SUB SUB DUP2 MSTORE SWAP1 PUSH1 0x40 MSTORE DUP1 MLOAD SWAP1 PUSH1 0x20 ADD KECCAK256 PUSH1 0x2 DUP3 DUP2 SLOAD DUP2 LT PUSH2 0xAEB JUMPI PUSH2 0xAEA PUSH2 0x1C99 JUMP JUMPDEST JUMPDEST SWAP1 PUSH1 0x0 MSTORE PUSH1 0x20 PUSH1 0x0 KECCAK256 SWAP1 PUSH1 0x7 MUL ADD PUSH1 0x1 ADD PUSH1 0x40 MLOAD PUSH1 0x20 ADD PUSH2 0xB0C SWAP2 SWAP1 PUSH2 0x1897 JUMP JUMPDEST PUSH1 0x40 MLOAD PUSH1 0x20 DUP2 DUP4 SUB SUB DUP2 MSTORE SWAP1 PUSH1 0x40 MSTORE DUP1 MLOAD SWAP1 PUSH1 0x20 ADD KECCAK256 EQ ISZERO PUSH2 0xCDB JUMPI PUSH1 0x2 DUP2 DUP2 SLOAD DUP2 LT PUSH2 0xB3C JUMPI PUSH2 0xB3B PUSH2 0x1C99 JUMP JUMPDEST JUMPDEST SWAP1 PUSH1 0x0 MSTORE PUSH1 0x20 PUSH1 0x0 KECCAK256 SWAP1 PUSH1 0x7 MUL ADD PUSH1 0x40 MLOAD DUP1 PUSH2 0x140 ADD PUSH1 0x40 MSTORE SWAP1 DUP2 PUSH1 0x0 DUP3 ADD PUSH1 0x0 SWAP1 SLOAD SWAP1 PUSH2 0x100 EXP SWAP1 DIV PUSH20 0xFFFFFFFFFFFFFFFFFFFFFFFFFFFFFFFFFFFFFFFF AND PUSH20 0xFFFFFFFFFFFFFFFFFFFFFFFFFFFFFFFFFFFFFFFF AND PUSH20 0xFFFFFFFFFFFFFFFFFFFFFFFFFFFFFFFFFFFFFFFF AND DUP2 MSTORE PUSH1 0x20 ADD PUSH1 0x1 DUP3 ADD DUP1 SLOAD PUSH2 0xBBC SWAP1 PUSH2 0x1B60 JUMP JUMPDEST DUP1 PUSH1 0x1F ADD PUSH1 0x20 DUP1 SWAP2 DIV MUL PUSH1 0x20 ADD PUSH1 0x40 MLOAD SWAP1 DUP2 ADD PUSH1 0x40 MSTORE DUP1 SWAP3 SWAP2 SWAP1 DUP2 DUP2 MSTORE PUSH1 0x20 ADD DUP3 DUP1 SLOAD PUSH2 0xBE8 SWAP1 PUSH2 0x1B60 JUMP JUMPDEST DUP1 ISZERO PUSH2 0xC35 JUMPI DUP1 PUSH1 0x1F LT PUSH2 0xC0A JUMPI PUSH2 0x100 DUP1 DUP4 SLOAD DIV MUL DUP4 MSTORE SWAP2 PUSH1 0x20 ADD SWAP2 PUSH2 0xC35 JUMP JUMPDEST DUP3 ADD SWAP2 SWAP1 PUSH1 0x0 MSTORE PUSH1 0x20 PUSH1 0x0 KECCAK256 SWAP1 JUMPDEST DUP2 SLOAD DUP2 MSTORE SWAP1 PUSH1 0x1 ADD SWAP1 PUSH1 0x20 ADD DUP1 DUP4 GT PUSH2 0xC18 JUMPI DUP3 SWAP1 SUB PUSH1 0x1F AND DUP3 ADD SWAP2 JUMPDEST POP POP POP POP POP DUP2 MSTORE PUSH1 0x20 ADD PUSH1 0x2 DUP3 ADD SLOAD DUP2 MSTORE PUSH1 0x20 ADD PUSH1 0x3 DUP3 ADD SLOAD DUP2 MSTORE PUSH1 0x20 ADD PUSH1 0x4 DUP3 ADD SLOAD DUP2 MSTORE PUSH1 0x20 ADD PUSH1 0x5 DUP3 ADD SLOAD DUP2 MSTORE PUSH1 0x20 ADD PUSH1 0x6 DUP3 ADD PUSH1 0x0 SWAP1 SLOAD SWAP1 PUSH2 0x100 EXP SWAP1 DIV PUSH1 0xFF AND ISZERO ISZERO ISZERO ISZERO DUP2 MSTORE PUSH1 0x20 ADD PUSH1 0x6 DUP3 ADD PUSH1 0x1 SWAP1 SLOAD SWAP1 PUSH2 0x100 EXP SWAP1 DIV PUSH1 0xFF AND ISZERO ISZERO ISZERO ISZERO DUP2 MSTORE PUSH1 0x20 ADD PUSH1 0x6 DUP3 ADD PUSH1 0x2 SWAP1 SLOAD SWAP1 PUSH2 0x100 EXP SWAP1 DIV PUSH1 0xFF AND ISZERO ISZERO ISZERO ISZERO DUP2 MSTORE PUSH1 0x20 ADD PUSH1 0x6 DUP3 ADD PUSH1 0x3 SWAP1 SLOAD SWAP1 PUSH2 0x100 EXP SWAP1 DIV PUSH1 0xFF AND ISZERO ISZERO ISZERO ISZERO DUP2 MSTORE POP POP SWAP3 POP POP POP PUSH2 0xD2A JUMP JUMPDEST DUP1 DUP1 PUSH2 0xCE6 SWAP1 PUSH2 0x1BC3 JUMP JUMPDEST SWAP2 POP POP PUSH2 0xAA8 JUMP JUMPDEST POP PUSH1 0x40 MLOAD PUSH32 0x8C379A000000000000000000000000000000000000000000000000000000000 DUP2 MSTORE PUSH1 0x4 ADD PUSH2 0xD21 SWAP1 PUSH2 0x19A7 JUMP JUMPDEST PUSH1 0x40 MLOAD DUP1 SWAP2 SUB SWAP1 REVERT JUMPDEST SWAP2 SWAP1 POP JUMP JUMPDEST PUSH2 0xD37 PUSH2 0x121E JUMP JUMPDEST PUSH1 0x0 PUSH1 0x2 DUP1 SLOAD SWAP1 POP SWAP1 POP PUSH1 0x0 JUMPDEST DUP2 DUP2 LT ISZERO PUSH2 0xF8B JUMPI DUP4 PUSH20 0xFFFFFFFFFFFFFFFFFFFFFFFFFFFFFFFFFFFFFFFF AND PUSH1 0x2 DUP3 DUP2 SLOAD DUP2 LT PUSH2 0xD77 JUMPI PUSH2 0xD76 PUSH2 0x1C99 JUMP JUMPDEST JUMPDEST SWAP1 PUSH1 0x0 MSTORE PUSH1 0x20 PUSH1 0x0 KECCAK256 SWAP1 PUSH1 0x7 MUL ADD PUSH1 0x0 ADD PUSH1 0x0 SWAP1 SLOAD SWAP1 PUSH2 0x100 EXP SWAP1 DIV PUSH20 0xFFFFFFFFFFFFFFFFFFFFFFFFFFFFFFFFFFFFFFFF AND PUSH20 0xFFFFFFFFFFFFFFFFFFFFFFFFFFFFFFFFFFFFFFFF AND EQ ISZERO PUSH2 0xF78 JUMPI PUSH1 0x2 DUP2 DUP2 SLOAD DUP2 LT PUSH2 0xDD9 JUMPI PUSH2 0xDD8 PUSH2 0x1C99 JUMP JUMPDEST JUMPDEST SWAP1 PUSH1 0x0 MSTORE PUSH1 0x20 PUSH1 0x0 KECCAK256 SWAP1 PUSH1 0x7 MUL ADD PUSH1 0x40 MLOAD DUP1 PUSH2 0x140 ADD PUSH1 0x40 MSTORE SWAP1 DUP2 PUSH1 0x0 DUP3 ADD PUSH1 0x0 SWAP1 SLOAD SWAP1 PUSH2 0x100 EXP SWAP1 DIV PUSH20 0xFFFFFFFFFFFFFFFFFFFFFFFFFFFFFFFFFFFFFFFF AND PUSH20 0xFFFFFFFFFFFFFFFFFFFFFFFFFFFFFFFFFFFFFFFF AND PUSH20 0xFFFFFFFFFFFFFFFFFFFFFFFFFFFFFFFFFFFFFFFF AND DUP2 MSTORE PUSH1 0x20 ADD PUSH1 0x1 DUP3 ADD DUP1 SLOAD PUSH2 0xE59 SWAP1 PUSH2 0x1B60 JUMP JUMPDEST DUP1 PUSH1 0x1F ADD PUSH1 0x20 DUP1 SWAP2 DIV MUL PUSH1 0x20 ADD PUSH1 0x40 MLOAD SWAP1 DUP2 ADD PUSH1 0x40 MSTORE DUP1 SWAP3 SWAP2 SWAP1 DUP2 DUP2 MSTORE PUSH1 0x20 ADD DUP3 DUP1 SLOAD PUSH2 0xE85 SWAP1 PUSH2 0x1B60 JUMP JUMPDEST DUP1 ISZERO PUSH2 0xED2 JUMPI DUP1 PUSH1 0x1F LT PUSH2 0xEA7 JUMPI PUSH2 0x100 DUP1 DUP4 SLOAD DIV MUL DUP4 MSTORE SWAP2 PUSH1 0x20 ADD SWAP2 PUSH2 0xED2 JUMP JUMPDEST DUP3 ADD SWAP2 SWAP1 PUSH1 0x0 MSTORE PUSH1 0x20 PUSH1 0x0 KECCAK256 SWAP1 JUMPDEST DUP2 SLOAD DUP2 MSTORE SWAP1 PUSH1 0x1 ADD SWAP1 PUSH1 0x20 ADD DUP1 DUP4 GT PUSH2 0xEB5 JUMPI DUP3 SWAP1 SUB PUSH1 0x1F AND DUP3 ADD SWAP2 JUMPDEST POP POP POP POP POP DUP2 MSTORE PUSH1 0x20 ADD PUSH1 0x2 DUP3 ADD SLOAD DUP2 MSTORE PUSH1 0x20 ADD PUSH1 0x3 DUP3 ADD SLOAD DUP2 MSTORE PUSH1 0x20 ADD PUSH1 0x4 DUP3 ADD SLOAD DUP2 MSTORE PUSH1 0x20 ADD PUSH1 0x5 DUP3 ADD SLOAD DUP2 MSTORE PUSH1 0x20 ADD PUSH1 0x6 DUP3 ADD PUSH1 0x0 SWAP1 SLOAD SWAP1 PUSH2 0x100 EXP SWAP1 DIV PUSH1 0xFF AND ISZERO ISZERO ISZERO ISZERO DUP2 MSTORE PUSH1 0x20 ADD PUSH1 0x6 DUP3 ADD PUSH1 0x1 SWAP1 SLOAD SWAP1 PUSH2 0x100 EXP SWAP1 DIV PUSH1 0xFF AND ISZERO ISZERO ISZERO ISZERO DUP2 MSTORE PUSH1 0x20 ADD PUSH1 0x6 DUP3 ADD PUSH1 0x2 SWAP1 SLOAD SWAP1 PUSH2 0x100 EXP SWAP1 DIV PUSH1 0xFF AND ISZERO ISZERO ISZERO ISZERO DUP2 MSTORE PUSH1 0x20 ADD PUSH1 0x6 DUP3 ADD PUSH1 0x3 SWAP1 SLOAD SWAP1 PUSH2 0x100 EXP SWAP1 DIV PUSH1 0xFF AND ISZERO ISZERO ISZERO ISZERO DUP2 MSTORE POP POP SWAP3 POP POP POP PUSH2 0xFC7 JUMP JUMPDEST DUP1 DUP1 PUSH2 0xF83 SWAP1 PUSH2 0x1BC3 JUMP JUMPDEST SWAP2 POP POP PUSH2 0xD44 JUMP JUMPDEST POP PUSH1 0x40 MLOAD PUSH32 0x8C379A000000000000000000000000000000000000000000000000000000000 DUP2 MSTORE PUSH1 0x4 ADD PUSH2 0xFBE SWAP1 PUSH2 0x19A7 JUMP JUMPDEST PUSH1 0x40 MLOAD DUP1 SWAP2 SUB SWAP1 REVERT JUMPDEST SWAP2 SWAP1 POP JUMP JUMPDEST PUSH1 0x0 DUP1 PUSH1 0x2 DUP1 SLOAD SWAP1 POP SWAP1 POP PUSH1 0x0 JUMPDEST DUP2 DUP2 LT ISZERO PUSH2 0x1152 JUMPI DUP5 PUSH20 0xFFFFFFFFFFFFFFFFFFFFFFFFFFFFFFFFFFFFFFFF AND PUSH1 0x2 DUP3 DUP2 SLOAD DUP2 LT PUSH2 0x100D JUMPI PUSH2 0x100C PUSH2 0x1C99 JUMP JUMPDEST JUMPDEST SWAP1 PUSH1 0x0 MSTORE PUSH1 0x20 PUSH1 0x0 KECCAK256 SWAP1 PUSH1 0x7 MUL ADD PUSH1 0x0 ADD PUSH1 0x0 SWAP1 SLOAD SWAP1 PUSH2 0x100 EXP SWAP1 DIV PUSH20 0xFFFFFFFFFFFFFFFFFFFFFFFFFFFFFFFFFFFFFFFF AND PUSH20 0xFFFFFFFFFFFFFFFFFFFFFFFFFFFFFFFFFFFFFFFF AND EQ ISZERO PUSH2 0x113F JUMPI PUSH1 0x0 PUSH1 0x1 DUP2 GT ISZERO PUSH2 0x106F JUMPI PUSH2 0x106E PUSH2 0x1C3B JUMP JUMPDEST JUMPDEST DUP5 PUSH1 0x1 DUP2 GT ISZERO PUSH2 0x1082 JUMPI PUSH2 0x1081 PUSH2 0x1C3B JUMP JUMPDEST JUMPDEST EQ ISZERO PUSH2 0x10CB JUMPI PUSH1 0x1 PUSH1 0x2 DUP3 DUP2 SLOAD DUP2 LT PUSH2 0x109E JUMPI PUSH2 0x109D PUSH2 0x1C99 JUMP JUMPDEST JUMPDEST SWAP1 PUSH1 0x0 MSTORE PUSH1 0x20 PUSH1 0x0 KECCAK256 SWAP1 PUSH1 0x7 MUL ADD PUSH1 0x6 ADD PUSH1 0x2 PUSH2 0x100 EXP DUP2 SLOAD DUP2 PUSH1 0xFF MUL NOT AND SWAP1 DUP4 ISZERO ISZERO MUL OR SWAP1 SSTORE POP PUSH2 0x110A JUMP JUMPDEST PUSH1 0x0 PUSH1 0x2 DUP3 DUP2 SLOAD DUP2 LT PUSH2 0x10E1 JUMPI PUSH2 0x10E0 PUSH2 0x1C99 JUMP JUMPDEST JUMPDEST SWAP1 PUSH1 0x0 MSTORE PUSH1 0x20 PUSH1 0x0 KECCAK256 SWAP1 PUSH1 0x7 MUL ADD PUSH1 0x6 ADD PUSH1 0x2 PUSH2 0x100 EXP DUP2 SLOAD DUP2 PUSH1 0xFF MUL NOT AND SWAP1 DUP4 ISZERO ISZERO MUL OR SWAP1 SSTORE POP JUMPDEST TIMESTAMP PUSH1 0x2 DUP3 DUP2 SLOAD DUP2 LT PUSH2 0x111F JUMPI PUSH2 0x111E PUSH2 0x1C99 JUMP JUMPDEST JUMPDEST SWAP1 PUSH1 0x0 MSTORE PUSH1 0x20 PUSH1 0x0 KECCAK256 SWAP1 PUSH1 0x7 MUL ADD PUSH1 0x5 ADD DUP2 SWAP1 SSTORE POP PUSH1 0x1 SWAP3 POP POP POP PUSH2 0x1192 JUMP JUMPDEST DUP1 DUP1 PUSH2 0x114A SWAP1 PUSH2 0x1BC3 JUMP JUMPDEST SWAP2 POP POP PUSH2 0xFDA JUMP JUMPDEST POP PUSH32 0x3F57EA1559CFEE0FF7804A8BBF56C488FBD7F8D575ACD8537D7F02A6FFB8BDB4 DUP5 DUP5 PUSH1 0x40 MLOAD PUSH2 0x1184 SWAP3 SWAP2 SWAP1 PUSH2 0x18D7 JUMP JUMPDEST PUSH1 0x40 MLOAD DUP1 SWAP2 SUB SWAP1 LOG1 PUSH1 0x0 SWAP2 POP POP JUMPDEST SWAP3 SWAP2 POP POP JUMP JUMPDEST DUP3 DUP1 SLOAD PUSH2 0x11A4 SWAP1 PUSH2 0x1B60 JUMP JUMPDEST SWAP1 PUSH1 0x0 MSTORE PUSH1 0x20 PUSH1 0x0 KECCAK256 SWAP1 PUSH1 0x1F ADD PUSH1 0x20 SWAP1 DIV DUP2 ADD SWAP3 DUP3 PUSH2 0x11C6 JUMPI PUSH1 0x0 DUP6 SSTORE PUSH2 0x120D JUMP JUMPDEST DUP3 PUSH1 0x1F LT PUSH2 0x11DF JUMPI DUP1 MLOAD PUSH1 0xFF NOT AND DUP4 DUP1 ADD OR DUP6 SSTORE PUSH2 0x120D JUMP JUMPDEST DUP3 DUP1 ADD PUSH1 0x1 ADD DUP6 SSTORE DUP3 ISZERO PUSH2 0x120D JUMPI SWAP2 DUP3 ADD JUMPDEST DUP3 DUP2 GT ISZERO PUSH2 0x120C JUMPI DUP3 MLOAD DUP3 SSTORE SWAP2 PUSH1 0x20 ADD SWAP2 SWAP1 PUSH1 0x1 ADD SWAP1 PUSH2 0x11F1 JUMP JUMPDEST JUMPDEST POP SWAP1 POP PUSH2 0x121A SWAP2 SWAP1 PUSH2 0x128F JUMP JUMPDEST POP SWAP1 JUMP JUMPDEST PUSH1 0x40 MLOAD DUP1 PUSH2 0x140 ADD PUSH1 0x40 MSTORE DUP1 PUSH1 0x0 PUSH20 0xFFFFFFFFFFFFFFFFFFFFFFFFFFFFFFFFFFFFFFFF AND DUP2 MSTORE PUSH1 0x20 ADD PUSH1 0x60 DUP2 MSTORE PUSH1 0x20 ADD PUSH1 0x0 DUP2 MSTORE PUSH1 0x20 ADD PUSH1 0x0 DUP2 MSTORE PUSH1 0x20 ADD PUSH1 0x0 DUP2 MSTORE PUSH1 0x20 ADD PUSH1 0x0 DUP2 MSTORE PUSH1 0x20 ADD PUSH1 0x0 ISZERO ISZERO DUP2 MSTORE PUSH1 0x20 ADD PUSH1 0x0 ISZERO ISZERO DUP2 MSTORE PUSH1 0x20 ADD PUSH1 0x0 ISZERO ISZERO DUP2 MSTORE PUSH1 0x20 ADD PUSH1 0x0 ISZERO ISZERO DUP2 MSTORE POP SWAP1 JUMP JUMPDEST JUMPDEST DUP1 DUP3 GT ISZERO PUSH2 0x12A8 JUMPI PUSH1 0x0 DUP2 PUSH1 0x0 SWAP1 SSTORE POP PUSH1 0x1 ADD PUSH2 0x1290 JUMP JUMPDEST POP SWAP1 JUMP JUMPDEST PUSH1 0x0 PUSH2 0x12BF PUSH2 0x12BA DUP5 PUSH2 0x1A0E JUMP JUMPDEST PUSH2 0x19E9 JUMP JUMPDEST SWAP1 POP DUP3 DUP2 MSTORE PUSH1 0x20 DUP2 ADD DUP5 DUP5 DUP5 ADD GT ISZERO PUSH2 0x12DB JUMPI PUSH2 0x12DA PUSH2 0x1CFC JUMP JUMPDEST JUMPDEST PUSH2 0x12E6 DUP5 DUP3 DUP6 PUSH2 0x1B1E JUMP JUMPDEST POP SWAP4 SWAP3 POP POP POP JUMP JUMPDEST PUSH1 0x0 DUP2 CALLDATALOAD SWAP1 POP PUSH2 0x12FD DUP2 PUSH2 0x1DE5 JUMP JUMPDEST SWAP3 SWAP2 POP POP JUMP JUMPDEST PUSH1 0x0 DUP2 MLOAD SWAP1 POP PUSH2 0x1312 DUP2 PUSH2 0x1DE5 JUMP JUMPDEST SWAP3 SWAP2 POP POP JUMP JUMPDEST PUSH1 0x0 DUP2 CALLDATALOAD SWAP1 POP PUSH2 0x1327 DUP2 PUSH2 0x1DFC JUMP JUMPDEST SWAP3 SWAP2 POP POP JUMP JUMPDEST PUSH1 0x0 DUP2 CALLDATALOAD SWAP1 POP PUSH2 0x133C DUP2 PUSH2 0x1E13 JUMP JUMPDEST SWAP3 SWAP2 POP POP JUMP JUMPDEST PUSH1 0x0 DUP2 CALLDATALOAD SWAP1 POP PUSH2 0x1351 DUP2 PUSH2 0x1E23 JUMP JUMPDEST SWAP3 SWAP2 POP POP JUMP JUMPDEST PUSH1 0x0 DUP3 PUSH1 0x1F DUP4 ADD SLT PUSH2 0x136C JUMPI PUSH2 0x136B PUSH2 0x1CF7 JUMP JUMPDEST JUMPDEST DUP2 CALLDATALOAD PUSH2 0x137C DUP5 DUP3 PUSH1 0x20 DUP7 ADD PUSH2 0x12AC JUMP JUMPDEST SWAP2 POP POP SWAP3 SWAP2 POP POP JUMP JUMPDEST PUSH1 0x0 DUP2 CALLDATALOAD SWAP1 POP PUSH2 0x1394 DUP2 PUSH2 0x1E33 JUMP JUMPDEST SWAP3 SWAP2 POP POP JUMP JUMPDEST PUSH1 0x0 PUSH1 0x20 DUP3 DUP5 SUB SLT ISZERO PUSH2 0x13B0 JUMPI PUSH2 0x13AF PUSH2 0x1D06 JUMP JUMPDEST JUMPDEST PUSH1 0x0 PUSH2 0x13BE DUP5 DUP3 DUP6 ADD PUSH2 0x12EE JUMP JUMPDEST SWAP2 POP POP SWAP3 SWAP2 POP POP JUMP JUMPDEST PUSH1 0x0 PUSH1 0x20 DUP3 DUP5 SUB SLT ISZERO PUSH2 0x13DD JUMPI PUSH2 0x13DC PUSH2 0x1D06 JUMP JUMPDEST JUMPDEST PUSH1 0x0 PUSH2 0x13EB DUP5 DUP3 DUP6 ADD PUSH2 0x1303 JUMP JUMPDEST SWAP2 POP POP SWAP3 SWAP2 POP POP JUMP JUMPDEST PUSH1 0x0 DUP1 PUSH1 0x0 DUP1 PUSH1 0x0 DUP1 PUSH1 0x0 DUP1 PUSH1 0x0 PUSH2 0x120 DUP11 DUP13 SUB SLT ISZERO PUSH2 0x1417 JUMPI PUSH2 0x1416 PUSH2 0x1D06 JUMP JUMPDEST JUMPDEST PUSH1 0x0 PUSH2 0x1425 DUP13 DUP3 DUP14 ADD PUSH2 0x12EE JUMP JUMPDEST SWAP10 POP POP PUSH1 0x20 PUSH2 0x1436 DUP13 DUP3 DUP14 ADD PUSH2 0x1318 JUMP JUMPDEST SWAP9 POP POP PUSH1 0x40 PUSH2 0x1447 DUP13 DUP3 DUP14 ADD PUSH2 0x1318 JUMP JUMPDEST SWAP8 POP POP PUSH1 0x60 PUSH2 0x1458 DUP13 DUP3 DUP14 ADD PUSH2 0x1318 JUMP JUMPDEST SWAP7 POP POP PUSH1 0x80 PUSH2 0x1469 DUP13 DUP3 DUP14 ADD PUSH2 0x1318 JUMP JUMPDEST SWAP6 POP POP PUSH1 0xA0 DUP11 ADD CALLDATALOAD PUSH8 0xFFFFFFFFFFFFFFFF DUP2 GT ISZERO PUSH2 0x148A JUMPI PUSH2 0x1489 PUSH2 0x1D01 JUMP JUMPDEST JUMPDEST PUSH2 0x1496 DUP13 DUP3 DUP14 ADD PUSH2 0x1357 JUMP JUMPDEST SWAP5 POP POP PUSH1 0xC0 PUSH2 0x14A7 DUP13 DUP3 DUP14 ADD PUSH2 0x1385 JUMP JUMPDEST SWAP4 POP POP PUSH1 0xE0 PUSH2 0x14B8 DUP13 DUP3 DUP14 ADD PUSH2 0x1385 JUMP JUMPDEST SWAP3 POP POP PUSH2 0x100 PUSH2 0x14CA DUP13 DUP3 DUP14 ADD PUSH2 0x1385 JUMP JUMPDEST SWAP2 POP POP SWAP3 SWAP6 SWAP9 POP SWAP3 SWAP6 SWAP9 POP SWAP3 SWAP6 SWAP9 JUMP JUMPDEST PUSH1 0x0 DUP1 PUSH1 0x40 DUP4 DUP6 SUB SLT ISZERO PUSH2 0x14F1 JUMPI PUSH2 0x14F0 PUSH2 0x1D06 JUMP JUMPDEST JUMPDEST PUSH1 0x0 PUSH2 0x14FF DUP6 DUP3 DUP7 ADD PUSH2 0x12EE JUMP JUMPDEST SWAP3 POP POP PUSH1 0x20 PUSH2 0x1510 DUP6 DUP3 DUP7 ADD PUSH2 0x132D JUMP JUMPDEST SWAP2 POP POP SWAP3 POP SWAP3 SWAP1 POP JUMP JUMPDEST PUSH1 0x0 DUP1 PUSH1 0x40 DUP4 DUP6 SUB SLT ISZERO PUSH2 0x1531 JUMPI PUSH2 0x1530 PUSH2 0x1D06 JUMP JUMPDEST JUMPDEST PUSH1 0x0 PUSH2 0x153F DUP6 DUP3 DUP7 ADD PUSH2 0x12EE JUMP JUMPDEST SWAP3 POP POP PUSH1 0x20 PUSH2 0x1550 DUP6 DUP3 DUP7 ADD PUSH2 0x1342 JUMP JUMPDEST SWAP2 POP POP SWAP3 POP SWAP3 SWAP1 POP JUMP JUMPDEST PUSH1 0x0 PUSH1 0x20 DUP3 DUP5 SUB SLT ISZERO PUSH2 0x1570 JUMPI PUSH2 0x156F PUSH2 0x1D06 JUMP JUMPDEST JUMPDEST PUSH1 0x0 DUP3 ADD CALLDATALOAD PUSH8 0xFFFFFFFFFFFFFFFF DUP2 GT ISZERO PUSH2 0x158E JUMPI PUSH2 0x158D PUSH2 0x1D01 JUMP JUMPDEST JUMPDEST PUSH2 0x159A DUP5 DUP3 DUP6 ADD PUSH2 0x1357 JUMP JUMPDEST SWAP2 POP POP SWAP3 SWAP2 POP POP JUMP JUMPDEST PUSH2 0x15AC DUP2 PUSH2 0x1A8C JUMP JUMPDEST DUP3 MSTORE POP POP JUMP JUMPDEST PUSH2 0x15BB DUP2 PUSH2 0x1A8C JUMP JUMPDEST DUP3 MSTORE POP POP JUMP JUMPDEST PUSH2 0x15CA DUP2 PUSH2 0x1A9E JUMP JUMPDEST DUP3 MSTORE POP POP JUMP JUMPDEST PUSH2 0x15D9 DUP2 PUSH2 0x1A9E JUMP JUMPDEST DUP3 MSTORE POP POP JUMP JUMPDEST PUSH2 0x15E8 DUP2 PUSH2 0x1AFA JUMP JUMPDEST DUP3 MSTORE POP POP JUMP JUMPDEST PUSH2 0x15F7 DUP2 PUSH2 0x1B0C JUMP JUMPDEST DUP3 MSTORE POP POP JUMP JUMPDEST PUSH1 0x0 PUSH2 0x1608 DUP3 PUSH2 0x1A54 JUMP JUMPDEST PUSH2 0x1612 DUP2 DUP6 PUSH2 0x1A5F JUMP JUMPDEST SWAP4 POP PUSH2 0x1622 DUP2 DUP6 PUSH1 0x20 DUP7 ADD PUSH2 0x1B2D JUMP JUMPDEST PUSH2 0x162B DUP2 PUSH2 0x1D0B JUMP JUMPDEST DUP5 ADD SWAP2 POP POP SWAP3 SWAP2 POP POP JUMP JUMPDEST PUSH1 0x0 PUSH2 0x1641 DUP3 PUSH2 0x1A54 JUMP JUMPDEST PUSH2 0x164B DUP2 DUP6 PUSH2 0x1A70 JUMP JUMPDEST SWAP4 POP PUSH2 0x165B DUP2 DUP6 PUSH1 0x20 DUP7 ADD PUSH2 0x1B2D JUMP JUMPDEST PUSH2 0x1664 DUP2 PUSH2 0x1D0B JUMP JUMPDEST DUP5 ADD SWAP2 POP POP SWAP3 SWAP2 POP POP JUMP JUMPDEST PUSH1 0x0 PUSH2 0x167A DUP3 PUSH2 0x1A54 JUMP JUMPDEST PUSH2 0x1684 DUP2 DUP6 PUSH2 0x1A81 JUMP JUMPDEST SWAP4 POP PUSH2 0x1694 DUP2 DUP6 PUSH1 0x20 DUP7 ADD PUSH2 0x1B2D JUMP JUMPDEST DUP1 DUP5 ADD SWAP2 POP POP SWAP3 SWAP2 POP POP JUMP JUMPDEST PUSH1 0x0 DUP2 SLOAD PUSH2 0x16AD DUP2 PUSH2 0x1B60 JUMP JUMPDEST PUSH2 0x16B7 DUP2 DUP7 PUSH2 0x1A81 JUMP JUMPDEST SWAP5 POP PUSH1 0x1 DUP3 AND PUSH1 0x0 DUP2 EQ PUSH2 0x16D2 JUMPI PUSH1 0x1 DUP2 EQ PUSH2 0x16E3 JUMPI PUSH2 0x1716 JUMP JUMPDEST PUSH1 0xFF NOT DUP4 AND DUP7 MSTORE DUP2 DUP7 ADD SWAP4 POP PUSH2 0x1716 JUMP JUMPDEST PUSH2 0x16EC DUP6 PUSH2 0x1A3F JUMP JUMPDEST PUSH1 0x0 JUMPDEST DUP4 DUP2 LT ISZERO PUSH2 0x170E JUMPI DUP2 SLOAD DUP2 DUP10 ADD MSTORE PUSH1 0x1 DUP3 ADD SWAP2 POP PUSH1 0x20 DUP2 ADD SWAP1 POP PUSH2 0x16EF JUMP JUMPDEST DUP4 DUP9 ADD SWAP6 POP POP POP JUMPDEST POP POP POP SWAP3 SWAP2 POP POP JUMP JUMPDEST PUSH1 0x0 PUSH2 0x172C PUSH1 0x1B DUP4 PUSH2 0x1A70 JUMP JUMPDEST SWAP2 POP PUSH2 0x1737 DUP3 PUSH2 0x1D1C JUMP JUMPDEST PUSH1 0x20 DUP3 ADD SWAP1 POP SWAP2 SWAP1 POP JUMP JUMPDEST PUSH1 0x0 PUSH2 0x174F PUSH1 0x37 DUP4 PUSH2 0x1A70 JUMP JUMPDEST SWAP2 POP PUSH2 0x175A DUP3 PUSH2 0x1D45 JUMP JUMPDEST PUSH1 0x40 DUP3 ADD SWAP1 POP SWAP2 SWAP1 POP JUMP JUMPDEST PUSH1 0x0 PUSH2 0x1772 PUSH1 0xF DUP4 PUSH2 0x1A70 JUMP JUMPDEST SWAP2 POP PUSH2 0x177D DUP3 PUSH2 0x1D94 JUMP JUMPDEST PUSH1 0x20 DUP3 ADD SWAP1 POP SWAP2 SWAP1 POP JUMP JUMPDEST PUSH1 0x0 PUSH2 0x140 DUP4 ADD PUSH1 0x0 DUP4 ADD MLOAD PUSH2 0x17A1 PUSH1 0x0 DUP7 ADD DUP3 PUSH2 0x15A3 JUMP JUMPDEST POP PUSH1 0x20 DUP4 ADD MLOAD DUP5 DUP3 SUB PUSH1 0x20 DUP7 ADD MSTORE PUSH2 0x17B9 DUP3 DUP3 PUSH2 0x15FD JUMP JUMPDEST SWAP2 POP POP PUSH1 0x40 DUP4 ADD MLOAD PUSH2 0x17CE PUSH1 0x40 DUP7 ADD DUP3 PUSH2 0x1862 JUMP JUMPDEST POP PUSH1 0x60 DUP4 ADD MLOAD PUSH2 0x17E1 PUSH1 0x60 DUP7 ADD DUP3 PUSH2 0x1862 JUMP JUMPDEST POP PUSH1 0x80 DUP4 ADD MLOAD PUSH2 0x17F4 PUSH1 0x80 DUP7 ADD DUP3 PUSH2 0x1862 JUMP JUMPDEST POP PUSH1 0xA0 DUP4 ADD MLOAD PUSH2 0x1807 PUSH1 0xA0 DUP7 ADD DUP3 PUSH2 0x1862 JUMP JUMPDEST POP PUSH1 0xC0 DUP4 ADD MLOAD PUSH2 0x181A PUSH1 0xC0 DUP7 ADD DUP3 PUSH2 0x15C1 JUMP JUMPDEST POP PUSH1 0xE0 DUP4 ADD MLOAD PUSH2 0x182D PUSH1 0xE0 DUP7 ADD DUP3 PUSH2 0x15C1 JUMP JUMPDEST POP PUSH2 0x100 DUP4 ADD MLOAD PUSH2 0x1842 PUSH2 0x100 DUP7 ADD DUP3 PUSH2 0x15C1 JUMP JUMPDEST POP PUSH2 0x120 DUP4 ADD MLOAD PUSH2 0x1857 PUSH2 0x120 DUP7 ADD DUP3 PUSH2 0x15C1 JUMP JUMPDEST POP DUP1 SWAP2 POP POP SWAP3 SWAP2 POP POP JUMP JUMPDEST PUSH2 0x186B DUP2 PUSH2 0x1AF0 JUMP JUMPDEST DUP3 MSTORE POP POP JUMP JUMPDEST PUSH2 0x187A DUP2 PUSH2 0x1AF0 JUMP JUMPDEST DUP3 MSTORE POP POP JUMP JUMPDEST PUSH1 0x0 PUSH2 0x188C DUP3 DUP5 PUSH2 0x166F JUMP JUMPDEST SWAP2 POP DUP2 SWAP1 POP SWAP3 SWAP2 POP POP JUMP JUMPDEST PUSH1 0x0 PUSH2 0x18A3 DUP3 DUP5 PUSH2 0x16A0 JUMP JUMPDEST SWAP2 POP DUP2 SWAP1 POP SWAP3 SWAP2 POP POP JUMP JUMPDEST PUSH1 0x0 PUSH1 0x40 DUP3 ADD SWAP1 POP PUSH2 0x18C3 PUSH1 0x0 DUP4 ADD DUP6 PUSH2 0x15B2 JUMP JUMPDEST PUSH2 0x18D0 PUSH1 0x20 DUP4 ADD DUP5 PUSH2 0x15DF JUMP JUMPDEST SWAP4 SWAP3 POP POP POP JUMP JUMPDEST PUSH1 0x0 PUSH1 0x40 DUP3 ADD SWAP1 POP PUSH2 0x18EC PUSH1 0x0 DUP4 ADD DUP6 PUSH2 0x15B2 JUMP JUMPDEST PUSH2 0x18F9 PUSH1 0x20 DUP4 ADD DUP5 PUSH2 0x15EE JUMP JUMPDEST SWAP4 SWAP3 POP POP POP JUMP JUMPDEST PUSH1 0x0 PUSH1 0x80 DUP3 ADD SWAP1 POP PUSH2 0x1915 PUSH1 0x0 DUP4 ADD DUP8 PUSH2 0x15B2 JUMP JUMPDEST DUP2 DUP2 SUB PUSH1 0x20 DUP4 ADD MSTORE PUSH2 0x1927 DUP2 DUP7 PUSH2 0x1636 JUMP JUMPDEST SWAP1 POP PUSH2 0x1936 PUSH1 0x40 DUP4 ADD DUP6 PUSH2 0x1871 JUMP JUMPDEST PUSH2 0x1943 PUSH1 0x60 DUP4 ADD DUP5 PUSH2 0x1871 JUMP JUMPDEST SWAP6 SWAP5 POP POP POP POP POP JUMP JUMPDEST PUSH1 0x0 PUSH1 0x20 DUP3 ADD SWAP1 POP PUSH2 0x1961 PUSH1 0x0 DUP4 ADD DUP5 PUSH2 0x15D0 JUMP JUMPDEST SWAP3 SWAP2 POP POP JUMP JUMPDEST PUSH1 0x0 PUSH1 0x20 DUP3 ADD SWAP1 POP DUP2 DUP2 SUB PUSH1 0x0 DUP4 ADD MSTORE PUSH2 0x1980 DUP2 PUSH2 0x171F JUMP JUMPDEST SWAP1 POP SWAP2 SWAP1 POP JUMP JUMPDEST PUSH1 0x0 PUSH1 0x20 DUP3 ADD SWAP1 POP DUP2 DUP2 SUB PUSH1 0x0 DUP4 ADD MSTORE PUSH2 0x19A0 DUP2 PUSH2 0x1742 JUMP JUMPDEST SWAP1 POP SWAP2 SWAP1 POP JUMP JUMPDEST PUSH1 0x0 PUSH1 0x20 DUP3 ADD SWAP1 POP DUP2 DUP2 SUB PUSH1 0x0 DUP4 ADD MSTORE PUSH2 0x19C0 DUP2 PUSH2 0x1765 JUMP JUMPDEST SWAP1 POP SWAP2 SWAP1 POP JUMP JUMPDEST PUSH1 0x0 PUSH1 0x20 DUP3 ADD SWAP1 POP DUP2 DUP2 SUB PUSH1 0x0 DUP4 ADD MSTORE PUSH2 0x19E1 DUP2 DUP5 PUSH2 0x1788 JUMP JUMPDEST SWAP1 POP SWAP3 SWAP2 POP POP JUMP JUMPDEST PUSH1 0x0 PUSH2 0x19F3 PUSH2 0x1A04 JUMP JUMPDEST SWAP1 POP PUSH2 0x19FF DUP3 DUP3 PUSH2 0x1B92 JUMP JUMPDEST SWAP2 SWAP1 POP JUMP JUMPDEST PUSH1 0x0 PUSH1 0x40 MLOAD SWAP1 POP SWAP1 JUMP JUMPDEST PUSH1 0x0 PUSH8 0xFFFFFFFFFFFFFFFF DUP3 GT ISZERO PUSH2 0x1A29 JUMPI PUSH2 0x1A28 PUSH2 0x1CC8 JUMP JUMPDEST JUMPDEST PUSH2 0x1A32 DUP3 PUSH2 0x1D0B JUMP JUMPDEST SWAP1 POP PUSH1 0x20 DUP2 ADD SWAP1 POP SWAP2 SWAP1 POP JUMP JUMPDEST PUSH1 0x0 DUP2 SWAP1 POP DUP2 PUSH1 0x0 MSTORE PUSH1 0x20 PUSH1 0x0 KECCAK256 SWAP1 POP SWAP2 SWAP1 POP JUMP JUMPDEST PUSH1 0x0 DUP2 MLOAD SWAP1 POP SWAP2 SWAP1 POP JUMP JUMPDEST PUSH1 0x0 DUP3 DUP3 MSTORE PUSH1 0x20 DUP3 ADD SWAP1 POP SWAP3 SWAP2 POP POP JUMP JUMPDEST PUSH1 0x0 DUP3 DUP3 MSTORE PUSH1 0x20 DUP3 ADD SWAP1 POP SWAP3 SWAP2 POP POP JUMP JUMPDEST PUSH1 0x0 DUP2 SWAP1 POP SWAP3 SWAP2 POP POP JUMP JUMPDEST PUSH1 0x0 PUSH2 0x1A97 DUP3 PUSH2 0x1AD0 JUMP JUMPDEST SWAP1 POP SWAP2 SWAP1 POP JUMP JUMPDEST PUSH1 0x0 DUP2 ISZERO ISZERO SWAP1 POP SWAP2 SWAP1 POP JUMP JUMPDEST PUSH1 0x0 DUP2 SWAP1 POP PUSH2 0x1AB8 DUP3 PUSH2 0x1DBD JUMP JUMPDEST SWAP2 SWAP1 POP JUMP JUMPDEST PUSH1 0x0 DUP2 SWAP1 POP PUSH2 0x1ACB DUP3 PUSH2 0x1DD1 JUMP JUMPDEST SWAP2 SWAP1 POP JUMP JUMPDEST PUSH1 0x0 PUSH20 0xFFFFFFFFFFFFFFFFFFFFFFFFFFFFFFFFFFFFFFFF DUP3 AND SWAP1 POP SWAP2 SWAP1 POP JUMP JUMPDEST PUSH1 0x0 DUP2 SWAP1 POP SWAP2 SWAP1 POP JUMP JUMPDEST PUSH1 0x0 PUSH2 0x1B05 DUP3 PUSH2 0x1AAA JUMP JUMPDEST SWAP1 POP SWAP2 SWAP1 POP JUMP JUMPDEST PUSH1 0x0 PUSH2 0x1B17 DUP3 PUSH2 0x1ABD JUMP JUMPDEST SWAP1 POP SWAP2 SWAP1 POP JUMP JUMPDEST DUP3 DUP2 DUP4 CALLDATACOPY PUSH1 0x0 DUP4 DUP4 ADD MSTORE POP POP POP JUMP JUMPDEST PUSH1 0x0 JUMPDEST DUP4 DUP2 LT ISZERO PUSH2 0x1B4B JUMPI DUP1 DUP3 ADD MLOAD DUP2 DUP5 ADD MSTORE PUSH1 0x20 DUP2 ADD SWAP1 POP PUSH2 0x1B30 JUMP JUMPDEST DUP4 DUP2 GT ISZERO PUSH2 0x1B5A JUMPI PUSH1 0x0 DUP5 DUP5 ADD MSTORE JUMPDEST POP POP POP POP JUMP JUMPDEST PUSH1 0x0 PUSH1 0x2 DUP3 DIV SWAP1 POP PUSH1 0x1 DUP3 AND DUP1 PUSH2 0x1B78 JUMPI PUSH1 0x7F DUP3 AND SWAP2 POP JUMPDEST PUSH1 0x20 DUP3 LT DUP2 EQ ISZERO PUSH2 0x1B8C JUMPI PUSH2 0x1B8B PUSH2 0x1C6A JUMP JUMPDEST JUMPDEST POP SWAP2 SWAP1 POP JUMP JUMPDEST PUSH2 0x1B9B DUP3 PUSH2 0x1D0B JUMP JUMPDEST DUP2 ADD DUP2 DUP2 LT PUSH8 0xFFFFFFFFFFFFFFFF DUP3 GT OR ISZERO PUSH2 0x1BBA JUMPI PUSH2 0x1BB9 PUSH2 0x1CC8 JUMP JUMPDEST JUMPDEST DUP1 PUSH1 0x40 MSTORE POP POP POP JUMP JUMPDEST PUSH1 0x0 PUSH2 0x1BCE DUP3 PUSH2 0x1AF0 JUMP JUMPDEST SWAP2 POP PUSH32 0xFFFFFFFFFFFFFFFFFFFFFFFFFFFFFFFFFFFFFFFFFFFFFFFFFFFFFFFFFFFFFFFF DUP3 EQ ISZERO PUSH2 0x1C01 JUMPI PUSH2 0x1C00 PUSH2 0x1C0C JUMP JUMPDEST JUMPDEST PUSH1 0x1 DUP3 ADD SWAP1 POP SWAP2 SWAP1 POP JUMP JUMPDEST PUSH32 0x4E487B7100000000000000000000000000000000000000000000000000000000 PUSH1 0x0 MSTORE PUSH1 0x11 PUSH1 0x4 MSTORE PUSH1 0x24 PUSH1 0x0 REVERT JUMPDEST PUSH32 0x4E487B7100000000000000000000000000000000000000000000000000000000 PUSH1 0x0 MSTORE PUSH1 0x21 PUSH1 0x4 MSTORE PUSH1 0x24 PUSH1 0x0 REVERT JUMPDEST PUSH32 0x4E487B7100000000000000000000000000000000000000000000000000000000 PUSH1 0x0 MSTORE PUSH1 0x22 PUSH1 0x4 MSTORE PUSH1 0x24 PUSH1 0x0 REVERT JUMPDEST PUSH32 0x4E487B7100000000000000000000000000000000000000000000000000000000 PUSH1 0x0 MSTORE PUSH1 0x32 PUSH1 0x4 MSTORE PUSH1 0x24 PUSH1 0x0 REVERT JUMPDEST PUSH32 0x4E487B7100000000000000000000000000000000000000000000000000000000 PUSH1 0x0 MSTORE PUSH1 0x41 PUSH1 0x4 MSTORE PUSH1 0x24 PUSH1 0x0 REVERT JUMPDEST PUSH1 0x0 DUP1 REVERT JUMPDEST PUSH1 0x0 DUP1 REVERT JUMPDEST PUSH1 0x0 DUP1 REVERT JUMPDEST PUSH1 0x0 DUP1 REVERT JUMPDEST PUSH1 0x0 PUSH1 0x1F NOT PUSH1 0x1F DUP4 ADD AND SWAP1 POP SWAP2 SWAP1 POP JUMP JUMPDEST PUSH32 0x4E6F74204F776E65722C2063616E6E6F742070657266726D204F500000000000 PUSH1 0x0 DUP3 ADD MSTORE POP JUMP JUMPDEST PUSH32 0x5468652063616C6C6572206D7573742062652061206C656E64696E6720706F6F PUSH1 0x0 DUP3 ADD MSTORE PUSH32 0x6C20636F6E666967757261746F7220636F6E7472616374000000000000000000 PUSH1 0x20 DUP3 ADD MSTORE POP JUMP JUMPDEST PUSH32 0x4173736574206E6F7420666F756E640000000000000000000000000000000000 PUSH1 0x0 DUP3 ADD MSTORE POP JUMP JUMPDEST PUSH1 0x2 DUP2 LT PUSH2 0x1DCE JUMPI PUSH2 0x1DCD PUSH2 0x1C3B JUMP JUMPDEST JUMPDEST POP JUMP JUMPDEST PUSH1 0x2 DUP2 LT PUSH2 0x1DE2 JUMPI PUSH2 0x1DE1 PUSH2 0x1C3B JUMP JUMPDEST JUMPDEST POP JUMP JUMPDEST PUSH2 0x1DEE DUP2 PUSH2 0x1A8C JUMP JUMPDEST DUP2 EQ PUSH2 0x1DF9 JUMPI PUSH1 0x0 DUP1 REVERT JUMPDEST POP JUMP JUMPDEST PUSH2 0x1E05 DUP2 PUSH2 0x1A9E JUMP JUMPDEST DUP2 EQ PUSH2 0x1E10 JUMPI PUSH1 0x0 DUP1 REVERT JUMPDEST POP JUMP JUMPDEST PUSH1 0x2 DUP2 LT PUSH2 0x1E20 JUMPI PUSH1 0x0 DUP1 REVERT JUMPDEST POP JUMP JUMPDEST PUSH1 0x2 DUP2 LT PUSH2 0x1E30 JUMPI PUSH1 0x0 DUP1 REVERT JUMPDEST POP JUMP JUMPDEST PUSH2 0x1E3C DUP2 PUSH2 0x1AF0 JUMP JUMPDEST DUP2 EQ PUSH2 0x1E47 JUMPI PUSH1 0x0 DUP1 REVERT JUMPDEST POP JUMP INVALID LOG2 PUSH5 0x6970667358 0x22 SLT KECCAK256 0x4A 0x1E GAS SLT CREATE2 0xD4 0xDE PUSH14 0xAE3CA25537C448A3A9D47654D8E6 SWAP9 0xBC ADDMOD 0xEA SWAP13 AND LOG0 EXP 0xBD 0xC5 PUSH5 0x736F6C6343 STOP ADDMOD SMOD STOP CALLER "
				},
				"gasEstimates": {
					"creation": {
						"codeDepositCost": "1561600",
						"executionCost": "25897",
						"totalCost": "1587497"
					},
					"external": {
						"addAsset(address,bool,bool,bool,bool,string,uint256,uint256,uint256)": "infinite",
						"freezeUnFreezeAsset(address,uint8)": "infinite",
						"getAssetByTokenAddress(address)": "infinite",
						"getAssetByTokenSymbol(string)": "infinite",
						"isBorrowingEnable(address)": "infinite",
						"isCollateralEnable(address)": "infinite",
						"isTokenInAssets(address)": "infinite",
						"makeAssetActiveInactive(address,uint8)": "infinite"
					}
				},
				"methodIdentifiers": {
					"addAsset(address,bool,bool,bool,bool,string,uint256,uint256,uint256)": "4c2fad06",
					"freezeUnFreezeAsset(address,uint8)": "e7149623",
					"getAssetByTokenAddress(address)": "e2574030",
					"getAssetByTokenSymbol(string)": "827401bb",
					"isBorrowingEnable(address)": "52a8ee7f",
					"isCollateralEnable(address)": "6a581825",
					"isTokenInAssets(address)": "25101dbc",
					"makeAssetActiveInactive(address,uint8)": "671e3f75"
				}
			},
			"storageLayout": {
				"storage": [
					{
						"astId": 251,
						"contract": "Defi-project/V2_updated_27_02/LendingConfig.sol:LendingConfig",
						"label": "owner",
						"offset": 0,
						"slot": "0",
						"type": "t_address"
					},
					{
						"astId": 284,
						"contract": "Defi-project/V2_updated_27_02/LendingConfig.sol:LendingConfig",
						"label": "addressesProvider",
						"offset": 0,
						"slot": "1",
						"type": "t_contract(LendingPoolAddressProvider)829"
					},
					{
						"astId": 345,
						"contract": "Defi-project/V2_updated_27_02/LendingConfig.sol:LendingConfig",
						"label": "assets",
						"offset": 0,
						"slot": "2",
						"type": "t_array(t_struct(Asset)341_storage)dyn_storage"
					}
				],
				"types": {
					"t_address": {
						"encoding": "inplace",
						"label": "address",
						"numberOfBytes": "20"
					},
					"t_array(t_struct(Asset)341_storage)dyn_storage": {
						"base": "t_struct(Asset)341_storage",
						"encoding": "dynamic_array",
						"label": "struct LendingConfig.Asset[]",
						"numberOfBytes": "32"
					},
					"t_bool": {
						"encoding": "inplace",
						"label": "bool",
						"numberOfBytes": "1"
					},
					"t_contract(LendingPoolAddressProvider)829": {
						"encoding": "inplace",
						"label": "contract LendingPoolAddressProvider",
						"numberOfBytes": "20"
					},
					"t_string_storage": {
						"encoding": "bytes",
						"label": "string",
						"numberOfBytes": "32"
					},
					"t_struct(Asset)341_storage": {
						"encoding": "inplace",
						"label": "struct LendingConfig.Asset",
						"members": [
							{
								"astId": 322,
								"contract": "Defi-project/V2_updated_27_02/LendingConfig.sol:LendingConfig",
								"label": "token",
								"offset": 0,
								"slot": "0",
								"type": "t_address"
							},
							{
								"astId": 324,
								"contract": "Defi-project/V2_updated_27_02/LendingConfig.sol:LendingConfig",
								"label": "symbol",
								"offset": 0,
								"slot": "1",
								"type": "t_string_storage"
							},
							{
								"astId": 326,
								"contract": "Defi-project/V2_updated_27_02/LendingConfig.sol:LendingConfig",
								"label": "decimals",
								"offset": 0,
								"slot": "2",
								"type": "t_uint256"
							},
							{
								"astId": 328,
								"contract": "Defi-project/V2_updated_27_02/LendingConfig.sol:LendingConfig",
								"label": "borrowThreshold",
								"offset": 0,
								"slot": "3",
								"type": "t_uint256"
							},
							{
								"astId": 330,
								"contract": "Defi-project/V2_updated_27_02/LendingConfig.sol:LendingConfig",
								"label": "liquidationThreshold",
								"offset": 0,
								"slot": "4",
								"type": "t_uint256"
							},
							{
								"astId": 332,
								"contract": "Defi-project/V2_updated_27_02/LendingConfig.sol:LendingConfig",
								"label": "lastUpdateTimestamp",
								"offset": 0,
								"slot": "5",
								"type": "t_uint256"
							},
							{
								"astId": 334,
								"contract": "Defi-project/V2_updated_27_02/LendingConfig.sol:LendingConfig",
								"label": "borrowingEnabled",
								"offset": 0,
								"slot": "6",
								"type": "t_bool"
							},
							{
								"astId": 336,
								"contract": "Defi-project/V2_updated_27_02/LendingConfig.sol:LendingConfig",
								"label": "usageAsCollateralEnabled",
								"offset": 1,
								"slot": "6",
								"type": "t_bool"
							},
							{
								"astId": 338,
								"contract": "Defi-project/V2_updated_27_02/LendingConfig.sol:LendingConfig",
								"label": "isfrozen",
								"offset": 2,
								"slot": "6",
								"type": "t_bool"
							},
							{
								"astId": 340,
								"contract": "Defi-project/V2_updated_27_02/LendingConfig.sol:LendingConfig",
								"label": "isActive",
								"offset": 3,
								"slot": "6",
								"type": "t_bool"
							}
						],
						"numberOfBytes": "224"
					},
					"t_uint256": {
						"encoding": "inplace",
						"label": "uint256",
						"numberOfBytes": "32"
					}
				}
			},
			"userdoc": {
				"kind": "user",
				"methods": {},
				"version": 1
			}
		}
	}
}