{
	"dao-project/keccak-demo.sol": {
		"Test": {
			"abi": [
				{
					"inputs": [],
					"name": "CONTRIBUTOR_ROLE",
					"outputs": [
						{
							"internalType": "bytes32",
							"name": "",
							"type": "bytes32"
						}
					],
					"stateMutability": "view",
					"type": "function"
				},
				{
					"inputs": [],
					"name": "STAKEHOLDER_ROLE",
					"outputs": [
						{
							"internalType": "bytes32",
							"name": "",
							"type": "bytes32"
						}
					],
					"stateMutability": "view",
					"type": "function"
				},
				{
					"inputs": [],
					"name": "hello",
					"outputs": [
						{
							"internalType": "bytes32",
							"name": "",
							"type": "bytes32"
						}
					],
					"stateMutability": "view",
					"type": "function"
				},
				{
					"inputs": [],
					"name": "hello2",
					"outputs": [
						{
							"internalType": "bytes32",
							"name": "",
							"type": "bytes32"
						}
					],
					"stateMutability": "view",
					"type": "function"
				}
			],
			"devdoc": {
				"kind": "dev",
				"methods": {},
				"version": 1
			},
			"evm": {
				"assembly": "    /* \"dao-project/keccak-demo.sol\":60:422  contract Test {\r... */\n  mstore(0x40, 0xc0)\n    /* \"dao-project/keccak-demo.sol\":125:149  keccak256(\"CONTRIBUTOR\") */\n  0xa0bb1af1c90aa52ed052b92714ff0087008cc720049bf1af77cca2600b31e80c\n    /* \"dao-project/keccak-demo.sol\":81:149  bytes32 public immutable CONTRIBUTOR_ROLE = keccak256(\"CONTRIBUTOR\") */\n  0x80\n  swap1\n  dup2\n  mstore\n  pop\n    /* \"dao-project/keccak-demo.sol\":200:224  keccak256(\"STAKEHOLDER\") */\n  0xf4bb84e1768dd286358a736d195a0b228621173f655a73b89bf8b191ed0ba07d\n    /* \"dao-project/keccak-demo.sol\":156:224  bytes32 public immutable STAKEHOLDER_ROLE = keccak256(\"STAKEHOLDER\") */\n  0xa0\n  swap1\n  dup2\n  mstore\n  pop\n    /* \"dao-project/keccak-demo.sol\":60:422  contract Test {\r... */\n  callvalue\n  dup1\n  iszero\n  tag_1\n  jumpi\n  0x00\n  dup1\n  revert\ntag_1:\n  pop\n  mload(0x80)\n  mload(0xa0)\n  codecopy(0x00, dataOffset(sub_0), dataSize(sub_0))\n  0x00\n  assignImmutable(\"0x7880aec93413f117ef14bd4e6d130875ab2c7d7d55a064fac3c2f7bd51516380\")\n  0x00\n  assignImmutable(\"0xe455bf8ea6e7463a1046a0b52804526e119b4bf5136279614e0b1e8e296a4e2d\")\n  return(0x00, dataSize(sub_0))\nstop\n\nsub_0: assembly {\n        /* \"dao-project/keccak-demo.sol\":60:422  contract Test {\r... */\n      mstore(0x40, 0x80)\n      callvalue\n      dup1\n      iszero\n      tag_1\n      jumpi\n      0x00\n      dup1\n      revert\n    tag_1:\n      pop\n      jumpi(tag_2, lt(calldatasize, 0x04))\n      shr(0xe0, calldataload(0x00))\n      dup1\n      0x011afdd7\n      eq\n      tag_3\n      jumpi\n      dup1\n      0x19ff1d21\n      eq\n      tag_4\n      jumpi\n      dup1\n      0x2b7fac73\n      eq\n      tag_5\n      jumpi\n      dup1\n      0xeafb79e2\n      eq\n      tag_6\n      jumpi\n    tag_2:\n      0x00\n      dup1\n      revert\n        /* \"dao-project/keccak-demo.sol\":330:419  function hello2() public view returns(bytes32) {\r... */\n    tag_3:\n      tag_7\n      tag_8\n      jump\t// in\n    tag_7:\n      mload(0x40)\n      tag_9\n      swap2\n      swap1\n      tag_10\n      jump\t// in\n    tag_9:\n      mload(0x40)\n      dup1\n      swap2\n      sub\n      swap1\n      return\n        /* \"dao-project/keccak-demo.sol\":233:321  function hello() public view returns(bytes32) {\r... */\n    tag_4:\n      tag_11\n      tag_12\n      jump\t// in\n    tag_11:\n      mload(0x40)\n      tag_13\n      swap2\n      swap1\n      tag_10\n      jump\t// in\n    tag_13:\n      mload(0x40)\n      dup1\n      swap2\n      sub\n      swap1\n      return\n        /* \"dao-project/keccak-demo.sol\":156:224  bytes32 public immutable STAKEHOLDER_ROLE = keccak256(\"STAKEHOLDER\") */\n    tag_5:\n      tag_14\n      tag_15\n      jump\t// in\n    tag_14:\n      mload(0x40)\n      tag_16\n      swap2\n      swap1\n      tag_10\n      jump\t// in\n    tag_16:\n      mload(0x40)\n      dup1\n      swap2\n      sub\n      swap1\n      return\n        /* \"dao-project/keccak-demo.sol\":81:149  bytes32 public immutable CONTRIBUTOR_ROLE = keccak256(\"CONTRIBUTOR\") */\n    tag_6:\n      tag_17\n      tag_18\n      jump\t// in\n    tag_17:\n      mload(0x40)\n      tag_19\n      swap2\n      swap1\n      tag_10\n      jump\t// in\n    tag_19:\n      mload(0x40)\n      dup1\n      swap2\n      sub\n      swap1\n      return\n        /* \"dao-project/keccak-demo.sol\":330:419  function hello2() public view returns(bytes32) {\r... */\n    tag_8:\n        /* \"dao-project/keccak-demo.sol\":368:375  bytes32 */\n      0x00\n        /* \"dao-project/keccak-demo.sol\":395:411  STAKEHOLDER_ROLE */\n      immutable(\"0x7880aec93413f117ef14bd4e6d130875ab2c7d7d55a064fac3c2f7bd51516380\")\n        /* \"dao-project/keccak-demo.sol\":388:411  return STAKEHOLDER_ROLE */\n      swap1\n      pop\n        /* \"dao-project/keccak-demo.sol\":330:419  function hello2() public view returns(bytes32) {\r... */\n      swap1\n      jump\t// out\n        /* \"dao-project/keccak-demo.sol\":233:321  function hello() public view returns(bytes32) {\r... */\n    tag_12:\n        /* \"dao-project/keccak-demo.sol\":270:277  bytes32 */\n      0x00\n        /* \"dao-project/keccak-demo.sol\":297:313  CONTRIBUTOR_ROLE */\n      immutable(\"0xe455bf8ea6e7463a1046a0b52804526e119b4bf5136279614e0b1e8e296a4e2d\")\n        /* \"dao-project/keccak-demo.sol\":290:313  return CONTRIBUTOR_ROLE */\n      swap1\n      pop\n        /* \"dao-project/keccak-demo.sol\":233:321  function hello() public view returns(bytes32) {\r... */\n      swap1\n      jump\t// out\n        /* \"dao-project/keccak-demo.sol\":156:224  bytes32 public immutable STAKEHOLDER_ROLE = keccak256(\"STAKEHOLDER\") */\n    tag_15:\n      immutable(\"0x7880aec93413f117ef14bd4e6d130875ab2c7d7d55a064fac3c2f7bd51516380\")\n      dup2\n      jump\t// out\n        /* \"dao-project/keccak-demo.sol\":81:149  bytes32 public immutable CONTRIBUTOR_ROLE = keccak256(\"CONTRIBUTOR\") */\n    tag_18:\n      immutable(\"0xe455bf8ea6e7463a1046a0b52804526e119b4bf5136279614e0b1e8e296a4e2d\")\n      dup2\n      jump\t// out\n        /* \"#utility.yul\":7:125   */\n    tag_23:\n        /* \"#utility.yul\":94:118   */\n      tag_25\n        /* \"#utility.yul\":112:117   */\n      dup2\n        /* \"#utility.yul\":94:118   */\n      tag_26\n      jump\t// in\n    tag_25:\n        /* \"#utility.yul\":89:92   */\n      dup3\n        /* \"#utility.yul\":82:119   */\n      mstore\n        /* \"#utility.yul\":7:125   */\n      pop\n      pop\n      jump\t// out\n        /* \"#utility.yul\":131:353   */\n    tag_10:\n        /* \"#utility.yul\":224:228   */\n      0x00\n        /* \"#utility.yul\":262:264   */\n      0x20\n        /* \"#utility.yul\":251:260   */\n      dup3\n        /* \"#utility.yul\":247:265   */\n      add\n        /* \"#utility.yul\":239:265   */\n      swap1\n      pop\n        /* \"#utility.yul\":275:346   */\n      tag_28\n        /* \"#utility.yul\":343:344   */\n      0x00\n        /* \"#utility.yul\":332:341   */\n      dup4\n        /* \"#utility.yul\":328:345   */\n      add\n        /* \"#utility.yul\":319:325   */\n      dup5\n        /* \"#utility.yul\":275:346   */\n      tag_23\n      jump\t// in\n    tag_28:\n        /* \"#utility.yul\":131:353   */\n      swap3\n      swap2\n      pop\n      pop\n      jump\t// out\n        /* \"#utility.yul\":359:436   */\n    tag_26:\n        /* \"#utility.yul\":396:403   */\n      0x00\n        /* \"#utility.yul\":425:430   */\n      dup2\n        /* \"#utility.yul\":414:430   */\n      swap1\n      pop\n        /* \"#utility.yul\":359:436   */\n      swap2\n      swap1\n      pop\n      jump\t// out\n\n    auxdata: 0xa264697066735822122058c3796221d99a0044df5251b194c0456394791131163b7847fc2b5e3d2a5ea264736f6c63430008070033\n}\n",
				"bytecode": {
					"linkReferences": {},
					"object": "60c06040527fa0bb1af1c90aa52ed052b92714ff0087008cc720049bf1af77cca2600b31e80c6080908152507ff4bb84e1768dd286358a736d195a0b228621173f655a73b89bf8b191ed0ba07d60a09081525034801561005e57600080fd5b5060805160a0516101cb6100906000396000818160cd015261011b01526000818160f5015261013f01526101cb6000f3fe608060405234801561001057600080fd5b506004361061004c5760003560e01c8063011afdd71461005157806319ff1d211461006f5780632b7fac731461008d578063eafb79e2146100ab575b600080fd5b6100596100c9565b6040516100669190610170565b60405180910390f35b6100776100f1565b6040516100849190610170565b60405180910390f35b610095610119565b6040516100a29190610170565b60405180910390f35b6100b361013d565b6040516100c09190610170565b60405180910390f35b60007f0000000000000000000000000000000000000000000000000000000000000000905090565b60007f0000000000000000000000000000000000000000000000000000000000000000905090565b7f000000000000000000000000000000000000000000000000000000000000000081565b7f000000000000000000000000000000000000000000000000000000000000000081565b61016a8161018b565b82525050565b60006020820190506101856000830184610161565b92915050565b600081905091905056fea264697066735822122058c3796221d99a0044df5251b194c0456394791131163b7847fc2b5e3d2a5ea264736f6c63430008070033",
					"opcodes": "PUSH1 0xC0 PUSH1 0x40 MSTORE PUSH32 0xA0BB1AF1C90AA52ED052B92714FF0087008CC720049BF1AF77CCA2600B31E80C PUSH1 0x80 SWAP1 DUP2 MSTORE POP PUSH32 0xF4BB84E1768DD286358A736D195A0B228621173F655A73B89BF8B191ED0BA07D PUSH1 0xA0 SWAP1 DUP2 MSTORE POP CALLVALUE DUP1 ISZERO PUSH2 0x5E JUMPI PUSH1 0x0 DUP1 REVERT JUMPDEST POP PUSH1 0x80 MLOAD PUSH1 0xA0 MLOAD PUSH2 0x1CB PUSH2 0x90 PUSH1 0x0 CODECOPY PUSH1 0x0 DUP2 DUP2 PUSH1 0xCD ADD MSTORE PUSH2 0x11B ADD MSTORE PUSH1 0x0 DUP2 DUP2 PUSH1 0xF5 ADD MSTORE PUSH2 0x13F ADD MSTORE PUSH2 0x1CB PUSH1 0x0 RETURN INVALID PUSH1 0x80 PUSH1 0x40 MSTORE CALLVALUE DUP1 ISZERO PUSH2 0x10 JUMPI PUSH1 0x0 DUP1 REVERT JUMPDEST POP PUSH1 0x4 CALLDATASIZE LT PUSH2 0x4C JUMPI PUSH1 0x0 CALLDATALOAD PUSH1 0xE0 SHR DUP1 PUSH4 0x11AFDD7 EQ PUSH2 0x51 JUMPI DUP1 PUSH4 0x19FF1D21 EQ PUSH2 0x6F JUMPI DUP1 PUSH4 0x2B7FAC73 EQ PUSH2 0x8D JUMPI DUP1 PUSH4 0xEAFB79E2 EQ PUSH2 0xAB JUMPI JUMPDEST PUSH1 0x0 DUP1 REVERT JUMPDEST PUSH2 0x59 PUSH2 0xC9 JUMP JUMPDEST PUSH1 0x40 MLOAD PUSH2 0x66 SWAP2 SWAP1 PUSH2 0x170 JUMP JUMPDEST PUSH1 0x40 MLOAD DUP1 SWAP2 SUB SWAP1 RETURN JUMPDEST PUSH2 0x77 PUSH2 0xF1 JUMP JUMPDEST PUSH1 0x40 MLOAD PUSH2 0x84 SWAP2 SWAP1 PUSH2 0x170 JUMP JUMPDEST PUSH1 0x40 MLOAD DUP1 SWAP2 SUB SWAP1 RETURN JUMPDEST PUSH2 0x95 PUSH2 0x119 JUMP JUMPDEST PUSH1 0x40 MLOAD PUSH2 0xA2 SWAP2 SWAP1 PUSH2 0x170 JUMP JUMPDEST PUSH1 0x40 MLOAD DUP1 SWAP2 SUB SWAP1 RETURN JUMPDEST PUSH2 0xB3 PUSH2 0x13D JUMP JUMPDEST PUSH1 0x40 MLOAD PUSH2 0xC0 SWAP2 SWAP1 PUSH2 0x170 JUMP JUMPDEST PUSH1 0x40 MLOAD DUP1 SWAP2 SUB SWAP1 RETURN JUMPDEST PUSH1 0x0 PUSH32 0x0 SWAP1 POP SWAP1 JUMP JUMPDEST PUSH1 0x0 PUSH32 0x0 SWAP1 POP SWAP1 JUMP JUMPDEST PUSH32 0x0 DUP2 JUMP JUMPDEST PUSH32 0x0 DUP2 JUMP JUMPDEST PUSH2 0x16A DUP2 PUSH2 0x18B JUMP JUMPDEST DUP3 MSTORE POP POP JUMP JUMPDEST PUSH1 0x0 PUSH1 0x20 DUP3 ADD SWAP1 POP PUSH2 0x185 PUSH1 0x0 DUP4 ADD DUP5 PUSH2 0x161 JUMP JUMPDEST SWAP3 SWAP2 POP POP JUMP JUMPDEST PUSH1 0x0 DUP2 SWAP1 POP SWAP2 SWAP1 POP JUMP INVALID LOG2 PUSH5 0x6970667358 0x22 SLT KECCAK256 PC 0xC3 PUSH26 0x6221D99A0044DF5251B194C0456394791131163B7847FC2B5E3D 0x2A 0x5E LOG2 PUSH5 0x736F6C6343 STOP ADDMOD SMOD STOP CALLER "
				},
				"gasEstimates": {
					"creation": {
						"codeDepositCost": "91800",
						"executionCost": "infinite",
						"totalCost": "infinite"
					},
					"external": {
						"CONTRIBUTOR_ROLE()": "infinite",
						"STAKEHOLDER_ROLE()": "infinite",
						"hello()": "infinite",
						"hello2()": "infinite"
					}
				},
				"methodIdentifiers": {
					"CONTRIBUTOR_ROLE()": "eafb79e2",
					"STAKEHOLDER_ROLE()": "2b7fac73",
					"hello()": "19ff1d21",
					"hello2()": "011afdd7"
				}
			},
			"storageLayout": {
				"storage": [],
				"types": null
			},
			"userdoc": {
				"kind": "user",
				"methods": {},
				"version": 1
			}
		}
	}
}