{
	"praticals/2-2-Arithmetic.sol": {
		"SolidityTest": {
			"abi": [
				{
					"inputs": [],
					"name": "dec",
					"outputs": [
						{
							"internalType": "uint256",
							"name": "",
							"type": "uint256"
						}
					],
					"stateMutability": "view",
					"type": "function"
				},
				{
					"inputs": [],
					"name": "diff",
					"outputs": [
						{
							"internalType": "uint256",
							"name": "",
							"type": "uint256"
						}
					],
					"stateMutability": "view",
					"type": "function"
				},
				{
					"inputs": [],
					"name": "div",
					"outputs": [
						{
							"internalType": "uint256",
							"name": "",
							"type": "uint256"
						}
					],
					"stateMutability": "view",
					"type": "function"
				},
				{
					"inputs": [],
					"name": "inc",
					"outputs": [
						{
							"internalType": "uint256",
							"name": "",
							"type": "uint256"
						}
					],
					"stateMutability": "view",
					"type": "function"
				},
				{
					"inputs": [],
					"name": "mod",
					"outputs": [
						{
							"internalType": "uint256",
							"name": "",
							"type": "uint256"
						}
					],
					"stateMutability": "view",
					"type": "function"
				},
				{
					"inputs": [],
					"name": "mul",
					"outputs": [
						{
							"internalType": "uint256",
							"name": "",
							"type": "uint256"
						}
					],
					"stateMutability": "view",
					"type": "function"
				},
				{
					"inputs": [],
					"name": "sum",
					"outputs": [
						{
							"internalType": "uint256",
							"name": "",
							"type": "uint256"
						}
					],
					"stateMutability": "view",
					"type": "function"
				}
			],
			"devdoc": {
				"kind": "dev",
				"methods": {},
				"version": 1
			},
			"evm": {
				"assembly": "    /* \"praticals/2-2-Arithmetic.sol\":61:724  contract SolidityTest {... */\n  mstore(0x40, 0x80)\n    /* \"praticals/2-2-Arithmetic.sol\":133:135  20 */\n  0x14\n    /* \"praticals/2-2-Arithmetic.sol\":124:135  uint a = 20 */\n  0x00\n  sstore\n    /* \"praticals/2-2-Arithmetic.sol\":151:153  10 */\n  0x0a\n    /* \"praticals/2-2-Arithmetic.sol\":142:153  uint b = 10 */\n  0x01\n  sstore\n    /* \"praticals/2-2-Arithmetic.sol\":226:227  b */\n  sload(0x01)\n    /* \"praticals/2-2-Arithmetic.sol\":222:223  a */\n  sload(0x00)\n    /* \"praticals/2-2-Arithmetic.sol\":222:227  a + b */\n  tag_1\n  swap2\n  swap1\n  tag_2\n  jump\t// in\ntag_1:\n    /* \"praticals/2-2-Arithmetic.sol\":204:227  uint public sum = a + b */\n  0x02\n  sstore\n    /* \"praticals/2-2-Arithmetic.sol\":312:313  b */\n  sload(0x01)\n    /* \"praticals/2-2-Arithmetic.sol\":308:309  a */\n  sload(0x00)\n    /* \"praticals/2-2-Arithmetic.sol\":308:313  a - b */\n  tag_3\n  swap2\n  swap1\n  tag_4\n  jump\t// in\ntag_3:\n    /* \"praticals/2-2-Arithmetic.sol\":289:313  uint public diff = a - b */\n  0x03\n  sstore\n    /* \"praticals/2-2-Arithmetic.sol\":390:391  b */\n  sload(0x01)\n    /* \"praticals/2-2-Arithmetic.sol\":386:387  a */\n  sload(0x00)\n    /* \"praticals/2-2-Arithmetic.sol\":386:391  a * b */\n  tag_5\n  swap2\n  swap1\n  tag_6\n  jump\t// in\ntag_5:\n    /* \"praticals/2-2-Arithmetic.sol\":368:391  uint public mul = a * b */\n  0x04\n  sstore\n    /* \"praticals/2-2-Arithmetic.sol\":469:470  b */\n  sload(0x01)\n    /* \"praticals/2-2-Arithmetic.sol\":465:466  a */\n  sload(0x00)\n    /* \"praticals/2-2-Arithmetic.sol\":465:470  a / b */\n  tag_7\n  swap2\n  swap1\n  tag_8\n  jump\t// in\ntag_7:\n    /* \"praticals/2-2-Arithmetic.sol\":447:470  uint public div = a / b */\n  0x05\n  sstore\n    /* \"praticals/2-2-Arithmetic.sol\":547:548  b */\n  sload(0x01)\n    /* \"praticals/2-2-Arithmetic.sol\":543:544  a */\n  sload(0x00)\n    /* \"praticals/2-2-Arithmetic.sol\":543:548  a % b */\n  tag_9\n  swap2\n  swap1\n  tag_10\n  jump\t// in\ntag_9:\n    /* \"praticals/2-2-Arithmetic.sol\":525:548  uint public mod = a % b */\n  0x06\n  sstore\n    /* \"praticals/2-2-Arithmetic.sol\":631:632  b */\n  0x01\n  0x00\n    /* \"praticals/2-2-Arithmetic.sol\":629:632  --b */\n  dup2\n  sload\n  tag_11\n  swap1\n  tag_12\n  jump\t// in\ntag_11:\n  swap2\n  swap1\n  pop\n  dup2\n  swap1\n  sstore\n    /* \"praticals/2-2-Arithmetic.sol\":611:632  uint public dec = --b */\n  0x07\n  sstore\n    /* \"praticals/2-2-Arithmetic.sol\":719:720  a */\n  0x00\n  dup1\n    /* \"praticals/2-2-Arithmetic.sol\":717:720  ++a */\n  dup2\n  sload\n  tag_13\n  swap1\n  tag_14\n  jump\t// in\ntag_13:\n  swap2\n  swap1\n  pop\n  dup2\n  swap1\n  sstore\n    /* \"praticals/2-2-Arithmetic.sol\":699:720  uint public inc = ++a */\n  0x08\n  sstore\n    /* \"praticals/2-2-Arithmetic.sol\":61:724  contract SolidityTest {... */\n  callvalue\n  dup1\n  iszero\n  tag_15\n  jumpi\n  0x00\n  dup1\n  revert\ntag_15:\n  pop\n  jump(tag_16)\n    /* \"#utility.yul\":7:84   */\ntag_17:\n    /* \"#utility.yul\":44:51   */\n  0x00\n    /* \"#utility.yul\":73:78   */\n  dup2\n    /* \"#utility.yul\":62:78   */\n  swap1\n  pop\n    /* \"#utility.yul\":7:84   */\n  swap2\n  swap1\n  pop\n  jump\t// out\n    /* \"#utility.yul\":90:270   */\ntag_18:\n    /* \"#utility.yul\":138:215   */\n  0x4e487b7100000000000000000000000000000000000000000000000000000000\n    /* \"#utility.yul\":135:136   */\n  0x00\n    /* \"#utility.yul\":128:216   */\n  mstore\n    /* \"#utility.yul\":235:239   */\n  0x11\n    /* \"#utility.yul\":232:233   */\n  0x04\n    /* \"#utility.yul\":225:240   */\n  mstore\n    /* \"#utility.yul\":259:263   */\n  0x24\n    /* \"#utility.yul\":256:257   */\n  0x00\n    /* \"#utility.yul\":249:264   */\n  revert\n    /* \"#utility.yul\":276:467   */\ntag_2:\n    /* \"#utility.yul\":316:319   */\n  0x00\n    /* \"#utility.yul\":335:355   */\n  tag_24\n    /* \"#utility.yul\":353:354   */\n  dup3\n    /* \"#utility.yul\":335:355   */\n  tag_17\n  jump\t// in\ntag_24:\n    /* \"#utility.yul\":330:355   */\n  swap2\n  pop\n    /* \"#utility.yul\":369:389   */\n  tag_25\n    /* \"#utility.yul\":387:388   */\n  dup4\n    /* \"#utility.yul\":369:389   */\n  tag_17\n  jump\t// in\ntag_25:\n    /* \"#utility.yul\":364:389   */\n  swap3\n  pop\n    /* \"#utility.yul\":412:413   */\n  dup3\n    /* \"#utility.yul\":409:410   */\n  dup3\n    /* \"#utility.yul\":405:414   */\n  add\n    /* \"#utility.yul\":398:414   */\n  swap1\n  pop\n    /* \"#utility.yul\":433:436   */\n  dup1\n    /* \"#utility.yul\":430:431   */\n  dup3\n    /* \"#utility.yul\":427:437   */\n  gt\n    /* \"#utility.yul\":424:460   */\n  iszero\n  tag_26\n  jumpi\n    /* \"#utility.yul\":440:458   */\n  tag_27\n  tag_18\n  jump\t// in\ntag_27:\n    /* \"#utility.yul\":424:460   */\ntag_26:\n    /* \"#utility.yul\":276:467   */\n  swap3\n  swap2\n  pop\n  pop\n  jump\t// out\n    /* \"#utility.yul\":473:667   */\ntag_4:\n    /* \"#utility.yul\":513:517   */\n  0x00\n    /* \"#utility.yul\":533:553   */\n  tag_29\n    /* \"#utility.yul\":551:552   */\n  dup3\n    /* \"#utility.yul\":533:553   */\n  tag_17\n  jump\t// in\ntag_29:\n    /* \"#utility.yul\":528:553   */\n  swap2\n  pop\n    /* \"#utility.yul\":567:587   */\n  tag_30\n    /* \"#utility.yul\":585:586   */\n  dup4\n    /* \"#utility.yul\":567:587   */\n  tag_17\n  jump\t// in\ntag_30:\n    /* \"#utility.yul\":562:587   */\n  swap3\n  pop\n    /* \"#utility.yul\":611:612   */\n  dup3\n    /* \"#utility.yul\":608:609   */\n  dup3\n    /* \"#utility.yul\":604:613   */\n  sub\n    /* \"#utility.yul\":596:613   */\n  swap1\n  pop\n    /* \"#utility.yul\":635:636   */\n  dup2\n    /* \"#utility.yul\":629:633   */\n  dup2\n    /* \"#utility.yul\":626:637   */\n  gt\n    /* \"#utility.yul\":623:660   */\n  iszero\n  tag_31\n  jumpi\n    /* \"#utility.yul\":640:658   */\n  tag_32\n  tag_18\n  jump\t// in\ntag_32:\n    /* \"#utility.yul\":623:660   */\ntag_31:\n    /* \"#utility.yul\":473:667   */\n  swap3\n  swap2\n  pop\n  pop\n  jump\t// out\n    /* \"#utility.yul\":673:1083   */\ntag_6:\n    /* \"#utility.yul\":713:720   */\n  0x00\n    /* \"#utility.yul\":736:756   */\n  tag_34\n    /* \"#utility.yul\":754:755   */\n  dup3\n    /* \"#utility.yul\":736:756   */\n  tag_17\n  jump\t// in\ntag_34:\n    /* \"#utility.yul\":731:756   */\n  swap2\n  pop\n    /* \"#utility.yul\":770:790   */\n  tag_35\n    /* \"#utility.yul\":788:789   */\n  dup4\n    /* \"#utility.yul\":770:790   */\n  tag_17\n  jump\t// in\ntag_35:\n    /* \"#utility.yul\":765:790   */\n  swap3\n  pop\n    /* \"#utility.yul\":825:826   */\n  dup3\n    /* \"#utility.yul\":822:823   */\n  dup3\n    /* \"#utility.yul\":818:827   */\n  mul\n    /* \"#utility.yul\":847:877   */\n  tag_36\n    /* \"#utility.yul\":865:876   */\n  dup2\n    /* \"#utility.yul\":847:877   */\n  tag_17\n  jump\t// in\ntag_36:\n    /* \"#utility.yul\":836:877   */\n  swap2\n  pop\n    /* \"#utility.yul\":1026:1027   */\n  dup3\n    /* \"#utility.yul\":1017:1024   */\n  dup3\n    /* \"#utility.yul\":1013:1028   */\n  div\n    /* \"#utility.yul\":1010:1011   */\n  dup5\n    /* \"#utility.yul\":1007:1029   */\n  eq\n    /* \"#utility.yul\":987:988   */\n  dup4\n    /* \"#utility.yul\":980:989   */\n  iszero\n    /* \"#utility.yul\":960:1043   */\n  or\n    /* \"#utility.yul\":937:1076   */\n  tag_37\n  jumpi\n    /* \"#utility.yul\":1056:1074   */\n  tag_38\n  tag_18\n  jump\t// in\ntag_38:\n    /* \"#utility.yul\":937:1076   */\ntag_37:\n    /* \"#utility.yul\":721:1083   */\n  pop\n    /* \"#utility.yul\":673:1083   */\n  swap3\n  swap2\n  pop\n  pop\n  jump\t// out\n    /* \"#utility.yul\":1089:1269   */\ntag_19:\n    /* \"#utility.yul\":1137:1214   */\n  0x4e487b7100000000000000000000000000000000000000000000000000000000\n    /* \"#utility.yul\":1134:1135   */\n  0x00\n    /* \"#utility.yul\":1127:1215   */\n  mstore\n    /* \"#utility.yul\":1234:1238   */\n  0x12\n    /* \"#utility.yul\":1231:1232   */\n  0x04\n    /* \"#utility.yul\":1224:1239   */\n  mstore\n    /* \"#utility.yul\":1258:1262   */\n  0x24\n    /* \"#utility.yul\":1255:1256   */\n  0x00\n    /* \"#utility.yul\":1248:1263   */\n  revert\n    /* \"#utility.yul\":1275:1460   */\ntag_8:\n    /* \"#utility.yul\":1315:1316   */\n  0x00\n    /* \"#utility.yul\":1332:1352   */\n  tag_41\n    /* \"#utility.yul\":1350:1351   */\n  dup3\n    /* \"#utility.yul\":1332:1352   */\n  tag_17\n  jump\t// in\ntag_41:\n    /* \"#utility.yul\":1327:1352   */\n  swap2\n  pop\n    /* \"#utility.yul\":1366:1386   */\n  tag_42\n    /* \"#utility.yul\":1384:1385   */\n  dup4\n    /* \"#utility.yul\":1366:1386   */\n  tag_17\n  jump\t// in\ntag_42:\n    /* \"#utility.yul\":1361:1386   */\n  swap3\n  pop\n    /* \"#utility.yul\":1405:1406   */\n  dup3\n    /* \"#utility.yul\":1395:1430   */\n  tag_43\n  jumpi\n    /* \"#utility.yul\":1410:1428   */\n  tag_44\n  tag_19\n  jump\t// in\ntag_44:\n    /* \"#utility.yul\":1395:1430   */\ntag_43:\n    /* \"#utility.yul\":1452:1453   */\n  dup3\n    /* \"#utility.yul\":1449:1450   */\n  dup3\n    /* \"#utility.yul\":1445:1454   */\n  div\n    /* \"#utility.yul\":1440:1454   */\n  swap1\n  pop\n    /* \"#utility.yul\":1275:1460   */\n  swap3\n  swap2\n  pop\n  pop\n  jump\t// out\n    /* \"#utility.yul\":1466:1642   */\ntag_10:\n    /* \"#utility.yul\":1498:1499   */\n  0x00\n    /* \"#utility.yul\":1515:1535   */\n  tag_46\n    /* \"#utility.yul\":1533:1534   */\n  dup3\n    /* \"#utility.yul\":1515:1535   */\n  tag_17\n  jump\t// in\ntag_46:\n    /* \"#utility.yul\":1510:1535   */\n  swap2\n  pop\n    /* \"#utility.yul\":1549:1569   */\n  tag_47\n    /* \"#utility.yul\":1567:1568   */\n  dup4\n    /* \"#utility.yul\":1549:1569   */\n  tag_17\n  jump\t// in\ntag_47:\n    /* \"#utility.yul\":1544:1569   */\n  swap3\n  pop\n    /* \"#utility.yul\":1588:1589   */\n  dup3\n    /* \"#utility.yul\":1578:1613   */\n  tag_48\n  jumpi\n    /* \"#utility.yul\":1593:1611   */\n  tag_49\n  tag_19\n  jump\t// in\ntag_49:\n    /* \"#utility.yul\":1578:1613   */\ntag_48:\n    /* \"#utility.yul\":1634:1635   */\n  dup3\n    /* \"#utility.yul\":1631:1632   */\n  dup3\n    /* \"#utility.yul\":1627:1636   */\n  mod\n    /* \"#utility.yul\":1622:1636   */\n  swap1\n  pop\n    /* \"#utility.yul\":1466:1642   */\n  swap3\n  swap2\n  pop\n  pop\n  jump\t// out\n    /* \"#utility.yul\":1648:1819   */\ntag_12:\n    /* \"#utility.yul\":1687:1690   */\n  0x00\n    /* \"#utility.yul\":1710:1734   */\n  tag_51\n    /* \"#utility.yul\":1728:1733   */\n  dup3\n    /* \"#utility.yul\":1710:1734   */\n  tag_17\n  jump\t// in\ntag_51:\n    /* \"#utility.yul\":1701:1734   */\n  swap2\n  pop\n    /* \"#utility.yul\":1756:1760   */\n  0x00\n    /* \"#utility.yul\":1749:1754   */\n  dup3\n    /* \"#utility.yul\":1746:1761   */\n  sub\n    /* \"#utility.yul\":1743:1784   */\n  tag_52\n  jumpi\n    /* \"#utility.yul\":1764:1782   */\n  tag_53\n  tag_18\n  jump\t// in\ntag_53:\n    /* \"#utility.yul\":1743:1784   */\ntag_52:\n    /* \"#utility.yul\":1811:1812   */\n  0x01\n    /* \"#utility.yul\":1804:1809   */\n  dup3\n    /* \"#utility.yul\":1800:1813   */\n  sub\n    /* \"#utility.yul\":1793:1813   */\n  swap1\n  pop\n    /* \"#utility.yul\":1648:1819   */\n  swap2\n  swap1\n  pop\n  jump\t// out\n    /* \"#utility.yul\":1825:2058   */\ntag_14:\n    /* \"#utility.yul\":1864:1867   */\n  0x00\n    /* \"#utility.yul\":1887:1911   */\n  tag_55\n    /* \"#utility.yul\":1905:1910   */\n  dup3\n    /* \"#utility.yul\":1887:1911   */\n  tag_17\n  jump\t// in\ntag_55:\n    /* \"#utility.yul\":1878:1911   */\n  swap2\n  pop\n    /* \"#utility.yul\":1933:1999   */\n  0xffffffffffffffffffffffffffffffffffffffffffffffffffffffffffffffff\n    /* \"#utility.yul\":1926:1931   */\n  dup3\n    /* \"#utility.yul\":1923:2000   */\n  sub\n    /* \"#utility.yul\":1920:2023   */\n  tag_56\n  jumpi\n    /* \"#utility.yul\":2003:2021   */\n  tag_57\n  tag_18\n  jump\t// in\ntag_57:\n    /* \"#utility.yul\":1920:2023   */\ntag_56:\n    /* \"#utility.yul\":2050:2051   */\n  0x01\n    /* \"#utility.yul\":2043:2048   */\n  dup3\n    /* \"#utility.yul\":2039:2052   */\n  add\n    /* \"#utility.yul\":2032:2052   */\n  swap1\n  pop\n    /* \"#utility.yul\":1825:2058   */\n  swap2\n  swap1\n  pop\n  jump\t// out\n    /* \"praticals/2-2-Arithmetic.sol\":61:724  contract SolidityTest {... */\ntag_16:\n  dataSize(sub_0)\n  dup1\n  dataOffset(sub_0)\n  0x00\n  codecopy\n  0x00\n  return\nstop\n\nsub_0: assembly {\n        /* \"praticals/2-2-Arithmetic.sol\":61:724  contract SolidityTest {... */\n      mstore(0x40, 0x80)\n      callvalue\n      dup1\n      iszero\n      tag_1\n      jumpi\n      0x00\n      dup1\n      revert\n    tag_1:\n      pop\n      jumpi(tag_2, lt(calldatasize, 0x04))\n      shr(0xe0, calldataload(0x00))\n      dup1\n      0x853255cc\n      gt\n      tag_10\n      jumpi\n      dup1\n      0x853255cc\n      eq\n      tag_6\n      jumpi\n      dup1\n      0xa0d7afb7\n      eq\n      tag_7\n      jumpi\n      dup1\n      0xb3bcfa82\n      eq\n      tag_8\n      jumpi\n      dup1\n      0xf9fa48c3\n      eq\n      tag_9\n      jumpi\n      jump(tag_2)\n    tag_10:\n      dup1\n      0x2986e054\n      eq\n      tag_3\n      jumpi\n      dup1\n      0x371303c0\n      eq\n      tag_4\n      jumpi\n      dup1\n      0x58931c46\n      eq\n      tag_5\n      jumpi\n    tag_2:\n      0x00\n      dup1\n      revert\n        /* \"praticals/2-2-Arithmetic.sol\":525:548  uint public mod = a % b */\n    tag_3:\n      tag_11\n      tag_12\n      jump\t// in\n    tag_11:\n      mload(0x40)\n      tag_13\n      swap2\n      swap1\n      tag_14\n      jump\t// in\n    tag_13:\n      mload(0x40)\n      dup1\n      swap2\n      sub\n      swap1\n      return\n        /* \"praticals/2-2-Arithmetic.sol\":699:720  uint public inc = ++a */\n    tag_4:\n      tag_15\n      tag_16\n      jump\t// in\n    tag_15:\n      mload(0x40)\n      tag_17\n      swap2\n      swap1\n      tag_14\n      jump\t// in\n    tag_17:\n      mload(0x40)\n      dup1\n      swap2\n      sub\n      swap1\n      return\n        /* \"praticals/2-2-Arithmetic.sol\":368:391  uint public mul = a * b */\n    tag_5:\n      tag_18\n      tag_19\n      jump\t// in\n    tag_18:\n      mload(0x40)\n      tag_20\n      swap2\n      swap1\n      tag_14\n      jump\t// in\n    tag_20:\n      mload(0x40)\n      dup1\n      swap2\n      sub\n      swap1\n      return\n        /* \"praticals/2-2-Arithmetic.sol\":204:227  uint public sum = a + b */\n    tag_6:\n      tag_21\n      tag_22\n      jump\t// in\n    tag_21:\n      mload(0x40)\n      tag_23\n      swap2\n      swap1\n      tag_14\n      jump\t// in\n    tag_23:\n      mload(0x40)\n      dup1\n      swap2\n      sub\n      swap1\n      return\n        /* \"praticals/2-2-Arithmetic.sol\":289:313  uint public diff = a - b */\n    tag_7:\n      tag_24\n      tag_25\n      jump\t// in\n    tag_24:\n      mload(0x40)\n      tag_26\n      swap2\n      swap1\n      tag_14\n      jump\t// in\n    tag_26:\n      mload(0x40)\n      dup1\n      swap2\n      sub\n      swap1\n      return\n        /* \"praticals/2-2-Arithmetic.sol\":611:632  uint public dec = --b */\n    tag_8:\n      tag_27\n      tag_28\n      jump\t// in\n    tag_27:\n      mload(0x40)\n      tag_29\n      swap2\n      swap1\n      tag_14\n      jump\t// in\n    tag_29:\n      mload(0x40)\n      dup1\n      swap2\n      sub\n      swap1\n      return\n        /* \"praticals/2-2-Arithmetic.sol\":447:470  uint public div = a / b */\n    tag_9:\n      tag_30\n      tag_31\n      jump\t// in\n    tag_30:\n      mload(0x40)\n      tag_32\n      swap2\n      swap1\n      tag_14\n      jump\t// in\n    tag_32:\n      mload(0x40)\n      dup1\n      swap2\n      sub\n      swap1\n      return\n        /* \"praticals/2-2-Arithmetic.sol\":525:548  uint public mod = a % b */\n    tag_12:\n      sload(0x06)\n      dup2\n      jump\t// out\n        /* \"praticals/2-2-Arithmetic.sol\":699:720  uint public inc = ++a */\n    tag_16:\n      sload(0x08)\n      dup2\n      jump\t// out\n        /* \"praticals/2-2-Arithmetic.sol\":368:391  uint public mul = a * b */\n    tag_19:\n      sload(0x04)\n      dup2\n      jump\t// out\n        /* \"praticals/2-2-Arithmetic.sol\":204:227  uint public sum = a + b */\n    tag_22:\n      sload(0x02)\n      dup2\n      jump\t// out\n        /* \"praticals/2-2-Arithmetic.sol\":289:313  uint public diff = a - b */\n    tag_25:\n      sload(0x03)\n      dup2\n      jump\t// out\n        /* \"praticals/2-2-Arithmetic.sol\":611:632  uint public dec = --b */\n    tag_28:\n      sload(0x07)\n      dup2\n      jump\t// out\n        /* \"praticals/2-2-Arithmetic.sol\":447:470  uint public div = a / b */\n    tag_31:\n      sload(0x05)\n      dup2\n      jump\t// out\n        /* \"#utility.yul\":7:84   */\n    tag_33:\n        /* \"#utility.yul\":44:51   */\n      0x00\n        /* \"#utility.yul\":73:78   */\n      dup2\n        /* \"#utility.yul\":62:78   */\n      swap1\n      pop\n        /* \"#utility.yul\":7:84   */\n      swap2\n      swap1\n      pop\n      jump\t// out\n        /* \"#utility.yul\":90:208   */\n    tag_34:\n        /* \"#utility.yul\":177:201   */\n      tag_38\n        /* \"#utility.yul\":195:200   */\n      dup2\n        /* \"#utility.yul\":177:201   */\n      tag_33\n      jump\t// in\n    tag_38:\n        /* \"#utility.yul\":172:175   */\n      dup3\n        /* \"#utility.yul\":165:202   */\n      mstore\n        /* \"#utility.yul\":90:208   */\n      pop\n      pop\n      jump\t// out\n        /* \"#utility.yul\":214:436   */\n    tag_14:\n        /* \"#utility.yul\":307:311   */\n      0x00\n        /* \"#utility.yul\":345:347   */\n      0x20\n        /* \"#utility.yul\":334:343   */\n      dup3\n        /* \"#utility.yul\":330:348   */\n      add\n        /* \"#utility.yul\":322:348   */\n      swap1\n      pop\n        /* \"#utility.yul\":358:429   */\n      tag_40\n        /* \"#utility.yul\":426:427   */\n      0x00\n        /* \"#utility.yul\":415:424   */\n      dup4\n        /* \"#utility.yul\":411:428   */\n      add\n        /* \"#utility.yul\":402:408   */\n      dup5\n        /* \"#utility.yul\":358:429   */\n      tag_34\n      jump\t// in\n    tag_40:\n        /* \"#utility.yul\":214:436   */\n      swap3\n      swap2\n      pop\n      pop\n      jump\t// out\n\n    auxdata: 0xa26469706673582212204e3f61d8265df56d21b18fd55985d827b4fcc76355f0b3475686b6a5be0d04fa64736f6c63430008120033\n}\n",
				"bytecode": {
					"linkReferences": {},
					"object": "60806040526014600055600a60015560015460005461001e91906100e7565b600255600154600054610031919061011b565b600355600154600054610044919061014f565b60045560015460005461005791906101c0565b60055560015460005461006a91906101f1565b60065560016000815461007c90610222565b91905081905560075560008081546100939061024b565b9190508190556008553480156100a857600080fd5b50610293565b6000819050919050565b7f4e487b7100000000000000000000000000000000000000000000000000000000600052601160045260246000fd5b60006100f2826100ae565b91506100fd836100ae565b9250828201905080821115610115576101146100b8565b5b92915050565b6000610126826100ae565b9150610131836100ae565b9250828203905081811115610149576101486100b8565b5b92915050565b600061015a826100ae565b9150610165836100ae565b9250828202610173816100ae565b9150828204841483151761018a576101896100b8565b5b5092915050565b7f4e487b7100000000000000000000000000000000000000000000000000000000600052601260045260246000fd5b60006101cb826100ae565b91506101d6836100ae565b9250826101e6576101e5610191565b5b828204905092915050565b60006101fc826100ae565b9150610207836100ae565b92508261021757610216610191565b5b828206905092915050565b600061022d826100ae565b9150600082036102405761023f6100b8565b5b600182039050919050565b6000610256826100ae565b91507fffffffffffffffffffffffffffffffffffffffffffffffffffffffffffffffff8203610288576102876100b8565b5b600182019050919050565b6101e8806102a26000396000f3fe608060405234801561001057600080fd5b506004361061007d5760003560e01c8063853255cc1161005b578063853255cc146100dc578063a0d7afb7146100fa578063b3bcfa8214610118578063f9fa48c3146101365761007d565b80632986e05414610082578063371303c0146100a057806358931c46146100be575b600080fd5b61008a610154565b6040516100979190610197565b60405180910390f35b6100a861015a565b6040516100b59190610197565b60405180910390f35b6100c6610160565b6040516100d39190610197565b60405180910390f35b6100e4610166565b6040516100f19190610197565b60405180910390f35b61010261016c565b60405161010f9190610197565b60405180910390f35b610120610172565b60405161012d9190610197565b60405180910390f35b61013e610178565b60405161014b9190610197565b60405180910390f35b60065481565b60085481565b60045481565b60025481565b60035481565b60075481565b60055481565b6000819050919050565b6101918161017e565b82525050565b60006020820190506101ac6000830184610188565b9291505056fea26469706673582212204e3f61d8265df56d21b18fd55985d827b4fcc76355f0b3475686b6a5be0d04fa64736f6c63430008120033",
					"opcodes": "PUSH1 0x80 PUSH1 0x40 MSTORE PUSH1 0x14 PUSH1 0x0 SSTORE PUSH1 0xA PUSH1 0x1 SSTORE PUSH1 0x1 SLOAD PUSH1 0x0 SLOAD PUSH2 0x1E SWAP2 SWAP1 PUSH2 0xE7 JUMP JUMPDEST PUSH1 0x2 SSTORE PUSH1 0x1 SLOAD PUSH1 0x0 SLOAD PUSH2 0x31 SWAP2 SWAP1 PUSH2 0x11B JUMP JUMPDEST PUSH1 0x3 SSTORE PUSH1 0x1 SLOAD PUSH1 0x0 SLOAD PUSH2 0x44 SWAP2 SWAP1 PUSH2 0x14F JUMP JUMPDEST PUSH1 0x4 SSTORE PUSH1 0x1 SLOAD PUSH1 0x0 SLOAD PUSH2 0x57 SWAP2 SWAP1 PUSH2 0x1C0 JUMP JUMPDEST PUSH1 0x5 SSTORE PUSH1 0x1 SLOAD PUSH1 0x0 SLOAD PUSH2 0x6A SWAP2 SWAP1 PUSH2 0x1F1 JUMP JUMPDEST PUSH1 0x6 SSTORE PUSH1 0x1 PUSH1 0x0 DUP2 SLOAD PUSH2 0x7C SWAP1 PUSH2 0x222 JUMP JUMPDEST SWAP2 SWAP1 POP DUP2 SWAP1 SSTORE PUSH1 0x7 SSTORE PUSH1 0x0 DUP1 DUP2 SLOAD PUSH2 0x93 SWAP1 PUSH2 0x24B JUMP JUMPDEST SWAP2 SWAP1 POP DUP2 SWAP1 SSTORE PUSH1 0x8 SSTORE CALLVALUE DUP1 ISZERO PUSH2 0xA8 JUMPI PUSH1 0x0 DUP1 REVERT JUMPDEST POP PUSH2 0x293 JUMP JUMPDEST PUSH1 0x0 DUP2 SWAP1 POP SWAP2 SWAP1 POP JUMP JUMPDEST PUSH32 0x4E487B7100000000000000000000000000000000000000000000000000000000 PUSH1 0x0 MSTORE PUSH1 0x11 PUSH1 0x4 MSTORE PUSH1 0x24 PUSH1 0x0 REVERT JUMPDEST PUSH1 0x0 PUSH2 0xF2 DUP3 PUSH2 0xAE JUMP JUMPDEST SWAP2 POP PUSH2 0xFD DUP4 PUSH2 0xAE JUMP JUMPDEST SWAP3 POP DUP3 DUP3 ADD SWAP1 POP DUP1 DUP3 GT ISZERO PUSH2 0x115 JUMPI PUSH2 0x114 PUSH2 0xB8 JUMP JUMPDEST JUMPDEST SWAP3 SWAP2 POP POP JUMP JUMPDEST PUSH1 0x0 PUSH2 0x126 DUP3 PUSH2 0xAE JUMP JUMPDEST SWAP2 POP PUSH2 0x131 DUP4 PUSH2 0xAE JUMP JUMPDEST SWAP3 POP DUP3 DUP3 SUB SWAP1 POP DUP2 DUP2 GT ISZERO PUSH2 0x149 JUMPI PUSH2 0x148 PUSH2 0xB8 JUMP JUMPDEST JUMPDEST SWAP3 SWAP2 POP POP JUMP JUMPDEST PUSH1 0x0 PUSH2 0x15A DUP3 PUSH2 0xAE JUMP JUMPDEST SWAP2 POP PUSH2 0x165 DUP4 PUSH2 0xAE JUMP JUMPDEST SWAP3 POP DUP3 DUP3 MUL PUSH2 0x173 DUP2 PUSH2 0xAE JUMP JUMPDEST SWAP2 POP DUP3 DUP3 DIV DUP5 EQ DUP4 ISZERO OR PUSH2 0x18A JUMPI PUSH2 0x189 PUSH2 0xB8 JUMP JUMPDEST JUMPDEST POP SWAP3 SWAP2 POP POP JUMP JUMPDEST PUSH32 0x4E487B7100000000000000000000000000000000000000000000000000000000 PUSH1 0x0 MSTORE PUSH1 0x12 PUSH1 0x4 MSTORE PUSH1 0x24 PUSH1 0x0 REVERT JUMPDEST PUSH1 0x0 PUSH2 0x1CB DUP3 PUSH2 0xAE JUMP JUMPDEST SWAP2 POP PUSH2 0x1D6 DUP4 PUSH2 0xAE JUMP JUMPDEST SWAP3 POP DUP3 PUSH2 0x1E6 JUMPI PUSH2 0x1E5 PUSH2 0x191 JUMP JUMPDEST JUMPDEST DUP3 DUP3 DIV SWAP1 POP SWAP3 SWAP2 POP POP JUMP JUMPDEST PUSH1 0x0 PUSH2 0x1FC DUP3 PUSH2 0xAE JUMP JUMPDEST SWAP2 POP PUSH2 0x207 DUP4 PUSH2 0xAE JUMP JUMPDEST SWAP3 POP DUP3 PUSH2 0x217 JUMPI PUSH2 0x216 PUSH2 0x191 JUMP JUMPDEST JUMPDEST DUP3 DUP3 MOD SWAP1 POP SWAP3 SWAP2 POP POP JUMP JUMPDEST PUSH1 0x0 PUSH2 0x22D DUP3 PUSH2 0xAE JUMP JUMPDEST SWAP2 POP PUSH1 0x0 DUP3 SUB PUSH2 0x240 JUMPI PUSH2 0x23F PUSH2 0xB8 JUMP JUMPDEST JUMPDEST PUSH1 0x1 DUP3 SUB SWAP1 POP SWAP2 SWAP1 POP JUMP JUMPDEST PUSH1 0x0 PUSH2 0x256 DUP3 PUSH2 0xAE JUMP JUMPDEST SWAP2 POP PUSH32 0xFFFFFFFFFFFFFFFFFFFFFFFFFFFFFFFFFFFFFFFFFFFFFFFFFFFFFFFFFFFFFFFF DUP3 SUB PUSH2 0x288 JUMPI PUSH2 0x287 PUSH2 0xB8 JUMP JUMPDEST JUMPDEST PUSH1 0x1 DUP3 ADD SWAP1 POP SWAP2 SWAP1 POP JUMP JUMPDEST PUSH2 0x1E8 DUP1 PUSH2 0x2A2 PUSH1 0x0 CODECOPY PUSH1 0x0 RETURN INVALID PUSH1 0x80 PUSH1 0x40 MSTORE CALLVALUE DUP1 ISZERO PUSH2 0x10 JUMPI PUSH1 0x0 DUP1 REVERT JUMPDEST POP PUSH1 0x4 CALLDATASIZE LT PUSH2 0x7D JUMPI PUSH1 0x0 CALLDATALOAD PUSH1 0xE0 SHR DUP1 PUSH4 0x853255CC GT PUSH2 0x5B JUMPI DUP1 PUSH4 0x853255CC EQ PUSH2 0xDC JUMPI DUP1 PUSH4 0xA0D7AFB7 EQ PUSH2 0xFA JUMPI DUP1 PUSH4 0xB3BCFA82 EQ PUSH2 0x118 JUMPI DUP1 PUSH4 0xF9FA48C3 EQ PUSH2 0x136 JUMPI PUSH2 0x7D JUMP JUMPDEST DUP1 PUSH4 0x2986E054 EQ PUSH2 0x82 JUMPI DUP1 PUSH4 0x371303C0 EQ PUSH2 0xA0 JUMPI DUP1 PUSH4 0x58931C46 EQ PUSH2 0xBE JUMPI JUMPDEST PUSH1 0x0 DUP1 REVERT JUMPDEST PUSH2 0x8A PUSH2 0x154 JUMP JUMPDEST PUSH1 0x40 MLOAD PUSH2 0x97 SWAP2 SWAP1 PUSH2 0x197 JUMP JUMPDEST PUSH1 0x40 MLOAD DUP1 SWAP2 SUB SWAP1 RETURN JUMPDEST PUSH2 0xA8 PUSH2 0x15A JUMP JUMPDEST PUSH1 0x40 MLOAD PUSH2 0xB5 SWAP2 SWAP1 PUSH2 0x197 JUMP JUMPDEST PUSH1 0x40 MLOAD DUP1 SWAP2 SUB SWAP1 RETURN JUMPDEST PUSH2 0xC6 PUSH2 0x160 JUMP JUMPDEST PUSH1 0x40 MLOAD PUSH2 0xD3 SWAP2 SWAP1 PUSH2 0x197 JUMP JUMPDEST PUSH1 0x40 MLOAD DUP1 SWAP2 SUB SWAP1 RETURN JUMPDEST PUSH2 0xE4 PUSH2 0x166 JUMP JUMPDEST PUSH1 0x40 MLOAD PUSH2 0xF1 SWAP2 SWAP1 PUSH2 0x197 JUMP JUMPDEST PUSH1 0x40 MLOAD DUP1 SWAP2 SUB SWAP1 RETURN JUMPDEST PUSH2 0x102 PUSH2 0x16C JUMP JUMPDEST PUSH1 0x40 MLOAD PUSH2 0x10F SWAP2 SWAP1 PUSH2 0x197 JUMP JUMPDEST PUSH1 0x40 MLOAD DUP1 SWAP2 SUB SWAP1 RETURN JUMPDEST PUSH2 0x120 PUSH2 0x172 JUMP JUMPDEST PUSH1 0x40 MLOAD PUSH2 0x12D SWAP2 SWAP1 PUSH2 0x197 JUMP JUMPDEST PUSH1 0x40 MLOAD DUP1 SWAP2 SUB SWAP1 RETURN JUMPDEST PUSH2 0x13E PUSH2 0x178 JUMP JUMPDEST PUSH1 0x40 MLOAD PUSH2 0x14B SWAP2 SWAP1 PUSH2 0x197 JUMP JUMPDEST PUSH1 0x40 MLOAD DUP1 SWAP2 SUB SWAP1 RETURN JUMPDEST PUSH1 0x6 SLOAD DUP2 JUMP JUMPDEST PUSH1 0x8 SLOAD DUP2 JUMP JUMPDEST PUSH1 0x4 SLOAD DUP2 JUMP JUMPDEST PUSH1 0x2 SLOAD DUP2 JUMP JUMPDEST PUSH1 0x3 SLOAD DUP2 JUMP JUMPDEST PUSH1 0x7 SLOAD DUP2 JUMP JUMPDEST PUSH1 0x5 SLOAD DUP2 JUMP JUMPDEST PUSH1 0x0 DUP2 SWAP1 POP SWAP2 SWAP1 POP JUMP JUMPDEST PUSH2 0x191 DUP2 PUSH2 0x17E JUMP JUMPDEST DUP3 MSTORE POP POP JUMP JUMPDEST PUSH1 0x0 PUSH1 0x20 DUP3 ADD SWAP1 POP PUSH2 0x1AC PUSH1 0x0 DUP4 ADD DUP5 PUSH2 0x188 JUMP JUMPDEST SWAP3 SWAP2 POP POP JUMP INVALID LOG2 PUSH5 0x6970667358 0x22 SLT KECCAK256 0x4E EXTCODEHASH PUSH2 0xD826 0x5D CREATE2 PUSH14 0x21B18FD55985D827B4FCC76355F0 0xB3 SELFBALANCE JUMP DUP7 0xB6 0xA5 0xBE 0xD DIV STATICCALL PUSH5 0x736F6C6343 STOP ADDMOD SLT STOP CALLER "
				},
				"gasEstimates": {
					"creation": {
						"codeDepositCost": "97600",
						"executionCost": "infinite",
						"totalCost": "infinite"
					},
					"external": {
						"dec()": "2473",
						"diff()": "2451",
						"div()": "2495",
						"inc()": "2452",
						"mod()": "2430",
						"mul()": "2474",
						"sum()": "2429"
					}
				},
				"methodIdentifiers": {
					"dec()": "b3bcfa82",
					"diff()": "a0d7afb7",
					"div()": "f9fa48c3",
					"inc()": "371303c0",
					"mod()": "2986e054",
					"mul()": "58931c46",
					"sum()": "853255cc"
				}
			},
			"storageLayout": {
				"storage": [
					{
						"astId": 4,
						"contract": "praticals/2-2-Arithmetic.sol:SolidityTest",
						"label": "a",
						"offset": 0,
						"slot": "0",
						"type": "t_uint256"
					},
					{
						"astId": 7,
						"contract": "praticals/2-2-Arithmetic.sol:SolidityTest",
						"label": "b",
						"offset": 0,
						"slot": "1",
						"type": "t_uint256"
					},
					{
						"astId": 12,
						"contract": "praticals/2-2-Arithmetic.sol:SolidityTest",
						"label": "sum",
						"offset": 0,
						"slot": "2",
						"type": "t_uint256"
					},
					{
						"astId": 17,
						"contract": "praticals/2-2-Arithmetic.sol:SolidityTest",
						"label": "diff",
						"offset": 0,
						"slot": "3",
						"type": "t_uint256"
					},
					{
						"astId": 22,
						"contract": "praticals/2-2-Arithmetic.sol:SolidityTest",
						"label": "mul",
						"offset": 0,
						"slot": "4",
						"type": "t_uint256"
					},
					{
						"astId": 27,
						"contract": "praticals/2-2-Arithmetic.sol:SolidityTest",
						"label": "div",
						"offset": 0,
						"slot": "5",
						"type": "t_uint256"
					},
					{
						"astId": 32,
						"contract": "praticals/2-2-Arithmetic.sol:SolidityTest",
						"label": "mod",
						"offset": 0,
						"slot": "6",
						"type": "t_uint256"
					},
					{
						"astId": 36,
						"contract": "praticals/2-2-Arithmetic.sol:SolidityTest",
						"label": "dec",
						"offset": 0,
						"slot": "7",
						"type": "t_uint256"
					},
					{
						"astId": 40,
						"contract": "praticals/2-2-Arithmetic.sol:SolidityTest",
						"label": "inc",
						"offset": 0,
						"slot": "8",
						"type": "t_uint256"
					}
				],
				"types": {
					"t_uint256": {
						"encoding": "inplace",
						"label": "uint256",
						"numberOfBytes": "32"
					}
				}
			},
			"userdoc": {
				"kind": "user",
				"methods": {},
				"version": 1
			}
		}
	}
}