{
	"praticals/2-3-Logical.sol": {
		"logicalOperator": {
			"abi": [
				{
					"constant": true,
					"inputs": [
						{
							"internalType": "bool",
							"name": "a",
							"type": "bool"
						},
						{
							"internalType": "bool",
							"name": "b",
							"type": "bool"
						}
					],
					"name": "Logic",
					"outputs": [
						{
							"internalType": "bool",
							"name": "",
							"type": "bool"
						},
						{
							"internalType": "bool",
							"name": "",
							"type": "bool"
						},
						{
							"internalType": "bool",
							"name": "",
							"type": "bool"
						}
					],
					"payable": false,
					"stateMutability": "view",
					"type": "function"
				}
			],
			"devdoc": {
				"methods": {}
			},
			"evm": {
				"assembly": "    /* \"praticals/2-3-Logical.sol\":60:462  contract logicalOperator{\r... */\n  mstore(0x40, 0x80)\n  callvalue\n    /* \"--CODEGEN--\":8:17   */\n  dup1\n    /* \"--CODEGEN--\":5:7   */\n  iszero\n  tag_1\n  jumpi\n    /* \"--CODEGEN--\":30:31   */\n  0x00\n    /* \"--CODEGEN--\":27:28   */\n  dup1\n    /* \"--CODEGEN--\":20:32   */\n  revert\n    /* \"--CODEGEN--\":5:7   */\ntag_1:\n    /* \"praticals/2-3-Logical.sol\":60:462  contract logicalOperator{\r... */\n  pop\n  dataSize(sub_0)\n  dup1\n  dataOffset(sub_0)\n  0x00\n  codecopy\n  0x00\n  return\nstop\n\nsub_0: assembly {\n        /* \"praticals/2-3-Logical.sol\":60:462  contract logicalOperator{\r... */\n      mstore(0x40, 0x80)\n      callvalue\n        /* \"--CODEGEN--\":8:17   */\n      dup1\n        /* \"--CODEGEN--\":5:7   */\n      iszero\n      tag_1\n      jumpi\n        /* \"--CODEGEN--\":30:31   */\n      0x00\n        /* \"--CODEGEN--\":27:28   */\n      dup1\n        /* \"--CODEGEN--\":20:32   */\n      revert\n        /* \"--CODEGEN--\":5:7   */\n    tag_1:\n        /* \"praticals/2-3-Logical.sol\":60:462  contract logicalOperator{\r... */\n      pop\n      jumpi(tag_2, lt(calldatasize, 0x04))\n      shr(0xe0, calldataload(0x00))\n      dup1\n      0xc94a7a7e\n      eq\n      tag_3\n      jumpi\n    tag_2:\n      0x00\n      dup1\n      revert\n        /* \"praticals/2-3-Logical.sol\":150:459  function Logic(bool a, bool b) public pure returns(bool, bool, bool){\r... */\n    tag_3:\n      tag_4\n      0x04\n      dup1\n      calldatasize\n      sub\n        /* \"--CODEGEN--\":13:15   */\n      0x40\n        /* \"--CODEGEN--\":8:11   */\n      dup2\n        /* \"--CODEGEN--\":5:16   */\n      lt\n        /* \"--CODEGEN--\":2:4   */\n      iszero\n      tag_5\n      jumpi\n        /* \"--CODEGEN--\":29:30   */\n      0x00\n        /* \"--CODEGEN--\":26:27   */\n      dup1\n        /* \"--CODEGEN--\":19:31   */\n      revert\n        /* \"--CODEGEN--\":2:4   */\n    tag_5:\n        /* \"praticals/2-3-Logical.sol\":150:459  function Logic(bool a, bool b) public pure returns(bool, bool, bool){\r... */\n      dup2\n      add\n      swap1\n      dup1\n      dup1\n      calldataload\n      iszero\n      iszero\n      swap1\n      0x20\n      add\n      swap1\n      swap3\n      swap2\n      swap1\n      dup1\n      calldataload\n      iszero\n      iszero\n      swap1\n      0x20\n      add\n      swap1\n      swap3\n      swap2\n      swap1\n      pop\n      pop\n      pop\n      tag_6\n      jump\t// in\n    tag_4:\n      mload(0x40)\n      dup1\n      dup5\n      iszero\n      iszero\n      iszero\n      iszero\n      dup2\n      mstore\n      0x20\n      add\n      dup4\n      iszero\n      iszero\n      iszero\n      iszero\n      dup2\n      mstore\n      0x20\n      add\n      dup3\n      iszero\n      iszero\n      iszero\n      iszero\n      dup2\n      mstore\n      0x20\n      add\n      swap4\n      pop\n      pop\n      pop\n      pop\n      mload(0x40)\n      dup1\n      swap2\n      sub\n      swap1\n      return\n    tag_6:\n        /* \"praticals/2-3-Logical.sol\":201:205  bool */\n      0x00\n        /* \"praticals/2-3-Logical.sol\":207:211  bool */\n      dup1\n        /* \"praticals/2-3-Logical.sol\":213:217  bool */\n      0x00\n        /* \"praticals/2-3-Logical.sol\":262:270  bool and */\n      dup1\n        /* \"praticals/2-3-Logical.sol\":273:274  a */\n      dup6\n        /* \"praticals/2-3-Logical.sol\":273:277  a&&b */\n      dup1\n      iszero\n      tag_8\n      jumpi\n      pop\n        /* \"praticals/2-3-Logical.sol\":276:277  b */\n      dup5\n        /* \"praticals/2-3-Logical.sol\":273:277  a&&b */\n    tag_8:\n        /* \"praticals/2-3-Logical.sol\":262:277  bool and = a&&b */\n      swap1\n      pop\n        /* \"praticals/2-3-Logical.sol\":334:341  bool or */\n      0x00\n        /* \"praticals/2-3-Logical.sol\":344:345  a */\n      dup7\n        /* \"praticals/2-3-Logical.sol\":344:348  a||b */\n      dup1\n      tag_9\n      jumpi\n      pop\n        /* \"praticals/2-3-Logical.sol\":347:348  b */\n      dup6\n        /* \"praticals/2-3-Logical.sol\":344:348  a||b */\n    tag_9:\n        /* \"praticals/2-3-Logical.sol\":334:348  bool or = a||b */\n      swap1\n      pop\n        /* \"praticals/2-3-Logical.sol\":406:414  bool not */\n      0x00\n        /* \"praticals/2-3-Logical.sol\":418:419  a */\n      dup8\n        /* \"praticals/2-3-Logical.sol\":417:419  !a */\n      iszero\n        /* \"praticals/2-3-Logical.sol\":406:419  bool not = !a */\n      swap1\n      pop\n        /* \"praticals/2-3-Logical.sol\":438:441  and */\n      dup3\n        /* \"praticals/2-3-Logical.sol\":443:445  or */\n      dup3\n        /* \"praticals/2-3-Logical.sol\":447:450  not */\n      dup3\n        /* \"praticals/2-3-Logical.sol\":430:451  return (and, or, not) */\n      swap6\n      pop\n      swap6\n      pop\n      swap6\n      pop\n      pop\n      pop\n      pop\n        /* \"praticals/2-3-Logical.sol\":150:459  function Logic(bool a, bool b) public pure returns(bool, bool, bool){\r... */\n      swap3\n      pop\n      swap3\n      pop\n      swap3\n      jump\t// out\n\n    auxdata: 0xa265627a7a723158205cff00bb822bf77a4dae88181b5f0d63d50c08f68f43b0a68016c7a2ba47097c64736f6c63430005110032\n}\n",
				"bytecode": {
					"linkReferences": {},
					"object": "608060405234801561001057600080fd5b5060ff8061001f6000396000f3fe6080604052348015600f57600080fd5b506004361060285760003560e01c8063c94a7a7e14602d575b600080fd5b606460048036036040811015604157600080fd5b810190808035151590602001909291908035151590602001909291905050506094565b60405180841515151581526020018315151515815260200182151515158152602001935050505060405180910390f35b60008060008085801560a35750845b90506000868060af5750855b9050600087159050828282955095509550505050925092509256fea265627a7a723158205cff00bb822bf77a4dae88181b5f0d63d50c08f68f43b0a68016c7a2ba47097c64736f6c63430005110032",
					"opcodes": "PUSH1 0x80 PUSH1 0x40 MSTORE CALLVALUE DUP1 ISZERO PUSH2 0x10 JUMPI PUSH1 0x0 DUP1 REVERT JUMPDEST POP PUSH1 0xFF DUP1 PUSH2 0x1F PUSH1 0x0 CODECOPY PUSH1 0x0 RETURN INVALID PUSH1 0x80 PUSH1 0x40 MSTORE CALLVALUE DUP1 ISZERO PUSH1 0xF JUMPI PUSH1 0x0 DUP1 REVERT JUMPDEST POP PUSH1 0x4 CALLDATASIZE LT PUSH1 0x28 JUMPI PUSH1 0x0 CALLDATALOAD PUSH1 0xE0 SHR DUP1 PUSH4 0xC94A7A7E EQ PUSH1 0x2D JUMPI JUMPDEST PUSH1 0x0 DUP1 REVERT JUMPDEST PUSH1 0x64 PUSH1 0x4 DUP1 CALLDATASIZE SUB PUSH1 0x40 DUP2 LT ISZERO PUSH1 0x41 JUMPI PUSH1 0x0 DUP1 REVERT JUMPDEST DUP2 ADD SWAP1 DUP1 DUP1 CALLDATALOAD ISZERO ISZERO SWAP1 PUSH1 0x20 ADD SWAP1 SWAP3 SWAP2 SWAP1 DUP1 CALLDATALOAD ISZERO ISZERO SWAP1 PUSH1 0x20 ADD SWAP1 SWAP3 SWAP2 SWAP1 POP POP POP PUSH1 0x94 JUMP JUMPDEST PUSH1 0x40 MLOAD DUP1 DUP5 ISZERO ISZERO ISZERO ISZERO DUP2 MSTORE PUSH1 0x20 ADD DUP4 ISZERO ISZERO ISZERO ISZERO DUP2 MSTORE PUSH1 0x20 ADD DUP3 ISZERO ISZERO ISZERO ISZERO DUP2 MSTORE PUSH1 0x20 ADD SWAP4 POP POP POP POP PUSH1 0x40 MLOAD DUP1 SWAP2 SUB SWAP1 RETURN JUMPDEST PUSH1 0x0 DUP1 PUSH1 0x0 DUP1 DUP6 DUP1 ISZERO PUSH1 0xA3 JUMPI POP DUP5 JUMPDEST SWAP1 POP PUSH1 0x0 DUP7 DUP1 PUSH1 0xAF JUMPI POP DUP6 JUMPDEST SWAP1 POP PUSH1 0x0 DUP8 ISZERO SWAP1 POP DUP3 DUP3 DUP3 SWAP6 POP SWAP6 POP SWAP6 POP POP POP POP SWAP3 POP SWAP3 POP SWAP3 JUMP INVALID LOG2 PUSH6 0x627A7A723158 KECCAK256 0x5C SELFDESTRUCT STOP 0xBB DUP3 0x2B 0xF7 PUSH27 0x4DAE88181B5F0D63D50C08F68F43B0A68016C7A2BA47097C64736F PUSH13 0x63430005110032000000000000 "
				},
				"gasEstimates": {
					"creation": {
						"codeDepositCost": "51000",
						"executionCost": "99",
						"totalCost": "51099"
					},
					"external": {
						"Logic(bool,bool)": "509"
					}
				},
				"methodIdentifiers": {
					"Logic(bool,bool)": "c94a7a7e"
				}
			},
			"storageLayout": {
				"storage": [],
				"types": null
			},
			"userdoc": {
				"methods": {}
			}
		}
	}
}