{
	"praticals/2-4-Bitwise.sol": {
		"SolidityTest": {
			"abi": [
				{
					"constant": true,
					"inputs": [],
					"name": "a",
					"outputs": [
						{
							"internalType": "uint16",
							"name": "",
							"type": "uint16"
						}
					],
					"payable": false,
					"stateMutability": "view",
					"type": "function"
				},
				{
					"constant": true,
					"inputs": [],
					"name": "and",
					"outputs": [
						{
							"internalType": "uint16",
							"name": "",
							"type": "uint16"
						}
					],
					"payable": false,
					"stateMutability": "view",
					"type": "function"
				},
				{
					"constant": true,
					"inputs": [],
					"name": "b",
					"outputs": [
						{
							"internalType": "uint16",
							"name": "",
							"type": "uint16"
						}
					],
					"payable": false,
					"stateMutability": "view",
					"type": "function"
				},
				{
					"constant": true,
					"inputs": [],
					"name": "leftshift",
					"outputs": [
						{
							"internalType": "uint16",
							"name": "",
							"type": "uint16"
						}
					],
					"payable": false,
					"stateMutability": "view",
					"type": "function"
				},
				{
					"constant": true,
					"inputs": [],
					"name": "not",
					"outputs": [
						{
							"internalType": "uint16",
							"name": "",
							"type": "uint16"
						}
					],
					"payable": false,
					"stateMutability": "view",
					"type": "function"
				},
				{
					"constant": true,
					"inputs": [],
					"name": "or",
					"outputs": [
						{
							"internalType": "uint16",
							"name": "",
							"type": "uint16"
						}
					],
					"payable": false,
					"stateMutability": "view",
					"type": "function"
				},
				{
					"constant": true,
					"inputs": [],
					"name": "rightshift",
					"outputs": [
						{
							"internalType": "uint16",
							"name": "",
							"type": "uint16"
						}
					],
					"payable": false,
					"stateMutability": "view",
					"type": "function"
				},
				{
					"constant": true,
					"inputs": [],
					"name": "xor",
					"outputs": [
						{
							"internalType": "uint16",
							"name": "",
							"type": "uint16"
						}
					],
					"payable": false,
					"stateMutability": "view",
					"type": "function"
				}
			],
			"devdoc": {
				"methods": {}
			},
			"evm": {
				"assembly": "    /* \"praticals/2-4-Bitwise.sol\":60:587  contract SolidityTest {\r... */\n  mstore(0x40, 0x80)\n    /* \"praticals/2-4-Bitwise.sol\":106:108  20 */\n  0x14\n    /* \"praticals/2-4-Bitwise.sol\":88:108  uint16 public a = 20 */\n  0x00\n  dup1\n  0x0100\n  exp\n  dup2\n  sload\n  dup2\n  0xffff\n  mul\n  not\n  and\n  swap1\n  dup4\n  0xffff\n  and\n  mul\n  or\n  swap1\n  sstore\n  pop\n    /* \"praticals/2-4-Bitwise.sol\":130:132  10 */\n  0x0a\n    /* \"praticals/2-4-Bitwise.sol\":112:132  uint16 public b = 10 */\n  0x00\n  exp(0x0100, 0x02)\n  dup2\n  sload\n  dup2\n  0xffff\n  mul\n  not\n  and\n  swap1\n  dup4\n  0xffff\n  and\n  mul\n  or\n  swap1\n  sstore\n  pop\n    /* \"praticals/2-4-Bitwise.sol\":204:205  b */\n  0x00\n  0x02\n  swap1\n  sload\n  swap1\n  0x0100\n  exp\n  swap1\n  div\n  0xffff\n  and\n    /* \"praticals/2-4-Bitwise.sol\":200:201  a */\n  0x00\n  dup1\n  swap1\n  sload\n  swap1\n  0x0100\n  exp\n  swap1\n  div\n  0xffff\n  and\n    /* \"praticals/2-4-Bitwise.sol\":200:205  a & b */\n  and\n    /* \"praticals/2-4-Bitwise.sol\":180:205  uint16 public and = a & b */\n  0x00\n  exp(0x0100, 0x04)\n  dup2\n  sload\n  dup2\n  0xffff\n  mul\n  not\n  and\n  swap1\n  dup4\n  0xffff\n  and\n  mul\n  or\n  swap1\n  sstore\n  pop\n    /* \"praticals/2-4-Bitwise.sol\":276:277  b */\n  0x00\n  0x02\n  swap1\n  sload\n  swap1\n  0x0100\n  exp\n  swap1\n  div\n  0xffff\n  and\n    /* \"praticals/2-4-Bitwise.sol\":272:273  a */\n  0x00\n  dup1\n  swap1\n  sload\n  swap1\n  0x0100\n  exp\n  swap1\n  div\n  0xffff\n  and\n    /* \"praticals/2-4-Bitwise.sol\":272:277  a | b */\n  or\n    /* \"praticals/2-4-Bitwise.sol\":253:277  uint16 public or = a | b */\n  0x00\n  exp(0x0100, 0x06)\n  dup2\n  sload\n  dup2\n  0xffff\n  mul\n  not\n  and\n  swap1\n  dup4\n  0xffff\n  and\n  mul\n  or\n  swap1\n  sstore\n  pop\n    /* \"praticals/2-4-Bitwise.sol\":349:350  b */\n  0x00\n  0x02\n  swap1\n  sload\n  swap1\n  0x0100\n  exp\n  swap1\n  div\n  0xffff\n  and\n    /* \"praticals/2-4-Bitwise.sol\":345:346  a */\n  0x00\n  dup1\n  swap1\n  sload\n  swap1\n  0x0100\n  exp\n  swap1\n  div\n  0xffff\n  and\n    /* \"praticals/2-4-Bitwise.sol\":345:350  a ^ b */\n  xor\n    /* \"praticals/2-4-Bitwise.sol\":325:350  uint16 public xor = a ^ b */\n  0x00\n  exp(0x0100, 0x08)\n  dup2\n  sload\n  dup2\n  0xffff\n  mul\n  not\n  and\n  swap1\n  dup4\n  0xffff\n  and\n  mul\n  or\n  swap1\n  sstore\n  pop\n    /* \"praticals/2-4-Bitwise.sol\":430:431  b */\n  0x00\n  0x02\n  swap1\n  sload\n  swap1\n  0x0100\n  exp\n  swap1\n  div\n  0xffff\n  and\n    /* \"praticals/2-4-Bitwise.sol\":425:431  a << b */\n  0xffff\n  and\n    /* \"praticals/2-4-Bitwise.sol\":425:426  a */\n  0x00\n  dup1\n  swap1\n  sload\n  swap1\n  0x0100\n  exp\n  swap1\n  div\n  0xffff\n  and\n    /* \"praticals/2-4-Bitwise.sol\":425:431  a << b */\n  0xffff\n  and\n  swap1\n  shl\n    /* \"praticals/2-4-Bitwise.sol\":399:431  uint16 public leftshift = a << b */\n  0x00\n  exp(0x0100, 0x0a)\n  dup2\n  sload\n  dup2\n  0xffff\n  mul\n  not\n  and\n  swap1\n  dup4\n  0xffff\n  and\n  mul\n  or\n  swap1\n  sstore\n  pop\n    /* \"praticals/2-4-Bitwise.sol\":512:513  b */\n  0x00\n  0x02\n  swap1\n  sload\n  swap1\n  0x0100\n  exp\n  swap1\n  div\n  0xffff\n  and\n    /* \"praticals/2-4-Bitwise.sol\":507:513  a >> b */\n  0xffff\n  and\n    /* \"praticals/2-4-Bitwise.sol\":507:508  a */\n  0x00\n  dup1\n  swap1\n  sload\n  swap1\n  0x0100\n  exp\n  swap1\n  div\n  0xffff\n  and\n    /* \"praticals/2-4-Bitwise.sol\":507:513  a >> b */\n  0xffff\n  and\n  swap1\n  shr\n    /* \"praticals/2-4-Bitwise.sol\":480:513  uint16 public rightshift = a >> b */\n  0x00\n  exp(0x0100, 0x0c)\n  dup2\n  sload\n  dup2\n  0xffff\n  mul\n  not\n  and\n  swap1\n  dup4\n  0xffff\n  and\n  mul\n  or\n  swap1\n  sstore\n  pop\n    /* \"praticals/2-4-Bitwise.sol\":582:583  a */\n  0x00\n  dup1\n  swap1\n  sload\n  swap1\n  0x0100\n  exp\n  swap1\n  div\n  0xffff\n  and\n    /* \"praticals/2-4-Bitwise.sol\":581:583  ~a */\n  not\n    /* \"praticals/2-4-Bitwise.sol\":561:583  uint16 public not = ~a */\n  0x00\n  exp(0x0100, 0x0e)\n  dup2\n  sload\n  dup2\n  0xffff\n  mul\n  not\n  and\n  swap1\n  dup4\n  0xffff\n  and\n  mul\n  or\n  swap1\n  sstore\n  pop\n    /* \"praticals/2-4-Bitwise.sol\":60:587  contract SolidityTest {\r... */\n  callvalue\n    /* \"--CODEGEN--\":8:17   */\n  dup1\n    /* \"--CODEGEN--\":5:7   */\n  iszero\n  tag_1\n  jumpi\n    /* \"--CODEGEN--\":30:31   */\n  0x00\n    /* \"--CODEGEN--\":27:28   */\n  dup1\n    /* \"--CODEGEN--\":20:32   */\n  revert\n    /* \"--CODEGEN--\":5:7   */\ntag_1:\n    /* \"praticals/2-4-Bitwise.sol\":60:587  contract SolidityTest {\r... */\n  pop\n  dataSize(sub_0)\n  dup1\n  dataOffset(sub_0)\n  0x00\n  codecopy\n  0x00\n  return\nstop\n\nsub_0: assembly {\n        /* \"praticals/2-4-Bitwise.sol\":60:587  contract SolidityTest {\r... */\n      mstore(0x40, 0x80)\n      callvalue\n        /* \"--CODEGEN--\":8:17   */\n      dup1\n        /* \"--CODEGEN--\":5:7   */\n      iszero\n      tag_1\n      jumpi\n        /* \"--CODEGEN--\":30:31   */\n      0x00\n        /* \"--CODEGEN--\":27:28   */\n      dup1\n        /* \"--CODEGEN--\":20:32   */\n      revert\n        /* \"--CODEGEN--\":5:7   */\n    tag_1:\n        /* \"praticals/2-4-Bitwise.sol\":60:587  contract SolidityTest {\r... */\n      pop\n      jumpi(tag_2, lt(calldatasize, 0x04))\n      shr(0xe0, calldataload(0x00))\n      dup1\n      0x2e13bd10\n      gt\n      tag_11\n      jumpi\n      dup1\n      0x2e13bd10\n      eq\n      tag_7\n      jumpi\n      dup1\n      0x4df7e3d0\n      eq\n      tag_8\n      jumpi\n      dup1\n      0x5ada0c68\n      eq\n      tag_9\n      jumpi\n      dup1\n      0x9542f2e0\n      eq\n      tag_10\n      jumpi\n      jump(tag_2)\n    tag_11:\n      dup1\n      0x0dbe671f\n      eq\n      tag_3\n      jumpi\n      dup1\n      0x1eab7977\n      eq\n      tag_4\n      jumpi\n      dup1\n      0x26912c48\n      eq\n      tag_5\n      jumpi\n      dup1\n      0x2d5e74d8\n      eq\n      tag_6\n      jumpi\n    tag_2:\n      0x00\n      dup1\n      revert\n        /* \"praticals/2-4-Bitwise.sol\":88:108  uint16 public a = 20 */\n    tag_3:\n      tag_12\n      tag_13\n      jump\t// in\n    tag_12:\n      mload(0x40)\n      dup1\n      dup3\n      0xffff\n      and\n      0xffff\n      and\n      dup2\n      mstore\n      0x20\n      add\n      swap2\n      pop\n      pop\n      mload(0x40)\n      dup1\n      swap2\n      sub\n      swap1\n      return\n        /* \"praticals/2-4-Bitwise.sol\":399:431  uint16 public leftshift = a << b */\n    tag_4:\n      tag_14\n      tag_15\n      jump\t// in\n    tag_14:\n      mload(0x40)\n      dup1\n      dup3\n      0xffff\n      and\n      0xffff\n      and\n      dup2\n      mstore\n      0x20\n      add\n      swap2\n      pop\n      pop\n      mload(0x40)\n      dup1\n      swap2\n      sub\n      swap1\n      return\n        /* \"praticals/2-4-Bitwise.sol\":480:513  uint16 public rightshift = a >> b */\n    tag_5:\n      tag_16\n      tag_17\n      jump\t// in\n    tag_16:\n      mload(0x40)\n      dup1\n      dup3\n      0xffff\n      and\n      0xffff\n      and\n      dup2\n      mstore\n      0x20\n      add\n      swap2\n      pop\n      pop\n      mload(0x40)\n      dup1\n      swap2\n      sub\n      swap1\n      return\n        /* \"praticals/2-4-Bitwise.sol\":253:277  uint16 public or = a | b */\n    tag_6:\n      tag_18\n      tag_19\n      jump\t// in\n    tag_18:\n      mload(0x40)\n      dup1\n      dup3\n      0xffff\n      and\n      0xffff\n      and\n      dup2\n      mstore\n      0x20\n      add\n      swap2\n      pop\n      pop\n      mload(0x40)\n      dup1\n      swap2\n      sub\n      swap1\n      return\n        /* \"praticals/2-4-Bitwise.sol\":561:583  uint16 public not = ~a */\n    tag_7:\n      tag_20\n      tag_21\n      jump\t// in\n    tag_20:\n      mload(0x40)\n      dup1\n      dup3\n      0xffff\n      and\n      0xffff\n      and\n      dup2\n      mstore\n      0x20\n      add\n      swap2\n      pop\n      pop\n      mload(0x40)\n      dup1\n      swap2\n      sub\n      swap1\n      return\n        /* \"praticals/2-4-Bitwise.sol\":112:132  uint16 public b = 10 */\n    tag_8:\n      tag_22\n      tag_23\n      jump\t// in\n    tag_22:\n      mload(0x40)\n      dup1\n      dup3\n      0xffff\n      and\n      0xffff\n      and\n      dup2\n      mstore\n      0x20\n      add\n      swap2\n      pop\n      pop\n      mload(0x40)\n      dup1\n      swap2\n      sub\n      swap1\n      return\n        /* \"praticals/2-4-Bitwise.sol\":325:350  uint16 public xor = a ^ b */\n    tag_9:\n      tag_24\n      tag_25\n      jump\t// in\n    tag_24:\n      mload(0x40)\n      dup1\n      dup3\n      0xffff\n      and\n      0xffff\n      and\n      dup2\n      mstore\n      0x20\n      add\n      swap2\n      pop\n      pop\n      mload(0x40)\n      dup1\n      swap2\n      sub\n      swap1\n      return\n        /* \"praticals/2-4-Bitwise.sol\":180:205  uint16 public and = a & b */\n    tag_10:\n      tag_26\n      tag_27\n      jump\t// in\n    tag_26:\n      mload(0x40)\n      dup1\n      dup3\n      0xffff\n      and\n      0xffff\n      and\n      dup2\n      mstore\n      0x20\n      add\n      swap2\n      pop\n      pop\n      mload(0x40)\n      dup1\n      swap2\n      sub\n      swap1\n      return\n        /* \"praticals/2-4-Bitwise.sol\":88:108  uint16 public a = 20 */\n    tag_13:\n      0x00\n      dup1\n      swap1\n      sload\n      swap1\n      0x0100\n      exp\n      swap1\n      div\n      0xffff\n      and\n      dup2\n      jump\t// out\n        /* \"praticals/2-4-Bitwise.sol\":399:431  uint16 public leftshift = a << b */\n    tag_15:\n      0x00\n      0x0a\n      swap1\n      sload\n      swap1\n      0x0100\n      exp\n      swap1\n      div\n      0xffff\n      and\n      dup2\n      jump\t// out\n        /* \"praticals/2-4-Bitwise.sol\":480:513  uint16 public rightshift = a >> b */\n    tag_17:\n      0x00\n      0x0c\n      swap1\n      sload\n      swap1\n      0x0100\n      exp\n      swap1\n      div\n      0xffff\n      and\n      dup2\n      jump\t// out\n        /* \"praticals/2-4-Bitwise.sol\":253:277  uint16 public or = a | b */\n    tag_19:\n      0x00\n      0x06\n      swap1\n      sload\n      swap1\n      0x0100\n      exp\n      swap1\n      div\n      0xffff\n      and\n      dup2\n      jump\t// out\n        /* \"praticals/2-4-Bitwise.sol\":561:583  uint16 public not = ~a */\n    tag_21:\n      0x00\n      0x0e\n      swap1\n      sload\n      swap1\n      0x0100\n      exp\n      swap1\n      div\n      0xffff\n      and\n      dup2\n      jump\t// out\n        /* \"praticals/2-4-Bitwise.sol\":112:132  uint16 public b = 10 */\n    tag_23:\n      0x00\n      0x02\n      swap1\n      sload\n      swap1\n      0x0100\n      exp\n      swap1\n      div\n      0xffff\n      and\n      dup2\n      jump\t// out\n        /* \"praticals/2-4-Bitwise.sol\":325:350  uint16 public xor = a ^ b */\n    tag_25:\n      0x00\n      0x08\n      swap1\n      sload\n      swap1\n      0x0100\n      exp\n      swap1\n      div\n      0xffff\n      and\n      dup2\n      jump\t// out\n        /* \"praticals/2-4-Bitwise.sol\":180:205  uint16 public and = a & b */\n    tag_27:\n      0x00\n      0x04\n      swap1\n      sload\n      swap1\n      0x0100\n      exp\n      swap1\n      div\n      0xffff\n      and\n      dup2\n      jump\t// out\n\n    auxdata: 0xa265627a7a72315820e8964458a59ba65a054d39266895c09542c6a17dd38979631c8085b3f60b0e6564736f6c63430005110032\n}\n",
				"bytecode": {
					"linkReferences": {},
					"object": "608060405260146000806101000a81548161ffff021916908361ffff160217905550600a600060026101000a81548161ffff021916908361ffff160217905550600060029054906101000a900461ffff166000809054906101000a900461ffff1616600060046101000a81548161ffff021916908361ffff160217905550600060029054906101000a900461ffff166000809054906101000a900461ffff1617600060066101000a81548161ffff021916908361ffff160217905550600060029054906101000a900461ffff166000809054906101000a900461ffff1618600060086101000a81548161ffff021916908361ffff160217905550600060029054906101000a900461ffff1661ffff166000809054906101000a900461ffff1661ffff16901b6000600a6101000a81548161ffff021916908361ffff160217905550600060029054906101000a900461ffff1661ffff166000809054906101000a900461ffff1661ffff16901c6000600c6101000a81548161ffff021916908361ffff1602179055506000809054906101000a900461ffff16196000600e6101000a81548161ffff021916908361ffff1602179055503480156101c057600080fd5b50610291806101d06000396000f3fe608060405234801561001057600080fd5b50600436106100885760003560e01c80632e13bd101161005b5780632e13bd10146101255780634df7e3d01461014b5780635ada0c68146101715780639542f2e01461019757610088565b80630dbe671f1461008d5780631eab7977146100b357806326912c48146100d95780632d5e74d8146100ff575b600080fd5b6100956101bd565b604051808261ffff1661ffff16815260200191505060405180910390f35b6100bb6101d0565b604051808261ffff1661ffff16815260200191505060405180910390f35b6100e16101e4565b604051808261ffff1661ffff16815260200191505060405180910390f35b6101076101f8565b604051808261ffff1661ffff16815260200191505060405180910390f35b61012d61020c565b604051808261ffff1661ffff16815260200191505060405180910390f35b610153610220565b604051808261ffff1661ffff16815260200191505060405180910390f35b610179610234565b604051808261ffff1661ffff16815260200191505060405180910390f35b61019f610248565b604051808261ffff1661ffff16815260200191505060405180910390f35b6000809054906101000a900461ffff1681565b6000600a9054906101000a900461ffff1681565b6000600c9054906101000a900461ffff1681565b600060069054906101000a900461ffff1681565b6000600e9054906101000a900461ffff1681565b600060029054906101000a900461ffff1681565b600060089054906101000a900461ffff1681565b600060049054906101000a900461ffff168156fea265627a7a72315820e8964458a59ba65a054d39266895c09542c6a17dd38979631c8085b3f60b0e6564736f6c63430005110032",
					"opcodes": "PUSH1 0x80 PUSH1 0x40 MSTORE PUSH1 0x14 PUSH1 0x0 DUP1 PUSH2 0x100 EXP DUP2 SLOAD DUP2 PUSH2 0xFFFF MUL NOT AND SWAP1 DUP4 PUSH2 0xFFFF AND MUL OR SWAP1 SSTORE POP PUSH1 0xA PUSH1 0x0 PUSH1 0x2 PUSH2 0x100 EXP DUP2 SLOAD DUP2 PUSH2 0xFFFF MUL NOT AND SWAP1 DUP4 PUSH2 0xFFFF AND MUL OR SWAP1 SSTORE POP PUSH1 0x0 PUSH1 0x2 SWAP1 SLOAD SWAP1 PUSH2 0x100 EXP SWAP1 DIV PUSH2 0xFFFF AND PUSH1 0x0 DUP1 SWAP1 SLOAD SWAP1 PUSH2 0x100 EXP SWAP1 DIV PUSH2 0xFFFF AND AND PUSH1 0x0 PUSH1 0x4 PUSH2 0x100 EXP DUP2 SLOAD DUP2 PUSH2 0xFFFF MUL NOT AND SWAP1 DUP4 PUSH2 0xFFFF AND MUL OR SWAP1 SSTORE POP PUSH1 0x0 PUSH1 0x2 SWAP1 SLOAD SWAP1 PUSH2 0x100 EXP SWAP1 DIV PUSH2 0xFFFF AND PUSH1 0x0 DUP1 SWAP1 SLOAD SWAP1 PUSH2 0x100 EXP SWAP1 DIV PUSH2 0xFFFF AND OR PUSH1 0x0 PUSH1 0x6 PUSH2 0x100 EXP DUP2 SLOAD DUP2 PUSH2 0xFFFF MUL NOT AND SWAP1 DUP4 PUSH2 0xFFFF AND MUL OR SWAP1 SSTORE POP PUSH1 0x0 PUSH1 0x2 SWAP1 SLOAD SWAP1 PUSH2 0x100 EXP SWAP1 DIV PUSH2 0xFFFF AND PUSH1 0x0 DUP1 SWAP1 SLOAD SWAP1 PUSH2 0x100 EXP SWAP1 DIV PUSH2 0xFFFF AND XOR PUSH1 0x0 PUSH1 0x8 PUSH2 0x100 EXP DUP2 SLOAD DUP2 PUSH2 0xFFFF MUL NOT AND SWAP1 DUP4 PUSH2 0xFFFF AND MUL OR SWAP1 SSTORE POP PUSH1 0x0 PUSH1 0x2 SWAP1 SLOAD SWAP1 PUSH2 0x100 EXP SWAP1 DIV PUSH2 0xFFFF AND PUSH2 0xFFFF AND PUSH1 0x0 DUP1 SWAP1 SLOAD SWAP1 PUSH2 0x100 EXP SWAP1 DIV PUSH2 0xFFFF AND PUSH2 0xFFFF AND SWAP1 SHL PUSH1 0x0 PUSH1 0xA PUSH2 0x100 EXP DUP2 SLOAD DUP2 PUSH2 0xFFFF MUL NOT AND SWAP1 DUP4 PUSH2 0xFFFF AND MUL OR SWAP1 SSTORE POP PUSH1 0x0 PUSH1 0x2 SWAP1 SLOAD SWAP1 PUSH2 0x100 EXP SWAP1 DIV PUSH2 0xFFFF AND PUSH2 0xFFFF AND PUSH1 0x0 DUP1 SWAP1 SLOAD SWAP1 PUSH2 0x100 EXP SWAP1 DIV PUSH2 0xFFFF AND PUSH2 0xFFFF AND SWAP1 SHR PUSH1 0x0 PUSH1 0xC PUSH2 0x100 EXP DUP2 SLOAD DUP2 PUSH2 0xFFFF MUL NOT AND SWAP1 DUP4 PUSH2 0xFFFF AND MUL OR SWAP1 SSTORE POP PUSH1 0x0 DUP1 SWAP1 SLOAD SWAP1 PUSH2 0x100 EXP SWAP1 DIV PUSH2 0xFFFF AND NOT PUSH1 0x0 PUSH1 0xE PUSH2 0x100 EXP DUP2 SLOAD DUP2 PUSH2 0xFFFF MUL NOT AND SWAP1 DUP4 PUSH2 0xFFFF AND MUL OR SWAP1 SSTORE POP CALLVALUE DUP1 ISZERO PUSH2 0x1C0 JUMPI PUSH1 0x0 DUP1 REVERT JUMPDEST POP PUSH2 0x291 DUP1 PUSH2 0x1D0 PUSH1 0x0 CODECOPY PUSH1 0x0 RETURN INVALID PUSH1 0x80 PUSH1 0x40 MSTORE CALLVALUE DUP1 ISZERO PUSH2 0x10 JUMPI PUSH1 0x0 DUP1 REVERT JUMPDEST POP PUSH1 0x4 CALLDATASIZE LT PUSH2 0x88 JUMPI PUSH1 0x0 CALLDATALOAD PUSH1 0xE0 SHR DUP1 PUSH4 0x2E13BD10 GT PUSH2 0x5B JUMPI DUP1 PUSH4 0x2E13BD10 EQ PUSH2 0x125 JUMPI DUP1 PUSH4 0x4DF7E3D0 EQ PUSH2 0x14B JUMPI DUP1 PUSH4 0x5ADA0C68 EQ PUSH2 0x171 JUMPI DUP1 PUSH4 0x9542F2E0 EQ PUSH2 0x197 JUMPI PUSH2 0x88 JUMP JUMPDEST DUP1 PUSH4 0xDBE671F EQ PUSH2 0x8D JUMPI DUP1 PUSH4 0x1EAB7977 EQ PUSH2 0xB3 JUMPI DUP1 PUSH4 0x26912C48 EQ PUSH2 0xD9 JUMPI DUP1 PUSH4 0x2D5E74D8 EQ PUSH2 0xFF JUMPI JUMPDEST PUSH1 0x0 DUP1 REVERT JUMPDEST PUSH2 0x95 PUSH2 0x1BD JUMP JUMPDEST PUSH1 0x40 MLOAD DUP1 DUP3 PUSH2 0xFFFF AND PUSH2 0xFFFF AND DUP2 MSTORE PUSH1 0x20 ADD SWAP2 POP POP PUSH1 0x40 MLOAD DUP1 SWAP2 SUB SWAP1 RETURN JUMPDEST PUSH2 0xBB PUSH2 0x1D0 JUMP JUMPDEST PUSH1 0x40 MLOAD DUP1 DUP3 PUSH2 0xFFFF AND PUSH2 0xFFFF AND DUP2 MSTORE PUSH1 0x20 ADD SWAP2 POP POP PUSH1 0x40 MLOAD DUP1 SWAP2 SUB SWAP1 RETURN JUMPDEST PUSH2 0xE1 PUSH2 0x1E4 JUMP JUMPDEST PUSH1 0x40 MLOAD DUP1 DUP3 PUSH2 0xFFFF AND PUSH2 0xFFFF AND DUP2 MSTORE PUSH1 0x20 ADD SWAP2 POP POP PUSH1 0x40 MLOAD DUP1 SWAP2 SUB SWAP1 RETURN JUMPDEST PUSH2 0x107 PUSH2 0x1F8 JUMP JUMPDEST PUSH1 0x40 MLOAD DUP1 DUP3 PUSH2 0xFFFF AND PUSH2 0xFFFF AND DUP2 MSTORE PUSH1 0x20 ADD SWAP2 POP POP PUSH1 0x40 MLOAD DUP1 SWAP2 SUB SWAP1 RETURN JUMPDEST PUSH2 0x12D PUSH2 0x20C JUMP JUMPDEST PUSH1 0x40 MLOAD DUP1 DUP3 PUSH2 0xFFFF AND PUSH2 0xFFFF AND DUP2 MSTORE PUSH1 0x20 ADD SWAP2 POP POP PUSH1 0x40 MLOAD DUP1 SWAP2 SUB SWAP1 RETURN JUMPDEST PUSH2 0x153 PUSH2 0x220 JUMP JUMPDEST PUSH1 0x40 MLOAD DUP1 DUP3 PUSH2 0xFFFF AND PUSH2 0xFFFF AND DUP2 MSTORE PUSH1 0x20 ADD SWAP2 POP POP PUSH1 0x40 MLOAD DUP1 SWAP2 SUB SWAP1 RETURN JUMPDEST PUSH2 0x179 PUSH2 0x234 JUMP JUMPDEST PUSH1 0x40 MLOAD DUP1 DUP3 PUSH2 0xFFFF AND PUSH2 0xFFFF AND DUP2 MSTORE PUSH1 0x20 ADD SWAP2 POP POP PUSH1 0x40 MLOAD DUP1 SWAP2 SUB SWAP1 RETURN JUMPDEST PUSH2 0x19F PUSH2 0x248 JUMP JUMPDEST PUSH1 0x40 MLOAD DUP1 DUP3 PUSH2 0xFFFF AND PUSH2 0xFFFF AND DUP2 MSTORE PUSH1 0x20 ADD SWAP2 POP POP PUSH1 0x40 MLOAD DUP1 SWAP2 SUB SWAP1 RETURN JUMPDEST PUSH1 0x0 DUP1 SWAP1 SLOAD SWAP1 PUSH2 0x100 EXP SWAP1 DIV PUSH2 0xFFFF AND DUP2 JUMP JUMPDEST PUSH1 0x0 PUSH1 0xA SWAP1 SLOAD SWAP1 PUSH2 0x100 EXP SWAP1 DIV PUSH2 0xFFFF AND DUP2 JUMP JUMPDEST PUSH1 0x0 PUSH1 0xC SWAP1 SLOAD SWAP1 PUSH2 0x100 EXP SWAP1 DIV PUSH2 0xFFFF AND DUP2 JUMP JUMPDEST PUSH1 0x0 PUSH1 0x6 SWAP1 SLOAD SWAP1 PUSH2 0x100 EXP SWAP1 DIV PUSH2 0xFFFF AND DUP2 JUMP JUMPDEST PUSH1 0x0 PUSH1 0xE SWAP1 SLOAD SWAP1 PUSH2 0x100 EXP SWAP1 DIV PUSH2 0xFFFF AND DUP2 JUMP JUMPDEST PUSH1 0x0 PUSH1 0x2 SWAP1 SLOAD SWAP1 PUSH2 0x100 EXP SWAP1 DIV PUSH2 0xFFFF AND DUP2 JUMP JUMPDEST PUSH1 0x0 PUSH1 0x8 SWAP1 SLOAD SWAP1 PUSH2 0x100 EXP SWAP1 DIV PUSH2 0xFFFF AND DUP2 JUMP JUMPDEST PUSH1 0x0 PUSH1 0x4 SWAP1 SLOAD SWAP1 PUSH2 0x100 EXP SWAP1 DIV PUSH2 0xFFFF AND DUP2 JUMP INVALID LOG2 PUSH6 0x627A7A723158 KECCAK256 0xE8 SWAP7 DIFFICULTY PC 0xA5 SWAP12 0xA6 GAS SDIV 0x4D CODECOPY 0x26 PUSH9 0x95C09542C6A17DD389 PUSH26 0x631C8085B3F60B0E6564736F6C63430005110032000000000000 "
				},
				"gasEstimates": {
					"creation": {
						"codeDepositCost": "131400",
						"executionCost": "176972",
						"totalCost": "308372"
					},
					"external": {
						"a()": "1054",
						"and()": "1169",
						"b()": "1125",
						"leftshift()": "1126",
						"not()": "1103",
						"or()": "1170",
						"rightshift()": "1148",
						"xor()": "1147"
					}
				},
				"methodIdentifiers": {
					"a()": "0dbe671f",
					"and()": "9542f2e0",
					"b()": "4df7e3d0",
					"leftshift()": "1eab7977",
					"not()": "2e13bd10",
					"or()": "2d5e74d8",
					"rightshift()": "26912c48",
					"xor()": "5ada0c68"
				}
			},
			"storageLayout": {
				"storage": [
					{
						"astId": 4,
						"contract": "praticals/2-4-Bitwise.sol:SolidityTest",
						"label": "a",
						"offset": 0,
						"slot": "0",
						"type": "t_uint16"
					},
					{
						"astId": 7,
						"contract": "praticals/2-4-Bitwise.sol:SolidityTest",
						"label": "b",
						"offset": 2,
						"slot": "0",
						"type": "t_uint16"
					},
					{
						"astId": 12,
						"contract": "praticals/2-4-Bitwise.sol:SolidityTest",
						"label": "and",
						"offset": 4,
						"slot": "0",
						"type": "t_uint16"
					},
					{
						"astId": 17,
						"contract": "praticals/2-4-Bitwise.sol:SolidityTest",
						"label": "or",
						"offset": 6,
						"slot": "0",
						"type": "t_uint16"
					},
					{
						"astId": 22,
						"contract": "praticals/2-4-Bitwise.sol:SolidityTest",
						"label": "xor",
						"offset": 8,
						"slot": "0",
						"type": "t_uint16"
					},
					{
						"astId": 27,
						"contract": "praticals/2-4-Bitwise.sol:SolidityTest",
						"label": "leftshift",
						"offset": 10,
						"slot": "0",
						"type": "t_uint16"
					},
					{
						"astId": 32,
						"contract": "praticals/2-4-Bitwise.sol:SolidityTest",
						"label": "rightshift",
						"offset": 12,
						"slot": "0",
						"type": "t_uint16"
					},
					{
						"astId": 36,
						"contract": "praticals/2-4-Bitwise.sol:SolidityTest",
						"label": "not",
						"offset": 14,
						"slot": "0",
						"type": "t_uint16"
					}
				],
				"types": {
					"t_uint16": {
						"encoding": "inplace",
						"label": "uint16",
						"numberOfBytes": "2"
					}
				}
			},
			"userdoc": {
				"methods": {}
			}
		}
	}
}