{
	"praticals/2-5-Assignment.sol": {
		"SolidityTest": {
			"abi": [
				{
					"constant": true,
					"inputs": [],
					"name": "assign_div",
					"outputs": [
						{
							"internalType": "uint256",
							"name": "",
							"type": "uint256"
						}
					],
					"payable": false,
					"stateMutability": "view",
					"type": "function"
				},
				{
					"constant": true,
					"inputs": [],
					"name": "assign_mod",
					"outputs": [
						{
							"internalType": "uint256",
							"name": "",
							"type": "uint256"
						}
					],
					"payable": false,
					"stateMutability": "view",
					"type": "function"
				},
				{
					"constant": true,
					"inputs": [],
					"name": "assign_mul",
					"outputs": [
						{
							"internalType": "uint256",
							"name": "",
							"type": "uint256"
						}
					],
					"payable": false,
					"stateMutability": "view",
					"type": "function"
				},
				{
					"constant": true,
					"inputs": [],
					"name": "assign_sub",
					"outputs": [
						{
							"internalType": "uint256",
							"name": "",
							"type": "uint256"
						}
					],
					"payable": false,
					"stateMutability": "view",
					"type": "function"
				},
				{
					"constant": true,
					"inputs": [],
					"name": "assignment",
					"outputs": [
						{
							"internalType": "uint16",
							"name": "",
							"type": "uint16"
						}
					],
					"payable": false,
					"stateMutability": "view",
					"type": "function"
				},
				{
					"constant": true,
					"inputs": [],
					"name": "assignment_add",
					"outputs": [
						{
							"internalType": "uint256",
							"name": "",
							"type": "uint256"
						}
					],
					"payable": false,
					"stateMutability": "view",
					"type": "function"
				},
				{
					"constant": false,
					"inputs": [],
					"name": "getResult",
					"outputs": [],
					"payable": false,
					"stateMutability": "nonpayable",
					"type": "function"
				}
			],
			"devdoc": {
				"methods": {}
			},
			"evm": {
				"assembly": "    /* \"praticals/2-5-Assignment.sol\":58:583  contract SolidityTest {\r... */\n  mstore(0x40, 0x80)\n    /* \"praticals/2-5-Assignment.sol\":142:144  20 */\n  0x14\n    /* \"praticals/2-5-Assignment.sol\":115:144  uint16 public assignment = 20 */\n  0x00\n  dup1\n  0x0100\n  exp\n  dup2\n  sload\n  dup2\n  0xffff\n  mul\n  not\n  and\n  swap1\n  dup4\n  0xffff\n  and\n  mul\n  or\n  swap1\n  sstore\n  pop\n    /* \"praticals/2-5-Assignment.sol\":180:182  50 */\n  0x32\n    /* \"praticals/2-5-Assignment.sol\":151:182  uint public assignment_add = 50 */\n  0x01\n  sstore\n    /* \"praticals/2-5-Assignment.sol\":214:216  50 */\n  0x32\n    /* \"praticals/2-5-Assignment.sol\":189:216  uint public assign_sub = 50 */\n  0x02\n  sstore\n    /* \"praticals/2-5-Assignment.sol\":248:250  10 */\n  0x0a\n    /* \"praticals/2-5-Assignment.sol\":223:250  uint public assign_mul = 10 */\n  0x03\n  sstore\n    /* \"praticals/2-5-Assignment.sol\":282:284  50 */\n  0x32\n    /* \"praticals/2-5-Assignment.sol\":257:284  uint public assign_div = 50 */\n  0x04\n  sstore\n    /* \"praticals/2-5-Assignment.sol\":316:318  32 */\n  0x20\n    /* \"praticals/2-5-Assignment.sol\":291:318  uint public assign_mod = 32 */\n  0x05\n  sstore\n    /* \"praticals/2-5-Assignment.sol\":58:583  contract SolidityTest {\r... */\n  callvalue\n    /* \"--CODEGEN--\":8:17   */\n  dup1\n    /* \"--CODEGEN--\":5:7   */\n  iszero\n  tag_1\n  jumpi\n    /* \"--CODEGEN--\":30:31   */\n  0x00\n    /* \"--CODEGEN--\":27:28   */\n  dup1\n    /* \"--CODEGEN--\":20:32   */\n  revert\n    /* \"--CODEGEN--\":5:7   */\ntag_1:\n    /* \"praticals/2-5-Assignment.sol\":58:583  contract SolidityTest {\r... */\n  pop\n  dataSize(sub_0)\n  dup1\n  dataOffset(sub_0)\n  0x00\n  codecopy\n  0x00\n  return\nstop\n\nsub_0: assembly {\n        /* \"praticals/2-5-Assignment.sol\":58:583  contract SolidityTest {\r... */\n      mstore(0x40, 0x80)\n      callvalue\n        /* \"--CODEGEN--\":8:17   */\n      dup1\n        /* \"--CODEGEN--\":5:7   */\n      iszero\n      tag_1\n      jumpi\n        /* \"--CODEGEN--\":30:31   */\n      0x00\n        /* \"--CODEGEN--\":27:28   */\n      dup1\n        /* \"--CODEGEN--\":20:32   */\n      revert\n        /* \"--CODEGEN--\":5:7   */\n    tag_1:\n        /* \"praticals/2-5-Assignment.sol\":58:583  contract SolidityTest {\r... */\n      pop\n      jumpi(tag_2, lt(calldatasize, 0x04))\n      shr(0xe0, calldataload(0x00))\n      dup1\n      0x71ca2ecf\n      gt\n      tag_10\n      jumpi\n      dup1\n      0x71ca2ecf\n      eq\n      tag_6\n      jumpi\n      dup1\n      0x891dfc3e\n      eq\n      tag_7\n      jumpi\n      dup1\n      0xc91fa90e\n      eq\n      tag_8\n      jumpi\n      dup1\n      0xde292789\n      eq\n      tag_9\n      jumpi\n      jump(tag_2)\n    tag_10:\n      dup1\n      0x0eb325b2\n      eq\n      tag_3\n      jumpi\n      dup1\n      0x372512d6\n      eq\n      tag_4\n      jumpi\n      dup1\n      0x5da25add\n      eq\n      tag_5\n      jumpi\n    tag_2:\n      0x00\n      dup1\n      revert\n        /* \"praticals/2-5-Assignment.sol\":151:182  uint public assignment_add = 50 */\n    tag_3:\n      tag_11\n      tag_12\n      jump\t// in\n    tag_11:\n      mload(0x40)\n      dup1\n      dup3\n      dup2\n      mstore\n      0x20\n      add\n      swap2\n      pop\n      pop\n      mload(0x40)\n      dup1\n      swap2\n      sub\n      swap1\n      return\n        /* \"praticals/2-5-Assignment.sol\":257:284  uint public assign_div = 50 */\n    tag_4:\n      tag_13\n      tag_14\n      jump\t// in\n    tag_13:\n      mload(0x40)\n      dup1\n      dup3\n      dup2\n      mstore\n      0x20\n      add\n      swap2\n      pop\n      pop\n      mload(0x40)\n      dup1\n      swap2\n      sub\n      swap1\n      return\n        /* \"praticals/2-5-Assignment.sol\":223:250  uint public assign_mul = 10 */\n    tag_5:\n      tag_15\n      tag_16\n      jump\t// in\n    tag_15:\n      mload(0x40)\n      dup1\n      dup3\n      dup2\n      mstore\n      0x20\n      add\n      swap2\n      pop\n      pop\n      mload(0x40)\n      dup1\n      swap2\n      sub\n      swap1\n      return\n        /* \"praticals/2-5-Assignment.sol\":115:144  uint16 public assignment = 20 */\n    tag_6:\n      tag_17\n      tag_18\n      jump\t// in\n    tag_17:\n      mload(0x40)\n      dup1\n      dup3\n      0xffff\n      and\n      0xffff\n      and\n      dup2\n      mstore\n      0x20\n      add\n      swap2\n      pop\n      pop\n      mload(0x40)\n      dup1\n      swap2\n      sub\n      swap1\n      return\n        /* \"praticals/2-5-Assignment.sol\":291:318  uint public assign_mod = 32 */\n    tag_7:\n      tag_19\n      tag_20\n      jump\t// in\n    tag_19:\n      mload(0x40)\n      dup1\n      dup3\n      dup2\n      mstore\n      0x20\n      add\n      swap2\n      pop\n      pop\n      mload(0x40)\n      dup1\n      swap2\n      sub\n      swap1\n      return\n        /* \"praticals/2-5-Assignment.sol\":189:216  uint public assign_sub = 50 */\n    tag_8:\n      tag_21\n      tag_22\n      jump\t// in\n    tag_21:\n      mload(0x40)\n      dup1\n      dup3\n      dup2\n      mstore\n      0x20\n      add\n      swap2\n      pop\n      pop\n      mload(0x40)\n      dup1\n      swap2\n      sub\n      swap1\n      return\n        /* \"praticals/2-5-Assignment.sol\":388:580  function getResult() public{\r... */\n    tag_9:\n      tag_23\n      tag_24\n      jump\t// in\n    tag_23:\n      stop\n        /* \"praticals/2-5-Assignment.sol\":151:182  uint public assignment_add = 50 */\n    tag_12:\n      sload(0x01)\n      dup2\n      jump\t// out\n        /* \"praticals/2-5-Assignment.sol\":257:284  uint public assign_div = 50 */\n    tag_14:\n      sload(0x04)\n      dup2\n      jump\t// out\n        /* \"praticals/2-5-Assignment.sol\":223:250  uint public assign_mul = 10 */\n    tag_16:\n      sload(0x03)\n      dup2\n      jump\t// out\n        /* \"praticals/2-5-Assignment.sol\":115:144  uint16 public assignment = 20 */\n    tag_18:\n      0x00\n      dup1\n      swap1\n      sload\n      swap1\n      0x0100\n      exp\n      swap1\n      div\n      0xffff\n      and\n      dup2\n      jump\t// out\n        /* \"praticals/2-5-Assignment.sol\":291:318  uint public assign_mod = 32 */\n    tag_20:\n      sload(0x05)\n      dup2\n      jump\t// out\n        /* \"praticals/2-5-Assignment.sol\":189:216  uint public assign_sub = 50 */\n    tag_22:\n      sload(0x02)\n      dup2\n      jump\t// out\n        /* \"praticals/2-5-Assignment.sol\":388:580  function getResult() public{\r... */\n    tag_24:\n        /* \"praticals/2-5-Assignment.sol\":444:446  10 */\n      0x0a\n        /* \"praticals/2-5-Assignment.sol\":426:440  assignment_add */\n      0x01\n      0x00\n        /* \"praticals/2-5-Assignment.sol\":426:446  assignment_add += 10 */\n      dup3\n      dup3\n      sload\n      add\n      swap3\n      pop\n      pop\n      dup2\n      swap1\n      sstore\n      pop\n        /* \"praticals/2-5-Assignment.sol\":471:473  20 */\n      0x14\n        /* \"praticals/2-5-Assignment.sol\":457:467  assign_sub */\n      0x02\n      0x00\n        /* \"praticals/2-5-Assignment.sol\":457:473  assign_sub -= 20 */\n      dup3\n      dup3\n      sload\n      sub\n      swap3\n      pop\n      pop\n      dup2\n      swap1\n      sstore\n      pop\n        /* \"praticals/2-5-Assignment.sol\":498:500  10 */\n      0x0a\n        /* \"praticals/2-5-Assignment.sol\":484:494  assign_mul */\n      0x03\n      0x00\n        /* \"praticals/2-5-Assignment.sol\":484:500  assign_mul *= 10 */\n      dup3\n      dup3\n      sload\n      mul\n      swap3\n      pop\n      pop\n      dup2\n      swap1\n      sstore\n      pop\n        /* \"praticals/2-5-Assignment.sol\":525:527  10 */\n      0x0a\n        /* \"praticals/2-5-Assignment.sol\":511:521  assign_div */\n      0x04\n      0x00\n        /* \"praticals/2-5-Assignment.sol\":511:527  assign_div /= 10 */\n      dup3\n      dup3\n      sload\n      dup2\n      tag_26\n      jumpi\n      invalid\n    tag_26:\n      div\n      swap3\n      pop\n      pop\n      dup2\n      swap1\n      sstore\n      pop\n        /* \"praticals/2-5-Assignment.sol\":552:554  20 */\n      0x14\n        /* \"praticals/2-5-Assignment.sol\":538:548  assign_mod */\n      0x05\n      0x00\n        /* \"praticals/2-5-Assignment.sol\":538:554  assign_mod %= 20 */\n      dup3\n      dup3\n      sload\n      dup2\n      tag_27\n      jumpi\n      invalid\n    tag_27:\n      mod\n      swap3\n      pop\n      pop\n      dup2\n      swap1\n      sstore\n      pop\n        /* \"praticals/2-5-Assignment.sol\":388:580  function getResult() public{\r... */\n      jump\t// out\n\n    auxdata: 0xa265627a7a72315820a0de10e65f15694be0cf53d5f3331291be5e4fe1ec162d64cb42317963388fa364736f6c63430005110032\n}\n",
				"bytecode": {
					"linkReferences": {},
					"object": "608060405260146000806101000a81548161ffff021916908361ffff16021790555060326001556032600255600a6003556032600455602060055534801561004657600080fd5b50610213806100566000396000f3fe608060405234801561001057600080fd5b506004361061007d5760003560e01c806371ca2ecf1161005b57806371ca2ecf146100dc578063891dfc3e14610102578063c91fa90e14610120578063de2927891461013e5761007d565b80630eb325b214610082578063372512d6146100a05780635da25add146100be575b600080fd5b61008a610148565b6040518082815260200191505060405180910390f35b6100a861014e565b6040518082815260200191505060405180910390f35b6100c6610154565b6040518082815260200191505060405180910390f35b6100e461015a565b604051808261ffff1661ffff16815260200191505060405180910390f35b61010a61016d565b6040518082815260200191505060405180910390f35b610128610173565b6040518082815260200191505060405180910390f35b610146610179565b005b60015481565b60045481565b60035481565b6000809054906101000a900461ffff1681565b60055481565b60025481565b600a6001600082825401925050819055506014600260008282540392505081905550600a600360008282540292505081905550600a60046000828254816101bc57fe5b0492505081905550601460056000828254816101d457fe5b069250508190555056fea265627a7a72315820a0de10e65f15694be0cf53d5f3331291be5e4fe1ec162d64cb42317963388fa364736f6c63430005110032",
					"opcodes": "PUSH1 0x80 PUSH1 0x40 MSTORE PUSH1 0x14 PUSH1 0x0 DUP1 PUSH2 0x100 EXP DUP2 SLOAD DUP2 PUSH2 0xFFFF MUL NOT AND SWAP1 DUP4 PUSH2 0xFFFF AND MUL OR SWAP1 SSTORE POP PUSH1 0x32 PUSH1 0x1 SSTORE PUSH1 0x32 PUSH1 0x2 SSTORE PUSH1 0xA PUSH1 0x3 SSTORE PUSH1 0x32 PUSH1 0x4 SSTORE PUSH1 0x20 PUSH1 0x5 SSTORE CALLVALUE DUP1 ISZERO PUSH2 0x46 JUMPI PUSH1 0x0 DUP1 REVERT JUMPDEST POP PUSH2 0x213 DUP1 PUSH2 0x56 PUSH1 0x0 CODECOPY PUSH1 0x0 RETURN INVALID PUSH1 0x80 PUSH1 0x40 MSTORE CALLVALUE DUP1 ISZERO PUSH2 0x10 JUMPI PUSH1 0x0 DUP1 REVERT JUMPDEST POP PUSH1 0x4 CALLDATASIZE LT PUSH2 0x7D JUMPI PUSH1 0x0 CALLDATALOAD PUSH1 0xE0 SHR DUP1 PUSH4 0x71CA2ECF GT PUSH2 0x5B JUMPI DUP1 PUSH4 0x71CA2ECF EQ PUSH2 0xDC JUMPI DUP1 PUSH4 0x891DFC3E EQ PUSH2 0x102 JUMPI DUP1 PUSH4 0xC91FA90E EQ PUSH2 0x120 JUMPI DUP1 PUSH4 0xDE292789 EQ PUSH2 0x13E JUMPI PUSH2 0x7D JUMP JUMPDEST DUP1 PUSH4 0xEB325B2 EQ PUSH2 0x82 JUMPI DUP1 PUSH4 0x372512D6 EQ PUSH2 0xA0 JUMPI DUP1 PUSH4 0x5DA25ADD EQ PUSH2 0xBE JUMPI JUMPDEST PUSH1 0x0 DUP1 REVERT JUMPDEST PUSH2 0x8A PUSH2 0x148 JUMP JUMPDEST PUSH1 0x40 MLOAD DUP1 DUP3 DUP2 MSTORE PUSH1 0x20 ADD SWAP2 POP POP PUSH1 0x40 MLOAD DUP1 SWAP2 SUB SWAP1 RETURN JUMPDEST PUSH2 0xA8 PUSH2 0x14E JUMP JUMPDEST PUSH1 0x40 MLOAD DUP1 DUP3 DUP2 MSTORE PUSH1 0x20 ADD SWAP2 POP POP PUSH1 0x40 MLOAD DUP1 SWAP2 SUB SWAP1 RETURN JUMPDEST PUSH2 0xC6 PUSH2 0x154 JUMP JUMPDEST PUSH1 0x40 MLOAD DUP1 DUP3 DUP2 MSTORE PUSH1 0x20 ADD SWAP2 POP POP PUSH1 0x40 MLOAD DUP1 SWAP2 SUB SWAP1 RETURN JUMPDEST PUSH2 0xE4 PUSH2 0x15A JUMP JUMPDEST PUSH1 0x40 MLOAD DUP1 DUP3 PUSH2 0xFFFF AND PUSH2 0xFFFF AND DUP2 MSTORE PUSH1 0x20 ADD SWAP2 POP POP PUSH1 0x40 MLOAD DUP1 SWAP2 SUB SWAP1 RETURN JUMPDEST PUSH2 0x10A PUSH2 0x16D JUMP JUMPDEST PUSH1 0x40 MLOAD DUP1 DUP3 DUP2 MSTORE PUSH1 0x20 ADD SWAP2 POP POP PUSH1 0x40 MLOAD DUP1 SWAP2 SUB SWAP1 RETURN JUMPDEST PUSH2 0x128 PUSH2 0x173 JUMP JUMPDEST PUSH1 0x40 MLOAD DUP1 DUP3 DUP2 MSTORE PUSH1 0x20 ADD SWAP2 POP POP PUSH1 0x40 MLOAD DUP1 SWAP2 SUB SWAP1 RETURN JUMPDEST PUSH2 0x146 PUSH2 0x179 JUMP JUMPDEST STOP JUMPDEST PUSH1 0x1 SLOAD DUP2 JUMP JUMPDEST PUSH1 0x4 SLOAD DUP2 JUMP JUMPDEST PUSH1 0x3 SLOAD DUP2 JUMP JUMPDEST PUSH1 0x0 DUP1 SWAP1 SLOAD SWAP1 PUSH2 0x100 EXP SWAP1 DIV PUSH2 0xFFFF AND DUP2 JUMP JUMPDEST PUSH1 0x5 SLOAD DUP2 JUMP JUMPDEST PUSH1 0x2 SLOAD DUP2 JUMP JUMPDEST PUSH1 0xA PUSH1 0x1 PUSH1 0x0 DUP3 DUP3 SLOAD ADD SWAP3 POP POP DUP2 SWAP1 SSTORE POP PUSH1 0x14 PUSH1 0x2 PUSH1 0x0 DUP3 DUP3 SLOAD SUB SWAP3 POP POP DUP2 SWAP1 SSTORE POP PUSH1 0xA PUSH1 0x3 PUSH1 0x0 DUP3 DUP3 SLOAD MUL SWAP3 POP POP DUP2 SWAP1 SSTORE POP PUSH1 0xA PUSH1 0x4 PUSH1 0x0 DUP3 DUP3 SLOAD DUP2 PUSH2 0x1BC JUMPI INVALID JUMPDEST DIV SWAP3 POP POP DUP2 SWAP1 SSTORE POP PUSH1 0x14 PUSH1 0x5 PUSH1 0x0 DUP3 DUP3 SLOAD DUP2 PUSH2 0x1D4 JUMPI INVALID JUMPDEST MOD SWAP3 POP POP DUP2 SWAP1 SSTORE POP JUMP INVALID LOG2 PUSH6 0x627A7A723158 KECCAK256 LOG0 0xDE LT 0xE6 0x5F ISZERO PUSH10 0x4BE0CF53D5F3331291BE 0x5E 0x4F 0xE1 0xEC AND 0x2D PUSH5 0xCB42317963 CODESIZE DUP16 LOG3 PUSH5 0x736F6C6343 STOP SDIV GT STOP ORIGIN "
				},
				"gasEstimates": {
					"creation": {
						"codeDepositCost": "106200",
						"executionCost": "121050",
						"totalCost": "227250"
					},
					"external": {
						"assign_div()": "1028",
						"assign_mod()": "1027",
						"assign_mul()": "1050",
						"assign_sub()": "1049",
						"assignment()": "1053",
						"assignment_add()": "1006",
						"getResult()": "104415"
					}
				},
				"methodIdentifiers": {
					"assign_div()": "372512d6",
					"assign_mod()": "891dfc3e",
					"assign_mul()": "5da25add",
					"assign_sub()": "c91fa90e",
					"assignment()": "71ca2ecf",
					"assignment_add()": "0eb325b2",
					"getResult()": "de292789"
				}
			},
			"storageLayout": {
				"storage": [
					{
						"astId": 4,
						"contract": "praticals/2-5-Assignment.sol:SolidityTest",
						"label": "assignment",
						"offset": 0,
						"slot": "0",
						"type": "t_uint16"
					},
					{
						"astId": 7,
						"contract": "praticals/2-5-Assignment.sol:SolidityTest",
						"label": "assignment_add",
						"offset": 0,
						"slot": "1",
						"type": "t_uint256"
					},
					{
						"astId": 10,
						"contract": "praticals/2-5-Assignment.sol:SolidityTest",
						"label": "assign_sub",
						"offset": 0,
						"slot": "2",
						"type": "t_uint256"
					},
					{
						"astId": 13,
						"contract": "praticals/2-5-Assignment.sol:SolidityTest",
						"label": "assign_mul",
						"offset": 0,
						"slot": "3",
						"type": "t_uint256"
					},
					{
						"astId": 16,
						"contract": "praticals/2-5-Assignment.sol:SolidityTest",
						"label": "assign_div",
						"offset": 0,
						"slot": "4",
						"type": "t_uint256"
					},
					{
						"astId": 19,
						"contract": "praticals/2-5-Assignment.sol:SolidityTest",
						"label": "assign_mod",
						"offset": 0,
						"slot": "5",
						"type": "t_uint256"
					}
				],
				"types": {
					"t_uint16": {
						"encoding": "inplace",
						"label": "uint16",
						"numberOfBytes": "2"
					},
					"t_uint256": {
						"encoding": "inplace",
						"label": "uint256",
						"numberOfBytes": "32"
					}
				}
			},
			"userdoc": {
				"methods": {}
			}
		}
	}
}