{
	"chainlink-class/price-feed.sol": {
		"ChainlinkPriceOracle": {
			"abi": [
				{
					"inputs": [],
					"stateMutability": "nonpayable",
					"type": "constructor"
				},
				{
					"inputs": [],
					"name": "getLatestPriceFeed",
					"outputs": [
						{
							"internalType": "int256",
							"name": "",
							"type": "int256"
						}
					],
					"stateMutability": "view",
					"type": "function"
				}
			],
			"devdoc": {
				"kind": "dev",
				"methods": {},
				"version": 1
			},
			"evm": {
				"assembly": "    /* \"chainlink-class/price-feed.sol\":140:613  contract ChainlinkPriceOracle {\r... */\n  mstore(0x40, 0x80)\n    /* \"chainlink-class/price-feed.sol\":226:374  constructor() {\r... */\n  callvalue\n  dup1\n  iszero\n  tag_1\n  jumpi\n  0x00\n  dup1\n  revert\ntag_1:\n  pop\n    /* \"chainlink-class/price-feed.sol\":285:327  0xD4a33860578De61DBAbDc8BFdb98FD742fA7028e */\n  0xd4a33860578de61dbabdc8bfdb98fd742fa7028e\n    /* \"chainlink-class/price-feed.sol\":251:260  pricefeed */\n  0x00\n  dup1\n    /* \"chainlink-class/price-feed.sol\":251:328  pricefeed = AggregatorV3Interface(0xD4a33860578De61DBAbDc8BFdb98FD742fA7028e) */\n  0x0100\n  exp\n  dup2\n  sload\n  dup2\n  0xffffffffffffffffffffffffffffffffffffffff\n  mul\n  not\n  and\n  swap1\n  dup4\n  0xffffffffffffffffffffffffffffffffffffffff\n  and\n  mul\n  or\n  swap1\n  sstore\n  pop\n    /* \"chainlink-class/price-feed.sol\":140:613  contract ChainlinkPriceOracle {\r... */\n  dataSize(sub_0)\n  dup1\n  dataOffset(sub_0)\n  0x00\n  codecopy\n  0x00\n  return\nstop\n\nsub_0: assembly {\n        /* \"chainlink-class/price-feed.sol\":140:613  contract ChainlinkPriceOracle {\r... */\n      mstore(0x40, 0x80)\n      callvalue\n      dup1\n      iszero\n      tag_1\n      jumpi\n      0x00\n      dup1\n      revert\n    tag_1:\n      pop\n      jumpi(tag_2, lt(calldatasize, 0x04))\n      shr(0xe0, calldataload(0x00))\n      dup1\n      0x59263611\n      eq\n      tag_3\n      jumpi\n    tag_2:\n      0x00\n      dup1\n      revert\n        /* \"chainlink-class/price-feed.sol\":382:607  function getLatestPriceFeed() public view returns(int) {\r... */\n    tag_3:\n      tag_4\n      tag_5\n      jump\t// in\n    tag_4:\n      mload(0x40)\n      tag_6\n      swap2\n      swap1\n      tag_7\n      jump\t// in\n    tag_6:\n      mload(0x40)\n      dup1\n      swap2\n      sub\n      swap1\n      return\n    tag_5:\n        /* \"chainlink-class/price-feed.sol\":432:435  int */\n      0x00\n        /* \"chainlink-class/price-feed.sol\":449:463  uint80 roundId */\n      dup1\n        /* \"chainlink-class/price-feed.sol\":465:474  int price */\n      0x00\n        /* \"chainlink-class/price-feed.sol\":476:490  uint startedAt */\n      dup1\n        /* \"chainlink-class/price-feed.sol\":492:506  uint timestamp */\n      0x00\n        /* \"chainlink-class/price-feed.sol\":508:528  uint80 answerInRound */\n      dup1\n        /* \"chainlink-class/price-feed.sol\":532:541  pricefeed */\n      0x00\n      dup1\n      sload\n      swap1\n      0x0100\n      exp\n      swap1\n      div\n      0xffffffffffffffffffffffffffffffffffffffff\n      and\n        /* \"chainlink-class/price-feed.sol\":532:557  pricefeed.latestRoundData */\n      0xffffffffffffffffffffffffffffffffffffffff\n      and\n      0xfeaf968c\n        /* \"chainlink-class/price-feed.sol\":532:559  pricefeed.latestRoundData() */\n      mload(0x40)\n      dup2\n      0xffffffff\n      and\n      0xe0\n      shl\n      dup2\n      mstore\n      0x04\n      add\n      0xa0\n      mload(0x40)\n      dup1\n      dup4\n      sub\n      dup2\n      dup7\n      dup1\n      extcodesize\n      iszero\n      dup1\n      iszero\n      tag_9\n      jumpi\n      0x00\n      dup1\n      revert\n    tag_9:\n      pop\n      gas\n      staticcall\n      iszero\n      dup1\n      iszero\n      tag_11\n      jumpi\n      returndatasize\n      0x00\n      dup1\n      returndatacopy\n      revert(0x00, returndatasize)\n    tag_11:\n      pop\n      pop\n      pop\n      pop\n      mload(0x40)\n      returndatasize\n      not(0x1f)\n      0x1f\n      dup3\n      add\n      and\n      dup3\n      add\n      dup1\n      0x40\n      mstore\n      pop\n      dup2\n      add\n      swap1\n      tag_12\n      swap2\n      swap1\n      tag_13\n      jump\t// in\n    tag_12:\n        /* \"chainlink-class/price-feed.sol\":448:559  (uint80 roundId, int price, uint startedAt, uint timestamp, uint80 answerInRound) = pricefeed.latestRoundData() */\n      swap5\n      pop\n      swap5\n      pop\n      swap5\n      pop\n      swap5\n      pop\n      swap5\n      pop\n        /* \"chainlink-class/price-feed.sol\":595:599  1e18 */\n      0x0de0b6b3a7640000\n        /* \"chainlink-class/price-feed.sol\":587:592  price */\n      dup5\n        /* \"chainlink-class/price-feed.sol\":587:599  price / 1e18 */\n      tag_14\n      swap2\n      swap1\n      tag_15\n      jump\t// in\n    tag_14:\n        /* \"chainlink-class/price-feed.sol\":580:599  return price / 1e18 */\n      swap6\n      pop\n      pop\n      pop\n      pop\n      pop\n      pop\n        /* \"chainlink-class/price-feed.sol\":382:607  function getLatestPriceFeed() public view returns(int) {\r... */\n      swap1\n      jump\t// out\n        /* \"#utility.yul\":7:148   */\n    tag_17:\n        /* \"#utility.yul\":63:68   */\n      0x00\n        /* \"#utility.yul\":94:100   */\n      dup2\n        /* \"#utility.yul\":88:101   */\n      mload\n        /* \"#utility.yul\":79:101   */\n      swap1\n      pop\n        /* \"#utility.yul\":110:142   */\n      tag_19\n        /* \"#utility.yul\":136:141   */\n      dup2\n        /* \"#utility.yul\":110:142   */\n      tag_20\n      jump\t// in\n    tag_19:\n        /* \"#utility.yul\":69:148   */\n      swap3\n      swap2\n      pop\n      pop\n      jump\t// out\n        /* \"#utility.yul\":154:297   */\n    tag_21:\n        /* \"#utility.yul\":211:216   */\n      0x00\n        /* \"#utility.yul\":242:248   */\n      dup2\n        /* \"#utility.yul\":236:249   */\n      mload\n        /* \"#utility.yul\":227:249   */\n      swap1\n      pop\n        /* \"#utility.yul\":258:291   */\n      tag_23\n        /* \"#utility.yul\":285:290   */\n      dup2\n        /* \"#utility.yul\":258:291   */\n      tag_24\n      jump\t// in\n    tag_23:\n        /* \"#utility.yul\":217:297   */\n      swap3\n      swap2\n      pop\n      pop\n      jump\t// out\n        /* \"#utility.yul\":303:444   */\n    tag_25:\n        /* \"#utility.yul\":359:364   */\n      0x00\n        /* \"#utility.yul\":390:396   */\n      dup2\n        /* \"#utility.yul\":384:397   */\n      mload\n        /* \"#utility.yul\":375:397   */\n      swap1\n      pop\n        /* \"#utility.yul\":406:438   */\n      tag_27\n        /* \"#utility.yul\":432:437   */\n      dup2\n        /* \"#utility.yul\":406:438   */\n      tag_28\n      jump\t// in\n    tag_27:\n        /* \"#utility.yul\":365:444   */\n      swap3\n      swap2\n      pop\n      pop\n      jump\t// out\n        /* \"#utility.yul\":450:1421   */\n    tag_13:\n        /* \"#utility.yul\":553:559   */\n      0x00\n        /* \"#utility.yul\":561:567   */\n      dup1\n        /* \"#utility.yul\":569:575   */\n      0x00\n        /* \"#utility.yul\":577:583   */\n      dup1\n        /* \"#utility.yul\":585:591   */\n      0x00\n        /* \"#utility.yul\":634:637   */\n      0xa0\n        /* \"#utility.yul\":622:631   */\n      dup7\n        /* \"#utility.yul\":613:620   */\n      dup9\n        /* \"#utility.yul\":609:632   */\n      sub\n        /* \"#utility.yul\":605:638   */\n      slt\n        /* \"#utility.yul\":602:604   */\n      iszero\n      tag_30\n      jumpi\n        /* \"#utility.yul\":641:720   */\n      tag_31\n      tag_32\n      jump\t// in\n    tag_31:\n        /* \"#utility.yul\":602:604   */\n    tag_30:\n        /* \"#utility.yul\":761:762   */\n      0x00\n        /* \"#utility.yul\":786:849   */\n      tag_33\n        /* \"#utility.yul\":841:848   */\n      dup9\n        /* \"#utility.yul\":832:838   */\n      dup3\n        /* \"#utility.yul\":821:830   */\n      dup10\n        /* \"#utility.yul\":817:839   */\n      add\n        /* \"#utility.yul\":786:849   */\n      tag_25\n      jump\t// in\n    tag_33:\n        /* \"#utility.yul\":776:849   */\n      swap6\n      pop\n        /* \"#utility.yul\":732:859   */\n      pop\n        /* \"#utility.yul\":898:900   */\n      0x20\n        /* \"#utility.yul\":924:987   */\n      tag_34\n        /* \"#utility.yul\":979:986   */\n      dup9\n        /* \"#utility.yul\":970:976   */\n      dup3\n        /* \"#utility.yul\":959:968   */\n      dup10\n        /* \"#utility.yul\":955:977   */\n      add\n        /* \"#utility.yul\":924:987   */\n      tag_17\n      jump\t// in\n    tag_34:\n        /* \"#utility.yul\":914:987   */\n      swap5\n      pop\n        /* \"#utility.yul\":869:997   */\n      pop\n        /* \"#utility.yul\":1036:1038   */\n      0x40\n        /* \"#utility.yul\":1062:1126   */\n      tag_35\n        /* \"#utility.yul\":1118:1125   */\n      dup9\n        /* \"#utility.yul\":1109:1115   */\n      dup3\n        /* \"#utility.yul\":1098:1107   */\n      dup10\n        /* \"#utility.yul\":1094:1116   */\n      add\n        /* \"#utility.yul\":1062:1126   */\n      tag_21\n      jump\t// in\n    tag_35:\n        /* \"#utility.yul\":1052:1126   */\n      swap4\n      pop\n        /* \"#utility.yul\":1007:1136   */\n      pop\n        /* \"#utility.yul\":1175:1177   */\n      0x60\n        /* \"#utility.yul\":1201:1265   */\n      tag_36\n        /* \"#utility.yul\":1257:1264   */\n      dup9\n        /* \"#utility.yul\":1248:1254   */\n      dup3\n        /* \"#utility.yul\":1237:1246   */\n      dup10\n        /* \"#utility.yul\":1233:1255   */\n      add\n        /* \"#utility.yul\":1201:1265   */\n      tag_21\n      jump\t// in\n    tag_36:\n        /* \"#utility.yul\":1191:1265   */\n      swap3\n      pop\n        /* \"#utility.yul\":1146:1275   */\n      pop\n        /* \"#utility.yul\":1314:1317   */\n      0x80\n        /* \"#utility.yul\":1341:1404   */\n      tag_37\n        /* \"#utility.yul\":1396:1403   */\n      dup9\n        /* \"#utility.yul\":1387:1393   */\n      dup3\n        /* \"#utility.yul\":1376:1385   */\n      dup10\n        /* \"#utility.yul\":1372:1394   */\n      add\n        /* \"#utility.yul\":1341:1404   */\n      tag_25\n      jump\t// in\n    tag_37:\n        /* \"#utility.yul\":1331:1404   */\n      swap2\n      pop\n        /* \"#utility.yul\":1285:1414   */\n      pop\n        /* \"#utility.yul\":592:1421   */\n      swap3\n      swap6\n      pop\n      swap3\n      swap6\n      swap1\n      swap4\n      pop\n      jump\t// out\n        /* \"#utility.yul\":1427:1542   */\n    tag_38:\n        /* \"#utility.yul\":1512:1535   */\n      tag_40\n        /* \"#utility.yul\":1529:1534   */\n      dup2\n        /* \"#utility.yul\":1512:1535   */\n      tag_41\n      jump\t// in\n    tag_40:\n        /* \"#utility.yul\":1507:1510   */\n      dup3\n        /* \"#utility.yul\":1500:1536   */\n      mstore\n        /* \"#utility.yul\":1490:1542   */\n      pop\n      pop\n      jump\t// out\n        /* \"#utility.yul\":1548:1766   */\n    tag_7:\n        /* \"#utility.yul\":1639:1643   */\n      0x00\n        /* \"#utility.yul\":1677:1679   */\n      0x20\n        /* \"#utility.yul\":1666:1675   */\n      dup3\n        /* \"#utility.yul\":1662:1680   */\n      add\n        /* \"#utility.yul\":1654:1680   */\n      swap1\n      pop\n        /* \"#utility.yul\":1690:1759   */\n      tag_43\n        /* \"#utility.yul\":1756:1757   */\n      0x00\n        /* \"#utility.yul\":1745:1754   */\n      dup4\n        /* \"#utility.yul\":1741:1758   */\n      add\n        /* \"#utility.yul\":1732:1738   */\n      dup5\n        /* \"#utility.yul\":1690:1759   */\n      tag_38\n      jump\t// in\n    tag_43:\n        /* \"#utility.yul\":1644:1766   */\n      swap3\n      swap2\n      pop\n      pop\n      jump\t// out\n        /* \"#utility.yul\":1853:2238   */\n    tag_15:\n        /* \"#utility.yul\":1892:1893   */\n      0x00\n        /* \"#utility.yul\":1909:1928   */\n      tag_47\n        /* \"#utility.yul\":1926:1927   */\n      dup3\n        /* \"#utility.yul\":1909:1928   */\n      tag_41\n      jump\t// in\n    tag_47:\n        /* \"#utility.yul\":1904:1928   */\n      swap2\n      pop\n        /* \"#utility.yul\":1942:1961   */\n      tag_48\n        /* \"#utility.yul\":1959:1960   */\n      dup4\n        /* \"#utility.yul\":1942:1961   */\n      tag_41\n      jump\t// in\n    tag_48:\n        /* \"#utility.yul\":1937:1961   */\n      swap3\n      pop\n        /* \"#utility.yul\":1980:1981   */\n      dup3\n        /* \"#utility.yul\":1970:1972   */\n      tag_49\n      jumpi\n        /* \"#utility.yul\":1985:2003   */\n      tag_50\n      tag_51\n      jump\t// in\n    tag_50:\n        /* \"#utility.yul\":1970:1972   */\n    tag_49:\n        /* \"#utility.yul\":2171:2172   */\n      0x01\n        /* \"#utility.yul\":2168:2169   */\n      0x00\n        /* \"#utility.yul\":2164:2173   */\n      sub\n        /* \"#utility.yul\":2161:2162   */\n      dup4\n        /* \"#utility.yul\":2158:2174   */\n      eq\n        /* \"#utility.yul\":2077:2143   */\n      0x8000000000000000000000000000000000000000000000000000000000000000\n        /* \"#utility.yul\":2074:2075   */\n      dup4\n        /* \"#utility.yul\":2071:2144   */\n      eq\n        /* \"#utility.yul\":2054:2184   */\n      and\n        /* \"#utility.yul\":2051:2053   */\n      iszero\n      tag_52\n      jumpi\n        /* \"#utility.yul\":2187:2205   */\n      tag_53\n      tag_54\n      jump\t// in\n    tag_53:\n        /* \"#utility.yul\":2051:2053   */\n    tag_52:\n        /* \"#utility.yul\":2230:2231   */\n      dup3\n        /* \"#utility.yul\":2227:2228   */\n      dup3\n        /* \"#utility.yul\":2222:2232   */\n      sdiv\n        /* \"#utility.yul\":2217:2232   */\n      swap1\n      pop\n        /* \"#utility.yul\":1894:2238   */\n      swap3\n      swap2\n      pop\n      pop\n      jump\t// out\n        /* \"#utility.yul\":2244:2320   */\n    tag_41:\n        /* \"#utility.yul\":2280:2287   */\n      0x00\n        /* \"#utility.yul\":2309:2314   */\n      dup2\n        /* \"#utility.yul\":2298:2314   */\n      swap1\n      pop\n        /* \"#utility.yul\":2288:2320   */\n      swap2\n      swap1\n      pop\n      jump\t// out\n        /* \"#utility.yul\":2326:2403   */\n    tag_56:\n        /* \"#utility.yul\":2363:2370   */\n      0x00\n        /* \"#utility.yul\":2392:2397   */\n      dup2\n        /* \"#utility.yul\":2381:2397   */\n      swap1\n      pop\n        /* \"#utility.yul\":2371:2403   */\n      swap2\n      swap1\n      pop\n      jump\t// out\n        /* \"#utility.yul\":2409:2514   */\n    tag_58:\n        /* \"#utility.yul\":2445:2452   */\n      0x00\n        /* \"#utility.yul\":2485:2507   */\n      0xffffffffffffffffffff\n        /* \"#utility.yul\":2478:2483   */\n      dup3\n        /* \"#utility.yul\":2474:2508   */\n      and\n        /* \"#utility.yul\":2463:2508   */\n      swap1\n      pop\n        /* \"#utility.yul\":2453:2514   */\n      swap2\n      swap1\n      pop\n      jump\t// out\n        /* \"#utility.yul\":2520:2700   */\n    tag_54:\n        /* \"#utility.yul\":2568:2645   */\n      0x4e487b7100000000000000000000000000000000000000000000000000000000\n        /* \"#utility.yul\":2565:2566   */\n      0x00\n        /* \"#utility.yul\":2558:2646   */\n      mstore\n        /* \"#utility.yul\":2665:2669   */\n      0x11\n        /* \"#utility.yul\":2662:2663   */\n      0x04\n        /* \"#utility.yul\":2655:2670   */\n      mstore\n        /* \"#utility.yul\":2689:2693   */\n      0x24\n        /* \"#utility.yul\":2686:2687   */\n      0x00\n        /* \"#utility.yul\":2679:2694   */\n      revert\n        /* \"#utility.yul\":2706:2886   */\n    tag_51:\n        /* \"#utility.yul\":2754:2831   */\n      0x4e487b7100000000000000000000000000000000000000000000000000000000\n        /* \"#utility.yul\":2751:2752   */\n      0x00\n        /* \"#utility.yul\":2744:2832   */\n      mstore\n        /* \"#utility.yul\":2851:2855   */\n      0x12\n        /* \"#utility.yul\":2848:2849   */\n      0x04\n        /* \"#utility.yul\":2841:2856   */\n      mstore\n        /* \"#utility.yul\":2875:2879   */\n      0x24\n        /* \"#utility.yul\":2872:2873   */\n      0x00\n        /* \"#utility.yul\":2865:2880   */\n      revert\n        /* \"#utility.yul\":3015:3132   */\n    tag_32:\n        /* \"#utility.yul\":3124:3125   */\n      0x00\n        /* \"#utility.yul\":3121:3122   */\n      dup1\n        /* \"#utility.yul\":3114:3126   */\n      revert\n        /* \"#utility.yul\":3138:3258   */\n    tag_20:\n        /* \"#utility.yul\":3210:3233   */\n      tag_66\n        /* \"#utility.yul\":3227:3232   */\n      dup2\n        /* \"#utility.yul\":3210:3233   */\n      tag_41\n      jump\t// in\n    tag_66:\n        /* \"#utility.yul\":3203:3208   */\n      dup2\n        /* \"#utility.yul\":3200:3234   */\n      eq\n        /* \"#utility.yul\":3190:3192   */\n      tag_67\n      jumpi\n        /* \"#utility.yul\":3248:3249   */\n      0x00\n        /* \"#utility.yul\":3245:3246   */\n      dup1\n        /* \"#utility.yul\":3238:3250   */\n      revert\n        /* \"#utility.yul\":3190:3192   */\n    tag_67:\n        /* \"#utility.yul\":3180:3258   */\n      pop\n      jump\t// out\n        /* \"#utility.yul\":3264:3386   */\n    tag_24:\n        /* \"#utility.yul\":3337:3361   */\n      tag_69\n        /* \"#utility.yul\":3355:3360   */\n      dup2\n        /* \"#utility.yul\":3337:3361   */\n      tag_56\n      jump\t// in\n    tag_69:\n        /* \"#utility.yul\":3330:3335   */\n      dup2\n        /* \"#utility.yul\":3327:3362   */\n      eq\n        /* \"#utility.yul\":3317:3319   */\n      tag_70\n      jumpi\n        /* \"#utility.yul\":3376:3377   */\n      0x00\n        /* \"#utility.yul\":3373:3374   */\n      dup1\n        /* \"#utility.yul\":3366:3378   */\n      revert\n        /* \"#utility.yul\":3317:3319   */\n    tag_70:\n        /* \"#utility.yul\":3307:3386   */\n      pop\n      jump\t// out\n        /* \"#utility.yul\":3392:3512   */\n    tag_28:\n        /* \"#utility.yul\":3464:3487   */\n      tag_72\n        /* \"#utility.yul\":3481:3486   */\n      dup2\n        /* \"#utility.yul\":3464:3487   */\n      tag_58\n      jump\t// in\n    tag_72:\n        /* \"#utility.yul\":3457:3462   */\n      dup2\n        /* \"#utility.yul\":3454:3488   */\n      eq\n        /* \"#utility.yul\":3444:3446   */\n      tag_73\n      jumpi\n        /* \"#utility.yul\":3502:3503   */\n      0x00\n        /* \"#utility.yul\":3499:3500   */\n      dup1\n        /* \"#utility.yul\":3492:3504   */\n      revert\n        /* \"#utility.yul\":3444:3446   */\n    tag_73:\n        /* \"#utility.yul\":3434:3512   */\n      pop\n      jump\t// out\n\n    auxdata: 0xa264697066735822122071d7e8804cd5d71121f3d77bad751ea25f3b335324cda7fc1854666f053f2d6264736f6c63430008060033\n}\n",
				"bytecode": {
					"linkReferences": {},
					"object": "608060405234801561001057600080fd5b5073d4a33860578de61dbabdc8bfdb98fd742fa7028e6000806101000a81548173ffffffffffffffffffffffffffffffffffffffff021916908373ffffffffffffffffffffffffffffffffffffffff160217905550610373806100746000396000f3fe608060405234801561001057600080fd5b506004361061002b5760003560e01c80635926361114610030575b600080fd5b61003861004e565b60405161004591906101e6565b60405180910390f35b60008060008060008060008054906101000a900473ffffffffffffffffffffffffffffffffffffffff1673ffffffffffffffffffffffffffffffffffffffff1663feaf968c6040518163ffffffff1660e01b815260040160a06040518083038186803b1580156100bd57600080fd5b505afa1580156100d1573d6000803e3d6000fd5b505050506040513d601f19601f820116820180604052508101906100f5919061015c565b94509450945094509450670de0b6b3a7640000846101139190610201565b9550505050505090565b60008151905061012c816102f8565b92915050565b6000815190506101418161030f565b92915050565b60008151905061015681610326565b92915050565b600080600080600060a08688031215610178576101776102f3565b5b600061018688828901610147565b95505060206101978882890161011d565b94505060406101a888828901610132565b93505060606101b988828901610132565b92505060806101ca88828901610147565b9150509295509295909350565b6101e08161026b565b82525050565b60006020820190506101fb60008301846101d7565b92915050565b600061020c8261026b565b91506102178361026b565b925082610227576102266102c4565b5b600160000383147f8000000000000000000000000000000000000000000000000000000000000000831416156102605761025f610295565b5b828205905092915050565b6000819050919050565b6000819050919050565b600069ffffffffffffffffffff82169050919050565b7f4e487b7100000000000000000000000000000000000000000000000000000000600052601160045260246000fd5b7f4e487b7100000000000000000000000000000000000000000000000000000000600052601260045260246000fd5b600080fd5b6103018161026b565b811461030c57600080fd5b50565b61031881610275565b811461032357600080fd5b50565b61032f8161027f565b811461033a57600080fd5b5056fea264697066735822122071d7e8804cd5d71121f3d77bad751ea25f3b335324cda7fc1854666f053f2d6264736f6c63430008060033",
					"opcodes": "PUSH1 0x80 PUSH1 0x40 MSTORE CALLVALUE DUP1 ISZERO PUSH2 0x10 JUMPI PUSH1 0x0 DUP1 REVERT JUMPDEST POP PUSH20 0xD4A33860578DE61DBABDC8BFDB98FD742FA7028E PUSH1 0x0 DUP1 PUSH2 0x100 EXP DUP2 SLOAD DUP2 PUSH20 0xFFFFFFFFFFFFFFFFFFFFFFFFFFFFFFFFFFFFFFFF MUL NOT AND SWAP1 DUP4 PUSH20 0xFFFFFFFFFFFFFFFFFFFFFFFFFFFFFFFFFFFFFFFF AND MUL OR SWAP1 SSTORE POP PUSH2 0x373 DUP1 PUSH2 0x74 PUSH1 0x0 CODECOPY PUSH1 0x0 RETURN INVALID PUSH1 0x80 PUSH1 0x40 MSTORE CALLVALUE DUP1 ISZERO PUSH2 0x10 JUMPI PUSH1 0x0 DUP1 REVERT JUMPDEST POP PUSH1 0x4 CALLDATASIZE LT PUSH2 0x2B JUMPI PUSH1 0x0 CALLDATALOAD PUSH1 0xE0 SHR DUP1 PUSH4 0x59263611 EQ PUSH2 0x30 JUMPI JUMPDEST PUSH1 0x0 DUP1 REVERT JUMPDEST PUSH2 0x38 PUSH2 0x4E JUMP JUMPDEST PUSH1 0x40 MLOAD PUSH2 0x45 SWAP2 SWAP1 PUSH2 0x1E6 JUMP JUMPDEST PUSH1 0x40 MLOAD DUP1 SWAP2 SUB SWAP1 RETURN JUMPDEST PUSH1 0x0 DUP1 PUSH1 0x0 DUP1 PUSH1 0x0 DUP1 PUSH1 0x0 DUP1 SLOAD SWAP1 PUSH2 0x100 EXP SWAP1 DIV PUSH20 0xFFFFFFFFFFFFFFFFFFFFFFFFFFFFFFFFFFFFFFFF AND PUSH20 0xFFFFFFFFFFFFFFFFFFFFFFFFFFFFFFFFFFFFFFFF AND PUSH4 0xFEAF968C PUSH1 0x40 MLOAD DUP2 PUSH4 0xFFFFFFFF AND PUSH1 0xE0 SHL DUP2 MSTORE PUSH1 0x4 ADD PUSH1 0xA0 PUSH1 0x40 MLOAD DUP1 DUP4 SUB DUP2 DUP7 DUP1 EXTCODESIZE ISZERO DUP1 ISZERO PUSH2 0xBD JUMPI PUSH1 0x0 DUP1 REVERT JUMPDEST POP GAS STATICCALL ISZERO DUP1 ISZERO PUSH2 0xD1 JUMPI RETURNDATASIZE PUSH1 0x0 DUP1 RETURNDATACOPY RETURNDATASIZE PUSH1 0x0 REVERT JUMPDEST POP POP POP POP PUSH1 0x40 MLOAD RETURNDATASIZE PUSH1 0x1F NOT PUSH1 0x1F DUP3 ADD AND DUP3 ADD DUP1 PUSH1 0x40 MSTORE POP DUP2 ADD SWAP1 PUSH2 0xF5 SWAP2 SWAP1 PUSH2 0x15C JUMP JUMPDEST SWAP5 POP SWAP5 POP SWAP5 POP SWAP5 POP SWAP5 POP PUSH8 0xDE0B6B3A7640000 DUP5 PUSH2 0x113 SWAP2 SWAP1 PUSH2 0x201 JUMP JUMPDEST SWAP6 POP POP POP POP POP POP SWAP1 JUMP JUMPDEST PUSH1 0x0 DUP2 MLOAD SWAP1 POP PUSH2 0x12C DUP2 PUSH2 0x2F8 JUMP JUMPDEST SWAP3 SWAP2 POP POP JUMP JUMPDEST PUSH1 0x0 DUP2 MLOAD SWAP1 POP PUSH2 0x141 DUP2 PUSH2 0x30F JUMP JUMPDEST SWAP3 SWAP2 POP POP JUMP JUMPDEST PUSH1 0x0 DUP2 MLOAD SWAP1 POP PUSH2 0x156 DUP2 PUSH2 0x326 JUMP JUMPDEST SWAP3 SWAP2 POP POP JUMP JUMPDEST PUSH1 0x0 DUP1 PUSH1 0x0 DUP1 PUSH1 0x0 PUSH1 0xA0 DUP7 DUP9 SUB SLT ISZERO PUSH2 0x178 JUMPI PUSH2 0x177 PUSH2 0x2F3 JUMP JUMPDEST JUMPDEST PUSH1 0x0 PUSH2 0x186 DUP9 DUP3 DUP10 ADD PUSH2 0x147 JUMP JUMPDEST SWAP6 POP POP PUSH1 0x20 PUSH2 0x197 DUP9 DUP3 DUP10 ADD PUSH2 0x11D JUMP JUMPDEST SWAP5 POP POP PUSH1 0x40 PUSH2 0x1A8 DUP9 DUP3 DUP10 ADD PUSH2 0x132 JUMP JUMPDEST SWAP4 POP POP PUSH1 0x60 PUSH2 0x1B9 DUP9 DUP3 DUP10 ADD PUSH2 0x132 JUMP JUMPDEST SWAP3 POP POP PUSH1 0x80 PUSH2 0x1CA DUP9 DUP3 DUP10 ADD PUSH2 0x147 JUMP JUMPDEST SWAP2 POP POP SWAP3 SWAP6 POP SWAP3 SWAP6 SWAP1 SWAP4 POP JUMP JUMPDEST PUSH2 0x1E0 DUP2 PUSH2 0x26B JUMP JUMPDEST DUP3 MSTORE POP POP JUMP JUMPDEST PUSH1 0x0 PUSH1 0x20 DUP3 ADD SWAP1 POP PUSH2 0x1FB PUSH1 0x0 DUP4 ADD DUP5 PUSH2 0x1D7 JUMP JUMPDEST SWAP3 SWAP2 POP POP JUMP JUMPDEST PUSH1 0x0 PUSH2 0x20C DUP3 PUSH2 0x26B JUMP JUMPDEST SWAP2 POP PUSH2 0x217 DUP4 PUSH2 0x26B JUMP JUMPDEST SWAP3 POP DUP3 PUSH2 0x227 JUMPI PUSH2 0x226 PUSH2 0x2C4 JUMP JUMPDEST JUMPDEST PUSH1 0x1 PUSH1 0x0 SUB DUP4 EQ PUSH32 0x8000000000000000000000000000000000000000000000000000000000000000 DUP4 EQ AND ISZERO PUSH2 0x260 JUMPI PUSH2 0x25F PUSH2 0x295 JUMP JUMPDEST JUMPDEST DUP3 DUP3 SDIV SWAP1 POP SWAP3 SWAP2 POP POP JUMP JUMPDEST PUSH1 0x0 DUP2 SWAP1 POP SWAP2 SWAP1 POP JUMP JUMPDEST PUSH1 0x0 DUP2 SWAP1 POP SWAP2 SWAP1 POP JUMP JUMPDEST PUSH1 0x0 PUSH10 0xFFFFFFFFFFFFFFFFFFFF DUP3 AND SWAP1 POP SWAP2 SWAP1 POP JUMP JUMPDEST PUSH32 0x4E487B7100000000000000000000000000000000000000000000000000000000 PUSH1 0x0 MSTORE PUSH1 0x11 PUSH1 0x4 MSTORE PUSH1 0x24 PUSH1 0x0 REVERT JUMPDEST PUSH32 0x4E487B7100000000000000000000000000000000000000000000000000000000 PUSH1 0x0 MSTORE PUSH1 0x12 PUSH1 0x4 MSTORE PUSH1 0x24 PUSH1 0x0 REVERT JUMPDEST PUSH1 0x0 DUP1 REVERT JUMPDEST PUSH2 0x301 DUP2 PUSH2 0x26B JUMP JUMPDEST DUP2 EQ PUSH2 0x30C JUMPI PUSH1 0x0 DUP1 REVERT JUMPDEST POP JUMP JUMPDEST PUSH2 0x318 DUP2 PUSH2 0x275 JUMP JUMPDEST DUP2 EQ PUSH2 0x323 JUMPI PUSH1 0x0 DUP1 REVERT JUMPDEST POP JUMP JUMPDEST PUSH2 0x32F DUP2 PUSH2 0x27F JUMP JUMPDEST DUP2 EQ PUSH2 0x33A JUMPI PUSH1 0x0 DUP1 REVERT JUMPDEST POP JUMP INVALID LOG2 PUSH5 0x6970667358 0x22 SLT KECCAK256 PUSH18 0xD7E8804CD5D71121F3D77BAD751EA25F3B33 MSTORE8 0x24 0xCD 0xA7 0xFC XOR SLOAD PUSH7 0x6F053F2D626473 PUSH16 0x6C634300080600330000000000000000 "
				},
				"gasEstimates": {
					"creation": {
						"codeDepositCost": "176600",
						"executionCost": "24487",
						"totalCost": "201087"
					},
					"external": {
						"getLatestPriceFeed()": "infinite"
					}
				},
				"methodIdentifiers": {
					"getLatestPriceFeed()": "59263611"
				}
			},
			"storageLayout": {
				"storage": [
					{
						"astId": 51,
						"contract": "chainlink-class/price-feed.sol:ChainlinkPriceOracle",
						"label": "pricefeed",
						"offset": 0,
						"slot": "0",
						"type": "t_contract(AggregatorV3Interface)45"
					}
				],
				"types": {
					"t_contract(AggregatorV3Interface)45": {
						"encoding": "inplace",
						"label": "contract AggregatorV3Interface",
						"numberOfBytes": "20"
					}
				}
			},
			"userdoc": {
				"kind": "user",
				"methods": {},
				"version": 1
			}
		}
	}
}