{
	"data": {
		"bytecode": {
			"linkReferences": {},
			"object": "608060405234801561001057600080fd5b50610114806100206000396000f3fe6080604052348015600f57600080fd5b506004361060285760003560e01c8063243da18c14602d575b600080fd5b60336035565b005b7fc90ed2a0abbce0ddd0cfd1fd303f15bf1a3860b32002dc1ed37873ea8894883033323060405160669392919060ad565b60405180910390a1565b600073ffffffffffffffffffffffffffffffffffffffff82169050919050565b60006099826070565b9050919050565b60a7816090565b82525050565b600060608201905060c0600083018660a0565b60cb602083018560a0565b60d6604083018460a0565b94935050505056fea2646970667358221220ac0cc7a92cfb7e3661bc2d9d54532b6a08b9537612371dcbbce1de20aaa2701864736f6c63430008110033",
			"opcodes": "PUSH1 0x80 PUSH1 0x40 MSTORE CALLVALUE DUP1 ISZERO PUSH2 0x10 JUMPI PUSH1 0x0 DUP1 REVERT JUMPDEST POP PUSH2 0x114 DUP1 PUSH2 0x20 PUSH1 0x0 CODECOPY PUSH1 0x0 RETURN INVALID PUSH1 0x80 PUSH1 0x40 MSTORE CALLVALUE DUP1 ISZERO PUSH1 0xF JUMPI PUSH1 0x0 DUP1 REVERT JUMPDEST POP PUSH1 0x4 CALLDATASIZE LT PUSH1 0x28 JUMPI PUSH1 0x0 CALLDATALOAD PUSH1 0xE0 SHR DUP1 PUSH4 0x243DA18C EQ PUSH1 0x2D JUMPI JUMPDEST PUSH1 0x0 DUP1 REVERT JUMPDEST PUSH1 0x33 PUSH1 0x35 JUMP JUMPDEST STOP JUMPDEST PUSH32 0xC90ED2A0ABBCE0DDD0CFD1FD303F15BF1A3860B32002DC1ED37873EA88948830 CALLER ORIGIN ADDRESS PUSH1 0x40 MLOAD PUSH1 0x66 SWAP4 SWAP3 SWAP2 SWAP1 PUSH1 0xAD JUMP JUMPDEST PUSH1 0x40 MLOAD DUP1 SWAP2 SUB SWAP1 LOG1 JUMP JUMPDEST PUSH1 0x0 PUSH20 0xFFFFFFFFFFFFFFFFFFFFFFFFFFFFFFFFFFFFFFFF DUP3 AND SWAP1 POP SWAP2 SWAP1 POP JUMP JUMPDEST PUSH1 0x0 PUSH1 0x99 DUP3 PUSH1 0x70 JUMP JUMPDEST SWAP1 POP SWAP2 SWAP1 POP JUMP JUMPDEST PUSH1 0xA7 DUP2 PUSH1 0x90 JUMP JUMPDEST DUP3 MSTORE POP POP JUMP JUMPDEST PUSH1 0x0 PUSH1 0x60 DUP3 ADD SWAP1 POP PUSH1 0xC0 PUSH1 0x0 DUP4 ADD DUP7 PUSH1 0xA0 JUMP JUMPDEST PUSH1 0xCB PUSH1 0x20 DUP4 ADD DUP6 PUSH1 0xA0 JUMP JUMPDEST PUSH1 0xD6 PUSH1 0x40 DUP4 ADD DUP5 PUSH1 0xA0 JUMP JUMPDEST SWAP5 SWAP4 POP POP POP POP JUMP INVALID LOG2 PUSH5 0x6970667358 0x22 SLT KECCAK256 0xAC 0xC 0xC7 0xA9 0x2C 0xFB PUSH31 0x3661BC2D9D54532B6A08B9537612371DCBBCE1DE20AAA2701864736F6C6343 STOP ADDMOD GT STOP CALLER "
		},
		"gasEstimates": {
			"creation": {
				"codeDepositCost": "55200",
				"executionCost": "105",
				"totalCost": "55305"
			},
			"external": {
				"callThis()": "infinite"
			}
		},
		"methodIdentifiers": {
			"callThis()": "243da18c"
		}
	},
	"abi": [
		{
			"anonymous": false,
			"inputs": [
				{
					"indexed": false,
					"internalType": "address",
					"name": "sender",
					"type": "address"
				},
				{
					"indexed": false,
					"internalType": "address",
					"name": "origin",
					"type": "address"
				},
				{
					"indexed": false,
					"internalType": "address",
					"name": "from",
					"type": "address"
				}
			],
			"name": "callEvent",
			"type": "event"
		},
		{
			"inputs": [],
			"name": "callThis",
			"outputs": [],
			"stateMutability": "nonpayable",
			"type": "function"
		}
	]
}