{
	"data": {
		"bytecode": {
			"linkReferences": {},
			"object": "608060405234801561001057600080fd5b50610165806100206000396000f3fe608060405234801561001057600080fd5b50600436106100365760003560e01c80634d53da1d1461003b578063f24fc90314610060575b600080fd5b61004e610049366004610116565b610073565b60405190815260200160405180910390f35b61004e61006e366004610116565b6100ea565b60008082121561008557506005919050565b600082121580156100975750600a8213155b156100a457506001919050565b600b82121580156100b6575060148213155b156100c357506002919050565b601582121580156100d55750601e8213155b156100e257506003919050565b506004919050565b6000600a8211156100fd57506000919050565b600a82101561010e57506001919050565b506002919050565b60006020828403121561012857600080fd5b503591905056fea2646970667358221220545c74158746df8ad9262e849be6b12d4c8f1f13e07c1d7d5a6840b5c64d0f6064736f6c63430008080033",
			"opcodes": "PUSH1 0x80 PUSH1 0x40 MSTORE CALLVALUE DUP1 ISZERO PUSH2 0x10 JUMPI PUSH1 0x0 DUP1 REVERT JUMPDEST POP PUSH2 0x165 DUP1 PUSH2 0x20 PUSH1 0x0 CODECOPY PUSH1 0x0 RETURN INVALID PUSH1 0x80 PUSH1 0x40 MSTORE CALLVALUE DUP1 ISZERO PUSH2 0x10 JUMPI PUSH1 0x0 DUP1 REVERT JUMPDEST POP PUSH1 0x4 CALLDATASIZE LT PUSH2 0x36 JUMPI PUSH1 0x0 CALLDATALOAD PUSH1 0xE0 SHR DUP1 PUSH4 0x4D53DA1D EQ PUSH2 0x3B JUMPI DUP1 PUSH4 0xF24FC903 EQ PUSH2 0x60 JUMPI JUMPDEST PUSH1 0x0 DUP1 REVERT JUMPDEST PUSH2 0x4E PUSH2 0x49 CALLDATASIZE PUSH1 0x4 PUSH2 0x116 JUMP JUMPDEST PUSH2 0x73 JUMP JUMPDEST PUSH1 0x40 MLOAD SWAP1 DUP2 MSTORE PUSH1 0x20 ADD PUSH1 0x40 MLOAD DUP1 SWAP2 SUB SWAP1 RETURN JUMPDEST PUSH2 0x4E PUSH2 0x6E CALLDATASIZE PUSH1 0x4 PUSH2 0x116 JUMP JUMPDEST PUSH2 0xEA JUMP JUMPDEST PUSH1 0x0 DUP1 DUP3 SLT ISZERO PUSH2 0x85 JUMPI POP PUSH1 0x5 SWAP2 SWAP1 POP JUMP JUMPDEST PUSH1 0x0 DUP3 SLT ISZERO DUP1 ISZERO PUSH2 0x97 JUMPI POP PUSH1 0xA DUP3 SGT ISZERO JUMPDEST ISZERO PUSH2 0xA4 JUMPI POP PUSH1 0x1 SWAP2 SWAP1 POP JUMP JUMPDEST PUSH1 0xB DUP3 SLT ISZERO DUP1 ISZERO PUSH2 0xB6 JUMPI POP PUSH1 0x14 DUP3 SGT ISZERO JUMPDEST ISZERO PUSH2 0xC3 JUMPI POP PUSH1 0x2 SWAP2 SWAP1 POP JUMP JUMPDEST PUSH1 0x15 DUP3 SLT ISZERO DUP1 ISZERO PUSH2 0xD5 JUMPI POP PUSH1 0x1E DUP3 SGT ISZERO JUMPDEST ISZERO PUSH2 0xE2 JUMPI POP PUSH1 0x3 SWAP2 SWAP1 POP JUMP JUMPDEST POP PUSH1 0x4 SWAP2 SWAP1 POP JUMP JUMPDEST PUSH1 0x0 PUSH1 0xA DUP3 GT ISZERO PUSH2 0xFD JUMPI POP PUSH1 0x0 SWAP2 SWAP1 POP JUMP JUMPDEST PUSH1 0xA DUP3 LT ISZERO PUSH2 0x10E JUMPI POP PUSH1 0x1 SWAP2 SWAP1 POP JUMP JUMPDEST POP PUSH1 0x2 SWAP2 SWAP1 POP JUMP JUMPDEST PUSH1 0x0 PUSH1 0x20 DUP3 DUP5 SUB SLT ISZERO PUSH2 0x128 JUMPI PUSH1 0x0 DUP1 REVERT JUMPDEST POP CALLDATALOAD SWAP2 SWAP1 POP JUMP INVALID LOG2 PUSH5 0x6970667358 0x22 SLT KECCAK256 SLOAD 0x5C PUSH21 0x158746DF8AD9262E849BE6B12D4C8F1F13E07C1D7D GAS PUSH9 0x40B5C64D0F6064736F PUSH13 0x63430008080033000000000000 "
		},
		"gasEstimates": {
			"creation": {
				"codeDepositCost": "71400",
				"executionCost": "123",
				"totalCost": "71523"
			},
			"external": {
				"condition(uint256)": "334",
				"condition3(int256)": "475"
			}
		},
		"methodIdentifiers": {
			"condition(uint256)": "f24fc903",
			"condition3(int256)": "4d53da1d"
		}
	},
	"abi": [
		{
			"inputs": [
				{
					"internalType": "uint256",
					"name": "x",
					"type": "uint256"
				}
			],
			"name": "condition",
			"outputs": [
				{
					"internalType": "uint256",
					"name": "",
					"type": "uint256"
				}
			],
			"stateMutability": "pure",
			"type": "function"
		},
		{
			"inputs": [
				{
					"internalType": "int256",
					"name": "x",
					"type": "int256"
				}
			],
			"name": "condition3",
			"outputs": [
				{
					"internalType": "uint256",
					"name": "",
					"type": "uint256"
				}
			],
			"stateMutability": "pure",
			"type": "function"
		}
	]
}