{
	"Defi-project/bank.sol": {
		"Bank": {
			"abi": [
				{
					"inputs": [],
					"stateMutability": "nonpayable",
					"type": "constructor"
				},
				{
					"inputs": [
						{
							"internalType": "uint256",
							"name": "",
							"type": "uint256"
						}
					],
					"name": "assets",
					"outputs": [
						{
							"internalType": "string",
							"name": "name",
							"type": "string"
						},
						{
							"internalType": "uint256",
							"name": "balance",
							"type": "uint256"
						},
						{
							"internalType": "uint256",
							"name": "timestamp",
							"type": "uint256"
						},
						{
							"internalType": "address",
							"name": "from",
							"type": "address"
						}
					],
					"stateMutability": "view",
					"type": "function"
				},
				{
					"inputs": [
						{
							"internalType": "string",
							"name": "name",
							"type": "string"
						},
						{
							"internalType": "uint256",
							"name": "amount",
							"type": "uint256"
						}
					],
					"name": "depositAsset",
					"outputs": [],
					"stateMutability": "payable",
					"type": "function"
				},
				{
					"inputs": [],
					"name": "getContactBalance",
					"outputs": [
						{
							"internalType": "uint256",
							"name": "",
							"type": "uint256"
						}
					],
					"stateMutability": "view",
					"type": "function"
				},
				{
					"inputs": [],
					"name": "owner",
					"outputs": [
						{
							"internalType": "address",
							"name": "",
							"type": "address"
						}
					],
					"stateMutability": "view",
					"type": "function"
				}
			],
			"devdoc": {
				"kind": "dev",
				"methods": {},
				"version": 1
			},
			"evm": {
				"assembly": "    /* \"Defi-project/bank.sol\":60:916  contract Bank {... */\n  mstore(0x40, 0x80)\n    /* \"Defi-project/bank.sol\":276:327  constructor() {... */\n  callvalue\n  dup1\n  iszero\n  tag_1\n  jumpi\n  0x00\n  dup1\n  revert\ntag_1:\n  pop\n    /* \"Defi-project/bank.sol\":309:319  msg.sender */\n  caller\n    /* \"Defi-project/bank.sol\":301:306  owner */\n  0x01\n  0x00\n    /* \"Defi-project/bank.sol\":301:319  owner = msg.sender */\n  0x0100\n  exp\n  dup2\n  sload\n  dup2\n  0xffffffffffffffffffffffffffffffffffffffff\n  mul\n  not\n  and\n  swap1\n  dup4\n  0xffffffffffffffffffffffffffffffffffffffff\n  and\n  mul\n  or\n  swap1\n  sstore\n  pop\n    /* \"Defi-project/bank.sol\":60:916  contract Bank {... */\n  dataSize(sub_0)\n  dup1\n  dataOffset(sub_0)\n  0x00\n  codecopy\n  0x00\n  return\nstop\n\nsub_0: assembly {\n        /* \"Defi-project/bank.sol\":60:916  contract Bank {... */\n      mstore(0x40, 0x80)\n      jumpi(tag_1, lt(calldatasize, 0x04))\n      shr(0xe0, calldataload(0x00))\n      dup1\n      0x8da5cb5b\n      eq\n      tag_2\n      jumpi\n      dup1\n      0xce7f450d\n      eq\n      tag_3\n      jumpi\n      dup1\n      0xcf35bdd0\n      eq\n      tag_4\n      jumpi\n      dup1\n      0xe48aabd5\n      eq\n      tag_5\n      jumpi\n    tag_1:\n      0x00\n      dup1\n      revert\n        /* \"Defi-project/bank.sol\":247:267  address public owner */\n    tag_2:\n      callvalue\n      dup1\n      iszero\n      tag_6\n      jumpi\n      0x00\n      dup1\n      revert\n    tag_6:\n      pop\n      tag_7\n      tag_8\n      jump\t// in\n    tag_7:\n      mload(0x40)\n      tag_9\n      swap2\n      swap1\n      tag_10\n      jump\t// in\n    tag_9:\n      mload(0x40)\n      dup1\n      swap2\n      sub\n      swap1\n      return\n        /* \"Defi-project/bank.sol\":649:799  function depositAsset(string memory name, uint amount) public payable {... */\n    tag_3:\n      tag_11\n      0x04\n      dup1\n      calldatasize\n      sub\n      dup2\n      add\n      swap1\n      tag_12\n      swap2\n      swap1\n      tag_13\n      jump\t// in\n    tag_12:\n      tag_14\n      jump\t// in\n    tag_11:\n      stop\n        /* \"Defi-project/bank.sol\":213:234  Asset[] public assets */\n    tag_4:\n      callvalue\n      dup1\n      iszero\n      tag_15\n      jumpi\n      0x00\n      dup1\n      revert\n    tag_15:\n      pop\n      tag_16\n      0x04\n      dup1\n      calldatasize\n      sub\n      dup2\n      add\n      swap1\n      tag_17\n      swap2\n      swap1\n      tag_18\n      jump\t// in\n    tag_17:\n      tag_19\n      jump\t// in\n    tag_16:\n      mload(0x40)\n      tag_20\n      swap5\n      swap4\n      swap3\n      swap2\n      swap1\n      tag_21\n      jump\t// in\n    tag_20:\n      mload(0x40)\n      dup1\n      swap2\n      sub\n      swap1\n      return\n        /* \"Defi-project/bank.sol\":809:911  function getContactBalance() view public returns(uint) {... */\n    tag_5:\n      callvalue\n      dup1\n      iszero\n      tag_22\n      jumpi\n      0x00\n      dup1\n      revert\n    tag_22:\n      pop\n      tag_23\n      tag_24\n      jump\t// in\n    tag_23:\n      mload(0x40)\n      tag_25\n      swap2\n      swap1\n      tag_26\n      jump\t// in\n    tag_25:\n      mload(0x40)\n      dup1\n      swap2\n      sub\n      swap1\n      return\n        /* \"Defi-project/bank.sol\":247:267  address public owner */\n    tag_8:\n      0x01\n      0x00\n      swap1\n      sload\n      swap1\n      0x0100\n      exp\n      swap1\n      div\n      0xffffffffffffffffffffffffffffffffffffffff\n      and\n      dup2\n      jump\t// out\n        /* \"Defi-project/bank.sol\":649:799  function depositAsset(string memory name, uint amount) public payable {... */\n    tag_14:\n        /* \"Defi-project/bank.sol\":730:736  assets */\n      0x00\n        /* \"Defi-project/bank.sol\":742:790  Asset(name, amount, block.timestamp, msg.sender) */\n      mload(0x40)\n      dup1\n      0x80\n      add\n      0x40\n      mstore\n      dup1\n        /* \"Defi-project/bank.sol\":748:752  name */\n      dup5\n        /* \"Defi-project/bank.sol\":742:790  Asset(name, amount, block.timestamp, msg.sender) */\n      dup2\n      mstore\n      0x20\n      add\n        /* \"Defi-project/bank.sol\":754:760  amount */\n      dup4\n        /* \"Defi-project/bank.sol\":742:790  Asset(name, amount, block.timestamp, msg.sender) */\n      dup2\n      mstore\n      0x20\n      add\n        /* \"Defi-project/bank.sol\":762:777  block.timestamp */\n      timestamp\n        /* \"Defi-project/bank.sol\":742:790  Asset(name, amount, block.timestamp, msg.sender) */\n      dup2\n      mstore\n      0x20\n      add\n        /* \"Defi-project/bank.sol\":779:789  msg.sender */\n      caller\n        /* \"Defi-project/bank.sol\":742:790  Asset(name, amount, block.timestamp, msg.sender) */\n      0xffffffffffffffffffffffffffffffffffffffff\n      and\n      dup2\n      mstore\n      pop\n        /* \"Defi-project/bank.sol\":730:791  assets.push(Asset(name, amount, block.timestamp, msg.sender)) */\n      swap1\n      dup1\n      0x01\n      dup2\n      sload\n      add\n      dup1\n      dup3\n      sstore\n      dup1\n      swap2\n      pop\n      pop\n      0x01\n      swap1\n      sub\n      swap1\n      0x00\n      mstore\n      keccak256(0x00, 0x20)\n      swap1\n      0x04\n      mul\n      add\n      0x00\n      swap1\n      swap2\n      swap1\n      swap2\n      swap1\n      swap2\n      pop\n      0x00\n      dup3\n      add\n      mload\n      dup2\n      0x00\n      add\n      swap1\n      dup2\n      tag_29\n      swap2\n      swap1\n      tag_30\n      jump\t// in\n    tag_29:\n      pop\n      0x20\n      dup3\n      add\n      mload\n      dup2\n      0x01\n      add\n      sstore\n      0x40\n      dup3\n      add\n      mload\n      dup2\n      0x02\n      add\n      sstore\n      0x60\n      dup3\n      add\n      mload\n      dup2\n      0x03\n      add\n      exp(0x0100, 0x00)\n      dup2\n      sload\n      dup2\n      0xffffffffffffffffffffffffffffffffffffffff\n      mul\n      not\n      and\n      swap1\n      dup4\n      0xffffffffffffffffffffffffffffffffffffffff\n      and\n      mul\n      or\n      swap1\n      sstore\n      pop\n      pop\n      pop\n        /* \"Defi-project/bank.sol\":649:799  function depositAsset(string memory name, uint amount) public payable {... */\n      pop\n      pop\n      jump\t// out\n        /* \"Defi-project/bank.sol\":213:234  Asset[] public assets */\n    tag_19:\n      0x00\n      dup2\n      dup2\n      sload\n      dup2\n      lt\n      tag_31\n      jumpi\n      0x00\n      dup1\n      revert\n    tag_31:\n      swap1\n      0x00\n      mstore\n      keccak256(0x00, 0x20)\n      swap1\n      0x04\n      mul\n      add\n      0x00\n      swap2\n      pop\n      swap1\n      pop\n      dup1\n      0x00\n      add\n      dup1\n      sload\n      tag_33\n      swap1\n      tag_34\n      jump\t// in\n    tag_33:\n      dup1\n      0x1f\n      add\n      0x20\n      dup1\n      swap2\n      div\n      mul\n      0x20\n      add\n      mload(0x40)\n      swap1\n      dup2\n      add\n      0x40\n      mstore\n      dup1\n      swap3\n      swap2\n      swap1\n      dup2\n      dup2\n      mstore\n      0x20\n      add\n      dup3\n      dup1\n      sload\n      tag_35\n      swap1\n      tag_34\n      jump\t// in\n    tag_35:\n      dup1\n      iszero\n      tag_36\n      jumpi\n      dup1\n      0x1f\n      lt\n      tag_37\n      jumpi\n      0x0100\n      dup1\n      dup4\n      sload\n      div\n      mul\n      dup4\n      mstore\n      swap2\n      0x20\n      add\n      swap2\n      jump(tag_36)\n    tag_37:\n      dup3\n      add\n      swap2\n      swap1\n      0x00\n      mstore\n      keccak256(0x00, 0x20)\n      swap1\n    tag_38:\n      dup2\n      sload\n      dup2\n      mstore\n      swap1\n      0x01\n      add\n      swap1\n      0x20\n      add\n      dup1\n      dup4\n      gt\n      tag_38\n      jumpi\n      dup3\n      swap1\n      sub\n      0x1f\n      and\n      dup3\n      add\n      swap2\n    tag_36:\n      pop\n      pop\n      pop\n      pop\n      pop\n      swap1\n      dup1\n      0x01\n      add\n      sload\n      swap1\n      dup1\n      0x02\n      add\n      sload\n      swap1\n      dup1\n      0x03\n      add\n      0x00\n      swap1\n      sload\n      swap1\n      0x0100\n      exp\n      swap1\n      div\n      0xffffffffffffffffffffffffffffffffffffffff\n      and\n      swap1\n      pop\n      dup5\n      jump\t// out\n        /* \"Defi-project/bank.sol\":809:911  function getContactBalance() view public returns(uint) {... */\n    tag_24:\n        /* \"Defi-project/bank.sol\":858:862  uint */\n      0x00\n        /* \"Defi-project/bank.sol\":882:903  address(this).balance */\n      selfbalance\n        /* \"Defi-project/bank.sol\":875:903  return address(this).balance */\n      swap1\n      pop\n        /* \"Defi-project/bank.sol\":809:911  function getContactBalance() view public returns(uint) {... */\n      swap1\n      jump\t// out\n        /* \"#utility.yul\":7:133   */\n    tag_40:\n        /* \"#utility.yul\":44:51   */\n      0x00\n        /* \"#utility.yul\":84:126   */\n      0xffffffffffffffffffffffffffffffffffffffff\n        /* \"#utility.yul\":77:82   */\n      dup3\n        /* \"#utility.yul\":73:127   */\n      and\n        /* \"#utility.yul\":62:127   */\n      swap1\n      pop\n        /* \"#utility.yul\":7:133   */\n      swap2\n      swap1\n      pop\n      jump\t// out\n        /* \"#utility.yul\":139:235   */\n    tag_41:\n        /* \"#utility.yul\":176:183   */\n      0x00\n        /* \"#utility.yul\":205:229   */\n      tag_83\n        /* \"#utility.yul\":223:228   */\n      dup3\n        /* \"#utility.yul\":205:229   */\n      tag_40\n      jump\t// in\n    tag_83:\n        /* \"#utility.yul\":194:229   */\n      swap1\n      pop\n        /* \"#utility.yul\":139:235   */\n      swap2\n      swap1\n      pop\n      jump\t// out\n        /* \"#utility.yul\":241:359   */\n    tag_42:\n        /* \"#utility.yul\":328:352   */\n      tag_85\n        /* \"#utility.yul\":346:351   */\n      dup2\n        /* \"#utility.yul\":328:352   */\n      tag_41\n      jump\t// in\n    tag_85:\n        /* \"#utility.yul\":323:326   */\n      dup3\n        /* \"#utility.yul\":316:353   */\n      mstore\n        /* \"#utility.yul\":241:359   */\n      pop\n      pop\n      jump\t// out\n        /* \"#utility.yul\":365:587   */\n    tag_10:\n        /* \"#utility.yul\":458:462   */\n      0x00\n        /* \"#utility.yul\":496:498   */\n      0x20\n        /* \"#utility.yul\":485:494   */\n      dup3\n        /* \"#utility.yul\":481:499   */\n      add\n        /* \"#utility.yul\":473:499   */\n      swap1\n      pop\n        /* \"#utility.yul\":509:580   */\n      tag_87\n        /* \"#utility.yul\":577:578   */\n      0x00\n        /* \"#utility.yul\":566:575   */\n      dup4\n        /* \"#utility.yul\":562:579   */\n      add\n        /* \"#utility.yul\":553:559   */\n      dup5\n        /* \"#utility.yul\":509:580   */\n      tag_42\n      jump\t// in\n    tag_87:\n        /* \"#utility.yul\":365:587   */\n      swap3\n      swap2\n      pop\n      pop\n      jump\t// out\n        /* \"#utility.yul\":593:668   */\n    tag_43:\n        /* \"#utility.yul\":626:632   */\n      0x00\n        /* \"#utility.yul\":659:661   */\n      0x40\n        /* \"#utility.yul\":653:662   */\n      mload\n        /* \"#utility.yul\":643:662   */\n      swap1\n      pop\n        /* \"#utility.yul\":593:668   */\n      swap1\n      jump\t// out\n        /* \"#utility.yul\":674:791   */\n    tag_44:\n        /* \"#utility.yul\":783:784   */\n      0x00\n        /* \"#utility.yul\":780:781   */\n      dup1\n        /* \"#utility.yul\":773:785   */\n      revert\n        /* \"#utility.yul\":797:914   */\n    tag_45:\n        /* \"#utility.yul\":906:907   */\n      0x00\n        /* \"#utility.yul\":903:904   */\n      dup1\n        /* \"#utility.yul\":896:908   */\n      revert\n        /* \"#utility.yul\":920:1037   */\n    tag_46:\n        /* \"#utility.yul\":1029:1030   */\n      0x00\n        /* \"#utility.yul\":1026:1027   */\n      dup1\n        /* \"#utility.yul\":1019:1031   */\n      revert\n        /* \"#utility.yul\":1043:1160   */\n    tag_47:\n        /* \"#utility.yul\":1152:1153   */\n      0x00\n        /* \"#utility.yul\":1149:1150   */\n      dup1\n        /* \"#utility.yul\":1142:1154   */\n      revert\n        /* \"#utility.yul\":1166:1268   */\n    tag_48:\n        /* \"#utility.yul\":1207:1213   */\n      0x00\n        /* \"#utility.yul\":1258:1260   */\n      0x1f\n        /* \"#utility.yul\":1254:1261   */\n      not\n        /* \"#utility.yul\":1249:1251   */\n      0x1f\n        /* \"#utility.yul\":1242:1247   */\n      dup4\n        /* \"#utility.yul\":1238:1252   */\n      add\n        /* \"#utility.yul\":1234:1262   */\n      and\n        /* \"#utility.yul\":1224:1262   */\n      swap1\n      pop\n        /* \"#utility.yul\":1166:1268   */\n      swap2\n      swap1\n      pop\n      jump\t// out\n        /* \"#utility.yul\":1274:1454   */\n    tag_49:\n        /* \"#utility.yul\":1322:1399   */\n      0x4e487b7100000000000000000000000000000000000000000000000000000000\n        /* \"#utility.yul\":1319:1320   */\n      0x00\n        /* \"#utility.yul\":1312:1400   */\n      mstore\n        /* \"#utility.yul\":1419:1423   */\n      0x41\n        /* \"#utility.yul\":1416:1417   */\n      0x04\n        /* \"#utility.yul\":1409:1424   */\n      mstore\n        /* \"#utility.yul\":1443:1447   */\n      0x24\n        /* \"#utility.yul\":1440:1441   */\n      0x00\n        /* \"#utility.yul\":1433:1448   */\n      revert\n        /* \"#utility.yul\":1460:1741   */\n    tag_50:\n        /* \"#utility.yul\":1543:1570   */\n      tag_96\n        /* \"#utility.yul\":1565:1569   */\n      dup3\n        /* \"#utility.yul\":1543:1570   */\n      tag_48\n      jump\t// in\n    tag_96:\n        /* \"#utility.yul\":1535:1541   */\n      dup2\n        /* \"#utility.yul\":1531:1571   */\n      add\n        /* \"#utility.yul\":1673:1679   */\n      dup2\n        /* \"#utility.yul\":1661:1671   */\n      dup2\n        /* \"#utility.yul\":1658:1680   */\n      lt\n        /* \"#utility.yul\":1637:1655   */\n      0xffffffffffffffff\n        /* \"#utility.yul\":1625:1635   */\n      dup3\n        /* \"#utility.yul\":1622:1656   */\n      gt\n        /* \"#utility.yul\":1619:1681   */\n      or\n        /* \"#utility.yul\":1616:1704   */\n      iszero\n      tag_97\n      jumpi\n        /* \"#utility.yul\":1684:1702   */\n      tag_98\n      tag_49\n      jump\t// in\n    tag_98:\n        /* \"#utility.yul\":1616:1704   */\n    tag_97:\n        /* \"#utility.yul\":1724:1734   */\n      dup1\n        /* \"#utility.yul\":1720:1722   */\n      0x40\n        /* \"#utility.yul\":1713:1735   */\n      mstore\n        /* \"#utility.yul\":1503:1741   */\n      pop\n        /* \"#utility.yul\":1460:1741   */\n      pop\n      pop\n      jump\t// out\n        /* \"#utility.yul\":1747:1876   */\n    tag_51:\n        /* \"#utility.yul\":1781:1787   */\n      0x00\n        /* \"#utility.yul\":1808:1828   */\n      tag_100\n      tag_43\n      jump\t// in\n    tag_100:\n        /* \"#utility.yul\":1798:1828   */\n      swap1\n      pop\n        /* \"#utility.yul\":1837:1870   */\n      tag_101\n        /* \"#utility.yul\":1865:1869   */\n      dup3\n        /* \"#utility.yul\":1857:1863   */\n      dup3\n        /* \"#utility.yul\":1837:1870   */\n      tag_50\n      jump\t// in\n    tag_101:\n        /* \"#utility.yul\":1747:1876   */\n      swap2\n      swap1\n      pop\n      jump\t// out\n        /* \"#utility.yul\":1882:2190   */\n    tag_52:\n        /* \"#utility.yul\":1944:1948   */\n      0x00\n        /* \"#utility.yul\":2034:2052   */\n      0xffffffffffffffff\n        /* \"#utility.yul\":2026:2032   */\n      dup3\n        /* \"#utility.yul\":2023:2053   */\n      gt\n        /* \"#utility.yul\":2020:2076   */\n      iszero\n      tag_103\n      jumpi\n        /* \"#utility.yul\":2056:2074   */\n      tag_104\n      tag_49\n      jump\t// in\n    tag_104:\n        /* \"#utility.yul\":2020:2076   */\n    tag_103:\n        /* \"#utility.yul\":2094:2123   */\n      tag_105\n        /* \"#utility.yul\":2116:2122   */\n      dup3\n        /* \"#utility.yul\":2094:2123   */\n      tag_48\n      jump\t// in\n    tag_105:\n        /* \"#utility.yul\":2086:2123   */\n      swap1\n      pop\n        /* \"#utility.yul\":2178:2182   */\n      0x20\n        /* \"#utility.yul\":2172:2176   */\n      dup2\n        /* \"#utility.yul\":2168:2183   */\n      add\n        /* \"#utility.yul\":2160:2183   */\n      swap1\n      pop\n        /* \"#utility.yul\":1882:2190   */\n      swap2\n      swap1\n      pop\n      jump\t// out\n        /* \"#utility.yul\":2196:2342   */\n    tag_53:\n        /* \"#utility.yul\":2293:2299   */\n      dup3\n        /* \"#utility.yul\":2288:2291   */\n      dup2\n        /* \"#utility.yul\":2283:2286   */\n      dup4\n        /* \"#utility.yul\":2270:2300   */\n      calldatacopy\n        /* \"#utility.yul\":2334:2335   */\n      0x00\n        /* \"#utility.yul\":2325:2331   */\n      dup4\n        /* \"#utility.yul\":2320:2323   */\n      dup4\n        /* \"#utility.yul\":2316:2332   */\n      add\n        /* \"#utility.yul\":2309:2336   */\n      mstore\n        /* \"#utility.yul\":2196:2342   */\n      pop\n      pop\n      pop\n      jump\t// out\n        /* \"#utility.yul\":2348:2773   */\n    tag_54:\n        /* \"#utility.yul\":2426:2431   */\n      0x00\n        /* \"#utility.yul\":2451:2517   */\n      tag_108\n        /* \"#utility.yul\":2467:2516   */\n      tag_109\n        /* \"#utility.yul\":2509:2515   */\n      dup5\n        /* \"#utility.yul\":2467:2516   */\n      tag_52\n      jump\t// in\n    tag_109:\n        /* \"#utility.yul\":2451:2517   */\n      tag_51\n      jump\t// in\n    tag_108:\n        /* \"#utility.yul\":2442:2517   */\n      swap1\n      pop\n        /* \"#utility.yul\":2540:2546   */\n      dup3\n        /* \"#utility.yul\":2533:2538   */\n      dup2\n        /* \"#utility.yul\":2526:2547   */\n      mstore\n        /* \"#utility.yul\":2578:2582   */\n      0x20\n        /* \"#utility.yul\":2571:2576   */\n      dup2\n        /* \"#utility.yul\":2567:2583   */\n      add\n        /* \"#utility.yul\":2616:2619   */\n      dup5\n        /* \"#utility.yul\":2607:2613   */\n      dup5\n        /* \"#utility.yul\":2602:2605   */\n      dup5\n        /* \"#utility.yul\":2598:2614   */\n      add\n        /* \"#utility.yul\":2595:2620   */\n      gt\n        /* \"#utility.yul\":2592:2704   */\n      iszero\n      tag_110\n      jumpi\n        /* \"#utility.yul\":2623:2702   */\n      tag_111\n      tag_47\n      jump\t// in\n    tag_111:\n        /* \"#utility.yul\":2592:2704   */\n    tag_110:\n        /* \"#utility.yul\":2713:2767   */\n      tag_112\n        /* \"#utility.yul\":2760:2766   */\n      dup5\n        /* \"#utility.yul\":2755:2758   */\n      dup3\n        /* \"#utility.yul\":2750:2753   */\n      dup6\n        /* \"#utility.yul\":2713:2767   */\n      tag_53\n      jump\t// in\n    tag_112:\n        /* \"#utility.yul\":2432:2773   */\n      pop\n        /* \"#utility.yul\":2348:2773   */\n      swap4\n      swap3\n      pop\n      pop\n      pop\n      jump\t// out\n        /* \"#utility.yul\":2793:3133   */\n    tag_55:\n        /* \"#utility.yul\":2849:2854   */\n      0x00\n        /* \"#utility.yul\":2898:2901   */\n      dup3\n        /* \"#utility.yul\":2891:2895   */\n      0x1f\n        /* \"#utility.yul\":2883:2889   */\n      dup4\n        /* \"#utility.yul\":2879:2896   */\n      add\n        /* \"#utility.yul\":2875:2902   */\n      slt\n        /* \"#utility.yul\":2865:2987   */\n      tag_114\n      jumpi\n        /* \"#utility.yul\":2906:2985   */\n      tag_115\n      tag_46\n      jump\t// in\n    tag_115:\n        /* \"#utility.yul\":2865:2987   */\n    tag_114:\n        /* \"#utility.yul\":3023:3029   */\n      dup2\n        /* \"#utility.yul\":3010:3030   */\n      calldataload\n        /* \"#utility.yul\":3048:3127   */\n      tag_116\n        /* \"#utility.yul\":3123:3126   */\n      dup5\n        /* \"#utility.yul\":3115:3121   */\n      dup3\n        /* \"#utility.yul\":3108:3112   */\n      0x20\n        /* \"#utility.yul\":3100:3106   */\n      dup7\n        /* \"#utility.yul\":3096:3113   */\n      add\n        /* \"#utility.yul\":3048:3127   */\n      tag_54\n      jump\t// in\n    tag_116:\n        /* \"#utility.yul\":3039:3127   */\n      swap2\n      pop\n        /* \"#utility.yul\":2855:3133   */\n      pop\n        /* \"#utility.yul\":2793:3133   */\n      swap3\n      swap2\n      pop\n      pop\n      jump\t// out\n        /* \"#utility.yul\":3139:3216   */\n    tag_56:\n        /* \"#utility.yul\":3176:3183   */\n      0x00\n        /* \"#utility.yul\":3205:3210   */\n      dup2\n        /* \"#utility.yul\":3194:3210   */\n      swap1\n      pop\n        /* \"#utility.yul\":3139:3216   */\n      swap2\n      swap1\n      pop\n      jump\t// out\n        /* \"#utility.yul\":3222:3344   */\n    tag_57:\n        /* \"#utility.yul\":3295:3319   */\n      tag_119\n        /* \"#utility.yul\":3313:3318   */\n      dup2\n        /* \"#utility.yul\":3295:3319   */\n      tag_56\n      jump\t// in\n    tag_119:\n        /* \"#utility.yul\":3288:3293   */\n      dup2\n        /* \"#utility.yul\":3285:3320   */\n      eq\n        /* \"#utility.yul\":3275:3338   */\n      tag_120\n      jumpi\n        /* \"#utility.yul\":3334:3335   */\n      0x00\n        /* \"#utility.yul\":3331:3332   */\n      dup1\n        /* \"#utility.yul\":3324:3336   */\n      revert\n        /* \"#utility.yul\":3275:3338   */\n    tag_120:\n        /* \"#utility.yul\":3222:3344   */\n      pop\n      jump\t// out\n        /* \"#utility.yul\":3350:3489   */\n    tag_58:\n        /* \"#utility.yul\":3396:3401   */\n      0x00\n        /* \"#utility.yul\":3434:3440   */\n      dup2\n        /* \"#utility.yul\":3421:3441   */\n      calldataload\n        /* \"#utility.yul\":3412:3441   */\n      swap1\n      pop\n        /* \"#utility.yul\":3450:3483   */\n      tag_122\n        /* \"#utility.yul\":3477:3482   */\n      dup2\n        /* \"#utility.yul\":3450:3483   */\n      tag_57\n      jump\t// in\n    tag_122:\n        /* \"#utility.yul\":3350:3489   */\n      swap3\n      swap2\n      pop\n      pop\n      jump\t// out\n        /* \"#utility.yul\":3495:4149   */\n    tag_13:\n        /* \"#utility.yul\":3573:3579   */\n      0x00\n        /* \"#utility.yul\":3581:3587   */\n      dup1\n        /* \"#utility.yul\":3630:3632   */\n      0x40\n        /* \"#utility.yul\":3618:3627   */\n      dup4\n        /* \"#utility.yul\":3609:3616   */\n      dup6\n        /* \"#utility.yul\":3605:3628   */\n      sub\n        /* \"#utility.yul\":3601:3633   */\n      slt\n        /* \"#utility.yul\":3598:3717   */\n      iszero\n      tag_124\n      jumpi\n        /* \"#utility.yul\":3636:3715   */\n      tag_125\n      tag_44\n      jump\t// in\n    tag_125:\n        /* \"#utility.yul\":3598:3717   */\n    tag_124:\n        /* \"#utility.yul\":3784:3785   */\n      0x00\n        /* \"#utility.yul\":3773:3782   */\n      dup4\n        /* \"#utility.yul\":3769:3786   */\n      add\n        /* \"#utility.yul\":3756:3787   */\n      calldataload\n        /* \"#utility.yul\":3814:3832   */\n      0xffffffffffffffff\n        /* \"#utility.yul\":3806:3812   */\n      dup2\n        /* \"#utility.yul\":3803:3833   */\n      gt\n        /* \"#utility.yul\":3800:3917   */\n      iszero\n      tag_126\n      jumpi\n        /* \"#utility.yul\":3836:3915   */\n      tag_127\n      tag_45\n      jump\t// in\n    tag_127:\n        /* \"#utility.yul\":3800:3917   */\n    tag_126:\n        /* \"#utility.yul\":3941:4004   */\n      tag_128\n        /* \"#utility.yul\":3996:4003   */\n      dup6\n        /* \"#utility.yul\":3987:3993   */\n      dup3\n        /* \"#utility.yul\":3976:3985   */\n      dup7\n        /* \"#utility.yul\":3972:3994   */\n      add\n        /* \"#utility.yul\":3941:4004   */\n      tag_55\n      jump\t// in\n    tag_128:\n        /* \"#utility.yul\":3931:4004   */\n      swap3\n      pop\n        /* \"#utility.yul\":3727:4014   */\n      pop\n        /* \"#utility.yul\":4053:4055   */\n      0x20\n        /* \"#utility.yul\":4079:4132   */\n      tag_129\n        /* \"#utility.yul\":4124:4131   */\n      dup6\n        /* \"#utility.yul\":4115:4121   */\n      dup3\n        /* \"#utility.yul\":4104:4113   */\n      dup7\n        /* \"#utility.yul\":4100:4122   */\n      add\n        /* \"#utility.yul\":4079:4132   */\n      tag_58\n      jump\t// in\n    tag_129:\n        /* \"#utility.yul\":4069:4132   */\n      swap2\n      pop\n        /* \"#utility.yul\":4024:4142   */\n      pop\n        /* \"#utility.yul\":3495:4149   */\n      swap3\n      pop\n      swap3\n      swap1\n      pop\n      jump\t// out\n        /* \"#utility.yul\":4155:4484   */\n    tag_18:\n        /* \"#utility.yul\":4214:4220   */\n      0x00\n        /* \"#utility.yul\":4263:4265   */\n      0x20\n        /* \"#utility.yul\":4251:4260   */\n      dup3\n        /* \"#utility.yul\":4242:4249   */\n      dup5\n        /* \"#utility.yul\":4238:4261   */\n      sub\n        /* \"#utility.yul\":4234:4266   */\n      slt\n        /* \"#utility.yul\":4231:4350   */\n      iszero\n      tag_131\n      jumpi\n        /* \"#utility.yul\":4269:4348   */\n      tag_132\n      tag_44\n      jump\t// in\n    tag_132:\n        /* \"#utility.yul\":4231:4350   */\n    tag_131:\n        /* \"#utility.yul\":4389:4390   */\n      0x00\n        /* \"#utility.yul\":4414:4467   */\n      tag_133\n        /* \"#utility.yul\":4459:4466   */\n      dup5\n        /* \"#utility.yul\":4450:4456   */\n      dup3\n        /* \"#utility.yul\":4439:4448   */\n      dup6\n        /* \"#utility.yul\":4435:4457   */\n      add\n        /* \"#utility.yul\":4414:4467   */\n      tag_58\n      jump\t// in\n    tag_133:\n        /* \"#utility.yul\":4404:4467   */\n      swap2\n      pop\n        /* \"#utility.yul\":4360:4477   */\n      pop\n        /* \"#utility.yul\":4155:4484   */\n      swap3\n      swap2\n      pop\n      pop\n      jump\t// out\n        /* \"#utility.yul\":4490:4589   */\n    tag_59:\n        /* \"#utility.yul\":4542:4548   */\n      0x00\n        /* \"#utility.yul\":4576:4581   */\n      dup2\n        /* \"#utility.yul\":4570:4582   */\n      mload\n        /* \"#utility.yul\":4560:4582   */\n      swap1\n      pop\n        /* \"#utility.yul\":4490:4589   */\n      swap2\n      swap1\n      pop\n      jump\t// out\n        /* \"#utility.yul\":4595:4764   */\n    tag_60:\n        /* \"#utility.yul\":4679:4690   */\n      0x00\n        /* \"#utility.yul\":4713:4719   */\n      dup3\n        /* \"#utility.yul\":4708:4711   */\n      dup3\n        /* \"#utility.yul\":4701:4720   */\n      mstore\n        /* \"#utility.yul\":4753:4757   */\n      0x20\n        /* \"#utility.yul\":4748:4751   */\n      dup3\n        /* \"#utility.yul\":4744:4758   */\n      add\n        /* \"#utility.yul\":4729:4758   */\n      swap1\n      pop\n        /* \"#utility.yul\":4595:4764   */\n      swap3\n      swap2\n      pop\n      pop\n      jump\t// out\n        /* \"#utility.yul\":4770:5016   */\n    tag_61:\n        /* \"#utility.yul\":4851:4852   */\n      0x00\n        /* \"#utility.yul\":4861:4974   */\n    tag_137:\n        /* \"#utility.yul\":4875:4881   */\n      dup4\n        /* \"#utility.yul\":4872:4873   */\n      dup2\n        /* \"#utility.yul\":4869:4882   */\n      lt\n        /* \"#utility.yul\":4861:4974   */\n      iszero\n      tag_139\n      jumpi\n        /* \"#utility.yul\":4960:4961   */\n      dup1\n        /* \"#utility.yul\":4955:4958   */\n      dup3\n        /* \"#utility.yul\":4951:4962   */\n      add\n        /* \"#utility.yul\":4945:4963   */\n      mload\n        /* \"#utility.yul\":4941:4942   */\n      dup2\n        /* \"#utility.yul\":4936:4939   */\n      dup5\n        /* \"#utility.yul\":4932:4943   */\n      add\n        /* \"#utility.yul\":4925:4964   */\n      mstore\n        /* \"#utility.yul\":4897:4899   */\n      0x20\n        /* \"#utility.yul\":4894:4895   */\n      dup2\n        /* \"#utility.yul\":4890:4900   */\n      add\n        /* \"#utility.yul\":4885:4900   */\n      swap1\n      pop\n        /* \"#utility.yul\":4861:4974   */\n      jump(tag_137)\n    tag_139:\n        /* \"#utility.yul\":5008:5009   */\n      0x00\n        /* \"#utility.yul\":4999:5005   */\n      dup5\n        /* \"#utility.yul\":4994:4997   */\n      dup5\n        /* \"#utility.yul\":4990:5006   */\n      add\n        /* \"#utility.yul\":4983:5010   */\n      mstore\n        /* \"#utility.yul\":4832:5016   */\n      pop\n        /* \"#utility.yul\":4770:5016   */\n      pop\n      pop\n      pop\n      jump\t// out\n        /* \"#utility.yul\":5022:5399   */\n    tag_62:\n        /* \"#utility.yul\":5110:5113   */\n      0x00\n        /* \"#utility.yul\":5138:5177   */\n      tag_141\n        /* \"#utility.yul\":5171:5176   */\n      dup3\n        /* \"#utility.yul\":5138:5177   */\n      tag_59\n      jump\t// in\n    tag_141:\n        /* \"#utility.yul\":5193:5264   */\n      tag_142\n        /* \"#utility.yul\":5257:5263   */\n      dup2\n        /* \"#utility.yul\":5252:5255   */\n      dup6\n        /* \"#utility.yul\":5193:5264   */\n      tag_60\n      jump\t// in\n    tag_142:\n        /* \"#utility.yul\":5186:5264   */\n      swap4\n      pop\n        /* \"#utility.yul\":5273:5338   */\n      tag_143\n        /* \"#utility.yul\":5331:5337   */\n      dup2\n        /* \"#utility.yul\":5326:5329   */\n      dup6\n        /* \"#utility.yul\":5319:5323   */\n      0x20\n        /* \"#utility.yul\":5312:5317   */\n      dup7\n        /* \"#utility.yul\":5308:5324   */\n      add\n        /* \"#utility.yul\":5273:5338   */\n      tag_61\n      jump\t// in\n    tag_143:\n        /* \"#utility.yul\":5363:5392   */\n      tag_144\n        /* \"#utility.yul\":5385:5391   */\n      dup2\n        /* \"#utility.yul\":5363:5392   */\n      tag_48\n      jump\t// in\n    tag_144:\n        /* \"#utility.yul\":5358:5361   */\n      dup5\n        /* \"#utility.yul\":5354:5393   */\n      add\n        /* \"#utility.yul\":5347:5393   */\n      swap2\n      pop\n        /* \"#utility.yul\":5114:5399   */\n      pop\n        /* \"#utility.yul\":5022:5399   */\n      swap3\n      swap2\n      pop\n      pop\n      jump\t// out\n        /* \"#utility.yul\":5405:5523   */\n    tag_63:\n        /* \"#utility.yul\":5492:5516   */\n      tag_146\n        /* \"#utility.yul\":5510:5515   */\n      dup2\n        /* \"#utility.yul\":5492:5516   */\n      tag_56\n      jump\t// in\n    tag_146:\n        /* \"#utility.yul\":5487:5490   */\n      dup3\n        /* \"#utility.yul\":5480:5517   */\n      mstore\n        /* \"#utility.yul\":5405:5523   */\n      pop\n      pop\n      jump\t// out\n        /* \"#utility.yul\":5529:6173   */\n    tag_21:\n        /* \"#utility.yul\":5726:5730   */\n      0x00\n        /* \"#utility.yul\":5764:5767   */\n      0x80\n        /* \"#utility.yul\":5753:5762   */\n      dup3\n        /* \"#utility.yul\":5749:5768   */\n      add\n        /* \"#utility.yul\":5741:5768   */\n      swap1\n      pop\n        /* \"#utility.yul\":5814:5823   */\n      dup2\n        /* \"#utility.yul\":5808:5812   */\n      dup2\n        /* \"#utility.yul\":5804:5824   */\n      sub\n        /* \"#utility.yul\":5800:5801   */\n      0x00\n        /* \"#utility.yul\":5789:5798   */\n      dup4\n        /* \"#utility.yul\":5785:5802   */\n      add\n        /* \"#utility.yul\":5778:5825   */\n      mstore\n        /* \"#utility.yul\":5842:5920   */\n      tag_148\n        /* \"#utility.yul\":5915:5919   */\n      dup2\n        /* \"#utility.yul\":5906:5912   */\n      dup8\n        /* \"#utility.yul\":5842:5920   */\n      tag_62\n      jump\t// in\n    tag_148:\n        /* \"#utility.yul\":5834:5920   */\n      swap1\n      pop\n        /* \"#utility.yul\":5930:6002   */\n      tag_149\n        /* \"#utility.yul\":5998:6000   */\n      0x20\n        /* \"#utility.yul\":5987:5996   */\n      dup4\n        /* \"#utility.yul\":5983:6001   */\n      add\n        /* \"#utility.yul\":5974:5980   */\n      dup7\n        /* \"#utility.yul\":5930:6002   */\n      tag_63\n      jump\t// in\n    tag_149:\n        /* \"#utility.yul\":6012:6084   */\n      tag_150\n        /* \"#utility.yul\":6080:6082   */\n      0x40\n        /* \"#utility.yul\":6069:6078   */\n      dup4\n        /* \"#utility.yul\":6065:6083   */\n      add\n        /* \"#utility.yul\":6056:6062   */\n      dup6\n        /* \"#utility.yul\":6012:6084   */\n      tag_63\n      jump\t// in\n    tag_150:\n        /* \"#utility.yul\":6094:6166   */\n      tag_151\n        /* \"#utility.yul\":6162:6164   */\n      0x60\n        /* \"#utility.yul\":6151:6160   */\n      dup4\n        /* \"#utility.yul\":6147:6165   */\n      add\n        /* \"#utility.yul\":6138:6144   */\n      dup5\n        /* \"#utility.yul\":6094:6166   */\n      tag_42\n      jump\t// in\n    tag_151:\n        /* \"#utility.yul\":5529:6173   */\n      swap6\n      swap5\n      pop\n      pop\n      pop\n      pop\n      pop\n      jump\t// out\n        /* \"#utility.yul\":6179:6401   */\n    tag_26:\n        /* \"#utility.yul\":6272:6276   */\n      0x00\n        /* \"#utility.yul\":6310:6312   */\n      0x20\n        /* \"#utility.yul\":6299:6308   */\n      dup3\n        /* \"#utility.yul\":6295:6313   */\n      add\n        /* \"#utility.yul\":6287:6313   */\n      swap1\n      pop\n        /* \"#utility.yul\":6323:6394   */\n      tag_153\n        /* \"#utility.yul\":6391:6392   */\n      0x00\n        /* \"#utility.yul\":6380:6389   */\n      dup4\n        /* \"#utility.yul\":6376:6393   */\n      add\n        /* \"#utility.yul\":6367:6373   */\n      dup5\n        /* \"#utility.yul\":6323:6394   */\n      tag_63\n      jump\t// in\n    tag_153:\n        /* \"#utility.yul\":6179:6401   */\n      swap3\n      swap2\n      pop\n      pop\n      jump\t// out\n        /* \"#utility.yul\":6407:6587   */\n    tag_64:\n        /* \"#utility.yul\":6455:6532   */\n      0x4e487b7100000000000000000000000000000000000000000000000000000000\n        /* \"#utility.yul\":6452:6453   */\n      0x00\n        /* \"#utility.yul\":6445:6533   */\n      mstore\n        /* \"#utility.yul\":6552:6556   */\n      0x22\n        /* \"#utility.yul\":6549:6550   */\n      0x04\n        /* \"#utility.yul\":6542:6557   */\n      mstore\n        /* \"#utility.yul\":6576:6580   */\n      0x24\n        /* \"#utility.yul\":6573:6574   */\n      0x00\n        /* \"#utility.yul\":6566:6581   */\n      revert\n        /* \"#utility.yul\":6593:6913   */\n    tag_34:\n        /* \"#utility.yul\":6637:6643   */\n      0x00\n        /* \"#utility.yul\":6674:6675   */\n      0x02\n        /* \"#utility.yul\":6668:6672   */\n      dup3\n        /* \"#utility.yul\":6664:6676   */\n      div\n        /* \"#utility.yul\":6654:6676   */\n      swap1\n      pop\n        /* \"#utility.yul\":6721:6722   */\n      0x01\n        /* \"#utility.yul\":6715:6719   */\n      dup3\n        /* \"#utility.yul\":6711:6723   */\n      and\n        /* \"#utility.yul\":6742:6760   */\n      dup1\n        /* \"#utility.yul\":6732:6813   */\n      tag_156\n      jumpi\n        /* \"#utility.yul\":6798:6802   */\n      0x7f\n        /* \"#utility.yul\":6790:6796   */\n      dup3\n        /* \"#utility.yul\":6786:6803   */\n      and\n        /* \"#utility.yul\":6776:6803   */\n      swap2\n      pop\n        /* \"#utility.yul\":6732:6813   */\n    tag_156:\n        /* \"#utility.yul\":6860:6862   */\n      0x20\n        /* \"#utility.yul\":6852:6858   */\n      dup3\n        /* \"#utility.yul\":6849:6863   */\n      lt\n        /* \"#utility.yul\":6829:6847   */\n      dup2\n        /* \"#utility.yul\":6826:6864   */\n      sub\n        /* \"#utility.yul\":6823:6907   */\n      tag_157\n      jumpi\n        /* \"#utility.yul\":6879:6897   */\n      tag_158\n      tag_64\n      jump\t// in\n    tag_158:\n        /* \"#utility.yul\":6823:6907   */\n    tag_157:\n        /* \"#utility.yul\":6644:6913   */\n      pop\n        /* \"#utility.yul\":6593:6913   */\n      swap2\n      swap1\n      pop\n      jump\t// out\n        /* \"#utility.yul\":6919:7060   */\n    tag_65:\n        /* \"#utility.yul\":6968:6972   */\n      0x00\n        /* \"#utility.yul\":6991:6994   */\n      dup2\n        /* \"#utility.yul\":6983:6994   */\n      swap1\n      pop\n        /* \"#utility.yul\":7014:7017   */\n      dup2\n        /* \"#utility.yul\":7011:7012   */\n      0x00\n        /* \"#utility.yul\":7004:7018   */\n      mstore\n        /* \"#utility.yul\":7048:7052   */\n      0x20\n        /* \"#utility.yul\":7045:7046   */\n      0x00\n        /* \"#utility.yul\":7035:7053   */\n      keccak256\n        /* \"#utility.yul\":7027:7053   */\n      swap1\n      pop\n        /* \"#utility.yul\":6919:7060   */\n      swap2\n      swap1\n      pop\n      jump\t// out\n        /* \"#utility.yul\":7066:7159   */\n    tag_66:\n        /* \"#utility.yul\":7103:7109   */\n      0x00\n        /* \"#utility.yul\":7150:7152   */\n      0x20\n        /* \"#utility.yul\":7145:7147   */\n      0x1f\n        /* \"#utility.yul\":7138:7143   */\n      dup4\n        /* \"#utility.yul\":7134:7148   */\n      add\n        /* \"#utility.yul\":7130:7153   */\n      div\n        /* \"#utility.yul\":7120:7153   */\n      swap1\n      pop\n        /* \"#utility.yul\":7066:7159   */\n      swap2\n      swap1\n      pop\n      jump\t// out\n        /* \"#utility.yul\":7165:7272   */\n    tag_67:\n        /* \"#utility.yul\":7209:7217   */\n      0x00\n        /* \"#utility.yul\":7259:7264   */\n      dup3\n        /* \"#utility.yul\":7253:7257   */\n      dup3\n        /* \"#utility.yul\":7249:7265   */\n      shl\n        /* \"#utility.yul\":7228:7265   */\n      swap1\n      pop\n        /* \"#utility.yul\":7165:7272   */\n      swap3\n      swap2\n      pop\n      pop\n      jump\t// out\n        /* \"#utility.yul\":7278:7671   */\n    tag_68:\n        /* \"#utility.yul\":7347:7353   */\n      0x00\n        /* \"#utility.yul\":7397:7398   */\n      0x08\n        /* \"#utility.yul\":7385:7395   */\n      dup4\n        /* \"#utility.yul\":7381:7399   */\n      mul\n        /* \"#utility.yul\":7420:7517   */\n      tag_163\n        /* \"#utility.yul\":7450:7516   */\n      0xffffffffffffffffffffffffffffffffffffffffffffffffffffffffffffffff\n        /* \"#utility.yul\":7439:7448   */\n      dup3\n        /* \"#utility.yul\":7420:7517   */\n      tag_67\n      jump\t// in\n    tag_163:\n        /* \"#utility.yul\":7538:7577   */\n      tag_164\n        /* \"#utility.yul\":7568:7576   */\n      dup7\n        /* \"#utility.yul\":7557:7566   */\n      dup4\n        /* \"#utility.yul\":7538:7577   */\n      tag_67\n      jump\t// in\n    tag_164:\n        /* \"#utility.yul\":7526:7577   */\n      swap6\n      pop\n        /* \"#utility.yul\":7610:7614   */\n      dup1\n        /* \"#utility.yul\":7606:7615   */\n      not\n        /* \"#utility.yul\":7599:7604   */\n      dup5\n        /* \"#utility.yul\":7595:7616   */\n      and\n        /* \"#utility.yul\":7586:7616   */\n      swap4\n      pop\n        /* \"#utility.yul\":7659:7663   */\n      dup1\n        /* \"#utility.yul\":7649:7657   */\n      dup7\n        /* \"#utility.yul\":7645:7664   */\n      and\n        /* \"#utility.yul\":7638:7643   */\n      dup5\n        /* \"#utility.yul\":7635:7665   */\n      or\n        /* \"#utility.yul\":7625:7665   */\n      swap3\n      pop\n        /* \"#utility.yul\":7354:7671   */\n      pop\n      pop\n        /* \"#utility.yul\":7278:7671   */\n      swap4\n      swap3\n      pop\n      pop\n      pop\n      jump\t// out\n        /* \"#utility.yul\":7677:7737   */\n    tag_69:\n        /* \"#utility.yul\":7705:7708   */\n      0x00\n        /* \"#utility.yul\":7726:7731   */\n      dup2\n        /* \"#utility.yul\":7719:7731   */\n      swap1\n      pop\n        /* \"#utility.yul\":7677:7737   */\n      swap2\n      swap1\n      pop\n      jump\t// out\n        /* \"#utility.yul\":7743:7885   */\n    tag_70:\n        /* \"#utility.yul\":7793:7802   */\n      0x00\n        /* \"#utility.yul\":7826:7879   */\n      tag_167\n        /* \"#utility.yul\":7844:7878   */\n      tag_168\n        /* \"#utility.yul\":7853:7877   */\n      tag_169\n        /* \"#utility.yul\":7871:7876   */\n      dup5\n        /* \"#utility.yul\":7853:7877   */\n      tag_56\n      jump\t// in\n    tag_169:\n        /* \"#utility.yul\":7844:7878   */\n      tag_69\n      jump\t// in\n    tag_168:\n        /* \"#utility.yul\":7826:7879   */\n      tag_56\n      jump\t// in\n    tag_167:\n        /* \"#utility.yul\":7813:7879   */\n      swap1\n      pop\n        /* \"#utility.yul\":7743:7885   */\n      swap2\n      swap1\n      pop\n      jump\t// out\n        /* \"#utility.yul\":7891:7966   */\n    tag_71:\n        /* \"#utility.yul\":7934:7937   */\n      0x00\n        /* \"#utility.yul\":7955:7960   */\n      dup2\n        /* \"#utility.yul\":7948:7960   */\n      swap1\n      pop\n        /* \"#utility.yul\":7891:7966   */\n      swap2\n      swap1\n      pop\n      jump\t// out\n        /* \"#utility.yul\":7972:8241   */\n    tag_72:\n        /* \"#utility.yul\":8082:8121   */\n      tag_172\n        /* \"#utility.yul\":8113:8120   */\n      dup4\n        /* \"#utility.yul\":8082:8121   */\n      tag_70\n      jump\t// in\n    tag_172:\n        /* \"#utility.yul\":8143:8234   */\n      tag_173\n        /* \"#utility.yul\":8192:8233   */\n      tag_174\n        /* \"#utility.yul\":8216:8232   */\n      dup3\n        /* \"#utility.yul\":8192:8233   */\n      tag_71\n      jump\t// in\n    tag_174:\n        /* \"#utility.yul\":8184:8190   */\n      dup5\n        /* \"#utility.yul\":8177:8181   */\n      dup5\n        /* \"#utility.yul\":8171:8182   */\n      sload\n        /* \"#utility.yul\":8143:8234   */\n      tag_68\n      jump\t// in\n    tag_173:\n        /* \"#utility.yul\":8137:8141   */\n      dup3\n        /* \"#utility.yul\":8130:8235   */\n      sstore\n        /* \"#utility.yul\":8048:8241   */\n      pop\n        /* \"#utility.yul\":7972:8241   */\n      pop\n      pop\n      pop\n      jump\t// out\n        /* \"#utility.yul\":8247:8320   */\n    tag_73:\n        /* \"#utility.yul\":8292:8295   */\n      0x00\n        /* \"#utility.yul\":8247:8320   */\n      swap1\n      jump\t// out\n        /* \"#utility.yul\":8326:8515   */\n    tag_74:\n        /* \"#utility.yul\":8403:8435   */\n      tag_177\n      tag_73\n      jump\t// in\n    tag_177:\n        /* \"#utility.yul\":8444:8509   */\n      tag_178\n        /* \"#utility.yul\":8502:8508   */\n      dup2\n        /* \"#utility.yul\":8494:8500   */\n      dup5\n        /* \"#utility.yul\":8488:8492   */\n      dup5\n        /* \"#utility.yul\":8444:8509   */\n      tag_72\n      jump\t// in\n    tag_178:\n        /* \"#utility.yul\":8379:8515   */\n      pop\n        /* \"#utility.yul\":8326:8515   */\n      pop\n      pop\n      jump\t// out\n        /* \"#utility.yul\":8521:8707   */\n    tag_75:\n        /* \"#utility.yul\":8581:8701   */\n    tag_180:\n        /* \"#utility.yul\":8598:8601   */\n      dup2\n        /* \"#utility.yul\":8591:8596   */\n      dup2\n        /* \"#utility.yul\":8588:8602   */\n      lt\n        /* \"#utility.yul\":8581:8701   */\n      iszero\n      tag_182\n      jumpi\n        /* \"#utility.yul\":8652:8691   */\n      tag_183\n        /* \"#utility.yul\":8689:8690   */\n      0x00\n        /* \"#utility.yul\":8682:8687   */\n      dup3\n        /* \"#utility.yul\":8652:8691   */\n      tag_74\n      jump\t// in\n    tag_183:\n        /* \"#utility.yul\":8625:8626   */\n      0x01\n        /* \"#utility.yul\":8618:8623   */\n      dup2\n        /* \"#utility.yul\":8614:8627   */\n      add\n        /* \"#utility.yul\":8605:8627   */\n      swap1\n      pop\n        /* \"#utility.yul\":8581:8701   */\n      jump(tag_180)\n    tag_182:\n        /* \"#utility.yul\":8521:8707   */\n      pop\n      pop\n      jump\t// out\n        /* \"#utility.yul\":8713:9256   */\n    tag_76:\n        /* \"#utility.yul\":8814:8816   */\n      0x1f\n        /* \"#utility.yul\":8809:8812   */\n      dup3\n        /* \"#utility.yul\":8806:8817   */\n      gt\n        /* \"#utility.yul\":8803:9249   */\n      iszero\n      tag_185\n      jumpi\n        /* \"#utility.yul\":8848:8886   */\n      tag_186\n        /* \"#utility.yul\":8880:8885   */\n      dup2\n        /* \"#utility.yul\":8848:8886   */\n      tag_65\n      jump\t// in\n    tag_186:\n        /* \"#utility.yul\":8932:8961   */\n      tag_187\n        /* \"#utility.yul\":8950:8960   */\n      dup5\n        /* \"#utility.yul\":8932:8961   */\n      tag_66\n      jump\t// in\n    tag_187:\n        /* \"#utility.yul\":8922:8930   */\n      dup2\n        /* \"#utility.yul\":8918:8962   */\n      add\n        /* \"#utility.yul\":9115:9117   */\n      0x20\n        /* \"#utility.yul\":9103:9113   */\n      dup6\n        /* \"#utility.yul\":9100:9118   */\n      lt\n        /* \"#utility.yul\":9097:9146   */\n      iszero\n      tag_188\n      jumpi\n        /* \"#utility.yul\":9136:9144   */\n      dup2\n        /* \"#utility.yul\":9121:9144   */\n      swap1\n      pop\n        /* \"#utility.yul\":9097:9146   */\n    tag_188:\n        /* \"#utility.yul\":9159:9239   */\n      tag_189\n        /* \"#utility.yul\":9215:9237   */\n      tag_190\n        /* \"#utility.yul\":9233:9236   */\n      dup6\n        /* \"#utility.yul\":9215:9237   */\n      tag_66\n      jump\t// in\n    tag_190:\n        /* \"#utility.yul\":9205:9213   */\n      dup4\n        /* \"#utility.yul\":9201:9238   */\n      add\n        /* \"#utility.yul\":9188:9199   */\n      dup3\n        /* \"#utility.yul\":9159:9239   */\n      tag_75\n      jump\t// in\n    tag_189:\n        /* \"#utility.yul\":8818:9249   */\n      pop\n      pop\n        /* \"#utility.yul\":8803:9249   */\n    tag_185:\n        /* \"#utility.yul\":8713:9256   */\n      pop\n      pop\n      pop\n      jump\t// out\n        /* \"#utility.yul\":9262:9379   */\n    tag_77:\n        /* \"#utility.yul\":9316:9324   */\n      0x00\n        /* \"#utility.yul\":9366:9371   */\n      dup3\n        /* \"#utility.yul\":9360:9364   */\n      dup3\n        /* \"#utility.yul\":9356:9372   */\n      shr\n        /* \"#utility.yul\":9335:9372   */\n      swap1\n      pop\n        /* \"#utility.yul\":9262:9379   */\n      swap3\n      swap2\n      pop\n      pop\n      jump\t// out\n        /* \"#utility.yul\":9385:9554   */\n    tag_78:\n        /* \"#utility.yul\":9429:9435   */\n      0x00\n        /* \"#utility.yul\":9462:9513   */\n      tag_193\n        /* \"#utility.yul\":9510:9511   */\n      0x00\n        /* \"#utility.yul\":9506:9512   */\n      not\n        /* \"#utility.yul\":9498:9503   */\n      dup5\n        /* \"#utility.yul\":9495:9496   */\n      0x08\n        /* \"#utility.yul\":9491:9504   */\n      mul\n        /* \"#utility.yul\":9462:9513   */\n      tag_77\n      jump\t// in\n    tag_193:\n        /* \"#utility.yul\":9458:9514   */\n      not\n        /* \"#utility.yul\":9543:9547   */\n      dup1\n        /* \"#utility.yul\":9537:9541   */\n      dup4\n        /* \"#utility.yul\":9533:9548   */\n      and\n        /* \"#utility.yul\":9523:9548   */\n      swap2\n      pop\n        /* \"#utility.yul\":9436:9554   */\n      pop\n        /* \"#utility.yul\":9385:9554   */\n      swap3\n      swap2\n      pop\n      pop\n      jump\t// out\n        /* \"#utility.yul\":9559:9854   */\n    tag_79:\n        /* \"#utility.yul\":9635:9639   */\n      0x00\n        /* \"#utility.yul\":9781:9810   */\n      tag_195\n        /* \"#utility.yul\":9806:9809   */\n      dup4\n        /* \"#utility.yul\":9800:9804   */\n      dup4\n        /* \"#utility.yul\":9781:9810   */\n      tag_78\n      jump\t// in\n    tag_195:\n        /* \"#utility.yul\":9773:9810   */\n      swap2\n      pop\n        /* \"#utility.yul\":9843:9846   */\n      dup3\n        /* \"#utility.yul\":9840:9841   */\n      0x02\n        /* \"#utility.yul\":9836:9847   */\n      mul\n        /* \"#utility.yul\":9830:9834   */\n      dup3\n        /* \"#utility.yul\":9827:9848   */\n      or\n        /* \"#utility.yul\":9819:9848   */\n      swap1\n      pop\n        /* \"#utility.yul\":9559:9854   */\n      swap3\n      swap2\n      pop\n      pop\n      jump\t// out\n        /* \"#utility.yul\":9859:11254   */\n    tag_30:\n        /* \"#utility.yul\":9976:10013   */\n      tag_197\n        /* \"#utility.yul\":10009:10012   */\n      dup3\n        /* \"#utility.yul\":9976:10013   */\n      tag_59\n      jump\t// in\n    tag_197:\n        /* \"#utility.yul\":10078:10096   */\n      0xffffffffffffffff\n        /* \"#utility.yul\":10070:10076   */\n      dup2\n        /* \"#utility.yul\":10067:10097   */\n      gt\n        /* \"#utility.yul\":10064:10120   */\n      iszero\n      tag_198\n      jumpi\n        /* \"#utility.yul\":10100:10118   */\n      tag_199\n      tag_49\n      jump\t// in\n    tag_199:\n        /* \"#utility.yul\":10064:10120   */\n    tag_198:\n        /* \"#utility.yul\":10144:10182   */\n      tag_200\n        /* \"#utility.yul\":10176:10180   */\n      dup3\n        /* \"#utility.yul\":10170:10181   */\n      sload\n        /* \"#utility.yul\":10144:10182   */\n      tag_34\n      jump\t// in\n    tag_200:\n        /* \"#utility.yul\":10229:10296   */\n      tag_201\n        /* \"#utility.yul\":10289:10295   */\n      dup3\n        /* \"#utility.yul\":10281:10287   */\n      dup3\n        /* \"#utility.yul\":10275:10279   */\n      dup6\n        /* \"#utility.yul\":10229:10296   */\n      tag_76\n      jump\t// in\n    tag_201:\n        /* \"#utility.yul\":10323:10324   */\n      0x00\n        /* \"#utility.yul\":10347:10351   */\n      0x20\n        /* \"#utility.yul\":10334:10351   */\n      swap1\n      pop\n        /* \"#utility.yul\":10379:10381   */\n      0x1f\n        /* \"#utility.yul\":10371:10377   */\n      dup4\n        /* \"#utility.yul\":10368:10382   */\n      gt\n        /* \"#utility.yul\":10396:10397   */\n      0x01\n        /* \"#utility.yul\":10391:11009   */\n      dup2\n      eq\n      tag_203\n      jumpi\n        /* \"#utility.yul\":11053:11054   */\n      0x00\n        /* \"#utility.yul\":11070:11076   */\n      dup5\n        /* \"#utility.yul\":11067:11144   */\n      iszero\n      tag_204\n      jumpi\n        /* \"#utility.yul\":11119:11128   */\n      dup3\n        /* \"#utility.yul\":11114:11117   */\n      dup8\n        /* \"#utility.yul\":11110:11129   */\n      add\n        /* \"#utility.yul\":11104:11130   */\n      mload\n        /* \"#utility.yul\":11095:11130   */\n      swap1\n      pop\n        /* \"#utility.yul\":11067:11144   */\n    tag_204:\n        /* \"#utility.yul\":11170:11237   */\n      tag_205\n        /* \"#utility.yul\":11230:11236   */\n      dup6\n        /* \"#utility.yul\":11223:11228   */\n      dup3\n        /* \"#utility.yul\":11170:11237   */\n      tag_79\n      jump\t// in\n    tag_205:\n        /* \"#utility.yul\":11164:11168   */\n      dup7\n        /* \"#utility.yul\":11157:11238   */\n      sstore\n        /* \"#utility.yul\":11026:11248   */\n      pop\n        /* \"#utility.yul\":10361:11248   */\n      jump(tag_202)\n        /* \"#utility.yul\":10391:11009   */\n    tag_203:\n        /* \"#utility.yul\":10443:10447   */\n      0x1f\n        /* \"#utility.yul\":10439:10448   */\n      not\n        /* \"#utility.yul\":10431:10437   */\n      dup5\n        /* \"#utility.yul\":10427:10449   */\n      and\n        /* \"#utility.yul\":10477:10514   */\n      tag_206\n        /* \"#utility.yul\":10509:10513   */\n      dup7\n        /* \"#utility.yul\":10477:10514   */\n      tag_65\n      jump\t// in\n    tag_206:\n        /* \"#utility.yul\":10536:10537   */\n      0x00\n        /* \"#utility.yul\":10550:10758   */\n    tag_207:\n        /* \"#utility.yul\":10564:10571   */\n      dup3\n        /* \"#utility.yul\":10561:10562   */\n      dup2\n        /* \"#utility.yul\":10558:10572   */\n      lt\n        /* \"#utility.yul\":10550:10758   */\n      iszero\n      tag_209\n      jumpi\n        /* \"#utility.yul\":10643:10652   */\n      dup5\n        /* \"#utility.yul\":10638:10641   */\n      dup10\n        /* \"#utility.yul\":10634:10653   */\n      add\n        /* \"#utility.yul\":10628:10654   */\n      mload\n        /* \"#utility.yul\":10620:10626   */\n      dup3\n        /* \"#utility.yul\":10613:10655   */\n      sstore\n        /* \"#utility.yul\":10694:10695   */\n      0x01\n        /* \"#utility.yul\":10686:10692   */\n      dup3\n        /* \"#utility.yul\":10682:10696   */\n      add\n        /* \"#utility.yul\":10672:10696   */\n      swap2\n      pop\n        /* \"#utility.yul\":10741:10743   */\n      0x20\n        /* \"#utility.yul\":10730:10739   */\n      dup6\n        /* \"#utility.yul\":10726:10744   */\n      add\n        /* \"#utility.yul\":10713:10744   */\n      swap5\n      pop\n        /* \"#utility.yul\":10587:10591   */\n      0x20\n        /* \"#utility.yul\":10584:10585   */\n      dup2\n        /* \"#utility.yul\":10580:10592   */\n      add\n        /* \"#utility.yul\":10575:10592   */\n      swap1\n      pop\n        /* \"#utility.yul\":10550:10758   */\n      jump(tag_207)\n    tag_209:\n        /* \"#utility.yul\":10786:10792   */\n      dup7\n        /* \"#utility.yul\":10777:10784   */\n      dup4\n        /* \"#utility.yul\":10774:10793   */\n      lt\n        /* \"#utility.yul\":10771:10950   */\n      iszero\n      tag_210\n      jumpi\n        /* \"#utility.yul\":10844:10853   */\n      dup5\n        /* \"#utility.yul\":10839:10842   */\n      dup10\n        /* \"#utility.yul\":10835:10854   */\n      add\n        /* \"#utility.yul\":10829:10855   */\n      mload\n        /* \"#utility.yul\":10887:10935   */\n      tag_211\n        /* \"#utility.yul\":10929:10933   */\n      0x1f\n        /* \"#utility.yul\":10921:10927   */\n      dup10\n        /* \"#utility.yul\":10917:10934   */\n      and\n        /* \"#utility.yul\":10906:10915   */\n      dup3\n        /* \"#utility.yul\":10887:10935   */\n      tag_78\n      jump\t// in\n    tag_211:\n        /* \"#utility.yul\":10879:10885   */\n      dup4\n        /* \"#utility.yul\":10872:10936   */\n      sstore\n        /* \"#utility.yul\":10794:10950   */\n      pop\n        /* \"#utility.yul\":10771:10950   */\n    tag_210:\n        /* \"#utility.yul\":10996:10997   */\n      0x01\n        /* \"#utility.yul\":10992:10993   */\n      0x02\n        /* \"#utility.yul\":10984:10990   */\n      dup9\n        /* \"#utility.yul\":10980:10994   */\n      mul\n        /* \"#utility.yul\":10976:10998   */\n      add\n        /* \"#utility.yul\":10970:10974   */\n      dup9\n        /* \"#utility.yul\":10963:10999   */\n      sstore\n        /* \"#utility.yul\":10398:11009   */\n      pop\n      pop\n      pop\n        /* \"#utility.yul\":10361:11248   */\n    tag_202:\n      pop\n        /* \"#utility.yul\":9951:11254   */\n      pop\n      pop\n      pop\n        /* \"#utility.yul\":9859:11254   */\n      pop\n      pop\n      jump\t// out\n\n    auxdata: 0xa2646970667358221220c54a6d11fea66b234010b0933b9fbffbe596ac0e99c77bcd59db1c83879fcf9164736f6c63430008120033\n}\n",
				"bytecode": {
					"linkReferences": {},
					"object": "608060405234801561001057600080fd5b5033600160006101000a81548173ffffffffffffffffffffffffffffffffffffffff021916908373ffffffffffffffffffffffffffffffffffffffff160217905550610963806100616000396000f3fe60806040526004361061003f5760003560e01c80638da5cb5b14610044578063ce7f450d1461006f578063cf35bdd01461008b578063e48aabd5146100cb575b600080fd5b34801561005057600080fd5b506100596100f6565b6040516100669190610326565b60405180910390f35b610089600480360381019061008491906104d1565b61011c565b005b34801561009757600080fd5b506100b260048036038101906100ad919061052d565b6101f5565b6040516100c294939291906105e8565b60405180910390f35b3480156100d757600080fd5b506100e06102dd565b6040516100ed9190610634565b60405180910390f35b600160009054906101000a900473ffffffffffffffffffffffffffffffffffffffff1681565b600060405180608001604052808481526020018381526020014281526020013373ffffffffffffffffffffffffffffffffffffffff1681525090806001815401808255809150506001900390600052602060002090600402016000909190919091506000820151816000019081610193919061085b565b50602082015181600101556040820151816002015560608201518160030160006101000a81548173ffffffffffffffffffffffffffffffffffffffff021916908373ffffffffffffffffffffffffffffffffffffffff16021790555050505050565b6000818154811061020557600080fd5b90600052602060002090600402016000915090508060000180546102289061067e565b80601f01602080910402602001604051908101604052809291908181526020018280546102549061067e565b80156102a15780601f10610276576101008083540402835291602001916102a1565b820191906000526020600020905b81548152906001019060200180831161028457829003601f168201915b5050505050908060010154908060020154908060030160009054906101000a900473ffffffffffffffffffffffffffffffffffffffff16905084565b600047905090565b600073ffffffffffffffffffffffffffffffffffffffff82169050919050565b6000610310826102e5565b9050919050565b61032081610305565b82525050565b600060208201905061033b6000830184610317565b92915050565b6000604051905090565b600080fd5b600080fd5b600080fd5b600080fd5b6000601f19601f8301169050919050565b7f4e487b7100000000000000000000000000000000000000000000000000000000600052604160045260246000fd5b6103a88261035f565b810181811067ffffffffffffffff821117156103c7576103c6610370565b5b80604052505050565b60006103da610341565b90506103e6828261039f565b919050565b600067ffffffffffffffff82111561040657610405610370565b5b61040f8261035f565b9050602081019050919050565b82818337600083830152505050565b600061043e610439846103eb565b6103d0565b90508281526020810184848401111561045a5761045961035a565b5b61046584828561041c565b509392505050565b600082601f83011261048257610481610355565b5b813561049284826020860161042b565b91505092915050565b6000819050919050565b6104ae8161049b565b81146104b957600080fd5b50565b6000813590506104cb816104a5565b92915050565b600080604083850312156104e8576104e761034b565b5b600083013567ffffffffffffffff81111561050657610505610350565b5b6105128582860161046d565b9250506020610523858286016104bc565b9150509250929050565b6000602082840312156105435761054261034b565b5b6000610551848285016104bc565b91505092915050565b600081519050919050565b600082825260208201905092915050565b60005b83811015610594578082015181840152602081019050610579565b60008484015250505050565b60006105ab8261055a565b6105b58185610565565b93506105c5818560208601610576565b6105ce8161035f565b840191505092915050565b6105e28161049b565b82525050565b6000608082019050818103600083015261060281876105a0565b905061061160208301866105d9565b61061e60408301856105d9565b61062b6060830184610317565b95945050505050565b600060208201905061064960008301846105d9565b92915050565b7f4e487b7100000000000000000000000000000000000000000000000000000000600052602260045260246000fd5b6000600282049050600182168061069657607f821691505b6020821081036106a9576106a861064f565b5b50919050565b60008190508160005260206000209050919050565b60006020601f8301049050919050565b600082821b905092915050565b6000600883026107117fffffffffffffffffffffffffffffffffffffffffffffffffffffffffffffffff826106d4565b61071b86836106d4565b95508019841693508086168417925050509392505050565b6000819050919050565b600061075861075361074e8461049b565b610733565b61049b565b9050919050565b6000819050919050565b6107728361073d565b61078661077e8261075f565b8484546106e1565b825550505050565b600090565b61079b61078e565b6107a6818484610769565b505050565b5b818110156107ca576107bf600082610793565b6001810190506107ac565b5050565b601f82111561080f576107e0816106af565b6107e9846106c4565b810160208510156107f8578190505b61080c610804856106c4565b8301826107ab565b50505b505050565b600082821c905092915050565b600061083260001984600802610814565b1980831691505092915050565b600061084b8383610821565b9150826002028217905092915050565b6108648261055a565b67ffffffffffffffff81111561087d5761087c610370565b5b610887825461067e565b6108928282856107ce565b600060209050601f8311600181146108c557600084156108b3578287015190505b6108bd858261083f565b865550610925565b601f1984166108d3866106af565b60005b828110156108fb578489015182556001820191506020850194506020810190506108d6565b868310156109185784890151610914601f891682610821565b8355505b6001600288020188555050505b50505050505056fea2646970667358221220c54a6d11fea66b234010b0933b9fbffbe596ac0e99c77bcd59db1c83879fcf9164736f6c63430008120033",
					"opcodes": "PUSH1 0x80 PUSH1 0x40 MSTORE CALLVALUE DUP1 ISZERO PUSH2 0x10 JUMPI PUSH1 0x0 DUP1 REVERT JUMPDEST POP CALLER PUSH1 0x1 PUSH1 0x0 PUSH2 0x100 EXP DUP2 SLOAD DUP2 PUSH20 0xFFFFFFFFFFFFFFFFFFFFFFFFFFFFFFFFFFFFFFFF MUL NOT AND SWAP1 DUP4 PUSH20 0xFFFFFFFFFFFFFFFFFFFFFFFFFFFFFFFFFFFFFFFF AND MUL OR SWAP1 SSTORE POP PUSH2 0x963 DUP1 PUSH2 0x61 PUSH1 0x0 CODECOPY PUSH1 0x0 RETURN INVALID PUSH1 0x80 PUSH1 0x40 MSTORE PUSH1 0x4 CALLDATASIZE LT PUSH2 0x3F JUMPI PUSH1 0x0 CALLDATALOAD PUSH1 0xE0 SHR DUP1 PUSH4 0x8DA5CB5B EQ PUSH2 0x44 JUMPI DUP1 PUSH4 0xCE7F450D EQ PUSH2 0x6F JUMPI DUP1 PUSH4 0xCF35BDD0 EQ PUSH2 0x8B JUMPI DUP1 PUSH4 0xE48AABD5 EQ PUSH2 0xCB JUMPI JUMPDEST PUSH1 0x0 DUP1 REVERT JUMPDEST CALLVALUE DUP1 ISZERO PUSH2 0x50 JUMPI PUSH1 0x0 DUP1 REVERT JUMPDEST POP PUSH2 0x59 PUSH2 0xF6 JUMP JUMPDEST PUSH1 0x40 MLOAD PUSH2 0x66 SWAP2 SWAP1 PUSH2 0x326 JUMP JUMPDEST PUSH1 0x40 MLOAD DUP1 SWAP2 SUB SWAP1 RETURN JUMPDEST PUSH2 0x89 PUSH1 0x4 DUP1 CALLDATASIZE SUB DUP2 ADD SWAP1 PUSH2 0x84 SWAP2 SWAP1 PUSH2 0x4D1 JUMP JUMPDEST PUSH2 0x11C JUMP JUMPDEST STOP JUMPDEST CALLVALUE DUP1 ISZERO PUSH2 0x97 JUMPI PUSH1 0x0 DUP1 REVERT JUMPDEST POP PUSH2 0xB2 PUSH1 0x4 DUP1 CALLDATASIZE SUB DUP2 ADD SWAP1 PUSH2 0xAD SWAP2 SWAP1 PUSH2 0x52D JUMP JUMPDEST PUSH2 0x1F5 JUMP JUMPDEST PUSH1 0x40 MLOAD PUSH2 0xC2 SWAP5 SWAP4 SWAP3 SWAP2 SWAP1 PUSH2 0x5E8 JUMP JUMPDEST PUSH1 0x40 MLOAD DUP1 SWAP2 SUB SWAP1 RETURN JUMPDEST CALLVALUE DUP1 ISZERO PUSH2 0xD7 JUMPI PUSH1 0x0 DUP1 REVERT JUMPDEST POP PUSH2 0xE0 PUSH2 0x2DD JUMP JUMPDEST PUSH1 0x40 MLOAD PUSH2 0xED SWAP2 SWAP1 PUSH2 0x634 JUMP JUMPDEST PUSH1 0x40 MLOAD DUP1 SWAP2 SUB SWAP1 RETURN JUMPDEST PUSH1 0x1 PUSH1 0x0 SWAP1 SLOAD SWAP1 PUSH2 0x100 EXP SWAP1 DIV PUSH20 0xFFFFFFFFFFFFFFFFFFFFFFFFFFFFFFFFFFFFFFFF AND DUP2 JUMP JUMPDEST PUSH1 0x0 PUSH1 0x40 MLOAD DUP1 PUSH1 0x80 ADD PUSH1 0x40 MSTORE DUP1 DUP5 DUP2 MSTORE PUSH1 0x20 ADD DUP4 DUP2 MSTORE PUSH1 0x20 ADD TIMESTAMP DUP2 MSTORE PUSH1 0x20 ADD CALLER PUSH20 0xFFFFFFFFFFFFFFFFFFFFFFFFFFFFFFFFFFFFFFFF AND DUP2 MSTORE POP SWAP1 DUP1 PUSH1 0x1 DUP2 SLOAD ADD DUP1 DUP3 SSTORE DUP1 SWAP2 POP POP PUSH1 0x1 SWAP1 SUB SWAP1 PUSH1 0x0 MSTORE PUSH1 0x20 PUSH1 0x0 KECCAK256 SWAP1 PUSH1 0x4 MUL ADD PUSH1 0x0 SWAP1 SWAP2 SWAP1 SWAP2 SWAP1 SWAP2 POP PUSH1 0x0 DUP3 ADD MLOAD DUP2 PUSH1 0x0 ADD SWAP1 DUP2 PUSH2 0x193 SWAP2 SWAP1 PUSH2 0x85B JUMP JUMPDEST POP PUSH1 0x20 DUP3 ADD MLOAD DUP2 PUSH1 0x1 ADD SSTORE PUSH1 0x40 DUP3 ADD MLOAD DUP2 PUSH1 0x2 ADD SSTORE PUSH1 0x60 DUP3 ADD MLOAD DUP2 PUSH1 0x3 ADD PUSH1 0x0 PUSH2 0x100 EXP DUP2 SLOAD DUP2 PUSH20 0xFFFFFFFFFFFFFFFFFFFFFFFFFFFFFFFFFFFFFFFF MUL NOT AND SWAP1 DUP4 PUSH20 0xFFFFFFFFFFFFFFFFFFFFFFFFFFFFFFFFFFFFFFFF AND MUL OR SWAP1 SSTORE POP POP POP POP POP JUMP JUMPDEST PUSH1 0x0 DUP2 DUP2 SLOAD DUP2 LT PUSH2 0x205 JUMPI PUSH1 0x0 DUP1 REVERT JUMPDEST SWAP1 PUSH1 0x0 MSTORE PUSH1 0x20 PUSH1 0x0 KECCAK256 SWAP1 PUSH1 0x4 MUL ADD PUSH1 0x0 SWAP2 POP SWAP1 POP DUP1 PUSH1 0x0 ADD DUP1 SLOAD PUSH2 0x228 SWAP1 PUSH2 0x67E JUMP JUMPDEST DUP1 PUSH1 0x1F ADD PUSH1 0x20 DUP1 SWAP2 DIV MUL PUSH1 0x20 ADD PUSH1 0x40 MLOAD SWAP1 DUP2 ADD PUSH1 0x40 MSTORE DUP1 SWAP3 SWAP2 SWAP1 DUP2 DUP2 MSTORE PUSH1 0x20 ADD DUP3 DUP1 SLOAD PUSH2 0x254 SWAP1 PUSH2 0x67E JUMP JUMPDEST DUP1 ISZERO PUSH2 0x2A1 JUMPI DUP1 PUSH1 0x1F LT PUSH2 0x276 JUMPI PUSH2 0x100 DUP1 DUP4 SLOAD DIV MUL DUP4 MSTORE SWAP2 PUSH1 0x20 ADD SWAP2 PUSH2 0x2A1 JUMP JUMPDEST DUP3 ADD SWAP2 SWAP1 PUSH1 0x0 MSTORE PUSH1 0x20 PUSH1 0x0 KECCAK256 SWAP1 JUMPDEST DUP2 SLOAD DUP2 MSTORE SWAP1 PUSH1 0x1 ADD SWAP1 PUSH1 0x20 ADD DUP1 DUP4 GT PUSH2 0x284 JUMPI DUP3 SWAP1 SUB PUSH1 0x1F AND DUP3 ADD SWAP2 JUMPDEST POP POP POP POP POP SWAP1 DUP1 PUSH1 0x1 ADD SLOAD SWAP1 DUP1 PUSH1 0x2 ADD SLOAD SWAP1 DUP1 PUSH1 0x3 ADD PUSH1 0x0 SWAP1 SLOAD SWAP1 PUSH2 0x100 EXP SWAP1 DIV PUSH20 0xFFFFFFFFFFFFFFFFFFFFFFFFFFFFFFFFFFFFFFFF AND SWAP1 POP DUP5 JUMP JUMPDEST PUSH1 0x0 SELFBALANCE SWAP1 POP SWAP1 JUMP JUMPDEST PUSH1 0x0 PUSH20 0xFFFFFFFFFFFFFFFFFFFFFFFFFFFFFFFFFFFFFFFF DUP3 AND SWAP1 POP SWAP2 SWAP1 POP JUMP JUMPDEST PUSH1 0x0 PUSH2 0x310 DUP3 PUSH2 0x2E5 JUMP JUMPDEST SWAP1 POP SWAP2 SWAP1 POP JUMP JUMPDEST PUSH2 0x320 DUP2 PUSH2 0x305 JUMP JUMPDEST DUP3 MSTORE POP POP JUMP JUMPDEST PUSH1 0x0 PUSH1 0x20 DUP3 ADD SWAP1 POP PUSH2 0x33B PUSH1 0x0 DUP4 ADD DUP5 PUSH2 0x317 JUMP JUMPDEST SWAP3 SWAP2 POP POP JUMP JUMPDEST PUSH1 0x0 PUSH1 0x40 MLOAD SWAP1 POP SWAP1 JUMP JUMPDEST PUSH1 0x0 DUP1 REVERT JUMPDEST PUSH1 0x0 DUP1 REVERT JUMPDEST PUSH1 0x0 DUP1 REVERT JUMPDEST PUSH1 0x0 DUP1 REVERT JUMPDEST PUSH1 0x0 PUSH1 0x1F NOT PUSH1 0x1F DUP4 ADD AND SWAP1 POP SWAP2 SWAP1 POP JUMP JUMPDEST PUSH32 0x4E487B7100000000000000000000000000000000000000000000000000000000 PUSH1 0x0 MSTORE PUSH1 0x41 PUSH1 0x4 MSTORE PUSH1 0x24 PUSH1 0x0 REVERT JUMPDEST PUSH2 0x3A8 DUP3 PUSH2 0x35F JUMP JUMPDEST DUP2 ADD DUP2 DUP2 LT PUSH8 0xFFFFFFFFFFFFFFFF DUP3 GT OR ISZERO PUSH2 0x3C7 JUMPI PUSH2 0x3C6 PUSH2 0x370 JUMP JUMPDEST JUMPDEST DUP1 PUSH1 0x40 MSTORE POP POP POP JUMP JUMPDEST PUSH1 0x0 PUSH2 0x3DA PUSH2 0x341 JUMP JUMPDEST SWAP1 POP PUSH2 0x3E6 DUP3 DUP3 PUSH2 0x39F JUMP JUMPDEST SWAP2 SWAP1 POP JUMP JUMPDEST PUSH1 0x0 PUSH8 0xFFFFFFFFFFFFFFFF DUP3 GT ISZERO PUSH2 0x406 JUMPI PUSH2 0x405 PUSH2 0x370 JUMP JUMPDEST JUMPDEST PUSH2 0x40F DUP3 PUSH2 0x35F JUMP JUMPDEST SWAP1 POP PUSH1 0x20 DUP2 ADD SWAP1 POP SWAP2 SWAP1 POP JUMP JUMPDEST DUP3 DUP2 DUP4 CALLDATACOPY PUSH1 0x0 DUP4 DUP4 ADD MSTORE POP POP POP JUMP JUMPDEST PUSH1 0x0 PUSH2 0x43E PUSH2 0x439 DUP5 PUSH2 0x3EB JUMP JUMPDEST PUSH2 0x3D0 JUMP JUMPDEST SWAP1 POP DUP3 DUP2 MSTORE PUSH1 0x20 DUP2 ADD DUP5 DUP5 DUP5 ADD GT ISZERO PUSH2 0x45A JUMPI PUSH2 0x459 PUSH2 0x35A JUMP JUMPDEST JUMPDEST PUSH2 0x465 DUP5 DUP3 DUP6 PUSH2 0x41C JUMP JUMPDEST POP SWAP4 SWAP3 POP POP POP JUMP JUMPDEST PUSH1 0x0 DUP3 PUSH1 0x1F DUP4 ADD SLT PUSH2 0x482 JUMPI PUSH2 0x481 PUSH2 0x355 JUMP JUMPDEST JUMPDEST DUP2 CALLDATALOAD PUSH2 0x492 DUP5 DUP3 PUSH1 0x20 DUP7 ADD PUSH2 0x42B JUMP JUMPDEST SWAP2 POP POP SWAP3 SWAP2 POP POP JUMP JUMPDEST PUSH1 0x0 DUP2 SWAP1 POP SWAP2 SWAP1 POP JUMP JUMPDEST PUSH2 0x4AE DUP2 PUSH2 0x49B JUMP JUMPDEST DUP2 EQ PUSH2 0x4B9 JUMPI PUSH1 0x0 DUP1 REVERT JUMPDEST POP JUMP JUMPDEST PUSH1 0x0 DUP2 CALLDATALOAD SWAP1 POP PUSH2 0x4CB DUP2 PUSH2 0x4A5 JUMP JUMPDEST SWAP3 SWAP2 POP POP JUMP JUMPDEST PUSH1 0x0 DUP1 PUSH1 0x40 DUP4 DUP6 SUB SLT ISZERO PUSH2 0x4E8 JUMPI PUSH2 0x4E7 PUSH2 0x34B JUMP JUMPDEST JUMPDEST PUSH1 0x0 DUP4 ADD CALLDATALOAD PUSH8 0xFFFFFFFFFFFFFFFF DUP2 GT ISZERO PUSH2 0x506 JUMPI PUSH2 0x505 PUSH2 0x350 JUMP JUMPDEST JUMPDEST PUSH2 0x512 DUP6 DUP3 DUP7 ADD PUSH2 0x46D JUMP JUMPDEST SWAP3 POP POP PUSH1 0x20 PUSH2 0x523 DUP6 DUP3 DUP7 ADD PUSH2 0x4BC JUMP JUMPDEST SWAP2 POP POP SWAP3 POP SWAP3 SWAP1 POP JUMP JUMPDEST PUSH1 0x0 PUSH1 0x20 DUP3 DUP5 SUB SLT ISZERO PUSH2 0x543 JUMPI PUSH2 0x542 PUSH2 0x34B JUMP JUMPDEST JUMPDEST PUSH1 0x0 PUSH2 0x551 DUP5 DUP3 DUP6 ADD PUSH2 0x4BC JUMP JUMPDEST SWAP2 POP POP SWAP3 SWAP2 POP POP JUMP JUMPDEST PUSH1 0x0 DUP2 MLOAD SWAP1 POP SWAP2 SWAP1 POP JUMP JUMPDEST PUSH1 0x0 DUP3 DUP3 MSTORE PUSH1 0x20 DUP3 ADD SWAP1 POP SWAP3 SWAP2 POP POP JUMP JUMPDEST PUSH1 0x0 JUMPDEST DUP4 DUP2 LT ISZERO PUSH2 0x594 JUMPI DUP1 DUP3 ADD MLOAD DUP2 DUP5 ADD MSTORE PUSH1 0x20 DUP2 ADD SWAP1 POP PUSH2 0x579 JUMP JUMPDEST PUSH1 0x0 DUP5 DUP5 ADD MSTORE POP POP POP POP JUMP JUMPDEST PUSH1 0x0 PUSH2 0x5AB DUP3 PUSH2 0x55A JUMP JUMPDEST PUSH2 0x5B5 DUP2 DUP6 PUSH2 0x565 JUMP JUMPDEST SWAP4 POP PUSH2 0x5C5 DUP2 DUP6 PUSH1 0x20 DUP7 ADD PUSH2 0x576 JUMP JUMPDEST PUSH2 0x5CE DUP2 PUSH2 0x35F JUMP JUMPDEST DUP5 ADD SWAP2 POP POP SWAP3 SWAP2 POP POP JUMP JUMPDEST PUSH2 0x5E2 DUP2 PUSH2 0x49B JUMP JUMPDEST DUP3 MSTORE POP POP JUMP JUMPDEST PUSH1 0x0 PUSH1 0x80 DUP3 ADD SWAP1 POP DUP2 DUP2 SUB PUSH1 0x0 DUP4 ADD MSTORE PUSH2 0x602 DUP2 DUP8 PUSH2 0x5A0 JUMP JUMPDEST SWAP1 POP PUSH2 0x611 PUSH1 0x20 DUP4 ADD DUP7 PUSH2 0x5D9 JUMP JUMPDEST PUSH2 0x61E PUSH1 0x40 DUP4 ADD DUP6 PUSH2 0x5D9 JUMP JUMPDEST PUSH2 0x62B PUSH1 0x60 DUP4 ADD DUP5 PUSH2 0x317 JUMP JUMPDEST SWAP6 SWAP5 POP POP POP POP POP JUMP JUMPDEST PUSH1 0x0 PUSH1 0x20 DUP3 ADD SWAP1 POP PUSH2 0x649 PUSH1 0x0 DUP4 ADD DUP5 PUSH2 0x5D9 JUMP JUMPDEST SWAP3 SWAP2 POP POP JUMP JUMPDEST PUSH32 0x4E487B7100000000000000000000000000000000000000000000000000000000 PUSH1 0x0 MSTORE PUSH1 0x22 PUSH1 0x4 MSTORE PUSH1 0x24 PUSH1 0x0 REVERT JUMPDEST PUSH1 0x0 PUSH1 0x2 DUP3 DIV SWAP1 POP PUSH1 0x1 DUP3 AND DUP1 PUSH2 0x696 JUMPI PUSH1 0x7F DUP3 AND SWAP2 POP JUMPDEST PUSH1 0x20 DUP3 LT DUP2 SUB PUSH2 0x6A9 JUMPI PUSH2 0x6A8 PUSH2 0x64F JUMP JUMPDEST JUMPDEST POP SWAP2 SWAP1 POP JUMP JUMPDEST PUSH1 0x0 DUP2 SWAP1 POP DUP2 PUSH1 0x0 MSTORE PUSH1 0x20 PUSH1 0x0 KECCAK256 SWAP1 POP SWAP2 SWAP1 POP JUMP JUMPDEST PUSH1 0x0 PUSH1 0x20 PUSH1 0x1F DUP4 ADD DIV SWAP1 POP SWAP2 SWAP1 POP JUMP JUMPDEST PUSH1 0x0 DUP3 DUP3 SHL SWAP1 POP SWAP3 SWAP2 POP POP JUMP JUMPDEST PUSH1 0x0 PUSH1 0x8 DUP4 MUL PUSH2 0x711 PUSH32 0xFFFFFFFFFFFFFFFFFFFFFFFFFFFFFFFFFFFFFFFFFFFFFFFFFFFFFFFFFFFFFFFF DUP3 PUSH2 0x6D4 JUMP JUMPDEST PUSH2 0x71B DUP7 DUP4 PUSH2 0x6D4 JUMP JUMPDEST SWAP6 POP DUP1 NOT DUP5 AND SWAP4 POP DUP1 DUP7 AND DUP5 OR SWAP3 POP POP POP SWAP4 SWAP3 POP POP POP JUMP JUMPDEST PUSH1 0x0 DUP2 SWAP1 POP SWAP2 SWAP1 POP JUMP JUMPDEST PUSH1 0x0 PUSH2 0x758 PUSH2 0x753 PUSH2 0x74E DUP5 PUSH2 0x49B JUMP JUMPDEST PUSH2 0x733 JUMP JUMPDEST PUSH2 0x49B JUMP JUMPDEST SWAP1 POP SWAP2 SWAP1 POP JUMP JUMPDEST PUSH1 0x0 DUP2 SWAP1 POP SWAP2 SWAP1 POP JUMP JUMPDEST PUSH2 0x772 DUP4 PUSH2 0x73D JUMP JUMPDEST PUSH2 0x786 PUSH2 0x77E DUP3 PUSH2 0x75F JUMP JUMPDEST DUP5 DUP5 SLOAD PUSH2 0x6E1 JUMP JUMPDEST DUP3 SSTORE POP POP POP POP JUMP JUMPDEST PUSH1 0x0 SWAP1 JUMP JUMPDEST PUSH2 0x79B PUSH2 0x78E JUMP JUMPDEST PUSH2 0x7A6 DUP2 DUP5 DUP5 PUSH2 0x769 JUMP JUMPDEST POP POP POP JUMP JUMPDEST JUMPDEST DUP2 DUP2 LT ISZERO PUSH2 0x7CA JUMPI PUSH2 0x7BF PUSH1 0x0 DUP3 PUSH2 0x793 JUMP JUMPDEST PUSH1 0x1 DUP2 ADD SWAP1 POP PUSH2 0x7AC JUMP JUMPDEST POP POP JUMP JUMPDEST PUSH1 0x1F DUP3 GT ISZERO PUSH2 0x80F JUMPI PUSH2 0x7E0 DUP2 PUSH2 0x6AF JUMP JUMPDEST PUSH2 0x7E9 DUP5 PUSH2 0x6C4 JUMP JUMPDEST DUP2 ADD PUSH1 0x20 DUP6 LT ISZERO PUSH2 0x7F8 JUMPI DUP2 SWAP1 POP JUMPDEST PUSH2 0x80C PUSH2 0x804 DUP6 PUSH2 0x6C4 JUMP JUMPDEST DUP4 ADD DUP3 PUSH2 0x7AB JUMP JUMPDEST POP POP JUMPDEST POP POP POP JUMP JUMPDEST PUSH1 0x0 DUP3 DUP3 SHR SWAP1 POP SWAP3 SWAP2 POP POP JUMP JUMPDEST PUSH1 0x0 PUSH2 0x832 PUSH1 0x0 NOT DUP5 PUSH1 0x8 MUL PUSH2 0x814 JUMP JUMPDEST NOT DUP1 DUP4 AND SWAP2 POP POP SWAP3 SWAP2 POP POP JUMP JUMPDEST PUSH1 0x0 PUSH2 0x84B DUP4 DUP4 PUSH2 0x821 JUMP JUMPDEST SWAP2 POP DUP3 PUSH1 0x2 MUL DUP3 OR SWAP1 POP SWAP3 SWAP2 POP POP JUMP JUMPDEST PUSH2 0x864 DUP3 PUSH2 0x55A JUMP JUMPDEST PUSH8 0xFFFFFFFFFFFFFFFF DUP2 GT ISZERO PUSH2 0x87D JUMPI PUSH2 0x87C PUSH2 0x370 JUMP JUMPDEST JUMPDEST PUSH2 0x887 DUP3 SLOAD PUSH2 0x67E JUMP JUMPDEST PUSH2 0x892 DUP3 DUP3 DUP6 PUSH2 0x7CE JUMP JUMPDEST PUSH1 0x0 PUSH1 0x20 SWAP1 POP PUSH1 0x1F DUP4 GT PUSH1 0x1 DUP2 EQ PUSH2 0x8C5 JUMPI PUSH1 0x0 DUP5 ISZERO PUSH2 0x8B3 JUMPI DUP3 DUP8 ADD MLOAD SWAP1 POP JUMPDEST PUSH2 0x8BD DUP6 DUP3 PUSH2 0x83F JUMP JUMPDEST DUP7 SSTORE POP PUSH2 0x925 JUMP JUMPDEST PUSH1 0x1F NOT DUP5 AND PUSH2 0x8D3 DUP7 PUSH2 0x6AF JUMP JUMPDEST PUSH1 0x0 JUMPDEST DUP3 DUP2 LT ISZERO PUSH2 0x8FB JUMPI DUP5 DUP10 ADD MLOAD DUP3 SSTORE PUSH1 0x1 DUP3 ADD SWAP2 POP PUSH1 0x20 DUP6 ADD SWAP5 POP PUSH1 0x20 DUP2 ADD SWAP1 POP PUSH2 0x8D6 JUMP JUMPDEST DUP7 DUP4 LT ISZERO PUSH2 0x918 JUMPI DUP5 DUP10 ADD MLOAD PUSH2 0x914 PUSH1 0x1F DUP10 AND DUP3 PUSH2 0x821 JUMP JUMPDEST DUP4 SSTORE POP JUMPDEST PUSH1 0x1 PUSH1 0x2 DUP9 MUL ADD DUP9 SSTORE POP POP POP JUMPDEST POP POP POP POP POP POP JUMP INVALID LOG2 PUSH5 0x6970667358 0x22 SLT KECCAK256 0xC5 0x4A PUSH14 0x11FEA66B234010B0933B9FBFFBE5 SWAP7 0xAC 0xE SWAP10 0xC7 PUSH28 0xCD59DB1C83879FCF9164736F6C634300081200330000000000000000 "
				},
				"gasEstimates": {
					"creation": {
						"codeDepositCost": "480600",
						"executionCost": "24784",
						"totalCost": "505384"
					},
					"external": {
						"assets(uint256)": "infinite",
						"depositAsset(string,uint256)": "infinite",
						"getContactBalance()": "383",
						"owner()": "2492"
					}
				},
				"methodIdentifiers": {
					"assets(uint256)": "cf35bdd0",
					"depositAsset(string,uint256)": "ce7f450d",
					"getContactBalance()": "e48aabd5",
					"owner()": "8da5cb5b"
				}
			},
			"storageLayout": {
				"storage": [
					{
						"astId": 14,
						"contract": "Defi-project/bank.sol:Bank",
						"label": "assets",
						"offset": 0,
						"slot": "0",
						"type": "t_array(t_struct(Asset)10_storage)dyn_storage"
					},
					{
						"astId": 16,
						"contract": "Defi-project/bank.sol:Bank",
						"label": "owner",
						"offset": 0,
						"slot": "1",
						"type": "t_address"
					}
				],
				"types": {
					"t_address": {
						"encoding": "inplace",
						"label": "address",
						"numberOfBytes": "20"
					},
					"t_array(t_struct(Asset)10_storage)dyn_storage": {
						"base": "t_struct(Asset)10_storage",
						"encoding": "dynamic_array",
						"label": "struct Bank.Asset[]",
						"numberOfBytes": "32"
					},
					"t_string_storage": {
						"encoding": "bytes",
						"label": "string",
						"numberOfBytes": "32"
					},
					"t_struct(Asset)10_storage": {
						"encoding": "inplace",
						"label": "struct Bank.Asset",
						"members": [
							{
								"astId": 3,
								"contract": "Defi-project/bank.sol:Bank",
								"label": "name",
								"offset": 0,
								"slot": "0",
								"type": "t_string_storage"
							},
							{
								"astId": 5,
								"contract": "Defi-project/bank.sol:Bank",
								"label": "balance",
								"offset": 0,
								"slot": "1",
								"type": "t_uint256"
							},
							{
								"astId": 7,
								"contract": "Defi-project/bank.sol:Bank",
								"label": "timestamp",
								"offset": 0,
								"slot": "2",
								"type": "t_uint256"
							},
							{
								"astId": 9,
								"contract": "Defi-project/bank.sol:Bank",
								"label": "from",
								"offset": 0,
								"slot": "3",
								"type": "t_address"
							}
						],
						"numberOfBytes": "128"
					},
					"t_uint256": {
						"encoding": "inplace",
						"label": "uint256",
						"numberOfBytes": "32"
					}
				}
			},
			"userdoc": {
				"kind": "user",
				"methods": {},
				"version": 1
			}
		}
	}
}