{
	"Defi-project/LendingConfig.sol": {
		"LendingPoolConfig": {
			"abi": [
				{
					"inputs": [],
					"stateMutability": "nonpayable",
					"type": "constructor"
				},
				{
					"anonymous": false,
					"inputs": [
						{
							"indexed": false,
							"internalType": "address",
							"name": "token",
							"type": "address"
						},
						{
							"indexed": false,
							"internalType": "string",
							"name": "symbol",
							"type": "string"
						},
						{
							"indexed": false,
							"internalType": "uint256",
							"name": "borrowThreshold",
							"type": "uint256"
						},
						{
							"indexed": false,
							"internalType": "uint256",
							"name": "liquidationThreshold",
							"type": "uint256"
						}
					],
					"name": "AddAsset",
					"type": "event"
				},
				{
					"anonymous": false,
					"inputs": [
						{
							"indexed": false,
							"internalType": "address",
							"name": "token",
							"type": "address"
						},
						{
							"indexed": false,
							"internalType": "enum LendingPoolConfig.Freeze",
							"name": "isfrozen",
							"type": "uint8"
						}
					],
					"name": "UpdateAssetFrozen",
					"type": "event"
				},
				{
					"anonymous": false,
					"inputs": [
						{
							"indexed": false,
							"internalType": "address",
							"name": "token",
							"type": "address"
						},
						{
							"indexed": false,
							"internalType": "enum LendingPoolConfig.AssetStatus",
							"name": "isActive",
							"type": "uint8"
						}
					],
					"name": "UpdateAssetStatus",
					"type": "event"
				},
				{
					"inputs": [
						{
							"internalType": "address",
							"name": "_token",
							"type": "address"
						},
						{
							"internalType": "string",
							"name": "_symbol",
							"type": "string"
						},
						{
							"internalType": "uint256",
							"name": "decimals",
							"type": "uint256"
						},
						{
							"internalType": "uint256",
							"name": "borrowThreshold",
							"type": "uint256"
						},
						{
							"internalType": "uint256",
							"name": "liquidationThreshold",
							"type": "uint256"
						},
						{
							"internalType": "bool",
							"name": "borrowingEnabled",
							"type": "bool"
						},
						{
							"internalType": "bool",
							"name": "usageAsCollateralEnabled",
							"type": "bool"
						},
						{
							"internalType": "bool",
							"name": "isfrozen",
							"type": "bool"
						},
						{
							"internalType": "bool",
							"name": "isActive",
							"type": "bool"
						}
					],
					"name": "addAssets",
					"outputs": [],
					"stateMutability": "nonpayable",
					"type": "function"
				},
				{
					"inputs": [
						{
							"internalType": "address",
							"name": "_token",
							"type": "address"
						},
						{
							"internalType": "enum LendingPoolConfig.Freeze",
							"name": "_choice",
							"type": "uint8"
						}
					],
					"name": "freezeUnFreezeAsset",
					"outputs": [
						{
							"internalType": "bool",
							"name": "",
							"type": "bool"
						}
					],
					"stateMutability": "nonpayable",
					"type": "function"
				},
				{
					"inputs": [
						{
							"internalType": "address",
							"name": "_token",
							"type": "address"
						},
						{
							"internalType": "enum LendingPoolConfig.AssetStatus",
							"name": "_choice",
							"type": "uint8"
						}
					],
					"name": "makeAssetActiveInactive",
					"outputs": [
						{
							"internalType": "bool",
							"name": "",
							"type": "bool"
						}
					],
					"stateMutability": "nonpayable",
					"type": "function"
				}
			],
			"devdoc": {
				"kind": "dev",
				"methods": {},
				"version": 1
			},
			"evm": {
				"assembly": "    /* \"Defi-project/LendingConfig.sol\":217:3312  contract LendingPoolConfig {\r... */\n  mstore(0x40, 0x80)\n    /* \"Defi-project/LendingConfig.sol\":711:761  constructor(){\r... */\n  callvalue\n  dup1\n  iszero\n  tag_1\n  jumpi\n  0x00\n  dup1\n  revert\ntag_1:\n  pop\n    /* \"Defi-project/LendingConfig.sol\":743:753  msg.sender */\n  caller\n    /* \"Defi-project/LendingConfig.sol\":735:740  owner */\n  0x00\n  dup1\n    /* \"Defi-project/LendingConfig.sol\":735:753  owner = msg.sender */\n  0x0100\n  exp\n  dup2\n  sload\n  dup2\n  0xffffffffffffffffffffffffffffffffffffffff\n  mul\n  not\n  and\n  swap1\n  dup4\n  0xffffffffffffffffffffffffffffffffffffffff\n  and\n  mul\n  or\n  swap1\n  sstore\n  pop\n    /* \"Defi-project/LendingConfig.sol\":217:3312  contract LendingPoolConfig {\r... */\n  dataSize(sub_0)\n  dup1\n  dataOffset(sub_0)\n  0x00\n  codecopy\n  0x00\n  return\nstop\n\nsub_0: assembly {\n        /* \"Defi-project/LendingConfig.sol\":217:3312  contract LendingPoolConfig {\r... */\n      mstore(0x40, 0x80)\n      callvalue\n      dup1\n      iszero\n      tag_1\n      jumpi\n      0x00\n      dup1\n      revert\n    tag_1:\n      pop\n      jumpi(tag_2, lt(calldatasize, 0x04))\n      shr(0xe0, calldataload(0x00))\n      dup1\n      0x671e3f75\n      eq\n      tag_3\n      jumpi\n      dup1\n      0xcfb67379\n      eq\n      tag_4\n      jumpi\n      dup1\n      0xe7149623\n      eq\n      tag_5\n      jumpi\n    tag_2:\n      0x00\n      dup1\n      revert\n        /* \"Defi-project/LendingConfig.sol\":2005:2661  function makeAssetActiveInactive(address _token, AssetStatus _choice) external returns(bool){\r... */\n    tag_3:\n      tag_6\n      0x04\n      dup1\n      calldatasize\n      sub\n      dup2\n      add\n      swap1\n      tag_7\n      swap2\n      swap1\n      tag_8\n      jump\t// in\n    tag_7:\n      tag_9\n      jump\t// in\n    tag_6:\n      mload(0x40)\n      tag_10\n      swap2\n      swap1\n      tag_11\n      jump\t// in\n    tag_10:\n      mload(0x40)\n      dup1\n      swap2\n      sub\n      swap1\n      return\n        /* \"Defi-project/LendingConfig.sol\":1130:1997  function addAssets(\r... */\n    tag_4:\n      tag_12\n      0x04\n      dup1\n      calldatasize\n      sub\n      dup2\n      add\n      swap1\n      tag_13\n      swap2\n      swap1\n      tag_14\n      jump\t// in\n    tag_13:\n      tag_15\n      jump\t// in\n    tag_12:\n      stop\n        /* \"Defi-project/LendingConfig.sol\":2669:3301  function freezeUnFreezeAsset(address _token, Freeze _choice) public returns(bool){\r... */\n    tag_5:\n      tag_16\n      0x04\n      dup1\n      calldatasize\n      sub\n      dup2\n      add\n      swap1\n      tag_17\n      swap2\n      swap1\n      tag_18\n      jump\t// in\n    tag_17:\n      tag_19\n      jump\t// in\n    tag_16:\n      mload(0x40)\n      tag_20\n      swap2\n      swap1\n      tag_11\n      jump\t// in\n    tag_20:\n      mload(0x40)\n      dup1\n      swap2\n      sub\n      swap1\n      return\n        /* \"Defi-project/LendingConfig.sol\":2005:2661  function makeAssetActiveInactive(address _token, AssetStatus _choice) external returns(bool){\r... */\n    tag_9:\n        /* \"Defi-project/LendingConfig.sol\":2092:2096  bool */\n      0x00\n        /* \"Defi-project/LendingConfig.sol\":2108:2125  uint256 assetsLen */\n      dup1\n        /* \"Defi-project/LendingConfig.sol\":2128:2134  assets */\n      0x01\n        /* \"Defi-project/LendingConfig.sol\":2128:2141  assets.length */\n      dup1\n      sload\n      swap1\n      pop\n        /* \"Defi-project/LendingConfig.sol\":2108:2141  uint256 assetsLen = assets.length */\n      swap1\n      pop\n        /* \"Defi-project/LendingConfig.sol\":2157:2163  uint i */\n      0x00\n        /* \"Defi-project/LendingConfig.sol\":2152:2573  for (uint i = 0; i < assetsLen; i++) {\r... */\n    tag_22:\n        /* \"Defi-project/LendingConfig.sol\":2173:2182  assetsLen */\n      dup2\n        /* \"Defi-project/LendingConfig.sol\":2169:2170  i */\n      dup2\n        /* \"Defi-project/LendingConfig.sol\":2169:2182  i < assetsLen */\n      lt\n        /* \"Defi-project/LendingConfig.sol\":2152:2573  for (uint i = 0; i < assetsLen; i++) {\r... */\n      iszero\n      tag_23\n      jumpi\n        /* \"Defi-project/LendingConfig.sol\":2227:2233  _token */\n      dup5\n        /* \"Defi-project/LendingConfig.sol\":2208:2233  assets[i].token == _token */\n      0xffffffffffffffffffffffffffffffffffffffff\n      and\n        /* \"Defi-project/LendingConfig.sol\":2208:2214  assets */\n      0x01\n        /* \"Defi-project/LendingConfig.sol\":2215:2216  i */\n      dup3\n        /* \"Defi-project/LendingConfig.sol\":2208:2217  assets[i] */\n      dup2\n      sload\n      dup2\n      lt\n      tag_25\n      jumpi\n      tag_26\n      tag_27\n      jump\t// in\n    tag_26:\n    tag_25:\n      swap1\n      0x00\n      mstore\n      keccak256(0x00, 0x20)\n      swap1\n      0x07\n      mul\n      add\n        /* \"Defi-project/LendingConfig.sol\":2208:2223  assets[i].token */\n      0x00\n      add\n      0x00\n      swap1\n      sload\n      swap1\n      0x0100\n      exp\n      swap1\n      div\n      0xffffffffffffffffffffffffffffffffffffffff\n      and\n        /* \"Defi-project/LendingConfig.sol\":2208:2233  assets[i].token == _token */\n      0xffffffffffffffffffffffffffffffffffffffff\n      and\n      eq\n        /* \"Defi-project/LendingConfig.sol\":2204:2562  if (assets[i].token == _token){\r... */\n      iszero\n      tag_29\n      jumpi\n        /* \"Defi-project/LendingConfig.sol\":2268:2286  AssetStatus.ACTIVE */\n      0x00\n        /* \"Defi-project/LendingConfig.sol\":2257:2286  _choice == AssetStatus.ACTIVE */\n      0x01\n      dup2\n      gt\n      iszero\n      tag_30\n      jumpi\n      tag_31\n      tag_32\n      jump\t// in\n    tag_31:\n    tag_30:\n        /* \"Defi-project/LendingConfig.sol\":2257:2264  _choice */\n      dup5\n        /* \"Defi-project/LendingConfig.sol\":2257:2286  _choice == AssetStatus.ACTIVE */\n      0x01\n      dup2\n      gt\n      iszero\n      tag_33\n      jumpi\n      tag_34\n      tag_32\n      jump\t// in\n    tag_34:\n    tag_33:\n      eq\n        /* \"Defi-project/LendingConfig.sol\":2253:2451  if (_choice == AssetStatus.ACTIVE){\r... */\n      iszero\n      tag_35\n      jumpi\n        /* \"Defi-project/LendingConfig.sol\":2331:2335  true */\n      0x01\n        /* \"Defi-project/LendingConfig.sol\":2310:2316  assets */\n      dup1\n        /* \"Defi-project/LendingConfig.sol\":2317:2318  i */\n      dup3\n        /* \"Defi-project/LendingConfig.sol\":2310:2319  assets[i] */\n      dup2\n      sload\n      dup2\n      lt\n      tag_36\n      jumpi\n      tag_37\n      tag_27\n      jump\t// in\n    tag_37:\n    tag_36:\n      swap1\n      0x00\n      mstore\n      keccak256(0x00, 0x20)\n      swap1\n      0x07\n      mul\n      add\n        /* \"Defi-project/LendingConfig.sol\":2310:2328  assets[i].isfrozen */\n      0x06\n      add\n      0x02\n        /* \"Defi-project/LendingConfig.sol\":2310:2335  assets[i].isfrozen = true */\n      0x0100\n      exp\n      dup2\n      sload\n      dup2\n      0xff\n      mul\n      not\n      and\n      swap1\n      dup4\n      iszero\n      iszero\n      mul\n      or\n      swap1\n      sstore\n      pop\n        /* \"Defi-project/LendingConfig.sol\":2253:2451  if (_choice == AssetStatus.ACTIVE){\r... */\n      jump(tag_39)\n    tag_35:\n        /* \"Defi-project/LendingConfig.sol\":2426:2431  false */\n      0x00\n        /* \"Defi-project/LendingConfig.sol\":2405:2411  assets */\n      0x01\n        /* \"Defi-project/LendingConfig.sol\":2412:2413  i */\n      dup3\n        /* \"Defi-project/LendingConfig.sol\":2405:2414  assets[i] */\n      dup2\n      sload\n      dup2\n      lt\n      tag_40\n      jumpi\n      tag_41\n      tag_27\n      jump\t// in\n    tag_41:\n    tag_40:\n      swap1\n      0x00\n      mstore\n      keccak256(0x00, 0x20)\n      swap1\n      0x07\n      mul\n      add\n        /* \"Defi-project/LendingConfig.sol\":2405:2423  assets[i].isfrozen */\n      0x06\n      add\n      0x02\n        /* \"Defi-project/LendingConfig.sol\":2405:2431  assets[i].isfrozen = false */\n      0x0100\n      exp\n      dup2\n      sload\n      dup2\n      0xff\n      mul\n      not\n      and\n      swap1\n      dup4\n      iszero\n      iszero\n      mul\n      or\n      swap1\n      sstore\n      pop\n        /* \"Defi-project/LendingConfig.sol\":2253:2451  if (_choice == AssetStatus.ACTIVE){\r... */\n    tag_39:\n        /* \"Defi-project/LendingConfig.sol\":2501:2516  block.timestamp */\n      timestamp\n        /* \"Defi-project/LendingConfig.sol\":2469:2475  assets */\n      0x01\n        /* \"Defi-project/LendingConfig.sol\":2476:2477  i */\n      dup3\n        /* \"Defi-project/LendingConfig.sol\":2469:2478  assets[i] */\n      dup2\n      sload\n      dup2\n      lt\n      tag_43\n      jumpi\n      tag_44\n      tag_27\n      jump\t// in\n    tag_44:\n    tag_43:\n      swap1\n      0x00\n      mstore\n      keccak256(0x00, 0x20)\n      swap1\n      0x07\n      mul\n      add\n        /* \"Defi-project/LendingConfig.sol\":2469:2498  assets[i].lastUpdateTimestamp */\n      0x05\n      add\n        /* \"Defi-project/LendingConfig.sol\":2469:2516  assets[i].lastUpdateTimestamp = block.timestamp */\n      dup2\n      swap1\n      sstore\n      pop\n        /* \"Defi-project/LendingConfig.sol\":2542:2546  true */\n      0x01\n        /* \"Defi-project/LendingConfig.sol\":2535:2546  return true */\n      swap3\n      pop\n      pop\n      pop\n      jump(tag_21)\n        /* \"Defi-project/LendingConfig.sol\":2204:2562  if (assets[i].token == _token){\r... */\n    tag_29:\n        /* \"Defi-project/LendingConfig.sol\":2184:2187  i++ */\n      dup1\n      dup1\n      tag_46\n      swap1\n      tag_47\n      jump\t// in\n    tag_46:\n      swap2\n      pop\n      pop\n        /* \"Defi-project/LendingConfig.sol\":2152:2573  for (uint i = 0; i < assetsLen; i++) {\r... */\n      jump(tag_22)\n    tag_23:\n      pop\n        /* \"Defi-project/LendingConfig.sol\":2588:2622  UpdateAssetStatus(_token, _choice) */\n      0x1bc4f6a74fdbf500e13db259c58a58c59533ea54a4b93010d0126f6061ec3753\n        /* \"Defi-project/LendingConfig.sol\":2606:2612  _token */\n      dup5\n        /* \"Defi-project/LendingConfig.sol\":2614:2621  _choice */\n      dup5\n        /* \"Defi-project/LendingConfig.sol\":2588:2622  UpdateAssetStatus(_token, _choice) */\n      mload(0x40)\n      tag_48\n      swap3\n      swap2\n      swap1\n      tag_49\n      jump\t// in\n    tag_48:\n      mload(0x40)\n      dup1\n      swap2\n      sub\n      swap1\n      log1\n        /* \"Defi-project/LendingConfig.sol\":2648:2653  false */\n      0x00\n        /* \"Defi-project/LendingConfig.sol\":2641:2653  return false */\n      swap2\n      pop\n      pop\n        /* \"Defi-project/LendingConfig.sol\":2005:2661  function makeAssetActiveInactive(address _token, AssetStatus _choice) external returns(bool){\r... */\n    tag_21:\n      swap3\n      swap2\n      pop\n      pop\n      jump\t// out\n        /* \"Defi-project/LendingConfig.sol\":1130:1997  function addAssets(\r... */\n    tag_15:\n        /* \"Defi-project/LendingConfig.sol\":1459:1465  assets */\n      0x01\n        /* \"Defi-project/LendingConfig.sol\":1485:1974  Asset({\r... */\n      mload(0x40)\n      dup1\n      0x0140\n      add\n      0x40\n      mstore\n      dup1\n        /* \"Defi-project/LendingConfig.sol\":1517:1523  _token */\n      dup12\n        /* \"Defi-project/LendingConfig.sol\":1485:1974  Asset({\r... */\n      0xffffffffffffffffffffffffffffffffffffffff\n      and\n      dup2\n      mstore\n      0x20\n      add\n        /* \"Defi-project/LendingConfig.sol\":1550:1557  _symbol */\n      dup11\n        /* \"Defi-project/LendingConfig.sol\":1485:1974  Asset({\r... */\n      dup2\n      mstore\n      0x20\n      add\n        /* \"Defi-project/LendingConfig.sol\":1586:1594  decimals */\n      dup10\n        /* \"Defi-project/LendingConfig.sol\":1485:1974  Asset({\r... */\n      dup2\n      mstore\n      0x20\n      add\n        /* \"Defi-project/LendingConfig.sol\":1630:1645  borrowThreshold */\n      dup9\n        /* \"Defi-project/LendingConfig.sol\":1485:1974  Asset({\r... */\n      dup2\n      mstore\n      0x20\n      add\n        /* \"Defi-project/LendingConfig.sol\":1687:1707  liquidationThreshold */\n      dup8\n        /* \"Defi-project/LendingConfig.sol\":1485:1974  Asset({\r... */\n      dup2\n      mstore\n      0x20\n      add\n        /* \"Defi-project/LendingConfig.sol\":1747:1762  block.timestamp */\n      timestamp\n        /* \"Defi-project/LendingConfig.sol\":1485:1974  Asset({\r... */\n      dup2\n      mstore\n      0x20\n      add\n        /* \"Defi-project/LendingConfig.sol\":1799:1815  borrowingEnabled */\n      dup7\n        /* \"Defi-project/LendingConfig.sol\":1485:1974  Asset({\r... */\n      iszero\n      iszero\n      dup2\n      mstore\n      0x20\n      add\n        /* \"Defi-project/LendingConfig.sol\":1860:1884  usageAsCollateralEnabled */\n      dup6\n        /* \"Defi-project/LendingConfig.sol\":1485:1974  Asset({\r... */\n      iszero\n      iszero\n      dup2\n      mstore\n      0x20\n      add\n        /* \"Defi-project/LendingConfig.sol\":1913:1921  isfrozen */\n      dup5\n        /* \"Defi-project/LendingConfig.sol\":1485:1974  Asset({\r... */\n      iszero\n      iszero\n      dup2\n      mstore\n      0x20\n      add\n        /* \"Defi-project/LendingConfig.sol\":1950:1958  isActive */\n      dup4\n        /* \"Defi-project/LendingConfig.sol\":1485:1974  Asset({\r... */\n      iszero\n      iszero\n      dup2\n      mstore\n      pop\n        /* \"Defi-project/LendingConfig.sol\":1459:1985  assets.push(\r... */\n      swap1\n      dup1\n      0x01\n      dup2\n      sload\n      add\n      dup1\n      dup3\n      sstore\n      dup1\n      swap2\n      pop\n      pop\n      0x01\n      swap1\n      sub\n      swap1\n      0x00\n      mstore\n      keccak256(0x00, 0x20)\n      swap1\n      0x07\n      mul\n      add\n      0x00\n      swap1\n      swap2\n      swap1\n      swap2\n      swap1\n      swap2\n      pop\n      0x00\n      dup3\n      add\n      mload\n      dup2\n      0x00\n      add\n      exp(0x0100, 0x00)\n      dup2\n      sload\n      dup2\n      0xffffffffffffffffffffffffffffffffffffffff\n      mul\n      not\n      and\n      swap1\n      dup4\n      0xffffffffffffffffffffffffffffffffffffffff\n      and\n      mul\n      or\n      swap1\n      sstore\n      pop\n      0x20\n      dup3\n      add\n      mload\n      dup2\n      0x01\n      add\n      swap1\n      dup1\n      mload\n      swap1\n      0x20\n      add\n      swap1\n      tag_52\n      swap3\n      swap2\n      swap1\n      tag_53\n      jump\t// in\n    tag_52:\n      pop\n      0x40\n      dup3\n      add\n      mload\n      dup2\n      0x02\n      add\n      sstore\n      0x60\n      dup3\n      add\n      mload\n      dup2\n      0x03\n      add\n      sstore\n      0x80\n      dup3\n      add\n      mload\n      dup2\n      0x04\n      add\n      sstore\n      0xa0\n      dup3\n      add\n      mload\n      dup2\n      0x05\n      add\n      sstore\n      0xc0\n      dup3\n      add\n      mload\n      dup2\n      0x06\n      add\n      exp(0x0100, 0x00)\n      dup2\n      sload\n      dup2\n      0xff\n      mul\n      not\n      and\n      swap1\n      dup4\n      iszero\n      iszero\n      mul\n      or\n      swap1\n      sstore\n      pop\n      0xe0\n      dup3\n      add\n      mload\n      dup2\n      0x06\n      add\n      exp(0x0100, 0x01)\n      dup2\n      sload\n      dup2\n      0xff\n      mul\n      not\n      and\n      swap1\n      dup4\n      iszero\n      iszero\n      mul\n      or\n      swap1\n      sstore\n      pop\n      0x0100\n      dup3\n      add\n      mload\n      dup2\n      0x06\n      add\n      exp(0x0100, 0x02)\n      dup2\n      sload\n      dup2\n      0xff\n      mul\n      not\n      and\n      swap1\n      dup4\n      iszero\n      iszero\n      mul\n      or\n      swap1\n      sstore\n      pop\n      0x0120\n      dup3\n      add\n      mload\n      dup2\n      0x06\n      add\n      exp(0x0100, 0x03)\n      dup2\n      sload\n      dup2\n      0xff\n      mul\n      not\n      and\n      swap1\n      dup4\n      iszero\n      iszero\n      mul\n      or\n      swap1\n      sstore\n      pop\n      pop\n      pop\n        /* \"Defi-project/LendingConfig.sol\":1130:1997  function addAssets(\r... */\n      pop\n      pop\n      pop\n      pop\n      pop\n      pop\n      pop\n      pop\n      pop\n      jump\t// out\n        /* \"Defi-project/LendingConfig.sol\":2669:3301  function freezeUnFreezeAsset(address _token, Freeze _choice) public returns(bool){\r... */\n    tag_19:\n        /* \"Defi-project/LendingConfig.sol\":2745:2749  bool */\n      0x00\n        /* \"Defi-project/LendingConfig.sol\":2761:2778  uint256 assetsLen */\n      dup1\n        /* \"Defi-project/LendingConfig.sol\":2781:2787  assets */\n      0x01\n        /* \"Defi-project/LendingConfig.sol\":2781:2794  assets.length */\n      dup1\n      sload\n      swap1\n      pop\n        /* \"Defi-project/LendingConfig.sol\":2761:2794  uint256 assetsLen = assets.length */\n      swap1\n      pop\n        /* \"Defi-project/LendingConfig.sol\":2810:2816  uint i */\n      0x00\n        /* \"Defi-project/LendingConfig.sol\":2805:3221  for (uint i = 0; i < assetsLen; i++) {\r... */\n    tag_55:\n        /* \"Defi-project/LendingConfig.sol\":2826:2835  assetsLen */\n      dup2\n        /* \"Defi-project/LendingConfig.sol\":2822:2823  i */\n      dup2\n        /* \"Defi-project/LendingConfig.sol\":2822:2835  i < assetsLen */\n      lt\n        /* \"Defi-project/LendingConfig.sol\":2805:3221  for (uint i = 0; i < assetsLen; i++) {\r... */\n      iszero\n      tag_56\n      jumpi\n        /* \"Defi-project/LendingConfig.sol\":2880:2886  _token */\n      dup5\n        /* \"Defi-project/LendingConfig.sol\":2861:2886  assets[i].token == _token */\n      0xffffffffffffffffffffffffffffffffffffffff\n      and\n        /* \"Defi-project/LendingConfig.sol\":2861:2867  assets */\n      0x01\n        /* \"Defi-project/LendingConfig.sol\":2868:2869  i */\n      dup3\n        /* \"Defi-project/LendingConfig.sol\":2861:2870  assets[i] */\n      dup2\n      sload\n      dup2\n      lt\n      tag_58\n      jumpi\n      tag_59\n      tag_27\n      jump\t// in\n    tag_59:\n    tag_58:\n      swap1\n      0x00\n      mstore\n      keccak256(0x00, 0x20)\n      swap1\n      0x07\n      mul\n      add\n        /* \"Defi-project/LendingConfig.sol\":2861:2876  assets[i].token */\n      0x00\n      add\n      0x00\n      swap1\n      sload\n      swap1\n      0x0100\n      exp\n      swap1\n      div\n      0xffffffffffffffffffffffffffffffffffffffff\n      and\n        /* \"Defi-project/LendingConfig.sol\":2861:2886  assets[i].token == _token */\n      0xffffffffffffffffffffffffffffffffffffffff\n      and\n      eq\n        /* \"Defi-project/LendingConfig.sol\":2857:3210  if (assets[i].token == _token){\r... */\n      iszero\n      tag_61\n      jumpi\n        /* \"Defi-project/LendingConfig.sol\":2921:2934  Freeze.FREEZE */\n      0x00\n        /* \"Defi-project/LendingConfig.sol\":2910:2934  _choice == Freeze.FREEZE */\n      0x01\n      dup2\n      gt\n      iszero\n      tag_62\n      jumpi\n      tag_63\n      tag_32\n      jump\t// in\n    tag_63:\n    tag_62:\n        /* \"Defi-project/LendingConfig.sol\":2910:2917  _choice */\n      dup5\n        /* \"Defi-project/LendingConfig.sol\":2910:2934  _choice == Freeze.FREEZE */\n      0x01\n      dup2\n      gt\n      iszero\n      tag_64\n      jumpi\n      tag_65\n      tag_32\n      jump\t// in\n    tag_65:\n    tag_64:\n      eq\n        /* \"Defi-project/LendingConfig.sol\":2906:3099  if (_choice == Freeze.FREEZE){\r... */\n      iszero\n      tag_66\n      jumpi\n        /* \"Defi-project/LendingConfig.sol\":2979:2983  true */\n      0x01\n        /* \"Defi-project/LendingConfig.sol\":2958:2964  assets */\n      dup1\n        /* \"Defi-project/LendingConfig.sol\":2965:2966  i */\n      dup3\n        /* \"Defi-project/LendingConfig.sol\":2958:2967  assets[i] */\n      dup2\n      sload\n      dup2\n      lt\n      tag_67\n      jumpi\n      tag_68\n      tag_27\n      jump\t// in\n    tag_68:\n    tag_67:\n      swap1\n      0x00\n      mstore\n      keccak256(0x00, 0x20)\n      swap1\n      0x07\n      mul\n      add\n        /* \"Defi-project/LendingConfig.sol\":2958:2976  assets[i].isfrozen */\n      0x06\n      add\n      0x02\n        /* \"Defi-project/LendingConfig.sol\":2958:2983  assets[i].isfrozen = true */\n      0x0100\n      exp\n      dup2\n      sload\n      dup2\n      0xff\n      mul\n      not\n      and\n      swap1\n      dup4\n      iszero\n      iszero\n      mul\n      or\n      swap1\n      sstore\n      pop\n        /* \"Defi-project/LendingConfig.sol\":2906:3099  if (_choice == Freeze.FREEZE){\r... */\n      jump(tag_70)\n    tag_66:\n        /* \"Defi-project/LendingConfig.sol\":3074:3079  false */\n      0x00\n        /* \"Defi-project/LendingConfig.sol\":3053:3059  assets */\n      0x01\n        /* \"Defi-project/LendingConfig.sol\":3060:3061  i */\n      dup3\n        /* \"Defi-project/LendingConfig.sol\":3053:3062  assets[i] */\n      dup2\n      sload\n      dup2\n      lt\n      tag_71\n      jumpi\n      tag_72\n      tag_27\n      jump\t// in\n    tag_72:\n    tag_71:\n      swap1\n      0x00\n      mstore\n      keccak256(0x00, 0x20)\n      swap1\n      0x07\n      mul\n      add\n        /* \"Defi-project/LendingConfig.sol\":3053:3071  assets[i].isfrozen */\n      0x06\n      add\n      0x02\n        /* \"Defi-project/LendingConfig.sol\":3053:3079  assets[i].isfrozen = false */\n      0x0100\n      exp\n      dup2\n      sload\n      dup2\n      0xff\n      mul\n      not\n      and\n      swap1\n      dup4\n      iszero\n      iszero\n      mul\n      or\n      swap1\n      sstore\n      pop\n        /* \"Defi-project/LendingConfig.sol\":2906:3099  if (_choice == Freeze.FREEZE){\r... */\n    tag_70:\n        /* \"Defi-project/LendingConfig.sol\":3149:3164  block.timestamp */\n      timestamp\n        /* \"Defi-project/LendingConfig.sol\":3117:3123  assets */\n      0x01\n        /* \"Defi-project/LendingConfig.sol\":3124:3125  i */\n      dup3\n        /* \"Defi-project/LendingConfig.sol\":3117:3126  assets[i] */\n      dup2\n      sload\n      dup2\n      lt\n      tag_74\n      jumpi\n      tag_75\n      tag_27\n      jump\t// in\n    tag_75:\n    tag_74:\n      swap1\n      0x00\n      mstore\n      keccak256(0x00, 0x20)\n      swap1\n      0x07\n      mul\n      add\n        /* \"Defi-project/LendingConfig.sol\":3117:3146  assets[i].lastUpdateTimestamp */\n      0x05\n      add\n        /* \"Defi-project/LendingConfig.sol\":3117:3164  assets[i].lastUpdateTimestamp = block.timestamp */\n      dup2\n      swap1\n      sstore\n      pop\n        /* \"Defi-project/LendingConfig.sol\":3190:3194  true */\n      0x01\n        /* \"Defi-project/LendingConfig.sol\":3183:3194  return true */\n      swap3\n      pop\n      pop\n      pop\n      jump(tag_54)\n        /* \"Defi-project/LendingConfig.sol\":2857:3210  if (assets[i].token == _token){\r... */\n    tag_61:\n        /* \"Defi-project/LendingConfig.sol\":2837:2840  i++ */\n      dup1\n      dup1\n      tag_77\n      swap1\n      tag_47\n      jump\t// in\n    tag_77:\n      swap2\n      pop\n      pop\n        /* \"Defi-project/LendingConfig.sol\":2805:3221  for (uint i = 0; i < assetsLen; i++) {\r... */\n      jump(tag_55)\n    tag_56:\n      pop\n        /* \"Defi-project/LendingConfig.sol\":3236:3270  UpdateAssetFrozen(_token, _choice) */\n      0x3f57ea1559cfee0ff7804a8bbf56c488fbd7f8d575acd8537d7f02a6ffb8bdb4\n        /* \"Defi-project/LendingConfig.sol\":3254:3260  _token */\n      dup5\n        /* \"Defi-project/LendingConfig.sol\":3262:3269  _choice */\n      dup5\n        /* \"Defi-project/LendingConfig.sol\":3236:3270  UpdateAssetFrozen(_token, _choice) */\n      mload(0x40)\n      tag_78\n      swap3\n      swap2\n      swap1\n      tag_79\n      jump\t// in\n    tag_78:\n      mload(0x40)\n      dup1\n      swap2\n      sub\n      swap1\n      log1\n        /* \"Defi-project/LendingConfig.sol\":3288:3293  false */\n      0x00\n        /* \"Defi-project/LendingConfig.sol\":3281:3293  return false */\n      swap2\n      pop\n      pop\n        /* \"Defi-project/LendingConfig.sol\":2669:3301  function freezeUnFreezeAsset(address _token, Freeze _choice) public returns(bool){\r... */\n    tag_54:\n      swap3\n      swap2\n      pop\n      pop\n      jump\t// out\n    tag_53:\n      dup3\n      dup1\n      sload\n      tag_80\n      swap1\n      tag_81\n      jump\t// in\n    tag_80:\n      swap1\n      0x00\n      mstore\n      keccak256(0x00, 0x20)\n      swap1\n      0x1f\n      add\n      0x20\n      swap1\n      div\n      dup2\n      add\n      swap3\n      dup3\n      tag_83\n      jumpi\n      0x00\n      dup6\n      sstore\n      jump(tag_82)\n    tag_83:\n      dup3\n      0x1f\n      lt\n      tag_84\n      jumpi\n      dup1\n      mload\n      not(0xff)\n      and\n      dup4\n      dup1\n      add\n      or\n      dup6\n      sstore\n      jump(tag_82)\n    tag_84:\n      dup3\n      dup1\n      add\n      0x01\n      add\n      dup6\n      sstore\n      dup3\n      iszero\n      tag_82\n      jumpi\n      swap2\n      dup3\n      add\n    tag_85:\n      dup3\n      dup2\n      gt\n      iszero\n      tag_86\n      jumpi\n      dup3\n      mload\n      dup3\n      sstore\n      swap2\n      0x20\n      add\n      swap2\n      swap1\n      0x01\n      add\n      swap1\n      jump(tag_85)\n    tag_86:\n    tag_82:\n      pop\n      swap1\n      pop\n      tag_87\n      swap2\n      swap1\n      tag_88\n      jump\t// in\n    tag_87:\n      pop\n      swap1\n      jump\t// out\n    tag_88:\n    tag_89:\n      dup1\n      dup3\n      gt\n      iszero\n      tag_90\n      jumpi\n      0x00\n      dup2\n      0x00\n      swap1\n      sstore\n      pop\n      0x01\n      add\n      jump(tag_89)\n    tag_90:\n      pop\n      swap1\n      jump\t// out\n        /* \"#utility.yul\":7:419   */\n    tag_92:\n        /* \"#utility.yul\":85:90   */\n      0x00\n        /* \"#utility.yul\":110:176   */\n      tag_94\n        /* \"#utility.yul\":126:175   */\n      tag_95\n        /* \"#utility.yul\":168:174   */\n      dup5\n        /* \"#utility.yul\":126:175   */\n      tag_96\n      jump\t// in\n    tag_95:\n        /* \"#utility.yul\":110:176   */\n      tag_97\n      jump\t// in\n    tag_94:\n        /* \"#utility.yul\":101:176   */\n      swap1\n      pop\n        /* \"#utility.yul\":199:205   */\n      dup3\n        /* \"#utility.yul\":192:197   */\n      dup2\n        /* \"#utility.yul\":185:206   */\n      mstore\n        /* \"#utility.yul\":237:241   */\n      0x20\n        /* \"#utility.yul\":230:235   */\n      dup2\n        /* \"#utility.yul\":226:242   */\n      add\n        /* \"#utility.yul\":275:278   */\n      dup5\n        /* \"#utility.yul\":266:272   */\n      dup5\n        /* \"#utility.yul\":261:264   */\n      dup5\n        /* \"#utility.yul\":257:273   */\n      add\n        /* \"#utility.yul\":254:279   */\n      gt\n        /* \"#utility.yul\":251:253   */\n      iszero\n      tag_98\n      jumpi\n        /* \"#utility.yul\":282:361   */\n      tag_99\n      tag_100\n      jump\t// in\n    tag_99:\n        /* \"#utility.yul\":251:253   */\n    tag_98:\n        /* \"#utility.yul\":372:413   */\n      tag_101\n        /* \"#utility.yul\":406:412   */\n      dup5\n        /* \"#utility.yul\":401:404   */\n      dup3\n        /* \"#utility.yul\":396:399   */\n      dup6\n        /* \"#utility.yul\":372:413   */\n      tag_102\n      jump\t// in\n    tag_101:\n        /* \"#utility.yul\":91:419   */\n      pop\n      swap4\n      swap3\n      pop\n      pop\n      pop\n      jump\t// out\n        /* \"#utility.yul\":425:564   */\n    tag_103:\n        /* \"#utility.yul\":471:476   */\n      0x00\n        /* \"#utility.yul\":509:515   */\n      dup2\n        /* \"#utility.yul\":496:516   */\n      calldataload\n        /* \"#utility.yul\":487:516   */\n      swap1\n      pop\n        /* \"#utility.yul\":525:558   */\n      tag_105\n        /* \"#utility.yul\":552:557   */\n      dup2\n        /* \"#utility.yul\":525:558   */\n      tag_106\n      jump\t// in\n    tag_105:\n        /* \"#utility.yul\":477:564   */\n      swap3\n      swap2\n      pop\n      pop\n      jump\t// out\n        /* \"#utility.yul\":570:703   */\n    tag_107:\n        /* \"#utility.yul\":613:618   */\n      0x00\n        /* \"#utility.yul\":651:657   */\n      dup2\n        /* \"#utility.yul\":638:658   */\n      calldataload\n        /* \"#utility.yul\":629:658   */\n      swap1\n      pop\n        /* \"#utility.yul\":667:697   */\n      tag_109\n        /* \"#utility.yul\":691:696   */\n      dup2\n        /* \"#utility.yul\":667:697   */\n      tag_110\n      jump\t// in\n    tag_109:\n        /* \"#utility.yul\":619:703   */\n      swap3\n      swap2\n      pop\n      pop\n      jump\t// out\n        /* \"#utility.yul\":709:876   */\n    tag_111:\n        /* \"#utility.yul\":769:774   */\n      0x00\n        /* \"#utility.yul\":807:813   */\n      dup2\n        /* \"#utility.yul\":794:814   */\n      calldataload\n        /* \"#utility.yul\":785:814   */\n      swap1\n      pop\n        /* \"#utility.yul\":823:870   */\n      tag_113\n        /* \"#utility.yul\":864:869   */\n      dup2\n        /* \"#utility.yul\":823:870   */\n      tag_114\n      jump\t// in\n    tag_113:\n        /* \"#utility.yul\":775:876   */\n      swap3\n      swap2\n      pop\n      pop\n      jump\t// out\n        /* \"#utility.yul\":882:1039   */\n    tag_115:\n        /* \"#utility.yul\":937:942   */\n      0x00\n        /* \"#utility.yul\":975:981   */\n      dup2\n        /* \"#utility.yul\":962:982   */\n      calldataload\n        /* \"#utility.yul\":953:982   */\n      swap1\n      pop\n        /* \"#utility.yul\":991:1033   */\n      tag_117\n        /* \"#utility.yul\":1027:1032   */\n      dup2\n        /* \"#utility.yul\":991:1033   */\n      tag_118\n      jump\t// in\n    tag_117:\n        /* \"#utility.yul\":943:1039   */\n      swap3\n      swap2\n      pop\n      pop\n      jump\t// out\n        /* \"#utility.yul\":1059:1399   */\n    tag_119:\n        /* \"#utility.yul\":1115:1120   */\n      0x00\n        /* \"#utility.yul\":1164:1167   */\n      dup3\n        /* \"#utility.yul\":1157:1161   */\n      0x1f\n        /* \"#utility.yul\":1149:1155   */\n      dup4\n        /* \"#utility.yul\":1145:1162   */\n      add\n        /* \"#utility.yul\":1141:1168   */\n      slt\n        /* \"#utility.yul\":1131:1133   */\n      tag_121\n      jumpi\n        /* \"#utility.yul\":1172:1251   */\n      tag_122\n      tag_123\n      jump\t// in\n    tag_122:\n        /* \"#utility.yul\":1131:1133   */\n    tag_121:\n        /* \"#utility.yul\":1289:1295   */\n      dup2\n        /* \"#utility.yul\":1276:1296   */\n      calldataload\n        /* \"#utility.yul\":1314:1393   */\n      tag_124\n        /* \"#utility.yul\":1389:1392   */\n      dup5\n        /* \"#utility.yul\":1381:1387   */\n      dup3\n        /* \"#utility.yul\":1374:1378   */\n      0x20\n        /* \"#utility.yul\":1366:1372   */\n      dup7\n        /* \"#utility.yul\":1362:1379   */\n      add\n        /* \"#utility.yul\":1314:1393   */\n      tag_92\n      jump\t// in\n    tag_124:\n        /* \"#utility.yul\":1305:1393   */\n      swap2\n      pop\n        /* \"#utility.yul\":1121:1399   */\n      pop\n      swap3\n      swap2\n      pop\n      pop\n      jump\t// out\n        /* \"#utility.yul\":1405:1544   */\n    tag_125:\n        /* \"#utility.yul\":1451:1456   */\n      0x00\n        /* \"#utility.yul\":1489:1495   */\n      dup2\n        /* \"#utility.yul\":1476:1496   */\n      calldataload\n        /* \"#utility.yul\":1467:1496   */\n      swap1\n      pop\n        /* \"#utility.yul\":1505:1538   */\n      tag_127\n        /* \"#utility.yul\":1532:1537   */\n      dup2\n        /* \"#utility.yul\":1505:1538   */\n      tag_128\n      jump\t// in\n    tag_127:\n        /* \"#utility.yul\":1457:1544   */\n      swap3\n      swap2\n      pop\n      pop\n      jump\t// out\n        /* \"#utility.yul\":1550:2052   */\n    tag_8:\n        /* \"#utility.yul\":1632:1638   */\n      0x00\n        /* \"#utility.yul\":1640:1646   */\n      dup1\n        /* \"#utility.yul\":1689:1691   */\n      0x40\n        /* \"#utility.yul\":1677:1686   */\n      dup4\n        /* \"#utility.yul\":1668:1675   */\n      dup6\n        /* \"#utility.yul\":1664:1687   */\n      sub\n        /* \"#utility.yul\":1660:1692   */\n      slt\n        /* \"#utility.yul\":1657:1659   */\n      iszero\n      tag_130\n      jumpi\n        /* \"#utility.yul\":1695:1774   */\n      tag_131\n      tag_132\n      jump\t// in\n    tag_131:\n        /* \"#utility.yul\":1657:1659   */\n    tag_130:\n        /* \"#utility.yul\":1815:1816   */\n      0x00\n        /* \"#utility.yul\":1840:1893   */\n      tag_133\n        /* \"#utility.yul\":1885:1892   */\n      dup6\n        /* \"#utility.yul\":1876:1882   */\n      dup3\n        /* \"#utility.yul\":1865:1874   */\n      dup7\n        /* \"#utility.yul\":1861:1883   */\n      add\n        /* \"#utility.yul\":1840:1893   */\n      tag_103\n      jump\t// in\n    tag_133:\n        /* \"#utility.yul\":1830:1893   */\n      swap3\n      pop\n        /* \"#utility.yul\":1786:1903   */\n      pop\n        /* \"#utility.yul\":1942:1944   */\n      0x20\n        /* \"#utility.yul\":1968:2035   */\n      tag_134\n        /* \"#utility.yul\":2027:2034   */\n      dup6\n        /* \"#utility.yul\":2018:2024   */\n      dup3\n        /* \"#utility.yul\":2007:2016   */\n      dup7\n        /* \"#utility.yul\":2003:2025   */\n      add\n        /* \"#utility.yul\":1968:2035   */\n      tag_111\n      jump\t// in\n    tag_134:\n        /* \"#utility.yul\":1958:2035   */\n      swap2\n      pop\n        /* \"#utility.yul\":1913:2045   */\n      pop\n        /* \"#utility.yul\":1647:2052   */\n      swap3\n      pop\n      swap3\n      swap1\n      pop\n      jump\t// out\n        /* \"#utility.yul\":2058:2550   */\n    tag_18:\n        /* \"#utility.yul\":2135:2141   */\n      0x00\n        /* \"#utility.yul\":2143:2149   */\n      dup1\n        /* \"#utility.yul\":2192:2194   */\n      0x40\n        /* \"#utility.yul\":2180:2189   */\n      dup4\n        /* \"#utility.yul\":2171:2178   */\n      dup6\n        /* \"#utility.yul\":2167:2190   */\n      sub\n        /* \"#utility.yul\":2163:2195   */\n      slt\n        /* \"#utility.yul\":2160:2162   */\n      iszero\n      tag_136\n      jumpi\n        /* \"#utility.yul\":2198:2277   */\n      tag_137\n      tag_132\n      jump\t// in\n    tag_137:\n        /* \"#utility.yul\":2160:2162   */\n    tag_136:\n        /* \"#utility.yul\":2318:2319   */\n      0x00\n        /* \"#utility.yul\":2343:2396   */\n      tag_138\n        /* \"#utility.yul\":2388:2395   */\n      dup6\n        /* \"#utility.yul\":2379:2385   */\n      dup3\n        /* \"#utility.yul\":2368:2377   */\n      dup7\n        /* \"#utility.yul\":2364:2386   */\n      add\n        /* \"#utility.yul\":2343:2396   */\n      tag_103\n      jump\t// in\n    tag_138:\n        /* \"#utility.yul\":2333:2396   */\n      swap3\n      pop\n        /* \"#utility.yul\":2289:2406   */\n      pop\n        /* \"#utility.yul\":2445:2447   */\n      0x20\n        /* \"#utility.yul\":2471:2533   */\n      tag_139\n        /* \"#utility.yul\":2525:2532   */\n      dup6\n        /* \"#utility.yul\":2516:2522   */\n      dup3\n        /* \"#utility.yul\":2505:2514   */\n      dup7\n        /* \"#utility.yul\":2501:2523   */\n      add\n        /* \"#utility.yul\":2471:2533   */\n      tag_115\n      jump\t// in\n    tag_139:\n        /* \"#utility.yul\":2461:2533   */\n      swap2\n      pop\n        /* \"#utility.yul\":2416:2543   */\n      pop\n        /* \"#utility.yul\":2150:2550   */\n      swap3\n      pop\n      swap3\n      swap1\n      pop\n      jump\t// out\n        /* \"#utility.yul\":2556:4207   */\n    tag_14:\n        /* \"#utility.yul\":2685:2691   */\n      0x00\n        /* \"#utility.yul\":2693:2699   */\n      dup1\n        /* \"#utility.yul\":2701:2707   */\n      0x00\n        /* \"#utility.yul\":2709:2715   */\n      dup1\n        /* \"#utility.yul\":2717:2723   */\n      0x00\n        /* \"#utility.yul\":2725:2731   */\n      dup1\n        /* \"#utility.yul\":2733:2739   */\n      0x00\n        /* \"#utility.yul\":2741:2747   */\n      dup1\n        /* \"#utility.yul\":2749:2755   */\n      0x00\n        /* \"#utility.yul\":2798:2801   */\n      0x0120\n        /* \"#utility.yul\":2786:2795   */\n      dup11\n        /* \"#utility.yul\":2777:2784   */\n      dup13\n        /* \"#utility.yul\":2773:2796   */\n      sub\n        /* \"#utility.yul\":2769:2802   */\n      slt\n        /* \"#utility.yul\":2766:2768   */\n      iszero\n      tag_141\n      jumpi\n        /* \"#utility.yul\":2805:2884   */\n      tag_142\n      tag_132\n      jump\t// in\n    tag_142:\n        /* \"#utility.yul\":2766:2768   */\n    tag_141:\n        /* \"#utility.yul\":2925:2926   */\n      0x00\n        /* \"#utility.yul\":2950:3003   */\n      tag_143\n        /* \"#utility.yul\":2995:3002   */\n      dup13\n        /* \"#utility.yul\":2986:2992   */\n      dup3\n        /* \"#utility.yul\":2975:2984   */\n      dup14\n        /* \"#utility.yul\":2971:2993   */\n      add\n        /* \"#utility.yul\":2950:3003   */\n      tag_103\n      jump\t// in\n    tag_143:\n        /* \"#utility.yul\":2940:3003   */\n      swap10\n      pop\n        /* \"#utility.yul\":2896:3013   */\n      pop\n        /* \"#utility.yul\":3080:3082   */\n      0x20\n        /* \"#utility.yul\":3069:3078   */\n      dup11\n        /* \"#utility.yul\":3065:3083   */\n      add\n        /* \"#utility.yul\":3052:3084   */\n      calldataload\n        /* \"#utility.yul\":3111:3129   */\n      0xffffffffffffffff\n        /* \"#utility.yul\":3103:3109   */\n      dup2\n        /* \"#utility.yul\":3100:3130   */\n      gt\n        /* \"#utility.yul\":3097:3099   */\n      iszero\n      tag_144\n      jumpi\n        /* \"#utility.yul\":3133:3212   */\n      tag_145\n      tag_146\n      jump\t// in\n    tag_145:\n        /* \"#utility.yul\":3097:3099   */\n    tag_144:\n        /* \"#utility.yul\":3238:3301   */\n      tag_147\n        /* \"#utility.yul\":3293:3300   */\n      dup13\n        /* \"#utility.yul\":3284:3290   */\n      dup3\n        /* \"#utility.yul\":3273:3282   */\n      dup14\n        /* \"#utility.yul\":3269:3291   */\n      add\n        /* \"#utility.yul\":3238:3301   */\n      tag_119\n      jump\t// in\n    tag_147:\n        /* \"#utility.yul\":3228:3301   */\n      swap9\n      pop\n        /* \"#utility.yul\":3023:3311   */\n      pop\n        /* \"#utility.yul\":3350:3352   */\n      0x40\n        /* \"#utility.yul\":3376:3429   */\n      tag_148\n        /* \"#utility.yul\":3421:3428   */\n      dup13\n        /* \"#utility.yul\":3412:3418   */\n      dup3\n        /* \"#utility.yul\":3401:3410   */\n      dup14\n        /* \"#utility.yul\":3397:3419   */\n      add\n        /* \"#utility.yul\":3376:3429   */\n      tag_125\n      jump\t// in\n    tag_148:\n        /* \"#utility.yul\":3366:3429   */\n      swap8\n      pop\n        /* \"#utility.yul\":3321:3439   */\n      pop\n        /* \"#utility.yul\":3478:3480   */\n      0x60\n        /* \"#utility.yul\":3504:3557   */\n      tag_149\n        /* \"#utility.yul\":3549:3556   */\n      dup13\n        /* \"#utility.yul\":3540:3546   */\n      dup3\n        /* \"#utility.yul\":3529:3538   */\n      dup14\n        /* \"#utility.yul\":3525:3547   */\n      add\n        /* \"#utility.yul\":3504:3557   */\n      tag_125\n      jump\t// in\n    tag_149:\n        /* \"#utility.yul\":3494:3557   */\n      swap7\n      pop\n        /* \"#utility.yul\":3449:3567   */\n      pop\n        /* \"#utility.yul\":3606:3609   */\n      0x80\n        /* \"#utility.yul\":3633:3686   */\n      tag_150\n        /* \"#utility.yul\":3678:3685   */\n      dup13\n        /* \"#utility.yul\":3669:3675   */\n      dup3\n        /* \"#utility.yul\":3658:3667   */\n      dup14\n        /* \"#utility.yul\":3654:3676   */\n      add\n        /* \"#utility.yul\":3633:3686   */\n      tag_125\n      jump\t// in\n    tag_150:\n        /* \"#utility.yul\":3623:3686   */\n      swap6\n      pop\n        /* \"#utility.yul\":3577:3696   */\n      pop\n        /* \"#utility.yul\":3735:3738   */\n      0xa0\n        /* \"#utility.yul\":3762:3812   */\n      tag_151\n        /* \"#utility.yul\":3804:3811   */\n      dup13\n        /* \"#utility.yul\":3795:3801   */\n      dup3\n        /* \"#utility.yul\":3784:3793   */\n      dup14\n        /* \"#utility.yul\":3780:3802   */\n      add\n        /* \"#utility.yul\":3762:3812   */\n      tag_107\n      jump\t// in\n    tag_151:\n        /* \"#utility.yul\":3752:3812   */\n      swap5\n      pop\n        /* \"#utility.yul\":3706:3822   */\n      pop\n        /* \"#utility.yul\":3861:3864   */\n      0xc0\n        /* \"#utility.yul\":3888:3938   */\n      tag_152\n        /* \"#utility.yul\":3930:3937   */\n      dup13\n        /* \"#utility.yul\":3921:3927   */\n      dup3\n        /* \"#utility.yul\":3910:3919   */\n      dup14\n        /* \"#utility.yul\":3906:3928   */\n      add\n        /* \"#utility.yul\":3888:3938   */\n      tag_107\n      jump\t// in\n    tag_152:\n        /* \"#utility.yul\":3878:3938   */\n      swap4\n      pop\n        /* \"#utility.yul\":3832:3948   */\n      pop\n        /* \"#utility.yul\":3987:3990   */\n      0xe0\n        /* \"#utility.yul\":4014:4064   */\n      tag_153\n        /* \"#utility.yul\":4056:4063   */\n      dup13\n        /* \"#utility.yul\":4047:4053   */\n      dup3\n        /* \"#utility.yul\":4036:4045   */\n      dup14\n        /* \"#utility.yul\":4032:4054   */\n      add\n        /* \"#utility.yul\":4014:4064   */\n      tag_107\n      jump\t// in\n    tag_153:\n        /* \"#utility.yul\":4004:4064   */\n      swap3\n      pop\n        /* \"#utility.yul\":3958:4074   */\n      pop\n        /* \"#utility.yul\":4113:4116   */\n      0x0100\n        /* \"#utility.yul\":4140:4190   */\n      tag_154\n        /* \"#utility.yul\":4182:4189   */\n      dup13\n        /* \"#utility.yul\":4173:4179   */\n      dup3\n        /* \"#utility.yul\":4162:4171   */\n      dup14\n        /* \"#utility.yul\":4158:4180   */\n      add\n        /* \"#utility.yul\":4140:4190   */\n      tag_107\n      jump\t// in\n    tag_154:\n        /* \"#utility.yul\":4130:4190   */\n      swap2\n      pop\n        /* \"#utility.yul\":4084:4200   */\n      pop\n        /* \"#utility.yul\":2756:4207   */\n      swap3\n      swap6\n      swap9\n      pop\n      swap3\n      swap6\n      swap9\n      pop\n      swap3\n      swap6\n      swap9\n      jump\t// out\n        /* \"#utility.yul\":4213:4331   */\n    tag_155:\n        /* \"#utility.yul\":4300:4324   */\n      tag_157\n        /* \"#utility.yul\":4318:4323   */\n      dup2\n        /* \"#utility.yul\":4300:4324   */\n      tag_158\n      jump\t// in\n    tag_157:\n        /* \"#utility.yul\":4295:4298   */\n      dup3\n        /* \"#utility.yul\":4288:4325   */\n      mstore\n        /* \"#utility.yul\":4278:4331   */\n      pop\n      pop\n      jump\t// out\n        /* \"#utility.yul\":4337:4446   */\n    tag_159:\n        /* \"#utility.yul\":4418:4439   */\n      tag_161\n        /* \"#utility.yul\":4433:4438   */\n      dup2\n        /* \"#utility.yul\":4418:4439   */\n      tag_162\n      jump\t// in\n    tag_161:\n        /* \"#utility.yul\":4413:4416   */\n      dup3\n        /* \"#utility.yul\":4406:4440   */\n      mstore\n        /* \"#utility.yul\":4396:4446   */\n      pop\n      pop\n      jump\t// out\n        /* \"#utility.yul\":4452:4607   */\n    tag_163:\n        /* \"#utility.yul\":4551:4600   */\n      tag_165\n        /* \"#utility.yul\":4594:4599   */\n      dup2\n        /* \"#utility.yul\":4551:4600   */\n      tag_166\n      jump\t// in\n    tag_165:\n        /* \"#utility.yul\":4546:4549   */\n      dup3\n        /* \"#utility.yul\":4539:4601   */\n      mstore\n        /* \"#utility.yul\":4529:4607   */\n      pop\n      pop\n      jump\t// out\n        /* \"#utility.yul\":4613:4758   */\n    tag_167:\n        /* \"#utility.yul\":4707:4751   */\n      tag_169\n        /* \"#utility.yul\":4745:4750   */\n      dup2\n        /* \"#utility.yul\":4707:4751   */\n      tag_170\n      jump\t// in\n    tag_169:\n        /* \"#utility.yul\":4702:4705   */\n      dup3\n        /* \"#utility.yul\":4695:4752   */\n      mstore\n        /* \"#utility.yul\":4685:4758   */\n      pop\n      pop\n      jump\t// out\n        /* \"#utility.yul\":4764:5120   */\n    tag_49:\n        /* \"#utility.yul\":4897:4901   */\n      0x00\n        /* \"#utility.yul\":4935:4937   */\n      0x40\n        /* \"#utility.yul\":4924:4933   */\n      dup3\n        /* \"#utility.yul\":4920:4938   */\n      add\n        /* \"#utility.yul\":4912:4938   */\n      swap1\n      pop\n        /* \"#utility.yul\":4948:5019   */\n      tag_172\n        /* \"#utility.yul\":5016:5017   */\n      0x00\n        /* \"#utility.yul\":5005:5014   */\n      dup4\n        /* \"#utility.yul\":5001:5018   */\n      add\n        /* \"#utility.yul\":4992:4998   */\n      dup6\n        /* \"#utility.yul\":4948:5019   */\n      tag_155\n      jump\t// in\n    tag_172:\n        /* \"#utility.yul\":5029:5113   */\n      tag_173\n        /* \"#utility.yul\":5109:5111   */\n      0x20\n        /* \"#utility.yul\":5098:5107   */\n      dup4\n        /* \"#utility.yul\":5094:5112   */\n      add\n        /* \"#utility.yul\":5085:5091   */\n      dup5\n        /* \"#utility.yul\":5029:5113   */\n      tag_163\n      jump\t// in\n    tag_173:\n        /* \"#utility.yul\":4902:5120   */\n      swap4\n      swap3\n      pop\n      pop\n      pop\n      jump\t// out\n        /* \"#utility.yul\":5126:5472   */\n    tag_79:\n        /* \"#utility.yul\":5254:5258   */\n      0x00\n        /* \"#utility.yul\":5292:5294   */\n      0x40\n        /* \"#utility.yul\":5281:5290   */\n      dup3\n        /* \"#utility.yul\":5277:5295   */\n      add\n        /* \"#utility.yul\":5269:5295   */\n      swap1\n      pop\n        /* \"#utility.yul\":5305:5376   */\n      tag_175\n        /* \"#utility.yul\":5373:5374   */\n      0x00\n        /* \"#utility.yul\":5362:5371   */\n      dup4\n        /* \"#utility.yul\":5358:5375   */\n      add\n        /* \"#utility.yul\":5349:5355   */\n      dup6\n        /* \"#utility.yul\":5305:5376   */\n      tag_155\n      jump\t// in\n    tag_175:\n        /* \"#utility.yul\":5386:5465   */\n      tag_176\n        /* \"#utility.yul\":5461:5463   */\n      0x20\n        /* \"#utility.yul\":5450:5459   */\n      dup4\n        /* \"#utility.yul\":5446:5464   */\n      add\n        /* \"#utility.yul\":5437:5443   */\n      dup5\n        /* \"#utility.yul\":5386:5465   */\n      tag_167\n      jump\t// in\n    tag_176:\n        /* \"#utility.yul\":5259:5472   */\n      swap4\n      swap3\n      pop\n      pop\n      pop\n      jump\t// out\n        /* \"#utility.yul\":5478:5688   */\n    tag_11:\n        /* \"#utility.yul\":5565:5569   */\n      0x00\n        /* \"#utility.yul\":5603:5605   */\n      0x20\n        /* \"#utility.yul\":5592:5601   */\n      dup3\n        /* \"#utility.yul\":5588:5606   */\n      add\n        /* \"#utility.yul\":5580:5606   */\n      swap1\n      pop\n        /* \"#utility.yul\":5616:5681   */\n      tag_178\n        /* \"#utility.yul\":5678:5679   */\n      0x00\n        /* \"#utility.yul\":5667:5676   */\n      dup4\n        /* \"#utility.yul\":5663:5680   */\n      add\n        /* \"#utility.yul\":5654:5660   */\n      dup5\n        /* \"#utility.yul\":5616:5681   */\n      tag_159\n      jump\t// in\n    tag_178:\n        /* \"#utility.yul\":5570:5688   */\n      swap3\n      swap2\n      pop\n      pop\n      jump\t// out\n        /* \"#utility.yul\":5694:5823   */\n    tag_97:\n        /* \"#utility.yul\":5728:5734   */\n      0x00\n        /* \"#utility.yul\":5755:5775   */\n      tag_180\n      tag_181\n      jump\t// in\n    tag_180:\n        /* \"#utility.yul\":5745:5775   */\n      swap1\n      pop\n        /* \"#utility.yul\":5784:5817   */\n      tag_182\n        /* \"#utility.yul\":5812:5816   */\n      dup3\n        /* \"#utility.yul\":5804:5810   */\n      dup3\n        /* \"#utility.yul\":5784:5817   */\n      tag_183\n      jump\t// in\n    tag_182:\n        /* \"#utility.yul\":5735:5823   */\n      swap2\n      swap1\n      pop\n      jump\t// out\n        /* \"#utility.yul\":5829:5904   */\n    tag_181:\n        /* \"#utility.yul\":5862:5868   */\n      0x00\n        /* \"#utility.yul\":5895:5897   */\n      0x40\n        /* \"#utility.yul\":5889:5898   */\n      mload\n        /* \"#utility.yul\":5879:5898   */\n      swap1\n      pop\n        /* \"#utility.yul\":5869:5904   */\n      swap1\n      jump\t// out\n        /* \"#utility.yul\":5910:6218   */\n    tag_96:\n        /* \"#utility.yul\":5972:5976   */\n      0x00\n        /* \"#utility.yul\":6062:6080   */\n      0xffffffffffffffff\n        /* \"#utility.yul\":6054:6060   */\n      dup3\n        /* \"#utility.yul\":6051:6081   */\n      gt\n        /* \"#utility.yul\":6048:6050   */\n      iszero\n      tag_186\n      jumpi\n        /* \"#utility.yul\":6084:6102   */\n      tag_187\n      tag_188\n      jump\t// in\n    tag_187:\n        /* \"#utility.yul\":6048:6050   */\n    tag_186:\n        /* \"#utility.yul\":6122:6151   */\n      tag_189\n        /* \"#utility.yul\":6144:6150   */\n      dup3\n        /* \"#utility.yul\":6122:6151   */\n      tag_190\n      jump\t// in\n    tag_189:\n        /* \"#utility.yul\":6114:6151   */\n      swap1\n      pop\n        /* \"#utility.yul\":6206:6210   */\n      0x20\n        /* \"#utility.yul\":6200:6204   */\n      dup2\n        /* \"#utility.yul\":6196:6211   */\n      add\n        /* \"#utility.yul\":6188:6211   */\n      swap1\n      pop\n        /* \"#utility.yul\":5977:6218   */\n      swap2\n      swap1\n      pop\n      jump\t// out\n        /* \"#utility.yul\":6224:6320   */\n    tag_158:\n        /* \"#utility.yul\":6261:6268   */\n      0x00\n        /* \"#utility.yul\":6290:6314   */\n      tag_192\n        /* \"#utility.yul\":6308:6313   */\n      dup3\n        /* \"#utility.yul\":6290:6314   */\n      tag_193\n      jump\t// in\n    tag_192:\n        /* \"#utility.yul\":6279:6314   */\n      swap1\n      pop\n        /* \"#utility.yul\":6269:6320   */\n      swap2\n      swap1\n      pop\n      jump\t// out\n        /* \"#utility.yul\":6326:6416   */\n    tag_162:\n        /* \"#utility.yul\":6360:6367   */\n      0x00\n        /* \"#utility.yul\":6403:6408   */\n      dup2\n        /* \"#utility.yul\":6396:6409   */\n      iszero\n        /* \"#utility.yul\":6389:6410   */\n      iszero\n        /* \"#utility.yul\":6378:6410   */\n      swap1\n      pop\n        /* \"#utility.yul\":6368:6416   */\n      swap2\n      swap1\n      pop\n      jump\t// out\n        /* \"#utility.yul\":6422:6561   */\n    tag_195:\n        /* \"#utility.yul\":6473:6480   */\n      0x00\n        /* \"#utility.yul\":6502:6507   */\n      dup2\n        /* \"#utility.yul\":6491:6507   */\n      swap1\n      pop\n        /* \"#utility.yul\":6508:6555   */\n      tag_197\n        /* \"#utility.yul\":6549:6554   */\n      dup3\n        /* \"#utility.yul\":6508:6555   */\n      tag_198\n      jump\t// in\n    tag_197:\n        /* \"#utility.yul\":6481:6561   */\n      swap2\n      swap1\n      pop\n      jump\t// out\n        /* \"#utility.yul\":6567:6696   */\n    tag_199:\n        /* \"#utility.yul\":6613:6620   */\n      0x00\n        /* \"#utility.yul\":6642:6647   */\n      dup2\n        /* \"#utility.yul\":6631:6647   */\n      swap1\n      pop\n        /* \"#utility.yul\":6648:6690   */\n      tag_201\n        /* \"#utility.yul\":6684:6689   */\n      dup3\n        /* \"#utility.yul\":6648:6690   */\n      tag_202\n      jump\t// in\n    tag_201:\n        /* \"#utility.yul\":6621:6696   */\n      swap2\n      swap1\n      pop\n      jump\t// out\n        /* \"#utility.yul\":6702:6828   */\n    tag_193:\n        /* \"#utility.yul\":6739:6746   */\n      0x00\n        /* \"#utility.yul\":6779:6821   */\n      0xffffffffffffffffffffffffffffffffffffffff\n        /* \"#utility.yul\":6772:6777   */\n      dup3\n        /* \"#utility.yul\":6768:6822   */\n      and\n        /* \"#utility.yul\":6757:6822   */\n      swap1\n      pop\n        /* \"#utility.yul\":6747:6828   */\n      swap2\n      swap1\n      pop\n      jump\t// out\n        /* \"#utility.yul\":6834:6911   */\n    tag_204:\n        /* \"#utility.yul\":6871:6878   */\n      0x00\n        /* \"#utility.yul\":6900:6905   */\n      dup2\n        /* \"#utility.yul\":6889:6905   */\n      swap1\n      pop\n        /* \"#utility.yul\":6879:6911   */\n      swap2\n      swap1\n      pop\n      jump\t// out\n        /* \"#utility.yul\":6917:7056   */\n    tag_166:\n        /* \"#utility.yul\":6979:6988   */\n      0x00\n        /* \"#utility.yul\":7012:7050   */\n      tag_207\n        /* \"#utility.yul\":7044:7049   */\n      dup3\n        /* \"#utility.yul\":7012:7050   */\n      tag_195\n      jump\t// in\n    tag_207:\n        /* \"#utility.yul\":6999:7050   */\n      swap1\n      pop\n        /* \"#utility.yul\":6989:7056   */\n      swap2\n      swap1\n      pop\n      jump\t// out\n        /* \"#utility.yul\":7062:7191   */\n    tag_170:\n        /* \"#utility.yul\":7119:7128   */\n      0x00\n        /* \"#utility.yul\":7152:7185   */\n      tag_209\n        /* \"#utility.yul\":7179:7184   */\n      dup3\n        /* \"#utility.yul\":7152:7185   */\n      tag_199\n      jump\t// in\n    tag_209:\n        /* \"#utility.yul\":7139:7185   */\n      swap1\n      pop\n        /* \"#utility.yul\":7129:7191   */\n      swap2\n      swap1\n      pop\n      jump\t// out\n        /* \"#utility.yul\":7197:7351   */\n    tag_102:\n        /* \"#utility.yul\":7281:7287   */\n      dup3\n        /* \"#utility.yul\":7276:7279   */\n      dup2\n        /* \"#utility.yul\":7271:7274   */\n      dup4\n        /* \"#utility.yul\":7258:7288   */\n      calldatacopy\n        /* \"#utility.yul\":7343:7344   */\n      0x00\n        /* \"#utility.yul\":7334:7340   */\n      dup4\n        /* \"#utility.yul\":7329:7332   */\n      dup4\n        /* \"#utility.yul\":7325:7341   */\n      add\n        /* \"#utility.yul\":7318:7345   */\n      mstore\n        /* \"#utility.yul\":7248:7351   */\n      pop\n      pop\n      pop\n      jump\t// out\n        /* \"#utility.yul\":7357:7677   */\n    tag_81:\n        /* \"#utility.yul\":7401:7407   */\n      0x00\n        /* \"#utility.yul\":7438:7439   */\n      0x02\n        /* \"#utility.yul\":7432:7436   */\n      dup3\n        /* \"#utility.yul\":7428:7440   */\n      div\n        /* \"#utility.yul\":7418:7440   */\n      swap1\n      pop\n        /* \"#utility.yul\":7485:7486   */\n      0x01\n        /* \"#utility.yul\":7479:7483   */\n      dup3\n        /* \"#utility.yul\":7475:7487   */\n      and\n        /* \"#utility.yul\":7506:7524   */\n      dup1\n        /* \"#utility.yul\":7496:7498   */\n      tag_212\n      jumpi\n        /* \"#utility.yul\":7562:7566   */\n      0x7f\n        /* \"#utility.yul\":7554:7560   */\n      dup3\n        /* \"#utility.yul\":7550:7567   */\n      and\n        /* \"#utility.yul\":7540:7567   */\n      swap2\n      pop\n        /* \"#utility.yul\":7496:7498   */\n    tag_212:\n        /* \"#utility.yul\":7624:7626   */\n      0x20\n        /* \"#utility.yul\":7616:7622   */\n      dup3\n        /* \"#utility.yul\":7613:7627   */\n      lt\n        /* \"#utility.yul\":7593:7611   */\n      dup2\n        /* \"#utility.yul\":7590:7628   */\n      eq\n        /* \"#utility.yul\":7587:7589   */\n      iszero\n      tag_213\n      jumpi\n        /* \"#utility.yul\":7643:7661   */\n      tag_214\n      tag_215\n      jump\t// in\n    tag_214:\n        /* \"#utility.yul\":7587:7589   */\n    tag_213:\n        /* \"#utility.yul\":7408:7677   */\n      pop\n      swap2\n      swap1\n      pop\n      jump\t// out\n        /* \"#utility.yul\":7683:7964   */\n    tag_183:\n        /* \"#utility.yul\":7766:7793   */\n      tag_217\n        /* \"#utility.yul\":7788:7792   */\n      dup3\n        /* \"#utility.yul\":7766:7793   */\n      tag_190\n      jump\t// in\n    tag_217:\n        /* \"#utility.yul\":7758:7764   */\n      dup2\n        /* \"#utility.yul\":7754:7794   */\n      add\n        /* \"#utility.yul\":7896:7902   */\n      dup2\n        /* \"#utility.yul\":7884:7894   */\n      dup2\n        /* \"#utility.yul\":7881:7903   */\n      lt\n        /* \"#utility.yul\":7860:7878   */\n      0xffffffffffffffff\n        /* \"#utility.yul\":7848:7858   */\n      dup3\n        /* \"#utility.yul\":7845:7879   */\n      gt\n        /* \"#utility.yul\":7842:7904   */\n      or\n        /* \"#utility.yul\":7839:7841   */\n      iszero\n      tag_218\n      jumpi\n        /* \"#utility.yul\":7907:7925   */\n      tag_219\n      tag_188\n      jump\t// in\n    tag_219:\n        /* \"#utility.yul\":7839:7841   */\n    tag_218:\n        /* \"#utility.yul\":7947:7957   */\n      dup1\n        /* \"#utility.yul\":7943:7945   */\n      0x40\n        /* \"#utility.yul\":7936:7958   */\n      mstore\n        /* \"#utility.yul\":7726:7964   */\n      pop\n      pop\n      pop\n      jump\t// out\n        /* \"#utility.yul\":7970:8203   */\n    tag_47:\n        /* \"#utility.yul\":8009:8012   */\n      0x00\n        /* \"#utility.yul\":8032:8056   */\n      tag_221\n        /* \"#utility.yul\":8050:8055   */\n      dup3\n        /* \"#utility.yul\":8032:8056   */\n      tag_204\n      jump\t// in\n    tag_221:\n        /* \"#utility.yul\":8023:8056   */\n      swap2\n      pop\n        /* \"#utility.yul\":8078:8144   */\n      0xffffffffffffffffffffffffffffffffffffffffffffffffffffffffffffffff\n        /* \"#utility.yul\":8071:8076   */\n      dup3\n        /* \"#utility.yul\":8068:8145   */\n      eq\n        /* \"#utility.yul\":8065:8067   */\n      iszero\n      tag_222\n      jumpi\n        /* \"#utility.yul\":8148:8166   */\n      tag_223\n      tag_224\n      jump\t// in\n    tag_223:\n        /* \"#utility.yul\":8065:8067   */\n    tag_222:\n        /* \"#utility.yul\":8195:8196   */\n      0x01\n        /* \"#utility.yul\":8188:8193   */\n      dup3\n        /* \"#utility.yul\":8184:8197   */\n      add\n        /* \"#utility.yul\":8177:8197   */\n      swap1\n      pop\n        /* \"#utility.yul\":8013:8203   */\n      swap2\n      swap1\n      pop\n      jump\t// out\n        /* \"#utility.yul\":8209:8389   */\n    tag_224:\n        /* \"#utility.yul\":8257:8334   */\n      0x4e487b7100000000000000000000000000000000000000000000000000000000\n        /* \"#utility.yul\":8254:8255   */\n      0x00\n        /* \"#utility.yul\":8247:8335   */\n      mstore\n        /* \"#utility.yul\":8354:8358   */\n      0x11\n        /* \"#utility.yul\":8351:8352   */\n      0x04\n        /* \"#utility.yul\":8344:8359   */\n      mstore\n        /* \"#utility.yul\":8378:8382   */\n      0x24\n        /* \"#utility.yul\":8375:8376   */\n      0x00\n        /* \"#utility.yul\":8368:8383   */\n      revert\n        /* \"#utility.yul\":8395:8575   */\n    tag_32:\n        /* \"#utility.yul\":8443:8520   */\n      0x4e487b7100000000000000000000000000000000000000000000000000000000\n        /* \"#utility.yul\":8440:8441   */\n      0x00\n        /* \"#utility.yul\":8433:8521   */\n      mstore\n        /* \"#utility.yul\":8540:8544   */\n      0x21\n        /* \"#utility.yul\":8537:8538   */\n      0x04\n        /* \"#utility.yul\":8530:8545   */\n      mstore\n        /* \"#utility.yul\":8564:8568   */\n      0x24\n        /* \"#utility.yul\":8561:8562   */\n      0x00\n        /* \"#utility.yul\":8554:8569   */\n      revert\n        /* \"#utility.yul\":8581:8761   */\n    tag_215:\n        /* \"#utility.yul\":8629:8706   */\n      0x4e487b7100000000000000000000000000000000000000000000000000000000\n        /* \"#utility.yul\":8626:8627   */\n      0x00\n        /* \"#utility.yul\":8619:8707   */\n      mstore\n        /* \"#utility.yul\":8726:8730   */\n      0x22\n        /* \"#utility.yul\":8723:8724   */\n      0x04\n        /* \"#utility.yul\":8716:8731   */\n      mstore\n        /* \"#utility.yul\":8750:8754   */\n      0x24\n        /* \"#utility.yul\":8747:8748   */\n      0x00\n        /* \"#utility.yul\":8740:8755   */\n      revert\n        /* \"#utility.yul\":8767:8947   */\n    tag_27:\n        /* \"#utility.yul\":8815:8892   */\n      0x4e487b7100000000000000000000000000000000000000000000000000000000\n        /* \"#utility.yul\":8812:8813   */\n      0x00\n        /* \"#utility.yul\":8805:8893   */\n      mstore\n        /* \"#utility.yul\":8912:8916   */\n      0x32\n        /* \"#utility.yul\":8909:8910   */\n      0x04\n        /* \"#utility.yul\":8902:8917   */\n      mstore\n        /* \"#utility.yul\":8936:8940   */\n      0x24\n        /* \"#utility.yul\":8933:8934   */\n      0x00\n        /* \"#utility.yul\":8926:8941   */\n      revert\n        /* \"#utility.yul\":8953:9133   */\n    tag_188:\n        /* \"#utility.yul\":9001:9078   */\n      0x4e487b7100000000000000000000000000000000000000000000000000000000\n        /* \"#utility.yul\":8998:8999   */\n      0x00\n        /* \"#utility.yul\":8991:9079   */\n      mstore\n        /* \"#utility.yul\":9098:9102   */\n      0x41\n        /* \"#utility.yul\":9095:9096   */\n      0x04\n        /* \"#utility.yul\":9088:9103   */\n      mstore\n        /* \"#utility.yul\":9122:9126   */\n      0x24\n        /* \"#utility.yul\":9119:9120   */\n      0x00\n        /* \"#utility.yul\":9112:9127   */\n      revert\n        /* \"#utility.yul\":9139:9256   */\n    tag_123:\n        /* \"#utility.yul\":9248:9249   */\n      0x00\n        /* \"#utility.yul\":9245:9246   */\n      dup1\n        /* \"#utility.yul\":9238:9250   */\n      revert\n        /* \"#utility.yul\":9262:9379   */\n    tag_100:\n        /* \"#utility.yul\":9371:9372   */\n      0x00\n        /* \"#utility.yul\":9368:9369   */\n      dup1\n        /* \"#utility.yul\":9361:9373   */\n      revert\n        /* \"#utility.yul\":9385:9502   */\n    tag_146:\n        /* \"#utility.yul\":9494:9495   */\n      0x00\n        /* \"#utility.yul\":9491:9492   */\n      dup1\n        /* \"#utility.yul\":9484:9496   */\n      revert\n        /* \"#utility.yul\":9508:9625   */\n    tag_132:\n        /* \"#utility.yul\":9617:9618   */\n      0x00\n        /* \"#utility.yul\":9614:9615   */\n      dup1\n        /* \"#utility.yul\":9607:9619   */\n      revert\n        /* \"#utility.yul\":9631:9733   */\n    tag_190:\n        /* \"#utility.yul\":9672:9678   */\n      0x00\n        /* \"#utility.yul\":9723:9725   */\n      0x1f\n        /* \"#utility.yul\":9719:9726   */\n      not\n        /* \"#utility.yul\":9714:9716   */\n      0x1f\n        /* \"#utility.yul\":9707:9712   */\n      dup4\n        /* \"#utility.yul\":9703:9717   */\n      add\n        /* \"#utility.yul\":9699:9727   */\n      and\n        /* \"#utility.yul\":9689:9727   */\n      swap1\n      pop\n        /* \"#utility.yul\":9679:9733   */\n      swap2\n      swap1\n      pop\n      jump\t// out\n        /* \"#utility.yul\":9739:9858   */\n    tag_198:\n        /* \"#utility.yul\":9826:9827   */\n      0x02\n        /* \"#utility.yul\":9819:9824   */\n      dup2\n        /* \"#utility.yul\":9816:9828   */\n      lt\n        /* \"#utility.yul\":9806:9808   */\n      tag_236\n      jumpi\n        /* \"#utility.yul\":9832:9850   */\n      tag_237\n      tag_32\n      jump\t// in\n    tag_237:\n        /* \"#utility.yul\":9806:9808   */\n    tag_236:\n        /* \"#utility.yul\":9796:9858   */\n      pop\n      jump\t// out\n        /* \"#utility.yul\":9864:9978   */\n    tag_202:\n        /* \"#utility.yul\":9946:9947   */\n      0x02\n        /* \"#utility.yul\":9939:9944   */\n      dup2\n        /* \"#utility.yul\":9936:9948   */\n      lt\n        /* \"#utility.yul\":9926:9928   */\n      tag_239\n      jumpi\n        /* \"#utility.yul\":9952:9970   */\n      tag_240\n      tag_32\n      jump\t// in\n    tag_240:\n        /* \"#utility.yul\":9926:9928   */\n    tag_239:\n        /* \"#utility.yul\":9916:9978   */\n      pop\n      jump\t// out\n        /* \"#utility.yul\":9984:10106   */\n    tag_106:\n        /* \"#utility.yul\":10057:10081   */\n      tag_242\n        /* \"#utility.yul\":10075:10080   */\n      dup2\n        /* \"#utility.yul\":10057:10081   */\n      tag_158\n      jump\t// in\n    tag_242:\n        /* \"#utility.yul\":10050:10055   */\n      dup2\n        /* \"#utility.yul\":10047:10082   */\n      eq\n        /* \"#utility.yul\":10037:10039   */\n      tag_243\n      jumpi\n        /* \"#utility.yul\":10096:10097   */\n      0x00\n        /* \"#utility.yul\":10093:10094   */\n      dup1\n        /* \"#utility.yul\":10086:10098   */\n      revert\n        /* \"#utility.yul\":10037:10039   */\n    tag_243:\n        /* \"#utility.yul\":10027:10106   */\n      pop\n      jump\t// out\n        /* \"#utility.yul\":10112:10228   */\n    tag_110:\n        /* \"#utility.yul\":10182:10203   */\n      tag_245\n        /* \"#utility.yul\":10197:10202   */\n      dup2\n        /* \"#utility.yul\":10182:10203   */\n      tag_162\n      jump\t// in\n    tag_245:\n        /* \"#utility.yul\":10175:10180   */\n      dup2\n        /* \"#utility.yul\":10172:10204   */\n      eq\n        /* \"#utility.yul\":10162:10164   */\n      tag_246\n      jumpi\n        /* \"#utility.yul\":10218:10219   */\n      0x00\n        /* \"#utility.yul\":10215:10216   */\n      dup1\n        /* \"#utility.yul\":10208:10220   */\n      revert\n        /* \"#utility.yul\":10162:10164   */\n    tag_246:\n        /* \"#utility.yul\":10152:10228   */\n      pop\n      jump\t// out\n        /* \"#utility.yul\":10234:10347   */\n    tag_114:\n        /* \"#utility.yul\":10321:10322   */\n      0x02\n        /* \"#utility.yul\":10314:10319   */\n      dup2\n        /* \"#utility.yul\":10311:10323   */\n      lt\n        /* \"#utility.yul\":10301:10303   */\n      tag_248\n      jumpi\n        /* \"#utility.yul\":10337:10338   */\n      0x00\n        /* \"#utility.yul\":10334:10335   */\n      dup1\n        /* \"#utility.yul\":10327:10339   */\n      revert\n        /* \"#utility.yul\":10301:10303   */\n    tag_248:\n        /* \"#utility.yul\":10291:10347   */\n      pop\n      jump\t// out\n        /* \"#utility.yul\":10353:10461   */\n    tag_118:\n        /* \"#utility.yul\":10435:10436   */\n      0x02\n        /* \"#utility.yul\":10428:10433   */\n      dup2\n        /* \"#utility.yul\":10425:10437   */\n      lt\n        /* \"#utility.yul\":10415:10417   */\n      tag_250\n      jumpi\n        /* \"#utility.yul\":10451:10452   */\n      0x00\n        /* \"#utility.yul\":10448:10449   */\n      dup1\n        /* \"#utility.yul\":10441:10453   */\n      revert\n        /* \"#utility.yul\":10415:10417   */\n    tag_250:\n        /* \"#utility.yul\":10405:10461   */\n      pop\n      jump\t// out\n        /* \"#utility.yul\":10467:10589   */\n    tag_128:\n        /* \"#utility.yul\":10540:10564   */\n      tag_252\n        /* \"#utility.yul\":10558:10563   */\n      dup2\n        /* \"#utility.yul\":10540:10564   */\n      tag_204\n      jump\t// in\n    tag_252:\n        /* \"#utility.yul\":10533:10538   */\n      dup2\n        /* \"#utility.yul\":10530:10565   */\n      eq\n        /* \"#utility.yul\":10520:10522   */\n      tag_253\n      jumpi\n        /* \"#utility.yul\":10579:10580   */\n      0x00\n        /* \"#utility.yul\":10576:10577   */\n      dup1\n        /* \"#utility.yul\":10569:10581   */\n      revert\n        /* \"#utility.yul\":10520:10522   */\n    tag_253:\n        /* \"#utility.yul\":10510:10589   */\n      pop\n      jump\t// out\n\n    auxdata: 0xa264697066735822122098cbd84693cb97db7e48418780dea08936e77a15183cbbc1b33557e1ea93742c64736f6c63430008060033\n}\n",
				"bytecode": {
					"linkReferences": {},
					"object": "608060405234801561001057600080fd5b50336000806101000a81548173ffffffffffffffffffffffffffffffffffffffff021916908373ffffffffffffffffffffffffffffffffffffffff160217905550610d03806100606000396000f3fe608060405234801561001057600080fd5b50600436106100415760003560e01c8063671e3f7514610046578063cfb6737914610076578063e714962314610092575b600080fd5b610060600480360381019061005b919061077e565b6100c2565b60405161006d9190610972565b60405180910390f35b610090600480360381019061008b91906107fe565b61028d565b005b6100ac60048036038101906100a791906107be565b610437565b6040516100b99190610972565b60405180910390f35b600080600180549050905060005b81811015610247578473ffffffffffffffffffffffffffffffffffffffff166001828154811061010357610102610bbd565b5b906000526020600020906007020160000160009054906101000a900473ffffffffffffffffffffffffffffffffffffffff1673ffffffffffffffffffffffffffffffffffffffff161415610234576000600181111561016557610164610b5f565b5b84600181111561017857610177610b5f565b5b14156101c057600180828154811061019357610192610bbd565b5b906000526020600020906007020160060160026101000a81548160ff0219169083151502179055506101ff565b6000600182815481106101d6576101d5610bbd565b5b906000526020600020906007020160060160026101000a81548160ff0219169083151502179055505b426001828154811061021457610213610bbd565b5b906000526020600020906007020160050181905550600192505050610287565b808061023f90610ae7565b9150506100d0565b507f1bc4f6a74fdbf500e13db259c58a58c59533ea54a4b93010d0126f6061ec37538484604051610279929190610920565b60405180910390a160009150505b92915050565b60016040518061014001604052808b73ffffffffffffffffffffffffffffffffffffffff1681526020018a8152602001898152602001888152602001878152602001428152602001861515815260200185151581526020018415158152602001831515815250908060018154018082558091505060019003906000526020600020906007020160009091909190915060008201518160000160006101000a81548173ffffffffffffffffffffffffffffffffffffffff021916908373ffffffffffffffffffffffffffffffffffffffff160217905550602082015181600101908051906020019061037f929190610602565b5060408201518160020155606082015181600301556080820151816004015560a0820151816005015560c08201518160060160006101000a81548160ff02191690831515021790555060e08201518160060160016101000a81548160ff0219169083151502179055506101008201518160060160026101000a81548160ff0219169083151502179055506101208201518160060160036101000a81548160ff0219169083151502179055505050505050505050505050565b600080600180549050905060005b818110156105bc578473ffffffffffffffffffffffffffffffffffffffff166001828154811061047857610477610bbd565b5b906000526020600020906007020160000160009054906101000a900473ffffffffffffffffffffffffffffffffffffffff1673ffffffffffffffffffffffffffffffffffffffff1614156105a957600060018111156104da576104d9610b5f565b5b8460018111156104ed576104ec610b5f565b5b141561053557600180828154811061050857610507610bbd565b5b906000526020600020906007020160060160026101000a81548160ff021916908315150217905550610574565b60006001828154811061054b5761054a610bbd565b5b906000526020600020906007020160060160026101000a81548160ff0219169083151502179055505b426001828154811061058957610588610bbd565b5b9060005260206000209060070201600501819055506001925050506105fc565b80806105b490610ae7565b915050610445565b507f3f57ea1559cfee0ff7804a8bbf56c488fbd7f8d575acd8537d7f02a6ffb8bdb484846040516105ee929190610949565b60405180910390a160009150505b92915050565b82805461060e90610a84565b90600052602060002090601f0160209004810192826106305760008555610677565b82601f1061064957805160ff1916838001178555610677565b82800160010185558215610677579182015b8281111561067657825182559160200191906001019061065b565b5b5090506106849190610688565b5090565b5b808211156106a1576000816000905550600101610689565b5090565b60006106b86106b3846109b2565b61098d565b9050828152602081018484840111156106d4576106d3610c20565b5b6106df848285610a75565b509392505050565b6000813590506106f681610c68565b92915050565b60008135905061070b81610c7f565b92915050565b60008135905061072081610c96565b92915050565b60008135905061073581610ca6565b92915050565b600082601f8301126107505761074f610c1b565b5b81356107608482602086016106a5565b91505092915050565b60008135905061077881610cb6565b92915050565b6000806040838503121561079557610794610c2a565b5b60006107a3858286016106e7565b92505060206107b485828601610711565b9150509250929050565b600080604083850312156107d5576107d4610c2a565b5b60006107e3858286016106e7565b92505060206107f485828601610726565b9150509250929050565b60008060008060008060008060006101208a8c03121561082157610820610c2a565b5b600061082f8c828d016106e7565b99505060208a013567ffffffffffffffff8111156108505761084f610c25565b5b61085c8c828d0161073b565b985050604061086d8c828d01610769565b975050606061087e8c828d01610769565b965050608061088f8c828d01610769565b95505060a06108a08c828d016106fc565b94505060c06108b18c828d016106fc565b93505060e06108c28c828d016106fc565b9250506101006108d48c828d016106fc565b9150509295985092959850929598565b6108ed816109e3565b82525050565b6108fc816109f5565b82525050565b61090b81610a51565b82525050565b61091a81610a63565b82525050565b600060408201905061093560008301856108e4565b6109426020830184610902565b9392505050565b600060408201905061095e60008301856108e4565b61096b6020830184610911565b9392505050565b600060208201905061098760008301846108f3565b92915050565b60006109976109a8565b90506109a38282610ab6565b919050565b6000604051905090565b600067ffffffffffffffff8211156109cd576109cc610bec565b5b6109d682610c2f565b9050602081019050919050565b60006109ee82610a27565b9050919050565b60008115159050919050565b6000819050610a0f82610c40565b919050565b6000819050610a2282610c54565b919050565b600073ffffffffffffffffffffffffffffffffffffffff82169050919050565b6000819050919050565b6000610a5c82610a01565b9050919050565b6000610a6e82610a14565b9050919050565b82818337600083830152505050565b60006002820490506001821680610a9c57607f821691505b60208210811415610ab057610aaf610b8e565b5b50919050565b610abf82610c2f565b810181811067ffffffffffffffff82111715610ade57610add610bec565b5b80604052505050565b6000610af282610a47565b91507fffffffffffffffffffffffffffffffffffffffffffffffffffffffffffffffff821415610b2557610b24610b30565b5b600182019050919050565b7f4e487b7100000000000000000000000000000000000000000000000000000000600052601160045260246000fd5b7f4e487b7100000000000000000000000000000000000000000000000000000000600052602160045260246000fd5b7f4e487b7100000000000000000000000000000000000000000000000000000000600052602260045260246000fd5b7f4e487b7100000000000000000000000000000000000000000000000000000000600052603260045260246000fd5b7f4e487b7100000000000000000000000000000000000000000000000000000000600052604160045260246000fd5b600080fd5b600080fd5b600080fd5b600080fd5b6000601f19601f8301169050919050565b60028110610c5157610c50610b5f565b5b50565b60028110610c6557610c64610b5f565b5b50565b610c71816109e3565b8114610c7c57600080fd5b50565b610c88816109f5565b8114610c9357600080fd5b50565b60028110610ca357600080fd5b50565b60028110610cb357600080fd5b50565b610cbf81610a47565b8114610cca57600080fd5b5056fea264697066735822122098cbd84693cb97db7e48418780dea08936e77a15183cbbc1b33557e1ea93742c64736f6c63430008060033",
					"opcodes": "PUSH1 0x80 PUSH1 0x40 MSTORE CALLVALUE DUP1 ISZERO PUSH2 0x10 JUMPI PUSH1 0x0 DUP1 REVERT JUMPDEST POP CALLER PUSH1 0x0 DUP1 PUSH2 0x100 EXP DUP2 SLOAD DUP2 PUSH20 0xFFFFFFFFFFFFFFFFFFFFFFFFFFFFFFFFFFFFFFFF MUL NOT AND SWAP1 DUP4 PUSH20 0xFFFFFFFFFFFFFFFFFFFFFFFFFFFFFFFFFFFFFFFF AND MUL OR SWAP1 SSTORE POP PUSH2 0xD03 DUP1 PUSH2 0x60 PUSH1 0x0 CODECOPY PUSH1 0x0 RETURN INVALID PUSH1 0x80 PUSH1 0x40 MSTORE CALLVALUE DUP1 ISZERO PUSH2 0x10 JUMPI PUSH1 0x0 DUP1 REVERT JUMPDEST POP PUSH1 0x4 CALLDATASIZE LT PUSH2 0x41 JUMPI PUSH1 0x0 CALLDATALOAD PUSH1 0xE0 SHR DUP1 PUSH4 0x671E3F75 EQ PUSH2 0x46 JUMPI DUP1 PUSH4 0xCFB67379 EQ PUSH2 0x76 JUMPI DUP1 PUSH4 0xE7149623 EQ PUSH2 0x92 JUMPI JUMPDEST PUSH1 0x0 DUP1 REVERT JUMPDEST PUSH2 0x60 PUSH1 0x4 DUP1 CALLDATASIZE SUB DUP2 ADD SWAP1 PUSH2 0x5B SWAP2 SWAP1 PUSH2 0x77E JUMP JUMPDEST PUSH2 0xC2 JUMP JUMPDEST PUSH1 0x40 MLOAD PUSH2 0x6D SWAP2 SWAP1 PUSH2 0x972 JUMP JUMPDEST PUSH1 0x40 MLOAD DUP1 SWAP2 SUB SWAP1 RETURN JUMPDEST PUSH2 0x90 PUSH1 0x4 DUP1 CALLDATASIZE SUB DUP2 ADD SWAP1 PUSH2 0x8B SWAP2 SWAP1 PUSH2 0x7FE JUMP JUMPDEST PUSH2 0x28D JUMP JUMPDEST STOP JUMPDEST PUSH2 0xAC PUSH1 0x4 DUP1 CALLDATASIZE SUB DUP2 ADD SWAP1 PUSH2 0xA7 SWAP2 SWAP1 PUSH2 0x7BE JUMP JUMPDEST PUSH2 0x437 JUMP JUMPDEST PUSH1 0x40 MLOAD PUSH2 0xB9 SWAP2 SWAP1 PUSH2 0x972 JUMP JUMPDEST PUSH1 0x40 MLOAD DUP1 SWAP2 SUB SWAP1 RETURN JUMPDEST PUSH1 0x0 DUP1 PUSH1 0x1 DUP1 SLOAD SWAP1 POP SWAP1 POP PUSH1 0x0 JUMPDEST DUP2 DUP2 LT ISZERO PUSH2 0x247 JUMPI DUP5 PUSH20 0xFFFFFFFFFFFFFFFFFFFFFFFFFFFFFFFFFFFFFFFF AND PUSH1 0x1 DUP3 DUP2 SLOAD DUP2 LT PUSH2 0x103 JUMPI PUSH2 0x102 PUSH2 0xBBD JUMP JUMPDEST JUMPDEST SWAP1 PUSH1 0x0 MSTORE PUSH1 0x20 PUSH1 0x0 KECCAK256 SWAP1 PUSH1 0x7 MUL ADD PUSH1 0x0 ADD PUSH1 0x0 SWAP1 SLOAD SWAP1 PUSH2 0x100 EXP SWAP1 DIV PUSH20 0xFFFFFFFFFFFFFFFFFFFFFFFFFFFFFFFFFFFFFFFF AND PUSH20 0xFFFFFFFFFFFFFFFFFFFFFFFFFFFFFFFFFFFFFFFF AND EQ ISZERO PUSH2 0x234 JUMPI PUSH1 0x0 PUSH1 0x1 DUP2 GT ISZERO PUSH2 0x165 JUMPI PUSH2 0x164 PUSH2 0xB5F JUMP JUMPDEST JUMPDEST DUP5 PUSH1 0x1 DUP2 GT ISZERO PUSH2 0x178 JUMPI PUSH2 0x177 PUSH2 0xB5F JUMP JUMPDEST JUMPDEST EQ ISZERO PUSH2 0x1C0 JUMPI PUSH1 0x1 DUP1 DUP3 DUP2 SLOAD DUP2 LT PUSH2 0x193 JUMPI PUSH2 0x192 PUSH2 0xBBD JUMP JUMPDEST JUMPDEST SWAP1 PUSH1 0x0 MSTORE PUSH1 0x20 PUSH1 0x0 KECCAK256 SWAP1 PUSH1 0x7 MUL ADD PUSH1 0x6 ADD PUSH1 0x2 PUSH2 0x100 EXP DUP2 SLOAD DUP2 PUSH1 0xFF MUL NOT AND SWAP1 DUP4 ISZERO ISZERO MUL OR SWAP1 SSTORE POP PUSH2 0x1FF JUMP JUMPDEST PUSH1 0x0 PUSH1 0x1 DUP3 DUP2 SLOAD DUP2 LT PUSH2 0x1D6 JUMPI PUSH2 0x1D5 PUSH2 0xBBD JUMP JUMPDEST JUMPDEST SWAP1 PUSH1 0x0 MSTORE PUSH1 0x20 PUSH1 0x0 KECCAK256 SWAP1 PUSH1 0x7 MUL ADD PUSH1 0x6 ADD PUSH1 0x2 PUSH2 0x100 EXP DUP2 SLOAD DUP2 PUSH1 0xFF MUL NOT AND SWAP1 DUP4 ISZERO ISZERO MUL OR SWAP1 SSTORE POP JUMPDEST TIMESTAMP PUSH1 0x1 DUP3 DUP2 SLOAD DUP2 LT PUSH2 0x214 JUMPI PUSH2 0x213 PUSH2 0xBBD JUMP JUMPDEST JUMPDEST SWAP1 PUSH1 0x0 MSTORE PUSH1 0x20 PUSH1 0x0 KECCAK256 SWAP1 PUSH1 0x7 MUL ADD PUSH1 0x5 ADD DUP2 SWAP1 SSTORE POP PUSH1 0x1 SWAP3 POP POP POP PUSH2 0x287 JUMP JUMPDEST DUP1 DUP1 PUSH2 0x23F SWAP1 PUSH2 0xAE7 JUMP JUMPDEST SWAP2 POP POP PUSH2 0xD0 JUMP JUMPDEST POP PUSH32 0x1BC4F6A74FDBF500E13DB259C58A58C59533EA54A4B93010D0126F6061EC3753 DUP5 DUP5 PUSH1 0x40 MLOAD PUSH2 0x279 SWAP3 SWAP2 SWAP1 PUSH2 0x920 JUMP JUMPDEST PUSH1 0x40 MLOAD DUP1 SWAP2 SUB SWAP1 LOG1 PUSH1 0x0 SWAP2 POP POP JUMPDEST SWAP3 SWAP2 POP POP JUMP JUMPDEST PUSH1 0x1 PUSH1 0x40 MLOAD DUP1 PUSH2 0x140 ADD PUSH1 0x40 MSTORE DUP1 DUP12 PUSH20 0xFFFFFFFFFFFFFFFFFFFFFFFFFFFFFFFFFFFFFFFF AND DUP2 MSTORE PUSH1 0x20 ADD DUP11 DUP2 MSTORE PUSH1 0x20 ADD DUP10 DUP2 MSTORE PUSH1 0x20 ADD DUP9 DUP2 MSTORE PUSH1 0x20 ADD DUP8 DUP2 MSTORE PUSH1 0x20 ADD TIMESTAMP DUP2 MSTORE PUSH1 0x20 ADD DUP7 ISZERO ISZERO DUP2 MSTORE PUSH1 0x20 ADD DUP6 ISZERO ISZERO DUP2 MSTORE PUSH1 0x20 ADD DUP5 ISZERO ISZERO DUP2 MSTORE PUSH1 0x20 ADD DUP4 ISZERO ISZERO DUP2 MSTORE POP SWAP1 DUP1 PUSH1 0x1 DUP2 SLOAD ADD DUP1 DUP3 SSTORE DUP1 SWAP2 POP POP PUSH1 0x1 SWAP1 SUB SWAP1 PUSH1 0x0 MSTORE PUSH1 0x20 PUSH1 0x0 KECCAK256 SWAP1 PUSH1 0x7 MUL ADD PUSH1 0x0 SWAP1 SWAP2 SWAP1 SWAP2 SWAP1 SWAP2 POP PUSH1 0x0 DUP3 ADD MLOAD DUP2 PUSH1 0x0 ADD PUSH1 0x0 PUSH2 0x100 EXP DUP2 SLOAD DUP2 PUSH20 0xFFFFFFFFFFFFFFFFFFFFFFFFFFFFFFFFFFFFFFFF MUL NOT AND SWAP1 DUP4 PUSH20 0xFFFFFFFFFFFFFFFFFFFFFFFFFFFFFFFFFFFFFFFF AND MUL OR SWAP1 SSTORE POP PUSH1 0x20 DUP3 ADD MLOAD DUP2 PUSH1 0x1 ADD SWAP1 DUP1 MLOAD SWAP1 PUSH1 0x20 ADD SWAP1 PUSH2 0x37F SWAP3 SWAP2 SWAP1 PUSH2 0x602 JUMP JUMPDEST POP PUSH1 0x40 DUP3 ADD MLOAD DUP2 PUSH1 0x2 ADD SSTORE PUSH1 0x60 DUP3 ADD MLOAD DUP2 PUSH1 0x3 ADD SSTORE PUSH1 0x80 DUP3 ADD MLOAD DUP2 PUSH1 0x4 ADD SSTORE PUSH1 0xA0 DUP3 ADD MLOAD DUP2 PUSH1 0x5 ADD SSTORE PUSH1 0xC0 DUP3 ADD MLOAD DUP2 PUSH1 0x6 ADD PUSH1 0x0 PUSH2 0x100 EXP DUP2 SLOAD DUP2 PUSH1 0xFF MUL NOT AND SWAP1 DUP4 ISZERO ISZERO MUL OR SWAP1 SSTORE POP PUSH1 0xE0 DUP3 ADD MLOAD DUP2 PUSH1 0x6 ADD PUSH1 0x1 PUSH2 0x100 EXP DUP2 SLOAD DUP2 PUSH1 0xFF MUL NOT AND SWAP1 DUP4 ISZERO ISZERO MUL OR SWAP1 SSTORE POP PUSH2 0x100 DUP3 ADD MLOAD DUP2 PUSH1 0x6 ADD PUSH1 0x2 PUSH2 0x100 EXP DUP2 SLOAD DUP2 PUSH1 0xFF MUL NOT AND SWAP1 DUP4 ISZERO ISZERO MUL OR SWAP1 SSTORE POP PUSH2 0x120 DUP3 ADD MLOAD DUP2 PUSH1 0x6 ADD PUSH1 0x3 PUSH2 0x100 EXP DUP2 SLOAD DUP2 PUSH1 0xFF MUL NOT AND SWAP1 DUP4 ISZERO ISZERO MUL OR SWAP1 SSTORE POP POP POP POP POP POP POP POP POP POP POP POP JUMP JUMPDEST PUSH1 0x0 DUP1 PUSH1 0x1 DUP1 SLOAD SWAP1 POP SWAP1 POP PUSH1 0x0 JUMPDEST DUP2 DUP2 LT ISZERO PUSH2 0x5BC JUMPI DUP5 PUSH20 0xFFFFFFFFFFFFFFFFFFFFFFFFFFFFFFFFFFFFFFFF AND PUSH1 0x1 DUP3 DUP2 SLOAD DUP2 LT PUSH2 0x478 JUMPI PUSH2 0x477 PUSH2 0xBBD JUMP JUMPDEST JUMPDEST SWAP1 PUSH1 0x0 MSTORE PUSH1 0x20 PUSH1 0x0 KECCAK256 SWAP1 PUSH1 0x7 MUL ADD PUSH1 0x0 ADD PUSH1 0x0 SWAP1 SLOAD SWAP1 PUSH2 0x100 EXP SWAP1 DIV PUSH20 0xFFFFFFFFFFFFFFFFFFFFFFFFFFFFFFFFFFFFFFFF AND PUSH20 0xFFFFFFFFFFFFFFFFFFFFFFFFFFFFFFFFFFFFFFFF AND EQ ISZERO PUSH2 0x5A9 JUMPI PUSH1 0x0 PUSH1 0x1 DUP2 GT ISZERO PUSH2 0x4DA JUMPI PUSH2 0x4D9 PUSH2 0xB5F JUMP JUMPDEST JUMPDEST DUP5 PUSH1 0x1 DUP2 GT ISZERO PUSH2 0x4ED JUMPI PUSH2 0x4EC PUSH2 0xB5F JUMP JUMPDEST JUMPDEST EQ ISZERO PUSH2 0x535 JUMPI PUSH1 0x1 DUP1 DUP3 DUP2 SLOAD DUP2 LT PUSH2 0x508 JUMPI PUSH2 0x507 PUSH2 0xBBD JUMP JUMPDEST JUMPDEST SWAP1 PUSH1 0x0 MSTORE PUSH1 0x20 PUSH1 0x0 KECCAK256 SWAP1 PUSH1 0x7 MUL ADD PUSH1 0x6 ADD PUSH1 0x2 PUSH2 0x100 EXP DUP2 SLOAD DUP2 PUSH1 0xFF MUL NOT AND SWAP1 DUP4 ISZERO ISZERO MUL OR SWAP1 SSTORE POP PUSH2 0x574 JUMP JUMPDEST PUSH1 0x0 PUSH1 0x1 DUP3 DUP2 SLOAD DUP2 LT PUSH2 0x54B JUMPI PUSH2 0x54A PUSH2 0xBBD JUMP JUMPDEST JUMPDEST SWAP1 PUSH1 0x0 MSTORE PUSH1 0x20 PUSH1 0x0 KECCAK256 SWAP1 PUSH1 0x7 MUL ADD PUSH1 0x6 ADD PUSH1 0x2 PUSH2 0x100 EXP DUP2 SLOAD DUP2 PUSH1 0xFF MUL NOT AND SWAP1 DUP4 ISZERO ISZERO MUL OR SWAP1 SSTORE POP JUMPDEST TIMESTAMP PUSH1 0x1 DUP3 DUP2 SLOAD DUP2 LT PUSH2 0x589 JUMPI PUSH2 0x588 PUSH2 0xBBD JUMP JUMPDEST JUMPDEST SWAP1 PUSH1 0x0 MSTORE PUSH1 0x20 PUSH1 0x0 KECCAK256 SWAP1 PUSH1 0x7 MUL ADD PUSH1 0x5 ADD DUP2 SWAP1 SSTORE POP PUSH1 0x1 SWAP3 POP POP POP PUSH2 0x5FC JUMP JUMPDEST DUP1 DUP1 PUSH2 0x5B4 SWAP1 PUSH2 0xAE7 JUMP JUMPDEST SWAP2 POP POP PUSH2 0x445 JUMP JUMPDEST POP PUSH32 0x3F57EA1559CFEE0FF7804A8BBF56C488FBD7F8D575ACD8537D7F02A6FFB8BDB4 DUP5 DUP5 PUSH1 0x40 MLOAD PUSH2 0x5EE SWAP3 SWAP2 SWAP1 PUSH2 0x949 JUMP JUMPDEST PUSH1 0x40 MLOAD DUP1 SWAP2 SUB SWAP1 LOG1 PUSH1 0x0 SWAP2 POP POP JUMPDEST SWAP3 SWAP2 POP POP JUMP JUMPDEST DUP3 DUP1 SLOAD PUSH2 0x60E SWAP1 PUSH2 0xA84 JUMP JUMPDEST SWAP1 PUSH1 0x0 MSTORE PUSH1 0x20 PUSH1 0x0 KECCAK256 SWAP1 PUSH1 0x1F ADD PUSH1 0x20 SWAP1 DIV DUP2 ADD SWAP3 DUP3 PUSH2 0x630 JUMPI PUSH1 0x0 DUP6 SSTORE PUSH2 0x677 JUMP JUMPDEST DUP3 PUSH1 0x1F LT PUSH2 0x649 JUMPI DUP1 MLOAD PUSH1 0xFF NOT AND DUP4 DUP1 ADD OR DUP6 SSTORE PUSH2 0x677 JUMP JUMPDEST DUP3 DUP1 ADD PUSH1 0x1 ADD DUP6 SSTORE DUP3 ISZERO PUSH2 0x677 JUMPI SWAP2 DUP3 ADD JUMPDEST DUP3 DUP2 GT ISZERO PUSH2 0x676 JUMPI DUP3 MLOAD DUP3 SSTORE SWAP2 PUSH1 0x20 ADD SWAP2 SWAP1 PUSH1 0x1 ADD SWAP1 PUSH2 0x65B JUMP JUMPDEST JUMPDEST POP SWAP1 POP PUSH2 0x684 SWAP2 SWAP1 PUSH2 0x688 JUMP JUMPDEST POP SWAP1 JUMP JUMPDEST JUMPDEST DUP1 DUP3 GT ISZERO PUSH2 0x6A1 JUMPI PUSH1 0x0 DUP2 PUSH1 0x0 SWAP1 SSTORE POP PUSH1 0x1 ADD PUSH2 0x689 JUMP JUMPDEST POP SWAP1 JUMP JUMPDEST PUSH1 0x0 PUSH2 0x6B8 PUSH2 0x6B3 DUP5 PUSH2 0x9B2 JUMP JUMPDEST PUSH2 0x98D JUMP JUMPDEST SWAP1 POP DUP3 DUP2 MSTORE PUSH1 0x20 DUP2 ADD DUP5 DUP5 DUP5 ADD GT ISZERO PUSH2 0x6D4 JUMPI PUSH2 0x6D3 PUSH2 0xC20 JUMP JUMPDEST JUMPDEST PUSH2 0x6DF DUP5 DUP3 DUP6 PUSH2 0xA75 JUMP JUMPDEST POP SWAP4 SWAP3 POP POP POP JUMP JUMPDEST PUSH1 0x0 DUP2 CALLDATALOAD SWAP1 POP PUSH2 0x6F6 DUP2 PUSH2 0xC68 JUMP JUMPDEST SWAP3 SWAP2 POP POP JUMP JUMPDEST PUSH1 0x0 DUP2 CALLDATALOAD SWAP1 POP PUSH2 0x70B DUP2 PUSH2 0xC7F JUMP JUMPDEST SWAP3 SWAP2 POP POP JUMP JUMPDEST PUSH1 0x0 DUP2 CALLDATALOAD SWAP1 POP PUSH2 0x720 DUP2 PUSH2 0xC96 JUMP JUMPDEST SWAP3 SWAP2 POP POP JUMP JUMPDEST PUSH1 0x0 DUP2 CALLDATALOAD SWAP1 POP PUSH2 0x735 DUP2 PUSH2 0xCA6 JUMP JUMPDEST SWAP3 SWAP2 POP POP JUMP JUMPDEST PUSH1 0x0 DUP3 PUSH1 0x1F DUP4 ADD SLT PUSH2 0x750 JUMPI PUSH2 0x74F PUSH2 0xC1B JUMP JUMPDEST JUMPDEST DUP2 CALLDATALOAD PUSH2 0x760 DUP5 DUP3 PUSH1 0x20 DUP7 ADD PUSH2 0x6A5 JUMP JUMPDEST SWAP2 POP POP SWAP3 SWAP2 POP POP JUMP JUMPDEST PUSH1 0x0 DUP2 CALLDATALOAD SWAP1 POP PUSH2 0x778 DUP2 PUSH2 0xCB6 JUMP JUMPDEST SWAP3 SWAP2 POP POP JUMP JUMPDEST PUSH1 0x0 DUP1 PUSH1 0x40 DUP4 DUP6 SUB SLT ISZERO PUSH2 0x795 JUMPI PUSH2 0x794 PUSH2 0xC2A JUMP JUMPDEST JUMPDEST PUSH1 0x0 PUSH2 0x7A3 DUP6 DUP3 DUP7 ADD PUSH2 0x6E7 JUMP JUMPDEST SWAP3 POP POP PUSH1 0x20 PUSH2 0x7B4 DUP6 DUP3 DUP7 ADD PUSH2 0x711 JUMP JUMPDEST SWAP2 POP POP SWAP3 POP SWAP3 SWAP1 POP JUMP JUMPDEST PUSH1 0x0 DUP1 PUSH1 0x40 DUP4 DUP6 SUB SLT ISZERO PUSH2 0x7D5 JUMPI PUSH2 0x7D4 PUSH2 0xC2A JUMP JUMPDEST JUMPDEST PUSH1 0x0 PUSH2 0x7E3 DUP6 DUP3 DUP7 ADD PUSH2 0x6E7 JUMP JUMPDEST SWAP3 POP POP PUSH1 0x20 PUSH2 0x7F4 DUP6 DUP3 DUP7 ADD PUSH2 0x726 JUMP JUMPDEST SWAP2 POP POP SWAP3 POP SWAP3 SWAP1 POP JUMP JUMPDEST PUSH1 0x0 DUP1 PUSH1 0x0 DUP1 PUSH1 0x0 DUP1 PUSH1 0x0 DUP1 PUSH1 0x0 PUSH2 0x120 DUP11 DUP13 SUB SLT ISZERO PUSH2 0x821 JUMPI PUSH2 0x820 PUSH2 0xC2A JUMP JUMPDEST JUMPDEST PUSH1 0x0 PUSH2 0x82F DUP13 DUP3 DUP14 ADD PUSH2 0x6E7 JUMP JUMPDEST SWAP10 POP POP PUSH1 0x20 DUP11 ADD CALLDATALOAD PUSH8 0xFFFFFFFFFFFFFFFF DUP2 GT ISZERO PUSH2 0x850 JUMPI PUSH2 0x84F PUSH2 0xC25 JUMP JUMPDEST JUMPDEST PUSH2 0x85C DUP13 DUP3 DUP14 ADD PUSH2 0x73B JUMP JUMPDEST SWAP9 POP POP PUSH1 0x40 PUSH2 0x86D DUP13 DUP3 DUP14 ADD PUSH2 0x769 JUMP JUMPDEST SWAP8 POP POP PUSH1 0x60 PUSH2 0x87E DUP13 DUP3 DUP14 ADD PUSH2 0x769 JUMP JUMPDEST SWAP7 POP POP PUSH1 0x80 PUSH2 0x88F DUP13 DUP3 DUP14 ADD PUSH2 0x769 JUMP JUMPDEST SWAP6 POP POP PUSH1 0xA0 PUSH2 0x8A0 DUP13 DUP3 DUP14 ADD PUSH2 0x6FC JUMP JUMPDEST SWAP5 POP POP PUSH1 0xC0 PUSH2 0x8B1 DUP13 DUP3 DUP14 ADD PUSH2 0x6FC JUMP JUMPDEST SWAP4 POP POP PUSH1 0xE0 PUSH2 0x8C2 DUP13 DUP3 DUP14 ADD PUSH2 0x6FC JUMP JUMPDEST SWAP3 POP POP PUSH2 0x100 PUSH2 0x8D4 DUP13 DUP3 DUP14 ADD PUSH2 0x6FC JUMP JUMPDEST SWAP2 POP POP SWAP3 SWAP6 SWAP9 POP SWAP3 SWAP6 SWAP9 POP SWAP3 SWAP6 SWAP9 JUMP JUMPDEST PUSH2 0x8ED DUP2 PUSH2 0x9E3 JUMP JUMPDEST DUP3 MSTORE POP POP JUMP JUMPDEST PUSH2 0x8FC DUP2 PUSH2 0x9F5 JUMP JUMPDEST DUP3 MSTORE POP POP JUMP JUMPDEST PUSH2 0x90B DUP2 PUSH2 0xA51 JUMP JUMPDEST DUP3 MSTORE POP POP JUMP JUMPDEST PUSH2 0x91A DUP2 PUSH2 0xA63 JUMP JUMPDEST DUP3 MSTORE POP POP JUMP JUMPDEST PUSH1 0x0 PUSH1 0x40 DUP3 ADD SWAP1 POP PUSH2 0x935 PUSH1 0x0 DUP4 ADD DUP6 PUSH2 0x8E4 JUMP JUMPDEST PUSH2 0x942 PUSH1 0x20 DUP4 ADD DUP5 PUSH2 0x902 JUMP JUMPDEST SWAP4 SWAP3 POP POP POP JUMP JUMPDEST PUSH1 0x0 PUSH1 0x40 DUP3 ADD SWAP1 POP PUSH2 0x95E PUSH1 0x0 DUP4 ADD DUP6 PUSH2 0x8E4 JUMP JUMPDEST PUSH2 0x96B PUSH1 0x20 DUP4 ADD DUP5 PUSH2 0x911 JUMP JUMPDEST SWAP4 SWAP3 POP POP POP JUMP JUMPDEST PUSH1 0x0 PUSH1 0x20 DUP3 ADD SWAP1 POP PUSH2 0x987 PUSH1 0x0 DUP4 ADD DUP5 PUSH2 0x8F3 JUMP JUMPDEST SWAP3 SWAP2 POP POP JUMP JUMPDEST PUSH1 0x0 PUSH2 0x997 PUSH2 0x9A8 JUMP JUMPDEST SWAP1 POP PUSH2 0x9A3 DUP3 DUP3 PUSH2 0xAB6 JUMP JUMPDEST SWAP2 SWAP1 POP JUMP JUMPDEST PUSH1 0x0 PUSH1 0x40 MLOAD SWAP1 POP SWAP1 JUMP JUMPDEST PUSH1 0x0 PUSH8 0xFFFFFFFFFFFFFFFF DUP3 GT ISZERO PUSH2 0x9CD JUMPI PUSH2 0x9CC PUSH2 0xBEC JUMP JUMPDEST JUMPDEST PUSH2 0x9D6 DUP3 PUSH2 0xC2F JUMP JUMPDEST SWAP1 POP PUSH1 0x20 DUP2 ADD SWAP1 POP SWAP2 SWAP1 POP JUMP JUMPDEST PUSH1 0x0 PUSH2 0x9EE DUP3 PUSH2 0xA27 JUMP JUMPDEST SWAP1 POP SWAP2 SWAP1 POP JUMP JUMPDEST PUSH1 0x0 DUP2 ISZERO ISZERO SWAP1 POP SWAP2 SWAP1 POP JUMP JUMPDEST PUSH1 0x0 DUP2 SWAP1 POP PUSH2 0xA0F DUP3 PUSH2 0xC40 JUMP JUMPDEST SWAP2 SWAP1 POP JUMP JUMPDEST PUSH1 0x0 DUP2 SWAP1 POP PUSH2 0xA22 DUP3 PUSH2 0xC54 JUMP JUMPDEST SWAP2 SWAP1 POP JUMP JUMPDEST PUSH1 0x0 PUSH20 0xFFFFFFFFFFFFFFFFFFFFFFFFFFFFFFFFFFFFFFFF DUP3 AND SWAP1 POP SWAP2 SWAP1 POP JUMP JUMPDEST PUSH1 0x0 DUP2 SWAP1 POP SWAP2 SWAP1 POP JUMP JUMPDEST PUSH1 0x0 PUSH2 0xA5C DUP3 PUSH2 0xA01 JUMP JUMPDEST SWAP1 POP SWAP2 SWAP1 POP JUMP JUMPDEST PUSH1 0x0 PUSH2 0xA6E DUP3 PUSH2 0xA14 JUMP JUMPDEST SWAP1 POP SWAP2 SWAP1 POP JUMP JUMPDEST DUP3 DUP2 DUP4 CALLDATACOPY PUSH1 0x0 DUP4 DUP4 ADD MSTORE POP POP POP JUMP JUMPDEST PUSH1 0x0 PUSH1 0x2 DUP3 DIV SWAP1 POP PUSH1 0x1 DUP3 AND DUP1 PUSH2 0xA9C JUMPI PUSH1 0x7F DUP3 AND SWAP2 POP JUMPDEST PUSH1 0x20 DUP3 LT DUP2 EQ ISZERO PUSH2 0xAB0 JUMPI PUSH2 0xAAF PUSH2 0xB8E JUMP JUMPDEST JUMPDEST POP SWAP2 SWAP1 POP JUMP JUMPDEST PUSH2 0xABF DUP3 PUSH2 0xC2F JUMP JUMPDEST DUP2 ADD DUP2 DUP2 LT PUSH8 0xFFFFFFFFFFFFFFFF DUP3 GT OR ISZERO PUSH2 0xADE JUMPI PUSH2 0xADD PUSH2 0xBEC JUMP JUMPDEST JUMPDEST DUP1 PUSH1 0x40 MSTORE POP POP POP JUMP JUMPDEST PUSH1 0x0 PUSH2 0xAF2 DUP3 PUSH2 0xA47 JUMP JUMPDEST SWAP2 POP PUSH32 0xFFFFFFFFFFFFFFFFFFFFFFFFFFFFFFFFFFFFFFFFFFFFFFFFFFFFFFFFFFFFFFFF DUP3 EQ ISZERO PUSH2 0xB25 JUMPI PUSH2 0xB24 PUSH2 0xB30 JUMP JUMPDEST JUMPDEST PUSH1 0x1 DUP3 ADD SWAP1 POP SWAP2 SWAP1 POP JUMP JUMPDEST PUSH32 0x4E487B7100000000000000000000000000000000000000000000000000000000 PUSH1 0x0 MSTORE PUSH1 0x11 PUSH1 0x4 MSTORE PUSH1 0x24 PUSH1 0x0 REVERT JUMPDEST PUSH32 0x4E487B7100000000000000000000000000000000000000000000000000000000 PUSH1 0x0 MSTORE PUSH1 0x21 PUSH1 0x4 MSTORE PUSH1 0x24 PUSH1 0x0 REVERT JUMPDEST PUSH32 0x4E487B7100000000000000000000000000000000000000000000000000000000 PUSH1 0x0 MSTORE PUSH1 0x22 PUSH1 0x4 MSTORE PUSH1 0x24 PUSH1 0x0 REVERT JUMPDEST PUSH32 0x4E487B7100000000000000000000000000000000000000000000000000000000 PUSH1 0x0 MSTORE PUSH1 0x32 PUSH1 0x4 MSTORE PUSH1 0x24 PUSH1 0x0 REVERT JUMPDEST PUSH32 0x4E487B7100000000000000000000000000000000000000000000000000000000 PUSH1 0x0 MSTORE PUSH1 0x41 PUSH1 0x4 MSTORE PUSH1 0x24 PUSH1 0x0 REVERT JUMPDEST PUSH1 0x0 DUP1 REVERT JUMPDEST PUSH1 0x0 DUP1 REVERT JUMPDEST PUSH1 0x0 DUP1 REVERT JUMPDEST PUSH1 0x0 DUP1 REVERT JUMPDEST PUSH1 0x0 PUSH1 0x1F NOT PUSH1 0x1F DUP4 ADD AND SWAP1 POP SWAP2 SWAP1 POP JUMP JUMPDEST PUSH1 0x2 DUP2 LT PUSH2 0xC51 JUMPI PUSH2 0xC50 PUSH2 0xB5F JUMP JUMPDEST JUMPDEST POP JUMP JUMPDEST PUSH1 0x2 DUP2 LT PUSH2 0xC65 JUMPI PUSH2 0xC64 PUSH2 0xB5F JUMP JUMPDEST JUMPDEST POP JUMP JUMPDEST PUSH2 0xC71 DUP2 PUSH2 0x9E3 JUMP JUMPDEST DUP2 EQ PUSH2 0xC7C JUMPI PUSH1 0x0 DUP1 REVERT JUMPDEST POP JUMP JUMPDEST PUSH2 0xC88 DUP2 PUSH2 0x9F5 JUMP JUMPDEST DUP2 EQ PUSH2 0xC93 JUMPI PUSH1 0x0 DUP1 REVERT JUMPDEST POP JUMP JUMPDEST PUSH1 0x2 DUP2 LT PUSH2 0xCA3 JUMPI PUSH1 0x0 DUP1 REVERT JUMPDEST POP JUMP JUMPDEST PUSH1 0x2 DUP2 LT PUSH2 0xCB3 JUMPI PUSH1 0x0 DUP1 REVERT JUMPDEST POP JUMP JUMPDEST PUSH2 0xCBF DUP2 PUSH2 0xA47 JUMP JUMPDEST DUP2 EQ PUSH2 0xCCA JUMPI PUSH1 0x0 DUP1 REVERT JUMPDEST POP JUMP INVALID LOG2 PUSH5 0x6970667358 0x22 SLT KECCAK256 SWAP9 0xCB 0xD8 CHAINID SWAP4 0xCB SWAP8 0xDB PUSH31 0x48418780DEA08936E77A15183CBBC1B33557E1EA93742C64736F6C63430008 MOD STOP CALLER "
				},
				"gasEstimates": {
					"creation": {
						"codeDepositCost": "666200",
						"executionCost": "24968",
						"totalCost": "691168"
					},
					"external": {
						"addAssets(address,string,uint256,uint256,uint256,bool,bool,bool,bool)": "infinite",
						"freezeUnFreezeAsset(address,uint8)": "infinite",
						"makeAssetActiveInactive(address,uint8)": "infinite"
					}
				},
				"methodIdentifiers": {
					"addAssets(address,string,uint256,uint256,uint256,bool,bool,bool,bool)": "cfb67379",
					"freezeUnFreezeAsset(address,uint8)": "e7149623",
					"makeAssetActiveInactive(address,uint8)": "671e3f75"
				}
			},
			"storageLayout": {
				"storage": [
					{
						"astId": 82,
						"contract": "Defi-project/LendingConfig.sol:LendingPoolConfig",
						"label": "owner",
						"offset": 0,
						"slot": "0",
						"type": "t_address"
					},
					{
						"astId": 158,
						"contract": "Defi-project/LendingConfig.sol:LendingPoolConfig",
						"label": "assets",
						"offset": 0,
						"slot": "1",
						"type": "t_array(t_struct(Asset)154_storage)dyn_storage"
					}
				],
				"types": {
					"t_address": {
						"encoding": "inplace",
						"label": "address",
						"numberOfBytes": "20"
					},
					"t_array(t_struct(Asset)154_storage)dyn_storage": {
						"base": "t_struct(Asset)154_storage",
						"encoding": "dynamic_array",
						"label": "struct LendingPoolConfig.Asset[]",
						"numberOfBytes": "32"
					},
					"t_bool": {
						"encoding": "inplace",
						"label": "bool",
						"numberOfBytes": "1"
					},
					"t_string_storage": {
						"encoding": "bytes",
						"label": "string",
						"numberOfBytes": "32"
					},
					"t_struct(Asset)154_storage": {
						"encoding": "inplace",
						"label": "struct LendingPoolConfig.Asset",
						"members": [
							{
								"astId": 135,
								"contract": "Defi-project/LendingConfig.sol:LendingPoolConfig",
								"label": "token",
								"offset": 0,
								"slot": "0",
								"type": "t_address"
							},
							{
								"astId": 137,
								"contract": "Defi-project/LendingConfig.sol:LendingPoolConfig",
								"label": "symbol",
								"offset": 0,
								"slot": "1",
								"type": "t_string_storage"
							},
							{
								"astId": 139,
								"contract": "Defi-project/LendingConfig.sol:LendingPoolConfig",
								"label": "decimals",
								"offset": 0,
								"slot": "2",
								"type": "t_uint256"
							},
							{
								"astId": 141,
								"contract": "Defi-project/LendingConfig.sol:LendingPoolConfig",
								"label": "borrowThreshold",
								"offset": 0,
								"slot": "3",
								"type": "t_uint256"
							},
							{
								"astId": 143,
								"contract": "Defi-project/LendingConfig.sol:LendingPoolConfig",
								"label": "liquidationThreshold",
								"offset": 0,
								"slot": "4",
								"type": "t_uint256"
							},
							{
								"astId": 145,
								"contract": "Defi-project/LendingConfig.sol:LendingPoolConfig",
								"label": "lastUpdateTimestamp",
								"offset": 0,
								"slot": "5",
								"type": "t_uint256"
							},
							{
								"astId": 147,
								"contract": "Defi-project/LendingConfig.sol:LendingPoolConfig",
								"label": "borrowingEnabled",
								"offset": 0,
								"slot": "6",
								"type": "t_bool"
							},
							{
								"astId": 149,
								"contract": "Defi-project/LendingConfig.sol:LendingPoolConfig",
								"label": "usageAsCollateralEnabled",
								"offset": 1,
								"slot": "6",
								"type": "t_bool"
							},
							{
								"astId": 151,
								"contract": "Defi-project/LendingConfig.sol:LendingPoolConfig",
								"label": "isfrozen",
								"offset": 2,
								"slot": "6",
								"type": "t_bool"
							},
							{
								"astId": 153,
								"contract": "Defi-project/LendingConfig.sol:LendingPoolConfig",
								"label": "isActive",
								"offset": 3,
								"slot": "6",
								"type": "t_bool"
							}
						],
						"numberOfBytes": "224"
					},
					"t_uint256": {
						"encoding": "inplace",
						"label": "uint256",
						"numberOfBytes": "32"
					}
				}
			},
			"userdoc": {
				"kind": "user",
				"methods": {},
				"version": 1
			}
		}
	}
}