{
	"Defi-project/bank.sol": {
		"Bank": {
			"abi": [
				{
					"inputs": [],
					"stateMutability": "nonpayable",
					"type": "constructor"
				},
				{
					"inputs": [
						{
							"internalType": "uint256",
							"name": "",
							"type": "uint256"
						}
					],
					"name": "assets",
					"outputs": [
						{
							"internalType": "string",
							"name": "name",
							"type": "string"
						},
						{
							"internalType": "uint256",
							"name": "balance",
							"type": "uint256"
						},
						{
							"internalType": "uint256",
							"name": "timestamp",
							"type": "uint256"
						},
						{
							"internalType": "address",
							"name": "from",
							"type": "address"
						}
					],
					"stateMutability": "view",
					"type": "function"
				},
				{
					"inputs": [
						{
							"internalType": "string",
							"name": "name",
							"type": "string"
						}
					],
					"name": "depositAsset",
					"outputs": [],
					"stateMutability": "payable",
					"type": "function"
				},
				{
					"inputs": [],
					"name": "getContactBalance",
					"outputs": [
						{
							"internalType": "uint256",
							"name": "",
							"type": "uint256"
						}
					],
					"stateMutability": "view",
					"type": "function"
				},
				{
					"inputs": [],
					"name": "owner",
					"outputs": [
						{
							"internalType": "address",
							"name": "",
							"type": "address"
						}
					],
					"stateMutability": "view",
					"type": "function"
				}
			],
			"devdoc": {
				"kind": "dev",
				"methods": {},
				"version": 1
			},
			"evm": {
				"assembly": "    /* \"Defi-project/bank.sol\":59:688  contract Bank {... */\n  mstore(0x40, 0x80)\n    /* \"Defi-project/bank.sol\":263:314  constructor() {... */\n  callvalue\n  dup1\n  iszero\n  tag_1\n  jumpi\n  0x00\n  dup1\n  revert\ntag_1:\n  pop\n    /* \"Defi-project/bank.sol\":296:306  msg.sender */\n  caller\n    /* \"Defi-project/bank.sol\":288:293  owner */\n  0x01\n  0x00\n    /* \"Defi-project/bank.sol\":288:306  owner = msg.sender */\n  0x0100\n  exp\n  dup2\n  sload\n  dup2\n  0xffffffffffffffffffffffffffffffffffffffff\n  mul\n  not\n  and\n  swap1\n  dup4\n  0xffffffffffffffffffffffffffffffffffffffff\n  and\n  mul\n  or\n  swap1\n  sstore\n  pop\n    /* \"Defi-project/bank.sol\":59:688  contract Bank {... */\n  dataSize(sub_0)\n  dup1\n  dataOffset(sub_0)\n  0x00\n  codecopy\n  0x00\n  return\nstop\n\nsub_0: assembly {\n        /* \"Defi-project/bank.sol\":59:688  contract Bank {... */\n      mstore(0x40, 0x80)\n      jumpi(tag_1, lt(calldatasize, 0x04))\n      shr(0xe0, calldataload(0x00))\n      dup1\n      0x89ee8cc6\n      eq\n      tag_2\n      jumpi\n      dup1\n      0x8da5cb5b\n      eq\n      tag_3\n      jumpi\n      dup1\n      0xcf35bdd0\n      eq\n      tag_4\n      jumpi\n      dup1\n      0xe48aabd5\n      eq\n      tag_5\n      jumpi\n    tag_1:\n      0x00\n      dup1\n      revert\n        /* \"Defi-project/bank.sol\":360:573  function depositAsset(string memory name) public payable {... */\n    tag_2:\n      tag_6\n      0x04\n      dup1\n      calldatasize\n      sub\n      dup2\n      add\n      swap1\n      tag_7\n      swap2\n      swap1\n      tag_8\n      jump\t// in\n    tag_7:\n      tag_9\n      jump\t// in\n    tag_6:\n      stop\n        /* \"Defi-project/bank.sol\":234:254  address public owner */\n    tag_3:\n      callvalue\n      dup1\n      iszero\n      tag_10\n      jumpi\n      0x00\n      dup1\n      revert\n    tag_10:\n      pop\n      tag_11\n      tag_12\n      jump\t// in\n    tag_11:\n      mload(0x40)\n      tag_13\n      swap2\n      swap1\n      tag_14\n      jump\t// in\n    tag_13:\n      mload(0x40)\n      dup1\n      swap2\n      sub\n      swap1\n      return\n        /* \"Defi-project/bank.sol\":206:227  Asset[] public assets */\n    tag_4:\n      callvalue\n      dup1\n      iszero\n      tag_15\n      jumpi\n      0x00\n      dup1\n      revert\n    tag_15:\n      pop\n      tag_16\n      0x04\n      dup1\n      calldatasize\n      sub\n      dup2\n      add\n      swap1\n      tag_17\n      swap2\n      swap1\n      tag_18\n      jump\t// in\n    tag_17:\n      tag_19\n      jump\t// in\n    tag_16:\n      mload(0x40)\n      tag_20\n      swap5\n      swap4\n      swap3\n      swap2\n      swap1\n      tag_21\n      jump\t// in\n    tag_20:\n      mload(0x40)\n      dup1\n      swap2\n      sub\n      swap1\n      return\n        /* \"Defi-project/bank.sol\":581:683  function getContactBalance() view public returns(uint) {... */\n    tag_5:\n      callvalue\n      dup1\n      iszero\n      tag_22\n      jumpi\n      0x00\n      dup1\n      revert\n    tag_22:\n      pop\n      tag_23\n      tag_24\n      jump\t// in\n    tag_23:\n      mload(0x40)\n      tag_25\n      swap2\n      swap1\n      tag_26\n      jump\t// in\n    tag_25:\n      mload(0x40)\n      dup1\n      swap2\n      sub\n      swap1\n      return\n        /* \"Defi-project/bank.sol\":360:573  function depositAsset(string memory name) public payable {... */\n    tag_9:\n        /* \"Defi-project/bank.sol\":448:457  .01 ether */\n      0x2386f26fc10000\n        /* \"Defi-project/bank.sol\":436:445  msg.value */\n      callvalue\n        /* \"Defi-project/bank.sol\":436:457  msg.value > .01 ether */\n      gt\n        /* \"Defi-project/bank.sol\":428:490  require(msg.value > .01 ether, \"Please deposit more than one\") */\n      tag_28\n      jumpi\n      mload(0x40)\n      0x08c379a000000000000000000000000000000000000000000000000000000000\n      dup2\n      mstore\n      0x04\n      add\n      tag_29\n      swap1\n      tag_30\n      jump\t// in\n    tag_29:\n      mload(0x40)\n      dup1\n      swap2\n      sub\n      swap1\n      revert\n    tag_28:\n        /* \"Defi-project/bank.sol\":501:507  assets */\n      0x00\n        /* \"Defi-project/bank.sol\":513:564  Asset(name, msg.value, block.timestamp, msg.sender) */\n      mload(0x40)\n      dup1\n      0x80\n      add\n      0x40\n      mstore\n      dup1\n        /* \"Defi-project/bank.sol\":519:523  name */\n      dup4\n        /* \"Defi-project/bank.sol\":513:564  Asset(name, msg.value, block.timestamp, msg.sender) */\n      dup2\n      mstore\n      0x20\n      add\n        /* \"Defi-project/bank.sol\":525:534  msg.value */\n      callvalue\n        /* \"Defi-project/bank.sol\":513:564  Asset(name, msg.value, block.timestamp, msg.sender) */\n      dup2\n      mstore\n      0x20\n      add\n        /* \"Defi-project/bank.sol\":536:551  block.timestamp */\n      timestamp\n        /* \"Defi-project/bank.sol\":513:564  Asset(name, msg.value, block.timestamp, msg.sender) */\n      dup2\n      mstore\n      0x20\n      add\n        /* \"Defi-project/bank.sol\":553:563  msg.sender */\n      caller\n        /* \"Defi-project/bank.sol\":513:564  Asset(name, msg.value, block.timestamp, msg.sender) */\n      0xffffffffffffffffffffffffffffffffffffffff\n      and\n      dup2\n      mstore\n      pop\n        /* \"Defi-project/bank.sol\":501:565  assets.push(Asset(name, msg.value, block.timestamp, msg.sender)) */\n      swap1\n      dup1\n      0x01\n      dup2\n      sload\n      add\n      dup1\n      dup3\n      sstore\n      dup1\n      swap2\n      pop\n      pop\n      0x01\n      swap1\n      sub\n      swap1\n      0x00\n      mstore\n      keccak256(0x00, 0x20)\n      swap1\n      0x04\n      mul\n      add\n      0x00\n      swap1\n      swap2\n      swap1\n      swap2\n      swap1\n      swap2\n      pop\n      0x00\n      dup3\n      add\n      mload\n      dup2\n      0x00\n      add\n      swap1\n      dup2\n      tag_32\n      swap2\n      swap1\n      tag_33\n      jump\t// in\n    tag_32:\n      pop\n      0x20\n      dup3\n      add\n      mload\n      dup2\n      0x01\n      add\n      sstore\n      0x40\n      dup3\n      add\n      mload\n      dup2\n      0x02\n      add\n      sstore\n      0x60\n      dup3\n      add\n      mload\n      dup2\n      0x03\n      add\n      exp(0x0100, 0x00)\n      dup2\n      sload\n      dup2\n      0xffffffffffffffffffffffffffffffffffffffff\n      mul\n      not\n      and\n      swap1\n      dup4\n      0xffffffffffffffffffffffffffffffffffffffff\n      and\n      mul\n      or\n      swap1\n      sstore\n      pop\n      pop\n      pop\n        /* \"Defi-project/bank.sol\":360:573  function depositAsset(string memory name) public payable {... */\n      pop\n      jump\t// out\n        /* \"Defi-project/bank.sol\":234:254  address public owner */\n    tag_12:\n      0x01\n      0x00\n      swap1\n      sload\n      swap1\n      0x0100\n      exp\n      swap1\n      div\n      0xffffffffffffffffffffffffffffffffffffffff\n      and\n      dup2\n      jump\t// out\n        /* \"Defi-project/bank.sol\":206:227  Asset[] public assets */\n    tag_19:\n      0x00\n      dup2\n      dup2\n      sload\n      dup2\n      lt\n      tag_34\n      jumpi\n      0x00\n      dup1\n      revert\n    tag_34:\n      swap1\n      0x00\n      mstore\n      keccak256(0x00, 0x20)\n      swap1\n      0x04\n      mul\n      add\n      0x00\n      swap2\n      pop\n      swap1\n      pop\n      dup1\n      0x00\n      add\n      dup1\n      sload\n      tag_36\n      swap1\n      tag_37\n      jump\t// in\n    tag_36:\n      dup1\n      0x1f\n      add\n      0x20\n      dup1\n      swap2\n      div\n      mul\n      0x20\n      add\n      mload(0x40)\n      swap1\n      dup2\n      add\n      0x40\n      mstore\n      dup1\n      swap3\n      swap2\n      swap1\n      dup2\n      dup2\n      mstore\n      0x20\n      add\n      dup3\n      dup1\n      sload\n      tag_38\n      swap1\n      tag_37\n      jump\t// in\n    tag_38:\n      dup1\n      iszero\n      tag_39\n      jumpi\n      dup1\n      0x1f\n      lt\n      tag_40\n      jumpi\n      0x0100\n      dup1\n      dup4\n      sload\n      div\n      mul\n      dup4\n      mstore\n      swap2\n      0x20\n      add\n      swap2\n      jump(tag_39)\n    tag_40:\n      dup3\n      add\n      swap2\n      swap1\n      0x00\n      mstore\n      keccak256(0x00, 0x20)\n      swap1\n    tag_41:\n      dup2\n      sload\n      dup2\n      mstore\n      swap1\n      0x01\n      add\n      swap1\n      0x20\n      add\n      dup1\n      dup4\n      gt\n      tag_41\n      jumpi\n      dup3\n      swap1\n      sub\n      0x1f\n      and\n      dup3\n      add\n      swap2\n    tag_39:\n      pop\n      pop\n      pop\n      pop\n      pop\n      swap1\n      dup1\n      0x01\n      add\n      sload\n      swap1\n      dup1\n      0x02\n      add\n      sload\n      swap1\n      dup1\n      0x03\n      add\n      0x00\n      swap1\n      sload\n      swap1\n      0x0100\n      exp\n      swap1\n      div\n      0xffffffffffffffffffffffffffffffffffffffff\n      and\n      swap1\n      pop\n      dup5\n      jump\t// out\n        /* \"Defi-project/bank.sol\":581:683  function getContactBalance() view public returns(uint) {... */\n    tag_24:\n        /* \"Defi-project/bank.sol\":630:634  uint */\n      0x00\n        /* \"Defi-project/bank.sol\":654:675  address(this).balance */\n      selfbalance\n        /* \"Defi-project/bank.sol\":647:675  return address(this).balance */\n      swap1\n      pop\n        /* \"Defi-project/bank.sol\":581:683  function getContactBalance() view public returns(uint) {... */\n      swap1\n      jump\t// out\n        /* \"#utility.yul\":7:82   */\n    tag_43:\n        /* \"#utility.yul\":40:46   */\n      0x00\n        /* \"#utility.yul\":73:75   */\n      0x40\n        /* \"#utility.yul\":67:76   */\n      mload\n        /* \"#utility.yul\":57:76   */\n      swap1\n      pop\n        /* \"#utility.yul\":7:82   */\n      swap1\n      jump\t// out\n        /* \"#utility.yul\":88:205   */\n    tag_44:\n        /* \"#utility.yul\":197:198   */\n      0x00\n        /* \"#utility.yul\":194:195   */\n      dup1\n        /* \"#utility.yul\":187:199   */\n      revert\n        /* \"#utility.yul\":211:328   */\n    tag_45:\n        /* \"#utility.yul\":320:321   */\n      0x00\n        /* \"#utility.yul\":317:318   */\n      dup1\n        /* \"#utility.yul\":310:322   */\n      revert\n        /* \"#utility.yul\":334:451   */\n    tag_46:\n        /* \"#utility.yul\":443:444   */\n      0x00\n        /* \"#utility.yul\":440:441   */\n      dup1\n        /* \"#utility.yul\":433:445   */\n      revert\n        /* \"#utility.yul\":457:574   */\n    tag_47:\n        /* \"#utility.yul\":566:567   */\n      0x00\n        /* \"#utility.yul\":563:564   */\n      dup1\n        /* \"#utility.yul\":556:568   */\n      revert\n        /* \"#utility.yul\":580:682   */\n    tag_48:\n        /* \"#utility.yul\":621:627   */\n      0x00\n        /* \"#utility.yul\":672:674   */\n      0x1f\n        /* \"#utility.yul\":668:675   */\n      not\n        /* \"#utility.yul\":663:665   */\n      0x1f\n        /* \"#utility.yul\":656:661   */\n      dup4\n        /* \"#utility.yul\":652:666   */\n      add\n        /* \"#utility.yul\":648:676   */\n      and\n        /* \"#utility.yul\":638:676   */\n      swap1\n      pop\n        /* \"#utility.yul\":580:682   */\n      swap2\n      swap1\n      pop\n      jump\t// out\n        /* \"#utility.yul\":688:868   */\n    tag_49:\n        /* \"#utility.yul\":736:813   */\n      0x4e487b7100000000000000000000000000000000000000000000000000000000\n        /* \"#utility.yul\":733:734   */\n      0x00\n        /* \"#utility.yul\":726:814   */\n      mstore\n        /* \"#utility.yul\":833:837   */\n      0x41\n        /* \"#utility.yul\":830:831   */\n      0x04\n        /* \"#utility.yul\":823:838   */\n      mstore\n        /* \"#utility.yul\":857:861   */\n      0x24\n        /* \"#utility.yul\":854:855   */\n      0x00\n        /* \"#utility.yul\":847:862   */\n      revert\n        /* \"#utility.yul\":874:1155   */\n    tag_50:\n        /* \"#utility.yul\":957:984   */\n      tag_94\n        /* \"#utility.yul\":979:983   */\n      dup3\n        /* \"#utility.yul\":957:984   */\n      tag_48\n      jump\t// in\n    tag_94:\n        /* \"#utility.yul\":949:955   */\n      dup2\n        /* \"#utility.yul\":945:985   */\n      add\n        /* \"#utility.yul\":1087:1093   */\n      dup2\n        /* \"#utility.yul\":1075:1085   */\n      dup2\n        /* \"#utility.yul\":1072:1094   */\n      lt\n        /* \"#utility.yul\":1051:1069   */\n      0xffffffffffffffff\n        /* \"#utility.yul\":1039:1049   */\n      dup3\n        /* \"#utility.yul\":1036:1070   */\n      gt\n        /* \"#utility.yul\":1033:1095   */\n      or\n        /* \"#utility.yul\":1030:1118   */\n      iszero\n      tag_95\n      jumpi\n        /* \"#utility.yul\":1098:1116   */\n      tag_96\n      tag_49\n      jump\t// in\n    tag_96:\n        /* \"#utility.yul\":1030:1118   */\n    tag_95:\n        /* \"#utility.yul\":1138:1148   */\n      dup1\n        /* \"#utility.yul\":1134:1136   */\n      0x40\n        /* \"#utility.yul\":1127:1149   */\n      mstore\n        /* \"#utility.yul\":917:1155   */\n      pop\n        /* \"#utility.yul\":874:1155   */\n      pop\n      pop\n      jump\t// out\n        /* \"#utility.yul\":1161:1290   */\n    tag_51:\n        /* \"#utility.yul\":1195:1201   */\n      0x00\n        /* \"#utility.yul\":1222:1242   */\n      tag_98\n      tag_43\n      jump\t// in\n    tag_98:\n        /* \"#utility.yul\":1212:1242   */\n      swap1\n      pop\n        /* \"#utility.yul\":1251:1284   */\n      tag_99\n        /* \"#utility.yul\":1279:1283   */\n      dup3\n        /* \"#utility.yul\":1271:1277   */\n      dup3\n        /* \"#utility.yul\":1251:1284   */\n      tag_50\n      jump\t// in\n    tag_99:\n        /* \"#utility.yul\":1161:1290   */\n      swap2\n      swap1\n      pop\n      jump\t// out\n        /* \"#utility.yul\":1296:1604   */\n    tag_52:\n        /* \"#utility.yul\":1358:1362   */\n      0x00\n        /* \"#utility.yul\":1448:1466   */\n      0xffffffffffffffff\n        /* \"#utility.yul\":1440:1446   */\n      dup3\n        /* \"#utility.yul\":1437:1467   */\n      gt\n        /* \"#utility.yul\":1434:1490   */\n      iszero\n      tag_101\n      jumpi\n        /* \"#utility.yul\":1470:1488   */\n      tag_102\n      tag_49\n      jump\t// in\n    tag_102:\n        /* \"#utility.yul\":1434:1490   */\n    tag_101:\n        /* \"#utility.yul\":1508:1537   */\n      tag_103\n        /* \"#utility.yul\":1530:1536   */\n      dup3\n        /* \"#utility.yul\":1508:1537   */\n      tag_48\n      jump\t// in\n    tag_103:\n        /* \"#utility.yul\":1500:1537   */\n      swap1\n      pop\n        /* \"#utility.yul\":1592:1596   */\n      0x20\n        /* \"#utility.yul\":1586:1590   */\n      dup2\n        /* \"#utility.yul\":1582:1597   */\n      add\n        /* \"#utility.yul\":1574:1597   */\n      swap1\n      pop\n        /* \"#utility.yul\":1296:1604   */\n      swap2\n      swap1\n      pop\n      jump\t// out\n        /* \"#utility.yul\":1610:1756   */\n    tag_53:\n        /* \"#utility.yul\":1707:1713   */\n      dup3\n        /* \"#utility.yul\":1702:1705   */\n      dup2\n        /* \"#utility.yul\":1697:1700   */\n      dup4\n        /* \"#utility.yul\":1684:1714   */\n      calldatacopy\n        /* \"#utility.yul\":1748:1749   */\n      0x00\n        /* \"#utility.yul\":1739:1745   */\n      dup4\n        /* \"#utility.yul\":1734:1737   */\n      dup4\n        /* \"#utility.yul\":1730:1746   */\n      add\n        /* \"#utility.yul\":1723:1750   */\n      mstore\n        /* \"#utility.yul\":1610:1756   */\n      pop\n      pop\n      pop\n      jump\t// out\n        /* \"#utility.yul\":1762:2187   */\n    tag_54:\n        /* \"#utility.yul\":1840:1845   */\n      0x00\n        /* \"#utility.yul\":1865:1931   */\n      tag_106\n        /* \"#utility.yul\":1881:1930   */\n      tag_107\n        /* \"#utility.yul\":1923:1929   */\n      dup5\n        /* \"#utility.yul\":1881:1930   */\n      tag_52\n      jump\t// in\n    tag_107:\n        /* \"#utility.yul\":1865:1931   */\n      tag_51\n      jump\t// in\n    tag_106:\n        /* \"#utility.yul\":1856:1931   */\n      swap1\n      pop\n        /* \"#utility.yul\":1954:1960   */\n      dup3\n        /* \"#utility.yul\":1947:1952   */\n      dup2\n        /* \"#utility.yul\":1940:1961   */\n      mstore\n        /* \"#utility.yul\":1992:1996   */\n      0x20\n        /* \"#utility.yul\":1985:1990   */\n      dup2\n        /* \"#utility.yul\":1981:1997   */\n      add\n        /* \"#utility.yul\":2030:2033   */\n      dup5\n        /* \"#utility.yul\":2021:2027   */\n      dup5\n        /* \"#utility.yul\":2016:2019   */\n      dup5\n        /* \"#utility.yul\":2012:2028   */\n      add\n        /* \"#utility.yul\":2009:2034   */\n      gt\n        /* \"#utility.yul\":2006:2118   */\n      iszero\n      tag_108\n      jumpi\n        /* \"#utility.yul\":2037:2116   */\n      tag_109\n      tag_47\n      jump\t// in\n    tag_109:\n        /* \"#utility.yul\":2006:2118   */\n    tag_108:\n        /* \"#utility.yul\":2127:2181   */\n      tag_110\n        /* \"#utility.yul\":2174:2180   */\n      dup5\n        /* \"#utility.yul\":2169:2172   */\n      dup3\n        /* \"#utility.yul\":2164:2167   */\n      dup6\n        /* \"#utility.yul\":2127:2181   */\n      tag_53\n      jump\t// in\n    tag_110:\n        /* \"#utility.yul\":1846:2187   */\n      pop\n        /* \"#utility.yul\":1762:2187   */\n      swap4\n      swap3\n      pop\n      pop\n      pop\n      jump\t// out\n        /* \"#utility.yul\":2207:2547   */\n    tag_55:\n        /* \"#utility.yul\":2263:2268   */\n      0x00\n        /* \"#utility.yul\":2312:2315   */\n      dup3\n        /* \"#utility.yul\":2305:2309   */\n      0x1f\n        /* \"#utility.yul\":2297:2303   */\n      dup4\n        /* \"#utility.yul\":2293:2310   */\n      add\n        /* \"#utility.yul\":2289:2316   */\n      slt\n        /* \"#utility.yul\":2279:2401   */\n      tag_112\n      jumpi\n        /* \"#utility.yul\":2320:2399   */\n      tag_113\n      tag_46\n      jump\t// in\n    tag_113:\n        /* \"#utility.yul\":2279:2401   */\n    tag_112:\n        /* \"#utility.yul\":2437:2443   */\n      dup2\n        /* \"#utility.yul\":2424:2444   */\n      calldataload\n        /* \"#utility.yul\":2462:2541   */\n      tag_114\n        /* \"#utility.yul\":2537:2540   */\n      dup5\n        /* \"#utility.yul\":2529:2535   */\n      dup3\n        /* \"#utility.yul\":2522:2526   */\n      0x20\n        /* \"#utility.yul\":2514:2520   */\n      dup7\n        /* \"#utility.yul\":2510:2527   */\n      add\n        /* \"#utility.yul\":2462:2541   */\n      tag_54\n      jump\t// in\n    tag_114:\n        /* \"#utility.yul\":2453:2541   */\n      swap2\n      pop\n        /* \"#utility.yul\":2269:2547   */\n      pop\n        /* \"#utility.yul\":2207:2547   */\n      swap3\n      swap2\n      pop\n      pop\n      jump\t// out\n        /* \"#utility.yul\":2553:3062   */\n    tag_8:\n        /* \"#utility.yul\":2622:2628   */\n      0x00\n        /* \"#utility.yul\":2671:2673   */\n      0x20\n        /* \"#utility.yul\":2659:2668   */\n      dup3\n        /* \"#utility.yul\":2650:2657   */\n      dup5\n        /* \"#utility.yul\":2646:2669   */\n      sub\n        /* \"#utility.yul\":2642:2674   */\n      slt\n        /* \"#utility.yul\":2639:2758   */\n      iszero\n      tag_116\n      jumpi\n        /* \"#utility.yul\":2677:2756   */\n      tag_117\n      tag_44\n      jump\t// in\n    tag_117:\n        /* \"#utility.yul\":2639:2758   */\n    tag_116:\n        /* \"#utility.yul\":2825:2826   */\n      0x00\n        /* \"#utility.yul\":2814:2823   */\n      dup3\n        /* \"#utility.yul\":2810:2827   */\n      add\n        /* \"#utility.yul\":2797:2828   */\n      calldataload\n        /* \"#utility.yul\":2855:2873   */\n      0xffffffffffffffff\n        /* \"#utility.yul\":2847:2853   */\n      dup2\n        /* \"#utility.yul\":2844:2874   */\n      gt\n        /* \"#utility.yul\":2841:2958   */\n      iszero\n      tag_118\n      jumpi\n        /* \"#utility.yul\":2877:2956   */\n      tag_119\n      tag_45\n      jump\t// in\n    tag_119:\n        /* \"#utility.yul\":2841:2958   */\n    tag_118:\n        /* \"#utility.yul\":2982:3045   */\n      tag_120\n        /* \"#utility.yul\":3037:3044   */\n      dup5\n        /* \"#utility.yul\":3028:3034   */\n      dup3\n        /* \"#utility.yul\":3017:3026   */\n      dup6\n        /* \"#utility.yul\":3013:3035   */\n      add\n        /* \"#utility.yul\":2982:3045   */\n      tag_55\n      jump\t// in\n    tag_120:\n        /* \"#utility.yul\":2972:3045   */\n      swap2\n      pop\n        /* \"#utility.yul\":2768:3055   */\n      pop\n        /* \"#utility.yul\":2553:3062   */\n      swap3\n      swap2\n      pop\n      pop\n      jump\t// out\n        /* \"#utility.yul\":3068:3194   */\n    tag_56:\n        /* \"#utility.yul\":3105:3112   */\n      0x00\n        /* \"#utility.yul\":3145:3187   */\n      0xffffffffffffffffffffffffffffffffffffffff\n        /* \"#utility.yul\":3138:3143   */\n      dup3\n        /* \"#utility.yul\":3134:3188   */\n      and\n        /* \"#utility.yul\":3123:3188   */\n      swap1\n      pop\n        /* \"#utility.yul\":3068:3194   */\n      swap2\n      swap1\n      pop\n      jump\t// out\n        /* \"#utility.yul\":3200:3296   */\n    tag_57:\n        /* \"#utility.yul\":3237:3244   */\n      0x00\n        /* \"#utility.yul\":3266:3290   */\n      tag_123\n        /* \"#utility.yul\":3284:3289   */\n      dup3\n        /* \"#utility.yul\":3266:3290   */\n      tag_56\n      jump\t// in\n    tag_123:\n        /* \"#utility.yul\":3255:3290   */\n      swap1\n      pop\n        /* \"#utility.yul\":3200:3296   */\n      swap2\n      swap1\n      pop\n      jump\t// out\n        /* \"#utility.yul\":3302:3420   */\n    tag_58:\n        /* \"#utility.yul\":3389:3413   */\n      tag_125\n        /* \"#utility.yul\":3407:3412   */\n      dup2\n        /* \"#utility.yul\":3389:3413   */\n      tag_57\n      jump\t// in\n    tag_125:\n        /* \"#utility.yul\":3384:3387   */\n      dup3\n        /* \"#utility.yul\":3377:3414   */\n      mstore\n        /* \"#utility.yul\":3302:3420   */\n      pop\n      pop\n      jump\t// out\n        /* \"#utility.yul\":3426:3648   */\n    tag_14:\n        /* \"#utility.yul\":3519:3523   */\n      0x00\n        /* \"#utility.yul\":3557:3559   */\n      0x20\n        /* \"#utility.yul\":3546:3555   */\n      dup3\n        /* \"#utility.yul\":3542:3560   */\n      add\n        /* \"#utility.yul\":3534:3560   */\n      swap1\n      pop\n        /* \"#utility.yul\":3570:3641   */\n      tag_127\n        /* \"#utility.yul\":3638:3639   */\n      0x00\n        /* \"#utility.yul\":3627:3636   */\n      dup4\n        /* \"#utility.yul\":3623:3640   */\n      add\n        /* \"#utility.yul\":3614:3620   */\n      dup5\n        /* \"#utility.yul\":3570:3641   */\n      tag_58\n      jump\t// in\n    tag_127:\n        /* \"#utility.yul\":3426:3648   */\n      swap3\n      swap2\n      pop\n      pop\n      jump\t// out\n        /* \"#utility.yul\":3654:3731   */\n    tag_59:\n        /* \"#utility.yul\":3691:3698   */\n      0x00\n        /* \"#utility.yul\":3720:3725   */\n      dup2\n        /* \"#utility.yul\":3709:3725   */\n      swap1\n      pop\n        /* \"#utility.yul\":3654:3731   */\n      swap2\n      swap1\n      pop\n      jump\t// out\n        /* \"#utility.yul\":3737:3859   */\n    tag_60:\n        /* \"#utility.yul\":3810:3834   */\n      tag_130\n        /* \"#utility.yul\":3828:3833   */\n      dup2\n        /* \"#utility.yul\":3810:3834   */\n      tag_59\n      jump\t// in\n    tag_130:\n        /* \"#utility.yul\":3803:3808   */\n      dup2\n        /* \"#utility.yul\":3800:3835   */\n      eq\n        /* \"#utility.yul\":3790:3853   */\n      tag_131\n      jumpi\n        /* \"#utility.yul\":3849:3850   */\n      0x00\n        /* \"#utility.yul\":3846:3847   */\n      dup1\n        /* \"#utility.yul\":3839:3851   */\n      revert\n        /* \"#utility.yul\":3790:3853   */\n    tag_131:\n        /* \"#utility.yul\":3737:3859   */\n      pop\n      jump\t// out\n        /* \"#utility.yul\":3865:4004   */\n    tag_61:\n        /* \"#utility.yul\":3911:3916   */\n      0x00\n        /* \"#utility.yul\":3949:3955   */\n      dup2\n        /* \"#utility.yul\":3936:3956   */\n      calldataload\n        /* \"#utility.yul\":3927:3956   */\n      swap1\n      pop\n        /* \"#utility.yul\":3965:3998   */\n      tag_133\n        /* \"#utility.yul\":3992:3997   */\n      dup2\n        /* \"#utility.yul\":3965:3998   */\n      tag_60\n      jump\t// in\n    tag_133:\n        /* \"#utility.yul\":3865:4004   */\n      swap3\n      swap2\n      pop\n      pop\n      jump\t// out\n        /* \"#utility.yul\":4010:4339   */\n    tag_18:\n        /* \"#utility.yul\":4069:4075   */\n      0x00\n        /* \"#utility.yul\":4118:4120   */\n      0x20\n        /* \"#utility.yul\":4106:4115   */\n      dup3\n        /* \"#utility.yul\":4097:4104   */\n      dup5\n        /* \"#utility.yul\":4093:4116   */\n      sub\n        /* \"#utility.yul\":4089:4121   */\n      slt\n        /* \"#utility.yul\":4086:4205   */\n      iszero\n      tag_135\n      jumpi\n        /* \"#utility.yul\":4124:4203   */\n      tag_136\n      tag_44\n      jump\t// in\n    tag_136:\n        /* \"#utility.yul\":4086:4205   */\n    tag_135:\n        /* \"#utility.yul\":4244:4245   */\n      0x00\n        /* \"#utility.yul\":4269:4322   */\n      tag_137\n        /* \"#utility.yul\":4314:4321   */\n      dup5\n        /* \"#utility.yul\":4305:4311   */\n      dup3\n        /* \"#utility.yul\":4294:4303   */\n      dup6\n        /* \"#utility.yul\":4290:4312   */\n      add\n        /* \"#utility.yul\":4269:4322   */\n      tag_61\n      jump\t// in\n    tag_137:\n        /* \"#utility.yul\":4259:4322   */\n      swap2\n      pop\n        /* \"#utility.yul\":4215:4332   */\n      pop\n        /* \"#utility.yul\":4010:4339   */\n      swap3\n      swap2\n      pop\n      pop\n      jump\t// out\n        /* \"#utility.yul\":4345:4444   */\n    tag_62:\n        /* \"#utility.yul\":4397:4403   */\n      0x00\n        /* \"#utility.yul\":4431:4436   */\n      dup2\n        /* \"#utility.yul\":4425:4437   */\n      mload\n        /* \"#utility.yul\":4415:4437   */\n      swap1\n      pop\n        /* \"#utility.yul\":4345:4444   */\n      swap2\n      swap1\n      pop\n      jump\t// out\n        /* \"#utility.yul\":4450:4619   */\n    tag_63:\n        /* \"#utility.yul\":4534:4545   */\n      0x00\n        /* \"#utility.yul\":4568:4574   */\n      dup3\n        /* \"#utility.yul\":4563:4566   */\n      dup3\n        /* \"#utility.yul\":4556:4575   */\n      mstore\n        /* \"#utility.yul\":4608:4612   */\n      0x20\n        /* \"#utility.yul\":4603:4606   */\n      dup3\n        /* \"#utility.yul\":4599:4613   */\n      add\n        /* \"#utility.yul\":4584:4613   */\n      swap1\n      pop\n        /* \"#utility.yul\":4450:4619   */\n      swap3\n      swap2\n      pop\n      pop\n      jump\t// out\n        /* \"#utility.yul\":4625:4871   */\n    tag_64:\n        /* \"#utility.yul\":4706:4707   */\n      0x00\n        /* \"#utility.yul\":4716:4829   */\n    tag_141:\n        /* \"#utility.yul\":4730:4736   */\n      dup4\n        /* \"#utility.yul\":4727:4728   */\n      dup2\n        /* \"#utility.yul\":4724:4737   */\n      lt\n        /* \"#utility.yul\":4716:4829   */\n      iszero\n      tag_143\n      jumpi\n        /* \"#utility.yul\":4815:4816   */\n      dup1\n        /* \"#utility.yul\":4810:4813   */\n      dup3\n        /* \"#utility.yul\":4806:4817   */\n      add\n        /* \"#utility.yul\":4800:4818   */\n      mload\n        /* \"#utility.yul\":4796:4797   */\n      dup2\n        /* \"#utility.yul\":4791:4794   */\n      dup5\n        /* \"#utility.yul\":4787:4798   */\n      add\n        /* \"#utility.yul\":4780:4819   */\n      mstore\n        /* \"#utility.yul\":4752:4754   */\n      0x20\n        /* \"#utility.yul\":4749:4750   */\n      dup2\n        /* \"#utility.yul\":4745:4755   */\n      add\n        /* \"#utility.yul\":4740:4755   */\n      swap1\n      pop\n        /* \"#utility.yul\":4716:4829   */\n      jump(tag_141)\n    tag_143:\n        /* \"#utility.yul\":4863:4864   */\n      0x00\n        /* \"#utility.yul\":4854:4860   */\n      dup5\n        /* \"#utility.yul\":4849:4852   */\n      dup5\n        /* \"#utility.yul\":4845:4861   */\n      add\n        /* \"#utility.yul\":4838:4865   */\n      mstore\n        /* \"#utility.yul\":4687:4871   */\n      pop\n        /* \"#utility.yul\":4625:4871   */\n      pop\n      pop\n      pop\n      jump\t// out\n        /* \"#utility.yul\":4877:5254   */\n    tag_65:\n        /* \"#utility.yul\":4965:4968   */\n      0x00\n        /* \"#utility.yul\":4993:5032   */\n      tag_145\n        /* \"#utility.yul\":5026:5031   */\n      dup3\n        /* \"#utility.yul\":4993:5032   */\n      tag_62\n      jump\t// in\n    tag_145:\n        /* \"#utility.yul\":5048:5119   */\n      tag_146\n        /* \"#utility.yul\":5112:5118   */\n      dup2\n        /* \"#utility.yul\":5107:5110   */\n      dup6\n        /* \"#utility.yul\":5048:5119   */\n      tag_63\n      jump\t// in\n    tag_146:\n        /* \"#utility.yul\":5041:5119   */\n      swap4\n      pop\n        /* \"#utility.yul\":5128:5193   */\n      tag_147\n        /* \"#utility.yul\":5186:5192   */\n      dup2\n        /* \"#utility.yul\":5181:5184   */\n      dup6\n        /* \"#utility.yul\":5174:5178   */\n      0x20\n        /* \"#utility.yul\":5167:5172   */\n      dup7\n        /* \"#utility.yul\":5163:5179   */\n      add\n        /* \"#utility.yul\":5128:5193   */\n      tag_64\n      jump\t// in\n    tag_147:\n        /* \"#utility.yul\":5218:5247   */\n      tag_148\n        /* \"#utility.yul\":5240:5246   */\n      dup2\n        /* \"#utility.yul\":5218:5247   */\n      tag_48\n      jump\t// in\n    tag_148:\n        /* \"#utility.yul\":5213:5216   */\n      dup5\n        /* \"#utility.yul\":5209:5248   */\n      add\n        /* \"#utility.yul\":5202:5248   */\n      swap2\n      pop\n        /* \"#utility.yul\":4969:5254   */\n      pop\n        /* \"#utility.yul\":4877:5254   */\n      swap3\n      swap2\n      pop\n      pop\n      jump\t// out\n        /* \"#utility.yul\":5260:5378   */\n    tag_66:\n        /* \"#utility.yul\":5347:5371   */\n      tag_150\n        /* \"#utility.yul\":5365:5370   */\n      dup2\n        /* \"#utility.yul\":5347:5371   */\n      tag_59\n      jump\t// in\n    tag_150:\n        /* \"#utility.yul\":5342:5345   */\n      dup3\n        /* \"#utility.yul\":5335:5372   */\n      mstore\n        /* \"#utility.yul\":5260:5378   */\n      pop\n      pop\n      jump\t// out\n        /* \"#utility.yul\":5384:6028   */\n    tag_21:\n        /* \"#utility.yul\":5581:5585   */\n      0x00\n        /* \"#utility.yul\":5619:5622   */\n      0x80\n        /* \"#utility.yul\":5608:5617   */\n      dup3\n        /* \"#utility.yul\":5604:5623   */\n      add\n        /* \"#utility.yul\":5596:5623   */\n      swap1\n      pop\n        /* \"#utility.yul\":5669:5678   */\n      dup2\n        /* \"#utility.yul\":5663:5667   */\n      dup2\n        /* \"#utility.yul\":5659:5679   */\n      sub\n        /* \"#utility.yul\":5655:5656   */\n      0x00\n        /* \"#utility.yul\":5644:5653   */\n      dup4\n        /* \"#utility.yul\":5640:5657   */\n      add\n        /* \"#utility.yul\":5633:5680   */\n      mstore\n        /* \"#utility.yul\":5697:5775   */\n      tag_152\n        /* \"#utility.yul\":5770:5774   */\n      dup2\n        /* \"#utility.yul\":5761:5767   */\n      dup8\n        /* \"#utility.yul\":5697:5775   */\n      tag_65\n      jump\t// in\n    tag_152:\n        /* \"#utility.yul\":5689:5775   */\n      swap1\n      pop\n        /* \"#utility.yul\":5785:5857   */\n      tag_153\n        /* \"#utility.yul\":5853:5855   */\n      0x20\n        /* \"#utility.yul\":5842:5851   */\n      dup4\n        /* \"#utility.yul\":5838:5856   */\n      add\n        /* \"#utility.yul\":5829:5835   */\n      dup7\n        /* \"#utility.yul\":5785:5857   */\n      tag_66\n      jump\t// in\n    tag_153:\n        /* \"#utility.yul\":5867:5939   */\n      tag_154\n        /* \"#utility.yul\":5935:5937   */\n      0x40\n        /* \"#utility.yul\":5924:5933   */\n      dup4\n        /* \"#utility.yul\":5920:5938   */\n      add\n        /* \"#utility.yul\":5911:5917   */\n      dup6\n        /* \"#utility.yul\":5867:5939   */\n      tag_66\n      jump\t// in\n    tag_154:\n        /* \"#utility.yul\":5949:6021   */\n      tag_155\n        /* \"#utility.yul\":6017:6019   */\n      0x60\n        /* \"#utility.yul\":6006:6015   */\n      dup4\n        /* \"#utility.yul\":6002:6020   */\n      add\n        /* \"#utility.yul\":5993:5999   */\n      dup5\n        /* \"#utility.yul\":5949:6021   */\n      tag_58\n      jump\t// in\n    tag_155:\n        /* \"#utility.yul\":5384:6028   */\n      swap6\n      swap5\n      pop\n      pop\n      pop\n      pop\n      pop\n      jump\t// out\n        /* \"#utility.yul\":6034:6256   */\n    tag_26:\n        /* \"#utility.yul\":6127:6131   */\n      0x00\n        /* \"#utility.yul\":6165:6167   */\n      0x20\n        /* \"#utility.yul\":6154:6163   */\n      dup3\n        /* \"#utility.yul\":6150:6168   */\n      add\n        /* \"#utility.yul\":6142:6168   */\n      swap1\n      pop\n        /* \"#utility.yul\":6178:6249   */\n      tag_157\n        /* \"#utility.yul\":6246:6247   */\n      0x00\n        /* \"#utility.yul\":6235:6244   */\n      dup4\n        /* \"#utility.yul\":6231:6248   */\n      add\n        /* \"#utility.yul\":6222:6228   */\n      dup5\n        /* \"#utility.yul\":6178:6249   */\n      tag_66\n      jump\t// in\n    tag_157:\n        /* \"#utility.yul\":6034:6256   */\n      swap3\n      swap2\n      pop\n      pop\n      jump\t// out\n        /* \"#utility.yul\":6262:6440   */\n    tag_67:\n        /* \"#utility.yul\":6402:6432   */\n      0x506c65617365206465706f736974206d6f7265207468616e206f6e6500000000\n        /* \"#utility.yul\":6398:6399   */\n      0x00\n        /* \"#utility.yul\":6390:6396   */\n      dup3\n        /* \"#utility.yul\":6386:6400   */\n      add\n        /* \"#utility.yul\":6379:6433   */\n      mstore\n        /* \"#utility.yul\":6262:6440   */\n      pop\n      jump\t// out\n        /* \"#utility.yul\":6446:6812   */\n    tag_68:\n        /* \"#utility.yul\":6588:6591   */\n      0x00\n        /* \"#utility.yul\":6609:6676   */\n      tag_160\n        /* \"#utility.yul\":6673:6675   */\n      0x1c\n        /* \"#utility.yul\":6668:6671   */\n      dup4\n        /* \"#utility.yul\":6609:6676   */\n      tag_63\n      jump\t// in\n    tag_160:\n        /* \"#utility.yul\":6602:6676   */\n      swap2\n      pop\n        /* \"#utility.yul\":6685:6778   */\n      tag_161\n        /* \"#utility.yul\":6774:6777   */\n      dup3\n        /* \"#utility.yul\":6685:6778   */\n      tag_67\n      jump\t// in\n    tag_161:\n        /* \"#utility.yul\":6803:6805   */\n      0x20\n        /* \"#utility.yul\":6798:6801   */\n      dup3\n        /* \"#utility.yul\":6794:6806   */\n      add\n        /* \"#utility.yul\":6787:6806   */\n      swap1\n      pop\n        /* \"#utility.yul\":6446:6812   */\n      swap2\n      swap1\n      pop\n      jump\t// out\n        /* \"#utility.yul\":6818:7237   */\n    tag_30:\n        /* \"#utility.yul\":6984:6988   */\n      0x00\n        /* \"#utility.yul\":7022:7024   */\n      0x20\n        /* \"#utility.yul\":7011:7020   */\n      dup3\n        /* \"#utility.yul\":7007:7025   */\n      add\n        /* \"#utility.yul\":6999:7025   */\n      swap1\n      pop\n        /* \"#utility.yul\":7071:7080   */\n      dup2\n        /* \"#utility.yul\":7065:7069   */\n      dup2\n        /* \"#utility.yul\":7061:7081   */\n      sub\n        /* \"#utility.yul\":7057:7058   */\n      0x00\n        /* \"#utility.yul\":7046:7055   */\n      dup4\n        /* \"#utility.yul\":7042:7059   */\n      add\n        /* \"#utility.yul\":7035:7082   */\n      mstore\n        /* \"#utility.yul\":7099:7230   */\n      tag_163\n        /* \"#utility.yul\":7225:7229   */\n      dup2\n        /* \"#utility.yul\":7099:7230   */\n      tag_68\n      jump\t// in\n    tag_163:\n        /* \"#utility.yul\":7091:7230   */\n      swap1\n      pop\n        /* \"#utility.yul\":6818:7237   */\n      swap2\n      swap1\n      pop\n      jump\t// out\n        /* \"#utility.yul\":7243:7423   */\n    tag_69:\n        /* \"#utility.yul\":7291:7368   */\n      0x4e487b7100000000000000000000000000000000000000000000000000000000\n        /* \"#utility.yul\":7288:7289   */\n      0x00\n        /* \"#utility.yul\":7281:7369   */\n      mstore\n        /* \"#utility.yul\":7388:7392   */\n      0x22\n        /* \"#utility.yul\":7385:7386   */\n      0x04\n        /* \"#utility.yul\":7378:7393   */\n      mstore\n        /* \"#utility.yul\":7412:7416   */\n      0x24\n        /* \"#utility.yul\":7409:7410   */\n      0x00\n        /* \"#utility.yul\":7402:7417   */\n      revert\n        /* \"#utility.yul\":7429:7749   */\n    tag_37:\n        /* \"#utility.yul\":7473:7479   */\n      0x00\n        /* \"#utility.yul\":7510:7511   */\n      0x02\n        /* \"#utility.yul\":7504:7508   */\n      dup3\n        /* \"#utility.yul\":7500:7512   */\n      div\n        /* \"#utility.yul\":7490:7512   */\n      swap1\n      pop\n        /* \"#utility.yul\":7557:7558   */\n      0x01\n        /* \"#utility.yul\":7551:7555   */\n      dup3\n        /* \"#utility.yul\":7547:7559   */\n      and\n        /* \"#utility.yul\":7578:7596   */\n      dup1\n        /* \"#utility.yul\":7568:7649   */\n      tag_166\n      jumpi\n        /* \"#utility.yul\":7634:7638   */\n      0x7f\n        /* \"#utility.yul\":7626:7632   */\n      dup3\n        /* \"#utility.yul\":7622:7639   */\n      and\n        /* \"#utility.yul\":7612:7639   */\n      swap2\n      pop\n        /* \"#utility.yul\":7568:7649   */\n    tag_166:\n        /* \"#utility.yul\":7696:7698   */\n      0x20\n        /* \"#utility.yul\":7688:7694   */\n      dup3\n        /* \"#utility.yul\":7685:7699   */\n      lt\n        /* \"#utility.yul\":7665:7683   */\n      dup2\n        /* \"#utility.yul\":7662:7700   */\n      sub\n        /* \"#utility.yul\":7659:7743   */\n      tag_167\n      jumpi\n        /* \"#utility.yul\":7715:7733   */\n      tag_168\n      tag_69\n      jump\t// in\n    tag_168:\n        /* \"#utility.yul\":7659:7743   */\n    tag_167:\n        /* \"#utility.yul\":7480:7749   */\n      pop\n        /* \"#utility.yul\":7429:7749   */\n      swap2\n      swap1\n      pop\n      jump\t// out\n        /* \"#utility.yul\":7755:7896   */\n    tag_70:\n        /* \"#utility.yul\":7804:7808   */\n      0x00\n        /* \"#utility.yul\":7827:7830   */\n      dup2\n        /* \"#utility.yul\":7819:7830   */\n      swap1\n      pop\n        /* \"#utility.yul\":7850:7853   */\n      dup2\n        /* \"#utility.yul\":7847:7848   */\n      0x00\n        /* \"#utility.yul\":7840:7854   */\n      mstore\n        /* \"#utility.yul\":7884:7888   */\n      0x20\n        /* \"#utility.yul\":7881:7882   */\n      0x00\n        /* \"#utility.yul\":7871:7889   */\n      keccak256\n        /* \"#utility.yul\":7863:7889   */\n      swap1\n      pop\n        /* \"#utility.yul\":7755:7896   */\n      swap2\n      swap1\n      pop\n      jump\t// out\n        /* \"#utility.yul\":7902:7995   */\n    tag_71:\n        /* \"#utility.yul\":7939:7945   */\n      0x00\n        /* \"#utility.yul\":7986:7988   */\n      0x20\n        /* \"#utility.yul\":7981:7983   */\n      0x1f\n        /* \"#utility.yul\":7974:7979   */\n      dup4\n        /* \"#utility.yul\":7970:7984   */\n      add\n        /* \"#utility.yul\":7966:7989   */\n      div\n        /* \"#utility.yul\":7956:7989   */\n      swap1\n      pop\n        /* \"#utility.yul\":7902:7995   */\n      swap2\n      swap1\n      pop\n      jump\t// out\n        /* \"#utility.yul\":8001:8108   */\n    tag_72:\n        /* \"#utility.yul\":8045:8053   */\n      0x00\n        /* \"#utility.yul\":8095:8100   */\n      dup3\n        /* \"#utility.yul\":8089:8093   */\n      dup3\n        /* \"#utility.yul\":8085:8101   */\n      shl\n        /* \"#utility.yul\":8064:8101   */\n      swap1\n      pop\n        /* \"#utility.yul\":8001:8108   */\n      swap3\n      swap2\n      pop\n      pop\n      jump\t// out\n        /* \"#utility.yul\":8114:8507   */\n    tag_73:\n        /* \"#utility.yul\":8183:8189   */\n      0x00\n        /* \"#utility.yul\":8233:8234   */\n      0x08\n        /* \"#utility.yul\":8221:8231   */\n      dup4\n        /* \"#utility.yul\":8217:8235   */\n      mul\n        /* \"#utility.yul\":8256:8353   */\n      tag_173\n        /* \"#utility.yul\":8286:8352   */\n      0xffffffffffffffffffffffffffffffffffffffffffffffffffffffffffffffff\n        /* \"#utility.yul\":8275:8284   */\n      dup3\n        /* \"#utility.yul\":8256:8353   */\n      tag_72\n      jump\t// in\n    tag_173:\n        /* \"#utility.yul\":8374:8413   */\n      tag_174\n        /* \"#utility.yul\":8404:8412   */\n      dup7\n        /* \"#utility.yul\":8393:8402   */\n      dup4\n        /* \"#utility.yul\":8374:8413   */\n      tag_72\n      jump\t// in\n    tag_174:\n        /* \"#utility.yul\":8362:8413   */\n      swap6\n      pop\n        /* \"#utility.yul\":8446:8450   */\n      dup1\n        /* \"#utility.yul\":8442:8451   */\n      not\n        /* \"#utility.yul\":8435:8440   */\n      dup5\n        /* \"#utility.yul\":8431:8452   */\n      and\n        /* \"#utility.yul\":8422:8452   */\n      swap4\n      pop\n        /* \"#utility.yul\":8495:8499   */\n      dup1\n        /* \"#utility.yul\":8485:8493   */\n      dup7\n        /* \"#utility.yul\":8481:8500   */\n      and\n        /* \"#utility.yul\":8474:8479   */\n      dup5\n        /* \"#utility.yul\":8471:8501   */\n      or\n        /* \"#utility.yul\":8461:8501   */\n      swap3\n      pop\n        /* \"#utility.yul\":8190:8507   */\n      pop\n      pop\n        /* \"#utility.yul\":8114:8507   */\n      swap4\n      swap3\n      pop\n      pop\n      pop\n      jump\t// out\n        /* \"#utility.yul\":8513:8573   */\n    tag_74:\n        /* \"#utility.yul\":8541:8544   */\n      0x00\n        /* \"#utility.yul\":8562:8567   */\n      dup2\n        /* \"#utility.yul\":8555:8567   */\n      swap1\n      pop\n        /* \"#utility.yul\":8513:8573   */\n      swap2\n      swap1\n      pop\n      jump\t// out\n        /* \"#utility.yul\":8579:8721   */\n    tag_75:\n        /* \"#utility.yul\":8629:8638   */\n      0x00\n        /* \"#utility.yul\":8662:8715   */\n      tag_177\n        /* \"#utility.yul\":8680:8714   */\n      tag_178\n        /* \"#utility.yul\":8689:8713   */\n      tag_179\n        /* \"#utility.yul\":8707:8712   */\n      dup5\n        /* \"#utility.yul\":8689:8713   */\n      tag_59\n      jump\t// in\n    tag_179:\n        /* \"#utility.yul\":8680:8714   */\n      tag_74\n      jump\t// in\n    tag_178:\n        /* \"#utility.yul\":8662:8715   */\n      tag_59\n      jump\t// in\n    tag_177:\n        /* \"#utility.yul\":8649:8715   */\n      swap1\n      pop\n        /* \"#utility.yul\":8579:8721   */\n      swap2\n      swap1\n      pop\n      jump\t// out\n        /* \"#utility.yul\":8727:8802   */\n    tag_76:\n        /* \"#utility.yul\":8770:8773   */\n      0x00\n        /* \"#utility.yul\":8791:8796   */\n      dup2\n        /* \"#utility.yul\":8784:8796   */\n      swap1\n      pop\n        /* \"#utility.yul\":8727:8802   */\n      swap2\n      swap1\n      pop\n      jump\t// out\n        /* \"#utility.yul\":8808:9077   */\n    tag_77:\n        /* \"#utility.yul\":8918:8957   */\n      tag_182\n        /* \"#utility.yul\":8949:8956   */\n      dup4\n        /* \"#utility.yul\":8918:8957   */\n      tag_75\n      jump\t// in\n    tag_182:\n        /* \"#utility.yul\":8979:9070   */\n      tag_183\n        /* \"#utility.yul\":9028:9069   */\n      tag_184\n        /* \"#utility.yul\":9052:9068   */\n      dup3\n        /* \"#utility.yul\":9028:9069   */\n      tag_76\n      jump\t// in\n    tag_184:\n        /* \"#utility.yul\":9020:9026   */\n      dup5\n        /* \"#utility.yul\":9013:9017   */\n      dup5\n        /* \"#utility.yul\":9007:9018   */\n      sload\n        /* \"#utility.yul\":8979:9070   */\n      tag_73\n      jump\t// in\n    tag_183:\n        /* \"#utility.yul\":8973:8977   */\n      dup3\n        /* \"#utility.yul\":8966:9071   */\n      sstore\n        /* \"#utility.yul\":8884:9077   */\n      pop\n        /* \"#utility.yul\":8808:9077   */\n      pop\n      pop\n      pop\n      jump\t// out\n        /* \"#utility.yul\":9083:9156   */\n    tag_78:\n        /* \"#utility.yul\":9128:9131   */\n      0x00\n        /* \"#utility.yul\":9083:9156   */\n      swap1\n      jump\t// out\n        /* \"#utility.yul\":9162:9351   */\n    tag_79:\n        /* \"#utility.yul\":9239:9271   */\n      tag_187\n      tag_78\n      jump\t// in\n    tag_187:\n        /* \"#utility.yul\":9280:9345   */\n      tag_188\n        /* \"#utility.yul\":9338:9344   */\n      dup2\n        /* \"#utility.yul\":9330:9336   */\n      dup5\n        /* \"#utility.yul\":9324:9328   */\n      dup5\n        /* \"#utility.yul\":9280:9345   */\n      tag_77\n      jump\t// in\n    tag_188:\n        /* \"#utility.yul\":9215:9351   */\n      pop\n        /* \"#utility.yul\":9162:9351   */\n      pop\n      pop\n      jump\t// out\n        /* \"#utility.yul\":9357:9543   */\n    tag_80:\n        /* \"#utility.yul\":9417:9537   */\n    tag_190:\n        /* \"#utility.yul\":9434:9437   */\n      dup2\n        /* \"#utility.yul\":9427:9432   */\n      dup2\n        /* \"#utility.yul\":9424:9438   */\n      lt\n        /* \"#utility.yul\":9417:9537   */\n      iszero\n      tag_192\n      jumpi\n        /* \"#utility.yul\":9488:9527   */\n      tag_193\n        /* \"#utility.yul\":9525:9526   */\n      0x00\n        /* \"#utility.yul\":9518:9523   */\n      dup3\n        /* \"#utility.yul\":9488:9527   */\n      tag_79\n      jump\t// in\n    tag_193:\n        /* \"#utility.yul\":9461:9462   */\n      0x01\n        /* \"#utility.yul\":9454:9459   */\n      dup2\n        /* \"#utility.yul\":9450:9463   */\n      add\n        /* \"#utility.yul\":9441:9463   */\n      swap1\n      pop\n        /* \"#utility.yul\":9417:9537   */\n      jump(tag_190)\n    tag_192:\n        /* \"#utility.yul\":9357:9543   */\n      pop\n      pop\n      jump\t// out\n        /* \"#utility.yul\":9549:10092   */\n    tag_81:\n        /* \"#utility.yul\":9650:9652   */\n      0x1f\n        /* \"#utility.yul\":9645:9648   */\n      dup3\n        /* \"#utility.yul\":9642:9653   */\n      gt\n        /* \"#utility.yul\":9639:10085   */\n      iszero\n      tag_195\n      jumpi\n        /* \"#utility.yul\":9684:9722   */\n      tag_196\n        /* \"#utility.yul\":9716:9721   */\n      dup2\n        /* \"#utility.yul\":9684:9722   */\n      tag_70\n      jump\t// in\n    tag_196:\n        /* \"#utility.yul\":9768:9797   */\n      tag_197\n        /* \"#utility.yul\":9786:9796   */\n      dup5\n        /* \"#utility.yul\":9768:9797   */\n      tag_71\n      jump\t// in\n    tag_197:\n        /* \"#utility.yul\":9758:9766   */\n      dup2\n        /* \"#utility.yul\":9754:9798   */\n      add\n        /* \"#utility.yul\":9951:9953   */\n      0x20\n        /* \"#utility.yul\":9939:9949   */\n      dup6\n        /* \"#utility.yul\":9936:9954   */\n      lt\n        /* \"#utility.yul\":9933:9982   */\n      iszero\n      tag_198\n      jumpi\n        /* \"#utility.yul\":9972:9980   */\n      dup2\n        /* \"#utility.yul\":9957:9980   */\n      swap1\n      pop\n        /* \"#utility.yul\":9933:9982   */\n    tag_198:\n        /* \"#utility.yul\":9995:10075   */\n      tag_199\n        /* \"#utility.yul\":10051:10073   */\n      tag_200\n        /* \"#utility.yul\":10069:10072   */\n      dup6\n        /* \"#utility.yul\":10051:10073   */\n      tag_71\n      jump\t// in\n    tag_200:\n        /* \"#utility.yul\":10041:10049   */\n      dup4\n        /* \"#utility.yul\":10037:10074   */\n      add\n        /* \"#utility.yul\":10024:10035   */\n      dup3\n        /* \"#utility.yul\":9995:10075   */\n      tag_80\n      jump\t// in\n    tag_199:\n        /* \"#utility.yul\":9654:10085   */\n      pop\n      pop\n        /* \"#utility.yul\":9639:10085   */\n    tag_195:\n        /* \"#utility.yul\":9549:10092   */\n      pop\n      pop\n      pop\n      jump\t// out\n        /* \"#utility.yul\":10098:10215   */\n    tag_82:\n        /* \"#utility.yul\":10152:10160   */\n      0x00\n        /* \"#utility.yul\":10202:10207   */\n      dup3\n        /* \"#utility.yul\":10196:10200   */\n      dup3\n        /* \"#utility.yul\":10192:10208   */\n      shr\n        /* \"#utility.yul\":10171:10208   */\n      swap1\n      pop\n        /* \"#utility.yul\":10098:10215   */\n      swap3\n      swap2\n      pop\n      pop\n      jump\t// out\n        /* \"#utility.yul\":10221:10390   */\n    tag_83:\n        /* \"#utility.yul\":10265:10271   */\n      0x00\n        /* \"#utility.yul\":10298:10349   */\n      tag_203\n        /* \"#utility.yul\":10346:10347   */\n      0x00\n        /* \"#utility.yul\":10342:10348   */\n      not\n        /* \"#utility.yul\":10334:10339   */\n      dup5\n        /* \"#utility.yul\":10331:10332   */\n      0x08\n        /* \"#utility.yul\":10327:10340   */\n      mul\n        /* \"#utility.yul\":10298:10349   */\n      tag_82\n      jump\t// in\n    tag_203:\n        /* \"#utility.yul\":10294:10350   */\n      not\n        /* \"#utility.yul\":10379:10383   */\n      dup1\n        /* \"#utility.yul\":10373:10377   */\n      dup4\n        /* \"#utility.yul\":10369:10384   */\n      and\n        /* \"#utility.yul\":10359:10384   */\n      swap2\n      pop\n        /* \"#utility.yul\":10272:10390   */\n      pop\n        /* \"#utility.yul\":10221:10390   */\n      swap3\n      swap2\n      pop\n      pop\n      jump\t// out\n        /* \"#utility.yul\":10395:10690   */\n    tag_84:\n        /* \"#utility.yul\":10471:10475   */\n      0x00\n        /* \"#utility.yul\":10617:10646   */\n      tag_205\n        /* \"#utility.yul\":10642:10645   */\n      dup4\n        /* \"#utility.yul\":10636:10640   */\n      dup4\n        /* \"#utility.yul\":10617:10646   */\n      tag_83\n      jump\t// in\n    tag_205:\n        /* \"#utility.yul\":10609:10646   */\n      swap2\n      pop\n        /* \"#utility.yul\":10679:10682   */\n      dup3\n        /* \"#utility.yul\":10676:10677   */\n      0x02\n        /* \"#utility.yul\":10672:10683   */\n      mul\n        /* \"#utility.yul\":10666:10670   */\n      dup3\n        /* \"#utility.yul\":10663:10684   */\n      or\n        /* \"#utility.yul\":10655:10684   */\n      swap1\n      pop\n        /* \"#utility.yul\":10395:10690   */\n      swap3\n      swap2\n      pop\n      pop\n      jump\t// out\n        /* \"#utility.yul\":10695:12090   */\n    tag_33:\n        /* \"#utility.yul\":10812:10849   */\n      tag_207\n        /* \"#utility.yul\":10845:10848   */\n      dup3\n        /* \"#utility.yul\":10812:10849   */\n      tag_62\n      jump\t// in\n    tag_207:\n        /* \"#utility.yul\":10914:10932   */\n      0xffffffffffffffff\n        /* \"#utility.yul\":10906:10912   */\n      dup2\n        /* \"#utility.yul\":10903:10933   */\n      gt\n        /* \"#utility.yul\":10900:10956   */\n      iszero\n      tag_208\n      jumpi\n        /* \"#utility.yul\":10936:10954   */\n      tag_209\n      tag_49\n      jump\t// in\n    tag_209:\n        /* \"#utility.yul\":10900:10956   */\n    tag_208:\n        /* \"#utility.yul\":10980:11018   */\n      tag_210\n        /* \"#utility.yul\":11012:11016   */\n      dup3\n        /* \"#utility.yul\":11006:11017   */\n      sload\n        /* \"#utility.yul\":10980:11018   */\n      tag_37\n      jump\t// in\n    tag_210:\n        /* \"#utility.yul\":11065:11132   */\n      tag_211\n        /* \"#utility.yul\":11125:11131   */\n      dup3\n        /* \"#utility.yul\":11117:11123   */\n      dup3\n        /* \"#utility.yul\":11111:11115   */\n      dup6\n        /* \"#utility.yul\":11065:11132   */\n      tag_81\n      jump\t// in\n    tag_211:\n        /* \"#utility.yul\":11159:11160   */\n      0x00\n        /* \"#utility.yul\":11183:11187   */\n      0x20\n        /* \"#utility.yul\":11170:11187   */\n      swap1\n      pop\n        /* \"#utility.yul\":11215:11217   */\n      0x1f\n        /* \"#utility.yul\":11207:11213   */\n      dup4\n        /* \"#utility.yul\":11204:11218   */\n      gt\n        /* \"#utility.yul\":11232:11233   */\n      0x01\n        /* \"#utility.yul\":11227:11845   */\n      dup2\n      eq\n      tag_213\n      jumpi\n        /* \"#utility.yul\":11889:11890   */\n      0x00\n        /* \"#utility.yul\":11906:11912   */\n      dup5\n        /* \"#utility.yul\":11903:11980   */\n      iszero\n      tag_214\n      jumpi\n        /* \"#utility.yul\":11955:11964   */\n      dup3\n        /* \"#utility.yul\":11950:11953   */\n      dup8\n        /* \"#utility.yul\":11946:11965   */\n      add\n        /* \"#utility.yul\":11940:11966   */\n      mload\n        /* \"#utility.yul\":11931:11966   */\n      swap1\n      pop\n        /* \"#utility.yul\":11903:11980   */\n    tag_214:\n        /* \"#utility.yul\":12006:12073   */\n      tag_215\n        /* \"#utility.yul\":12066:12072   */\n      dup6\n        /* \"#utility.yul\":12059:12064   */\n      dup3\n        /* \"#utility.yul\":12006:12073   */\n      tag_84\n      jump\t// in\n    tag_215:\n        /* \"#utility.yul\":12000:12004   */\n      dup7\n        /* \"#utility.yul\":11993:12074   */\n      sstore\n        /* \"#utility.yul\":11862:12084   */\n      pop\n        /* \"#utility.yul\":11197:12084   */\n      jump(tag_212)\n        /* \"#utility.yul\":11227:11845   */\n    tag_213:\n        /* \"#utility.yul\":11279:11283   */\n      0x1f\n        /* \"#utility.yul\":11275:11284   */\n      not\n        /* \"#utility.yul\":11267:11273   */\n      dup5\n        /* \"#utility.yul\":11263:11285   */\n      and\n        /* \"#utility.yul\":11313:11350   */\n      tag_216\n        /* \"#utility.yul\":11345:11349   */\n      dup7\n        /* \"#utility.yul\":11313:11350   */\n      tag_70\n      jump\t// in\n    tag_216:\n        /* \"#utility.yul\":11372:11373   */\n      0x00\n        /* \"#utility.yul\":11386:11594   */\n    tag_217:\n        /* \"#utility.yul\":11400:11407   */\n      dup3\n        /* \"#utility.yul\":11397:11398   */\n      dup2\n        /* \"#utility.yul\":11394:11408   */\n      lt\n        /* \"#utility.yul\":11386:11594   */\n      iszero\n      tag_219\n      jumpi\n        /* \"#utility.yul\":11479:11488   */\n      dup5\n        /* \"#utility.yul\":11474:11477   */\n      dup10\n        /* \"#utility.yul\":11470:11489   */\n      add\n        /* \"#utility.yul\":11464:11490   */\n      mload\n        /* \"#utility.yul\":11456:11462   */\n      dup3\n        /* \"#utility.yul\":11449:11491   */\n      sstore\n        /* \"#utility.yul\":11530:11531   */\n      0x01\n        /* \"#utility.yul\":11522:11528   */\n      dup3\n        /* \"#utility.yul\":11518:11532   */\n      add\n        /* \"#utility.yul\":11508:11532   */\n      swap2\n      pop\n        /* \"#utility.yul\":11577:11579   */\n      0x20\n        /* \"#utility.yul\":11566:11575   */\n      dup6\n        /* \"#utility.yul\":11562:11580   */\n      add\n        /* \"#utility.yul\":11549:11580   */\n      swap5\n      pop\n        /* \"#utility.yul\":11423:11427   */\n      0x20\n        /* \"#utility.yul\":11420:11421   */\n      dup2\n        /* \"#utility.yul\":11416:11428   */\n      add\n        /* \"#utility.yul\":11411:11428   */\n      swap1\n      pop\n        /* \"#utility.yul\":11386:11594   */\n      jump(tag_217)\n    tag_219:\n        /* \"#utility.yul\":11622:11628   */\n      dup7\n        /* \"#utility.yul\":11613:11620   */\n      dup4\n        /* \"#utility.yul\":11610:11629   */\n      lt\n        /* \"#utility.yul\":11607:11786   */\n      iszero\n      tag_220\n      jumpi\n        /* \"#utility.yul\":11680:11689   */\n      dup5\n        /* \"#utility.yul\":11675:11678   */\n      dup10\n        /* \"#utility.yul\":11671:11690   */\n      add\n        /* \"#utility.yul\":11665:11691   */\n      mload\n        /* \"#utility.yul\":11723:11771   */\n      tag_221\n        /* \"#utility.yul\":11765:11769   */\n      0x1f\n        /* \"#utility.yul\":11757:11763   */\n      dup10\n        /* \"#utility.yul\":11753:11770   */\n      and\n        /* \"#utility.yul\":11742:11751   */\n      dup3\n        /* \"#utility.yul\":11723:11771   */\n      tag_83\n      jump\t// in\n    tag_221:\n        /* \"#utility.yul\":11715:11721   */\n      dup4\n        /* \"#utility.yul\":11708:11772   */\n      sstore\n        /* \"#utility.yul\":11630:11786   */\n      pop\n        /* \"#utility.yul\":11607:11786   */\n    tag_220:\n        /* \"#utility.yul\":11832:11833   */\n      0x01\n        /* \"#utility.yul\":11828:11829   */\n      0x02\n        /* \"#utility.yul\":11820:11826   */\n      dup9\n        /* \"#utility.yul\":11816:11830   */\n      mul\n        /* \"#utility.yul\":11812:11834   */\n      add\n        /* \"#utility.yul\":11806:11810   */\n      dup9\n        /* \"#utility.yul\":11799:11835   */\n      sstore\n        /* \"#utility.yul\":11234:11845   */\n      pop\n      pop\n      pop\n        /* \"#utility.yul\":11197:12084   */\n    tag_212:\n      pop\n        /* \"#utility.yul\":10787:12090   */\n      pop\n      pop\n      pop\n        /* \"#utility.yul\":10695:12090   */\n      pop\n      pop\n      jump\t// out\n\n    auxdata: 0xa264697066735822122007b57aa17f67ac05bd9485eb93989b1c42683d49440821adbf761c1313e042a664736f6c63430008120033\n}\n",
				"bytecode": {
					"linkReferences": {},
					"object": "608060405234801561001057600080fd5b5033600160006101000a81548173ffffffffffffffffffffffffffffffffffffffff021916908373ffffffffffffffffffffffffffffffffffffffff160217905550610a04806100616000396000f3fe60806040526004361061003f5760003560e01c806389ee8cc6146100445780638da5cb5b14610060578063cf35bdd01461008b578063e48aabd5146100cb575b600080fd5b61005e60048036038101906100599190610487565b6100f6565b005b34801561006c57600080fd5b50610075610217565b6040516100829190610511565b60405180910390f35b34801561009757600080fd5b506100b260048036038101906100ad9190610562565b61023d565b6040516100c2949392919061061d565b60405180910390f35b3480156100d757600080fd5b506100e0610325565b6040516100ed9190610669565b60405180910390f35b662386f26fc10000341161013f576040517f08c379a0000000000000000000000000000000000000000000000000000000008152600401610136906106d0565b60405180910390fd5b600060405180608001604052808381526020013481526020014281526020013373ffffffffffffffffffffffffffffffffffffffff16815250908060018154018082558091505060019003906000526020600020906004020160009091909190915060008201518160000190816101b691906108fc565b50602082015181600101556040820151816002015560608201518160030160006101000a81548173ffffffffffffffffffffffffffffffffffffffff021916908373ffffffffffffffffffffffffffffffffffffffff160217905550505050565b600160009054906101000a900473ffffffffffffffffffffffffffffffffffffffff1681565b6000818154811061024d57600080fd5b90600052602060002090600402016000915090508060000180546102709061071f565b80601f016020809104026020016040519081016040528092919081815260200182805461029c9061071f565b80156102e95780601f106102be576101008083540402835291602001916102e9565b820191906000526020600020905b8154815290600101906020018083116102cc57829003601f168201915b5050505050908060010154908060020154908060030160009054906101000a900473ffffffffffffffffffffffffffffffffffffffff16905084565b600047905090565b6000604051905090565b600080fd5b600080fd5b600080fd5b600080fd5b6000601f19601f8301169050919050565b7f4e487b7100000000000000000000000000000000000000000000000000000000600052604160045260246000fd5b6103948261034b565b810181811067ffffffffffffffff821117156103b3576103b261035c565b5b80604052505050565b60006103c661032d565b90506103d2828261038b565b919050565b600067ffffffffffffffff8211156103f2576103f161035c565b5b6103fb8261034b565b9050602081019050919050565b82818337600083830152505050565b600061042a610425846103d7565b6103bc565b90508281526020810184848401111561044657610445610346565b5b610451848285610408565b509392505050565b600082601f83011261046e5761046d610341565b5b813561047e848260208601610417565b91505092915050565b60006020828403121561049d5761049c610337565b5b600082013567ffffffffffffffff8111156104bb576104ba61033c565b5b6104c784828501610459565b91505092915050565b600073ffffffffffffffffffffffffffffffffffffffff82169050919050565b60006104fb826104d0565b9050919050565b61050b816104f0565b82525050565b60006020820190506105266000830184610502565b92915050565b6000819050919050565b61053f8161052c565b811461054a57600080fd5b50565b60008135905061055c81610536565b92915050565b60006020828403121561057857610577610337565b5b60006105868482850161054d565b91505092915050565b600081519050919050565b600082825260208201905092915050565b60005b838110156105c95780820151818401526020810190506105ae565b60008484015250505050565b60006105e08261058f565b6105ea818561059a565b93506105fa8185602086016105ab565b6106038161034b565b840191505092915050565b6106178161052c565b82525050565b6000608082019050818103600083015261063781876105d5565b9050610646602083018661060e565b610653604083018561060e565b6106606060830184610502565b95945050505050565b600060208201905061067e600083018461060e565b92915050565b7f506c65617365206465706f736974206d6f7265207468616e206f6e6500000000600082015250565b60006106ba601c8361059a565b91506106c582610684565b602082019050919050565b600060208201905081810360008301526106e9816106ad565b9050919050565b7f4e487b7100000000000000000000000000000000000000000000000000000000600052602260045260246000fd5b6000600282049050600182168061073757607f821691505b60208210810361074a576107496106f0565b5b50919050565b60008190508160005260206000209050919050565b60006020601f8301049050919050565b600082821b905092915050565b6000600883026107b27fffffffffffffffffffffffffffffffffffffffffffffffffffffffffffffffff82610775565b6107bc8683610775565b95508019841693508086168417925050509392505050565b6000819050919050565b60006107f96107f46107ef8461052c565b6107d4565b61052c565b9050919050565b6000819050919050565b610813836107de565b61082761081f82610800565b848454610782565b825550505050565b600090565b61083c61082f565b61084781848461080a565b505050565b5b8181101561086b57610860600082610834565b60018101905061084d565b5050565b601f8211156108b05761088181610750565b61088a84610765565b81016020851015610899578190505b6108ad6108a585610765565b83018261084c565b50505b505050565b600082821c905092915050565b60006108d3600019846008026108b5565b1980831691505092915050565b60006108ec83836108c2565b9150826002028217905092915050565b6109058261058f565b67ffffffffffffffff81111561091e5761091d61035c565b5b610928825461071f565b61093382828561086f565b600060209050601f8311600181146109665760008415610954578287015190505b61095e85826108e0565b8655506109c6565b601f19841661097486610750565b60005b8281101561099c57848901518255600182019150602085019450602081019050610977565b868310156109b957848901516109b5601f8916826108c2565b8355505b6001600288020188555050505b50505050505056fea264697066735822122007b57aa17f67ac05bd9485eb93989b1c42683d49440821adbf761c1313e042a664736f6c63430008120033",
					"opcodes": "PUSH1 0x80 PUSH1 0x40 MSTORE CALLVALUE DUP1 ISZERO PUSH2 0x10 JUMPI PUSH1 0x0 DUP1 REVERT JUMPDEST POP CALLER PUSH1 0x1 PUSH1 0x0 PUSH2 0x100 EXP DUP2 SLOAD DUP2 PUSH20 0xFFFFFFFFFFFFFFFFFFFFFFFFFFFFFFFFFFFFFFFF MUL NOT AND SWAP1 DUP4 PUSH20 0xFFFFFFFFFFFFFFFFFFFFFFFFFFFFFFFFFFFFFFFF AND MUL OR SWAP1 SSTORE POP PUSH2 0xA04 DUP1 PUSH2 0x61 PUSH1 0x0 CODECOPY PUSH1 0x0 RETURN INVALID PUSH1 0x80 PUSH1 0x40 MSTORE PUSH1 0x4 CALLDATASIZE LT PUSH2 0x3F JUMPI PUSH1 0x0 CALLDATALOAD PUSH1 0xE0 SHR DUP1 PUSH4 0x89EE8CC6 EQ PUSH2 0x44 JUMPI DUP1 PUSH4 0x8DA5CB5B EQ PUSH2 0x60 JUMPI DUP1 PUSH4 0xCF35BDD0 EQ PUSH2 0x8B JUMPI DUP1 PUSH4 0xE48AABD5 EQ PUSH2 0xCB JUMPI JUMPDEST PUSH1 0x0 DUP1 REVERT JUMPDEST PUSH2 0x5E PUSH1 0x4 DUP1 CALLDATASIZE SUB DUP2 ADD SWAP1 PUSH2 0x59 SWAP2 SWAP1 PUSH2 0x487 JUMP JUMPDEST PUSH2 0xF6 JUMP JUMPDEST STOP JUMPDEST CALLVALUE DUP1 ISZERO PUSH2 0x6C JUMPI PUSH1 0x0 DUP1 REVERT JUMPDEST POP PUSH2 0x75 PUSH2 0x217 JUMP JUMPDEST PUSH1 0x40 MLOAD PUSH2 0x82 SWAP2 SWAP1 PUSH2 0x511 JUMP JUMPDEST PUSH1 0x40 MLOAD DUP1 SWAP2 SUB SWAP1 RETURN JUMPDEST CALLVALUE DUP1 ISZERO PUSH2 0x97 JUMPI PUSH1 0x0 DUP1 REVERT JUMPDEST POP PUSH2 0xB2 PUSH1 0x4 DUP1 CALLDATASIZE SUB DUP2 ADD SWAP1 PUSH2 0xAD SWAP2 SWAP1 PUSH2 0x562 JUMP JUMPDEST PUSH2 0x23D JUMP JUMPDEST PUSH1 0x40 MLOAD PUSH2 0xC2 SWAP5 SWAP4 SWAP3 SWAP2 SWAP1 PUSH2 0x61D JUMP JUMPDEST PUSH1 0x40 MLOAD DUP1 SWAP2 SUB SWAP1 RETURN JUMPDEST CALLVALUE DUP1 ISZERO PUSH2 0xD7 JUMPI PUSH1 0x0 DUP1 REVERT JUMPDEST POP PUSH2 0xE0 PUSH2 0x325 JUMP JUMPDEST PUSH1 0x40 MLOAD PUSH2 0xED SWAP2 SWAP1 PUSH2 0x669 JUMP JUMPDEST PUSH1 0x40 MLOAD DUP1 SWAP2 SUB SWAP1 RETURN JUMPDEST PUSH7 0x2386F26FC10000 CALLVALUE GT PUSH2 0x13F JUMPI PUSH1 0x40 MLOAD PUSH32 0x8C379A000000000000000000000000000000000000000000000000000000000 DUP2 MSTORE PUSH1 0x4 ADD PUSH2 0x136 SWAP1 PUSH2 0x6D0 JUMP JUMPDEST PUSH1 0x40 MLOAD DUP1 SWAP2 SUB SWAP1 REVERT JUMPDEST PUSH1 0x0 PUSH1 0x40 MLOAD DUP1 PUSH1 0x80 ADD PUSH1 0x40 MSTORE DUP1 DUP4 DUP2 MSTORE PUSH1 0x20 ADD CALLVALUE DUP2 MSTORE PUSH1 0x20 ADD TIMESTAMP DUP2 MSTORE PUSH1 0x20 ADD CALLER PUSH20 0xFFFFFFFFFFFFFFFFFFFFFFFFFFFFFFFFFFFFFFFF AND DUP2 MSTORE POP SWAP1 DUP1 PUSH1 0x1 DUP2 SLOAD ADD DUP1 DUP3 SSTORE DUP1 SWAP2 POP POP PUSH1 0x1 SWAP1 SUB SWAP1 PUSH1 0x0 MSTORE PUSH1 0x20 PUSH1 0x0 KECCAK256 SWAP1 PUSH1 0x4 MUL ADD PUSH1 0x0 SWAP1 SWAP2 SWAP1 SWAP2 SWAP1 SWAP2 POP PUSH1 0x0 DUP3 ADD MLOAD DUP2 PUSH1 0x0 ADD SWAP1 DUP2 PUSH2 0x1B6 SWAP2 SWAP1 PUSH2 0x8FC JUMP JUMPDEST POP PUSH1 0x20 DUP3 ADD MLOAD DUP2 PUSH1 0x1 ADD SSTORE PUSH1 0x40 DUP3 ADD MLOAD DUP2 PUSH1 0x2 ADD SSTORE PUSH1 0x60 DUP3 ADD MLOAD DUP2 PUSH1 0x3 ADD PUSH1 0x0 PUSH2 0x100 EXP DUP2 SLOAD DUP2 PUSH20 0xFFFFFFFFFFFFFFFFFFFFFFFFFFFFFFFFFFFFFFFF MUL NOT AND SWAP1 DUP4 PUSH20 0xFFFFFFFFFFFFFFFFFFFFFFFFFFFFFFFFFFFFFFFF AND MUL OR SWAP1 SSTORE POP POP POP POP JUMP JUMPDEST PUSH1 0x1 PUSH1 0x0 SWAP1 SLOAD SWAP1 PUSH2 0x100 EXP SWAP1 DIV PUSH20 0xFFFFFFFFFFFFFFFFFFFFFFFFFFFFFFFFFFFFFFFF AND DUP2 JUMP JUMPDEST PUSH1 0x0 DUP2 DUP2 SLOAD DUP2 LT PUSH2 0x24D JUMPI PUSH1 0x0 DUP1 REVERT JUMPDEST SWAP1 PUSH1 0x0 MSTORE PUSH1 0x20 PUSH1 0x0 KECCAK256 SWAP1 PUSH1 0x4 MUL ADD PUSH1 0x0 SWAP2 POP SWAP1 POP DUP1 PUSH1 0x0 ADD DUP1 SLOAD PUSH2 0x270 SWAP1 PUSH2 0x71F JUMP JUMPDEST DUP1 PUSH1 0x1F ADD PUSH1 0x20 DUP1 SWAP2 DIV MUL PUSH1 0x20 ADD PUSH1 0x40 MLOAD SWAP1 DUP2 ADD PUSH1 0x40 MSTORE DUP1 SWAP3 SWAP2 SWAP1 DUP2 DUP2 MSTORE PUSH1 0x20 ADD DUP3 DUP1 SLOAD PUSH2 0x29C SWAP1 PUSH2 0x71F JUMP JUMPDEST DUP1 ISZERO PUSH2 0x2E9 JUMPI DUP1 PUSH1 0x1F LT PUSH2 0x2BE JUMPI PUSH2 0x100 DUP1 DUP4 SLOAD DIV MUL DUP4 MSTORE SWAP2 PUSH1 0x20 ADD SWAP2 PUSH2 0x2E9 JUMP JUMPDEST DUP3 ADD SWAP2 SWAP1 PUSH1 0x0 MSTORE PUSH1 0x20 PUSH1 0x0 KECCAK256 SWAP1 JUMPDEST DUP2 SLOAD DUP2 MSTORE SWAP1 PUSH1 0x1 ADD SWAP1 PUSH1 0x20 ADD DUP1 DUP4 GT PUSH2 0x2CC JUMPI DUP3 SWAP1 SUB PUSH1 0x1F AND DUP3 ADD SWAP2 JUMPDEST POP POP POP POP POP SWAP1 DUP1 PUSH1 0x1 ADD SLOAD SWAP1 DUP1 PUSH1 0x2 ADD SLOAD SWAP1 DUP1 PUSH1 0x3 ADD PUSH1 0x0 SWAP1 SLOAD SWAP1 PUSH2 0x100 EXP SWAP1 DIV PUSH20 0xFFFFFFFFFFFFFFFFFFFFFFFFFFFFFFFFFFFFFFFF AND SWAP1 POP DUP5 JUMP JUMPDEST PUSH1 0x0 SELFBALANCE SWAP1 POP SWAP1 JUMP JUMPDEST PUSH1 0x0 PUSH1 0x40 MLOAD SWAP1 POP SWAP1 JUMP JUMPDEST PUSH1 0x0 DUP1 REVERT JUMPDEST PUSH1 0x0 DUP1 REVERT JUMPDEST PUSH1 0x0 DUP1 REVERT JUMPDEST PUSH1 0x0 DUP1 REVERT JUMPDEST PUSH1 0x0 PUSH1 0x1F NOT PUSH1 0x1F DUP4 ADD AND SWAP1 POP SWAP2 SWAP1 POP JUMP JUMPDEST PUSH32 0x4E487B7100000000000000000000000000000000000000000000000000000000 PUSH1 0x0 MSTORE PUSH1 0x41 PUSH1 0x4 MSTORE PUSH1 0x24 PUSH1 0x0 REVERT JUMPDEST PUSH2 0x394 DUP3 PUSH2 0x34B JUMP JUMPDEST DUP2 ADD DUP2 DUP2 LT PUSH8 0xFFFFFFFFFFFFFFFF DUP3 GT OR ISZERO PUSH2 0x3B3 JUMPI PUSH2 0x3B2 PUSH2 0x35C JUMP JUMPDEST JUMPDEST DUP1 PUSH1 0x40 MSTORE POP POP POP JUMP JUMPDEST PUSH1 0x0 PUSH2 0x3C6 PUSH2 0x32D JUMP JUMPDEST SWAP1 POP PUSH2 0x3D2 DUP3 DUP3 PUSH2 0x38B JUMP JUMPDEST SWAP2 SWAP1 POP JUMP JUMPDEST PUSH1 0x0 PUSH8 0xFFFFFFFFFFFFFFFF DUP3 GT ISZERO PUSH2 0x3F2 JUMPI PUSH2 0x3F1 PUSH2 0x35C JUMP JUMPDEST JUMPDEST PUSH2 0x3FB DUP3 PUSH2 0x34B JUMP JUMPDEST SWAP1 POP PUSH1 0x20 DUP2 ADD SWAP1 POP SWAP2 SWAP1 POP JUMP JUMPDEST DUP3 DUP2 DUP4 CALLDATACOPY PUSH1 0x0 DUP4 DUP4 ADD MSTORE POP POP POP JUMP JUMPDEST PUSH1 0x0 PUSH2 0x42A PUSH2 0x425 DUP5 PUSH2 0x3D7 JUMP JUMPDEST PUSH2 0x3BC JUMP JUMPDEST SWAP1 POP DUP3 DUP2 MSTORE PUSH1 0x20 DUP2 ADD DUP5 DUP5 DUP5 ADD GT ISZERO PUSH2 0x446 JUMPI PUSH2 0x445 PUSH2 0x346 JUMP JUMPDEST JUMPDEST PUSH2 0x451 DUP5 DUP3 DUP6 PUSH2 0x408 JUMP JUMPDEST POP SWAP4 SWAP3 POP POP POP JUMP JUMPDEST PUSH1 0x0 DUP3 PUSH1 0x1F DUP4 ADD SLT PUSH2 0x46E JUMPI PUSH2 0x46D PUSH2 0x341 JUMP JUMPDEST JUMPDEST DUP2 CALLDATALOAD PUSH2 0x47E DUP5 DUP3 PUSH1 0x20 DUP7 ADD PUSH2 0x417 JUMP JUMPDEST SWAP2 POP POP SWAP3 SWAP2 POP POP JUMP JUMPDEST PUSH1 0x0 PUSH1 0x20 DUP3 DUP5 SUB SLT ISZERO PUSH2 0x49D JUMPI PUSH2 0x49C PUSH2 0x337 JUMP JUMPDEST JUMPDEST PUSH1 0x0 DUP3 ADD CALLDATALOAD PUSH8 0xFFFFFFFFFFFFFFFF DUP2 GT ISZERO PUSH2 0x4BB JUMPI PUSH2 0x4BA PUSH2 0x33C JUMP JUMPDEST JUMPDEST PUSH2 0x4C7 DUP5 DUP3 DUP6 ADD PUSH2 0x459 JUMP JUMPDEST SWAP2 POP POP SWAP3 SWAP2 POP POP JUMP JUMPDEST PUSH1 0x0 PUSH20 0xFFFFFFFFFFFFFFFFFFFFFFFFFFFFFFFFFFFFFFFF DUP3 AND SWAP1 POP SWAP2 SWAP1 POP JUMP JUMPDEST PUSH1 0x0 PUSH2 0x4FB DUP3 PUSH2 0x4D0 JUMP JUMPDEST SWAP1 POP SWAP2 SWAP1 POP JUMP JUMPDEST PUSH2 0x50B DUP2 PUSH2 0x4F0 JUMP JUMPDEST DUP3 MSTORE POP POP JUMP JUMPDEST PUSH1 0x0 PUSH1 0x20 DUP3 ADD SWAP1 POP PUSH2 0x526 PUSH1 0x0 DUP4 ADD DUP5 PUSH2 0x502 JUMP JUMPDEST SWAP3 SWAP2 POP POP JUMP JUMPDEST PUSH1 0x0 DUP2 SWAP1 POP SWAP2 SWAP1 POP JUMP JUMPDEST PUSH2 0x53F DUP2 PUSH2 0x52C JUMP JUMPDEST DUP2 EQ PUSH2 0x54A JUMPI PUSH1 0x0 DUP1 REVERT JUMPDEST POP JUMP JUMPDEST PUSH1 0x0 DUP2 CALLDATALOAD SWAP1 POP PUSH2 0x55C DUP2 PUSH2 0x536 JUMP JUMPDEST SWAP3 SWAP2 POP POP JUMP JUMPDEST PUSH1 0x0 PUSH1 0x20 DUP3 DUP5 SUB SLT ISZERO PUSH2 0x578 JUMPI PUSH2 0x577 PUSH2 0x337 JUMP JUMPDEST JUMPDEST PUSH1 0x0 PUSH2 0x586 DUP5 DUP3 DUP6 ADD PUSH2 0x54D JUMP JUMPDEST SWAP2 POP POP SWAP3 SWAP2 POP POP JUMP JUMPDEST PUSH1 0x0 DUP2 MLOAD SWAP1 POP SWAP2 SWAP1 POP JUMP JUMPDEST PUSH1 0x0 DUP3 DUP3 MSTORE PUSH1 0x20 DUP3 ADD SWAP1 POP SWAP3 SWAP2 POP POP JUMP JUMPDEST PUSH1 0x0 JUMPDEST DUP4 DUP2 LT ISZERO PUSH2 0x5C9 JUMPI DUP1 DUP3 ADD MLOAD DUP2 DUP5 ADD MSTORE PUSH1 0x20 DUP2 ADD SWAP1 POP PUSH2 0x5AE JUMP JUMPDEST PUSH1 0x0 DUP5 DUP5 ADD MSTORE POP POP POP POP JUMP JUMPDEST PUSH1 0x0 PUSH2 0x5E0 DUP3 PUSH2 0x58F JUMP JUMPDEST PUSH2 0x5EA DUP2 DUP6 PUSH2 0x59A JUMP JUMPDEST SWAP4 POP PUSH2 0x5FA DUP2 DUP6 PUSH1 0x20 DUP7 ADD PUSH2 0x5AB JUMP JUMPDEST PUSH2 0x603 DUP2 PUSH2 0x34B JUMP JUMPDEST DUP5 ADD SWAP2 POP POP SWAP3 SWAP2 POP POP JUMP JUMPDEST PUSH2 0x617 DUP2 PUSH2 0x52C JUMP JUMPDEST DUP3 MSTORE POP POP JUMP JUMPDEST PUSH1 0x0 PUSH1 0x80 DUP3 ADD SWAP1 POP DUP2 DUP2 SUB PUSH1 0x0 DUP4 ADD MSTORE PUSH2 0x637 DUP2 DUP8 PUSH2 0x5D5 JUMP JUMPDEST SWAP1 POP PUSH2 0x646 PUSH1 0x20 DUP4 ADD DUP7 PUSH2 0x60E JUMP JUMPDEST PUSH2 0x653 PUSH1 0x40 DUP4 ADD DUP6 PUSH2 0x60E JUMP JUMPDEST PUSH2 0x660 PUSH1 0x60 DUP4 ADD DUP5 PUSH2 0x502 JUMP JUMPDEST SWAP6 SWAP5 POP POP POP POP POP JUMP JUMPDEST PUSH1 0x0 PUSH1 0x20 DUP3 ADD SWAP1 POP PUSH2 0x67E PUSH1 0x0 DUP4 ADD DUP5 PUSH2 0x60E JUMP JUMPDEST SWAP3 SWAP2 POP POP JUMP JUMPDEST PUSH32 0x506C65617365206465706F736974206D6F7265207468616E206F6E6500000000 PUSH1 0x0 DUP3 ADD MSTORE POP JUMP JUMPDEST PUSH1 0x0 PUSH2 0x6BA PUSH1 0x1C DUP4 PUSH2 0x59A JUMP JUMPDEST SWAP2 POP PUSH2 0x6C5 DUP3 PUSH2 0x684 JUMP JUMPDEST PUSH1 0x20 DUP3 ADD SWAP1 POP SWAP2 SWAP1 POP JUMP JUMPDEST PUSH1 0x0 PUSH1 0x20 DUP3 ADD SWAP1 POP DUP2 DUP2 SUB PUSH1 0x0 DUP4 ADD MSTORE PUSH2 0x6E9 DUP2 PUSH2 0x6AD JUMP JUMPDEST SWAP1 POP SWAP2 SWAP1 POP JUMP JUMPDEST PUSH32 0x4E487B7100000000000000000000000000000000000000000000000000000000 PUSH1 0x0 MSTORE PUSH1 0x22 PUSH1 0x4 MSTORE PUSH1 0x24 PUSH1 0x0 REVERT JUMPDEST PUSH1 0x0 PUSH1 0x2 DUP3 DIV SWAP1 POP PUSH1 0x1 DUP3 AND DUP1 PUSH2 0x737 JUMPI PUSH1 0x7F DUP3 AND SWAP2 POP JUMPDEST PUSH1 0x20 DUP3 LT DUP2 SUB PUSH2 0x74A JUMPI PUSH2 0x749 PUSH2 0x6F0 JUMP JUMPDEST JUMPDEST POP SWAP2 SWAP1 POP JUMP JUMPDEST PUSH1 0x0 DUP2 SWAP1 POP DUP2 PUSH1 0x0 MSTORE PUSH1 0x20 PUSH1 0x0 KECCAK256 SWAP1 POP SWAP2 SWAP1 POP JUMP JUMPDEST PUSH1 0x0 PUSH1 0x20 PUSH1 0x1F DUP4 ADD DIV SWAP1 POP SWAP2 SWAP1 POP JUMP JUMPDEST PUSH1 0x0 DUP3 DUP3 SHL SWAP1 POP SWAP3 SWAP2 POP POP JUMP JUMPDEST PUSH1 0x0 PUSH1 0x8 DUP4 MUL PUSH2 0x7B2 PUSH32 0xFFFFFFFFFFFFFFFFFFFFFFFFFFFFFFFFFFFFFFFFFFFFFFFFFFFFFFFFFFFFFFFF DUP3 PUSH2 0x775 JUMP JUMPDEST PUSH2 0x7BC DUP7 DUP4 PUSH2 0x775 JUMP JUMPDEST SWAP6 POP DUP1 NOT DUP5 AND SWAP4 POP DUP1 DUP7 AND DUP5 OR SWAP3 POP POP POP SWAP4 SWAP3 POP POP POP JUMP JUMPDEST PUSH1 0x0 DUP2 SWAP1 POP SWAP2 SWAP1 POP JUMP JUMPDEST PUSH1 0x0 PUSH2 0x7F9 PUSH2 0x7F4 PUSH2 0x7EF DUP5 PUSH2 0x52C JUMP JUMPDEST PUSH2 0x7D4 JUMP JUMPDEST PUSH2 0x52C JUMP JUMPDEST SWAP1 POP SWAP2 SWAP1 POP JUMP JUMPDEST PUSH1 0x0 DUP2 SWAP1 POP SWAP2 SWAP1 POP JUMP JUMPDEST PUSH2 0x813 DUP4 PUSH2 0x7DE JUMP JUMPDEST PUSH2 0x827 PUSH2 0x81F DUP3 PUSH2 0x800 JUMP JUMPDEST DUP5 DUP5 SLOAD PUSH2 0x782 JUMP JUMPDEST DUP3 SSTORE POP POP POP POP JUMP JUMPDEST PUSH1 0x0 SWAP1 JUMP JUMPDEST PUSH2 0x83C PUSH2 0x82F JUMP JUMPDEST PUSH2 0x847 DUP2 DUP5 DUP5 PUSH2 0x80A JUMP JUMPDEST POP POP POP JUMP JUMPDEST JUMPDEST DUP2 DUP2 LT ISZERO PUSH2 0x86B JUMPI PUSH2 0x860 PUSH1 0x0 DUP3 PUSH2 0x834 JUMP JUMPDEST PUSH1 0x1 DUP2 ADD SWAP1 POP PUSH2 0x84D JUMP JUMPDEST POP POP JUMP JUMPDEST PUSH1 0x1F DUP3 GT ISZERO PUSH2 0x8B0 JUMPI PUSH2 0x881 DUP2 PUSH2 0x750 JUMP JUMPDEST PUSH2 0x88A DUP5 PUSH2 0x765 JUMP JUMPDEST DUP2 ADD PUSH1 0x20 DUP6 LT ISZERO PUSH2 0x899 JUMPI DUP2 SWAP1 POP JUMPDEST PUSH2 0x8AD PUSH2 0x8A5 DUP6 PUSH2 0x765 JUMP JUMPDEST DUP4 ADD DUP3 PUSH2 0x84C JUMP JUMPDEST POP POP JUMPDEST POP POP POP JUMP JUMPDEST PUSH1 0x0 DUP3 DUP3 SHR SWAP1 POP SWAP3 SWAP2 POP POP JUMP JUMPDEST PUSH1 0x0 PUSH2 0x8D3 PUSH1 0x0 NOT DUP5 PUSH1 0x8 MUL PUSH2 0x8B5 JUMP JUMPDEST NOT DUP1 DUP4 AND SWAP2 POP POP SWAP3 SWAP2 POP POP JUMP JUMPDEST PUSH1 0x0 PUSH2 0x8EC DUP4 DUP4 PUSH2 0x8C2 JUMP JUMPDEST SWAP2 POP DUP3 PUSH1 0x2 MUL DUP3 OR SWAP1 POP SWAP3 SWAP2 POP POP JUMP JUMPDEST PUSH2 0x905 DUP3 PUSH2 0x58F JUMP JUMPDEST PUSH8 0xFFFFFFFFFFFFFFFF DUP2 GT ISZERO PUSH2 0x91E JUMPI PUSH2 0x91D PUSH2 0x35C JUMP JUMPDEST JUMPDEST PUSH2 0x928 DUP3 SLOAD PUSH2 0x71F JUMP JUMPDEST PUSH2 0x933 DUP3 DUP3 DUP6 PUSH2 0x86F JUMP JUMPDEST PUSH1 0x0 PUSH1 0x20 SWAP1 POP PUSH1 0x1F DUP4 GT PUSH1 0x1 DUP2 EQ PUSH2 0x966 JUMPI PUSH1 0x0 DUP5 ISZERO PUSH2 0x954 JUMPI DUP3 DUP8 ADD MLOAD SWAP1 POP JUMPDEST PUSH2 0x95E DUP6 DUP3 PUSH2 0x8E0 JUMP JUMPDEST DUP7 SSTORE POP PUSH2 0x9C6 JUMP JUMPDEST PUSH1 0x1F NOT DUP5 AND PUSH2 0x974 DUP7 PUSH2 0x750 JUMP JUMPDEST PUSH1 0x0 JUMPDEST DUP3 DUP2 LT ISZERO PUSH2 0x99C JUMPI DUP5 DUP10 ADD MLOAD DUP3 SSTORE PUSH1 0x1 DUP3 ADD SWAP2 POP PUSH1 0x20 DUP6 ADD SWAP5 POP PUSH1 0x20 DUP2 ADD SWAP1 POP PUSH2 0x977 JUMP JUMPDEST DUP7 DUP4 LT ISZERO PUSH2 0x9B9 JUMPI DUP5 DUP10 ADD MLOAD PUSH2 0x9B5 PUSH1 0x1F DUP10 AND DUP3 PUSH2 0x8C2 JUMP JUMPDEST DUP4 SSTORE POP JUMPDEST PUSH1 0x1 PUSH1 0x2 DUP9 MUL ADD DUP9 SSTORE POP POP POP JUMPDEST POP POP POP POP POP POP JUMP INVALID LOG2 PUSH5 0x6970667358 0x22 SLT KECCAK256 SMOD 0xB5 PUSH27 0xA17F67AC05BD9485EB93989B1C42683D49440821ADBF761C1313E0 TIMESTAMP 0xA6 PUSH5 0x736F6C6343 STOP ADDMOD SLT STOP CALLER "
				},
				"gasEstimates": {
					"creation": {
						"codeDepositCost": "512800",
						"executionCost": "24815",
						"totalCost": "537615"
					},
					"external": {
						"assets(uint256)": "infinite",
						"depositAsset(string)": "infinite",
						"getContactBalance()": "383",
						"owner()": "2514"
					}
				},
				"methodIdentifiers": {
					"assets(uint256)": "cf35bdd0",
					"depositAsset(string)": "89ee8cc6",
					"getContactBalance()": "e48aabd5",
					"owner()": "8da5cb5b"
				}
			},
			"storageLayout": {
				"storage": [
					{
						"astId": 14,
						"contract": "Defi-project/bank.sol:Bank",
						"label": "assets",
						"offset": 0,
						"slot": "0",
						"type": "t_array(t_struct(Asset)10_storage)dyn_storage"
					},
					{
						"astId": 16,
						"contract": "Defi-project/bank.sol:Bank",
						"label": "owner",
						"offset": 0,
						"slot": "1",
						"type": "t_address"
					}
				],
				"types": {
					"t_address": {
						"encoding": "inplace",
						"label": "address",
						"numberOfBytes": "20"
					},
					"t_array(t_struct(Asset)10_storage)dyn_storage": {
						"base": "t_struct(Asset)10_storage",
						"encoding": "dynamic_array",
						"label": "struct Bank.Asset[]",
						"numberOfBytes": "32"
					},
					"t_string_storage": {
						"encoding": "bytes",
						"label": "string",
						"numberOfBytes": "32"
					},
					"t_struct(Asset)10_storage": {
						"encoding": "inplace",
						"label": "struct Bank.Asset",
						"members": [
							{
								"astId": 3,
								"contract": "Defi-project/bank.sol:Bank",
								"label": "name",
								"offset": 0,
								"slot": "0",
								"type": "t_string_storage"
							},
							{
								"astId": 5,
								"contract": "Defi-project/bank.sol:Bank",
								"label": "balance",
								"offset": 0,
								"slot": "1",
								"type": "t_uint256"
							},
							{
								"astId": 7,
								"contract": "Defi-project/bank.sol:Bank",
								"label": "timestamp",
								"offset": 0,
								"slot": "2",
								"type": "t_uint256"
							},
							{
								"astId": 9,
								"contract": "Defi-project/bank.sol:Bank",
								"label": "from",
								"offset": 0,
								"slot": "3",
								"type": "t_address"
							}
						],
						"numberOfBytes": "128"
					},
					"t_uint256": {
						"encoding": "inplace",
						"label": "uint256",
						"numberOfBytes": "32"
					}
				}
			},
			"userdoc": {
				"kind": "user",
				"methods": {},
				"version": 1
			}
		}
	}
}