{
	"Defi-project/test.sol": {
		"TEST": {
			"abi": [
				{
					"inputs": [],
					"name": "BORROW_THRESHOLD",
					"outputs": [
						{
							"internalType": "uint256",
							"name": "",
							"type": "uint256"
						}
					],
					"stateMutability": "view",
					"type": "function"
				},
				{
					"inputs": [],
					"name": "getAssetsToBorrow",
					"outputs": [
						{
							"internalType": "uint256",
							"name": "",
							"type": "uint256"
						}
					],
					"stateMutability": "view",
					"type": "function"
				}
			],
			"devdoc": {
				"kind": "dev",
				"methods": {},
				"version": 1
			},
			"evm": {
				"assembly": "    /* \"Defi-project/test.sol\":66:1454  contract TEST {\r... */\n  mstore(0x40, 0xa0)\n    /* \"Defi-project/test.sol\":137:139  50 */\n  0x32\n    /* \"Defi-project/test.sol\":95:139  uint256 public immutable BORROW_THRESHOLD=50 */\n  0x80\n  swap1\n  dup2\n  mstore\n  pop\n    /* \"Defi-project/test.sol\":66:1454  contract TEST {\r... */\n  callvalue\n  dup1\n  iszero\n  tag_1\n  jumpi\n  0x00\n  dup1\n  revert\ntag_1:\n  pop\n  mload(0x80)\n  codecopy(0x00, dataOffset(sub_0), dataSize(sub_0))\n  0x00\n  assignImmutable(\"0x13600b294191fc92924bb3ce4b969c1e7e2bab8f4c93c3fc6d0a51733df3c060\")\n  return(0x00, dataSize(sub_0))\nstop\n\nsub_0: assembly {\n        /* \"Defi-project/test.sol\":66:1454  contract TEST {\r... */\n      mstore(0x40, 0x80)\n      callvalue\n      dup1\n      iszero\n      tag_1\n      jumpi\n      0x00\n      dup1\n      revert\n    tag_1:\n      pop\n      jumpi(tag_2, lt(calldatasize, 0x04))\n      shr(0xe0, calldataload(0x00))\n      dup1\n      0x0480ee08\n      eq\n      tag_3\n      jumpi\n      dup1\n      0x1500c2ff\n      eq\n      tag_4\n      jumpi\n    tag_2:\n      0x00\n      dup1\n      revert\n        /* \"Defi-project/test.sol\":148:1438  function getAssetsToBorrow() public view  returns(uint){\r... */\n    tag_3:\n      tag_5\n      tag_6\n      jump\t// in\n    tag_5:\n      mload(0x40)\n      tag_7\n      swap2\n      swap1\n      tag_8\n      jump\t// in\n    tag_7:\n      mload(0x40)\n      dup1\n      swap2\n      sub\n      swap1\n      return\n        /* \"Defi-project/test.sol\":95:139  uint256 public immutable BORROW_THRESHOLD=50 */\n    tag_4:\n      tag_9\n      tag_10\n      jump\t// in\n    tag_9:\n      mload(0x40)\n      tag_11\n      swap2\n      swap1\n      tag_8\n      jump\t// in\n    tag_11:\n      mload(0x40)\n      dup1\n      swap2\n      sub\n      swap1\n      return\n        /* \"Defi-project/test.sol\":148:1438  function getAssetsToBorrow() public view  returns(uint){\r... */\n    tag_6:\n        /* \"Defi-project/test.sol\":198:202  uint */\n      0x00\n        /* \"Defi-project/test.sol\":716:739  uint lendingTotalAmount */\n      dup1\n        /* \"Defi-project/test.sol\":742:746  3200 */\n      0x0c80\n        /* \"Defi-project/test.sol\":716:746  uint lendingTotalAmount = 3200 */\n      swap1\n      pop\n        /* \"Defi-project/test.sol\":935:955  uint maxBorrowAmount */\n      0x00\n        /* \"Defi-project/test.sol\":998:1001  100 */\n      0x64\n        /* \"Defi-project/test.sol\":979:995  BORROW_THRESHOLD */\n      immutable(\"0x13600b294191fc92924bb3ce4b969c1e7e2bab8f4c93c3fc6d0a51733df3c060\")\n        /* \"Defi-project/test.sol\":958:976  lendingTotalAmount */\n      dup4\n        /* \"Defi-project/test.sol\":958:995  lendingTotalAmount * BORROW_THRESHOLD */\n      tag_13\n      swap2\n      swap1\n      tag_14\n      jump\t// in\n    tag_13:\n        /* \"Defi-project/test.sol\":958:1001  lendingTotalAmount * BORROW_THRESHOLD / 100 */\n      tag_15\n      swap2\n      swap1\n      tag_16\n      jump\t// in\n    tag_15:\n        /* \"Defi-project/test.sol\":935:1001  uint maxBorrowAmount = lendingTotalAmount * BORROW_THRESHOLD / 100 */\n      swap1\n      pop\n        /* \"Defi-project/test.sol\":1022:1037  maxBorrowAmount */\n      dup1\n        /* \"Defi-project/test.sol\":1015:1037  return maxBorrowAmount */\n      swap3\n      pop\n      pop\n      pop\n        /* \"Defi-project/test.sol\":148:1438  function getAssetsToBorrow() public view  returns(uint){\r... */\n      swap1\n      jump\t// out\n        /* \"Defi-project/test.sol\":95:139  uint256 public immutable BORROW_THRESHOLD=50 */\n    tag_10:\n      immutable(\"0x13600b294191fc92924bb3ce4b969c1e7e2bab8f4c93c3fc6d0a51733df3c060\")\n      dup2\n      jump\t// out\n        /* \"#utility.yul\":7:125   */\n    tag_18:\n        /* \"#utility.yul\":94:118   */\n      tag_20\n        /* \"#utility.yul\":112:117   */\n      dup2\n        /* \"#utility.yul\":94:118   */\n      tag_21\n      jump\t// in\n    tag_20:\n        /* \"#utility.yul\":89:92   */\n      dup3\n        /* \"#utility.yul\":82:119   */\n      mstore\n        /* \"#utility.yul\":72:125   */\n      pop\n      pop\n      jump\t// out\n        /* \"#utility.yul\":131:353   */\n    tag_8:\n        /* \"#utility.yul\":224:228   */\n      0x00\n        /* \"#utility.yul\":262:264   */\n      0x20\n        /* \"#utility.yul\":251:260   */\n      dup3\n        /* \"#utility.yul\":247:265   */\n      add\n        /* \"#utility.yul\":239:265   */\n      swap1\n      pop\n        /* \"#utility.yul\":275:346   */\n      tag_23\n        /* \"#utility.yul\":343:344   */\n      0x00\n        /* \"#utility.yul\":332:341   */\n      dup4\n        /* \"#utility.yul\":328:345   */\n      add\n        /* \"#utility.yul\":319:325   */\n      dup5\n        /* \"#utility.yul\":275:346   */\n      tag_18\n      jump\t// in\n    tag_23:\n        /* \"#utility.yul\":229:353   */\n      swap3\n      swap2\n      pop\n      pop\n      jump\t// out\n        /* \"#utility.yul\":359:544   */\n    tag_16:\n        /* \"#utility.yul\":399:400   */\n      0x00\n        /* \"#utility.yul\":416:436   */\n      tag_25\n        /* \"#utility.yul\":434:435   */\n      dup3\n        /* \"#utility.yul\":416:436   */\n      tag_21\n      jump\t// in\n    tag_25:\n        /* \"#utility.yul\":411:436   */\n      swap2\n      pop\n        /* \"#utility.yul\":450:470   */\n      tag_26\n        /* \"#utility.yul\":468:469   */\n      dup4\n        /* \"#utility.yul\":450:470   */\n      tag_21\n      jump\t// in\n    tag_26:\n        /* \"#utility.yul\":445:470   */\n      swap3\n      pop\n        /* \"#utility.yul\":489:490   */\n      dup3\n        /* \"#utility.yul\":479:481   */\n      tag_27\n      jumpi\n        /* \"#utility.yul\":494:512   */\n      tag_28\n      tag_29\n      jump\t// in\n    tag_28:\n        /* \"#utility.yul\":479:481   */\n    tag_27:\n        /* \"#utility.yul\":536:537   */\n      dup3\n        /* \"#utility.yul\":533:534   */\n      dup3\n        /* \"#utility.yul\":529:538   */\n      div\n        /* \"#utility.yul\":524:538   */\n      swap1\n      pop\n        /* \"#utility.yul\":401:544   */\n      swap3\n      swap2\n      pop\n      pop\n      jump\t// out\n        /* \"#utility.yul\":550:898   */\n    tag_14:\n        /* \"#utility.yul\":590:597   */\n      0x00\n        /* \"#utility.yul\":613:633   */\n      tag_31\n        /* \"#utility.yul\":631:632   */\n      dup3\n        /* \"#utility.yul\":613:633   */\n      tag_21\n      jump\t// in\n    tag_31:\n        /* \"#utility.yul\":608:633   */\n      swap2\n      pop\n        /* \"#utility.yul\":647:667   */\n      tag_32\n        /* \"#utility.yul\":665:666   */\n      dup4\n        /* \"#utility.yul\":647:667   */\n      tag_21\n      jump\t// in\n    tag_32:\n        /* \"#utility.yul\":642:667   */\n      swap3\n      pop\n        /* \"#utility.yul\":835:836   */\n      dup2\n        /* \"#utility.yul\":767:833   */\n      0xffffffffffffffffffffffffffffffffffffffffffffffffffffffffffffffff\n        /* \"#utility.yul\":763:837   */\n      div\n        /* \"#utility.yul\":760:761   */\n      dup4\n        /* \"#utility.yul\":757:838   */\n      gt\n        /* \"#utility.yul\":752:753   */\n      dup3\n        /* \"#utility.yul\":745:754   */\n      iszero\n        /* \"#utility.yul\":738:755   */\n      iszero\n        /* \"#utility.yul\":734:839   */\n      and\n        /* \"#utility.yul\":731:733   */\n      iszero\n      tag_33\n      jumpi\n        /* \"#utility.yul\":842:860   */\n      tag_34\n      tag_35\n      jump\t// in\n    tag_34:\n        /* \"#utility.yul\":731:733   */\n    tag_33:\n        /* \"#utility.yul\":890:891   */\n      dup3\n        /* \"#utility.yul\":887:888   */\n      dup3\n        /* \"#utility.yul\":883:892   */\n      mul\n        /* \"#utility.yul\":872:892   */\n      swap1\n      pop\n        /* \"#utility.yul\":598:898   */\n      swap3\n      swap2\n      pop\n      pop\n      jump\t// out\n        /* \"#utility.yul\":904:981   */\n    tag_21:\n        /* \"#utility.yul\":941:948   */\n      0x00\n        /* \"#utility.yul\":970:975   */\n      dup2\n        /* \"#utility.yul\":959:975   */\n      swap1\n      pop\n        /* \"#utility.yul\":949:981   */\n      swap2\n      swap1\n      pop\n      jump\t// out\n        /* \"#utility.yul\":987:1167   */\n    tag_35:\n        /* \"#utility.yul\":1035:1112   */\n      0x4e487b7100000000000000000000000000000000000000000000000000000000\n        /* \"#utility.yul\":1032:1033   */\n      0x00\n        /* \"#utility.yul\":1025:1113   */\n      mstore\n        /* \"#utility.yul\":1132:1136   */\n      0x11\n        /* \"#utility.yul\":1129:1130   */\n      0x04\n        /* \"#utility.yul\":1122:1137   */\n      mstore\n        /* \"#utility.yul\":1156:1160   */\n      0x24\n        /* \"#utility.yul\":1153:1154   */\n      0x00\n        /* \"#utility.yul\":1146:1161   */\n      revert\n        /* \"#utility.yul\":1173:1353   */\n    tag_29:\n        /* \"#utility.yul\":1221:1298   */\n      0x4e487b7100000000000000000000000000000000000000000000000000000000\n        /* \"#utility.yul\":1218:1219   */\n      0x00\n        /* \"#utility.yul\":1211:1299   */\n      mstore\n        /* \"#utility.yul\":1318:1322   */\n      0x12\n        /* \"#utility.yul\":1315:1316   */\n      0x04\n        /* \"#utility.yul\":1308:1323   */\n      mstore\n        /* \"#utility.yul\":1342:1346   */\n      0x24\n        /* \"#utility.yul\":1339:1340   */\n      0x00\n        /* \"#utility.yul\":1332:1347   */\n      revert\n\n    auxdata: 0xa2646970667358221220fbd3014b35b8a0cc13f7ed92457ca398eb9d26636f93208ea167a410ae888c2464736f6c63430008060033\n}\n",
				"bytecode": {
					"linkReferences": {},
					"object": "60a0604052603260809081525034801561001857600080fd5b5060805161023a610039600039600081816085015260c5015261023a6000f3fe608060405234801561001057600080fd5b50600436106100365760003560e01c80630480ee081461003b5780631500c2ff14610059575b600080fd5b610043610077565b60405161005091906100f6565b60405180910390f35b6100616100c3565b60405161006e91906100f6565b60405180910390f35b600080610c809050600060647f0000000000000000000000000000000000000000000000000000000000000000836100af9190610142565b6100b99190610111565b9050809250505090565b7f000000000000000000000000000000000000000000000000000000000000000081565b6100f08161019c565b82525050565b600060208201905061010b60008301846100e7565b92915050565b600061011c8261019c565b91506101278361019c565b925082610137576101366101d5565b5b828204905092915050565b600061014d8261019c565b91506101588361019c565b9250817fffffffffffffffffffffffffffffffffffffffffffffffffffffffffffffffff0483118215151615610191576101906101a6565b5b828202905092915050565b6000819050919050565b7f4e487b7100000000000000000000000000000000000000000000000000000000600052601160045260246000fd5b7f4e487b7100000000000000000000000000000000000000000000000000000000600052601260045260246000fdfea2646970667358221220fbd3014b35b8a0cc13f7ed92457ca398eb9d26636f93208ea167a410ae888c2464736f6c63430008060033",
					"opcodes": "PUSH1 0xA0 PUSH1 0x40 MSTORE PUSH1 0x32 PUSH1 0x80 SWAP1 DUP2 MSTORE POP CALLVALUE DUP1 ISZERO PUSH2 0x18 JUMPI PUSH1 0x0 DUP1 REVERT JUMPDEST POP PUSH1 0x80 MLOAD PUSH2 0x23A PUSH2 0x39 PUSH1 0x0 CODECOPY PUSH1 0x0 DUP2 DUP2 PUSH1 0x85 ADD MSTORE PUSH1 0xC5 ADD MSTORE PUSH2 0x23A PUSH1 0x0 RETURN INVALID PUSH1 0x80 PUSH1 0x40 MSTORE CALLVALUE DUP1 ISZERO PUSH2 0x10 JUMPI PUSH1 0x0 DUP1 REVERT JUMPDEST POP PUSH1 0x4 CALLDATASIZE LT PUSH2 0x36 JUMPI PUSH1 0x0 CALLDATALOAD PUSH1 0xE0 SHR DUP1 PUSH4 0x480EE08 EQ PUSH2 0x3B JUMPI DUP1 PUSH4 0x1500C2FF EQ PUSH2 0x59 JUMPI JUMPDEST PUSH1 0x0 DUP1 REVERT JUMPDEST PUSH2 0x43 PUSH2 0x77 JUMP JUMPDEST PUSH1 0x40 MLOAD PUSH2 0x50 SWAP2 SWAP1 PUSH2 0xF6 JUMP JUMPDEST PUSH1 0x40 MLOAD DUP1 SWAP2 SUB SWAP1 RETURN JUMPDEST PUSH2 0x61 PUSH2 0xC3 JUMP JUMPDEST PUSH1 0x40 MLOAD PUSH2 0x6E SWAP2 SWAP1 PUSH2 0xF6 JUMP JUMPDEST PUSH1 0x40 MLOAD DUP1 SWAP2 SUB SWAP1 RETURN JUMPDEST PUSH1 0x0 DUP1 PUSH2 0xC80 SWAP1 POP PUSH1 0x0 PUSH1 0x64 PUSH32 0x0 DUP4 PUSH2 0xAF SWAP2 SWAP1 PUSH2 0x142 JUMP JUMPDEST PUSH2 0xB9 SWAP2 SWAP1 PUSH2 0x111 JUMP JUMPDEST SWAP1 POP DUP1 SWAP3 POP POP POP SWAP1 JUMP JUMPDEST PUSH32 0x0 DUP2 JUMP JUMPDEST PUSH2 0xF0 DUP2 PUSH2 0x19C JUMP JUMPDEST DUP3 MSTORE POP POP JUMP JUMPDEST PUSH1 0x0 PUSH1 0x20 DUP3 ADD SWAP1 POP PUSH2 0x10B PUSH1 0x0 DUP4 ADD DUP5 PUSH2 0xE7 JUMP JUMPDEST SWAP3 SWAP2 POP POP JUMP JUMPDEST PUSH1 0x0 PUSH2 0x11C DUP3 PUSH2 0x19C JUMP JUMPDEST SWAP2 POP PUSH2 0x127 DUP4 PUSH2 0x19C JUMP JUMPDEST SWAP3 POP DUP3 PUSH2 0x137 JUMPI PUSH2 0x136 PUSH2 0x1D5 JUMP JUMPDEST JUMPDEST DUP3 DUP3 DIV SWAP1 POP SWAP3 SWAP2 POP POP JUMP JUMPDEST PUSH1 0x0 PUSH2 0x14D DUP3 PUSH2 0x19C JUMP JUMPDEST SWAP2 POP PUSH2 0x158 DUP4 PUSH2 0x19C JUMP JUMPDEST SWAP3 POP DUP2 PUSH32 0xFFFFFFFFFFFFFFFFFFFFFFFFFFFFFFFFFFFFFFFFFFFFFFFFFFFFFFFFFFFFFFFF DIV DUP4 GT DUP3 ISZERO ISZERO AND ISZERO PUSH2 0x191 JUMPI PUSH2 0x190 PUSH2 0x1A6 JUMP JUMPDEST JUMPDEST DUP3 DUP3 MUL SWAP1 POP SWAP3 SWAP2 POP POP JUMP JUMPDEST PUSH1 0x0 DUP2 SWAP1 POP SWAP2 SWAP1 POP JUMP JUMPDEST PUSH32 0x4E487B7100000000000000000000000000000000000000000000000000000000 PUSH1 0x0 MSTORE PUSH1 0x11 PUSH1 0x4 MSTORE PUSH1 0x24 PUSH1 0x0 REVERT JUMPDEST PUSH32 0x4E487B7100000000000000000000000000000000000000000000000000000000 PUSH1 0x0 MSTORE PUSH1 0x12 PUSH1 0x4 MSTORE PUSH1 0x24 PUSH1 0x0 REVERT INVALID LOG2 PUSH5 0x6970667358 0x22 SLT KECCAK256 0xFB 0xD3 ADD 0x4B CALLDATALOAD 0xB8 LOG0 0xCC SGT 0xF7 0xED SWAP3 GASLIMIT PUSH29 0xA398EB9D26636F93208EA167A410AE888C2464736F6C63430008060033 "
				},
				"gasEstimates": {
					"creation": {
						"codeDepositCost": "114000",
						"executionCost": "infinite",
						"totalCost": "infinite"
					},
					"external": {
						"BORROW_THRESHOLD()": "infinite",
						"getAssetsToBorrow()": "infinite"
					}
				},
				"methodIdentifiers": {
					"BORROW_THRESHOLD()": "1500c2ff",
					"getAssetsToBorrow()": "0480ee08"
				}
			},
			"storageLayout": {
				"storage": [],
				"types": null
			},
			"userdoc": {
				"kind": "user",
				"methods": {},
				"version": 1
			}
		}
	}
}