{
	"Defi-project/LendingPool_20230217_1.sol": {
		"LendingPool": {
			"abi": [
				{
					"inputs": [],
					"stateMutability": "nonpayable",
					"type": "constructor"
				},
				{
					"inputs": [
						{
							"internalType": "address",
							"name": "_token",
							"type": "address"
						},
						{
							"internalType": "string",
							"name": "_symbol",
							"type": "string"
						}
					],
					"name": "addTokens",
					"outputs": [],
					"stateMutability": "nonpayable",
					"type": "function"
				},
				{
					"inputs": [
						{
							"internalType": "address",
							"name": "_token",
							"type": "address"
						},
						{
							"internalType": "uint256",
							"name": "_amount",
							"type": "uint256"
						}
					],
					"name": "lend",
					"outputs": [],
					"stateMutability": "nonpayable",
					"type": "function"
				},
				{
					"inputs": [
						{
							"internalType": "address",
							"name": "",
							"type": "address"
						},
						{
							"internalType": "uint256",
							"name": "",
							"type": "uint256"
						}
					],
					"name": "lenderAssetList",
					"outputs": [
						{
							"internalType": "address",
							"name": "",
							"type": "address"
						}
					],
					"stateMutability": "view",
					"type": "function"
				},
				{
					"inputs": [
						{
							"internalType": "address",
							"name": "",
							"type": "address"
						},
						{
							"internalType": "address",
							"name": "",
							"type": "address"
						}
					],
					"name": "lenderAssets",
					"outputs": [
						{
							"internalType": "uint256",
							"name": "",
							"type": "uint256"
						}
					],
					"stateMutability": "view",
					"type": "function"
				},
				{
					"inputs": [
						{
							"internalType": "address",
							"name": "",
							"type": "address"
						},
						{
							"internalType": "address",
							"name": "",
							"type": "address"
						}
					],
					"name": "lenderTimestamp",
					"outputs": [
						{
							"internalType": "uint256",
							"name": "",
							"type": "uint256"
						}
					],
					"stateMutability": "view",
					"type": "function"
				},
				{
					"inputs": [],
					"name": "owner",
					"outputs": [
						{
							"internalType": "address",
							"name": "",
							"type": "address"
						}
					],
					"stateMutability": "view",
					"type": "function"
				},
				{
					"inputs": [
						{
							"internalType": "address",
							"name": "",
							"type": "address"
						}
					],
					"name": "reserves",
					"outputs": [
						{
							"internalType": "uint256",
							"name": "",
							"type": "uint256"
						}
					],
					"stateMutability": "view",
					"type": "function"
				},
				{
					"inputs": [
						{
							"internalType": "address",
							"name": "lender",
							"type": "address"
						},
						{
							"internalType": "address",
							"name": "_token",
							"type": "address"
						}
					],
					"name": "rewardTokensEarned",
					"outputs": [
						{
							"internalType": "uint256",
							"name": "",
							"type": "uint256"
						}
					],
					"stateMutability": "view",
					"type": "function"
				},
				{
					"inputs": [
						{
							"internalType": "address",
							"name": "",
							"type": "address"
						}
					],
					"name": "tokenMap",
					"outputs": [
						{
							"internalType": "string",
							"name": "",
							"type": "string"
						}
					],
					"stateMutability": "view",
					"type": "function"
				},
				{
					"inputs": [
						{
							"internalType": "address",
							"name": "lender",
							"type": "address"
						},
						{
							"internalType": "address",
							"name": "_token",
							"type": "address"
						}
					],
					"name": "updateEarned",
					"outputs": [],
					"stateMutability": "nonpayable",
					"type": "function"
				}
			],
			"devdoc": {
				"kind": "dev",
				"methods": {},
				"version": 1
			},
			"evm": {
				"assembly": "    /* \"Defi-project/LendingPool_20230217_1.sol\":126:4763  contract LendingPool {... */\n  mstore(0x40, 0xa0)\n    /* \"Defi-project/LendingPool_20230217_1.sol\":282:283  3 */\n  0x03\n    /* \"Defi-project/LendingPool_20230217_1.sol\":250:283  uint256 immutable INTEREST_RATE=3 */\n  0x80\n  swap1\n  dup2\n  mstore\n  pop\n    /* \"Defi-project/LendingPool_20230217_1.sol\":1710:1762  constructor () {... */\n  callvalue\n  dup1\n  iszero\n  tag_1\n  jumpi\n  0x00\n  dup1\n  revert\ntag_1:\n  pop\n    /* \"Defi-project/LendingPool_20230217_1.sol\":1744:1754  msg.sender */\n  caller\n    /* \"Defi-project/LendingPool_20230217_1.sol\":1736:1741  owner */\n  0x00\n  dup1\n    /* \"Defi-project/LendingPool_20230217_1.sol\":1736:1754  owner = msg.sender */\n  0x0100\n  exp\n  dup2\n  sload\n  dup2\n  0xffffffffffffffffffffffffffffffffffffffff\n  mul\n  not\n  and\n  swap1\n  dup4\n  0xffffffffffffffffffffffffffffffffffffffff\n  and\n  mul\n  or\n  swap1\n  sstore\n  pop\n    /* \"Defi-project/LendingPool_20230217_1.sol\":126:4763  contract LendingPool {... */\n  mload(0x80)\n  codecopy(0x00, dataOffset(sub_0), dataSize(sub_0))\n  0x00\n  assignImmutable(\"0xd5c18d7e3bafb054df95ae4ec77df9e35ab79a2d4652960c682088d76955cda7\")\n  return(0x00, dataSize(sub_0))\nstop\n\nsub_0: assembly {\n        /* \"Defi-project/LendingPool_20230217_1.sol\":126:4763  contract LendingPool {... */\n      mstore(0x40, 0x80)\n      callvalue\n      dup1\n      iszero\n      tag_1\n      jumpi\n      0x00\n      dup1\n      revert\n    tag_1:\n      pop\n      jumpi(tag_2, lt(calldatasize, 0x04))\n      shr(0xe0, calldataload(0x00))\n      dup1\n      0x8da5cb5b\n      gt\n      tag_13\n      jumpi\n      dup1\n      0x8da5cb5b\n      eq\n      tag_8\n      jumpi\n      dup1\n      0xa2fb342d\n      eq\n      tag_9\n      jumpi\n      dup1\n      0xd66bd524\n      eq\n      tag_10\n      jumpi\n      dup1\n      0xd7a3b27f\n      eq\n      tag_11\n      jumpi\n      dup1\n      0xdd943ca9\n      eq\n      tag_12\n      jumpi\n      jump(tag_2)\n    tag_13:\n      dup1\n      0x4aca6e\n      eq\n      tag_3\n      jumpi\n      dup1\n      0x04581de5\n      eq\n      tag_4\n      jumpi\n      dup1\n      0x442130d0\n      eq\n      tag_5\n      jumpi\n      dup1\n      0x6c0723c5\n      eq\n      tag_6\n      jumpi\n      dup1\n      0x8a1b1bc4\n      eq\n      tag_7\n      jumpi\n    tag_2:\n      0x00\n      dup1\n      revert\n        /* \"Defi-project/LendingPool_20230217_1.sol\":483:525  mapping(address => string) public tokenMap */\n    tag_3:\n      tag_14\n      0x04\n      dup1\n      calldatasize\n      sub\n      dup2\n      add\n      swap1\n      tag_15\n      swap2\n      swap1\n      tag_16\n      jump\t// in\n    tag_15:\n      tag_17\n      jump\t// in\n    tag_14:\n      mload(0x40)\n      tag_18\n      swap2\n      swap1\n      tag_19\n      jump\t// in\n    tag_18:\n      mload(0x40)\n      dup1\n      swap2\n      sub\n      swap1\n      return\n        /* \"Defi-project/LendingPool_20230217_1.sol\":648:701  mapping(address => address[])  public lenderAssetList */\n    tag_4:\n      tag_20\n      0x04\n      dup1\n      calldatasize\n      sub\n      dup2\n      add\n      swap1\n      tag_21\n      swap2\n      swap1\n      tag_22\n      jump\t// in\n    tag_21:\n      tag_23\n      jump\t// in\n    tag_20:\n      mload(0x40)\n      tag_24\n      swap2\n      swap1\n      tag_25\n      jump\t// in\n    tag_24:\n      mload(0x40)\n      dup1\n      swap2\n      sub\n      swap1\n      return\n        /* \"Defi-project/LendingPool_20230217_1.sol\":756:820  mapping(address => mapping(address => uint)) public lenderAssets */\n    tag_5:\n      tag_26\n      0x04\n      dup1\n      calldatasize\n      sub\n      dup2\n      add\n      swap1\n      tag_27\n      swap2\n      swap1\n      tag_28\n      jump\t// in\n    tag_27:\n      tag_29\n      jump\t// in\n    tag_26:\n      mload(0x40)\n      tag_30\n      swap2\n      swap1\n      tag_31\n      jump\t// in\n    tag_30:\n      mload(0x40)\n      dup1\n      swap2\n      sub\n      swap1\n      return\n        /* \"Defi-project/LendingPool_20230217_1.sol\":2605:2976  function rewardTokensEarned(address lender,address _token) public view returns(uint256){... */\n    tag_6:\n      tag_32\n      0x04\n      dup1\n      calldatasize\n      sub\n      dup2\n      add\n      swap1\n      tag_33\n      swap2\n      swap1\n      tag_28\n      jump\t// in\n    tag_33:\n      tag_34\n      jump\t// in\n    tag_32:\n      mload(0x40)\n      tag_35\n      swap2\n      swap1\n      tag_31\n      jump\t// in\n    tag_35:\n      mload(0x40)\n      dup1\n      swap2\n      sub\n      swap1\n      return\n        /* \"Defi-project/LendingPool_20230217_1.sol\":873:940  mapping(address => mapping(address => uint)) public lenderTimestamp */\n    tag_7:\n      tag_36\n      0x04\n      dup1\n      calldatasize\n      sub\n      dup2\n      add\n      swap1\n      tag_37\n      swap2\n      swap1\n      tag_28\n      jump\t// in\n    tag_37:\n      tag_38\n      jump\t// in\n    tag_36:\n      mload(0x40)\n      tag_39\n      swap2\n      swap1\n      tag_31\n      jump\t// in\n    tag_39:\n      mload(0x40)\n      dup1\n      swap2\n      sub\n      swap1\n      return\n        /* \"Defi-project/LendingPool_20230217_1.sol\":191:211  address public owner */\n    tag_8:\n      tag_40\n      tag_41\n      jump\t// in\n    tag_40:\n      mload(0x40)\n      tag_42\n      swap2\n      swap1\n      tag_25\n      jump\t// in\n    tag_42:\n      mload(0x40)\n      dup1\n      swap2\n      sub\n      swap1\n      return\n        /* \"Defi-project/LendingPool_20230217_1.sol\":2274:2595  function lend(address _token, uint256 _amount) public {... */\n    tag_9:\n      tag_43\n      0x04\n      dup1\n      calldatasize\n      sub\n      dup2\n      add\n      swap1\n      tag_44\n      swap2\n      swap1\n      tag_22\n      jump\t// in\n    tag_44:\n      tag_45\n      jump\t// in\n    tag_43:\n      stop\n        /* \"Defi-project/LendingPool_20230217_1.sol\":563:603  mapping(address => uint) public reserves */\n    tag_10:\n      tag_46\n      0x04\n      dup1\n      calldatasize\n      sub\n      dup2\n      add\n      swap1\n      tag_47\n      swap2\n      swap1\n      tag_16\n      jump\t// in\n    tag_47:\n      tag_48\n      jump\t// in\n    tag_46:\n      mload(0x40)\n      tag_49\n      swap2\n      swap1\n      tag_31\n      jump\t// in\n    tag_49:\n      mload(0x40)\n      dup1\n      swap2\n      sub\n      swap1\n      return\n        /* \"Defi-project/LendingPool_20230217_1.sol\":2090:2266  function addTokens(address _token, string memory _symbol) external {... */\n    tag_11:\n      tag_50\n      0x04\n      dup1\n      calldatasize\n      sub\n      dup2\n      add\n      swap1\n      tag_51\n      swap2\n      swap1\n      tag_52\n      jump\t// in\n    tag_51:\n      tag_53\n      jump\t// in\n    tag_50:\n      stop\n        /* \"Defi-project/LendingPool_20230217_1.sol\":4246:4636  function updateEarned(address lender, address _token) onlyOwner(_token) public{... */\n    tag_12:\n      tag_54\n      0x04\n      dup1\n      calldatasize\n      sub\n      dup2\n      add\n      swap1\n      tag_55\n      swap2\n      swap1\n      tag_28\n      jump\t// in\n    tag_55:\n      tag_56\n      jump\t// in\n    tag_54:\n      stop\n        /* \"Defi-project/LendingPool_20230217_1.sol\":483:525  mapping(address => string) public tokenMap */\n    tag_17:\n      mstore(0x20, 0x01)\n      dup1\n      0x00\n      mstore\n      keccak256(0x00, 0x40)\n      0x00\n      swap2\n      pop\n      swap1\n      pop\n      dup1\n      sload\n      tag_57\n      swap1\n      tag_58\n      jump\t// in\n    tag_57:\n      dup1\n      0x1f\n      add\n      0x20\n      dup1\n      swap2\n      div\n      mul\n      0x20\n      add\n      mload(0x40)\n      swap1\n      dup2\n      add\n      0x40\n      mstore\n      dup1\n      swap3\n      swap2\n      swap1\n      dup2\n      dup2\n      mstore\n      0x20\n      add\n      dup3\n      dup1\n      sload\n      tag_59\n      swap1\n      tag_58\n      jump\t// in\n    tag_59:\n      dup1\n      iszero\n      tag_60\n      jumpi\n      dup1\n      0x1f\n      lt\n      tag_61\n      jumpi\n      0x0100\n      dup1\n      dup4\n      sload\n      div\n      mul\n      dup4\n      mstore\n      swap2\n      0x20\n      add\n      swap2\n      jump(tag_60)\n    tag_61:\n      dup3\n      add\n      swap2\n      swap1\n      0x00\n      mstore\n      keccak256(0x00, 0x20)\n      swap1\n    tag_62:\n      dup2\n      sload\n      dup2\n      mstore\n      swap1\n      0x01\n      add\n      swap1\n      0x20\n      add\n      dup1\n      dup4\n      gt\n      tag_62\n      jumpi\n      dup3\n      swap1\n      sub\n      0x1f\n      and\n      dup3\n      add\n      swap2\n    tag_60:\n      pop\n      pop\n      pop\n      pop\n      pop\n      dup2\n      jump\t// out\n        /* \"Defi-project/LendingPool_20230217_1.sol\":648:701  mapping(address => address[])  public lenderAssetList */\n    tag_23:\n      mstore(0x20, 0x03)\n      dup2\n      0x00\n      mstore\n      keccak256(0x00, 0x40)\n      dup2\n      dup2\n      sload\n      dup2\n      lt\n      tag_63\n      jumpi\n      0x00\n      dup1\n      revert\n    tag_63:\n      swap1\n      0x00\n      mstore\n      keccak256(0x00, 0x20)\n      add\n      0x00\n      swap2\n      pop\n      swap2\n      pop\n      swap1\n      sload\n      swap1\n      0x0100\n      exp\n      swap1\n      div\n      0xffffffffffffffffffffffffffffffffffffffff\n      and\n      dup2\n      jump\t// out\n        /* \"Defi-project/LendingPool_20230217_1.sol\":756:820  mapping(address => mapping(address => uint)) public lenderAssets */\n    tag_29:\n      mstore(0x20, 0x04)\n      dup2\n      0x00\n      mstore\n      mstore(0x20, keccak256(0x00, 0x40))\n      dup1\n      0x00\n      mstore\n      keccak256(0x00, 0x40)\n      0x00\n      swap2\n      pop\n      swap2\n      pop\n      pop\n      sload\n      dup2\n      jump\t// out\n        /* \"Defi-project/LendingPool_20230217_1.sol\":2605:2976  function rewardTokensEarned(address lender,address _token) public view returns(uint256){... */\n    tag_34:\n        /* \"Defi-project/LendingPool_20230217_1.sol\":2684:2691  uint256 */\n      0x00\n        /* \"Defi-project/LendingPool_20230217_1.sol\":2964:2967  100 */\n      0x64\n        /* \"Defi-project/LendingPool_20230217_1.sol\":390:401  86400 * 365 */\n      0x01e13380\n        /* \"Defi-project/LendingPool_20230217_1.sol\":2940:2942  12 */\n      0x0c\n        /* \"Defi-project/LendingPool_20230217_1.sol\":2924:2937  INTEREST_RATE */\n      immutable(\"0xd5c18d7e3bafb054df95ae4ec77df9e35ab79a2d4652960c682088d76955cda7\")\n        /* \"Defi-project/LendingPool_20230217_1.sol\":2889:2904  lenderTimestamp */\n      0x05\n        /* \"Defi-project/LendingPool_20230217_1.sol\":2889:2912  lenderTimestamp[lender] */\n      0x00\n        /* \"Defi-project/LendingPool_20230217_1.sol\":2905:2911  lender */\n      dup9\n        /* \"Defi-project/LendingPool_20230217_1.sol\":2889:2912  lenderTimestamp[lender] */\n      0xffffffffffffffffffffffffffffffffffffffff\n      and\n      0xffffffffffffffffffffffffffffffffffffffff\n      and\n      dup2\n      mstore\n      0x20\n      add\n      swap1\n      dup2\n      mstore\n      0x20\n      add\n      0x00\n      keccak256\n        /* \"Defi-project/LendingPool_20230217_1.sol\":2889:2920  lenderTimestamp[lender][_token] */\n      0x00\n        /* \"Defi-project/LendingPool_20230217_1.sol\":2913:2919  _token */\n      dup8\n        /* \"Defi-project/LendingPool_20230217_1.sol\":2889:2920  lenderTimestamp[lender][_token] */\n      0xffffffffffffffffffffffffffffffffffffffff\n      and\n      0xffffffffffffffffffffffffffffffffffffffff\n      and\n      dup2\n      mstore\n      0x20\n      add\n      swap1\n      dup2\n      mstore\n      0x20\n      add\n      0x00\n      keccak256\n      sload\n        /* \"Defi-project/LendingPool_20230217_1.sol\":2873:2888  block.timestamp */\n      timestamp\n        /* \"Defi-project/LendingPool_20230217_1.sol\":2873:2920  block.timestamp-lenderTimestamp[lender][_token] */\n      tag_66\n      swap2\n      swap1\n      tag_67\n      jump\t// in\n    tag_66:\n        /* \"Defi-project/LendingPool_20230217_1.sol\":2872:2937  (block.timestamp-lenderTimestamp[lender][_token]) * INTEREST_RATE */\n      tag_68\n      swap2\n      swap1\n      tag_69\n      jump\t// in\n    tag_68:\n        /* \"Defi-project/LendingPool_20230217_1.sol\":2872:2942  (block.timestamp-lenderTimestamp[lender][_token]) * INTEREST_RATE * 12 */\n      tag_70\n      swap2\n      swap1\n      tag_69\n      jump\t// in\n    tag_70:\n        /* \"Defi-project/LendingPool_20230217_1.sol\":2871:2961  ((block.timestamp-lenderTimestamp[lender][_token]) * INTEREST_RATE * 12)/SECONDS_IN_A_YEAR */\n      tag_71\n      swap2\n      swap1\n      tag_72\n      jump\t// in\n    tag_71:\n        /* \"Defi-project/LendingPool_20230217_1.sol\":2871:2967  ((block.timestamp-lenderTimestamp[lender][_token]) * INTEREST_RATE * 12)/SECONDS_IN_A_YEAR * 100 */\n      tag_73\n      swap2\n      swap1\n      tag_69\n      jump\t// in\n    tag_73:\n        /* \"Defi-project/LendingPool_20230217_1.sol\":2863:2968  return (((block.timestamp-lenderTimestamp[lender][_token]) * INTEREST_RATE * 12)/SECONDS_IN_A_YEAR * 100) */\n      swap1\n      pop\n        /* \"Defi-project/LendingPool_20230217_1.sol\":2605:2976  function rewardTokensEarned(address lender,address _token) public view returns(uint256){... */\n      swap3\n      swap2\n      pop\n      pop\n      jump\t// out\n        /* \"Defi-project/LendingPool_20230217_1.sol\":873:940  mapping(address => mapping(address => uint)) public lenderTimestamp */\n    tag_38:\n      mstore(0x20, 0x05)\n      dup2\n      0x00\n      mstore\n      mstore(0x20, keccak256(0x00, 0x40))\n      dup1\n      0x00\n      mstore\n      keccak256(0x00, 0x40)\n      0x00\n      swap2\n      pop\n      swap2\n      pop\n      pop\n      sload\n      dup2\n      jump\t// out\n        /* \"Defi-project/LendingPool_20230217_1.sol\":191:211  address public owner */\n    tag_41:\n      0x00\n      dup1\n      sload\n      swap1\n      0x0100\n      exp\n      swap1\n      div\n      0xffffffffffffffffffffffffffffffffffffffff\n      and\n      dup2\n      jump\t// out\n        /* \"Defi-project/LendingPool_20230217_1.sol\":2274:2595  function lend(address _token, uint256 _amount) public {... */\n    tag_45:\n        /* \"Defi-project/LendingPool_20230217_1.sol\":2339:2354  lenderAssetList */\n      0x03\n        /* \"Defi-project/LendingPool_20230217_1.sol\":2339:2366  lenderAssetList[msg.sender] */\n      0x00\n        /* \"Defi-project/LendingPool_20230217_1.sol\":2355:2365  msg.sender */\n      caller\n        /* \"Defi-project/LendingPool_20230217_1.sol\":2339:2366  lenderAssetList[msg.sender] */\n      0xffffffffffffffffffffffffffffffffffffffff\n      and\n      0xffffffffffffffffffffffffffffffffffffffff\n      and\n      dup2\n      mstore\n      0x20\n      add\n      swap1\n      dup2\n      mstore\n      0x20\n      add\n      0x00\n      keccak256\n        /* \"Defi-project/LendingPool_20230217_1.sol\":2372:2378  _token */\n      dup3\n        /* \"Defi-project/LendingPool_20230217_1.sol\":2339:2379  lenderAssetList[msg.sender].push(_token) */\n      swap1\n      dup1\n      0x01\n      dup2\n      sload\n      add\n      dup1\n      dup3\n      sstore\n      dup1\n      swap2\n      pop\n      pop\n      0x01\n      swap1\n      sub\n      swap1\n      0x00\n      mstore\n      keccak256(0x00, 0x20)\n      add\n      0x00\n      swap1\n      swap2\n      swap1\n      swap2\n      swap1\n      swap2\n      0x0100\n      exp\n      dup2\n      sload\n      dup2\n      0xffffffffffffffffffffffffffffffffffffffff\n      mul\n      not\n      and\n      swap1\n      dup4\n      0xffffffffffffffffffffffffffffffffffffffff\n      and\n      mul\n      or\n      swap1\n      sstore\n      pop\n        /* \"Defi-project/LendingPool_20230217_1.sol\":2425:2432  _amount */\n      dup1\n        /* \"Defi-project/LendingPool_20230217_1.sol\":2390:2402  lenderAssets */\n      0x04\n        /* \"Defi-project/LendingPool_20230217_1.sol\":2390:2414  lenderAssets[msg.sender] */\n      0x00\n        /* \"Defi-project/LendingPool_20230217_1.sol\":2403:2413  msg.sender */\n      caller\n        /* \"Defi-project/LendingPool_20230217_1.sol\":2390:2414  lenderAssets[msg.sender] */\n      0xffffffffffffffffffffffffffffffffffffffff\n      and\n      0xffffffffffffffffffffffffffffffffffffffff\n      and\n      dup2\n      mstore\n      0x20\n      add\n      swap1\n      dup2\n      mstore\n      0x20\n      add\n      0x00\n      keccak256\n        /* \"Defi-project/LendingPool_20230217_1.sol\":2390:2422  lenderAssets[msg.sender][_token] */\n      0x00\n        /* \"Defi-project/LendingPool_20230217_1.sol\":2415:2421  _token */\n      dup5\n        /* \"Defi-project/LendingPool_20230217_1.sol\":2390:2422  lenderAssets[msg.sender][_token] */\n      0xffffffffffffffffffffffffffffffffffffffff\n      and\n      0xffffffffffffffffffffffffffffffffffffffff\n      and\n      dup2\n      mstore\n      0x20\n      add\n      swap1\n      dup2\n      mstore\n      0x20\n      add\n      0x00\n      keccak256\n        /* \"Defi-project/LendingPool_20230217_1.sol\":2390:2432  lenderAssets[msg.sender][_token] = _amount */\n      dup2\n      swap1\n      sstore\n      pop\n        /* \"Defi-project/LendingPool_20230217_1.sol\":2463:2470  _amount */\n      dup1\n        /* \"Defi-project/LendingPool_20230217_1.sol\":2443:2451  reserves */\n      0x02\n        /* \"Defi-project/LendingPool_20230217_1.sol\":2443:2459  reserves[_token] */\n      0x00\n        /* \"Defi-project/LendingPool_20230217_1.sol\":2452:2458  _token */\n      dup5\n        /* \"Defi-project/LendingPool_20230217_1.sol\":2443:2459  reserves[_token] */\n      0xffffffffffffffffffffffffffffffffffffffff\n      and\n      0xffffffffffffffffffffffffffffffffffffffff\n      and\n      dup2\n      mstore\n      0x20\n      add\n      swap1\n      dup2\n      mstore\n      0x20\n      add\n      0x00\n      keccak256\n      0x00\n        /* \"Defi-project/LendingPool_20230217_1.sol\":2443:2470  reserves[_token] += _amount */\n      dup3\n      dup3\n      sload\n      tag_76\n      swap2\n      swap1\n      tag_77\n      jump\t// in\n    tag_76:\n      swap3\n      pop\n      pop\n      dup2\n      swap1\n      sstore\n      pop\n        /* \"Defi-project/LendingPool_20230217_1.sol\":2519:2534  block.timestamp */\n      timestamp\n        /* \"Defi-project/LendingPool_20230217_1.sol\":2481:2496  lenderTimestamp */\n      0x05\n        /* \"Defi-project/LendingPool_20230217_1.sol\":2481:2508  lenderTimestamp[msg.sender] */\n      0x00\n        /* \"Defi-project/LendingPool_20230217_1.sol\":2497:2507  msg.sender */\n      caller\n        /* \"Defi-project/LendingPool_20230217_1.sol\":2481:2508  lenderTimestamp[msg.sender] */\n      0xffffffffffffffffffffffffffffffffffffffff\n      and\n      0xffffffffffffffffffffffffffffffffffffffff\n      and\n      dup2\n      mstore\n      0x20\n      add\n      swap1\n      dup2\n      mstore\n      0x20\n      add\n      0x00\n      keccak256\n        /* \"Defi-project/LendingPool_20230217_1.sol\":2481:2516  lenderTimestamp[msg.sender][_token] */\n      0x00\n        /* \"Defi-project/LendingPool_20230217_1.sol\":2509:2515  _token */\n      dup5\n        /* \"Defi-project/LendingPool_20230217_1.sol\":2481:2516  lenderTimestamp[msg.sender][_token] */\n      0xffffffffffffffffffffffffffffffffffffffff\n      and\n      0xffffffffffffffffffffffffffffffffffffffff\n      and\n      dup2\n      mstore\n      0x20\n      add\n      swap1\n      dup2\n      mstore\n      0x20\n      add\n      0x00\n      keccak256\n        /* \"Defi-project/LendingPool_20230217_1.sol\":2481:2534  lenderTimestamp[msg.sender][_token] = block.timestamp */\n      dup2\n      swap1\n      sstore\n      pop\n        /* \"Defi-project/LendingPool_20230217_1.sol\":2274:2595  function lend(address _token, uint256 _amount) public {... */\n      pop\n      pop\n      jump\t// out\n        /* \"Defi-project/LendingPool_20230217_1.sol\":563:603  mapping(address => uint) public reserves */\n    tag_48:\n      mstore(0x20, 0x02)\n      dup1\n      0x00\n      mstore\n      keccak256(0x00, 0x40)\n      0x00\n      swap2\n      pop\n      swap1\n      pop\n      sload\n      dup2\n      jump\t// out\n        /* \"Defi-project/LendingPool_20230217_1.sol\":2090:2266  function addTokens(address _token, string memory _symbol) external {... */\n    tag_53:\n        /* \"Defi-project/LendingPool_20230217_1.sol\":2190:2195  owner */\n      0x00\n      dup1\n      sload\n      swap1\n      0x0100\n      exp\n      swap1\n      div\n      0xffffffffffffffffffffffffffffffffffffffff\n      and\n        /* \"Defi-project/LendingPool_20230217_1.sol\":2176:2195  msg.sender == owner */\n      0xffffffffffffffffffffffffffffffffffffffff\n      and\n        /* \"Defi-project/LendingPool_20230217_1.sol\":2176:2186  msg.sender */\n      caller\n        /* \"Defi-project/LendingPool_20230217_1.sol\":2176:2195  msg.sender == owner */\n      0xffffffffffffffffffffffffffffffffffffffff\n      and\n      eq\n        /* \"Defi-project/LendingPool_20230217_1.sol\":2168:2221  require(msg.sender == owner, \"Not Owner, Cannot add\") */\n      tag_79\n      jumpi\n      mload(0x40)\n      0x08c379a000000000000000000000000000000000000000000000000000000000\n      dup2\n      mstore\n      0x04\n      add\n      tag_80\n      swap1\n      tag_81\n      jump\t// in\n    tag_80:\n      mload(0x40)\n      dup1\n      swap2\n      sub\n      swap1\n      revert\n    tag_79:\n        /* \"Defi-project/LendingPool_20230217_1.sol\":2251:2258  _symbol */\n      dup1\n        /* \"Defi-project/LendingPool_20230217_1.sol\":2232:2240  tokenMap */\n      0x01\n        /* \"Defi-project/LendingPool_20230217_1.sol\":2232:2248  tokenMap[_token] */\n      0x00\n        /* \"Defi-project/LendingPool_20230217_1.sol\":2241:2247  _token */\n      dup5\n        /* \"Defi-project/LendingPool_20230217_1.sol\":2232:2248  tokenMap[_token] */\n      0xffffffffffffffffffffffffffffffffffffffff\n      and\n      0xffffffffffffffffffffffffffffffffffffffff\n      and\n      dup2\n      mstore\n      0x20\n      add\n      swap1\n      dup2\n      mstore\n      0x20\n      add\n      0x00\n      keccak256\n        /* \"Defi-project/LendingPool_20230217_1.sol\":2232:2258  tokenMap[_token] = _symbol */\n      swap1\n      dup2\n      tag_82\n      swap2\n      swap1\n      tag_83\n      jump\t// in\n    tag_82:\n      pop\n        /* \"Defi-project/LendingPool_20230217_1.sol\":2090:2266  function addTokens(address _token, string memory _symbol) external {... */\n      pop\n      pop\n      jump\t// out\n        /* \"Defi-project/LendingPool_20230217_1.sol\":4246:4636  function updateEarned(address lender, address _token) onlyOwner(_token) public{... */\n    tag_56:\n        /* \"Defi-project/LendingPool_20230217_1.sol\":4310:4316  _token */\n      dup1\n        /* \"Defi-project/LendingPool_20230217_1.sol\":1612:1627  isOwner(_token) */\n      tag_85\n        /* \"Defi-project/LendingPool_20230217_1.sol\":1620:1626  _token */\n      dup2\n        /* \"Defi-project/LendingPool_20230217_1.sol\":1612:1619  isOwner */\n      tag_86\n        /* \"Defi-project/LendingPool_20230217_1.sol\":1612:1627  isOwner(_token) */\n      jump\t// in\n    tag_85:\n        /* \"Defi-project/LendingPool_20230217_1.sol\":1604:1641  require(isOwner(_token), \"Not Owner\") */\n      tag_87\n      jumpi\n      mload(0x40)\n      0x08c379a000000000000000000000000000000000000000000000000000000000\n      dup2\n      mstore\n      0x04\n      add\n      tag_88\n      swap1\n      tag_89\n      jump\t// in\n    tag_88:\n      mload(0x40)\n      dup1\n      swap2\n      sub\n      swap1\n      revert\n    tag_87:\n        /* \"Defi-project/LendingPool_20230217_1.sol\":4508:4628  lenderAssets[lender][_token].add(... */\n      tag_91\n        /* \"Defi-project/LendingPool_20230217_1.sol\":4567:4601  rewardTokensEarned(lender, _token) */\n      tag_92\n        /* \"Defi-project/LendingPool_20230217_1.sol\":4586:4592  lender */\n      dup5\n        /* \"Defi-project/LendingPool_20230217_1.sol\":4594:4600  _token */\n      dup5\n        /* \"Defi-project/LendingPool_20230217_1.sol\":4567:4585  rewardTokensEarned */\n      tag_34\n        /* \"Defi-project/LendingPool_20230217_1.sol\":4567:4601  rewardTokensEarned(lender, _token) */\n      jump\t// in\n    tag_92:\n        /* \"Defi-project/LendingPool_20230217_1.sol\":4508:4520  lenderAssets */\n      0x04\n        /* \"Defi-project/LendingPool_20230217_1.sol\":4508:4528  lenderAssets[lender] */\n      0x00\n        /* \"Defi-project/LendingPool_20230217_1.sol\":4521:4527  lender */\n      dup7\n        /* \"Defi-project/LendingPool_20230217_1.sol\":4508:4528  lenderAssets[lender] */\n      0xffffffffffffffffffffffffffffffffffffffff\n      and\n      0xffffffffffffffffffffffffffffffffffffffff\n      and\n      dup2\n      mstore\n      0x20\n      add\n      swap1\n      dup2\n      mstore\n      0x20\n      add\n      0x00\n      keccak256\n        /* \"Defi-project/LendingPool_20230217_1.sol\":4508:4536  lenderAssets[lender][_token] */\n      0x00\n        /* \"Defi-project/LendingPool_20230217_1.sol\":4529:4535  _token */\n      dup6\n        /* \"Defi-project/LendingPool_20230217_1.sol\":4508:4536  lenderAssets[lender][_token] */\n      0xffffffffffffffffffffffffffffffffffffffff\n      and\n      0xffffffffffffffffffffffffffffffffffffffff\n      and\n      dup2\n      mstore\n      0x20\n      add\n      swap1\n      dup2\n      mstore\n      0x20\n      add\n      0x00\n      keccak256\n      sload\n        /* \"Defi-project/LendingPool_20230217_1.sol\":4508:4540  lenderAssets[lender][_token].add */\n      tag_93\n      swap1\n        /* \"Defi-project/LendingPool_20230217_1.sol\":4508:4628  lenderAssets[lender][_token].add(... */\n      swap2\n      swap1\n      0xffffffff\n      and\n      jump\t// in\n    tag_91:\n        /* \"Defi-project/LendingPool_20230217_1.sol\":4459:4471  lenderAssets */\n      0x04\n        /* \"Defi-project/LendingPool_20230217_1.sol\":4459:4479  lenderAssets[lender] */\n      0x00\n        /* \"Defi-project/LendingPool_20230217_1.sol\":4472:4478  lender */\n      dup6\n        /* \"Defi-project/LendingPool_20230217_1.sol\":4459:4479  lenderAssets[lender] */\n      0xffffffffffffffffffffffffffffffffffffffff\n      and\n      0xffffffffffffffffffffffffffffffffffffffff\n      and\n      dup2\n      mstore\n      0x20\n      add\n      swap1\n      dup2\n      mstore\n      0x20\n      add\n      0x00\n      keccak256\n        /* \"Defi-project/LendingPool_20230217_1.sol\":4459:4487  lenderAssets[lender][_token] */\n      0x00\n        /* \"Defi-project/LendingPool_20230217_1.sol\":4480:4486  _token */\n      dup5\n        /* \"Defi-project/LendingPool_20230217_1.sol\":4459:4487  lenderAssets[lender][_token] */\n      0xffffffffffffffffffffffffffffffffffffffff\n      and\n      0xffffffffffffffffffffffffffffffffffffffff\n      and\n      dup2\n      mstore\n      0x20\n      add\n      swap1\n      dup2\n      mstore\n      0x20\n      add\n      0x00\n      keccak256\n        /* \"Defi-project/LendingPool_20230217_1.sol\":4459:4628  lenderAssets[lender][_token] = ... */\n      dup2\n      swap1\n      sstore\n      pop\n        /* \"Defi-project/LendingPool_20230217_1.sol\":4246:4636  function updateEarned(address lender, address _token) onlyOwner(_token) public{... */\n      pop\n      pop\n      pop\n      jump\t// out\n        /* \"Defi-project/LendingPool_20230217_1.sol\":1801:2082  function isOwner(address _token) internal view returns(bool) {... */\n    tag_86:\n        /* \"Defi-project/LendingPool_20230217_1.sol\":1856:1860  bool */\n      0x00\n        /* \"Defi-project/LendingPool_20230217_1.sol\":1878:1884  uint i */\n      dup1\n        /* \"Defi-project/LendingPool_20230217_1.sol\":1887:1888  0 */\n      0x00\n        /* \"Defi-project/LendingPool_20230217_1.sol\":1878:1888  uint i = 0 */\n      swap1\n      pop\n        /* \"Defi-project/LendingPool_20230217_1.sol\":1873:2052  for (uint i = 0; i < lenderAssetList[msg.sender].length; i++) {... */\n    tag_95:\n        /* \"Defi-project/LendingPool_20230217_1.sol\":1894:1909  lenderAssetList */\n      0x03\n        /* \"Defi-project/LendingPool_20230217_1.sol\":1894:1921  lenderAssetList[msg.sender] */\n      0x00\n        /* \"Defi-project/LendingPool_20230217_1.sol\":1910:1920  msg.sender */\n      caller\n        /* \"Defi-project/LendingPool_20230217_1.sol\":1894:1921  lenderAssetList[msg.sender] */\n      0xffffffffffffffffffffffffffffffffffffffff\n      and\n      0xffffffffffffffffffffffffffffffffffffffff\n      and\n      dup2\n      mstore\n      0x20\n      add\n      swap1\n      dup2\n      mstore\n      0x20\n      add\n      0x00\n      keccak256\n        /* \"Defi-project/LendingPool_20230217_1.sol\":1894:1928  lenderAssetList[msg.sender].length */\n      dup1\n      sload\n      swap1\n      pop\n        /* \"Defi-project/LendingPool_20230217_1.sol\":1890:1891  i */\n      dup2\n        /* \"Defi-project/LendingPool_20230217_1.sol\":1890:1928  i < lenderAssetList[msg.sender].length */\n      lt\n        /* \"Defi-project/LendingPool_20230217_1.sol\":1873:2052  for (uint i = 0; i < lenderAssetList[msg.sender].length; i++) {... */\n      iszero\n      tag_96\n      jumpi\n        /* \"Defi-project/LendingPool_20230217_1.sol\":1988:1994  _token */\n      dup3\n        /* \"Defi-project/LendingPool_20230217_1.sol\":1954:1994  lenderAssetList[msg.sender][i] == _token */\n      0xffffffffffffffffffffffffffffffffffffffff\n      and\n        /* \"Defi-project/LendingPool_20230217_1.sol\":1954:1969  lenderAssetList */\n      0x03\n        /* \"Defi-project/LendingPool_20230217_1.sol\":1954:1981  lenderAssetList[msg.sender] */\n      0x00\n        /* \"Defi-project/LendingPool_20230217_1.sol\":1970:1980  msg.sender */\n      caller\n        /* \"Defi-project/LendingPool_20230217_1.sol\":1954:1981  lenderAssetList[msg.sender] */\n      0xffffffffffffffffffffffffffffffffffffffff\n      and\n      0xffffffffffffffffffffffffffffffffffffffff\n      and\n      dup2\n      mstore\n      0x20\n      add\n      swap1\n      dup2\n      mstore\n      0x20\n      add\n      0x00\n      keccak256\n        /* \"Defi-project/LendingPool_20230217_1.sol\":1982:1983  i */\n      dup3\n        /* \"Defi-project/LendingPool_20230217_1.sol\":1954:1984  lenderAssetList[msg.sender][i] */\n      dup2\n      sload\n      dup2\n      lt\n      tag_98\n      jumpi\n      tag_99\n      tag_100\n      jump\t// in\n    tag_99:\n    tag_98:\n      swap1\n      0x00\n      mstore\n      keccak256(0x00, 0x20)\n      add\n      0x00\n      swap1\n      sload\n      swap1\n      0x0100\n      exp\n      swap1\n      div\n      0xffffffffffffffffffffffffffffffffffffffff\n      and\n        /* \"Defi-project/LendingPool_20230217_1.sol\":1954:1994  lenderAssetList[msg.sender][i] == _token */\n      0xffffffffffffffffffffffffffffffffffffffff\n      and\n      sub\n        /* \"Defi-project/LendingPool_20230217_1.sol\":1950:2041  if (lenderAssetList[msg.sender][i] == _token){... */\n      tag_102\n      jumpi\n        /* \"Defi-project/LendingPool_20230217_1.sol\":2021:2025  true */\n      0x01\n        /* \"Defi-project/LendingPool_20230217_1.sol\":2014:2025  return true */\n      swap2\n      pop\n      pop\n      jump(tag_94)\n        /* \"Defi-project/LendingPool_20230217_1.sol\":1950:2041  if (lenderAssetList[msg.sender][i] == _token){... */\n    tag_102:\n        /* \"Defi-project/LendingPool_20230217_1.sol\":1930:1933  i++ */\n      dup1\n      dup1\n      tag_103\n      swap1\n      tag_104\n      jump\t// in\n    tag_103:\n      swap2\n      pop\n      pop\n        /* \"Defi-project/LendingPool_20230217_1.sol\":1873:2052  for (uint i = 0; i < lenderAssetList[msg.sender].length; i++) {... */\n      jump(tag_95)\n    tag_96:\n      pop\n        /* \"Defi-project/LendingPool_20230217_1.sol\":2069:2074  false */\n      0x00\n        /* \"Defi-project/LendingPool_20230217_1.sol\":2062:2074  return false */\n      swap1\n      pop\n        /* \"Defi-project/LendingPool_20230217_1.sol\":1801:2082  function isOwner(address _token) internal view returns(bool) {... */\n    tag_94:\n      swap2\n      swap1\n      pop\n      jump\t// out\n        /* \"@openzeppelin/contracts/utils/math/SafeMath.sol\":2755:2851  function add(uint256 a, uint256 b) internal pure returns (uint256) {... */\n    tag_93:\n        /* \"@openzeppelin/contracts/utils/math/SafeMath.sol\":2813:2820  uint256 */\n      0x00\n        /* \"@openzeppelin/contracts/utils/math/SafeMath.sol\":2843:2844  b */\n      dup2\n        /* \"@openzeppelin/contracts/utils/math/SafeMath.sol\":2839:2840  a */\n      dup4\n        /* \"@openzeppelin/contracts/utils/math/SafeMath.sol\":2839:2844  a + b */\n      tag_106\n      swap2\n      swap1\n      tag_77\n      jump\t// in\n    tag_106:\n        /* \"@openzeppelin/contracts/utils/math/SafeMath.sol\":2832:2844  return a + b */\n      swap1\n      pop\n        /* \"@openzeppelin/contracts/utils/math/SafeMath.sol\":2755:2851  function add(uint256 a, uint256 b) internal pure returns (uint256) {... */\n      swap3\n      swap2\n      pop\n      pop\n      jump\t// out\n        /* \"#utility.yul\":7:82   */\n    tag_107:\n        /* \"#utility.yul\":40:46   */\n      0x00\n        /* \"#utility.yul\":73:75   */\n      0x40\n        /* \"#utility.yul\":67:76   */\n      mload\n        /* \"#utility.yul\":57:76   */\n      swap1\n      pop\n        /* \"#utility.yul\":7:82   */\n      swap1\n      jump\t// out\n        /* \"#utility.yul\":88:205   */\n    tag_108:\n        /* \"#utility.yul\":197:198   */\n      0x00\n        /* \"#utility.yul\":194:195   */\n      dup1\n        /* \"#utility.yul\":187:199   */\n      revert\n        /* \"#utility.yul\":211:328   */\n    tag_109:\n        /* \"#utility.yul\":320:321   */\n      0x00\n        /* \"#utility.yul\":317:318   */\n      dup1\n        /* \"#utility.yul\":310:322   */\n      revert\n        /* \"#utility.yul\":334:460   */\n    tag_110:\n        /* \"#utility.yul\":371:378   */\n      0x00\n        /* \"#utility.yul\":411:453   */\n      0xffffffffffffffffffffffffffffffffffffffff\n        /* \"#utility.yul\":404:409   */\n      dup3\n        /* \"#utility.yul\":400:454   */\n      and\n        /* \"#utility.yul\":389:454   */\n      swap1\n      pop\n        /* \"#utility.yul\":334:460   */\n      swap2\n      swap1\n      pop\n      jump\t// out\n        /* \"#utility.yul\":466:562   */\n    tag_111:\n        /* \"#utility.yul\":503:510   */\n      0x00\n        /* \"#utility.yul\":532:556   */\n      tag_161\n        /* \"#utility.yul\":550:555   */\n      dup3\n        /* \"#utility.yul\":532:556   */\n      tag_110\n      jump\t// in\n    tag_161:\n        /* \"#utility.yul\":521:556   */\n      swap1\n      pop\n        /* \"#utility.yul\":466:562   */\n      swap2\n      swap1\n      pop\n      jump\t// out\n        /* \"#utility.yul\":568:690   */\n    tag_112:\n        /* \"#utility.yul\":641:665   */\n      tag_163\n        /* \"#utility.yul\":659:664   */\n      dup2\n        /* \"#utility.yul\":641:665   */\n      tag_111\n      jump\t// in\n    tag_163:\n        /* \"#utility.yul\":634:639   */\n      dup2\n        /* \"#utility.yul\":631:666   */\n      eq\n        /* \"#utility.yul\":621:684   */\n      tag_164\n      jumpi\n        /* \"#utility.yul\":680:681   */\n      0x00\n        /* \"#utility.yul\":677:678   */\n      dup1\n        /* \"#utility.yul\":670:682   */\n      revert\n        /* \"#utility.yul\":621:684   */\n    tag_164:\n        /* \"#utility.yul\":568:690   */\n      pop\n      jump\t// out\n        /* \"#utility.yul\":696:835   */\n    tag_113:\n        /* \"#utility.yul\":742:747   */\n      0x00\n        /* \"#utility.yul\":780:786   */\n      dup2\n        /* \"#utility.yul\":767:787   */\n      calldataload\n        /* \"#utility.yul\":758:787   */\n      swap1\n      pop\n        /* \"#utility.yul\":796:829   */\n      tag_166\n        /* \"#utility.yul\":823:828   */\n      dup2\n        /* \"#utility.yul\":796:829   */\n      tag_112\n      jump\t// in\n    tag_166:\n        /* \"#utility.yul\":696:835   */\n      swap3\n      swap2\n      pop\n      pop\n      jump\t// out\n        /* \"#utility.yul\":841:1170   */\n    tag_16:\n        /* \"#utility.yul\":900:906   */\n      0x00\n        /* \"#utility.yul\":949:951   */\n      0x20\n        /* \"#utility.yul\":937:946   */\n      dup3\n        /* \"#utility.yul\":928:935   */\n      dup5\n        /* \"#utility.yul\":924:947   */\n      sub\n        /* \"#utility.yul\":920:952   */\n      slt\n        /* \"#utility.yul\":917:1036   */\n      iszero\n      tag_168\n      jumpi\n        /* \"#utility.yul\":955:1034   */\n      tag_169\n      tag_108\n      jump\t// in\n    tag_169:\n        /* \"#utility.yul\":917:1036   */\n    tag_168:\n        /* \"#utility.yul\":1075:1076   */\n      0x00\n        /* \"#utility.yul\":1100:1153   */\n      tag_170\n        /* \"#utility.yul\":1145:1152   */\n      dup5\n        /* \"#utility.yul\":1136:1142   */\n      dup3\n        /* \"#utility.yul\":1125:1134   */\n      dup6\n        /* \"#utility.yul\":1121:1143   */\n      add\n        /* \"#utility.yul\":1100:1153   */\n      tag_113\n      jump\t// in\n    tag_170:\n        /* \"#utility.yul\":1090:1153   */\n      swap2\n      pop\n        /* \"#utility.yul\":1046:1163   */\n      pop\n        /* \"#utility.yul\":841:1170   */\n      swap3\n      swap2\n      pop\n      pop\n      jump\t// out\n        /* \"#utility.yul\":1176:1275   */\n    tag_114:\n        /* \"#utility.yul\":1228:1234   */\n      0x00\n        /* \"#utility.yul\":1262:1267   */\n      dup2\n        /* \"#utility.yul\":1256:1268   */\n      mload\n        /* \"#utility.yul\":1246:1268   */\n      swap1\n      pop\n        /* \"#utility.yul\":1176:1275   */\n      swap2\n      swap1\n      pop\n      jump\t// out\n        /* \"#utility.yul\":1281:1450   */\n    tag_115:\n        /* \"#utility.yul\":1365:1376   */\n      0x00\n        /* \"#utility.yul\":1399:1405   */\n      dup3\n        /* \"#utility.yul\":1394:1397   */\n      dup3\n        /* \"#utility.yul\":1387:1406   */\n      mstore\n        /* \"#utility.yul\":1439:1443   */\n      0x20\n        /* \"#utility.yul\":1434:1437   */\n      dup3\n        /* \"#utility.yul\":1430:1444   */\n      add\n        /* \"#utility.yul\":1415:1444   */\n      swap1\n      pop\n        /* \"#utility.yul\":1281:1450   */\n      swap3\n      swap2\n      pop\n      pop\n      jump\t// out\n        /* \"#utility.yul\":1456:1702   */\n    tag_116:\n        /* \"#utility.yul\":1537:1538   */\n      0x00\n        /* \"#utility.yul\":1547:1660   */\n    tag_174:\n        /* \"#utility.yul\":1561:1567   */\n      dup4\n        /* \"#utility.yul\":1558:1559   */\n      dup2\n        /* \"#utility.yul\":1555:1568   */\n      lt\n        /* \"#utility.yul\":1547:1660   */\n      iszero\n      tag_176\n      jumpi\n        /* \"#utility.yul\":1646:1647   */\n      dup1\n        /* \"#utility.yul\":1641:1644   */\n      dup3\n        /* \"#utility.yul\":1637:1648   */\n      add\n        /* \"#utility.yul\":1631:1649   */\n      mload\n        /* \"#utility.yul\":1627:1628   */\n      dup2\n        /* \"#utility.yul\":1622:1625   */\n      dup5\n        /* \"#utility.yul\":1618:1629   */\n      add\n        /* \"#utility.yul\":1611:1650   */\n      mstore\n        /* \"#utility.yul\":1583:1585   */\n      0x20\n        /* \"#utility.yul\":1580:1581   */\n      dup2\n        /* \"#utility.yul\":1576:1586   */\n      add\n        /* \"#utility.yul\":1571:1586   */\n      swap1\n      pop\n        /* \"#utility.yul\":1547:1660   */\n      jump(tag_174)\n    tag_176:\n        /* \"#utility.yul\":1694:1695   */\n      0x00\n        /* \"#utility.yul\":1685:1691   */\n      dup5\n        /* \"#utility.yul\":1680:1683   */\n      dup5\n        /* \"#utility.yul\":1676:1692   */\n      add\n        /* \"#utility.yul\":1669:1696   */\n      mstore\n        /* \"#utility.yul\":1518:1702   */\n      pop\n        /* \"#utility.yul\":1456:1702   */\n      pop\n      pop\n      pop\n      jump\t// out\n        /* \"#utility.yul\":1708:1810   */\n    tag_117:\n        /* \"#utility.yul\":1749:1755   */\n      0x00\n        /* \"#utility.yul\":1800:1802   */\n      0x1f\n        /* \"#utility.yul\":1796:1803   */\n      not\n        /* \"#utility.yul\":1791:1793   */\n      0x1f\n        /* \"#utility.yul\":1784:1789   */\n      dup4\n        /* \"#utility.yul\":1780:1794   */\n      add\n        /* \"#utility.yul\":1776:1804   */\n      and\n        /* \"#utility.yul\":1766:1804   */\n      swap1\n      pop\n        /* \"#utility.yul\":1708:1810   */\n      swap2\n      swap1\n      pop\n      jump\t// out\n        /* \"#utility.yul\":1816:2193   */\n    tag_118:\n        /* \"#utility.yul\":1904:1907   */\n      0x00\n        /* \"#utility.yul\":1932:1971   */\n      tag_179\n        /* \"#utility.yul\":1965:1970   */\n      dup3\n        /* \"#utility.yul\":1932:1971   */\n      tag_114\n      jump\t// in\n    tag_179:\n        /* \"#utility.yul\":1987:2058   */\n      tag_180\n        /* \"#utility.yul\":2051:2057   */\n      dup2\n        /* \"#utility.yul\":2046:2049   */\n      dup6\n        /* \"#utility.yul\":1987:2058   */\n      tag_115\n      jump\t// in\n    tag_180:\n        /* \"#utility.yul\":1980:2058   */\n      swap4\n      pop\n        /* \"#utility.yul\":2067:2132   */\n      tag_181\n        /* \"#utility.yul\":2125:2131   */\n      dup2\n        /* \"#utility.yul\":2120:2123   */\n      dup6\n        /* \"#utility.yul\":2113:2117   */\n      0x20\n        /* \"#utility.yul\":2106:2111   */\n      dup7\n        /* \"#utility.yul\":2102:2118   */\n      add\n        /* \"#utility.yul\":2067:2132   */\n      tag_116\n      jump\t// in\n    tag_181:\n        /* \"#utility.yul\":2157:2186   */\n      tag_182\n        /* \"#utility.yul\":2179:2185   */\n      dup2\n        /* \"#utility.yul\":2157:2186   */\n      tag_117\n      jump\t// in\n    tag_182:\n        /* \"#utility.yul\":2152:2155   */\n      dup5\n        /* \"#utility.yul\":2148:2187   */\n      add\n        /* \"#utility.yul\":2141:2187   */\n      swap2\n      pop\n        /* \"#utility.yul\":1908:2193   */\n      pop\n        /* \"#utility.yul\":1816:2193   */\n      swap3\n      swap2\n      pop\n      pop\n      jump\t// out\n        /* \"#utility.yul\":2199:2512   */\n    tag_19:\n        /* \"#utility.yul\":2312:2316   */\n      0x00\n        /* \"#utility.yul\":2350:2352   */\n      0x20\n        /* \"#utility.yul\":2339:2348   */\n      dup3\n        /* \"#utility.yul\":2335:2353   */\n      add\n        /* \"#utility.yul\":2327:2353   */\n      swap1\n      pop\n        /* \"#utility.yul\":2399:2408   */\n      dup2\n        /* \"#utility.yul\":2393:2397   */\n      dup2\n        /* \"#utility.yul\":2389:2409   */\n      sub\n        /* \"#utility.yul\":2385:2386   */\n      0x00\n        /* \"#utility.yul\":2374:2383   */\n      dup4\n        /* \"#utility.yul\":2370:2387   */\n      add\n        /* \"#utility.yul\":2363:2410   */\n      mstore\n        /* \"#utility.yul\":2427:2505   */\n      tag_184\n        /* \"#utility.yul\":2500:2504   */\n      dup2\n        /* \"#utility.yul\":2491:2497   */\n      dup5\n        /* \"#utility.yul\":2427:2505   */\n      tag_118\n      jump\t// in\n    tag_184:\n        /* \"#utility.yul\":2419:2505   */\n      swap1\n      pop\n        /* \"#utility.yul\":2199:2512   */\n      swap3\n      swap2\n      pop\n      pop\n      jump\t// out\n        /* \"#utility.yul\":2518:2595   */\n    tag_119:\n        /* \"#utility.yul\":2555:2562   */\n      0x00\n        /* \"#utility.yul\":2584:2589   */\n      dup2\n        /* \"#utility.yul\":2573:2589   */\n      swap1\n      pop\n        /* \"#utility.yul\":2518:2595   */\n      swap2\n      swap1\n      pop\n      jump\t// out\n        /* \"#utility.yul\":2601:2723   */\n    tag_120:\n        /* \"#utility.yul\":2674:2698   */\n      tag_187\n        /* \"#utility.yul\":2692:2697   */\n      dup2\n        /* \"#utility.yul\":2674:2698   */\n      tag_119\n      jump\t// in\n    tag_187:\n        /* \"#utility.yul\":2667:2672   */\n      dup2\n        /* \"#utility.yul\":2664:2699   */\n      eq\n        /* \"#utility.yul\":2654:2717   */\n      tag_188\n      jumpi\n        /* \"#utility.yul\":2713:2714   */\n      0x00\n        /* \"#utility.yul\":2710:2711   */\n      dup1\n        /* \"#utility.yul\":2703:2715   */\n      revert\n        /* \"#utility.yul\":2654:2717   */\n    tag_188:\n        /* \"#utility.yul\":2601:2723   */\n      pop\n      jump\t// out\n        /* \"#utility.yul\":2729:2868   */\n    tag_121:\n        /* \"#utility.yul\":2775:2780   */\n      0x00\n        /* \"#utility.yul\":2813:2819   */\n      dup2\n        /* \"#utility.yul\":2800:2820   */\n      calldataload\n        /* \"#utility.yul\":2791:2820   */\n      swap1\n      pop\n        /* \"#utility.yul\":2829:2862   */\n      tag_190\n        /* \"#utility.yul\":2856:2861   */\n      dup2\n        /* \"#utility.yul\":2829:2862   */\n      tag_120\n      jump\t// in\n    tag_190:\n        /* \"#utility.yul\":2729:2868   */\n      swap3\n      swap2\n      pop\n      pop\n      jump\t// out\n        /* \"#utility.yul\":2874:3348   */\n    tag_22:\n        /* \"#utility.yul\":2942:2948   */\n      0x00\n        /* \"#utility.yul\":2950:2956   */\n      dup1\n        /* \"#utility.yul\":2999:3001   */\n      0x40\n        /* \"#utility.yul\":2987:2996   */\n      dup4\n        /* \"#utility.yul\":2978:2985   */\n      dup6\n        /* \"#utility.yul\":2974:2997   */\n      sub\n        /* \"#utility.yul\":2970:3002   */\n      slt\n        /* \"#utility.yul\":2967:3086   */\n      iszero\n      tag_192\n      jumpi\n        /* \"#utility.yul\":3005:3084   */\n      tag_193\n      tag_108\n      jump\t// in\n    tag_193:\n        /* \"#utility.yul\":2967:3086   */\n    tag_192:\n        /* \"#utility.yul\":3125:3126   */\n      0x00\n        /* \"#utility.yul\":3150:3203   */\n      tag_194\n        /* \"#utility.yul\":3195:3202   */\n      dup6\n        /* \"#utility.yul\":3186:3192   */\n      dup3\n        /* \"#utility.yul\":3175:3184   */\n      dup7\n        /* \"#utility.yul\":3171:3193   */\n      add\n        /* \"#utility.yul\":3150:3203   */\n      tag_113\n      jump\t// in\n    tag_194:\n        /* \"#utility.yul\":3140:3203   */\n      swap3\n      pop\n        /* \"#utility.yul\":3096:3213   */\n      pop\n        /* \"#utility.yul\":3252:3254   */\n      0x20\n        /* \"#utility.yul\":3278:3331   */\n      tag_195\n        /* \"#utility.yul\":3323:3330   */\n      dup6\n        /* \"#utility.yul\":3314:3320   */\n      dup3\n        /* \"#utility.yul\":3303:3312   */\n      dup7\n        /* \"#utility.yul\":3299:3321   */\n      add\n        /* \"#utility.yul\":3278:3331   */\n      tag_121\n      jump\t// in\n    tag_195:\n        /* \"#utility.yul\":3268:3331   */\n      swap2\n      pop\n        /* \"#utility.yul\":3223:3341   */\n      pop\n        /* \"#utility.yul\":2874:3348   */\n      swap3\n      pop\n      swap3\n      swap1\n      pop\n      jump\t// out\n        /* \"#utility.yul\":3354:3472   */\n    tag_122:\n        /* \"#utility.yul\":3441:3465   */\n      tag_197\n        /* \"#utility.yul\":3459:3464   */\n      dup2\n        /* \"#utility.yul\":3441:3465   */\n      tag_111\n      jump\t// in\n    tag_197:\n        /* \"#utility.yul\":3436:3439   */\n      dup3\n        /* \"#utility.yul\":3429:3466   */\n      mstore\n        /* \"#utility.yul\":3354:3472   */\n      pop\n      pop\n      jump\t// out\n        /* \"#utility.yul\":3478:3700   */\n    tag_25:\n        /* \"#utility.yul\":3571:3575   */\n      0x00\n        /* \"#utility.yul\":3609:3611   */\n      0x20\n        /* \"#utility.yul\":3598:3607   */\n      dup3\n        /* \"#utility.yul\":3594:3612   */\n      add\n        /* \"#utility.yul\":3586:3612   */\n      swap1\n      pop\n        /* \"#utility.yul\":3622:3693   */\n      tag_199\n        /* \"#utility.yul\":3690:3691   */\n      0x00\n        /* \"#utility.yul\":3679:3688   */\n      dup4\n        /* \"#utility.yul\":3675:3692   */\n      add\n        /* \"#utility.yul\":3666:3672   */\n      dup5\n        /* \"#utility.yul\":3622:3693   */\n      tag_122\n      jump\t// in\n    tag_199:\n        /* \"#utility.yul\":3478:3700   */\n      swap3\n      swap2\n      pop\n      pop\n      jump\t// out\n        /* \"#utility.yul\":3706:4180   */\n    tag_28:\n        /* \"#utility.yul\":3774:3780   */\n      0x00\n        /* \"#utility.yul\":3782:3788   */\n      dup1\n        /* \"#utility.yul\":3831:3833   */\n      0x40\n        /* \"#utility.yul\":3819:3828   */\n      dup4\n        /* \"#utility.yul\":3810:3817   */\n      dup6\n        /* \"#utility.yul\":3806:3829   */\n      sub\n        /* \"#utility.yul\":3802:3834   */\n      slt\n        /* \"#utility.yul\":3799:3918   */\n      iszero\n      tag_201\n      jumpi\n        /* \"#utility.yul\":3837:3916   */\n      tag_202\n      tag_108\n      jump\t// in\n    tag_202:\n        /* \"#utility.yul\":3799:3918   */\n    tag_201:\n        /* \"#utility.yul\":3957:3958   */\n      0x00\n        /* \"#utility.yul\":3982:4035   */\n      tag_203\n        /* \"#utility.yul\":4027:4034   */\n      dup6\n        /* \"#utility.yul\":4018:4024   */\n      dup3\n        /* \"#utility.yul\":4007:4016   */\n      dup7\n        /* \"#utility.yul\":4003:4025   */\n      add\n        /* \"#utility.yul\":3982:4035   */\n      tag_113\n      jump\t// in\n    tag_203:\n        /* \"#utility.yul\":3972:4035   */\n      swap3\n      pop\n        /* \"#utility.yul\":3928:4045   */\n      pop\n        /* \"#utility.yul\":4084:4086   */\n      0x20\n        /* \"#utility.yul\":4110:4163   */\n      tag_204\n        /* \"#utility.yul\":4155:4162   */\n      dup6\n        /* \"#utility.yul\":4146:4152   */\n      dup3\n        /* \"#utility.yul\":4135:4144   */\n      dup7\n        /* \"#utility.yul\":4131:4153   */\n      add\n        /* \"#utility.yul\":4110:4163   */\n      tag_113\n      jump\t// in\n    tag_204:\n        /* \"#utility.yul\":4100:4163   */\n      swap2\n      pop\n        /* \"#utility.yul\":4055:4173   */\n      pop\n        /* \"#utility.yul\":3706:4180   */\n      swap3\n      pop\n      swap3\n      swap1\n      pop\n      jump\t// out\n        /* \"#utility.yul\":4186:4304   */\n    tag_123:\n        /* \"#utility.yul\":4273:4297   */\n      tag_206\n        /* \"#utility.yul\":4291:4296   */\n      dup2\n        /* \"#utility.yul\":4273:4297   */\n      tag_119\n      jump\t// in\n    tag_206:\n        /* \"#utility.yul\":4268:4271   */\n      dup3\n        /* \"#utility.yul\":4261:4298   */\n      mstore\n        /* \"#utility.yul\":4186:4304   */\n      pop\n      pop\n      jump\t// out\n        /* \"#utility.yul\":4310:4532   */\n    tag_31:\n        /* \"#utility.yul\":4403:4407   */\n      0x00\n        /* \"#utility.yul\":4441:4443   */\n      0x20\n        /* \"#utility.yul\":4430:4439   */\n      dup3\n        /* \"#utility.yul\":4426:4444   */\n      add\n        /* \"#utility.yul\":4418:4444   */\n      swap1\n      pop\n        /* \"#utility.yul\":4454:4525   */\n      tag_208\n        /* \"#utility.yul\":4522:4523   */\n      0x00\n        /* \"#utility.yul\":4511:4520   */\n      dup4\n        /* \"#utility.yul\":4507:4524   */\n      add\n        /* \"#utility.yul\":4498:4504   */\n      dup5\n        /* \"#utility.yul\":4454:4525   */\n      tag_123\n      jump\t// in\n    tag_208:\n        /* \"#utility.yul\":4310:4532   */\n      swap3\n      swap2\n      pop\n      pop\n      jump\t// out\n        /* \"#utility.yul\":4538:4655   */\n    tag_124:\n        /* \"#utility.yul\":4647:4648   */\n      0x00\n        /* \"#utility.yul\":4644:4645   */\n      dup1\n        /* \"#utility.yul\":4637:4649   */\n      revert\n        /* \"#utility.yul\":4661:4778   */\n    tag_125:\n        /* \"#utility.yul\":4770:4771   */\n      0x00\n        /* \"#utility.yul\":4767:4768   */\n      dup1\n        /* \"#utility.yul\":4760:4772   */\n      revert\n        /* \"#utility.yul\":4784:4964   */\n    tag_126:\n        /* \"#utility.yul\":4832:4909   */\n      0x4e487b7100000000000000000000000000000000000000000000000000000000\n        /* \"#utility.yul\":4829:4830   */\n      0x00\n        /* \"#utility.yul\":4822:4910   */\n      mstore\n        /* \"#utility.yul\":4929:4933   */\n      0x41\n        /* \"#utility.yul\":4926:4927   */\n      0x04\n        /* \"#utility.yul\":4919:4934   */\n      mstore\n        /* \"#utility.yul\":4953:4957   */\n      0x24\n        /* \"#utility.yul\":4950:4951   */\n      0x00\n        /* \"#utility.yul\":4943:4958   */\n      revert\n        /* \"#utility.yul\":4970:5251   */\n    tag_127:\n        /* \"#utility.yul\":5053:5080   */\n      tag_213\n        /* \"#utility.yul\":5075:5079   */\n      dup3\n        /* \"#utility.yul\":5053:5080   */\n      tag_117\n      jump\t// in\n    tag_213:\n        /* \"#utility.yul\":5045:5051   */\n      dup2\n        /* \"#utility.yul\":5041:5081   */\n      add\n        /* \"#utility.yul\":5183:5189   */\n      dup2\n        /* \"#utility.yul\":5171:5181   */\n      dup2\n        /* \"#utility.yul\":5168:5190   */\n      lt\n        /* \"#utility.yul\":5147:5165   */\n      0xffffffffffffffff\n        /* \"#utility.yul\":5135:5145   */\n      dup3\n        /* \"#utility.yul\":5132:5166   */\n      gt\n        /* \"#utility.yul\":5129:5191   */\n      or\n        /* \"#utility.yul\":5126:5214   */\n      iszero\n      tag_214\n      jumpi\n        /* \"#utility.yul\":5194:5212   */\n      tag_215\n      tag_126\n      jump\t// in\n    tag_215:\n        /* \"#utility.yul\":5126:5214   */\n    tag_214:\n        /* \"#utility.yul\":5234:5244   */\n      dup1\n        /* \"#utility.yul\":5230:5232   */\n      0x40\n        /* \"#utility.yul\":5223:5245   */\n      mstore\n        /* \"#utility.yul\":5013:5251   */\n      pop\n        /* \"#utility.yul\":4970:5251   */\n      pop\n      pop\n      jump\t// out\n        /* \"#utility.yul\":5257:5386   */\n    tag_128:\n        /* \"#utility.yul\":5291:5297   */\n      0x00\n        /* \"#utility.yul\":5318:5338   */\n      tag_217\n      tag_107\n      jump\t// in\n    tag_217:\n        /* \"#utility.yul\":5308:5338   */\n      swap1\n      pop\n        /* \"#utility.yul\":5347:5380   */\n      tag_218\n        /* \"#utility.yul\":5375:5379   */\n      dup3\n        /* \"#utility.yul\":5367:5373   */\n      dup3\n        /* \"#utility.yul\":5347:5380   */\n      tag_127\n      jump\t// in\n    tag_218:\n        /* \"#utility.yul\":5257:5386   */\n      swap2\n      swap1\n      pop\n      jump\t// out\n        /* \"#utility.yul\":5392:5700   */\n    tag_129:\n        /* \"#utility.yul\":5454:5458   */\n      0x00\n        /* \"#utility.yul\":5544:5562   */\n      0xffffffffffffffff\n        /* \"#utility.yul\":5536:5542   */\n      dup3\n        /* \"#utility.yul\":5533:5563   */\n      gt\n        /* \"#utility.yul\":5530:5586   */\n      iszero\n      tag_220\n      jumpi\n        /* \"#utility.yul\":5566:5584   */\n      tag_221\n      tag_126\n      jump\t// in\n    tag_221:\n        /* \"#utility.yul\":5530:5586   */\n    tag_220:\n        /* \"#utility.yul\":5604:5633   */\n      tag_222\n        /* \"#utility.yul\":5626:5632   */\n      dup3\n        /* \"#utility.yul\":5604:5633   */\n      tag_117\n      jump\t// in\n    tag_222:\n        /* \"#utility.yul\":5596:5633   */\n      swap1\n      pop\n        /* \"#utility.yul\":5688:5692   */\n      0x20\n        /* \"#utility.yul\":5682:5686   */\n      dup2\n        /* \"#utility.yul\":5678:5693   */\n      add\n        /* \"#utility.yul\":5670:5693   */\n      swap1\n      pop\n        /* \"#utility.yul\":5392:5700   */\n      swap2\n      swap1\n      pop\n      jump\t// out\n        /* \"#utility.yul\":5706:5852   */\n    tag_130:\n        /* \"#utility.yul\":5803:5809   */\n      dup3\n        /* \"#utility.yul\":5798:5801   */\n      dup2\n        /* \"#utility.yul\":5793:5796   */\n      dup4\n        /* \"#utility.yul\":5780:5810   */\n      calldatacopy\n        /* \"#utility.yul\":5844:5845   */\n      0x00\n        /* \"#utility.yul\":5835:5841   */\n      dup4\n        /* \"#utility.yul\":5830:5833   */\n      dup4\n        /* \"#utility.yul\":5826:5842   */\n      add\n        /* \"#utility.yul\":5819:5846   */\n      mstore\n        /* \"#utility.yul\":5706:5852   */\n      pop\n      pop\n      pop\n      jump\t// out\n        /* \"#utility.yul\":5858:6283   */\n    tag_131:\n        /* \"#utility.yul\":5936:5941   */\n      0x00\n        /* \"#utility.yul\":5961:6027   */\n      tag_225\n        /* \"#utility.yul\":5977:6026   */\n      tag_226\n        /* \"#utility.yul\":6019:6025   */\n      dup5\n        /* \"#utility.yul\":5977:6026   */\n      tag_129\n      jump\t// in\n    tag_226:\n        /* \"#utility.yul\":5961:6027   */\n      tag_128\n      jump\t// in\n    tag_225:\n        /* \"#utility.yul\":5952:6027   */\n      swap1\n      pop\n        /* \"#utility.yul\":6050:6056   */\n      dup3\n        /* \"#utility.yul\":6043:6048   */\n      dup2\n        /* \"#utility.yul\":6036:6057   */\n      mstore\n        /* \"#utility.yul\":6088:6092   */\n      0x20\n        /* \"#utility.yul\":6081:6086   */\n      dup2\n        /* \"#utility.yul\":6077:6093   */\n      add\n        /* \"#utility.yul\":6126:6129   */\n      dup5\n        /* \"#utility.yul\":6117:6123   */\n      dup5\n        /* \"#utility.yul\":6112:6115   */\n      dup5\n        /* \"#utility.yul\":6108:6124   */\n      add\n        /* \"#utility.yul\":6105:6130   */\n      gt\n        /* \"#utility.yul\":6102:6214   */\n      iszero\n      tag_227\n      jumpi\n        /* \"#utility.yul\":6133:6212   */\n      tag_228\n      tag_125\n      jump\t// in\n    tag_228:\n        /* \"#utility.yul\":6102:6214   */\n    tag_227:\n        /* \"#utility.yul\":6223:6277   */\n      tag_229\n        /* \"#utility.yul\":6270:6276   */\n      dup5\n        /* \"#utility.yul\":6265:6268   */\n      dup3\n        /* \"#utility.yul\":6260:6263   */\n      dup6\n        /* \"#utility.yul\":6223:6277   */\n      tag_130\n      jump\t// in\n    tag_229:\n        /* \"#utility.yul\":5942:6283   */\n      pop\n        /* \"#utility.yul\":5858:6283   */\n      swap4\n      swap3\n      pop\n      pop\n      pop\n      jump\t// out\n        /* \"#utility.yul\":6303:6643   */\n    tag_132:\n        /* \"#utility.yul\":6359:6364   */\n      0x00\n        /* \"#utility.yul\":6408:6411   */\n      dup3\n        /* \"#utility.yul\":6401:6405   */\n      0x1f\n        /* \"#utility.yul\":6393:6399   */\n      dup4\n        /* \"#utility.yul\":6389:6406   */\n      add\n        /* \"#utility.yul\":6385:6412   */\n      slt\n        /* \"#utility.yul\":6375:6497   */\n      tag_231\n      jumpi\n        /* \"#utility.yul\":6416:6495   */\n      tag_232\n      tag_124\n      jump\t// in\n    tag_232:\n        /* \"#utility.yul\":6375:6497   */\n    tag_231:\n        /* \"#utility.yul\":6533:6539   */\n      dup2\n        /* \"#utility.yul\":6520:6540   */\n      calldataload\n        /* \"#utility.yul\":6558:6637   */\n      tag_233\n        /* \"#utility.yul\":6633:6636   */\n      dup5\n        /* \"#utility.yul\":6625:6631   */\n      dup3\n        /* \"#utility.yul\":6618:6622   */\n      0x20\n        /* \"#utility.yul\":6610:6616   */\n      dup7\n        /* \"#utility.yul\":6606:6623   */\n      add\n        /* \"#utility.yul\":6558:6637   */\n      tag_131\n      jump\t// in\n    tag_233:\n        /* \"#utility.yul\":6549:6637   */\n      swap2\n      pop\n        /* \"#utility.yul\":6365:6643   */\n      pop\n        /* \"#utility.yul\":6303:6643   */\n      swap3\n      swap2\n      pop\n      pop\n      jump\t// out\n        /* \"#utility.yul\":6649:7303   */\n    tag_52:\n        /* \"#utility.yul\":6727:6733   */\n      0x00\n        /* \"#utility.yul\":6735:6741   */\n      dup1\n        /* \"#utility.yul\":6784:6786   */\n      0x40\n        /* \"#utility.yul\":6772:6781   */\n      dup4\n        /* \"#utility.yul\":6763:6770   */\n      dup6\n        /* \"#utility.yul\":6759:6782   */\n      sub\n        /* \"#utility.yul\":6755:6787   */\n      slt\n        /* \"#utility.yul\":6752:6871   */\n      iszero\n      tag_235\n      jumpi\n        /* \"#utility.yul\":6790:6869   */\n      tag_236\n      tag_108\n      jump\t// in\n    tag_236:\n        /* \"#utility.yul\":6752:6871   */\n    tag_235:\n        /* \"#utility.yul\":6910:6911   */\n      0x00\n        /* \"#utility.yul\":6935:6988   */\n      tag_237\n        /* \"#utility.yul\":6980:6987   */\n      dup6\n        /* \"#utility.yul\":6971:6977   */\n      dup3\n        /* \"#utility.yul\":6960:6969   */\n      dup7\n        /* \"#utility.yul\":6956:6978   */\n      add\n        /* \"#utility.yul\":6935:6988   */\n      tag_113\n      jump\t// in\n    tag_237:\n        /* \"#utility.yul\":6925:6988   */\n      swap3\n      pop\n        /* \"#utility.yul\":6881:6998   */\n      pop\n        /* \"#utility.yul\":7065:7067   */\n      0x20\n        /* \"#utility.yul\":7054:7063   */\n      dup4\n        /* \"#utility.yul\":7050:7068   */\n      add\n        /* \"#utility.yul\":7037:7069   */\n      calldataload\n        /* \"#utility.yul\":7096:7114   */\n      0xffffffffffffffff\n        /* \"#utility.yul\":7088:7094   */\n      dup2\n        /* \"#utility.yul\":7085:7115   */\n      gt\n        /* \"#utility.yul\":7082:7199   */\n      iszero\n      tag_238\n      jumpi\n        /* \"#utility.yul\":7118:7197   */\n      tag_239\n      tag_109\n      jump\t// in\n    tag_239:\n        /* \"#utility.yul\":7082:7199   */\n    tag_238:\n        /* \"#utility.yul\":7223:7286   */\n      tag_240\n        /* \"#utility.yul\":7278:7285   */\n      dup6\n        /* \"#utility.yul\":7269:7275   */\n      dup3\n        /* \"#utility.yul\":7258:7267   */\n      dup7\n        /* \"#utility.yul\":7254:7276   */\n      add\n        /* \"#utility.yul\":7223:7286   */\n      tag_132\n      jump\t// in\n    tag_240:\n        /* \"#utility.yul\":7213:7286   */\n      swap2\n      pop\n        /* \"#utility.yul\":7008:7296   */\n      pop\n        /* \"#utility.yul\":6649:7303   */\n      swap3\n      pop\n      swap3\n      swap1\n      pop\n      jump\t// out\n        /* \"#utility.yul\":7309:7489   */\n    tag_133:\n        /* \"#utility.yul\":7357:7434   */\n      0x4e487b7100000000000000000000000000000000000000000000000000000000\n        /* \"#utility.yul\":7354:7355   */\n      0x00\n        /* \"#utility.yul\":7347:7435   */\n      mstore\n        /* \"#utility.yul\":7454:7458   */\n      0x22\n        /* \"#utility.yul\":7451:7452   */\n      0x04\n        /* \"#utility.yul\":7444:7459   */\n      mstore\n        /* \"#utility.yul\":7478:7482   */\n      0x24\n        /* \"#utility.yul\":7475:7476   */\n      0x00\n        /* \"#utility.yul\":7468:7483   */\n      revert\n        /* \"#utility.yul\":7495:7815   */\n    tag_58:\n        /* \"#utility.yul\":7539:7545   */\n      0x00\n        /* \"#utility.yul\":7576:7577   */\n      0x02\n        /* \"#utility.yul\":7570:7574   */\n      dup3\n        /* \"#utility.yul\":7566:7578   */\n      div\n        /* \"#utility.yul\":7556:7578   */\n      swap1\n      pop\n        /* \"#utility.yul\":7623:7624   */\n      0x01\n        /* \"#utility.yul\":7617:7621   */\n      dup3\n        /* \"#utility.yul\":7613:7625   */\n      and\n        /* \"#utility.yul\":7644:7662   */\n      dup1\n        /* \"#utility.yul\":7634:7715   */\n      tag_243\n      jumpi\n        /* \"#utility.yul\":7700:7704   */\n      0x7f\n        /* \"#utility.yul\":7692:7698   */\n      dup3\n        /* \"#utility.yul\":7688:7705   */\n      and\n        /* \"#utility.yul\":7678:7705   */\n      swap2\n      pop\n        /* \"#utility.yul\":7634:7715   */\n    tag_243:\n        /* \"#utility.yul\":7762:7764   */\n      0x20\n        /* \"#utility.yul\":7754:7760   */\n      dup3\n        /* \"#utility.yul\":7751:7765   */\n      lt\n        /* \"#utility.yul\":7731:7749   */\n      dup2\n        /* \"#utility.yul\":7728:7766   */\n      sub\n        /* \"#utility.yul\":7725:7809   */\n      tag_244\n      jumpi\n        /* \"#utility.yul\":7781:7799   */\n      tag_245\n      tag_133\n      jump\t// in\n    tag_245:\n        /* \"#utility.yul\":7725:7809   */\n    tag_244:\n        /* \"#utility.yul\":7546:7815   */\n      pop\n        /* \"#utility.yul\":7495:7815   */\n      swap2\n      swap1\n      pop\n      jump\t// out\n        /* \"#utility.yul\":7821:8001   */\n    tag_134:\n        /* \"#utility.yul\":7869:7946   */\n      0x4e487b7100000000000000000000000000000000000000000000000000000000\n        /* \"#utility.yul\":7866:7867   */\n      0x00\n        /* \"#utility.yul\":7859:7947   */\n      mstore\n        /* \"#utility.yul\":7966:7970   */\n      0x11\n        /* \"#utility.yul\":7963:7964   */\n      0x04\n        /* \"#utility.yul\":7956:7971   */\n      mstore\n        /* \"#utility.yul\":7990:7994   */\n      0x24\n        /* \"#utility.yul\":7987:7988   */\n      0x00\n        /* \"#utility.yul\":7980:7995   */\n      revert\n        /* \"#utility.yul\":8007:8201   */\n    tag_67:\n        /* \"#utility.yul\":8047:8051   */\n      0x00\n        /* \"#utility.yul\":8067:8087   */\n      tag_248\n        /* \"#utility.yul\":8085:8086   */\n      dup3\n        /* \"#utility.yul\":8067:8087   */\n      tag_119\n      jump\t// in\n    tag_248:\n        /* \"#utility.yul\":8062:8087   */\n      swap2\n      pop\n        /* \"#utility.yul\":8101:8121   */\n      tag_249\n        /* \"#utility.yul\":8119:8120   */\n      dup4\n        /* \"#utility.yul\":8101:8121   */\n      tag_119\n      jump\t// in\n    tag_249:\n        /* \"#utility.yul\":8096:8121   */\n      swap3\n      pop\n        /* \"#utility.yul\":8145:8146   */\n      dup3\n        /* \"#utility.yul\":8142:8143   */\n      dup3\n        /* \"#utility.yul\":8138:8147   */\n      sub\n        /* \"#utility.yul\":8130:8147   */\n      swap1\n      pop\n        /* \"#utility.yul\":8169:8170   */\n      dup2\n        /* \"#utility.yul\":8163:8167   */\n      dup2\n        /* \"#utility.yul\":8160:8171   */\n      gt\n        /* \"#utility.yul\":8157:8194   */\n      iszero\n      tag_250\n      jumpi\n        /* \"#utility.yul\":8174:8192   */\n      tag_251\n      tag_134\n      jump\t// in\n    tag_251:\n        /* \"#utility.yul\":8157:8194   */\n    tag_250:\n        /* \"#utility.yul\":8007:8201   */\n      swap3\n      swap2\n      pop\n      pop\n      jump\t// out\n        /* \"#utility.yul\":8207:8617   */\n    tag_69:\n        /* \"#utility.yul\":8247:8254   */\n      0x00\n        /* \"#utility.yul\":8270:8290   */\n      tag_253\n        /* \"#utility.yul\":8288:8289   */\n      dup3\n        /* \"#utility.yul\":8270:8290   */\n      tag_119\n      jump\t// in\n    tag_253:\n        /* \"#utility.yul\":8265:8290   */\n      swap2\n      pop\n        /* \"#utility.yul\":8304:8324   */\n      tag_254\n        /* \"#utility.yul\":8322:8323   */\n      dup4\n        /* \"#utility.yul\":8304:8324   */\n      tag_119\n      jump\t// in\n    tag_254:\n        /* \"#utility.yul\":8299:8324   */\n      swap3\n      pop\n        /* \"#utility.yul\":8359:8360   */\n      dup3\n        /* \"#utility.yul\":8356:8357   */\n      dup3\n        /* \"#utility.yul\":8352:8361   */\n      mul\n        /* \"#utility.yul\":8381:8411   */\n      tag_255\n        /* \"#utility.yul\":8399:8410   */\n      dup2\n        /* \"#utility.yul\":8381:8411   */\n      tag_119\n      jump\t// in\n    tag_255:\n        /* \"#utility.yul\":8370:8411   */\n      swap2\n      pop\n        /* \"#utility.yul\":8560:8561   */\n      dup3\n        /* \"#utility.yul\":8551:8558   */\n      dup3\n        /* \"#utility.yul\":8547:8562   */\n      div\n        /* \"#utility.yul\":8544:8545   */\n      dup5\n        /* \"#utility.yul\":8541:8563   */\n      eq\n        /* \"#utility.yul\":8521:8522   */\n      dup4\n        /* \"#utility.yul\":8514:8523   */\n      iszero\n        /* \"#utility.yul\":8494:8577   */\n      or\n        /* \"#utility.yul\":8471:8610   */\n      tag_256\n      jumpi\n        /* \"#utility.yul\":8590:8608   */\n      tag_257\n      tag_134\n      jump\t// in\n    tag_257:\n        /* \"#utility.yul\":8471:8610   */\n    tag_256:\n        /* \"#utility.yul\":8255:8617   */\n      pop\n        /* \"#utility.yul\":8207:8617   */\n      swap3\n      swap2\n      pop\n      pop\n      jump\t// out\n        /* \"#utility.yul\":8623:8803   */\n    tag_135:\n        /* \"#utility.yul\":8671:8748   */\n      0x4e487b7100000000000000000000000000000000000000000000000000000000\n        /* \"#utility.yul\":8668:8669   */\n      0x00\n        /* \"#utility.yul\":8661:8749   */\n      mstore\n        /* \"#utility.yul\":8768:8772   */\n      0x12\n        /* \"#utility.yul\":8765:8766   */\n      0x04\n        /* \"#utility.yul\":8758:8773   */\n      mstore\n        /* \"#utility.yul\":8792:8796   */\n      0x24\n        /* \"#utility.yul\":8789:8790   */\n      0x00\n        /* \"#utility.yul\":8782:8797   */\n      revert\n        /* \"#utility.yul\":8809:8994   */\n    tag_72:\n        /* \"#utility.yul\":8849:8850   */\n      0x00\n        /* \"#utility.yul\":8866:8886   */\n      tag_260\n        /* \"#utility.yul\":8884:8885   */\n      dup3\n        /* \"#utility.yul\":8866:8886   */\n      tag_119\n      jump\t// in\n    tag_260:\n        /* \"#utility.yul\":8861:8886   */\n      swap2\n      pop\n        /* \"#utility.yul\":8900:8920   */\n      tag_261\n        /* \"#utility.yul\":8918:8919   */\n      dup4\n        /* \"#utility.yul\":8900:8920   */\n      tag_119\n      jump\t// in\n    tag_261:\n        /* \"#utility.yul\":8895:8920   */\n      swap3\n      pop\n        /* \"#utility.yul\":8939:8940   */\n      dup3\n        /* \"#utility.yul\":8929:8964   */\n      tag_262\n      jumpi\n        /* \"#utility.yul\":8944:8962   */\n      tag_263\n      tag_135\n      jump\t// in\n    tag_263:\n        /* \"#utility.yul\":8929:8964   */\n    tag_262:\n        /* \"#utility.yul\":8986:8987   */\n      dup3\n        /* \"#utility.yul\":8983:8984   */\n      dup3\n        /* \"#utility.yul\":8979:8988   */\n      div\n        /* \"#utility.yul\":8974:8988   */\n      swap1\n      pop\n        /* \"#utility.yul\":8809:8994   */\n      swap3\n      swap2\n      pop\n      pop\n      jump\t// out\n        /* \"#utility.yul\":9000:9191   */\n    tag_77:\n        /* \"#utility.yul\":9040:9043   */\n      0x00\n        /* \"#utility.yul\":9059:9079   */\n      tag_265\n        /* \"#utility.yul\":9077:9078   */\n      dup3\n        /* \"#utility.yul\":9059:9079   */\n      tag_119\n      jump\t// in\n    tag_265:\n        /* \"#utility.yul\":9054:9079   */\n      swap2\n      pop\n        /* \"#utility.yul\":9093:9113   */\n      tag_266\n        /* \"#utility.yul\":9111:9112   */\n      dup4\n        /* \"#utility.yul\":9093:9113   */\n      tag_119\n      jump\t// in\n    tag_266:\n        /* \"#utility.yul\":9088:9113   */\n      swap3\n      pop\n        /* \"#utility.yul\":9136:9137   */\n      dup3\n        /* \"#utility.yul\":9133:9134   */\n      dup3\n        /* \"#utility.yul\":9129:9138   */\n      add\n        /* \"#utility.yul\":9122:9138   */\n      swap1\n      pop\n        /* \"#utility.yul\":9157:9160   */\n      dup1\n        /* \"#utility.yul\":9154:9155   */\n      dup3\n        /* \"#utility.yul\":9151:9161   */\n      gt\n        /* \"#utility.yul\":9148:9184   */\n      iszero\n      tag_267\n      jumpi\n        /* \"#utility.yul\":9164:9182   */\n      tag_268\n      tag_134\n      jump\t// in\n    tag_268:\n        /* \"#utility.yul\":9148:9184   */\n    tag_267:\n        /* \"#utility.yul\":9000:9191   */\n      swap3\n      swap2\n      pop\n      pop\n      jump\t// out\n        /* \"#utility.yul\":9197:9368   */\n    tag_136:\n        /* \"#utility.yul\":9337:9360   */\n      0x4e6f74204f776e65722c2043616e6e6f74206164640000000000000000000000\n        /* \"#utility.yul\":9333:9334   */\n      0x00\n        /* \"#utility.yul\":9325:9331   */\n      dup3\n        /* \"#utility.yul\":9321:9335   */\n      add\n        /* \"#utility.yul\":9314:9361   */\n      mstore\n        /* \"#utility.yul\":9197:9368   */\n      pop\n      jump\t// out\n        /* \"#utility.yul\":9374:9740   */\n    tag_137:\n        /* \"#utility.yul\":9516:9519   */\n      0x00\n        /* \"#utility.yul\":9537:9604   */\n      tag_271\n        /* \"#utility.yul\":9601:9603   */\n      0x15\n        /* \"#utility.yul\":9596:9599   */\n      dup4\n        /* \"#utility.yul\":9537:9604   */\n      tag_115\n      jump\t// in\n    tag_271:\n        /* \"#utility.yul\":9530:9604   */\n      swap2\n      pop\n        /* \"#utility.yul\":9613:9706   */\n      tag_272\n        /* \"#utility.yul\":9702:9705   */\n      dup3\n        /* \"#utility.yul\":9613:9706   */\n      tag_136\n      jump\t// in\n    tag_272:\n        /* \"#utility.yul\":9731:9733   */\n      0x20\n        /* \"#utility.yul\":9726:9729   */\n      dup3\n        /* \"#utility.yul\":9722:9734   */\n      add\n        /* \"#utility.yul\":9715:9734   */\n      swap1\n      pop\n        /* \"#utility.yul\":9374:9740   */\n      swap2\n      swap1\n      pop\n      jump\t// out\n        /* \"#utility.yul\":9746:10165   */\n    tag_81:\n        /* \"#utility.yul\":9912:9916   */\n      0x00\n        /* \"#utility.yul\":9950:9952   */\n      0x20\n        /* \"#utility.yul\":9939:9948   */\n      dup3\n        /* \"#utility.yul\":9935:9953   */\n      add\n        /* \"#utility.yul\":9927:9953   */\n      swap1\n      pop\n        /* \"#utility.yul\":9999:10008   */\n      dup2\n        /* \"#utility.yul\":9993:9997   */\n      dup2\n        /* \"#utility.yul\":9989:10009   */\n      sub\n        /* \"#utility.yul\":9985:9986   */\n      0x00\n        /* \"#utility.yul\":9974:9983   */\n      dup4\n        /* \"#utility.yul\":9970:9987   */\n      add\n        /* \"#utility.yul\":9963:10010   */\n      mstore\n        /* \"#utility.yul\":10027:10158   */\n      tag_274\n        /* \"#utility.yul\":10153:10157   */\n      dup2\n        /* \"#utility.yul\":10027:10158   */\n      tag_137\n      jump\t// in\n    tag_274:\n        /* \"#utility.yul\":10019:10158   */\n      swap1\n      pop\n        /* \"#utility.yul\":9746:10165   */\n      swap2\n      swap1\n      pop\n      jump\t// out\n        /* \"#utility.yul\":10171:10312   */\n    tag_138:\n        /* \"#utility.yul\":10220:10224   */\n      0x00\n        /* \"#utility.yul\":10243:10246   */\n      dup2\n        /* \"#utility.yul\":10235:10246   */\n      swap1\n      pop\n        /* \"#utility.yul\":10266:10269   */\n      dup2\n        /* \"#utility.yul\":10263:10264   */\n      0x00\n        /* \"#utility.yul\":10256:10270   */\n      mstore\n        /* \"#utility.yul\":10300:10304   */\n      0x20\n        /* \"#utility.yul\":10297:10298   */\n      0x00\n        /* \"#utility.yul\":10287:10305   */\n      keccak256\n        /* \"#utility.yul\":10279:10305   */\n      swap1\n      pop\n        /* \"#utility.yul\":10171:10312   */\n      swap2\n      swap1\n      pop\n      jump\t// out\n        /* \"#utility.yul\":10318:10411   */\n    tag_139:\n        /* \"#utility.yul\":10355:10361   */\n      0x00\n        /* \"#utility.yul\":10402:10404   */\n      0x20\n        /* \"#utility.yul\":10397:10399   */\n      0x1f\n        /* \"#utility.yul\":10390:10395   */\n      dup4\n        /* \"#utility.yul\":10386:10400   */\n      add\n        /* \"#utility.yul\":10382:10405   */\n      div\n        /* \"#utility.yul\":10372:10405   */\n      swap1\n      pop\n        /* \"#utility.yul\":10318:10411   */\n      swap2\n      swap1\n      pop\n      jump\t// out\n        /* \"#utility.yul\":10417:10524   */\n    tag_140:\n        /* \"#utility.yul\":10461:10469   */\n      0x00\n        /* \"#utility.yul\":10511:10516   */\n      dup3\n        /* \"#utility.yul\":10505:10509   */\n      dup3\n        /* \"#utility.yul\":10501:10517   */\n      shl\n        /* \"#utility.yul\":10480:10517   */\n      swap1\n      pop\n        /* \"#utility.yul\":10417:10524   */\n      swap3\n      swap2\n      pop\n      pop\n      jump\t// out\n        /* \"#utility.yul\":10530:10923   */\n    tag_141:\n        /* \"#utility.yul\":10599:10605   */\n      0x00\n        /* \"#utility.yul\":10649:10650   */\n      0x08\n        /* \"#utility.yul\":10637:10647   */\n      dup4\n        /* \"#utility.yul\":10633:10651   */\n      mul\n        /* \"#utility.yul\":10672:10769   */\n      tag_279\n        /* \"#utility.yul\":10702:10768   */\n      0xffffffffffffffffffffffffffffffffffffffffffffffffffffffffffffffff\n        /* \"#utility.yul\":10691:10700   */\n      dup3\n        /* \"#utility.yul\":10672:10769   */\n      tag_140\n      jump\t// in\n    tag_279:\n        /* \"#utility.yul\":10790:10829   */\n      tag_280\n        /* \"#utility.yul\":10820:10828   */\n      dup7\n        /* \"#utility.yul\":10809:10818   */\n      dup4\n        /* \"#utility.yul\":10790:10829   */\n      tag_140\n      jump\t// in\n    tag_280:\n        /* \"#utility.yul\":10778:10829   */\n      swap6\n      pop\n        /* \"#utility.yul\":10862:10866   */\n      dup1\n        /* \"#utility.yul\":10858:10867   */\n      not\n        /* \"#utility.yul\":10851:10856   */\n      dup5\n        /* \"#utility.yul\":10847:10868   */\n      and\n        /* \"#utility.yul\":10838:10868   */\n      swap4\n      pop\n        /* \"#utility.yul\":10911:10915   */\n      dup1\n        /* \"#utility.yul\":10901:10909   */\n      dup7\n        /* \"#utility.yul\":10897:10916   */\n      and\n        /* \"#utility.yul\":10890:10895   */\n      dup5\n        /* \"#utility.yul\":10887:10917   */\n      or\n        /* \"#utility.yul\":10877:10917   */\n      swap3\n      pop\n        /* \"#utility.yul\":10606:10923   */\n      pop\n      pop\n        /* \"#utility.yul\":10530:10923   */\n      swap4\n      swap3\n      pop\n      pop\n      pop\n      jump\t// out\n        /* \"#utility.yul\":10929:10989   */\n    tag_142:\n        /* \"#utility.yul\":10957:10960   */\n      0x00\n        /* \"#utility.yul\":10978:10983   */\n      dup2\n        /* \"#utility.yul\":10971:10983   */\n      swap1\n      pop\n        /* \"#utility.yul\":10929:10989   */\n      swap2\n      swap1\n      pop\n      jump\t// out\n        /* \"#utility.yul\":10995:11137   */\n    tag_143:\n        /* \"#utility.yul\":11045:11054   */\n      0x00\n        /* \"#utility.yul\":11078:11131   */\n      tag_283\n        /* \"#utility.yul\":11096:11130   */\n      tag_284\n        /* \"#utility.yul\":11105:11129   */\n      tag_285\n        /* \"#utility.yul\":11123:11128   */\n      dup5\n        /* \"#utility.yul\":11105:11129   */\n      tag_119\n      jump\t// in\n    tag_285:\n        /* \"#utility.yul\":11096:11130   */\n      tag_142\n      jump\t// in\n    tag_284:\n        /* \"#utility.yul\":11078:11131   */\n      tag_119\n      jump\t// in\n    tag_283:\n        /* \"#utility.yul\":11065:11131   */\n      swap1\n      pop\n        /* \"#utility.yul\":10995:11137   */\n      swap2\n      swap1\n      pop\n      jump\t// out\n        /* \"#utility.yul\":11143:11218   */\n    tag_144:\n        /* \"#utility.yul\":11186:11189   */\n      0x00\n        /* \"#utility.yul\":11207:11212   */\n      dup2\n        /* \"#utility.yul\":11200:11212   */\n      swap1\n      pop\n        /* \"#utility.yul\":11143:11218   */\n      swap2\n      swap1\n      pop\n      jump\t// out\n        /* \"#utility.yul\":11224:11493   */\n    tag_145:\n        /* \"#utility.yul\":11334:11373   */\n      tag_288\n        /* \"#utility.yul\":11365:11372   */\n      dup4\n        /* \"#utility.yul\":11334:11373   */\n      tag_143\n      jump\t// in\n    tag_288:\n        /* \"#utility.yul\":11395:11486   */\n      tag_289\n        /* \"#utility.yul\":11444:11485   */\n      tag_290\n        /* \"#utility.yul\":11468:11484   */\n      dup3\n        /* \"#utility.yul\":11444:11485   */\n      tag_144\n      jump\t// in\n    tag_290:\n        /* \"#utility.yul\":11436:11442   */\n      dup5\n        /* \"#utility.yul\":11429:11433   */\n      dup5\n        /* \"#utility.yul\":11423:11434   */\n      sload\n        /* \"#utility.yul\":11395:11486   */\n      tag_141\n      jump\t// in\n    tag_289:\n        /* \"#utility.yul\":11389:11393   */\n      dup3\n        /* \"#utility.yul\":11382:11487   */\n      sstore\n        /* \"#utility.yul\":11300:11493   */\n      pop\n        /* \"#utility.yul\":11224:11493   */\n      pop\n      pop\n      pop\n      jump\t// out\n        /* \"#utility.yul\":11499:11572   */\n    tag_146:\n        /* \"#utility.yul\":11544:11547   */\n      0x00\n        /* \"#utility.yul\":11499:11572   */\n      swap1\n      jump\t// out\n        /* \"#utility.yul\":11578:11767   */\n    tag_147:\n        /* \"#utility.yul\":11655:11687   */\n      tag_293\n      tag_146\n      jump\t// in\n    tag_293:\n        /* \"#utility.yul\":11696:11761   */\n      tag_294\n        /* \"#utility.yul\":11754:11760   */\n      dup2\n        /* \"#utility.yul\":11746:11752   */\n      dup5\n        /* \"#utility.yul\":11740:11744   */\n      dup5\n        /* \"#utility.yul\":11696:11761   */\n      tag_145\n      jump\t// in\n    tag_294:\n        /* \"#utility.yul\":11631:11767   */\n      pop\n        /* \"#utility.yul\":11578:11767   */\n      pop\n      pop\n      jump\t// out\n        /* \"#utility.yul\":11773:11959   */\n    tag_148:\n        /* \"#utility.yul\":11833:11953   */\n    tag_296:\n        /* \"#utility.yul\":11850:11853   */\n      dup2\n        /* \"#utility.yul\":11843:11848   */\n      dup2\n        /* \"#utility.yul\":11840:11854   */\n      lt\n        /* \"#utility.yul\":11833:11953   */\n      iszero\n      tag_298\n      jumpi\n        /* \"#utility.yul\":11904:11943   */\n      tag_299\n        /* \"#utility.yul\":11941:11942   */\n      0x00\n        /* \"#utility.yul\":11934:11939   */\n      dup3\n        /* \"#utility.yul\":11904:11943   */\n      tag_147\n      jump\t// in\n    tag_299:\n        /* \"#utility.yul\":11877:11878   */\n      0x01\n        /* \"#utility.yul\":11870:11875   */\n      dup2\n        /* \"#utility.yul\":11866:11879   */\n      add\n        /* \"#utility.yul\":11857:11879   */\n      swap1\n      pop\n        /* \"#utility.yul\":11833:11953   */\n      jump(tag_296)\n    tag_298:\n        /* \"#utility.yul\":11773:11959   */\n      pop\n      pop\n      jump\t// out\n        /* \"#utility.yul\":11965:12508   */\n    tag_149:\n        /* \"#utility.yul\":12066:12068   */\n      0x1f\n        /* \"#utility.yul\":12061:12064   */\n      dup3\n        /* \"#utility.yul\":12058:12069   */\n      gt\n        /* \"#utility.yul\":12055:12501   */\n      iszero\n      tag_301\n      jumpi\n        /* \"#utility.yul\":12100:12138   */\n      tag_302\n        /* \"#utility.yul\":12132:12137   */\n      dup2\n        /* \"#utility.yul\":12100:12138   */\n      tag_138\n      jump\t// in\n    tag_302:\n        /* \"#utility.yul\":12184:12213   */\n      tag_303\n        /* \"#utility.yul\":12202:12212   */\n      dup5\n        /* \"#utility.yul\":12184:12213   */\n      tag_139\n      jump\t// in\n    tag_303:\n        /* \"#utility.yul\":12174:12182   */\n      dup2\n        /* \"#utility.yul\":12170:12214   */\n      add\n        /* \"#utility.yul\":12367:12369   */\n      0x20\n        /* \"#utility.yul\":12355:12365   */\n      dup6\n        /* \"#utility.yul\":12352:12370   */\n      lt\n        /* \"#utility.yul\":12349:12398   */\n      iszero\n      tag_304\n      jumpi\n        /* \"#utility.yul\":12388:12396   */\n      dup2\n        /* \"#utility.yul\":12373:12396   */\n      swap1\n      pop\n        /* \"#utility.yul\":12349:12398   */\n    tag_304:\n        /* \"#utility.yul\":12411:12491   */\n      tag_305\n        /* \"#utility.yul\":12467:12489   */\n      tag_306\n        /* \"#utility.yul\":12485:12488   */\n      dup6\n        /* \"#utility.yul\":12467:12489   */\n      tag_139\n      jump\t// in\n    tag_306:\n        /* \"#utility.yul\":12457:12465   */\n      dup4\n        /* \"#utility.yul\":12453:12490   */\n      add\n        /* \"#utility.yul\":12440:12451   */\n      dup3\n        /* \"#utility.yul\":12411:12491   */\n      tag_148\n      jump\t// in\n    tag_305:\n        /* \"#utility.yul\":12070:12501   */\n      pop\n      pop\n        /* \"#utility.yul\":12055:12501   */\n    tag_301:\n        /* \"#utility.yul\":11965:12508   */\n      pop\n      pop\n      pop\n      jump\t// out\n        /* \"#utility.yul\":12514:12631   */\n    tag_150:\n        /* \"#utility.yul\":12568:12576   */\n      0x00\n        /* \"#utility.yul\":12618:12623   */\n      dup3\n        /* \"#utility.yul\":12612:12616   */\n      dup3\n        /* \"#utility.yul\":12608:12624   */\n      shr\n        /* \"#utility.yul\":12587:12624   */\n      swap1\n      pop\n        /* \"#utility.yul\":12514:12631   */\n      swap3\n      swap2\n      pop\n      pop\n      jump\t// out\n        /* \"#utility.yul\":12637:12806   */\n    tag_151:\n        /* \"#utility.yul\":12681:12687   */\n      0x00\n        /* \"#utility.yul\":12714:12765   */\n      tag_309\n        /* \"#utility.yul\":12762:12763   */\n      0x00\n        /* \"#utility.yul\":12758:12764   */\n      not\n        /* \"#utility.yul\":12750:12755   */\n      dup5\n        /* \"#utility.yul\":12747:12748   */\n      0x08\n        /* \"#utility.yul\":12743:12756   */\n      mul\n        /* \"#utility.yul\":12714:12765   */\n      tag_150\n      jump\t// in\n    tag_309:\n        /* \"#utility.yul\":12710:12766   */\n      not\n        /* \"#utility.yul\":12795:12799   */\n      dup1\n        /* \"#utility.yul\":12789:12793   */\n      dup4\n        /* \"#utility.yul\":12785:12800   */\n      and\n        /* \"#utility.yul\":12775:12800   */\n      swap2\n      pop\n        /* \"#utility.yul\":12688:12806   */\n      pop\n        /* \"#utility.yul\":12637:12806   */\n      swap3\n      swap2\n      pop\n      pop\n      jump\t// out\n        /* \"#utility.yul\":12811:13106   */\n    tag_152:\n        /* \"#utility.yul\":12887:12891   */\n      0x00\n        /* \"#utility.yul\":13033:13062   */\n      tag_311\n        /* \"#utility.yul\":13058:13061   */\n      dup4\n        /* \"#utility.yul\":13052:13056   */\n      dup4\n        /* \"#utility.yul\":13033:13062   */\n      tag_151\n      jump\t// in\n    tag_311:\n        /* \"#utility.yul\":13025:13062   */\n      swap2\n      pop\n        /* \"#utility.yul\":13095:13098   */\n      dup3\n        /* \"#utility.yul\":13092:13093   */\n      0x02\n        /* \"#utility.yul\":13088:13099   */\n      mul\n        /* \"#utility.yul\":13082:13086   */\n      dup3\n        /* \"#utility.yul\":13079:13100   */\n      or\n        /* \"#utility.yul\":13071:13100   */\n      swap1\n      pop\n        /* \"#utility.yul\":12811:13106   */\n      swap3\n      swap2\n      pop\n      pop\n      jump\t// out\n        /* \"#utility.yul\":13111:14506   */\n    tag_83:\n        /* \"#utility.yul\":13228:13265   */\n      tag_313\n        /* \"#utility.yul\":13261:13264   */\n      dup3\n        /* \"#utility.yul\":13228:13265   */\n      tag_114\n      jump\t// in\n    tag_313:\n        /* \"#utility.yul\":13330:13348   */\n      0xffffffffffffffff\n        /* \"#utility.yul\":13322:13328   */\n      dup2\n        /* \"#utility.yul\":13319:13349   */\n      gt\n        /* \"#utility.yul\":13316:13372   */\n      iszero\n      tag_314\n      jumpi\n        /* \"#utility.yul\":13352:13370   */\n      tag_315\n      tag_126\n      jump\t// in\n    tag_315:\n        /* \"#utility.yul\":13316:13372   */\n    tag_314:\n        /* \"#utility.yul\":13396:13434   */\n      tag_316\n        /* \"#utility.yul\":13428:13432   */\n      dup3\n        /* \"#utility.yul\":13422:13433   */\n      sload\n        /* \"#utility.yul\":13396:13434   */\n      tag_58\n      jump\t// in\n    tag_316:\n        /* \"#utility.yul\":13481:13548   */\n      tag_317\n        /* \"#utility.yul\":13541:13547   */\n      dup3\n        /* \"#utility.yul\":13533:13539   */\n      dup3\n        /* \"#utility.yul\":13527:13531   */\n      dup6\n        /* \"#utility.yul\":13481:13548   */\n      tag_149\n      jump\t// in\n    tag_317:\n        /* \"#utility.yul\":13575:13576   */\n      0x00\n        /* \"#utility.yul\":13599:13603   */\n      0x20\n        /* \"#utility.yul\":13586:13603   */\n      swap1\n      pop\n        /* \"#utility.yul\":13631:13633   */\n      0x1f\n        /* \"#utility.yul\":13623:13629   */\n      dup4\n        /* \"#utility.yul\":13620:13634   */\n      gt\n        /* \"#utility.yul\":13648:13649   */\n      0x01\n        /* \"#utility.yul\":13643:14261   */\n      dup2\n      eq\n      tag_319\n      jumpi\n        /* \"#utility.yul\":14305:14306   */\n      0x00\n        /* \"#utility.yul\":14322:14328   */\n      dup5\n        /* \"#utility.yul\":14319:14396   */\n      iszero\n      tag_320\n      jumpi\n        /* \"#utility.yul\":14371:14380   */\n      dup3\n        /* \"#utility.yul\":14366:14369   */\n      dup8\n        /* \"#utility.yul\":14362:14381   */\n      add\n        /* \"#utility.yul\":14356:14382   */\n      mload\n        /* \"#utility.yul\":14347:14382   */\n      swap1\n      pop\n        /* \"#utility.yul\":14319:14396   */\n    tag_320:\n        /* \"#utility.yul\":14422:14489   */\n      tag_321\n        /* \"#utility.yul\":14482:14488   */\n      dup6\n        /* \"#utility.yul\":14475:14480   */\n      dup3\n        /* \"#utility.yul\":14422:14489   */\n      tag_152\n      jump\t// in\n    tag_321:\n        /* \"#utility.yul\":14416:14420   */\n      dup7\n        /* \"#utility.yul\":14409:14490   */\n      sstore\n        /* \"#utility.yul\":14278:14500   */\n      pop\n        /* \"#utility.yul\":13613:14500   */\n      jump(tag_318)\n        /* \"#utility.yul\":13643:14261   */\n    tag_319:\n        /* \"#utility.yul\":13695:13699   */\n      0x1f\n        /* \"#utility.yul\":13691:13700   */\n      not\n        /* \"#utility.yul\":13683:13689   */\n      dup5\n        /* \"#utility.yul\":13679:13701   */\n      and\n        /* \"#utility.yul\":13729:13766   */\n      tag_322\n        /* \"#utility.yul\":13761:13765   */\n      dup7\n        /* \"#utility.yul\":13729:13766   */\n      tag_138\n      jump\t// in\n    tag_322:\n        /* \"#utility.yul\":13788:13789   */\n      0x00\n        /* \"#utility.yul\":13802:14010   */\n    tag_323:\n        /* \"#utility.yul\":13816:13823   */\n      dup3\n        /* \"#utility.yul\":13813:13814   */\n      dup2\n        /* \"#utility.yul\":13810:13824   */\n      lt\n        /* \"#utility.yul\":13802:14010   */\n      iszero\n      tag_325\n      jumpi\n        /* \"#utility.yul\":13895:13904   */\n      dup5\n        /* \"#utility.yul\":13890:13893   */\n      dup10\n        /* \"#utility.yul\":13886:13905   */\n      add\n        /* \"#utility.yul\":13880:13906   */\n      mload\n        /* \"#utility.yul\":13872:13878   */\n      dup3\n        /* \"#utility.yul\":13865:13907   */\n      sstore\n        /* \"#utility.yul\":13946:13947   */\n      0x01\n        /* \"#utility.yul\":13938:13944   */\n      dup3\n        /* \"#utility.yul\":13934:13948   */\n      add\n        /* \"#utility.yul\":13924:13948   */\n      swap2\n      pop\n        /* \"#utility.yul\":13993:13995   */\n      0x20\n        /* \"#utility.yul\":13982:13991   */\n      dup6\n        /* \"#utility.yul\":13978:13996   */\n      add\n        /* \"#utility.yul\":13965:13996   */\n      swap5\n      pop\n        /* \"#utility.yul\":13839:13843   */\n      0x20\n        /* \"#utility.yul\":13836:13837   */\n      dup2\n        /* \"#utility.yul\":13832:13844   */\n      add\n        /* \"#utility.yul\":13827:13844   */\n      swap1\n      pop\n        /* \"#utility.yul\":13802:14010   */\n      jump(tag_323)\n    tag_325:\n        /* \"#utility.yul\":14038:14044   */\n      dup7\n        /* \"#utility.yul\":14029:14036   */\n      dup4\n        /* \"#utility.yul\":14026:14045   */\n      lt\n        /* \"#utility.yul\":14023:14202   */\n      iszero\n      tag_326\n      jumpi\n        /* \"#utility.yul\":14096:14105   */\n      dup5\n        /* \"#utility.yul\":14091:14094   */\n      dup10\n        /* \"#utility.yul\":14087:14106   */\n      add\n        /* \"#utility.yul\":14081:14107   */\n      mload\n        /* \"#utility.yul\":14139:14187   */\n      tag_327\n        /* \"#utility.yul\":14181:14185   */\n      0x1f\n        /* \"#utility.yul\":14173:14179   */\n      dup10\n        /* \"#utility.yul\":14169:14186   */\n      and\n        /* \"#utility.yul\":14158:14167   */\n      dup3\n        /* \"#utility.yul\":14139:14187   */\n      tag_151\n      jump\t// in\n    tag_327:\n        /* \"#utility.yul\":14131:14137   */\n      dup4\n        /* \"#utility.yul\":14124:14188   */\n      sstore\n        /* \"#utility.yul\":14046:14202   */\n      pop\n        /* \"#utility.yul\":14023:14202   */\n    tag_326:\n        /* \"#utility.yul\":14248:14249   */\n      0x01\n        /* \"#utility.yul\":14244:14245   */\n      0x02\n        /* \"#utility.yul\":14236:14242   */\n      dup9\n        /* \"#utility.yul\":14232:14246   */\n      mul\n        /* \"#utility.yul\":14228:14250   */\n      add\n        /* \"#utility.yul\":14222:14226   */\n      dup9\n        /* \"#utility.yul\":14215:14251   */\n      sstore\n        /* \"#utility.yul\":13650:14261   */\n      pop\n      pop\n      pop\n        /* \"#utility.yul\":13613:14500   */\n    tag_318:\n      pop\n        /* \"#utility.yul\":13203:14506   */\n      pop\n      pop\n      pop\n        /* \"#utility.yul\":13111:14506   */\n      pop\n      pop\n      jump\t// out\n        /* \"#utility.yul\":14512:14671   */\n    tag_153:\n        /* \"#utility.yul\":14652:14663   */\n      0x4e6f74204f776e65720000000000000000000000000000000000000000000000\n        /* \"#utility.yul\":14648:14649   */\n      0x00\n        /* \"#utility.yul\":14640:14646   */\n      dup3\n        /* \"#utility.yul\":14636:14650   */\n      add\n        /* \"#utility.yul\":14629:14664   */\n      mstore\n        /* \"#utility.yul\":14512:14671   */\n      pop\n      jump\t// out\n        /* \"#utility.yul\":14677:15042   */\n    tag_154:\n        /* \"#utility.yul\":14819:14822   */\n      0x00\n        /* \"#utility.yul\":14840:14906   */\n      tag_330\n        /* \"#utility.yul\":14904:14905   */\n      0x09\n        /* \"#utility.yul\":14899:14902   */\n      dup4\n        /* \"#utility.yul\":14840:14906   */\n      tag_115\n      jump\t// in\n    tag_330:\n        /* \"#utility.yul\":14833:14906   */\n      swap2\n      pop\n        /* \"#utility.yul\":14915:15008   */\n      tag_331\n        /* \"#utility.yul\":15004:15007   */\n      dup3\n        /* \"#utility.yul\":14915:15008   */\n      tag_153\n      jump\t// in\n    tag_331:\n        /* \"#utility.yul\":15033:15035   */\n      0x20\n        /* \"#utility.yul\":15028:15031   */\n      dup3\n        /* \"#utility.yul\":15024:15036   */\n      add\n        /* \"#utility.yul\":15017:15036   */\n      swap1\n      pop\n        /* \"#utility.yul\":14677:15042   */\n      swap2\n      swap1\n      pop\n      jump\t// out\n        /* \"#utility.yul\":15048:15467   */\n    tag_89:\n        /* \"#utility.yul\":15214:15218   */\n      0x00\n        /* \"#utility.yul\":15252:15254   */\n      0x20\n        /* \"#utility.yul\":15241:15250   */\n      dup3\n        /* \"#utility.yul\":15237:15255   */\n      add\n        /* \"#utility.yul\":15229:15255   */\n      swap1\n      pop\n        /* \"#utility.yul\":15301:15310   */\n      dup2\n        /* \"#utility.yul\":15295:15299   */\n      dup2\n        /* \"#utility.yul\":15291:15311   */\n      sub\n        /* \"#utility.yul\":15287:15288   */\n      0x00\n        /* \"#utility.yul\":15276:15285   */\n      dup4\n        /* \"#utility.yul\":15272:15289   */\n      add\n        /* \"#utility.yul\":15265:15312   */\n      mstore\n        /* \"#utility.yul\":15329:15460   */\n      tag_333\n        /* \"#utility.yul\":15455:15459   */\n      dup2\n        /* \"#utility.yul\":15329:15460   */\n      tag_154\n      jump\t// in\n    tag_333:\n        /* \"#utility.yul\":15321:15460   */\n      swap1\n      pop\n        /* \"#utility.yul\":15048:15467   */\n      swap2\n      swap1\n      pop\n      jump\t// out\n        /* \"#utility.yul\":15473:15653   */\n    tag_100:\n        /* \"#utility.yul\":15521:15598   */\n      0x4e487b7100000000000000000000000000000000000000000000000000000000\n        /* \"#utility.yul\":15518:15519   */\n      0x00\n        /* \"#utility.yul\":15511:15599   */\n      mstore\n        /* \"#utility.yul\":15618:15622   */\n      0x32\n        /* \"#utility.yul\":15615:15616   */\n      0x04\n        /* \"#utility.yul\":15608:15623   */\n      mstore\n        /* \"#utility.yul\":15642:15646   */\n      0x24\n        /* \"#utility.yul\":15639:15640   */\n      0x00\n        /* \"#utility.yul\":15632:15647   */\n      revert\n        /* \"#utility.yul\":15659:15892   */\n    tag_104:\n        /* \"#utility.yul\":15698:15701   */\n      0x00\n        /* \"#utility.yul\":15721:15745   */\n      tag_336\n        /* \"#utility.yul\":15739:15744   */\n      dup3\n        /* \"#utility.yul\":15721:15745   */\n      tag_119\n      jump\t// in\n    tag_336:\n        /* \"#utility.yul\":15712:15745   */\n      swap2\n      pop\n        /* \"#utility.yul\":15767:15833   */\n      0xffffffffffffffffffffffffffffffffffffffffffffffffffffffffffffffff\n        /* \"#utility.yul\":15760:15765   */\n      dup3\n        /* \"#utility.yul\":15757:15834   */\n      sub\n        /* \"#utility.yul\":15754:15857   */\n      tag_337\n      jumpi\n        /* \"#utility.yul\":15837:15855   */\n      tag_338\n      tag_134\n      jump\t// in\n    tag_338:\n        /* \"#utility.yul\":15754:15857   */\n    tag_337:\n        /* \"#utility.yul\":15884:15885   */\n      0x01\n        /* \"#utility.yul\":15877:15882   */\n      dup3\n        /* \"#utility.yul\":15873:15886   */\n      add\n        /* \"#utility.yul\":15866:15886   */\n      swap1\n      pop\n        /* \"#utility.yul\":15659:15892   */\n      swap2\n      swap1\n      pop\n      jump\t// out\n\n    auxdata: 0xa264697066735822122056e2c2ab951ea14f792c0223b511c2db7658a896122267722255bad3bbc4063c64736f6c63430008120033\n}\n",
				"bytecode": {
					"linkReferences": {},
					"object": "60a0604052600360809081525034801561001857600080fd5b50336000806101000a81548173ffffffffffffffffffffffffffffffffffffffff021916908373ffffffffffffffffffffffffffffffffffffffff160217905550608051611393610074600039600061035401526113936000f3fe608060405234801561001057600080fd5b506004361061009d5760003560e01c80638da5cb5b116100665780638da5cb5b14610192578063a2fb342d146101b0578063d66bd524146101cc578063d7a3b27f146101fc578063dd943ca9146102185761009d565b80624aca6e146100a257806304581de5146100d2578063442130d0146101025780636c0723c5146101325780638a1b1bc414610162575b600080fd5b6100bc60048036038101906100b79190610a7d565b610234565b6040516100c99190610b3a565b60405180910390f35b6100ec60048036038101906100e79190610b92565b6102d4565b6040516100f99190610be1565b60405180910390f35b61011c60048036038101906101179190610bfc565b610322565b6040516101299190610c4b565b60405180910390f35b61014c60048036038101906101479190610bfc565b610347565b6040516101599190610c4b565b60405180910390f35b61017c60048036038101906101779190610bfc565b61042b565b6040516101899190610c4b565b60405180910390f35b61019a610450565b6040516101a79190610be1565b60405180910390f35b6101ca60048036038101906101c59190610b92565b610474565b005b6101e660048036038101906101e19190610a7d565b610670565b6040516101f39190610c4b565b60405180910390f35b61021660048036038101906102119190610d9b565b610688565b005b610232600480360381019061022d9190610bfc565b610767565b005b6001602052806000526040600020600091509050805461025390610e26565b80601f016020809104026020016040519081016040528092919081815260200182805461027f90610e26565b80156102cc5780601f106102a1576101008083540402835291602001916102cc565b820191906000526020600020905b8154815290600101906020018083116102af57829003601f168201915b505050505081565b600360205281600052604060002081815481106102f057600080fd5b906000526020600020016000915091509054906101000a900473ffffffffffffffffffffffffffffffffffffffff1681565b6004602052816000526040600020602052806000526040600020600091509150505481565b600060646301e13380600c7f0000000000000000000000000000000000000000000000000000000000000000600560008873ffffffffffffffffffffffffffffffffffffffff1673ffffffffffffffffffffffffffffffffffffffff16815260200190815260200160002060008773ffffffffffffffffffffffffffffffffffffffff1673ffffffffffffffffffffffffffffffffffffffff16815260200190815260200160002054426103fb9190610e86565b6104059190610eba565b61040f9190610eba565b6104199190610f2b565b6104239190610eba565b905092915050565b6005602052816000526040600020602052806000526040600020600091509150505481565b60008054906101000a900473ffffffffffffffffffffffffffffffffffffffff1681565b600360003373ffffffffffffffffffffffffffffffffffffffff1673ffffffffffffffffffffffffffffffffffffffff168152602001908152602001600020829080600181540180825580915050600190039060005260206000200160009091909190916101000a81548173ffffffffffffffffffffffffffffffffffffffff021916908373ffffffffffffffffffffffffffffffffffffffff16021790555080600460003373ffffffffffffffffffffffffffffffffffffffff1673ffffffffffffffffffffffffffffffffffffffff16815260200190815260200160002060008473ffffffffffffffffffffffffffffffffffffffff1673ffffffffffffffffffffffffffffffffffffffff1681526020019081526020016000208190555080600260008473ffffffffffffffffffffffffffffffffffffffff1673ffffffffffffffffffffffffffffffffffffffff16815260200190815260200160002060008282546105e49190610f5c565b9250508190555042600560003373ffffffffffffffffffffffffffffffffffffffff1673ffffffffffffffffffffffffffffffffffffffff16815260200190815260200160002060008473ffffffffffffffffffffffffffffffffffffffff1673ffffffffffffffffffffffffffffffffffffffff168152602001908152602001600020819055505050565b60026020528060005260406000206000915090505481565b60008054906101000a900473ffffffffffffffffffffffffffffffffffffffff1673ffffffffffffffffffffffffffffffffffffffff163373ffffffffffffffffffffffffffffffffffffffff1614610716576040517f08c379a000000000000000000000000000000000000000000000000000000000815260040161070d90610fdc565b60405180910390fd5b80600160008473ffffffffffffffffffffffffffffffffffffffff1673ffffffffffffffffffffffffffffffffffffffff168152602001908152602001600020908161076291906111a8565b505050565b80610771816108cd565b6107b0576040517f08c379a00000000000000000000000000000000000000000000000000000000081526004016107a7906112c6565b60405180910390fd5b6108486107bd8484610347565b600460008673ffffffffffffffffffffffffffffffffffffffff1673ffffffffffffffffffffffffffffffffffffffff16815260200190815260200160002060008573ffffffffffffffffffffffffffffffffffffffff1673ffffffffffffffffffffffffffffffffffffffff168152602001908152602001600020546109f590919063ffffffff16565b600460008573ffffffffffffffffffffffffffffffffffffffff1673ffffffffffffffffffffffffffffffffffffffff16815260200190815260200160002060008473ffffffffffffffffffffffffffffffffffffffff1673ffffffffffffffffffffffffffffffffffffffff16815260200190815260200160002081905550505050565b600080600090505b600360003373ffffffffffffffffffffffffffffffffffffffff1673ffffffffffffffffffffffffffffffffffffffff168152602001908152602001600020805490508110156109ea578273ffffffffffffffffffffffffffffffffffffffff16600360003373ffffffffffffffffffffffffffffffffffffffff1673ffffffffffffffffffffffffffffffffffffffff1681526020019081526020016000208281548110610987576109866112e6565b5b9060005260206000200160009054906101000a900473ffffffffffffffffffffffffffffffffffffffff1673ffffffffffffffffffffffffffffffffffffffff16036109d75760019150506109f0565b80806109e290611315565b9150506108d5565b50600090505b919050565b60008183610a039190610f5c565b905092915050565b6000604051905090565b600080fd5b600080fd5b600073ffffffffffffffffffffffffffffffffffffffff82169050919050565b6000610a4a82610a1f565b9050919050565b610a5a81610a3f565b8114610a6557600080fd5b50565b600081359050610a7781610a51565b92915050565b600060208284031215610a9357610a92610a15565b5b6000610aa184828501610a68565b91505092915050565b600081519050919050565b600082825260208201905092915050565b60005b83811015610ae4578082015181840152602081019050610ac9565b60008484015250505050565b6000601f19601f8301169050919050565b6000610b0c82610aaa565b610b168185610ab5565b9350610b26818560208601610ac6565b610b2f81610af0565b840191505092915050565b60006020820190508181036000830152610b548184610b01565b905092915050565b6000819050919050565b610b6f81610b5c565b8114610b7a57600080fd5b50565b600081359050610b8c81610b66565b92915050565b60008060408385031215610ba957610ba8610a15565b5b6000610bb785828601610a68565b9250506020610bc885828601610b7d565b9150509250929050565b610bdb81610a3f565b82525050565b6000602082019050610bf66000830184610bd2565b92915050565b60008060408385031215610c1357610c12610a15565b5b6000610c2185828601610a68565b9250506020610c3285828601610a68565b9150509250929050565b610c4581610b5c565b82525050565b6000602082019050610c606000830184610c3c565b92915050565b600080fd5b600080fd5b7f4e487b7100000000000000000000000000000000000000000000000000000000600052604160045260246000fd5b610ca882610af0565b810181811067ffffffffffffffff82111715610cc757610cc6610c70565b5b80604052505050565b6000610cda610a0b565b9050610ce68282610c9f565b919050565b600067ffffffffffffffff821115610d0657610d05610c70565b5b610d0f82610af0565b9050602081019050919050565b82818337600083830152505050565b6000610d3e610d3984610ceb565b610cd0565b905082815260208101848484011115610d5a57610d59610c6b565b5b610d65848285610d1c565b509392505050565b600082601f830112610d8257610d81610c66565b5b8135610d92848260208601610d2b565b91505092915050565b60008060408385031215610db257610db1610a15565b5b6000610dc085828601610a68565b925050602083013567ffffffffffffffff811115610de157610de0610a1a565b5b610ded85828601610d6d565b9150509250929050565b7f4e487b7100000000000000000000000000000000000000000000000000000000600052602260045260246000fd5b60006002820490506001821680610e3e57607f821691505b602082108103610e5157610e50610df7565b5b50919050565b7f4e487b7100000000000000000000000000000000000000000000000000000000600052601160045260246000fd5b6000610e9182610b5c565b9150610e9c83610b5c565b9250828203905081811115610eb457610eb3610e57565b5b92915050565b6000610ec582610b5c565b9150610ed083610b5c565b9250828202610ede81610b5c565b91508282048414831517610ef557610ef4610e57565b5b5092915050565b7f4e487b7100000000000000000000000000000000000000000000000000000000600052601260045260246000fd5b6000610f3682610b5c565b9150610f4183610b5c565b925082610f5157610f50610efc565b5b828204905092915050565b6000610f6782610b5c565b9150610f7283610b5c565b9250828201905080821115610f8a57610f89610e57565b5b92915050565b7f4e6f74204f776e65722c2043616e6e6f74206164640000000000000000000000600082015250565b6000610fc6601583610ab5565b9150610fd182610f90565b602082019050919050565b60006020820190508181036000830152610ff581610fb9565b9050919050565b60008190508160005260206000209050919050565b60006020601f8301049050919050565b600082821b905092915050565b60006008830261105e7fffffffffffffffffffffffffffffffffffffffffffffffffffffffffffffffff82611021565b6110688683611021565b95508019841693508086168417925050509392505050565b6000819050919050565b60006110a56110a061109b84610b5c565b611080565b610b5c565b9050919050565b6000819050919050565b6110bf8361108a565b6110d36110cb826110ac565b84845461102e565b825550505050565b600090565b6110e86110db565b6110f38184846110b6565b505050565b5b818110156111175761110c6000826110e0565b6001810190506110f9565b5050565b601f82111561115c5761112d81610ffc565b61113684611011565b81016020851015611145578190505b61115961115185611011565b8301826110f8565b50505b505050565b600082821c905092915050565b600061117f60001984600802611161565b1980831691505092915050565b6000611198838361116e565b9150826002028217905092915050565b6111b182610aaa565b67ffffffffffffffff8111156111ca576111c9610c70565b5b6111d48254610e26565b6111df82828561111b565b600060209050601f8311600181146112125760008415611200578287015190505b61120a858261118c565b865550611272565b601f19841661122086610ffc565b60005b8281101561124857848901518255600182019150602085019450602081019050611223565b868310156112655784890151611261601f89168261116e565b8355505b6001600288020188555050505b505050505050565b7f4e6f74204f776e65720000000000000000000000000000000000000000000000600082015250565b60006112b0600983610ab5565b91506112bb8261127a565b602082019050919050565b600060208201905081810360008301526112df816112a3565b9050919050565b7f4e487b7100000000000000000000000000000000000000000000000000000000600052603260045260246000fd5b600061132082610b5c565b91507fffffffffffffffffffffffffffffffffffffffffffffffffffffffffffffffff820361135257611351610e57565b5b60018201905091905056fea264697066735822122056e2c2ab951ea14f792c0223b511c2db7658a896122267722255bad3bbc4063c64736f6c63430008120033",
					"opcodes": "PUSH1 0xA0 PUSH1 0x40 MSTORE PUSH1 0x3 PUSH1 0x80 SWAP1 DUP2 MSTORE POP CALLVALUE DUP1 ISZERO PUSH2 0x18 JUMPI PUSH1 0x0 DUP1 REVERT JUMPDEST POP CALLER PUSH1 0x0 DUP1 PUSH2 0x100 EXP DUP2 SLOAD DUP2 PUSH20 0xFFFFFFFFFFFFFFFFFFFFFFFFFFFFFFFFFFFFFFFF MUL NOT AND SWAP1 DUP4 PUSH20 0xFFFFFFFFFFFFFFFFFFFFFFFFFFFFFFFFFFFFFFFF AND MUL OR SWAP1 SSTORE POP PUSH1 0x80 MLOAD PUSH2 0x1393 PUSH2 0x74 PUSH1 0x0 CODECOPY PUSH1 0x0 PUSH2 0x354 ADD MSTORE PUSH2 0x1393 PUSH1 0x0 RETURN INVALID PUSH1 0x80 PUSH1 0x40 MSTORE CALLVALUE DUP1 ISZERO PUSH2 0x10 JUMPI PUSH1 0x0 DUP1 REVERT JUMPDEST POP PUSH1 0x4 CALLDATASIZE LT PUSH2 0x9D JUMPI PUSH1 0x0 CALLDATALOAD PUSH1 0xE0 SHR DUP1 PUSH4 0x8DA5CB5B GT PUSH2 0x66 JUMPI DUP1 PUSH4 0x8DA5CB5B EQ PUSH2 0x192 JUMPI DUP1 PUSH4 0xA2FB342D EQ PUSH2 0x1B0 JUMPI DUP1 PUSH4 0xD66BD524 EQ PUSH2 0x1CC JUMPI DUP1 PUSH4 0xD7A3B27F EQ PUSH2 0x1FC JUMPI DUP1 PUSH4 0xDD943CA9 EQ PUSH2 0x218 JUMPI PUSH2 0x9D JUMP JUMPDEST DUP1 PUSH3 0x4ACA6E EQ PUSH2 0xA2 JUMPI DUP1 PUSH4 0x4581DE5 EQ PUSH2 0xD2 JUMPI DUP1 PUSH4 0x442130D0 EQ PUSH2 0x102 JUMPI DUP1 PUSH4 0x6C0723C5 EQ PUSH2 0x132 JUMPI DUP1 PUSH4 0x8A1B1BC4 EQ PUSH2 0x162 JUMPI JUMPDEST PUSH1 0x0 DUP1 REVERT JUMPDEST PUSH2 0xBC PUSH1 0x4 DUP1 CALLDATASIZE SUB DUP2 ADD SWAP1 PUSH2 0xB7 SWAP2 SWAP1 PUSH2 0xA7D JUMP JUMPDEST PUSH2 0x234 JUMP JUMPDEST PUSH1 0x40 MLOAD PUSH2 0xC9 SWAP2 SWAP1 PUSH2 0xB3A JUMP JUMPDEST PUSH1 0x40 MLOAD DUP1 SWAP2 SUB SWAP1 RETURN JUMPDEST PUSH2 0xEC PUSH1 0x4 DUP1 CALLDATASIZE SUB DUP2 ADD SWAP1 PUSH2 0xE7 SWAP2 SWAP1 PUSH2 0xB92 JUMP JUMPDEST PUSH2 0x2D4 JUMP JUMPDEST PUSH1 0x40 MLOAD PUSH2 0xF9 SWAP2 SWAP1 PUSH2 0xBE1 JUMP JUMPDEST PUSH1 0x40 MLOAD DUP1 SWAP2 SUB SWAP1 RETURN JUMPDEST PUSH2 0x11C PUSH1 0x4 DUP1 CALLDATASIZE SUB DUP2 ADD SWAP1 PUSH2 0x117 SWAP2 SWAP1 PUSH2 0xBFC JUMP JUMPDEST PUSH2 0x322 JUMP JUMPDEST PUSH1 0x40 MLOAD PUSH2 0x129 SWAP2 SWAP1 PUSH2 0xC4B JUMP JUMPDEST PUSH1 0x40 MLOAD DUP1 SWAP2 SUB SWAP1 RETURN JUMPDEST PUSH2 0x14C PUSH1 0x4 DUP1 CALLDATASIZE SUB DUP2 ADD SWAP1 PUSH2 0x147 SWAP2 SWAP1 PUSH2 0xBFC JUMP JUMPDEST PUSH2 0x347 JUMP JUMPDEST PUSH1 0x40 MLOAD PUSH2 0x159 SWAP2 SWAP1 PUSH2 0xC4B JUMP JUMPDEST PUSH1 0x40 MLOAD DUP1 SWAP2 SUB SWAP1 RETURN JUMPDEST PUSH2 0x17C PUSH1 0x4 DUP1 CALLDATASIZE SUB DUP2 ADD SWAP1 PUSH2 0x177 SWAP2 SWAP1 PUSH2 0xBFC JUMP JUMPDEST PUSH2 0x42B JUMP JUMPDEST PUSH1 0x40 MLOAD PUSH2 0x189 SWAP2 SWAP1 PUSH2 0xC4B JUMP JUMPDEST PUSH1 0x40 MLOAD DUP1 SWAP2 SUB SWAP1 RETURN JUMPDEST PUSH2 0x19A PUSH2 0x450 JUMP JUMPDEST PUSH1 0x40 MLOAD PUSH2 0x1A7 SWAP2 SWAP1 PUSH2 0xBE1 JUMP JUMPDEST PUSH1 0x40 MLOAD DUP1 SWAP2 SUB SWAP1 RETURN JUMPDEST PUSH2 0x1CA PUSH1 0x4 DUP1 CALLDATASIZE SUB DUP2 ADD SWAP1 PUSH2 0x1C5 SWAP2 SWAP1 PUSH2 0xB92 JUMP JUMPDEST PUSH2 0x474 JUMP JUMPDEST STOP JUMPDEST PUSH2 0x1E6 PUSH1 0x4 DUP1 CALLDATASIZE SUB DUP2 ADD SWAP1 PUSH2 0x1E1 SWAP2 SWAP1 PUSH2 0xA7D JUMP JUMPDEST PUSH2 0x670 JUMP JUMPDEST PUSH1 0x40 MLOAD PUSH2 0x1F3 SWAP2 SWAP1 PUSH2 0xC4B JUMP JUMPDEST PUSH1 0x40 MLOAD DUP1 SWAP2 SUB SWAP1 RETURN JUMPDEST PUSH2 0x216 PUSH1 0x4 DUP1 CALLDATASIZE SUB DUP2 ADD SWAP1 PUSH2 0x211 SWAP2 SWAP1 PUSH2 0xD9B JUMP JUMPDEST PUSH2 0x688 JUMP JUMPDEST STOP JUMPDEST PUSH2 0x232 PUSH1 0x4 DUP1 CALLDATASIZE SUB DUP2 ADD SWAP1 PUSH2 0x22D SWAP2 SWAP1 PUSH2 0xBFC JUMP JUMPDEST PUSH2 0x767 JUMP JUMPDEST STOP JUMPDEST PUSH1 0x1 PUSH1 0x20 MSTORE DUP1 PUSH1 0x0 MSTORE PUSH1 0x40 PUSH1 0x0 KECCAK256 PUSH1 0x0 SWAP2 POP SWAP1 POP DUP1 SLOAD PUSH2 0x253 SWAP1 PUSH2 0xE26 JUMP JUMPDEST DUP1 PUSH1 0x1F ADD PUSH1 0x20 DUP1 SWAP2 DIV MUL PUSH1 0x20 ADD PUSH1 0x40 MLOAD SWAP1 DUP2 ADD PUSH1 0x40 MSTORE DUP1 SWAP3 SWAP2 SWAP1 DUP2 DUP2 MSTORE PUSH1 0x20 ADD DUP3 DUP1 SLOAD PUSH2 0x27F SWAP1 PUSH2 0xE26 JUMP JUMPDEST DUP1 ISZERO PUSH2 0x2CC JUMPI DUP1 PUSH1 0x1F LT PUSH2 0x2A1 JUMPI PUSH2 0x100 DUP1 DUP4 SLOAD DIV MUL DUP4 MSTORE SWAP2 PUSH1 0x20 ADD SWAP2 PUSH2 0x2CC JUMP JUMPDEST DUP3 ADD SWAP2 SWAP1 PUSH1 0x0 MSTORE PUSH1 0x20 PUSH1 0x0 KECCAK256 SWAP1 JUMPDEST DUP2 SLOAD DUP2 MSTORE SWAP1 PUSH1 0x1 ADD SWAP1 PUSH1 0x20 ADD DUP1 DUP4 GT PUSH2 0x2AF JUMPI DUP3 SWAP1 SUB PUSH1 0x1F AND DUP3 ADD SWAP2 JUMPDEST POP POP POP POP POP DUP2 JUMP JUMPDEST PUSH1 0x3 PUSH1 0x20 MSTORE DUP2 PUSH1 0x0 MSTORE PUSH1 0x40 PUSH1 0x0 KECCAK256 DUP2 DUP2 SLOAD DUP2 LT PUSH2 0x2F0 JUMPI PUSH1 0x0 DUP1 REVERT JUMPDEST SWAP1 PUSH1 0x0 MSTORE PUSH1 0x20 PUSH1 0x0 KECCAK256 ADD PUSH1 0x0 SWAP2 POP SWAP2 POP SWAP1 SLOAD SWAP1 PUSH2 0x100 EXP SWAP1 DIV PUSH20 0xFFFFFFFFFFFFFFFFFFFFFFFFFFFFFFFFFFFFFFFF AND DUP2 JUMP JUMPDEST PUSH1 0x4 PUSH1 0x20 MSTORE DUP2 PUSH1 0x0 MSTORE PUSH1 0x40 PUSH1 0x0 KECCAK256 PUSH1 0x20 MSTORE DUP1 PUSH1 0x0 MSTORE PUSH1 0x40 PUSH1 0x0 KECCAK256 PUSH1 0x0 SWAP2 POP SWAP2 POP POP SLOAD DUP2 JUMP JUMPDEST PUSH1 0x0 PUSH1 0x64 PUSH4 0x1E13380 PUSH1 0xC PUSH32 0x0 PUSH1 0x5 PUSH1 0x0 DUP9 PUSH20 0xFFFFFFFFFFFFFFFFFFFFFFFFFFFFFFFFFFFFFFFF AND PUSH20 0xFFFFFFFFFFFFFFFFFFFFFFFFFFFFFFFFFFFFFFFF AND DUP2 MSTORE PUSH1 0x20 ADD SWAP1 DUP2 MSTORE PUSH1 0x20 ADD PUSH1 0x0 KECCAK256 PUSH1 0x0 DUP8 PUSH20 0xFFFFFFFFFFFFFFFFFFFFFFFFFFFFFFFFFFFFFFFF AND PUSH20 0xFFFFFFFFFFFFFFFFFFFFFFFFFFFFFFFFFFFFFFFF AND DUP2 MSTORE PUSH1 0x20 ADD SWAP1 DUP2 MSTORE PUSH1 0x20 ADD PUSH1 0x0 KECCAK256 SLOAD TIMESTAMP PUSH2 0x3FB SWAP2 SWAP1 PUSH2 0xE86 JUMP JUMPDEST PUSH2 0x405 SWAP2 SWAP1 PUSH2 0xEBA JUMP JUMPDEST PUSH2 0x40F SWAP2 SWAP1 PUSH2 0xEBA JUMP JUMPDEST PUSH2 0x419 SWAP2 SWAP1 PUSH2 0xF2B JUMP JUMPDEST PUSH2 0x423 SWAP2 SWAP1 PUSH2 0xEBA JUMP JUMPDEST SWAP1 POP SWAP3 SWAP2 POP POP JUMP JUMPDEST PUSH1 0x5 PUSH1 0x20 MSTORE DUP2 PUSH1 0x0 MSTORE PUSH1 0x40 PUSH1 0x0 KECCAK256 PUSH1 0x20 MSTORE DUP1 PUSH1 0x0 MSTORE PUSH1 0x40 PUSH1 0x0 KECCAK256 PUSH1 0x0 SWAP2 POP SWAP2 POP POP SLOAD DUP2 JUMP JUMPDEST PUSH1 0x0 DUP1 SLOAD SWAP1 PUSH2 0x100 EXP SWAP1 DIV PUSH20 0xFFFFFFFFFFFFFFFFFFFFFFFFFFFFFFFFFFFFFFFF AND DUP2 JUMP JUMPDEST PUSH1 0x3 PUSH1 0x0 CALLER PUSH20 0xFFFFFFFFFFFFFFFFFFFFFFFFFFFFFFFFFFFFFFFF AND PUSH20 0xFFFFFFFFFFFFFFFFFFFFFFFFFFFFFFFFFFFFFFFF AND DUP2 MSTORE PUSH1 0x20 ADD SWAP1 DUP2 MSTORE PUSH1 0x20 ADD PUSH1 0x0 KECCAK256 DUP3 SWAP1 DUP1 PUSH1 0x1 DUP2 SLOAD ADD DUP1 DUP3 SSTORE DUP1 SWAP2 POP POP PUSH1 0x1 SWAP1 SUB SWAP1 PUSH1 0x0 MSTORE PUSH1 0x20 PUSH1 0x0 KECCAK256 ADD PUSH1 0x0 SWAP1 SWAP2 SWAP1 SWAP2 SWAP1 SWAP2 PUSH2 0x100 EXP DUP2 SLOAD DUP2 PUSH20 0xFFFFFFFFFFFFFFFFFFFFFFFFFFFFFFFFFFFFFFFF MUL NOT AND SWAP1 DUP4 PUSH20 0xFFFFFFFFFFFFFFFFFFFFFFFFFFFFFFFFFFFFFFFF AND MUL OR SWAP1 SSTORE POP DUP1 PUSH1 0x4 PUSH1 0x0 CALLER PUSH20 0xFFFFFFFFFFFFFFFFFFFFFFFFFFFFFFFFFFFFFFFF AND PUSH20 0xFFFFFFFFFFFFFFFFFFFFFFFFFFFFFFFFFFFFFFFF AND DUP2 MSTORE PUSH1 0x20 ADD SWAP1 DUP2 MSTORE PUSH1 0x20 ADD PUSH1 0x0 KECCAK256 PUSH1 0x0 DUP5 PUSH20 0xFFFFFFFFFFFFFFFFFFFFFFFFFFFFFFFFFFFFFFFF AND PUSH20 0xFFFFFFFFFFFFFFFFFFFFFFFFFFFFFFFFFFFFFFFF AND DUP2 MSTORE PUSH1 0x20 ADD SWAP1 DUP2 MSTORE PUSH1 0x20 ADD PUSH1 0x0 KECCAK256 DUP2 SWAP1 SSTORE POP DUP1 PUSH1 0x2 PUSH1 0x0 DUP5 PUSH20 0xFFFFFFFFFFFFFFFFFFFFFFFFFFFFFFFFFFFFFFFF AND PUSH20 0xFFFFFFFFFFFFFFFFFFFFFFFFFFFFFFFFFFFFFFFF AND DUP2 MSTORE PUSH1 0x20 ADD SWAP1 DUP2 MSTORE PUSH1 0x20 ADD PUSH1 0x0 KECCAK256 PUSH1 0x0 DUP3 DUP3 SLOAD PUSH2 0x5E4 SWAP2 SWAP1 PUSH2 0xF5C JUMP JUMPDEST SWAP3 POP POP DUP2 SWAP1 SSTORE POP TIMESTAMP PUSH1 0x5 PUSH1 0x0 CALLER PUSH20 0xFFFFFFFFFFFFFFFFFFFFFFFFFFFFFFFFFFFFFFFF AND PUSH20 0xFFFFFFFFFFFFFFFFFFFFFFFFFFFFFFFFFFFFFFFF AND DUP2 MSTORE PUSH1 0x20 ADD SWAP1 DUP2 MSTORE PUSH1 0x20 ADD PUSH1 0x0 KECCAK256 PUSH1 0x0 DUP5 PUSH20 0xFFFFFFFFFFFFFFFFFFFFFFFFFFFFFFFFFFFFFFFF AND PUSH20 0xFFFFFFFFFFFFFFFFFFFFFFFFFFFFFFFFFFFFFFFF AND DUP2 MSTORE PUSH1 0x20 ADD SWAP1 DUP2 MSTORE PUSH1 0x20 ADD PUSH1 0x0 KECCAK256 DUP2 SWAP1 SSTORE POP POP POP JUMP JUMPDEST PUSH1 0x2 PUSH1 0x20 MSTORE DUP1 PUSH1 0x0 MSTORE PUSH1 0x40 PUSH1 0x0 KECCAK256 PUSH1 0x0 SWAP2 POP SWAP1 POP SLOAD DUP2 JUMP JUMPDEST PUSH1 0x0 DUP1 SLOAD SWAP1 PUSH2 0x100 EXP SWAP1 DIV PUSH20 0xFFFFFFFFFFFFFFFFFFFFFFFFFFFFFFFFFFFFFFFF AND PUSH20 0xFFFFFFFFFFFFFFFFFFFFFFFFFFFFFFFFFFFFFFFF AND CALLER PUSH20 0xFFFFFFFFFFFFFFFFFFFFFFFFFFFFFFFFFFFFFFFF AND EQ PUSH2 0x716 JUMPI PUSH1 0x40 MLOAD PUSH32 0x8C379A000000000000000000000000000000000000000000000000000000000 DUP2 MSTORE PUSH1 0x4 ADD PUSH2 0x70D SWAP1 PUSH2 0xFDC JUMP JUMPDEST PUSH1 0x40 MLOAD DUP1 SWAP2 SUB SWAP1 REVERT JUMPDEST DUP1 PUSH1 0x1 PUSH1 0x0 DUP5 PUSH20 0xFFFFFFFFFFFFFFFFFFFFFFFFFFFFFFFFFFFFFFFF AND PUSH20 0xFFFFFFFFFFFFFFFFFFFFFFFFFFFFFFFFFFFFFFFF AND DUP2 MSTORE PUSH1 0x20 ADD SWAP1 DUP2 MSTORE PUSH1 0x20 ADD PUSH1 0x0 KECCAK256 SWAP1 DUP2 PUSH2 0x762 SWAP2 SWAP1 PUSH2 0x11A8 JUMP JUMPDEST POP POP POP JUMP JUMPDEST DUP1 PUSH2 0x771 DUP2 PUSH2 0x8CD JUMP JUMPDEST PUSH2 0x7B0 JUMPI PUSH1 0x40 MLOAD PUSH32 0x8C379A000000000000000000000000000000000000000000000000000000000 DUP2 MSTORE PUSH1 0x4 ADD PUSH2 0x7A7 SWAP1 PUSH2 0x12C6 JUMP JUMPDEST PUSH1 0x40 MLOAD DUP1 SWAP2 SUB SWAP1 REVERT JUMPDEST PUSH2 0x848 PUSH2 0x7BD DUP5 DUP5 PUSH2 0x347 JUMP JUMPDEST PUSH1 0x4 PUSH1 0x0 DUP7 PUSH20 0xFFFFFFFFFFFFFFFFFFFFFFFFFFFFFFFFFFFFFFFF AND PUSH20 0xFFFFFFFFFFFFFFFFFFFFFFFFFFFFFFFFFFFFFFFF AND DUP2 MSTORE PUSH1 0x20 ADD SWAP1 DUP2 MSTORE PUSH1 0x20 ADD PUSH1 0x0 KECCAK256 PUSH1 0x0 DUP6 PUSH20 0xFFFFFFFFFFFFFFFFFFFFFFFFFFFFFFFFFFFFFFFF AND PUSH20 0xFFFFFFFFFFFFFFFFFFFFFFFFFFFFFFFFFFFFFFFF AND DUP2 MSTORE PUSH1 0x20 ADD SWAP1 DUP2 MSTORE PUSH1 0x20 ADD PUSH1 0x0 KECCAK256 SLOAD PUSH2 0x9F5 SWAP1 SWAP2 SWAP1 PUSH4 0xFFFFFFFF AND JUMP JUMPDEST PUSH1 0x4 PUSH1 0x0 DUP6 PUSH20 0xFFFFFFFFFFFFFFFFFFFFFFFFFFFFFFFFFFFFFFFF AND PUSH20 0xFFFFFFFFFFFFFFFFFFFFFFFFFFFFFFFFFFFFFFFF AND DUP2 MSTORE PUSH1 0x20 ADD SWAP1 DUP2 MSTORE PUSH1 0x20 ADD PUSH1 0x0 KECCAK256 PUSH1 0x0 DUP5 PUSH20 0xFFFFFFFFFFFFFFFFFFFFFFFFFFFFFFFFFFFFFFFF AND PUSH20 0xFFFFFFFFFFFFFFFFFFFFFFFFFFFFFFFFFFFFFFFF AND DUP2 MSTORE PUSH1 0x20 ADD SWAP1 DUP2 MSTORE PUSH1 0x20 ADD PUSH1 0x0 KECCAK256 DUP2 SWAP1 SSTORE POP POP POP POP JUMP JUMPDEST PUSH1 0x0 DUP1 PUSH1 0x0 SWAP1 POP JUMPDEST PUSH1 0x3 PUSH1 0x0 CALLER PUSH20 0xFFFFFFFFFFFFFFFFFFFFFFFFFFFFFFFFFFFFFFFF AND PUSH20 0xFFFFFFFFFFFFFFFFFFFFFFFFFFFFFFFFFFFFFFFF AND DUP2 MSTORE PUSH1 0x20 ADD SWAP1 DUP2 MSTORE PUSH1 0x20 ADD PUSH1 0x0 KECCAK256 DUP1 SLOAD SWAP1 POP DUP2 LT ISZERO PUSH2 0x9EA JUMPI DUP3 PUSH20 0xFFFFFFFFFFFFFFFFFFFFFFFFFFFFFFFFFFFFFFFF AND PUSH1 0x3 PUSH1 0x0 CALLER PUSH20 0xFFFFFFFFFFFFFFFFFFFFFFFFFFFFFFFFFFFFFFFF AND PUSH20 0xFFFFFFFFFFFFFFFFFFFFFFFFFFFFFFFFFFFFFFFF AND DUP2 MSTORE PUSH1 0x20 ADD SWAP1 DUP2 MSTORE PUSH1 0x20 ADD PUSH1 0x0 KECCAK256 DUP3 DUP2 SLOAD DUP2 LT PUSH2 0x987 JUMPI PUSH2 0x986 PUSH2 0x12E6 JUMP JUMPDEST JUMPDEST SWAP1 PUSH1 0x0 MSTORE PUSH1 0x20 PUSH1 0x0 KECCAK256 ADD PUSH1 0x0 SWAP1 SLOAD SWAP1 PUSH2 0x100 EXP SWAP1 DIV PUSH20 0xFFFFFFFFFFFFFFFFFFFFFFFFFFFFFFFFFFFFFFFF AND PUSH20 0xFFFFFFFFFFFFFFFFFFFFFFFFFFFFFFFFFFFFFFFF AND SUB PUSH2 0x9D7 JUMPI PUSH1 0x1 SWAP2 POP POP PUSH2 0x9F0 JUMP JUMPDEST DUP1 DUP1 PUSH2 0x9E2 SWAP1 PUSH2 0x1315 JUMP JUMPDEST SWAP2 POP POP PUSH2 0x8D5 JUMP JUMPDEST POP PUSH1 0x0 SWAP1 POP JUMPDEST SWAP2 SWAP1 POP JUMP JUMPDEST PUSH1 0x0 DUP2 DUP4 PUSH2 0xA03 SWAP2 SWAP1 PUSH2 0xF5C JUMP JUMPDEST SWAP1 POP SWAP3 SWAP2 POP POP JUMP JUMPDEST PUSH1 0x0 PUSH1 0x40 MLOAD SWAP1 POP SWAP1 JUMP JUMPDEST PUSH1 0x0 DUP1 REVERT JUMPDEST PUSH1 0x0 DUP1 REVERT JUMPDEST PUSH1 0x0 PUSH20 0xFFFFFFFFFFFFFFFFFFFFFFFFFFFFFFFFFFFFFFFF DUP3 AND SWAP1 POP SWAP2 SWAP1 POP JUMP JUMPDEST PUSH1 0x0 PUSH2 0xA4A DUP3 PUSH2 0xA1F JUMP JUMPDEST SWAP1 POP SWAP2 SWAP1 POP JUMP JUMPDEST PUSH2 0xA5A DUP2 PUSH2 0xA3F JUMP JUMPDEST DUP2 EQ PUSH2 0xA65 JUMPI PUSH1 0x0 DUP1 REVERT JUMPDEST POP JUMP JUMPDEST PUSH1 0x0 DUP2 CALLDATALOAD SWAP1 POP PUSH2 0xA77 DUP2 PUSH2 0xA51 JUMP JUMPDEST SWAP3 SWAP2 POP POP JUMP JUMPDEST PUSH1 0x0 PUSH1 0x20 DUP3 DUP5 SUB SLT ISZERO PUSH2 0xA93 JUMPI PUSH2 0xA92 PUSH2 0xA15 JUMP JUMPDEST JUMPDEST PUSH1 0x0 PUSH2 0xAA1 DUP5 DUP3 DUP6 ADD PUSH2 0xA68 JUMP JUMPDEST SWAP2 POP POP SWAP3 SWAP2 POP POP JUMP JUMPDEST PUSH1 0x0 DUP2 MLOAD SWAP1 POP SWAP2 SWAP1 POP JUMP JUMPDEST PUSH1 0x0 DUP3 DUP3 MSTORE PUSH1 0x20 DUP3 ADD SWAP1 POP SWAP3 SWAP2 POP POP JUMP JUMPDEST PUSH1 0x0 JUMPDEST DUP4 DUP2 LT ISZERO PUSH2 0xAE4 JUMPI DUP1 DUP3 ADD MLOAD DUP2 DUP5 ADD MSTORE PUSH1 0x20 DUP2 ADD SWAP1 POP PUSH2 0xAC9 JUMP JUMPDEST PUSH1 0x0 DUP5 DUP5 ADD MSTORE POP POP POP POP JUMP JUMPDEST PUSH1 0x0 PUSH1 0x1F NOT PUSH1 0x1F DUP4 ADD AND SWAP1 POP SWAP2 SWAP1 POP JUMP JUMPDEST PUSH1 0x0 PUSH2 0xB0C DUP3 PUSH2 0xAAA JUMP JUMPDEST PUSH2 0xB16 DUP2 DUP6 PUSH2 0xAB5 JUMP JUMPDEST SWAP4 POP PUSH2 0xB26 DUP2 DUP6 PUSH1 0x20 DUP7 ADD PUSH2 0xAC6 JUMP JUMPDEST PUSH2 0xB2F DUP2 PUSH2 0xAF0 JUMP JUMPDEST DUP5 ADD SWAP2 POP POP SWAP3 SWAP2 POP POP JUMP JUMPDEST PUSH1 0x0 PUSH1 0x20 DUP3 ADD SWAP1 POP DUP2 DUP2 SUB PUSH1 0x0 DUP4 ADD MSTORE PUSH2 0xB54 DUP2 DUP5 PUSH2 0xB01 JUMP JUMPDEST SWAP1 POP SWAP3 SWAP2 POP POP JUMP JUMPDEST PUSH1 0x0 DUP2 SWAP1 POP SWAP2 SWAP1 POP JUMP JUMPDEST PUSH2 0xB6F DUP2 PUSH2 0xB5C JUMP JUMPDEST DUP2 EQ PUSH2 0xB7A JUMPI PUSH1 0x0 DUP1 REVERT JUMPDEST POP JUMP JUMPDEST PUSH1 0x0 DUP2 CALLDATALOAD SWAP1 POP PUSH2 0xB8C DUP2 PUSH2 0xB66 JUMP JUMPDEST SWAP3 SWAP2 POP POP JUMP JUMPDEST PUSH1 0x0 DUP1 PUSH1 0x40 DUP4 DUP6 SUB SLT ISZERO PUSH2 0xBA9 JUMPI PUSH2 0xBA8 PUSH2 0xA15 JUMP JUMPDEST JUMPDEST PUSH1 0x0 PUSH2 0xBB7 DUP6 DUP3 DUP7 ADD PUSH2 0xA68 JUMP JUMPDEST SWAP3 POP POP PUSH1 0x20 PUSH2 0xBC8 DUP6 DUP3 DUP7 ADD PUSH2 0xB7D JUMP JUMPDEST SWAP2 POP POP SWAP3 POP SWAP3 SWAP1 POP JUMP JUMPDEST PUSH2 0xBDB DUP2 PUSH2 0xA3F JUMP JUMPDEST DUP3 MSTORE POP POP JUMP JUMPDEST PUSH1 0x0 PUSH1 0x20 DUP3 ADD SWAP1 POP PUSH2 0xBF6 PUSH1 0x0 DUP4 ADD DUP5 PUSH2 0xBD2 JUMP JUMPDEST SWAP3 SWAP2 POP POP JUMP JUMPDEST PUSH1 0x0 DUP1 PUSH1 0x40 DUP4 DUP6 SUB SLT ISZERO PUSH2 0xC13 JUMPI PUSH2 0xC12 PUSH2 0xA15 JUMP JUMPDEST JUMPDEST PUSH1 0x0 PUSH2 0xC21 DUP6 DUP3 DUP7 ADD PUSH2 0xA68 JUMP JUMPDEST SWAP3 POP POP PUSH1 0x20 PUSH2 0xC32 DUP6 DUP3 DUP7 ADD PUSH2 0xA68 JUMP JUMPDEST SWAP2 POP POP SWAP3 POP SWAP3 SWAP1 POP JUMP JUMPDEST PUSH2 0xC45 DUP2 PUSH2 0xB5C JUMP JUMPDEST DUP3 MSTORE POP POP JUMP JUMPDEST PUSH1 0x0 PUSH1 0x20 DUP3 ADD SWAP1 POP PUSH2 0xC60 PUSH1 0x0 DUP4 ADD DUP5 PUSH2 0xC3C JUMP JUMPDEST SWAP3 SWAP2 POP POP JUMP JUMPDEST PUSH1 0x0 DUP1 REVERT JUMPDEST PUSH1 0x0 DUP1 REVERT JUMPDEST PUSH32 0x4E487B7100000000000000000000000000000000000000000000000000000000 PUSH1 0x0 MSTORE PUSH1 0x41 PUSH1 0x4 MSTORE PUSH1 0x24 PUSH1 0x0 REVERT JUMPDEST PUSH2 0xCA8 DUP3 PUSH2 0xAF0 JUMP JUMPDEST DUP2 ADD DUP2 DUP2 LT PUSH8 0xFFFFFFFFFFFFFFFF DUP3 GT OR ISZERO PUSH2 0xCC7 JUMPI PUSH2 0xCC6 PUSH2 0xC70 JUMP JUMPDEST JUMPDEST DUP1 PUSH1 0x40 MSTORE POP POP POP JUMP JUMPDEST PUSH1 0x0 PUSH2 0xCDA PUSH2 0xA0B JUMP JUMPDEST SWAP1 POP PUSH2 0xCE6 DUP3 DUP3 PUSH2 0xC9F JUMP JUMPDEST SWAP2 SWAP1 POP JUMP JUMPDEST PUSH1 0x0 PUSH8 0xFFFFFFFFFFFFFFFF DUP3 GT ISZERO PUSH2 0xD06 JUMPI PUSH2 0xD05 PUSH2 0xC70 JUMP JUMPDEST JUMPDEST PUSH2 0xD0F DUP3 PUSH2 0xAF0 JUMP JUMPDEST SWAP1 POP PUSH1 0x20 DUP2 ADD SWAP1 POP SWAP2 SWAP1 POP JUMP JUMPDEST DUP3 DUP2 DUP4 CALLDATACOPY PUSH1 0x0 DUP4 DUP4 ADD MSTORE POP POP POP JUMP JUMPDEST PUSH1 0x0 PUSH2 0xD3E PUSH2 0xD39 DUP5 PUSH2 0xCEB JUMP JUMPDEST PUSH2 0xCD0 JUMP JUMPDEST SWAP1 POP DUP3 DUP2 MSTORE PUSH1 0x20 DUP2 ADD DUP5 DUP5 DUP5 ADD GT ISZERO PUSH2 0xD5A JUMPI PUSH2 0xD59 PUSH2 0xC6B JUMP JUMPDEST JUMPDEST PUSH2 0xD65 DUP5 DUP3 DUP6 PUSH2 0xD1C JUMP JUMPDEST POP SWAP4 SWAP3 POP POP POP JUMP JUMPDEST PUSH1 0x0 DUP3 PUSH1 0x1F DUP4 ADD SLT PUSH2 0xD82 JUMPI PUSH2 0xD81 PUSH2 0xC66 JUMP JUMPDEST JUMPDEST DUP2 CALLDATALOAD PUSH2 0xD92 DUP5 DUP3 PUSH1 0x20 DUP7 ADD PUSH2 0xD2B JUMP JUMPDEST SWAP2 POP POP SWAP3 SWAP2 POP POP JUMP JUMPDEST PUSH1 0x0 DUP1 PUSH1 0x40 DUP4 DUP6 SUB SLT ISZERO PUSH2 0xDB2 JUMPI PUSH2 0xDB1 PUSH2 0xA15 JUMP JUMPDEST JUMPDEST PUSH1 0x0 PUSH2 0xDC0 DUP6 DUP3 DUP7 ADD PUSH2 0xA68 JUMP JUMPDEST SWAP3 POP POP PUSH1 0x20 DUP4 ADD CALLDATALOAD PUSH8 0xFFFFFFFFFFFFFFFF DUP2 GT ISZERO PUSH2 0xDE1 JUMPI PUSH2 0xDE0 PUSH2 0xA1A JUMP JUMPDEST JUMPDEST PUSH2 0xDED DUP6 DUP3 DUP7 ADD PUSH2 0xD6D JUMP JUMPDEST SWAP2 POP POP SWAP3 POP SWAP3 SWAP1 POP JUMP JUMPDEST PUSH32 0x4E487B7100000000000000000000000000000000000000000000000000000000 PUSH1 0x0 MSTORE PUSH1 0x22 PUSH1 0x4 MSTORE PUSH1 0x24 PUSH1 0x0 REVERT JUMPDEST PUSH1 0x0 PUSH1 0x2 DUP3 DIV SWAP1 POP PUSH1 0x1 DUP3 AND DUP1 PUSH2 0xE3E JUMPI PUSH1 0x7F DUP3 AND SWAP2 POP JUMPDEST PUSH1 0x20 DUP3 LT DUP2 SUB PUSH2 0xE51 JUMPI PUSH2 0xE50 PUSH2 0xDF7 JUMP JUMPDEST JUMPDEST POP SWAP2 SWAP1 POP JUMP JUMPDEST PUSH32 0x4E487B7100000000000000000000000000000000000000000000000000000000 PUSH1 0x0 MSTORE PUSH1 0x11 PUSH1 0x4 MSTORE PUSH1 0x24 PUSH1 0x0 REVERT JUMPDEST PUSH1 0x0 PUSH2 0xE91 DUP3 PUSH2 0xB5C JUMP JUMPDEST SWAP2 POP PUSH2 0xE9C DUP4 PUSH2 0xB5C JUMP JUMPDEST SWAP3 POP DUP3 DUP3 SUB SWAP1 POP DUP2 DUP2 GT ISZERO PUSH2 0xEB4 JUMPI PUSH2 0xEB3 PUSH2 0xE57 JUMP JUMPDEST JUMPDEST SWAP3 SWAP2 POP POP JUMP JUMPDEST PUSH1 0x0 PUSH2 0xEC5 DUP3 PUSH2 0xB5C JUMP JUMPDEST SWAP2 POP PUSH2 0xED0 DUP4 PUSH2 0xB5C JUMP JUMPDEST SWAP3 POP DUP3 DUP3 MUL PUSH2 0xEDE DUP2 PUSH2 0xB5C JUMP JUMPDEST SWAP2 POP DUP3 DUP3 DIV DUP5 EQ DUP4 ISZERO OR PUSH2 0xEF5 JUMPI PUSH2 0xEF4 PUSH2 0xE57 JUMP JUMPDEST JUMPDEST POP SWAP3 SWAP2 POP POP JUMP JUMPDEST PUSH32 0x4E487B7100000000000000000000000000000000000000000000000000000000 PUSH1 0x0 MSTORE PUSH1 0x12 PUSH1 0x4 MSTORE PUSH1 0x24 PUSH1 0x0 REVERT JUMPDEST PUSH1 0x0 PUSH2 0xF36 DUP3 PUSH2 0xB5C JUMP JUMPDEST SWAP2 POP PUSH2 0xF41 DUP4 PUSH2 0xB5C JUMP JUMPDEST SWAP3 POP DUP3 PUSH2 0xF51 JUMPI PUSH2 0xF50 PUSH2 0xEFC JUMP JUMPDEST JUMPDEST DUP3 DUP3 DIV SWAP1 POP SWAP3 SWAP2 POP POP JUMP JUMPDEST PUSH1 0x0 PUSH2 0xF67 DUP3 PUSH2 0xB5C JUMP JUMPDEST SWAP2 POP PUSH2 0xF72 DUP4 PUSH2 0xB5C JUMP JUMPDEST SWAP3 POP DUP3 DUP3 ADD SWAP1 POP DUP1 DUP3 GT ISZERO PUSH2 0xF8A JUMPI PUSH2 0xF89 PUSH2 0xE57 JUMP JUMPDEST JUMPDEST SWAP3 SWAP2 POP POP JUMP JUMPDEST PUSH32 0x4E6F74204F776E65722C2043616E6E6F74206164640000000000000000000000 PUSH1 0x0 DUP3 ADD MSTORE POP JUMP JUMPDEST PUSH1 0x0 PUSH2 0xFC6 PUSH1 0x15 DUP4 PUSH2 0xAB5 JUMP JUMPDEST SWAP2 POP PUSH2 0xFD1 DUP3 PUSH2 0xF90 JUMP JUMPDEST PUSH1 0x20 DUP3 ADD SWAP1 POP SWAP2 SWAP1 POP JUMP JUMPDEST PUSH1 0x0 PUSH1 0x20 DUP3 ADD SWAP1 POP DUP2 DUP2 SUB PUSH1 0x0 DUP4 ADD MSTORE PUSH2 0xFF5 DUP2 PUSH2 0xFB9 JUMP JUMPDEST SWAP1 POP SWAP2 SWAP1 POP JUMP JUMPDEST PUSH1 0x0 DUP2 SWAP1 POP DUP2 PUSH1 0x0 MSTORE PUSH1 0x20 PUSH1 0x0 KECCAK256 SWAP1 POP SWAP2 SWAP1 POP JUMP JUMPDEST PUSH1 0x0 PUSH1 0x20 PUSH1 0x1F DUP4 ADD DIV SWAP1 POP SWAP2 SWAP1 POP JUMP JUMPDEST PUSH1 0x0 DUP3 DUP3 SHL SWAP1 POP SWAP3 SWAP2 POP POP JUMP JUMPDEST PUSH1 0x0 PUSH1 0x8 DUP4 MUL PUSH2 0x105E PUSH32 0xFFFFFFFFFFFFFFFFFFFFFFFFFFFFFFFFFFFFFFFFFFFFFFFFFFFFFFFFFFFFFFFF DUP3 PUSH2 0x1021 JUMP JUMPDEST PUSH2 0x1068 DUP7 DUP4 PUSH2 0x1021 JUMP JUMPDEST SWAP6 POP DUP1 NOT DUP5 AND SWAP4 POP DUP1 DUP7 AND DUP5 OR SWAP3 POP POP POP SWAP4 SWAP3 POP POP POP JUMP JUMPDEST PUSH1 0x0 DUP2 SWAP1 POP SWAP2 SWAP1 POP JUMP JUMPDEST PUSH1 0x0 PUSH2 0x10A5 PUSH2 0x10A0 PUSH2 0x109B DUP5 PUSH2 0xB5C JUMP JUMPDEST PUSH2 0x1080 JUMP JUMPDEST PUSH2 0xB5C JUMP JUMPDEST SWAP1 POP SWAP2 SWAP1 POP JUMP JUMPDEST PUSH1 0x0 DUP2 SWAP1 POP SWAP2 SWAP1 POP JUMP JUMPDEST PUSH2 0x10BF DUP4 PUSH2 0x108A JUMP JUMPDEST PUSH2 0x10D3 PUSH2 0x10CB DUP3 PUSH2 0x10AC JUMP JUMPDEST DUP5 DUP5 SLOAD PUSH2 0x102E JUMP JUMPDEST DUP3 SSTORE POP POP POP POP JUMP JUMPDEST PUSH1 0x0 SWAP1 JUMP JUMPDEST PUSH2 0x10E8 PUSH2 0x10DB JUMP JUMPDEST PUSH2 0x10F3 DUP2 DUP5 DUP5 PUSH2 0x10B6 JUMP JUMPDEST POP POP POP JUMP JUMPDEST JUMPDEST DUP2 DUP2 LT ISZERO PUSH2 0x1117 JUMPI PUSH2 0x110C PUSH1 0x0 DUP3 PUSH2 0x10E0 JUMP JUMPDEST PUSH1 0x1 DUP2 ADD SWAP1 POP PUSH2 0x10F9 JUMP JUMPDEST POP POP JUMP JUMPDEST PUSH1 0x1F DUP3 GT ISZERO PUSH2 0x115C JUMPI PUSH2 0x112D DUP2 PUSH2 0xFFC JUMP JUMPDEST PUSH2 0x1136 DUP5 PUSH2 0x1011 JUMP JUMPDEST DUP2 ADD PUSH1 0x20 DUP6 LT ISZERO PUSH2 0x1145 JUMPI DUP2 SWAP1 POP JUMPDEST PUSH2 0x1159 PUSH2 0x1151 DUP6 PUSH2 0x1011 JUMP JUMPDEST DUP4 ADD DUP3 PUSH2 0x10F8 JUMP JUMPDEST POP POP JUMPDEST POP POP POP JUMP JUMPDEST PUSH1 0x0 DUP3 DUP3 SHR SWAP1 POP SWAP3 SWAP2 POP POP JUMP JUMPDEST PUSH1 0x0 PUSH2 0x117F PUSH1 0x0 NOT DUP5 PUSH1 0x8 MUL PUSH2 0x1161 JUMP JUMPDEST NOT DUP1 DUP4 AND SWAP2 POP POP SWAP3 SWAP2 POP POP JUMP JUMPDEST PUSH1 0x0 PUSH2 0x1198 DUP4 DUP4 PUSH2 0x116E JUMP JUMPDEST SWAP2 POP DUP3 PUSH1 0x2 MUL DUP3 OR SWAP1 POP SWAP3 SWAP2 POP POP JUMP JUMPDEST PUSH2 0x11B1 DUP3 PUSH2 0xAAA JUMP JUMPDEST PUSH8 0xFFFFFFFFFFFFFFFF DUP2 GT ISZERO PUSH2 0x11CA JUMPI PUSH2 0x11C9 PUSH2 0xC70 JUMP JUMPDEST JUMPDEST PUSH2 0x11D4 DUP3 SLOAD PUSH2 0xE26 JUMP JUMPDEST PUSH2 0x11DF DUP3 DUP3 DUP6 PUSH2 0x111B JUMP JUMPDEST PUSH1 0x0 PUSH1 0x20 SWAP1 POP PUSH1 0x1F DUP4 GT PUSH1 0x1 DUP2 EQ PUSH2 0x1212 JUMPI PUSH1 0x0 DUP5 ISZERO PUSH2 0x1200 JUMPI DUP3 DUP8 ADD MLOAD SWAP1 POP JUMPDEST PUSH2 0x120A DUP6 DUP3 PUSH2 0x118C JUMP JUMPDEST DUP7 SSTORE POP PUSH2 0x1272 JUMP JUMPDEST PUSH1 0x1F NOT DUP5 AND PUSH2 0x1220 DUP7 PUSH2 0xFFC JUMP JUMPDEST PUSH1 0x0 JUMPDEST DUP3 DUP2 LT ISZERO PUSH2 0x1248 JUMPI DUP5 DUP10 ADD MLOAD DUP3 SSTORE PUSH1 0x1 DUP3 ADD SWAP2 POP PUSH1 0x20 DUP6 ADD SWAP5 POP PUSH1 0x20 DUP2 ADD SWAP1 POP PUSH2 0x1223 JUMP JUMPDEST DUP7 DUP4 LT ISZERO PUSH2 0x1265 JUMPI DUP5 DUP10 ADD MLOAD PUSH2 0x1261 PUSH1 0x1F DUP10 AND DUP3 PUSH2 0x116E JUMP JUMPDEST DUP4 SSTORE POP JUMPDEST PUSH1 0x1 PUSH1 0x2 DUP9 MUL ADD DUP9 SSTORE POP POP POP JUMPDEST POP POP POP POP POP POP JUMP JUMPDEST PUSH32 0x4E6F74204F776E65720000000000000000000000000000000000000000000000 PUSH1 0x0 DUP3 ADD MSTORE POP JUMP JUMPDEST PUSH1 0x0 PUSH2 0x12B0 PUSH1 0x9 DUP4 PUSH2 0xAB5 JUMP JUMPDEST SWAP2 POP PUSH2 0x12BB DUP3 PUSH2 0x127A JUMP JUMPDEST PUSH1 0x20 DUP3 ADD SWAP1 POP SWAP2 SWAP1 POP JUMP JUMPDEST PUSH1 0x0 PUSH1 0x20 DUP3 ADD SWAP1 POP DUP2 DUP2 SUB PUSH1 0x0 DUP4 ADD MSTORE PUSH2 0x12DF DUP2 PUSH2 0x12A3 JUMP JUMPDEST SWAP1 POP SWAP2 SWAP1 POP JUMP JUMPDEST PUSH32 0x4E487B7100000000000000000000000000000000000000000000000000000000 PUSH1 0x0 MSTORE PUSH1 0x32 PUSH1 0x4 MSTORE PUSH1 0x24 PUSH1 0x0 REVERT JUMPDEST PUSH1 0x0 PUSH2 0x1320 DUP3 PUSH2 0xB5C JUMP JUMPDEST SWAP2 POP PUSH32 0xFFFFFFFFFFFFFFFFFFFFFFFFFFFFFFFFFFFFFFFFFFFFFFFFFFFFFFFFFFFFFFFF DUP3 SUB PUSH2 0x1352 JUMPI PUSH2 0x1351 PUSH2 0xE57 JUMP JUMPDEST JUMPDEST PUSH1 0x1 DUP3 ADD SWAP1 POP SWAP2 SWAP1 POP JUMP INVALID LOG2 PUSH5 0x6970667358 0x22 SLT KECCAK256 JUMP 0xE2 0xC2 0xAB SWAP6 0x1E LOG1 0x4F PUSH26 0x2C0223B511C2DB7658A896122267722255BAD3BBC4063C64736F PUSH13 0x63430008120033000000000000 "
				},
				"gasEstimates": {
					"creation": {
						"codeDepositCost": "1002200",
						"executionCost": "infinite",
						"totalCost": "infinite"
					},
					"external": {
						"addTokens(address,string)": "infinite",
						"lend(address,uint256)": "infinite",
						"lenderAssetList(address,uint256)": "infinite",
						"lenderAssets(address,address)": "infinite",
						"lenderTimestamp(address,address)": "infinite",
						"owner()": "2511",
						"reserves(address)": "2858",
						"rewardTokensEarned(address,address)": "infinite",
						"tokenMap(address)": "infinite",
						"updateEarned(address,address)": "infinite"
					},
					"internal": {
						"isOwner(address)": "infinite"
					}
				},
				"methodIdentifiers": {
					"addTokens(address,string)": "d7a3b27f",
					"lend(address,uint256)": "a2fb342d",
					"lenderAssetList(address,uint256)": "04581de5",
					"lenderAssets(address,address)": "442130d0",
					"lenderTimestamp(address,address)": "8a1b1bc4",
					"owner()": "8da5cb5b",
					"reserves(address)": "d66bd524",
					"rewardTokensEarned(address,address)": "6c0723c5",
					"tokenMap(address)": "004aca6e",
					"updateEarned(address,address)": "dd943ca9"
				}
			},
			"storageLayout": {
				"storage": [
					{
						"astId": 316,
						"contract": "Defi-project/LendingPool_20230217_1.sol:LendingPool",
						"label": "owner",
						"offset": 0,
						"slot": "0",
						"type": "t_address"
					},
					{
						"astId": 331,
						"contract": "Defi-project/LendingPool_20230217_1.sol:LendingPool",
						"label": "tokenMap",
						"offset": 0,
						"slot": "1",
						"type": "t_mapping(t_address,t_string_storage)"
					},
					{
						"astId": 335,
						"contract": "Defi-project/LendingPool_20230217_1.sol:LendingPool",
						"label": "reserves",
						"offset": 0,
						"slot": "2",
						"type": "t_mapping(t_address,t_uint256)"
					},
					{
						"astId": 340,
						"contract": "Defi-project/LendingPool_20230217_1.sol:LendingPool",
						"label": "lenderAssetList",
						"offset": 0,
						"slot": "3",
						"type": "t_mapping(t_address,t_array(t_address)dyn_storage)"
					},
					{
						"astId": 346,
						"contract": "Defi-project/LendingPool_20230217_1.sol:LendingPool",
						"label": "lenderAssets",
						"offset": 0,
						"slot": "4",
						"type": "t_mapping(t_address,t_mapping(t_address,t_uint256))"
					},
					{
						"astId": 352,
						"contract": "Defi-project/LendingPool_20230217_1.sol:LendingPool",
						"label": "lenderTimestamp",
						"offset": 0,
						"slot": "5",
						"type": "t_mapping(t_address,t_mapping(t_address,t_uint256))"
					},
					{
						"astId": 358,
						"contract": "Defi-project/LendingPool_20230217_1.sol:LendingPool",
						"label": "lenderRewards",
						"offset": 0,
						"slot": "6",
						"type": "t_mapping(t_address,t_mapping(t_address,t_uint256))"
					}
				],
				"types": {
					"t_address": {
						"encoding": "inplace",
						"label": "address",
						"numberOfBytes": "20"
					},
					"t_array(t_address)dyn_storage": {
						"base": "t_address",
						"encoding": "dynamic_array",
						"label": "address[]",
						"numberOfBytes": "32"
					},
					"t_mapping(t_address,t_array(t_address)dyn_storage)": {
						"encoding": "mapping",
						"key": "t_address",
						"label": "mapping(address => address[])",
						"numberOfBytes": "32",
						"value": "t_array(t_address)dyn_storage"
					},
					"t_mapping(t_address,t_mapping(t_address,t_uint256))": {
						"encoding": "mapping",
						"key": "t_address",
						"label": "mapping(address => mapping(address => uint256))",
						"numberOfBytes": "32",
						"value": "t_mapping(t_address,t_uint256)"
					},
					"t_mapping(t_address,t_string_storage)": {
						"encoding": "mapping",
						"key": "t_address",
						"label": "mapping(address => string)",
						"numberOfBytes": "32",
						"value": "t_string_storage"
					},
					"t_mapping(t_address,t_uint256)": {
						"encoding": "mapping",
						"key": "t_address",
						"label": "mapping(address => uint256)",
						"numberOfBytes": "32",
						"value": "t_uint256"
					},
					"t_string_storage": {
						"encoding": "bytes",
						"label": "string",
						"numberOfBytes": "32"
					},
					"t_uint256": {
						"encoding": "inplace",
						"label": "uint256",
						"numberOfBytes": "32"
					}
				}
			},
			"userdoc": {
				"kind": "user",
				"methods": {},
				"version": 1
			}
		}
	}
}