{
	"Defi-project/test.sol": {
		"TEST": {
			"abi": [
				{
					"inputs": [],
					"name": "getAssetsToBorrow",
					"outputs": [
						{
							"components": [
								{
									"internalType": "address",
									"name": "asset",
									"type": "address"
								},
								{
									"internalType": "uint256",
									"name": "availableQty",
									"type": "uint256"
								},
								{
									"internalType": "uint256",
									"name": "apy",
									"type": "uint256"
								}
							],
							"internalType": "struct TEST.Borrow[]",
							"name": "",
							"type": "tuple[]"
						}
					],
					"stateMutability": "view",
					"type": "function"
				},
				{
					"inputs": [
						{
							"internalType": "address",
							"name": "_token",
							"type": "address"
						},
						{
							"internalType": "uint256",
							"name": "_amount",
							"type": "uint256"
						}
					],
					"name": "lend",
					"outputs": [],
					"stateMutability": "nonpayable",
					"type": "function"
				},
				{
					"inputs": [
						{
							"internalType": "address",
							"name": "",
							"type": "address"
						},
						{
							"internalType": "uint256",
							"name": "",
							"type": "uint256"
						}
					],
					"name": "lenderAssetList",
					"outputs": [
						{
							"internalType": "address",
							"name": "",
							"type": "address"
						}
					],
					"stateMutability": "view",
					"type": "function"
				},
				{
					"inputs": [
						{
							"internalType": "address",
							"name": "",
							"type": "address"
						},
						{
							"internalType": "address",
							"name": "",
							"type": "address"
						}
					],
					"name": "lenderAssets",
					"outputs": [
						{
							"internalType": "uint256",
							"name": "",
							"type": "uint256"
						}
					],
					"stateMutability": "view",
					"type": "function"
				},
				{
					"inputs": [
						{
							"internalType": "address",
							"name": "",
							"type": "address"
						}
					],
					"name": "lenderTotalLandings",
					"outputs": [
						{
							"internalType": "uint256",
							"name": "",
							"type": "uint256"
						}
					],
					"stateMutability": "view",
					"type": "function"
				},
				{
					"inputs": [
						{
							"internalType": "uint256",
							"name": "",
							"type": "uint256"
						}
					],
					"name": "reserveAssets",
					"outputs": [
						{
							"internalType": "address",
							"name": "",
							"type": "address"
						}
					],
					"stateMutability": "view",
					"type": "function"
				},
				{
					"inputs": [
						{
							"internalType": "address",
							"name": "",
							"type": "address"
						}
					],
					"name": "reserves",
					"outputs": [
						{
							"internalType": "uint256",
							"name": "",
							"type": "uint256"
						}
					],
					"stateMutability": "view",
					"type": "function"
				}
			],
			"devdoc": {
				"kind": "dev",
				"methods": {},
				"version": 1
			},
			"evm": {
				"assembly": "    /* \"Defi-project/test.sol\":66:2952  contract TEST {\r... */\n  mstore(0x40, 0xc0)\n    /* \"Defi-project/test.sol\":126:127  4 */\n  0x04\n    /* \"Defi-project/test.sol\":93:127  uint256  immutable BORROW_RATE = 4 */\n  0x80\n  swap1\n  dup2\n  mstore\n  pop\n    /* \"Defi-project/test.sol\":170:172  50 */\n  0x32\n    /* \"Defi-project/test.sol\":134:172  uint256  immutable BORROW_THRESHOLD=50 */\n  0xa0\n  swap1\n  dup2\n  mstore\n  pop\n    /* \"Defi-project/test.sol\":66:2952  contract TEST {\r... */\n  callvalue\n  dup1\n  iszero\n  tag_1\n  jumpi\n  0x00\n  dup1\n  revert\ntag_1:\n  pop\n  mload(0x80)\n  mload(0xa0)\n  codecopy(0x00, dataOffset(sub_0), dataSize(sub_0))\n  0x00\n  assignImmutable(\"0x52f1a9b320cab38e5da8a8f97989383aab0a49165fc91c737310e4f7e9821021\")\n  0x00\n  assignImmutable(\"0x13600b294191fc92924bb3ce4b969c1e7e2bab8f4c93c3fc6d0a51733df3c060\")\n  return(0x00, dataSize(sub_0))\nstop\n\nsub_0: assembly {\n        /* \"Defi-project/test.sol\":66:2952  contract TEST {\r... */\n      mstore(0x40, 0x80)\n      callvalue\n      dup1\n      iszero\n      tag_1\n      jumpi\n      0x00\n      dup1\n      revert\n    tag_1:\n      pop\n      jumpi(tag_2, lt(calldatasize, 0x04))\n      shr(0xe0, calldataload(0x00))\n      dup1\n      0x442130d0\n      gt\n      tag_10\n      jumpi\n      dup1\n      0x442130d0\n      eq\n      tag_6\n      jumpi\n      dup1\n      0xa2fb342d\n      eq\n      tag_7\n      jumpi\n      dup1\n      0xc32d90ab\n      eq\n      tag_8\n      jumpi\n      dup1\n      0xd66bd524\n      eq\n      tag_9\n      jumpi\n      jump(tag_2)\n    tag_10:\n      dup1\n      0x04581de5\n      eq\n      tag_3\n      jumpi\n      dup1\n      0x0480ee08\n      eq\n      tag_4\n      jumpi\n      dup1\n      0x37973e5f\n      eq\n      tag_5\n      jumpi\n    tag_2:\n      0x00\n      dup1\n      revert\n        /* \"Defi-project/test.sol\":337:389  mapping(address => address[]) public lenderAssetList */\n    tag_3:\n      tag_11\n      0x04\n      dup1\n      calldatasize\n      sub\n      dup2\n      add\n      swap1\n      tag_12\n      swap2\n      swap1\n      tag_13\n      jump\t// in\n    tag_12:\n      tag_14\n      jump\t// in\n    tag_11:\n      mload(0x40)\n      tag_15\n      swap2\n      swap1\n      tag_16\n      jump\t// in\n    tag_15:\n      mload(0x40)\n      dup1\n      swap2\n      sub\n      swap1\n      return\n        /* \"Defi-project/test.sol\":1250:2936  function getAssetsToBorrow() public view  returns(Borrow[] memory){\r... */\n    tag_4:\n      tag_17\n      tag_18\n      jump\t// in\n    tag_17:\n      mload(0x40)\n      tag_19\n      swap2\n      swap1\n      tag_20\n      jump\t// in\n    tag_19:\n      mload(0x40)\n      dup1\n      swap2\n      sub\n      swap1\n      return\n        /* \"Defi-project/test.sol\":179:209  address[] public reserveAssets */\n    tag_5:\n      tag_21\n      0x04\n      dup1\n      calldatasize\n      sub\n      dup2\n      add\n      swap1\n      tag_22\n      swap2\n      swap1\n      tag_23\n      jump\t// in\n    tag_22:\n      tag_24\n      jump\t// in\n    tag_21:\n      mload(0x40)\n      tag_25\n      swap2\n      swap1\n      tag_16\n      jump\t// in\n    tag_25:\n      mload(0x40)\n      dup1\n      swap2\n      sub\n      swap1\n      return\n        /* \"Defi-project/test.sol\":266:330  mapping(address => mapping(address => uint)) public lenderAssets */\n    tag_6:\n      tag_26\n      0x04\n      dup1\n      calldatasize\n      sub\n      dup2\n      add\n      swap1\n      tag_27\n      swap2\n      swap1\n      tag_28\n      jump\t// in\n    tag_27:\n      tag_29\n      jump\t// in\n    tag_26:\n      mload(0x40)\n      tag_30\n      swap2\n      swap1\n      tag_31\n      jump\t// in\n    tag_30:\n      mload(0x40)\n      dup1\n      swap2\n      sub\n      swap1\n      return\n        /* \"Defi-project/test.sol\":630:1240  function lend(address _token, uint256 _amount) public {\r... */\n    tag_7:\n      tag_32\n      0x04\n      dup1\n      calldatasize\n      sub\n      dup2\n      add\n      swap1\n      tag_33\n      swap2\n      swap1\n      tag_13\n      jump\t// in\n    tag_33:\n      tag_34\n      jump\t// in\n    tag_32:\n      stop\n        /* \"Defi-project/test.sol\":396:447  mapping(address => uint) public lenderTotalLandings */\n    tag_8:\n      tag_35\n      0x04\n      dup1\n      calldatasize\n      sub\n      dup2\n      add\n      swap1\n      tag_36\n      swap2\n      swap1\n      tag_37\n      jump\t// in\n    tag_36:\n      tag_38\n      jump\t// in\n    tag_35:\n      mload(0x40)\n      tag_39\n      swap2\n      swap1\n      tag_31\n      jump\t// in\n    tag_39:\n      mload(0x40)\n      dup1\n      swap2\n      sub\n      swap1\n      return\n        /* \"Defi-project/test.sol\":216:257  mapping(address => uint)  public reserves */\n    tag_9:\n      tag_40\n      0x04\n      dup1\n      calldatasize\n      sub\n      dup2\n      add\n      swap1\n      tag_41\n      swap2\n      swap1\n      tag_37\n      jump\t// in\n    tag_41:\n      tag_42\n      jump\t// in\n    tag_40:\n      mload(0x40)\n      tag_43\n      swap2\n      swap1\n      tag_31\n      jump\t// in\n    tag_43:\n      mload(0x40)\n      dup1\n      swap2\n      sub\n      swap1\n      return\n        /* \"Defi-project/test.sol\":337:389  mapping(address => address[]) public lenderAssetList */\n    tag_14:\n      mstore(0x20, 0x03)\n      dup2\n      0x00\n      mstore\n      keccak256(0x00, 0x40)\n      dup2\n      dup2\n      sload\n      dup2\n      lt\n      tag_44\n      jumpi\n      0x00\n      dup1\n      revert\n    tag_44:\n      swap1\n      0x00\n      mstore\n      keccak256(0x00, 0x20)\n      add\n      0x00\n      swap2\n      pop\n      swap2\n      pop\n      swap1\n      sload\n      swap1\n      0x0100\n      exp\n      swap1\n      div\n      0xffffffffffffffffffffffffffffffffffffffff\n      and\n      dup2\n      jump\t// out\n        /* \"Defi-project/test.sol\":1250:2936  function getAssetsToBorrow() public view  returns(Borrow[] memory){\r... */\n    tag_18:\n        /* \"Defi-project/test.sol\":1300:1315  Borrow[] memory */\n      0x60\n        /* \"Defi-project/test.sol\":1766:1789  uint lendingTotalAmount */\n      0x00\n        /* \"Defi-project/test.sol\":1792:1811  lenderTotalLandings */\n      0x04\n        /* \"Defi-project/test.sol\":1792:1823  lenderTotalLandings[msg.sender] */\n      0x00\n        /* \"Defi-project/test.sol\":1812:1822  msg.sender */\n      caller\n        /* \"Defi-project/test.sol\":1792:1823  lenderTotalLandings[msg.sender] */\n      0xffffffffffffffffffffffffffffffffffffffff\n      and\n      0xffffffffffffffffffffffffffffffffffffffff\n      and\n      dup2\n      mstore\n      0x20\n      add\n      swap1\n      dup2\n      mstore\n      0x20\n      add\n      0x00\n      keccak256\n      sload\n        /* \"Defi-project/test.sol\":1766:1823  uint lendingTotalAmount = lenderTotalLandings[msg.sender] */\n      swap1\n      pop\n        /* \"Defi-project/test.sol\":2056:2076  uint maxBorrowAmount */\n      0x00\n        /* \"Defi-project/test.sol\":2119:2122  100 */\n      0x64\n        /* \"Defi-project/test.sol\":2100:2116  BORROW_THRESHOLD */\n      immutable(\"0x52f1a9b320cab38e5da8a8f97989383aab0a49165fc91c737310e4f7e9821021\")\n        /* \"Defi-project/test.sol\":2079:2097  lendingTotalAmount */\n      dup4\n        /* \"Defi-project/test.sol\":2079:2116  lendingTotalAmount * BORROW_THRESHOLD */\n      tag_47\n      swap2\n      swap1\n      tag_48\n      jump\t// in\n    tag_47:\n        /* \"Defi-project/test.sol\":2079:2122  lendingTotalAmount * BORROW_THRESHOLD / 100 */\n      tag_49\n      swap2\n      swap1\n      tag_50\n      jump\t// in\n    tag_49:\n        /* \"Defi-project/test.sol\":2056:2122  uint maxBorrowAmount = lendingTotalAmount * BORROW_THRESHOLD / 100 */\n      swap1\n      pop\n        /* \"Defi-project/test.sol\":2357:2385  uint totalReverseTokenCounts */\n      0x00\n        /* \"Defi-project/test.sol\":2388:2401  reserveAssets */\n      dup1\n        /* \"Defi-project/test.sol\":2388:2408  reserveAssets.length */\n      dup1\n      sload\n      swap1\n      pop\n        /* \"Defi-project/test.sol\":2357:2408  uint totalReverseTokenCounts = reserveAssets.length */\n      swap1\n      pop\n        /* \"Defi-project/test.sol\":2420:2451  Borrow[] memory borrowingAssets */\n      0x00\n        /* \"Defi-project/test.sol\":2467:2490  totalReverseTokenCounts */\n      dup2\n        /* \"Defi-project/test.sol\":2454:2491  new Borrow[](totalReverseTokenCounts) */\n      0xffffffffffffffff\n      dup2\n      gt\n      iszero\n      tag_51\n      jumpi\n      tag_52\n      tag_53\n      jump\t// in\n    tag_52:\n    tag_51:\n      mload(0x40)\n      swap1\n      dup1\n      dup3\n      mstore\n      dup1\n      0x20\n      mul\n      0x20\n      add\n      dup3\n      add\n      0x40\n      mstore\n      dup1\n      iszero\n      tag_54\n      jumpi\n      dup2\n      0x20\n      add\n    tag_55:\n      tag_56\n      tag_57\n      jump\t// in\n    tag_56:\n      dup2\n      mstore\n      0x20\n      add\n      swap1\n      0x01\n      swap1\n      sub\n      swap1\n      dup2\n      tag_55\n      jumpi\n      swap1\n      pop\n    tag_54:\n      pop\n        /* \"Defi-project/test.sol\":2420:2491  Borrow[] memory borrowingAssets = new Borrow[](totalReverseTokenCounts) */\n      swap1\n      pop\n        /* \"Defi-project/test.sol\":2516:2522  uint i */\n      0x00\n        /* \"Defi-project/test.sol\":2512:2886  for(uint i= 0; i < totalReverseTokenCounts; i++) {\r... */\n    tag_58:\n        /* \"Defi-project/test.sol\":2531:2554  totalReverseTokenCounts */\n      dup3\n        /* \"Defi-project/test.sol\":2527:2528  i */\n      dup2\n        /* \"Defi-project/test.sol\":2527:2554  i < totalReverseTokenCounts */\n      lt\n        /* \"Defi-project/test.sol\":2512:2886  for(uint i= 0; i < totalReverseTokenCounts; i++) {\r... */\n      iszero\n      tag_59\n      jumpi\n        /* \"Defi-project/test.sol\":2576:2589  address token */\n      0x00\n        /* \"Defi-project/test.sol\":2592:2605  reserveAssets */\n      dup1\n        /* \"Defi-project/test.sol\":2606:2607  i */\n      dup3\n        /* \"Defi-project/test.sol\":2592:2608  reserveAssets[i] */\n      dup2\n      sload\n      dup2\n      lt\n      tag_61\n      jumpi\n      tag_62\n      tag_63\n      jump\t// in\n    tag_62:\n    tag_61:\n      swap1\n      0x00\n      mstore\n      keccak256(0x00, 0x20)\n      add\n      0x00\n      swap1\n      sload\n      swap1\n      0x0100\n      exp\n      swap1\n      div\n      0xffffffffffffffffffffffffffffffffffffffff\n      and\n        /* \"Defi-project/test.sol\":2576:2608  address token = reserveAssets[i] */\n      swap1\n      pop\n        /* \"Defi-project/test.sol\":2623:2646  uint reserveTokenAmount */\n      0x00\n        /* \"Defi-project/test.sol\":2649:2657  reserves */\n      0x01\n        /* \"Defi-project/test.sol\":2649:2664  reserves[token] */\n      0x00\n        /* \"Defi-project/test.sol\":2658:2663  token */\n      dup4\n        /* \"Defi-project/test.sol\":2649:2664  reserves[token] */\n      0xffffffffffffffffffffffffffffffffffffffff\n      and\n      0xffffffffffffffffffffffffffffffffffffffff\n      and\n      dup2\n      mstore\n      0x20\n      add\n      swap1\n      dup2\n      mstore\n      0x20\n      add\n      0x00\n      keccak256\n      sload\n        /* \"Defi-project/test.sol\":2623:2664  uint reserveTokenAmount = reserves[token] */\n      swap1\n      pop\n        /* \"Defi-project/test.sol\":2679:2689  uint index */\n      0x00\n        /* \"Defi-project/test.sol\":2729:2744  maxBorrowAmount */\n      dup7\n        /* \"Defi-project/test.sol\":2707:2725  reserveTokenAmount */\n      dup3\n        /* \"Defi-project/test.sol\":2707:2744  reserveTokenAmount >= maxBorrowAmount */\n      lt\n        /* \"Defi-project/test.sol\":2704:2875  if(reserveTokenAmount >= maxBorrowAmount) {\r... */\n      tag_65\n      jumpi\n        /* \"Defi-project/test.sol\":2790:2833  Borrow(token, maxBorrowAmount, BORROW_RATE) */\n      mload(0x40)\n      dup1\n      0x60\n      add\n      0x40\n      mstore\n      dup1\n        /* \"Defi-project/test.sol\":2797:2802  token */\n      dup5\n        /* \"Defi-project/test.sol\":2790:2833  Borrow(token, maxBorrowAmount, BORROW_RATE) */\n      0xffffffffffffffffffffffffffffffffffffffff\n      and\n      dup2\n      mstore\n      0x20\n      add\n        /* \"Defi-project/test.sol\":2804:2819  maxBorrowAmount */\n      dup9\n        /* \"Defi-project/test.sol\":2790:2833  Borrow(token, maxBorrowAmount, BORROW_RATE) */\n      dup2\n      mstore\n      0x20\n      add\n        /* \"Defi-project/test.sol\":2821:2832  BORROW_RATE */\n      immutable(\"0x13600b294191fc92924bb3ce4b969c1e7e2bab8f4c93c3fc6d0a51733df3c060\")\n        /* \"Defi-project/test.sol\":2790:2833  Borrow(token, maxBorrowAmount, BORROW_RATE) */\n      dup2\n      mstore\n      pop\n        /* \"Defi-project/test.sol\":2765:2780  borrowingAssets */\n      dup6\n        /* \"Defi-project/test.sol\":2781:2786  index */\n      dup3\n        /* \"Defi-project/test.sol\":2765:2787  borrowingAssets[index] */\n      dup2\n      mload\n      dup2\n      lt\n      tag_66\n      jumpi\n      tag_67\n      tag_63\n      jump\t// in\n    tag_67:\n    tag_66:\n      0x20\n      mul\n      0x20\n      add\n      add\n        /* \"Defi-project/test.sol\":2765:2833  borrowingAssets[index] = Borrow(token, maxBorrowAmount, BORROW_RATE) */\n      dup2\n      swap1\n      mstore\n      pop\n        /* \"Defi-project/test.sol\":2852:2859  index++ */\n      dup1\n      dup1\n      tag_68\n      swap1\n      tag_69\n      jump\t// in\n    tag_68:\n      swap2\n      pop\n      pop\n        /* \"Defi-project/test.sol\":2704:2875  if(reserveTokenAmount >= maxBorrowAmount) {\r... */\n    tag_65:\n        /* \"Defi-project/test.sol\":2561:2886  {\r... */\n      pop\n      pop\n      pop\n        /* \"Defi-project/test.sol\":2556:2559  i++ */\n      dup1\n      dup1\n      tag_70\n      swap1\n      tag_69\n      jump\t// in\n    tag_70:\n      swap2\n      pop\n      pop\n        /* \"Defi-project/test.sol\":2512:2886  for(uint i= 0; i < totalReverseTokenCounts; i++) {\r... */\n      jump(tag_58)\n    tag_59:\n      pop\n        /* \"Defi-project/test.sol\":2903:2918  borrowingAssets */\n      dup1\n        /* \"Defi-project/test.sol\":2896:2918  return borrowingAssets */\n      swap5\n      pop\n      pop\n      pop\n      pop\n      pop\n        /* \"Defi-project/test.sol\":1250:2936  function getAssetsToBorrow() public view  returns(Borrow[] memory){\r... */\n      swap1\n      jump\t// out\n        /* \"Defi-project/test.sol\":179:209  address[] public reserveAssets */\n    tag_24:\n      0x00\n      dup2\n      dup2\n      sload\n      dup2\n      lt\n      tag_71\n      jumpi\n      0x00\n      dup1\n      revert\n    tag_71:\n      swap1\n      0x00\n      mstore\n      keccak256(0x00, 0x20)\n      add\n      0x00\n      swap2\n      pop\n      sload\n      swap1\n      0x0100\n      exp\n      swap1\n      div\n      0xffffffffffffffffffffffffffffffffffffffff\n      and\n      dup2\n      jump\t// out\n        /* \"Defi-project/test.sol\":266:330  mapping(address => mapping(address => uint)) public lenderAssets */\n    tag_29:\n      mstore(0x20, 0x02)\n      dup2\n      0x00\n      mstore\n      mstore(0x20, keccak256(0x00, 0x40))\n      dup1\n      0x00\n      mstore\n      keccak256(0x00, 0x40)\n      0x00\n      swap2\n      pop\n      swap2\n      pop\n      pop\n      sload\n      dup2\n      jump\t// out\n        /* \"Defi-project/test.sol\":630:1240  function lend(address _token, uint256 _amount) public {\r... */\n    tag_34:\n        /* \"Defi-project/test.sol\":695:709  address lender */\n      0x00\n        /* \"Defi-project/test.sol\":712:722  msg.sender */\n      caller\n        /* \"Defi-project/test.sol\":695:722  address lender = msg.sender */\n      swap1\n      pop\n        /* \"Defi-project/test.sol\":810:817  _amount */\n      dup2\n        /* \"Defi-project/test.sol\":779:791  lenderAssets */\n      0x02\n        /* \"Defi-project/test.sol\":779:799  lenderAssets[lender] */\n      0x00\n        /* \"Defi-project/test.sol\":792:798  lender */\n      dup4\n        /* \"Defi-project/test.sol\":779:799  lenderAssets[lender] */\n      0xffffffffffffffffffffffffffffffffffffffff\n      and\n      0xffffffffffffffffffffffffffffffffffffffff\n      and\n      dup2\n      mstore\n      0x20\n      add\n      swap1\n      dup2\n      mstore\n      0x20\n      add\n      0x00\n      keccak256\n        /* \"Defi-project/test.sol\":779:807  lenderAssets[lender][_token] */\n      0x00\n        /* \"Defi-project/test.sol\":800:806  _token */\n      dup6\n        /* \"Defi-project/test.sol\":779:807  lenderAssets[lender][_token] */\n      0xffffffffffffffffffffffffffffffffffffffff\n      and\n      0xffffffffffffffffffffffffffffffffffffffff\n      and\n      dup2\n      mstore\n      0x20\n      add\n      swap1\n      dup2\n      mstore\n      0x20\n      add\n      0x00\n      keccak256\n        /* \"Defi-project/test.sol\":779:817  lenderAssets[lender][_token] = _amount */\n      dup2\n      swap1\n      sstore\n      pop\n        /* \"Defi-project/test.sol\":865:880  lenderAssetList */\n      0x03\n        /* \"Defi-project/test.sol\":865:888  lenderAssetList[lender] */\n      0x00\n        /* \"Defi-project/test.sol\":881:887  lender */\n      dup3\n        /* \"Defi-project/test.sol\":865:888  lenderAssetList[lender] */\n      0xffffffffffffffffffffffffffffffffffffffff\n      and\n      0xffffffffffffffffffffffffffffffffffffffff\n      and\n      dup2\n      mstore\n      0x20\n      add\n      swap1\n      dup2\n      mstore\n      0x20\n      add\n      0x00\n      keccak256\n        /* \"Defi-project/test.sol\":894:900  _token */\n      dup4\n        /* \"Defi-project/test.sol\":865:901  lenderAssetList[lender].push(_token) */\n      swap1\n      dup1\n      0x01\n      dup2\n      sload\n      add\n      dup1\n      dup3\n      sstore\n      dup1\n      swap2\n      pop\n      pop\n      0x01\n      swap1\n      sub\n      swap1\n      0x00\n      mstore\n      keccak256(0x00, 0x20)\n      add\n      0x00\n      swap1\n      swap2\n      swap1\n      swap2\n      swap1\n      swap2\n      0x0100\n      exp\n      dup2\n      sload\n      dup2\n      0xffffffffffffffffffffffffffffffffffffffff\n      mul\n      not\n      and\n      swap1\n      dup4\n      0xffffffffffffffffffffffffffffffffffffffff\n      and\n      mul\n      or\n      swap1\n      sstore\n      pop\n        /* \"Defi-project/test.sol\":994:1001  _amount */\n      dup2\n        /* \"Defi-project/test.sol\":959:978  lenderTotalLandings */\n      0x04\n        /* \"Defi-project/test.sol\":959:990  lenderTotalLandings[msg.sender] */\n      0x00\n        /* \"Defi-project/test.sol\":979:989  msg.sender */\n      caller\n        /* \"Defi-project/test.sol\":959:990  lenderTotalLandings[msg.sender] */\n      0xffffffffffffffffffffffffffffffffffffffff\n      and\n      0xffffffffffffffffffffffffffffffffffffffff\n      and\n      dup2\n      mstore\n      0x20\n      add\n      swap1\n      dup2\n      mstore\n      0x20\n      add\n      0x00\n      keccak256\n      0x00\n        /* \"Defi-project/test.sol\":959:1001  lenderTotalLandings[msg.sender] += _amount */\n      dup3\n      dup3\n      sload\n      tag_75\n      swap2\n      swap1\n      tag_76\n      jump\t// in\n    tag_75:\n      swap3\n      pop\n      pop\n      dup2\n      swap1\n      sstore\n      pop\n        /* \"Defi-project/test.sol\":1032:1039  _amount */\n      dup2\n        /* \"Defi-project/test.sol\":1012:1020  reserves */\n      0x01\n        /* \"Defi-project/test.sol\":1012:1028  reserves[_token] */\n      0x00\n        /* \"Defi-project/test.sol\":1021:1027  _token */\n      dup6\n        /* \"Defi-project/test.sol\":1012:1028  reserves[_token] */\n      0xffffffffffffffffffffffffffffffffffffffff\n      and\n      0xffffffffffffffffffffffffffffffffffffffff\n      and\n      dup2\n      mstore\n      0x20\n      add\n      swap1\n      dup2\n      mstore\n      0x20\n      add\n      0x00\n      keccak256\n      0x00\n        /* \"Defi-project/test.sol\":1012:1039  reserves[_token] += _amount */\n      dup3\n      dup3\n      sload\n      tag_77\n      swap2\n      swap1\n      tag_76\n      jump\t// in\n    tag_77:\n      swap3\n      pop\n      pop\n      dup2\n      swap1\n      sstore\n      pop\n        /* \"Defi-project/test.sol\":1107:1120  reserveAssets */\n      0x00\n        /* \"Defi-project/test.sol\":1126:1132  _token */\n      dup4\n        /* \"Defi-project/test.sol\":1107:1133  reserveAssets.push(_token) */\n      swap1\n      dup1\n      0x01\n      dup2\n      sload\n      add\n      dup1\n      dup3\n      sstore\n      dup1\n      swap2\n      pop\n      pop\n      0x01\n      swap1\n      sub\n      swap1\n      0x00\n      mstore\n      keccak256(0x00, 0x20)\n      add\n      0x00\n      swap1\n      swap2\n      swap1\n      swap2\n      swap1\n      swap2\n      0x0100\n      exp\n      dup2\n      sload\n      dup2\n      0xffffffffffffffffffffffffffffffffffffffff\n      mul\n      not\n      and\n      swap1\n      dup4\n      0xffffffffffffffffffffffffffffffffffffffff\n      and\n      mul\n      or\n      swap1\n      sstore\n      pop\n        /* \"Defi-project/test.sol\":1217:1232  block.timestamp */\n      timestamp\n        /* \"Defi-project/test.sol\":1183:1198  lenderTimestamp */\n      0x05\n        /* \"Defi-project/test.sol\":1183:1206  lenderTimestamp[lender] */\n      0x00\n        /* \"Defi-project/test.sol\":1199:1205  lender */\n      dup4\n        /* \"Defi-project/test.sol\":1183:1206  lenderTimestamp[lender] */\n      0xffffffffffffffffffffffffffffffffffffffff\n      and\n      0xffffffffffffffffffffffffffffffffffffffff\n      and\n      dup2\n      mstore\n      0x20\n      add\n      swap1\n      dup2\n      mstore\n      0x20\n      add\n      0x00\n      keccak256\n        /* \"Defi-project/test.sol\":1183:1214  lenderTimestamp[lender][_token] */\n      0x00\n        /* \"Defi-project/test.sol\":1207:1213  _token */\n      dup6\n        /* \"Defi-project/test.sol\":1183:1214  lenderTimestamp[lender][_token] */\n      0xffffffffffffffffffffffffffffffffffffffff\n      and\n      0xffffffffffffffffffffffffffffffffffffffff\n      and\n      dup2\n      mstore\n      0x20\n      add\n      swap1\n      dup2\n      mstore\n      0x20\n      add\n      0x00\n      keccak256\n        /* \"Defi-project/test.sol\":1183:1232  lenderTimestamp[lender][_token] = block.timestamp */\n      dup2\n      swap1\n      sstore\n      pop\n        /* \"Defi-project/test.sol\":684:1240  {\r... */\n      pop\n        /* \"Defi-project/test.sol\":630:1240  function lend(address _token, uint256 _amount) public {\r... */\n      pop\n      pop\n      jump\t// out\n        /* \"Defi-project/test.sol\":396:447  mapping(address => uint) public lenderTotalLandings */\n    tag_38:\n      mstore(0x20, 0x04)\n      dup1\n      0x00\n      mstore\n      keccak256(0x00, 0x40)\n      0x00\n      swap2\n      pop\n      swap1\n      pop\n      sload\n      dup2\n      jump\t// out\n        /* \"Defi-project/test.sol\":216:257  mapping(address => uint)  public reserves */\n    tag_42:\n      mstore(0x20, 0x01)\n      dup1\n      0x00\n      mstore\n      keccak256(0x00, 0x40)\n      0x00\n      swap2\n      pop\n      swap1\n      pop\n      sload\n      dup2\n      jump\t// out\n    tag_57:\n      mload(0x40)\n      dup1\n      0x60\n      add\n      0x40\n      mstore\n      dup1\n      and(0xffffffffffffffffffffffffffffffffffffffff, 0x00)\n      dup2\n      mstore\n      0x20\n      add\n      0x00\n      dup2\n      mstore\n      0x20\n      add\n      0x00\n      dup2\n      mstore\n      pop\n      swap1\n      jump\t// out\n        /* \"#utility.yul\":7:146   */\n    tag_80:\n        /* \"#utility.yul\":53:58   */\n      0x00\n        /* \"#utility.yul\":91:97   */\n      dup2\n        /* \"#utility.yul\":78:98   */\n      calldataload\n        /* \"#utility.yul\":69:98   */\n      swap1\n      pop\n        /* \"#utility.yul\":107:140   */\n      tag_82\n        /* \"#utility.yul\":134:139   */\n      dup2\n        /* \"#utility.yul\":107:140   */\n      tag_83\n      jump\t// in\n    tag_82:\n        /* \"#utility.yul\":59:146   */\n      swap3\n      swap2\n      pop\n      pop\n      jump\t// out\n        /* \"#utility.yul\":152:291   */\n    tag_84:\n        /* \"#utility.yul\":198:203   */\n      0x00\n        /* \"#utility.yul\":236:242   */\n      dup2\n        /* \"#utility.yul\":223:243   */\n      calldataload\n        /* \"#utility.yul\":214:243   */\n      swap1\n      pop\n        /* \"#utility.yul\":252:285   */\n      tag_86\n        /* \"#utility.yul\":279:284   */\n      dup2\n        /* \"#utility.yul\":252:285   */\n      tag_87\n      jump\t// in\n    tag_86:\n        /* \"#utility.yul\":204:291   */\n      swap3\n      swap2\n      pop\n      pop\n      jump\t// out\n        /* \"#utility.yul\":297:626   */\n    tag_37:\n        /* \"#utility.yul\":356:362   */\n      0x00\n        /* \"#utility.yul\":405:407   */\n      0x20\n        /* \"#utility.yul\":393:402   */\n      dup3\n        /* \"#utility.yul\":384:391   */\n      dup5\n        /* \"#utility.yul\":380:403   */\n      sub\n        /* \"#utility.yul\":376:408   */\n      slt\n        /* \"#utility.yul\":373:375   */\n      iszero\n      tag_89\n      jumpi\n        /* \"#utility.yul\":411:490   */\n      tag_90\n      tag_91\n      jump\t// in\n    tag_90:\n        /* \"#utility.yul\":373:375   */\n    tag_89:\n        /* \"#utility.yul\":531:532   */\n      0x00\n        /* \"#utility.yul\":556:609   */\n      tag_92\n        /* \"#utility.yul\":601:608   */\n      dup5\n        /* \"#utility.yul\":592:598   */\n      dup3\n        /* \"#utility.yul\":581:590   */\n      dup6\n        /* \"#utility.yul\":577:599   */\n      add\n        /* \"#utility.yul\":556:609   */\n      tag_80\n      jump\t// in\n    tag_92:\n        /* \"#utility.yul\":546:609   */\n      swap2\n      pop\n        /* \"#utility.yul\":502:619   */\n      pop\n        /* \"#utility.yul\":363:626   */\n      swap3\n      swap2\n      pop\n      pop\n      jump\t// out\n        /* \"#utility.yul\":632:1106   */\n    tag_28:\n        /* \"#utility.yul\":700:706   */\n      0x00\n        /* \"#utility.yul\":708:714   */\n      dup1\n        /* \"#utility.yul\":757:759   */\n      0x40\n        /* \"#utility.yul\":745:754   */\n      dup4\n        /* \"#utility.yul\":736:743   */\n      dup6\n        /* \"#utility.yul\":732:755   */\n      sub\n        /* \"#utility.yul\":728:760   */\n      slt\n        /* \"#utility.yul\":725:727   */\n      iszero\n      tag_94\n      jumpi\n        /* \"#utility.yul\":763:842   */\n      tag_95\n      tag_91\n      jump\t// in\n    tag_95:\n        /* \"#utility.yul\":725:727   */\n    tag_94:\n        /* \"#utility.yul\":883:884   */\n      0x00\n        /* \"#utility.yul\":908:961   */\n      tag_96\n        /* \"#utility.yul\":953:960   */\n      dup6\n        /* \"#utility.yul\":944:950   */\n      dup3\n        /* \"#utility.yul\":933:942   */\n      dup7\n        /* \"#utility.yul\":929:951   */\n      add\n        /* \"#utility.yul\":908:961   */\n      tag_80\n      jump\t// in\n    tag_96:\n        /* \"#utility.yul\":898:961   */\n      swap3\n      pop\n        /* \"#utility.yul\":854:971   */\n      pop\n        /* \"#utility.yul\":1010:1012   */\n      0x20\n        /* \"#utility.yul\":1036:1089   */\n      tag_97\n        /* \"#utility.yul\":1081:1088   */\n      dup6\n        /* \"#utility.yul\":1072:1078   */\n      dup3\n        /* \"#utility.yul\":1061:1070   */\n      dup7\n        /* \"#utility.yul\":1057:1079   */\n      add\n        /* \"#utility.yul\":1036:1089   */\n      tag_80\n      jump\t// in\n    tag_97:\n        /* \"#utility.yul\":1026:1089   */\n      swap2\n      pop\n        /* \"#utility.yul\":981:1099   */\n      pop\n        /* \"#utility.yul\":715:1106   */\n      swap3\n      pop\n      swap3\n      swap1\n      pop\n      jump\t// out\n        /* \"#utility.yul\":1112:1586   */\n    tag_13:\n        /* \"#utility.yul\":1180:1186   */\n      0x00\n        /* \"#utility.yul\":1188:1194   */\n      dup1\n        /* \"#utility.yul\":1237:1239   */\n      0x40\n        /* \"#utility.yul\":1225:1234   */\n      dup4\n        /* \"#utility.yul\":1216:1223   */\n      dup6\n        /* \"#utility.yul\":1212:1235   */\n      sub\n        /* \"#utility.yul\":1208:1240   */\n      slt\n        /* \"#utility.yul\":1205:1207   */\n      iszero\n      tag_99\n      jumpi\n        /* \"#utility.yul\":1243:1322   */\n      tag_100\n      tag_91\n      jump\t// in\n    tag_100:\n        /* \"#utility.yul\":1205:1207   */\n    tag_99:\n        /* \"#utility.yul\":1363:1364   */\n      0x00\n        /* \"#utility.yul\":1388:1441   */\n      tag_101\n        /* \"#utility.yul\":1433:1440   */\n      dup6\n        /* \"#utility.yul\":1424:1430   */\n      dup3\n        /* \"#utility.yul\":1413:1422   */\n      dup7\n        /* \"#utility.yul\":1409:1431   */\n      add\n        /* \"#utility.yul\":1388:1441   */\n      tag_80\n      jump\t// in\n    tag_101:\n        /* \"#utility.yul\":1378:1441   */\n      swap3\n      pop\n        /* \"#utility.yul\":1334:1451   */\n      pop\n        /* \"#utility.yul\":1490:1492   */\n      0x20\n        /* \"#utility.yul\":1516:1569   */\n      tag_102\n        /* \"#utility.yul\":1561:1568   */\n      dup6\n        /* \"#utility.yul\":1552:1558   */\n      dup3\n        /* \"#utility.yul\":1541:1550   */\n      dup7\n        /* \"#utility.yul\":1537:1559   */\n      add\n        /* \"#utility.yul\":1516:1569   */\n      tag_84\n      jump\t// in\n    tag_102:\n        /* \"#utility.yul\":1506:1569   */\n      swap2\n      pop\n        /* \"#utility.yul\":1461:1579   */\n      pop\n        /* \"#utility.yul\":1195:1586   */\n      swap3\n      pop\n      swap3\n      swap1\n      pop\n      jump\t// out\n        /* \"#utility.yul\":1592:1921   */\n    tag_23:\n        /* \"#utility.yul\":1651:1657   */\n      0x00\n        /* \"#utility.yul\":1700:1702   */\n      0x20\n        /* \"#utility.yul\":1688:1697   */\n      dup3\n        /* \"#utility.yul\":1679:1686   */\n      dup5\n        /* \"#utility.yul\":1675:1698   */\n      sub\n        /* \"#utility.yul\":1671:1703   */\n      slt\n        /* \"#utility.yul\":1668:1670   */\n      iszero\n      tag_104\n      jumpi\n        /* \"#utility.yul\":1706:1785   */\n      tag_105\n      tag_91\n      jump\t// in\n    tag_105:\n        /* \"#utility.yul\":1668:1670   */\n    tag_104:\n        /* \"#utility.yul\":1826:1827   */\n      0x00\n        /* \"#utility.yul\":1851:1904   */\n      tag_106\n        /* \"#utility.yul\":1896:1903   */\n      dup5\n        /* \"#utility.yul\":1887:1893   */\n      dup3\n        /* \"#utility.yul\":1876:1885   */\n      dup6\n        /* \"#utility.yul\":1872:1894   */\n      add\n        /* \"#utility.yul\":1851:1904   */\n      tag_84\n      jump\t// in\n    tag_106:\n        /* \"#utility.yul\":1841:1904   */\n      swap2\n      pop\n        /* \"#utility.yul\":1797:1914   */\n      pop\n        /* \"#utility.yul\":1658:1921   */\n      swap3\n      swap2\n      pop\n      pop\n      jump\t// out\n        /* \"#utility.yul\":1927:2194   */\n    tag_107:\n        /* \"#utility.yul\":2040:2050   */\n      0x00\n        /* \"#utility.yul\":2061:2151   */\n      tag_109\n        /* \"#utility.yul\":2147:2150   */\n      dup4\n        /* \"#utility.yul\":2139:2145   */\n      dup4\n        /* \"#utility.yul\":2061:2151   */\n      tag_110\n      jump\t// in\n    tag_109:\n        /* \"#utility.yul\":2183:2187   */\n      0x60\n        /* \"#utility.yul\":2178:2181   */\n      dup4\n        /* \"#utility.yul\":2174:2188   */\n      add\n        /* \"#utility.yul\":2160:2188   */\n      swap1\n      pop\n        /* \"#utility.yul\":2051:2194   */\n      swap3\n      swap2\n      pop\n      pop\n      jump\t// out\n        /* \"#utility.yul\":2200:2308   */\n    tag_111:\n        /* \"#utility.yul\":2277:2301   */\n      tag_113\n        /* \"#utility.yul\":2295:2300   */\n      dup2\n        /* \"#utility.yul\":2277:2301   */\n      tag_114\n      jump\t// in\n    tag_113:\n        /* \"#utility.yul\":2272:2275   */\n      dup3\n        /* \"#utility.yul\":2265:2302   */\n      mstore\n        /* \"#utility.yul\":2255:2308   */\n      pop\n      pop\n      jump\t// out\n        /* \"#utility.yul\":2314:2432   */\n    tag_115:\n        /* \"#utility.yul\":2401:2425   */\n      tag_117\n        /* \"#utility.yul\":2419:2424   */\n      dup2\n        /* \"#utility.yul\":2401:2425   */\n      tag_114\n      jump\t// in\n    tag_117:\n        /* \"#utility.yul\":2396:2399   */\n      dup3\n        /* \"#utility.yul\":2389:2426   */\n      mstore\n        /* \"#utility.yul\":2379:2432   */\n      pop\n      pop\n      jump\t// out\n        /* \"#utility.yul\":2490:3398   */\n    tag_118:\n        /* \"#utility.yul\":2653:2656   */\n      0x00\n        /* \"#utility.yul\":2682:2758   */\n      tag_120\n        /* \"#utility.yul\":2752:2757   */\n      dup3\n        /* \"#utility.yul\":2682:2758   */\n      tag_121\n      jump\t// in\n    tag_120:\n        /* \"#utility.yul\":2774:2882   */\n      tag_122\n        /* \"#utility.yul\":2875:2881   */\n      dup2\n        /* \"#utility.yul\":2870:2873   */\n      dup6\n        /* \"#utility.yul\":2774:2882   */\n      tag_123\n      jump\t// in\n    tag_122:\n        /* \"#utility.yul\":2767:2882   */\n      swap4\n      pop\n        /* \"#utility.yul\":2906:2984   */\n      tag_124\n        /* \"#utility.yul\":2978:2983   */\n      dup4\n        /* \"#utility.yul\":2906:2984   */\n      tag_125\n      jump\t// in\n    tag_124:\n        /* \"#utility.yul\":3007:3014   */\n      dup1\n        /* \"#utility.yul\":3038:3039   */\n      0x00\n        /* \"#utility.yul\":3023:3373   */\n    tag_126:\n        /* \"#utility.yul\":3048:3054   */\n      dup4\n        /* \"#utility.yul\":3045:3046   */\n      dup2\n        /* \"#utility.yul\":3042:3055   */\n      lt\n        /* \"#utility.yul\":3023:3373   */\n      iszero\n      tag_128\n      jumpi\n        /* \"#utility.yul\":3124:3130   */\n      dup2\n        /* \"#utility.yul\":3118:3131   */\n      mload\n        /* \"#utility.yul\":3151:3258   */\n      tag_129\n        /* \"#utility.yul\":3254:3257   */\n      dup9\n        /* \"#utility.yul\":3239:3252   */\n      dup3\n        /* \"#utility.yul\":3151:3258   */\n      tag_107\n      jump\t// in\n    tag_129:\n        /* \"#utility.yul\":3144:3258   */\n      swap8\n      pop\n        /* \"#utility.yul\":3281:3363   */\n      tag_130\n        /* \"#utility.yul\":3356:3362   */\n      dup4\n        /* \"#utility.yul\":3281:3363   */\n      tag_131\n      jump\t// in\n    tag_130:\n        /* \"#utility.yul\":3271:3363   */\n      swap3\n      pop\n        /* \"#utility.yul\":3083:3373   */\n      pop\n        /* \"#utility.yul\":3070:3071   */\n      0x01\n        /* \"#utility.yul\":3067:3068   */\n      dup2\n        /* \"#utility.yul\":3063:3072   */\n      add\n        /* \"#utility.yul\":3058:3072   */\n      swap1\n      pop\n        /* \"#utility.yul\":3023:3373   */\n      jump(tag_126)\n    tag_128:\n        /* \"#utility.yul\":3027:3041   */\n      pop\n        /* \"#utility.yul\":3389:3392   */\n      dup6\n        /* \"#utility.yul\":3382:3392   */\n      swap4\n      pop\n        /* \"#utility.yul\":2658:3398   */\n      pop\n      pop\n      pop\n      swap3\n      swap2\n      pop\n      pop\n      jump\t// out\n        /* \"#utility.yul\":3452:4125   */\n    tag_110:\n        /* \"#utility.yul\":3583:3587   */\n      0x60\n        /* \"#utility.yul\":3578:3581   */\n      dup3\n        /* \"#utility.yul\":3574:3588   */\n      add\n        /* \"#utility.yul\":3671:3675   */\n      0x00\n        /* \"#utility.yul\":3664:3669   */\n      dup3\n        /* \"#utility.yul\":3660:3676   */\n      add\n        /* \"#utility.yul\":3654:3677   */\n      mload\n        /* \"#utility.yul\":3690:3753   */\n      tag_133\n        /* \"#utility.yul\":3747:3751   */\n      0x00\n        /* \"#utility.yul\":3742:3745   */\n      dup6\n        /* \"#utility.yul\":3738:3752   */\n      add\n        /* \"#utility.yul\":3724:3736   */\n      dup3\n        /* \"#utility.yul\":3690:3753   */\n      tag_111\n      jump\t// in\n    tag_133:\n        /* \"#utility.yul\":3598:3763   */\n      pop\n        /* \"#utility.yul\":3853:3857   */\n      0x20\n        /* \"#utility.yul\":3846:3851   */\n      dup3\n        /* \"#utility.yul\":3842:3858   */\n      add\n        /* \"#utility.yul\":3836:3859   */\n      mload\n        /* \"#utility.yul\":3872:3935   */\n      tag_134\n        /* \"#utility.yul\":3929:3933   */\n      0x20\n        /* \"#utility.yul\":3924:3927   */\n      dup6\n        /* \"#utility.yul\":3920:3934   */\n      add\n        /* \"#utility.yul\":3906:3918   */\n      dup3\n        /* \"#utility.yul\":3872:3935   */\n      tag_135\n      jump\t// in\n    tag_134:\n        /* \"#utility.yul\":3773:3945   */\n      pop\n        /* \"#utility.yul\":4026:4030   */\n      0x40\n        /* \"#utility.yul\":4019:4024   */\n      dup3\n        /* \"#utility.yul\":4015:4031   */\n      add\n        /* \"#utility.yul\":4009:4032   */\n      mload\n        /* \"#utility.yul\":4045:4108   */\n      tag_136\n        /* \"#utility.yul\":4102:4106   */\n      0x40\n        /* \"#utility.yul\":4097:4100   */\n      dup6\n        /* \"#utility.yul\":4093:4107   */\n      add\n        /* \"#utility.yul\":4079:4091   */\n      dup3\n        /* \"#utility.yul\":4045:4108   */\n      tag_135\n      jump\t// in\n    tag_136:\n        /* \"#utility.yul\":3955:4118   */\n      pop\n        /* \"#utility.yul\":3552:4125   */\n      pop\n      pop\n      pop\n      jump\t// out\n        /* \"#utility.yul\":4131:4239   */\n    tag_135:\n        /* \"#utility.yul\":4208:4232   */\n      tag_138\n        /* \"#utility.yul\":4226:4231   */\n      dup2\n        /* \"#utility.yul\":4208:4232   */\n      tag_139\n      jump\t// in\n    tag_138:\n        /* \"#utility.yul\":4203:4206   */\n      dup3\n        /* \"#utility.yul\":4196:4233   */\n      mstore\n        /* \"#utility.yul\":4186:4239   */\n      pop\n      pop\n      jump\t// out\n        /* \"#utility.yul\":4245:4363   */\n    tag_140:\n        /* \"#utility.yul\":4332:4356   */\n      tag_142\n        /* \"#utility.yul\":4350:4355   */\n      dup2\n        /* \"#utility.yul\":4332:4356   */\n      tag_139\n      jump\t// in\n    tag_142:\n        /* \"#utility.yul\":4327:4330   */\n      dup3\n        /* \"#utility.yul\":4320:4357   */\n      mstore\n        /* \"#utility.yul\":4310:4363   */\n      pop\n      pop\n      jump\t// out\n        /* \"#utility.yul\":4369:4591   */\n    tag_16:\n        /* \"#utility.yul\":4462:4466   */\n      0x00\n        /* \"#utility.yul\":4500:4502   */\n      0x20\n        /* \"#utility.yul\":4489:4498   */\n      dup3\n        /* \"#utility.yul\":4485:4503   */\n      add\n        /* \"#utility.yul\":4477:4503   */\n      swap1\n      pop\n        /* \"#utility.yul\":4513:4584   */\n      tag_144\n        /* \"#utility.yul\":4581:4582   */\n      0x00\n        /* \"#utility.yul\":4570:4579   */\n      dup4\n        /* \"#utility.yul\":4566:4583   */\n      add\n        /* \"#utility.yul\":4557:4563   */\n      dup5\n        /* \"#utility.yul\":4513:4584   */\n      tag_115\n      jump\t// in\n    tag_144:\n        /* \"#utility.yul\":4467:4591   */\n      swap3\n      swap2\n      pop\n      pop\n      jump\t// out\n        /* \"#utility.yul\":4597:5058   */\n    tag_20:\n        /* \"#utility.yul\":4784:4788   */\n      0x00\n        /* \"#utility.yul\":4822:4824   */\n      0x20\n        /* \"#utility.yul\":4811:4820   */\n      dup3\n        /* \"#utility.yul\":4807:4825   */\n      add\n        /* \"#utility.yul\":4799:4825   */\n      swap1\n      pop\n        /* \"#utility.yul\":4871:4880   */\n      dup2\n        /* \"#utility.yul\":4865:4869   */\n      dup2\n        /* \"#utility.yul\":4861:4881   */\n      sub\n        /* \"#utility.yul\":4857:4858   */\n      0x00\n        /* \"#utility.yul\":4846:4855   */\n      dup4\n        /* \"#utility.yul\":4842:4859   */\n      add\n        /* \"#utility.yul\":4835:4882   */\n      mstore\n        /* \"#utility.yul\":4899:5051   */\n      tag_146\n        /* \"#utility.yul\":5046:5050   */\n      dup2\n        /* \"#utility.yul\":5037:5043   */\n      dup5\n        /* \"#utility.yul\":4899:5051   */\n      tag_118\n      jump\t// in\n    tag_146:\n        /* \"#utility.yul\":4891:5051   */\n      swap1\n      pop\n        /* \"#utility.yul\":4789:5058   */\n      swap3\n      swap2\n      pop\n      pop\n      jump\t// out\n        /* \"#utility.yul\":5064:5286   */\n    tag_31:\n        /* \"#utility.yul\":5157:5161   */\n      0x00\n        /* \"#utility.yul\":5195:5197   */\n      0x20\n        /* \"#utility.yul\":5184:5193   */\n      dup3\n        /* \"#utility.yul\":5180:5198   */\n      add\n        /* \"#utility.yul\":5172:5198   */\n      swap1\n      pop\n        /* \"#utility.yul\":5208:5279   */\n      tag_148\n        /* \"#utility.yul\":5276:5277   */\n      0x00\n        /* \"#utility.yul\":5265:5274   */\n      dup4\n        /* \"#utility.yul\":5261:5278   */\n      add\n        /* \"#utility.yul\":5252:5258   */\n      dup5\n        /* \"#utility.yul\":5208:5279   */\n      tag_140\n      jump\t// in\n    tag_148:\n        /* \"#utility.yul\":5162:5286   */\n      swap3\n      swap2\n      pop\n      pop\n      jump\t// out\n        /* \"#utility.yul\":5373:5527   */\n    tag_125:\n        /* \"#utility.yul\":5462:5466   */\n      0x00\n        /* \"#utility.yul\":5485:5488   */\n      dup2\n        /* \"#utility.yul\":5477:5488   */\n      swap1\n      pop\n        /* \"#utility.yul\":5515:5519   */\n      0x20\n        /* \"#utility.yul\":5510:5513   */\n      dup3\n        /* \"#utility.yul\":5506:5520   */\n      add\n        /* \"#utility.yul\":5498:5520   */\n      swap1\n      pop\n        /* \"#utility.yul\":5467:5527   */\n      swap2\n      swap1\n      pop\n      jump\t// out\n        /* \"#utility.yul\":5533:5669   */\n    tag_121:\n        /* \"#utility.yul\":5622:5628   */\n      0x00\n        /* \"#utility.yul\":5656:5661   */\n      dup2\n        /* \"#utility.yul\":5650:5662   */\n      mload\n        /* \"#utility.yul\":5640:5662   */\n      swap1\n      pop\n        /* \"#utility.yul\":5629:5669   */\n      swap2\n      swap1\n      pop\n      jump\t// out\n        /* \"#utility.yul\":5675:5810   */\n    tag_131:\n        /* \"#utility.yul\":5767:5771   */\n      0x00\n        /* \"#utility.yul\":5799:5803   */\n      0x20\n        /* \"#utility.yul\":5794:5797   */\n      dup3\n        /* \"#utility.yul\":5790:5804   */\n      add\n        /* \"#utility.yul\":5782:5804   */\n      swap1\n      pop\n        /* \"#utility.yul\":5772:5810   */\n      swap2\n      swap1\n      pop\n      jump\t// out\n        /* \"#utility.yul\":5816:6022   */\n    tag_123:\n        /* \"#utility.yul\":5937:5948   */\n      0x00\n        /* \"#utility.yul\":5971:5977   */\n      dup3\n        /* \"#utility.yul\":5966:5969   */\n      dup3\n        /* \"#utility.yul\":5959:5978   */\n      mstore\n        /* \"#utility.yul\":6011:6015   */\n      0x20\n        /* \"#utility.yul\":6006:6009   */\n      dup3\n        /* \"#utility.yul\":6002:6016   */\n      add\n        /* \"#utility.yul\":5987:6016   */\n      swap1\n      pop\n        /* \"#utility.yul\":5949:6022   */\n      swap3\n      swap2\n      pop\n      pop\n      jump\t// out\n        /* \"#utility.yul\":6028:6333   */\n    tag_76:\n        /* \"#utility.yul\":6068:6071   */\n      0x00\n        /* \"#utility.yul\":6087:6107   */\n      tag_156\n        /* \"#utility.yul\":6105:6106   */\n      dup3\n        /* \"#utility.yul\":6087:6107   */\n      tag_139\n      jump\t// in\n    tag_156:\n        /* \"#utility.yul\":6082:6107   */\n      swap2\n      pop\n        /* \"#utility.yul\":6121:6141   */\n      tag_157\n        /* \"#utility.yul\":6139:6140   */\n      dup4\n        /* \"#utility.yul\":6121:6141   */\n      tag_139\n      jump\t// in\n    tag_157:\n        /* \"#utility.yul\":6116:6141   */\n      swap3\n      pop\n        /* \"#utility.yul\":6275:6276   */\n      dup3\n        /* \"#utility.yul\":6207:6273   */\n      0xffffffffffffffffffffffffffffffffffffffffffffffffffffffffffffffff\n        /* \"#utility.yul\":6203:6277   */\n      sub\n        /* \"#utility.yul\":6200:6201   */\n      dup3\n        /* \"#utility.yul\":6197:6278   */\n      gt\n        /* \"#utility.yul\":6194:6196   */\n      iszero\n      tag_158\n      jumpi\n        /* \"#utility.yul\":6281:6299   */\n      tag_159\n      tag_160\n      jump\t// in\n    tag_159:\n        /* \"#utility.yul\":6194:6196   */\n    tag_158:\n        /* \"#utility.yul\":6325:6326   */\n      dup3\n        /* \"#utility.yul\":6322:6323   */\n      dup3\n        /* \"#utility.yul\":6318:6327   */\n      add\n        /* \"#utility.yul\":6311:6327   */\n      swap1\n      pop\n        /* \"#utility.yul\":6072:6333   */\n      swap3\n      swap2\n      pop\n      pop\n      jump\t// out\n        /* \"#utility.yul\":6339:6524   */\n    tag_50:\n        /* \"#utility.yul\":6379:6380   */\n      0x00\n        /* \"#utility.yul\":6396:6416   */\n      tag_162\n        /* \"#utility.yul\":6414:6415   */\n      dup3\n        /* \"#utility.yul\":6396:6416   */\n      tag_139\n      jump\t// in\n    tag_162:\n        /* \"#utility.yul\":6391:6416   */\n      swap2\n      pop\n        /* \"#utility.yul\":6430:6450   */\n      tag_163\n        /* \"#utility.yul\":6448:6449   */\n      dup4\n        /* \"#utility.yul\":6430:6450   */\n      tag_139\n      jump\t// in\n    tag_163:\n        /* \"#utility.yul\":6425:6450   */\n      swap3\n      pop\n        /* \"#utility.yul\":6469:6470   */\n      dup3\n        /* \"#utility.yul\":6459:6461   */\n      tag_164\n      jumpi\n        /* \"#utility.yul\":6474:6492   */\n      tag_165\n      tag_166\n      jump\t// in\n    tag_165:\n        /* \"#utility.yul\":6459:6461   */\n    tag_164:\n        /* \"#utility.yul\":6516:6517   */\n      dup3\n        /* \"#utility.yul\":6513:6514   */\n      dup3\n        /* \"#utility.yul\":6509:6518   */\n      div\n        /* \"#utility.yul\":6504:6518   */\n      swap1\n      pop\n        /* \"#utility.yul\":6381:6524   */\n      swap3\n      swap2\n      pop\n      pop\n      jump\t// out\n        /* \"#utility.yul\":6530:6878   */\n    tag_48:\n        /* \"#utility.yul\":6570:6577   */\n      0x00\n        /* \"#utility.yul\":6593:6613   */\n      tag_168\n        /* \"#utility.yul\":6611:6612   */\n      dup3\n        /* \"#utility.yul\":6593:6613   */\n      tag_139\n      jump\t// in\n    tag_168:\n        /* \"#utility.yul\":6588:6613   */\n      swap2\n      pop\n        /* \"#utility.yul\":6627:6647   */\n      tag_169\n        /* \"#utility.yul\":6645:6646   */\n      dup4\n        /* \"#utility.yul\":6627:6647   */\n      tag_139\n      jump\t// in\n    tag_169:\n        /* \"#utility.yul\":6622:6647   */\n      swap3\n      pop\n        /* \"#utility.yul\":6815:6816   */\n      dup2\n        /* \"#utility.yul\":6747:6813   */\n      0xffffffffffffffffffffffffffffffffffffffffffffffffffffffffffffffff\n        /* \"#utility.yul\":6743:6817   */\n      div\n        /* \"#utility.yul\":6740:6741   */\n      dup4\n        /* \"#utility.yul\":6737:6818   */\n      gt\n        /* \"#utility.yul\":6732:6733   */\n      dup3\n        /* \"#utility.yul\":6725:6734   */\n      iszero\n        /* \"#utility.yul\":6718:6735   */\n      iszero\n        /* \"#utility.yul\":6714:6819   */\n      and\n        /* \"#utility.yul\":6711:6713   */\n      iszero\n      tag_170\n      jumpi\n        /* \"#utility.yul\":6822:6840   */\n      tag_171\n      tag_160\n      jump\t// in\n    tag_171:\n        /* \"#utility.yul\":6711:6713   */\n    tag_170:\n        /* \"#utility.yul\":6870:6871   */\n      dup3\n        /* \"#utility.yul\":6867:6868   */\n      dup3\n        /* \"#utility.yul\":6863:6872   */\n      mul\n        /* \"#utility.yul\":6852:6872   */\n      swap1\n      pop\n        /* \"#utility.yul\":6578:6878   */\n      swap3\n      swap2\n      pop\n      pop\n      jump\t// out\n        /* \"#utility.yul\":6884:6980   */\n    tag_114:\n        /* \"#utility.yul\":6921:6928   */\n      0x00\n        /* \"#utility.yul\":6950:6974   */\n      tag_173\n        /* \"#utility.yul\":6968:6973   */\n      dup3\n        /* \"#utility.yul\":6950:6974   */\n      tag_174\n      jump\t// in\n    tag_173:\n        /* \"#utility.yul\":6939:6974   */\n      swap1\n      pop\n        /* \"#utility.yul\":6929:6980   */\n      swap2\n      swap1\n      pop\n      jump\t// out\n        /* \"#utility.yul\":6986:7112   */\n    tag_174:\n        /* \"#utility.yul\":7023:7030   */\n      0x00\n        /* \"#utility.yul\":7063:7105   */\n      0xffffffffffffffffffffffffffffffffffffffff\n        /* \"#utility.yul\":7056:7061   */\n      dup3\n        /* \"#utility.yul\":7052:7106   */\n      and\n        /* \"#utility.yul\":7041:7106   */\n      swap1\n      pop\n        /* \"#utility.yul\":7031:7112   */\n      swap2\n      swap1\n      pop\n      jump\t// out\n        /* \"#utility.yul\":7118:7195   */\n    tag_139:\n        /* \"#utility.yul\":7155:7162   */\n      0x00\n        /* \"#utility.yul\":7184:7189   */\n      dup2\n        /* \"#utility.yul\":7173:7189   */\n      swap1\n      pop\n        /* \"#utility.yul\":7163:7195   */\n      swap2\n      swap1\n      pop\n      jump\t// out\n        /* \"#utility.yul\":7201:7434   */\n    tag_69:\n        /* \"#utility.yul\":7240:7243   */\n      0x00\n        /* \"#utility.yul\":7263:7287   */\n      tag_178\n        /* \"#utility.yul\":7281:7286   */\n      dup3\n        /* \"#utility.yul\":7263:7287   */\n      tag_139\n      jump\t// in\n    tag_178:\n        /* \"#utility.yul\":7254:7287   */\n      swap2\n      pop\n        /* \"#utility.yul\":7309:7375   */\n      0xffffffffffffffffffffffffffffffffffffffffffffffffffffffffffffffff\n        /* \"#utility.yul\":7302:7307   */\n      dup3\n        /* \"#utility.yul\":7299:7376   */\n      eq\n        /* \"#utility.yul\":7296:7298   */\n      iszero\n      tag_179\n      jumpi\n        /* \"#utility.yul\":7379:7397   */\n      tag_180\n      tag_160\n      jump\t// in\n    tag_180:\n        /* \"#utility.yul\":7296:7298   */\n    tag_179:\n        /* \"#utility.yul\":7426:7427   */\n      0x01\n        /* \"#utility.yul\":7419:7424   */\n      dup3\n        /* \"#utility.yul\":7415:7428   */\n      add\n        /* \"#utility.yul\":7408:7428   */\n      swap1\n      pop\n        /* \"#utility.yul\":7244:7434   */\n      swap2\n      swap1\n      pop\n      jump\t// out\n        /* \"#utility.yul\":7440:7620   */\n    tag_160:\n        /* \"#utility.yul\":7488:7565   */\n      0x4e487b7100000000000000000000000000000000000000000000000000000000\n        /* \"#utility.yul\":7485:7486   */\n      0x00\n        /* \"#utility.yul\":7478:7566   */\n      mstore\n        /* \"#utility.yul\":7585:7589   */\n      0x11\n        /* \"#utility.yul\":7582:7583   */\n      0x04\n        /* \"#utility.yul\":7575:7590   */\n      mstore\n        /* \"#utility.yul\":7609:7613   */\n      0x24\n        /* \"#utility.yul\":7606:7607   */\n      0x00\n        /* \"#utility.yul\":7599:7614   */\n      revert\n        /* \"#utility.yul\":7626:7806   */\n    tag_166:\n        /* \"#utility.yul\":7674:7751   */\n      0x4e487b7100000000000000000000000000000000000000000000000000000000\n        /* \"#utility.yul\":7671:7672   */\n      0x00\n        /* \"#utility.yul\":7664:7752   */\n      mstore\n        /* \"#utility.yul\":7771:7775   */\n      0x12\n        /* \"#utility.yul\":7768:7769   */\n      0x04\n        /* \"#utility.yul\":7761:7776   */\n      mstore\n        /* \"#utility.yul\":7795:7799   */\n      0x24\n        /* \"#utility.yul\":7792:7793   */\n      0x00\n        /* \"#utility.yul\":7785:7800   */\n      revert\n        /* \"#utility.yul\":7812:7992   */\n    tag_63:\n        /* \"#utility.yul\":7860:7937   */\n      0x4e487b7100000000000000000000000000000000000000000000000000000000\n        /* \"#utility.yul\":7857:7858   */\n      0x00\n        /* \"#utility.yul\":7850:7938   */\n      mstore\n        /* \"#utility.yul\":7957:7961   */\n      0x32\n        /* \"#utility.yul\":7954:7955   */\n      0x04\n        /* \"#utility.yul\":7947:7962   */\n      mstore\n        /* \"#utility.yul\":7981:7985   */\n      0x24\n        /* \"#utility.yul\":7978:7979   */\n      0x00\n        /* \"#utility.yul\":7971:7986   */\n      revert\n        /* \"#utility.yul\":7998:8178   */\n    tag_53:\n        /* \"#utility.yul\":8046:8123   */\n      0x4e487b7100000000000000000000000000000000000000000000000000000000\n        /* \"#utility.yul\":8043:8044   */\n      0x00\n        /* \"#utility.yul\":8036:8124   */\n      mstore\n        /* \"#utility.yul\":8143:8147   */\n      0x41\n        /* \"#utility.yul\":8140:8141   */\n      0x04\n        /* \"#utility.yul\":8133:8148   */\n      mstore\n        /* \"#utility.yul\":8167:8171   */\n      0x24\n        /* \"#utility.yul\":8164:8165   */\n      0x00\n        /* \"#utility.yul\":8157:8172   */\n      revert\n        /* \"#utility.yul\":8307:8424   */\n    tag_91:\n        /* \"#utility.yul\":8416:8417   */\n      0x00\n        /* \"#utility.yul\":8413:8414   */\n      dup1\n        /* \"#utility.yul\":8406:8418   */\n      revert\n        /* \"#utility.yul\":8430:8552   */\n    tag_83:\n        /* \"#utility.yul\":8503:8527   */\n      tag_189\n        /* \"#utility.yul\":8521:8526   */\n      dup2\n        /* \"#utility.yul\":8503:8527   */\n      tag_114\n      jump\t// in\n    tag_189:\n        /* \"#utility.yul\":8496:8501   */\n      dup2\n        /* \"#utility.yul\":8493:8528   */\n      eq\n        /* \"#utility.yul\":8483:8485   */\n      tag_190\n      jumpi\n        /* \"#utility.yul\":8542:8543   */\n      0x00\n        /* \"#utility.yul\":8539:8540   */\n      dup1\n        /* \"#utility.yul\":8532:8544   */\n      revert\n        /* \"#utility.yul\":8483:8485   */\n    tag_190:\n        /* \"#utility.yul\":8473:8552   */\n      pop\n      jump\t// out\n        /* \"#utility.yul\":8558:8680   */\n    tag_87:\n        /* \"#utility.yul\":8631:8655   */\n      tag_192\n        /* \"#utility.yul\":8649:8654   */\n      dup2\n        /* \"#utility.yul\":8631:8655   */\n      tag_139\n      jump\t// in\n    tag_192:\n        /* \"#utility.yul\":8624:8629   */\n      dup2\n        /* \"#utility.yul\":8621:8656   */\n      eq\n        /* \"#utility.yul\":8611:8613   */\n      tag_193\n      jumpi\n        /* \"#utility.yul\":8670:8671   */\n      0x00\n        /* \"#utility.yul\":8667:8668   */\n      dup1\n        /* \"#utility.yul\":8660:8672   */\n      revert\n        /* \"#utility.yul\":8611:8613   */\n    tag_193:\n        /* \"#utility.yul\":8601:8680   */\n      pop\n      jump\t// out\n\n    auxdata: 0xa2646970667358221220f58ff2b58cb6b727f2a27a8f97a7223f6353bf7ee023ae16c455141cc0c6266364736f6c63430008060033\n}\n",
				"bytecode": {
					"linkReferences": {},
					"object": "60c06040526004608090815250603260a09081525034801561002057600080fd5b5060805160a051610cb06100466000396000610246015260006103a60152610cb06000f3fe608060405234801561001057600080fd5b506004361061007d5760003560e01c8063442130d01161005b578063442130d014610100578063a2fb342d14610130578063c32d90ab1461014c578063d66bd5241461017c5761007d565b806304581de5146100825780630480ee08146100b257806337973e5f146100d0575b600080fd5b61009c60048036038101906100979190610833565b6101ac565b6040516100a99190610994565b60405180910390f35b6100ba6101fa565b6040516100c791906109af565b60405180910390f35b6100ea60048036038101906100e59190610873565b610416565b6040516100f79190610994565b60405180910390f35b61011a600480360381019061011591906107f3565b610455565b60405161012791906109d1565b60405180910390f35b61014a60048036038101906101459190610833565b61047a565b005b610166600480360381019061016191906107c6565b610735565b60405161017391906109d1565b60405180910390f35b610196600480360381019061019191906107c6565b61074d565b6040516101a391906109d1565b60405180910390f35b600360205281600052604060002081815481106101c857600080fd5b906000526020600020016000915091509054906101000a900473ffffffffffffffffffffffffffffffffffffffff1681565b60606000600460003373ffffffffffffffffffffffffffffffffffffffff1673ffffffffffffffffffffffffffffffffffffffff168152602001908152602001600020549050600060647f0000000000000000000000000000000000000000000000000000000000000000836102709190610aac565b61027a9190610a7b565b905060008080549050905060008167ffffffffffffffff8111156102a1576102a0610c18565b5b6040519080825280602002602001820160405280156102da57816020015b6102c7610765565b8152602001906001900390816102bf5790505b50905060005b8281101561040b5760008082815481106102fd576102fc610be9565b5b9060005260206000200160009054906101000a900473ffffffffffffffffffffffffffffffffffffffff1690506000600160008373ffffffffffffffffffffffffffffffffffffffff1673ffffffffffffffffffffffffffffffffffffffff16815260200190815260200160002054905060008682106103f55760405180606001604052808473ffffffffffffffffffffffffffffffffffffffff1681526020018881526020017f00000000000000000000000000000000000000000000000000000000000000008152508582815181106103db576103da610be9565b5b602002602001018190525080806103f190610b42565b9150505b505050808061040390610b42565b9150506102e0565b508094505050505090565b6000818154811061042657600080fd5b906000526020600020016000915054906101000a900473ffffffffffffffffffffffffffffffffffffffff1681565b6002602052816000526040600020602052806000526040600020600091509150505481565b600033905081600260008373ffffffffffffffffffffffffffffffffffffffff1673ffffffffffffffffffffffffffffffffffffffff16815260200190815260200160002060008573ffffffffffffffffffffffffffffffffffffffff1673ffffffffffffffffffffffffffffffffffffffff16815260200190815260200160002081905550600360008273ffffffffffffffffffffffffffffffffffffffff1673ffffffffffffffffffffffffffffffffffffffff168152602001908152602001600020839080600181540180825580915050600190039060005260206000200160009091909190916101000a81548173ffffffffffffffffffffffffffffffffffffffff021916908373ffffffffffffffffffffffffffffffffffffffff16021790555081600460003373ffffffffffffffffffffffffffffffffffffffff1673ffffffffffffffffffffffffffffffffffffffff16815260200190815260200160002060008282546105ef9190610a25565b9250508190555081600160008573ffffffffffffffffffffffffffffffffffffffff1673ffffffffffffffffffffffffffffffffffffffff16815260200190815260200160002060008282546106459190610a25565b925050819055506000839080600181540180825580915050600190039060005260206000200160009091909190916101000a81548173ffffffffffffffffffffffffffffffffffffffff021916908373ffffffffffffffffffffffffffffffffffffffff16021790555042600560008373ffffffffffffffffffffffffffffffffffffffff1673ffffffffffffffffffffffffffffffffffffffff16815260200190815260200160002060008573ffffffffffffffffffffffffffffffffffffffff1673ffffffffffffffffffffffffffffffffffffffff16815260200190815260200160002081905550505050565b60046020528060005260406000206000915090505481565b60016020528060005260406000206000915090505481565b6040518060600160405280600073ffffffffffffffffffffffffffffffffffffffff16815260200160008152602001600081525090565b6000813590506107ab81610c4c565b92915050565b6000813590506107c081610c63565b92915050565b6000602082840312156107dc576107db610c47565b5b60006107ea8482850161079c565b91505092915050565b6000806040838503121561080a57610809610c47565b5b60006108188582860161079c565b92505060206108298582860161079c565b9150509250929050565b6000806040838503121561084a57610849610c47565b5b60006108588582860161079c565b9250506020610869858286016107b1565b9150509250929050565b60006020828403121561088957610888610c47565b5b6000610897848285016107b1565b91505092915050565b60006108ac8383610934565b60608301905092915050565b6108c181610b06565b82525050565b6108d081610b06565b82525050565b60006108e1826109fc565b6108eb8185610a14565b93506108f6836109ec565b8060005b8381101561092757815161090e88826108a0565b975061091983610a07565b9250506001810190506108fa565b5085935050505092915050565b60608201600082015161094a60008501826108b8565b50602082015161095d6020850182610976565b5060408201516109706040850182610976565b50505050565b61097f81610b38565b82525050565b61098e81610b38565b82525050565b60006020820190506109a960008301846108c7565b92915050565b600060208201905081810360008301526109c981846108d6565b905092915050565b60006020820190506109e66000830184610985565b92915050565b6000819050602082019050919050565b600081519050919050565b6000602082019050919050565b600082825260208201905092915050565b6000610a3082610b38565b9150610a3b83610b38565b9250827fffffffffffffffffffffffffffffffffffffffffffffffffffffffffffffffff03821115610a7057610a6f610b8b565b5b828201905092915050565b6000610a8682610b38565b9150610a9183610b38565b925082610aa157610aa0610bba565b5b828204905092915050565b6000610ab782610b38565b9150610ac283610b38565b9250817fffffffffffffffffffffffffffffffffffffffffffffffffffffffffffffffff0483118215151615610afb57610afa610b8b565b5b828202905092915050565b6000610b1182610b18565b9050919050565b600073ffffffffffffffffffffffffffffffffffffffff82169050919050565b6000819050919050565b6000610b4d82610b38565b91507fffffffffffffffffffffffffffffffffffffffffffffffffffffffffffffffff821415610b8057610b7f610b8b565b5b600182019050919050565b7f4e487b7100000000000000000000000000000000000000000000000000000000600052601160045260246000fd5b7f4e487b7100000000000000000000000000000000000000000000000000000000600052601260045260246000fd5b7f4e487b7100000000000000000000000000000000000000000000000000000000600052603260045260246000fd5b7f4e487b7100000000000000000000000000000000000000000000000000000000600052604160045260246000fd5b600080fd5b610c5581610b06565b8114610c6057600080fd5b50565b610c6c81610b38565b8114610c7757600080fd5b5056fea2646970667358221220f58ff2b58cb6b727f2a27a8f97a7223f6353bf7ee023ae16c455141cc0c6266364736f6c63430008060033",
					"opcodes": "PUSH1 0xC0 PUSH1 0x40 MSTORE PUSH1 0x4 PUSH1 0x80 SWAP1 DUP2 MSTORE POP PUSH1 0x32 PUSH1 0xA0 SWAP1 DUP2 MSTORE POP CALLVALUE DUP1 ISZERO PUSH2 0x20 JUMPI PUSH1 0x0 DUP1 REVERT JUMPDEST POP PUSH1 0x80 MLOAD PUSH1 0xA0 MLOAD PUSH2 0xCB0 PUSH2 0x46 PUSH1 0x0 CODECOPY PUSH1 0x0 PUSH2 0x246 ADD MSTORE PUSH1 0x0 PUSH2 0x3A6 ADD MSTORE PUSH2 0xCB0 PUSH1 0x0 RETURN INVALID PUSH1 0x80 PUSH1 0x40 MSTORE CALLVALUE DUP1 ISZERO PUSH2 0x10 JUMPI PUSH1 0x0 DUP1 REVERT JUMPDEST POP PUSH1 0x4 CALLDATASIZE LT PUSH2 0x7D JUMPI PUSH1 0x0 CALLDATALOAD PUSH1 0xE0 SHR DUP1 PUSH4 0x442130D0 GT PUSH2 0x5B JUMPI DUP1 PUSH4 0x442130D0 EQ PUSH2 0x100 JUMPI DUP1 PUSH4 0xA2FB342D EQ PUSH2 0x130 JUMPI DUP1 PUSH4 0xC32D90AB EQ PUSH2 0x14C JUMPI DUP1 PUSH4 0xD66BD524 EQ PUSH2 0x17C JUMPI PUSH2 0x7D JUMP JUMPDEST DUP1 PUSH4 0x4581DE5 EQ PUSH2 0x82 JUMPI DUP1 PUSH4 0x480EE08 EQ PUSH2 0xB2 JUMPI DUP1 PUSH4 0x37973E5F EQ PUSH2 0xD0 JUMPI JUMPDEST PUSH1 0x0 DUP1 REVERT JUMPDEST PUSH2 0x9C PUSH1 0x4 DUP1 CALLDATASIZE SUB DUP2 ADD SWAP1 PUSH2 0x97 SWAP2 SWAP1 PUSH2 0x833 JUMP JUMPDEST PUSH2 0x1AC JUMP JUMPDEST PUSH1 0x40 MLOAD PUSH2 0xA9 SWAP2 SWAP1 PUSH2 0x994 JUMP JUMPDEST PUSH1 0x40 MLOAD DUP1 SWAP2 SUB SWAP1 RETURN JUMPDEST PUSH2 0xBA PUSH2 0x1FA JUMP JUMPDEST PUSH1 0x40 MLOAD PUSH2 0xC7 SWAP2 SWAP1 PUSH2 0x9AF JUMP JUMPDEST PUSH1 0x40 MLOAD DUP1 SWAP2 SUB SWAP1 RETURN JUMPDEST PUSH2 0xEA PUSH1 0x4 DUP1 CALLDATASIZE SUB DUP2 ADD SWAP1 PUSH2 0xE5 SWAP2 SWAP1 PUSH2 0x873 JUMP JUMPDEST PUSH2 0x416 JUMP JUMPDEST PUSH1 0x40 MLOAD PUSH2 0xF7 SWAP2 SWAP1 PUSH2 0x994 JUMP JUMPDEST PUSH1 0x40 MLOAD DUP1 SWAP2 SUB SWAP1 RETURN JUMPDEST PUSH2 0x11A PUSH1 0x4 DUP1 CALLDATASIZE SUB DUP2 ADD SWAP1 PUSH2 0x115 SWAP2 SWAP1 PUSH2 0x7F3 JUMP JUMPDEST PUSH2 0x455 JUMP JUMPDEST PUSH1 0x40 MLOAD PUSH2 0x127 SWAP2 SWAP1 PUSH2 0x9D1 JUMP JUMPDEST PUSH1 0x40 MLOAD DUP1 SWAP2 SUB SWAP1 RETURN JUMPDEST PUSH2 0x14A PUSH1 0x4 DUP1 CALLDATASIZE SUB DUP2 ADD SWAP1 PUSH2 0x145 SWAP2 SWAP1 PUSH2 0x833 JUMP JUMPDEST PUSH2 0x47A JUMP JUMPDEST STOP JUMPDEST PUSH2 0x166 PUSH1 0x4 DUP1 CALLDATASIZE SUB DUP2 ADD SWAP1 PUSH2 0x161 SWAP2 SWAP1 PUSH2 0x7C6 JUMP JUMPDEST PUSH2 0x735 JUMP JUMPDEST PUSH1 0x40 MLOAD PUSH2 0x173 SWAP2 SWAP1 PUSH2 0x9D1 JUMP JUMPDEST PUSH1 0x40 MLOAD DUP1 SWAP2 SUB SWAP1 RETURN JUMPDEST PUSH2 0x196 PUSH1 0x4 DUP1 CALLDATASIZE SUB DUP2 ADD SWAP1 PUSH2 0x191 SWAP2 SWAP1 PUSH2 0x7C6 JUMP JUMPDEST PUSH2 0x74D JUMP JUMPDEST PUSH1 0x40 MLOAD PUSH2 0x1A3 SWAP2 SWAP1 PUSH2 0x9D1 JUMP JUMPDEST PUSH1 0x40 MLOAD DUP1 SWAP2 SUB SWAP1 RETURN JUMPDEST PUSH1 0x3 PUSH1 0x20 MSTORE DUP2 PUSH1 0x0 MSTORE PUSH1 0x40 PUSH1 0x0 KECCAK256 DUP2 DUP2 SLOAD DUP2 LT PUSH2 0x1C8 JUMPI PUSH1 0x0 DUP1 REVERT JUMPDEST SWAP1 PUSH1 0x0 MSTORE PUSH1 0x20 PUSH1 0x0 KECCAK256 ADD PUSH1 0x0 SWAP2 POP SWAP2 POP SWAP1 SLOAD SWAP1 PUSH2 0x100 EXP SWAP1 DIV PUSH20 0xFFFFFFFFFFFFFFFFFFFFFFFFFFFFFFFFFFFFFFFF AND DUP2 JUMP JUMPDEST PUSH1 0x60 PUSH1 0x0 PUSH1 0x4 PUSH1 0x0 CALLER PUSH20 0xFFFFFFFFFFFFFFFFFFFFFFFFFFFFFFFFFFFFFFFF AND PUSH20 0xFFFFFFFFFFFFFFFFFFFFFFFFFFFFFFFFFFFFFFFF AND DUP2 MSTORE PUSH1 0x20 ADD SWAP1 DUP2 MSTORE PUSH1 0x20 ADD PUSH1 0x0 KECCAK256 SLOAD SWAP1 POP PUSH1 0x0 PUSH1 0x64 PUSH32 0x0 DUP4 PUSH2 0x270 SWAP2 SWAP1 PUSH2 0xAAC JUMP JUMPDEST PUSH2 0x27A SWAP2 SWAP1 PUSH2 0xA7B JUMP JUMPDEST SWAP1 POP PUSH1 0x0 DUP1 DUP1 SLOAD SWAP1 POP SWAP1 POP PUSH1 0x0 DUP2 PUSH8 0xFFFFFFFFFFFFFFFF DUP2 GT ISZERO PUSH2 0x2A1 JUMPI PUSH2 0x2A0 PUSH2 0xC18 JUMP JUMPDEST JUMPDEST PUSH1 0x40 MLOAD SWAP1 DUP1 DUP3 MSTORE DUP1 PUSH1 0x20 MUL PUSH1 0x20 ADD DUP3 ADD PUSH1 0x40 MSTORE DUP1 ISZERO PUSH2 0x2DA JUMPI DUP2 PUSH1 0x20 ADD JUMPDEST PUSH2 0x2C7 PUSH2 0x765 JUMP JUMPDEST DUP2 MSTORE PUSH1 0x20 ADD SWAP1 PUSH1 0x1 SWAP1 SUB SWAP1 DUP2 PUSH2 0x2BF JUMPI SWAP1 POP JUMPDEST POP SWAP1 POP PUSH1 0x0 JUMPDEST DUP3 DUP2 LT ISZERO PUSH2 0x40B JUMPI PUSH1 0x0 DUP1 DUP3 DUP2 SLOAD DUP2 LT PUSH2 0x2FD JUMPI PUSH2 0x2FC PUSH2 0xBE9 JUMP JUMPDEST JUMPDEST SWAP1 PUSH1 0x0 MSTORE PUSH1 0x20 PUSH1 0x0 KECCAK256 ADD PUSH1 0x0 SWAP1 SLOAD SWAP1 PUSH2 0x100 EXP SWAP1 DIV PUSH20 0xFFFFFFFFFFFFFFFFFFFFFFFFFFFFFFFFFFFFFFFF AND SWAP1 POP PUSH1 0x0 PUSH1 0x1 PUSH1 0x0 DUP4 PUSH20 0xFFFFFFFFFFFFFFFFFFFFFFFFFFFFFFFFFFFFFFFF AND PUSH20 0xFFFFFFFFFFFFFFFFFFFFFFFFFFFFFFFFFFFFFFFF AND DUP2 MSTORE PUSH1 0x20 ADD SWAP1 DUP2 MSTORE PUSH1 0x20 ADD PUSH1 0x0 KECCAK256 SLOAD SWAP1 POP PUSH1 0x0 DUP7 DUP3 LT PUSH2 0x3F5 JUMPI PUSH1 0x40 MLOAD DUP1 PUSH1 0x60 ADD PUSH1 0x40 MSTORE DUP1 DUP5 PUSH20 0xFFFFFFFFFFFFFFFFFFFFFFFFFFFFFFFFFFFFFFFF AND DUP2 MSTORE PUSH1 0x20 ADD DUP9 DUP2 MSTORE PUSH1 0x20 ADD PUSH32 0x0 DUP2 MSTORE POP DUP6 DUP3 DUP2 MLOAD DUP2 LT PUSH2 0x3DB JUMPI PUSH2 0x3DA PUSH2 0xBE9 JUMP JUMPDEST JUMPDEST PUSH1 0x20 MUL PUSH1 0x20 ADD ADD DUP2 SWAP1 MSTORE POP DUP1 DUP1 PUSH2 0x3F1 SWAP1 PUSH2 0xB42 JUMP JUMPDEST SWAP2 POP POP JUMPDEST POP POP POP DUP1 DUP1 PUSH2 0x403 SWAP1 PUSH2 0xB42 JUMP JUMPDEST SWAP2 POP POP PUSH2 0x2E0 JUMP JUMPDEST POP DUP1 SWAP5 POP POP POP POP POP SWAP1 JUMP JUMPDEST PUSH1 0x0 DUP2 DUP2 SLOAD DUP2 LT PUSH2 0x426 JUMPI PUSH1 0x0 DUP1 REVERT JUMPDEST SWAP1 PUSH1 0x0 MSTORE PUSH1 0x20 PUSH1 0x0 KECCAK256 ADD PUSH1 0x0 SWAP2 POP SLOAD SWAP1 PUSH2 0x100 EXP SWAP1 DIV PUSH20 0xFFFFFFFFFFFFFFFFFFFFFFFFFFFFFFFFFFFFFFFF AND DUP2 JUMP JUMPDEST PUSH1 0x2 PUSH1 0x20 MSTORE DUP2 PUSH1 0x0 MSTORE PUSH1 0x40 PUSH1 0x0 KECCAK256 PUSH1 0x20 MSTORE DUP1 PUSH1 0x0 MSTORE PUSH1 0x40 PUSH1 0x0 KECCAK256 PUSH1 0x0 SWAP2 POP SWAP2 POP POP SLOAD DUP2 JUMP JUMPDEST PUSH1 0x0 CALLER SWAP1 POP DUP2 PUSH1 0x2 PUSH1 0x0 DUP4 PUSH20 0xFFFFFFFFFFFFFFFFFFFFFFFFFFFFFFFFFFFFFFFF AND PUSH20 0xFFFFFFFFFFFFFFFFFFFFFFFFFFFFFFFFFFFFFFFF AND DUP2 MSTORE PUSH1 0x20 ADD SWAP1 DUP2 MSTORE PUSH1 0x20 ADD PUSH1 0x0 KECCAK256 PUSH1 0x0 DUP6 PUSH20 0xFFFFFFFFFFFFFFFFFFFFFFFFFFFFFFFFFFFFFFFF AND PUSH20 0xFFFFFFFFFFFFFFFFFFFFFFFFFFFFFFFFFFFFFFFF AND DUP2 MSTORE PUSH1 0x20 ADD SWAP1 DUP2 MSTORE PUSH1 0x20 ADD PUSH1 0x0 KECCAK256 DUP2 SWAP1 SSTORE POP PUSH1 0x3 PUSH1 0x0 DUP3 PUSH20 0xFFFFFFFFFFFFFFFFFFFFFFFFFFFFFFFFFFFFFFFF AND PUSH20 0xFFFFFFFFFFFFFFFFFFFFFFFFFFFFFFFFFFFFFFFF AND DUP2 MSTORE PUSH1 0x20 ADD SWAP1 DUP2 MSTORE PUSH1 0x20 ADD PUSH1 0x0 KECCAK256 DUP4 SWAP1 DUP1 PUSH1 0x1 DUP2 SLOAD ADD DUP1 DUP3 SSTORE DUP1 SWAP2 POP POP PUSH1 0x1 SWAP1 SUB SWAP1 PUSH1 0x0 MSTORE PUSH1 0x20 PUSH1 0x0 KECCAK256 ADD PUSH1 0x0 SWAP1 SWAP2 SWAP1 SWAP2 SWAP1 SWAP2 PUSH2 0x100 EXP DUP2 SLOAD DUP2 PUSH20 0xFFFFFFFFFFFFFFFFFFFFFFFFFFFFFFFFFFFFFFFF MUL NOT AND SWAP1 DUP4 PUSH20 0xFFFFFFFFFFFFFFFFFFFFFFFFFFFFFFFFFFFFFFFF AND MUL OR SWAP1 SSTORE POP DUP2 PUSH1 0x4 PUSH1 0x0 CALLER PUSH20 0xFFFFFFFFFFFFFFFFFFFFFFFFFFFFFFFFFFFFFFFF AND PUSH20 0xFFFFFFFFFFFFFFFFFFFFFFFFFFFFFFFFFFFFFFFF AND DUP2 MSTORE PUSH1 0x20 ADD SWAP1 DUP2 MSTORE PUSH1 0x20 ADD PUSH1 0x0 KECCAK256 PUSH1 0x0 DUP3 DUP3 SLOAD PUSH2 0x5EF SWAP2 SWAP1 PUSH2 0xA25 JUMP JUMPDEST SWAP3 POP POP DUP2 SWAP1 SSTORE POP DUP2 PUSH1 0x1 PUSH1 0x0 DUP6 PUSH20 0xFFFFFFFFFFFFFFFFFFFFFFFFFFFFFFFFFFFFFFFF AND PUSH20 0xFFFFFFFFFFFFFFFFFFFFFFFFFFFFFFFFFFFFFFFF AND DUP2 MSTORE PUSH1 0x20 ADD SWAP1 DUP2 MSTORE PUSH1 0x20 ADD PUSH1 0x0 KECCAK256 PUSH1 0x0 DUP3 DUP3 SLOAD PUSH2 0x645 SWAP2 SWAP1 PUSH2 0xA25 JUMP JUMPDEST SWAP3 POP POP DUP2 SWAP1 SSTORE POP PUSH1 0x0 DUP4 SWAP1 DUP1 PUSH1 0x1 DUP2 SLOAD ADD DUP1 DUP3 SSTORE DUP1 SWAP2 POP POP PUSH1 0x1 SWAP1 SUB SWAP1 PUSH1 0x0 MSTORE PUSH1 0x20 PUSH1 0x0 KECCAK256 ADD PUSH1 0x0 SWAP1 SWAP2 SWAP1 SWAP2 SWAP1 SWAP2 PUSH2 0x100 EXP DUP2 SLOAD DUP2 PUSH20 0xFFFFFFFFFFFFFFFFFFFFFFFFFFFFFFFFFFFFFFFF MUL NOT AND SWAP1 DUP4 PUSH20 0xFFFFFFFFFFFFFFFFFFFFFFFFFFFFFFFFFFFFFFFF AND MUL OR SWAP1 SSTORE POP TIMESTAMP PUSH1 0x5 PUSH1 0x0 DUP4 PUSH20 0xFFFFFFFFFFFFFFFFFFFFFFFFFFFFFFFFFFFFFFFF AND PUSH20 0xFFFFFFFFFFFFFFFFFFFFFFFFFFFFFFFFFFFFFFFF AND DUP2 MSTORE PUSH1 0x20 ADD SWAP1 DUP2 MSTORE PUSH1 0x20 ADD PUSH1 0x0 KECCAK256 PUSH1 0x0 DUP6 PUSH20 0xFFFFFFFFFFFFFFFFFFFFFFFFFFFFFFFFFFFFFFFF AND PUSH20 0xFFFFFFFFFFFFFFFFFFFFFFFFFFFFFFFFFFFFFFFF AND DUP2 MSTORE PUSH1 0x20 ADD SWAP1 DUP2 MSTORE PUSH1 0x20 ADD PUSH1 0x0 KECCAK256 DUP2 SWAP1 SSTORE POP POP POP POP JUMP JUMPDEST PUSH1 0x4 PUSH1 0x20 MSTORE DUP1 PUSH1 0x0 MSTORE PUSH1 0x40 PUSH1 0x0 KECCAK256 PUSH1 0x0 SWAP2 POP SWAP1 POP SLOAD DUP2 JUMP JUMPDEST PUSH1 0x1 PUSH1 0x20 MSTORE DUP1 PUSH1 0x0 MSTORE PUSH1 0x40 PUSH1 0x0 KECCAK256 PUSH1 0x0 SWAP2 POP SWAP1 POP SLOAD DUP2 JUMP JUMPDEST PUSH1 0x40 MLOAD DUP1 PUSH1 0x60 ADD PUSH1 0x40 MSTORE DUP1 PUSH1 0x0 PUSH20 0xFFFFFFFFFFFFFFFFFFFFFFFFFFFFFFFFFFFFFFFF AND DUP2 MSTORE PUSH1 0x20 ADD PUSH1 0x0 DUP2 MSTORE PUSH1 0x20 ADD PUSH1 0x0 DUP2 MSTORE POP SWAP1 JUMP JUMPDEST PUSH1 0x0 DUP2 CALLDATALOAD SWAP1 POP PUSH2 0x7AB DUP2 PUSH2 0xC4C JUMP JUMPDEST SWAP3 SWAP2 POP POP JUMP JUMPDEST PUSH1 0x0 DUP2 CALLDATALOAD SWAP1 POP PUSH2 0x7C0 DUP2 PUSH2 0xC63 JUMP JUMPDEST SWAP3 SWAP2 POP POP JUMP JUMPDEST PUSH1 0x0 PUSH1 0x20 DUP3 DUP5 SUB SLT ISZERO PUSH2 0x7DC JUMPI PUSH2 0x7DB PUSH2 0xC47 JUMP JUMPDEST JUMPDEST PUSH1 0x0 PUSH2 0x7EA DUP5 DUP3 DUP6 ADD PUSH2 0x79C JUMP JUMPDEST SWAP2 POP POP SWAP3 SWAP2 POP POP JUMP JUMPDEST PUSH1 0x0 DUP1 PUSH1 0x40 DUP4 DUP6 SUB SLT ISZERO PUSH2 0x80A JUMPI PUSH2 0x809 PUSH2 0xC47 JUMP JUMPDEST JUMPDEST PUSH1 0x0 PUSH2 0x818 DUP6 DUP3 DUP7 ADD PUSH2 0x79C JUMP JUMPDEST SWAP3 POP POP PUSH1 0x20 PUSH2 0x829 DUP6 DUP3 DUP7 ADD PUSH2 0x79C JUMP JUMPDEST SWAP2 POP POP SWAP3 POP SWAP3 SWAP1 POP JUMP JUMPDEST PUSH1 0x0 DUP1 PUSH1 0x40 DUP4 DUP6 SUB SLT ISZERO PUSH2 0x84A JUMPI PUSH2 0x849 PUSH2 0xC47 JUMP JUMPDEST JUMPDEST PUSH1 0x0 PUSH2 0x858 DUP6 DUP3 DUP7 ADD PUSH2 0x79C JUMP JUMPDEST SWAP3 POP POP PUSH1 0x20 PUSH2 0x869 DUP6 DUP3 DUP7 ADD PUSH2 0x7B1 JUMP JUMPDEST SWAP2 POP POP SWAP3 POP SWAP3 SWAP1 POP JUMP JUMPDEST PUSH1 0x0 PUSH1 0x20 DUP3 DUP5 SUB SLT ISZERO PUSH2 0x889 JUMPI PUSH2 0x888 PUSH2 0xC47 JUMP JUMPDEST JUMPDEST PUSH1 0x0 PUSH2 0x897 DUP5 DUP3 DUP6 ADD PUSH2 0x7B1 JUMP JUMPDEST SWAP2 POP POP SWAP3 SWAP2 POP POP JUMP JUMPDEST PUSH1 0x0 PUSH2 0x8AC DUP4 DUP4 PUSH2 0x934 JUMP JUMPDEST PUSH1 0x60 DUP4 ADD SWAP1 POP SWAP3 SWAP2 POP POP JUMP JUMPDEST PUSH2 0x8C1 DUP2 PUSH2 0xB06 JUMP JUMPDEST DUP3 MSTORE POP POP JUMP JUMPDEST PUSH2 0x8D0 DUP2 PUSH2 0xB06 JUMP JUMPDEST DUP3 MSTORE POP POP JUMP JUMPDEST PUSH1 0x0 PUSH2 0x8E1 DUP3 PUSH2 0x9FC JUMP JUMPDEST PUSH2 0x8EB DUP2 DUP6 PUSH2 0xA14 JUMP JUMPDEST SWAP4 POP PUSH2 0x8F6 DUP4 PUSH2 0x9EC JUMP JUMPDEST DUP1 PUSH1 0x0 JUMPDEST DUP4 DUP2 LT ISZERO PUSH2 0x927 JUMPI DUP2 MLOAD PUSH2 0x90E DUP9 DUP3 PUSH2 0x8A0 JUMP JUMPDEST SWAP8 POP PUSH2 0x919 DUP4 PUSH2 0xA07 JUMP JUMPDEST SWAP3 POP POP PUSH1 0x1 DUP2 ADD SWAP1 POP PUSH2 0x8FA JUMP JUMPDEST POP DUP6 SWAP4 POP POP POP POP SWAP3 SWAP2 POP POP JUMP JUMPDEST PUSH1 0x60 DUP3 ADD PUSH1 0x0 DUP3 ADD MLOAD PUSH2 0x94A PUSH1 0x0 DUP6 ADD DUP3 PUSH2 0x8B8 JUMP JUMPDEST POP PUSH1 0x20 DUP3 ADD MLOAD PUSH2 0x95D PUSH1 0x20 DUP6 ADD DUP3 PUSH2 0x976 JUMP JUMPDEST POP PUSH1 0x40 DUP3 ADD MLOAD PUSH2 0x970 PUSH1 0x40 DUP6 ADD DUP3 PUSH2 0x976 JUMP JUMPDEST POP POP POP POP JUMP JUMPDEST PUSH2 0x97F DUP2 PUSH2 0xB38 JUMP JUMPDEST DUP3 MSTORE POP POP JUMP JUMPDEST PUSH2 0x98E DUP2 PUSH2 0xB38 JUMP JUMPDEST DUP3 MSTORE POP POP JUMP JUMPDEST PUSH1 0x0 PUSH1 0x20 DUP3 ADD SWAP1 POP PUSH2 0x9A9 PUSH1 0x0 DUP4 ADD DUP5 PUSH2 0x8C7 JUMP JUMPDEST SWAP3 SWAP2 POP POP JUMP JUMPDEST PUSH1 0x0 PUSH1 0x20 DUP3 ADD SWAP1 POP DUP2 DUP2 SUB PUSH1 0x0 DUP4 ADD MSTORE PUSH2 0x9C9 DUP2 DUP5 PUSH2 0x8D6 JUMP JUMPDEST SWAP1 POP SWAP3 SWAP2 POP POP JUMP JUMPDEST PUSH1 0x0 PUSH1 0x20 DUP3 ADD SWAP1 POP PUSH2 0x9E6 PUSH1 0x0 DUP4 ADD DUP5 PUSH2 0x985 JUMP JUMPDEST SWAP3 SWAP2 POP POP JUMP JUMPDEST PUSH1 0x0 DUP2 SWAP1 POP PUSH1 0x20 DUP3 ADD SWAP1 POP SWAP2 SWAP1 POP JUMP JUMPDEST PUSH1 0x0 DUP2 MLOAD SWAP1 POP SWAP2 SWAP1 POP JUMP JUMPDEST PUSH1 0x0 PUSH1 0x20 DUP3 ADD SWAP1 POP SWAP2 SWAP1 POP JUMP JUMPDEST PUSH1 0x0 DUP3 DUP3 MSTORE PUSH1 0x20 DUP3 ADD SWAP1 POP SWAP3 SWAP2 POP POP JUMP JUMPDEST PUSH1 0x0 PUSH2 0xA30 DUP3 PUSH2 0xB38 JUMP JUMPDEST SWAP2 POP PUSH2 0xA3B DUP4 PUSH2 0xB38 JUMP JUMPDEST SWAP3 POP DUP3 PUSH32 0xFFFFFFFFFFFFFFFFFFFFFFFFFFFFFFFFFFFFFFFFFFFFFFFFFFFFFFFFFFFFFFFF SUB DUP3 GT ISZERO PUSH2 0xA70 JUMPI PUSH2 0xA6F PUSH2 0xB8B JUMP JUMPDEST JUMPDEST DUP3 DUP3 ADD SWAP1 POP SWAP3 SWAP2 POP POP JUMP JUMPDEST PUSH1 0x0 PUSH2 0xA86 DUP3 PUSH2 0xB38 JUMP JUMPDEST SWAP2 POP PUSH2 0xA91 DUP4 PUSH2 0xB38 JUMP JUMPDEST SWAP3 POP DUP3 PUSH2 0xAA1 JUMPI PUSH2 0xAA0 PUSH2 0xBBA JUMP JUMPDEST JUMPDEST DUP3 DUP3 DIV SWAP1 POP SWAP3 SWAP2 POP POP JUMP JUMPDEST PUSH1 0x0 PUSH2 0xAB7 DUP3 PUSH2 0xB38 JUMP JUMPDEST SWAP2 POP PUSH2 0xAC2 DUP4 PUSH2 0xB38 JUMP JUMPDEST SWAP3 POP DUP2 PUSH32 0xFFFFFFFFFFFFFFFFFFFFFFFFFFFFFFFFFFFFFFFFFFFFFFFFFFFFFFFFFFFFFFFF DIV DUP4 GT DUP3 ISZERO ISZERO AND ISZERO PUSH2 0xAFB JUMPI PUSH2 0xAFA PUSH2 0xB8B JUMP JUMPDEST JUMPDEST DUP3 DUP3 MUL SWAP1 POP SWAP3 SWAP2 POP POP JUMP JUMPDEST PUSH1 0x0 PUSH2 0xB11 DUP3 PUSH2 0xB18 JUMP JUMPDEST SWAP1 POP SWAP2 SWAP1 POP JUMP JUMPDEST PUSH1 0x0 PUSH20 0xFFFFFFFFFFFFFFFFFFFFFFFFFFFFFFFFFFFFFFFF DUP3 AND SWAP1 POP SWAP2 SWAP1 POP JUMP JUMPDEST PUSH1 0x0 DUP2 SWAP1 POP SWAP2 SWAP1 POP JUMP JUMPDEST PUSH1 0x0 PUSH2 0xB4D DUP3 PUSH2 0xB38 JUMP JUMPDEST SWAP2 POP PUSH32 0xFFFFFFFFFFFFFFFFFFFFFFFFFFFFFFFFFFFFFFFFFFFFFFFFFFFFFFFFFFFFFFFF DUP3 EQ ISZERO PUSH2 0xB80 JUMPI PUSH2 0xB7F PUSH2 0xB8B JUMP JUMPDEST JUMPDEST PUSH1 0x1 DUP3 ADD SWAP1 POP SWAP2 SWAP1 POP JUMP JUMPDEST PUSH32 0x4E487B7100000000000000000000000000000000000000000000000000000000 PUSH1 0x0 MSTORE PUSH1 0x11 PUSH1 0x4 MSTORE PUSH1 0x24 PUSH1 0x0 REVERT JUMPDEST PUSH32 0x4E487B7100000000000000000000000000000000000000000000000000000000 PUSH1 0x0 MSTORE PUSH1 0x12 PUSH1 0x4 MSTORE PUSH1 0x24 PUSH1 0x0 REVERT JUMPDEST PUSH32 0x4E487B7100000000000000000000000000000000000000000000000000000000 PUSH1 0x0 MSTORE PUSH1 0x32 PUSH1 0x4 MSTORE PUSH1 0x24 PUSH1 0x0 REVERT JUMPDEST PUSH32 0x4E487B7100000000000000000000000000000000000000000000000000000000 PUSH1 0x0 MSTORE PUSH1 0x41 PUSH1 0x4 MSTORE PUSH1 0x24 PUSH1 0x0 REVERT JUMPDEST PUSH1 0x0 DUP1 REVERT JUMPDEST PUSH2 0xC55 DUP2 PUSH2 0xB06 JUMP JUMPDEST DUP2 EQ PUSH2 0xC60 JUMPI PUSH1 0x0 DUP1 REVERT JUMPDEST POP JUMP JUMPDEST PUSH2 0xC6C DUP2 PUSH2 0xB38 JUMP JUMPDEST DUP2 EQ PUSH2 0xC77 JUMPI PUSH1 0x0 DUP1 REVERT JUMPDEST POP JUMP INVALID LOG2 PUSH5 0x6970667358 0x22 SLT KECCAK256 CREATE2 DUP16 CALLCODE 0xB5 DUP13 0xB6 0xB7 0x27 CALLCODE LOG2 PUSH27 0x8F97A7223F6353BF7EE023AE16C455141CC0C6266364736F6C6343 STOP ADDMOD MOD STOP CALLER "
				},
				"gasEstimates": {
					"creation": {
						"codeDepositCost": "649600",
						"executionCost": "infinite",
						"totalCost": "infinite"
					},
					"external": {
						"getAssetsToBorrow()": "infinite",
						"lend(address,uint256)": "infinite",
						"lenderAssetList(address,uint256)": "infinite",
						"lenderAssets(address,address)": "infinite",
						"lenderTotalLandings(address)": "2858",
						"reserveAssets(uint256)": "5001",
						"reserves(address)": "2880"
					}
				},
				"methodIdentifiers": {
					"getAssetsToBorrow()": "0480ee08",
					"lend(address,uint256)": "a2fb342d",
					"lenderAssetList(address,uint256)": "04581de5",
					"lenderAssets(address,address)": "442130d0",
					"lenderTotalLandings(address)": "c32d90ab",
					"reserveAssets(uint256)": "37973e5f",
					"reserves(address)": "d66bd524"
				}
			},
			"storageLayout": {
				"storage": [
					{
						"astId": 10,
						"contract": "Defi-project/test.sol:TEST",
						"label": "reserveAssets",
						"offset": 0,
						"slot": "0",
						"type": "t_array(t_address)dyn_storage"
					},
					{
						"astId": 14,
						"contract": "Defi-project/test.sol:TEST",
						"label": "reserves",
						"offset": 0,
						"slot": "1",
						"type": "t_mapping(t_address,t_uint256)"
					},
					{
						"astId": 20,
						"contract": "Defi-project/test.sol:TEST",
						"label": "lenderAssets",
						"offset": 0,
						"slot": "2",
						"type": "t_mapping(t_address,t_mapping(t_address,t_uint256))"
					},
					{
						"astId": 25,
						"contract": "Defi-project/test.sol:TEST",
						"label": "lenderAssetList",
						"offset": 0,
						"slot": "3",
						"type": "t_mapping(t_address,t_array(t_address)dyn_storage)"
					},
					{
						"astId": 29,
						"contract": "Defi-project/test.sol:TEST",
						"label": "lenderTotalLandings",
						"offset": 0,
						"slot": "4",
						"type": "t_mapping(t_address,t_uint256)"
					},
					{
						"astId": 35,
						"contract": "Defi-project/test.sol:TEST",
						"label": "lenderTimestamp",
						"offset": 0,
						"slot": "5",
						"type": "t_mapping(t_address,t_mapping(t_address,t_uint256))"
					}
				],
				"types": {
					"t_address": {
						"encoding": "inplace",
						"label": "address",
						"numberOfBytes": "20"
					},
					"t_array(t_address)dyn_storage": {
						"base": "t_address",
						"encoding": "dynamic_array",
						"label": "address[]",
						"numberOfBytes": "32"
					},
					"t_mapping(t_address,t_array(t_address)dyn_storage)": {
						"encoding": "mapping",
						"key": "t_address",
						"label": "mapping(address => address[])",
						"numberOfBytes": "32",
						"value": "t_array(t_address)dyn_storage"
					},
					"t_mapping(t_address,t_mapping(t_address,t_uint256))": {
						"encoding": "mapping",
						"key": "t_address",
						"label": "mapping(address => mapping(address => uint256))",
						"numberOfBytes": "32",
						"value": "t_mapping(t_address,t_uint256)"
					},
					"t_mapping(t_address,t_uint256)": {
						"encoding": "mapping",
						"key": "t_address",
						"label": "mapping(address => uint256)",
						"numberOfBytes": "32",
						"value": "t_uint256"
					},
					"t_uint256": {
						"encoding": "inplace",
						"label": "uint256",
						"numberOfBytes": "32"
					}
				}
			},
			"userdoc": {
				"kind": "user",
				"methods": {},
				"version": 1
			}
		}
	}
}