{
	"Defi-project/LendingPool_20230217_2.sol": {
		"LendingPool": {
			"abi": [
				{
					"inputs": [],
					"stateMutability": "nonpayable",
					"type": "constructor"
				},
				{
					"inputs": [],
					"name": "BORROW_THRESHOLD",
					"outputs": [
						{
							"internalType": "uint256",
							"name": "",
							"type": "uint256"
						}
					],
					"stateMutability": "view",
					"type": "function"
				},
				{
					"inputs": [],
					"name": "INTEREST_RATE",
					"outputs": [
						{
							"internalType": "uint256",
							"name": "",
							"type": "uint256"
						}
					],
					"stateMutability": "view",
					"type": "function"
				},
				{
					"inputs": [],
					"name": "LIQUIDATION_THRESHOLD",
					"outputs": [
						{
							"internalType": "uint256",
							"name": "",
							"type": "uint256"
						}
					],
					"stateMutability": "view",
					"type": "function"
				},
				{
					"inputs": [
						{
							"internalType": "address",
							"name": "_token",
							"type": "address"
						},
						{
							"internalType": "string",
							"name": "_symbol",
							"type": "string"
						}
					],
					"name": "addTokens",
					"outputs": [],
					"stateMutability": "nonpayable",
					"type": "function"
				},
				{
					"inputs": [
						{
							"internalType": "address",
							"name": "_token",
							"type": "address"
						},
						{
							"internalType": "uint256",
							"name": "_amount",
							"type": "uint256"
						}
					],
					"name": "borrow",
					"outputs": [],
					"stateMutability": "nonpayable",
					"type": "function"
				},
				{
					"inputs": [],
					"name": "deployer",
					"outputs": [
						{
							"internalType": "address",
							"name": "",
							"type": "address"
						}
					],
					"stateMutability": "view",
					"type": "function"
				},
				{
					"inputs": [
						{
							"internalType": "address",
							"name": "_user",
							"type": "address"
						}
					],
					"name": "getAssets",
					"outputs": [
						{
							"internalType": "address[]",
							"name": "assetList",
							"type": "address[]"
						},
						{
							"internalType": "string[]",
							"name": "symbols",
							"type": "string[]"
						},
						{
							"internalType": "uint256[]",
							"name": "assetQty",
							"type": "uint256[]"
						}
					],
					"stateMutability": "view",
					"type": "function"
				},
				{
					"inputs": [],
					"name": "getAssetsToBorrow",
					"outputs": [],
					"stateMutability": "view",
					"type": "function"
				},
				{
					"inputs": [
						{
							"internalType": "address",
							"name": "_token",
							"type": "address"
						}
					],
					"name": "getReserves",
					"outputs": [
						{
							"internalType": "uint256",
							"name": "",
							"type": "uint256"
						}
					],
					"stateMutability": "view",
					"type": "function"
				},
				{
					"inputs": [
						{
							"internalType": "address",
							"name": "_token",
							"type": "address"
						},
						{
							"internalType": "uint256",
							"name": "_amount",
							"type": "uint256"
						}
					],
					"name": "lend",
					"outputs": [],
					"stateMutability": "nonpayable",
					"type": "function"
				},
				{
					"inputs": [
						{
							"internalType": "address",
							"name": "lender",
							"type": "address"
						},
						{
							"internalType": "address",
							"name": "_token",
							"type": "address"
						}
					],
					"name": "rewardTokensEarned",
					"outputs": [
						{
							"internalType": "uint256",
							"name": "",
							"type": "uint256"
						}
					],
					"stateMutability": "view",
					"type": "function"
				},
				{
					"inputs": [
						{
							"internalType": "address",
							"name": "",
							"type": "address"
						}
					],
					"name": "tokenMap",
					"outputs": [
						{
							"internalType": "string",
							"name": "",
							"type": "string"
						}
					],
					"stateMutability": "view",
					"type": "function"
				},
				{
					"inputs": [
						{
							"internalType": "address",
							"name": "lender",
							"type": "address"
						},
						{
							"internalType": "address",
							"name": "_token",
							"type": "address"
						}
					],
					"name": "updateEarned",
					"outputs": [],
					"stateMutability": "nonpayable",
					"type": "function"
				},
				{
					"inputs": [
						{
							"internalType": "address",
							"name": "_token",
							"type": "address"
						},
						{
							"internalType": "uint256",
							"name": "_amount",
							"type": "uint256"
						}
					],
					"name": "withdraw",
					"outputs": [
						{
							"internalType": "bool",
							"name": "",
							"type": "bool"
						}
					],
					"stateMutability": "payable",
					"type": "function"
				}
			],
			"devdoc": {
				"kind": "dev",
				"methods": {},
				"version": 1
			},
			"evm": {
				"assembly": "    /* \"Defi-project/LendingPool_20230217_2.sol\":183:8930  contract LendingPool {\r... */\n  mstore(0x40, 0xe0)\n    /* \"Defi-project/LendingPool_20230217_2.sol\":314:315  3 */\n  0x03\n    /* \"Defi-project/LendingPool_20230217_2.sol\":275:315  uint256 public immutable INTEREST_RATE=3 */\n  0x80\n  swap1\n  dup2\n  mstore\n  pop\n    /* \"Defi-project/LendingPool_20230217_2.sol\":364:366  50 */\n  0x32\n    /* \"Defi-project/LendingPool_20230217_2.sol\":322:366  uint256 public immutable BORROW_THRESHOLD=50 */\n  0xa0\n  swap1\n  dup2\n  mstore\n  pop\n    /* \"Defi-project/LendingPool_20230217_2.sol\":420:422  10 */\n  0x0a\n    /* \"Defi-project/LendingPool_20230217_2.sol\":373:422  uint256 public immutable LIQUIDATION_THRESHOLD=10 */\n  0xc0\n  swap1\n  dup2\n  mstore\n  pop\n    /* \"Defi-project/LendingPool_20230217_2.sol\":1731:1786  constructor () {\r... */\n  callvalue\n  dup1\n  iszero\n  tag_1\n  jumpi\n  0x00\n  dup1\n  revert\ntag_1:\n  pop\n    /* \"Defi-project/LendingPool_20230217_2.sol\":1768:1778  msg.sender */\n  caller\n    /* \"Defi-project/LendingPool_20230217_2.sol\":1757:1765  deployer */\n  0x00\n  dup1\n    /* \"Defi-project/LendingPool_20230217_2.sol\":1757:1778  deployer = msg.sender */\n  0x0100\n  exp\n  dup2\n  sload\n  dup2\n  0xffffffffffffffffffffffffffffffffffffffff\n  mul\n  not\n  and\n  swap1\n  dup4\n  0xffffffffffffffffffffffffffffffffffffffff\n  and\n  mul\n  or\n  swap1\n  sstore\n  pop\n    /* \"Defi-project/LendingPool_20230217_2.sol\":183:8930  contract LendingPool {\r... */\n  mload(0x80)\n  mload(0xa0)\n  mload(0xc0)\n  codecopy(0x00, dataOffset(sub_0), dataSize(sub_0))\n  0x00\n  assignImmutable(\"0xda07994851e5595956ad5f42ef8f8c8e244dd44ecb632f01a24fa5f3c80ff057\")\n  0x00\n  assignImmutable(\"0xdc663e2224e3d20e2f93f04c4d7a191ee29ddce660128a0e996f13fca63039a2\")\n  0x00\n  assignImmutable(\"0x29f7dc91bacd20d6dd2aee05db8697d2a4633e96941593f85928b6d956432d2a\")\n  return(0x00, dataSize(sub_0))\nstop\n\nsub_0: assembly {\n        /* \"Defi-project/LendingPool_20230217_2.sol\":183:8930  contract LendingPool {\r... */\n      mstore(0x40, 0x80)\n      jumpi(tag_1, lt(calldatasize, 0x04))\n      shr(0xe0, calldataload(0x00))\n      dup1\n      0x742978da\n      gt\n      tag_16\n      jumpi\n      dup1\n      0xd5f39488\n      gt\n      tag_17\n      jumpi\n      dup1\n      0xd5f39488\n      eq\n      tag_12\n      jumpi\n      dup1\n      0xd7a3b27f\n      eq\n      tag_13\n      jumpi\n      dup1\n      0xdd943ca9\n      eq\n      tag_14\n      jumpi\n      dup1\n      0xf3fef3a3\n      eq\n      tag_15\n      jumpi\n      jump(tag_1)\n    tag_17:\n      dup1\n      0x742978da\n      eq\n      tag_9\n      jumpi\n      dup1\n      0x90a8ae9b\n      eq\n      tag_10\n      jumpi\n      dup1\n      0xa2fb342d\n      eq\n      tag_11\n      jumpi\n      jump(tag_1)\n    tag_16:\n      dup1\n      0x3e99c1e4\n      gt\n      tag_18\n      jumpi\n      dup1\n      0x3e99c1e4\n      eq\n      tag_5\n      jumpi\n      dup1\n      0x4b8a3529\n      eq\n      tag_6\n      jumpi\n      dup1\n      0x5b72a33a\n      eq\n      tag_7\n      jumpi\n      dup1\n      0x6c0723c5\n      eq\n      tag_8\n      jumpi\n      jump(tag_1)\n    tag_18:\n      dup1\n      0x4aca6e\n      eq\n      tag_2\n      jumpi\n      dup1\n      0x0480ee08\n      eq\n      tag_3\n      jumpi\n      dup1\n      0x1500c2ff\n      eq\n      tag_4\n      jumpi\n    tag_1:\n      0x00\n      dup1\n      revert\n        /* \"Defi-project/LendingPool_20230217_2.sol\":538:580  mapping(address => string) public tokenMap */\n    tag_2:\n      callvalue\n      dup1\n      iszero\n      tag_19\n      jumpi\n      0x00\n      dup1\n      revert\n    tag_19:\n      pop\n      tag_20\n      0x04\n      dup1\n      calldatasize\n      sub\n      dup2\n      add\n      swap1\n      tag_21\n      swap2\n      swap1\n      tag_22\n      jump\t// in\n    tag_21:\n      tag_23\n      jump\t// in\n    tag_20:\n      mload(0x40)\n      tag_24\n      swap2\n      swap1\n      tag_25\n      jump\t// in\n    tag_24:\n      mload(0x40)\n      dup1\n      swap2\n      sub\n      swap1\n      return\n        /* \"Defi-project/LendingPool_20230217_2.sol\":6858:7987  function getAssetsToBorrow() public view {\r... */\n    tag_3:\n      callvalue\n      dup1\n      iszero\n      tag_26\n      jumpi\n      0x00\n      dup1\n      revert\n    tag_26:\n      pop\n      tag_27\n      tag_28\n      jump\t// in\n    tag_27:\n      stop\n        /* \"Defi-project/LendingPool_20230217_2.sol\":322:366  uint256 public immutable BORROW_THRESHOLD=50 */\n    tag_4:\n      callvalue\n      dup1\n      iszero\n      tag_29\n      jumpi\n      0x00\n      dup1\n      revert\n    tag_29:\n      pop\n      tag_30\n      tag_31\n      jump\t// in\n    tag_30:\n      mload(0x40)\n      tag_32\n      swap2\n      swap1\n      tag_33\n      jump\t// in\n    tag_32:\n      mload(0x40)\n      dup1\n      swap2\n      sub\n      swap1\n      return\n        /* \"Defi-project/LendingPool_20230217_2.sol\":6401:6508  function getReserves(address _token) public view returns(uint256){\r... */\n    tag_5:\n      callvalue\n      dup1\n      iszero\n      tag_34\n      jumpi\n      0x00\n      dup1\n      revert\n    tag_34:\n      pop\n      tag_35\n      0x04\n      dup1\n      calldatasize\n      sub\n      dup2\n      add\n      swap1\n      tag_36\n      swap2\n      swap1\n      tag_22\n      jump\t// in\n    tag_36:\n      tag_37\n      jump\t// in\n    tag_35:\n      mload(0x40)\n      tag_38\n      swap2\n      swap1\n      tag_33\n      jump\t// in\n    tag_38:\n      mload(0x40)\n      dup1\n      swap2\n      sub\n      swap1\n      return\n        /* \"Defi-project/LendingPool_20230217_2.sol\":7993:8925  function borrow(address _token, uint256 _amount) external {\r... */\n    tag_6:\n      callvalue\n      dup1\n      iszero\n      tag_39\n      jumpi\n      0x00\n      dup1\n      revert\n    tag_39:\n      pop\n      tag_40\n      0x04\n      dup1\n      calldatasize\n      sub\n      dup2\n      add\n      swap1\n      tag_41\n      swap2\n      swap1\n      tag_42\n      jump\t// in\n    tag_41:\n      tag_43\n      jump\t// in\n    tag_40:\n      stop\n        /* \"Defi-project/LendingPool_20230217_2.sol\":275:315  uint256 public immutable INTEREST_RATE=3 */\n    tag_7:\n      callvalue\n      dup1\n      iszero\n      tag_44\n      jumpi\n      0x00\n      dup1\n      revert\n    tag_44:\n      pop\n      tag_45\n      tag_46\n      jump\t// in\n    tag_45:\n      mload(0x40)\n      tag_47\n      swap2\n      swap1\n      tag_33\n      jump\t// in\n    tag_47:\n      mload(0x40)\n      dup1\n      swap2\n      sub\n      swap1\n      return\n        /* \"Defi-project/LendingPool_20230217_2.sol\":5750:5992  function rewardTokensEarned(address lender,address _token) public view returns(uint256){\r... */\n    tag_8:\n      callvalue\n      dup1\n      iszero\n      tag_48\n      jumpi\n      0x00\n      dup1\n      revert\n    tag_48:\n      pop\n      tag_49\n      0x04\n      dup1\n      calldatasize\n      sub\n      dup2\n      add\n      swap1\n      tag_50\n      swap2\n      swap1\n      tag_51\n      jump\t// in\n    tag_50:\n      tag_52\n      jump\t// in\n    tag_49:\n      mload(0x40)\n      tag_53\n      swap2\n      swap1\n      tag_33\n      jump\t// in\n    tag_53:\n      mload(0x40)\n      dup1\n      swap2\n      sub\n      swap1\n      return\n        /* \"Defi-project/LendingPool_20230217_2.sol\":3348:4003  function getAssets(address _user) public view returns (\r... */\n    tag_9:\n      callvalue\n      dup1\n      iszero\n      tag_54\n      jumpi\n      0x00\n      dup1\n      revert\n    tag_54:\n      pop\n      tag_55\n      0x04\n      dup1\n      calldatasize\n      sub\n      dup2\n      add\n      swap1\n      tag_56\n      swap2\n      swap1\n      tag_22\n      jump\t// in\n    tag_56:\n      tag_57\n      jump\t// in\n    tag_55:\n      mload(0x40)\n      tag_58\n      swap4\n      swap3\n      swap2\n      swap1\n      tag_59\n      jump\t// in\n    tag_58:\n      mload(0x40)\n      dup1\n      swap2\n      sub\n      swap1\n      return\n        /* \"Defi-project/LendingPool_20230217_2.sol\":373:422  uint256 public immutable LIQUIDATION_THRESHOLD=10 */\n    tag_10:\n      callvalue\n      dup1\n      iszero\n      tag_60\n      jumpi\n      0x00\n      dup1\n      revert\n    tag_60:\n      pop\n      tag_61\n      tag_62\n      jump\t// in\n    tag_61:\n      mload(0x40)\n      tag_63\n      swap2\n      swap1\n      tag_33\n      jump\t// in\n    tag_63:\n      mload(0x40)\n      dup1\n      swap2\n      sub\n      swap1\n      return\n        /* \"Defi-project/LendingPool_20230217_2.sol\":2335:3340  function lend(address _token, uint256 _amount) public {\r... */\n    tag_11:\n      callvalue\n      dup1\n      iszero\n      tag_64\n      jumpi\n      0x00\n      dup1\n      revert\n    tag_64:\n      pop\n      tag_65\n      0x04\n      dup1\n      calldatasize\n      sub\n      dup2\n      add\n      swap1\n      tag_66\n      swap2\n      swap1\n      tag_42\n      jump\t// in\n    tag_66:\n      tag_67\n      jump\t// in\n    tag_65:\n      stop\n        /* \"Defi-project/LendingPool_20230217_2.sol\":211:234  address public deployer */\n    tag_12:\n      callvalue\n      dup1\n      iszero\n      tag_68\n      jumpi\n      0x00\n      dup1\n      revert\n    tag_68:\n      pop\n      tag_69\n      tag_70\n      jump\t// in\n    tag_69:\n      mload(0x40)\n      tag_71\n      swap2\n      swap1\n      tag_72\n      jump\t// in\n    tag_71:\n      mload(0x40)\n      dup1\n      swap2\n      sub\n      swap1\n      return\n        /* \"Defi-project/LendingPool_20230217_2.sol\":2083:2262  function addTokens(address _token, string memory _symbol) external {\r... */\n    tag_13:\n      callvalue\n      dup1\n      iszero\n      tag_73\n      jumpi\n      0x00\n      dup1\n      revert\n    tag_73:\n      pop\n      tag_74\n      0x04\n      dup1\n      calldatasize\n      sub\n      dup2\n      add\n      swap1\n      tag_75\n      swap2\n      swap1\n      tag_76\n      jump\t// in\n    tag_75:\n      tag_77\n      jump\t// in\n    tag_74:\n      stop\n        /* \"Defi-project/LendingPool_20230217_2.sol\":6003:6393  function updateEarned(address lender, address _token) onlyOwner(_token) public{\r... */\n    tag_14:\n      callvalue\n      dup1\n      iszero\n      tag_78\n      jumpi\n      0x00\n      dup1\n      revert\n    tag_78:\n      pop\n      tag_79\n      0x04\n      dup1\n      calldatasize\n      sub\n      dup2\n      add\n      swap1\n      tag_80\n      swap2\n      swap1\n      tag_51\n      jump\t// in\n    tag_80:\n      tag_81\n      jump\t// in\n    tag_79:\n      stop\n        /* \"Defi-project/LendingPool_20230217_2.sol\":4011:5707  function withdraw(address _token, uint256 _amount) external ownerHasReserves(_token) onlyOwner(_token) payable returns(bool) {\r... */\n    tag_15:\n      tag_82\n      0x04\n      dup1\n      calldatasize\n      sub\n      dup2\n      add\n      swap1\n      tag_83\n      swap2\n      swap1\n      tag_42\n      jump\t// in\n    tag_83:\n      tag_84\n      jump\t// in\n    tag_82:\n      mload(0x40)\n      tag_85\n      swap2\n      swap1\n      tag_86\n      jump\t// in\n    tag_85:\n      mload(0x40)\n      dup1\n      swap2\n      sub\n      swap1\n      return\n        /* \"Defi-project/LendingPool_20230217_2.sol\":538:580  mapping(address => string) public tokenMap */\n    tag_23:\n      mstore(0x20, 0x01)\n      dup1\n      0x00\n      mstore\n      keccak256(0x00, 0x40)\n      0x00\n      swap2\n      pop\n      swap1\n      pop\n      dup1\n      sload\n      tag_87\n      swap1\n      tag_88\n      jump\t// in\n    tag_87:\n      dup1\n      0x1f\n      add\n      0x20\n      dup1\n      swap2\n      div\n      mul\n      0x20\n      add\n      mload(0x40)\n      swap1\n      dup2\n      add\n      0x40\n      mstore\n      dup1\n      swap3\n      swap2\n      swap1\n      dup2\n      dup2\n      mstore\n      0x20\n      add\n      dup3\n      dup1\n      sload\n      tag_89\n      swap1\n      tag_88\n      jump\t// in\n    tag_89:\n      dup1\n      iszero\n      tag_90\n      jumpi\n      dup1\n      0x1f\n      lt\n      tag_91\n      jumpi\n      0x0100\n      dup1\n      dup4\n      sload\n      div\n      mul\n      dup4\n      mstore\n      swap2\n      0x20\n      add\n      swap2\n      jump(tag_90)\n    tag_91:\n      dup3\n      add\n      swap2\n      swap1\n      0x00\n      mstore\n      keccak256(0x00, 0x20)\n      swap1\n    tag_92:\n      dup2\n      sload\n      dup2\n      mstore\n      swap1\n      0x01\n      add\n      swap1\n      0x20\n      add\n      dup1\n      dup4\n      gt\n      tag_92\n      jumpi\n      dup3\n      swap1\n      sub\n      0x1f\n      and\n      dup3\n      add\n      swap2\n    tag_90:\n      pop\n      pop\n      pop\n      pop\n      pop\n      dup2\n      jump\t// out\n        /* \"Defi-project/LendingPool_20230217_2.sol\":6858:7987  function getAssetsToBorrow() public view {\r... */\n    tag_28:\n        /* \"Defi-project/LendingPool_20230217_2.sol\":7341:7364  uint lendingTotalAmount */\n      0x00\n        /* \"Defi-project/LendingPool_20230217_2.sol\":7367:7386  lenderTotalLandings */\n      0x04\n        /* \"Defi-project/LendingPool_20230217_2.sol\":7367:7398  lenderTotalLandings[msg.sender] */\n      0x00\n        /* \"Defi-project/LendingPool_20230217_2.sol\":7387:7397  msg.sender */\n      caller\n        /* \"Defi-project/LendingPool_20230217_2.sol\":7367:7398  lenderTotalLandings[msg.sender] */\n      0xffffffffffffffffffffffffffffffffffffffff\n      and\n      0xffffffffffffffffffffffffffffffffffffffff\n      and\n      dup2\n      mstore\n      0x20\n      add\n      swap1\n      dup2\n      mstore\n      0x20\n      add\n      0x00\n      keccak256\n      sload\n        /* \"Defi-project/LendingPool_20230217_2.sol\":7341:7398  uint lendingTotalAmount = lenderTotalLandings[msg.sender] */\n      swap1\n      pop\n        /* \"Defi-project/LendingPool_20230217_2.sol\":6899:7987  {\r... */\n      pop\n        /* \"Defi-project/LendingPool_20230217_2.sol\":6858:7987  function getAssetsToBorrow() public view {\r... */\n      jump\t// out\n        /* \"Defi-project/LendingPool_20230217_2.sol\":322:366  uint256 public immutable BORROW_THRESHOLD=50 */\n    tag_31:\n      immutable(\"0xdc663e2224e3d20e2f93f04c4d7a191ee29ddce660128a0e996f13fca63039a2\")\n      dup2\n      jump\t// out\n        /* \"Defi-project/LendingPool_20230217_2.sol\":6401:6508  function getReserves(address _token) public view returns(uint256){\r... */\n    tag_37:\n        /* \"Defi-project/LendingPool_20230217_2.sol\":6458:6465  uint256 */\n      0x00\n        /* \"Defi-project/LendingPool_20230217_2.sol\":6484:6492  reserves */\n      0x07\n        /* \"Defi-project/LendingPool_20230217_2.sol\":6484:6500  reserves[_token] */\n      0x00\n        /* \"Defi-project/LendingPool_20230217_2.sol\":6493:6499  _token */\n      dup4\n        /* \"Defi-project/LendingPool_20230217_2.sol\":6484:6500  reserves[_token] */\n      0xffffffffffffffffffffffffffffffffffffffff\n      and\n      0xffffffffffffffffffffffffffffffffffffffff\n      and\n      dup2\n      mstore\n      0x20\n      add\n      swap1\n      dup2\n      mstore\n      0x20\n      add\n      0x00\n      keccak256\n      sload\n        /* \"Defi-project/LendingPool_20230217_2.sol\":6477:6500  return reserves[_token] */\n      swap1\n      pop\n        /* \"Defi-project/LendingPool_20230217_2.sol\":6401:6508  function getReserves(address _token) public view returns(uint256){\r... */\n      swap2\n      swap1\n      pop\n      jump\t// out\n        /* \"Defi-project/LendingPool_20230217_2.sol\":7993:8925  function borrow(address _token, uint256 _amount) external {\r... */\n    tag_43:\n        /* \"Defi-project/LendingPool_20230217_2.sol\":8062:8074  IERC20 token */\n      0x00\n        /* \"Defi-project/LendingPool_20230217_2.sol\":8084:8090  _token */\n      dup3\n        /* \"Defi-project/LendingPool_20230217_2.sol\":8062:8091  IERC20 token = IERC20(_token) */\n      swap1\n      pop\n        /* \"Defi-project/LendingPool_20230217_2.sol\":8103:8119  address borrower */\n      0x00\n        /* \"Defi-project/LendingPool_20230217_2.sol\":8122:8132  msg.sender */\n      caller\n        /* \"Defi-project/LendingPool_20230217_2.sol\":8103:8132  address borrower = msg.sender */\n      swap1\n      pop\n        /* \"Defi-project/LendingPool_20230217_2.sol\":8203:8210  _amount */\n      dup3\n        /* \"Defi-project/LendingPool_20230217_2.sol\":8184:8192  reserves */\n      0x07\n        /* \"Defi-project/LendingPool_20230217_2.sol\":8184:8200  reserves[_token] */\n      0x00\n        /* \"Defi-project/LendingPool_20230217_2.sol\":8193:8199  _token */\n      dup7\n        /* \"Defi-project/LendingPool_20230217_2.sol\":8184:8200  reserves[_token] */\n      0xffffffffffffffffffffffffffffffffffffffff\n      and\n      0xffffffffffffffffffffffffffffffffffffffff\n      and\n      dup2\n      mstore\n      0x20\n      add\n      swap1\n      dup2\n      mstore\n      0x20\n      add\n      0x00\n      keccak256\n      sload\n        /* \"Defi-project/LendingPool_20230217_2.sol\":8184:8210  reserves[_token] > _amount */\n      gt\n        /* \"Defi-project/LendingPool_20230217_2.sol\":8176:8244  require(reserves[_token] > _amount, \"Not enough reserves to borrow\") */\n      tag_96\n      jumpi\n      mload(0x40)\n      0x08c379a000000000000000000000000000000000000000000000000000000000\n      dup2\n      mstore\n      0x04\n      add\n      tag_97\n      swap1\n      tag_98\n      jump\t// in\n    tag_97:\n      mload(0x40)\n      dup1\n      swap2\n      sub\n      swap1\n      revert\n    tag_96:\n        /* \"Defi-project/LendingPool_20230217_2.sol\":8391:8398  _amount */\n      dup3\n        /* \"Defi-project/LendingPool_20230217_2.sol\":8358:8370  lenderAssets */\n      0x02\n        /* \"Defi-project/LendingPool_20230217_2.sol\":8358:8380  lenderAssets[borrower] */\n      0x00\n        /* \"Defi-project/LendingPool_20230217_2.sol\":8371:8379  borrower */\n      dup4\n        /* \"Defi-project/LendingPool_20230217_2.sol\":8358:8380  lenderAssets[borrower] */\n      0xffffffffffffffffffffffffffffffffffffffff\n      and\n      0xffffffffffffffffffffffffffffffffffffffff\n      and\n      dup2\n      mstore\n      0x20\n      add\n      swap1\n      dup2\n      mstore\n      0x20\n      add\n      0x00\n      keccak256\n        /* \"Defi-project/LendingPool_20230217_2.sol\":8358:8388  lenderAssets[borrower][_token] */\n      0x00\n        /* \"Defi-project/LendingPool_20230217_2.sol\":8381:8387  _token */\n      dup7\n        /* \"Defi-project/LendingPool_20230217_2.sol\":8358:8388  lenderAssets[borrower][_token] */\n      0xffffffffffffffffffffffffffffffffffffffff\n      and\n      0xffffffffffffffffffffffffffffffffffffffff\n      and\n      dup2\n      mstore\n      0x20\n      add\n      swap1\n      dup2\n      mstore\n      0x20\n      add\n      0x00\n      keccak256\n      sload\n        /* \"Defi-project/LendingPool_20230217_2.sol\":8358:8398  lenderAssets[borrower][_token] > _amount */\n      gt\n        /* \"Defi-project/LendingPool_20230217_2.sol\":8350:8437  require(lenderAssets[borrower][_token] > _amount,\"Not enough ETH collateral to Borrow\") */\n      tag_99\n      jumpi\n      mload(0x40)\n      0x08c379a000000000000000000000000000000000000000000000000000000000\n      dup2\n      mstore\n      0x04\n      add\n      tag_100\n      swap1\n      tag_101\n      jump\t// in\n    tag_100:\n      mload(0x40)\n      dup1\n      swap2\n      sub\n      swap1\n      revert\n    tag_99:\n        /* \"Defi-project/LendingPool_20230217_2.sol\":8553:8568  block.timestamp */\n      timestamp\n        /* \"Defi-project/LendingPool_20230217_2.sol\":8517:8534  borrowerTimestamp */\n      0x0b\n        /* \"Defi-project/LendingPool_20230217_2.sol\":8517:8544  borrowerTimestamp[borrower] */\n      0x00\n        /* \"Defi-project/LendingPool_20230217_2.sol\":8535:8543  borrower */\n      dup4\n        /* \"Defi-project/LendingPool_20230217_2.sol\":8517:8544  borrowerTimestamp[borrower] */\n      0xffffffffffffffffffffffffffffffffffffffff\n      and\n      0xffffffffffffffffffffffffffffffffffffffff\n      and\n      dup2\n      mstore\n      0x20\n      add\n      swap1\n      dup2\n      mstore\n      0x20\n      add\n      0x00\n      keccak256\n        /* \"Defi-project/LendingPool_20230217_2.sol\":8517:8552  borrowerTimestamp[borrower][_token] */\n      0x00\n        /* \"Defi-project/LendingPool_20230217_2.sol\":8545:8551  _token */\n      dup7\n        /* \"Defi-project/LendingPool_20230217_2.sol\":8517:8552  borrowerTimestamp[borrower][_token] */\n      0xffffffffffffffffffffffffffffffffffffffff\n      and\n      0xffffffffffffffffffffffffffffffffffffffff\n      and\n      dup2\n      mstore\n      0x20\n      add\n      swap1\n      dup2\n      mstore\n      0x20\n      add\n      0x00\n      keccak256\n        /* \"Defi-project/LendingPool_20230217_2.sol\":8517:8568  borrowerTimestamp[borrower][_token]=block.timestamp */\n      dup2\n      swap1\n      sstore\n      pop\n        /* \"Defi-project/LendingPool_20230217_2.sol\":8642:8649  _amount */\n      dup3\n        /* \"Defi-project/LendingPool_20230217_2.sol\":8622:8630  reserves */\n      0x07\n        /* \"Defi-project/LendingPool_20230217_2.sol\":8622:8638  reserves[_token] */\n      0x00\n        /* \"Defi-project/LendingPool_20230217_2.sol\":8631:8637  _token */\n      dup7\n        /* \"Defi-project/LendingPool_20230217_2.sol\":8622:8638  reserves[_token] */\n      0xffffffffffffffffffffffffffffffffffffffff\n      and\n      0xffffffffffffffffffffffffffffffffffffffff\n      and\n      dup2\n      mstore\n      0x20\n      add\n      swap1\n      dup2\n      mstore\n      0x20\n      add\n      0x00\n      keccak256\n      0x00\n        /* \"Defi-project/LendingPool_20230217_2.sol\":8622:8649  reserves[_token] -= _amount */\n      dup3\n      dup3\n      sload\n      tag_102\n      swap2\n      swap1\n      tag_103\n      jump\t// in\n    tag_102:\n      swap3\n      pop\n      pop\n      dup2\n      swap1\n      sstore\n      pop\n        /* \"Defi-project/LendingPool_20230217_2.sol\":8723:8730  _amount */\n      dup3\n        /* \"Defi-project/LendingPool_20230217_2.sol\":8694:8701  borrows */\n      0x09\n        /* \"Defi-project/LendingPool_20230217_2.sol\":8694:8711  borrows[borrower] */\n      0x00\n        /* \"Defi-project/LendingPool_20230217_2.sol\":8702:8710  borrower */\n      dup4\n        /* \"Defi-project/LendingPool_20230217_2.sol\":8694:8711  borrows[borrower] */\n      0xffffffffffffffffffffffffffffffffffffffff\n      and\n      0xffffffffffffffffffffffffffffffffffffffff\n      and\n      dup2\n      mstore\n      0x20\n      add\n      swap1\n      dup2\n      mstore\n      0x20\n      add\n      0x00\n      keccak256\n        /* \"Defi-project/LendingPool_20230217_2.sol\":8694:8719  borrows[borrower][_token] */\n      0x00\n        /* \"Defi-project/LendingPool_20230217_2.sol\":8712:8718  _token */\n      dup7\n        /* \"Defi-project/LendingPool_20230217_2.sol\":8694:8719  borrows[borrower][_token] */\n      0xffffffffffffffffffffffffffffffffffffffff\n      and\n      0xffffffffffffffffffffffffffffffffffffffff\n      and\n      dup2\n      mstore\n      0x20\n      add\n      swap1\n      dup2\n      mstore\n      0x20\n      add\n      0x00\n      keccak256\n      0x00\n        /* \"Defi-project/LendingPool_20230217_2.sol\":8694:8730  borrows[borrower][_token] += _amount */\n      dup3\n      dup3\n      sload\n      tag_104\n      swap2\n      swap1\n      tag_105\n      jump\t// in\n    tag_104:\n      swap3\n      pop\n      pop\n      dup2\n      swap1\n      sstore\n      pop\n        /* \"Defi-project/LendingPool_20230217_2.sol\":8808:8820  bool success */\n      0x00\n        /* \"Defi-project/LendingPool_20230217_2.sol\":8823:8828  token */\n      dup3\n        /* \"Defi-project/LendingPool_20230217_2.sol\":8823:8841  token.transferFrom */\n      0xffffffffffffffffffffffffffffffffffffffff\n      and\n      0x23b872dd\n        /* \"Defi-project/LendingPool_20230217_2.sol\":8850:8854  this */\n      address\n        /* \"Defi-project/LendingPool_20230217_2.sol\":8856:8864  borrower */\n      dup5\n        /* \"Defi-project/LendingPool_20230217_2.sol\":8865:8872  _amount */\n      dup8\n        /* \"Defi-project/LendingPool_20230217_2.sol\":8823:8873  token.transferFrom(address(this),borrower,_amount) */\n      mload(0x40)\n      dup5\n      0xffffffff\n      and\n      0xe0\n      shl\n      dup2\n      mstore\n      0x04\n      add\n      tag_106\n      swap4\n      swap3\n      swap2\n      swap1\n      tag_107\n      jump\t// in\n    tag_106:\n      0x20\n      mload(0x40)\n      dup1\n      dup4\n      sub\n      dup2\n      0x00\n      dup8\n      dup1\n      extcodesize\n      iszero\n      dup1\n      iszero\n      tag_108\n      jumpi\n      0x00\n      dup1\n      revert\n    tag_108:\n      pop\n      gas\n      call\n      iszero\n      dup1\n      iszero\n      tag_110\n      jumpi\n      returndatasize\n      0x00\n      dup1\n      returndatacopy\n      revert(0x00, returndatasize)\n    tag_110:\n      pop\n      pop\n      pop\n      pop\n      mload(0x40)\n      returndatasize\n      not(0x1f)\n      0x1f\n      dup3\n      add\n      and\n      dup3\n      add\n      dup1\n      0x40\n      mstore\n      pop\n      dup2\n      add\n      swap1\n      tag_111\n      swap2\n      swap1\n      tag_112\n      jump\t// in\n    tag_111:\n        /* \"Defi-project/LendingPool_20230217_2.sol\":8808:8873  bool success = token.transferFrom(address(this),borrower,_amount) */\n      swap1\n      pop\n        /* \"Defi-project/LendingPool_20230217_2.sol\":8892:8899  success */\n      dup1\n        /* \"Defi-project/LendingPool_20230217_2.sol\":8884:8917  require(success, \"Borrow Failed\") */\n      tag_113\n      jumpi\n      mload(0x40)\n      0x08c379a000000000000000000000000000000000000000000000000000000000\n      dup2\n      mstore\n      0x04\n      add\n      tag_114\n      swap1\n      tag_115\n      jump\t// in\n    tag_114:\n      mload(0x40)\n      dup1\n      swap2\n      sub\n      swap1\n      revert\n    tag_113:\n        /* \"Defi-project/LendingPool_20230217_2.sol\":8051:8925  {\r... */\n      pop\n      pop\n      pop\n        /* \"Defi-project/LendingPool_20230217_2.sol\":7993:8925  function borrow(address _token, uint256 _amount) external {\r... */\n      pop\n      pop\n      jump\t// out\n        /* \"Defi-project/LendingPool_20230217_2.sol\":275:315  uint256 public immutable INTEREST_RATE=3 */\n    tag_46:\n      immutable(\"0x29f7dc91bacd20d6dd2aee05db8697d2a4633e96941593f85928b6d956432d2a\")\n      dup2\n      jump\t// out\n        /* \"Defi-project/LendingPool_20230217_2.sol\":5750:5992  function rewardTokensEarned(address lender,address _token) public view returns(uint256){\r... */\n    tag_52:\n        /* \"Defi-project/LendingPool_20230217_2.sol\":5829:5836  uint256 */\n      0x00\n        /* \"Defi-project/LendingPool_20230217_2.sol\":5980:5983  100 */\n      0x64\n        /* \"Defi-project/LendingPool_20230217_2.sol\":518:529  86400 * 365 */\n      0x01e13380\n        /* \"Defi-project/LendingPool_20230217_2.sol\":5956:5958  12 */\n      0x0c\n        /* \"Defi-project/LendingPool_20230217_2.sol\":5940:5953  INTEREST_RATE */\n      immutable(\"0x29f7dc91bacd20d6dd2aee05db8697d2a4633e96941593f85928b6d956432d2a\")\n        /* \"Defi-project/LendingPool_20230217_2.sol\":5905:5920  lenderTimestamp */\n      0x05\n        /* \"Defi-project/LendingPool_20230217_2.sol\":5905:5928  lenderTimestamp[lender] */\n      0x00\n        /* \"Defi-project/LendingPool_20230217_2.sol\":5921:5927  lender */\n      dup9\n        /* \"Defi-project/LendingPool_20230217_2.sol\":5905:5928  lenderTimestamp[lender] */\n      0xffffffffffffffffffffffffffffffffffffffff\n      and\n      0xffffffffffffffffffffffffffffffffffffffff\n      and\n      dup2\n      mstore\n      0x20\n      add\n      swap1\n      dup2\n      mstore\n      0x20\n      add\n      0x00\n      keccak256\n        /* \"Defi-project/LendingPool_20230217_2.sol\":5905:5936  lenderTimestamp[lender][_token] */\n      0x00\n        /* \"Defi-project/LendingPool_20230217_2.sol\":5929:5935  _token */\n      dup8\n        /* \"Defi-project/LendingPool_20230217_2.sol\":5905:5936  lenderTimestamp[lender][_token] */\n      0xffffffffffffffffffffffffffffffffffffffff\n      and\n      0xffffffffffffffffffffffffffffffffffffffff\n      and\n      dup2\n      mstore\n      0x20\n      add\n      swap1\n      dup2\n      mstore\n      0x20\n      add\n      0x00\n      keccak256\n      sload\n        /* \"Defi-project/LendingPool_20230217_2.sol\":5889:5904  block.timestamp */\n      timestamp\n        /* \"Defi-project/LendingPool_20230217_2.sol\":5889:5936  block.timestamp-lenderTimestamp[lender][_token] */\n      tag_117\n      swap2\n      swap1\n      tag_103\n      jump\t// in\n    tag_117:\n        /* \"Defi-project/LendingPool_20230217_2.sol\":5888:5953  (block.timestamp-lenderTimestamp[lender][_token]) * INTEREST_RATE */\n      tag_118\n      swap2\n      swap1\n      tag_119\n      jump\t// in\n    tag_118:\n        /* \"Defi-project/LendingPool_20230217_2.sol\":5888:5958  (block.timestamp-lenderTimestamp[lender][_token]) * INTEREST_RATE * 12 */\n      tag_120\n      swap2\n      swap1\n      tag_119\n      jump\t// in\n    tag_120:\n        /* \"Defi-project/LendingPool_20230217_2.sol\":5887:5977  ((block.timestamp-lenderTimestamp[lender][_token]) * INTEREST_RATE * 12)/SECONDS_IN_A_YEAR */\n      tag_121\n      swap2\n      swap1\n      tag_122\n      jump\t// in\n    tag_121:\n        /* \"Defi-project/LendingPool_20230217_2.sol\":5887:5983  ((block.timestamp-lenderTimestamp[lender][_token]) * INTEREST_RATE * 12)/SECONDS_IN_A_YEAR * 100 */\n      tag_123\n      swap2\n      swap1\n      tag_119\n      jump\t// in\n    tag_123:\n        /* \"Defi-project/LendingPool_20230217_2.sol\":5855:5867  lenderAssets */\n      0x02\n        /* \"Defi-project/LendingPool_20230217_2.sol\":5855:5875  lenderAssets[lender] */\n      0x00\n        /* \"Defi-project/LendingPool_20230217_2.sol\":5868:5874  lender */\n      dup6\n        /* \"Defi-project/LendingPool_20230217_2.sol\":5855:5875  lenderAssets[lender] */\n      0xffffffffffffffffffffffffffffffffffffffff\n      and\n      0xffffffffffffffffffffffffffffffffffffffff\n      and\n      dup2\n      mstore\n      0x20\n      add\n      swap1\n      dup2\n      mstore\n      0x20\n      add\n      0x00\n      keccak256\n        /* \"Defi-project/LendingPool_20230217_2.sol\":5855:5883  lenderAssets[lender][_token] */\n      0x00\n        /* \"Defi-project/LendingPool_20230217_2.sol\":5876:5882  _token */\n      dup5\n        /* \"Defi-project/LendingPool_20230217_2.sol\":5855:5883  lenderAssets[lender][_token] */\n      0xffffffffffffffffffffffffffffffffffffffff\n      and\n      0xffffffffffffffffffffffffffffffffffffffff\n      and\n      dup2\n      mstore\n      0x20\n      add\n      swap1\n      dup2\n      mstore\n      0x20\n      add\n      0x00\n      keccak256\n      sload\n        /* \"Defi-project/LendingPool_20230217_2.sol\":5855:5984  lenderAssets[lender][_token] * (((block.timestamp-lenderTimestamp[lender][_token]) * INTEREST_RATE * 12)/SECONDS_IN_A_YEAR * 100) */\n      tag_124\n      swap2\n      swap1\n      tag_119\n      jump\t// in\n    tag_124:\n        /* \"Defi-project/LendingPool_20230217_2.sol\":5848:5984  return lenderAssets[lender][_token] * (((block.timestamp-lenderTimestamp[lender][_token]) * INTEREST_RATE * 12)/SECONDS_IN_A_YEAR * 100) */\n      swap1\n      pop\n        /* \"Defi-project/LendingPool_20230217_2.sol\":5750:5992  function rewardTokensEarned(address lender,address _token) public view returns(uint256){\r... */\n      swap3\n      swap2\n      pop\n      pop\n      jump\t// out\n        /* \"Defi-project/LendingPool_20230217_2.sol\":3348:4003  function getAssets(address _user) public view returns (\r... */\n    tag_57:\n        /* \"Defi-project/LendingPool_20230217_2.sol\":3413:3439  address[] memory assetList */\n      0x60\n        /* \"Defi-project/LendingPool_20230217_2.sol\":3451:3474  string[] memory symbols */\n      dup1\n        /* \"Defi-project/LendingPool_20230217_2.sol\":3486:3508  uint[] memory assetQty */\n      0x60\n        /* \"Defi-project/LendingPool_20230217_2.sol\":3527:3550  uint256 assetListLength */\n      0x00\n        /* \"Defi-project/LendingPool_20230217_2.sol\":3553:3568  lenderAssetList */\n      0x03\n        /* \"Defi-project/LendingPool_20230217_2.sol\":3553:3575  lenderAssetList[_user] */\n      0x00\n        /* \"Defi-project/LendingPool_20230217_2.sol\":3569:3574  _user */\n      dup7\n        /* \"Defi-project/LendingPool_20230217_2.sol\":3553:3575  lenderAssetList[_user] */\n      0xffffffffffffffffffffffffffffffffffffffff\n      and\n      0xffffffffffffffffffffffffffffffffffffffff\n      and\n      dup2\n      mstore\n      0x20\n      add\n      swap1\n      dup2\n      mstore\n      0x20\n      add\n      0x00\n      keccak256\n        /* \"Defi-project/LendingPool_20230217_2.sol\":3553:3582  lenderAssetList[_user].length */\n      dup1\n      sload\n      swap1\n      pop\n        /* \"Defi-project/LendingPool_20230217_2.sol\":3527:3582  uint256 assetListLength = lenderAssetList[_user].length */\n      swap1\n      pop\n        /* \"Defi-project/LendingPool_20230217_2.sol\":3621:3636  assetListLength */\n      dup1\n        /* \"Defi-project/LendingPool_20230217_2.sol\":3607:3637  new address[](assetListLength) */\n      0xffffffffffffffff\n      dup2\n      gt\n      iszero\n      tag_126\n      jumpi\n      tag_127\n      tag_128\n      jump\t// in\n    tag_127:\n    tag_126:\n      mload(0x40)\n      swap1\n      dup1\n      dup3\n      mstore\n      dup1\n      0x20\n      mul\n      0x20\n      add\n      dup3\n      add\n      0x40\n      mstore\n      dup1\n      iszero\n      tag_129\n      jumpi\n      dup2\n      0x20\n      add\n      0x20\n      dup3\n      mul\n      dup1\n      calldatasize\n      dup4\n      calldatacopy\n      dup1\n      dup3\n      add\n      swap2\n      pop\n      pop\n      swap1\n      pop\n    tag_129:\n      pop\n        /* \"Defi-project/LendingPool_20230217_2.sol\":3595:3637  assetList = new address[](assetListLength) */\n      swap4\n      pop\n        /* \"Defi-project/LendingPool_20230217_2.sol\":3671:3686  assetListLength */\n      dup1\n        /* \"Defi-project/LendingPool_20230217_2.sol\":3658:3687  new string[](assetListLength) */\n      0xffffffffffffffff\n      dup2\n      gt\n      iszero\n      tag_130\n      jumpi\n      tag_131\n      tag_128\n      jump\t// in\n    tag_131:\n    tag_130:\n      mload(0x40)\n      swap1\n      dup1\n      dup3\n      mstore\n      dup1\n      0x20\n      mul\n      0x20\n      add\n      dup3\n      add\n      0x40\n      mstore\n      dup1\n      iszero\n      tag_132\n      jumpi\n      dup2\n      0x20\n      add\n    tag_133:\n      0x60\n      dup2\n      mstore\n      0x20\n      add\n      swap1\n      0x01\n      swap1\n      sub\n      swap1\n      dup2\n      tag_133\n      jumpi\n      swap1\n      pop\n    tag_132:\n      pop\n        /* \"Defi-project/LendingPool_20230217_2.sol\":3648:3687  symbols = new string[](assetListLength) */\n      swap3\n      pop\n        /* \"Defi-project/LendingPool_20230217_2.sol\":3720:3735  assetListLength */\n      dup1\n        /* \"Defi-project/LendingPool_20230217_2.sol\":3709:3736  new uint[](assetListLength) */\n      0xffffffffffffffff\n      dup2\n      gt\n      iszero\n      tag_134\n      jumpi\n      tag_135\n      tag_128\n      jump\t// in\n    tag_135:\n    tag_134:\n      mload(0x40)\n      swap1\n      dup1\n      dup3\n      mstore\n      dup1\n      0x20\n      mul\n      0x20\n      add\n      dup3\n      add\n      0x40\n      mstore\n      dup1\n      iszero\n      tag_136\n      jumpi\n      dup2\n      0x20\n      add\n      0x20\n      dup3\n      mul\n      dup1\n      calldatasize\n      dup4\n      calldatacopy\n      dup1\n      dup3\n      add\n      swap2\n      pop\n      pop\n      swap1\n      pop\n    tag_136:\n      pop\n        /* \"Defi-project/LendingPool_20230217_2.sol\":3698:3736  assetQty = new uint[](assetListLength) */\n      swap2\n      pop\n        /* \"Defi-project/LendingPool_20230217_2.sol\":3754:3763  uint256 i */\n      0x00\n        /* \"Defi-project/LendingPool_20230217_2.sol\":3749:3996  for (uint256 i = 0; i < assetListLength; i++) {\r... */\n    tag_137:\n        /* \"Defi-project/LendingPool_20230217_2.sol\":3773:3788  assetListLength */\n      dup2\n        /* \"Defi-project/LendingPool_20230217_2.sol\":3769:3770  i */\n      dup2\n        /* \"Defi-project/LendingPool_20230217_2.sol\":3769:3788  i < assetListLength */\n      lt\n        /* \"Defi-project/LendingPool_20230217_2.sol\":3749:3996  for (uint256 i = 0; i < assetListLength; i++) {\r... */\n      iszero\n      tag_138\n      jumpi\n        /* \"Defi-project/LendingPool_20230217_2.sol\":3810:3823  address asset */\n      0x00\n        /* \"Defi-project/LendingPool_20230217_2.sol\":3826:3841  lenderAssetList */\n      0x03\n        /* \"Defi-project/LendingPool_20230217_2.sol\":3826:3848  lenderAssetList[_user] */\n      0x00\n        /* \"Defi-project/LendingPool_20230217_2.sol\":3842:3847  _user */\n      dup9\n        /* \"Defi-project/LendingPool_20230217_2.sol\":3826:3848  lenderAssetList[_user] */\n      0xffffffffffffffffffffffffffffffffffffffff\n      and\n      0xffffffffffffffffffffffffffffffffffffffff\n      and\n      dup2\n      mstore\n      0x20\n      add\n      swap1\n      dup2\n      mstore\n      0x20\n      add\n      0x00\n      keccak256\n        /* \"Defi-project/LendingPool_20230217_2.sol\":3849:3850  i */\n      dup3\n        /* \"Defi-project/LendingPool_20230217_2.sol\":3826:3851  lenderAssetList[_user][i] */\n      dup2\n      sload\n      dup2\n      lt\n      tag_140\n      jumpi\n      tag_141\n      tag_142\n      jump\t// in\n    tag_141:\n    tag_140:\n      swap1\n      0x00\n      mstore\n      keccak256(0x00, 0x20)\n      add\n      0x00\n      swap1\n      sload\n      swap1\n      0x0100\n      exp\n      swap1\n      div\n      0xffffffffffffffffffffffffffffffffffffffff\n      and\n        /* \"Defi-project/LendingPool_20230217_2.sol\":3810:3851  address asset = lenderAssetList[_user][i] */\n      swap1\n      pop\n        /* \"Defi-project/LendingPool_20230217_2.sol\":3881:3886  asset */\n      dup1\n        /* \"Defi-project/LendingPool_20230217_2.sol\":3866:3875  assetList */\n      dup7\n        /* \"Defi-project/LendingPool_20230217_2.sol\":3876:3877  i */\n      dup4\n        /* \"Defi-project/LendingPool_20230217_2.sol\":3866:3878  assetList[i] */\n      dup2\n      mload\n      dup2\n      lt\n      tag_144\n      jumpi\n      tag_145\n      tag_142\n      jump\t// in\n    tag_145:\n    tag_144:\n      0x20\n      mul\n      0x20\n      add\n      add\n        /* \"Defi-project/LendingPool_20230217_2.sol\":3866:3886  assetList[i] = asset */\n      swap1\n      0xffffffffffffffffffffffffffffffffffffffff\n      and\n      swap1\n      dup2\n      0xffffffffffffffffffffffffffffffffffffffff\n      and\n      dup2\n      mstore\n      pop\n      pop\n        /* \"Defi-project/LendingPool_20230217_2.sol\":3914:3922  tokenMap */\n      0x01\n        /* \"Defi-project/LendingPool_20230217_2.sol\":3914:3929  tokenMap[asset] */\n      0x00\n        /* \"Defi-project/LendingPool_20230217_2.sol\":3923:3928  asset */\n      dup3\n        /* \"Defi-project/LendingPool_20230217_2.sol\":3914:3929  tokenMap[asset] */\n      0xffffffffffffffffffffffffffffffffffffffff\n      and\n      0xffffffffffffffffffffffffffffffffffffffff\n      and\n      dup2\n      mstore\n      0x20\n      add\n      swap1\n      dup2\n      mstore\n      0x20\n      add\n      0x00\n      keccak256\n        /* \"Defi-project/LendingPool_20230217_2.sol\":3901:3929  symbols[i] = tokenMap[asset] */\n      dup1\n      sload\n      tag_146\n      swap1\n      tag_88\n      jump\t// in\n    tag_146:\n      dup1\n      0x1f\n      add\n      0x20\n      dup1\n      swap2\n      div\n      mul\n      0x20\n      add\n      mload(0x40)\n      swap1\n      dup2\n      add\n      0x40\n      mstore\n      dup1\n      swap3\n      swap2\n      swap1\n      dup2\n      dup2\n      mstore\n      0x20\n      add\n      dup3\n      dup1\n      sload\n      tag_147\n      swap1\n      tag_88\n      jump\t// in\n    tag_147:\n      dup1\n      iszero\n      tag_148\n      jumpi\n      dup1\n      0x1f\n      lt\n      tag_149\n      jumpi\n      0x0100\n      dup1\n      dup4\n      sload\n      div\n      mul\n      dup4\n      mstore\n      swap2\n      0x20\n      add\n      swap2\n      jump(tag_148)\n    tag_149:\n      dup3\n      add\n      swap2\n      swap1\n      0x00\n      mstore\n      keccak256(0x00, 0x20)\n      swap1\n    tag_150:\n      dup2\n      sload\n      dup2\n      mstore\n      swap1\n      0x01\n      add\n      swap1\n      0x20\n      add\n      dup1\n      dup4\n      gt\n      tag_150\n      jumpi\n      dup3\n      swap1\n      sub\n      0x1f\n      and\n      dup3\n      add\n      swap2\n    tag_148:\n      pop\n      pop\n      pop\n      pop\n      pop\n        /* \"Defi-project/LendingPool_20230217_2.sol\":3901:3908  symbols */\n      dup6\n        /* \"Defi-project/LendingPool_20230217_2.sol\":3909:3910  i */\n      dup4\n        /* \"Defi-project/LendingPool_20230217_2.sol\":3901:3911  symbols[i] */\n      dup2\n      mload\n      dup2\n      lt\n      tag_151\n      jumpi\n      tag_152\n      tag_142\n      jump\t// in\n    tag_152:\n    tag_151:\n      0x20\n      mul\n      0x20\n      add\n      add\n        /* \"Defi-project/LendingPool_20230217_2.sol\":3901:3929  symbols[i] = tokenMap[asset] */\n      dup2\n      swap1\n      mstore\n      pop\n        /* \"Defi-project/LendingPool_20230217_2.sol\":3958:3970  lenderAssets */\n      0x02\n        /* \"Defi-project/LendingPool_20230217_2.sol\":3958:3977  lenderAssets[_user] */\n      0x00\n        /* \"Defi-project/LendingPool_20230217_2.sol\":3971:3976  _user */\n      dup9\n        /* \"Defi-project/LendingPool_20230217_2.sol\":3958:3977  lenderAssets[_user] */\n      0xffffffffffffffffffffffffffffffffffffffff\n      and\n      0xffffffffffffffffffffffffffffffffffffffff\n      and\n      dup2\n      mstore\n      0x20\n      add\n      swap1\n      dup2\n      mstore\n      0x20\n      add\n      0x00\n      keccak256\n        /* \"Defi-project/LendingPool_20230217_2.sol\":3958:3984  lenderAssets[_user][asset] */\n      0x00\n        /* \"Defi-project/LendingPool_20230217_2.sol\":3978:3983  asset */\n      dup3\n        /* \"Defi-project/LendingPool_20230217_2.sol\":3958:3984  lenderAssets[_user][asset] */\n      0xffffffffffffffffffffffffffffffffffffffff\n      and\n      0xffffffffffffffffffffffffffffffffffffffff\n      and\n      dup2\n      mstore\n      0x20\n      add\n      swap1\n      dup2\n      mstore\n      0x20\n      add\n      0x00\n      keccak256\n      sload\n        /* \"Defi-project/LendingPool_20230217_2.sol\":3944:3952  assetQty */\n      dup5\n        /* \"Defi-project/LendingPool_20230217_2.sol\":3953:3954  i */\n      dup4\n        /* \"Defi-project/LendingPool_20230217_2.sol\":3944:3955  assetQty[i] */\n      dup2\n      mload\n      dup2\n      lt\n      tag_153\n      jumpi\n      tag_154\n      tag_142\n      jump\t// in\n    tag_154:\n    tag_153:\n      0x20\n      mul\n      0x20\n      add\n      add\n        /* \"Defi-project/LendingPool_20230217_2.sol\":3944:3984  assetQty[i] = lenderAssets[_user][asset] */\n      dup2\n      dup2\n      mstore\n      pop\n      pop\n        /* \"Defi-project/LendingPool_20230217_2.sol\":3795:3996  {\r... */\n      pop\n        /* \"Defi-project/LendingPool_20230217_2.sol\":3790:3793  i++ */\n      dup1\n      dup1\n      tag_155\n      swap1\n      tag_156\n      jump\t// in\n    tag_155:\n      swap2\n      pop\n      pop\n        /* \"Defi-project/LendingPool_20230217_2.sol\":3749:3996  for (uint256 i = 0; i < assetListLength; i++) {\r... */\n      jump(tag_137)\n    tag_138:\n      pop\n        /* \"Defi-project/LendingPool_20230217_2.sol\":3516:4003  {\r... */\n      pop\n        /* \"Defi-project/LendingPool_20230217_2.sol\":3348:4003  function getAssets(address _user) public view returns (\r... */\n      swap2\n      swap4\n      swap1\n      swap3\n      pop\n      jump\t// out\n        /* \"Defi-project/LendingPool_20230217_2.sol\":373:422  uint256 public immutable LIQUIDATION_THRESHOLD=10 */\n    tag_62:\n      immutable(\"0xda07994851e5595956ad5f42ef8f8c8e244dd44ecb632f01a24fa5f3c80ff057\")\n      dup2\n      jump\t// out\n        /* \"Defi-project/LendingPool_20230217_2.sol\":2335:3340  function lend(address _token, uint256 _amount) public {\r... */\n    tag_67:\n        /* \"Defi-project/LendingPool_20230217_2.sol\":2400:2412  IERC20 token */\n      0x00\n        /* \"Defi-project/LendingPool_20230217_2.sol\":2422:2428  _token */\n      dup3\n        /* \"Defi-project/LendingPool_20230217_2.sol\":2400:2429  IERC20 token = IERC20(_token) */\n      swap1\n      pop\n        /* \"Defi-project/LendingPool_20230217_2.sol\":2441:2455  address lender */\n      0x00\n        /* \"Defi-project/LendingPool_20230217_2.sol\":2458:2468  msg.sender */\n      caller\n        /* \"Defi-project/LendingPool_20230217_2.sol\":2441:2468  address lender = msg.sender */\n      swap1\n      pop\n        /* \"Defi-project/LendingPool_20230217_2.sol\":2556:2563  _amount */\n      dup3\n        /* \"Defi-project/LendingPool_20230217_2.sol\":2525:2537  lenderAssets */\n      0x02\n        /* \"Defi-project/LendingPool_20230217_2.sol\":2525:2545  lenderAssets[lender] */\n      0x00\n        /* \"Defi-project/LendingPool_20230217_2.sol\":2538:2544  lender */\n      dup4\n        /* \"Defi-project/LendingPool_20230217_2.sol\":2525:2545  lenderAssets[lender] */\n      0xffffffffffffffffffffffffffffffffffffffff\n      and\n      0xffffffffffffffffffffffffffffffffffffffff\n      and\n      dup2\n      mstore\n      0x20\n      add\n      swap1\n      dup2\n      mstore\n      0x20\n      add\n      0x00\n      keccak256\n        /* \"Defi-project/LendingPool_20230217_2.sol\":2525:2553  lenderAssets[lender][_token] */\n      0x00\n        /* \"Defi-project/LendingPool_20230217_2.sol\":2546:2552  _token */\n      dup7\n        /* \"Defi-project/LendingPool_20230217_2.sol\":2525:2553  lenderAssets[lender][_token] */\n      0xffffffffffffffffffffffffffffffffffffffff\n      and\n      0xffffffffffffffffffffffffffffffffffffffff\n      and\n      dup2\n      mstore\n      0x20\n      add\n      swap1\n      dup2\n      mstore\n      0x20\n      add\n      0x00\n      keccak256\n        /* \"Defi-project/LendingPool_20230217_2.sol\":2525:2563  lenderAssets[lender][_token] = _amount */\n      dup2\n      swap1\n      sstore\n      pop\n        /* \"Defi-project/LendingPool_20230217_2.sol\":2611:2626  lenderAssetList */\n      0x03\n        /* \"Defi-project/LendingPool_20230217_2.sol\":2611:2634  lenderAssetList[lender] */\n      0x00\n        /* \"Defi-project/LendingPool_20230217_2.sol\":2627:2633  lender */\n      dup3\n        /* \"Defi-project/LendingPool_20230217_2.sol\":2611:2634  lenderAssetList[lender] */\n      0xffffffffffffffffffffffffffffffffffffffff\n      and\n      0xffffffffffffffffffffffffffffffffffffffff\n      and\n      dup2\n      mstore\n      0x20\n      add\n      swap1\n      dup2\n      mstore\n      0x20\n      add\n      0x00\n      keccak256\n        /* \"Defi-project/LendingPool_20230217_2.sol\":2640:2646  _token */\n      dup5\n        /* \"Defi-project/LendingPool_20230217_2.sol\":2611:2647  lenderAssetList[lender].push(_token) */\n      swap1\n      dup1\n      0x01\n      dup2\n      sload\n      add\n      dup1\n      dup3\n      sstore\n      dup1\n      swap2\n      pop\n      pop\n      0x01\n      swap1\n      sub\n      swap1\n      0x00\n      mstore\n      keccak256(0x00, 0x20)\n      add\n      0x00\n      swap1\n      swap2\n      swap1\n      swap2\n      swap1\n      swap2\n      0x0100\n      exp\n      dup2\n      sload\n      dup2\n      0xffffffffffffffffffffffffffffffffffffffff\n      mul\n      not\n      and\n      swap1\n      dup4\n      0xffffffffffffffffffffffffffffffffffffffff\n      and\n      mul\n      or\n      swap1\n      sstore\n      pop\n        /* \"Defi-project/LendingPool_20230217_2.sol\":2742:2749  _amount */\n      dup3\n        /* \"Defi-project/LendingPool_20230217_2.sol\":2707:2726  lenderTotalLandings */\n      0x04\n        /* \"Defi-project/LendingPool_20230217_2.sol\":2707:2738  lenderTotalLandings[msg.sender] */\n      0x00\n        /* \"Defi-project/LendingPool_20230217_2.sol\":2727:2737  msg.sender */\n      caller\n        /* \"Defi-project/LendingPool_20230217_2.sol\":2707:2738  lenderTotalLandings[msg.sender] */\n      0xffffffffffffffffffffffffffffffffffffffff\n      and\n      0xffffffffffffffffffffffffffffffffffffffff\n      and\n      dup2\n      mstore\n      0x20\n      add\n      swap1\n      dup2\n      mstore\n      0x20\n      add\n      0x00\n      keccak256\n      0x00\n        /* \"Defi-project/LendingPool_20230217_2.sol\":2707:2749  lenderTotalLandings[msg.sender] += _amount */\n      dup3\n      dup3\n      sload\n      tag_159\n      swap2\n      swap1\n      tag_105\n      jump\t// in\n    tag_159:\n      swap3\n      pop\n      pop\n      dup2\n      swap1\n      sstore\n      pop\n        /* \"Defi-project/LendingPool_20230217_2.sol\":2780:2787  _amount */\n      dup3\n        /* \"Defi-project/LendingPool_20230217_2.sol\":2760:2768  reserves */\n      0x07\n        /* \"Defi-project/LendingPool_20230217_2.sol\":2760:2776  reserves[_token] */\n      0x00\n        /* \"Defi-project/LendingPool_20230217_2.sol\":2769:2775  _token */\n      dup7\n        /* \"Defi-project/LendingPool_20230217_2.sol\":2760:2776  reserves[_token] */\n      0xffffffffffffffffffffffffffffffffffffffff\n      and\n      0xffffffffffffffffffffffffffffffffffffffff\n      and\n      dup2\n      mstore\n      0x20\n      add\n      swap1\n      dup2\n      mstore\n      0x20\n      add\n      0x00\n      keccak256\n      0x00\n        /* \"Defi-project/LendingPool_20230217_2.sol\":2760:2787  reserves[_token] += _amount */\n      dup3\n      dup3\n      sload\n      tag_160\n      swap2\n      swap1\n      tag_105\n      jump\t// in\n    tag_160:\n      swap3\n      pop\n      pop\n      dup2\n      swap1\n      sstore\n      pop\n        /* \"Defi-project/LendingPool_20230217_2.sol\":2855:2868  reserveAssets */\n      0x08\n        /* \"Defi-project/LendingPool_20230217_2.sol\":2874:2880  _token */\n      dup5\n        /* \"Defi-project/LendingPool_20230217_2.sol\":2855:2881  reserveAssets.push(_token) */\n      swap1\n      dup1\n      0x01\n      dup2\n      sload\n      add\n      dup1\n      dup3\n      sstore\n      dup1\n      swap2\n      pop\n      pop\n      0x01\n      swap1\n      sub\n      swap1\n      0x00\n      mstore\n      keccak256(0x00, 0x20)\n      add\n      0x00\n      swap1\n      swap2\n      swap1\n      swap2\n      swap1\n      swap2\n      0x0100\n      exp\n      dup2\n      sload\n      dup2\n      0xffffffffffffffffffffffffffffffffffffffff\n      mul\n      not\n      and\n      swap1\n      dup4\n      0xffffffffffffffffffffffffffffffffffffffff\n      and\n      mul\n      or\n      swap1\n      sstore\n      pop\n        /* \"Defi-project/LendingPool_20230217_2.sol\":2965:2980  block.timestamp */\n      timestamp\n        /* \"Defi-project/LendingPool_20230217_2.sol\":2931:2946  lenderTimestamp */\n      0x05\n        /* \"Defi-project/LendingPool_20230217_2.sol\":2931:2954  lenderTimestamp[lender] */\n      0x00\n        /* \"Defi-project/LendingPool_20230217_2.sol\":2947:2953  lender */\n      dup4\n        /* \"Defi-project/LendingPool_20230217_2.sol\":2931:2954  lenderTimestamp[lender] */\n      0xffffffffffffffffffffffffffffffffffffffff\n      and\n      0xffffffffffffffffffffffffffffffffffffffff\n      and\n      dup2\n      mstore\n      0x20\n      add\n      swap1\n      dup2\n      mstore\n      0x20\n      add\n      0x00\n      keccak256\n        /* \"Defi-project/LendingPool_20230217_2.sol\":2931:2962  lenderTimestamp[lender][_token] */\n      0x00\n        /* \"Defi-project/LendingPool_20230217_2.sol\":2955:2961  _token */\n      dup7\n        /* \"Defi-project/LendingPool_20230217_2.sol\":2931:2962  lenderTimestamp[lender][_token] */\n      0xffffffffffffffffffffffffffffffffffffffff\n      and\n      0xffffffffffffffffffffffffffffffffffffffff\n      and\n      dup2\n      mstore\n      0x20\n      add\n      swap1\n      dup2\n      mstore\n      0x20\n      add\n      0x00\n      keccak256\n        /* \"Defi-project/LendingPool_20230217_2.sol\":2931:2980  lenderTimestamp[lender][_token] = block.timestamp */\n      dup2\n      swap1\n      sstore\n      pop\n        /* \"Defi-project/LendingPool_20230217_2.sol\":3132:3144  bool success */\n      0x00\n        /* \"Defi-project/LendingPool_20230217_2.sol\":3145:3150  token */\n      dup3\n        /* \"Defi-project/LendingPool_20230217_2.sol\":3145:3163  token.transferFrom */\n      0xffffffffffffffffffffffffffffffffffffffff\n      and\n      0x23b872dd\n        /* \"Defi-project/LendingPool_20230217_2.sol\":3164:3170  lender */\n      dup4\n        /* \"Defi-project/LendingPool_20230217_2.sol\":3179:3183  this */\n      address\n        /* \"Defi-project/LendingPool_20230217_2.sol\":3185:3192  _amount */\n      dup8\n        /* \"Defi-project/LendingPool_20230217_2.sol\":3145:3193  token.transferFrom(lender,address(this),_amount) */\n      mload(0x40)\n      dup5\n      0xffffffff\n      and\n      0xe0\n      shl\n      dup2\n      mstore\n      0x04\n      add\n      tag_162\n      swap4\n      swap3\n      swap2\n      swap1\n      tag_107\n      jump\t// in\n    tag_162:\n      0x20\n      mload(0x40)\n      dup1\n      dup4\n      sub\n      dup2\n      0x00\n      dup8\n      dup1\n      extcodesize\n      iszero\n      dup1\n      iszero\n      tag_163\n      jumpi\n      0x00\n      dup1\n      revert\n    tag_163:\n      pop\n      gas\n      call\n      iszero\n      dup1\n      iszero\n      tag_165\n      jumpi\n      returndatasize\n      0x00\n      dup1\n      returndatacopy\n      revert(0x00, returndatasize)\n    tag_165:\n      pop\n      pop\n      pop\n      pop\n      mload(0x40)\n      returndatasize\n      not(0x1f)\n      0x1f\n      dup3\n      add\n      and\n      dup3\n      add\n      dup1\n      0x40\n      mstore\n      pop\n      dup2\n      add\n      swap1\n      tag_166\n      swap2\n      swap1\n      tag_112\n      jump\t// in\n    tag_166:\n        /* \"Defi-project/LendingPool_20230217_2.sol\":3132:3193  bool success=token.transferFrom(lender,address(this),_amount) */\n      swap1\n      pop\n        /* \"Defi-project/LendingPool_20230217_2.sol\":3284:3291  success */\n      dup1\n        /* \"Defi-project/LendingPool_20230217_2.sol\":3276:3332  require(success, \"Transfer from Lender's wallet failed\") */\n      tag_167\n      jumpi\n      mload(0x40)\n      0x08c379a000000000000000000000000000000000000000000000000000000000\n      dup2\n      mstore\n      0x04\n      add\n      tag_168\n      swap1\n      tag_169\n      jump\t// in\n    tag_168:\n      mload(0x40)\n      dup1\n      swap2\n      sub\n      swap1\n      revert\n    tag_167:\n        /* \"Defi-project/LendingPool_20230217_2.sol\":2389:3340  {\r... */\n      pop\n      pop\n      pop\n        /* \"Defi-project/LendingPool_20230217_2.sol\":2335:3340  function lend(address _token, uint256 _amount) public {\r... */\n      pop\n      pop\n      jump\t// out\n        /* \"Defi-project/LendingPool_20230217_2.sol\":211:234  address public deployer */\n    tag_70:\n      0x00\n      dup1\n      sload\n      swap1\n      0x0100\n      exp\n      swap1\n      div\n      0xffffffffffffffffffffffffffffffffffffffff\n      and\n      dup2\n      jump\t// out\n        /* \"Defi-project/LendingPool_20230217_2.sol\":2083:2262  function addTokens(address _token, string memory _symbol) external {\r... */\n    tag_77:\n        /* \"Defi-project/LendingPool_20230217_2.sol\":2183:2191  deployer */\n      0x00\n      dup1\n      sload\n      swap1\n      0x0100\n      exp\n      swap1\n      div\n      0xffffffffffffffffffffffffffffffffffffffff\n      and\n        /* \"Defi-project/LendingPool_20230217_2.sol\":2169:2191  msg.sender == deployer */\n      0xffffffffffffffffffffffffffffffffffffffff\n      and\n        /* \"Defi-project/LendingPool_20230217_2.sol\":2169:2179  msg.sender */\n      caller\n        /* \"Defi-project/LendingPool_20230217_2.sol\":2169:2191  msg.sender == deployer */\n      0xffffffffffffffffffffffffffffffffffffffff\n      and\n      eq\n        /* \"Defi-project/LendingPool_20230217_2.sol\":2161:2217  require(msg.sender == deployer, \"Not Owner, Cannot add\") */\n      tag_171\n      jumpi\n      mload(0x40)\n      0x08c379a000000000000000000000000000000000000000000000000000000000\n      dup2\n      mstore\n      0x04\n      add\n      tag_172\n      swap1\n      tag_173\n      jump\t// in\n    tag_172:\n      mload(0x40)\n      dup1\n      swap2\n      sub\n      swap1\n      revert\n    tag_171:\n        /* \"Defi-project/LendingPool_20230217_2.sol\":2247:2254  _symbol */\n      dup1\n        /* \"Defi-project/LendingPool_20230217_2.sol\":2228:2236  tokenMap */\n      0x01\n        /* \"Defi-project/LendingPool_20230217_2.sol\":2228:2244  tokenMap[_token] */\n      0x00\n        /* \"Defi-project/LendingPool_20230217_2.sol\":2237:2243  _token */\n      dup5\n        /* \"Defi-project/LendingPool_20230217_2.sol\":2228:2244  tokenMap[_token] */\n      0xffffffffffffffffffffffffffffffffffffffff\n      and\n      0xffffffffffffffffffffffffffffffffffffffff\n      and\n      dup2\n      mstore\n      0x20\n      add\n      swap1\n      dup2\n      mstore\n      0x20\n      add\n      0x00\n      keccak256\n        /* \"Defi-project/LendingPool_20230217_2.sol\":2228:2254  tokenMap[_token] = _symbol */\n      swap1\n      dup1\n      mload\n      swap1\n      0x20\n      add\n      swap1\n      tag_174\n      swap3\n      swap2\n      swap1\n      tag_175\n      jump\t// in\n    tag_174:\n      pop\n        /* \"Defi-project/LendingPool_20230217_2.sol\":2083:2262  function addTokens(address _token, string memory _symbol) external {\r... */\n      pop\n      pop\n      jump\t// out\n        /* \"Defi-project/LendingPool_20230217_2.sol\":6003:6393  function updateEarned(address lender, address _token) onlyOwner(_token) public{\r... */\n    tag_81:\n        /* \"Defi-project/LendingPool_20230217_2.sol\":6067:6073  _token */\n      dup1\n        /* \"Defi-project/LendingPool_20230217_2.sol\":1666:1681  isOwner(_token) */\n      tag_177\n        /* \"Defi-project/LendingPool_20230217_2.sol\":1674:1680  _token */\n      dup2\n        /* \"Defi-project/LendingPool_20230217_2.sol\":1666:1673  isOwner */\n      tag_178\n        /* \"Defi-project/LendingPool_20230217_2.sol\":1666:1681  isOwner(_token) */\n      jump\t// in\n    tag_177:\n        /* \"Defi-project/LendingPool_20230217_2.sol\":1658:1695  require(isOwner(_token), \"Not Owner\") */\n      tag_179\n      jumpi\n      mload(0x40)\n      0x08c379a000000000000000000000000000000000000000000000000000000000\n      dup2\n      mstore\n      0x04\n      add\n      tag_180\n      swap1\n      tag_181\n      jump\t// in\n    tag_180:\n      mload(0x40)\n      dup1\n      swap2\n      sub\n      swap1\n      revert\n    tag_179:\n        /* \"Defi-project/LendingPool_20230217_2.sol\":6265:6385  lenderAssets[lender][_token].add(\r... */\n      tag_183\n        /* \"Defi-project/LendingPool_20230217_2.sol\":6324:6358  rewardTokensEarned(lender, _token) */\n      tag_184\n        /* \"Defi-project/LendingPool_20230217_2.sol\":6343:6349  lender */\n      dup5\n        /* \"Defi-project/LendingPool_20230217_2.sol\":6351:6357  _token */\n      dup5\n        /* \"Defi-project/LendingPool_20230217_2.sol\":6324:6342  rewardTokensEarned */\n      tag_52\n        /* \"Defi-project/LendingPool_20230217_2.sol\":6324:6358  rewardTokensEarned(lender, _token) */\n      jump\t// in\n    tag_184:\n        /* \"Defi-project/LendingPool_20230217_2.sol\":6265:6277  lenderAssets */\n      0x02\n        /* \"Defi-project/LendingPool_20230217_2.sol\":6265:6285  lenderAssets[lender] */\n      0x00\n        /* \"Defi-project/LendingPool_20230217_2.sol\":6278:6284  lender */\n      dup7\n        /* \"Defi-project/LendingPool_20230217_2.sol\":6265:6285  lenderAssets[lender] */\n      0xffffffffffffffffffffffffffffffffffffffff\n      and\n      0xffffffffffffffffffffffffffffffffffffffff\n      and\n      dup2\n      mstore\n      0x20\n      add\n      swap1\n      dup2\n      mstore\n      0x20\n      add\n      0x00\n      keccak256\n        /* \"Defi-project/LendingPool_20230217_2.sol\":6265:6293  lenderAssets[lender][_token] */\n      0x00\n        /* \"Defi-project/LendingPool_20230217_2.sol\":6286:6292  _token */\n      dup6\n        /* \"Defi-project/LendingPool_20230217_2.sol\":6265:6293  lenderAssets[lender][_token] */\n      0xffffffffffffffffffffffffffffffffffffffff\n      and\n      0xffffffffffffffffffffffffffffffffffffffff\n      and\n      dup2\n      mstore\n      0x20\n      add\n      swap1\n      dup2\n      mstore\n      0x20\n      add\n      0x00\n      keccak256\n      sload\n        /* \"Defi-project/LendingPool_20230217_2.sol\":6265:6297  lenderAssets[lender][_token].add */\n      tag_185\n      swap1\n        /* \"Defi-project/LendingPool_20230217_2.sol\":6265:6385  lenderAssets[lender][_token].add(\r... */\n      swap2\n      swap1\n      0xffffffff\n      and\n      jump\t// in\n    tag_183:\n        /* \"Defi-project/LendingPool_20230217_2.sol\":6216:6228  lenderAssets */\n      0x02\n        /* \"Defi-project/LendingPool_20230217_2.sol\":6216:6236  lenderAssets[lender] */\n      0x00\n        /* \"Defi-project/LendingPool_20230217_2.sol\":6229:6235  lender */\n      dup6\n        /* \"Defi-project/LendingPool_20230217_2.sol\":6216:6236  lenderAssets[lender] */\n      0xffffffffffffffffffffffffffffffffffffffff\n      and\n      0xffffffffffffffffffffffffffffffffffffffff\n      and\n      dup2\n      mstore\n      0x20\n      add\n      swap1\n      dup2\n      mstore\n      0x20\n      add\n      0x00\n      keccak256\n        /* \"Defi-project/LendingPool_20230217_2.sol\":6216:6244  lenderAssets[lender][_token] */\n      0x00\n        /* \"Defi-project/LendingPool_20230217_2.sol\":6237:6243  _token */\n      dup5\n        /* \"Defi-project/LendingPool_20230217_2.sol\":6216:6244  lenderAssets[lender][_token] */\n      0xffffffffffffffffffffffffffffffffffffffff\n      and\n      0xffffffffffffffffffffffffffffffffffffffff\n      and\n      dup2\n      mstore\n      0x20\n      add\n      swap1\n      dup2\n      mstore\n      0x20\n      add\n      0x00\n      keccak256\n        /* \"Defi-project/LendingPool_20230217_2.sol\":6216:6385  lenderAssets[lender][_token] = \r... */\n      dup2\n      swap1\n      sstore\n      pop\n        /* \"Defi-project/LendingPool_20230217_2.sol\":6003:6393  function updateEarned(address lender, address _token) onlyOwner(_token) public{\r... */\n      pop\n      pop\n      pop\n      jump\t// out\n        /* \"Defi-project/LendingPool_20230217_2.sol\":4011:5707  function withdraw(address _token, uint256 _amount) external ownerHasReserves(_token) onlyOwner(_token) payable returns(bool) {\r... */\n    tag_84:\n        /* \"Defi-project/LendingPool_20230217_2.sol\":4130:4134  bool */\n      0x00\n        /* \"Defi-project/LendingPool_20230217_2.sol\":4088:4094  _token */\n      dup3\n        /* \"Defi-project/LendingPool_20230217_2.sol\":1543:1544  0 */\n      0x00\n        /* \"Defi-project/LendingPool_20230217_2.sol\":1508:1520  lenderAssets */\n      0x02\n        /* \"Defi-project/LendingPool_20230217_2.sol\":1508:1532  lenderAssets[msg.sender] */\n      0x00\n        /* \"Defi-project/LendingPool_20230217_2.sol\":1521:1531  msg.sender */\n      caller\n        /* \"Defi-project/LendingPool_20230217_2.sol\":1508:1532  lenderAssets[msg.sender] */\n      0xffffffffffffffffffffffffffffffffffffffff\n      and\n      0xffffffffffffffffffffffffffffffffffffffff\n      and\n      dup2\n      mstore\n      0x20\n      add\n      swap1\n      dup2\n      mstore\n      0x20\n      add\n      0x00\n      keccak256\n        /* \"Defi-project/LendingPool_20230217_2.sol\":1508:1540  lenderAssets[msg.sender][_token] */\n      0x00\n        /* \"Defi-project/LendingPool_20230217_2.sol\":1533:1539  _token */\n      dup4\n        /* \"Defi-project/LendingPool_20230217_2.sol\":1508:1540  lenderAssets[msg.sender][_token] */\n      0xffffffffffffffffffffffffffffffffffffffff\n      and\n      0xffffffffffffffffffffffffffffffffffffffff\n      and\n      dup2\n      mstore\n      0x20\n      add\n      swap1\n      dup2\n      mstore\n      0x20\n      add\n      0x00\n      keccak256\n      sload\n        /* \"Defi-project/LendingPool_20230217_2.sol\":1508:1544  lenderAssets[msg.sender][_token] > 0 */\n      gt\n        /* \"Defi-project/LendingPool_20230217_2.sol\":1500:1584  require(lenderAssets[msg.sender][_token] > 0, \"Not owner, cannot perform operation\") */\n      tag_187\n      jumpi\n      mload(0x40)\n      0x08c379a000000000000000000000000000000000000000000000000000000000\n      dup2\n      mstore\n      0x04\n      add\n      tag_188\n      swap1\n      tag_189\n      jump\t// in\n    tag_188:\n      mload(0x40)\n      dup1\n      swap2\n      sub\n      swap1\n      revert\n    tag_187:\n        /* \"Defi-project/LendingPool_20230217_2.sol\":4106:4112  _token */\n      dup4\n        /* \"Defi-project/LendingPool_20230217_2.sol\":1666:1681  isOwner(_token) */\n      tag_191\n        /* \"Defi-project/LendingPool_20230217_2.sol\":1674:1680  _token */\n      dup2\n        /* \"Defi-project/LendingPool_20230217_2.sol\":1666:1673  isOwner */\n      tag_178\n        /* \"Defi-project/LendingPool_20230217_2.sol\":1666:1681  isOwner(_token) */\n      jump\t// in\n    tag_191:\n        /* \"Defi-project/LendingPool_20230217_2.sol\":1658:1695  require(isOwner(_token), \"Not Owner\") */\n      tag_192\n      jumpi\n      mload(0x40)\n      0x08c379a000000000000000000000000000000000000000000000000000000000\n      dup2\n      mstore\n      0x04\n      add\n      tag_193\n      swap1\n      tag_181\n      jump\t// in\n    tag_193:\n      mload(0x40)\n      dup1\n      swap2\n      sub\n      swap1\n      revert\n    tag_192:\n        /* \"Defi-project/LendingPool_20230217_2.sol\":4147:4159  IERC20 token */\n      0x00\n        /* \"Defi-project/LendingPool_20230217_2.sol\":4169:4175  _token */\n      dup6\n        /* \"Defi-project/LendingPool_20230217_2.sol\":4147:4176  IERC20 token = IERC20(_token) */\n      swap1\n      pop\n        /* \"Defi-project/LendingPool_20230217_2.sol\":4188:4202  address lender */\n      0x00\n        /* \"Defi-project/LendingPool_20230217_2.sol\":4206:4216  msg.sender */\n      caller\n        /* \"Defi-project/LendingPool_20230217_2.sol\":4188:4216  address lender  = msg.sender */\n      swap1\n      pop\n        /* \"Defi-project/LendingPool_20230217_2.sol\":4300:4328  updateEarned(lender, _token) */\n      tag_195\n        /* \"Defi-project/LendingPool_20230217_2.sol\":4313:4319  lender */\n      dup2\n        /* \"Defi-project/LendingPool_20230217_2.sol\":4321:4327  _token */\n      dup9\n        /* \"Defi-project/LendingPool_20230217_2.sol\":4300:4312  updateEarned */\n      tag_81\n        /* \"Defi-project/LendingPool_20230217_2.sol\":4300:4328  updateEarned(lender, _token) */\n      jump\t// in\n    tag_195:\n        /* \"Defi-project/LendingPool_20230217_2.sol\":4448:4455  _amount */\n      dup6\n        /* \"Defi-project/LendingPool_20230217_2.sol\":4417:4429  lenderAssets */\n      0x02\n        /* \"Defi-project/LendingPool_20230217_2.sol\":4417:4437  lenderAssets[lender] */\n      0x00\n        /* \"Defi-project/LendingPool_20230217_2.sol\":4430:4436  lender */\n      dup4\n        /* \"Defi-project/LendingPool_20230217_2.sol\":4417:4437  lenderAssets[lender] */\n      0xffffffffffffffffffffffffffffffffffffffff\n      and\n      0xffffffffffffffffffffffffffffffffffffffff\n      and\n      dup2\n      mstore\n      0x20\n      add\n      swap1\n      dup2\n      mstore\n      0x20\n      add\n      0x00\n      keccak256\n        /* \"Defi-project/LendingPool_20230217_2.sol\":4417:4445  lenderAssets[lender][_token] */\n      0x00\n        /* \"Defi-project/LendingPool_20230217_2.sol\":4438:4444  _token */\n      dup10\n        /* \"Defi-project/LendingPool_20230217_2.sol\":4417:4445  lenderAssets[lender][_token] */\n      0xffffffffffffffffffffffffffffffffffffffff\n      and\n      0xffffffffffffffffffffffffffffffffffffffff\n      and\n      dup2\n      mstore\n      0x20\n      add\n      swap1\n      dup2\n      mstore\n      0x20\n      add\n      0x00\n      keccak256\n      sload\n        /* \"Defi-project/LendingPool_20230217_2.sol\":4417:4455  lenderAssets[lender][_token] > _amount */\n      gt\n        /* \"Defi-project/LendingPool_20230217_2.sol\":4409:4491  require(lenderAssets[lender][_token] > _amount, \"Lender does not have this asset\") */\n      tag_196\n      jumpi\n      mload(0x40)\n      0x08c379a000000000000000000000000000000000000000000000000000000000\n      dup2\n      mstore\n      0x04\n      add\n      tag_197\n      swap1\n      tag_198\n      jump\t// in\n    tag_197:\n      mload(0x40)\n      dup1\n      swap2\n      sub\n      swap1\n      revert\n    tag_196:\n        /* \"Defi-project/LendingPool_20230217_2.sol\":4582:4589  _amount */\n      dup6\n        /* \"Defi-project/LendingPool_20230217_2.sol\":4563:4571  reserves */\n      0x07\n        /* \"Defi-project/LendingPool_20230217_2.sol\":4563:4579  reserves[_token] */\n      0x00\n        /* \"Defi-project/LendingPool_20230217_2.sol\":4572:4578  _token */\n      dup10\n        /* \"Defi-project/LendingPool_20230217_2.sol\":4563:4579  reserves[_token] */\n      0xffffffffffffffffffffffffffffffffffffffff\n      and\n      0xffffffffffffffffffffffffffffffffffffffff\n      and\n      dup2\n      mstore\n      0x20\n      add\n      swap1\n      dup2\n      mstore\n      0x20\n      add\n      0x00\n      keccak256\n      sload\n        /* \"Defi-project/LendingPool_20230217_2.sol\":4563:4589  reserves[_token] > _amount */\n      gt\n        /* \"Defi-project/LendingPool_20230217_2.sol\":4554:4620  require (reserves[_token] > _amount, \"Not enough qty to withdraw\") */\n      tag_199\n      jumpi\n      mload(0x40)\n      0x08c379a000000000000000000000000000000000000000000000000000000000\n      dup2\n      mstore\n      0x04\n      add\n      tag_200\n      swap1\n      tag_201\n      jump\t// in\n    tag_200:\n      mload(0x40)\n      dup1\n      swap2\n      sub\n      swap1\n      revert\n    tag_199:\n        /* \"Defi-project/LendingPool_20230217_2.sol\":4683:4690  _amount */\n      dup6\n        /* \"Defi-project/LendingPool_20230217_2.sol\":4663:4671  reserves */\n      0x07\n        /* \"Defi-project/LendingPool_20230217_2.sol\":4663:4679  reserves[_token] */\n      0x00\n        /* \"Defi-project/LendingPool_20230217_2.sol\":4672:4678  _token */\n      dup10\n        /* \"Defi-project/LendingPool_20230217_2.sol\":4663:4679  reserves[_token] */\n      0xffffffffffffffffffffffffffffffffffffffff\n      and\n      0xffffffffffffffffffffffffffffffffffffffff\n      and\n      dup2\n      mstore\n      0x20\n      add\n      swap1\n      dup2\n      mstore\n      0x20\n      add\n      0x00\n      keccak256\n      0x00\n        /* \"Defi-project/LendingPool_20230217_2.sol\":4663:4690  reserves[_token] -= _amount */\n      dup3\n      dup3\n      sload\n      tag_202\n      swap2\n      swap1\n      tag_103\n      jump\t// in\n    tag_202:\n      swap3\n      pop\n      pop\n      dup2\n      swap1\n      sstore\n      pop\n        /* \"Defi-project/LendingPool_20230217_2.sol\":4724:4725  0 */\n      0x00\n        /* \"Defi-project/LendingPool_20230217_2.sol\":4704:4712  reserves */\n      0x07\n        /* \"Defi-project/LendingPool_20230217_2.sol\":4704:4720  reserves[_token] */\n      0x00\n        /* \"Defi-project/LendingPool_20230217_2.sol\":4713:4719  _token */\n      dup10\n        /* \"Defi-project/LendingPool_20230217_2.sol\":4704:4720  reserves[_token] */\n      0xffffffffffffffffffffffffffffffffffffffff\n      and\n      0xffffffffffffffffffffffffffffffffffffffff\n      and\n      dup2\n      mstore\n      0x20\n      add\n      swap1\n      dup2\n      mstore\n      0x20\n      add\n      0x00\n      keccak256\n      sload\n        /* \"Defi-project/LendingPool_20230217_2.sol\":4704:4725  reserves[_token] == 0 */\n      eq\n        /* \"Defi-project/LendingPool_20230217_2.sol\":4701:5186  if(reserves[_token] == 0) {\r... */\n      iszero\n      tag_203\n      jumpi\n        /* \"Defi-project/LendingPool_20230217_2.sol\":4742:4752  uint index */\n      0x00\n        /* \"Defi-project/LendingPool_20230217_2.sol\":4835:4841  uint i */\n      dup1\n        /* \"Defi-project/LendingPool_20230217_2.sol\":4844:4845  0 */\n      0x00\n        /* \"Defi-project/LendingPool_20230217_2.sol\":4835:4845  uint i = 0 */\n      swap1\n      pop\n        /* \"Defi-project/LendingPool_20230217_2.sol\":4830:5066  for (uint i = 0; i < reserveAssets.length; i++){\r... */\n    tag_204:\n        /* \"Defi-project/LendingPool_20230217_2.sol\":4851:4864  reserveAssets */\n      0x08\n        /* \"Defi-project/LendingPool_20230217_2.sol\":4851:4871  reserveAssets.length */\n      dup1\n      sload\n      swap1\n      pop\n        /* \"Defi-project/LendingPool_20230217_2.sol\":4847:4848  i */\n      dup2\n        /* \"Defi-project/LendingPool_20230217_2.sol\":4847:4871  i < reserveAssets.length */\n      lt\n        /* \"Defi-project/LendingPool_20230217_2.sol\":4830:5066  for (uint i = 0; i < reserveAssets.length; i++){\r... */\n      iszero\n      tag_205\n      jumpi\n        /* \"Defi-project/LendingPool_20230217_2.sol\":4919:4925  _token */\n      dup9\n        /* \"Defi-project/LendingPool_20230217_2.sol\":4899:4925  reserveAssets[i] == _token */\n      0xffffffffffffffffffffffffffffffffffffffff\n      and\n        /* \"Defi-project/LendingPool_20230217_2.sol\":4899:4912  reserveAssets */\n      0x08\n        /* \"Defi-project/LendingPool_20230217_2.sol\":4913:4914  i */\n      dup3\n        /* \"Defi-project/LendingPool_20230217_2.sol\":4899:4915  reserveAssets[i] */\n      dup2\n      sload\n      dup2\n      lt\n      tag_207\n      jumpi\n      tag_208\n      tag_142\n      jump\t// in\n    tag_208:\n    tag_207:\n      swap1\n      0x00\n      mstore\n      keccak256(0x00, 0x20)\n      add\n      0x00\n      swap1\n      sload\n      swap1\n      0x0100\n      exp\n      swap1\n      div\n      0xffffffffffffffffffffffffffffffffffffffff\n      and\n        /* \"Defi-project/LendingPool_20230217_2.sol\":4899:4925  reserveAssets[i] == _token */\n      0xffffffffffffffffffffffffffffffffffffffff\n      and\n      eq\n        /* \"Defi-project/LendingPool_20230217_2.sol\":4896:5051  if(reserveAssets[i] == _token) {\r... */\n      iszero\n      tag_210\n      jumpi\n        /* \"Defi-project/LendingPool_20230217_2.sol\":4957:4970  reserveAssets */\n      0x08\n        /* \"Defi-project/LendingPool_20230217_2.sol\":4971:4972  i */\n      dup2\n        /* \"Defi-project/LendingPool_20230217_2.sol\":4957:4973  reserveAssets[i] */\n      dup2\n      sload\n      dup2\n      lt\n      tag_211\n      jumpi\n      tag_212\n      tag_142\n      jump\t// in\n    tag_212:\n    tag_211:\n      swap1\n      0x00\n      mstore\n      keccak256(0x00, 0x20)\n      add\n      0x00\n        /* \"Defi-project/LendingPool_20230217_2.sol\":4950:4973  delete reserveAssets[i] */\n      0x0100\n      exp\n      dup2\n      sload\n      swap1\n      0xffffffffffffffffffffffffffffffffffffffff\n      mul\n      not\n      and\n      swap1\n      sstore\n        /* \"Defi-project/LendingPool_20230217_2.sol\":5002:5003  i */\n      dup1\n        /* \"Defi-project/LendingPool_20230217_2.sol\":4996:5003  index=i */\n      swap2\n      pop\n        /* \"Defi-project/LendingPool_20230217_2.sol\":5026:5031  break */\n      jump(tag_205)\n        /* \"Defi-project/LendingPool_20230217_2.sol\":4896:5051  if(reserveAssets[i] == _token) {\r... */\n    tag_210:\n        /* \"Defi-project/LendingPool_20230217_2.sol\":4873:4876  i++ */\n      dup1\n      dup1\n      tag_214\n      swap1\n      tag_156\n      jump\t// in\n    tag_214:\n      swap2\n      pop\n      pop\n        /* \"Defi-project/LendingPool_20230217_2.sol\":4830:5066  for (uint i = 0; i < reserveAssets.length; i++){\r... */\n      jump(tag_204)\n    tag_205:\n      pop\n        /* \"Defi-project/LendingPool_20230217_2.sol\":5103:5116  reserveAssets */\n      0x08\n        /* \"Defi-project/LendingPool_20230217_2.sol\":5138:5139  1 */\n      0x01\n        /* \"Defi-project/LendingPool_20230217_2.sol\":5117:5130  reserveAssets */\n      0x08\n        /* \"Defi-project/LendingPool_20230217_2.sol\":5117:5137  reserveAssets.length */\n      dup1\n      sload\n      swap1\n      pop\n        /* \"Defi-project/LendingPool_20230217_2.sol\":5117:5139  reserveAssets.length-1 */\n      tag_215\n      swap2\n      swap1\n      tag_103\n      jump\t// in\n    tag_215:\n        /* \"Defi-project/LendingPool_20230217_2.sol\":5103:5140  reserveAssets[reserveAssets.length-1] */\n      dup2\n      sload\n      dup2\n      lt\n      tag_216\n      jumpi\n      tag_217\n      tag_142\n      jump\t// in\n    tag_217:\n    tag_216:\n      swap1\n      0x00\n      mstore\n      keccak256(0x00, 0x20)\n      add\n      0x00\n      swap1\n      sload\n      swap1\n      0x0100\n      exp\n      swap1\n      div\n      0xffffffffffffffffffffffffffffffffffffffff\n      and\n        /* \"Defi-project/LendingPool_20230217_2.sol\":5080:5093  reserveAssets */\n      0x08\n        /* \"Defi-project/LendingPool_20230217_2.sol\":5094:5099  index */\n      dup3\n        /* \"Defi-project/LendingPool_20230217_2.sol\":5080:5100  reserveAssets[index] */\n      dup2\n      sload\n      dup2\n      lt\n      tag_219\n      jumpi\n      tag_220\n      tag_142\n      jump\t// in\n    tag_220:\n    tag_219:\n      swap1\n      0x00\n      mstore\n      keccak256(0x00, 0x20)\n      add\n      0x00\n        /* \"Defi-project/LendingPool_20230217_2.sol\":5080:5140  reserveAssets[index] = reserveAssets[reserveAssets.length-1] */\n      0x0100\n      exp\n      dup2\n      sload\n      dup2\n      0xffffffffffffffffffffffffffffffffffffffff\n      mul\n      not\n      and\n      swap1\n      dup4\n      0xffffffffffffffffffffffffffffffffffffffff\n      and\n      mul\n      or\n      swap1\n      sstore\n      pop\n        /* \"Defi-project/LendingPool_20230217_2.sol\":5155:5168  reserveAssets */\n      0x08\n        /* \"Defi-project/LendingPool_20230217_2.sol\":5155:5174  reserveAssets.pop() */\n      dup1\n      sload\n      dup1\n      tag_222\n      jumpi\n      tag_223\n      tag_224\n      jump\t// in\n    tag_223:\n    tag_222:\n      0x01\n      swap1\n      sub\n      dup2\n      dup2\n      swap1\n      0x00\n      mstore\n      keccak256(0x00, 0x20)\n      add\n      exp(0x0100, 0x00)\n      dup2\n      sload\n      swap1\n      0xffffffffffffffffffffffffffffffffffffffff\n      mul\n      not\n      and\n      swap1\n      sstore\n      swap1\n      sstore\n        /* \"Defi-project/LendingPool_20230217_2.sol\":4727:5186  {\r... */\n      pop\n        /* \"Defi-project/LendingPool_20230217_2.sol\":4701:5186  if(reserves[_token] == 0) {\r... */\n    tag_203:\n        /* \"Defi-project/LendingPool_20230217_2.sol\":5272:5313  lenderAssets[lender][_token].sub(_amount) */\n      tag_226\n        /* \"Defi-project/LendingPool_20230217_2.sol\":5305:5312  _amount */\n      dup7\n        /* \"Defi-project/LendingPool_20230217_2.sol\":5272:5284  lenderAssets */\n      0x02\n        /* \"Defi-project/LendingPool_20230217_2.sol\":5272:5292  lenderAssets[lender] */\n      0x00\n        /* \"Defi-project/LendingPool_20230217_2.sol\":5285:5291  lender */\n      dup5\n        /* \"Defi-project/LendingPool_20230217_2.sol\":5272:5292  lenderAssets[lender] */\n      0xffffffffffffffffffffffffffffffffffffffff\n      and\n      0xffffffffffffffffffffffffffffffffffffffff\n      and\n      dup2\n      mstore\n      0x20\n      add\n      swap1\n      dup2\n      mstore\n      0x20\n      add\n      0x00\n      keccak256\n        /* \"Defi-project/LendingPool_20230217_2.sol\":5272:5300  lenderAssets[lender][_token] */\n      0x00\n        /* \"Defi-project/LendingPool_20230217_2.sol\":5293:5299  _token */\n      dup11\n        /* \"Defi-project/LendingPool_20230217_2.sol\":5272:5300  lenderAssets[lender][_token] */\n      0xffffffffffffffffffffffffffffffffffffffff\n      and\n      0xffffffffffffffffffffffffffffffffffffffff\n      and\n      dup2\n      mstore\n      0x20\n      add\n      swap1\n      dup2\n      mstore\n      0x20\n      add\n      0x00\n      keccak256\n      sload\n        /* \"Defi-project/LendingPool_20230217_2.sol\":5272:5304  lenderAssets[lender][_token].sub */\n      tag_227\n      swap1\n        /* \"Defi-project/LendingPool_20230217_2.sol\":5272:5313  lenderAssets[lender][_token].sub(_amount) */\n      swap2\n      swap1\n      0xffffffff\n      and\n      jump\t// in\n    tag_226:\n        /* \"Defi-project/LendingPool_20230217_2.sol\":5241:5253  lenderAssets */\n      0x02\n        /* \"Defi-project/LendingPool_20230217_2.sol\":5241:5261  lenderAssets[lender] */\n      0x00\n        /* \"Defi-project/LendingPool_20230217_2.sol\":5254:5260  lender */\n      dup4\n        /* \"Defi-project/LendingPool_20230217_2.sol\":5241:5261  lenderAssets[lender] */\n      0xffffffffffffffffffffffffffffffffffffffff\n      and\n      0xffffffffffffffffffffffffffffffffffffffff\n      and\n      dup2\n      mstore\n      0x20\n      add\n      swap1\n      dup2\n      mstore\n      0x20\n      add\n      0x00\n      keccak256\n        /* \"Defi-project/LendingPool_20230217_2.sol\":5241:5269  lenderAssets[lender][_token] */\n      0x00\n        /* \"Defi-project/LendingPool_20230217_2.sol\":5262:5268  _token */\n      dup10\n        /* \"Defi-project/LendingPool_20230217_2.sol\":5241:5269  lenderAssets[lender][_token] */\n      0xffffffffffffffffffffffffffffffffffffffff\n      and\n      0xffffffffffffffffffffffffffffffffffffffff\n      and\n      dup2\n      mstore\n      0x20\n      add\n      swap1\n      dup2\n      mstore\n      0x20\n      add\n      0x00\n      keccak256\n        /* \"Defi-project/LendingPool_20230217_2.sol\":5241:5313  lenderAssets[lender][_token] = lenderAssets[lender][_token].sub(_amount) */\n      dup2\n      swap1\n      sstore\n      pop\n        /* \"Defi-project/LendingPool_20230217_2.sol\":5421:5436  block.timestamp */\n      timestamp\n        /* \"Defi-project/LendingPool_20230217_2.sol\":5387:5402  lenderTimestamp */\n      0x05\n        /* \"Defi-project/LendingPool_20230217_2.sol\":5387:5410  lenderTimestamp[lender] */\n      0x00\n        /* \"Defi-project/LendingPool_20230217_2.sol\":5403:5409  lender */\n      dup4\n        /* \"Defi-project/LendingPool_20230217_2.sol\":5387:5410  lenderTimestamp[lender] */\n      0xffffffffffffffffffffffffffffffffffffffff\n      and\n      0xffffffffffffffffffffffffffffffffffffffff\n      and\n      dup2\n      mstore\n      0x20\n      add\n      swap1\n      dup2\n      mstore\n      0x20\n      add\n      0x00\n      keccak256\n        /* \"Defi-project/LendingPool_20230217_2.sol\":5387:5418  lenderTimestamp[lender][_token] */\n      0x00\n        /* \"Defi-project/LendingPool_20230217_2.sol\":5411:5417  _token */\n      dup10\n        /* \"Defi-project/LendingPool_20230217_2.sol\":5387:5418  lenderTimestamp[lender][_token] */\n      0xffffffffffffffffffffffffffffffffffffffff\n      and\n      0xffffffffffffffffffffffffffffffffffffffff\n      and\n      dup2\n      mstore\n      0x20\n      add\n      swap1\n      dup2\n      mstore\n      0x20\n      add\n      0x00\n      keccak256\n        /* \"Defi-project/LendingPool_20230217_2.sol\":5387:5436  lenderTimestamp[lender][_token] = block.timestamp */\n      dup2\n      swap1\n      sstore\n      pop\n        /* \"Defi-project/LendingPool_20230217_2.sol\":5586:5598  bool success */\n      0x00\n        /* \"Defi-project/LendingPool_20230217_2.sol\":5601:5606  token */\n      dup3\n        /* \"Defi-project/LendingPool_20230217_2.sol\":5601:5619  token.transferFrom */\n      0xffffffffffffffffffffffffffffffffffffffff\n      and\n      0x23b872dd\n        /* \"Defi-project/LendingPool_20230217_2.sol\":5628:5632  this */\n      address\n        /* \"Defi-project/LendingPool_20230217_2.sol\":5634:5640  lender */\n      dup5\n        /* \"Defi-project/LendingPool_20230217_2.sol\":5641:5648  _amount */\n      dup11\n        /* \"Defi-project/LendingPool_20230217_2.sol\":5601:5649  token.transferFrom(address(this),lender,_amount) */\n      mload(0x40)\n      dup5\n      0xffffffff\n      and\n      0xe0\n      shl\n      dup2\n      mstore\n      0x04\n      add\n      tag_228\n      swap4\n      swap3\n      swap2\n      swap1\n      tag_107\n      jump\t// in\n    tag_228:\n      0x20\n      mload(0x40)\n      dup1\n      dup4\n      sub\n      dup2\n      0x00\n      dup8\n      dup1\n      extcodesize\n      iszero\n      dup1\n      iszero\n      tag_229\n      jumpi\n      0x00\n      dup1\n      revert\n    tag_229:\n      pop\n      gas\n      call\n      iszero\n      dup1\n      iszero\n      tag_231\n      jumpi\n      returndatasize\n      0x00\n      dup1\n      returndatacopy\n      revert(0x00, returndatasize)\n    tag_231:\n      pop\n      pop\n      pop\n      pop\n      mload(0x40)\n      returndatasize\n      not(0x1f)\n      0x1f\n      dup3\n      add\n      and\n      dup3\n      add\n      dup1\n      0x40\n      mstore\n      pop\n      dup2\n      add\n      swap1\n      tag_232\n      swap2\n      swap1\n      tag_112\n      jump\t// in\n    tag_232:\n        /* \"Defi-project/LendingPool_20230217_2.sol\":5586:5649  bool success = token.transferFrom(address(this),lender,_amount) */\n      swap1\n      pop\n        /* \"Defi-project/LendingPool_20230217_2.sol\":5669:5676  success */\n      dup1\n        /* \"Defi-project/LendingPool_20230217_2.sol\":5660:5677  require (success) */\n      tag_233\n      jumpi\n      0x00\n      dup1\n      revert\n    tag_233:\n        /* \"Defi-project/LendingPool_20230217_2.sol\":5695:5699  true */\n      0x01\n        /* \"Defi-project/LendingPool_20230217_2.sol\":5688:5699  return true */\n      swap6\n      pop\n      pop\n      pop\n      pop\n        /* \"Defi-project/LendingPool_20230217_2.sol\":1595:1596  _ */\n      pop\n        /* \"Defi-project/LendingPool_20230217_2.sol\":4011:5707  function withdraw(address _token, uint256 _amount) external ownerHasReserves(_token) onlyOwner(_token) payable returns(bool) {\r... */\n      pop\n      swap3\n      swap2\n      pop\n      pop\n      jump\t// out\n        /* \"Defi-project/LendingPool_20230217_2.sol\":1794:2075  function isOwner(address _token) internal view returns(bool) {\r... */\n    tag_178:\n        /* \"Defi-project/LendingPool_20230217_2.sol\":1849:1853  bool */\n      0x00\n        /* \"Defi-project/LendingPool_20230217_2.sol\":1871:1877  uint i */\n      dup1\n        /* \"Defi-project/LendingPool_20230217_2.sol\":1880:1881  0 */\n      0x00\n        /* \"Defi-project/LendingPool_20230217_2.sol\":1871:1881  uint i = 0 */\n      swap1\n      pop\n        /* \"Defi-project/LendingPool_20230217_2.sol\":1866:2045  for (uint i = 0; i < lenderAssetList[msg.sender].length; i++) {\r... */\n    tag_235:\n        /* \"Defi-project/LendingPool_20230217_2.sol\":1887:1902  lenderAssetList */\n      0x03\n        /* \"Defi-project/LendingPool_20230217_2.sol\":1887:1914  lenderAssetList[msg.sender] */\n      0x00\n        /* \"Defi-project/LendingPool_20230217_2.sol\":1903:1913  msg.sender */\n      caller\n        /* \"Defi-project/LendingPool_20230217_2.sol\":1887:1914  lenderAssetList[msg.sender] */\n      0xffffffffffffffffffffffffffffffffffffffff\n      and\n      0xffffffffffffffffffffffffffffffffffffffff\n      and\n      dup2\n      mstore\n      0x20\n      add\n      swap1\n      dup2\n      mstore\n      0x20\n      add\n      0x00\n      keccak256\n        /* \"Defi-project/LendingPool_20230217_2.sol\":1887:1921  lenderAssetList[msg.sender].length */\n      dup1\n      sload\n      swap1\n      pop\n        /* \"Defi-project/LendingPool_20230217_2.sol\":1883:1884  i */\n      dup2\n        /* \"Defi-project/LendingPool_20230217_2.sol\":1883:1921  i < lenderAssetList[msg.sender].length */\n      lt\n        /* \"Defi-project/LendingPool_20230217_2.sol\":1866:2045  for (uint i = 0; i < lenderAssetList[msg.sender].length; i++) {\r... */\n      iszero\n      tag_236\n      jumpi\n        /* \"Defi-project/LendingPool_20230217_2.sol\":1981:1987  _token */\n      dup3\n        /* \"Defi-project/LendingPool_20230217_2.sol\":1947:1987  lenderAssetList[msg.sender][i] == _token */\n      0xffffffffffffffffffffffffffffffffffffffff\n      and\n        /* \"Defi-project/LendingPool_20230217_2.sol\":1947:1962  lenderAssetList */\n      0x03\n        /* \"Defi-project/LendingPool_20230217_2.sol\":1947:1974  lenderAssetList[msg.sender] */\n      0x00\n        /* \"Defi-project/LendingPool_20230217_2.sol\":1963:1973  msg.sender */\n      caller\n        /* \"Defi-project/LendingPool_20230217_2.sol\":1947:1974  lenderAssetList[msg.sender] */\n      0xffffffffffffffffffffffffffffffffffffffff\n      and\n      0xffffffffffffffffffffffffffffffffffffffff\n      and\n      dup2\n      mstore\n      0x20\n      add\n      swap1\n      dup2\n      mstore\n      0x20\n      add\n      0x00\n      keccak256\n        /* \"Defi-project/LendingPool_20230217_2.sol\":1975:1976  i */\n      dup3\n        /* \"Defi-project/LendingPool_20230217_2.sol\":1947:1977  lenderAssetList[msg.sender][i] */\n      dup2\n      sload\n      dup2\n      lt\n      tag_238\n      jumpi\n      tag_239\n      tag_142\n      jump\t// in\n    tag_239:\n    tag_238:\n      swap1\n      0x00\n      mstore\n      keccak256(0x00, 0x20)\n      add\n      0x00\n      swap1\n      sload\n      swap1\n      0x0100\n      exp\n      swap1\n      div\n      0xffffffffffffffffffffffffffffffffffffffff\n      and\n        /* \"Defi-project/LendingPool_20230217_2.sol\":1947:1987  lenderAssetList[msg.sender][i] == _token */\n      0xffffffffffffffffffffffffffffffffffffffff\n      and\n      eq\n        /* \"Defi-project/LendingPool_20230217_2.sol\":1943:2034  if (lenderAssetList[msg.sender][i] == _token){\r... */\n      iszero\n      tag_241\n      jumpi\n        /* \"Defi-project/LendingPool_20230217_2.sol\":2014:2018  true */\n      0x01\n        /* \"Defi-project/LendingPool_20230217_2.sol\":2007:2018  return true */\n      swap2\n      pop\n      pop\n      jump(tag_234)\n        /* \"Defi-project/LendingPool_20230217_2.sol\":1943:2034  if (lenderAssetList[msg.sender][i] == _token){\r... */\n    tag_241:\n        /* \"Defi-project/LendingPool_20230217_2.sol\":1923:1926  i++ */\n      dup1\n      dup1\n      tag_242\n      swap1\n      tag_156\n      jump\t// in\n    tag_242:\n      swap2\n      pop\n      pop\n        /* \"Defi-project/LendingPool_20230217_2.sol\":1866:2045  for (uint i = 0; i < lenderAssetList[msg.sender].length; i++) {\r... */\n      jump(tag_235)\n    tag_236:\n      pop\n        /* \"Defi-project/LendingPool_20230217_2.sol\":2062:2067  false */\n      0x00\n        /* \"Defi-project/LendingPool_20230217_2.sol\":2055:2067  return false */\n      swap1\n      pop\n        /* \"Defi-project/LendingPool_20230217_2.sol\":1794:2075  function isOwner(address _token) internal view returns(bool) {\r... */\n    tag_234:\n      swap2\n      swap1\n      pop\n      jump\t// out\n        /* \"@openzeppelin/contracts/utils/math/SafeMath.sol\":2755:2851  function add(uint256 a, uint256 b) internal pure returns (uint256) {... */\n    tag_185:\n        /* \"@openzeppelin/contracts/utils/math/SafeMath.sol\":2813:2820  uint256 */\n      0x00\n        /* \"@openzeppelin/contracts/utils/math/SafeMath.sol\":2843:2844  b */\n      dup2\n        /* \"@openzeppelin/contracts/utils/math/SafeMath.sol\":2839:2840  a */\n      dup4\n        /* \"@openzeppelin/contracts/utils/math/SafeMath.sol\":2839:2844  a + b */\n      tag_244\n      swap2\n      swap1\n      tag_105\n      jump\t// in\n    tag_244:\n        /* \"@openzeppelin/contracts/utils/math/SafeMath.sol\":2832:2844  return a + b */\n      swap1\n      pop\n        /* \"@openzeppelin/contracts/utils/math/SafeMath.sol\":2755:2851  function add(uint256 a, uint256 b) internal pure returns (uint256) {... */\n      swap3\n      swap2\n      pop\n      pop\n      jump\t// out\n        /* \"@openzeppelin/contracts/utils/math/SafeMath.sol\":3122:3218  function sub(uint256 a, uint256 b) internal pure returns (uint256) {... */\n    tag_227:\n        /* \"@openzeppelin/contracts/utils/math/SafeMath.sol\":3180:3187  uint256 */\n      0x00\n        /* \"@openzeppelin/contracts/utils/math/SafeMath.sol\":3210:3211  b */\n      dup2\n        /* \"@openzeppelin/contracts/utils/math/SafeMath.sol\":3206:3207  a */\n      dup4\n        /* \"@openzeppelin/contracts/utils/math/SafeMath.sol\":3206:3211  a - b */\n      tag_246\n      swap2\n      swap1\n      tag_103\n      jump\t// in\n    tag_246:\n        /* \"@openzeppelin/contracts/utils/math/SafeMath.sol\":3199:3211  return a - b */\n      swap1\n      pop\n        /* \"@openzeppelin/contracts/utils/math/SafeMath.sol\":3122:3218  function sub(uint256 a, uint256 b) internal pure returns (uint256) {... */\n      swap3\n      swap2\n      pop\n      pop\n      jump\t// out\n    tag_175:\n      dup3\n      dup1\n      sload\n      tag_247\n      swap1\n      tag_88\n      jump\t// in\n    tag_247:\n      swap1\n      0x00\n      mstore\n      keccak256(0x00, 0x20)\n      swap1\n      0x1f\n      add\n      0x20\n      swap1\n      div\n      dup2\n      add\n      swap3\n      dup3\n      tag_249\n      jumpi\n      0x00\n      dup6\n      sstore\n      jump(tag_248)\n    tag_249:\n      dup3\n      0x1f\n      lt\n      tag_250\n      jumpi\n      dup1\n      mload\n      not(0xff)\n      and\n      dup4\n      dup1\n      add\n      or\n      dup6\n      sstore\n      jump(tag_248)\n    tag_250:\n      dup3\n      dup1\n      add\n      0x01\n      add\n      dup6\n      sstore\n      dup3\n      iszero\n      tag_248\n      jumpi\n      swap2\n      dup3\n      add\n    tag_251:\n      dup3\n      dup2\n      gt\n      iszero\n      tag_252\n      jumpi\n      dup3\n      mload\n      dup3\n      sstore\n      swap2\n      0x20\n      add\n      swap2\n      swap1\n      0x01\n      add\n      swap1\n      jump(tag_251)\n    tag_252:\n    tag_248:\n      pop\n      swap1\n      pop\n      tag_253\n      swap2\n      swap1\n      tag_254\n      jump\t// in\n    tag_253:\n      pop\n      swap1\n      jump\t// out\n    tag_254:\n    tag_255:\n      dup1\n      dup3\n      gt\n      iszero\n      tag_256\n      jumpi\n      0x00\n      dup2\n      0x00\n      swap1\n      sstore\n      pop\n      0x01\n      add\n      jump(tag_255)\n    tag_256:\n      pop\n      swap1\n      jump\t// out\n        /* \"#utility.yul\":7:419   */\n    tag_258:\n        /* \"#utility.yul\":85:90   */\n      0x00\n        /* \"#utility.yul\":110:176   */\n      tag_260\n        /* \"#utility.yul\":126:175   */\n      tag_261\n        /* \"#utility.yul\":168:174   */\n      dup5\n        /* \"#utility.yul\":126:175   */\n      tag_262\n      jump\t// in\n    tag_261:\n        /* \"#utility.yul\":110:176   */\n      tag_263\n      jump\t// in\n    tag_260:\n        /* \"#utility.yul\":101:176   */\n      swap1\n      pop\n        /* \"#utility.yul\":199:205   */\n      dup3\n        /* \"#utility.yul\":192:197   */\n      dup2\n        /* \"#utility.yul\":185:206   */\n      mstore\n        /* \"#utility.yul\":237:241   */\n      0x20\n        /* \"#utility.yul\":230:235   */\n      dup2\n        /* \"#utility.yul\":226:242   */\n      add\n        /* \"#utility.yul\":275:278   */\n      dup5\n        /* \"#utility.yul\":266:272   */\n      dup5\n        /* \"#utility.yul\":261:264   */\n      dup5\n        /* \"#utility.yul\":257:273   */\n      add\n        /* \"#utility.yul\":254:279   */\n      gt\n        /* \"#utility.yul\":251:253   */\n      iszero\n      tag_264\n      jumpi\n        /* \"#utility.yul\":282:361   */\n      tag_265\n      tag_266\n      jump\t// in\n    tag_265:\n        /* \"#utility.yul\":251:253   */\n    tag_264:\n        /* \"#utility.yul\":372:413   */\n      tag_267\n        /* \"#utility.yul\":406:412   */\n      dup5\n        /* \"#utility.yul\":401:404   */\n      dup3\n        /* \"#utility.yul\":396:399   */\n      dup6\n        /* \"#utility.yul\":372:413   */\n      tag_268\n      jump\t// in\n    tag_267:\n        /* \"#utility.yul\":91:419   */\n      pop\n      swap4\n      swap3\n      pop\n      pop\n      pop\n      jump\t// out\n        /* \"#utility.yul\":425:564   */\n    tag_269:\n        /* \"#utility.yul\":471:476   */\n      0x00\n        /* \"#utility.yul\":509:515   */\n      dup2\n        /* \"#utility.yul\":496:516   */\n      calldataload\n        /* \"#utility.yul\":487:516   */\n      swap1\n      pop\n        /* \"#utility.yul\":525:558   */\n      tag_271\n        /* \"#utility.yul\":552:557   */\n      dup2\n        /* \"#utility.yul\":525:558   */\n      tag_272\n      jump\t// in\n    tag_271:\n        /* \"#utility.yul\":477:564   */\n      swap3\n      swap2\n      pop\n      pop\n      jump\t// out\n        /* \"#utility.yul\":570:707   */\n    tag_273:\n        /* \"#utility.yul\":624:629   */\n      0x00\n        /* \"#utility.yul\":655:661   */\n      dup2\n        /* \"#utility.yul\":649:662   */\n      mload\n        /* \"#utility.yul\":640:662   */\n      swap1\n      pop\n        /* \"#utility.yul\":671:701   */\n      tag_275\n        /* \"#utility.yul\":695:700   */\n      dup2\n        /* \"#utility.yul\":671:701   */\n      tag_276\n      jump\t// in\n    tag_275:\n        /* \"#utility.yul\":630:707   */\n      swap3\n      swap2\n      pop\n      pop\n      jump\t// out\n        /* \"#utility.yul\":727:1067   */\n    tag_277:\n        /* \"#utility.yul\":783:788   */\n      0x00\n        /* \"#utility.yul\":832:835   */\n      dup3\n        /* \"#utility.yul\":825:829   */\n      0x1f\n        /* \"#utility.yul\":817:823   */\n      dup4\n        /* \"#utility.yul\":813:830   */\n      add\n        /* \"#utility.yul\":809:836   */\n      slt\n        /* \"#utility.yul\":799:801   */\n      tag_279\n      jumpi\n        /* \"#utility.yul\":840:919   */\n      tag_280\n      tag_281\n      jump\t// in\n    tag_280:\n        /* \"#utility.yul\":799:801   */\n    tag_279:\n        /* \"#utility.yul\":957:963   */\n      dup2\n        /* \"#utility.yul\":944:964   */\n      calldataload\n        /* \"#utility.yul\":982:1061   */\n      tag_282\n        /* \"#utility.yul\":1057:1060   */\n      dup5\n        /* \"#utility.yul\":1049:1055   */\n      dup3\n        /* \"#utility.yul\":1042:1046   */\n      0x20\n        /* \"#utility.yul\":1034:1040   */\n      dup7\n        /* \"#utility.yul\":1030:1047   */\n      add\n        /* \"#utility.yul\":982:1061   */\n      tag_258\n      jump\t// in\n    tag_282:\n        /* \"#utility.yul\":973:1061   */\n      swap2\n      pop\n        /* \"#utility.yul\":789:1067   */\n      pop\n      swap3\n      swap2\n      pop\n      pop\n      jump\t// out\n        /* \"#utility.yul\":1073:1212   */\n    tag_283:\n        /* \"#utility.yul\":1119:1124   */\n      0x00\n        /* \"#utility.yul\":1157:1163   */\n      dup2\n        /* \"#utility.yul\":1144:1164   */\n      calldataload\n        /* \"#utility.yul\":1135:1164   */\n      swap1\n      pop\n        /* \"#utility.yul\":1173:1206   */\n      tag_285\n        /* \"#utility.yul\":1200:1205   */\n      dup2\n        /* \"#utility.yul\":1173:1206   */\n      tag_286\n      jump\t// in\n    tag_285:\n        /* \"#utility.yul\":1125:1212   */\n      swap3\n      swap2\n      pop\n      pop\n      jump\t// out\n        /* \"#utility.yul\":1218:1547   */\n    tag_22:\n        /* \"#utility.yul\":1277:1283   */\n      0x00\n        /* \"#utility.yul\":1326:1328   */\n      0x20\n        /* \"#utility.yul\":1314:1323   */\n      dup3\n        /* \"#utility.yul\":1305:1312   */\n      dup5\n        /* \"#utility.yul\":1301:1324   */\n      sub\n        /* \"#utility.yul\":1297:1329   */\n      slt\n        /* \"#utility.yul\":1294:1296   */\n      iszero\n      tag_288\n      jumpi\n        /* \"#utility.yul\":1332:1411   */\n      tag_289\n      tag_290\n      jump\t// in\n    tag_289:\n        /* \"#utility.yul\":1294:1296   */\n    tag_288:\n        /* \"#utility.yul\":1452:1453   */\n      0x00\n        /* \"#utility.yul\":1477:1530   */\n      tag_291\n        /* \"#utility.yul\":1522:1529   */\n      dup5\n        /* \"#utility.yul\":1513:1519   */\n      dup3\n        /* \"#utility.yul\":1502:1511   */\n      dup6\n        /* \"#utility.yul\":1498:1520   */\n      add\n        /* \"#utility.yul\":1477:1530   */\n      tag_269\n      jump\t// in\n    tag_291:\n        /* \"#utility.yul\":1467:1530   */\n      swap2\n      pop\n        /* \"#utility.yul\":1423:1540   */\n      pop\n        /* \"#utility.yul\":1284:1547   */\n      swap3\n      swap2\n      pop\n      pop\n      jump\t// out\n        /* \"#utility.yul\":1553:2027   */\n    tag_51:\n        /* \"#utility.yul\":1621:1627   */\n      0x00\n        /* \"#utility.yul\":1629:1635   */\n      dup1\n        /* \"#utility.yul\":1678:1680   */\n      0x40\n        /* \"#utility.yul\":1666:1675   */\n      dup4\n        /* \"#utility.yul\":1657:1664   */\n      dup6\n        /* \"#utility.yul\":1653:1676   */\n      sub\n        /* \"#utility.yul\":1649:1681   */\n      slt\n        /* \"#utility.yul\":1646:1648   */\n      iszero\n      tag_293\n      jumpi\n        /* \"#utility.yul\":1684:1763   */\n      tag_294\n      tag_290\n      jump\t// in\n    tag_294:\n        /* \"#utility.yul\":1646:1648   */\n    tag_293:\n        /* \"#utility.yul\":1804:1805   */\n      0x00\n        /* \"#utility.yul\":1829:1882   */\n      tag_295\n        /* \"#utility.yul\":1874:1881   */\n      dup6\n        /* \"#utility.yul\":1865:1871   */\n      dup3\n        /* \"#utility.yul\":1854:1863   */\n      dup7\n        /* \"#utility.yul\":1850:1872   */\n      add\n        /* \"#utility.yul\":1829:1882   */\n      tag_269\n      jump\t// in\n    tag_295:\n        /* \"#utility.yul\":1819:1882   */\n      swap3\n      pop\n        /* \"#utility.yul\":1775:1892   */\n      pop\n        /* \"#utility.yul\":1931:1933   */\n      0x20\n        /* \"#utility.yul\":1957:2010   */\n      tag_296\n        /* \"#utility.yul\":2002:2009   */\n      dup6\n        /* \"#utility.yul\":1993:1999   */\n      dup3\n        /* \"#utility.yul\":1982:1991   */\n      dup7\n        /* \"#utility.yul\":1978:2000   */\n      add\n        /* \"#utility.yul\":1957:2010   */\n      tag_269\n      jump\t// in\n    tag_296:\n        /* \"#utility.yul\":1947:2010   */\n      swap2\n      pop\n        /* \"#utility.yul\":1902:2020   */\n      pop\n        /* \"#utility.yul\":1636:2027   */\n      swap3\n      pop\n      swap3\n      swap1\n      pop\n      jump\t// out\n        /* \"#utility.yul\":2033:2687   */\n    tag_76:\n        /* \"#utility.yul\":2111:2117   */\n      0x00\n        /* \"#utility.yul\":2119:2125   */\n      dup1\n        /* \"#utility.yul\":2168:2170   */\n      0x40\n        /* \"#utility.yul\":2156:2165   */\n      dup4\n        /* \"#utility.yul\":2147:2154   */\n      dup6\n        /* \"#utility.yul\":2143:2166   */\n      sub\n        /* \"#utility.yul\":2139:2171   */\n      slt\n        /* \"#utility.yul\":2136:2138   */\n      iszero\n      tag_298\n      jumpi\n        /* \"#utility.yul\":2174:2253   */\n      tag_299\n      tag_290\n      jump\t// in\n    tag_299:\n        /* \"#utility.yul\":2136:2138   */\n    tag_298:\n        /* \"#utility.yul\":2294:2295   */\n      0x00\n        /* \"#utility.yul\":2319:2372   */\n      tag_300\n        /* \"#utility.yul\":2364:2371   */\n      dup6\n        /* \"#utility.yul\":2355:2361   */\n      dup3\n        /* \"#utility.yul\":2344:2353   */\n      dup7\n        /* \"#utility.yul\":2340:2362   */\n      add\n        /* \"#utility.yul\":2319:2372   */\n      tag_269\n      jump\t// in\n    tag_300:\n        /* \"#utility.yul\":2309:2372   */\n      swap3\n      pop\n        /* \"#utility.yul\":2265:2382   */\n      pop\n        /* \"#utility.yul\":2449:2451   */\n      0x20\n        /* \"#utility.yul\":2438:2447   */\n      dup4\n        /* \"#utility.yul\":2434:2452   */\n      add\n        /* \"#utility.yul\":2421:2453   */\n      calldataload\n        /* \"#utility.yul\":2480:2498   */\n      0xffffffffffffffff\n        /* \"#utility.yul\":2472:2478   */\n      dup2\n        /* \"#utility.yul\":2469:2499   */\n      gt\n        /* \"#utility.yul\":2466:2468   */\n      iszero\n      tag_301\n      jumpi\n        /* \"#utility.yul\":2502:2581   */\n      tag_302\n      tag_303\n      jump\t// in\n    tag_302:\n        /* \"#utility.yul\":2466:2468   */\n    tag_301:\n        /* \"#utility.yul\":2607:2670   */\n      tag_304\n        /* \"#utility.yul\":2662:2669   */\n      dup6\n        /* \"#utility.yul\":2653:2659   */\n      dup3\n        /* \"#utility.yul\":2642:2651   */\n      dup7\n        /* \"#utility.yul\":2638:2660   */\n      add\n        /* \"#utility.yul\":2607:2670   */\n      tag_277\n      jump\t// in\n    tag_304:\n        /* \"#utility.yul\":2597:2670   */\n      swap2\n      pop\n        /* \"#utility.yul\":2392:2680   */\n      pop\n        /* \"#utility.yul\":2126:2687   */\n      swap3\n      pop\n      swap3\n      swap1\n      pop\n      jump\t// out\n        /* \"#utility.yul\":2693:3167   */\n    tag_42:\n        /* \"#utility.yul\":2761:2767   */\n      0x00\n        /* \"#utility.yul\":2769:2775   */\n      dup1\n        /* \"#utility.yul\":2818:2820   */\n      0x40\n        /* \"#utility.yul\":2806:2815   */\n      dup4\n        /* \"#utility.yul\":2797:2804   */\n      dup6\n        /* \"#utility.yul\":2793:2816   */\n      sub\n        /* \"#utility.yul\":2789:2821   */\n      slt\n        /* \"#utility.yul\":2786:2788   */\n      iszero\n      tag_306\n      jumpi\n        /* \"#utility.yul\":2824:2903   */\n      tag_307\n      tag_290\n      jump\t// in\n    tag_307:\n        /* \"#utility.yul\":2786:2788   */\n    tag_306:\n        /* \"#utility.yul\":2944:2945   */\n      0x00\n        /* \"#utility.yul\":2969:3022   */\n      tag_308\n        /* \"#utility.yul\":3014:3021   */\n      dup6\n        /* \"#utility.yul\":3005:3011   */\n      dup3\n        /* \"#utility.yul\":2994:3003   */\n      dup7\n        /* \"#utility.yul\":2990:3012   */\n      add\n        /* \"#utility.yul\":2969:3022   */\n      tag_269\n      jump\t// in\n    tag_308:\n        /* \"#utility.yul\":2959:3022   */\n      swap3\n      pop\n        /* \"#utility.yul\":2915:3032   */\n      pop\n        /* \"#utility.yul\":3071:3073   */\n      0x20\n        /* \"#utility.yul\":3097:3150   */\n      tag_309\n        /* \"#utility.yul\":3142:3149   */\n      dup6\n        /* \"#utility.yul\":3133:3139   */\n      dup3\n        /* \"#utility.yul\":3122:3131   */\n      dup7\n        /* \"#utility.yul\":3118:3140   */\n      add\n        /* \"#utility.yul\":3097:3150   */\n      tag_283\n      jump\t// in\n    tag_309:\n        /* \"#utility.yul\":3087:3150   */\n      swap2\n      pop\n        /* \"#utility.yul\":3042:3160   */\n      pop\n        /* \"#utility.yul\":2776:3167   */\n      swap3\n      pop\n      swap3\n      swap1\n      pop\n      jump\t// out\n        /* \"#utility.yul\":3173:3518   */\n    tag_112:\n        /* \"#utility.yul\":3240:3246   */\n      0x00\n        /* \"#utility.yul\":3289:3291   */\n      0x20\n        /* \"#utility.yul\":3277:3286   */\n      dup3\n        /* \"#utility.yul\":3268:3275   */\n      dup5\n        /* \"#utility.yul\":3264:3287   */\n      sub\n        /* \"#utility.yul\":3260:3292   */\n      slt\n        /* \"#utility.yul\":3257:3259   */\n      iszero\n      tag_311\n      jumpi\n        /* \"#utility.yul\":3295:3374   */\n      tag_312\n      tag_290\n      jump\t// in\n    tag_312:\n        /* \"#utility.yul\":3257:3259   */\n    tag_311:\n        /* \"#utility.yul\":3415:3416   */\n      0x00\n        /* \"#utility.yul\":3440:3501   */\n      tag_313\n        /* \"#utility.yul\":3493:3500   */\n      dup5\n        /* \"#utility.yul\":3484:3490   */\n      dup3\n        /* \"#utility.yul\":3473:3482   */\n      dup6\n        /* \"#utility.yul\":3469:3491   */\n      add\n        /* \"#utility.yul\":3440:3501   */\n      tag_273\n      jump\t// in\n    tag_313:\n        /* \"#utility.yul\":3430:3501   */\n      swap2\n      pop\n        /* \"#utility.yul\":3386:3511   */\n      pop\n        /* \"#utility.yul\":3247:3518   */\n      swap3\n      swap2\n      pop\n      pop\n      jump\t// out\n        /* \"#utility.yul\":3524:3703   */\n    tag_314:\n        /* \"#utility.yul\":3593:3603   */\n      0x00\n        /* \"#utility.yul\":3614:3660   */\n      tag_316\n        /* \"#utility.yul\":3656:3659   */\n      dup4\n        /* \"#utility.yul\":3648:3654   */\n      dup4\n        /* \"#utility.yul\":3614:3660   */\n      tag_317\n      jump\t// in\n    tag_316:\n        /* \"#utility.yul\":3692:3696   */\n      0x20\n        /* \"#utility.yul\":3687:3690   */\n      dup4\n        /* \"#utility.yul\":3683:3697   */\n      add\n        /* \"#utility.yul\":3669:3697   */\n      swap1\n      pop\n        /* \"#utility.yul\":3604:3703   */\n      swap3\n      swap2\n      pop\n      pop\n      jump\t// out\n        /* \"#utility.yul\":3709:3905   */\n    tag_318:\n        /* \"#utility.yul\":3798:3808   */\n      0x00\n        /* \"#utility.yul\":3833:3899   */\n      tag_320\n        /* \"#utility.yul\":3895:3898   */\n      dup4\n        /* \"#utility.yul\":3887:3893   */\n      dup4\n        /* \"#utility.yul\":3833:3899   */\n      tag_321\n      jump\t// in\n    tag_320:\n        /* \"#utility.yul\":3819:3899   */\n      swap1\n      pop\n        /* \"#utility.yul\":3809:3905   */\n      swap3\n      swap2\n      pop\n      pop\n      jump\t// out\n        /* \"#utility.yul\":3911:4090   */\n    tag_322:\n        /* \"#utility.yul\":3980:3990   */\n      0x00\n        /* \"#utility.yul\":4001:4047   */\n      tag_324\n        /* \"#utility.yul\":4043:4046   */\n      dup4\n        /* \"#utility.yul\":4035:4041   */\n      dup4\n        /* \"#utility.yul\":4001:4047   */\n      tag_325\n      jump\t// in\n    tag_324:\n        /* \"#utility.yul\":4079:4083   */\n      0x20\n        /* \"#utility.yul\":4074:4077   */\n      dup4\n        /* \"#utility.yul\":4070:4084   */\n      add\n        /* \"#utility.yul\":4056:4084   */\n      swap1\n      pop\n        /* \"#utility.yul\":3991:4090   */\n      swap3\n      swap2\n      pop\n      pop\n      jump\t// out\n        /* \"#utility.yul\":4096:4204   */\n    tag_317:\n        /* \"#utility.yul\":4173:4197   */\n      tag_327\n        /* \"#utility.yul\":4191:4196   */\n      dup2\n        /* \"#utility.yul\":4173:4197   */\n      tag_328\n      jump\t// in\n    tag_327:\n        /* \"#utility.yul\":4168:4171   */\n      dup3\n        /* \"#utility.yul\":4161:4198   */\n      mstore\n        /* \"#utility.yul\":4151:4204   */\n      pop\n      pop\n      jump\t// out\n        /* \"#utility.yul\":4210:4328   */\n    tag_329:\n        /* \"#utility.yul\":4297:4321   */\n      tag_331\n        /* \"#utility.yul\":4315:4320   */\n      dup2\n        /* \"#utility.yul\":4297:4321   */\n      tag_328\n      jump\t// in\n    tag_331:\n        /* \"#utility.yul\":4292:4295   */\n      dup3\n        /* \"#utility.yul\":4285:4322   */\n      mstore\n        /* \"#utility.yul\":4275:4328   */\n      pop\n      pop\n      jump\t// out\n        /* \"#utility.yul\":4364:5096   */\n    tag_332:\n        /* \"#utility.yul\":4483:4486   */\n      0x00\n        /* \"#utility.yul\":4512:4566   */\n      tag_334\n        /* \"#utility.yul\":4560:4565   */\n      dup3\n        /* \"#utility.yul\":4512:4566   */\n      tag_335\n      jump\t// in\n    tag_334:\n        /* \"#utility.yul\":4582:4668   */\n      tag_336\n        /* \"#utility.yul\":4661:4667   */\n      dup2\n        /* \"#utility.yul\":4656:4659   */\n      dup6\n        /* \"#utility.yul\":4582:4668   */\n      tag_337\n      jump\t// in\n    tag_336:\n        /* \"#utility.yul\":4575:4668   */\n      swap4\n      pop\n        /* \"#utility.yul\":4692:4748   */\n      tag_338\n        /* \"#utility.yul\":4742:4747   */\n      dup4\n        /* \"#utility.yul\":4692:4748   */\n      tag_339\n      jump\t// in\n    tag_338:\n        /* \"#utility.yul\":4771:4778   */\n      dup1\n        /* \"#utility.yul\":4802:4803   */\n      0x00\n        /* \"#utility.yul\":4787:5071   */\n    tag_340:\n        /* \"#utility.yul\":4812:4818   */\n      dup4\n        /* \"#utility.yul\":4809:4810   */\n      dup2\n        /* \"#utility.yul\":4806:4819   */\n      lt\n        /* \"#utility.yul\":4787:5071   */\n      iszero\n      tag_342\n      jumpi\n        /* \"#utility.yul\":4888:4894   */\n      dup2\n        /* \"#utility.yul\":4882:4895   */\n      mload\n        /* \"#utility.yul\":4915:4978   */\n      tag_343\n        /* \"#utility.yul\":4974:4977   */\n      dup9\n        /* \"#utility.yul\":4959:4972   */\n      dup3\n        /* \"#utility.yul\":4915:4978   */\n      tag_314\n      jump\t// in\n    tag_343:\n        /* \"#utility.yul\":4908:4978   */\n      swap8\n      pop\n        /* \"#utility.yul\":5001:5061   */\n      tag_344\n        /* \"#utility.yul\":5054:5060   */\n      dup4\n        /* \"#utility.yul\":5001:5061   */\n      tag_345\n      jump\t// in\n    tag_344:\n        /* \"#utility.yul\":4991:5061   */\n      swap3\n      pop\n        /* \"#utility.yul\":4847:5071   */\n      pop\n        /* \"#utility.yul\":4834:4835   */\n      0x01\n        /* \"#utility.yul\":4831:4832   */\n      dup2\n        /* \"#utility.yul\":4827:4836   */\n      add\n        /* \"#utility.yul\":4822:4836   */\n      swap1\n      pop\n        /* \"#utility.yul\":4787:5071   */\n      jump(tag_340)\n    tag_342:\n        /* \"#utility.yul\":4791:4805   */\n      pop\n        /* \"#utility.yul\":5087:5090   */\n      dup6\n        /* \"#utility.yul\":5080:5090   */\n      swap4\n      pop\n        /* \"#utility.yul\":4488:5096   */\n      pop\n      pop\n      pop\n      swap3\n      swap2\n      pop\n      pop\n      jump\t// out\n        /* \"#utility.yul\":5130:6121   */\n    tag_346:\n        /* \"#utility.yul\":5269:5272   */\n      0x00\n        /* \"#utility.yul\":5298:5362   */\n      tag_348\n        /* \"#utility.yul\":5356:5361   */\n      dup3\n        /* \"#utility.yul\":5298:5362   */\n      tag_349\n      jump\t// in\n    tag_348:\n        /* \"#utility.yul\":5378:5474   */\n      tag_350\n        /* \"#utility.yul\":5467:5473   */\n      dup2\n        /* \"#utility.yul\":5462:5465   */\n      dup6\n        /* \"#utility.yul\":5378:5474   */\n      tag_351\n      jump\t// in\n    tag_350:\n        /* \"#utility.yul\":5371:5474   */\n      swap4\n      pop\n        /* \"#utility.yul\":5500:5503   */\n      dup4\n        /* \"#utility.yul\":5545:5549   */\n      0x20\n        /* \"#utility.yul\":5537:5543   */\n      dup3\n        /* \"#utility.yul\":5533:5550   */\n      mul\n        /* \"#utility.yul\":5528:5531   */\n      dup6\n        /* \"#utility.yul\":5524:5551   */\n      add\n        /* \"#utility.yul\":5575:5641   */\n      tag_352\n        /* \"#utility.yul\":5635:5640   */\n      dup6\n        /* \"#utility.yul\":5575:5641   */\n      tag_353\n      jump\t// in\n    tag_352:\n        /* \"#utility.yul\":5664:5671   */\n      dup1\n        /* \"#utility.yul\":5695:5696   */\n      0x00\n        /* \"#utility.yul\":5680:6076   */\n    tag_354:\n        /* \"#utility.yul\":5705:5711   */\n      dup6\n        /* \"#utility.yul\":5702:5703   */\n      dup2\n        /* \"#utility.yul\":5699:5712   */\n      lt\n        /* \"#utility.yul\":5680:6076   */\n      iszero\n      tag_356\n      jumpi\n        /* \"#utility.yul\":5776:5785   */\n      dup5\n        /* \"#utility.yul\":5770:5774   */\n      dup5\n        /* \"#utility.yul\":5766:5786   */\n      sub\n        /* \"#utility.yul\":5761:5764   */\n      dup10\n        /* \"#utility.yul\":5754:5787   */\n      mstore\n        /* \"#utility.yul\":5827:5833   */\n      dup2\n        /* \"#utility.yul\":5821:5834   */\n      mload\n        /* \"#utility.yul\":5855:5939   */\n      tag_357\n        /* \"#utility.yul\":5934:5938   */\n      dup6\n        /* \"#utility.yul\":5919:5932   */\n      dup3\n        /* \"#utility.yul\":5855:5939   */\n      tag_318\n      jump\t// in\n    tag_357:\n        /* \"#utility.yul\":5847:5939   */\n      swap5\n      pop\n        /* \"#utility.yul\":5962:6032   */\n      tag_358\n        /* \"#utility.yul\":6025:6031   */\n      dup4\n        /* \"#utility.yul\":5962:6032   */\n      tag_359\n      jump\t// in\n    tag_358:\n        /* \"#utility.yul\":5952:6032   */\n      swap3\n      pop\n        /* \"#utility.yul\":6061:6065   */\n      0x20\n        /* \"#utility.yul\":6056:6059   */\n      dup11\n        /* \"#utility.yul\":6052:6066   */\n      add\n        /* \"#utility.yul\":6045:6066   */\n      swap10\n      pop\n        /* \"#utility.yul\":5740:6076   */\n      pop\n        /* \"#utility.yul\":5727:5728   */\n      0x01\n        /* \"#utility.yul\":5724:5725   */\n      dup2\n        /* \"#utility.yul\":5720:5729   */\n      add\n        /* \"#utility.yul\":5715:5729   */\n      swap1\n      pop\n        /* \"#utility.yul\":5680:6076   */\n      jump(tag_354)\n    tag_356:\n        /* \"#utility.yul\":5684:5698   */\n      pop\n        /* \"#utility.yul\":6092:6096   */\n      dup3\n        /* \"#utility.yul\":6085:6096   */\n      swap8\n      pop\n        /* \"#utility.yul\":6112:6115   */\n      dup8\n        /* \"#utility.yul\":6105:6115   */\n      swap6\n      pop\n        /* \"#utility.yul\":5274:6121   */\n      pop\n      pop\n      pop\n      pop\n      pop\n      swap3\n      swap2\n      pop\n      pop\n      jump\t// out\n        /* \"#utility.yul\":6157:6889   */\n    tag_360:\n        /* \"#utility.yul\":6276:6279   */\n      0x00\n        /* \"#utility.yul\":6305:6359   */\n      tag_362\n        /* \"#utility.yul\":6353:6358   */\n      dup3\n        /* \"#utility.yul\":6305:6359   */\n      tag_363\n      jump\t// in\n    tag_362:\n        /* \"#utility.yul\":6375:6461   */\n      tag_364\n        /* \"#utility.yul\":6454:6460   */\n      dup2\n        /* \"#utility.yul\":6449:6452   */\n      dup6\n        /* \"#utility.yul\":6375:6461   */\n      tag_365\n      jump\t// in\n    tag_364:\n        /* \"#utility.yul\":6368:6461   */\n      swap4\n      pop\n        /* \"#utility.yul\":6485:6541   */\n      tag_366\n        /* \"#utility.yul\":6535:6540   */\n      dup4\n        /* \"#utility.yul\":6485:6541   */\n      tag_367\n      jump\t// in\n    tag_366:\n        /* \"#utility.yul\":6564:6571   */\n      dup1\n        /* \"#utility.yul\":6595:6596   */\n      0x00\n        /* \"#utility.yul\":6580:6864   */\n    tag_368:\n        /* \"#utility.yul\":6605:6611   */\n      dup4\n        /* \"#utility.yul\":6602:6603   */\n      dup2\n        /* \"#utility.yul\":6599:6612   */\n      lt\n        /* \"#utility.yul\":6580:6864   */\n      iszero\n      tag_370\n      jumpi\n        /* \"#utility.yul\":6681:6687   */\n      dup2\n        /* \"#utility.yul\":6675:6688   */\n      mload\n        /* \"#utility.yul\":6708:6771   */\n      tag_371\n        /* \"#utility.yul\":6767:6770   */\n      dup9\n        /* \"#utility.yul\":6752:6765   */\n      dup3\n        /* \"#utility.yul\":6708:6771   */\n      tag_322\n      jump\t// in\n    tag_371:\n        /* \"#utility.yul\":6701:6771   */\n      swap8\n      pop\n        /* \"#utility.yul\":6794:6854   */\n      tag_372\n        /* \"#utility.yul\":6847:6853   */\n      dup4\n        /* \"#utility.yul\":6794:6854   */\n      tag_373\n      jump\t// in\n    tag_372:\n        /* \"#utility.yul\":6784:6854   */\n      swap3\n      pop\n        /* \"#utility.yul\":6640:6864   */\n      pop\n        /* \"#utility.yul\":6627:6628   */\n      0x01\n        /* \"#utility.yul\":6624:6625   */\n      dup2\n        /* \"#utility.yul\":6620:6629   */\n      add\n        /* \"#utility.yul\":6615:6629   */\n      swap1\n      pop\n        /* \"#utility.yul\":6580:6864   */\n      jump(tag_368)\n    tag_370:\n        /* \"#utility.yul\":6584:6598   */\n      pop\n        /* \"#utility.yul\":6880:6883   */\n      dup6\n        /* \"#utility.yul\":6873:6883   */\n      swap4\n      pop\n        /* \"#utility.yul\":6281:6889   */\n      pop\n      pop\n      pop\n      swap3\n      swap2\n      pop\n      pop\n      jump\t// out\n        /* \"#utility.yul\":6895:7004   */\n    tag_374:\n        /* \"#utility.yul\":6976:6997   */\n      tag_376\n        /* \"#utility.yul\":6991:6996   */\n      dup2\n        /* \"#utility.yul\":6976:6997   */\n      tag_377\n      jump\t// in\n    tag_376:\n        /* \"#utility.yul\":6971:6974   */\n      dup3\n        /* \"#utility.yul\":6964:6998   */\n      mstore\n        /* \"#utility.yul\":6954:7004   */\n      pop\n      pop\n      jump\t// out\n        /* \"#utility.yul\":7010:7354   */\n    tag_321:\n        /* \"#utility.yul\":7088:7091   */\n      0x00\n        /* \"#utility.yul\":7116:7155   */\n      tag_379\n        /* \"#utility.yul\":7149:7154   */\n      dup3\n        /* \"#utility.yul\":7116:7155   */\n      tag_380\n      jump\t// in\n    tag_379:\n        /* \"#utility.yul\":7171:7232   */\n      tag_381\n        /* \"#utility.yul\":7225:7231   */\n      dup2\n        /* \"#utility.yul\":7220:7223   */\n      dup6\n        /* \"#utility.yul\":7171:7232   */\n      tag_382\n      jump\t// in\n    tag_381:\n        /* \"#utility.yul\":7164:7232   */\n      swap4\n      pop\n        /* \"#utility.yul\":7241:7293   */\n      tag_383\n        /* \"#utility.yul\":7286:7292   */\n      dup2\n        /* \"#utility.yul\":7281:7284   */\n      dup6\n        /* \"#utility.yul\":7274:7278   */\n      0x20\n        /* \"#utility.yul\":7267:7272   */\n      dup7\n        /* \"#utility.yul\":7263:7279   */\n      add\n        /* \"#utility.yul\":7241:7293   */\n      tag_384\n      jump\t// in\n    tag_383:\n        /* \"#utility.yul\":7318:7347   */\n      tag_385\n        /* \"#utility.yul\":7340:7346   */\n      dup2\n        /* \"#utility.yul\":7318:7347   */\n      tag_386\n      jump\t// in\n    tag_385:\n        /* \"#utility.yul\":7313:7316   */\n      dup5\n        /* \"#utility.yul\":7309:7348   */\n      add\n        /* \"#utility.yul\":7302:7348   */\n      swap2\n      pop\n        /* \"#utility.yul\":7092:7354   */\n      pop\n      swap3\n      swap2\n      pop\n      pop\n      jump\t// out\n        /* \"#utility.yul\":7360:7724   */\n    tag_387:\n        /* \"#utility.yul\":7448:7451   */\n      0x00\n        /* \"#utility.yul\":7476:7515   */\n      tag_389\n        /* \"#utility.yul\":7509:7514   */\n      dup3\n        /* \"#utility.yul\":7476:7515   */\n      tag_380\n      jump\t// in\n    tag_389:\n        /* \"#utility.yul\":7531:7602   */\n      tag_390\n        /* \"#utility.yul\":7595:7601   */\n      dup2\n        /* \"#utility.yul\":7590:7593   */\n      dup6\n        /* \"#utility.yul\":7531:7602   */\n      tag_391\n      jump\t// in\n    tag_390:\n        /* \"#utility.yul\":7524:7602   */\n      swap4\n      pop\n        /* \"#utility.yul\":7611:7663   */\n      tag_392\n        /* \"#utility.yul\":7656:7662   */\n      dup2\n        /* \"#utility.yul\":7651:7654   */\n      dup6\n        /* \"#utility.yul\":7644:7648   */\n      0x20\n        /* \"#utility.yul\":7637:7642   */\n      dup7\n        /* \"#utility.yul\":7633:7649   */\n      add\n        /* \"#utility.yul\":7611:7663   */\n      tag_384\n      jump\t// in\n    tag_392:\n        /* \"#utility.yul\":7688:7717   */\n      tag_393\n        /* \"#utility.yul\":7710:7716   */\n      dup2\n        /* \"#utility.yul\":7688:7717   */\n      tag_386\n      jump\t// in\n    tag_393:\n        /* \"#utility.yul\":7683:7686   */\n      dup5\n        /* \"#utility.yul\":7679:7718   */\n      add\n        /* \"#utility.yul\":7672:7718   */\n      swap2\n      pop\n        /* \"#utility.yul\":7452:7724   */\n      pop\n      swap3\n      swap2\n      pop\n      pop\n      jump\t// out\n        /* \"#utility.yul\":7730:8096   */\n    tag_394:\n        /* \"#utility.yul\":7872:7875   */\n      0x00\n        /* \"#utility.yul\":7893:7960   */\n      tag_396\n        /* \"#utility.yul\":7957:7959   */\n      0x0d\n        /* \"#utility.yul\":7952:7955   */\n      dup4\n        /* \"#utility.yul\":7893:7960   */\n      tag_391\n      jump\t// in\n    tag_396:\n        /* \"#utility.yul\":7886:7960   */\n      swap2\n      pop\n        /* \"#utility.yul\":7969:8062   */\n      tag_397\n        /* \"#utility.yul\":8058:8061   */\n      dup3\n        /* \"#utility.yul\":7969:8062   */\n      tag_398\n      jump\t// in\n    tag_397:\n        /* \"#utility.yul\":8087:8089   */\n      0x20\n        /* \"#utility.yul\":8082:8085   */\n      dup3\n        /* \"#utility.yul\":8078:8090   */\n      add\n        /* \"#utility.yul\":8071:8090   */\n      swap1\n      pop\n        /* \"#utility.yul\":7876:8096   */\n      swap2\n      swap1\n      pop\n      jump\t// out\n        /* \"#utility.yul\":8102:8467   */\n    tag_399:\n        /* \"#utility.yul\":8244:8247   */\n      0x00\n        /* \"#utility.yul\":8265:8331   */\n      tag_401\n        /* \"#utility.yul\":8329:8330   */\n      0x09\n        /* \"#utility.yul\":8324:8327   */\n      dup4\n        /* \"#utility.yul\":8265:8331   */\n      tag_391\n      jump\t// in\n    tag_401:\n        /* \"#utility.yul\":8258:8331   */\n      swap2\n      pop\n        /* \"#utility.yul\":8340:8433   */\n      tag_402\n        /* \"#utility.yul\":8429:8432   */\n      dup3\n        /* \"#utility.yul\":8340:8433   */\n      tag_403\n      jump\t// in\n    tag_402:\n        /* \"#utility.yul\":8458:8460   */\n      0x20\n        /* \"#utility.yul\":8453:8456   */\n      dup3\n        /* \"#utility.yul\":8449:8461   */\n      add\n        /* \"#utility.yul\":8442:8461   */\n      swap1\n      pop\n        /* \"#utility.yul\":8248:8467   */\n      swap2\n      swap1\n      pop\n      jump\t// out\n        /* \"#utility.yul\":8473:8839   */\n    tag_404:\n        /* \"#utility.yul\":8615:8618   */\n      0x00\n        /* \"#utility.yul\":8636:8703   */\n      tag_406\n        /* \"#utility.yul\":8700:8702   */\n      0x1d\n        /* \"#utility.yul\":8695:8698   */\n      dup4\n        /* \"#utility.yul\":8636:8703   */\n      tag_391\n      jump\t// in\n    tag_406:\n        /* \"#utility.yul\":8629:8703   */\n      swap2\n      pop\n        /* \"#utility.yul\":8712:8805   */\n      tag_407\n        /* \"#utility.yul\":8801:8804   */\n      dup3\n        /* \"#utility.yul\":8712:8805   */\n      tag_408\n      jump\t// in\n    tag_407:\n        /* \"#utility.yul\":8830:8832   */\n      0x20\n        /* \"#utility.yul\":8825:8828   */\n      dup3\n        /* \"#utility.yul\":8821:8833   */\n      add\n        /* \"#utility.yul\":8814:8833   */\n      swap1\n      pop\n        /* \"#utility.yul\":8619:8839   */\n      swap2\n      swap1\n      pop\n      jump\t// out\n        /* \"#utility.yul\":8845:9211   */\n    tag_409:\n        /* \"#utility.yul\":8987:8990   */\n      0x00\n        /* \"#utility.yul\":9008:9075   */\n      tag_411\n        /* \"#utility.yul\":9072:9074   */\n      0x24\n        /* \"#utility.yul\":9067:9070   */\n      dup4\n        /* \"#utility.yul\":9008:9075   */\n      tag_391\n      jump\t// in\n    tag_411:\n        /* \"#utility.yul\":9001:9075   */\n      swap2\n      pop\n        /* \"#utility.yul\":9084:9177   */\n      tag_412\n        /* \"#utility.yul\":9173:9176   */\n      dup3\n        /* \"#utility.yul\":9084:9177   */\n      tag_413\n      jump\t// in\n    tag_412:\n        /* \"#utility.yul\":9202:9204   */\n      0x40\n        /* \"#utility.yul\":9197:9200   */\n      dup3\n        /* \"#utility.yul\":9193:9205   */\n      add\n        /* \"#utility.yul\":9186:9205   */\n      swap1\n      pop\n        /* \"#utility.yul\":8991:9211   */\n      swap2\n      swap1\n      pop\n      jump\t// out\n        /* \"#utility.yul\":9217:9583   */\n    tag_414:\n        /* \"#utility.yul\":9359:9362   */\n      0x00\n        /* \"#utility.yul\":9380:9447   */\n      tag_416\n        /* \"#utility.yul\":9444:9446   */\n      0x1f\n        /* \"#utility.yul\":9439:9442   */\n      dup4\n        /* \"#utility.yul\":9380:9447   */\n      tag_391\n      jump\t// in\n    tag_416:\n        /* \"#utility.yul\":9373:9447   */\n      swap2\n      pop\n        /* \"#utility.yul\":9456:9549   */\n      tag_417\n        /* \"#utility.yul\":9545:9548   */\n      dup3\n        /* \"#utility.yul\":9456:9549   */\n      tag_418\n      jump\t// in\n    tag_417:\n        /* \"#utility.yul\":9574:9576   */\n      0x20\n        /* \"#utility.yul\":9569:9572   */\n      dup3\n        /* \"#utility.yul\":9565:9577   */\n      add\n        /* \"#utility.yul\":9558:9577   */\n      swap1\n      pop\n        /* \"#utility.yul\":9363:9583   */\n      swap2\n      swap1\n      pop\n      jump\t// out\n        /* \"#utility.yul\":9589:9955   */\n    tag_419:\n        /* \"#utility.yul\":9731:9734   */\n      0x00\n        /* \"#utility.yul\":9752:9819   */\n      tag_421\n        /* \"#utility.yul\":9816:9818   */\n      0x15\n        /* \"#utility.yul\":9811:9814   */\n      dup4\n        /* \"#utility.yul\":9752:9819   */\n      tag_391\n      jump\t// in\n    tag_421:\n        /* \"#utility.yul\":9745:9819   */\n      swap2\n      pop\n        /* \"#utility.yul\":9828:9921   */\n      tag_422\n        /* \"#utility.yul\":9917:9920   */\n      dup3\n        /* \"#utility.yul\":9828:9921   */\n      tag_423\n      jump\t// in\n    tag_422:\n        /* \"#utility.yul\":9946:9948   */\n      0x20\n        /* \"#utility.yul\":9941:9944   */\n      dup3\n        /* \"#utility.yul\":9937:9949   */\n      add\n        /* \"#utility.yul\":9930:9949   */\n      swap1\n      pop\n        /* \"#utility.yul\":9735:9955   */\n      swap2\n      swap1\n      pop\n      jump\t// out\n        /* \"#utility.yul\":9961:10327   */\n    tag_424:\n        /* \"#utility.yul\":10103:10106   */\n      0x00\n        /* \"#utility.yul\":10124:10191   */\n      tag_426\n        /* \"#utility.yul\":10188:10190   */\n      0x23\n        /* \"#utility.yul\":10183:10186   */\n      dup4\n        /* \"#utility.yul\":10124:10191   */\n      tag_391\n      jump\t// in\n    tag_426:\n        /* \"#utility.yul\":10117:10191   */\n      swap2\n      pop\n        /* \"#utility.yul\":10200:10293   */\n      tag_427\n        /* \"#utility.yul\":10289:10292   */\n      dup3\n        /* \"#utility.yul\":10200:10293   */\n      tag_428\n      jump\t// in\n    tag_427:\n        /* \"#utility.yul\":10318:10320   */\n      0x40\n        /* \"#utility.yul\":10313:10316   */\n      dup3\n        /* \"#utility.yul\":10309:10321   */\n      add\n        /* \"#utility.yul\":10302:10321   */\n      swap1\n      pop\n        /* \"#utility.yul\":10107:10327   */\n      swap2\n      swap1\n      pop\n      jump\t// out\n        /* \"#utility.yul\":10333:10699   */\n    tag_429:\n        /* \"#utility.yul\":10475:10478   */\n      0x00\n        /* \"#utility.yul\":10496:10563   */\n      tag_431\n        /* \"#utility.yul\":10560:10562   */\n      0x1a\n        /* \"#utility.yul\":10555:10558   */\n      dup4\n        /* \"#utility.yul\":10496:10563   */\n      tag_391\n      jump\t// in\n    tag_431:\n        /* \"#utility.yul\":10489:10563   */\n      swap2\n      pop\n        /* \"#utility.yul\":10572:10665   */\n      tag_432\n        /* \"#utility.yul\":10661:10664   */\n      dup3\n        /* \"#utility.yul\":10572:10665   */\n      tag_433\n      jump\t// in\n    tag_432:\n        /* \"#utility.yul\":10690:10692   */\n      0x20\n        /* \"#utility.yul\":10685:10688   */\n      dup3\n        /* \"#utility.yul\":10681:10693   */\n      add\n        /* \"#utility.yul\":10674:10693   */\n      swap1\n      pop\n        /* \"#utility.yul\":10479:10699   */\n      swap2\n      swap1\n      pop\n      jump\t// out\n        /* \"#utility.yul\":10705:11071   */\n    tag_434:\n        /* \"#utility.yul\":10847:10850   */\n      0x00\n        /* \"#utility.yul\":10868:10935   */\n      tag_436\n        /* \"#utility.yul\":10932:10934   */\n      0x23\n        /* \"#utility.yul\":10927:10930   */\n      dup4\n        /* \"#utility.yul\":10868:10935   */\n      tag_391\n      jump\t// in\n    tag_436:\n        /* \"#utility.yul\":10861:10935   */\n      swap2\n      pop\n        /* \"#utility.yul\":10944:11037   */\n      tag_437\n        /* \"#utility.yul\":11033:11036   */\n      dup3\n        /* \"#utility.yul\":10944:11037   */\n      tag_438\n      jump\t// in\n    tag_437:\n        /* \"#utility.yul\":11062:11064   */\n      0x40\n        /* \"#utility.yul\":11057:11060   */\n      dup3\n        /* \"#utility.yul\":11053:11065   */\n      add\n        /* \"#utility.yul\":11046:11065   */\n      swap1\n      pop\n        /* \"#utility.yul\":10851:11071   */\n      swap2\n      swap1\n      pop\n      jump\t// out\n        /* \"#utility.yul\":11077:11185   */\n    tag_325:\n        /* \"#utility.yul\":11154:11178   */\n      tag_440\n        /* \"#utility.yul\":11172:11177   */\n      dup2\n        /* \"#utility.yul\":11154:11178   */\n      tag_441\n      jump\t// in\n    tag_440:\n        /* \"#utility.yul\":11149:11152   */\n      dup3\n        /* \"#utility.yul\":11142:11179   */\n      mstore\n        /* \"#utility.yul\":11132:11185   */\n      pop\n      pop\n      jump\t// out\n        /* \"#utility.yul\":11191:11309   */\n    tag_442:\n        /* \"#utility.yul\":11278:11302   */\n      tag_444\n        /* \"#utility.yul\":11296:11301   */\n      dup2\n        /* \"#utility.yul\":11278:11302   */\n      tag_441\n      jump\t// in\n    tag_444:\n        /* \"#utility.yul\":11273:11276   */\n      dup3\n        /* \"#utility.yul\":11266:11303   */\n      mstore\n        /* \"#utility.yul\":11256:11309   */\n      pop\n      pop\n      jump\t// out\n        /* \"#utility.yul\":11315:11537   */\n    tag_72:\n        /* \"#utility.yul\":11408:11412   */\n      0x00\n        /* \"#utility.yul\":11446:11448   */\n      0x20\n        /* \"#utility.yul\":11435:11444   */\n      dup3\n        /* \"#utility.yul\":11431:11449   */\n      add\n        /* \"#utility.yul\":11423:11449   */\n      swap1\n      pop\n        /* \"#utility.yul\":11459:11530   */\n      tag_446\n        /* \"#utility.yul\":11527:11528   */\n      0x00\n        /* \"#utility.yul\":11516:11525   */\n      dup4\n        /* \"#utility.yul\":11512:11529   */\n      add\n        /* \"#utility.yul\":11503:11509   */\n      dup5\n        /* \"#utility.yul\":11459:11530   */\n      tag_329\n      jump\t// in\n    tag_446:\n        /* \"#utility.yul\":11413:11537   */\n      swap3\n      swap2\n      pop\n      pop\n      jump\t// out\n        /* \"#utility.yul\":11543:11985   */\n    tag_107:\n        /* \"#utility.yul\":11692:11696   */\n      0x00\n        /* \"#utility.yul\":11730:11732   */\n      0x60\n        /* \"#utility.yul\":11719:11728   */\n      dup3\n        /* \"#utility.yul\":11715:11733   */\n      add\n        /* \"#utility.yul\":11707:11733   */\n      swap1\n      pop\n        /* \"#utility.yul\":11743:11814   */\n      tag_448\n        /* \"#utility.yul\":11811:11812   */\n      0x00\n        /* \"#utility.yul\":11800:11809   */\n      dup4\n        /* \"#utility.yul\":11796:11813   */\n      add\n        /* \"#utility.yul\":11787:11793   */\n      dup7\n        /* \"#utility.yul\":11743:11814   */\n      tag_329\n      jump\t// in\n    tag_448:\n        /* \"#utility.yul\":11824:11896   */\n      tag_449\n        /* \"#utility.yul\":11892:11894   */\n      0x20\n        /* \"#utility.yul\":11881:11890   */\n      dup4\n        /* \"#utility.yul\":11877:11895   */\n      add\n        /* \"#utility.yul\":11868:11874   */\n      dup6\n        /* \"#utility.yul\":11824:11896   */\n      tag_329\n      jump\t// in\n    tag_449:\n        /* \"#utility.yul\":11906:11978   */\n      tag_450\n        /* \"#utility.yul\":11974:11976   */\n      0x40\n        /* \"#utility.yul\":11963:11972   */\n      dup4\n        /* \"#utility.yul\":11959:11977   */\n      add\n        /* \"#utility.yul\":11950:11956   */\n      dup5\n        /* \"#utility.yul\":11906:11978   */\n      tag_442\n      jump\t// in\n    tag_450:\n        /* \"#utility.yul\":11697:11985   */\n      swap5\n      swap4\n      pop\n      pop\n      pop\n      pop\n      jump\t// out\n        /* \"#utility.yul\":11991:12926   */\n    tag_59:\n        /* \"#utility.yul\":12310:12314   */\n      0x00\n        /* \"#utility.yul\":12348:12350   */\n      0x60\n        /* \"#utility.yul\":12337:12346   */\n      dup3\n        /* \"#utility.yul\":12333:12351   */\n      add\n        /* \"#utility.yul\":12325:12351   */\n      swap1\n      pop\n        /* \"#utility.yul\":12397:12406   */\n      dup2\n        /* \"#utility.yul\":12391:12395   */\n      dup2\n        /* \"#utility.yul\":12387:12407   */\n      sub\n        /* \"#utility.yul\":12383:12384   */\n      0x00\n        /* \"#utility.yul\":12372:12381   */\n      dup4\n        /* \"#utility.yul\":12368:12385   */\n      add\n        /* \"#utility.yul\":12361:12408   */\n      mstore\n        /* \"#utility.yul\":12425:12533   */\n      tag_452\n        /* \"#utility.yul\":12528:12532   */\n      dup2\n        /* \"#utility.yul\":12519:12525   */\n      dup7\n        /* \"#utility.yul\":12425:12533   */\n      tag_332\n      jump\t// in\n    tag_452:\n        /* \"#utility.yul\":12417:12533   */\n      swap1\n      pop\n        /* \"#utility.yul\":12580:12589   */\n      dup2\n        /* \"#utility.yul\":12574:12578   */\n      dup2\n        /* \"#utility.yul\":12570:12590   */\n      sub\n        /* \"#utility.yul\":12565:12567   */\n      0x20\n        /* \"#utility.yul\":12554:12563   */\n      dup4\n        /* \"#utility.yul\":12550:12568   */\n      add\n        /* \"#utility.yul\":12543:12591   */\n      mstore\n        /* \"#utility.yul\":12608:12736   */\n      tag_453\n        /* \"#utility.yul\":12731:12735   */\n      dup2\n        /* \"#utility.yul\":12722:12728   */\n      dup6\n        /* \"#utility.yul\":12608:12736   */\n      tag_346\n      jump\t// in\n    tag_453:\n        /* \"#utility.yul\":12600:12736   */\n      swap1\n      pop\n        /* \"#utility.yul\":12783:12792   */\n      dup2\n        /* \"#utility.yul\":12777:12781   */\n      dup2\n        /* \"#utility.yul\":12773:12793   */\n      sub\n        /* \"#utility.yul\":12768:12770   */\n      0x40\n        /* \"#utility.yul\":12757:12766   */\n      dup4\n        /* \"#utility.yul\":12753:12771   */\n      add\n        /* \"#utility.yul\":12746:12794   */\n      mstore\n        /* \"#utility.yul\":12811:12919   */\n      tag_454\n        /* \"#utility.yul\":12914:12918   */\n      dup2\n        /* \"#utility.yul\":12905:12911   */\n      dup5\n        /* \"#utility.yul\":12811:12919   */\n      tag_360\n      jump\t// in\n    tag_454:\n        /* \"#utility.yul\":12803:12919   */\n      swap1\n      pop\n        /* \"#utility.yul\":12315:12926   */\n      swap5\n      swap4\n      pop\n      pop\n      pop\n      pop\n      jump\t// out\n        /* \"#utility.yul\":12932:13142   */\n    tag_86:\n        /* \"#utility.yul\":13019:13023   */\n      0x00\n        /* \"#utility.yul\":13057:13059   */\n      0x20\n        /* \"#utility.yul\":13046:13055   */\n      dup3\n        /* \"#utility.yul\":13042:13060   */\n      add\n        /* \"#utility.yul\":13034:13060   */\n      swap1\n      pop\n        /* \"#utility.yul\":13070:13135   */\n      tag_456\n        /* \"#utility.yul\":13132:13133   */\n      0x00\n        /* \"#utility.yul\":13121:13130   */\n      dup4\n        /* \"#utility.yul\":13117:13134   */\n      add\n        /* \"#utility.yul\":13108:13114   */\n      dup5\n        /* \"#utility.yul\":13070:13135   */\n      tag_374\n      jump\t// in\n    tag_456:\n        /* \"#utility.yul\":13024:13142   */\n      swap3\n      swap2\n      pop\n      pop\n      jump\t// out\n        /* \"#utility.yul\":13148:13461   */\n    tag_25:\n        /* \"#utility.yul\":13261:13265   */\n      0x00\n        /* \"#utility.yul\":13299:13301   */\n      0x20\n        /* \"#utility.yul\":13288:13297   */\n      dup3\n        /* \"#utility.yul\":13284:13302   */\n      add\n        /* \"#utility.yul\":13276:13302   */\n      swap1\n      pop\n        /* \"#utility.yul\":13348:13357   */\n      dup2\n        /* \"#utility.yul\":13342:13346   */\n      dup2\n        /* \"#utility.yul\":13338:13358   */\n      sub\n        /* \"#utility.yul\":13334:13335   */\n      0x00\n        /* \"#utility.yul\":13323:13332   */\n      dup4\n        /* \"#utility.yul\":13319:13336   */\n      add\n        /* \"#utility.yul\":13312:13359   */\n      mstore\n        /* \"#utility.yul\":13376:13454   */\n      tag_458\n        /* \"#utility.yul\":13449:13453   */\n      dup2\n        /* \"#utility.yul\":13440:13446   */\n      dup5\n        /* \"#utility.yul\":13376:13454   */\n      tag_387\n      jump\t// in\n    tag_458:\n        /* \"#utility.yul\":13368:13454   */\n      swap1\n      pop\n        /* \"#utility.yul\":13266:13461   */\n      swap3\n      swap2\n      pop\n      pop\n      jump\t// out\n        /* \"#utility.yul\":13467:13886   */\n    tag_115:\n        /* \"#utility.yul\":13633:13637   */\n      0x00\n        /* \"#utility.yul\":13671:13673   */\n      0x20\n        /* \"#utility.yul\":13660:13669   */\n      dup3\n        /* \"#utility.yul\":13656:13674   */\n      add\n        /* \"#utility.yul\":13648:13674   */\n      swap1\n      pop\n        /* \"#utility.yul\":13720:13729   */\n      dup2\n        /* \"#utility.yul\":13714:13718   */\n      dup2\n        /* \"#utility.yul\":13710:13730   */\n      sub\n        /* \"#utility.yul\":13706:13707   */\n      0x00\n        /* \"#utility.yul\":13695:13704   */\n      dup4\n        /* \"#utility.yul\":13691:13708   */\n      add\n        /* \"#utility.yul\":13684:13731   */\n      mstore\n        /* \"#utility.yul\":13748:13879   */\n      tag_460\n        /* \"#utility.yul\":13874:13878   */\n      dup2\n        /* \"#utility.yul\":13748:13879   */\n      tag_394\n      jump\t// in\n    tag_460:\n        /* \"#utility.yul\":13740:13879   */\n      swap1\n      pop\n        /* \"#utility.yul\":13638:13886   */\n      swap2\n      swap1\n      pop\n      jump\t// out\n        /* \"#utility.yul\":13892:14311   */\n    tag_181:\n        /* \"#utility.yul\":14058:14062   */\n      0x00\n        /* \"#utility.yul\":14096:14098   */\n      0x20\n        /* \"#utility.yul\":14085:14094   */\n      dup3\n        /* \"#utility.yul\":14081:14099   */\n      add\n        /* \"#utility.yul\":14073:14099   */\n      swap1\n      pop\n        /* \"#utility.yul\":14145:14154   */\n      dup2\n        /* \"#utility.yul\":14139:14143   */\n      dup2\n        /* \"#utility.yul\":14135:14155   */\n      sub\n        /* \"#utility.yul\":14131:14132   */\n      0x00\n        /* \"#utility.yul\":14120:14129   */\n      dup4\n        /* \"#utility.yul\":14116:14133   */\n      add\n        /* \"#utility.yul\":14109:14156   */\n      mstore\n        /* \"#utility.yul\":14173:14304   */\n      tag_462\n        /* \"#utility.yul\":14299:14303   */\n      dup2\n        /* \"#utility.yul\":14173:14304   */\n      tag_399\n      jump\t// in\n    tag_462:\n        /* \"#utility.yul\":14165:14304   */\n      swap1\n      pop\n        /* \"#utility.yul\":14063:14311   */\n      swap2\n      swap1\n      pop\n      jump\t// out\n        /* \"#utility.yul\":14317:14736   */\n    tag_98:\n        /* \"#utility.yul\":14483:14487   */\n      0x00\n        /* \"#utility.yul\":14521:14523   */\n      0x20\n        /* \"#utility.yul\":14510:14519   */\n      dup3\n        /* \"#utility.yul\":14506:14524   */\n      add\n        /* \"#utility.yul\":14498:14524   */\n      swap1\n      pop\n        /* \"#utility.yul\":14570:14579   */\n      dup2\n        /* \"#utility.yul\":14564:14568   */\n      dup2\n        /* \"#utility.yul\":14560:14580   */\n      sub\n        /* \"#utility.yul\":14556:14557   */\n      0x00\n        /* \"#utility.yul\":14545:14554   */\n      dup4\n        /* \"#utility.yul\":14541:14558   */\n      add\n        /* \"#utility.yul\":14534:14581   */\n      mstore\n        /* \"#utility.yul\":14598:14729   */\n      tag_464\n        /* \"#utility.yul\":14724:14728   */\n      dup2\n        /* \"#utility.yul\":14598:14729   */\n      tag_404\n      jump\t// in\n    tag_464:\n        /* \"#utility.yul\":14590:14729   */\n      swap1\n      pop\n        /* \"#utility.yul\":14488:14736   */\n      swap2\n      swap1\n      pop\n      jump\t// out\n        /* \"#utility.yul\":14742:15161   */\n    tag_169:\n        /* \"#utility.yul\":14908:14912   */\n      0x00\n        /* \"#utility.yul\":14946:14948   */\n      0x20\n        /* \"#utility.yul\":14935:14944   */\n      dup3\n        /* \"#utility.yul\":14931:14949   */\n      add\n        /* \"#utility.yul\":14923:14949   */\n      swap1\n      pop\n        /* \"#utility.yul\":14995:15004   */\n      dup2\n        /* \"#utility.yul\":14989:14993   */\n      dup2\n        /* \"#utility.yul\":14985:15005   */\n      sub\n        /* \"#utility.yul\":14981:14982   */\n      0x00\n        /* \"#utility.yul\":14970:14979   */\n      dup4\n        /* \"#utility.yul\":14966:14983   */\n      add\n        /* \"#utility.yul\":14959:15006   */\n      mstore\n        /* \"#utility.yul\":15023:15154   */\n      tag_466\n        /* \"#utility.yul\":15149:15153   */\n      dup2\n        /* \"#utility.yul\":15023:15154   */\n      tag_409\n      jump\t// in\n    tag_466:\n        /* \"#utility.yul\":15015:15154   */\n      swap1\n      pop\n        /* \"#utility.yul\":14913:15161   */\n      swap2\n      swap1\n      pop\n      jump\t// out\n        /* \"#utility.yul\":15167:15586   */\n    tag_198:\n        /* \"#utility.yul\":15333:15337   */\n      0x00\n        /* \"#utility.yul\":15371:15373   */\n      0x20\n        /* \"#utility.yul\":15360:15369   */\n      dup3\n        /* \"#utility.yul\":15356:15374   */\n      add\n        /* \"#utility.yul\":15348:15374   */\n      swap1\n      pop\n        /* \"#utility.yul\":15420:15429   */\n      dup2\n        /* \"#utility.yul\":15414:15418   */\n      dup2\n        /* \"#utility.yul\":15410:15430   */\n      sub\n        /* \"#utility.yul\":15406:15407   */\n      0x00\n        /* \"#utility.yul\":15395:15404   */\n      dup4\n        /* \"#utility.yul\":15391:15408   */\n      add\n        /* \"#utility.yul\":15384:15431   */\n      mstore\n        /* \"#utility.yul\":15448:15579   */\n      tag_468\n        /* \"#utility.yul\":15574:15578   */\n      dup2\n        /* \"#utility.yul\":15448:15579   */\n      tag_414\n      jump\t// in\n    tag_468:\n        /* \"#utility.yul\":15440:15579   */\n      swap1\n      pop\n        /* \"#utility.yul\":15338:15586   */\n      swap2\n      swap1\n      pop\n      jump\t// out\n        /* \"#utility.yul\":15592:16011   */\n    tag_173:\n        /* \"#utility.yul\":15758:15762   */\n      0x00\n        /* \"#utility.yul\":15796:15798   */\n      0x20\n        /* \"#utility.yul\":15785:15794   */\n      dup3\n        /* \"#utility.yul\":15781:15799   */\n      add\n        /* \"#utility.yul\":15773:15799   */\n      swap1\n      pop\n        /* \"#utility.yul\":15845:15854   */\n      dup2\n        /* \"#utility.yul\":15839:15843   */\n      dup2\n        /* \"#utility.yul\":15835:15855   */\n      sub\n        /* \"#utility.yul\":15831:15832   */\n      0x00\n        /* \"#utility.yul\":15820:15829   */\n      dup4\n        /* \"#utility.yul\":15816:15833   */\n      add\n        /* \"#utility.yul\":15809:15856   */\n      mstore\n        /* \"#utility.yul\":15873:16004   */\n      tag_470\n        /* \"#utility.yul\":15999:16003   */\n      dup2\n        /* \"#utility.yul\":15873:16004   */\n      tag_419\n      jump\t// in\n    tag_470:\n        /* \"#utility.yul\":15865:16004   */\n      swap1\n      pop\n        /* \"#utility.yul\":15763:16011   */\n      swap2\n      swap1\n      pop\n      jump\t// out\n        /* \"#utility.yul\":16017:16436   */\n    tag_189:\n        /* \"#utility.yul\":16183:16187   */\n      0x00\n        /* \"#utility.yul\":16221:16223   */\n      0x20\n        /* \"#utility.yul\":16210:16219   */\n      dup3\n        /* \"#utility.yul\":16206:16224   */\n      add\n        /* \"#utility.yul\":16198:16224   */\n      swap1\n      pop\n        /* \"#utility.yul\":16270:16279   */\n      dup2\n        /* \"#utility.yul\":16264:16268   */\n      dup2\n        /* \"#utility.yul\":16260:16280   */\n      sub\n        /* \"#utility.yul\":16256:16257   */\n      0x00\n        /* \"#utility.yul\":16245:16254   */\n      dup4\n        /* \"#utility.yul\":16241:16258   */\n      add\n        /* \"#utility.yul\":16234:16281   */\n      mstore\n        /* \"#utility.yul\":16298:16429   */\n      tag_472\n        /* \"#utility.yul\":16424:16428   */\n      dup2\n        /* \"#utility.yul\":16298:16429   */\n      tag_424\n      jump\t// in\n    tag_472:\n        /* \"#utility.yul\":16290:16429   */\n      swap1\n      pop\n        /* \"#utility.yul\":16188:16436   */\n      swap2\n      swap1\n      pop\n      jump\t// out\n        /* \"#utility.yul\":16442:16861   */\n    tag_201:\n        /* \"#utility.yul\":16608:16612   */\n      0x00\n        /* \"#utility.yul\":16646:16648   */\n      0x20\n        /* \"#utility.yul\":16635:16644   */\n      dup3\n        /* \"#utility.yul\":16631:16649   */\n      add\n        /* \"#utility.yul\":16623:16649   */\n      swap1\n      pop\n        /* \"#utility.yul\":16695:16704   */\n      dup2\n        /* \"#utility.yul\":16689:16693   */\n      dup2\n        /* \"#utility.yul\":16685:16705   */\n      sub\n        /* \"#utility.yul\":16681:16682   */\n      0x00\n        /* \"#utility.yul\":16670:16679   */\n      dup4\n        /* \"#utility.yul\":16666:16683   */\n      add\n        /* \"#utility.yul\":16659:16706   */\n      mstore\n        /* \"#utility.yul\":16723:16854   */\n      tag_474\n        /* \"#utility.yul\":16849:16853   */\n      dup2\n        /* \"#utility.yul\":16723:16854   */\n      tag_429\n      jump\t// in\n    tag_474:\n        /* \"#utility.yul\":16715:16854   */\n      swap1\n      pop\n        /* \"#utility.yul\":16613:16861   */\n      swap2\n      swap1\n      pop\n      jump\t// out\n        /* \"#utility.yul\":16867:17286   */\n    tag_101:\n        /* \"#utility.yul\":17033:17037   */\n      0x00\n        /* \"#utility.yul\":17071:17073   */\n      0x20\n        /* \"#utility.yul\":17060:17069   */\n      dup3\n        /* \"#utility.yul\":17056:17074   */\n      add\n        /* \"#utility.yul\":17048:17074   */\n      swap1\n      pop\n        /* \"#utility.yul\":17120:17129   */\n      dup2\n        /* \"#utility.yul\":17114:17118   */\n      dup2\n        /* \"#utility.yul\":17110:17130   */\n      sub\n        /* \"#utility.yul\":17106:17107   */\n      0x00\n        /* \"#utility.yul\":17095:17104   */\n      dup4\n        /* \"#utility.yul\":17091:17108   */\n      add\n        /* \"#utility.yul\":17084:17131   */\n      mstore\n        /* \"#utility.yul\":17148:17279   */\n      tag_476\n        /* \"#utility.yul\":17274:17278   */\n      dup2\n        /* \"#utility.yul\":17148:17279   */\n      tag_434\n      jump\t// in\n    tag_476:\n        /* \"#utility.yul\":17140:17279   */\n      swap1\n      pop\n        /* \"#utility.yul\":17038:17286   */\n      swap2\n      swap1\n      pop\n      jump\t// out\n        /* \"#utility.yul\":17292:17514   */\n    tag_33:\n        /* \"#utility.yul\":17385:17389   */\n      0x00\n        /* \"#utility.yul\":17423:17425   */\n      0x20\n        /* \"#utility.yul\":17412:17421   */\n      dup3\n        /* \"#utility.yul\":17408:17426   */\n      add\n        /* \"#utility.yul\":17400:17426   */\n      swap1\n      pop\n        /* \"#utility.yul\":17436:17507   */\n      tag_478\n        /* \"#utility.yul\":17504:17505   */\n      0x00\n        /* \"#utility.yul\":17493:17502   */\n      dup4\n        /* \"#utility.yul\":17489:17506   */\n      add\n        /* \"#utility.yul\":17480:17486   */\n      dup5\n        /* \"#utility.yul\":17436:17507   */\n      tag_442\n      jump\t// in\n    tag_478:\n        /* \"#utility.yul\":17390:17514   */\n      swap3\n      swap2\n      pop\n      pop\n      jump\t// out\n        /* \"#utility.yul\":17520:17649   */\n    tag_263:\n        /* \"#utility.yul\":17554:17560   */\n      0x00\n        /* \"#utility.yul\":17581:17601   */\n      tag_480\n      tag_481\n      jump\t// in\n    tag_480:\n        /* \"#utility.yul\":17571:17601   */\n      swap1\n      pop\n        /* \"#utility.yul\":17610:17643   */\n      tag_482\n        /* \"#utility.yul\":17638:17642   */\n      dup3\n        /* \"#utility.yul\":17630:17636   */\n      dup3\n        /* \"#utility.yul\":17610:17643   */\n      tag_483\n      jump\t// in\n    tag_482:\n        /* \"#utility.yul\":17561:17649   */\n      swap2\n      swap1\n      pop\n      jump\t// out\n        /* \"#utility.yul\":17655:17730   */\n    tag_481:\n        /* \"#utility.yul\":17688:17694   */\n      0x00\n        /* \"#utility.yul\":17721:17723   */\n      0x40\n        /* \"#utility.yul\":17715:17724   */\n      mload\n        /* \"#utility.yul\":17705:17724   */\n      swap1\n      pop\n        /* \"#utility.yul\":17695:17730   */\n      swap1\n      jump\t// out\n        /* \"#utility.yul\":17736:18044   */\n    tag_262:\n        /* \"#utility.yul\":17798:17802   */\n      0x00\n        /* \"#utility.yul\":17888:17906   */\n      0xffffffffffffffff\n        /* \"#utility.yul\":17880:17886   */\n      dup3\n        /* \"#utility.yul\":17877:17907   */\n      gt\n        /* \"#utility.yul\":17874:17876   */\n      iszero\n      tag_486\n      jumpi\n        /* \"#utility.yul\":17910:17928   */\n      tag_487\n      tag_128\n      jump\t// in\n    tag_487:\n        /* \"#utility.yul\":17874:17876   */\n    tag_486:\n        /* \"#utility.yul\":17948:17977   */\n      tag_488\n        /* \"#utility.yul\":17970:17976   */\n      dup3\n        /* \"#utility.yul\":17948:17977   */\n      tag_386\n      jump\t// in\n    tag_488:\n        /* \"#utility.yul\":17940:17977   */\n      swap1\n      pop\n        /* \"#utility.yul\":18032:18036   */\n      0x20\n        /* \"#utility.yul\":18026:18030   */\n      dup2\n        /* \"#utility.yul\":18022:18037   */\n      add\n        /* \"#utility.yul\":18014:18037   */\n      swap1\n      pop\n        /* \"#utility.yul\":17803:18044   */\n      swap2\n      swap1\n      pop\n      jump\t// out\n        /* \"#utility.yul\":18050:18182   */\n    tag_339:\n        /* \"#utility.yul\":18117:18121   */\n      0x00\n        /* \"#utility.yul\":18140:18143   */\n      dup2\n        /* \"#utility.yul\":18132:18143   */\n      swap1\n      pop\n        /* \"#utility.yul\":18170:18174   */\n      0x20\n        /* \"#utility.yul\":18165:18168   */\n      dup3\n        /* \"#utility.yul\":18161:18175   */\n      add\n        /* \"#utility.yul\":18153:18175   */\n      swap1\n      pop\n        /* \"#utility.yul\":18122:18182   */\n      swap2\n      swap1\n      pop\n      jump\t// out\n        /* \"#utility.yul\":18188:18330   */\n    tag_353:\n        /* \"#utility.yul\":18265:18269   */\n      0x00\n        /* \"#utility.yul\":18288:18291   */\n      dup2\n        /* \"#utility.yul\":18280:18291   */\n      swap1\n      pop\n        /* \"#utility.yul\":18318:18322   */\n      0x20\n        /* \"#utility.yul\":18313:18316   */\n      dup3\n        /* \"#utility.yul\":18309:18323   */\n      add\n        /* \"#utility.yul\":18301:18323   */\n      swap1\n      pop\n        /* \"#utility.yul\":18270:18330   */\n      swap2\n      swap1\n      pop\n      jump\t// out\n        /* \"#utility.yul\":18336:18468   */\n    tag_367:\n        /* \"#utility.yul\":18403:18407   */\n      0x00\n        /* \"#utility.yul\":18426:18429   */\n      dup2\n        /* \"#utility.yul\":18418:18429   */\n      swap1\n      pop\n        /* \"#utility.yul\":18456:18460   */\n      0x20\n        /* \"#utility.yul\":18451:18454   */\n      dup3\n        /* \"#utility.yul\":18447:18461   */\n      add\n        /* \"#utility.yul\":18439:18461   */\n      swap1\n      pop\n        /* \"#utility.yul\":18408:18468   */\n      swap2\n      swap1\n      pop\n      jump\t// out\n        /* \"#utility.yul\":18474:18588   */\n    tag_335:\n        /* \"#utility.yul\":18541:18547   */\n      0x00\n        /* \"#utility.yul\":18575:18580   */\n      dup2\n        /* \"#utility.yul\":18569:18581   */\n      mload\n        /* \"#utility.yul\":18559:18581   */\n      swap1\n      pop\n        /* \"#utility.yul\":18548:18588   */\n      swap2\n      swap1\n      pop\n      jump\t// out\n        /* \"#utility.yul\":18594:18718   */\n    tag_349:\n        /* \"#utility.yul\":18671:18677   */\n      0x00\n        /* \"#utility.yul\":18705:18710   */\n      dup2\n        /* \"#utility.yul\":18699:18711   */\n      mload\n        /* \"#utility.yul\":18689:18711   */\n      swap1\n      pop\n        /* \"#utility.yul\":18678:18718   */\n      swap2\n      swap1\n      pop\n      jump\t// out\n        /* \"#utility.yul\":18724:18838   */\n    tag_363:\n        /* \"#utility.yul\":18791:18797   */\n      0x00\n        /* \"#utility.yul\":18825:18830   */\n      dup2\n        /* \"#utility.yul\":18819:18831   */\n      mload\n        /* \"#utility.yul\":18809:18831   */\n      swap1\n      pop\n        /* \"#utility.yul\":18798:18838   */\n      swap2\n      swap1\n      pop\n      jump\t// out\n        /* \"#utility.yul\":18844:18943   */\n    tag_380:\n        /* \"#utility.yul\":18896:18902   */\n      0x00\n        /* \"#utility.yul\":18930:18935   */\n      dup2\n        /* \"#utility.yul\":18924:18936   */\n      mload\n        /* \"#utility.yul\":18914:18936   */\n      swap1\n      pop\n        /* \"#utility.yul\":18903:18943   */\n      swap2\n      swap1\n      pop\n      jump\t// out\n        /* \"#utility.yul\":18949:19062   */\n    tag_345:\n        /* \"#utility.yul\":19019:19023   */\n      0x00\n        /* \"#utility.yul\":19051:19055   */\n      0x20\n        /* \"#utility.yul\":19046:19049   */\n      dup3\n        /* \"#utility.yul\":19042:19056   */\n      add\n        /* \"#utility.yul\":19034:19056   */\n      swap1\n      pop\n        /* \"#utility.yul\":19024:19062   */\n      swap2\n      swap1\n      pop\n      jump\t// out\n        /* \"#utility.yul\":19068:19191   */\n    tag_359:\n        /* \"#utility.yul\":19148:19152   */\n      0x00\n        /* \"#utility.yul\":19180:19184   */\n      0x20\n        /* \"#utility.yul\":19175:19178   */\n      dup3\n        /* \"#utility.yul\":19171:19185   */\n      add\n        /* \"#utility.yul\":19163:19185   */\n      swap1\n      pop\n        /* \"#utility.yul\":19153:19191   */\n      swap2\n      swap1\n      pop\n      jump\t// out\n        /* \"#utility.yul\":19197:19310   */\n    tag_373:\n        /* \"#utility.yul\":19267:19271   */\n      0x00\n        /* \"#utility.yul\":19299:19303   */\n      0x20\n        /* \"#utility.yul\":19294:19297   */\n      dup3\n        /* \"#utility.yul\":19290:19304   */\n      add\n        /* \"#utility.yul\":19282:19304   */\n      swap1\n      pop\n        /* \"#utility.yul\":19272:19310   */\n      swap2\n      swap1\n      pop\n      jump\t// out\n        /* \"#utility.yul\":19316:19500   */\n    tag_337:\n        /* \"#utility.yul\":19415:19426   */\n      0x00\n        /* \"#utility.yul\":19449:19455   */\n      dup3\n        /* \"#utility.yul\":19444:19447   */\n      dup3\n        /* \"#utility.yul\":19437:19456   */\n      mstore\n        /* \"#utility.yul\":19489:19493   */\n      0x20\n        /* \"#utility.yul\":19484:19487   */\n      dup3\n        /* \"#utility.yul\":19480:19494   */\n      add\n        /* \"#utility.yul\":19465:19494   */\n      swap1\n      pop\n        /* \"#utility.yul\":19427:19500   */\n      swap3\n      swap2\n      pop\n      pop\n      jump\t// out\n        /* \"#utility.yul\":19506:19700   */\n    tag_351:\n        /* \"#utility.yul\":19615:19626   */\n      0x00\n        /* \"#utility.yul\":19649:19655   */\n      dup3\n        /* \"#utility.yul\":19644:19647   */\n      dup3\n        /* \"#utility.yul\":19637:19656   */\n      mstore\n        /* \"#utility.yul\":19689:19693   */\n      0x20\n        /* \"#utility.yul\":19684:19687   */\n      dup3\n        /* \"#utility.yul\":19680:19694   */\n      add\n        /* \"#utility.yul\":19665:19694   */\n      swap1\n      pop\n        /* \"#utility.yul\":19627:19700   */\n      swap3\n      swap2\n      pop\n      pop\n      jump\t// out\n        /* \"#utility.yul\":19706:19890   */\n    tag_365:\n        /* \"#utility.yul\":19805:19816   */\n      0x00\n        /* \"#utility.yul\":19839:19845   */\n      dup3\n        /* \"#utility.yul\":19834:19837   */\n      dup3\n        /* \"#utility.yul\":19827:19846   */\n      mstore\n        /* \"#utility.yul\":19879:19883   */\n      0x20\n        /* \"#utility.yul\":19874:19877   */\n      dup3\n        /* \"#utility.yul\":19870:19884   */\n      add\n        /* \"#utility.yul\":19855:19884   */\n      swap1\n      pop\n        /* \"#utility.yul\":19817:19890   */\n      swap3\n      swap2\n      pop\n      pop\n      jump\t// out\n        /* \"#utility.yul\":19896:20055   */\n    tag_382:\n        /* \"#utility.yul\":19970:19981   */\n      0x00\n        /* \"#utility.yul\":20004:20010   */\n      dup3\n        /* \"#utility.yul\":19999:20002   */\n      dup3\n        /* \"#utility.yul\":19992:20011   */\n      mstore\n        /* \"#utility.yul\":20044:20048   */\n      0x20\n        /* \"#utility.yul\":20039:20042   */\n      dup3\n        /* \"#utility.yul\":20035:20049   */\n      add\n        /* \"#utility.yul\":20020:20049   */\n      swap1\n      pop\n        /* \"#utility.yul\":19982:20055   */\n      swap3\n      swap2\n      pop\n      pop\n      jump\t// out\n        /* \"#utility.yul\":20061:20230   */\n    tag_391:\n        /* \"#utility.yul\":20145:20156   */\n      0x00\n        /* \"#utility.yul\":20179:20185   */\n      dup3\n        /* \"#utility.yul\":20174:20177   */\n      dup3\n        /* \"#utility.yul\":20167:20186   */\n      mstore\n        /* \"#utility.yul\":20219:20223   */\n      0x20\n        /* \"#utility.yul\":20214:20217   */\n      dup3\n        /* \"#utility.yul\":20210:20224   */\n      add\n        /* \"#utility.yul\":20195:20224   */\n      swap1\n      pop\n        /* \"#utility.yul\":20157:20230   */\n      swap3\n      swap2\n      pop\n      pop\n      jump\t// out\n        /* \"#utility.yul\":20236:20541   */\n    tag_105:\n        /* \"#utility.yul\":20276:20279   */\n      0x00\n        /* \"#utility.yul\":20295:20315   */\n      tag_505\n        /* \"#utility.yul\":20313:20314   */\n      dup3\n        /* \"#utility.yul\":20295:20315   */\n      tag_441\n      jump\t// in\n    tag_505:\n        /* \"#utility.yul\":20290:20315   */\n      swap2\n      pop\n        /* \"#utility.yul\":20329:20349   */\n      tag_506\n        /* \"#utility.yul\":20347:20348   */\n      dup4\n        /* \"#utility.yul\":20329:20349   */\n      tag_441\n      jump\t// in\n    tag_506:\n        /* \"#utility.yul\":20324:20349   */\n      swap3\n      pop\n        /* \"#utility.yul\":20483:20484   */\n      dup3\n        /* \"#utility.yul\":20415:20481   */\n      0xffffffffffffffffffffffffffffffffffffffffffffffffffffffffffffffff\n        /* \"#utility.yul\":20411:20485   */\n      sub\n        /* \"#utility.yul\":20408:20409   */\n      dup3\n        /* \"#utility.yul\":20405:20486   */\n      gt\n        /* \"#utility.yul\":20402:20404   */\n      iszero\n      tag_507\n      jumpi\n        /* \"#utility.yul\":20489:20507   */\n      tag_508\n      tag_509\n      jump\t// in\n    tag_508:\n        /* \"#utility.yul\":20402:20404   */\n    tag_507:\n        /* \"#utility.yul\":20533:20534   */\n      dup3\n        /* \"#utility.yul\":20530:20531   */\n      dup3\n        /* \"#utility.yul\":20526:20535   */\n      add\n        /* \"#utility.yul\":20519:20535   */\n      swap1\n      pop\n        /* \"#utility.yul\":20280:20541   */\n      swap3\n      swap2\n      pop\n      pop\n      jump\t// out\n        /* \"#utility.yul\":20547:20732   */\n    tag_122:\n        /* \"#utility.yul\":20587:20588   */\n      0x00\n        /* \"#utility.yul\":20604:20624   */\n      tag_511\n        /* \"#utility.yul\":20622:20623   */\n      dup3\n        /* \"#utility.yul\":20604:20624   */\n      tag_441\n      jump\t// in\n    tag_511:\n        /* \"#utility.yul\":20599:20624   */\n      swap2\n      pop\n        /* \"#utility.yul\":20638:20658   */\n      tag_512\n        /* \"#utility.yul\":20656:20657   */\n      dup4\n        /* \"#utility.yul\":20638:20658   */\n      tag_441\n      jump\t// in\n    tag_512:\n        /* \"#utility.yul\":20633:20658   */\n      swap3\n      pop\n        /* \"#utility.yul\":20677:20678   */\n      dup3\n        /* \"#utility.yul\":20667:20669   */\n      tag_513\n      jumpi\n        /* \"#utility.yul\":20682:20700   */\n      tag_514\n      tag_515\n      jump\t// in\n    tag_514:\n        /* \"#utility.yul\":20667:20669   */\n    tag_513:\n        /* \"#utility.yul\":20724:20725   */\n      dup3\n        /* \"#utility.yul\":20721:20722   */\n      dup3\n        /* \"#utility.yul\":20717:20726   */\n      div\n        /* \"#utility.yul\":20712:20726   */\n      swap1\n      pop\n        /* \"#utility.yul\":20589:20732   */\n      swap3\n      swap2\n      pop\n      pop\n      jump\t// out\n        /* \"#utility.yul\":20738:21086   */\n    tag_119:\n        /* \"#utility.yul\":20778:20785   */\n      0x00\n        /* \"#utility.yul\":20801:20821   */\n      tag_517\n        /* \"#utility.yul\":20819:20820   */\n      dup3\n        /* \"#utility.yul\":20801:20821   */\n      tag_441\n      jump\t// in\n    tag_517:\n        /* \"#utility.yul\":20796:20821   */\n      swap2\n      pop\n        /* \"#utility.yul\":20835:20855   */\n      tag_518\n        /* \"#utility.yul\":20853:20854   */\n      dup4\n        /* \"#utility.yul\":20835:20855   */\n      tag_441\n      jump\t// in\n    tag_518:\n        /* \"#utility.yul\":20830:20855   */\n      swap3\n      pop\n        /* \"#utility.yul\":21023:21024   */\n      dup2\n        /* \"#utility.yul\":20955:21021   */\n      0xffffffffffffffffffffffffffffffffffffffffffffffffffffffffffffffff\n        /* \"#utility.yul\":20951:21025   */\n      div\n        /* \"#utility.yul\":20948:20949   */\n      dup4\n        /* \"#utility.yul\":20945:21026   */\n      gt\n        /* \"#utility.yul\":20940:20941   */\n      dup3\n        /* \"#utility.yul\":20933:20942   */\n      iszero\n        /* \"#utility.yul\":20926:20943   */\n      iszero\n        /* \"#utility.yul\":20922:21027   */\n      and\n        /* \"#utility.yul\":20919:20921   */\n      iszero\n      tag_519\n      jumpi\n        /* \"#utility.yul\":21030:21048   */\n      tag_520\n      tag_509\n      jump\t// in\n    tag_520:\n        /* \"#utility.yul\":20919:20921   */\n    tag_519:\n        /* \"#utility.yul\":21078:21079   */\n      dup3\n        /* \"#utility.yul\":21075:21076   */\n      dup3\n        /* \"#utility.yul\":21071:21080   */\n      mul\n        /* \"#utility.yul\":21060:21080   */\n      swap1\n      pop\n        /* \"#utility.yul\":20786:21086   */\n      swap3\n      swap2\n      pop\n      pop\n      jump\t// out\n        /* \"#utility.yul\":21092:21283   */\n    tag_103:\n        /* \"#utility.yul\":21132:21136   */\n      0x00\n        /* \"#utility.yul\":21152:21172   */\n      tag_522\n        /* \"#utility.yul\":21170:21171   */\n      dup3\n        /* \"#utility.yul\":21152:21172   */\n      tag_441\n      jump\t// in\n    tag_522:\n        /* \"#utility.yul\":21147:21172   */\n      swap2\n      pop\n        /* \"#utility.yul\":21186:21206   */\n      tag_523\n        /* \"#utility.yul\":21204:21205   */\n      dup4\n        /* \"#utility.yul\":21186:21206   */\n      tag_441\n      jump\t// in\n    tag_523:\n        /* \"#utility.yul\":21181:21206   */\n      swap3\n      pop\n        /* \"#utility.yul\":21225:21226   */\n      dup3\n        /* \"#utility.yul\":21222:21223   */\n      dup3\n        /* \"#utility.yul\":21219:21227   */\n      lt\n        /* \"#utility.yul\":21216:21218   */\n      iszero\n      tag_524\n      jumpi\n        /* \"#utility.yul\":21230:21248   */\n      tag_525\n      tag_509\n      jump\t// in\n    tag_525:\n        /* \"#utility.yul\":21216:21218   */\n    tag_524:\n        /* \"#utility.yul\":21275:21276   */\n      dup3\n        /* \"#utility.yul\":21272:21273   */\n      dup3\n        /* \"#utility.yul\":21268:21277   */\n      sub\n        /* \"#utility.yul\":21260:21277   */\n      swap1\n      pop\n        /* \"#utility.yul\":21137:21283   */\n      swap3\n      swap2\n      pop\n      pop\n      jump\t// out\n        /* \"#utility.yul\":21289:21385   */\n    tag_328:\n        /* \"#utility.yul\":21326:21333   */\n      0x00\n        /* \"#utility.yul\":21355:21379   */\n      tag_527\n        /* \"#utility.yul\":21373:21378   */\n      dup3\n        /* \"#utility.yul\":21355:21379   */\n      tag_528\n      jump\t// in\n    tag_527:\n        /* \"#utility.yul\":21344:21379   */\n      swap1\n      pop\n        /* \"#utility.yul\":21334:21385   */\n      swap2\n      swap1\n      pop\n      jump\t// out\n        /* \"#utility.yul\":21391:21481   */\n    tag_377:\n        /* \"#utility.yul\":21425:21432   */\n      0x00\n        /* \"#utility.yul\":21468:21473   */\n      dup2\n        /* \"#utility.yul\":21461:21474   */\n      iszero\n        /* \"#utility.yul\":21454:21475   */\n      iszero\n        /* \"#utility.yul\":21443:21475   */\n      swap1\n      pop\n        /* \"#utility.yul\":21433:21481   */\n      swap2\n      swap1\n      pop\n      jump\t// out\n        /* \"#utility.yul\":21487:21613   */\n    tag_528:\n        /* \"#utility.yul\":21524:21531   */\n      0x00\n        /* \"#utility.yul\":21564:21606   */\n      0xffffffffffffffffffffffffffffffffffffffff\n        /* \"#utility.yul\":21557:21562   */\n      dup3\n        /* \"#utility.yul\":21553:21607   */\n      and\n        /* \"#utility.yul\":21542:21607   */\n      swap1\n      pop\n        /* \"#utility.yul\":21532:21613   */\n      swap2\n      swap1\n      pop\n      jump\t// out\n        /* \"#utility.yul\":21619:21696   */\n    tag_441:\n        /* \"#utility.yul\":21656:21663   */\n      0x00\n        /* \"#utility.yul\":21685:21690   */\n      dup2\n        /* \"#utility.yul\":21674:21690   */\n      swap1\n      pop\n        /* \"#utility.yul\":21664:21696   */\n      swap2\n      swap1\n      pop\n      jump\t// out\n        /* \"#utility.yul\":21702:21856   */\n    tag_268:\n        /* \"#utility.yul\":21786:21792   */\n      dup3\n        /* \"#utility.yul\":21781:21784   */\n      dup2\n        /* \"#utility.yul\":21776:21779   */\n      dup4\n        /* \"#utility.yul\":21763:21793   */\n      calldatacopy\n        /* \"#utility.yul\":21848:21849   */\n      0x00\n        /* \"#utility.yul\":21839:21845   */\n      dup4\n        /* \"#utility.yul\":21834:21837   */\n      dup4\n        /* \"#utility.yul\":21830:21846   */\n      add\n        /* \"#utility.yul\":21823:21850   */\n      mstore\n        /* \"#utility.yul\":21753:21856   */\n      pop\n      pop\n      pop\n      jump\t// out\n        /* \"#utility.yul\":21862:22169   */\n    tag_384:\n        /* \"#utility.yul\":21930:21931   */\n      0x00\n        /* \"#utility.yul\":21940:22053   */\n    tag_534:\n        /* \"#utility.yul\":21954:21960   */\n      dup4\n        /* \"#utility.yul\":21951:21952   */\n      dup2\n        /* \"#utility.yul\":21948:21961   */\n      lt\n        /* \"#utility.yul\":21940:22053   */\n      iszero\n      tag_536\n      jumpi\n        /* \"#utility.yul\":22039:22040   */\n      dup1\n        /* \"#utility.yul\":22034:22037   */\n      dup3\n        /* \"#utility.yul\":22030:22041   */\n      add\n        /* \"#utility.yul\":22024:22042   */\n      mload\n        /* \"#utility.yul\":22020:22021   */\n      dup2\n        /* \"#utility.yul\":22015:22018   */\n      dup5\n        /* \"#utility.yul\":22011:22022   */\n      add\n        /* \"#utility.yul\":22004:22043   */\n      mstore\n        /* \"#utility.yul\":21976:21978   */\n      0x20\n        /* \"#utility.yul\":21973:21974   */\n      dup2\n        /* \"#utility.yul\":21969:21979   */\n      add\n        /* \"#utility.yul\":21964:21979   */\n      swap1\n      pop\n        /* \"#utility.yul\":21940:22053   */\n      jump(tag_534)\n    tag_536:\n        /* \"#utility.yul\":22071:22077   */\n      dup4\n        /* \"#utility.yul\":22068:22069   */\n      dup2\n        /* \"#utility.yul\":22065:22078   */\n      gt\n        /* \"#utility.yul\":22062:22064   */\n      iszero\n      tag_537\n      jumpi\n        /* \"#utility.yul\":22151:22152   */\n      0x00\n        /* \"#utility.yul\":22142:22148   */\n      dup5\n        /* \"#utility.yul\":22137:22140   */\n      dup5\n        /* \"#utility.yul\":22133:22149   */\n      add\n        /* \"#utility.yul\":22126:22153   */\n      mstore\n        /* \"#utility.yul\":22062:22064   */\n    tag_537:\n        /* \"#utility.yul\":21911:22169   */\n      pop\n      pop\n      pop\n      pop\n      jump\t// out\n        /* \"#utility.yul\":22175:22495   */\n    tag_88:\n        /* \"#utility.yul\":22219:22225   */\n      0x00\n        /* \"#utility.yul\":22256:22257   */\n      0x02\n        /* \"#utility.yul\":22250:22254   */\n      dup3\n        /* \"#utility.yul\":22246:22258   */\n      div\n        /* \"#utility.yul\":22236:22258   */\n      swap1\n      pop\n        /* \"#utility.yul\":22303:22304   */\n      0x01\n        /* \"#utility.yul\":22297:22301   */\n      dup3\n        /* \"#utility.yul\":22293:22305   */\n      and\n        /* \"#utility.yul\":22324:22342   */\n      dup1\n        /* \"#utility.yul\":22314:22316   */\n      tag_539\n      jumpi\n        /* \"#utility.yul\":22380:22384   */\n      0x7f\n        /* \"#utility.yul\":22372:22378   */\n      dup3\n        /* \"#utility.yul\":22368:22385   */\n      and\n        /* \"#utility.yul\":22358:22385   */\n      swap2\n      pop\n        /* \"#utility.yul\":22314:22316   */\n    tag_539:\n        /* \"#utility.yul\":22442:22444   */\n      0x20\n        /* \"#utility.yul\":22434:22440   */\n      dup3\n        /* \"#utility.yul\":22431:22445   */\n      lt\n        /* \"#utility.yul\":22411:22429   */\n      dup2\n        /* \"#utility.yul\":22408:22446   */\n      eq\n        /* \"#utility.yul\":22405:22407   */\n      iszero\n      tag_540\n      jumpi\n        /* \"#utility.yul\":22461:22479   */\n      tag_541\n      tag_542\n      jump\t// in\n    tag_541:\n        /* \"#utility.yul\":22405:22407   */\n    tag_540:\n        /* \"#utility.yul\":22226:22495   */\n      pop\n      swap2\n      swap1\n      pop\n      jump\t// out\n        /* \"#utility.yul\":22501:22782   */\n    tag_483:\n        /* \"#utility.yul\":22584:22611   */\n      tag_544\n        /* \"#utility.yul\":22606:22610   */\n      dup3\n        /* \"#utility.yul\":22584:22611   */\n      tag_386\n      jump\t// in\n    tag_544:\n        /* \"#utility.yul\":22576:22582   */\n      dup2\n        /* \"#utility.yul\":22572:22612   */\n      add\n        /* \"#utility.yul\":22714:22720   */\n      dup2\n        /* \"#utility.yul\":22702:22712   */\n      dup2\n        /* \"#utility.yul\":22699:22721   */\n      lt\n        /* \"#utility.yul\":22678:22696   */\n      0xffffffffffffffff\n        /* \"#utility.yul\":22666:22676   */\n      dup3\n        /* \"#utility.yul\":22663:22697   */\n      gt\n        /* \"#utility.yul\":22660:22722   */\n      or\n        /* \"#utility.yul\":22657:22659   */\n      iszero\n      tag_545\n      jumpi\n        /* \"#utility.yul\":22725:22743   */\n      tag_546\n      tag_128\n      jump\t// in\n    tag_546:\n        /* \"#utility.yul\":22657:22659   */\n    tag_545:\n        /* \"#utility.yul\":22765:22775   */\n      dup1\n        /* \"#utility.yul\":22761:22763   */\n      0x40\n        /* \"#utility.yul\":22754:22776   */\n      mstore\n        /* \"#utility.yul\":22544:22782   */\n      pop\n      pop\n      pop\n      jump\t// out\n        /* \"#utility.yul\":22788:23021   */\n    tag_156:\n        /* \"#utility.yul\":22827:22830   */\n      0x00\n        /* \"#utility.yul\":22850:22874   */\n      tag_548\n        /* \"#utility.yul\":22868:22873   */\n      dup3\n        /* \"#utility.yul\":22850:22874   */\n      tag_441\n      jump\t// in\n    tag_548:\n        /* \"#utility.yul\":22841:22874   */\n      swap2\n      pop\n        /* \"#utility.yul\":22896:22962   */\n      0xffffffffffffffffffffffffffffffffffffffffffffffffffffffffffffffff\n        /* \"#utility.yul\":22889:22894   */\n      dup3\n        /* \"#utility.yul\":22886:22963   */\n      eq\n        /* \"#utility.yul\":22883:22885   */\n      iszero\n      tag_549\n      jumpi\n        /* \"#utility.yul\":22966:22984   */\n      tag_550\n      tag_509\n      jump\t// in\n    tag_550:\n        /* \"#utility.yul\":22883:22885   */\n    tag_549:\n        /* \"#utility.yul\":23013:23014   */\n      0x01\n        /* \"#utility.yul\":23006:23011   */\n      dup3\n        /* \"#utility.yul\":23002:23015   */\n      add\n        /* \"#utility.yul\":22995:23015   */\n      swap1\n      pop\n        /* \"#utility.yul\":22831:23021   */\n      swap2\n      swap1\n      pop\n      jump\t// out\n        /* \"#utility.yul\":23027:23207   */\n    tag_509:\n        /* \"#utility.yul\":23075:23152   */\n      0x4e487b7100000000000000000000000000000000000000000000000000000000\n        /* \"#utility.yul\":23072:23073   */\n      0x00\n        /* \"#utility.yul\":23065:23153   */\n      mstore\n        /* \"#utility.yul\":23172:23176   */\n      0x11\n        /* \"#utility.yul\":23169:23170   */\n      0x04\n        /* \"#utility.yul\":23162:23177   */\n      mstore\n        /* \"#utility.yul\":23196:23200   */\n      0x24\n        /* \"#utility.yul\":23193:23194   */\n      0x00\n        /* \"#utility.yul\":23186:23201   */\n      revert\n        /* \"#utility.yul\":23213:23393   */\n    tag_515:\n        /* \"#utility.yul\":23261:23338   */\n      0x4e487b7100000000000000000000000000000000000000000000000000000000\n        /* \"#utility.yul\":23258:23259   */\n      0x00\n        /* \"#utility.yul\":23251:23339   */\n      mstore\n        /* \"#utility.yul\":23358:23362   */\n      0x12\n        /* \"#utility.yul\":23355:23356   */\n      0x04\n        /* \"#utility.yul\":23348:23363   */\n      mstore\n        /* \"#utility.yul\":23382:23386   */\n      0x24\n        /* \"#utility.yul\":23379:23380   */\n      0x00\n        /* \"#utility.yul\":23372:23387   */\n      revert\n        /* \"#utility.yul\":23399:23579   */\n    tag_542:\n        /* \"#utility.yul\":23447:23524   */\n      0x4e487b7100000000000000000000000000000000000000000000000000000000\n        /* \"#utility.yul\":23444:23445   */\n      0x00\n        /* \"#utility.yul\":23437:23525   */\n      mstore\n        /* \"#utility.yul\":23544:23548   */\n      0x22\n        /* \"#utility.yul\":23541:23542   */\n      0x04\n        /* \"#utility.yul\":23534:23549   */\n      mstore\n        /* \"#utility.yul\":23568:23572   */\n      0x24\n        /* \"#utility.yul\":23565:23566   */\n      0x00\n        /* \"#utility.yul\":23558:23573   */\n      revert\n        /* \"#utility.yul\":23585:23765   */\n    tag_224:\n        /* \"#utility.yul\":23633:23710   */\n      0x4e487b7100000000000000000000000000000000000000000000000000000000\n        /* \"#utility.yul\":23630:23631   */\n      0x00\n        /* \"#utility.yul\":23623:23711   */\n      mstore\n        /* \"#utility.yul\":23730:23734   */\n      0x31\n        /* \"#utility.yul\":23727:23728   */\n      0x04\n        /* \"#utility.yul\":23720:23735   */\n      mstore\n        /* \"#utility.yul\":23754:23758   */\n      0x24\n        /* \"#utility.yul\":23751:23752   */\n      0x00\n        /* \"#utility.yul\":23744:23759   */\n      revert\n        /* \"#utility.yul\":23771:23951   */\n    tag_142:\n        /* \"#utility.yul\":23819:23896   */\n      0x4e487b7100000000000000000000000000000000000000000000000000000000\n        /* \"#utility.yul\":23816:23817   */\n      0x00\n        /* \"#utility.yul\":23809:23897   */\n      mstore\n        /* \"#utility.yul\":23916:23920   */\n      0x32\n        /* \"#utility.yul\":23913:23914   */\n      0x04\n        /* \"#utility.yul\":23906:23921   */\n      mstore\n        /* \"#utility.yul\":23940:23944   */\n      0x24\n        /* \"#utility.yul\":23937:23938   */\n      0x00\n        /* \"#utility.yul\":23930:23945   */\n      revert\n        /* \"#utility.yul\":23957:24137   */\n    tag_128:\n        /* \"#utility.yul\":24005:24082   */\n      0x4e487b7100000000000000000000000000000000000000000000000000000000\n        /* \"#utility.yul\":24002:24003   */\n      0x00\n        /* \"#utility.yul\":23995:24083   */\n      mstore\n        /* \"#utility.yul\":24102:24106   */\n      0x41\n        /* \"#utility.yul\":24099:24100   */\n      0x04\n        /* \"#utility.yul\":24092:24107   */\n      mstore\n        /* \"#utility.yul\":24126:24130   */\n      0x24\n        /* \"#utility.yul\":24123:24124   */\n      0x00\n        /* \"#utility.yul\":24116:24131   */\n      revert\n        /* \"#utility.yul\":24143:24260   */\n    tag_281:\n        /* \"#utility.yul\":24252:24253   */\n      0x00\n        /* \"#utility.yul\":24249:24250   */\n      dup1\n        /* \"#utility.yul\":24242:24254   */\n      revert\n        /* \"#utility.yul\":24266:24383   */\n    tag_266:\n        /* \"#utility.yul\":24375:24376   */\n      0x00\n        /* \"#utility.yul\":24372:24373   */\n      dup1\n        /* \"#utility.yul\":24365:24377   */\n      revert\n        /* \"#utility.yul\":24389:24506   */\n    tag_303:\n        /* \"#utility.yul\":24498:24499   */\n      0x00\n        /* \"#utility.yul\":24495:24496   */\n      dup1\n        /* \"#utility.yul\":24488:24500   */\n      revert\n        /* \"#utility.yul\":24512:24629   */\n    tag_290:\n        /* \"#utility.yul\":24621:24622   */\n      0x00\n        /* \"#utility.yul\":24618:24619   */\n      dup1\n        /* \"#utility.yul\":24611:24623   */\n      revert\n        /* \"#utility.yul\":24635:24737   */\n    tag_386:\n        /* \"#utility.yul\":24676:24682   */\n      0x00\n        /* \"#utility.yul\":24727:24729   */\n      0x1f\n        /* \"#utility.yul\":24723:24730   */\n      not\n        /* \"#utility.yul\":24718:24720   */\n      0x1f\n        /* \"#utility.yul\":24711:24716   */\n      dup4\n        /* \"#utility.yul\":24707:24721   */\n      add\n        /* \"#utility.yul\":24703:24731   */\n      and\n        /* \"#utility.yul\":24693:24731   */\n      swap1\n      pop\n        /* \"#utility.yul\":24683:24737   */\n      swap2\n      swap1\n      pop\n      jump\t// out\n        /* \"#utility.yul\":24743:24906   */\n    tag_398:\n        /* \"#utility.yul\":24883:24898   */\n      0x426f72726f77204661696c656400000000000000000000000000000000000000\n        /* \"#utility.yul\":24879:24880   */\n      0x00\n        /* \"#utility.yul\":24871:24877   */\n      dup3\n        /* \"#utility.yul\":24867:24881   */\n      add\n        /* \"#utility.yul\":24860:24899   */\n      mstore\n        /* \"#utility.yul\":24849:24906   */\n      pop\n      jump\t// out\n        /* \"#utility.yul\":24912:25071   */\n    tag_403:\n        /* \"#utility.yul\":25052:25063   */\n      0x4e6f74204f776e65720000000000000000000000000000000000000000000000\n        /* \"#utility.yul\":25048:25049   */\n      0x00\n        /* \"#utility.yul\":25040:25046   */\n      dup3\n        /* \"#utility.yul\":25036:25050   */\n      add\n        /* \"#utility.yul\":25029:25064   */\n      mstore\n        /* \"#utility.yul\":25018:25071   */\n      pop\n      jump\t// out\n        /* \"#utility.yul\":25077:25256   */\n    tag_408:\n        /* \"#utility.yul\":25217:25248   */\n      0x4e6f7420656e6f75676820726573657276657320746f20626f72726f77000000\n        /* \"#utility.yul\":25213:25214   */\n      0x00\n        /* \"#utility.yul\":25205:25211   */\n      dup3\n        /* \"#utility.yul\":25201:25215   */\n      add\n        /* \"#utility.yul\":25194:25249   */\n      mstore\n        /* \"#utility.yul\":25183:25256   */\n      pop\n      jump\t// out\n        /* \"#utility.yul\":25262:25485   */\n    tag_413:\n        /* \"#utility.yul\":25402:25436   */\n      0x5472616e736665722066726f6d204c656e64657227732077616c6c6574206661\n        /* \"#utility.yul\":25398:25399   */\n      0x00\n        /* \"#utility.yul\":25390:25396   */\n      dup3\n        /* \"#utility.yul\":25386:25400   */\n      add\n        /* \"#utility.yul\":25379:25437   */\n      mstore\n        /* \"#utility.yul\":25471:25477   */\n      0x696c656400000000000000000000000000000000000000000000000000000000\n        /* \"#utility.yul\":25466:25468   */\n      0x20\n        /* \"#utility.yul\":25458:25464   */\n      dup3\n        /* \"#utility.yul\":25454:25469   */\n      add\n        /* \"#utility.yul\":25447:25478   */\n      mstore\n        /* \"#utility.yul\":25368:25485   */\n      pop\n      jump\t// out\n        /* \"#utility.yul\":25491:25672   */\n    tag_418:\n        /* \"#utility.yul\":25631:25664   */\n      0x4c656e64657220646f6573206e6f742068617665207468697320617373657400\n        /* \"#utility.yul\":25627:25628   */\n      0x00\n        /* \"#utility.yul\":25619:25625   */\n      dup3\n        /* \"#utility.yul\":25615:25629   */\n      add\n        /* \"#utility.yul\":25608:25665   */\n      mstore\n        /* \"#utility.yul\":25597:25672   */\n      pop\n      jump\t// out\n        /* \"#utility.yul\":25678:25849   */\n    tag_423:\n        /* \"#utility.yul\":25818:25841   */\n      0x4e6f74204f776e65722c2043616e6e6f74206164640000000000000000000000\n        /* \"#utility.yul\":25814:25815   */\n      0x00\n        /* \"#utility.yul\":25806:25812   */\n      dup3\n        /* \"#utility.yul\":25802:25816   */\n      add\n        /* \"#utility.yul\":25795:25842   */\n      mstore\n        /* \"#utility.yul\":25784:25849   */\n      pop\n      jump\t// out\n        /* \"#utility.yul\":25855:26077   */\n    tag_428:\n        /* \"#utility.yul\":25995:26029   */\n      0x4e6f74206f776e65722c2063616e6e6f7420706572666f726d206f7065726174\n        /* \"#utility.yul\":25991:25992   */\n      0x00\n        /* \"#utility.yul\":25983:25989   */\n      dup3\n        /* \"#utility.yul\":25979:25993   */\n      add\n        /* \"#utility.yul\":25972:26030   */\n      mstore\n        /* \"#utility.yul\":26064:26069   */\n      0x696f6e0000000000000000000000000000000000000000000000000000000000\n        /* \"#utility.yul\":26059:26061   */\n      0x20\n        /* \"#utility.yul\":26051:26057   */\n      dup3\n        /* \"#utility.yul\":26047:26062   */\n      add\n        /* \"#utility.yul\":26040:26070   */\n      mstore\n        /* \"#utility.yul\":25961:26077   */\n      pop\n      jump\t// out\n        /* \"#utility.yul\":26083:26259   */\n    tag_433:\n        /* \"#utility.yul\":26223:26251   */\n      0x4e6f7420656e6f7567682071747920746f207769746864726177000000000000\n        /* \"#utility.yul\":26219:26220   */\n      0x00\n        /* \"#utility.yul\":26211:26217   */\n      dup3\n        /* \"#utility.yul\":26207:26221   */\n      add\n        /* \"#utility.yul\":26200:26252   */\n      mstore\n        /* \"#utility.yul\":26189:26259   */\n      pop\n      jump\t// out\n        /* \"#utility.yul\":26265:26487   */\n    tag_438:\n        /* \"#utility.yul\":26405:26439   */\n      0x4e6f7420656e6f7567682045544820636f6c6c61746572616c20746f20426f72\n        /* \"#utility.yul\":26401:26402   */\n      0x00\n        /* \"#utility.yul\":26393:26399   */\n      dup3\n        /* \"#utility.yul\":26389:26403   */\n      add\n        /* \"#utility.yul\":26382:26440   */\n      mstore\n        /* \"#utility.yul\":26474:26479   */\n      0x726f770000000000000000000000000000000000000000000000000000000000\n        /* \"#utility.yul\":26469:26471   */\n      0x20\n        /* \"#utility.yul\":26461:26467   */\n      dup3\n        /* \"#utility.yul\":26457:26472   */\n      add\n        /* \"#utility.yul\":26450:26480   */\n      mstore\n        /* \"#utility.yul\":26371:26487   */\n      pop\n      jump\t// out\n        /* \"#utility.yul\":26493:26615   */\n    tag_272:\n        /* \"#utility.yul\":26566:26590   */\n      tag_572\n        /* \"#utility.yul\":26584:26589   */\n      dup2\n        /* \"#utility.yul\":26566:26590   */\n      tag_328\n      jump\t// in\n    tag_572:\n        /* \"#utility.yul\":26559:26564   */\n      dup2\n        /* \"#utility.yul\":26556:26591   */\n      eq\n        /* \"#utility.yul\":26546:26548   */\n      tag_573\n      jumpi\n        /* \"#utility.yul\":26605:26606   */\n      0x00\n        /* \"#utility.yul\":26602:26603   */\n      dup1\n        /* \"#utility.yul\":26595:26607   */\n      revert\n        /* \"#utility.yul\":26546:26548   */\n    tag_573:\n        /* \"#utility.yul\":26536:26615   */\n      pop\n      jump\t// out\n        /* \"#utility.yul\":26621:26737   */\n    tag_276:\n        /* \"#utility.yul\":26691:26712   */\n      tag_575\n        /* \"#utility.yul\":26706:26711   */\n      dup2\n        /* \"#utility.yul\":26691:26712   */\n      tag_377\n      jump\t// in\n    tag_575:\n        /* \"#utility.yul\":26684:26689   */\n      dup2\n        /* \"#utility.yul\":26681:26713   */\n      eq\n        /* \"#utility.yul\":26671:26673   */\n      tag_576\n      jumpi\n        /* \"#utility.yul\":26727:26728   */\n      0x00\n        /* \"#utility.yul\":26724:26725   */\n      dup1\n        /* \"#utility.yul\":26717:26729   */\n      revert\n        /* \"#utility.yul\":26671:26673   */\n    tag_576:\n        /* \"#utility.yul\":26661:26737   */\n      pop\n      jump\t// out\n        /* \"#utility.yul\":26743:26865   */\n    tag_286:\n        /* \"#utility.yul\":26816:26840   */\n      tag_578\n        /* \"#utility.yul\":26834:26839   */\n      dup2\n        /* \"#utility.yul\":26816:26840   */\n      tag_441\n      jump\t// in\n    tag_578:\n        /* \"#utility.yul\":26809:26814   */\n      dup2\n        /* \"#utility.yul\":26806:26841   */\n      eq\n        /* \"#utility.yul\":26796:26798   */\n      tag_579\n      jumpi\n        /* \"#utility.yul\":26855:26856   */\n      0x00\n        /* \"#utility.yul\":26852:26853   */\n      dup1\n        /* \"#utility.yul\":26845:26857   */\n      revert\n        /* \"#utility.yul\":26796:26798   */\n    tag_579:\n        /* \"#utility.yul\":26786:26865   */\n      pop\n      jump\t// out\n\n    auxdata: 0xa26469706673582212204250cecc6d86f6fc4ddcadeb3d263ca14d7b79a0f37a15576b8322511c7228f964736f6c63430008060033\n}\n",
				"bytecode": {
					"linkReferences": {},
					"object": "60e06040526003608090815250603260a090815250600a60c09081525034801561002857600080fd5b50336000806101000a81548173ffffffffffffffffffffffffffffffffffffffff021916908373ffffffffffffffffffffffffffffffffffffffff16021790555060805160a05160c051612b3861009f6000396000610d8a0152600061045701526000818161085101526108800152612b386000f3fe6080604052600436106100dc5760003560e01c8063742978da1161007f578063d5f3948811610059578063d5f39488146102c1578063d7a3b27f146102ec578063dd943ca914610315578063f3fef3a31461033e576100dc565b8063742978da1461022e57806390a8ae9b1461026d578063a2fb342d14610298576100dc565b80633e99c1e4116100bb5780633e99c1e4146101605780634b8a35291461019d5780635b72a33a146101c65780636c0723c5146101f1576100dc565b80624aca6e146100e15780630480ee081461011e5780631500c2ff14610135575b600080fd5b3480156100ed57600080fd5b5061010860048036038101906101039190611d69565b61036e565b60405161011591906122c5565b60405180910390f35b34801561012a57600080fd5b5061013361040e565b005b34801561014157600080fd5b5061014a610455565b6040516101579190612407565b60405180910390f35b34801561016c57600080fd5b5061018760048036038101906101829190611d69565b610479565b6040516101949190612407565b60405180910390f35b3480156101a957600080fd5b506101c460048036038101906101bf9190611e32565b6104c2565b005b3480156101d257600080fd5b506101db61084f565b6040516101e89190612407565b60405180910390f35b3480156101fd57600080fd5b5061021860048036038101906102139190611d96565b610873565b6040516102259190612407565b60405180910390f35b34801561023a57600080fd5b5061025560048036038101906102509190611d69565b6109de565b6040516102649392919061225e565b60405180910390f35b34801561027957600080fd5b50610282610d88565b60405161028f9190612407565b60405180910390f35b3480156102a457600080fd5b506102bf60048036038101906102ba9190611e32565b610dac565b005b3480156102cd57600080fd5b506102d6611141565b6040516102e3919061220c565b60405180910390f35b3480156102f857600080fd5b50610313600480360381019061030e9190611dd6565b611165565b005b34801561032157600080fd5b5061033c60048036038101906103379190611d96565b61124b565b005b61035860048036038101906103539190611e32565b6113b1565b60405161036591906122aa565b60405180910390f35b6001602052806000526040600020600091509050805461038d906126ef565b80601f01602080910402602001604051908101604052809291908181526020018280546103b9906126ef565b80156104065780601f106103db57610100808354040283529160200191610406565b820191906000526020600020905b8154815290600101906020018083116103e957829003601f168201915b505050505081565b6000600460003373ffffffffffffffffffffffffffffffffffffffff1673ffffffffffffffffffffffffffffffffffffffff16815260200190815260200160002054905050565b7f000000000000000000000000000000000000000000000000000000000000000081565b6000600760008373ffffffffffffffffffffffffffffffffffffffff1673ffffffffffffffffffffffffffffffffffffffff168152602001908152602001600020549050919050565b6000829050600033905082600760008673ffffffffffffffffffffffffffffffffffffffff1673ffffffffffffffffffffffffffffffffffffffff168152602001908152602001600020541161054d576040517f08c379a000000000000000000000000000000000000000000000000000000000815260040161054490612327565b60405180910390fd5b82600260008373ffffffffffffffffffffffffffffffffffffffff1673ffffffffffffffffffffffffffffffffffffffff16815260200190815260200160002060008673ffffffffffffffffffffffffffffffffffffffff1673ffffffffffffffffffffffffffffffffffffffff168152602001908152602001600020541161060b576040517f08c379a0000000000000000000000000000000000000000000000000000000008152600401610602906123e7565b60405180910390fd5b42600b60008373ffffffffffffffffffffffffffffffffffffffff1673ffffffffffffffffffffffffffffffffffffffff16815260200190815260200160002060008673ffffffffffffffffffffffffffffffffffffffff1673ffffffffffffffffffffffffffffffffffffffff1681526020019081526020016000208190555082600760008673ffffffffffffffffffffffffffffffffffffffff1673ffffffffffffffffffffffffffffffffffffffff16815260200190815260200160002060008282546106db9190612631565b9250508190555082600960008373ffffffffffffffffffffffffffffffffffffffff1673ffffffffffffffffffffffffffffffffffffffff16815260200190815260200160002060008673ffffffffffffffffffffffffffffffffffffffff1673ffffffffffffffffffffffffffffffffffffffff168152602001908152602001600020600082825461076e9190612550565b9250508190555060008273ffffffffffffffffffffffffffffffffffffffff166323b872dd3084876040518463ffffffff1660e01b81526004016107b493929190612227565b602060405180830381600087803b1580156107ce57600080fd5b505af11580156107e2573d6000803e3d6000fd5b505050506040513d601f19601f820116820180604052508101906108069190611e72565b905080610848576040517f08c379a000000000000000000000000000000000000000000000000000000000815260040161083f906122e7565b60405180910390fd5b5050505050565b7f000000000000000000000000000000000000000000000000000000000000000081565b600060646301e13380600c7f0000000000000000000000000000000000000000000000000000000000000000600560008873ffffffffffffffffffffffffffffffffffffffff1673ffffffffffffffffffffffffffffffffffffffff16815260200190815260200160002060008773ffffffffffffffffffffffffffffffffffffffff1673ffffffffffffffffffffffffffffffffffffffff16815260200190815260200160002054426109279190612631565b61093191906125d7565b61093b91906125d7565b61094591906125a6565b61094f91906125d7565b600260008573ffffffffffffffffffffffffffffffffffffffff1673ffffffffffffffffffffffffffffffffffffffff16815260200190815260200160002060008473ffffffffffffffffffffffffffffffffffffffff1673ffffffffffffffffffffffffffffffffffffffff168152602001908152602001600020546109d691906125d7565b905092915050565b60608060606000600360008673ffffffffffffffffffffffffffffffffffffffff1673ffffffffffffffffffffffffffffffffffffffff1681526020019081526020016000208054905090508067ffffffffffffffff811115610a4457610a43612886565b5b604051908082528060200260200182016040528015610a725781602001602082028036833780820191505090505b5093508067ffffffffffffffff811115610a8f57610a8e612886565b5b604051908082528060200260200182016040528015610ac257816020015b6060815260200190600190039081610aad5790505b5092508067ffffffffffffffff811115610adf57610ade612886565b5b604051908082528060200260200182016040528015610b0d5781602001602082028036833780820191505090505b50915060005b81811015610d7f576000600360008873ffffffffffffffffffffffffffffffffffffffff1673ffffffffffffffffffffffffffffffffffffffff1681526020019081526020016000208281548110610b6e57610b6d612857565b5b9060005260206000200160009054906101000a900473ffffffffffffffffffffffffffffffffffffffff16905080868381518110610baf57610bae612857565b5b602002602001019073ffffffffffffffffffffffffffffffffffffffff16908173ffffffffffffffffffffffffffffffffffffffff1681525050600160008273ffffffffffffffffffffffffffffffffffffffff1673ffffffffffffffffffffffffffffffffffffffff1681526020019081526020016000208054610c33906126ef565b80601f0160208091040260200160405190810160405280929190818152602001828054610c5f906126ef565b8015610cac5780601f10610c8157610100808354040283529160200191610cac565b820191906000526020600020905b815481529060010190602001808311610c8f57829003601f168201915b5050505050858381518110610cc457610cc3612857565b5b6020026020010181905250600260008873ffffffffffffffffffffffffffffffffffffffff1673ffffffffffffffffffffffffffffffffffffffff16815260200190815260200160002060008273ffffffffffffffffffffffffffffffffffffffff1673ffffffffffffffffffffffffffffffffffffffff16815260200190815260200160002054848381518110610d5f57610d5e612857565b5b602002602001018181525050508080610d7790612752565b915050610b13565b50509193909250565b7f000000000000000000000000000000000000000000000000000000000000000081565b6000829050600033905082600260008373ffffffffffffffffffffffffffffffffffffffff1673ffffffffffffffffffffffffffffffffffffffff16815260200190815260200160002060008673ffffffffffffffffffffffffffffffffffffffff1673ffffffffffffffffffffffffffffffffffffffff16815260200190815260200160002081905550600360008273ffffffffffffffffffffffffffffffffffffffff1673ffffffffffffffffffffffffffffffffffffffff168152602001908152602001600020849080600181540180825580915050600190039060005260206000200160009091909190916101000a81548173ffffffffffffffffffffffffffffffffffffffff021916908373ffffffffffffffffffffffffffffffffffffffff16021790555082600460003373ffffffffffffffffffffffffffffffffffffffff1673ffffffffffffffffffffffffffffffffffffffff1681526020019081526020016000206000828254610f269190612550565b9250508190555082600760008673ffffffffffffffffffffffffffffffffffffffff1673ffffffffffffffffffffffffffffffffffffffff1681526020019081526020016000206000828254610f7c9190612550565b925050819055506008849080600181540180825580915050600190039060005260206000200160009091909190916101000a81548173ffffffffffffffffffffffffffffffffffffffff021916908373ffffffffffffffffffffffffffffffffffffffff16021790555042600560008373ffffffffffffffffffffffffffffffffffffffff1673ffffffffffffffffffffffffffffffffffffffff16815260200190815260200160002060008673ffffffffffffffffffffffffffffffffffffffff1673ffffffffffffffffffffffffffffffffffffffff1681526020019081526020016000208190555060008273ffffffffffffffffffffffffffffffffffffffff166323b872dd8330876040518463ffffffff1660e01b81526004016110a693929190612227565b602060405180830381600087803b1580156110c057600080fd5b505af11580156110d4573d6000803e3d6000fd5b505050506040513d601f19601f820116820180604052508101906110f89190611e72565b90508061113a576040517f08c379a000000000000000000000000000000000000000000000000000000000815260040161113190612347565b60405180910390fd5b5050505050565b60008054906101000a900473ffffffffffffffffffffffffffffffffffffffff1681565b60008054906101000a900473ffffffffffffffffffffffffffffffffffffffff1673ffffffffffffffffffffffffffffffffffffffff163373ffffffffffffffffffffffffffffffffffffffff16146111f3576040517f08c379a00000000000000000000000000000000000000000000000000000000081526004016111ea90612387565b60405180910390fd5b80600160008473ffffffffffffffffffffffffffffffffffffffff1673ffffffffffffffffffffffffffffffffffffffff1681526020019081526020016000209080519060200190611246929190611c17565b505050565b8061125581611ac2565b611294576040517f08c379a000000000000000000000000000000000000000000000000000000000815260040161128b90612307565b60405180910390fd5b61132c6112a18484610873565b600260008673ffffffffffffffffffffffffffffffffffffffff1673ffffffffffffffffffffffffffffffffffffffff16815260200190815260200160002060008573ffffffffffffffffffffffffffffffffffffffff1673ffffffffffffffffffffffffffffffffffffffff16815260200190815260200160002054611beb90919063ffffffff16565b600260008573ffffffffffffffffffffffffffffffffffffffff1673ffffffffffffffffffffffffffffffffffffffff16815260200190815260200160002060008473ffffffffffffffffffffffffffffffffffffffff1673ffffffffffffffffffffffffffffffffffffffff16815260200190815260200160002081905550505050565b6000826000600260003373ffffffffffffffffffffffffffffffffffffffff1673ffffffffffffffffffffffffffffffffffffffff16815260200190815260200160002060008373ffffffffffffffffffffffffffffffffffffffff1673ffffffffffffffffffffffffffffffffffffffff1681526020019081526020016000205411611473576040517f08c379a000000000000000000000000000000000000000000000000000000000815260040161146a906123a7565b60405180910390fd5b8361147d81611ac2565b6114bc576040517f08c379a00000000000000000000000000000000000000000000000000000000081526004016114b390612307565b60405180910390fd5b600085905060003390506114d0818861124b565b85600260008373ffffffffffffffffffffffffffffffffffffffff1673ffffffffffffffffffffffffffffffffffffffff16815260200190815260200160002060008973ffffffffffffffffffffffffffffffffffffffff1673ffffffffffffffffffffffffffffffffffffffff168152602001908152602001600020541161158e576040517f08c379a000000000000000000000000000000000000000000000000000000000815260040161158590612367565b60405180910390fd5b85600760008973ffffffffffffffffffffffffffffffffffffffff1673ffffffffffffffffffffffffffffffffffffffff168152602001908152602001600020541161160f576040517f08c379a0000000000000000000000000000000000000000000000000000000008152600401611606906123c7565b60405180910390fd5b85600760008973ffffffffffffffffffffffffffffffffffffffff1673ffffffffffffffffffffffffffffffffffffffff168152602001908152602001600020600082825461165e9190612631565b925050819055506000600760008973ffffffffffffffffffffffffffffffffffffffff1673ffffffffffffffffffffffffffffffffffffffff16815260200190815260200160002054141561188657600080600090505b600880549050811015611790578873ffffffffffffffffffffffffffffffffffffffff16600882815481106116ed576116ec612857565b5b9060005260206000200160009054906101000a900473ffffffffffffffffffffffffffffffffffffffff1673ffffffffffffffffffffffffffffffffffffffff16141561177d576008818154811061174857611747612857565b5b9060005260206000200160006101000a81549073ffffffffffffffffffffffffffffffffffffffff0219169055809150611790565b808061178890612752565b9150506116b5565b50600860016008805490506117a59190612631565b815481106117b6576117b5612857565b5b9060005260206000200160009054906101000a900473ffffffffffffffffffffffffffffffffffffffff16600882815481106117f5576117f4612857565b5b9060005260206000200160006101000a81548173ffffffffffffffffffffffffffffffffffffffff021916908373ffffffffffffffffffffffffffffffffffffffff160217905550600880548061184f5761184e612828565b5b6001900381819060005260206000200160006101000a81549073ffffffffffffffffffffffffffffffffffffffff02191690559055505b61191586600260008473ffffffffffffffffffffffffffffffffffffffff1673ffffffffffffffffffffffffffffffffffffffff16815260200190815260200160002060008a73ffffffffffffffffffffffffffffffffffffffff1673ffffffffffffffffffffffffffffffffffffffff16815260200190815260200160002054611c0190919063ffffffff16565b600260008373ffffffffffffffffffffffffffffffffffffffff1673ffffffffffffffffffffffffffffffffffffffff16815260200190815260200160002060008973ffffffffffffffffffffffffffffffffffffffff1673ffffffffffffffffffffffffffffffffffffffff1681526020019081526020016000208190555042600560008373ffffffffffffffffffffffffffffffffffffffff1673ffffffffffffffffffffffffffffffffffffffff16815260200190815260200160002060008973ffffffffffffffffffffffffffffffffffffffff1673ffffffffffffffffffffffffffffffffffffffff1681526020019081526020016000208190555060008273ffffffffffffffffffffffffffffffffffffffff166323b872dd30848a6040518463ffffffff1660e01b8152600401611a5593929190612227565b602060405180830381600087803b158015611a6f57600080fd5b505af1158015611a83573d6000803e3d6000fd5b505050506040513d601f19601f82011682018060405250810190611aa79190611e72565b905080611ab357600080fd5b60019550505050505092915050565b600080600090505b600360003373ffffffffffffffffffffffffffffffffffffffff1673ffffffffffffffffffffffffffffffffffffffff16815260200190815260200160002080549050811015611be0578273ffffffffffffffffffffffffffffffffffffffff16600360003373ffffffffffffffffffffffffffffffffffffffff1673ffffffffffffffffffffffffffffffffffffffff1681526020019081526020016000208281548110611b7c57611b7b612857565b5b9060005260206000200160009054906101000a900473ffffffffffffffffffffffffffffffffffffffff1673ffffffffffffffffffffffffffffffffffffffff161415611bcd576001915050611be6565b8080611bd890612752565b915050611aca565b50600090505b919050565b60008183611bf99190612550565b905092915050565b60008183611c0f9190612631565b905092915050565b828054611c23906126ef565b90600052602060002090601f016020900481019282611c455760008555611c8c565b82601f10611c5e57805160ff1916838001178555611c8c565b82800160010185558215611c8c579182015b82811115611c8b578251825591602001919060010190611c70565b5b509050611c999190611c9d565b5090565b5b80821115611cb6576000816000905550600101611c9e565b5090565b6000611ccd611cc884612447565b612422565b905082815260208101848484011115611ce957611ce86128ba565b5b611cf48482856126ad565b509392505050565b600081359050611d0b81612abd565b92915050565b600081519050611d2081612ad4565b92915050565b600082601f830112611d3b57611d3a6128b5565b5b8135611d4b848260208601611cba565b91505092915050565b600081359050611d6381612aeb565b92915050565b600060208284031215611d7f57611d7e6128c4565b5b6000611d8d84828501611cfc565b91505092915050565b60008060408385031215611dad57611dac6128c4565b5b6000611dbb85828601611cfc565b9250506020611dcc85828601611cfc565b9150509250929050565b60008060408385031215611ded57611dec6128c4565b5b6000611dfb85828601611cfc565b925050602083013567ffffffffffffffff811115611e1c57611e1b6128bf565b5b611e2885828601611d26565b9150509250929050565b60008060408385031215611e4957611e486128c4565b5b6000611e5785828601611cfc565b9250506020611e6885828601611d54565b9150509250929050565b600060208284031215611e8857611e876128c4565b5b6000611e9684828501611d11565b91505092915050565b6000611eab8383611ee3565b60208301905092915050565b6000611ec38383612041565b905092915050565b6000611ed783836121ee565b60208301905092915050565b611eec81612665565b82525050565b611efb81612665565b82525050565b6000611f0c826124a8565b611f1681856124fb565b9350611f2183612478565b8060005b83811015611f52578151611f398882611e9f565b9750611f44836124d4565b925050600181019050611f25565b5085935050505092915050565b6000611f6a826124b3565b611f74818561250c565b935083602082028501611f8685612488565b8060005b85811015611fc25784840389528151611fa38582611eb7565b9450611fae836124e1565b925060208a01995050600181019050611f8a565b50829750879550505050505092915050565b6000611fdf826124be565b611fe9818561251d565b9350611ff483612498565b8060005b8381101561202557815161200c8882611ecb565b9750612017836124ee565b925050600181019050611ff8565b5085935050505092915050565b61203b81612677565b82525050565b600061204c826124c9565b612056818561252e565b93506120668185602086016126bc565b61206f816128c9565b840191505092915050565b6000612085826124c9565b61208f818561253f565b935061209f8185602086016126bc565b6120a8816128c9565b840191505092915050565b60006120c0600d8361253f565b91506120cb826128da565b602082019050919050565b60006120e360098361253f565b91506120ee82612903565b602082019050919050565b6000612106601d8361253f565b91506121118261292c565b602082019050919050565b600061212960248361253f565b915061213482612955565b604082019050919050565b600061214c601f8361253f565b9150612157826129a4565b602082019050919050565b600061216f60158361253f565b915061217a826129cd565b602082019050919050565b600061219260238361253f565b915061219d826129f6565b604082019050919050565b60006121b5601a8361253f565b91506121c082612a45565b602082019050919050565b60006121d860238361253f565b91506121e382612a6e565b604082019050919050565b6121f7816126a3565b82525050565b612206816126a3565b82525050565b60006020820190506122216000830184611ef2565b92915050565b600060608201905061223c6000830186611ef2565b6122496020830185611ef2565b61225660408301846121fd565b949350505050565b600060608201905081810360008301526122788186611f01565b9050818103602083015261228c8185611f5f565b905081810360408301526122a08184611fd4565b9050949350505050565b60006020820190506122bf6000830184612032565b92915050565b600060208201905081810360008301526122df818461207a565b905092915050565b60006020820190508181036000830152612300816120b3565b9050919050565b60006020820190508181036000830152612320816120d6565b9050919050565b60006020820190508181036000830152612340816120f9565b9050919050565b600060208201905081810360008301526123608161211c565b9050919050565b600060208201905081810360008301526123808161213f565b9050919050565b600060208201905081810360008301526123a081612162565b9050919050565b600060208201905081810360008301526123c081612185565b9050919050565b600060208201905081810360008301526123e0816121a8565b9050919050565b60006020820190508181036000830152612400816121cb565b9050919050565b600060208201905061241c60008301846121fd565b92915050565b600061242c61243d565b90506124388282612721565b919050565b6000604051905090565b600067ffffffffffffffff82111561246257612461612886565b5b61246b826128c9565b9050602081019050919050565b6000819050602082019050919050565b6000819050602082019050919050565b6000819050602082019050919050565b600081519050919050565b600081519050919050565b600081519050919050565b600081519050919050565b6000602082019050919050565b6000602082019050919050565b6000602082019050919050565b600082825260208201905092915050565b600082825260208201905092915050565b600082825260208201905092915050565b600082825260208201905092915050565b600082825260208201905092915050565b600061255b826126a3565b9150612566836126a3565b9250827fffffffffffffffffffffffffffffffffffffffffffffffffffffffffffffffff0382111561259b5761259a61279b565b5b828201905092915050565b60006125b1826126a3565b91506125bc836126a3565b9250826125cc576125cb6127ca565b5b828204905092915050565b60006125e2826126a3565b91506125ed836126a3565b9250817fffffffffffffffffffffffffffffffffffffffffffffffffffffffffffffffff04831182151516156126265761262561279b565b5b828202905092915050565b600061263c826126a3565b9150612647836126a3565b92508282101561265a5761265961279b565b5b828203905092915050565b600061267082612683565b9050919050565b60008115159050919050565b600073ffffffffffffffffffffffffffffffffffffffff82169050919050565b6000819050919050565b82818337600083830152505050565b60005b838110156126da5780820151818401526020810190506126bf565b838111156126e9576000848401525b50505050565b6000600282049050600182168061270757607f821691505b6020821081141561271b5761271a6127f9565b5b50919050565b61272a826128c9565b810181811067ffffffffffffffff8211171561274957612748612886565b5b80604052505050565b600061275d826126a3565b91507fffffffffffffffffffffffffffffffffffffffffffffffffffffffffffffffff8214156127905761278f61279b565b5b600182019050919050565b7f4e487b7100000000000000000000000000000000000000000000000000000000600052601160045260246000fd5b7f4e487b7100000000000000000000000000000000000000000000000000000000600052601260045260246000fd5b7f4e487b7100000000000000000000000000000000000000000000000000000000600052602260045260246000fd5b7f4e487b7100000000000000000000000000000000000000000000000000000000600052603160045260246000fd5b7f4e487b7100000000000000000000000000000000000000000000000000000000600052603260045260246000fd5b7f4e487b7100000000000000000000000000000000000000000000000000000000600052604160045260246000fd5b600080fd5b600080fd5b600080fd5b600080fd5b6000601f19601f8301169050919050565b7f426f72726f77204661696c656400000000000000000000000000000000000000600082015250565b7f4e6f74204f776e65720000000000000000000000000000000000000000000000600082015250565b7f4e6f7420656e6f75676820726573657276657320746f20626f72726f77000000600082015250565b7f5472616e736665722066726f6d204c656e64657227732077616c6c657420666160008201527f696c656400000000000000000000000000000000000000000000000000000000602082015250565b7f4c656e64657220646f6573206e6f742068617665207468697320617373657400600082015250565b7f4e6f74204f776e65722c2043616e6e6f74206164640000000000000000000000600082015250565b7f4e6f74206f776e65722c2063616e6e6f7420706572666f726d206f706572617460008201527f696f6e0000000000000000000000000000000000000000000000000000000000602082015250565b7f4e6f7420656e6f7567682071747920746f207769746864726177000000000000600082015250565b7f4e6f7420656e6f7567682045544820636f6c6c61746572616c20746f20426f7260008201527f726f770000000000000000000000000000000000000000000000000000000000602082015250565b612ac681612665565b8114612ad157600080fd5b50565b612add81612677565b8114612ae857600080fd5b50565b612af4816126a3565b8114612aff57600080fd5b5056fea26469706673582212204250cecc6d86f6fc4ddcadeb3d263ca14d7b79a0f37a15576b8322511c7228f964736f6c63430008060033",
					"opcodes": "PUSH1 0xE0 PUSH1 0x40 MSTORE PUSH1 0x3 PUSH1 0x80 SWAP1 DUP2 MSTORE POP PUSH1 0x32 PUSH1 0xA0 SWAP1 DUP2 MSTORE POP PUSH1 0xA PUSH1 0xC0 SWAP1 DUP2 MSTORE POP CALLVALUE DUP1 ISZERO PUSH2 0x28 JUMPI PUSH1 0x0 DUP1 REVERT JUMPDEST POP CALLER PUSH1 0x0 DUP1 PUSH2 0x100 EXP DUP2 SLOAD DUP2 PUSH20 0xFFFFFFFFFFFFFFFFFFFFFFFFFFFFFFFFFFFFFFFF MUL NOT AND SWAP1 DUP4 PUSH20 0xFFFFFFFFFFFFFFFFFFFFFFFFFFFFFFFFFFFFFFFF AND MUL OR SWAP1 SSTORE POP PUSH1 0x80 MLOAD PUSH1 0xA0 MLOAD PUSH1 0xC0 MLOAD PUSH2 0x2B38 PUSH2 0x9F PUSH1 0x0 CODECOPY PUSH1 0x0 PUSH2 0xD8A ADD MSTORE PUSH1 0x0 PUSH2 0x457 ADD MSTORE PUSH1 0x0 DUP2 DUP2 PUSH2 0x851 ADD MSTORE PUSH2 0x880 ADD MSTORE PUSH2 0x2B38 PUSH1 0x0 RETURN INVALID PUSH1 0x80 PUSH1 0x40 MSTORE PUSH1 0x4 CALLDATASIZE LT PUSH2 0xDC JUMPI PUSH1 0x0 CALLDATALOAD PUSH1 0xE0 SHR DUP1 PUSH4 0x742978DA GT PUSH2 0x7F JUMPI DUP1 PUSH4 0xD5F39488 GT PUSH2 0x59 JUMPI DUP1 PUSH4 0xD5F39488 EQ PUSH2 0x2C1 JUMPI DUP1 PUSH4 0xD7A3B27F EQ PUSH2 0x2EC JUMPI DUP1 PUSH4 0xDD943CA9 EQ PUSH2 0x315 JUMPI DUP1 PUSH4 0xF3FEF3A3 EQ PUSH2 0x33E JUMPI PUSH2 0xDC JUMP JUMPDEST DUP1 PUSH4 0x742978DA EQ PUSH2 0x22E JUMPI DUP1 PUSH4 0x90A8AE9B EQ PUSH2 0x26D JUMPI DUP1 PUSH4 0xA2FB342D EQ PUSH2 0x298 JUMPI PUSH2 0xDC JUMP JUMPDEST DUP1 PUSH4 0x3E99C1E4 GT PUSH2 0xBB JUMPI DUP1 PUSH4 0x3E99C1E4 EQ PUSH2 0x160 JUMPI DUP1 PUSH4 0x4B8A3529 EQ PUSH2 0x19D JUMPI DUP1 PUSH4 0x5B72A33A EQ PUSH2 0x1C6 JUMPI DUP1 PUSH4 0x6C0723C5 EQ PUSH2 0x1F1 JUMPI PUSH2 0xDC JUMP JUMPDEST DUP1 PUSH3 0x4ACA6E EQ PUSH2 0xE1 JUMPI DUP1 PUSH4 0x480EE08 EQ PUSH2 0x11E JUMPI DUP1 PUSH4 0x1500C2FF EQ PUSH2 0x135 JUMPI JUMPDEST PUSH1 0x0 DUP1 REVERT JUMPDEST CALLVALUE DUP1 ISZERO PUSH2 0xED JUMPI PUSH1 0x0 DUP1 REVERT JUMPDEST POP PUSH2 0x108 PUSH1 0x4 DUP1 CALLDATASIZE SUB DUP2 ADD SWAP1 PUSH2 0x103 SWAP2 SWAP1 PUSH2 0x1D69 JUMP JUMPDEST PUSH2 0x36E JUMP JUMPDEST PUSH1 0x40 MLOAD PUSH2 0x115 SWAP2 SWAP1 PUSH2 0x22C5 JUMP JUMPDEST PUSH1 0x40 MLOAD DUP1 SWAP2 SUB SWAP1 RETURN JUMPDEST CALLVALUE DUP1 ISZERO PUSH2 0x12A JUMPI PUSH1 0x0 DUP1 REVERT JUMPDEST POP PUSH2 0x133 PUSH2 0x40E JUMP JUMPDEST STOP JUMPDEST CALLVALUE DUP1 ISZERO PUSH2 0x141 JUMPI PUSH1 0x0 DUP1 REVERT JUMPDEST POP PUSH2 0x14A PUSH2 0x455 JUMP JUMPDEST PUSH1 0x40 MLOAD PUSH2 0x157 SWAP2 SWAP1 PUSH2 0x2407 JUMP JUMPDEST PUSH1 0x40 MLOAD DUP1 SWAP2 SUB SWAP1 RETURN JUMPDEST CALLVALUE DUP1 ISZERO PUSH2 0x16C JUMPI PUSH1 0x0 DUP1 REVERT JUMPDEST POP PUSH2 0x187 PUSH1 0x4 DUP1 CALLDATASIZE SUB DUP2 ADD SWAP1 PUSH2 0x182 SWAP2 SWAP1 PUSH2 0x1D69 JUMP JUMPDEST PUSH2 0x479 JUMP JUMPDEST PUSH1 0x40 MLOAD PUSH2 0x194 SWAP2 SWAP1 PUSH2 0x2407 JUMP JUMPDEST PUSH1 0x40 MLOAD DUP1 SWAP2 SUB SWAP1 RETURN JUMPDEST CALLVALUE DUP1 ISZERO PUSH2 0x1A9 JUMPI PUSH1 0x0 DUP1 REVERT JUMPDEST POP PUSH2 0x1C4 PUSH1 0x4 DUP1 CALLDATASIZE SUB DUP2 ADD SWAP1 PUSH2 0x1BF SWAP2 SWAP1 PUSH2 0x1E32 JUMP JUMPDEST PUSH2 0x4C2 JUMP JUMPDEST STOP JUMPDEST CALLVALUE DUP1 ISZERO PUSH2 0x1D2 JUMPI PUSH1 0x0 DUP1 REVERT JUMPDEST POP PUSH2 0x1DB PUSH2 0x84F JUMP JUMPDEST PUSH1 0x40 MLOAD PUSH2 0x1E8 SWAP2 SWAP1 PUSH2 0x2407 JUMP JUMPDEST PUSH1 0x40 MLOAD DUP1 SWAP2 SUB SWAP1 RETURN JUMPDEST CALLVALUE DUP1 ISZERO PUSH2 0x1FD JUMPI PUSH1 0x0 DUP1 REVERT JUMPDEST POP PUSH2 0x218 PUSH1 0x4 DUP1 CALLDATASIZE SUB DUP2 ADD SWAP1 PUSH2 0x213 SWAP2 SWAP1 PUSH2 0x1D96 JUMP JUMPDEST PUSH2 0x873 JUMP JUMPDEST PUSH1 0x40 MLOAD PUSH2 0x225 SWAP2 SWAP1 PUSH2 0x2407 JUMP JUMPDEST PUSH1 0x40 MLOAD DUP1 SWAP2 SUB SWAP1 RETURN JUMPDEST CALLVALUE DUP1 ISZERO PUSH2 0x23A JUMPI PUSH1 0x0 DUP1 REVERT JUMPDEST POP PUSH2 0x255 PUSH1 0x4 DUP1 CALLDATASIZE SUB DUP2 ADD SWAP1 PUSH2 0x250 SWAP2 SWAP1 PUSH2 0x1D69 JUMP JUMPDEST PUSH2 0x9DE JUMP JUMPDEST PUSH1 0x40 MLOAD PUSH2 0x264 SWAP4 SWAP3 SWAP2 SWAP1 PUSH2 0x225E JUMP JUMPDEST PUSH1 0x40 MLOAD DUP1 SWAP2 SUB SWAP1 RETURN JUMPDEST CALLVALUE DUP1 ISZERO PUSH2 0x279 JUMPI PUSH1 0x0 DUP1 REVERT JUMPDEST POP PUSH2 0x282 PUSH2 0xD88 JUMP JUMPDEST PUSH1 0x40 MLOAD PUSH2 0x28F SWAP2 SWAP1 PUSH2 0x2407 JUMP JUMPDEST PUSH1 0x40 MLOAD DUP1 SWAP2 SUB SWAP1 RETURN JUMPDEST CALLVALUE DUP1 ISZERO PUSH2 0x2A4 JUMPI PUSH1 0x0 DUP1 REVERT JUMPDEST POP PUSH2 0x2BF PUSH1 0x4 DUP1 CALLDATASIZE SUB DUP2 ADD SWAP1 PUSH2 0x2BA SWAP2 SWAP1 PUSH2 0x1E32 JUMP JUMPDEST PUSH2 0xDAC JUMP JUMPDEST STOP JUMPDEST CALLVALUE DUP1 ISZERO PUSH2 0x2CD JUMPI PUSH1 0x0 DUP1 REVERT JUMPDEST POP PUSH2 0x2D6 PUSH2 0x1141 JUMP JUMPDEST PUSH1 0x40 MLOAD PUSH2 0x2E3 SWAP2 SWAP1 PUSH2 0x220C JUMP JUMPDEST PUSH1 0x40 MLOAD DUP1 SWAP2 SUB SWAP1 RETURN JUMPDEST CALLVALUE DUP1 ISZERO PUSH2 0x2F8 JUMPI PUSH1 0x0 DUP1 REVERT JUMPDEST POP PUSH2 0x313 PUSH1 0x4 DUP1 CALLDATASIZE SUB DUP2 ADD SWAP1 PUSH2 0x30E SWAP2 SWAP1 PUSH2 0x1DD6 JUMP JUMPDEST PUSH2 0x1165 JUMP JUMPDEST STOP JUMPDEST CALLVALUE DUP1 ISZERO PUSH2 0x321 JUMPI PUSH1 0x0 DUP1 REVERT JUMPDEST POP PUSH2 0x33C PUSH1 0x4 DUP1 CALLDATASIZE SUB DUP2 ADD SWAP1 PUSH2 0x337 SWAP2 SWAP1 PUSH2 0x1D96 JUMP JUMPDEST PUSH2 0x124B JUMP JUMPDEST STOP JUMPDEST PUSH2 0x358 PUSH1 0x4 DUP1 CALLDATASIZE SUB DUP2 ADD SWAP1 PUSH2 0x353 SWAP2 SWAP1 PUSH2 0x1E32 JUMP JUMPDEST PUSH2 0x13B1 JUMP JUMPDEST PUSH1 0x40 MLOAD PUSH2 0x365 SWAP2 SWAP1 PUSH2 0x22AA JUMP JUMPDEST PUSH1 0x40 MLOAD DUP1 SWAP2 SUB SWAP1 RETURN JUMPDEST PUSH1 0x1 PUSH1 0x20 MSTORE DUP1 PUSH1 0x0 MSTORE PUSH1 0x40 PUSH1 0x0 KECCAK256 PUSH1 0x0 SWAP2 POP SWAP1 POP DUP1 SLOAD PUSH2 0x38D SWAP1 PUSH2 0x26EF JUMP JUMPDEST DUP1 PUSH1 0x1F ADD PUSH1 0x20 DUP1 SWAP2 DIV MUL PUSH1 0x20 ADD PUSH1 0x40 MLOAD SWAP1 DUP2 ADD PUSH1 0x40 MSTORE DUP1 SWAP3 SWAP2 SWAP1 DUP2 DUP2 MSTORE PUSH1 0x20 ADD DUP3 DUP1 SLOAD PUSH2 0x3B9 SWAP1 PUSH2 0x26EF JUMP JUMPDEST DUP1 ISZERO PUSH2 0x406 JUMPI DUP1 PUSH1 0x1F LT PUSH2 0x3DB JUMPI PUSH2 0x100 DUP1 DUP4 SLOAD DIV MUL DUP4 MSTORE SWAP2 PUSH1 0x20 ADD SWAP2 PUSH2 0x406 JUMP JUMPDEST DUP3 ADD SWAP2 SWAP1 PUSH1 0x0 MSTORE PUSH1 0x20 PUSH1 0x0 KECCAK256 SWAP1 JUMPDEST DUP2 SLOAD DUP2 MSTORE SWAP1 PUSH1 0x1 ADD SWAP1 PUSH1 0x20 ADD DUP1 DUP4 GT PUSH2 0x3E9 JUMPI DUP3 SWAP1 SUB PUSH1 0x1F AND DUP3 ADD SWAP2 JUMPDEST POP POP POP POP POP DUP2 JUMP JUMPDEST PUSH1 0x0 PUSH1 0x4 PUSH1 0x0 CALLER PUSH20 0xFFFFFFFFFFFFFFFFFFFFFFFFFFFFFFFFFFFFFFFF AND PUSH20 0xFFFFFFFFFFFFFFFFFFFFFFFFFFFFFFFFFFFFFFFF AND DUP2 MSTORE PUSH1 0x20 ADD SWAP1 DUP2 MSTORE PUSH1 0x20 ADD PUSH1 0x0 KECCAK256 SLOAD SWAP1 POP POP JUMP JUMPDEST PUSH32 0x0 DUP2 JUMP JUMPDEST PUSH1 0x0 PUSH1 0x7 PUSH1 0x0 DUP4 PUSH20 0xFFFFFFFFFFFFFFFFFFFFFFFFFFFFFFFFFFFFFFFF AND PUSH20 0xFFFFFFFFFFFFFFFFFFFFFFFFFFFFFFFFFFFFFFFF AND DUP2 MSTORE PUSH1 0x20 ADD SWAP1 DUP2 MSTORE PUSH1 0x20 ADD PUSH1 0x0 KECCAK256 SLOAD SWAP1 POP SWAP2 SWAP1 POP JUMP JUMPDEST PUSH1 0x0 DUP3 SWAP1 POP PUSH1 0x0 CALLER SWAP1 POP DUP3 PUSH1 0x7 PUSH1 0x0 DUP7 PUSH20 0xFFFFFFFFFFFFFFFFFFFFFFFFFFFFFFFFFFFFFFFF AND PUSH20 0xFFFFFFFFFFFFFFFFFFFFFFFFFFFFFFFFFFFFFFFF AND DUP2 MSTORE PUSH1 0x20 ADD SWAP1 DUP2 MSTORE PUSH1 0x20 ADD PUSH1 0x0 KECCAK256 SLOAD GT PUSH2 0x54D JUMPI PUSH1 0x40 MLOAD PUSH32 0x8C379A000000000000000000000000000000000000000000000000000000000 DUP2 MSTORE PUSH1 0x4 ADD PUSH2 0x544 SWAP1 PUSH2 0x2327 JUMP JUMPDEST PUSH1 0x40 MLOAD DUP1 SWAP2 SUB SWAP1 REVERT JUMPDEST DUP3 PUSH1 0x2 PUSH1 0x0 DUP4 PUSH20 0xFFFFFFFFFFFFFFFFFFFFFFFFFFFFFFFFFFFFFFFF AND PUSH20 0xFFFFFFFFFFFFFFFFFFFFFFFFFFFFFFFFFFFFFFFF AND DUP2 MSTORE PUSH1 0x20 ADD SWAP1 DUP2 MSTORE PUSH1 0x20 ADD PUSH1 0x0 KECCAK256 PUSH1 0x0 DUP7 PUSH20 0xFFFFFFFFFFFFFFFFFFFFFFFFFFFFFFFFFFFFFFFF AND PUSH20 0xFFFFFFFFFFFFFFFFFFFFFFFFFFFFFFFFFFFFFFFF AND DUP2 MSTORE PUSH1 0x20 ADD SWAP1 DUP2 MSTORE PUSH1 0x20 ADD PUSH1 0x0 KECCAK256 SLOAD GT PUSH2 0x60B JUMPI PUSH1 0x40 MLOAD PUSH32 0x8C379A000000000000000000000000000000000000000000000000000000000 DUP2 MSTORE PUSH1 0x4 ADD PUSH2 0x602 SWAP1 PUSH2 0x23E7 JUMP JUMPDEST PUSH1 0x40 MLOAD DUP1 SWAP2 SUB SWAP1 REVERT JUMPDEST TIMESTAMP PUSH1 0xB PUSH1 0x0 DUP4 PUSH20 0xFFFFFFFFFFFFFFFFFFFFFFFFFFFFFFFFFFFFFFFF AND PUSH20 0xFFFFFFFFFFFFFFFFFFFFFFFFFFFFFFFFFFFFFFFF AND DUP2 MSTORE PUSH1 0x20 ADD SWAP1 DUP2 MSTORE PUSH1 0x20 ADD PUSH1 0x0 KECCAK256 PUSH1 0x0 DUP7 PUSH20 0xFFFFFFFFFFFFFFFFFFFFFFFFFFFFFFFFFFFFFFFF AND PUSH20 0xFFFFFFFFFFFFFFFFFFFFFFFFFFFFFFFFFFFFFFFF AND DUP2 MSTORE PUSH1 0x20 ADD SWAP1 DUP2 MSTORE PUSH1 0x20 ADD PUSH1 0x0 KECCAK256 DUP2 SWAP1 SSTORE POP DUP3 PUSH1 0x7 PUSH1 0x0 DUP7 PUSH20 0xFFFFFFFFFFFFFFFFFFFFFFFFFFFFFFFFFFFFFFFF AND PUSH20 0xFFFFFFFFFFFFFFFFFFFFFFFFFFFFFFFFFFFFFFFF AND DUP2 MSTORE PUSH1 0x20 ADD SWAP1 DUP2 MSTORE PUSH1 0x20 ADD PUSH1 0x0 KECCAK256 PUSH1 0x0 DUP3 DUP3 SLOAD PUSH2 0x6DB SWAP2 SWAP1 PUSH2 0x2631 JUMP JUMPDEST SWAP3 POP POP DUP2 SWAP1 SSTORE POP DUP3 PUSH1 0x9 PUSH1 0x0 DUP4 PUSH20 0xFFFFFFFFFFFFFFFFFFFFFFFFFFFFFFFFFFFFFFFF AND PUSH20 0xFFFFFFFFFFFFFFFFFFFFFFFFFFFFFFFFFFFFFFFF AND DUP2 MSTORE PUSH1 0x20 ADD SWAP1 DUP2 MSTORE PUSH1 0x20 ADD PUSH1 0x0 KECCAK256 PUSH1 0x0 DUP7 PUSH20 0xFFFFFFFFFFFFFFFFFFFFFFFFFFFFFFFFFFFFFFFF AND PUSH20 0xFFFFFFFFFFFFFFFFFFFFFFFFFFFFFFFFFFFFFFFF AND DUP2 MSTORE PUSH1 0x20 ADD SWAP1 DUP2 MSTORE PUSH1 0x20 ADD PUSH1 0x0 KECCAK256 PUSH1 0x0 DUP3 DUP3 SLOAD PUSH2 0x76E SWAP2 SWAP1 PUSH2 0x2550 JUMP JUMPDEST SWAP3 POP POP DUP2 SWAP1 SSTORE POP PUSH1 0x0 DUP3 PUSH20 0xFFFFFFFFFFFFFFFFFFFFFFFFFFFFFFFFFFFFFFFF AND PUSH4 0x23B872DD ADDRESS DUP5 DUP8 PUSH1 0x40 MLOAD DUP5 PUSH4 0xFFFFFFFF AND PUSH1 0xE0 SHL DUP2 MSTORE PUSH1 0x4 ADD PUSH2 0x7B4 SWAP4 SWAP3 SWAP2 SWAP1 PUSH2 0x2227 JUMP JUMPDEST PUSH1 0x20 PUSH1 0x40 MLOAD DUP1 DUP4 SUB DUP2 PUSH1 0x0 DUP8 DUP1 EXTCODESIZE ISZERO DUP1 ISZERO PUSH2 0x7CE JUMPI PUSH1 0x0 DUP1 REVERT JUMPDEST POP GAS CALL ISZERO DUP1 ISZERO PUSH2 0x7E2 JUMPI RETURNDATASIZE PUSH1 0x0 DUP1 RETURNDATACOPY RETURNDATASIZE PUSH1 0x0 REVERT JUMPDEST POP POP POP POP PUSH1 0x40 MLOAD RETURNDATASIZE PUSH1 0x1F NOT PUSH1 0x1F DUP3 ADD AND DUP3 ADD DUP1 PUSH1 0x40 MSTORE POP DUP2 ADD SWAP1 PUSH2 0x806 SWAP2 SWAP1 PUSH2 0x1E72 JUMP JUMPDEST SWAP1 POP DUP1 PUSH2 0x848 JUMPI PUSH1 0x40 MLOAD PUSH32 0x8C379A000000000000000000000000000000000000000000000000000000000 DUP2 MSTORE PUSH1 0x4 ADD PUSH2 0x83F SWAP1 PUSH2 0x22E7 JUMP JUMPDEST PUSH1 0x40 MLOAD DUP1 SWAP2 SUB SWAP1 REVERT JUMPDEST POP POP POP POP POP JUMP JUMPDEST PUSH32 0x0 DUP2 JUMP JUMPDEST PUSH1 0x0 PUSH1 0x64 PUSH4 0x1E13380 PUSH1 0xC PUSH32 0x0 PUSH1 0x5 PUSH1 0x0 DUP9 PUSH20 0xFFFFFFFFFFFFFFFFFFFFFFFFFFFFFFFFFFFFFFFF AND PUSH20 0xFFFFFFFFFFFFFFFFFFFFFFFFFFFFFFFFFFFFFFFF AND DUP2 MSTORE PUSH1 0x20 ADD SWAP1 DUP2 MSTORE PUSH1 0x20 ADD PUSH1 0x0 KECCAK256 PUSH1 0x0 DUP8 PUSH20 0xFFFFFFFFFFFFFFFFFFFFFFFFFFFFFFFFFFFFFFFF AND PUSH20 0xFFFFFFFFFFFFFFFFFFFFFFFFFFFFFFFFFFFFFFFF AND DUP2 MSTORE PUSH1 0x20 ADD SWAP1 DUP2 MSTORE PUSH1 0x20 ADD PUSH1 0x0 KECCAK256 SLOAD TIMESTAMP PUSH2 0x927 SWAP2 SWAP1 PUSH2 0x2631 JUMP JUMPDEST PUSH2 0x931 SWAP2 SWAP1 PUSH2 0x25D7 JUMP JUMPDEST PUSH2 0x93B SWAP2 SWAP1 PUSH2 0x25D7 JUMP JUMPDEST PUSH2 0x945 SWAP2 SWAP1 PUSH2 0x25A6 JUMP JUMPDEST PUSH2 0x94F SWAP2 SWAP1 PUSH2 0x25D7 JUMP JUMPDEST PUSH1 0x2 PUSH1 0x0 DUP6 PUSH20 0xFFFFFFFFFFFFFFFFFFFFFFFFFFFFFFFFFFFFFFFF AND PUSH20 0xFFFFFFFFFFFFFFFFFFFFFFFFFFFFFFFFFFFFFFFF AND DUP2 MSTORE PUSH1 0x20 ADD SWAP1 DUP2 MSTORE PUSH1 0x20 ADD PUSH1 0x0 KECCAK256 PUSH1 0x0 DUP5 PUSH20 0xFFFFFFFFFFFFFFFFFFFFFFFFFFFFFFFFFFFFFFFF AND PUSH20 0xFFFFFFFFFFFFFFFFFFFFFFFFFFFFFFFFFFFFFFFF AND DUP2 MSTORE PUSH1 0x20 ADD SWAP1 DUP2 MSTORE PUSH1 0x20 ADD PUSH1 0x0 KECCAK256 SLOAD PUSH2 0x9D6 SWAP2 SWAP1 PUSH2 0x25D7 JUMP JUMPDEST SWAP1 POP SWAP3 SWAP2 POP POP JUMP JUMPDEST PUSH1 0x60 DUP1 PUSH1 0x60 PUSH1 0x0 PUSH1 0x3 PUSH1 0x0 DUP7 PUSH20 0xFFFFFFFFFFFFFFFFFFFFFFFFFFFFFFFFFFFFFFFF AND PUSH20 0xFFFFFFFFFFFFFFFFFFFFFFFFFFFFFFFFFFFFFFFF AND DUP2 MSTORE PUSH1 0x20 ADD SWAP1 DUP2 MSTORE PUSH1 0x20 ADD PUSH1 0x0 KECCAK256 DUP1 SLOAD SWAP1 POP SWAP1 POP DUP1 PUSH8 0xFFFFFFFFFFFFFFFF DUP2 GT ISZERO PUSH2 0xA44 JUMPI PUSH2 0xA43 PUSH2 0x2886 JUMP JUMPDEST JUMPDEST PUSH1 0x40 MLOAD SWAP1 DUP1 DUP3 MSTORE DUP1 PUSH1 0x20 MUL PUSH1 0x20 ADD DUP3 ADD PUSH1 0x40 MSTORE DUP1 ISZERO PUSH2 0xA72 JUMPI DUP2 PUSH1 0x20 ADD PUSH1 0x20 DUP3 MUL DUP1 CALLDATASIZE DUP4 CALLDATACOPY DUP1 DUP3 ADD SWAP2 POP POP SWAP1 POP JUMPDEST POP SWAP4 POP DUP1 PUSH8 0xFFFFFFFFFFFFFFFF DUP2 GT ISZERO PUSH2 0xA8F JUMPI PUSH2 0xA8E PUSH2 0x2886 JUMP JUMPDEST JUMPDEST PUSH1 0x40 MLOAD SWAP1 DUP1 DUP3 MSTORE DUP1 PUSH1 0x20 MUL PUSH1 0x20 ADD DUP3 ADD PUSH1 0x40 MSTORE DUP1 ISZERO PUSH2 0xAC2 JUMPI DUP2 PUSH1 0x20 ADD JUMPDEST PUSH1 0x60 DUP2 MSTORE PUSH1 0x20 ADD SWAP1 PUSH1 0x1 SWAP1 SUB SWAP1 DUP2 PUSH2 0xAAD JUMPI SWAP1 POP JUMPDEST POP SWAP3 POP DUP1 PUSH8 0xFFFFFFFFFFFFFFFF DUP2 GT ISZERO PUSH2 0xADF JUMPI PUSH2 0xADE PUSH2 0x2886 JUMP JUMPDEST JUMPDEST PUSH1 0x40 MLOAD SWAP1 DUP1 DUP3 MSTORE DUP1 PUSH1 0x20 MUL PUSH1 0x20 ADD DUP3 ADD PUSH1 0x40 MSTORE DUP1 ISZERO PUSH2 0xB0D JUMPI DUP2 PUSH1 0x20 ADD PUSH1 0x20 DUP3 MUL DUP1 CALLDATASIZE DUP4 CALLDATACOPY DUP1 DUP3 ADD SWAP2 POP POP SWAP1 POP JUMPDEST POP SWAP2 POP PUSH1 0x0 JUMPDEST DUP2 DUP2 LT ISZERO PUSH2 0xD7F JUMPI PUSH1 0x0 PUSH1 0x3 PUSH1 0x0 DUP9 PUSH20 0xFFFFFFFFFFFFFFFFFFFFFFFFFFFFFFFFFFFFFFFF AND PUSH20 0xFFFFFFFFFFFFFFFFFFFFFFFFFFFFFFFFFFFFFFFF AND DUP2 MSTORE PUSH1 0x20 ADD SWAP1 DUP2 MSTORE PUSH1 0x20 ADD PUSH1 0x0 KECCAK256 DUP3 DUP2 SLOAD DUP2 LT PUSH2 0xB6E JUMPI PUSH2 0xB6D PUSH2 0x2857 JUMP JUMPDEST JUMPDEST SWAP1 PUSH1 0x0 MSTORE PUSH1 0x20 PUSH1 0x0 KECCAK256 ADD PUSH1 0x0 SWAP1 SLOAD SWAP1 PUSH2 0x100 EXP SWAP1 DIV PUSH20 0xFFFFFFFFFFFFFFFFFFFFFFFFFFFFFFFFFFFFFFFF AND SWAP1 POP DUP1 DUP7 DUP4 DUP2 MLOAD DUP2 LT PUSH2 0xBAF JUMPI PUSH2 0xBAE PUSH2 0x2857 JUMP JUMPDEST JUMPDEST PUSH1 0x20 MUL PUSH1 0x20 ADD ADD SWAP1 PUSH20 0xFFFFFFFFFFFFFFFFFFFFFFFFFFFFFFFFFFFFFFFF AND SWAP1 DUP2 PUSH20 0xFFFFFFFFFFFFFFFFFFFFFFFFFFFFFFFFFFFFFFFF AND DUP2 MSTORE POP POP PUSH1 0x1 PUSH1 0x0 DUP3 PUSH20 0xFFFFFFFFFFFFFFFFFFFFFFFFFFFFFFFFFFFFFFFF AND PUSH20 0xFFFFFFFFFFFFFFFFFFFFFFFFFFFFFFFFFFFFFFFF AND DUP2 MSTORE PUSH1 0x20 ADD SWAP1 DUP2 MSTORE PUSH1 0x20 ADD PUSH1 0x0 KECCAK256 DUP1 SLOAD PUSH2 0xC33 SWAP1 PUSH2 0x26EF JUMP JUMPDEST DUP1 PUSH1 0x1F ADD PUSH1 0x20 DUP1 SWAP2 DIV MUL PUSH1 0x20 ADD PUSH1 0x40 MLOAD SWAP1 DUP2 ADD PUSH1 0x40 MSTORE DUP1 SWAP3 SWAP2 SWAP1 DUP2 DUP2 MSTORE PUSH1 0x20 ADD DUP3 DUP1 SLOAD PUSH2 0xC5F SWAP1 PUSH2 0x26EF JUMP JUMPDEST DUP1 ISZERO PUSH2 0xCAC JUMPI DUP1 PUSH1 0x1F LT PUSH2 0xC81 JUMPI PUSH2 0x100 DUP1 DUP4 SLOAD DIV MUL DUP4 MSTORE SWAP2 PUSH1 0x20 ADD SWAP2 PUSH2 0xCAC JUMP JUMPDEST DUP3 ADD SWAP2 SWAP1 PUSH1 0x0 MSTORE PUSH1 0x20 PUSH1 0x0 KECCAK256 SWAP1 JUMPDEST DUP2 SLOAD DUP2 MSTORE SWAP1 PUSH1 0x1 ADD SWAP1 PUSH1 0x20 ADD DUP1 DUP4 GT PUSH2 0xC8F JUMPI DUP3 SWAP1 SUB PUSH1 0x1F AND DUP3 ADD SWAP2 JUMPDEST POP POP POP POP POP DUP6 DUP4 DUP2 MLOAD DUP2 LT PUSH2 0xCC4 JUMPI PUSH2 0xCC3 PUSH2 0x2857 JUMP JUMPDEST JUMPDEST PUSH1 0x20 MUL PUSH1 0x20 ADD ADD DUP2 SWAP1 MSTORE POP PUSH1 0x2 PUSH1 0x0 DUP9 PUSH20 0xFFFFFFFFFFFFFFFFFFFFFFFFFFFFFFFFFFFFFFFF AND PUSH20 0xFFFFFFFFFFFFFFFFFFFFFFFFFFFFFFFFFFFFFFFF AND DUP2 MSTORE PUSH1 0x20 ADD SWAP1 DUP2 MSTORE PUSH1 0x20 ADD PUSH1 0x0 KECCAK256 PUSH1 0x0 DUP3 PUSH20 0xFFFFFFFFFFFFFFFFFFFFFFFFFFFFFFFFFFFFFFFF AND PUSH20 0xFFFFFFFFFFFFFFFFFFFFFFFFFFFFFFFFFFFFFFFF AND DUP2 MSTORE PUSH1 0x20 ADD SWAP1 DUP2 MSTORE PUSH1 0x20 ADD PUSH1 0x0 KECCAK256 SLOAD DUP5 DUP4 DUP2 MLOAD DUP2 LT PUSH2 0xD5F JUMPI PUSH2 0xD5E PUSH2 0x2857 JUMP JUMPDEST JUMPDEST PUSH1 0x20 MUL PUSH1 0x20 ADD ADD DUP2 DUP2 MSTORE POP POP POP DUP1 DUP1 PUSH2 0xD77 SWAP1 PUSH2 0x2752 JUMP JUMPDEST SWAP2 POP POP PUSH2 0xB13 JUMP JUMPDEST POP POP SWAP2 SWAP4 SWAP1 SWAP3 POP JUMP JUMPDEST PUSH32 0x0 DUP2 JUMP JUMPDEST PUSH1 0x0 DUP3 SWAP1 POP PUSH1 0x0 CALLER SWAP1 POP DUP3 PUSH1 0x2 PUSH1 0x0 DUP4 PUSH20 0xFFFFFFFFFFFFFFFFFFFFFFFFFFFFFFFFFFFFFFFF AND PUSH20 0xFFFFFFFFFFFFFFFFFFFFFFFFFFFFFFFFFFFFFFFF AND DUP2 MSTORE PUSH1 0x20 ADD SWAP1 DUP2 MSTORE PUSH1 0x20 ADD PUSH1 0x0 KECCAK256 PUSH1 0x0 DUP7 PUSH20 0xFFFFFFFFFFFFFFFFFFFFFFFFFFFFFFFFFFFFFFFF AND PUSH20 0xFFFFFFFFFFFFFFFFFFFFFFFFFFFFFFFFFFFFFFFF AND DUP2 MSTORE PUSH1 0x20 ADD SWAP1 DUP2 MSTORE PUSH1 0x20 ADD PUSH1 0x0 KECCAK256 DUP2 SWAP1 SSTORE POP PUSH1 0x3 PUSH1 0x0 DUP3 PUSH20 0xFFFFFFFFFFFFFFFFFFFFFFFFFFFFFFFFFFFFFFFF AND PUSH20 0xFFFFFFFFFFFFFFFFFFFFFFFFFFFFFFFFFFFFFFFF AND DUP2 MSTORE PUSH1 0x20 ADD SWAP1 DUP2 MSTORE PUSH1 0x20 ADD PUSH1 0x0 KECCAK256 DUP5 SWAP1 DUP1 PUSH1 0x1 DUP2 SLOAD ADD DUP1 DUP3 SSTORE DUP1 SWAP2 POP POP PUSH1 0x1 SWAP1 SUB SWAP1 PUSH1 0x0 MSTORE PUSH1 0x20 PUSH1 0x0 KECCAK256 ADD PUSH1 0x0 SWAP1 SWAP2 SWAP1 SWAP2 SWAP1 SWAP2 PUSH2 0x100 EXP DUP2 SLOAD DUP2 PUSH20 0xFFFFFFFFFFFFFFFFFFFFFFFFFFFFFFFFFFFFFFFF MUL NOT AND SWAP1 DUP4 PUSH20 0xFFFFFFFFFFFFFFFFFFFFFFFFFFFFFFFFFFFFFFFF AND MUL OR SWAP1 SSTORE POP DUP3 PUSH1 0x4 PUSH1 0x0 CALLER PUSH20 0xFFFFFFFFFFFFFFFFFFFFFFFFFFFFFFFFFFFFFFFF AND PUSH20 0xFFFFFFFFFFFFFFFFFFFFFFFFFFFFFFFFFFFFFFFF AND DUP2 MSTORE PUSH1 0x20 ADD SWAP1 DUP2 MSTORE PUSH1 0x20 ADD PUSH1 0x0 KECCAK256 PUSH1 0x0 DUP3 DUP3 SLOAD PUSH2 0xF26 SWAP2 SWAP1 PUSH2 0x2550 JUMP JUMPDEST SWAP3 POP POP DUP2 SWAP1 SSTORE POP DUP3 PUSH1 0x7 PUSH1 0x0 DUP7 PUSH20 0xFFFFFFFFFFFFFFFFFFFFFFFFFFFFFFFFFFFFFFFF AND PUSH20 0xFFFFFFFFFFFFFFFFFFFFFFFFFFFFFFFFFFFFFFFF AND DUP2 MSTORE PUSH1 0x20 ADD SWAP1 DUP2 MSTORE PUSH1 0x20 ADD PUSH1 0x0 KECCAK256 PUSH1 0x0 DUP3 DUP3 SLOAD PUSH2 0xF7C SWAP2 SWAP1 PUSH2 0x2550 JUMP JUMPDEST SWAP3 POP POP DUP2 SWAP1 SSTORE POP PUSH1 0x8 DUP5 SWAP1 DUP1 PUSH1 0x1 DUP2 SLOAD ADD DUP1 DUP3 SSTORE DUP1 SWAP2 POP POP PUSH1 0x1 SWAP1 SUB SWAP1 PUSH1 0x0 MSTORE PUSH1 0x20 PUSH1 0x0 KECCAK256 ADD PUSH1 0x0 SWAP1 SWAP2 SWAP1 SWAP2 SWAP1 SWAP2 PUSH2 0x100 EXP DUP2 SLOAD DUP2 PUSH20 0xFFFFFFFFFFFFFFFFFFFFFFFFFFFFFFFFFFFFFFFF MUL NOT AND SWAP1 DUP4 PUSH20 0xFFFFFFFFFFFFFFFFFFFFFFFFFFFFFFFFFFFFFFFF AND MUL OR SWAP1 SSTORE POP TIMESTAMP PUSH1 0x5 PUSH1 0x0 DUP4 PUSH20 0xFFFFFFFFFFFFFFFFFFFFFFFFFFFFFFFFFFFFFFFF AND PUSH20 0xFFFFFFFFFFFFFFFFFFFFFFFFFFFFFFFFFFFFFFFF AND DUP2 MSTORE PUSH1 0x20 ADD SWAP1 DUP2 MSTORE PUSH1 0x20 ADD PUSH1 0x0 KECCAK256 PUSH1 0x0 DUP7 PUSH20 0xFFFFFFFFFFFFFFFFFFFFFFFFFFFFFFFFFFFFFFFF AND PUSH20 0xFFFFFFFFFFFFFFFFFFFFFFFFFFFFFFFFFFFFFFFF AND DUP2 MSTORE PUSH1 0x20 ADD SWAP1 DUP2 MSTORE PUSH1 0x20 ADD PUSH1 0x0 KECCAK256 DUP2 SWAP1 SSTORE POP PUSH1 0x0 DUP3 PUSH20 0xFFFFFFFFFFFFFFFFFFFFFFFFFFFFFFFFFFFFFFFF AND PUSH4 0x23B872DD DUP4 ADDRESS DUP8 PUSH1 0x40 MLOAD DUP5 PUSH4 0xFFFFFFFF AND PUSH1 0xE0 SHL DUP2 MSTORE PUSH1 0x4 ADD PUSH2 0x10A6 SWAP4 SWAP3 SWAP2 SWAP1 PUSH2 0x2227 JUMP JUMPDEST PUSH1 0x20 PUSH1 0x40 MLOAD DUP1 DUP4 SUB DUP2 PUSH1 0x0 DUP8 DUP1 EXTCODESIZE ISZERO DUP1 ISZERO PUSH2 0x10C0 JUMPI PUSH1 0x0 DUP1 REVERT JUMPDEST POP GAS CALL ISZERO DUP1 ISZERO PUSH2 0x10D4 JUMPI RETURNDATASIZE PUSH1 0x0 DUP1 RETURNDATACOPY RETURNDATASIZE PUSH1 0x0 REVERT JUMPDEST POP POP POP POP PUSH1 0x40 MLOAD RETURNDATASIZE PUSH1 0x1F NOT PUSH1 0x1F DUP3 ADD AND DUP3 ADD DUP1 PUSH1 0x40 MSTORE POP DUP2 ADD SWAP1 PUSH2 0x10F8 SWAP2 SWAP1 PUSH2 0x1E72 JUMP JUMPDEST SWAP1 POP DUP1 PUSH2 0x113A JUMPI PUSH1 0x40 MLOAD PUSH32 0x8C379A000000000000000000000000000000000000000000000000000000000 DUP2 MSTORE PUSH1 0x4 ADD PUSH2 0x1131 SWAP1 PUSH2 0x2347 JUMP JUMPDEST PUSH1 0x40 MLOAD DUP1 SWAP2 SUB SWAP1 REVERT JUMPDEST POP POP POP POP POP JUMP JUMPDEST PUSH1 0x0 DUP1 SLOAD SWAP1 PUSH2 0x100 EXP SWAP1 DIV PUSH20 0xFFFFFFFFFFFFFFFFFFFFFFFFFFFFFFFFFFFFFFFF AND DUP2 JUMP JUMPDEST PUSH1 0x0 DUP1 SLOAD SWAP1 PUSH2 0x100 EXP SWAP1 DIV PUSH20 0xFFFFFFFFFFFFFFFFFFFFFFFFFFFFFFFFFFFFFFFF AND PUSH20 0xFFFFFFFFFFFFFFFFFFFFFFFFFFFFFFFFFFFFFFFF AND CALLER PUSH20 0xFFFFFFFFFFFFFFFFFFFFFFFFFFFFFFFFFFFFFFFF AND EQ PUSH2 0x11F3 JUMPI PUSH1 0x40 MLOAD PUSH32 0x8C379A000000000000000000000000000000000000000000000000000000000 DUP2 MSTORE PUSH1 0x4 ADD PUSH2 0x11EA SWAP1 PUSH2 0x2387 JUMP JUMPDEST PUSH1 0x40 MLOAD DUP1 SWAP2 SUB SWAP1 REVERT JUMPDEST DUP1 PUSH1 0x1 PUSH1 0x0 DUP5 PUSH20 0xFFFFFFFFFFFFFFFFFFFFFFFFFFFFFFFFFFFFFFFF AND PUSH20 0xFFFFFFFFFFFFFFFFFFFFFFFFFFFFFFFFFFFFFFFF AND DUP2 MSTORE PUSH1 0x20 ADD SWAP1 DUP2 MSTORE PUSH1 0x20 ADD PUSH1 0x0 KECCAK256 SWAP1 DUP1 MLOAD SWAP1 PUSH1 0x20 ADD SWAP1 PUSH2 0x1246 SWAP3 SWAP2 SWAP1 PUSH2 0x1C17 JUMP JUMPDEST POP POP POP JUMP JUMPDEST DUP1 PUSH2 0x1255 DUP2 PUSH2 0x1AC2 JUMP JUMPDEST PUSH2 0x1294 JUMPI PUSH1 0x40 MLOAD PUSH32 0x8C379A000000000000000000000000000000000000000000000000000000000 DUP2 MSTORE PUSH1 0x4 ADD PUSH2 0x128B SWAP1 PUSH2 0x2307 JUMP JUMPDEST PUSH1 0x40 MLOAD DUP1 SWAP2 SUB SWAP1 REVERT JUMPDEST PUSH2 0x132C PUSH2 0x12A1 DUP5 DUP5 PUSH2 0x873 JUMP JUMPDEST PUSH1 0x2 PUSH1 0x0 DUP7 PUSH20 0xFFFFFFFFFFFFFFFFFFFFFFFFFFFFFFFFFFFFFFFF AND PUSH20 0xFFFFFFFFFFFFFFFFFFFFFFFFFFFFFFFFFFFFFFFF AND DUP2 MSTORE PUSH1 0x20 ADD SWAP1 DUP2 MSTORE PUSH1 0x20 ADD PUSH1 0x0 KECCAK256 PUSH1 0x0 DUP6 PUSH20 0xFFFFFFFFFFFFFFFFFFFFFFFFFFFFFFFFFFFFFFFF AND PUSH20 0xFFFFFFFFFFFFFFFFFFFFFFFFFFFFFFFFFFFFFFFF AND DUP2 MSTORE PUSH1 0x20 ADD SWAP1 DUP2 MSTORE PUSH1 0x20 ADD PUSH1 0x0 KECCAK256 SLOAD PUSH2 0x1BEB SWAP1 SWAP2 SWAP1 PUSH4 0xFFFFFFFF AND JUMP JUMPDEST PUSH1 0x2 PUSH1 0x0 DUP6 PUSH20 0xFFFFFFFFFFFFFFFFFFFFFFFFFFFFFFFFFFFFFFFF AND PUSH20 0xFFFFFFFFFFFFFFFFFFFFFFFFFFFFFFFFFFFFFFFF AND DUP2 MSTORE PUSH1 0x20 ADD SWAP1 DUP2 MSTORE PUSH1 0x20 ADD PUSH1 0x0 KECCAK256 PUSH1 0x0 DUP5 PUSH20 0xFFFFFFFFFFFFFFFFFFFFFFFFFFFFFFFFFFFFFFFF AND PUSH20 0xFFFFFFFFFFFFFFFFFFFFFFFFFFFFFFFFFFFFFFFF AND DUP2 MSTORE PUSH1 0x20 ADD SWAP1 DUP2 MSTORE PUSH1 0x20 ADD PUSH1 0x0 KECCAK256 DUP2 SWAP1 SSTORE POP POP POP POP JUMP JUMPDEST PUSH1 0x0 DUP3 PUSH1 0x0 PUSH1 0x2 PUSH1 0x0 CALLER PUSH20 0xFFFFFFFFFFFFFFFFFFFFFFFFFFFFFFFFFFFFFFFF AND PUSH20 0xFFFFFFFFFFFFFFFFFFFFFFFFFFFFFFFFFFFFFFFF AND DUP2 MSTORE PUSH1 0x20 ADD SWAP1 DUP2 MSTORE PUSH1 0x20 ADD PUSH1 0x0 KECCAK256 PUSH1 0x0 DUP4 PUSH20 0xFFFFFFFFFFFFFFFFFFFFFFFFFFFFFFFFFFFFFFFF AND PUSH20 0xFFFFFFFFFFFFFFFFFFFFFFFFFFFFFFFFFFFFFFFF AND DUP2 MSTORE PUSH1 0x20 ADD SWAP1 DUP2 MSTORE PUSH1 0x20 ADD PUSH1 0x0 KECCAK256 SLOAD GT PUSH2 0x1473 JUMPI PUSH1 0x40 MLOAD PUSH32 0x8C379A000000000000000000000000000000000000000000000000000000000 DUP2 MSTORE PUSH1 0x4 ADD PUSH2 0x146A SWAP1 PUSH2 0x23A7 JUMP JUMPDEST PUSH1 0x40 MLOAD DUP1 SWAP2 SUB SWAP1 REVERT JUMPDEST DUP4 PUSH2 0x147D DUP2 PUSH2 0x1AC2 JUMP JUMPDEST PUSH2 0x14BC JUMPI PUSH1 0x40 MLOAD PUSH32 0x8C379A000000000000000000000000000000000000000000000000000000000 DUP2 MSTORE PUSH1 0x4 ADD PUSH2 0x14B3 SWAP1 PUSH2 0x2307 JUMP JUMPDEST PUSH1 0x40 MLOAD DUP1 SWAP2 SUB SWAP1 REVERT JUMPDEST PUSH1 0x0 DUP6 SWAP1 POP PUSH1 0x0 CALLER SWAP1 POP PUSH2 0x14D0 DUP2 DUP9 PUSH2 0x124B JUMP JUMPDEST DUP6 PUSH1 0x2 PUSH1 0x0 DUP4 PUSH20 0xFFFFFFFFFFFFFFFFFFFFFFFFFFFFFFFFFFFFFFFF AND PUSH20 0xFFFFFFFFFFFFFFFFFFFFFFFFFFFFFFFFFFFFFFFF AND DUP2 MSTORE PUSH1 0x20 ADD SWAP1 DUP2 MSTORE PUSH1 0x20 ADD PUSH1 0x0 KECCAK256 PUSH1 0x0 DUP10 PUSH20 0xFFFFFFFFFFFFFFFFFFFFFFFFFFFFFFFFFFFFFFFF AND PUSH20 0xFFFFFFFFFFFFFFFFFFFFFFFFFFFFFFFFFFFFFFFF AND DUP2 MSTORE PUSH1 0x20 ADD SWAP1 DUP2 MSTORE PUSH1 0x20 ADD PUSH1 0x0 KECCAK256 SLOAD GT PUSH2 0x158E JUMPI PUSH1 0x40 MLOAD PUSH32 0x8C379A000000000000000000000000000000000000000000000000000000000 DUP2 MSTORE PUSH1 0x4 ADD PUSH2 0x1585 SWAP1 PUSH2 0x2367 JUMP JUMPDEST PUSH1 0x40 MLOAD DUP1 SWAP2 SUB SWAP1 REVERT JUMPDEST DUP6 PUSH1 0x7 PUSH1 0x0 DUP10 PUSH20 0xFFFFFFFFFFFFFFFFFFFFFFFFFFFFFFFFFFFFFFFF AND PUSH20 0xFFFFFFFFFFFFFFFFFFFFFFFFFFFFFFFFFFFFFFFF AND DUP2 MSTORE PUSH1 0x20 ADD SWAP1 DUP2 MSTORE PUSH1 0x20 ADD PUSH1 0x0 KECCAK256 SLOAD GT PUSH2 0x160F JUMPI PUSH1 0x40 MLOAD PUSH32 0x8C379A000000000000000000000000000000000000000000000000000000000 DUP2 MSTORE PUSH1 0x4 ADD PUSH2 0x1606 SWAP1 PUSH2 0x23C7 JUMP JUMPDEST PUSH1 0x40 MLOAD DUP1 SWAP2 SUB SWAP1 REVERT JUMPDEST DUP6 PUSH1 0x7 PUSH1 0x0 DUP10 PUSH20 0xFFFFFFFFFFFFFFFFFFFFFFFFFFFFFFFFFFFFFFFF AND PUSH20 0xFFFFFFFFFFFFFFFFFFFFFFFFFFFFFFFFFFFFFFFF AND DUP2 MSTORE PUSH1 0x20 ADD SWAP1 DUP2 MSTORE PUSH1 0x20 ADD PUSH1 0x0 KECCAK256 PUSH1 0x0 DUP3 DUP3 SLOAD PUSH2 0x165E SWAP2 SWAP1 PUSH2 0x2631 JUMP JUMPDEST SWAP3 POP POP DUP2 SWAP1 SSTORE POP PUSH1 0x0 PUSH1 0x7 PUSH1 0x0 DUP10 PUSH20 0xFFFFFFFFFFFFFFFFFFFFFFFFFFFFFFFFFFFFFFFF AND PUSH20 0xFFFFFFFFFFFFFFFFFFFFFFFFFFFFFFFFFFFFFFFF AND DUP2 MSTORE PUSH1 0x20 ADD SWAP1 DUP2 MSTORE PUSH1 0x20 ADD PUSH1 0x0 KECCAK256 SLOAD EQ ISZERO PUSH2 0x1886 JUMPI PUSH1 0x0 DUP1 PUSH1 0x0 SWAP1 POP JUMPDEST PUSH1 0x8 DUP1 SLOAD SWAP1 POP DUP2 LT ISZERO PUSH2 0x1790 JUMPI DUP9 PUSH20 0xFFFFFFFFFFFFFFFFFFFFFFFFFFFFFFFFFFFFFFFF AND PUSH1 0x8 DUP3 DUP2 SLOAD DUP2 LT PUSH2 0x16ED JUMPI PUSH2 0x16EC PUSH2 0x2857 JUMP JUMPDEST JUMPDEST SWAP1 PUSH1 0x0 MSTORE PUSH1 0x20 PUSH1 0x0 KECCAK256 ADD PUSH1 0x0 SWAP1 SLOAD SWAP1 PUSH2 0x100 EXP SWAP1 DIV PUSH20 0xFFFFFFFFFFFFFFFFFFFFFFFFFFFFFFFFFFFFFFFF AND PUSH20 0xFFFFFFFFFFFFFFFFFFFFFFFFFFFFFFFFFFFFFFFF AND EQ ISZERO PUSH2 0x177D JUMPI PUSH1 0x8 DUP2 DUP2 SLOAD DUP2 LT PUSH2 0x1748 JUMPI PUSH2 0x1747 PUSH2 0x2857 JUMP JUMPDEST JUMPDEST SWAP1 PUSH1 0x0 MSTORE PUSH1 0x20 PUSH1 0x0 KECCAK256 ADD PUSH1 0x0 PUSH2 0x100 EXP DUP2 SLOAD SWAP1 PUSH20 0xFFFFFFFFFFFFFFFFFFFFFFFFFFFFFFFFFFFFFFFF MUL NOT AND SWAP1 SSTORE DUP1 SWAP2 POP PUSH2 0x1790 JUMP JUMPDEST DUP1 DUP1 PUSH2 0x1788 SWAP1 PUSH2 0x2752 JUMP JUMPDEST SWAP2 POP POP PUSH2 0x16B5 JUMP JUMPDEST POP PUSH1 0x8 PUSH1 0x1 PUSH1 0x8 DUP1 SLOAD SWAP1 POP PUSH2 0x17A5 SWAP2 SWAP1 PUSH2 0x2631 JUMP JUMPDEST DUP2 SLOAD DUP2 LT PUSH2 0x17B6 JUMPI PUSH2 0x17B5 PUSH2 0x2857 JUMP JUMPDEST JUMPDEST SWAP1 PUSH1 0x0 MSTORE PUSH1 0x20 PUSH1 0x0 KECCAK256 ADD PUSH1 0x0 SWAP1 SLOAD SWAP1 PUSH2 0x100 EXP SWAP1 DIV PUSH20 0xFFFFFFFFFFFFFFFFFFFFFFFFFFFFFFFFFFFFFFFF AND PUSH1 0x8 DUP3 DUP2 SLOAD DUP2 LT PUSH2 0x17F5 JUMPI PUSH2 0x17F4 PUSH2 0x2857 JUMP JUMPDEST JUMPDEST SWAP1 PUSH1 0x0 MSTORE PUSH1 0x20 PUSH1 0x0 KECCAK256 ADD PUSH1 0x0 PUSH2 0x100 EXP DUP2 SLOAD DUP2 PUSH20 0xFFFFFFFFFFFFFFFFFFFFFFFFFFFFFFFFFFFFFFFF MUL NOT AND SWAP1 DUP4 PUSH20 0xFFFFFFFFFFFFFFFFFFFFFFFFFFFFFFFFFFFFFFFF AND MUL OR SWAP1 SSTORE POP PUSH1 0x8 DUP1 SLOAD DUP1 PUSH2 0x184F JUMPI PUSH2 0x184E PUSH2 0x2828 JUMP JUMPDEST JUMPDEST PUSH1 0x1 SWAP1 SUB DUP2 DUP2 SWAP1 PUSH1 0x0 MSTORE PUSH1 0x20 PUSH1 0x0 KECCAK256 ADD PUSH1 0x0 PUSH2 0x100 EXP DUP2 SLOAD SWAP1 PUSH20 0xFFFFFFFFFFFFFFFFFFFFFFFFFFFFFFFFFFFFFFFF MUL NOT AND SWAP1 SSTORE SWAP1 SSTORE POP JUMPDEST PUSH2 0x1915 DUP7 PUSH1 0x2 PUSH1 0x0 DUP5 PUSH20 0xFFFFFFFFFFFFFFFFFFFFFFFFFFFFFFFFFFFFFFFF AND PUSH20 0xFFFFFFFFFFFFFFFFFFFFFFFFFFFFFFFFFFFFFFFF AND DUP2 MSTORE PUSH1 0x20 ADD SWAP1 DUP2 MSTORE PUSH1 0x20 ADD PUSH1 0x0 KECCAK256 PUSH1 0x0 DUP11 PUSH20 0xFFFFFFFFFFFFFFFFFFFFFFFFFFFFFFFFFFFFFFFF AND PUSH20 0xFFFFFFFFFFFFFFFFFFFFFFFFFFFFFFFFFFFFFFFF AND DUP2 MSTORE PUSH1 0x20 ADD SWAP1 DUP2 MSTORE PUSH1 0x20 ADD PUSH1 0x0 KECCAK256 SLOAD PUSH2 0x1C01 SWAP1 SWAP2 SWAP1 PUSH4 0xFFFFFFFF AND JUMP JUMPDEST PUSH1 0x2 PUSH1 0x0 DUP4 PUSH20 0xFFFFFFFFFFFFFFFFFFFFFFFFFFFFFFFFFFFFFFFF AND PUSH20 0xFFFFFFFFFFFFFFFFFFFFFFFFFFFFFFFFFFFFFFFF AND DUP2 MSTORE PUSH1 0x20 ADD SWAP1 DUP2 MSTORE PUSH1 0x20 ADD PUSH1 0x0 KECCAK256 PUSH1 0x0 DUP10 PUSH20 0xFFFFFFFFFFFFFFFFFFFFFFFFFFFFFFFFFFFFFFFF AND PUSH20 0xFFFFFFFFFFFFFFFFFFFFFFFFFFFFFFFFFFFFFFFF AND DUP2 MSTORE PUSH1 0x20 ADD SWAP1 DUP2 MSTORE PUSH1 0x20 ADD PUSH1 0x0 KECCAK256 DUP2 SWAP1 SSTORE POP TIMESTAMP PUSH1 0x5 PUSH1 0x0 DUP4 PUSH20 0xFFFFFFFFFFFFFFFFFFFFFFFFFFFFFFFFFFFFFFFF AND PUSH20 0xFFFFFFFFFFFFFFFFFFFFFFFFFFFFFFFFFFFFFFFF AND DUP2 MSTORE PUSH1 0x20 ADD SWAP1 DUP2 MSTORE PUSH1 0x20 ADD PUSH1 0x0 KECCAK256 PUSH1 0x0 DUP10 PUSH20 0xFFFFFFFFFFFFFFFFFFFFFFFFFFFFFFFFFFFFFFFF AND PUSH20 0xFFFFFFFFFFFFFFFFFFFFFFFFFFFFFFFFFFFFFFFF AND DUP2 MSTORE PUSH1 0x20 ADD SWAP1 DUP2 MSTORE PUSH1 0x20 ADD PUSH1 0x0 KECCAK256 DUP2 SWAP1 SSTORE POP PUSH1 0x0 DUP3 PUSH20 0xFFFFFFFFFFFFFFFFFFFFFFFFFFFFFFFFFFFFFFFF AND PUSH4 0x23B872DD ADDRESS DUP5 DUP11 PUSH1 0x40 MLOAD DUP5 PUSH4 0xFFFFFFFF AND PUSH1 0xE0 SHL DUP2 MSTORE PUSH1 0x4 ADD PUSH2 0x1A55 SWAP4 SWAP3 SWAP2 SWAP1 PUSH2 0x2227 JUMP JUMPDEST PUSH1 0x20 PUSH1 0x40 MLOAD DUP1 DUP4 SUB DUP2 PUSH1 0x0 DUP8 DUP1 EXTCODESIZE ISZERO DUP1 ISZERO PUSH2 0x1A6F JUMPI PUSH1 0x0 DUP1 REVERT JUMPDEST POP GAS CALL ISZERO DUP1 ISZERO PUSH2 0x1A83 JUMPI RETURNDATASIZE PUSH1 0x0 DUP1 RETURNDATACOPY RETURNDATASIZE PUSH1 0x0 REVERT JUMPDEST POP POP POP POP PUSH1 0x40 MLOAD RETURNDATASIZE PUSH1 0x1F NOT PUSH1 0x1F DUP3 ADD AND DUP3 ADD DUP1 PUSH1 0x40 MSTORE POP DUP2 ADD SWAP1 PUSH2 0x1AA7 SWAP2 SWAP1 PUSH2 0x1E72 JUMP JUMPDEST SWAP1 POP DUP1 PUSH2 0x1AB3 JUMPI PUSH1 0x0 DUP1 REVERT JUMPDEST PUSH1 0x1 SWAP6 POP POP POP POP POP POP SWAP3 SWAP2 POP POP JUMP JUMPDEST PUSH1 0x0 DUP1 PUSH1 0x0 SWAP1 POP JUMPDEST PUSH1 0x3 PUSH1 0x0 CALLER PUSH20 0xFFFFFFFFFFFFFFFFFFFFFFFFFFFFFFFFFFFFFFFF AND PUSH20 0xFFFFFFFFFFFFFFFFFFFFFFFFFFFFFFFFFFFFFFFF AND DUP2 MSTORE PUSH1 0x20 ADD SWAP1 DUP2 MSTORE PUSH1 0x20 ADD PUSH1 0x0 KECCAK256 DUP1 SLOAD SWAP1 POP DUP2 LT ISZERO PUSH2 0x1BE0 JUMPI DUP3 PUSH20 0xFFFFFFFFFFFFFFFFFFFFFFFFFFFFFFFFFFFFFFFF AND PUSH1 0x3 PUSH1 0x0 CALLER PUSH20 0xFFFFFFFFFFFFFFFFFFFFFFFFFFFFFFFFFFFFFFFF AND PUSH20 0xFFFFFFFFFFFFFFFFFFFFFFFFFFFFFFFFFFFFFFFF AND DUP2 MSTORE PUSH1 0x20 ADD SWAP1 DUP2 MSTORE PUSH1 0x20 ADD PUSH1 0x0 KECCAK256 DUP3 DUP2 SLOAD DUP2 LT PUSH2 0x1B7C JUMPI PUSH2 0x1B7B PUSH2 0x2857 JUMP JUMPDEST JUMPDEST SWAP1 PUSH1 0x0 MSTORE PUSH1 0x20 PUSH1 0x0 KECCAK256 ADD PUSH1 0x0 SWAP1 SLOAD SWAP1 PUSH2 0x100 EXP SWAP1 DIV PUSH20 0xFFFFFFFFFFFFFFFFFFFFFFFFFFFFFFFFFFFFFFFF AND PUSH20 0xFFFFFFFFFFFFFFFFFFFFFFFFFFFFFFFFFFFFFFFF AND EQ ISZERO PUSH2 0x1BCD JUMPI PUSH1 0x1 SWAP2 POP POP PUSH2 0x1BE6 JUMP JUMPDEST DUP1 DUP1 PUSH2 0x1BD8 SWAP1 PUSH2 0x2752 JUMP JUMPDEST SWAP2 POP POP PUSH2 0x1ACA JUMP JUMPDEST POP PUSH1 0x0 SWAP1 POP JUMPDEST SWAP2 SWAP1 POP JUMP JUMPDEST PUSH1 0x0 DUP2 DUP4 PUSH2 0x1BF9 SWAP2 SWAP1 PUSH2 0x2550 JUMP JUMPDEST SWAP1 POP SWAP3 SWAP2 POP POP JUMP JUMPDEST PUSH1 0x0 DUP2 DUP4 PUSH2 0x1C0F SWAP2 SWAP1 PUSH2 0x2631 JUMP JUMPDEST SWAP1 POP SWAP3 SWAP2 POP POP JUMP JUMPDEST DUP3 DUP1 SLOAD PUSH2 0x1C23 SWAP1 PUSH2 0x26EF JUMP JUMPDEST SWAP1 PUSH1 0x0 MSTORE PUSH1 0x20 PUSH1 0x0 KECCAK256 SWAP1 PUSH1 0x1F ADD PUSH1 0x20 SWAP1 DIV DUP2 ADD SWAP3 DUP3 PUSH2 0x1C45 JUMPI PUSH1 0x0 DUP6 SSTORE PUSH2 0x1C8C JUMP JUMPDEST DUP3 PUSH1 0x1F LT PUSH2 0x1C5E JUMPI DUP1 MLOAD PUSH1 0xFF NOT AND DUP4 DUP1 ADD OR DUP6 SSTORE PUSH2 0x1C8C JUMP JUMPDEST DUP3 DUP1 ADD PUSH1 0x1 ADD DUP6 SSTORE DUP3 ISZERO PUSH2 0x1C8C JUMPI SWAP2 DUP3 ADD JUMPDEST DUP3 DUP2 GT ISZERO PUSH2 0x1C8B JUMPI DUP3 MLOAD DUP3 SSTORE SWAP2 PUSH1 0x20 ADD SWAP2 SWAP1 PUSH1 0x1 ADD SWAP1 PUSH2 0x1C70 JUMP JUMPDEST JUMPDEST POP SWAP1 POP PUSH2 0x1C99 SWAP2 SWAP1 PUSH2 0x1C9D JUMP JUMPDEST POP SWAP1 JUMP JUMPDEST JUMPDEST DUP1 DUP3 GT ISZERO PUSH2 0x1CB6 JUMPI PUSH1 0x0 DUP2 PUSH1 0x0 SWAP1 SSTORE POP PUSH1 0x1 ADD PUSH2 0x1C9E JUMP JUMPDEST POP SWAP1 JUMP JUMPDEST PUSH1 0x0 PUSH2 0x1CCD PUSH2 0x1CC8 DUP5 PUSH2 0x2447 JUMP JUMPDEST PUSH2 0x2422 JUMP JUMPDEST SWAP1 POP DUP3 DUP2 MSTORE PUSH1 0x20 DUP2 ADD DUP5 DUP5 DUP5 ADD GT ISZERO PUSH2 0x1CE9 JUMPI PUSH2 0x1CE8 PUSH2 0x28BA JUMP JUMPDEST JUMPDEST PUSH2 0x1CF4 DUP5 DUP3 DUP6 PUSH2 0x26AD JUMP JUMPDEST POP SWAP4 SWAP3 POP POP POP JUMP JUMPDEST PUSH1 0x0 DUP2 CALLDATALOAD SWAP1 POP PUSH2 0x1D0B DUP2 PUSH2 0x2ABD JUMP JUMPDEST SWAP3 SWAP2 POP POP JUMP JUMPDEST PUSH1 0x0 DUP2 MLOAD SWAP1 POP PUSH2 0x1D20 DUP2 PUSH2 0x2AD4 JUMP JUMPDEST SWAP3 SWAP2 POP POP JUMP JUMPDEST PUSH1 0x0 DUP3 PUSH1 0x1F DUP4 ADD SLT PUSH2 0x1D3B JUMPI PUSH2 0x1D3A PUSH2 0x28B5 JUMP JUMPDEST JUMPDEST DUP2 CALLDATALOAD PUSH2 0x1D4B DUP5 DUP3 PUSH1 0x20 DUP7 ADD PUSH2 0x1CBA JUMP JUMPDEST SWAP2 POP POP SWAP3 SWAP2 POP POP JUMP JUMPDEST PUSH1 0x0 DUP2 CALLDATALOAD SWAP1 POP PUSH2 0x1D63 DUP2 PUSH2 0x2AEB JUMP JUMPDEST SWAP3 SWAP2 POP POP JUMP JUMPDEST PUSH1 0x0 PUSH1 0x20 DUP3 DUP5 SUB SLT ISZERO PUSH2 0x1D7F JUMPI PUSH2 0x1D7E PUSH2 0x28C4 JUMP JUMPDEST JUMPDEST PUSH1 0x0 PUSH2 0x1D8D DUP5 DUP3 DUP6 ADD PUSH2 0x1CFC JUMP JUMPDEST SWAP2 POP POP SWAP3 SWAP2 POP POP JUMP JUMPDEST PUSH1 0x0 DUP1 PUSH1 0x40 DUP4 DUP6 SUB SLT ISZERO PUSH2 0x1DAD JUMPI PUSH2 0x1DAC PUSH2 0x28C4 JUMP JUMPDEST JUMPDEST PUSH1 0x0 PUSH2 0x1DBB DUP6 DUP3 DUP7 ADD PUSH2 0x1CFC JUMP JUMPDEST SWAP3 POP POP PUSH1 0x20 PUSH2 0x1DCC DUP6 DUP3 DUP7 ADD PUSH2 0x1CFC JUMP JUMPDEST SWAP2 POP POP SWAP3 POP SWAP3 SWAP1 POP JUMP JUMPDEST PUSH1 0x0 DUP1 PUSH1 0x40 DUP4 DUP6 SUB SLT ISZERO PUSH2 0x1DED JUMPI PUSH2 0x1DEC PUSH2 0x28C4 JUMP JUMPDEST JUMPDEST PUSH1 0x0 PUSH2 0x1DFB DUP6 DUP3 DUP7 ADD PUSH2 0x1CFC JUMP JUMPDEST SWAP3 POP POP PUSH1 0x20 DUP4 ADD CALLDATALOAD PUSH8 0xFFFFFFFFFFFFFFFF DUP2 GT ISZERO PUSH2 0x1E1C JUMPI PUSH2 0x1E1B PUSH2 0x28BF JUMP JUMPDEST JUMPDEST PUSH2 0x1E28 DUP6 DUP3 DUP7 ADD PUSH2 0x1D26 JUMP JUMPDEST SWAP2 POP POP SWAP3 POP SWAP3 SWAP1 POP JUMP JUMPDEST PUSH1 0x0 DUP1 PUSH1 0x40 DUP4 DUP6 SUB SLT ISZERO PUSH2 0x1E49 JUMPI PUSH2 0x1E48 PUSH2 0x28C4 JUMP JUMPDEST JUMPDEST PUSH1 0x0 PUSH2 0x1E57 DUP6 DUP3 DUP7 ADD PUSH2 0x1CFC JUMP JUMPDEST SWAP3 POP POP PUSH1 0x20 PUSH2 0x1E68 DUP6 DUP3 DUP7 ADD PUSH2 0x1D54 JUMP JUMPDEST SWAP2 POP POP SWAP3 POP SWAP3 SWAP1 POP JUMP JUMPDEST PUSH1 0x0 PUSH1 0x20 DUP3 DUP5 SUB SLT ISZERO PUSH2 0x1E88 JUMPI PUSH2 0x1E87 PUSH2 0x28C4 JUMP JUMPDEST JUMPDEST PUSH1 0x0 PUSH2 0x1E96 DUP5 DUP3 DUP6 ADD PUSH2 0x1D11 JUMP JUMPDEST SWAP2 POP POP SWAP3 SWAP2 POP POP JUMP JUMPDEST PUSH1 0x0 PUSH2 0x1EAB DUP4 DUP4 PUSH2 0x1EE3 JUMP JUMPDEST PUSH1 0x20 DUP4 ADD SWAP1 POP SWAP3 SWAP2 POP POP JUMP JUMPDEST PUSH1 0x0 PUSH2 0x1EC3 DUP4 DUP4 PUSH2 0x2041 JUMP JUMPDEST SWAP1 POP SWAP3 SWAP2 POP POP JUMP JUMPDEST PUSH1 0x0 PUSH2 0x1ED7 DUP4 DUP4 PUSH2 0x21EE JUMP JUMPDEST PUSH1 0x20 DUP4 ADD SWAP1 POP SWAP3 SWAP2 POP POP JUMP JUMPDEST PUSH2 0x1EEC DUP2 PUSH2 0x2665 JUMP JUMPDEST DUP3 MSTORE POP POP JUMP JUMPDEST PUSH2 0x1EFB DUP2 PUSH2 0x2665 JUMP JUMPDEST DUP3 MSTORE POP POP JUMP JUMPDEST PUSH1 0x0 PUSH2 0x1F0C DUP3 PUSH2 0x24A8 JUMP JUMPDEST PUSH2 0x1F16 DUP2 DUP6 PUSH2 0x24FB JUMP JUMPDEST SWAP4 POP PUSH2 0x1F21 DUP4 PUSH2 0x2478 JUMP JUMPDEST DUP1 PUSH1 0x0 JUMPDEST DUP4 DUP2 LT ISZERO PUSH2 0x1F52 JUMPI DUP2 MLOAD PUSH2 0x1F39 DUP9 DUP3 PUSH2 0x1E9F JUMP JUMPDEST SWAP8 POP PUSH2 0x1F44 DUP4 PUSH2 0x24D4 JUMP JUMPDEST SWAP3 POP POP PUSH1 0x1 DUP2 ADD SWAP1 POP PUSH2 0x1F25 JUMP JUMPDEST POP DUP6 SWAP4 POP POP POP POP SWAP3 SWAP2 POP POP JUMP JUMPDEST PUSH1 0x0 PUSH2 0x1F6A DUP3 PUSH2 0x24B3 JUMP JUMPDEST PUSH2 0x1F74 DUP2 DUP6 PUSH2 0x250C JUMP JUMPDEST SWAP4 POP DUP4 PUSH1 0x20 DUP3 MUL DUP6 ADD PUSH2 0x1F86 DUP6 PUSH2 0x2488 JUMP JUMPDEST DUP1 PUSH1 0x0 JUMPDEST DUP6 DUP2 LT ISZERO PUSH2 0x1FC2 JUMPI DUP5 DUP5 SUB DUP10 MSTORE DUP2 MLOAD PUSH2 0x1FA3 DUP6 DUP3 PUSH2 0x1EB7 JUMP JUMPDEST SWAP5 POP PUSH2 0x1FAE DUP4 PUSH2 0x24E1 JUMP JUMPDEST SWAP3 POP PUSH1 0x20 DUP11 ADD SWAP10 POP POP PUSH1 0x1 DUP2 ADD SWAP1 POP PUSH2 0x1F8A JUMP JUMPDEST POP DUP3 SWAP8 POP DUP8 SWAP6 POP POP POP POP POP POP SWAP3 SWAP2 POP POP JUMP JUMPDEST PUSH1 0x0 PUSH2 0x1FDF DUP3 PUSH2 0x24BE JUMP JUMPDEST PUSH2 0x1FE9 DUP2 DUP6 PUSH2 0x251D JUMP JUMPDEST SWAP4 POP PUSH2 0x1FF4 DUP4 PUSH2 0x2498 JUMP JUMPDEST DUP1 PUSH1 0x0 JUMPDEST DUP4 DUP2 LT ISZERO PUSH2 0x2025 JUMPI DUP2 MLOAD PUSH2 0x200C DUP9 DUP3 PUSH2 0x1ECB JUMP JUMPDEST SWAP8 POP PUSH2 0x2017 DUP4 PUSH2 0x24EE JUMP JUMPDEST SWAP3 POP POP PUSH1 0x1 DUP2 ADD SWAP1 POP PUSH2 0x1FF8 JUMP JUMPDEST POP DUP6 SWAP4 POP POP POP POP SWAP3 SWAP2 POP POP JUMP JUMPDEST PUSH2 0x203B DUP2 PUSH2 0x2677 JUMP JUMPDEST DUP3 MSTORE POP POP JUMP JUMPDEST PUSH1 0x0 PUSH2 0x204C DUP3 PUSH2 0x24C9 JUMP JUMPDEST PUSH2 0x2056 DUP2 DUP6 PUSH2 0x252E JUMP JUMPDEST SWAP4 POP PUSH2 0x2066 DUP2 DUP6 PUSH1 0x20 DUP7 ADD PUSH2 0x26BC JUMP JUMPDEST PUSH2 0x206F DUP2 PUSH2 0x28C9 JUMP JUMPDEST DUP5 ADD SWAP2 POP POP SWAP3 SWAP2 POP POP JUMP JUMPDEST PUSH1 0x0 PUSH2 0x2085 DUP3 PUSH2 0x24C9 JUMP JUMPDEST PUSH2 0x208F DUP2 DUP6 PUSH2 0x253F JUMP JUMPDEST SWAP4 POP PUSH2 0x209F DUP2 DUP6 PUSH1 0x20 DUP7 ADD PUSH2 0x26BC JUMP JUMPDEST PUSH2 0x20A8 DUP2 PUSH2 0x28C9 JUMP JUMPDEST DUP5 ADD SWAP2 POP POP SWAP3 SWAP2 POP POP JUMP JUMPDEST PUSH1 0x0 PUSH2 0x20C0 PUSH1 0xD DUP4 PUSH2 0x253F JUMP JUMPDEST SWAP2 POP PUSH2 0x20CB DUP3 PUSH2 0x28DA JUMP JUMPDEST PUSH1 0x20 DUP3 ADD SWAP1 POP SWAP2 SWAP1 POP JUMP JUMPDEST PUSH1 0x0 PUSH2 0x20E3 PUSH1 0x9 DUP4 PUSH2 0x253F JUMP JUMPDEST SWAP2 POP PUSH2 0x20EE DUP3 PUSH2 0x2903 JUMP JUMPDEST PUSH1 0x20 DUP3 ADD SWAP1 POP SWAP2 SWAP1 POP JUMP JUMPDEST PUSH1 0x0 PUSH2 0x2106 PUSH1 0x1D DUP4 PUSH2 0x253F JUMP JUMPDEST SWAP2 POP PUSH2 0x2111 DUP3 PUSH2 0x292C JUMP JUMPDEST PUSH1 0x20 DUP3 ADD SWAP1 POP SWAP2 SWAP1 POP JUMP JUMPDEST PUSH1 0x0 PUSH2 0x2129 PUSH1 0x24 DUP4 PUSH2 0x253F JUMP JUMPDEST SWAP2 POP PUSH2 0x2134 DUP3 PUSH2 0x2955 JUMP JUMPDEST PUSH1 0x40 DUP3 ADD SWAP1 POP SWAP2 SWAP1 POP JUMP JUMPDEST PUSH1 0x0 PUSH2 0x214C PUSH1 0x1F DUP4 PUSH2 0x253F JUMP JUMPDEST SWAP2 POP PUSH2 0x2157 DUP3 PUSH2 0x29A4 JUMP JUMPDEST PUSH1 0x20 DUP3 ADD SWAP1 POP SWAP2 SWAP1 POP JUMP JUMPDEST PUSH1 0x0 PUSH2 0x216F PUSH1 0x15 DUP4 PUSH2 0x253F JUMP JUMPDEST SWAP2 POP PUSH2 0x217A DUP3 PUSH2 0x29CD JUMP JUMPDEST PUSH1 0x20 DUP3 ADD SWAP1 POP SWAP2 SWAP1 POP JUMP JUMPDEST PUSH1 0x0 PUSH2 0x2192 PUSH1 0x23 DUP4 PUSH2 0x253F JUMP JUMPDEST SWAP2 POP PUSH2 0x219D DUP3 PUSH2 0x29F6 JUMP JUMPDEST PUSH1 0x40 DUP3 ADD SWAP1 POP SWAP2 SWAP1 POP JUMP JUMPDEST PUSH1 0x0 PUSH2 0x21B5 PUSH1 0x1A DUP4 PUSH2 0x253F JUMP JUMPDEST SWAP2 POP PUSH2 0x21C0 DUP3 PUSH2 0x2A45 JUMP JUMPDEST PUSH1 0x20 DUP3 ADD SWAP1 POP SWAP2 SWAP1 POP JUMP JUMPDEST PUSH1 0x0 PUSH2 0x21D8 PUSH1 0x23 DUP4 PUSH2 0x253F JUMP JUMPDEST SWAP2 POP PUSH2 0x21E3 DUP3 PUSH2 0x2A6E JUMP JUMPDEST PUSH1 0x40 DUP3 ADD SWAP1 POP SWAP2 SWAP1 POP JUMP JUMPDEST PUSH2 0x21F7 DUP2 PUSH2 0x26A3 JUMP JUMPDEST DUP3 MSTORE POP POP JUMP JUMPDEST PUSH2 0x2206 DUP2 PUSH2 0x26A3 JUMP JUMPDEST DUP3 MSTORE POP POP JUMP JUMPDEST PUSH1 0x0 PUSH1 0x20 DUP3 ADD SWAP1 POP PUSH2 0x2221 PUSH1 0x0 DUP4 ADD DUP5 PUSH2 0x1EF2 JUMP JUMPDEST SWAP3 SWAP2 POP POP JUMP JUMPDEST PUSH1 0x0 PUSH1 0x60 DUP3 ADD SWAP1 POP PUSH2 0x223C PUSH1 0x0 DUP4 ADD DUP7 PUSH2 0x1EF2 JUMP JUMPDEST PUSH2 0x2249 PUSH1 0x20 DUP4 ADD DUP6 PUSH2 0x1EF2 JUMP JUMPDEST PUSH2 0x2256 PUSH1 0x40 DUP4 ADD DUP5 PUSH2 0x21FD JUMP JUMPDEST SWAP5 SWAP4 POP POP POP POP JUMP JUMPDEST PUSH1 0x0 PUSH1 0x60 DUP3 ADD SWAP1 POP DUP2 DUP2 SUB PUSH1 0x0 DUP4 ADD MSTORE PUSH2 0x2278 DUP2 DUP7 PUSH2 0x1F01 JUMP JUMPDEST SWAP1 POP DUP2 DUP2 SUB PUSH1 0x20 DUP4 ADD MSTORE PUSH2 0x228C DUP2 DUP6 PUSH2 0x1F5F JUMP JUMPDEST SWAP1 POP DUP2 DUP2 SUB PUSH1 0x40 DUP4 ADD MSTORE PUSH2 0x22A0 DUP2 DUP5 PUSH2 0x1FD4 JUMP JUMPDEST SWAP1 POP SWAP5 SWAP4 POP POP POP POP JUMP JUMPDEST PUSH1 0x0 PUSH1 0x20 DUP3 ADD SWAP1 POP PUSH2 0x22BF PUSH1 0x0 DUP4 ADD DUP5 PUSH2 0x2032 JUMP JUMPDEST SWAP3 SWAP2 POP POP JUMP JUMPDEST PUSH1 0x0 PUSH1 0x20 DUP3 ADD SWAP1 POP DUP2 DUP2 SUB PUSH1 0x0 DUP4 ADD MSTORE PUSH2 0x22DF DUP2 DUP5 PUSH2 0x207A JUMP JUMPDEST SWAP1 POP SWAP3 SWAP2 POP POP JUMP JUMPDEST PUSH1 0x0 PUSH1 0x20 DUP3 ADD SWAP1 POP DUP2 DUP2 SUB PUSH1 0x0 DUP4 ADD MSTORE PUSH2 0x2300 DUP2 PUSH2 0x20B3 JUMP JUMPDEST SWAP1 POP SWAP2 SWAP1 POP JUMP JUMPDEST PUSH1 0x0 PUSH1 0x20 DUP3 ADD SWAP1 POP DUP2 DUP2 SUB PUSH1 0x0 DUP4 ADD MSTORE PUSH2 0x2320 DUP2 PUSH2 0x20D6 JUMP JUMPDEST SWAP1 POP SWAP2 SWAP1 POP JUMP JUMPDEST PUSH1 0x0 PUSH1 0x20 DUP3 ADD SWAP1 POP DUP2 DUP2 SUB PUSH1 0x0 DUP4 ADD MSTORE PUSH2 0x2340 DUP2 PUSH2 0x20F9 JUMP JUMPDEST SWAP1 POP SWAP2 SWAP1 POP JUMP JUMPDEST PUSH1 0x0 PUSH1 0x20 DUP3 ADD SWAP1 POP DUP2 DUP2 SUB PUSH1 0x0 DUP4 ADD MSTORE PUSH2 0x2360 DUP2 PUSH2 0x211C JUMP JUMPDEST SWAP1 POP SWAP2 SWAP1 POP JUMP JUMPDEST PUSH1 0x0 PUSH1 0x20 DUP3 ADD SWAP1 POP DUP2 DUP2 SUB PUSH1 0x0 DUP4 ADD MSTORE PUSH2 0x2380 DUP2 PUSH2 0x213F JUMP JUMPDEST SWAP1 POP SWAP2 SWAP1 POP JUMP JUMPDEST PUSH1 0x0 PUSH1 0x20 DUP3 ADD SWAP1 POP DUP2 DUP2 SUB PUSH1 0x0 DUP4 ADD MSTORE PUSH2 0x23A0 DUP2 PUSH2 0x2162 JUMP JUMPDEST SWAP1 POP SWAP2 SWAP1 POP JUMP JUMPDEST PUSH1 0x0 PUSH1 0x20 DUP3 ADD SWAP1 POP DUP2 DUP2 SUB PUSH1 0x0 DUP4 ADD MSTORE PUSH2 0x23C0 DUP2 PUSH2 0x2185 JUMP JUMPDEST SWAP1 POP SWAP2 SWAP1 POP JUMP JUMPDEST PUSH1 0x0 PUSH1 0x20 DUP3 ADD SWAP1 POP DUP2 DUP2 SUB PUSH1 0x0 DUP4 ADD MSTORE PUSH2 0x23E0 DUP2 PUSH2 0x21A8 JUMP JUMPDEST SWAP1 POP SWAP2 SWAP1 POP JUMP JUMPDEST PUSH1 0x0 PUSH1 0x20 DUP3 ADD SWAP1 POP DUP2 DUP2 SUB PUSH1 0x0 DUP4 ADD MSTORE PUSH2 0x2400 DUP2 PUSH2 0x21CB JUMP JUMPDEST SWAP1 POP SWAP2 SWAP1 POP JUMP JUMPDEST PUSH1 0x0 PUSH1 0x20 DUP3 ADD SWAP1 POP PUSH2 0x241C PUSH1 0x0 DUP4 ADD DUP5 PUSH2 0x21FD JUMP JUMPDEST SWAP3 SWAP2 POP POP JUMP JUMPDEST PUSH1 0x0 PUSH2 0x242C PUSH2 0x243D JUMP JUMPDEST SWAP1 POP PUSH2 0x2438 DUP3 DUP3 PUSH2 0x2721 JUMP JUMPDEST SWAP2 SWAP1 POP JUMP JUMPDEST PUSH1 0x0 PUSH1 0x40 MLOAD SWAP1 POP SWAP1 JUMP JUMPDEST PUSH1 0x0 PUSH8 0xFFFFFFFFFFFFFFFF DUP3 GT ISZERO PUSH2 0x2462 JUMPI PUSH2 0x2461 PUSH2 0x2886 JUMP JUMPDEST JUMPDEST PUSH2 0x246B DUP3 PUSH2 0x28C9 JUMP JUMPDEST SWAP1 POP PUSH1 0x20 DUP2 ADD SWAP1 POP SWAP2 SWAP1 POP JUMP JUMPDEST PUSH1 0x0 DUP2 SWAP1 POP PUSH1 0x20 DUP3 ADD SWAP1 POP SWAP2 SWAP1 POP JUMP JUMPDEST PUSH1 0x0 DUP2 SWAP1 POP PUSH1 0x20 DUP3 ADD SWAP1 POP SWAP2 SWAP1 POP JUMP JUMPDEST PUSH1 0x0 DUP2 SWAP1 POP PUSH1 0x20 DUP3 ADD SWAP1 POP SWAP2 SWAP1 POP JUMP JUMPDEST PUSH1 0x0 DUP2 MLOAD SWAP1 POP SWAP2 SWAP1 POP JUMP JUMPDEST PUSH1 0x0 DUP2 MLOAD SWAP1 POP SWAP2 SWAP1 POP JUMP JUMPDEST PUSH1 0x0 DUP2 MLOAD SWAP1 POP SWAP2 SWAP1 POP JUMP JUMPDEST PUSH1 0x0 DUP2 MLOAD SWAP1 POP SWAP2 SWAP1 POP JUMP JUMPDEST PUSH1 0x0 PUSH1 0x20 DUP3 ADD SWAP1 POP SWAP2 SWAP1 POP JUMP JUMPDEST PUSH1 0x0 PUSH1 0x20 DUP3 ADD SWAP1 POP SWAP2 SWAP1 POP JUMP JUMPDEST PUSH1 0x0 PUSH1 0x20 DUP3 ADD SWAP1 POP SWAP2 SWAP1 POP JUMP JUMPDEST PUSH1 0x0 DUP3 DUP3 MSTORE PUSH1 0x20 DUP3 ADD SWAP1 POP SWAP3 SWAP2 POP POP JUMP JUMPDEST PUSH1 0x0 DUP3 DUP3 MSTORE PUSH1 0x20 DUP3 ADD SWAP1 POP SWAP3 SWAP2 POP POP JUMP JUMPDEST PUSH1 0x0 DUP3 DUP3 MSTORE PUSH1 0x20 DUP3 ADD SWAP1 POP SWAP3 SWAP2 POP POP JUMP JUMPDEST PUSH1 0x0 DUP3 DUP3 MSTORE PUSH1 0x20 DUP3 ADD SWAP1 POP SWAP3 SWAP2 POP POP JUMP JUMPDEST PUSH1 0x0 DUP3 DUP3 MSTORE PUSH1 0x20 DUP3 ADD SWAP1 POP SWAP3 SWAP2 POP POP JUMP JUMPDEST PUSH1 0x0 PUSH2 0x255B DUP3 PUSH2 0x26A3 JUMP JUMPDEST SWAP2 POP PUSH2 0x2566 DUP4 PUSH2 0x26A3 JUMP JUMPDEST SWAP3 POP DUP3 PUSH32 0xFFFFFFFFFFFFFFFFFFFFFFFFFFFFFFFFFFFFFFFFFFFFFFFFFFFFFFFFFFFFFFFF SUB DUP3 GT ISZERO PUSH2 0x259B JUMPI PUSH2 0x259A PUSH2 0x279B JUMP JUMPDEST JUMPDEST DUP3 DUP3 ADD SWAP1 POP SWAP3 SWAP2 POP POP JUMP JUMPDEST PUSH1 0x0 PUSH2 0x25B1 DUP3 PUSH2 0x26A3 JUMP JUMPDEST SWAP2 POP PUSH2 0x25BC DUP4 PUSH2 0x26A3 JUMP JUMPDEST SWAP3 POP DUP3 PUSH2 0x25CC JUMPI PUSH2 0x25CB PUSH2 0x27CA JUMP JUMPDEST JUMPDEST DUP3 DUP3 DIV SWAP1 POP SWAP3 SWAP2 POP POP JUMP JUMPDEST PUSH1 0x0 PUSH2 0x25E2 DUP3 PUSH2 0x26A3 JUMP JUMPDEST SWAP2 POP PUSH2 0x25ED DUP4 PUSH2 0x26A3 JUMP JUMPDEST SWAP3 POP DUP2 PUSH32 0xFFFFFFFFFFFFFFFFFFFFFFFFFFFFFFFFFFFFFFFFFFFFFFFFFFFFFFFFFFFFFFFF DIV DUP4 GT DUP3 ISZERO ISZERO AND ISZERO PUSH2 0x2626 JUMPI PUSH2 0x2625 PUSH2 0x279B JUMP JUMPDEST JUMPDEST DUP3 DUP3 MUL SWAP1 POP SWAP3 SWAP2 POP POP JUMP JUMPDEST PUSH1 0x0 PUSH2 0x263C DUP3 PUSH2 0x26A3 JUMP JUMPDEST SWAP2 POP PUSH2 0x2647 DUP4 PUSH2 0x26A3 JUMP JUMPDEST SWAP3 POP DUP3 DUP3 LT ISZERO PUSH2 0x265A JUMPI PUSH2 0x2659 PUSH2 0x279B JUMP JUMPDEST JUMPDEST DUP3 DUP3 SUB SWAP1 POP SWAP3 SWAP2 POP POP JUMP JUMPDEST PUSH1 0x0 PUSH2 0x2670 DUP3 PUSH2 0x2683 JUMP JUMPDEST SWAP1 POP SWAP2 SWAP1 POP JUMP JUMPDEST PUSH1 0x0 DUP2 ISZERO ISZERO SWAP1 POP SWAP2 SWAP1 POP JUMP JUMPDEST PUSH1 0x0 PUSH20 0xFFFFFFFFFFFFFFFFFFFFFFFFFFFFFFFFFFFFFFFF DUP3 AND SWAP1 POP SWAP2 SWAP1 POP JUMP JUMPDEST PUSH1 0x0 DUP2 SWAP1 POP SWAP2 SWAP1 POP JUMP JUMPDEST DUP3 DUP2 DUP4 CALLDATACOPY PUSH1 0x0 DUP4 DUP4 ADD MSTORE POP POP POP JUMP JUMPDEST PUSH1 0x0 JUMPDEST DUP4 DUP2 LT ISZERO PUSH2 0x26DA JUMPI DUP1 DUP3 ADD MLOAD DUP2 DUP5 ADD MSTORE PUSH1 0x20 DUP2 ADD SWAP1 POP PUSH2 0x26BF JUMP JUMPDEST DUP4 DUP2 GT ISZERO PUSH2 0x26E9 JUMPI PUSH1 0x0 DUP5 DUP5 ADD MSTORE JUMPDEST POP POP POP POP JUMP JUMPDEST PUSH1 0x0 PUSH1 0x2 DUP3 DIV SWAP1 POP PUSH1 0x1 DUP3 AND DUP1 PUSH2 0x2707 JUMPI PUSH1 0x7F DUP3 AND SWAP2 POP JUMPDEST PUSH1 0x20 DUP3 LT DUP2 EQ ISZERO PUSH2 0x271B JUMPI PUSH2 0x271A PUSH2 0x27F9 JUMP JUMPDEST JUMPDEST POP SWAP2 SWAP1 POP JUMP JUMPDEST PUSH2 0x272A DUP3 PUSH2 0x28C9 JUMP JUMPDEST DUP2 ADD DUP2 DUP2 LT PUSH8 0xFFFFFFFFFFFFFFFF DUP3 GT OR ISZERO PUSH2 0x2749 JUMPI PUSH2 0x2748 PUSH2 0x2886 JUMP JUMPDEST JUMPDEST DUP1 PUSH1 0x40 MSTORE POP POP POP JUMP JUMPDEST PUSH1 0x0 PUSH2 0x275D DUP3 PUSH2 0x26A3 JUMP JUMPDEST SWAP2 POP PUSH32 0xFFFFFFFFFFFFFFFFFFFFFFFFFFFFFFFFFFFFFFFFFFFFFFFFFFFFFFFFFFFFFFFF DUP3 EQ ISZERO PUSH2 0x2790 JUMPI PUSH2 0x278F PUSH2 0x279B JUMP JUMPDEST JUMPDEST PUSH1 0x1 DUP3 ADD SWAP1 POP SWAP2 SWAP1 POP JUMP JUMPDEST PUSH32 0x4E487B7100000000000000000000000000000000000000000000000000000000 PUSH1 0x0 MSTORE PUSH1 0x11 PUSH1 0x4 MSTORE PUSH1 0x24 PUSH1 0x0 REVERT JUMPDEST PUSH32 0x4E487B7100000000000000000000000000000000000000000000000000000000 PUSH1 0x0 MSTORE PUSH1 0x12 PUSH1 0x4 MSTORE PUSH1 0x24 PUSH1 0x0 REVERT JUMPDEST PUSH32 0x4E487B7100000000000000000000000000000000000000000000000000000000 PUSH1 0x0 MSTORE PUSH1 0x22 PUSH1 0x4 MSTORE PUSH1 0x24 PUSH1 0x0 REVERT JUMPDEST PUSH32 0x4E487B7100000000000000000000000000000000000000000000000000000000 PUSH1 0x0 MSTORE PUSH1 0x31 PUSH1 0x4 MSTORE PUSH1 0x24 PUSH1 0x0 REVERT JUMPDEST PUSH32 0x4E487B7100000000000000000000000000000000000000000000000000000000 PUSH1 0x0 MSTORE PUSH1 0x32 PUSH1 0x4 MSTORE PUSH1 0x24 PUSH1 0x0 REVERT JUMPDEST PUSH32 0x4E487B7100000000000000000000000000000000000000000000000000000000 PUSH1 0x0 MSTORE PUSH1 0x41 PUSH1 0x4 MSTORE PUSH1 0x24 PUSH1 0x0 REVERT JUMPDEST PUSH1 0x0 DUP1 REVERT JUMPDEST PUSH1 0x0 DUP1 REVERT JUMPDEST PUSH1 0x0 DUP1 REVERT JUMPDEST PUSH1 0x0 DUP1 REVERT JUMPDEST PUSH1 0x0 PUSH1 0x1F NOT PUSH1 0x1F DUP4 ADD AND SWAP1 POP SWAP2 SWAP1 POP JUMP JUMPDEST PUSH32 0x426F72726F77204661696C656400000000000000000000000000000000000000 PUSH1 0x0 DUP3 ADD MSTORE POP JUMP JUMPDEST PUSH32 0x4E6F74204F776E65720000000000000000000000000000000000000000000000 PUSH1 0x0 DUP3 ADD MSTORE POP JUMP JUMPDEST PUSH32 0x4E6F7420656E6F75676820726573657276657320746F20626F72726F77000000 PUSH1 0x0 DUP3 ADD MSTORE POP JUMP JUMPDEST PUSH32 0x5472616E736665722066726F6D204C656E64657227732077616C6C6574206661 PUSH1 0x0 DUP3 ADD MSTORE PUSH32 0x696C656400000000000000000000000000000000000000000000000000000000 PUSH1 0x20 DUP3 ADD MSTORE POP JUMP JUMPDEST PUSH32 0x4C656E64657220646F6573206E6F742068617665207468697320617373657400 PUSH1 0x0 DUP3 ADD MSTORE POP JUMP JUMPDEST PUSH32 0x4E6F74204F776E65722C2043616E6E6F74206164640000000000000000000000 PUSH1 0x0 DUP3 ADD MSTORE POP JUMP JUMPDEST PUSH32 0x4E6F74206F776E65722C2063616E6E6F7420706572666F726D206F7065726174 PUSH1 0x0 DUP3 ADD MSTORE PUSH32 0x696F6E0000000000000000000000000000000000000000000000000000000000 PUSH1 0x20 DUP3 ADD MSTORE POP JUMP JUMPDEST PUSH32 0x4E6F7420656E6F7567682071747920746F207769746864726177000000000000 PUSH1 0x0 DUP3 ADD MSTORE POP JUMP JUMPDEST PUSH32 0x4E6F7420656E6F7567682045544820636F6C6C61746572616C20746F20426F72 PUSH1 0x0 DUP3 ADD MSTORE PUSH32 0x726F770000000000000000000000000000000000000000000000000000000000 PUSH1 0x20 DUP3 ADD MSTORE POP JUMP JUMPDEST PUSH2 0x2AC6 DUP2 PUSH2 0x2665 JUMP JUMPDEST DUP2 EQ PUSH2 0x2AD1 JUMPI PUSH1 0x0 DUP1 REVERT JUMPDEST POP JUMP JUMPDEST PUSH2 0x2ADD DUP2 PUSH2 0x2677 JUMP JUMPDEST DUP2 EQ PUSH2 0x2AE8 JUMPI PUSH1 0x0 DUP1 REVERT JUMPDEST POP JUMP JUMPDEST PUSH2 0x2AF4 DUP2 PUSH2 0x26A3 JUMP JUMPDEST DUP2 EQ PUSH2 0x2AFF JUMPI PUSH1 0x0 DUP1 REVERT JUMPDEST POP JUMP INVALID LOG2 PUSH5 0x6970667358 0x22 SLT KECCAK256 TIMESTAMP POP 0xCE 0xCC PUSH14 0x86F6FC4DDCADEB3D263CA14D7B79 LOG0 RETURN PUSH27 0x15576B8322511C7228F964736F6C63430008060033000000000000 "
				},
				"gasEstimates": {
					"creation": {
						"codeDepositCost": "2212800",
						"executionCost": "infinite",
						"totalCost": "infinite"
					},
					"external": {
						"BORROW_THRESHOLD()": "infinite",
						"INTEREST_RATE()": "infinite",
						"LIQUIDATION_THRESHOLD()": "infinite",
						"addTokens(address,string)": "infinite",
						"borrow(address,uint256)": "infinite",
						"deployer()": "2533",
						"getAssets(address)": "infinite",
						"getAssetsToBorrow()": "2392",
						"getReserves(address)": "2864",
						"lend(address,uint256)": "infinite",
						"rewardTokensEarned(address,address)": "infinite",
						"tokenMap(address)": "infinite",
						"updateEarned(address,address)": "infinite",
						"withdraw(address,uint256)": "infinite"
					},
					"internal": {
						"isOwner(address)": "infinite"
					}
				},
				"methodIdentifiers": {
					"BORROW_THRESHOLD()": "1500c2ff",
					"INTEREST_RATE()": "5b72a33a",
					"LIQUIDATION_THRESHOLD()": "90a8ae9b",
					"addTokens(address,string)": "d7a3b27f",
					"borrow(address,uint256)": "4b8a3529",
					"deployer()": "d5f39488",
					"getAssets(address)": "742978da",
					"getAssetsToBorrow()": "0480ee08",
					"getReserves(address)": "3e99c1e4",
					"lend(address,uint256)": "a2fb342d",
					"rewardTokensEarned(address,address)": "6c0723c5",
					"tokenMap(address)": "004aca6e",
					"updateEarned(address,address)": "dd943ca9",
					"withdraw(address,uint256)": "f3fef3a3"
				}
			},
			"storageLayout": {
				"storage": [
					{
						"astId": 395,
						"contract": "Defi-project/LendingPool_20230217_2.sol:LendingPool",
						"label": "deployer",
						"offset": 0,
						"slot": "0",
						"type": "t_address"
					},
					{
						"astId": 416,
						"contract": "Defi-project/LendingPool_20230217_2.sol:LendingPool",
						"label": "tokenMap",
						"offset": 0,
						"slot": "1",
						"type": "t_mapping(t_address,t_string_storage)"
					},
					{
						"astId": 422,
						"contract": "Defi-project/LendingPool_20230217_2.sol:LendingPool",
						"label": "lenderAssets",
						"offset": 0,
						"slot": "2",
						"type": "t_mapping(t_address,t_mapping(t_address,t_uint256))"
					},
					{
						"astId": 427,
						"contract": "Defi-project/LendingPool_20230217_2.sol:LendingPool",
						"label": "lenderAssetList",
						"offset": 0,
						"slot": "3",
						"type": "t_mapping(t_address,t_array(t_address)dyn_storage)"
					},
					{
						"astId": 431,
						"contract": "Defi-project/LendingPool_20230217_2.sol:LendingPool",
						"label": "lenderTotalLandings",
						"offset": 0,
						"slot": "4",
						"type": "t_mapping(t_address,t_uint256)"
					},
					{
						"astId": 437,
						"contract": "Defi-project/LendingPool_20230217_2.sol:LendingPool",
						"label": "lenderTimestamp",
						"offset": 0,
						"slot": "5",
						"type": "t_mapping(t_address,t_mapping(t_address,t_uint256))"
					},
					{
						"astId": 443,
						"contract": "Defi-project/LendingPool_20230217_2.sol:LendingPool",
						"label": "lenderRewards",
						"offset": 0,
						"slot": "6",
						"type": "t_mapping(t_address,t_mapping(t_address,t_uint256))"
					},
					{
						"astId": 447,
						"contract": "Defi-project/LendingPool_20230217_2.sol:LendingPool",
						"label": "reserves",
						"offset": 0,
						"slot": "7",
						"type": "t_mapping(t_address,t_uint256)"
					},
					{
						"astId": 450,
						"contract": "Defi-project/LendingPool_20230217_2.sol:LendingPool",
						"label": "reserveAssets",
						"offset": 0,
						"slot": "8",
						"type": "t_array(t_address)dyn_storage"
					},
					{
						"astId": 456,
						"contract": "Defi-project/LendingPool_20230217_2.sol:LendingPool",
						"label": "borrows",
						"offset": 0,
						"slot": "9",
						"type": "t_mapping(t_address,t_mapping(t_address,t_uint256))"
					},
					{
						"astId": 461,
						"contract": "Defi-project/LendingPool_20230217_2.sol:LendingPool",
						"label": "borrowList",
						"offset": 0,
						"slot": "10",
						"type": "t_mapping(t_address,t_array(t_address)dyn_storage)"
					},
					{
						"astId": 467,
						"contract": "Defi-project/LendingPool_20230217_2.sol:LendingPool",
						"label": "borrowerTimestamp",
						"offset": 0,
						"slot": "11",
						"type": "t_mapping(t_address,t_mapping(t_address,t_uint256))"
					}
				],
				"types": {
					"t_address": {
						"encoding": "inplace",
						"label": "address",
						"numberOfBytes": "20"
					},
					"t_array(t_address)dyn_storage": {
						"base": "t_address",
						"encoding": "dynamic_array",
						"label": "address[]",
						"numberOfBytes": "32"
					},
					"t_mapping(t_address,t_array(t_address)dyn_storage)": {
						"encoding": "mapping",
						"key": "t_address",
						"label": "mapping(address => address[])",
						"numberOfBytes": "32",
						"value": "t_array(t_address)dyn_storage"
					},
					"t_mapping(t_address,t_mapping(t_address,t_uint256))": {
						"encoding": "mapping",
						"key": "t_address",
						"label": "mapping(address => mapping(address => uint256))",
						"numberOfBytes": "32",
						"value": "t_mapping(t_address,t_uint256)"
					},
					"t_mapping(t_address,t_string_storage)": {
						"encoding": "mapping",
						"key": "t_address",
						"label": "mapping(address => string)",
						"numberOfBytes": "32",
						"value": "t_string_storage"
					},
					"t_mapping(t_address,t_uint256)": {
						"encoding": "mapping",
						"key": "t_address",
						"label": "mapping(address => uint256)",
						"numberOfBytes": "32",
						"value": "t_uint256"
					},
					"t_string_storage": {
						"encoding": "bytes",
						"label": "string",
						"numberOfBytes": "32"
					},
					"t_uint256": {
						"encoding": "inplace",
						"label": "uint256",
						"numberOfBytes": "32"
					}
				}
			},
			"userdoc": {
				"kind": "user",
				"methods": {},
				"version": 1
			}
		}
	}
}