{
	"data": {
		"bytecode": {
			"linkReferences": {},
			"object": "6080604052348015600f57600080fd5b5060ab8061001e6000396000f3fe6080604052348015600f57600080fd5b506004361060285760003560e01c8063243da18c14602d575b600080fd5b60336035565b005b60408051338152326020820152308183015290517fc90ed2a0abbce0ddd0cfd1fd303f15bf1a3860b32002dc1ed37873ea889488309181900360600190a156fea2646970667358221220a91b94dad0dcfe6e5601a74c0da8d88916c94a89c31374b891d5940da9619f2464736f6c63430008080033",
			"opcodes": "PUSH1 0x80 PUSH1 0x40 MSTORE CALLVALUE DUP1 ISZERO PUSH1 0xF JUMPI PUSH1 0x0 DUP1 REVERT JUMPDEST POP PUSH1 0xAB DUP1 PUSH2 0x1E PUSH1 0x0 CODECOPY PUSH1 0x0 RETURN INVALID PUSH1 0x80 PUSH1 0x40 MSTORE CALLVALUE DUP1 ISZERO PUSH1 0xF JUMPI PUSH1 0x0 DUP1 REVERT JUMPDEST POP PUSH1 0x4 CALLDATASIZE LT PUSH1 0x28 JUMPI PUSH1 0x0 CALLDATALOAD PUSH1 0xE0 SHR DUP1 PUSH4 0x243DA18C EQ PUSH1 0x2D JUMPI JUMPDEST PUSH1 0x0 DUP1 REVERT JUMPDEST PUSH1 0x33 PUSH1 0x35 JUMP JUMPDEST STOP JUMPDEST PUSH1 0x40 DUP1 MLOAD CALLER DUP2 MSTORE ORIGIN PUSH1 0x20 DUP3 ADD MSTORE ADDRESS DUP2 DUP4 ADD MSTORE SWAP1 MLOAD PUSH32 0xC90ED2A0ABBCE0DDD0CFD1FD303F15BF1A3860B32002DC1ED37873EA88948830 SWAP2 DUP2 SWAP1 SUB PUSH1 0x60 ADD SWAP1 LOG1 JUMP INVALID LOG2 PUSH5 0x6970667358 0x22 SLT KECCAK256 0xA9 SHL SWAP5 0xDA 0xD0 0xDC INVALID PUSH15 0x5601A74C0DA8D88916C94A89C31374 0xB8 SWAP2 0xD5 SWAP5 0xD 0xA9 PUSH2 0x9F24 PUSH5 0x736F6C6343 STOP ADDMOD ADDMOD STOP CALLER "
		},
		"gasEstimates": {
			"creation": {
				"codeDepositCost": "34200",
				"executionCost": "87",
				"totalCost": "34287"
			},
			"external": {
				"callThis()": "1727"
			}
		},
		"methodIdentifiers": {
			"callThis()": "243da18c"
		}
	},
	"abi": [
		{
			"anonymous": false,
			"inputs": [
				{
					"indexed": false,
					"internalType": "address",
					"name": "sender",
					"type": "address"
				},
				{
					"indexed": false,
					"internalType": "address",
					"name": "origin",
					"type": "address"
				},
				{
					"indexed": false,
					"internalType": "address",
					"name": "from",
					"type": "address"
				}
			],
			"name": "callEvent",
			"type": "event"
		},
		{
			"inputs": [],
			"name": "callThis",
			"outputs": [],
			"stateMutability": "nonpayable",
			"type": "function"
		}
	]
}