{
	"data": {
		"bytecode": {
			"linkReferences": {},
			"object": "60806040526064600055348015601457600080fd5b50607b806100236000396000f3fe6080604052348015600f57600080fd5b506004361060285760003560e01c80638b91383914602d575b600080fd5b60336035565b005b600080549050600080549050505056fea264697066735822122018f91b41ded40edb9958fbc2355759bef3a58ed7d4a3a4804197254c274f914864736f6c63430008100033",
			"opcodes": "PUSH1 0x80 PUSH1 0x40 MSTORE PUSH1 0x64 PUSH1 0x0 SSTORE CALLVALUE DUP1 ISZERO PUSH1 0x14 JUMPI PUSH1 0x0 DUP1 REVERT JUMPDEST POP PUSH1 0x7B DUP1 PUSH2 0x23 PUSH1 0x0 CODECOPY PUSH1 0x0 RETURN INVALID PUSH1 0x80 PUSH1 0x40 MSTORE CALLVALUE DUP1 ISZERO PUSH1 0xF JUMPI PUSH1 0x0 DUP1 REVERT JUMPDEST POP PUSH1 0x4 CALLDATASIZE LT PUSH1 0x28 JUMPI PUSH1 0x0 CALLDATALOAD PUSH1 0xE0 SHR DUP1 PUSH4 0x8B913839 EQ PUSH1 0x2D JUMPI JUMPDEST PUSH1 0x0 DUP1 REVERT JUMPDEST PUSH1 0x33 PUSH1 0x35 JUMP JUMPDEST STOP JUMPDEST PUSH1 0x0 DUP1 SLOAD SWAP1 POP PUSH1 0x0 DUP1 SLOAD SWAP1 POP POP POP JUMP INVALID LOG2 PUSH5 0x6970667358 0x22 SLT KECCAK256 XOR 0xF9 SHL COINBASE 0xDE 0xD4 0xE 0xDB SWAP10 PC 0xFB 0xC2 CALLDATALOAD JUMPI MSIZE 0xBE RETURN 0xA5 DUP15 0xD7 0xD4 LOG3 LOG4 DUP1 COINBASE SWAP8 0x25 0x4C 0x27 0x4F SWAP2 BASEFEE PUSH5 0x736F6C6343 STOP ADDMOD LT STOP CALLER "
		},
		"gasEstimates": {
			"creation": {
				"codeDepositCost": "24600",
				"executionCost": "22181",
				"totalCost": "46781"
			},
			"external": {
				"not_optimized()": "4348"
			}
		},
		"methodIdentifiers": {
			"not_optimized()": "8b913839"
		}
	},
	"abi": [
		{
			"inputs": [],
			"name": "not_optimized",
			"outputs": [],
			"stateMutability": "nonpayable",
			"type": "function"
		}
	]
}