{
	"data": {
		"bytecode": {
			"linkReferences": {},
			"object": "6080604052348015600f57600080fd5b5060878061001e6000396000f3fe6080604052348015600f57600080fd5b506004361060285760003560e01c8063d60604ed14602d575b600080fd5b60336035565b005b6000600a9050600060149050600082905081925082915050505056fea26469706673582212206bad8a84cdd1102717e2c1a43dfb64610697f31ec427a7fc9e23396f96da543164736f6c63430008100033",
			"opcodes": "PUSH1 0x80 PUSH1 0x40 MSTORE CALLVALUE DUP1 ISZERO PUSH1 0xF JUMPI PUSH1 0x0 DUP1 REVERT JUMPDEST POP PUSH1 0x87 DUP1 PUSH2 0x1E PUSH1 0x0 CODECOPY PUSH1 0x0 RETURN INVALID PUSH1 0x80 PUSH1 0x40 MSTORE CALLVALUE DUP1 ISZERO PUSH1 0xF JUMPI PUSH1 0x0 DUP1 REVERT JUMPDEST POP PUSH1 0x4 CALLDATASIZE LT PUSH1 0x28 JUMPI PUSH1 0x0 CALLDATALOAD PUSH1 0xE0 SHR DUP1 PUSH4 0xD60604ED EQ PUSH1 0x2D JUMPI JUMPDEST PUSH1 0x0 DUP1 REVERT JUMPDEST PUSH1 0x33 PUSH1 0x35 JUMP JUMPDEST STOP JUMPDEST PUSH1 0x0 PUSH1 0xA SWAP1 POP PUSH1 0x0 PUSH1 0x14 SWAP1 POP PUSH1 0x0 DUP3 SWAP1 POP DUP2 SWAP3 POP DUP3 SWAP2 POP POP POP POP JUMP INVALID LOG2 PUSH5 0x6970667358 0x22 SLT KECCAK256 PUSH12 0xAD8A84CDD1102717E2C1A43D 0xFB PUSH5 0x610697F31E 0xC4 0x27 0xA7 0xFC SWAP15 0x23 CODECOPY PUSH16 0x96DA543164736F6C6343000810003300 "
		},
		"gasEstimates": {
			"creation": {
				"codeDepositCost": "27000",
				"executionCost": "81",
				"totalCost": "27081"
			},
			"external": {
				"optimized()": "177"
			}
		},
		"methodIdentifiers": {
			"optimized()": "d60604ed"
		}
	},
	"abi": [
		{
			"inputs": [],
			"name": "optimized",
			"outputs": [],
			"stateMutability": "pure",
			"type": "function"
		}
	]
}